{"abi":[{"type":"function","name":"__Architect_init","inputs":[{"name":"ownerImplementation","type":"address","internalType":"contract ISpaceOwner"},{"name":"userEntitlementImplementation","type":"address","internalType":"contract IUserEntitlement"},{"name":"ruleEntitlementImplementation","type":"address","internalType":"contract IRuleEntitlementV2"},{"name":"legacyRuleEntitlement","type":"address","internalType":"contract IRuleEntitlement"}],"outputs":[],"stateMutability":"nonpayable"},{"type":"function","name":"createSpace","inputs":[{"name":"spaceInfo","type":"tuple","internalType":"struct IArchitectBase.SpaceInfo","components":[{"name":"name","type":"string","internalType":"string"},{"name":"uri","type":"string","internalType":"string"},{"name":"membership","type":"tuple","internalType":"struct IArchitectBase.Membership","components":[{"name":"settings","type":"tuple","internalType":"struct IMembershipBase.Membership","components":[{"name":"name","type":"string","internalType":"string"},{"name":"symbol","type":"string","internalType":"string"},{"name":"price","type":"uint256","internalType":"uint256"},{"name":"maxSupply","type":"uint256","internalType":"uint256"},{"name":"duration","type":"uint64","internalType":"uint64"},{"name":"currency","type":"address","internalType":"address"},{"name":"feeRecipient","type":"address","internalType":"address"},{"name":"freeAllocation","type":"uint256","internalType":"uint256"},{"name":"pricingModule","type":"address","internalType":"address"}]},{"name":"requirements","type":"tuple","internalType":"struct IArchitectBase.MembershipRequirements","components":[{"name":"everyone","type":"bool","internalType":"bool"},{"name":"users","type":"address[]","internalType":"address[]"},{"name":"ruleData","type":"bytes","internalType":"bytes"}]},{"name":"permissions","type":"string[]","internalType":"string[]"}]},{"name":"channel","type":"tuple","internalType":"struct IArchitectBase.ChannelInfo","components":[{"name":"metadata","type":"string","internalType":"string"}]},{"name":"shortDescription","type":"string","internalType":"string"},{"name":"longDescription","type":"string","internalType":"string"}]}],"outputs":[{"name":"","type":"address","internalType":"address"}],"stateMutability":"nonpayable"},{"type":"function","name":"createSpaceWithPrepay","inputs":[{"name":"spaceInfo","type":"tuple","internalType":"struct IArchitectBase.CreateSpace","components":[{"name":"metadata","type":"tuple","internalType":"struct IArchitectBase.Metadata","components":[{"name":"name","type":"string","internalType":"string"},{"name":"uri","type":"string","internalType":"string"},{"name":"shortDescription","type":"string","internalType":"string"},{"name":"longDescription","type":"string","internalType":"string"}]},{"name":"membership","type":"tuple","internalType":"struct IArchitectBase.Membership","components":[{"name":"settings","type":"tuple","internalType":"struct IMembershipBase.Membership","components":[{"name":"name","type":"string","internalType":"string"},{"name":"symbol","type":"string","internalType":"string"},{"name":"price","type":"uint256","internalType":"uint256"},{"name":"maxSupply","type":"uint256","internalType":"uint256"},{"name":"duration","type":"uint64","internalType":"uint64"},{"name":"currency","type":"address","internalType":"address"},{"name":"feeRecipient","type":"address","internalType":"address"},{"name":"freeAllocation","type":"uint256","internalType":"uint256"},{"name":"pricingModule","type":"address","internalType":"address"}]},{"name":"requirements","type":"tuple","internalType":"struct IArchitectBase.MembershipRequirements","components":[{"name":"everyone","type":"bool","internalType":"bool"},{"name":"users","type":"address[]","internalType":"address[]"},{"name":"ruleData","type":"bytes","internalType":"bytes"}]},{"name":"permissions","type":"string[]","internalType":"string[]"}]},{"name":"channel","type":"tuple","internalType":"struct IArchitectBase.ChannelInfo","components":[{"name":"metadata","type":"string","internalType":"string"}]},{"name":"prepay","type":"tuple","internalType":"struct IArchitectBase.Prepay","components":[{"name":"supply","type":"uint256","internalType":"uint256"}]}]}],"outputs":[{"name":"","type":"address","internalType":"address"}],"stateMutability":"payable"},{"type":"function","name":"getSpaceArchitectImplementations","inputs":[],"outputs":[{"name":"spaceToken","type":"address","internalType":"contract ISpaceOwner"},{"name":"userEntitlementImplementation","type":"address","internalType":"contract IUserEntitlement"},{"name":"ruleEntitlementImplementation","type":"address","internalType":"contract IRuleEntitlementV2"},{"name":"legacyRuleEntitlement","type":"address","internalType":"contract IRuleEntitlement"}],"stateMutability":"view"},{"type":"function","name":"getSpaceByTokenId","inputs":[{"name":"tokenId","type":"uint256","internalType":"uint256"}],"outputs":[{"name":"","type":"address","internalType":"address"}],"stateMutability":"view"},{"type":"function","name":"getTokenIdBySpace","inputs":[{"name":"space","type":"address","internalType":"address"}],"outputs":[{"name":"","type":"uint256","internalType":"uint256"}],"stateMutability":"view"},{"type":"function","name":"setSpaceArchitectImplementations","inputs":[{"name":"spaceToken","type":"address","internalType":"contract ISpaceOwner"},{"name":"userEntitlementImplementation","type":"address","internalType":"contract IUserEntitlement"},{"name":"ruleEntitlementImplementation","type":"address","internalType":"contract IRuleEntitlementV2"},{"name":"legacyRuleEntitlement","type":"address","internalType":"contract IRuleEntitlement"}],"outputs":[],"stateMutability":"nonpayable"},{"type":"event","name":"Initialized","inputs":[{"name":"version","type":"uint32","indexed":false,"internalType":"uint32"}],"anonymous":false},{"type":"event","name":"InterfaceAdded","inputs":[{"name":"interfaceId","type":"bytes4","indexed":true,"internalType":"bytes4"}],"anonymous":false},{"type":"event","name":"InterfaceRemoved","inputs":[{"name":"interfaceId","type":"bytes4","indexed":true,"internalType":"bytes4"}],"anonymous":false},{"type":"event","name":"OwnershipTransferred","inputs":[{"name":"previousOwner","type":"address","indexed":true,"internalType":"address"},{"name":"newOwner","type":"address","indexed":true,"internalType":"address"}],"anonymous":false},{"type":"event","name":"Paused","inputs":[{"name":"account","type":"address","indexed":false,"internalType":"address"}],"anonymous":false},{"type":"event","name":"PricingModuleAdded","inputs":[{"name":"module","type":"address","indexed":true,"internalType":"address"}],"anonymous":false},{"type":"event","name":"PricingModuleRemoved","inputs":[{"name":"module","type":"address","indexed":true,"internalType":"address"}],"anonymous":false},{"type":"event","name":"PricingModuleUpdated","inputs":[{"name":"module","type":"address","indexed":true,"internalType":"address"}],"anonymous":false},{"type":"event","name":"SpaceCreated","inputs":[{"name":"owner","type":"address","indexed":true,"internalType":"address"},{"name":"tokenId","type":"uint256","indexed":true,"internalType":"uint256"},{"name":"space","type":"address","indexed":true,"internalType":"address"}],"anonymous":false},{"type":"event","name":"Unpaused","inputs":[{"name":"account","type":"address","indexed":false,"internalType":"address"}],"anonymous":false},{"type":"error","name":"Architect__InvalidAddress","inputs":[]},{"type":"error","name":"Architect__InvalidNetworkId","inputs":[]},{"type":"error","name":"Architect__InvalidPricingModule","inputs":[]},{"type":"error","name":"Architect__InvalidStringLength","inputs":[]},{"type":"error","name":"Architect__NotContract","inputs":[]},{"type":"error","name":"Factory__FailedDeployment","inputs":[]},{"type":"error","name":"Initializable_InInitializingState","inputs":[]},{"type":"error","name":"Initializable_NotInInitializingState","inputs":[]},{"type":"error","name":"Introspection_AlreadySupported","inputs":[]},{"type":"error","name":"Introspection_NotSupported","inputs":[]},{"type":"error","name":"InvalidPricingModule","inputs":[{"name":"module","type":"address","internalType":"address"}]},{"type":"error","name":"Ownable__NotOwner","inputs":[{"name":"account","type":"address","internalType":"address"}]},{"type":"error","name":"Ownable__ZeroAddress","inputs":[]},{"type":"error","name":"Pausable__NotPaused","inputs":[]},{"type":"error","name":"Pausable__Paused","inputs":[]},{"type":"error","name":"ReentrancyGuard__ReentrantCall","inputs":[]},{"type":"error","name":"Validator__InvalidAddress","inputs":[]}],"bytecode":{"object":"0x608060405234801561001057600080fd5b5061001961001e565b6100c4565b7f59b501c3653afc186af7d48dda36cf6732bd21629a6295693664240a6ef520008054640100000000900460ff161561006a576040516366008a2d60e01b815260040160405180910390fd5b805463ffffffff90811610156100c157805463ffffffff191663ffffffff90811782556040519081527fe9c9b456cb2994b80aeef036cf59d26e9617df80f816a6ee5a5b4166e07e2f5c9060200160405180910390a15b50565b613a2280620000d46000396000f3fe608060405260043610620000795760003560e01c8063673f0dd51162000054578063673f0dd51462000133578063c07ed8961462000158578063c0bc6796146200016f578063cd7242b814620001a357600080fd5b80631a424b66146200007e578063545efb2d14620000a557806354b93de514620000f5575b600080fd5b3480156200008b57600080fd5b50620000a36200009d366004620014a0565b620001c8565b005b348015620000b257600080fd5b50620000bd62000227565b604080516001600160a01b03958616815293851660208501529184169183019190915290911660608201526080015b60405180910390f35b3480156200010257600080fd5b506200011a6200011436600462001a06565b620002cf565b6040516001600160a01b039091168152602001620000ec565b3480156200014057600080fd5b506200011a6200015236600462001b3d565b6200038b565b6200011a6200016936600462001b7e565b620003c9565b3480156200017c57600080fd5b50620001946200018e36600462001cf9565b62000465565b604051908152602001620000ec565b348015620001b057600080fd5b50620000a3620001c2366004620014a0565b620004a3565b7f59b501c3653afc186af7d48dda36cf6732bd21629a6295693664240a6ef5200054640100000000900460ff166200021357604051630ef4733760e31b815260040160405180910390fd5b6200022184848484620004f4565b50505050565b600080600080620002c160008051602062003a02833981519152547f9e34afa7b4d27d347d25d9d9dab4f1a106fa081382e6c4243e834d093e787d01547f9e34afa7b4d27d347d25d9d9dab4f1a106fa081382e6c4243e834d093e787d02547f9e34afa7b4d27d347d25d9d9dab4f1a106fa081382e6c4243e834d093e787d05546001600160a01b03938416949284169391821692911690565b935093509350935090919293565b60006002600080516020620039e283398151915254036200030357604051635db5c7cd60e11b815260040160405180910390fd5b6200031c6002600080516020620039e283398151915255565b7fe17a067c7963a59b6dfd65d33b053fdbea1c56500e2aae4f976d9eda4da9eb005460ff161562000360576040516302ca8ced60e11b815260040160405180910390fd5b6200036b8262000633565b9050620003866001600080516020620039e283398151915255565b919050565b60008181527f06bd04a817647c31ee485c8a0baab96facd62dbfd4b475796bb17ca2c12f000260205260408120546001600160a01b03165b92915050565b60006002600080516020620039e28339815191525403620003fd57604051635db5c7cd60e11b815260040160405180910390fd5b620004166002600080516020620039e283398151915255565b7fe17a067c7963a59b6dfd65d33b053fdbea1c56500e2aae4f976d9eda4da9eb005460ff16156200045a576040516302ca8ced60e11b815260040160405180910390fd5b6200036b82620009e2565b6001600160a01b03811660009081527f06bd04a817647c31ee485c8a0baab96facd62dbfd4b475796bb17ca2c12f00016020526040812054620003c3565b7f4675fa8241f86f37157864d3d49b85ad4b164352c516da28e1678a90470ae300546001600160a01b0316331462000213576040516365f4906560e01b815233600482015260240160405180910390fd5b836001600160a01b03163b60000362000520576040516302f3d00b60e01b815260040160405180910390fd5b826001600160a01b03163b6000036200054c576040516302f3d00b60e01b815260040160405180910390fd5b816001600160a01b03163b60000362000578576040516302f3d00b60e01b815260040160405180910390fd5b60008051602062003a0283398151915280546001600160a01b03199081166001600160a01b03968716179091557f9e34afa7b4d27d347d25d9d9dab4f1a106fa081382e6c4243e834d093e787d0180548216948616949094179093557f9e34afa7b4d27d347d25d9d9dab4f1a106fa081382e6c4243e834d093e787d0280548416928516929092179091557f9e34afa7b4d27d347d25d9d9dab4f1a106fa081382e6c4243e834d093e787d0580549092169216919091179055565b60008051602062003a02833981519152805460408051631d5e528f60e21b815290516000937f06bd04a817647c31ee485c8a0baab96facd62dbfd4b475796bb17ca2c12f000093909285926001600160a01b03909216916375794a3c916004808201926020929091908290030181865afa158015620006b6573d6000803e3d6000fd5b505050506040513d601f19601f82011682018060405250810190620006dc919062001d19565b9050620006ee81866040015162000ab6565b8354909450836000620007018362001d33565b90915550506000818152600284016020908152604080832080546001600160a01b0319166001600160a01b03898116918217909255845260018701835292819020849055845488519289015160808a015160a08b01519351630efd6e3d60e21b81529290951694633bf5b8f494620007829490938b92919060040162001daf565b6020604051808303816000875af1158015620007a2573d6000803e3d6000fd5b505050506040513d601f19601f82011682018060405250810190620007c8919062001d19565b506001820154600090620007e6906001600160a01b03168662000ae0565b600284015490915060009062000806906001600160a01b03168762000ae0565b6040805160028082526060820183529293506000929091602083019080368337019050509050828160008151811062000843576200084362001e1f565b60200260200101906001600160a01b031690816001600160a01b03168152505081816001815181106200087a576200087a62001e1f565b6001600160a01b039283166020918202929092010152604051638bfc820f60e01b815290881690638bfc820f90620008b790849060040162001e35565b600060405180830381600087803b158015620008d257600080fd5b505af1158015620008e7573d6000803e3d6000fd5b50505050620009018784848b604001516020015162000b9d565b5060408089015180515191015160009162000920918a91908762000fa3565b90506200093388828b6060015162001133565b8554604051632142170760e11b8152306004820152336024820152604481018790526001600160a01b03909116906342842e0e90606401600060405180830381600087803b1580156200098557600080fd5b505af11580156200099a573d6000803e3d6000fd5b50506040516001600160a01b038b16925087915033907fe50fc3942f8a2d7e5a7c8fb9488499eba5255b41e18bc3f1b4791402976d1d0b90600090a450505050505050919050565b6040805160c08101825282515181528251602090810151818301528301518183015282820151606080830191909152835190920151608082015282519091015160a082015260009062000a358162000633565b6060840151519092501562000ab0576060830151516040516306499d7f60e01b81526001600160a01b038416916306499d7f91349162000a7b9160040190815260200190565b6000604051808303818588803b15801562000a9557600080fd5b505af115801562000aaa573d6000803e3d6000fd5b50505050505b50919050565b600080600062000ac7858562001234565b9150915062000ad7828262001361565b95945050505050565b6000806040518060200162000af5906200146e565b601f1982820381018352601f9091011660408190526001600160a01b0385166024820152859060440160408051601f19818403018152918152602080830180516001600160e01b031663189acdbd60e31b179052905162000b599392910162001e84565b60408051601f198184030181529082905262000b79929160200162001eaa565b604051602081830303815290604052905062000b958162001387565b949350505050565b604080516001808252818301909252600091829190816020015b606081526020019060019003908162000bb7579050509050604051806040016040528060098152602001684a6f696e537061636560b81b8152508160008151811062000c075762000c0762001e1f565b6020026020010181905250856001600160a01b0316638fcd793d6040518060400160405280600681526020016526b4b73a32b960d11b8152508360006001600160401b0381111562000c5d5762000c5d62001505565b60405190808252806020026020018201604052801562000ca557816020015b60408051808201909152600081526060602082015281526020019060019003908162000c7c5790505b506040518463ffffffff1660e01b815260040162000cc69392919062001f06565b6020604051808303816000875af115801562000ce6573d6000803e3d6000fd5b505050506040513d601f19601f8201168201806040525081019062000d0c919062001d19565b83519092501562000e1a576040805160018082528183019092526000916020808301908036833701905050905060018160008151811062000d515762000d5162001e1f565b60200260200101906001600160a01b031690816001600160a01b031681525050866001600160a01b031663ba201ba88460405180604001604052808a6001600160a01b031681526020018560405160200162000dae919062001e35565b6040516020818303038152906040528152506040518363ffffffff1660e01b815260040162000ddf92919062001fd8565b600060405180830381600087803b15801562000dfa57600080fd5b505af115801562000e0f573d6000803e3d6000fd5b505050505062000f9a565b6020830151511562000f135760005b83602001515181101562000e6b5762000e628460200151828151811062000e545762000e5462001e1f565b6020026020010151620013ac565b60010162000e29565b50856001600160a01b031663ba201ba8836040518060400160405280896001600160a01b03168152602001876020015160405160200162000ead919062001e35565b6040516020818303038152906040528152506040518363ffffffff1660e01b815260040162000ede92919062001fd8565b600060405180830381600087803b15801562000ef957600080fd5b505af115801562000f0e573d6000803e3d6000fd5b505050505b6040830151511562000f9a576040805180820182526001600160a01b0386811682528583015160208301529151631744037560e31b81529188169163ba201ba89162000f659186919060040162001fd8565b600060405180830381600087803b15801562000f8057600080fd5b505af115801562000f95573d6000803e3d6000fd5b505050505b50949350505050565b6040805160018082528183019092526000918291906020808301908036833701905050905060018160008151811062000fe05762000fe062001e1f565b6001600160a01b039290921660209283029190910190910152604080516001808252818301909252600091816020015b60408051808201909152600081526060602082015281526020019060019003908162001010579050509050838160008151811062001052576200105262001e1f565b6020908102919091018101516001600160a01b039092169091526040516200107d9184910162001e35565b60405160208183030381529060405281600081518110620010a257620010a262001e1f565b6020908102919091018101510152604051638fcd793d60e01b81526001600160a01b03881690638fcd793d90620010e29089908990869060040162001f06565b6020604051808303816000875af115801562001102573d6000803e3d6000fd5b505050506040513d601f19601f8201168201806040525081019062001128919062001d19565b979650505050505050565b6040805160018082528183019092526000916020808301908036833701905050905082816000815181106200116c576200116c62001e1f565b602090810291909101810191909152604051600160fd1b918101919091526bffffffffffffffffffffffff19606086901b166021820152600090603501604051602081830303815290604052620011c39062001ff3565b835160405163921f717560e01b81529192506001600160a01b0387169163921f717591620011f991859190879060040162002018565b600060405180830381600087803b1580156200121457600080fd5b505af115801562001229573d6000803e3d6000fd5b505050505050505050565b606060006200124c83600001516101000151620013d7565b600060008051602062003a0283398151915254604080513360208201529081018790524260608201526001600160a01b03909116915060800160408051601f198184030181529190528051602090910120845160c0810151919350906001600160a01b0316620012bd573360c08201525b604051620012ce602082016200147c565b601f19828203810183526040601f90920116818101825263dc9cc64560e01b815230602082810191909152825180840184526001600160a01b03871681528082018b905292516200132793339392909187910162002079565b60408051601f198184030181529082905262001347929160200162001eaa565b604051602081830303815290604052935050509250929050565b60008260200183518381836000f59250505080620003c35763ef35ca196000526004601cfd5b600081602001825180826000f09250505080620003865763ef35ca196000526004601cfd5b6001600160a01b038116620013d4576040516302e47d1560e41b815260040160405180910390fd5b50565b6001600160a01b0381161580620013f65750620013f48162001415565b155b15620013d457604051637e4248fd60e11b815260040160405180910390fd5b60007f6438323c68a77f029335e6433efb7c07e7cd1775df0c27e75bcd3591a8bc5d006200144481846200144b565b9392505050565b6001600160a01b0381166000908152600183016020526040812054151562001444565b6103d4806200217583390190565b611499806200254983390190565b6001600160a01b0381168114620013d457600080fd5b60008060008060808587031215620014b757600080fd5b8435620014c4816200148a565b93506020850135620014d6816200148a565b92506040850135620014e8816200148a565b91506060850135620014fa816200148a565b939692955090935050565b634e487b7160e01b600052604160045260246000fd5b604051606081016001600160401b038111828210171562001540576200154062001505565b60405290565b60405161012081016001600160401b038111828210171562001540576200154062001505565b604051602081016001600160401b038111828210171562001540576200154062001505565b60405160c081016001600160401b038111828210171562001540576200154062001505565b604051608081016001600160401b038111828210171562001540576200154062001505565b604051601f8201601f191681016001600160401b038111828210171562001606576200160662001505565b604052919050565b600082601f8301126200162057600080fd5b81356001600160401b038111156200163c576200163c62001505565b62001651601f8201601f1916602001620015db565b8181528460208386010111156200166757600080fd5b816020850160208301376000918101602001919091529392505050565b80356001600160401b03811681146200038657600080fd5b803562000386816200148a565b60006001600160401b03821115620016c557620016c562001505565b5060051b60200190565b600060608284031215620016e257600080fd5b620016ec6200151b565b905081358015158114620016ff57600080fd5b81526020828101356001600160401b03808211156200171d57600080fd5b818501915085601f8301126200173257600080fd5b8135620017496200174382620016a9565b620015db565b81815260059190911b830184019084810190888311156200176957600080fd5b938501935b828510156200179457843562001784816200148a565b825293850193908501906200176e565b80868801525050506040850135925080831115620017b157600080fd5b5050620017c1848285016200160e565b60408301525092915050565b600082601f830112620017df57600080fd5b81356020620017f26200174383620016a9565b82815260059290921b840181019181810190868411156200181257600080fd5b8286015b84811015620018565780356001600160401b03811115620018375760008081fd5b620018478986838b01016200160e565b84525091830191830162001816565b509695505050505050565b6000606082840312156200187457600080fd5b6200187e6200151b565b905081356001600160401b03808211156200189857600080fd5b908301906101208286031215620018ae57600080fd5b620018b862001546565b823582811115620018c857600080fd5b620018d6878286016200160e565b825250602083013582811115620018ec57600080fd5b620018fa878286016200160e565b6020830152506040830135604082015260608301356060820152620019226080840162001684565b60808201526200193560a084016200169c565b60a08201526200194860c084016200169c565b60c082015260e083013560e0820152610100620019678185016200169c565b90820152835260208401359150808211156200198257600080fd5b6200199085838601620016cf565b60208401526040840135915080821115620019aa57600080fd5b50620017c184828501620017cd565b600060208284031215620019cc57600080fd5b620019d66200156c565b905081356001600160401b03811115620019ef57600080fd5b620019fd848285016200160e565b82525092915050565b60006020828403121562001a1957600080fd5b81356001600160401b038082111562001a3157600080fd5b9083019060c0828603121562001a4657600080fd5b62001a5062001591565b82358281111562001a6057600080fd5b62001a6e878286016200160e565b82525060208301358281111562001a8457600080fd5b62001a92878286016200160e565b60208301525060408301358281111562001aab57600080fd5b62001ab98782860162001861565b60408301525060608301358281111562001ad257600080fd5b62001ae087828601620019b9565b60608301525060808301358281111562001af957600080fd5b62001b07878286016200160e565b60808301525060a08301358281111562001b2057600080fd5b62001b2e878286016200160e565b60a08301525095945050505050565b60006020828403121562001b5057600080fd5b5035919050565b60006020828403121562001b6a57600080fd5b62001b746200156c565b9135825250919050565b60006020828403121562001b9157600080fd5b81356001600160401b038082111562001ba957600080fd5b908301906080828603121562001bbe57600080fd5b62001bc8620015b6565b82358281111562001bd857600080fd5b83016080818803121562001beb57600080fd5b62001bf5620015b6565b81358481111562001c0557600080fd5b62001c13898285016200160e565b82525060208201358481111562001c2957600080fd5b62001c37898285016200160e565b60208301525060408201358481111562001c5057600080fd5b62001c5e898285016200160e565b60408301525060608201358481111562001c7757600080fd5b62001c85898285016200160e565b60608301525082525060208301358281111562001ca157600080fd5b62001caf8782860162001861565b60208301525060408301358281111562001cc857600080fd5b62001cd687828601620019b9565b60408301525062001ceb866060850162001b57565b606082015295945050505050565b60006020828403121562001d0c57600080fd5b813562001444816200148a565b60006020828403121562001d2c57600080fd5b5051919050565b60006001820162001d5457634e487b7160e01b600052601160045260246000fd5b5060010190565b60005b8381101562001d7857818101518382015260200162001d5e565b50506000910152565b6000815180845262001d9b81602086016020860162001d5b565b601f01601f19169290920160200192915050565b60a08152600062001dc460a083018862001d81565b828103602084015262001dd8818862001d81565b6001600160a01b03871660408501528381036060850152905062001dfd818662001d81565b9050828103608084015262001e13818562001d81565b98975050505050505050565b634e487b7160e01b600052603260045260246000fd5b6020808252825182820181905260009190848201906040850190845b8181101562001e785783516001600160a01b03168352928401929184019160010162001e51565b50909695505050505050565b6001600160a01b038316815260406020820181905260009062000b959083018462001d81565b6000835162001ebe81846020880162001d5b565b83519083019062001ed481836020880162001d5b565b01949350505050565b60018060a01b038151168252600060208201516040602085015262000b95604085018262001d81565b60608152600062001f1b606083018662001d81565b6020838203818501528186518084528284019150828160051b85010183890160005b8381101562001f6f57601f1987840301855262001f5c83835162001d81565b9486019492509085019060010162001f3d565b50508681036040880152875180825284820195509250600583901b81018401915083880160005b8481101562001fc857601f1983850301875262001fb584835162001edd565b9686019693509085019060010162001f96565b50919a9950505050505050505050565b82815260406020820152600062000b95604083018462001edd565b8051602080830151919081101562000ab05760001960209190910360031b1b16919050565b838152600060206060602084015262002035606084018662001d81565b83810360408501528451808252602080870192019060005b818110156200206b578351835292840192918401916001016200204d565b509098975050505050505050565b600060018060a01b03808716835263ffffffff60e01b8651166020840152806020870151166040840152808551166060840152506020840151608083015260c060a083015282516101208060c0850152620020d96101e085018362001d81565b9150602085015160bf198584030160e0860152620020f8838262001d81565b92505060408501516101008181870152606087015183870152608087015192506200212f6101408701846001600160401b03169052565b60a08701516001600160a01b0390811661016088015260c0880151811661018088015260e08801516101a0880152908701519081166101c0870152915062001856905056fe60806040526040516103d43803806103d483398101604081905261002291610268565b61002c8282610033565b5050610352565b61003c82610092565b6040516001600160a01b038316907fbc7cd75a20ee27fd9adebab32041f755214dbc6bffa90cc0225b39da2e5c2d3b90600090a280511561008657610081828261010e565b505050565b61008e610185565b5050565b806001600160a01b03163b6000036100cd57604051634c9c8ce360e01b81526001600160a01b03821660048201526024015b60405180910390fd5b7f360894a13ba1a3210667c828492db98dca3e2076cc3735a920a3ca505d382bbc80546001600160a01b0319166001600160a01b0392909216919091179055565b6060600080846001600160a01b03168460405161012b9190610336565b600060405180830381855af49150503d8060008114610166576040519150601f19603f3d011682016040523d82523d6000602084013e61016b565b606091505b50909250905061017c8583836101a6565b95945050505050565b34156101a45760405163b398979f60e01b815260040160405180910390fd5b565b6060826101bb576101b682610205565b6101fe565b81511580156101d257506001600160a01b0384163b155b156101fb57604051639996b31560e01b81526001600160a01b03851660048201526024016100c4565b50805b9392505050565b8051156102155780518082602001fd5b604051630a12f52160e11b815260040160405180910390fd5b634e487b7160e01b600052604160045260246000fd5b60005b8381101561025f578181015183820152602001610247565b50506000910152565b6000806040838503121561027b57600080fd5b82516001600160a01b038116811461029257600080fd5b60208401519092506001600160401b03808211156102af57600080fd5b818501915085601f8301126102c357600080fd5b8151818111156102d5576102d561022e565b604051601f8201601f19908116603f011681019083821181831017156102fd576102fd61022e565b8160405282815288602084870101111561031657600080fd5b610327836020830160208801610244565b80955050505050509250929050565b60008251610348818460208701610244565b9190910192915050565b6074806103606000396000f3fe6080604052600a600c565b005b60186014601a565b6051565b565b6000604c7f360894a13ba1a3210667c828492db98dca3e2076cc3735a920a3ca505d382bbc546001600160a01b031690565b905090565b3660008037600080366000845af43d6000803e808015606f573d6000f35b3d6000fd60806040523480156200001157600080fd5b506040516200149938038062001499833981016040819052620000349162000c14565b6200003e62000160565b620000a58380517f9c16cba5b9f2fcbd952b38bec34079e93cbe107475c15fc20705f4e704198a0080546020909301516001600160a01b03166001600160a01b031960e09390931c600160a01b02929092166001600160c01b031990931692909217179055565b81517fd2f24d4f172e4e84e48e7c4125b6e904c29e5eba33ad4938fee51dd5dbd4b60080546001600160a01b0319166001600160a01b0390921691909117905560208201517fd2f24d4f172e4e84e48e7c4125b6e904c29e5eba33ad4938fee51dd5dbd4b60155805160208201516200011f919062000174565b62000135818460200151620001cb60201b60201c565b6200014284600162000380565b6200014c620003a6565b620001566200047b565b5050505062000ef9565b620001726301ffc9a760e01b620004d0565b565b600080516020620014198339815191527f6569bde4a160c636ea8b8d11acb83a60d7fec0b8f2e09389306cba0e1340df02620001b1848262000d7a565b5060038101620001c2838262000d7a565b50600090555050565b6000805160206200143983398151915280546001600160a01b038381166001600160a01b0319928316179092556101008401517fc21004fcc619240a31f006438274d15cd813308303284436eef6055f0fdcb608805491909316908216179091557fc21004fcc619240a31f006438274d15cd813308303284436eef6055f0fdcb604805490911673eeeeeeeeeeeeeeeeeeeeeeeeeeeeeeeeeeeeeeee17905560608201517fc21004fcc619240a31f006438274d15cd813308303284436eef6055f0fdcb6035560e08201517fc21004fcc619240a31f006438274d15cd813308303284436eef6055f0fdcb607819055600080516020620014798339815191529015620002f15760e0830151620002e190620005ab565b600d8101805460ff191660011790555b6040830151156200037b5760408301516200030c9062000659565b600881015460408085015190516391b7f5ed60e01b81526001600160a01b03909216916391b7f5ed91620003469160040190815260200190565b600060405180830381600087803b1580156200036157600080fd5b505af115801562000376573d6000803e3d6000fd5b505050505b505050565b620003a28282604051806020016040528060008152506200070460201b60201c565b5050565b60007f9075c515a635ba70c9696f31149324218d75cf00afe836c482e6473f38b19e00905060006000805160206200147983398151915260060154604051628956cd60e71b81526c29b830b1b2a7b832b930ba37b960991b60048201526001600160a01b03909116906344ab668090602401602060405180830381865afa15801562000436573d6000803e3d6000fd5b505050506040513d601f19601f820116820180604052508101906200045c919062000e46565b82546001600160a01b0319166001600160a01b03919091161790915550565b6200048d6380ac58cd60e01b620004d0565b6200049f635b5e139f60e01b620004d0565b620004b1638c65f84d60e01b620004d0565b620004c36307f5828d60e41b620004d0565b62000172630e38709160e41b5b6001600160e01b0319811660009081527f81088bbc801e045ea3e7620779ab349988f58afbdfba10dff983df3f33522b00602052604090205460ff166200055a576001600160e01b0319811660009081527f81088bbc801e045ea3e7620779ab349988f58afbdfba10dff983df3f33522b0060205260409020805460ff1916600117905562000573565b604051637967f77d60e11b815260040160405180910390fd5b6040516001600160e01b03198216907f78f84e5b1c5c05be2b5ad3800781dd404d6d6c6302bc755c0fe20f58a33a7f2290600090a250565b600080516020620014398339815191525460408051632cbb9d1360e01b8152905160008051602062001479833981519152926001600160a01b031691632cbb9d139160048083019260209291908290030181865afa15801562000612573d6000803e3d6000fd5b505050506040513d601f19601f8201168201806040525081019062000638919062000e6b565b821115620003a25760405163c3983b9160e01b815260040160405180910390fd5b60006200067c60008051602062001439833981519152546001600160a01b031690565b6001600160a01b0316631b159e2e6040518163ffffffff1660e01b8152600401602060405180830381865afa158015620006ba573d6000803e3d6000fd5b505050506040513d601f19601f82011682018060405250810190620006e0919062000e6b565b905080821015620003a257604051631a23d64760e11b815260040160405180910390fd5b62000710838362000796565b6001600160a01b0383163b156200037b5760008051602062001419833981519152548281035b60018101906200074c90600090879086620008d0565b6200076a576040516368d2bf6b60e11b815260040160405180910390fd5b8181106200073657816000805160206200141983398151915254146200078f57600080fd5b5050505050565b60008051602062001419833981519152546000829003620007ca5760405163b562e8dd60e01b815260040160405180910390fd5b6001600160a01b03831660008181527f6569bde4a160c636ea8b8d11acb83a60d7fec0b8f2e09389306cba0e1340df056020908152604080832080546801000000000000000188020190558483527f6569bde4a160c636ea8b8d11acb83a60d7fec0b8f2e09389306cba0e1340df0490915281206001851460e11b4260a01b17831790558284019083908390600080516020620014598339815191528180a4600183015b81811462000897578083600060008051602062001459833981519152600080a46001016200086e565b5081600003620008b957604051622e076360e81b815260040160405180910390fd5b600080516020620014198339815191525550505050565b604051630a85bd0160e11b81526000906001600160a01b0385169063150b7a02906200090790339089908890889060040162000e85565b6020604051808303816000875af192505050801562000945575060408051601f3d908101601f19168201909252620009429181019062000edb565b60015b620009a7573d80801562000976576040519150601f19603f3d011682016040523d82523d6000602084013e6200097b565b606091505b5080516000036200099f576040516368d2bf6b60e11b815260040160405180910390fd5b805181602001fd5b6001600160e01b031916630a85bd0160e11b149050949350505050565b80516001600160a01b0381168114620009dc57600080fd5b919050565b634e487b7160e01b600052604160045260246000fd5b60405161012081016001600160401b038111828210171562000a1d5762000a1d620009e1565b60405290565b604080519081016001600160401b038111828210171562000a1d5762000a1d620009e1565b80516001600160e01b031981168114620009dc57600080fd5b60005b8381101562000a7e57818101518382015260200162000a64565b50506000910152565b600082601f83011262000a9957600080fd5b81516001600160401b038082111562000ab65762000ab6620009e1565b604051601f8301601f19908116603f0116810190828211818310171562000ae15762000ae1620009e1565b8160405283815286602085880101111562000afb57600080fd5b62000b0e84602083016020890162000a61565b9695505050505050565b80516001600160401b0381168114620009dc57600080fd5b6000610120828403121562000b4457600080fd5b62000b4e620009f7565b82519091506001600160401b038082111562000b6957600080fd5b62000b778583860162000a87565b8352602084015191508082111562000b8e57600080fd5b5062000b9d8482850162000a87565b602083015250604082015160408201526060820151606082015262000bc56080830162000b18565b608082015262000bd860a08301620009c4565b60a082015262000beb60c08301620009c4565b60c082015260e082015160e082015261010062000c0a818401620009c4565b9082015292915050565b60008060008084860360c081121562000c2c57600080fd5b62000c3786620009c4565b94506040601f198201121562000c4c57600080fd5b62000c5662000a23565b62000c646020880162000a48565b815262000c7460408801620009c4565b602082015293506040605f198201121562000c8e57600080fd5b5062000c9962000a23565b62000ca760608701620009c4565b81526080860151602082015260a08601519092506001600160401b0381111562000cd057600080fd5b62000cde8782880162000b30565b91505092959194509250565b600181811c9082168062000cff57607f821691505b60208210810362000d2057634e487b7160e01b600052602260045260246000fd5b50919050565b601f8211156200037b576000816000526020600020601f850160051c8101602086101562000d515750805b601f850160051c820191505b8181101562000d725782815560010162000d5d565b505050505050565b81516001600160401b0381111562000d965762000d96620009e1565b62000dae8162000da7845462000cea565b8462000d26565b602080601f83116001811462000de6576000841562000dcd5750858301515b600019600386901b1c1916600185901b17855562000d72565b600085815260208120601f198616915b8281101562000e175788860151825594840194600190910190840162000df6565b508582101562000e365787850151600019600388901b60f8161c191681555b5050505050600190811b01905550565b60006020828403121562000e5957600080fd5b62000e6482620009c4565b9392505050565b60006020828403121562000e7e57600080fd5b5051919050565b600060018060a01b03808716835280861660208401525083604083015260806060830152825180608084015262000ec48160a085016020870162000a61565b601f01601f19169190910160a00195945050505050565b60006020828403121562000eee57600080fd5b62000e648262000a48565b6105108062000f096000396000f3fe6080604052600436106100225760003560e01c8063ac9650d81461003357610029565b3661002957005b610031610069565b005b34801561003f57600080fd5b5061005361004e366004610327565b6100c4565b60405161006091906103c0565b60405180910390f35b60006100736101e1565b9050806001600160a01b03163b6000036100a0576040516321f27f0d60e21b815260040160405180910390fd5b3660008037600080366000845af43d6000803e8080156100bf573d6000f35b3d6000fd5b6060818067ffffffffffffffff8111156100e0576100e061043a565b60405190808252806020026020018201604052801561011357816020015b60608152602001906001900390816100fe5790505b50915060005b818110156101d9576000803087878581811061013757610137610450565b90506020028101906101499190610466565b6040516101579291906104b4565b600060405180830381855af49150503d8060008114610192576040519150601f19603f3d011682016040523d82523d6000602084013e610197565b606091505b509150915081156101c557808584815181106101b5576101b5610450565b60200260200101819052506101cf565b3d6000803e3d6000fd5b5050600101610119565b505092915050565b7f9c16cba5b9f2fcbd952b38bec34079e93cbe107475c15fc20705f4e704198a0054600090600160a01b900460e01b81806102437f9c16cba5b9f2fcbd952b38bec34079e93cbe107475c15fc20705f4e704198a00546001600160a01b031690565b6040516001600160e01b03196000351660248201526001600160a01b039190911690849060440160408051601f198184030181529181526020820180516001600160e01b03166001600160e01b03199094169390931790925290516102a891906104c4565b600060405180830381855afa9150503d80600081146102e3576040519150601f19603f3d011682016040523d82523d6000602084013e6102e8565b606091505b50915091508161030b5760405163391aa44560e01b815260040160405180910390fd5b8080602001905181019061031f91906104e0565b935050505090565b6000806020838503121561033a57600080fd5b823567ffffffffffffffff8082111561035257600080fd5b818501915085601f83011261036657600080fd5b81358181111561037557600080fd5b8660208260051b850101111561038a57600080fd5b60209290920196919550909350505050565b60005b838110156103b757818101518382015260200161039f565b50506000910152565b6000602080830181845280855180835260408601915060408160051b870101925083870160005b8281101561042d57878503603f190184528151805180875261040e818989018a850161039c565b601f01601f1916959095018601945092850192908501906001016103e7565b5092979650505050505050565b634e487b7160e01b600052604160045260246000fd5b634e487b7160e01b600052603260045260246000fd5b6000808335601e1984360301811261047d57600080fd5b83018035915067ffffffffffffffff82111561049857600080fd5b6020019150368190038213156104ad57600080fd5b9250929050565b8183823760009101908152919050565b600082516104d681846020870161039c565b9190910192915050565b6000602082840312156104f257600080fd5b81516001600160a01b038116811461050957600080fd5b9392505050566569bde4a160c636ea8b8d11acb83a60d7fec0b8f2e09389306cba0e1340df00c21004fcc619240a31f006438274d15cd813308303284436eef6055f0fdcb606ddf252ad1be2c89b69c2b068fc378daa952ba7f163c4a11628f55a4df523b3efc21004fcc619240a31f006438274d15cd813308303284436eef6055f0fdcb60054f22f54f370bd020e00ee80e1a5099a71652e2ccbcf6a75281e4c70a3e11a009e34afa7b4d27d347d25d9d9dab4f1a106fa081382e6c4243e834d093e787d00","linkReferences":{}},"methodIdentifiers":{"__Architect_init(address,address,address,address)":"1a424b66","createSpace((string,string,((string,string,uint256,uint256,uint64,address,address,uint256,address),(bool,address[],bytes),string[]),(string),string,string))":"54b93de5","createSpaceWithPrepay(((string,string,string,string),((string,string,uint256,uint256,uint64,address,address,uint256,address),(bool,address[],bytes),string[]),(string),(uint256)))":"c07ed896","getSpaceArchitectImplementations()":"545efb2d","getSpaceByTokenId(uint256)":"673f0dd5","getTokenIdBySpace(address)":"c0bc6796","setSpaceArchitectImplementations(address,address,address,address)":"cd7242b8"},"id":156}