{"abi":[{"type":"function","name":"__Architect_init","inputs":[{"name":"ownerImplementation","type":"address","internalType":"contract ISpaceOwner"},{"name":"userEntitlementImplementation","type":"address","internalType":"contract IUserEntitlement"},{"name":"ruleEntitlementImplementation","type":"address","internalType":"contract IRuleEntitlementV2"},{"name":"legacyRuleEntitlement","type":"address","internalType":"contract IRuleEntitlement"}],"outputs":[],"stateMutability":"nonpayable"},{"type":"function","name":"getProxyInitializer","inputs":[],"outputs":[{"name":"","type":"address","internalType":"contract ISpaceProxyInitializer"}],"stateMutability":"view"},{"type":"function","name":"getSpaceArchitectImplementations","inputs":[],"outputs":[{"name":"spaceToken","type":"address","internalType":"contract ISpaceOwner"},{"name":"userEntitlementImplementation","type":"address","internalType":"contract IUserEntitlement"},{"name":"ruleEntitlementImplementation","type":"address","internalType":"contract IRuleEntitlementV2"},{"name":"legacyRuleEntitlement","type":"address","internalType":"contract IRuleEntitlement"}],"stateMutability":"view"},{"type":"function","name":"getSpaceByTokenId","inputs":[{"name":"tokenId","type":"uint256","internalType":"uint256"}],"outputs":[{"name":"","type":"address","internalType":"address"}],"stateMutability":"view"},{"type":"function","name":"getTokenIdBySpace","inputs":[{"name":"space","type":"address","internalType":"address"}],"outputs":[{"name":"","type":"uint256","internalType":"uint256"}],"stateMutability":"view"},{"type":"function","name":"setProxyInitializer","inputs":[{"name":"proxyInitializer","type":"address","internalType":"contract ISpaceProxyInitializer"}],"outputs":[],"stateMutability":"nonpayable"},{"type":"function","name":"setSpaceArchitectImplementations","inputs":[{"name":"spaceToken","type":"address","internalType":"contract ISpaceOwner"},{"name":"userEntitlementImplementation","type":"address","internalType":"contract IUserEntitlement"},{"name":"ruleEntitlementImplementation","type":"address","internalType":"contract IRuleEntitlementV2"},{"name":"legacyRuleEntitlement","type":"address","internalType":"contract IRuleEntitlement"}],"outputs":[],"stateMutability":"nonpayable"},{"type":"event","name":"Architect__ProxyInitializerSet","inputs":[{"name":"proxyInitializer","type":"address","indexed":true,"internalType":"address"}],"anonymous":false},{"type":"event","name":"Initialized","inputs":[{"name":"version","type":"uint32","indexed":false,"internalType":"uint32"}],"anonymous":false},{"type":"event","name":"InterfaceAdded","inputs":[{"name":"interfaceId","type":"bytes4","indexed":true,"internalType":"bytes4"}],"anonymous":false},{"type":"event","name":"InterfaceRemoved","inputs":[{"name":"interfaceId","type":"bytes4","indexed":true,"internalType":"bytes4"}],"anonymous":false},{"type":"event","name":"OwnershipTransferred","inputs":[{"name":"previousOwner","type":"address","indexed":true,"internalType":"address"},{"name":"newOwner","type":"address","indexed":true,"internalType":"address"}],"anonymous":false},{"type":"event","name":"Paused","inputs":[{"name":"account","type":"address","indexed":false,"internalType":"address"}],"anonymous":false},{"type":"event","name":"PermissionsAddedToChannelRole","inputs":[{"name":"updater","type":"address","indexed":true,"internalType":"address"},{"name":"roleId","type":"uint256","indexed":true,"internalType":"uint256"},{"name":"channelId","type":"bytes32","indexed":true,"internalType":"bytes32"}],"anonymous":false},{"type":"event","name":"PermissionsRemovedFromChannelRole","inputs":[{"name":"updater","type":"address","indexed":true,"internalType":"address"},{"name":"roleId","type":"uint256","indexed":true,"internalType":"uint256"},{"name":"channelId","type":"bytes32","indexed":true,"internalType":"bytes32"}],"anonymous":false},{"type":"event","name":"PermissionsUpdatedForChannelRole","inputs":[{"name":"updater","type":"address","indexed":true,"internalType":"address"},{"name":"roleId","type":"uint256","indexed":true,"internalType":"uint256"},{"name":"channelId","type":"bytes32","indexed":true,"internalType":"bytes32"}],"anonymous":false},{"type":"event","name":"PricingModuleAdded","inputs":[{"name":"module","type":"address","indexed":true,"internalType":"address"}],"anonymous":false},{"type":"event","name":"PricingModuleRemoved","inputs":[{"name":"module","type":"address","indexed":true,"internalType":"address"}],"anonymous":false},{"type":"event","name":"PricingModuleUpdated","inputs":[{"name":"module","type":"address","indexed":true,"internalType":"address"}],"anonymous":false},{"type":"event","name":"RoleCreated","inputs":[{"name":"creator","type":"address","indexed":true,"internalType":"address"},{"name":"roleId","type":"uint256","indexed":true,"internalType":"uint256"}],"anonymous":false},{"type":"event","name":"RoleRemoved","inputs":[{"name":"remover","type":"address","indexed":true,"internalType":"address"},{"name":"roleId","type":"uint256","indexed":true,"internalType":"uint256"}],"anonymous":false},{"type":"event","name":"RoleUpdated","inputs":[{"name":"updater","type":"address","indexed":true,"internalType":"address"},{"name":"roleId","type":"uint256","indexed":true,"internalType":"uint256"}],"anonymous":false},{"type":"event","name":"SpaceCreated","inputs":[{"name":"owner","type":"address","indexed":true,"internalType":"address"},{"name":"tokenId","type":"uint256","indexed":true,"internalType":"uint256"},{"name":"space","type":"address","indexed":true,"internalType":"address"}],"anonymous":false},{"type":"event","name":"Unpaused","inputs":[{"name":"account","type":"address","indexed":false,"internalType":"address"}],"anonymous":false},{"type":"error","name":"Architect__InvalidAddress","inputs":[]},{"type":"error","name":"Architect__InvalidNetworkId","inputs":[]},{"type":"error","name":"Architect__InvalidPricingModule","inputs":[]},{"type":"error","name":"Architect__InvalidStringLength","inputs":[]},{"type":"error","name":"Architect__NotContract","inputs":[]},{"type":"error","name":"Factory__FailedDeployment","inputs":[]},{"type":"error","name":"Initializable_InInitializingState","inputs":[]},{"type":"error","name":"Initializable_NotInInitializingState","inputs":[]},{"type":"error","name":"Introspection_AlreadySupported","inputs":[]},{"type":"error","name":"Introspection_NotSupported","inputs":[]},{"type":"error","name":"InvalidPricingModule","inputs":[{"name":"module","type":"address","internalType":"address"}]},{"type":"error","name":"Ownable__NotOwner","inputs":[{"name":"account","type":"address","internalType":"address"}]},{"type":"error","name":"Ownable__ZeroAddress","inputs":[]},{"type":"error","name":"Pausable__NotPaused","inputs":[]},{"type":"error","name":"Pausable__Paused","inputs":[]},{"type":"error","name":"Reentrancy","inputs":[]},{"type":"error","name":"Roles__EntitlementAlreadyExists","inputs":[]},{"type":"error","name":"Roles__EntitlementDoesNotExist","inputs":[]},{"type":"error","name":"Roles__InvalidEntitlementAddress","inputs":[]},{"type":"error","name":"Roles__InvalidPermission","inputs":[]},{"type":"error","name":"Roles__PermissionAlreadyExists","inputs":[]},{"type":"error","name":"Roles__PermissionDoesNotExist","inputs":[]},{"type":"error","name":"Roles__RoleDoesNotExist","inputs":[]}],"bytecode":{"object":"0x608060405234801561001057600080fd5b5061001961001e565b6100c4565b7f59b501c3653afc186af7d48dda36cf6732bd21629a6295693664240a6ef520008054640100000000900460ff161561006a576040516366008a2d60e01b815260040160405180910390fd5b805463ffffffff90811610156100c157805463ffffffff191663ffffffff90811782556040519081527fe9c9b456cb2994b80aeef036cf59d26e9617df80f816a6ee5a5b4166e07e2f5c9060200160405180910390a15b50565b610649806100d36000396000f3fe608060405234801561001057600080fd5b506004361061007d5760003560e01c80636bd837f41161005b5780636bd837f414610102578063c0bc67961461010a578063cd7242b81461012b578063e6907c9d1461013e57600080fd5b80631a424b6614610082578063545efb2d14610097578063673f0dd5146100d7575b600080fd5b6100956100903660046105b0565b610151565b005b61009f6101ad565b604080516001600160a01b03958616815293851660208501529184169183019190915290911660608201526080015b60405180910390f35b6100ea6100e536600461060c565b610265565b6040516001600160a01b0390911681526020016100ce565b6100ea6102a3565b61011d610118366004610625565b6102db565b6040519081526020016100ce565b6100956101393660046105b0565b610318565b61009561014c366004610625565b610369565b7f59b501c3653afc186af7d48dda36cf6732bd21629a6295693664240a6ef5200054640100000000900460ff1661019b57604051630ef4733760e31b815260040160405180910390fd5b6101a7848484846103c1565b50505050565b6000806000806102577f9e34afa7b4d27d347d25d9d9dab4f1a106fa081382e6c4243e834d093e787d00547f9e34afa7b4d27d347d25d9d9dab4f1a106fa081382e6c4243e834d093e787d01547f9e34afa7b4d27d347d25d9d9dab4f1a106fa081382e6c4243e834d093e787d02547f9e34afa7b4d27d347d25d9d9dab4f1a106fa081382e6c4243e834d093e787d05546001600160a01b03938416949284169391821692911690565b935093509350935090919293565b60008181527f06bd04a817647c31ee485c8a0baab96facd62dbfd4b475796bb17ca2c12f000260205260408120546001600160a01b03165b92915050565b60006102d67f9e34afa7b4d27d347d25d9d9dab4f1a106fa081382e6c4243e834d093e787d06546001600160a01b031690565b905090565b6001600160a01b03811660009081527f06bd04a817647c31ee485c8a0baab96facd62dbfd4b475796bb17ca2c12f0001602052604081205461029d565b7f4675fa8241f86f37157864d3d49b85ad4b164352c516da28e1678a90470ae300546001600160a01b0316331461019b576040516365f4906560e01b81523360048201526024015b60405180910390fd5b7f4675fa8241f86f37157864d3d49b85ad4b164352c516da28e1678a90470ae300546001600160a01b031633146103b5576040516365f4906560e01b8152336004820152602401610360565b6103be8161050e565b50565b836001600160a01b03163b6000036103ec576040516302f3d00b60e01b815260040160405180910390fd5b826001600160a01b03163b600003610417576040516302f3d00b60e01b815260040160405180910390fd5b816001600160a01b03163b600003610442576040516302f3d00b60e01b815260040160405180910390fd5b7f9e34afa7b4d27d347d25d9d9dab4f1a106fa081382e6c4243e834d093e787d0080546001600160a01b03199081166001600160a01b03968716179091557f9e34afa7b4d27d347d25d9d9dab4f1a106fa081382e6c4243e834d093e787d0180548216948616949094179093557f9e34afa7b4d27d347d25d9d9dab4f1a106fa081382e6c4243e834d093e787d0280548416928516929092179091557f9e34afa7b4d27d347d25d9d9dab4f1a106fa081382e6c4243e834d093e787d0580549092169216919091179055565b7f9e34afa7b4d27d347d25d9d9dab4f1a106fa081382e6c4243e834d093e787d0680546001600160a01b0319166001600160a01b0383169081179091556040517f9e34afa7b4d27d347d25d9d9dab4f1a106fa081382e6c4243e834d093e787d0091907f50d234a64b07fd5931eedf717c2eca7f76ef13920a1330cc774176dbf9c66b3e90600090a25050565b6001600160a01b03811681146103be57600080fd5b600080600080608085870312156105c657600080fd5b84356105d18161059b565b935060208501356105e18161059b565b925060408501356105f18161059b565b915060608501356106018161059b565b939692955090935050565b60006020828403121561061e57600080fd5b5035919050565b60006020828403121561063757600080fd5b81356106428161059b565b939250505056","linkReferences":{}},"methodIdentifiers":{"__Architect_init(address,address,address,address)":"1a424b66","getProxyInitializer()":"6bd837f4","getSpaceArchitectImplementations()":"545efb2d","getSpaceByTokenId(uint256)":"673f0dd5","getTokenIdBySpace(address)":"c0bc6796","setProxyInitializer(address)":"e6907c9d","setSpaceArchitectImplementations(address,address,address,address)":"cd7242b8"},"id":173}