{"abi":[{"type":"function","name":"__Architect_init","inputs":[{"name":"ownerImplementation","type":"address","internalType":"contract ISpaceOwner"},{"name":"userEntitlementImplementation","type":"address","internalType":"contract IUserEntitlement"},{"name":"ruleEntitlementImplementation","type":"address","internalType":"contract IRuleEntitlement"}],"outputs":[],"stateMutability":"nonpayable"},{"type":"function","name":"createSpace","inputs":[{"name":"spaceInfo","type":"tuple","internalType":"struct IArchitectBase.SpaceInfo","components":[{"name":"name","type":"string","internalType":"string"},{"name":"uri","type":"string","internalType":"string"},{"name":"membership","type":"tuple","internalType":"struct IArchitectBase.Membership","components":[{"name":"settings","type":"tuple","internalType":"struct IMembershipBase.Membership","components":[{"name":"name","type":"string","internalType":"string"},{"name":"symbol","type":"string","internalType":"string"},{"name":"price","type":"uint256","internalType":"uint256"},{"name":"maxSupply","type":"uint256","internalType":"uint256"},{"name":"duration","type":"uint64","internalType":"uint64"},{"name":"currency","type":"address","internalType":"address"},{"name":"feeRecipient","type":"address","internalType":"address"},{"name":"freeAllocation","type":"uint256","internalType":"uint256"},{"name":"pricingModule","type":"address","internalType":"address"}]},{"name":"requirements","type":"tuple","internalType":"struct IArchitectBase.MembershipRequirements","components":[{"name":"everyone","type":"bool","internalType":"bool"},{"name":"users","type":"address[]","internalType":"address[]"},{"name":"ruleData","type":"tuple","internalType":"struct IRuleEntitlementBase.RuleData","components":[{"name":"operations","type":"tuple[]","internalType":"struct IRuleEntitlementBase.Operation[]","components":[{"name":"opType","type":"uint8","internalType":"enum IRuleEntitlementBase.CombinedOperationType"},{"name":"index","type":"uint8","internalType":"uint8"}]},{"name":"checkOperations","type":"tuple[]","internalType":"struct IRuleEntitlementBase.CheckOperation[]","components":[{"name":"opType","type":"uint8","internalType":"enum IRuleEntitlementBase.CheckOperationType"},{"name":"chainId","type":"uint256","internalType":"uint256"},{"name":"contractAddress","type":"address","internalType":"address"},{"name":"threshold","type":"uint256","internalType":"uint256"}]},{"name":"logicalOperations","type":"tuple[]","internalType":"struct IRuleEntitlementBase.LogicalOperation[]","components":[{"name":"logOpType","type":"uint8","internalType":"enum IRuleEntitlementBase.LogicalOperationType"},{"name":"leftOperationIndex","type":"uint8","internalType":"uint8"},{"name":"rightOperationIndex","type":"uint8","internalType":"uint8"}]}]}]},{"name":"permissions","type":"string[]","internalType":"string[]"}]},{"name":"channel","type":"tuple","internalType":"struct IArchitectBase.ChannelInfo","components":[{"name":"metadata","type":"string","internalType":"string"}]},{"name":"shortDescription","type":"string","internalType":"string"},{"name":"longDescription","type":"string","internalType":"string"}]}],"outputs":[{"name":"","type":"address","internalType":"address"}],"stateMutability":"nonpayable"},{"type":"function","name":"createSpaceV2","inputs":[{"name":"spaceInfo","type":"tuple","internalType":"struct IArchitectBase.SpaceInfoV2","components":[{"name":"name","type":"string","internalType":"string"},{"name":"uri","type":"string","internalType":"string"},{"name":"membership","type":"tuple","internalType":"struct IArchitectBase.MembershipV2","components":[{"name":"settings","type":"tuple","internalType":"struct IMembershipBase.Membership","components":[{"name":"name","type":"string","internalType":"string"},{"name":"symbol","type":"string","internalType":"string"},{"name":"price","type":"uint256","internalType":"uint256"},{"name":"maxSupply","type":"uint256","internalType":"uint256"},{"name":"duration","type":"uint64","internalType":"uint64"},{"name":"currency","type":"address","internalType":"address"},{"name":"feeRecipient","type":"address","internalType":"address"},{"name":"freeAllocation","type":"uint256","internalType":"uint256"},{"name":"pricingModule","type":"address","internalType":"address"}]},{"name":"requirements","type":"tuple","internalType":"struct IArchitectBase.MembershipRequirementsV2","components":[{"name":"everyone","type":"bool","internalType":"bool"},{"name":"users","type":"address[]","internalType":"address[]"},{"name":"ruleDataV2","type":"bytes","internalType":"bytes"}]},{"name":"permissions","type":"string[]","internalType":"string[]"}]},{"name":"channel","type":"tuple","internalType":"struct IArchitectBase.ChannelInfo","components":[{"name":"metadata","type":"string","internalType":"string"}]},{"name":"shortDescription","type":"string","internalType":"string"},{"name":"longDescription","type":"string","internalType":"string"}]}],"outputs":[{"name":"","type":"address","internalType":"address"}],"stateMutability":"nonpayable"},{"type":"function","name":"getSpaceArchitectImplementations","inputs":[],"outputs":[{"name":"spaceToken","type":"address","internalType":"contract ISpaceOwner"},{"name":"userEntitlementImplementation","type":"address","internalType":"contract IUserEntitlement"},{"name":"ruleEntitlementImplementation","type":"address","internalType":"contract IRuleEntitlement"}],"stateMutability":"view"},{"type":"function","name":"getSpaceByTokenId","inputs":[{"name":"tokenId","type":"uint256","internalType":"uint256"}],"outputs":[{"name":"","type":"address","internalType":"address"}],"stateMutability":"view"},{"type":"function","name":"getTokenIdBySpace","inputs":[{"name":"space","type":"address","internalType":"address"}],"outputs":[{"name":"","type":"uint256","internalType":"uint256"}],"stateMutability":"view"},{"type":"function","name":"setSpaceArchitectImplementations","inputs":[{"name":"spaceToken","type":"address","internalType":"contract ISpaceOwner"},{"name":"userEntitlementImplementation","type":"address","internalType":"contract IUserEntitlement"},{"name":"ruleEntitlementImplementation","type":"address","internalType":"contract IRuleEntitlement"}],"outputs":[],"stateMutability":"nonpayable"},{"type":"event","name":"Initialized","inputs":[{"name":"version","type":"uint32","indexed":false,"internalType":"uint32"}],"anonymous":false},{"type":"event","name":"InterfaceAdded","inputs":[{"name":"interfaceId","type":"bytes4","indexed":true,"internalType":"bytes4"}],"anonymous":false},{"type":"event","name":"InterfaceRemoved","inputs":[{"name":"interfaceId","type":"bytes4","indexed":true,"internalType":"bytes4"}],"anonymous":false},{"type":"event","name":"OwnershipTransferred","inputs":[{"name":"previousOwner","type":"address","indexed":true,"internalType":"address"},{"name":"newOwner","type":"address","indexed":true,"internalType":"address"}],"anonymous":false},{"type":"event","name":"Paused","inputs":[{"name":"account","type":"address","indexed":false,"internalType":"address"}],"anonymous":false},{"type":"event","name":"SpaceCreated","inputs":[{"name":"owner","type":"address","indexed":true,"internalType":"address"},{"name":"tokenId","type":"uint256","indexed":true,"internalType":"uint256"},{"name":"space","type":"address","indexed":true,"internalType":"address"}],"anonymous":false},{"type":"event","name":"Unpaused","inputs":[{"name":"account","type":"address","indexed":false,"internalType":"address"}],"anonymous":false},{"type":"error","name":"Architect__InvalidAddress","inputs":[]},{"type":"error","name":"Architect__InvalidEntitlementVersion","inputs":[]},{"type":"error","name":"Architect__InvalidNetworkId","inputs":[]},{"type":"error","name":"Architect__InvalidStringLength","inputs":[]},{"type":"error","name":"Architect__NotContract","inputs":[]},{"type":"error","name":"Factory__FailedDeployment","inputs":[]},{"type":"error","name":"Initializable_InInitializingState","inputs":[]},{"type":"error","name":"Initializable_NotInInitializingState","inputs":[]},{"type":"error","name":"Introspection_AlreadySupported","inputs":[]},{"type":"error","name":"Introspection_NotSupported","inputs":[]},{"type":"error","name":"Ownable__NotOwner","inputs":[{"name":"account","type":"address","internalType":"address"}]},{"type":"error","name":"Ownable__ZeroAddress","inputs":[]},{"type":"error","name":"Pausable__NotPaused","inputs":[]},{"type":"error","name":"Pausable__Paused","inputs":[]},{"type":"error","name":"ReentrancyGuard__ReentrantCall","inputs":[]},{"type":"error","name":"Validator__InvalidAddress","inputs":[]}],"bytecode":{"object":"0x60806040523480156200001157600080fd5b506200001c62000022565b620000ca565b7f59b501c3653afc186af7d48dda36cf6732bd21629a6295693664240a6ef520008054640100000000900460ff16156200006f576040516366008a2d60e01b815260040160405180910390fd5b805463ffffffff9081161015620000c757805463ffffffff191663ffffffff90811782556040519081527fe9c9b456cb2994b80aeef036cf59d26e9617df80f816a6ee5a5b4166e07e2f5c9060200160405180910390a15b50565b61467e80620000da6000396000f3fe60806040523480156200001157600080fd5b5060043610620000875760003560e01c80639826bcc911620000625780639826bcc9146200010e578063c0bc67961462000125578063dc1b9f23146200014b578063ef009225146200016257600080fd5b8063545efb2d146200008c578063673f0dd514620000c55780638bfc94b914620000f5575b600080fd5b6200009662000179565b604080516001600160a01b03948516815292841660208401529216918101919091526060015b60405180910390f35b620000dc620000d636600462001a93565b620001f6565b6040516001600160a01b039091168152602001620000bc565b6200010c6200010636600462001ac3565b62000234565b005b620000dc6200011f36600462002089565b62000297565b6200013c62000136366004620021c0565b62000353565b604051908152602001620000bc565b6200010c6200015c36600462001ac3565b62000391565b620000dc6200017336600462002587565b620003dc565b6000806000620001eb6000805160206200465e833981519152547f9e34afa7b4d27d347d25d9d9dab4f1a106fa081382e6c4243e834d093e787d01547f9e34afa7b4d27d347d25d9d9dab4f1a106fa081382e6c4243e834d093e787d02546001600160a01b0392831693918316921690565b925092509250909192565b60008181527f06bd04a817647c31ee485c8a0baab96facd62dbfd4b475796bb17ca2c12f000260205260408120546001600160a01b03165b92915050565b7f4675fa8241f86f37157864d3d49b85ad4b164352c516da28e1678a90470ae300546001600160a01b0316331462000285576040516365f4906560e01b815233600482015260240160405180910390fd5b6200029283838362000478565b505050565b600060026000805160206200463e8339815191525403620002cb57604051635db5c7cd60e11b815260040160405180910390fd5b620002e460026000805160206200463e83398151915255565b7fe17a067c7963a59b6dfd65d33b053fdbea1c56500e2aae4f976d9eda4da9eb005460ff161562000328576040516302ca8ced60e11b815260040160405180910390fd5b620003338262000587565b90506200034e60016000805160206200463e83398151915255565b919050565b6001600160a01b03811660009081527f06bd04a817647c31ee485c8a0baab96facd62dbfd4b475796bb17ca2c12f000160205260408120546200022e565b7f59b501c3653afc186af7d48dda36cf6732bd21629a6295693664240a6ef5200054640100000000900460ff166200028557604051630ef4733760e31b815260040160405180910390fd5b600060026000805160206200463e83398151915254036200041057604051635db5c7cd60e11b815260040160405180910390fd5b6200042960026000805160206200463e83398151915255565b7fe17a067c7963a59b6dfd65d33b053fdbea1c56500e2aae4f976d9eda4da9eb005460ff16156200046d576040516302ca8ced60e11b815260040160405180910390fd5b620003338262000a1a565b826001600160a01b03163b600003620004a4576040516302f3d00b60e01b815260040160405180910390fd5b816001600160a01b03163b600003620004d0576040516302f3d00b60e01b815260040160405180910390fd5b806001600160a01b03163b600003620004fc576040516302f3d00b60e01b815260040160405180910390fd5b6000805160206200465e83398151915280546001600160a01b039485166001600160a01b0319918216179091557f9e34afa7b4d27d347d25d9d9dab4f1a106fa081382e6c4243e834d093e787d018054938516938216939093179092557f9e34afa7b4d27d347d25d9d9dab4f1a106fa081382e6c4243e834d093e787d028054919093169116179055565b6000805160206200465e833981519152805460408051631d5e528f60e21b815290516000937f06bd04a817647c31ee485c8a0baab96facd62dbfd4b475796bb17ca2c12f000093909285926001600160a01b03909216916375794a3c916004808201926020929091908290030181865afa1580156200060a573d6000803e3d6000fd5b505050506040513d601f19601f820116820180604052508101906200063091906200263a565b90506200064281866040015162000dca565b8354909450836000620006558362002654565b90915550506000818152600284016020908152604080832080546001600160a01b0319166001600160a01b03898116918217909255845260018701835292819020849055845488519289015160808a015160a08b01519351630efd6e3d60e21b81529290951694633bf5b8f494620006d69490938b929190600401620026d0565b6020604051808303816000875af1158015620006f6573d6000803e3d6000fd5b505050506040513d601f19601f820116820180604052508101906200071c91906200263a565b5060018201546000906200073a906001600160a01b03168662000df4565b60028401549091506000906200075a906001600160a01b03168762000df4565b60405170293ab632a2b73a34ba3632b6b2b73a2b1960791b602082015290915060310160405160208183030381529060405280519060200120816001600160a01b0316636465e69f6040518163ffffffff1660e01b8152600401600060405180830381865afa158015620007d2573d6000803e3d6000fd5b505050506040513d6000823e601f3d908101601f19168201604052620007fc919081019062002740565b6040516020016200080e9190620027b6565b60405160208183030381529060405280519060200120146200084357604051632ff1ed5b60e11b815260040160405180910390fd5b60408051600280825260608201835260009260208301908036833701905050905082816000815181106200087b576200087b620027d4565b60200260200101906001600160a01b031690816001600160a01b0316815250508181600181518110620008b257620008b2620027d4565b6001600160a01b039283166020918202929092010152604051638bfc820f60e01b815290881690638bfc820f90620008ef908490600401620027ea565b600060405180830381600087803b1580156200090a57600080fd5b505af11580156200091f573d6000803e3d6000fd5b50505050620009398784848b604001516020015162000eb1565b5060408089015180515191015160009162000958918a919087620012bb565b90506200096b88828b606001516200144b565b8554604051632142170760e11b8152306004820152336024820152604481018790526001600160a01b03909116906342842e0e90606401600060405180830381600087803b158015620009bd57600080fd5b505af1158015620009d2573d6000803e3d6000fd5b50506040516001600160a01b038b16925087915033907fe50fc3942f8a2d7e5a7c8fb9488499eba5255b41e18bc3f1b4791402976d1d0b90600090a450505050505050919050565b6000805160206200465e833981519152805460408051631d5e528f60e21b815290516000937f06bd04a817647c31ee485c8a0baab96facd62dbfd4b475796bb17ca2c12f000093909285926001600160a01b03909216916375794a3c916004808201926020929091908290030181865afa15801562000a9d573d6000803e3d6000fd5b505050506040513d601f19601f8201168201806040525081019062000ac391906200263a565b905062000ad581866040015162000dca565b835490945083600062000ae88362002654565b90915550506000818152600284016020908152604080832080546001600160a01b0319166001600160a01b03898116918217909255845260018701835292819020849055845488519289015160808a015160a08b01519351630efd6e3d60e21b81529290951694633bf5b8f49462000b699490938b929190600401620026d0565b6020604051808303816000875af115801562000b89573d6000803e3d6000fd5b505050506040513d601f19601f8201168201806040525081019062000baf91906200263a565b50600182015460009062000bcd906001600160a01b03168662000df4565b600284015490915060009062000bed906001600160a01b03168762000df4565b6040516e149d5b19515b9d1a5d1b195b595b9d608a1b6020820152909150602f0160405160208183030381529060405280519060200120816001600160a01b0316636465e69f6040518163ffffffff1660e01b8152600401600060405180830381865afa15801562000c63573d6000803e3d6000fd5b505050506040513d6000823e601f3d908101601f1916820160405262000c8d919081019062002740565b60405160200162000c9f9190620027b6565b604051602081830303815290604052805190602001201462000cd457604051632ff1ed5b60e11b815260040160405180910390fd5b604080516002808252606082018352600092602083019080368337019050509050828160008151811062000d0c5762000d0c620027d4565b60200260200101906001600160a01b031690816001600160a01b031681525050818160018151811062000d435762000d43620027d4565b6001600160a01b039283166020918202929092010152604051638bfc820f60e01b815290881690638bfc820f9062000d80908490600401620027ea565b600060405180830381600087803b15801562000d9b57600080fd5b505af115801562000db0573d6000803e3d6000fd5b50505050620009398784848b60400151602001516200154c565b600080600062000ddb85856200183a565b9150915062000deb8282620019d7565b95945050505050565b6000806040518060200162000e099062001a77565b601f1982820381018352601f9091011660408190526001600160a01b0385166024820152859060440160408051601f19818403018152918152602080830180516001600160e01b031663189acdbd60e31b179052905162000e6d9392910162002839565b60408051601f198184030181529082905262000e8d92916020016200285f565b604051602081830303815290604052905062000ea98162001a12565b949350505050565b604080516001808252818301909252600091829190816020015b606081526020019060019003908162000ecb579050509050604051806040016040528060098152602001684a6f696e537061636560b81b8152508160008151811062000f1b5762000f1b620027d4565b6020026020010181905250856001600160a01b0316638fcd793d6040518060400160405280600681526020016526b4b73a32b960d11b8152508360006001600160401b0381111562000f715762000f7162001b15565b60405190808252806020026020018201604052801562000fb957816020015b60408051808201909152600081526060602082015281526020019060019003908162000f905790505b506040518463ffffffff1660e01b815260040162000fda93929190620028bb565b6020604051808303816000875af115801562000ffa573d6000803e3d6000fd5b505050506040513d601f19601f820116820180604052508101906200102091906200263a565b8351909250156200113e57600060015b6040519080825280602002602001820160405280156200105a578160200160208202803683370190505b509050600181600081518110620010755762001075620027d4565b60200260200101906001600160a01b031690816001600160a01b031681525050866001600160a01b031663ba201ba88460405180604001604052808a6001600160a01b0316815260200185604051602001620010d29190620027ea565b6040516020818303038152906040528152506040518363ffffffff1660e01b8152600401620011039291906200298d565b600060405180830381600087803b1580156200111e57600080fd5b505af115801562001133573d6000803e3d6000fd5b5050505050620012b2565b60208301515115620012375760005b8360200151518110156200118f576200118684602001518281518110620011785762001178620027d4565b602002602001015162001a4c565b6001016200114d565b50856001600160a01b031663ba201ba8836040518060400160405280896001600160a01b031681526020018760200151604051602001620011d19190620027ea565b6040516020818303038152906040528152506040518363ffffffff1660e01b8152600401620012029291906200298d565b600060405180830381600087803b1580156200121d57600080fd5b505af115801562001232573d6000803e3d6000fd5b505050505b6040805180820182526001600160a01b0386811682528583015160208301529151631744037560e31b81529188169163ba201ba8916200127d918691906004016200298d565b600060405180830381600087803b1580156200129857600080fd5b505af1158015620012ad573d6000803e3d6000fd5b505050505b50949350505050565b60408051600180825281830190925260009182919060208083019080368337019050509050600181600081518110620012f857620012f8620027d4565b6001600160a01b039290921660209283029190910190910152604080516001808252818301909252600091816020015b6040805180820190915260008152606060208201528152602001906001900390816200132857905050905083816000815181106200136a576200136a620027d4565b6020908102919091018101516001600160a01b039092169091526040516200139591849101620027ea565b60405160208183030381529060405281600081518110620013ba57620013ba620027d4565b6020908102919091018101510152604051638fcd793d60e01b81526001600160a01b03881690638fcd793d90620013fa90899089908690600401620028bb565b6020604051808303816000875af11580156200141a573d6000803e3d6000fd5b505050506040513d601f19601f820116820180604052508101906200144091906200263a565b979650505050505050565b604080516001808252818301909252600091602080830190803683370190505090508281600081518110620014845762001484620027d4565b602090810291909101810191909152604051600160fd1b918101919091526bffffffffffffffffffffffff19606086901b166021820152600090603501604051602081830303815290604052620014db90620029a8565b835160405163921f717560e01b81529192506001600160a01b0387169163921f71759162001511918591908790600401620029d0565b600060405180830381600087803b1580156200152c57600080fd5b505af115801562001541573d6000803e3d6000fd5b505050505050505050565b604080516001808252818301909252600091829190816020015b606081526020019060019003908162001566579050509050604051806040016040528060098152602001684a6f696e537061636560b81b81525081600081518110620015b657620015b6620027d4565b6020026020010181905250856001600160a01b0316638fcd793d6040518060400160405280600681526020016526b4b73a32b960d11b8152508360006001600160401b038111156200160c576200160c62001b15565b6040519080825280602002602001820160405280156200165457816020015b6040805180820190915260008152606060208201528152602001906001900390816200162b5790505b506040518463ffffffff1660e01b81526004016200167593929190620028bb565b6020604051808303816000875af115801562001695573d6000803e3d6000fd5b505050506040513d601f19601f82011682018060405250810190620016bb91906200263a565b835190925015620016d0576000600162001030565b60208301515115620017bb5760005b83602001515181101562001713576200170a84602001518281518110620011785762001178620027d4565b600101620016df565b50856001600160a01b031663ba201ba8836040518060400160405280896001600160a01b031681526020018760200151604051602001620017559190620027ea565b6040516020818303038152906040528152506040518363ffffffff1660e01b8152600401620017869291906200298d565b600060405180830381600087803b158015620017a157600080fd5b505af1158015620017b6573d6000803e3d6000fd5b505050505b6040830151515115620012b257856001600160a01b031663ba201ba8836040518060400160405280886001600160a01b03168152602001876040015160405160200162001809919062002b2e565b6040516020818303038152906040528152506040518363ffffffff1660e01b81526004016200127d9291906200298d565b60606000806000805160206200465e8339815191526040805133602082015290810187905242606082015290915060800160405160208183030381529060405280519060200120915060405180602001620018959062001a85565b601f19828203810183526040601f90920116818101825263dc9cc64560e01b8152306020828101919091528251808401845285546001600160a01b0390811682528183018b90528451610120810186528a515181528a518401519381019390935289518501519483019490945288516060908101519083015288516080908101516001600160401b031690830152885160a090810151851690830152885160c09081015133959293929183019116156200195557895160c0015162001957565b335b6001600160a01b03168152602001896000015160e001518152602001896000015161010001516001600160a01b03168152506040516020016200199e949392919062002bd9565b60408051601f1981840301815290829052620019be92916020016200285f565b6040516020818303038152906040529250509250929050565b60008260200183518381836000f59250506001600160a01b03821690506200022e5760405163ef35ca1960e01b815260040160405180910390fd5b600081602001825180826000f09250506001600160a01b03821690506200034e5760405163ef35ca1960e01b815260040160405180910390fd5b6001600160a01b03811662001a74576040516302e47d1560e41b815260040160405180910390fd5b50565b6103d48062002cd583390190565b61159580620030a983390190565b60006020828403121562001aa657600080fd5b5035919050565b6001600160a01b038116811462001a7457600080fd5b60008060006060848603121562001ad957600080fd5b833562001ae68162001aad565b9250602084013562001af88162001aad565b9150604084013562001b0a8162001aad565b809150509250925092565b634e487b7160e01b600052604160045260246000fd5b60405161012081016001600160401b038111828210171562001b515762001b5162001b15565b60405290565b604051606081016001600160401b038111828210171562001b515762001b5162001b15565b60405160c081016001600160401b038111828210171562001b515762001b5162001b15565b604051608081016001600160401b038111828210171562001b515762001b5162001b15565b604080519081016001600160401b038111828210171562001b515762001b5162001b15565b604051601f8201601f191681016001600160401b038111828210171562001c165762001c1662001b15565b604052919050565b60006001600160401b0382111562001c3a5762001c3a62001b15565b50601f01601f191660200190565b600062001c5f62001c598462001c1e565b62001beb565b905082815283838301111562001c7457600080fd5b828260208301376000602084830101529392505050565b600082601f83011262001c9d57600080fd5b62001cae8383356020850162001c48565b9392505050565b80356001600160401b03811681146200034e57600080fd5b80356200034e8162001aad565b6000610120828403121562001cee57600080fd5b62001cf862001b2b565b905081356001600160401b038082111562001d1257600080fd5b62001d208583860162001c8b565b8352602084013591508082111562001d3757600080fd5b5062001d468482850162001c8b565b602083015250604082013560408201526060820135606082015262001d6e6080830162001cb5565b608082015262001d8160a0830162001ccd565b60a082015262001d9460c0830162001ccd565b60c082015260e082013560e082015261010062001db381840162001ccd565b9082015292915050565b803580151581146200034e57600080fd5b60006001600160401b0382111562001dea5762001dea62001b15565b5060051b60200190565b600082601f83011262001e0657600080fd5b8135602062001e1962001c598362001dce565b8083825260208201915060208460051b87010193508684111562001e3c57600080fd5b602086015b8481101562001e6557803562001e578162001aad565b835291830191830162001e41565b509695505050505050565b600082601f83011262001e8257600080fd5b8135602062001e9562001c598362001dce565b82815260059290921b8401810191818101908684111562001eb557600080fd5b8286015b8481101562001e655780356001600160401b0381111562001eda5760008081fd5b62001eea8986838b010162001c8b565b84525091830191830162001eb9565b60006060828403121562001f0c57600080fd5b62001f1662001b57565b905081356001600160401b038082111562001f3057600080fd5b62001f3e8583860162001cda565b8352602084013591508082111562001f5557600080fd5b908301906060828603121562001f6a57600080fd5b62001f7462001b57565b62001f7f8362001dbd565b815260208301358281111562001f9457600080fd5b62001fa28782860162001df4565b60208301525060408301358281111562001fbb57600080fd5b80840193505085601f84011262001fd157600080fd5b62001fe28684356020860162001c48565b60408201528060208501525060408401359150808211156200200357600080fd5b50620020128482850162001e70565b60408301525092915050565b6000602082840312156200203157600080fd5b604051602081016001600160401b03828210818311171562002057576200205762001b15565b8160405282935084359150808211156200207057600080fd5b506200207f8582860162001c8b565b8252505092915050565b6000602082840312156200209c57600080fd5b81356001600160401b0380821115620020b457600080fd5b9083019060c08286031215620020c957600080fd5b620020d362001b7c565b823582811115620020e357600080fd5b620020f18782860162001c8b565b8252506020830135828111156200210757600080fd5b620021158782860162001c8b565b6020830152506040830135828111156200212e57600080fd5b6200213c8782860162001ef9565b6040830152506060830135828111156200215557600080fd5b62002163878286016200201e565b6060830152506080830135828111156200217c57600080fd5b6200218a8782860162001c8b565b60808301525060a083013582811115620021a357600080fd5b620021b18782860162001c8b565b60a08301525095945050505050565b600060208284031215620021d357600080fd5b813562001cae8162001aad565b6003811062001a7457600080fd5b803560ff811681146200034e57600080fd5b600082601f8301126200221257600080fd5b813560206200222562001c598362001dce565b82815260079290921b840181019181810190868411156200224557600080fd5b8286015b8481101562001e655760808189031215620022645760008081fd5b6200226e62001ba1565b8135600681106200227f5760008081fd5b815281850135858201526040808301356200229a8162001aad565b908201526060828101359082015283529183019160800162002249565b600082601f830112620022c957600080fd5b81356020620022dc62001c598362001dce565b82815260609283028501820192828201919087851115620022fc57600080fd5b8387015b85811015620023655781818a0312156200231a5760008081fd5b6200232462001b57565b81356200233181620021e0565b815262002340828701620021ee565b86820152604062002353818401620021ee565b90820152845292840192810162002300565b5090979650505050505050565b6000606082840312156200238557600080fd5b6200238f62001b57565b905081356001600160401b0380821115620023a957600080fd5b620023b78583860162001cda565b8352602091508184013581811115620023cf57600080fd5b840160608187031215620023e257600080fd5b620023ec62001b57565b620023f78262001dbd565b815283820135838111156200240b57600080fd5b620024198882850162001df4565b8583015250604080830135848111156200243257600080fd5b9290920191606083890312156200244857600080fd5b6200245262001b57565b8335858111156200246257600080fd5b8401601f81018a136200247457600080fd5b80356200248562001c598262001dce565b81815260069190911b8201880190888101908c831115620024a557600080fd5b928901925b82841015620024fe5785848e031215620024c45760008081fd5b620024ce62001bc6565b8435620024db81620021e0565b8152620024ea858c01620021ee565b818c015282529285019290890190620024aa565b845250505083860135858111156200251557600080fd5b620025238a82870162002200565b878301525081840135858111156200253a57600080fd5b620025488a828701620022b7565b8284015250828201529385018190528584013593838511156200256a57600080fd5b620025788886890162001e70565b81870152505050505092915050565b6000602082840312156200259a57600080fd5b81356001600160401b0380821115620025b257600080fd5b9083019060c08286031215620025c757600080fd5b620025d162001b7c565b823582811115620025e157600080fd5b620025ef8782860162001c8b565b8252506020830135828111156200260557600080fd5b620026138782860162001c8b565b6020830152506040830135828111156200262c57600080fd5b6200213c8782860162002372565b6000602082840312156200264d57600080fd5b5051919050565b6000600182016200267557634e487b7160e01b600052601160045260246000fd5b5060010190565b60005b83811015620026995781810151838201526020016200267f565b50506000910152565b60008151808452620026bc8160208601602086016200267c565b601f01601f19169290920160200192915050565b60a081526000620026e560a0830188620026a2565b8281036020840152620026f98188620026a2565b6001600160a01b0387166040850152838103606085015290506200271e8186620026a2565b90508281036080840152620027348185620026a2565b98975050505050505050565b6000602082840312156200275357600080fd5b81516001600160401b038111156200276a57600080fd5b8201601f810184136200277c57600080fd5b80516200278d62001c598262001c1e565b818152856020838501011115620027a357600080fd5b62000deb8260208301602086016200267c565b60008251620027ca8184602087016200267c565b9190910192915050565b634e487b7160e01b600052603260045260246000fd5b6020808252825182820181905260009190848201906040850190845b818110156200282d5783516001600160a01b03168352928401929184019160010162002806565b50909695505050505050565b6001600160a01b038316815260406020820181905260009062000ea990830184620026a2565b60008351620028738184602088016200267c565b835190830190620028898183602088016200267c565b01949350505050565b60018060a01b038151168252600060208201516040602085015262000ea96040850182620026a2565b606081526000620028d06060830186620026a2565b6020838203818501528186518084528284019150828160051b85010183890160005b838110156200292457601f1987840301855262002911838351620026a2565b94860194925090850190600101620028f2565b50508681036040880152875180825284820195509250600583901b81018401915083880160005b848110156200297d57601f198385030187526200296a84835162002892565b968601969350908501906001016200294b565b50919a9950505050505050505050565b82815260406020820152600062000ea9604083018462002892565b80516020808301519190811015620029ca576000198160200360031b1b821691505b50919050565b8381526000602060606020840152620029ed6060840186620026a2565b83810360408501528451808252602080870192019060005b8181101562002a235783518352928401929184019160010162002a05565b509098975050505050505050565b634e487b7160e01b600052602160045260246000fd5b6003811062001a745762001a7462002a31565b60008151808452602080850194506020840160005b8381101562002ac957815180516006811062002a8f5762002a8f62002a31565b885280840151848901526040808201516001600160a01b031690890152606090810151908801526080909601959082019060010162002a6f565b509495945050505050565b60008151808452602080850194506020840160005b8381101562002ac9578151805162002b018162002a47565b88528084015160ff908116858a015260409182015116908801526060909601959082019060010162002ae9565b6020808252825160608383015280516080840181905260009291820190839060a08601905b8083101562002b8e578351805162002b6b8162002a47565b835285015160ff1685830152928401926001929092019160409091019062002b53565b50838701519350601f1992508286820301604087015262002bb0818562002a5a565b9350505060408501518185840301606086015262002bcf838262002ad4565b9695505050505050565b600060018060a01b03808716835263ffffffff60e01b8651166020840152806020870151166040840152808551166060840152506020840151608083015260c060a083015282516101208060c085015262002c396101e0850183620026a2565b9150602085015160bf198584030160e086015262002c588382620026a2565b925050604085015161010081818701526060870151838701526080870151925062002c8f6101408701846001600160401b03169052565b60a08701516001600160a01b0390811661016088015260c0880151811661018088015260e08801516101a0880152908701519081166101c0870152915062001e65905056fe60806040526040516103d43803806103d483398101604081905261002291610268565b61002c8282610033565b5050610352565b61003c82610092565b6040516001600160a01b038316907fbc7cd75a20ee27fd9adebab32041f755214dbc6bffa90cc0225b39da2e5c2d3b90600090a280511561008657610081828261010e565b505050565b61008e610185565b5050565b806001600160a01b03163b6000036100cd57604051634c9c8ce360e01b81526001600160a01b03821660048201526024015b60405180910390fd5b7f360894a13ba1a3210667c828492db98dca3e2076cc3735a920a3ca505d382bbc80546001600160a01b0319166001600160a01b0392909216919091179055565b6060600080846001600160a01b03168460405161012b9190610336565b600060405180830381855af49150503d8060008114610166576040519150601f19603f3d011682016040523d82523d6000602084013e61016b565b606091505b50909250905061017c8583836101a6565b95945050505050565b34156101a45760405163b398979f60e01b815260040160405180910390fd5b565b6060826101bb576101b682610205565b6101fe565b81511580156101d257506001600160a01b0384163b155b156101fb57604051639996b31560e01b81526001600160a01b03851660048201526024016100c4565b50805b9392505050565b8051156102155780518082602001fd5b604051630a12f52160e11b815260040160405180910390fd5b634e487b7160e01b600052604160045260246000fd5b60005b8381101561025f578181015183820152602001610247565b50506000910152565b6000806040838503121561027b57600080fd5b82516001600160a01b038116811461029257600080fd5b60208401519092506001600160401b03808211156102af57600080fd5b818501915085601f8301126102c357600080fd5b8151818111156102d5576102d561022e565b604051601f8201601f19908116603f011681019083821181831017156102fd576102fd61022e565b8160405282815288602084870101111561031657600080fd5b610327836020830160208801610244565b80955050505050509250929050565b60008251610348818460208701610244565b9190910192915050565b6074806103606000396000f3fe6080604052600a600c565b005b60186014601a565b6051565b565b6000604c7f360894a13ba1a3210667c828492db98dca3e2076cc3735a920a3ca505d382bbc546001600160a01b031690565b905090565b3660008037600080366000845af43d6000803e808015606f573d6000f35b3d6000fd60806040523480156200001157600080fd5b506040516200159538038062001595833981016040819052620000349162000cec565b6200003e62000160565b620000a58380517f9c16cba5b9f2fcbd952b38bec34079e93cbe107475c15fc20705f4e704198a0080546020909301516001600160a01b03166001600160a01b031960e09390931c600160a01b02929092166001600160c01b031990931692909217179055565b81517fd2f24d4f172e4e84e48e7c4125b6e904c29e5eba33ad4938fee51dd5dbd4b60080546001600160a01b0319166001600160a01b0390921691909117905560208201517fd2f24d4f172e4e84e48e7c4125b6e904c29e5eba33ad4938fee51dd5dbd4b60155805160208201516200011f919062000174565b62000135818460200151620001cb60201b60201c565b6200014284600162000381565b6200014c620003a7565b620001566200047c565b5050505062000ff5565b620001726301ffc9a760e01b620004d1565b565b600080516020620015158339815191527f6569bde4a160c636ea8b8d11acb83a60d7fec0b8f2e09389306cba0e1340df02620001b1848262000e52565b5060038101620001c2838262000e52565b50600090555050565b6000805160206200153583398151915280546001600160a01b038381166001600160a01b0319928316179092556101008401517fc21004fcc619240a31f006438274d15cd813308303284436eef6055f0fdcb608805491909316908216179091557fc21004fcc619240a31f006438274d15cd813308303284436eef6055f0fdcb604805490911673eeeeeeeeeeeeeeeeeeeeeeeeeeeeeeeeeeeeeeee17905560608201517fc21004fcc619240a31f006438274d15cd813308303284436eef6055f0fdcb6035560e08201517fc21004fcc619240a31f006438274d15cd813308303284436eef6055f0fdcb607819055600080516020620015758339815191529015620002e15760e0830151620002e190620005b1565b610100830151620002f2906200065f565b6040830151156200037c5760408301516200030d9062000731565b600881015460408085015190516391b7f5ed60e01b81526001600160a01b03909216916391b7f5ed91620003479160040190815260200190565b600060405180830381600087803b1580156200036257600080fd5b505af115801562000377573d6000803e3d6000fd5b505050505b505050565b620003a3828260405180602001604052806000815250620007dc60201b60201c565b5050565b60007f9075c515a635ba70c9696f31149324218d75cf00afe836c482e6473f38b19e00905060006000805160206200157583398151915260060154604051628956cd60e71b81526c29b830b1b2a7b832b930ba37b960991b60048201526001600160a01b03909116906344ab668090602401602060405180830381865afa15801562000437573d6000803e3d6000fd5b505050506040513d601f19601f820116820180604052508101906200045d919062000f1e565b82546001600160a01b0319166001600160a01b03919091161790915550565b6200048e6380ac58cd60e01b620004d1565b620004a0635b5e139f60e01b620004d1565b620004b2638c65f84d60e01b620004d1565b620004c46307f5828d60e41b620004d1565b620001726322fa1fe560e21b5b6001600160e01b0319811660009081527f81088bbc801e045ea3e7620779ab349988f58afbdfba10dff983df3f33522b00602052604090205460ff16151560011462000560576001600160e01b0319811660009081527f81088bbc801e045ea3e7620779ab349988f58afbdfba10dff983df3f33522b0060205260409020805460ff1916600117905562000579565b604051637967f77d60e11b815260040160405180910390fd5b6040516001600160e01b03198216907f78f84e5b1c5c05be2b5ad3800781dd404d6d6c6302bc755c0fe20f58a33a7f2290600090a250565b600080516020620015358339815191525460408051632cbb9d1360e01b8152905160008051602062001575833981519152926001600160a01b031691632cbb9d139160048083019260209291908290030181865afa15801562000618573d6000803e3d6000fd5b505050506040513d601f19601f820116820180604052508101906200063e919062000f43565b821115620003a35760405163c3983b9160e01b815260040160405180910390fd5b6001600160a01b0381166200068757604051630e88bf4b60e01b815260040160405180910390fd5b60008051602062001535833981519152546001600160a01b03166040516346fc05eb60e11b81526001600160a01b0383811660048301529190911690638df80bd690602401602060405180830381865afa158015620006ea573d6000803e3d6000fd5b505050506040513d601f19601f8201168201806040525081019062000710919062000f5d565b6200072e57604051630e88bf4b60e01b815260040160405180910390fd5b50565b60006200075460008051602062001535833981519152546001600160a01b031690565b6001600160a01b0316631b159e2e6040518163ffffffff1660e01b8152600401602060405180830381865afa15801562000792573d6000803e3d6000fd5b505050506040513d601f19601f82011682018060405250810190620007b8919062000f43565b905080821015620003a357604051631a23d64760e11b815260040160405180910390fd5b620007e883836200086e565b6001600160a01b0383163b156200037c5760008051602062001515833981519152548281035b60018101906200082490600090879086620009a8565b62000842576040516368d2bf6b60e11b815260040160405180910390fd5b8181106200080e57816000805160206200151583398151915254146200086757600080fd5b5050505050565b60008051602062001515833981519152546000829003620008a25760405163b562e8dd60e01b815260040160405180910390fd5b6001600160a01b03831660008181527f6569bde4a160c636ea8b8d11acb83a60d7fec0b8f2e09389306cba0e1340df056020908152604080832080546801000000000000000188020190558483527f6569bde4a160c636ea8b8d11acb83a60d7fec0b8f2e09389306cba0e1340df0490915281206001851460e11b4260a01b17831790558284019083908390600080516020620015558339815191528180a4600183015b8181146200096f578083600060008051602062001555833981519152600080a460010162000946565b50816000036200099157604051622e076360e81b815260040160405180910390fd5b600080516020620015158339815191525550505050565b604051630a85bd0160e11b81526000906001600160a01b0385169063150b7a0290620009df90339089908890889060040162000f81565b6020604051808303816000875af192505050801562000a1d575060408051601f3d908101601f1916820190925262000a1a9181019062000fd7565b60015b62000a7f573d80801562000a4e576040519150601f19603f3d011682016040523d82523d6000602084013e62000a53565b606091505b50805160000362000a77576040516368d2bf6b60e11b815260040160405180910390fd5b805181602001fd5b6001600160e01b031916630a85bd0160e11b149050949350505050565b80516001600160a01b038116811462000ab457600080fd5b919050565b634e487b7160e01b600052604160045260246000fd5b60405161012081016001600160401b038111828210171562000af55762000af562000ab9565b60405290565b604080519081016001600160401b038111828210171562000af55762000af562000ab9565b80516001600160e01b03198116811462000ab457600080fd5b60005b8381101562000b5657818101518382015260200162000b3c565b50506000910152565b600082601f83011262000b7157600080fd5b81516001600160401b038082111562000b8e5762000b8e62000ab9565b604051601f8301601f19908116603f0116810190828211818310171562000bb95762000bb962000ab9565b8160405283815286602085880101111562000bd357600080fd5b62000be684602083016020890162000b39565b9695505050505050565b80516001600160401b038116811462000ab457600080fd5b6000610120828403121562000c1c57600080fd5b62000c2662000acf565b82519091506001600160401b038082111562000c4157600080fd5b62000c4f8583860162000b5f565b8352602084015191508082111562000c6657600080fd5b5062000c758482850162000b5f565b602083015250604082015160408201526060820151606082015262000c9d6080830162000bf0565b608082015262000cb060a0830162000a9c565b60a082015262000cc360c0830162000a9c565b60c082015260e082015160e082015261010062000ce281840162000a9c565b9082015292915050565b60008060008084860360c081121562000d0457600080fd5b62000d0f8662000a9c565b94506040601f198201121562000d2457600080fd5b62000d2e62000afb565b62000d3c6020880162000b20565b815262000d4c6040880162000a9c565b602082015293506040605f198201121562000d6657600080fd5b5062000d7162000afb565b62000d7f6060870162000a9c565b81526080860151602082015260a08601519092506001600160401b0381111562000da857600080fd5b62000db68782880162000c08565b91505092959194509250565b600181811c9082168062000dd757607f821691505b60208210810362000df857634e487b7160e01b600052602260045260246000fd5b50919050565b601f8211156200037c576000816000526020600020601f850160051c8101602086101562000e295750805b601f850160051c820191505b8181101562000e4a5782815560010162000e35565b505050505050565b81516001600160401b0381111562000e6e5762000e6e62000ab9565b62000e868162000e7f845462000dc2565b8462000dfe565b602080601f83116001811462000ebe576000841562000ea55750858301515b600019600386901b1c1916600185901b17855562000e4a565b600085815260208120601f198616915b8281101562000eef5788860151825594840194600190910190840162000ece565b508582101562000f0e5787850151600019600388901b60f8161c191681555b5050505050600190811b01905550565b60006020828403121562000f3157600080fd5b62000f3c8262000a9c565b9392505050565b60006020828403121562000f5657600080fd5b5051919050565b60006020828403121562000f7057600080fd5b8151801515811462000f3c57600080fd5b600060018060a01b03808716835280861660208401525083604083015260806060830152825180608084015262000fc08160a085016020870162000b39565b601f01601f19169190910160a00195945050505050565b60006020828403121562000fea57600080fd5b62000f3c8262000b20565b61051080620010056000396000f3fe6080604052600436106100225760003560e01c8063ac9650d81461003357610029565b3661002957005b610031610069565b005b34801561003f57600080fd5b5061005361004e366004610327565b6100c4565b60405161006091906103c0565b60405180910390f35b60006100736101e1565b9050806001600160a01b03163b6000036100a0576040516321f27f0d60e21b815260040160405180910390fd5b3660008037600080366000845af43d6000803e8080156100bf573d6000f35b3d6000fd5b6060818067ffffffffffffffff8111156100e0576100e061043a565b60405190808252806020026020018201604052801561011357816020015b60608152602001906001900390816100fe5790505b50915060005b818110156101d9576000803087878581811061013757610137610450565b90506020028101906101499190610466565b6040516101579291906104b4565b600060405180830381855af49150503d8060008114610192576040519150601f19603f3d011682016040523d82523d6000602084013e610197565b606091505b509150915081156101c557808584815181106101b5576101b5610450565b60200260200101819052506101cf565b3d6000803e3d6000fd5b5050600101610119565b505092915050565b7f9c16cba5b9f2fcbd952b38bec34079e93cbe107475c15fc20705f4e704198a0054600090600160a01b900460e01b81806102437f9c16cba5b9f2fcbd952b38bec34079e93cbe107475c15fc20705f4e704198a00546001600160a01b031690565b6040516001600160e01b03196000351660248201526001600160a01b039190911690849060440160408051601f198184030181529181526020820180516001600160e01b03166001600160e01b03199094169390931790925290516102a891906104c4565b600060405180830381855afa9150503d80600081146102e3576040519150601f19603f3d011682016040523d82523d6000602084013e6102e8565b606091505b50915091508161030b5760405163391aa44560e01b815260040160405180910390fd5b8080602001905181019061031f91906104e0565b935050505090565b6000806020838503121561033a57600080fd5b823567ffffffffffffffff8082111561035257600080fd5b818501915085601f83011261036657600080fd5b81358181111561037557600080fd5b8660208260051b850101111561038a57600080fd5b60209290920196919550909350505050565b60005b838110156103b757818101518382015260200161039f565b50506000910152565b6000602080830181845280855180835260408601915060408160051b870101925083870160005b8281101561042d57878503603f190184528151805180875261040e818989018a850161039c565b601f01601f1916959095018601945092850192908501906001016103e7565b5092979650505050505050565b634e487b7160e01b600052604160045260246000fd5b634e487b7160e01b600052603260045260246000fd5b6000808335601e1984360301811261047d57600080fd5b83018035915067ffffffffffffffff82111561049857600080fd5b6020019150368190038213156104ad57600080fd5b9250929050565b8183823760009101908152919050565b600082516104d681846020870161039c565b9190910192915050565b6000602082840312156104f257600080fd5b81516001600160a01b038116811461050957600080fd5b9392505050566569bde4a160c636ea8b8d11acb83a60d7fec0b8f2e09389306cba0e1340df00c21004fcc619240a31f006438274d15cd813308303284436eef6055f0fdcb606ddf252ad1be2c89b69c2b068fc378daa952ba7f163c4a11628f55a4df523b3efc21004fcc619240a31f006438274d15cd813308303284436eef6055f0fdcb60054f22f54f370bd020e00ee80e1a5099a71652e2ccbcf6a75281e4c70a3e11a009e34afa7b4d27d347d25d9d9dab4f1a106fa081382e6c4243e834d093e787d00","linkReferences":{}},"methodIdentifiers":{"__Architect_init(address,address,address)":"dc1b9f23","createSpace((string,string,((string,string,uint256,uint256,uint64,address,address,uint256,address),(bool,address[],((uint8,uint8)[],(uint8,uint256,address,uint256)[],(uint8,uint8,uint8)[])),string[]),(string),string,string))":"ef009225","createSpaceV2((string,string,((string,string,uint256,uint256,uint64,address,address,uint256,address),(bool,address[],bytes),string[]),(string),string,string))":"9826bcc9","getSpaceArchitectImplementations()":"545efb2d","getSpaceByTokenId(uint256)":"673f0dd5","getTokenIdBySpace(address)":"c0bc6796","setSpaceArchitectImplementations(address,address,address)":"8bfc94b9"},"id":174}