{"abi":[{"type":"function","name":"__Architect_init","inputs":[{"name":"ownerImplementation","type":"address","internalType":"contract ISpaceOwner"},{"name":"userEntitlementImplementation","type":"address","internalType":"contract IUserEntitlement"},{"name":"ruleEntitlementImplementation","type":"address","internalType":"contract IRuleEntitlementV2"},{"name":"legacyRuleEntitlement","type":"address","internalType":"contract IRuleEntitlement"}],"outputs":[],"stateMutability":"nonpayable"},{"type":"function","name":"createSpace","inputs":[{"name":"spaceInfo","type":"tuple","internalType":"struct IArchitectBase.SpaceInfo","components":[{"name":"name","type":"string","internalType":"string"},{"name":"uri","type":"string","internalType":"string"},{"name":"membership","type":"tuple","internalType":"struct IArchitectBase.Membership","components":[{"name":"settings","type":"tuple","internalType":"struct IMembershipBase.Membership","components":[{"name":"name","type":"string","internalType":"string"},{"name":"symbol","type":"string","internalType":"string"},{"name":"price","type":"uint256","internalType":"uint256"},{"name":"maxSupply","type":"uint256","internalType":"uint256"},{"name":"duration","type":"uint64","internalType":"uint64"},{"name":"currency","type":"address","internalType":"address"},{"name":"feeRecipient","type":"address","internalType":"address"},{"name":"freeAllocation","type":"uint256","internalType":"uint256"},{"name":"pricingModule","type":"address","internalType":"address"}]},{"name":"requirements","type":"tuple","internalType":"struct IArchitectBase.MembershipRequirements","components":[{"name":"everyone","type":"bool","internalType":"bool"},{"name":"users","type":"address[]","internalType":"address[]"},{"name":"ruleData","type":"bytes","internalType":"bytes"}]},{"name":"permissions","type":"string[]","internalType":"string[]"}]},{"name":"channel","type":"tuple","internalType":"struct IArchitectBase.ChannelInfo","components":[{"name":"metadata","type":"string","internalType":"string"}]},{"name":"shortDescription","type":"string","internalType":"string"},{"name":"longDescription","type":"string","internalType":"string"}]}],"outputs":[{"name":"","type":"address","internalType":"address"}],"stateMutability":"nonpayable"},{"type":"function","name":"getSpaceArchitectImplementations","inputs":[],"outputs":[{"name":"spaceToken","type":"address","internalType":"contract ISpaceOwner"},{"name":"userEntitlementImplementation","type":"address","internalType":"contract IUserEntitlement"},{"name":"ruleEntitlementImplementation","type":"address","internalType":"contract IRuleEntitlementV2"},{"name":"legacyRuleEntitlement","type":"address","internalType":"contract IRuleEntitlement"}],"stateMutability":"view"},{"type":"function","name":"getSpaceByTokenId","inputs":[{"name":"tokenId","type":"uint256","internalType":"uint256"}],"outputs":[{"name":"","type":"address","internalType":"address"}],"stateMutability":"view"},{"type":"function","name":"getTokenIdBySpace","inputs":[{"name":"space","type":"address","internalType":"address"}],"outputs":[{"name":"","type":"uint256","internalType":"uint256"}],"stateMutability":"view"},{"type":"function","name":"setSpaceArchitectImplementations","inputs":[{"name":"spaceToken","type":"address","internalType":"contract ISpaceOwner"},{"name":"userEntitlementImplementation","type":"address","internalType":"contract IUserEntitlement"},{"name":"ruleEntitlementImplementation","type":"address","internalType":"contract IRuleEntitlementV2"},{"name":"legacyRuleEntitlement","type":"address","internalType":"contract IRuleEntitlement"}],"outputs":[],"stateMutability":"nonpayable"},{"type":"event","name":"Initialized","inputs":[{"name":"version","type":"uint32","indexed":false,"internalType":"uint32"}],"anonymous":false},{"type":"event","name":"InterfaceAdded","inputs":[{"name":"interfaceId","type":"bytes4","indexed":true,"internalType":"bytes4"}],"anonymous":false},{"type":"event","name":"InterfaceRemoved","inputs":[{"name":"interfaceId","type":"bytes4","indexed":true,"internalType":"bytes4"}],"anonymous":false},{"type":"event","name":"OwnershipTransferred","inputs":[{"name":"previousOwner","type":"address","indexed":true,"internalType":"address"},{"name":"newOwner","type":"address","indexed":true,"internalType":"address"}],"anonymous":false},{"type":"event","name":"Paused","inputs":[{"name":"account","type":"address","indexed":false,"internalType":"address"}],"anonymous":false},{"type":"event","name":"PricingModuleAdded","inputs":[{"name":"module","type":"address","indexed":true,"internalType":"address"}],"anonymous":false},{"type":"event","name":"PricingModuleRemoved","inputs":[{"name":"module","type":"address","indexed":true,"internalType":"address"}],"anonymous":false},{"type":"event","name":"PricingModuleUpdated","inputs":[{"name":"module","type":"address","indexed":true,"internalType":"address"}],"anonymous":false},{"type":"event","name":"SpaceCreated","inputs":[{"name":"owner","type":"address","indexed":true,"internalType":"address"},{"name":"tokenId","type":"uint256","indexed":true,"internalType":"uint256"},{"name":"space","type":"address","indexed":true,"internalType":"address"}],"anonymous":false},{"type":"event","name":"Unpaused","inputs":[{"name":"account","type":"address","indexed":false,"internalType":"address"}],"anonymous":false},{"type":"error","name":"Architect__InvalidAddress","inputs":[]},{"type":"error","name":"Architect__InvalidNetworkId","inputs":[]},{"type":"error","name":"Architect__InvalidPricingModule","inputs":[]},{"type":"error","name":"Architect__InvalidStringLength","inputs":[]},{"type":"error","name":"Architect__NotContract","inputs":[]},{"type":"error","name":"Factory__FailedDeployment","inputs":[]},{"type":"error","name":"Initializable_InInitializingState","inputs":[]},{"type":"error","name":"Initializable_NotInInitializingState","inputs":[]},{"type":"error","name":"Introspection_AlreadySupported","inputs":[]},{"type":"error","name":"Introspection_NotSupported","inputs":[]},{"type":"error","name":"InvalidPricingModule","inputs":[{"name":"module","type":"address","internalType":"address"}]},{"type":"error","name":"Ownable__NotOwner","inputs":[{"name":"account","type":"address","internalType":"address"}]},{"type":"error","name":"Ownable__ZeroAddress","inputs":[]},{"type":"error","name":"Pausable__NotPaused","inputs":[]},{"type":"error","name":"Pausable__Paused","inputs":[]},{"type":"error","name":"ReentrancyGuard__ReentrantCall","inputs":[]},{"type":"error","name":"Validator__InvalidAddress","inputs":[]}],"bytecode":{"object":"0x608060405234801561001057600080fd5b5061001961001e565b6100c4565b7f59b501c3653afc186af7d48dda36cf6732bd21629a6295693664240a6ef520008054640100000000900460ff161561006a576040516366008a2d60e01b815260040160405180910390fd5b805463ffffffff90811610156100c157805463ffffffff191663ffffffff90811782556040519081527fe9c9b456cb2994b80aeef036cf59d26e9617df80f816a6ee5a5b4166e07e2f5c9060200160405180910390a15b50565b61368780620000d46000396000f3fe60806040523480156200001157600080fd5b50600436106200006a5760003560e01c80631a424b66146200006f578063545efb2d146200008857806354b93de514620000ca578063673f0dd514620000fa578063c0bc67961462000111578063cd7242b81462000137575b600080fd5b62000086620000803660046200145d565b6200014e565b005b62000092620001ad565b604080516001600160a01b03958616815293851660208501529184169183019190915290911660608201526080015b60405180910390f35b620000e1620000db366004620014c2565b62000255565b6040516001600160a01b039091168152602001620000c1565b620000e16200010b36600462001500565b62000344565b620001286200012236600462001527565b62000382565b604051908152602001620000c1565b62000086620001483660046200145d565b620003c0565b7f59b501c3653afc186af7d48dda36cf6732bd21629a6295693664240a6ef5200054640100000000900460ff166200019957604051630ef4733760e31b815260040160405180910390fd5b620001a78484848462000411565b50505050565b6000806000806200024760008051602062003667833981519152547f9e34afa7b4d27d347d25d9d9dab4f1a106fa081382e6c4243e834d093e787d01547f9e34afa7b4d27d347d25d9d9dab4f1a106fa081382e6c4243e834d093e787d02547f9e34afa7b4d27d347d25d9d9dab4f1a106fa081382e6c4243e834d093e787d05546001600160a01b03938416949284169391821692911690565b935093509350935090919293565b600060027f54f22f54f370bd020e00ee80e1a5099a71652e2ccbcf6a75281e4c70a3e11a0054036200029a57604051635db5c7cd60e11b815260040160405180910390fd5b620002c460027f54f22f54f370bd020e00ee80e1a5099a71652e2ccbcf6a75281e4c70a3e11a0055565b7fe17a067c7963a59b6dfd65d33b053fdbea1c56500e2aae4f976d9eda4da9eb005460ff161562000308576040516302ca8ced60e11b815260040160405180910390fd5b620003138262000550565b90506200033f60017f54f22f54f370bd020e00ee80e1a5099a71652e2ccbcf6a75281e4c70a3e11a0055565b919050565b60008181527f06bd04a817647c31ee485c8a0baab96facd62dbfd4b475796bb17ca2c12f000260205260408120546001600160a01b03165b92915050565b6001600160a01b03811660009081527f06bd04a817647c31ee485c8a0baab96facd62dbfd4b475796bb17ca2c12f000160205260408120546200037c565b7f4675fa8241f86f37157864d3d49b85ad4b164352c516da28e1678a90470ae300546001600160a01b0316331462000199576040516365f4906560e01b815233600482015260240160405180910390fd5b836001600160a01b03163b6000036200043d576040516302f3d00b60e01b815260040160405180910390fd5b826001600160a01b03163b60000362000469576040516302f3d00b60e01b815260040160405180910390fd5b816001600160a01b03163b60000362000495576040516302f3d00b60e01b815260040160405180910390fd5b6000805160206200366783398151915280546001600160a01b03199081166001600160a01b03968716179091557f9e34afa7b4d27d347d25d9d9dab4f1a106fa081382e6c4243e834d093e787d0180548216948616949094179093557f9e34afa7b4d27d347d25d9d9dab4f1a106fa081382e6c4243e834d093e787d0280548416928516929092179091557f9e34afa7b4d27d347d25d9d9dab4f1a106fa081382e6c4243e834d093e787d0580549092169216919091179055565b60008051602062003667833981519152805460408051631d5e528f60e21b815290516000937f06bd04a817647c31ee485c8a0baab96facd62dbfd4b475796bb17ca2c12f000093909285926001600160a01b03909216916375794a3c916004808201926020929091908290030181865afa158015620005d3573d6000803e3d6000fd5b505050506040513d601f19601f82011682018060405250810190620005f9919062001547565b905062000615816200060f604088018862001561565b6200098d565b8354909450836000620006288362001582565b90915550506000818152600284016020908152604080832080546001600160a01b0319166001600160a01b03898116918217909255845260018701909252909120829055825416633bf5b8f4620006808780620015aa565b6200068f60208a018a620015aa565b896200069f60808d018d620015aa565b620006ae60a08f018f620015aa565b6040518a63ffffffff1660e01b8152600401620006d49998979695949392919062001624565b6020604051808303816000875af1158015620006f4573d6000803e3d6000fd5b505050506040513d601f19601f820116820180604052508101906200071a919062001547565b50600182015460009062000738906001600160a01b031686620009b7565b600284015490915060009062000758906001600160a01b031687620009b7565b60408051600280825260608201835292935060009290916020830190803683370190505090508281600081518110620007955762000795620016b2565b60200260200101906001600160a01b031690816001600160a01b0316815250508181600181518110620007cc57620007cc620016b2565b6001600160a01b039283166020918202929092010152604051638bfc820f60e01b815290881690638bfc820f9062000809908490600401620016c8565b600060405180830381600087803b1580156200082457600080fd5b505af115801562000839573d6000803e3d6000fd5b505050506200086c8784848b806040019062000856919062001561565b6200086690602081019062001561565b62000a74565b506000620008c1886200088360408c018c62001561565b6200088f908062001717565b6200089b9080620015aa565b620008aa60408e018e62001561565b620008ba9060408101906200172f565b8962000f21565b9050620008de8882620008d860608d018d6200177c565b620010b7565b8554604051632142170760e11b8152306004820152336024820152604481018790526001600160a01b03909116906342842e0e90606401600060405180830381600087803b1580156200093057600080fd5b505af115801562000945573d6000803e3d6000fd5b50506040516001600160a01b038b16925087915033907fe50fc3942f8a2d7e5a7c8fb9488499eba5255b41e18bc3f1b4791402976d1d0b90600090a450505050505050919050565b60008060006200099e8585620011c2565b91509150620009ae82826200131e565b95945050505050565b60008060405180602001620009cc906200142b565b601f1982820381018352601f9091011660408190526001600160a01b0385166024820152859060440160408051601f19818403018152918152602080830180516001600160e01b031663189acdbd60e31b179052905162000a3093929101620017e7565b60408051601f198184030181529082905262000a5092916020016200180d565b604051602081830303815290604052905062000a6c8162001344565b949350505050565b604080516001808252818301909252600091829190816020015b606081526020019060019003908162000a8e579050509050604051806040016040528060098152602001684a6f696e537061636560b81b8152508160008151811062000ade5762000ade620016b2565b6020026020010181905250856001600160a01b0316638fcd793d6040518060400160405280600681526020016526b4b73a32b960d11b81525083600067ffffffffffffffff81111562000b355762000b356200169c565b60405190808252806020026020018201604052801562000b7d57816020015b60408051808201909152600081526060602082015281526020019060019003908162000b545790505b506040518463ffffffff1660e01b815260040162000b9e93929190620018c7565b6020604051808303816000875af115801562000bbe573d6000803e3d6000fd5b505050506040513d601f19601f8201168201806040525081019062000be4919062001547565b915062000bf5602084018462001954565b1562000cfe576040805160018082528183019092526000916020808301908036833701905050905060018160008151811062000c355762000c35620016b2565b60200260200101906001600160a01b031690816001600160a01b031681525050866001600160a01b031663ba201ba88460405180604001604052808a6001600160a01b031681526020018560405160200162000c929190620016c8565b6040516020818303038152906040528152506040518363ffffffff1660e01b815260040162000cc392919062001978565b600060405180830381600087803b15801562000cde57600080fd5b505af115801562000cf3573d6000803e3d6000fd5b505050505062000f18565b62000d0d60208401846200172f565b15905062000e335760005b62000d2760208501856200172f565b905081101562000d7d5762000d7462000d4460208601866200172f565b8381811062000d575762000d57620016b2565b905060200201602081019062000d6e919062001527565b62001369565b60010162000d18565b50856001600160a01b031663ba201ba8836040518060400160405280896001600160a01b0316815260200187806020019062000dba91906200172f565b60405160200162000dcd92919062001993565b6040516020818303038152906040528152506040518363ffffffff1660e01b815260040162000dfe92919062001978565b600060405180830381600087803b15801562000e1957600080fd5b505af115801562000e2e573d6000803e3d6000fd5b505050505b600062000e446040850185620015aa565b9050111562000f1857856001600160a01b031663ba201ba8836040518060400160405280886001600160a01b0316815260200187806040019062000e899190620015aa565b8080601f01602080910402602001604051908101604052809392919081815260200183838082843760009201919091525050509152506040516001600160e01b031960e085901b16815262000ee392919060040162001978565b600060405180830381600087803b15801562000efe57600080fd5b505af115801562000f13573d6000803e3d6000fd5b505050505b50949350505050565b6040805160018082528183019092526000918291906020808301908036833701905050905060018160008151811062000f5e5762000f5e620016b2565b6001600160a01b039290921660209283029190910190910152604080516001808252818301909252600091816020015b60408051808201909152600081526060602082015281526020019060019003908162000f8e579050509050838160008151811062000fd05762000fd0620016b2565b6020908102919091018101516001600160a01b0390921690915260405162000ffb91849101620016c8565b60405160208183030381529060405281600081518110620010205762001020620016b2565b6020908102919091018101510152604051638fcd793d60e01b81526001600160a01b038a1690638fcd793d9062001064908b908b908b908b908890600401620019e5565b6020604051808303816000875af115801562001084573d6000803e3d6000fd5b505050506040513d601f19601f82011682018060405250810190620010aa919062001547565b9998505050505050505050565b604080516001808252818301909252600091602080830190803683370190505090508281600081518110620010f057620010f0620016b2565b602090810291909101810191909152604051600160fd1b918101919091526bffffffffffffffffffffffff19606086901b166021820152600090603501604051602081830303815290604052620011479062001ab5565b90506001600160a01b03851663921f717582620011658680620015aa565b866040518563ffffffff1660e01b815260040162001187949392919062001add565b600060405180830381600087803b158015620011a257600080fd5b505af1158015620011b7573d6000803e3d6000fd5b505050505050505050565b60606000620011f1620011d6848062001717565b620011eb906101208101906101000162001527565b62001394565b60006000805160206200366783398151915254604080513360208201529081018790524260608201526001600160a01b03909116915060800160408051601f1981840301815291905280516020909101209150600062001252858062001717565b6200125d9062001c1b565b60c08101519091506001600160a01b03166200127a573360c08201525b6040516200128b6020820162001439565b601f19828203810183526040601f90920116818101825263dc9cc64560e01b815230602082810191909152825180840184526001600160a01b03871681528082018b90529251620012e493339392909187910162001cfd565b60408051601f19818403018152908290526200130492916020016200180d565b604051602081830303815290604052935050509250929050565b60008260200183518381836000f592505050806200037c5763ef35ca196000526004601cfd5b600081602001825180826000f092505050806200033f5763ef35ca196000526004601cfd5b6001600160a01b03811662001391576040516302e47d1560e41b815260040160405180910390fd5b50565b6001600160a01b0381161580620013b35750620013b181620013d2565b155b156200139157604051637e4248fd60e11b815260040160405180910390fd5b60007f6438323c68a77f029335e6433efb7c07e7cd1775df0c27e75bcd3591a8bc5d0062001401818462001408565b9392505050565b6001600160a01b0381166000908152600183016020526040812054151562001401565b6103d48062001dfa83390190565b61149980620021ce83390190565b6001600160a01b03811681146200139157600080fd5b600080600080608085870312156200147457600080fd5b8435620014818162001447565b93506020850135620014938162001447565b92506040850135620014a58162001447565b91506060850135620014b78162001447565b939692955090935050565b600060208284031215620014d557600080fd5b813567ffffffffffffffff811115620014ed57600080fd5b820160c081850312156200140157600080fd5b6000602082840312156200151357600080fd5b5035919050565b80356200033f8162001447565b6000602082840312156200153a57600080fd5b8135620014018162001447565b6000602082840312156200155a57600080fd5b5051919050565b60008235605e198336030181126200157857600080fd5b9190910192915050565b600060018201620015a357634e487b7160e01b600052601160045260246000fd5b5060010190565b6000808335601e19843603018112620015c257600080fd5b83018035915067ffffffffffffffff821115620015de57600080fd5b602001915036819003821315620015f457600080fd5b9250929050565b81835281816020850137506000828201602090810191909152601f909101601f19169091010190565b60a0815260006200163a60a083018b8d620015fb565b82810360208401526200164f818a8c620015fb565b6001600160a01b03891660408501528381036060850152905062001675818789620015fb565b905082810360808401526200168c818587620015fb565b9c9b505050505050505050505050565b634e487b7160e01b600052604160045260246000fd5b634e487b7160e01b600052603260045260246000fd5b6020808252825182820181905260009190848201906040850190845b818110156200170b5783516001600160a01b031683529284019291840191600101620016e4565b50909695505050505050565b6000823561011e198336030181126200157857600080fd5b6000808335601e198436030181126200174757600080fd5b83018035915067ffffffffffffffff8211156200176357600080fd5b6020019150600581901b3603821315620015f457600080fd5b60008235601e198336030181126200157857600080fd5b60005b83811015620017b057818101518382015260200162001796565b50506000910152565b60008151808452620017d381602086016020860162001793565b601f01601f19169290920160200192915050565b6001600160a01b038316815260406020820181905260009062000a6c90830184620017b9565b600083516200182181846020880162001793565b8351908301906200183781836020880162001793565b01949350505050565b60018060a01b038151168252600060208201516040602085015262000a6c6040850182620017b9565b60008282518085526020808601955060208260051b8401016020860160005b84811015620018ba57601f19868403018952620018a783835162001840565b9884019892509083019060010162001888565b5090979650505050505050565b606081526000620018dc6060830186620017b9565b6020838203818501528186518084528284019150828160051b85010183890160005b838110156200193057601f198784030185526200191d838351620017b9565b94860194925090850190600101620018fe565b5050868103604088015262001946818962001869565b9a9950505050505050505050565b6000602082840312156200196757600080fd5b813580151581146200140157600080fd5b82815260406020820152600062000a6c604083018462001840565b60208082528181018390526000908460408401835b86811015620019da578235620019be8162001447565b6001600160a01b031682529183019190830190600101620019a8565b509695505050505050565b606081526000620019fb606083018789620015fb565b602083820381850152818683528183019050818760051b8401018860005b8981101562001a9057858303601f190184528135368c9003601e1901811262001a4157600080fd5b8b01858101903567ffffffffffffffff81111562001a5e57600080fd5b80360382131562001a6e57600080fd5b62001a7b858284620015fb565b95870195945050509084019060010162001a19565b5050858103604087015262001aa6818862001869565b9b9a5050505050505050505050565b8051602080830151919081101562001ad7576000198160200360031b1b821691505b50919050565b848152600060206060602084015262001afb606084018688620015fb565b83810360408501528451808252602080870192019060005b8181101562001b315783518352928401929184019160010162001b13565b50909998505050505050505050565b604051610120810167ffffffffffffffff8111828210171562001b675762001b676200169c565b60405290565b600082601f83011262001b7f57600080fd5b813567ffffffffffffffff8082111562001b9d5762001b9d6200169c565b604051601f8301601f19908116603f0116810190828211818310171562001bc85762001bc86200169c565b8160405283815286602085880101111562001be257600080fd5b836020870160208301376000602085830101528094505050505092915050565b803567ffffffffffffffff811681146200033f57600080fd5b6000610120823603121562001c2f57600080fd5b62001c3962001b40565b823567ffffffffffffffff8082111562001c5257600080fd5b62001c603683870162001b6d565b8352602085013591508082111562001c7757600080fd5b5062001c863682860162001b6d565b602083015250604083013560408201526060830135606082015262001cae6080840162001c02565b608082015262001cc160a084016200151a565b60a082015262001cd460c084016200151a565b60c082015260e083013560e082015261010062001cf38185016200151a565b9082015292915050565b600060018060a01b03808716835263ffffffff60e01b8651166020840152806020870151166040840152808551166060840152506020840151608083015260c060a083015282516101208060c085015262001d5d6101e0850183620017b9565b9150602085015160bf198584030160e086015262001d7c8382620017b9565b925050604085015161010081818701526060870151838701526080870151925062001db461014087018467ffffffffffffffff169052565b60a08701516001600160a01b0390811661016088015260c0880151811661018088015260e08801516101a0880152908701519081166101c08701529150620019da905056fe60806040526040516103d43803806103d483398101604081905261002291610268565b61002c8282610033565b5050610352565b61003c82610092565b6040516001600160a01b038316907fbc7cd75a20ee27fd9adebab32041f755214dbc6bffa90cc0225b39da2e5c2d3b90600090a280511561008657610081828261010e565b505050565b61008e610185565b5050565b806001600160a01b03163b6000036100cd57604051634c9c8ce360e01b81526001600160a01b03821660048201526024015b60405180910390fd5b7f360894a13ba1a3210667c828492db98dca3e2076cc3735a920a3ca505d382bbc80546001600160a01b0319166001600160a01b0392909216919091179055565b6060600080846001600160a01b03168460405161012b9190610336565b600060405180830381855af49150503d8060008114610166576040519150601f19603f3d011682016040523d82523d6000602084013e61016b565b606091505b50909250905061017c8583836101a6565b95945050505050565b34156101a45760405163b398979f60e01b815260040160405180910390fd5b565b6060826101bb576101b682610205565b6101fe565b81511580156101d257506001600160a01b0384163b155b156101fb57604051639996b31560e01b81526001600160a01b03851660048201526024016100c4565b50805b9392505050565b8051156102155780518082602001fd5b604051630a12f52160e11b815260040160405180910390fd5b634e487b7160e01b600052604160045260246000fd5b60005b8381101561025f578181015183820152602001610247565b50506000910152565b6000806040838503121561027b57600080fd5b82516001600160a01b038116811461029257600080fd5b60208401519092506001600160401b03808211156102af57600080fd5b818501915085601f8301126102c357600080fd5b8151818111156102d5576102d561022e565b604051601f8201601f19908116603f011681019083821181831017156102fd576102fd61022e565b8160405282815288602084870101111561031657600080fd5b610327836020830160208801610244565b80955050505050509250929050565b60008251610348818460208701610244565b9190910192915050565b6074806103606000396000f3fe6080604052600a600c565b005b60186014601a565b6051565b565b6000604c7f360894a13ba1a3210667c828492db98dca3e2076cc3735a920a3ca505d382bbc546001600160a01b031690565b905090565b3660008037600080366000845af43d6000803e808015606f573d6000f35b3d6000fd60806040523480156200001157600080fd5b506040516200149938038062001499833981016040819052620000349162000c14565b6200003e62000160565b620000a58380517f9c16cba5b9f2fcbd952b38bec34079e93cbe107475c15fc20705f4e704198a0080546020909301516001600160a01b03166001600160a01b031960e09390931c600160a01b02929092166001600160c01b031990931692909217179055565b81517fd2f24d4f172e4e84e48e7c4125b6e904c29e5eba33ad4938fee51dd5dbd4b60080546001600160a01b0319166001600160a01b0390921691909117905560208201517fd2f24d4f172e4e84e48e7c4125b6e904c29e5eba33ad4938fee51dd5dbd4b60155805160208201516200011f919062000174565b62000135818460200151620001cb60201b60201c565b6200014284600162000380565b6200014c620003a6565b620001566200047b565b5050505062000ef9565b620001726301ffc9a760e01b620004d0565b565b600080516020620014198339815191527f6569bde4a160c636ea8b8d11acb83a60d7fec0b8f2e09389306cba0e1340df02620001b1848262000d7a565b5060038101620001c2838262000d7a565b50600090555050565b6000805160206200143983398151915280546001600160a01b038381166001600160a01b0319928316179092556101008401517fc21004fcc619240a31f006438274d15cd813308303284436eef6055f0fdcb608805491909316908216179091557fc21004fcc619240a31f006438274d15cd813308303284436eef6055f0fdcb604805490911673eeeeeeeeeeeeeeeeeeeeeeeeeeeeeeeeeeeeeeee17905560608201517fc21004fcc619240a31f006438274d15cd813308303284436eef6055f0fdcb6035560e08201517fc21004fcc619240a31f006438274d15cd813308303284436eef6055f0fdcb607819055600080516020620014798339815191529015620002f15760e0830151620002e190620005ab565b600d8101805460ff191660011790555b6040830151156200037b5760408301516200030c9062000659565b600881015460408085015190516391b7f5ed60e01b81526001600160a01b03909216916391b7f5ed91620003469160040190815260200190565b600060405180830381600087803b1580156200036157600080fd5b505af115801562000376573d6000803e3d6000fd5b505050505b505050565b620003a28282604051806020016040528060008152506200070460201b60201c565b5050565b60007f9075c515a635ba70c9696f31149324218d75cf00afe836c482e6473f38b19e00905060006000805160206200147983398151915260060154604051628956cd60e71b81526c29b830b1b2a7b832b930ba37b960991b60048201526001600160a01b03909116906344ab668090602401602060405180830381865afa15801562000436573d6000803e3d6000fd5b505050506040513d601f19601f820116820180604052508101906200045c919062000e46565b82546001600160a01b0319166001600160a01b03919091161790915550565b6200048d6380ac58cd60e01b620004d0565b6200049f635b5e139f60e01b620004d0565b620004b1638c65f84d60e01b620004d0565b620004c36307f5828d60e41b620004d0565b62000172630e38709160e41b5b6001600160e01b0319811660009081527f81088bbc801e045ea3e7620779ab349988f58afbdfba10dff983df3f33522b00602052604090205460ff166200055a576001600160e01b0319811660009081527f81088bbc801e045ea3e7620779ab349988f58afbdfba10dff983df3f33522b0060205260409020805460ff1916600117905562000573565b604051637967f77d60e11b815260040160405180910390fd5b6040516001600160e01b03198216907f78f84e5b1c5c05be2b5ad3800781dd404d6d6c6302bc755c0fe20f58a33a7f2290600090a250565b600080516020620014398339815191525460408051632cbb9d1360e01b8152905160008051602062001479833981519152926001600160a01b031691632cbb9d139160048083019260209291908290030181865afa15801562000612573d6000803e3d6000fd5b505050506040513d601f19601f8201168201806040525081019062000638919062000e6b565b821115620003a25760405163c3983b9160e01b815260040160405180910390fd5b60006200067c60008051602062001439833981519152546001600160a01b031690565b6001600160a01b0316631b159e2e6040518163ffffffff1660e01b8152600401602060405180830381865afa158015620006ba573d6000803e3d6000fd5b505050506040513d601f19601f82011682018060405250810190620006e0919062000e6b565b905080821015620003a257604051631a23d64760e11b815260040160405180910390fd5b62000710838362000796565b6001600160a01b0383163b156200037b5760008051602062001419833981519152548281035b60018101906200074c90600090879086620008d0565b6200076a576040516368d2bf6b60e11b815260040160405180910390fd5b8181106200073657816000805160206200141983398151915254146200078f57600080fd5b5050505050565b60008051602062001419833981519152546000829003620007ca5760405163b562e8dd60e01b815260040160405180910390fd5b6001600160a01b03831660008181527f6569bde4a160c636ea8b8d11acb83a60d7fec0b8f2e09389306cba0e1340df056020908152604080832080546801000000000000000188020190558483527f6569bde4a160c636ea8b8d11acb83a60d7fec0b8f2e09389306cba0e1340df0490915281206001851460e11b4260a01b17831790558284019083908390600080516020620014598339815191528180a4600183015b81811462000897578083600060008051602062001459833981519152600080a46001016200086e565b5081600003620008b957604051622e076360e81b815260040160405180910390fd5b600080516020620014198339815191525550505050565b604051630a85bd0160e11b81526000906001600160a01b0385169063150b7a02906200090790339089908890889060040162000e85565b6020604051808303816000875af192505050801562000945575060408051601f3d908101601f19168201909252620009429181019062000edb565b60015b620009a7573d80801562000976576040519150601f19603f3d011682016040523d82523d6000602084013e6200097b565b606091505b5080516000036200099f576040516368d2bf6b60e11b815260040160405180910390fd5b805181602001fd5b6001600160e01b031916630a85bd0160e11b149050949350505050565b80516001600160a01b0381168114620009dc57600080fd5b919050565b634e487b7160e01b600052604160045260246000fd5b60405161012081016001600160401b038111828210171562000a1d5762000a1d620009e1565b60405290565b604080519081016001600160401b038111828210171562000a1d5762000a1d620009e1565b80516001600160e01b031981168114620009dc57600080fd5b60005b8381101562000a7e57818101518382015260200162000a64565b50506000910152565b600082601f83011262000a9957600080fd5b81516001600160401b038082111562000ab65762000ab6620009e1565b604051601f8301601f19908116603f0116810190828211818310171562000ae15762000ae1620009e1565b8160405283815286602085880101111562000afb57600080fd5b62000b0e84602083016020890162000a61565b9695505050505050565b80516001600160401b0381168114620009dc57600080fd5b6000610120828403121562000b4457600080fd5b62000b4e620009f7565b82519091506001600160401b038082111562000b6957600080fd5b62000b778583860162000a87565b8352602084015191508082111562000b8e57600080fd5b5062000b9d8482850162000a87565b602083015250604082015160408201526060820151606082015262000bc56080830162000b18565b608082015262000bd860a08301620009c4565b60a082015262000beb60c08301620009c4565b60c082015260e082015160e082015261010062000c0a818401620009c4565b9082015292915050565b60008060008084860360c081121562000c2c57600080fd5b62000c3786620009c4565b94506040601f198201121562000c4c57600080fd5b62000c5662000a23565b62000c646020880162000a48565b815262000c7460408801620009c4565b602082015293506040605f198201121562000c8e57600080fd5b5062000c9962000a23565b62000ca760608701620009c4565b81526080860151602082015260a08601519092506001600160401b0381111562000cd057600080fd5b62000cde8782880162000b30565b91505092959194509250565b600181811c9082168062000cff57607f821691505b60208210810362000d2057634e487b7160e01b600052602260045260246000fd5b50919050565b601f8211156200037b576000816000526020600020601f850160051c8101602086101562000d515750805b601f850160051c820191505b8181101562000d725782815560010162000d5d565b505050505050565b81516001600160401b0381111562000d965762000d96620009e1565b62000dae8162000da7845462000cea565b8462000d26565b602080601f83116001811462000de6576000841562000dcd5750858301515b600019600386901b1c1916600185901b17855562000d72565b600085815260208120601f198616915b8281101562000e175788860151825594840194600190910190840162000df6565b508582101562000e365787850151600019600388901b60f8161c191681555b5050505050600190811b01905550565b60006020828403121562000e5957600080fd5b62000e6482620009c4565b9392505050565b60006020828403121562000e7e57600080fd5b5051919050565b600060018060a01b03808716835280861660208401525083604083015260806060830152825180608084015262000ec48160a085016020870162000a61565b601f01601f19169190910160a00195945050505050565b60006020828403121562000eee57600080fd5b62000e648262000a48565b6105108062000f096000396000f3fe6080604052600436106100225760003560e01c8063ac9650d81461003357610029565b3661002957005b610031610069565b005b34801561003f57600080fd5b5061005361004e366004610327565b6100c4565b60405161006091906103c0565b60405180910390f35b60006100736101e1565b9050806001600160a01b03163b6000036100a0576040516321f27f0d60e21b815260040160405180910390fd5b3660008037600080366000845af43d6000803e8080156100bf573d6000f35b3d6000fd5b6060818067ffffffffffffffff8111156100e0576100e061043a565b60405190808252806020026020018201604052801561011357816020015b60608152602001906001900390816100fe5790505b50915060005b818110156101d9576000803087878581811061013757610137610450565b90506020028101906101499190610466565b6040516101579291906104b4565b600060405180830381855af49150503d8060008114610192576040519150601f19603f3d011682016040523d82523d6000602084013e610197565b606091505b509150915081156101c557808584815181106101b5576101b5610450565b60200260200101819052506101cf565b3d6000803e3d6000fd5b5050600101610119565b505092915050565b7f9c16cba5b9f2fcbd952b38bec34079e93cbe107475c15fc20705f4e704198a0054600090600160a01b900460e01b81806102437f9c16cba5b9f2fcbd952b38bec34079e93cbe107475c15fc20705f4e704198a00546001600160a01b031690565b6040516001600160e01b03196000351660248201526001600160a01b039190911690849060440160408051601f198184030181529181526020820180516001600160e01b03166001600160e01b03199094169390931790925290516102a891906104c4565b600060405180830381855afa9150503d80600081146102e3576040519150601f19603f3d011682016040523d82523d6000602084013e6102e8565b606091505b50915091508161030b5760405163391aa44560e01b815260040160405180910390fd5b8080602001905181019061031f91906104e0565b935050505090565b6000806020838503121561033a57600080fd5b823567ffffffffffffffff8082111561035257600080fd5b818501915085601f83011261036657600080fd5b81358181111561037557600080fd5b8660208260051b850101111561038a57600080fd5b60209290920196919550909350505050565b60005b838110156103b757818101518382015260200161039f565b50506000910152565b6000602080830181845280855180835260408601915060408160051b870101925083870160005b8281101561042d57878503603f190184528151805180875261040e818989018a850161039c565b601f01601f1916959095018601945092850192908501906001016103e7565b5092979650505050505050565b634e487b7160e01b600052604160045260246000fd5b634e487b7160e01b600052603260045260246000fd5b6000808335601e1984360301811261047d57600080fd5b83018035915067ffffffffffffffff82111561049857600080fd5b6020019150368190038213156104ad57600080fd5b9250929050565b8183823760009101908152919050565b600082516104d681846020870161039c565b9190910192915050565b6000602082840312156104f257600080fd5b81516001600160a01b038116811461050957600080fd5b9392505050566569bde4a160c636ea8b8d11acb83a60d7fec0b8f2e09389306cba0e1340df00c21004fcc619240a31f006438274d15cd813308303284436eef6055f0fdcb606ddf252ad1be2c89b69c2b068fc378daa952ba7f163c4a11628f55a4df523b3efc21004fcc619240a31f006438274d15cd813308303284436eef6055f0fdcb6009e34afa7b4d27d347d25d9d9dab4f1a106fa081382e6c4243e834d093e787d00","linkReferences":{}},"methodIdentifiers":{"__Architect_init(address,address,address,address)":"1a424b66","createSpace((string,string,((string,string,uint256,uint256,uint64,address,address,uint256,address),(bool,address[],bytes),string[]),(string),string,string))":"54b93de5","getSpaceArchitectImplementations()":"545efb2d","getSpaceByTokenId(uint256)":"673f0dd5","getTokenIdBySpace(address)":"c0bc6796","setSpaceArchitectImplementations(address,address,address,address)":"cd7242b8"},"id":160}