{"abi":[{"type":"function","name":"__Architect_init","inputs":[{"name":"ownerImplementation","type":"address","internalType":"contract ISpaceOwner"},{"name":"userEntitlementImplementation","type":"address","internalType":"contract IUserEntitlement"},{"name":"ruleEntitlementImplementation","type":"address","internalType":"contract IRuleEntitlementV2"},{"name":"legacyRuleEntitlement","type":"address","internalType":"contract IRuleEntitlement"}],"outputs":[],"stateMutability":"nonpayable"},{"type":"function","name":"createSpace","inputs":[{"name":"spaceInfo","type":"tuple","internalType":"struct IArchitectBase.SpaceInfo","components":[{"name":"name","type":"string","internalType":"string"},{"name":"uri","type":"string","internalType":"string"},{"name":"shortDescription","type":"string","internalType":"string"},{"name":"longDescription","type":"string","internalType":"string"},{"name":"membership","type":"tuple","internalType":"struct IArchitectBase.Membership","components":[{"name":"settings","type":"tuple","internalType":"struct IMembershipBase.Membership","components":[{"name":"name","type":"string","internalType":"string"},{"name":"symbol","type":"string","internalType":"string"},{"name":"price","type":"uint256","internalType":"uint256"},{"name":"maxSupply","type":"uint256","internalType":"uint256"},{"name":"duration","type":"uint64","internalType":"uint64"},{"name":"currency","type":"address","internalType":"address"},{"name":"feeRecipient","type":"address","internalType":"address"},{"name":"freeAllocation","type":"uint256","internalType":"uint256"},{"name":"pricingModule","type":"address","internalType":"address"}]},{"name":"requirements","type":"tuple","internalType":"struct IArchitectBase.MembershipRequirements","components":[{"name":"everyone","type":"bool","internalType":"bool"},{"name":"users","type":"address[]","internalType":"address[]"},{"name":"ruleData","type":"bytes","internalType":"bytes"},{"name":"syncEntitlements","type":"bool","internalType":"bool"}]},{"name":"permissions","type":"string[]","internalType":"string[]"}]},{"name":"channel","type":"tuple","internalType":"struct IArchitectBase.ChannelInfo","components":[{"name":"metadata","type":"string","internalType":"string"}]}]}],"outputs":[{"name":"","type":"address","internalType":"address"}],"stateMutability":"nonpayable"},{"type":"function","name":"createSpaceWithPrepay","inputs":[{"name":"spaceInfo","type":"tuple","internalType":"struct IArchitectBase.CreateSpace","components":[{"name":"metadata","type":"tuple","internalType":"struct IArchitectBase.Metadata","components":[{"name":"name","type":"string","internalType":"string"},{"name":"uri","type":"string","internalType":"string"},{"name":"shortDescription","type":"string","internalType":"string"},{"name":"longDescription","type":"string","internalType":"string"}]},{"name":"membership","type":"tuple","internalType":"struct IArchitectBase.Membership","components":[{"name":"settings","type":"tuple","internalType":"struct IMembershipBase.Membership","components":[{"name":"name","type":"string","internalType":"string"},{"name":"symbol","type":"string","internalType":"string"},{"name":"price","type":"uint256","internalType":"uint256"},{"name":"maxSupply","type":"uint256","internalType":"uint256"},{"name":"duration","type":"uint64","internalType":"uint64"},{"name":"currency","type":"address","internalType":"address"},{"name":"feeRecipient","type":"address","internalType":"address"},{"name":"freeAllocation","type":"uint256","internalType":"uint256"},{"name":"pricingModule","type":"address","internalType":"address"}]},{"name":"requirements","type":"tuple","internalType":"struct IArchitectBase.MembershipRequirements","components":[{"name":"everyone","type":"bool","internalType":"bool"},{"name":"users","type":"address[]","internalType":"address[]"},{"name":"ruleData","type":"bytes","internalType":"bytes"},{"name":"syncEntitlements","type":"bool","internalType":"bool"}]},{"name":"permissions","type":"string[]","internalType":"string[]"}]},{"name":"channel","type":"tuple","internalType":"struct IArchitectBase.ChannelInfo","components":[{"name":"metadata","type":"string","internalType":"string"}]},{"name":"prepay","type":"tuple","internalType":"struct IArchitectBase.Prepay","components":[{"name":"supply","type":"uint256","internalType":"uint256"}]}]}],"outputs":[{"name":"","type":"address","internalType":"address"}],"stateMutability":"payable"},{"type":"function","name":"getProxyInitializer","inputs":[],"outputs":[{"name":"","type":"address","internalType":"contract ISpaceProxyInitializer"}],"stateMutability":"view"},{"type":"function","name":"getSpaceArchitectImplementations","inputs":[],"outputs":[{"name":"spaceToken","type":"address","internalType":"contract ISpaceOwner"},{"name":"userEntitlementImplementation","type":"address","internalType":"contract IUserEntitlement"},{"name":"ruleEntitlementImplementation","type":"address","internalType":"contract IRuleEntitlementV2"},{"name":"legacyRuleEntitlement","type":"address","internalType":"contract IRuleEntitlement"}],"stateMutability":"view"},{"type":"function","name":"getSpaceByTokenId","inputs":[{"name":"tokenId","type":"uint256","internalType":"uint256"}],"outputs":[{"name":"","type":"address","internalType":"address"}],"stateMutability":"view"},{"type":"function","name":"getTokenIdBySpace","inputs":[{"name":"space","type":"address","internalType":"address"}],"outputs":[{"name":"","type":"uint256","internalType":"uint256"}],"stateMutability":"view"},{"type":"function","name":"setProxyInitializer","inputs":[{"name":"proxyInitializer","type":"address","internalType":"contract ISpaceProxyInitializer"}],"outputs":[],"stateMutability":"nonpayable"},{"type":"function","name":"setSpaceArchitectImplementations","inputs":[{"name":"spaceToken","type":"address","internalType":"contract ISpaceOwner"},{"name":"userEntitlementImplementation","type":"address","internalType":"contract IUserEntitlement"},{"name":"ruleEntitlementImplementation","type":"address","internalType":"contract IRuleEntitlementV2"},{"name":"legacyRuleEntitlement","type":"address","internalType":"contract IRuleEntitlement"}],"outputs":[],"stateMutability":"nonpayable"},{"type":"event","name":"Architect__ProxyInitializerSet","inputs":[{"name":"proxyInitializer","type":"address","indexed":true,"internalType":"address"}],"anonymous":false},{"type":"event","name":"Initialized","inputs":[{"name":"version","type":"uint32","indexed":false,"internalType":"uint32"}],"anonymous":false},{"type":"event","name":"InterfaceAdded","inputs":[{"name":"interfaceId","type":"bytes4","indexed":true,"internalType":"bytes4"}],"anonymous":false},{"type":"event","name":"InterfaceRemoved","inputs":[{"name":"interfaceId","type":"bytes4","indexed":true,"internalType":"bytes4"}],"anonymous":false},{"type":"event","name":"OwnershipTransferred","inputs":[{"name":"previousOwner","type":"address","indexed":true,"internalType":"address"},{"name":"newOwner","type":"address","indexed":true,"internalType":"address"}],"anonymous":false},{"type":"event","name":"Paused","inputs":[{"name":"account","type":"address","indexed":false,"internalType":"address"}],"anonymous":false},{"type":"event","name":"PermissionsAddedToChannelRole","inputs":[{"name":"updater","type":"address","indexed":true,"internalType":"address"},{"name":"roleId","type":"uint256","indexed":true,"internalType":"uint256"},{"name":"channelId","type":"bytes32","indexed":true,"internalType":"bytes32"}],"anonymous":false},{"type":"event","name":"PermissionsRemovedFromChannelRole","inputs":[{"name":"updater","type":"address","indexed":true,"internalType":"address"},{"name":"roleId","type":"uint256","indexed":true,"internalType":"uint256"},{"name":"channelId","type":"bytes32","indexed":true,"internalType":"bytes32"}],"anonymous":false},{"type":"event","name":"PermissionsUpdatedForChannelRole","inputs":[{"name":"updater","type":"address","indexed":true,"internalType":"address"},{"name":"roleId","type":"uint256","indexed":true,"internalType":"uint256"},{"name":"channelId","type":"bytes32","indexed":true,"internalType":"bytes32"}],"anonymous":false},{"type":"event","name":"PricingModuleAdded","inputs":[{"name":"module","type":"address","indexed":true,"internalType":"address"}],"anonymous":false},{"type":"event","name":"PricingModuleRemoved","inputs":[{"name":"module","type":"address","indexed":true,"internalType":"address"}],"anonymous":false},{"type":"event","name":"PricingModuleUpdated","inputs":[{"name":"module","type":"address","indexed":true,"internalType":"address"}],"anonymous":false},{"type":"event","name":"RoleCreated","inputs":[{"name":"creator","type":"address","indexed":true,"internalType":"address"},{"name":"roleId","type":"uint256","indexed":true,"internalType":"uint256"}],"anonymous":false},{"type":"event","name":"RoleRemoved","inputs":[{"name":"remover","type":"address","indexed":true,"internalType":"address"},{"name":"roleId","type":"uint256","indexed":true,"internalType":"uint256"}],"anonymous":false},{"type":"event","name":"RoleUpdated","inputs":[{"name":"updater","type":"address","indexed":true,"internalType":"address"},{"name":"roleId","type":"uint256","indexed":true,"internalType":"uint256"}],"anonymous":false},{"type":"event","name":"SpaceCreated","inputs":[{"name":"owner","type":"address","indexed":true,"internalType":"address"},{"name":"tokenId","type":"uint256","indexed":true,"internalType":"uint256"},{"name":"space","type":"address","indexed":true,"internalType":"address"}],"anonymous":false},{"type":"event","name":"Unpaused","inputs":[{"name":"account","type":"address","indexed":false,"internalType":"address"}],"anonymous":false},{"type":"error","name":"Architect__InvalidAddress","inputs":[]},{"type":"error","name":"Architect__InvalidNetworkId","inputs":[]},{"type":"error","name":"Architect__InvalidPricingModule","inputs":[]},{"type":"error","name":"Architect__InvalidStringLength","inputs":[]},{"type":"error","name":"Architect__NotContract","inputs":[]},{"type":"error","name":"Factory__FailedDeployment","inputs":[]},{"type":"error","name":"Initializable_InInitializingState","inputs":[]},{"type":"error","name":"Initializable_NotInInitializingState","inputs":[]},{"type":"error","name":"Introspection_AlreadySupported","inputs":[]},{"type":"error","name":"Introspection_NotSupported","inputs":[]},{"type":"error","name":"InvalidPricingModule","inputs":[{"name":"module","type":"address","internalType":"address"}]},{"type":"error","name":"Ownable__NotOwner","inputs":[{"name":"account","type":"address","internalType":"address"}]},{"type":"error","name":"Ownable__ZeroAddress","inputs":[]},{"type":"error","name":"Pausable__NotPaused","inputs":[]},{"type":"error","name":"Pausable__Paused","inputs":[]},{"type":"error","name":"ReentrancyGuard__ReentrantCall","inputs":[]},{"type":"error","name":"Roles__EntitlementAlreadyExists","inputs":[]},{"type":"error","name":"Roles__EntitlementDoesNotExist","inputs":[]},{"type":"error","name":"Roles__InvalidEntitlementAddress","inputs":[]},{"type":"error","name":"Roles__InvalidPermission","inputs":[]},{"type":"error","name":"Roles__PermissionAlreadyExists","inputs":[]},{"type":"error","name":"Roles__PermissionDoesNotExist","inputs":[]},{"type":"error","name":"Roles__RoleDoesNotExist","inputs":[]},{"type":"error","name":"Validator__InvalidAddress","inputs":[]}],"bytecode":{"object":"0x608060405234801561001057600080fd5b5061001961001e565b6100c4565b7f59b501c3653afc186af7d48dda36cf6732bd21629a6295693664240a6ef520008054640100000000900460ff161561006a576040516366008a2d60e01b815260040160405180910390fd5b805463ffffffff90811610156100c157805463ffffffff191663ffffffff90811782556040519081527fe9c9b456cb2994b80aeef036cf59d26e9617df80f816a6ee5a5b4166e07e2f5c9060200160405180910390a15b50565b612df780620000d46000396000f3fe608060405260043610620000915760003560e01c8063c0bc67961162000060578063c0bc67961462000163578063cd55d94c1462000197578063cd7242b814620001ae578063e6907c9d14620001d3578063f822028d14620001f857600080fd5b80631a424b661462000096578063545efb2d14620000bd578063673f0dd5146200010d5780636bd837f4146200014b575b600080fd5b348015620000a357600080fd5b50620000bb620000b536600462001578565b6200021d565b005b348015620000ca57600080fd5b50620000d56200027c565b604080516001600160a01b03958616815293851660208501529184169183019190915290911660608201526080015b60405180910390f35b3480156200011a57600080fd5b50620001326200012c366004620015dd565b62000324565b6040516001600160a01b03909116815260200162000104565b3480156200015857600080fd5b506200013262000362565b3480156200017057600080fd5b50620001886200018236600462001604565b6200039b565b60405190815260200162000104565b62000132620001a836600462001b69565b620003d9565b348015620001bb57600080fd5b50620000bb620001cd36600462001578565b62000495565b348015620001e057600080fd5b50620000bb620001f236600462001604565b620004e7565b3480156200020557600080fd5b50620001326200021736600462001ce4565b62000543565b7f59b501c3653afc186af7d48dda36cf6732bd21629a6295693664240a6ef5200054640100000000900460ff166200026857604051630ef4733760e31b815260040160405180910390fd5b6200027684848484620005df565b50505050565b6000806000806200031660008051602062002dd7833981519152547f9e34afa7b4d27d347d25d9d9dab4f1a106fa081382e6c4243e834d093e787d01547f9e34afa7b4d27d347d25d9d9dab4f1a106fa081382e6c4243e834d093e787d02547f9e34afa7b4d27d347d25d9d9dab4f1a106fa081382e6c4243e834d093e787d05546001600160a01b03938416949284169391821692911690565b935093509350935090919293565b60008181527f06bd04a817647c31ee485c8a0baab96facd62dbfd4b475796bb17ca2c12f000260205260408120546001600160a01b03165b92915050565b6000620003967f9e34afa7b4d27d347d25d9d9dab4f1a106fa081382e6c4243e834d093e787d06546001600160a01b031690565b905090565b6001600160a01b03811660009081527f06bd04a817647c31ee485c8a0baab96facd62dbfd4b475796bb17ca2c12f000160205260408120546200035c565b6000600260008051602062002db783398151915254036200040d57604051635db5c7cd60e11b815260040160405180910390fd5b62000426600260008051602062002db783398151915255565b7fe17a067c7963a59b6dfd65d33b053fdbea1c56500e2aae4f976d9eda4da9eb005460ff16156200046a576040516302ca8ced60e11b815260040160405180910390fd5b62000475826200071e565b905062000490600160008051602062002db783398151915255565b919050565b7f4675fa8241f86f37157864d3d49b85ad4b164352c516da28e1678a90470ae300546001600160a01b0316331462000268576040516365f4906560e01b81523360048201526024015b60405180910390fd5b7f4675fa8241f86f37157864d3d49b85ad4b164352c516da28e1678a90470ae300546001600160a01b0316331462000535576040516365f4906560e01b8152336004820152602401620004de565b6200054081620007ee565b50565b6000600260008051602062002db783398151915254036200057757604051635db5c7cd60e11b815260040160405180910390fd5b62000590600260008051602062002db783398151915255565b7fe17a067c7963a59b6dfd65d33b053fdbea1c56500e2aae4f976d9eda4da9eb005460ff1615620005d4576040516302ca8ced60e11b815260040160405180910390fd5b62000475826200086a565b836001600160a01b03163b6000036200060b576040516302f3d00b60e01b815260040160405180910390fd5b826001600160a01b03163b60000362000637576040516302f3d00b60e01b815260040160405180910390fd5b816001600160a01b03163b60000362000663576040516302f3d00b60e01b815260040160405180910390fd5b60008051602062002dd783398151915280546001600160a01b03199081166001600160a01b03968716179091557f9e34afa7b4d27d347d25d9d9dab4f1a106fa081382e6c4243e834d093e787d0180548216948616949094179093557f9e34afa7b4d27d347d25d9d9dab4f1a106fa081382e6c4243e834d093e787d0280548416928516929092179091557f9e34afa7b4d27d347d25d9d9dab4f1a106fa081382e6c4243e834d093e787d0580549092169216919091179055565b6040805160c081018252825151815282516020908101518183015283518301518284015283516060908101519083015283015160808201529082015160a08201526000906200076d816200086a565b60608401515190925015620007e8576060830151516040516306499d7f60e01b81526001600160a01b038416916306499d7f913491620007b39160040190815260200190565b6000604051808303818588803b158015620007cd57600080fd5b505af1158015620007e2573d6000803e3d6000fd5b50505050505b50919050565b7f9e34afa7b4d27d347d25d9d9dab4f1a106fa081382e6c4243e834d093e787d0680546001600160a01b0319166001600160a01b03831690811790915560405160008051602062002dd783398151915291907f50d234a64b07fd5931eedf717c2eca7f76ef13920a1330cc774176dbf9c66b3e90600090a25050565b60008051602062002dd7833981519152805460408051631d5e528f60e21b815290516000937f06bd04a817647c31ee485c8a0baab96facd62dbfd4b475796bb17ca2c12f000093909285926001600160a01b03909216916375794a3c916004808201926020929091908290030181865afa158015620008ed573d6000803e3d6000fd5b505050506040513d601f19601f8201168201806040525081019062000913919062001e1b565b90506200092581866080015162000d47565b8354909450836000620009388362001e35565b90915550506000818152600284016020908152604080832080546001600160a01b0319166001600160a01b0389811691821790925584526001870183529281902084905584548851928901518983015160608b01519351630efd6e3d60e21b81529290951694633bf5b8f494620009b89490938b92919060040162001eb1565b6020604051808303816000875af1158015620009d8573d6000803e3d6000fd5b505050506040513d601f19601f82011682018060405250810190620009fe919062001e1b565b50600182015460009062000a1c906001600160a01b03168662000d71565b600284015490915060009062000a3c906001600160a01b03168762000d71565b6040805160028082526060820183529293506000929091602083019080368337019050509050828160008151811062000a795762000a7962001f21565b60200260200101906001600160a01b031690816001600160a01b031681525050818160018151811062000ab05762000ab062001f21565b6001600160a01b039283166020918202929092010152604051638bfc820f60e01b815290881690638bfc820f9062000aed90849060040162001f37565b600060405180830381600087803b15801562000b0857600080fd5b505af115801562000b1d573d6000803e3d6000fd5b50600092506001915062000b2e9050565b60405190808252806020026020018201604052801562000b6357816020015b606081526020019060019003908162000b4d5790505b509050604051806040016040528060098152602001684a6f696e537061636560b81b8152508160008151811062000b9e5762000b9e62001f21565b6020026020010181905250886080015160200151600001511562000bef5762000be8886040518060400160405280600681526020016526b4b73a32b960d11b815250838762000e2e565b5062000c27565b62000c25886040518060400160405280600681526020016526b4b73a32b960d11b815250838c6080015160200151888862000f55565b505b6000896080015160200151606001511562000c675760808a0151805151604082015160209092015162000c5f928c9291898962000f55565b905062000c86565b60808a015180515160409091015162000c83918b918862000e2e565b90505b62000c9789828c60a0015162001124565b8654604051632142170760e11b8152306004820152336024820152604481018890526001600160a01b03909116906342842e0e90606401600060405180830381600087803b15801562000ce957600080fd5b505af115801562000cfe573d6000803e3d6000fd5b50506040516001600160a01b038c16925088915033907fe50fc3942f8a2d7e5a7c8fb9488499eba5255b41e18bc3f1b4791402976d1d0b90600090a45050505050505050919050565b600080600062000d58858562001225565b9150915062000d688282620013c1565b95945050505050565b6000806040518060200162000d869062001546565b601f1982820381018352601f9091011660408190526001600160a01b0385166024820152859060440160408051601f19818403018152918152602080830180516001600160e01b031663189acdbd60e31b179052905162000dea9392910162001f86565b60408051601f198184030181529082905262000e0a929160200162001fac565b604051602081830303815290604052905062000e2681620013e7565b949350505050565b6040805160018082528183019092526000918291906020808301908036833701905050905060018160008151811062000e6b5762000e6b62001f21565b6001600160a01b039290921660209283029190910190910152604080516001808252818301909252600091816020015b60408051808201909152600081526060602082015281526020019060019003908162000e9b579050509050838160008151811062000edd5762000edd62001f21565b6020908102919091018101516001600160a01b0390921690915260405162000f089184910162001f37565b6040516020818303038152906040528160008151811062000f2d5762000f2d62001f21565b60200260200101516020018190525062000f4a878787846200140c565b979650505050505050565b6020830151516040840151516000918291811562000f7b5762000f788362001e35565b92505b801562000f905762000f8d8362001e35565b92505b6000836001600160401b0381111562000fad5762000fad62001624565b60405190808252806020026020018201604052801562000ff557816020015b60408051808201909152600081526060602082015281526020019060019003908162000fcc5790505b50905060008315620010b35760005b848110156200104157620010388a6020015182815181106200102a576200102a62001f21565b602002602001015162001487565b60010162001004565b506040518060400160405280896001600160a01b031681526020018a6020015160405160200162001073919062001f37565b60408051601f1981840301815291905290528282620010928162001e35565b935081518110620010a757620010a762001f21565b60200260200101819052505b821562001106576040805180820182526001600160a01b0389168152908a015160208201528282620010e58162001e35565b935081518110620010fa57620010fa62001f21565b60200260200101819052505b620011148c8c8c856200140c565b9c9b505050505050505050505050565b6040805160018082528183019092526000916020808301908036833701905050905082816000815181106200115d576200115d62001f21565b602090810291909101810191909152604051600160fd1b918101919091526bffffffffffffffffffffffff19606086901b166021820152600090603501604051602081830303815290604052620011b49062001fdf565b835160405163921f717560e01b81529192506001600160a01b0387169163921f717591620011ea91859190879060040162002004565b600060405180830381600087803b1580156200120557600080fd5b505af11580156200121a573d6000803e3d6000fd5b505050505050505050565b606060006200123d83600001516101000151620014af565b600060008051602062002dd783398151915254604080513360208201529081018790524260608201526001600160a01b03909116915060800160408051601f198184030181529190528051602090910120845160c0810151919350906001600160a01b0316620012ae573360c08201525b7f9e34afa7b4d27d347d25d9d9dab4f1a106fa081382e6c4243e834d093e787d06546040516001600160a01b0390911690620012ed6020820162001554565b601f19828203810183526040601f90920116818101825263dc9cc64560e01b8152306020828101829052835180850185526001600160a01b03891681529081018c90529251919285926200134a9233929091899060240162002065565b60408051601f19818403018152918152602080830180516001600160e01b03166320723eff60e11b17905290516200138694939291016200214b565b60408051601f1981840301815290829052620013a6929160200162001fac565b60405160208183030381529060405294505050509250929050565b60008260200183518381836000f592505050806200035c5763ef35ca196000526004601cfd5b600081602001825180826000f09250505080620004905763ef35ca196000526004601cfd5b604051638fcd793d60e01b81526000906001600160a01b03861690638fcd793d90620014419087908790879060040162002192565b6020604051808303816000875af115801562001461573d6000803e3d6000fd5b505050506040513d601f19601f8201168201806040525081019062000d68919062001e1b565b6001600160a01b03811662000540576040516302e47d1560e41b815260040160405180910390fd5b6001600160a01b0381161580620014ce5750620014cc81620014ed565b155b156200054057604051637e4248fd60e11b815260040160405180910390fd5b60007f6438323c68a77f029335e6433efb7c07e7cd1775df0c27e75bcd3591a8bc5d006200151c818462001523565b9392505050565b6001600160a01b038116600090815260018301602052604081205415156200151c565b6103d4806200228483390190565b61075f806200265883390190565b6001600160a01b03811681146200054057600080fd5b600080600080608085870312156200158f57600080fd5b84356200159c8162001562565b93506020850135620015ae8162001562565b92506040850135620015c08162001562565b91506060850135620015d28162001562565b939692955090935050565b600060208284031215620015f057600080fd5b5035919050565b8035620004908162001562565b6000602082840312156200161757600080fd5b81356200151c8162001562565b634e487b7160e01b600052604160045260246000fd5b604051608081016001600160401b03811182821017156200165f576200165f62001624565b60405290565b604051606081016001600160401b03811182821017156200165f576200165f62001624565b60405161012081016001600160401b03811182821017156200165f576200165f62001624565b604051602081016001600160401b03811182821017156200165f576200165f62001624565b60405160c081016001600160401b03811182821017156200165f576200165f62001624565b604051601f8201601f191681016001600160401b038111828210171562001725576200172562001624565b604052919050565b600082601f8301126200173f57600080fd5b81356001600160401b038111156200175b576200175b62001624565b62001770601f8201601f1916602001620016fa565b8181528460208386010111156200178657600080fd5b816020850160208301376000918101602001919091529392505050565b80356001600160401b03811681146200049057600080fd5b803580151581146200049057600080fd5b60006001600160401b03821115620017e857620017e862001624565b5060051b60200190565b6000608082840312156200180557600080fd5b6200180f6200163a565b90506200181c82620017bb565b81526020808301356001600160401b03808211156200183a57600080fd5b818501915085601f8301126200184f57600080fd5b8135620018666200186082620017cc565b620016fa565b81815260059190911b830184019084810190888311156200188657600080fd5b938501935b82851015620018b1578435620018a18162001562565b825293850193908501906200188b565b80868801525050506040850135925080831115620018ce57600080fd5b5050620018de848285016200172d565b604083015250620018f260608301620017bb565b606082015292915050565b600082601f8301126200190f57600080fd5b81356020620019226200186083620017cc565b82815260059290921b840181019181810190868411156200194257600080fd5b8286015b84811015620019865780356001600160401b03811115620019675760008081fd5b620019778986838b01016200172d565b84525091830191830162001946565b509695505050505050565b600060608284031215620019a457600080fd5b620019ae62001665565b905081356001600160401b0380821115620019c857600080fd5b908301906101208286031215620019de57600080fd5b620019e86200168a565b823582811115620019f857600080fd5b62001a06878286016200172d565b82525060208301358281111562001a1c57600080fd5b62001a2a878286016200172d565b602083015250604083013560408201526060830135606082015262001a5260808401620017a3565b608082015262001a6560a08401620015f7565b60a082015262001a7860c08401620015f7565b60c082015260e083013560e082015261010062001a97818501620015f7565b908201528352602084013591508082111562001ab257600080fd5b62001ac085838601620017f2565b6020840152604084013591508082111562001ada57600080fd5b5062001ae984828501620018fd565b60408301525092915050565b60006020828403121562001b0857600080fd5b62001b12620016b0565b905081356001600160401b0381111562001b2b57600080fd5b62001b39848285016200172d565b82525092915050565b60006020828403121562001b5557600080fd5b62001b5f620016b0565b9135825250919050565b60006020828403121562001b7c57600080fd5b81356001600160401b038082111562001b9457600080fd5b908301906080828603121562001ba957600080fd5b62001bb36200163a565b82358281111562001bc357600080fd5b83016080818803121562001bd657600080fd5b62001be06200163a565b81358481111562001bf057600080fd5b62001bfe898285016200172d565b82525060208201358481111562001c1457600080fd5b62001c22898285016200172d565b60208301525060408201358481111562001c3b57600080fd5b62001c49898285016200172d565b60408301525060608201358481111562001c6257600080fd5b62001c70898285016200172d565b60608301525082525060208301358281111562001c8c57600080fd5b62001c9a8782860162001991565b60208301525060408301358281111562001cb357600080fd5b62001cc18782860162001af5565b60408301525062001cd6866060850162001b42565b606082015295945050505050565b60006020828403121562001cf757600080fd5b81356001600160401b038082111562001d0f57600080fd5b9083019060c0828603121562001d2457600080fd5b62001d2e620016d5565b82358281111562001d3e57600080fd5b62001d4c878286016200172d565b82525060208301358281111562001d6257600080fd5b62001d70878286016200172d565b60208301525060408301358281111562001d8957600080fd5b62001d97878286016200172d565b60408301525060608301358281111562001db057600080fd5b62001dbe878286016200172d565b60608301525060808301358281111562001dd757600080fd5b62001de58782860162001991565b60808301525060a08301358281111562001dfe57600080fd5b62001e0c8782860162001af5565b60a08301525095945050505050565b60006020828403121562001e2e57600080fd5b5051919050565b60006001820162001e5657634e487b7160e01b600052601160045260246000fd5b5060010190565b60005b8381101562001e7a57818101518382015260200162001e60565b50506000910152565b6000815180845262001e9d81602086016020860162001e5d565b601f01601f19169290920160200192915050565b60a08152600062001ec660a083018862001e83565b828103602084015262001eda818862001e83565b6001600160a01b03871660408501528381036060850152905062001eff818662001e83565b9050828103608084015262001f15818562001e83565b98975050505050505050565b634e487b7160e01b600052603260045260246000fd5b6020808252825182820181905260009190848201906040850190845b8181101562001f7a5783516001600160a01b03168352928401929184019160010162001f53565b50909695505050505050565b6001600160a01b038316815260406020820181905260009062000e269083018462001e83565b6000835162001fc081846020880162001e5d565b83519083019062001fd681836020880162001e5d565b01949350505050565b80516020808301519190811015620007e85760001960209190910360031b1b16919050565b838152600060206060602084015262002021606084018662001e83565b83810360408501528451808252602080870192019060005b81811015620020575783518352928401929184019160010162002039565b509098975050505050505050565b600060018060a01b0380871683528086166020840152808551166040840152506020840151606083015260a0608083015282516101208060a0850152620020b16101c085018362001e83565b91506020850151609f198584030160c0860152620020d0838262001e83565b925050604085015160e0850152606085015161010081818701526080870151915062002106838701836001600160401b03169052565b60a08701516001600160a01b0390811661014088015260c0880151811661016088015260e0880151610180880152908701519081166101a08701529150620019869050565b83516001600160e01b03191681526020808501516001600160a01b03908116918301919091528316604082015260806060820181905260009062000d689083018462001e83565b606081526000620021a7606083018662001e83565b6020838203818501528186518084528284019150828160051b85010183890160005b83811015620021fb57601f19878403018552620021e883835162001e83565b94860194925090850190600101620021c9565b5050604094508681036040880152809250875191508181528381019250838260051b82010184890160005b848110156200227257838303601f19018652815180516001600160a01b031684528701518784018990526200225e8985018262001e83565b968801969350509086019060010162002226565b50909b9a505050505050505050505056fe60806040526040516103d43803806103d483398101604081905261002291610268565b61002c8282610033565b5050610352565b61003c82610092565b6040516001600160a01b038316907fbc7cd75a20ee27fd9adebab32041f755214dbc6bffa90cc0225b39da2e5c2d3b90600090a280511561008657610081828261010e565b505050565b61008e610185565b5050565b806001600160a01b03163b6000036100cd57604051634c9c8ce360e01b81526001600160a01b03821660048201526024015b60405180910390fd5b7f360894a13ba1a3210667c828492db98dca3e2076cc3735a920a3ca505d382bbc80546001600160a01b0319166001600160a01b0392909216919091179055565b6060600080846001600160a01b03168460405161012b9190610336565b600060405180830381855af49150503d8060008114610166576040519150601f19603f3d011682016040523d82523d6000602084013e61016b565b606091505b50909250905061017c8583836101a6565b95945050505050565b34156101a45760405163b398979f60e01b815260040160405180910390fd5b565b6060826101bb576101b682610205565b6101fe565b81511580156101d257506001600160a01b0384163b155b156101fb57604051639996b31560e01b81526001600160a01b03851660048201526024016100c4565b50805b9392505050565b8051156102155780518082602001fd5b604051630a12f52160e11b815260040160405180910390fd5b634e487b7160e01b600052604160045260246000fd5b60005b8381101561025f578181015183820152602001610247565b50506000910152565b6000806040838503121561027b57600080fd5b82516001600160a01b038116811461029257600080fd5b60208401519092506001600160401b03808211156102af57600080fd5b818501915085601f8301126102c357600080fd5b8151818111156102d5576102d561022e565b604051601f8201601f19908116603f011681019083821181831017156102fd576102fd61022e565b8160405282815288602084870101111561031657600080fd5b610327836020830160208801610244565b80955050505050509250929050565b60008251610348818460208701610244565b9190910192915050565b6074806103606000396000f3fe6080604052600a600c565b005b60186014601a565b6051565b565b6000604c7f360894a13ba1a3210667c828492db98dca3e2076cc3735a920a3ca505d382bbc546001600160a01b031690565b905090565b3660008037600080366000845af43d6000803e808015606f573d6000f35b3d6000fd608060405234801561001057600080fd5b5060405161075f38038061075f83398101604081905261002f91610259565b6100958380517f9c16cba5b9f2fcbd952b38bec34079e93cbe107475c15fc20705f4e704198a0080546020909301516001600160a01b03166001600160a01b031960e09390931c600160a01b02929092166001600160c01b031990931692909217179055565b61009f82826100a8565b50505050610366565b6060600080846001600160a01b0316846040516100c5919061034a565b600060405180830381855af49150503d8060008114610100576040519150601f19603f3d011682016040523d82523d6000602084013e610105565b606091505b50909250905061011685838361011f565b95945050505050565b6060826101345761012f82610182565b61017b565b815115801561014b57506001600160a01b0384163b155b1561017857604051639996b31560e01b81526001600160a01b038516600482015260240160405180910390fd5b50805b9392505050565b8051156101925780518082602001fd5b604051630a12f52160e11b815260040160405180910390fd5b634e487b7160e01b600052604160045260246000fd5b604080519081016001600160401b03811182821017156101e3576101e36101ab565b60405290565b604051601f8201601f191681016001600160401b0381118282101715610211576102116101ab565b604052919050565b80516001600160a01b038116811461023057600080fd5b919050565b60005b83811015610250578181015183820152602001610238565b50506000910152565b6000806000838503608081121561026f57600080fd5b604081121561027d57600080fd5b506102866101c1565b84516001600160e01b03198116811461029e57600080fd5b815260206102ad868201610219565b818301528194506102c060408701610219565b606087015190945091506001600160401b03808311156102df57600080fd5b828701925087601f8401126102f357600080fd5b825181811115610305576103056101ab565b610317601f8201601f191684016101e9565b9150808252888382860101111561032d57600080fd5b61033c81848401858701610235565b508093505050509250925092565b6000825161035c818460208701610235565b9190910192915050565b6103ea806103756000396000f3fe6080604052600436106100225760003560e01c8063ac9650d81461003357610029565b3661002957005b610031610069565b005b34801561003f57600080fd5b5061005361004e36600461028b565b6100c4565b6040516100609190610324565b60405180910390f35b6000610073610145565b9050806001600160a01b03163b6000036100a0576040516321f27f0d60e21b815260040160405180910390fd5b3660008037600080366000845af43d6000803e8080156100bf573d6000f35b3d6000fd5b6060602060005281602052816100da5760406000f35b60408260051b8085604037818101905b82518601604082018135602083018237600038833583305af4610111573d6000803e3d6000fd5b8285526020850194503d81523d6000602083013e50503d01603f0167ffffffffffffffe0168183106100ea57604081016000f35b7f9c16cba5b9f2fcbd952b38bec34079e93cbe107475c15fc20705f4e704198a0054600090600160a01b900460e01b81806101a77f9c16cba5b9f2fcbd952b38bec34079e93cbe107475c15fc20705f4e704198a00546001600160a01b031690565b6040516001600160e01b03196000351660248201526001600160a01b039190911690849060440160408051601f198184030181529181526020820180516001600160e01b03166001600160e01b031990941693909317909252905161020c919061039e565b600060405180830381855afa9150503d8060008114610247576040519150601f19603f3d011682016040523d82523d6000602084013e61024c565b606091505b50915091508161026f5760405163391aa44560e01b815260040160405180910390fd5b8080602001905181019061028391906103ba565b935050505090565b6000806020838503121561029e57600080fd5b823567ffffffffffffffff808211156102b657600080fd5b818501915085601f8301126102ca57600080fd5b8135818111156102d957600080fd5b8660208260051b85010111156102ee57600080fd5b60209290920196919550909350505050565b60005b8381101561031b578181015183820152602001610303565b50506000910152565b6000602080830181845280855180835260408601915060408160051b870101925083870160005b8281101561039157878503603f1901845281518051808752610372818989018a8501610300565b601f01601f19169590950186019450928501929085019060010161034b565b5092979650505050505050565b600082516103b0818460208701610300565b9190910192915050565b6000602082840312156103cc57600080fd5b81516001600160a01b03811681146103e357600080fd5b93925050505654f22f54f370bd020e00ee80e1a5099a71652e2ccbcf6a75281e4c70a3e11a009e34afa7b4d27d347d25d9d9dab4f1a106fa081382e6c4243e834d093e787d00","linkReferences":{}},"methodIdentifiers":{"__Architect_init(address,address,address,address)":"1a424b66","createSpace((string,string,string,string,((string,string,uint256,uint256,uint64,address,address,uint256,address),(bool,address[],bytes,bool),string[]),(string)))":"f822028d","createSpaceWithPrepay(((string,string,string,string),((string,string,uint256,uint256,uint64,address,address,uint256,address),(bool,address[],bytes,bool),string[]),(string),(uint256)))":"cd55d94c","getProxyInitializer()":"6bd837f4","getSpaceArchitectImplementations()":"545efb2d","getSpaceByTokenId(uint256)":"673f0dd5","getTokenIdBySpace(address)":"c0bc6796","setProxyInitializer(address)":"e6907c9d","setSpaceArchitectImplementations(address,address,address,address)":"cd7242b8"},"id":190}