{"abi":[{"type":"function","name":"__Architect_init","inputs":[{"name":"ownerImplementation","type":"address","internalType":"contract ISpaceOwner"},{"name":"userEntitlementImplementation","type":"address","internalType":"contract IUserEntitlement"},{"name":"ruleEntitlementImplementation","type":"address","internalType":"contract IRuleEntitlementV2"},{"name":"legacyRuleEntitlement","type":"address","internalType":"contract IRuleEntitlement"}],"outputs":[],"stateMutability":"nonpayable"},{"type":"function","name":"createSpace","inputs":[{"name":"spaceInfo","type":"tuple","internalType":"struct IArchitectBase.SpaceInfo","components":[{"name":"name","type":"string","internalType":"string"},{"name":"uri","type":"string","internalType":"string"},{"name":"membership","type":"tuple","internalType":"struct IArchitectBase.Membership","components":[{"name":"settings","type":"tuple","internalType":"struct IMembershipBase.Membership","components":[{"name":"name","type":"string","internalType":"string"},{"name":"symbol","type":"string","internalType":"string"},{"name":"price","type":"uint256","internalType":"uint256"},{"name":"maxSupply","type":"uint256","internalType":"uint256"},{"name":"duration","type":"uint64","internalType":"uint64"},{"name":"currency","type":"address","internalType":"address"},{"name":"feeRecipient","type":"address","internalType":"address"},{"name":"freeAllocation","type":"uint256","internalType":"uint256"},{"name":"pricingModule","type":"address","internalType":"address"}]},{"name":"requirements","type":"tuple","internalType":"struct IArchitectBase.MembershipRequirements","components":[{"name":"everyone","type":"bool","internalType":"bool"},{"name":"users","type":"address[]","internalType":"address[]"},{"name":"ruleData","type":"bytes","internalType":"bytes"}]},{"name":"permissions","type":"string[]","internalType":"string[]"}]},{"name":"channel","type":"tuple","internalType":"struct IArchitectBase.ChannelInfo","components":[{"name":"metadata","type":"string","internalType":"string"}]},{"name":"shortDescription","type":"string","internalType":"string"},{"name":"longDescription","type":"string","internalType":"string"}]}],"outputs":[{"name":"","type":"address","internalType":"address"}],"stateMutability":"nonpayable"},{"type":"function","name":"createSpaceWithPrepay","inputs":[{"name":"spaceInfo","type":"tuple","internalType":"struct IArchitectBase.CreateSpace","components":[{"name":"metadata","type":"tuple","internalType":"struct IArchitectBase.Metadata","components":[{"name":"name","type":"string","internalType":"string"},{"name":"uri","type":"string","internalType":"string"},{"name":"shortDescription","type":"string","internalType":"string"},{"name":"longDescription","type":"string","internalType":"string"}]},{"name":"membership","type":"tuple","internalType":"struct IArchitectBase.Membership","components":[{"name":"settings","type":"tuple","internalType":"struct IMembershipBase.Membership","components":[{"name":"name","type":"string","internalType":"string"},{"name":"symbol","type":"string","internalType":"string"},{"name":"price","type":"uint256","internalType":"uint256"},{"name":"maxSupply","type":"uint256","internalType":"uint256"},{"name":"duration","type":"uint64","internalType":"uint64"},{"name":"currency","type":"address","internalType":"address"},{"name":"feeRecipient","type":"address","internalType":"address"},{"name":"freeAllocation","type":"uint256","internalType":"uint256"},{"name":"pricingModule","type":"address","internalType":"address"}]},{"name":"requirements","type":"tuple","internalType":"struct IArchitectBase.MembershipRequirements","components":[{"name":"everyone","type":"bool","internalType":"bool"},{"name":"users","type":"address[]","internalType":"address[]"},{"name":"ruleData","type":"bytes","internalType":"bytes"}]},{"name":"permissions","type":"string[]","internalType":"string[]"}]},{"name":"channel","type":"tuple","internalType":"struct IArchitectBase.ChannelInfo","components":[{"name":"metadata","type":"string","internalType":"string"}]},{"name":"prepay","type":"tuple","internalType":"struct IArchitectBase.Prepay","components":[{"name":"supply","type":"uint256","internalType":"uint256"}]}]}],"outputs":[{"name":"","type":"address","internalType":"address"}],"stateMutability":"payable"},{"type":"function","name":"getProxyInitializer","inputs":[],"outputs":[{"name":"","type":"address","internalType":"contract ISpaceProxyInitializer"}],"stateMutability":"view"},{"type":"function","name":"getSpaceArchitectImplementations","inputs":[],"outputs":[{"name":"spaceToken","type":"address","internalType":"contract ISpaceOwner"},{"name":"userEntitlementImplementation","type":"address","internalType":"contract IUserEntitlement"},{"name":"ruleEntitlementImplementation","type":"address","internalType":"contract IRuleEntitlementV2"},{"name":"legacyRuleEntitlement","type":"address","internalType":"contract IRuleEntitlement"}],"stateMutability":"view"},{"type":"function","name":"getSpaceByTokenId","inputs":[{"name":"tokenId","type":"uint256","internalType":"uint256"}],"outputs":[{"name":"","type":"address","internalType":"address"}],"stateMutability":"view"},{"type":"function","name":"getTokenIdBySpace","inputs":[{"name":"space","type":"address","internalType":"address"}],"outputs":[{"name":"","type":"uint256","internalType":"uint256"}],"stateMutability":"view"},{"type":"function","name":"setProxyInitializer","inputs":[{"name":"proxyInitializer","type":"address","internalType":"contract ISpaceProxyInitializer"}],"outputs":[],"stateMutability":"nonpayable"},{"type":"function","name":"setSpaceArchitectImplementations","inputs":[{"name":"spaceToken","type":"address","internalType":"contract ISpaceOwner"},{"name":"userEntitlementImplementation","type":"address","internalType":"contract IUserEntitlement"},{"name":"ruleEntitlementImplementation","type":"address","internalType":"contract IRuleEntitlementV2"},{"name":"legacyRuleEntitlement","type":"address","internalType":"contract IRuleEntitlement"}],"outputs":[],"stateMutability":"nonpayable"},{"type":"event","name":"Architect__ProxyInitializerSet","inputs":[{"name":"proxyInitializer","type":"address","indexed":true,"internalType":"address"}],"anonymous":false},{"type":"event","name":"Initialized","inputs":[{"name":"version","type":"uint32","indexed":false,"internalType":"uint32"}],"anonymous":false},{"type":"event","name":"InterfaceAdded","inputs":[{"name":"interfaceId","type":"bytes4","indexed":true,"internalType":"bytes4"}],"anonymous":false},{"type":"event","name":"InterfaceRemoved","inputs":[{"name":"interfaceId","type":"bytes4","indexed":true,"internalType":"bytes4"}],"anonymous":false},{"type":"event","name":"OwnershipTransferred","inputs":[{"name":"previousOwner","type":"address","indexed":true,"internalType":"address"},{"name":"newOwner","type":"address","indexed":true,"internalType":"address"}],"anonymous":false},{"type":"event","name":"Paused","inputs":[{"name":"account","type":"address","indexed":false,"internalType":"address"}],"anonymous":false},{"type":"event","name":"PricingModuleAdded","inputs":[{"name":"module","type":"address","indexed":true,"internalType":"address"}],"anonymous":false},{"type":"event","name":"PricingModuleRemoved","inputs":[{"name":"module","type":"address","indexed":true,"internalType":"address"}],"anonymous":false},{"type":"event","name":"PricingModuleUpdated","inputs":[{"name":"module","type":"address","indexed":true,"internalType":"address"}],"anonymous":false},{"type":"event","name":"SpaceCreated","inputs":[{"name":"owner","type":"address","indexed":true,"internalType":"address"},{"name":"tokenId","type":"uint256","indexed":true,"internalType":"uint256"},{"name":"space","type":"address","indexed":true,"internalType":"address"}],"anonymous":false},{"type":"event","name":"Unpaused","inputs":[{"name":"account","type":"address","indexed":false,"internalType":"address"}],"anonymous":false},{"type":"error","name":"Architect__InvalidAddress","inputs":[]},{"type":"error","name":"Architect__InvalidNetworkId","inputs":[]},{"type":"error","name":"Architect__InvalidPricingModule","inputs":[]},{"type":"error","name":"Architect__InvalidStringLength","inputs":[]},{"type":"error","name":"Architect__NotContract","inputs":[]},{"type":"error","name":"Factory__FailedDeployment","inputs":[]},{"type":"error","name":"Initializable_InInitializingState","inputs":[]},{"type":"error","name":"Initializable_NotInInitializingState","inputs":[]},{"type":"error","name":"Introspection_AlreadySupported","inputs":[]},{"type":"error","name":"Introspection_NotSupported","inputs":[]},{"type":"error","name":"InvalidPricingModule","inputs":[{"name":"module","type":"address","internalType":"address"}]},{"type":"error","name":"Ownable__NotOwner","inputs":[{"name":"account","type":"address","internalType":"address"}]},{"type":"error","name":"Ownable__ZeroAddress","inputs":[]},{"type":"error","name":"Pausable__NotPaused","inputs":[]},{"type":"error","name":"Pausable__Paused","inputs":[]},{"type":"error","name":"ReentrancyGuard__ReentrantCall","inputs":[]},{"type":"error","name":"Validator__InvalidAddress","inputs":[]}],"bytecode":{"object":"0x608060405234801561001057600080fd5b5061001961001e565b6100c4565b7f59b501c3653afc186af7d48dda36cf6732bd21629a6295693664240a6ef520008054640100000000900460ff161561006a576040516366008a2d60e01b815260040160405180910390fd5b805463ffffffff90811610156100c157805463ffffffff191663ffffffff90811782556040519081527fe9c9b456cb2994b80aeef036cf59d26e9617df80f816a6ee5a5b4166e07e2f5c9060200160405180910390a15b50565b612eed80620000d46000396000f3fe608060405260043610620000915760003560e01c80636bd837f411620000605780636bd837f41462000170578063c07ed8961462000188578063c0bc6796146200019f578063cd7242b814620001d3578063e6907c9d14620001f857600080fd5b80631a424b661462000096578063545efb2d14620000bd57806354b93de5146200010d578063673f0dd5146200014b575b600080fd5b348015620000a357600080fd5b50620000bb620000b536600462001673565b6200021d565b005b348015620000ca57600080fd5b50620000d56200027c565b604080516001600160a01b03958616815293851660208501529184169183019190915290911660608201526080015b60405180910390f35b3480156200011a57600080fd5b50620001326200012c36600462001bd9565b62000324565b6040516001600160a01b03909116815260200162000104565b3480156200015857600080fd5b50620001326200016a36600462001d10565b620003e0565b3480156200017d57600080fd5b50620001326200041e565b620001326200019936600462001d51565b62000457565b348015620001ac57600080fd5b50620001c4620001be36600462001ecc565b620004f3565b60405190815260200162000104565b348015620001e057600080fd5b50620000bb620001f236600462001673565b62000531565b3480156200020557600080fd5b50620000bb6200021736600462001ecc565b62000583565b7f59b501c3653afc186af7d48dda36cf6732bd21629a6295693664240a6ef5200054640100000000900460ff166200026857604051630ef4733760e31b815260040160405180910390fd5b6200027684848484620005df565b50505050565b6000806000806200031660008051602062002ecd833981519152547f9e34afa7b4d27d347d25d9d9dab4f1a106fa081382e6c4243e834d093e787d01547f9e34afa7b4d27d347d25d9d9dab4f1a106fa081382e6c4243e834d093e787d02547f9e34afa7b4d27d347d25d9d9dab4f1a106fa081382e6c4243e834d093e787d05546001600160a01b03938416949284169391821692911690565b935093509350935090919293565b6000600260008051602062002ead83398151915254036200035857604051635db5c7cd60e11b815260040160405180910390fd5b62000371600260008051602062002ead83398151915255565b7fe17a067c7963a59b6dfd65d33b053fdbea1c56500e2aae4f976d9eda4da9eb005460ff1615620003b5576040516302ca8ced60e11b815260040160405180910390fd5b620003c0826200071e565b9050620003db600160008051602062002ead83398151915255565b919050565b60008181527f06bd04a817647c31ee485c8a0baab96facd62dbfd4b475796bb17ca2c12f000260205260408120546001600160a01b03165b92915050565b6000620004527f9e34afa7b4d27d347d25d9d9dab4f1a106fa081382e6c4243e834d093e787d06546001600160a01b031690565b905090565b6000600260008051602062002ead83398151915254036200048b57604051635db5c7cd60e11b815260040160405180910390fd5b620004a4600260008051602062002ead83398151915255565b7fe17a067c7963a59b6dfd65d33b053fdbea1c56500e2aae4f976d9eda4da9eb005460ff1615620004e8576040516302ca8ced60e11b815260040160405180910390fd5b620003c08262000acd565b6001600160a01b03811660009081527f06bd04a817647c31ee485c8a0baab96facd62dbfd4b475796bb17ca2c12f0001602052604081205462000418565b7f4675fa8241f86f37157864d3d49b85ad4b164352c516da28e1678a90470ae300546001600160a01b0316331462000268576040516365f4906560e01b81523360048201526024015b60405180910390fd5b7f4675fa8241f86f37157864d3d49b85ad4b164352c516da28e1678a90470ae300546001600160a01b03163314620005d1576040516365f4906560e01b81523360048201526024016200057a565b620005dc8162000ba1565b50565b836001600160a01b03163b6000036200060b576040516302f3d00b60e01b815260040160405180910390fd5b826001600160a01b03163b60000362000637576040516302f3d00b60e01b815260040160405180910390fd5b816001600160a01b03163b60000362000663576040516302f3d00b60e01b815260040160405180910390fd5b60008051602062002ecd83398151915280546001600160a01b03199081166001600160a01b03968716179091557f9e34afa7b4d27d347d25d9d9dab4f1a106fa081382e6c4243e834d093e787d0180548216948616949094179093557f9e34afa7b4d27d347d25d9d9dab4f1a106fa081382e6c4243e834d093e787d0280548416928516929092179091557f9e34afa7b4d27d347d25d9d9dab4f1a106fa081382e6c4243e834d093e787d0580549092169216919091179055565b60008051602062002ecd833981519152805460408051631d5e528f60e21b815290516000937f06bd04a817647c31ee485c8a0baab96facd62dbfd4b475796bb17ca2c12f000093909285926001600160a01b03909216916375794a3c916004808201926020929091908290030181865afa158015620007a1573d6000803e3d6000fd5b505050506040513d601f19601f82011682018060405250810190620007c7919062001eec565b9050620007d981866040015162000c1d565b8354909450836000620007ec8362001f06565b90915550506000818152600284016020908152604080832080546001600160a01b0319166001600160a01b03898116918217909255845260018701835292819020849055845488519289015160808a015160a08b01519351630efd6e3d60e21b81529290951694633bf5b8f4946200086d9490938b92919060040162001f82565b6020604051808303816000875af11580156200088d573d6000803e3d6000fd5b505050506040513d601f19601f82011682018060405250810190620008b3919062001eec565b506001820154600090620008d1906001600160a01b03168662000c47565b6002840154909150600090620008f1906001600160a01b03168762000c47565b604080516002808252606082018352929350600092909160208301908036833701905050905082816000815181106200092e576200092e62001ff2565b60200260200101906001600160a01b031690816001600160a01b031681525050818160018151811062000965576200096562001ff2565b6001600160a01b039283166020918202929092010152604051638bfc820f60e01b815290881690638bfc820f90620009a290849060040162002008565b600060405180830381600087803b158015620009bd57600080fd5b505af1158015620009d2573d6000803e3d6000fd5b50505050620009ec8784848b604001516020015162000d04565b5060408089015180515191015160009162000a0b918a9190876200110a565b905062000a1e88828b606001516200129a565b8554604051632142170760e11b8152306004820152336024820152604481018790526001600160a01b03909116906342842e0e90606401600060405180830381600087803b15801562000a7057600080fd5b505af115801562000a85573d6000803e3d6000fd5b50506040516001600160a01b038b16925087915033907fe50fc3942f8a2d7e5a7c8fb9488499eba5255b41e18bc3f1b4791402976d1d0b90600090a450505050505050919050565b6040805160c08101825282515181528251602090810151818301528301518183015282820151606080830191909152835190920151608082015282519091015160a082015260009062000b20816200071e565b6060840151519092501562000b9b576060830151516040516306499d7f60e01b81526001600160a01b038416916306499d7f91349162000b669160040190815260200190565b6000604051808303818588803b15801562000b8057600080fd5b505af115801562000b95573d6000803e3d6000fd5b50505050505b50919050565b7f9e34afa7b4d27d347d25d9d9dab4f1a106fa081382e6c4243e834d093e787d0680546001600160a01b0319166001600160a01b03831690811790915560405160008051602062002ecd83398151915291907f50d234a64b07fd5931eedf717c2eca7f76ef13920a1330cc774176dbf9c66b3e90600090a25050565b600080600062000c2e85856200139b565b9150915062000c3e828262001537565b95945050505050565b6000806040518060200162000c5c9062001641565b601f1982820381018352601f9091011660408190526001600160a01b0385166024820152859060440160408051601f19818403018152918152602080830180516001600160e01b031663189acdbd60e31b179052905162000cc09392910162002057565b60408051601f198184030181529082905262000ce092916020016200207d565b604051602081830303815290604052905062000cfc816200155d565b949350505050565b604080516001808252818301909252600091829190816020015b606081526020019060019003908162000d1e579050509050604051806040016040528060098152602001684a6f696e537061636560b81b8152508160008151811062000d6e5762000d6e62001ff2565b6020026020010181905250856001600160a01b0316638fcd793d6040518060400160405280600681526020016526b4b73a32b960d11b8152508360006001600160401b0381111562000dc45762000dc4620016d8565b60405190808252806020026020018201604052801562000e0c57816020015b60408051808201909152600081526060602082015281526020019060019003908162000de35790505b506040518463ffffffff1660e01b815260040162000e2d93929190620020d9565b6020604051808303816000875af115801562000e4d573d6000803e3d6000fd5b505050506040513d601f19601f8201168201806040525081019062000e73919062001eec565b83519092501562000f81576040805160018082528183019092526000916020808301908036833701905050905060018160008151811062000eb85762000eb862001ff2565b60200260200101906001600160a01b031690816001600160a01b031681525050866001600160a01b031663ba201ba88460405180604001604052808a6001600160a01b031681526020018560405160200162000f15919062002008565b6040516020818303038152906040528152506040518363ffffffff1660e01b815260040162000f46929190620021ab565b600060405180830381600087803b15801562000f6157600080fd5b505af115801562000f76573d6000803e3d6000fd5b505050505062001101565b602083015151156200107a5760005b83602001515181101562000fd25762000fc98460200151828151811062000fbb5762000fbb62001ff2565b602002602001015162001582565b60010162000f90565b50856001600160a01b031663ba201ba8836040518060400160405280896001600160a01b03168152602001876020015160405160200162001014919062002008565b6040516020818303038152906040528152506040518363ffffffff1660e01b815260040162001045929190620021ab565b600060405180830381600087803b1580156200106057600080fd5b505af115801562001075573d6000803e3d6000fd5b505050505b6040830151511562001101576040805180820182526001600160a01b0386811682528583015160208301529151631744037560e31b81529188169163ba201ba891620010cc91869190600401620021ab565b600060405180830381600087803b158015620010e757600080fd5b505af1158015620010fc573d6000803e3d6000fd5b505050505b50949350505050565b6040805160018082528183019092526000918291906020808301908036833701905050905060018160008151811062001147576200114762001ff2565b6001600160a01b039290921660209283029190910190910152604080516001808252818301909252600091816020015b604080518082019091526000815260606020820152815260200190600190039081620011775790505090508381600081518110620011b957620011b962001ff2565b6020908102919091018101516001600160a01b03909216909152604051620011e49184910162002008565b6040516020818303038152906040528160008151811062001209576200120962001ff2565b6020908102919091018101510152604051638fcd793d60e01b81526001600160a01b03881690638fcd793d906200124990899089908690600401620020d9565b6020604051808303816000875af115801562001269573d6000803e3d6000fd5b505050506040513d601f19601f820116820180604052508101906200128f919062001eec565b979650505050505050565b604080516001808252818301909252600091602080830190803683370190505090508281600081518110620012d357620012d362001ff2565b602090810291909101810191909152604051600160fd1b918101919091526bffffffffffffffffffffffff19606086901b1660218201526000906035016040516020818303038152906040526200132a90620021c6565b835160405163921f717560e01b81529192506001600160a01b0387169163921f71759162001360918591908790600401620021eb565b600060405180830381600087803b1580156200137b57600080fd5b505af115801562001390573d6000803e3d6000fd5b505050505050505050565b60606000620013b383600001516101000151620015aa565b600060008051602062002ecd83398151915254604080513360208201529081018790524260608201526001600160a01b03909116915060800160408051601f198184030181529190528051602090910120845160c0810151919350906001600160a01b031662001424573360c08201525b7f9e34afa7b4d27d347d25d9d9dab4f1a106fa081382e6c4243e834d093e787d06546040516001600160a01b039091169062001463602082016200164f565b601f19828203810183526040601f90920116818101825263dc9cc64560e01b8152306020828101829052835180850185526001600160a01b03891681529081018c9052925191928592620014c0923392909189906024016200224c565b60408051601f19818403018152918152602080830180516001600160e01b03166320723eff60e11b1790529051620014fc949392910162002332565b60408051601f19818403018152908290526200151c92916020016200207d565b60405160208183030381529060405294505050509250929050565b60008260200183518381836000f59250505080620004185763ef35ca196000526004601cfd5b600081602001825180826000f09250505080620003db5763ef35ca196000526004601cfd5b6001600160a01b038116620005dc576040516302e47d1560e41b815260040160405180910390fd5b6001600160a01b0381161580620015c95750620015c781620015e8565b155b15620005dc57604051637e4248fd60e11b815260040160405180910390fd5b60007f6438323c68a77f029335e6433efb7c07e7cd1775df0c27e75bcd3591a8bc5d006200161781846200161e565b9392505050565b6001600160a01b0381166000908152600183016020526040812054151562001617565b6103d4806200237a83390190565b61075f806200274e83390190565b6001600160a01b0381168114620005dc57600080fd5b600080600080608085870312156200168a57600080fd5b843562001697816200165d565b93506020850135620016a9816200165d565b92506040850135620016bb816200165d565b91506060850135620016cd816200165d565b939692955090935050565b634e487b7160e01b600052604160045260246000fd5b604051606081016001600160401b0381118282101715620017135762001713620016d8565b60405290565b60405161012081016001600160401b0381118282101715620017135762001713620016d8565b604051602081016001600160401b0381118282101715620017135762001713620016d8565b60405160c081016001600160401b0381118282101715620017135762001713620016d8565b604051608081016001600160401b0381118282101715620017135762001713620016d8565b604051601f8201601f191681016001600160401b0381118282101715620017d957620017d9620016d8565b604052919050565b600082601f830112620017f357600080fd5b81356001600160401b038111156200180f576200180f620016d8565b62001824601f8201601f1916602001620017ae565b8181528460208386010111156200183a57600080fd5b816020850160208301376000918101602001919091529392505050565b80356001600160401b0381168114620003db57600080fd5b8035620003db816200165d565b60006001600160401b03821115620018985762001898620016d8565b5060051b60200190565b600060608284031215620018b557600080fd5b620018bf620016ee565b905081358015158114620018d257600080fd5b81526020828101356001600160401b0380821115620018f057600080fd5b818501915085601f8301126200190557600080fd5b81356200191c62001916826200187c565b620017ae565b81815260059190911b830184019084810190888311156200193c57600080fd5b938501935b828510156200196757843562001957816200165d565b8252938501939085019062001941565b808688015250505060408501359250808311156200198457600080fd5b50506200199484828501620017e1565b60408301525092915050565b600082601f830112620019b257600080fd5b81356020620019c562001916836200187c565b82815260059290921b84018101918181019086841115620019e557600080fd5b8286015b8481101562001a295780356001600160401b0381111562001a0a5760008081fd5b62001a1a8986838b0101620017e1565b845250918301918301620019e9565b509695505050505050565b60006060828403121562001a4757600080fd5b62001a51620016ee565b905081356001600160401b038082111562001a6b57600080fd5b90830190610120828603121562001a8157600080fd5b62001a8b62001719565b82358281111562001a9b57600080fd5b62001aa987828601620017e1565b82525060208301358281111562001abf57600080fd5b62001acd87828601620017e1565b602083015250604083013560408201526060830135606082015262001af56080840162001857565b608082015262001b0860a084016200186f565b60a082015262001b1b60c084016200186f565b60c082015260e083013560e082015261010062001b3a8185016200186f565b908201528352602084013591508082111562001b5557600080fd5b62001b6385838601620018a2565b6020840152604084013591508082111562001b7d57600080fd5b506200199484828501620019a0565b60006020828403121562001b9f57600080fd5b62001ba96200173f565b905081356001600160401b0381111562001bc257600080fd5b62001bd084828501620017e1565b82525092915050565b60006020828403121562001bec57600080fd5b81356001600160401b038082111562001c0457600080fd5b9083019060c0828603121562001c1957600080fd5b62001c2362001764565b82358281111562001c3357600080fd5b62001c4187828601620017e1565b82525060208301358281111562001c5757600080fd5b62001c6587828601620017e1565b60208301525060408301358281111562001c7e57600080fd5b62001c8c8782860162001a34565b60408301525060608301358281111562001ca557600080fd5b62001cb38782860162001b8c565b60608301525060808301358281111562001ccc57600080fd5b62001cda87828601620017e1565b60808301525060a08301358281111562001cf357600080fd5b62001d0187828601620017e1565b60a08301525095945050505050565b60006020828403121562001d2357600080fd5b5035919050565b60006020828403121562001d3d57600080fd5b62001d476200173f565b9135825250919050565b60006020828403121562001d6457600080fd5b81356001600160401b038082111562001d7c57600080fd5b908301906080828603121562001d9157600080fd5b62001d9b62001789565b82358281111562001dab57600080fd5b83016080818803121562001dbe57600080fd5b62001dc862001789565b81358481111562001dd857600080fd5b62001de689828501620017e1565b82525060208201358481111562001dfc57600080fd5b62001e0a89828501620017e1565b60208301525060408201358481111562001e2357600080fd5b62001e3189828501620017e1565b60408301525060608201358481111562001e4a57600080fd5b62001e5889828501620017e1565b60608301525082525060208301358281111562001e7457600080fd5b62001e828782860162001a34565b60208301525060408301358281111562001e9b57600080fd5b62001ea98782860162001b8c565b60408301525062001ebe866060850162001d2a565b606082015295945050505050565b60006020828403121562001edf57600080fd5b813562001617816200165d565b60006020828403121562001eff57600080fd5b5051919050565b60006001820162001f2757634e487b7160e01b600052601160045260246000fd5b5060010190565b60005b8381101562001f4b57818101518382015260200162001f31565b50506000910152565b6000815180845262001f6e81602086016020860162001f2e565b601f01601f19169290920160200192915050565b60a08152600062001f9760a083018862001f54565b828103602084015262001fab818862001f54565b6001600160a01b03871660408501528381036060850152905062001fd0818662001f54565b9050828103608084015262001fe6818562001f54565b98975050505050505050565b634e487b7160e01b600052603260045260246000fd5b6020808252825182820181905260009190848201906040850190845b818110156200204b5783516001600160a01b03168352928401929184019160010162002024565b50909695505050505050565b6001600160a01b038316815260406020820181905260009062000cfc9083018462001f54565b600083516200209181846020880162001f2e565b835190830190620020a781836020880162001f2e565b01949350505050565b60018060a01b038151168252600060208201516040602085015262000cfc604085018262001f54565b606081526000620020ee606083018662001f54565b6020838203818501528186518084528284019150828160051b85010183890160005b838110156200214257601f198784030185526200212f83835162001f54565b9486019492509085019060010162002110565b50508681036040880152875180825284820195509250600583901b81018401915083880160005b848110156200219b57601f1983850301875262002188848351620020b0565b9686019693509085019060010162002169565b50919a9950505050505050505050565b82815260406020820152600062000cfc6040830184620020b0565b8051602080830151919081101562000b9b5760001960209190910360031b1b16919050565b838152600060206060602084015262002208606084018662001f54565b83810360408501528451808252602080870192019060005b818110156200223e5783518352928401929184019160010162002220565b509098975050505050505050565b600060018060a01b0380871683528086166020840152808551166040840152506020840151606083015260a0608083015282516101208060a0850152620022986101c085018362001f54565b91506020850151609f198584030160c0860152620022b7838262001f54565b925050604085015160e08501526060850151610100818187015260808701519150620022ed838701836001600160401b03169052565b60a08701516001600160a01b0390811661014088015260c0880151811661016088015260e0880151610180880152908701519081166101a0870152915062001a299050565b83516001600160e01b03191681526020808501516001600160a01b03908116918301919091528316604082015260806060820181905260009062000c3e9083018462001f5456fe60806040526040516103d43803806103d483398101604081905261002291610268565b61002c8282610033565b5050610352565b61003c82610092565b6040516001600160a01b038316907fbc7cd75a20ee27fd9adebab32041f755214dbc6bffa90cc0225b39da2e5c2d3b90600090a280511561008657610081828261010e565b505050565b61008e610185565b5050565b806001600160a01b03163b6000036100cd57604051634c9c8ce360e01b81526001600160a01b03821660048201526024015b60405180910390fd5b7f360894a13ba1a3210667c828492db98dca3e2076cc3735a920a3ca505d382bbc80546001600160a01b0319166001600160a01b0392909216919091179055565b6060600080846001600160a01b03168460405161012b9190610336565b600060405180830381855af49150503d8060008114610166576040519150601f19603f3d011682016040523d82523d6000602084013e61016b565b606091505b50909250905061017c8583836101a6565b95945050505050565b34156101a45760405163b398979f60e01b815260040160405180910390fd5b565b6060826101bb576101b682610205565b6101fe565b81511580156101d257506001600160a01b0384163b155b156101fb57604051639996b31560e01b81526001600160a01b03851660048201526024016100c4565b50805b9392505050565b8051156102155780518082602001fd5b604051630a12f52160e11b815260040160405180910390fd5b634e487b7160e01b600052604160045260246000fd5b60005b8381101561025f578181015183820152602001610247565b50506000910152565b6000806040838503121561027b57600080fd5b82516001600160a01b038116811461029257600080fd5b60208401519092506001600160401b03808211156102af57600080fd5b818501915085601f8301126102c357600080fd5b8151818111156102d5576102d561022e565b604051601f8201601f19908116603f011681019083821181831017156102fd576102fd61022e565b8160405282815288602084870101111561031657600080fd5b610327836020830160208801610244565b80955050505050509250929050565b60008251610348818460208701610244565b9190910192915050565b6074806103606000396000f3fe6080604052600a600c565b005b60186014601a565b6051565b565b6000604c7f360894a13ba1a3210667c828492db98dca3e2076cc3735a920a3ca505d382bbc546001600160a01b031690565b905090565b3660008037600080366000845af43d6000803e808015606f573d6000f35b3d6000fd608060405234801561001057600080fd5b5060405161075f38038061075f83398101604081905261002f91610259565b6100958380517f9c16cba5b9f2fcbd952b38bec34079e93cbe107475c15fc20705f4e704198a0080546020909301516001600160a01b03166001600160a01b031960e09390931c600160a01b02929092166001600160c01b031990931692909217179055565b61009f82826100a8565b50505050610366565b6060600080846001600160a01b0316846040516100c5919061034a565b600060405180830381855af49150503d8060008114610100576040519150601f19603f3d011682016040523d82523d6000602084013e610105565b606091505b50909250905061011685838361011f565b95945050505050565b6060826101345761012f82610182565b61017b565b815115801561014b57506001600160a01b0384163b155b1561017857604051639996b31560e01b81526001600160a01b038516600482015260240160405180910390fd5b50805b9392505050565b8051156101925780518082602001fd5b604051630a12f52160e11b815260040160405180910390fd5b634e487b7160e01b600052604160045260246000fd5b604080519081016001600160401b03811182821017156101e3576101e36101ab565b60405290565b604051601f8201601f191681016001600160401b0381118282101715610211576102116101ab565b604052919050565b80516001600160a01b038116811461023057600080fd5b919050565b60005b83811015610250578181015183820152602001610238565b50506000910152565b6000806000838503608081121561026f57600080fd5b604081121561027d57600080fd5b506102866101c1565b84516001600160e01b03198116811461029e57600080fd5b815260206102ad868201610219565b818301528194506102c060408701610219565b606087015190945091506001600160401b03808311156102df57600080fd5b828701925087601f8401126102f357600080fd5b825181811115610305576103056101ab565b610317601f8201601f191684016101e9565b9150808252888382860101111561032d57600080fd5b61033c81848401858701610235565b508093505050509250925092565b6000825161035c818460208701610235565b9190910192915050565b6103ea806103756000396000f3fe6080604052600436106100225760003560e01c8063ac9650d81461003357610029565b3661002957005b610031610069565b005b34801561003f57600080fd5b5061005361004e36600461028b565b6100c4565b6040516100609190610324565b60405180910390f35b6000610073610145565b9050806001600160a01b03163b6000036100a0576040516321f27f0d60e21b815260040160405180910390fd5b3660008037600080366000845af43d6000803e8080156100bf573d6000f35b3d6000fd5b6060602060005281602052816100da5760406000f35b60408260051b8085604037818101905b82518601604082018135602083018237600038833583305af4610111573d6000803e3d6000fd5b8285526020850194503d81523d6000602083013e50503d01603f0167ffffffffffffffe0168183106100ea57604081016000f35b7f9c16cba5b9f2fcbd952b38bec34079e93cbe107475c15fc20705f4e704198a0054600090600160a01b900460e01b81806101a77f9c16cba5b9f2fcbd952b38bec34079e93cbe107475c15fc20705f4e704198a00546001600160a01b031690565b6040516001600160e01b03196000351660248201526001600160a01b039190911690849060440160408051601f198184030181529181526020820180516001600160e01b03166001600160e01b031990941693909317909252905161020c919061039e565b600060405180830381855afa9150503d8060008114610247576040519150601f19603f3d011682016040523d82523d6000602084013e61024c565b606091505b50915091508161026f5760405163391aa44560e01b815260040160405180910390fd5b8080602001905181019061028391906103ba565b935050505090565b6000806020838503121561029e57600080fd5b823567ffffffffffffffff808211156102b657600080fd5b818501915085601f8301126102ca57600080fd5b8135818111156102d957600080fd5b8660208260051b85010111156102ee57600080fd5b60209290920196919550909350505050565b60005b8381101561031b578181015183820152602001610303565b50506000910152565b6000602080830181845280855180835260408601915060408160051b870101925083870160005b8281101561039157878503603f1901845281518051808752610372818989018a8501610300565b601f01601f19169590950186019450928501929085019060010161034b565b5092979650505050505050565b600082516103b0818460208701610300565b9190910192915050565b6000602082840312156103cc57600080fd5b81516001600160a01b03811681146103e357600080fd5b93925050505654f22f54f370bd020e00ee80e1a5099a71652e2ccbcf6a75281e4c70a3e11a009e34afa7b4d27d347d25d9d9dab4f1a106fa081382e6c4243e834d093e787d00","linkReferences":{}},"methodIdentifiers":{"__Architect_init(address,address,address,address)":"1a424b66","createSpace((string,string,((string,string,uint256,uint256,uint64,address,address,uint256,address),(bool,address[],bytes),string[]),(string),string,string))":"54b93de5","createSpaceWithPrepay(((string,string,string,string),((string,string,uint256,uint256,uint64,address,address,uint256,address),(bool,address[],bytes),string[]),(string),(uint256)))":"c07ed896","getProxyInitializer()":"6bd837f4","getSpaceArchitectImplementations()":"545efb2d","getSpaceByTokenId(uint256)":"673f0dd5","getTokenIdBySpace(address)":"c0bc6796","setProxyInitializer(address)":"e6907c9d","setSpaceArchitectImplementations(address,address,address,address)":"cd7242b8"},"id":160}