{"abi":[{"type":"function","name":"__Architect_init","inputs":[{"name":"ownerImplementation","type":"address","internalType":"contract ISpaceOwner"},{"name":"userEntitlementImplementation","type":"address","internalType":"contract IUserEntitlement"},{"name":"ruleEntitlementImplementation","type":"address","internalType":"contract IRuleEntitlementV2"},{"name":"legacyRuleEntitlement","type":"address","internalType":"contract IRuleEntitlement"},{"name":"proxyInitializer","type":"address","internalType":"contract ISpaceProxyInitializer"}],"outputs":[],"stateMutability":"nonpayable"},{"type":"function","name":"createSpace","inputs":[{"name":"spaceInfo","type":"tuple","internalType":"struct IArchitectBase.SpaceInfo","components":[{"name":"name","type":"string","internalType":"string"},{"name":"uri","type":"string","internalType":"string"},{"name":"membership","type":"tuple","internalType":"struct IArchitectBase.Membership","components":[{"name":"settings","type":"tuple","internalType":"struct IMembershipBase.Membership","components":[{"name":"name","type":"string","internalType":"string"},{"name":"symbol","type":"string","internalType":"string"},{"name":"price","type":"uint256","internalType":"uint256"},{"name":"maxSupply","type":"uint256","internalType":"uint256"},{"name":"duration","type":"uint64","internalType":"uint64"},{"name":"currency","type":"address","internalType":"address"},{"name":"feeRecipient","type":"address","internalType":"address"},{"name":"freeAllocation","type":"uint256","internalType":"uint256"},{"name":"pricingModule","type":"address","internalType":"address"}]},{"name":"requirements","type":"tuple","internalType":"struct IArchitectBase.MembershipRequirements","components":[{"name":"everyone","type":"bool","internalType":"bool"},{"name":"users","type":"address[]","internalType":"address[]"},{"name":"ruleData","type":"bytes","internalType":"bytes"}]},{"name":"permissions","type":"string[]","internalType":"string[]"}]},{"name":"channel","type":"tuple","internalType":"struct IArchitectBase.ChannelInfo","components":[{"name":"metadata","type":"string","internalType":"string"}]},{"name":"shortDescription","type":"string","internalType":"string"},{"name":"longDescription","type":"string","internalType":"string"}]}],"outputs":[{"name":"","type":"address","internalType":"address"}],"stateMutability":"nonpayable"},{"type":"function","name":"getSpaceArchitectImplementations","inputs":[],"outputs":[{"name":"spaceToken","type":"address","internalType":"contract ISpaceOwner"},{"name":"userEntitlementImplementation","type":"address","internalType":"contract IUserEntitlement"},{"name":"ruleEntitlementImplementation","type":"address","internalType":"contract IRuleEntitlementV2"},{"name":"legacyRuleEntitlement","type":"address","internalType":"contract IRuleEntitlement"},{"name":"spaceProxyInitializer","type":"address","internalType":"contract ISpaceProxyInitializer"}],"stateMutability":"view"},{"type":"function","name":"getSpaceByTokenId","inputs":[{"name":"tokenId","type":"uint256","internalType":"uint256"}],"outputs":[{"name":"","type":"address","internalType":"address"}],"stateMutability":"view"},{"type":"function","name":"getTokenIdBySpace","inputs":[{"name":"space","type":"address","internalType":"address"}],"outputs":[{"name":"","type":"uint256","internalType":"uint256"}],"stateMutability":"view"},{"type":"function","name":"setSpaceArchitectImplementations","inputs":[{"name":"spaceToken","type":"address","internalType":"contract ISpaceOwner"},{"name":"userEntitlementImplementation","type":"address","internalType":"contract IUserEntitlement"},{"name":"ruleEntitlementImplementation","type":"address","internalType":"contract IRuleEntitlementV2"},{"name":"legacyRuleEntitlement","type":"address","internalType":"contract IRuleEntitlement"},{"name":"spaceProxyInitializer","type":"address","internalType":"contract ISpaceProxyInitializer"}],"outputs":[],"stateMutability":"nonpayable"},{"type":"event","name":"Initialized","inputs":[{"name":"version","type":"uint32","indexed":false,"internalType":"uint32"}],"anonymous":false},{"type":"event","name":"InterfaceAdded","inputs":[{"name":"interfaceId","type":"bytes4","indexed":true,"internalType":"bytes4"}],"anonymous":false},{"type":"event","name":"InterfaceRemoved","inputs":[{"name":"interfaceId","type":"bytes4","indexed":true,"internalType":"bytes4"}],"anonymous":false},{"type":"event","name":"OwnershipTransferred","inputs":[{"name":"previousOwner","type":"address","indexed":true,"internalType":"address"},{"name":"newOwner","type":"address","indexed":true,"internalType":"address"}],"anonymous":false},{"type":"event","name":"Paused","inputs":[{"name":"account","type":"address","indexed":false,"internalType":"address"}],"anonymous":false},{"type":"event","name":"PricingModuleAdded","inputs":[{"name":"module","type":"address","indexed":true,"internalType":"address"}],"anonymous":false},{"type":"event","name":"PricingModuleRemoved","inputs":[{"name":"module","type":"address","indexed":true,"internalType":"address"}],"anonymous":false},{"type":"event","name":"PricingModuleUpdated","inputs":[{"name":"module","type":"address","indexed":true,"internalType":"address"}],"anonymous":false},{"type":"event","name":"SpaceCreated","inputs":[{"name":"owner","type":"address","indexed":true,"internalType":"address"},{"name":"tokenId","type":"uint256","indexed":true,"internalType":"uint256"},{"name":"space","type":"address","indexed":true,"internalType":"address"}],"anonymous":false},{"type":"event","name":"Unpaused","inputs":[{"name":"account","type":"address","indexed":false,"internalType":"address"}],"anonymous":false},{"type":"error","name":"Architect__InvalidAddress","inputs":[]},{"type":"error","name":"Architect__InvalidNetworkId","inputs":[]},{"type":"error","name":"Architect__InvalidPricingModule","inputs":[]},{"type":"error","name":"Architect__InvalidStringLength","inputs":[]},{"type":"error","name":"Architect__NotContract","inputs":[]},{"type":"error","name":"Factory__FailedDeployment","inputs":[]},{"type":"error","name":"Initializable_InInitializingState","inputs":[]},{"type":"error","name":"Initializable_NotInInitializingState","inputs":[]},{"type":"error","name":"Introspection_AlreadySupported","inputs":[]},{"type":"error","name":"Introspection_NotSupported","inputs":[]},{"type":"error","name":"InvalidPricingModule","inputs":[{"name":"module","type":"address","internalType":"address"}]},{"type":"error","name":"Ownable__NotOwner","inputs":[{"name":"account","type":"address","internalType":"address"}]},{"type":"error","name":"Ownable__ZeroAddress","inputs":[]},{"type":"error","name":"Pausable__NotPaused","inputs":[]},{"type":"error","name":"Pausable__Paused","inputs":[]},{"type":"error","name":"ReentrancyGuard__ReentrantCall","inputs":[]},{"type":"error","name":"Validator__InvalidAddress","inputs":[]}],"bytecode":{"object":"0x608060405234801561001057600080fd5b5061001961001e565b6100c4565b7f59b501c3653afc186af7d48dda36cf6732bd21629a6295693664240a6ef520008054640100000000900460ff161561006a576040516366008a2d60e01b815260040160405180910390fd5b805463ffffffff90811610156100c157805463ffffffff191663ffffffff90811782556040519081527fe9c9b456cb2994b80aeef036cf59d26e9617df80f816a6ee5a5b4166e07e2f5c9060200160405180910390a15b50565b612a9280620000d46000396000f3fe60806040523480156200001157600080fd5b50600436106200006a5760003560e01c8063343852cb146200006f578063545efb2d146200008857806354b93de514620000d1578063673f0dd5146200010157806379cba28a1462000118578063c0bc6796146200012f575b600080fd5b62000086620000803660046200153f565b62000155565b005b62000092620001bc565b604080516001600160a01b03968716815294861660208601529285169284019290925283166060830152909116608082015260a0015b60405180910390f35b620000e8620000e2366004620015bb565b6200028e565b6040516001600160a01b039091168152602001620000c8565b620000e862000112366004620015f9565b6200037d565b62000086620001293660046200153f565b620003bb565b620001466200014036600462001620565b62000406565b604051908152602001620000c8565b7f4675fa8241f86f37157864d3d49b85ad4b164352c516da28e1678a90470ae300546001600160a01b03163314620001a6576040516365f4906560e01b815233600482015260240160405180910390fd5b620001b5858585858562000444565b5050505050565b60008060008060006200027d60008051602062002a72833981519152547f9e34afa7b4d27d347d25d9d9dab4f1a106fa081382e6c4243e834d093e787d01547f9e34afa7b4d27d347d25d9d9dab4f1a106fa081382e6c4243e834d093e787d02547f9e34afa7b4d27d347d25d9d9dab4f1a106fa081382e6c4243e834d093e787d05547f9e34afa7b4d27d347d25d9d9dab4f1a106fa081382e6c4243e834d093e787d06546001600160a01b03948516959385169492831693918316921690565b945094509450945094509091929394565b600060027f54f22f54f370bd020e00ee80e1a5099a71652e2ccbcf6a75281e4c70a3e11a005403620002d357604051635db5c7cd60e11b815260040160405180910390fd5b620002fd60027f54f22f54f370bd020e00ee80e1a5099a71652e2ccbcf6a75281e4c70a3e11a0055565b7fe17a067c7963a59b6dfd65d33b053fdbea1c56500e2aae4f976d9eda4da9eb005460ff161562000341576040516302ca8ced60e11b815260040160405180910390fd5b6200034c82620005b1565b90506200037860017f54f22f54f370bd020e00ee80e1a5099a71652e2ccbcf6a75281e4c70a3e11a0055565b919050565b60008181527f06bd04a817647c31ee485c8a0baab96facd62dbfd4b475796bb17ca2c12f000260205260408120546001600160a01b03165b92915050565b7f59b501c3653afc186af7d48dda36cf6732bd21629a6295693664240a6ef5200054640100000000900460ff16620001a657604051630ef4733760e31b815260040160405180910390fd5b6001600160a01b03811660009081527f06bd04a817647c31ee485c8a0baab96facd62dbfd4b475796bb17ca2c12f00016020526040812054620003b5565b846001600160a01b03163b60000362000470576040516302f3d00b60e01b815260040160405180910390fd5b836001600160a01b03163b6000036200049c576040516302f3d00b60e01b815260040160405180910390fd5b826001600160a01b03163b600003620004c8576040516302f3d00b60e01b815260040160405180910390fd5b60008051602062002a7283398151915280546001600160a01b03199081166001600160a01b03978816179091557f9e34afa7b4d27d347d25d9d9dab4f1a106fa081382e6c4243e834d093e787d0180548216958716959095179094557f9e34afa7b4d27d347d25d9d9dab4f1a106fa081382e6c4243e834d093e787d0280548516938616939093179092557f9e34afa7b4d27d347d25d9d9dab4f1a106fa081382e6c4243e834d093e787d05805484169185169190911790557f9e34afa7b4d27d347d25d9d9dab4f1a106fa081382e6c4243e834d093e787d0680549092169216919091179055565b60008051602062002a72833981519152805460408051631d5e528f60e21b815290516000937f06bd04a817647c31ee485c8a0baab96facd62dbfd4b475796bb17ca2c12f000093909285926001600160a01b03909216916375794a3c916004808201926020929091908290030181865afa15801562000634573d6000803e3d6000fd5b505050506040513d601f19601f820116820180604052508101906200065a919062001640565b905062000676816200067060408801886200165a565b620009ee565b835490945083600062000689836200167b565b90915550506000818152600284016020908152604080832080546001600160a01b0319166001600160a01b03898116918217909255845260018701909252909120829055825416633bf5b8f4620006e18780620016a3565b620006f060208a018a620016a3565b896200070060808d018d620016a3565b6200070f60a08f018f620016a3565b6040518a63ffffffff1660e01b815260040162000735999897969594939291906200171d565b6020604051808303816000875af115801562000755573d6000803e3d6000fd5b505050506040513d601f19601f820116820180604052508101906200077b919062001640565b50600182015460009062000799906001600160a01b03168662000a18565b6002840154909150600090620007b9906001600160a01b03168762000a18565b60408051600280825260608201835292935060009290916020830190803683370190505090508281600081518110620007f657620007f6620017ab565b60200260200101906001600160a01b031690816001600160a01b03168152505081816001815181106200082d576200082d620017ab565b6001600160a01b039283166020918202929092010152604051638bfc820f60e01b815290881690638bfc820f906200086a908490600401620017c1565b600060405180830381600087803b1580156200088557600080fd5b505af11580156200089a573d6000803e3d6000fd5b50505050620008cd8784848b8060400190620008b791906200165a565b620008c79060208101906200165a565b62000ad5565b5060006200092288620008e460408c018c6200165a565b620008f0908062001810565b620008fc9080620016a3565b6200090b60408e018e6200165a565b6200091b90604081019062001828565b8962000f82565b90506200093f88826200093960608d018d62001875565b62001118565b8554604051632142170760e11b8152306004820152336024820152604481018790526001600160a01b03909116906342842e0e90606401600060405180830381600087803b1580156200099157600080fd5b505af1158015620009a6573d6000803e3d6000fd5b50506040516001600160a01b038b16925087915033907fe50fc3942f8a2d7e5a7c8fb9488499eba5255b41e18bc3f1b4791402976d1d0b90600090a450505050505050919050565b6000806000620009ff858562001223565b9150915062000a0f828262001400565b95945050505050565b6000806040518060200162000a2d906200150d565b601f1982820381018352601f9091011660408190526001600160a01b0385166024820152859060440160408051601f19818403018152918152602080830180516001600160e01b031663189acdbd60e31b179052905162000a9193929101620018e0565b60408051601f198184030181529082905262000ab1929160200162001906565b604051602081830303815290604052905062000acd8162001426565b949350505050565b604080516001808252818301909252600091829190816020015b606081526020019060019003908162000aef579050509050604051806040016040528060098152602001684a6f696e537061636560b81b8152508160008151811062000b3f5762000b3f620017ab565b6020026020010181905250856001600160a01b0316638fcd793d6040518060400160405280600681526020016526b4b73a32b960d11b81525083600067ffffffffffffffff81111562000b965762000b9662001795565b60405190808252806020026020018201604052801562000bde57816020015b60408051808201909152600081526060602082015281526020019060019003908162000bb55790505b506040518463ffffffff1660e01b815260040162000bff93929190620019c0565b6020604051808303816000875af115801562000c1f573d6000803e3d6000fd5b505050506040513d601f19601f8201168201806040525081019062000c45919062001640565b915062000c56602084018462001a4d565b1562000d5f576040805160018082528183019092526000916020808301908036833701905050905060018160008151811062000c965762000c96620017ab565b60200260200101906001600160a01b031690816001600160a01b031681525050866001600160a01b031663ba201ba88460405180604001604052808a6001600160a01b031681526020018560405160200162000cf39190620017c1565b6040516020818303038152906040528152506040518363ffffffff1660e01b815260040162000d2492919062001a71565b600060405180830381600087803b15801562000d3f57600080fd5b505af115801562000d54573d6000803e3d6000fd5b505050505062000f79565b62000d6e602084018462001828565b15905062000e945760005b62000d88602085018562001828565b905081101562000dde5762000dd562000da5602086018662001828565b8381811062000db85762000db8620017ab565b905060200201602081019062000dcf919062001620565b6200144b565b60010162000d79565b50856001600160a01b031663ba201ba8836040518060400160405280896001600160a01b0316815260200187806020019062000e1b919062001828565b60405160200162000e2e92919062001a8c565b6040516020818303038152906040528152506040518363ffffffff1660e01b815260040162000e5f92919062001a71565b600060405180830381600087803b15801562000e7a57600080fd5b505af115801562000e8f573d6000803e3d6000fd5b505050505b600062000ea56040850185620016a3565b9050111562000f7957856001600160a01b031663ba201ba8836040518060400160405280886001600160a01b0316815260200187806040019062000eea9190620016a3565b8080601f01602080910402602001604051908101604052809392919081815260200183838082843760009201919091525050509152506040516001600160e01b031960e085901b16815262000f4492919060040162001a71565b600060405180830381600087803b15801562000f5f57600080fd5b505af115801562000f74573d6000803e3d6000fd5b505050505b50949350505050565b6040805160018082528183019092526000918291906020808301908036833701905050905060018160008151811062000fbf5762000fbf620017ab565b6001600160a01b039290921660209283029190910190910152604080516001808252818301909252600091816020015b60408051808201909152600081526060602082015281526020019060019003908162000fef5790505090508381600081518110620010315762001031620017ab565b6020908102919091018101516001600160a01b039092169091526040516200105c91849101620017c1565b60405160208183030381529060405281600081518110620010815762001081620017ab565b6020908102919091018101510152604051638fcd793d60e01b81526001600160a01b038a1690638fcd793d90620010c5908b908b908b908b90889060040162001ade565b6020604051808303816000875af1158015620010e5573d6000803e3d6000fd5b505050506040513d601f19601f820116820180604052508101906200110b919062001640565b9998505050505050505050565b604080516001808252818301909252600091602080830190803683370190505090508281600081518110620011515762001151620017ab565b602090810291909101810191909152604051600160fd1b918101919091526bffffffffffffffffffffffff19606086901b166021820152600090603501604051602081830303815290604052620011a89062001bae565b90506001600160a01b03851663921f717582620011c68680620016a3565b866040518563ffffffff1660e01b8152600401620011e8949392919062001bd6565b600060405180830381600087803b1580156200120357600080fd5b505af115801562001218573d6000803e3d6000fd5b505050505050505050565b606060006200125262001237848062001810565b6200124c906101208101906101000162001620565b62001476565b600060008051602062002a7283398151915254604080513360208201529081018790524260608201526001600160a01b03909116915060800160408051601f19818403018152919052805160209091012091506000620012b3858062001810565b620012be9062001d14565b60c08101519091506001600160a01b0316620012db573360c08201525b7f9e34afa7b4d27d347d25d9d9dab4f1a106fa081382e6c4243e834d093e787d06546040516001600160a01b03909116906200131a602082016200151b565b601f19828203810183526040601f90920116818101825263dc9cc64560e01b8082523060208381018290528451808601865292835282810191909152835180850185526001600160a01b03891681529081018c9052925191928592620013899233929091899060240162001e18565b60408051601f19818403018152918152602080830180516001600160e01b0316631832c67760e21b1790529051620013c5949392910162001f09565b60408051601f1981840301815290829052620013e5929160200162001906565b60405160208183030381529060405294505050509250929050565b60008260200183518381836000f59250505080620003b55763ef35ca196000526004601cfd5b600081602001825180826000f09250505080620003785763ef35ca196000526004601cfd5b6001600160a01b03811662001473576040516302e47d1560e41b815260040160405180910390fd5b50565b6001600160a01b03811615806200149557506200149381620014b4565b155b156200147357604051637e4248fd60e11b815260040160405180910390fd5b60007f6438323c68a77f029335e6433efb7c07e7cd1775df0c27e75bcd3591a8bc5d00620014e38184620014ea565b9392505050565b6001600160a01b03811660009081526001830160205260408120541515620014e3565b6103d48062001f3f83390190565b61075f806200231383390190565b6001600160a01b03811681146200147357600080fd5b600080600080600060a086880312156200155857600080fd5b8535620015658162001529565b94506020860135620015778162001529565b93506040860135620015898162001529565b925060608601356200159b8162001529565b91506080860135620015ad8162001529565b809150509295509295909350565b600060208284031215620015ce57600080fd5b813567ffffffffffffffff811115620015e657600080fd5b820160c08185031215620014e357600080fd5b6000602082840312156200160c57600080fd5b5035919050565b8035620003788162001529565b6000602082840312156200163357600080fd5b8135620014e38162001529565b6000602082840312156200165357600080fd5b5051919050565b60008235605e198336030181126200167157600080fd5b9190910192915050565b6000600182016200169c57634e487b7160e01b600052601160045260246000fd5b5060010190565b6000808335601e19843603018112620016bb57600080fd5b83018035915067ffffffffffffffff821115620016d757600080fd5b602001915036819003821315620016ed57600080fd5b9250929050565b81835281816020850137506000828201602090810191909152601f909101601f19169091010190565b60a0815260006200173360a083018b8d620016f4565b828103602084015262001748818a8c620016f4565b6001600160a01b0389166040850152838103606085015290506200176e818789620016f4565b9050828103608084015262001785818587620016f4565b9c9b505050505050505050505050565b634e487b7160e01b600052604160045260246000fd5b634e487b7160e01b600052603260045260246000fd5b6020808252825182820181905260009190848201906040850190845b81811015620018045783516001600160a01b031683529284019291840191600101620017dd565b50909695505050505050565b6000823561011e198336030181126200167157600080fd5b6000808335601e198436030181126200184057600080fd5b83018035915067ffffffffffffffff8211156200185c57600080fd5b6020019150600581901b3603821315620016ed57600080fd5b60008235601e198336030181126200167157600080fd5b60005b83811015620018a95781810151838201526020016200188f565b50506000910152565b60008151808452620018cc8160208601602086016200188c565b601f01601f19169290920160200192915050565b6001600160a01b038316815260406020820181905260009062000acd90830184620018b2565b600083516200191a8184602088016200188c565b835190830190620019308183602088016200188c565b01949350505050565b60018060a01b038151168252600060208201516040602085015262000acd6040850182620018b2565b60008282518085526020808601955060208260051b8401016020860160005b84811015620019b357601f19868403018952620019a083835162001939565b9884019892509083019060010162001981565b5090979650505050505050565b606081526000620019d56060830186620018b2565b6020838203818501528186518084528284019150828160051b85010183890160005b8381101562001a2957601f1987840301855262001a16838351620018b2565b94860194925090850190600101620019f7565b5050868103604088015262001a3f818962001962565b9a9950505050505050505050565b60006020828403121562001a6057600080fd5b81358015158114620014e357600080fd5b82815260406020820152600062000acd604083018462001939565b60208082528181018390526000908460408401835b8681101562001ad357823562001ab78162001529565b6001600160a01b03168252918301919083019060010162001aa1565b509695505050505050565b60608152600062001af4606083018789620016f4565b602083820381850152818683528183019050818760051b8401018860005b8981101562001b8957858303601f190184528135368c9003601e1901811262001b3a57600080fd5b8b01858101903567ffffffffffffffff81111562001b5757600080fd5b80360382131562001b6757600080fd5b62001b74858284620016f4565b95870195945050509084019060010162001b12565b5050858103604087015262001b9f818862001962565b9b9a5050505050505050505050565b8051602080830151919081101562001bd0576000198160200360031b1b821691505b50919050565b848152600060206060602084015262001bf4606084018688620016f4565b83810360408501528451808252602080870192019060005b8181101562001c2a5783518352928401929184019160010162001c0c565b50909998505050505050505050565b604051610120810167ffffffffffffffff8111828210171562001c605762001c6062001795565b60405290565b600082601f83011262001c7857600080fd5b813567ffffffffffffffff8082111562001c965762001c9662001795565b604051601f8301601f19908116603f0116810190828211818310171562001cc15762001cc162001795565b8160405283815286602085880101111562001cdb57600080fd5b836020870160208301376000602085830101528094505050505092915050565b803567ffffffffffffffff811681146200037857600080fd5b6000610120823603121562001d2857600080fd5b62001d3262001c39565b823567ffffffffffffffff8082111562001d4b57600080fd5b62001d593683870162001c66565b8352602085013591508082111562001d7057600080fd5b5062001d7f3682860162001c66565b602083015250604083013560408201526060830135606082015262001da76080840162001cfb565b608082015262001dba60a0840162001613565b60a082015262001dcd60c0840162001613565b60c082015260e083013560e082015261010062001dec81850162001613565b9082015292915050565b80516001600160e01b03191682526020908101516001600160a01b0316910152565b6001600160a01b03858116825260009062001e37602084018762001df6565b808551166060840152506020840151608083015260c060a083015282516101208060c085015262001e6d6101e0850183620018b2565b9150602085015160bf198584030160e086015262001e8c8382620018b2565b925050604085015161010081818701526060870151838701526080870151925062001ec461014087018467ffffffffffffffff169052565b60a08701516001600160a01b0390811661016088015260c0880151811661018088015260e08801516101a0880152908701519081166101c0870152915062001ad39050565b62001f15818562001df6565b6001600160a01b038316604082015260806060820181905260009062000a0f90830184620018b256fe60806040526040516103d43803806103d483398101604081905261002291610268565b61002c8282610033565b5050610352565b61003c82610092565b6040516001600160a01b038316907fbc7cd75a20ee27fd9adebab32041f755214dbc6bffa90cc0225b39da2e5c2d3b90600090a280511561008657610081828261010e565b505050565b61008e610185565b5050565b806001600160a01b03163b6000036100cd57604051634c9c8ce360e01b81526001600160a01b03821660048201526024015b60405180910390fd5b7f360894a13ba1a3210667c828492db98dca3e2076cc3735a920a3ca505d382bbc80546001600160a01b0319166001600160a01b0392909216919091179055565b6060600080846001600160a01b03168460405161012b9190610336565b600060405180830381855af49150503d8060008114610166576040519150601f19603f3d011682016040523d82523d6000602084013e61016b565b606091505b50909250905061017c8583836101a6565b95945050505050565b34156101a45760405163b398979f60e01b815260040160405180910390fd5b565b6060826101bb576101b682610205565b6101fe565b81511580156101d257506001600160a01b0384163b155b156101fb57604051639996b31560e01b81526001600160a01b03851660048201526024016100c4565b50805b9392505050565b8051156102155780518082602001fd5b604051630a12f52160e11b815260040160405180910390fd5b634e487b7160e01b600052604160045260246000fd5b60005b8381101561025f578181015183820152602001610247565b50506000910152565b6000806040838503121561027b57600080fd5b82516001600160a01b038116811461029257600080fd5b60208401519092506001600160401b03808211156102af57600080fd5b818501915085601f8301126102c357600080fd5b8151818111156102d5576102d561022e565b604051601f8201601f19908116603f011681019083821181831017156102fd576102fd61022e565b8160405282815288602084870101111561031657600080fd5b610327836020830160208801610244565b80955050505050509250929050565b60008251610348818460208701610244565b9190910192915050565b6074806103606000396000f3fe6080604052600a600c565b005b60186014601a565b6051565b565b6000604c7f360894a13ba1a3210667c828492db98dca3e2076cc3735a920a3ca505d382bbc546001600160a01b031690565b905090565b3660008037600080366000845af43d6000803e808015606f573d6000f35b3d6000fd608060405234801561001057600080fd5b5060405161075f38038061075f83398101604081905261002f91610259565b6100958380517f9c16cba5b9f2fcbd952b38bec34079e93cbe107475c15fc20705f4e704198a0080546020909301516001600160a01b03166001600160a01b031960e09390931c600160a01b02929092166001600160c01b031990931692909217179055565b61009f82826100a8565b50505050610366565b6060600080846001600160a01b0316846040516100c5919061034a565b600060405180830381855af49150503d8060008114610100576040519150601f19603f3d011682016040523d82523d6000602084013e610105565b606091505b50909250905061011685838361011f565b95945050505050565b6060826101345761012f82610182565b61017b565b815115801561014b57506001600160a01b0384163b155b1561017857604051639996b31560e01b81526001600160a01b038516600482015260240160405180910390fd5b50805b9392505050565b8051156101925780518082602001fd5b604051630a12f52160e11b815260040160405180910390fd5b634e487b7160e01b600052604160045260246000fd5b604080519081016001600160401b03811182821017156101e3576101e36101ab565b60405290565b604051601f8201601f191681016001600160401b0381118282101715610211576102116101ab565b604052919050565b80516001600160a01b038116811461023057600080fd5b919050565b60005b83811015610250578181015183820152602001610238565b50506000910152565b6000806000838503608081121561026f57600080fd5b604081121561027d57600080fd5b506102866101c1565b84516001600160e01b03198116811461029e57600080fd5b815260206102ad868201610219565b818301528194506102c060408701610219565b606087015190945091506001600160401b03808311156102df57600080fd5b828701925087601f8401126102f357600080fd5b825181811115610305576103056101ab565b610317601f8201601f191684016101e9565b9150808252888382860101111561032d57600080fd5b61033c81848401858701610235565b508093505050509250925092565b6000825161035c818460208701610235565b9190910192915050565b6103ea806103756000396000f3fe6080604052600436106100225760003560e01c8063ac9650d81461003357610029565b3661002957005b610031610069565b005b34801561003f57600080fd5b5061005361004e36600461028b565b6100c4565b6040516100609190610324565b60405180910390f35b6000610073610145565b9050806001600160a01b03163b6000036100a0576040516321f27f0d60e21b815260040160405180910390fd5b3660008037600080366000845af43d6000803e8080156100bf573d6000f35b3d6000fd5b6060602060005281602052816100da5760406000f35b60408260051b8085604037818101905b82518601604082018135602083018237600038833583305af4610111573d6000803e3d6000fd5b8285526020850194503d81523d6000602083013e50503d01603f0167ffffffffffffffe0168183106100ea57604081016000f35b7f9c16cba5b9f2fcbd952b38bec34079e93cbe107475c15fc20705f4e704198a0054600090600160a01b900460e01b81806101a77f9c16cba5b9f2fcbd952b38bec34079e93cbe107475c15fc20705f4e704198a00546001600160a01b031690565b6040516001600160e01b03196000351660248201526001600160a01b039190911690849060440160408051601f198184030181529181526020820180516001600160e01b03166001600160e01b031990941693909317909252905161020c919061039e565b600060405180830381855afa9150503d8060008114610247576040519150601f19603f3d011682016040523d82523d6000602084013e61024c565b606091505b50915091508161026f5760405163391aa44560e01b815260040160405180910390fd5b8080602001905181019061028391906103ba565b935050505090565b6000806020838503121561029e57600080fd5b823567ffffffffffffffff808211156102b657600080fd5b818501915085601f8301126102ca57600080fd5b8135818111156102d957600080fd5b8660208260051b85010111156102ee57600080fd5b60209290920196919550909350505050565b60005b8381101561031b578181015183820152602001610303565b50506000910152565b6000602080830181845280855180835260408601915060408160051b870101925083870160005b8281101561039157878503603f1901845281518051808752610372818989018a8501610300565b601f01601f19169590950186019450928501929085019060010161034b565b5092979650505050505050565b600082516103b0818460208701610300565b9190910192915050565b6000602082840312156103cc57600080fd5b81516001600160a01b03811681146103e357600080fd5b9392505050569e34afa7b4d27d347d25d9d9dab4f1a106fa081382e6c4243e834d093e787d00","linkReferences":{}},"methodIdentifiers":{"__Architect_init(address,address,address,address,address)":"79cba28a","createSpace((string,string,((string,string,uint256,uint256,uint64,address,address,uint256,address),(bool,address[],bytes),string[]),(string),string,string))":"54b93de5","getSpaceArchitectImplementations()":"545efb2d","getSpaceByTokenId(uint256)":"673f0dd5","getTokenIdBySpace(address)":"c0bc6796","setSpaceArchitectImplementations(address,address,address,address,address)":"343852cb"},"id":156}