{"abi":[{"type":"function","name":"__Architect_init","inputs":[{"name":"ownerImplementation","type":"address","internalType":"contract ISpaceOwner"},{"name":"userEntitlementImplementation","type":"address","internalType":"contract IUserEntitlement"},{"name":"ruleEntitlementImplementation","type":"address","internalType":"contract IRuleEntitlementV2"},{"name":"legacyRuleEntitlement","type":"address","internalType":"contract IRuleEntitlement"},{"name":"proxyInitializer","type":"address","internalType":"contract ISpaceProxyInitializer"}],"outputs":[],"stateMutability":"nonpayable"},{"type":"function","name":"createSpace","inputs":[{"name":"spaceInfo","type":"tuple","internalType":"struct IArchitectBase.SpaceInfo","components":[{"name":"name","type":"string","internalType":"string"},{"name":"uri","type":"string","internalType":"string"},{"name":"membership","type":"tuple","internalType":"struct IArchitectBase.Membership","components":[{"name":"settings","type":"tuple","internalType":"struct IMembershipBase.Membership","components":[{"name":"name","type":"string","internalType":"string"},{"name":"symbol","type":"string","internalType":"string"},{"name":"price","type":"uint256","internalType":"uint256"},{"name":"maxSupply","type":"uint256","internalType":"uint256"},{"name":"duration","type":"uint64","internalType":"uint64"},{"name":"currency","type":"address","internalType":"address"},{"name":"feeRecipient","type":"address","internalType":"address"},{"name":"freeAllocation","type":"uint256","internalType":"uint256"},{"name":"pricingModule","type":"address","internalType":"address"}]},{"name":"requirements","type":"tuple","internalType":"struct IArchitectBase.MembershipRequirements","components":[{"name":"everyone","type":"bool","internalType":"bool"},{"name":"users","type":"address[]","internalType":"address[]"},{"name":"ruleData","type":"bytes","internalType":"bytes"}]},{"name":"permissions","type":"string[]","internalType":"string[]"}]},{"name":"channel","type":"tuple","internalType":"struct IArchitectBase.ChannelInfo","components":[{"name":"metadata","type":"string","internalType":"string"}]},{"name":"shortDescription","type":"string","internalType":"string"},{"name":"longDescription","type":"string","internalType":"string"}]}],"outputs":[{"name":"","type":"address","internalType":"address"}],"stateMutability":"nonpayable"},{"type":"function","name":"createSpaceWithPrepay","inputs":[{"name":"spaceInfo","type":"tuple","internalType":"struct IArchitectBase.CreateSpace","components":[{"name":"metadata","type":"tuple","internalType":"struct IArchitectBase.Metadata","components":[{"name":"name","type":"string","internalType":"string"},{"name":"uri","type":"string","internalType":"string"},{"name":"shortDescription","type":"string","internalType":"string"},{"name":"longDescription","type":"string","internalType":"string"}]},{"name":"membership","type":"tuple","internalType":"struct IArchitectBase.Membership","components":[{"name":"settings","type":"tuple","internalType":"struct IMembershipBase.Membership","components":[{"name":"name","type":"string","internalType":"string"},{"name":"symbol","type":"string","internalType":"string"},{"name":"price","type":"uint256","internalType":"uint256"},{"name":"maxSupply","type":"uint256","internalType":"uint256"},{"name":"duration","type":"uint64","internalType":"uint64"},{"name":"currency","type":"address","internalType":"address"},{"name":"feeRecipient","type":"address","internalType":"address"},{"name":"freeAllocation","type":"uint256","internalType":"uint256"},{"name":"pricingModule","type":"address","internalType":"address"}]},{"name":"requirements","type":"tuple","internalType":"struct IArchitectBase.MembershipRequirements","components":[{"name":"everyone","type":"bool","internalType":"bool"},{"name":"users","type":"address[]","internalType":"address[]"},{"name":"ruleData","type":"bytes","internalType":"bytes"}]},{"name":"permissions","type":"string[]","internalType":"string[]"}]},{"name":"channel","type":"tuple","internalType":"struct IArchitectBase.ChannelInfo","components":[{"name":"metadata","type":"string","internalType":"string"}]},{"name":"prepay","type":"tuple","internalType":"struct IArchitectBase.Prepay","components":[{"name":"supply","type":"uint256","internalType":"uint256"}]}]}],"outputs":[{"name":"","type":"address","internalType":"address"}],"stateMutability":"payable"},{"type":"function","name":"getSpaceArchitectImplementations","inputs":[],"outputs":[{"name":"spaceToken","type":"address","internalType":"contract ISpaceOwner"},{"name":"userEntitlementImplementation","type":"address","internalType":"contract IUserEntitlement"},{"name":"ruleEntitlementImplementation","type":"address","internalType":"contract IRuleEntitlementV2"},{"name":"legacyRuleEntitlement","type":"address","internalType":"contract IRuleEntitlement"},{"name":"spaceProxyInitializer","type":"address","internalType":"contract ISpaceProxyInitializer"}],"stateMutability":"view"},{"type":"function","name":"getSpaceByTokenId","inputs":[{"name":"tokenId","type":"uint256","internalType":"uint256"}],"outputs":[{"name":"","type":"address","internalType":"address"}],"stateMutability":"view"},{"type":"function","name":"getTokenIdBySpace","inputs":[{"name":"space","type":"address","internalType":"address"}],"outputs":[{"name":"","type":"uint256","internalType":"uint256"}],"stateMutability":"view"},{"type":"function","name":"setSpaceArchitectImplementations","inputs":[{"name":"spaceToken","type":"address","internalType":"contract ISpaceOwner"},{"name":"userEntitlementImplementation","type":"address","internalType":"contract IUserEntitlement"},{"name":"ruleEntitlementImplementation","type":"address","internalType":"contract IRuleEntitlementV2"},{"name":"legacyRuleEntitlement","type":"address","internalType":"contract IRuleEntitlement"},{"name":"spaceProxyInitializer","type":"address","internalType":"contract ISpaceProxyInitializer"}],"outputs":[],"stateMutability":"nonpayable"},{"type":"event","name":"Initialized","inputs":[{"name":"version","type":"uint32","indexed":false,"internalType":"uint32"}],"anonymous":false},{"type":"event","name":"InterfaceAdded","inputs":[{"name":"interfaceId","type":"bytes4","indexed":true,"internalType":"bytes4"}],"anonymous":false},{"type":"event","name":"InterfaceRemoved","inputs":[{"name":"interfaceId","type":"bytes4","indexed":true,"internalType":"bytes4"}],"anonymous":false},{"type":"event","name":"OwnershipTransferred","inputs":[{"name":"previousOwner","type":"address","indexed":true,"internalType":"address"},{"name":"newOwner","type":"address","indexed":true,"internalType":"address"}],"anonymous":false},{"type":"event","name":"Paused","inputs":[{"name":"account","type":"address","indexed":false,"internalType":"address"}],"anonymous":false},{"type":"event","name":"PricingModuleAdded","inputs":[{"name":"module","type":"address","indexed":true,"internalType":"address"}],"anonymous":false},{"type":"event","name":"PricingModuleRemoved","inputs":[{"name":"module","type":"address","indexed":true,"internalType":"address"}],"anonymous":false},{"type":"event","name":"PricingModuleUpdated","inputs":[{"name":"module","type":"address","indexed":true,"internalType":"address"}],"anonymous":false},{"type":"event","name":"SpaceCreated","inputs":[{"name":"owner","type":"address","indexed":true,"internalType":"address"},{"name":"tokenId","type":"uint256","indexed":true,"internalType":"uint256"},{"name":"space","type":"address","indexed":true,"internalType":"address"}],"anonymous":false},{"type":"event","name":"Unpaused","inputs":[{"name":"account","type":"address","indexed":false,"internalType":"address"}],"anonymous":false},{"type":"error","name":"Architect__InvalidAddress","inputs":[]},{"type":"error","name":"Architect__InvalidNetworkId","inputs":[]},{"type":"error","name":"Architect__InvalidPricingModule","inputs":[]},{"type":"error","name":"Architect__InvalidStringLength","inputs":[]},{"type":"error","name":"Architect__NotContract","inputs":[]},{"type":"error","name":"Factory__FailedDeployment","inputs":[]},{"type":"error","name":"Initializable_InInitializingState","inputs":[]},{"type":"error","name":"Initializable_NotInInitializingState","inputs":[]},{"type":"error","name":"Introspection_AlreadySupported","inputs":[]},{"type":"error","name":"Introspection_NotSupported","inputs":[]},{"type":"error","name":"InvalidPricingModule","inputs":[{"name":"module","type":"address","internalType":"address"}]},{"type":"error","name":"Ownable__NotOwner","inputs":[{"name":"account","type":"address","internalType":"address"}]},{"type":"error","name":"Ownable__ZeroAddress","inputs":[]},{"type":"error","name":"Pausable__NotPaused","inputs":[]},{"type":"error","name":"Pausable__Paused","inputs":[]},{"type":"error","name":"ReentrancyGuard__ReentrantCall","inputs":[]},{"type":"error","name":"Validator__InvalidAddress","inputs":[]}],"bytecode":{"object":"0x608060405234801561001057600080fd5b5061001961001e565b6100c4565b7f59b501c3653afc186af7d48dda36cf6732bd21629a6295693664240a6ef520008054640100000000900460ff161561006a576040516366008a2d60e01b815260040160405180910390fd5b805463ffffffff90811610156100c157805463ffffffff191663ffffffff90811782556040519081527fe9c9b456cb2994b80aeef036cf59d26e9617df80f816a6ee5a5b4166e07e2f5c9060200160405180910390a15b50565b612e2d80620000d46000396000f3fe608060405260043610620000795760003560e01c8063673f0dd51162000054578063673f0dd5146200013a57806379cba28a146200015f578063c07ed8961462000184578063c0bc6796146200019b57600080fd5b8063343852cb146200007e578063545efb2d14620000a557806354b93de514620000fc575b600080fd5b3480156200008b57600080fd5b50620000a36200009d36600462001582565b620001cf565b005b348015620000b257600080fd5b50620000bd62000236565b604080516001600160a01b03968716815294861660208601529285169284019290925283166060830152909116608082015260a0015b60405180910390f35b3480156200010957600080fd5b50620001216200011b36600462001aff565b62000308565b6040516001600160a01b039091168152602001620000f3565b3480156200014757600080fd5b50620001216200015936600462001c36565b620003c4565b3480156200016c57600080fd5b50620000a36200017e36600462001582565b62000402565b620001216200019536600462001c77565b6200044d565b348015620001a857600080fd5b50620001c0620001ba36600462001df2565b620004e9565b604051908152602001620000f3565b7f4675fa8241f86f37157864d3d49b85ad4b164352c516da28e1678a90470ae300546001600160a01b0316331462000220576040516365f4906560e01b815233600482015260240160405180910390fd5b6200022f858585858562000527565b5050505050565b6000806000806000620002f760008051602062002e0d833981519152547f9e34afa7b4d27d347d25d9d9dab4f1a106fa081382e6c4243e834d093e787d01547f9e34afa7b4d27d347d25d9d9dab4f1a106fa081382e6c4243e834d093e787d02547f9e34afa7b4d27d347d25d9d9dab4f1a106fa081382e6c4243e834d093e787d05547f9e34afa7b4d27d347d25d9d9dab4f1a106fa081382e6c4243e834d093e787d06546001600160a01b03948516959385169492831693918316921690565b945094509450945094509091929394565b6000600260008051602062002ded83398151915254036200033c57604051635db5c7cd60e11b815260040160405180910390fd5b62000355600260008051602062002ded83398151915255565b7fe17a067c7963a59b6dfd65d33b053fdbea1c56500e2aae4f976d9eda4da9eb005460ff161562000399576040516302ca8ced60e11b815260040160405180910390fd5b620003a48262000694565b9050620003bf600160008051602062002ded83398151915255565b919050565b60008181527f06bd04a817647c31ee485c8a0baab96facd62dbfd4b475796bb17ca2c12f000260205260408120546001600160a01b03165b92915050565b7f59b501c3653afc186af7d48dda36cf6732bd21629a6295693664240a6ef5200054640100000000900460ff166200022057604051630ef4733760e31b815260040160405180910390fd5b6000600260008051602062002ded83398151915254036200048157604051635db5c7cd60e11b815260040160405180910390fd5b6200049a600260008051602062002ded83398151915255565b7fe17a067c7963a59b6dfd65d33b053fdbea1c56500e2aae4f976d9eda4da9eb005460ff1615620004de576040516302ca8ced60e11b815260040160405180910390fd5b620003a48262000a43565b6001600160a01b03811660009081527f06bd04a817647c31ee485c8a0baab96facd62dbfd4b475796bb17ca2c12f00016020526040812054620003fc565b846001600160a01b03163b60000362000553576040516302f3d00b60e01b815260040160405180910390fd5b836001600160a01b03163b6000036200057f576040516302f3d00b60e01b815260040160405180910390fd5b826001600160a01b03163b600003620005ab576040516302f3d00b60e01b815260040160405180910390fd5b60008051602062002e0d83398151915280546001600160a01b03199081166001600160a01b03978816179091557f9e34afa7b4d27d347d25d9d9dab4f1a106fa081382e6c4243e834d093e787d0180548216958716959095179094557f9e34afa7b4d27d347d25d9d9dab4f1a106fa081382e6c4243e834d093e787d0280548516938616939093179092557f9e34afa7b4d27d347d25d9d9dab4f1a106fa081382e6c4243e834d093e787d05805484169185169190911790557f9e34afa7b4d27d347d25d9d9dab4f1a106fa081382e6c4243e834d093e787d0680549092169216919091179055565b60008051602062002e0d833981519152805460408051631d5e528f60e21b815290516000937f06bd04a817647c31ee485c8a0baab96facd62dbfd4b475796bb17ca2c12f000093909285926001600160a01b03909216916375794a3c916004808201926020929091908290030181865afa15801562000717573d6000803e3d6000fd5b505050506040513d601f19601f820116820180604052508101906200073d919062001e12565b90506200074f81866040015162000b17565b8354909450836000620007628362001e2c565b90915550506000818152600284016020908152604080832080546001600160a01b0319166001600160a01b03898116918217909255845260018701835292819020849055845488519289015160808a015160a08b01519351630efd6e3d60e21b81529290951694633bf5b8f494620007e39490938b92919060040162001ea8565b6020604051808303816000875af115801562000803573d6000803e3d6000fd5b505050506040513d601f19601f8201168201806040525081019062000829919062001e12565b50600182015460009062000847906001600160a01b03168662000b41565b600284015490915060009062000867906001600160a01b03168762000b41565b60408051600280825260608201835292935060009290916020830190803683370190505090508281600081518110620008a457620008a462001f18565b60200260200101906001600160a01b031690816001600160a01b0316815250508181600181518110620008db57620008db62001f18565b6001600160a01b039283166020918202929092010152604051638bfc820f60e01b815290881690638bfc820f906200091890849060040162001f2e565b600060405180830381600087803b1580156200093357600080fd5b505af115801562000948573d6000803e3d6000fd5b50505050620009628784848b604001516020015162000bfe565b5060408089015180515191015160009162000981918a91908762001004565b90506200099488828b6060015162001194565b8554604051632142170760e11b8152306004820152336024820152604481018790526001600160a01b03909116906342842e0e90606401600060405180830381600087803b158015620009e657600080fd5b505af1158015620009fb573d6000803e3d6000fd5b50506040516001600160a01b038b16925087915033907fe50fc3942f8a2d7e5a7c8fb9488499eba5255b41e18bc3f1b4791402976d1d0b90600090a450505050505050919050565b6040805160c08101825282515181528251602090810151818301528301518183015282820151606080830191909152835190920151608082015282519091015160a082015260009062000a968162000694565b6060840151519092501562000b11576060830151516040516306499d7f60e01b81526001600160a01b038416916306499d7f91349162000adc9160040190815260200190565b6000604051808303818588803b15801562000af657600080fd5b505af115801562000b0b573d6000803e3d6000fd5b50505050505b50919050565b600080600062000b28858562001295565b9150915062000b38828262001443565b95945050505050565b6000806040518060200162000b569062001550565b601f1982820381018352601f9091011660408190526001600160a01b0385166024820152859060440160408051601f19818403018152918152602080830180516001600160e01b031663189acdbd60e31b179052905162000bba9392910162001f7d565b60408051601f198184030181529082905262000bda929160200162001fa3565b604051602081830303815290604052905062000bf68162001469565b949350505050565b604080516001808252818301909252600091829190816020015b606081526020019060019003908162000c18579050509050604051806040016040528060098152602001684a6f696e537061636560b81b8152508160008151811062000c685762000c6862001f18565b6020026020010181905250856001600160a01b0316638fcd793d6040518060400160405280600681526020016526b4b73a32b960d11b8152508360006001600160401b0381111562000cbe5762000cbe620015fe565b60405190808252806020026020018201604052801562000d0657816020015b60408051808201909152600081526060602082015281526020019060019003908162000cdd5790505b506040518463ffffffff1660e01b815260040162000d279392919062001fff565b6020604051808303816000875af115801562000d47573d6000803e3d6000fd5b505050506040513d601f19601f8201168201806040525081019062000d6d919062001e12565b83519092501562000e7b576040805160018082528183019092526000916020808301908036833701905050905060018160008151811062000db25762000db262001f18565b60200260200101906001600160a01b031690816001600160a01b031681525050866001600160a01b031663ba201ba88460405180604001604052808a6001600160a01b031681526020018560405160200162000e0f919062001f2e565b6040516020818303038152906040528152506040518363ffffffff1660e01b815260040162000e40929190620020d1565b600060405180830381600087803b15801562000e5b57600080fd5b505af115801562000e70573d6000803e3d6000fd5b505050505062000ffb565b6020830151511562000f745760005b83602001515181101562000ecc5762000ec38460200151828151811062000eb55762000eb562001f18565b60200260200101516200148e565b60010162000e8a565b50856001600160a01b031663ba201ba8836040518060400160405280896001600160a01b03168152602001876020015160405160200162000f0e919062001f2e565b6040516020818303038152906040528152506040518363ffffffff1660e01b815260040162000f3f929190620020d1565b600060405180830381600087803b15801562000f5a57600080fd5b505af115801562000f6f573d6000803e3d6000fd5b505050505b6040830151511562000ffb576040805180820182526001600160a01b0386811682528583015160208301529151631744037560e31b81529188169163ba201ba89162000fc691869190600401620020d1565b600060405180830381600087803b15801562000fe157600080fd5b505af115801562000ff6573d6000803e3d6000fd5b505050505b50949350505050565b6040805160018082528183019092526000918291906020808301908036833701905050905060018160008151811062001041576200104162001f18565b6001600160a01b039290921660209283029190910190910152604080516001808252818301909252600091816020015b604080518082019091526000815260606020820152815260200190600190039081620010715790505090508381600081518110620010b357620010b362001f18565b6020908102919091018101516001600160a01b03909216909152604051620010de9184910162001f2e565b6040516020818303038152906040528160008151811062001103576200110362001f18565b6020908102919091018101510152604051638fcd793d60e01b81526001600160a01b03881690638fcd793d90620011439089908990869060040162001fff565b6020604051808303816000875af115801562001163573d6000803e3d6000fd5b505050506040513d601f19601f8201168201806040525081019062001189919062001e12565b979650505050505050565b604080516001808252818301909252600091602080830190803683370190505090508281600081518110620011cd57620011cd62001f18565b602090810291909101810191909152604051600160fd1b918101919091526bffffffffffffffffffffffff19606086901b1660218201526000906035016040516020818303038152906040526200122490620020ec565b835160405163921f717560e01b81529192506001600160a01b0387169163921f7175916200125a91859190879060040162002111565b600060405180830381600087803b1580156200127557600080fd5b505af11580156200128a573d6000803e3d6000fd5b505050505050505050565b60606000620012ad83600001516101000151620014b9565b600060008051602062002e0d83398151915254604080513360208201529081018790524260608201526001600160a01b03909116915060800160408051601f198184030181529190528051602090910120845160c0810151919350906001600160a01b03166200131e573360c08201525b7f9e34afa7b4d27d347d25d9d9dab4f1a106fa081382e6c4243e834d093e787d06546040516001600160a01b03909116906200135d602082016200155e565b601f19828203810183526040601f90920116818101825263dc9cc64560e01b8082523060208381018290528451808601865292835282810191909152835180850185526001600160a01b03891681529081018c9052925191928592620013cc9233929091899060240162002194565b60408051601f19818403018152918152602080830180516001600160e01b0316631832c67760e21b179052905162001408949392910162002284565b60408051601f198184030181529082905262001428929160200162001fa3565b60405160208183030381529060405294505050509250929050565b60008260200183518381836000f59250505080620003fc5763ef35ca196000526004601cfd5b600081602001825180826000f09250505080620003bf5763ef35ca196000526004601cfd5b6001600160a01b038116620014b6576040516302e47d1560e41b815260040160405180910390fd5b50565b6001600160a01b0381161580620014d85750620014d681620014f7565b155b15620014b657604051637e4248fd60e11b815260040160405180910390fd5b60007f6438323c68a77f029335e6433efb7c07e7cd1775df0c27e75bcd3591a8bc5d006200152681846200152d565b9392505050565b6001600160a01b0381166000908152600183016020526040812054151562001526565b6103d480620022ba83390190565b61075f806200268e83390190565b6001600160a01b0381168114620014b657600080fd5b600080600080600060a086880312156200159b57600080fd5b8535620015a8816200156c565b94506020860135620015ba816200156c565b93506040860135620015cc816200156c565b92506060860135620015de816200156c565b91506080860135620015f0816200156c565b809150509295509295909350565b634e487b7160e01b600052604160045260246000fd5b604051606081016001600160401b0381118282101715620016395762001639620015fe565b60405290565b60405161012081016001600160401b0381118282101715620016395762001639620015fe565b604051602081016001600160401b0381118282101715620016395762001639620015fe565b60405160c081016001600160401b0381118282101715620016395762001639620015fe565b604051608081016001600160401b0381118282101715620016395762001639620015fe565b604051601f8201601f191681016001600160401b0381118282101715620016ff57620016ff620015fe565b604052919050565b600082601f8301126200171957600080fd5b81356001600160401b03811115620017355762001735620015fe565b6200174a601f8201601f1916602001620016d4565b8181528460208386010111156200176057600080fd5b816020850160208301376000918101602001919091529392505050565b80356001600160401b0381168114620003bf57600080fd5b8035620003bf816200156c565b60006001600160401b03821115620017be57620017be620015fe565b5060051b60200190565b600060608284031215620017db57600080fd5b620017e562001614565b905081358015158114620017f857600080fd5b81526020828101356001600160401b03808211156200181657600080fd5b818501915085601f8301126200182b57600080fd5b8135620018426200183c82620017a2565b620016d4565b81815260059190911b830184019084810190888311156200186257600080fd5b938501935b828510156200188d5784356200187d816200156c565b8252938501939085019062001867565b80868801525050506040850135925080831115620018aa57600080fd5b5050620018ba8482850162001707565b60408301525092915050565b600082601f830112620018d857600080fd5b81356020620018eb6200183c83620017a2565b82815260059290921b840181019181810190868411156200190b57600080fd5b8286015b848110156200194f5780356001600160401b03811115620019305760008081fd5b620019408986838b010162001707565b8452509183019183016200190f565b509695505050505050565b6000606082840312156200196d57600080fd5b6200197762001614565b905081356001600160401b03808211156200199157600080fd5b908301906101208286031215620019a757600080fd5b620019b16200163f565b823582811115620019c157600080fd5b620019cf8782860162001707565b825250602083013582811115620019e557600080fd5b620019f38782860162001707565b602083015250604083013560408201526060830135606082015262001a1b608084016200177d565b608082015262001a2e60a0840162001795565b60a082015262001a4160c0840162001795565b60c082015260e083013560e082015261010062001a6081850162001795565b908201528352602084013591508082111562001a7b57600080fd5b62001a8985838601620017c8565b6020840152604084013591508082111562001aa357600080fd5b50620018ba84828501620018c6565b60006020828403121562001ac557600080fd5b62001acf62001665565b905081356001600160401b0381111562001ae857600080fd5b62001af68482850162001707565b82525092915050565b60006020828403121562001b1257600080fd5b81356001600160401b038082111562001b2a57600080fd5b9083019060c0828603121562001b3f57600080fd5b62001b496200168a565b82358281111562001b5957600080fd5b62001b678782860162001707565b82525060208301358281111562001b7d57600080fd5b62001b8b8782860162001707565b60208301525060408301358281111562001ba457600080fd5b62001bb2878286016200195a565b60408301525060608301358281111562001bcb57600080fd5b62001bd98782860162001ab2565b60608301525060808301358281111562001bf257600080fd5b62001c008782860162001707565b60808301525060a08301358281111562001c1957600080fd5b62001c278782860162001707565b60a08301525095945050505050565b60006020828403121562001c4957600080fd5b5035919050565b60006020828403121562001c6357600080fd5b62001c6d62001665565b9135825250919050565b60006020828403121562001c8a57600080fd5b81356001600160401b038082111562001ca257600080fd5b908301906080828603121562001cb757600080fd5b62001cc1620016af565b82358281111562001cd157600080fd5b83016080818803121562001ce457600080fd5b62001cee620016af565b81358481111562001cfe57600080fd5b62001d0c8982850162001707565b82525060208201358481111562001d2257600080fd5b62001d308982850162001707565b60208301525060408201358481111562001d4957600080fd5b62001d578982850162001707565b60408301525060608201358481111562001d7057600080fd5b62001d7e8982850162001707565b60608301525082525060208301358281111562001d9a57600080fd5b62001da8878286016200195a565b60208301525060408301358281111562001dc157600080fd5b62001dcf8782860162001ab2565b60408301525062001de4866060850162001c50565b606082015295945050505050565b60006020828403121562001e0557600080fd5b813562001526816200156c565b60006020828403121562001e2557600080fd5b5051919050565b60006001820162001e4d57634e487b7160e01b600052601160045260246000fd5b5060010190565b60005b8381101562001e7157818101518382015260200162001e57565b50506000910152565b6000815180845262001e9481602086016020860162001e54565b601f01601f19169290920160200192915050565b60a08152600062001ebd60a083018862001e7a565b828103602084015262001ed1818862001e7a565b6001600160a01b03871660408501528381036060850152905062001ef6818662001e7a565b9050828103608084015262001f0c818562001e7a565b98975050505050505050565b634e487b7160e01b600052603260045260246000fd5b6020808252825182820181905260009190848201906040850190845b8181101562001f715783516001600160a01b03168352928401929184019160010162001f4a565b50909695505050505050565b6001600160a01b038316815260406020820181905260009062000bf69083018462001e7a565b6000835162001fb781846020880162001e54565b83519083019062001fcd81836020880162001e54565b01949350505050565b60018060a01b038151168252600060208201516040602085015262000bf6604085018262001e7a565b60608152600062002014606083018662001e7a565b6020838203818501528186518084528284019150828160051b85010183890160005b838110156200206857601f198784030185526200205583835162001e7a565b9486019492509085019060010162002036565b50508681036040880152875180825284820195509250600583901b81018401915083880160005b84811015620020c157601f19838503018752620020ae84835162001fd6565b968601969350908501906001016200208f565b50919a9950505050505050505050565b82815260406020820152600062000bf6604083018462001fd6565b8051602080830151919081101562000b115760001960209190910360031b1b16919050565b83815260006020606060208401526200212e606084018662001e7a565b83810360408501528451808252602080870192019060005b81811015620021645783518352928401929184019160010162002146565b509098975050505050505050565b80516001600160e01b03191682526020908101516001600160a01b0316910152565b6001600160a01b038581168252600090620021b3602084018762002172565b808551166060840152506020840151608083015260c060a083015282516101208060c0850152620021e96101e085018362001e7a565b9150602085015160bf198584030160e086015262002208838262001e7a565b92505060408501516101008181870152606087015183870152608087015192506200223f6101408701846001600160401b03169052565b60a08701516001600160a01b0390811661016088015260c0880151811661018088015260e08801516101a0880152908701519081166101c087015291506200194f9050565b62002290818562002172565b6001600160a01b038316604082015260806060820181905260009062000b389083018462001e7a56fe60806040526040516103d43803806103d483398101604081905261002291610268565b61002c8282610033565b5050610352565b61003c82610092565b6040516001600160a01b038316907fbc7cd75a20ee27fd9adebab32041f755214dbc6bffa90cc0225b39da2e5c2d3b90600090a280511561008657610081828261010e565b505050565b61008e610185565b5050565b806001600160a01b03163b6000036100cd57604051634c9c8ce360e01b81526001600160a01b03821660048201526024015b60405180910390fd5b7f360894a13ba1a3210667c828492db98dca3e2076cc3735a920a3ca505d382bbc80546001600160a01b0319166001600160a01b0392909216919091179055565b6060600080846001600160a01b03168460405161012b9190610336565b600060405180830381855af49150503d8060008114610166576040519150601f19603f3d011682016040523d82523d6000602084013e61016b565b606091505b50909250905061017c8583836101a6565b95945050505050565b34156101a45760405163b398979f60e01b815260040160405180910390fd5b565b6060826101bb576101b682610205565b6101fe565b81511580156101d257506001600160a01b0384163b155b156101fb57604051639996b31560e01b81526001600160a01b03851660048201526024016100c4565b50805b9392505050565b8051156102155780518082602001fd5b604051630a12f52160e11b815260040160405180910390fd5b634e487b7160e01b600052604160045260246000fd5b60005b8381101561025f578181015183820152602001610247565b50506000910152565b6000806040838503121561027b57600080fd5b82516001600160a01b038116811461029257600080fd5b60208401519092506001600160401b03808211156102af57600080fd5b818501915085601f8301126102c357600080fd5b8151818111156102d5576102d561022e565b604051601f8201601f19908116603f011681019083821181831017156102fd576102fd61022e565b8160405282815288602084870101111561031657600080fd5b610327836020830160208801610244565b80955050505050509250929050565b60008251610348818460208701610244565b9190910192915050565b6074806103606000396000f3fe6080604052600a600c565b005b60186014601a565b6051565b565b6000604c7f360894a13ba1a3210667c828492db98dca3e2076cc3735a920a3ca505d382bbc546001600160a01b031690565b905090565b3660008037600080366000845af43d6000803e808015606f573d6000f35b3d6000fd608060405234801561001057600080fd5b5060405161075f38038061075f83398101604081905261002f91610259565b6100958380517f9c16cba5b9f2fcbd952b38bec34079e93cbe107475c15fc20705f4e704198a0080546020909301516001600160a01b03166001600160a01b031960e09390931c600160a01b02929092166001600160c01b031990931692909217179055565b61009f82826100a8565b50505050610366565b6060600080846001600160a01b0316846040516100c5919061034a565b600060405180830381855af49150503d8060008114610100576040519150601f19603f3d011682016040523d82523d6000602084013e610105565b606091505b50909250905061011685838361011f565b95945050505050565b6060826101345761012f82610182565b61017b565b815115801561014b57506001600160a01b0384163b155b1561017857604051639996b31560e01b81526001600160a01b038516600482015260240160405180910390fd5b50805b9392505050565b8051156101925780518082602001fd5b604051630a12f52160e11b815260040160405180910390fd5b634e487b7160e01b600052604160045260246000fd5b604080519081016001600160401b03811182821017156101e3576101e36101ab565b60405290565b604051601f8201601f191681016001600160401b0381118282101715610211576102116101ab565b604052919050565b80516001600160a01b038116811461023057600080fd5b919050565b60005b83811015610250578181015183820152602001610238565b50506000910152565b6000806000838503608081121561026f57600080fd5b604081121561027d57600080fd5b506102866101c1565b84516001600160e01b03198116811461029e57600080fd5b815260206102ad868201610219565b818301528194506102c060408701610219565b606087015190945091506001600160401b03808311156102df57600080fd5b828701925087601f8401126102f357600080fd5b825181811115610305576103056101ab565b610317601f8201601f191684016101e9565b9150808252888382860101111561032d57600080fd5b61033c81848401858701610235565b508093505050509250925092565b6000825161035c818460208701610235565b9190910192915050565b6103ea806103756000396000f3fe6080604052600436106100225760003560e01c8063ac9650d81461003357610029565b3661002957005b610031610069565b005b34801561003f57600080fd5b5061005361004e36600461028b565b6100c4565b6040516100609190610324565b60405180910390f35b6000610073610145565b9050806001600160a01b03163b6000036100a0576040516321f27f0d60e21b815260040160405180910390fd5b3660008037600080366000845af43d6000803e8080156100bf573d6000f35b3d6000fd5b6060602060005281602052816100da5760406000f35b60408260051b8085604037818101905b82518601604082018135602083018237600038833583305af4610111573d6000803e3d6000fd5b8285526020850194503d81523d6000602083013e50503d01603f0167ffffffffffffffe0168183106100ea57604081016000f35b7f9c16cba5b9f2fcbd952b38bec34079e93cbe107475c15fc20705f4e704198a0054600090600160a01b900460e01b81806101a77f9c16cba5b9f2fcbd952b38bec34079e93cbe107475c15fc20705f4e704198a00546001600160a01b031690565b6040516001600160e01b03196000351660248201526001600160a01b039190911690849060440160408051601f198184030181529181526020820180516001600160e01b03166001600160e01b031990941693909317909252905161020c919061039e565b600060405180830381855afa9150503d8060008114610247576040519150601f19603f3d011682016040523d82523d6000602084013e61024c565b606091505b50915091508161026f5760405163391aa44560e01b815260040160405180910390fd5b8080602001905181019061028391906103ba565b935050505090565b6000806020838503121561029e57600080fd5b823567ffffffffffffffff808211156102b657600080fd5b818501915085601f8301126102ca57600080fd5b8135818111156102d957600080fd5b8660208260051b85010111156102ee57600080fd5b60209290920196919550909350505050565b60005b8381101561031b578181015183820152602001610303565b50506000910152565b6000602080830181845280855180835260408601915060408160051b870101925083870160005b8281101561039157878503603f1901845281518051808752610372818989018a8501610300565b601f01601f19169590950186019450928501929085019060010161034b565b5092979650505050505050565b600082516103b0818460208701610300565b9190910192915050565b6000602082840312156103cc57600080fd5b81516001600160a01b03811681146103e357600080fd5b93925050505654f22f54f370bd020e00ee80e1a5099a71652e2ccbcf6a75281e4c70a3e11a009e34afa7b4d27d347d25d9d9dab4f1a106fa081382e6c4243e834d093e787d00","linkReferences":{}},"methodIdentifiers":{"__Architect_init(address,address,address,address,address)":"79cba28a","createSpace((string,string,((string,string,uint256,uint256,uint64,address,address,uint256,address),(bool,address[],bytes),string[]),(string),string,string))":"54b93de5","createSpaceWithPrepay(((string,string,string,string),((string,string,uint256,uint256,uint64,address,address,uint256,address),(bool,address[],bytes),string[]),(string),(uint256)))":"c07ed896","getSpaceArchitectImplementations()":"545efb2d","getSpaceByTokenId(uint256)":"673f0dd5","getTokenIdBySpace(address)":"c0bc6796","setSpaceArchitectImplementations(address,address,address,address,address)":"343852cb"},"id":185}