{"abi":[{"type":"function","name":"addRoleToChannel","inputs":[{"name":"channelId","type":"bytes32","internalType":"bytes32"},{"name":"roleId","type":"uint256","internalType":"uint256"}],"outputs":[],"stateMutability":"nonpayable"},{"type":"function","name":"createChannel","inputs":[{"name":"channelId","type":"bytes32","internalType":"bytes32"},{"name":"metadata","type":"string","internalType":"string"},{"name":"roleIds","type":"uint256[]","internalType":"uint256[]"}],"outputs":[],"stateMutability":"nonpayable"},{"type":"function","name":"createChannelWithOverridePermissions","inputs":[{"name":"channelId","type":"bytes32","internalType":"bytes32"},{"name":"metadata","type":"string","internalType":"string"},{"name":"rolePermissions","type":"tuple[]","internalType":"struct IChannelBase.RolePermissions[]","components":[{"name":"roleId","type":"uint256","internalType":"uint256"},{"name":"permissions","type":"string[]","internalType":"string[]"}]}],"outputs":[],"stateMutability":"nonpayable"},{"type":"function","name":"getChannel","inputs":[{"name":"channelId","type":"bytes32","internalType":"bytes32"}],"outputs":[{"name":"channel","type":"tuple","internalType":"struct IChannelBase.Channel","components":[{"name":"id","type":"bytes32","internalType":"bytes32"},{"name":"disabled","type":"bool","internalType":"bool"},{"name":"metadata","type":"string","internalType":"string"},{"name":"roleIds","type":"uint256[]","internalType":"uint256[]"}]}],"stateMutability":"view"},{"type":"function","name":"getChannels","inputs":[],"outputs":[{"name":"channels","type":"tuple[]","internalType":"struct IChannelBase.Channel[]","components":[{"name":"id","type":"bytes32","internalType":"bytes32"},{"name":"disabled","type":"bool","internalType":"bool"},{"name":"metadata","type":"string","internalType":"string"},{"name":"roleIds","type":"uint256[]","internalType":"uint256[]"}]}],"stateMutability":"view"},{"type":"function","name":"getRolesByChannel","inputs":[{"name":"channelId","type":"bytes32","internalType":"bytes32"}],"outputs":[{"name":"roleIds","type":"uint256[]","internalType":"uint256[]"}],"stateMutability":"view"},{"type":"function","name":"removeChannel","inputs":[{"name":"channelId","type":"bytes32","internalType":"bytes32"}],"outputs":[],"stateMutability":"nonpayable"},{"type":"function","name":"removeRoleFromChannel","inputs":[{"name":"channelId","type":"bytes32","internalType":"bytes32"},{"name":"roleId","type":"uint256","internalType":"uint256"}],"outputs":[],"stateMutability":"nonpayable"},{"type":"function","name":"updateChannel","inputs":[{"name":"channelId","type":"bytes32","internalType":"bytes32"},{"name":"metadata","type":"string","internalType":"string"},{"name":"disabled","type":"bool","internalType":"bool"}],"outputs":[],"stateMutability":"nonpayable"},{"type":"event","name":"Approval","inputs":[{"name":"owner","type":"address","indexed":true,"internalType":"address"},{"name":"approved","type":"address","indexed":true,"internalType":"address"},{"name":"tokenId","type":"uint256","indexed":true,"internalType":"uint256"}],"anonymous":false},{"type":"event","name":"ApprovalForAll","inputs":[{"name":"owner","type":"address","indexed":true,"internalType":"address"},{"name":"operator","type":"address","indexed":true,"internalType":"address"},{"name":"approved","type":"bool","indexed":false,"internalType":"bool"}],"anonymous":false},{"type":"event","name":"Banned","inputs":[{"name":"moderator","type":"address","indexed":true,"internalType":"address"},{"name":"tokenId","type":"uint256","indexed":true,"internalType":"uint256"}],"anonymous":false},{"type":"event","name":"ChannelCreated","inputs":[{"name":"caller","type":"address","indexed":true,"internalType":"address"},{"name":"channelId","type":"bytes32","indexed":false,"internalType":"bytes32"}],"anonymous":false},{"type":"event","name":"ChannelRemoved","inputs":[{"name":"caller","type":"address","indexed":true,"internalType":"address"},{"name":"channelId","type":"bytes32","indexed":false,"internalType":"bytes32"}],"anonymous":false},{"type":"event","name":"ChannelRoleAdded","inputs":[{"name":"caller","type":"address","indexed":true,"internalType":"address"},{"name":"channelId","type":"bytes32","indexed":false,"internalType":"bytes32"},{"name":"roleId","type":"uint256","indexed":false,"internalType":"uint256"}],"anonymous":false},{"type":"event","name":"ChannelRoleRemoved","inputs":[{"name":"caller","type":"address","indexed":true,"internalType":"address"},{"name":"channelId","type":"bytes32","indexed":false,"internalType":"bytes32"},{"name":"roleId","type":"uint256","indexed":false,"internalType":"uint256"}],"anonymous":false},{"type":"event","name":"ChannelUpdated","inputs":[{"name":"caller","type":"address","indexed":true,"internalType":"address"},{"name":"channelId","type":"bytes32","indexed":false,"internalType":"bytes32"}],"anonymous":false},{"type":"event","name":"ConsecutiveTransfer","inputs":[{"name":"fromTokenId","type":"uint256","indexed":true,"internalType":"uint256"},{"name":"toTokenId","type":"uint256","indexed":false,"internalType":"uint256"},{"name":"from","type":"address","indexed":true,"internalType":"address"},{"name":"to","type":"address","indexed":true,"internalType":"address"}],"anonymous":false},{"type":"event","name":"Initialized","inputs":[{"name":"version","type":"uint32","indexed":false,"internalType":"uint32"}],"anonymous":false},{"type":"event","name":"InterfaceAdded","inputs":[{"name":"interfaceId","type":"bytes4","indexed":true,"internalType":"bytes4"}],"anonymous":false},{"type":"event","name":"InterfaceRemoved","inputs":[{"name":"interfaceId","type":"bytes4","indexed":true,"internalType":"bytes4"}],"anonymous":false},{"type":"event","name":"OwnershipTransferred","inputs":[{"name":"previousOwner","type":"address","indexed":true,"internalType":"address"},{"name":"newOwner","type":"address","indexed":true,"internalType":"address"}],"anonymous":false},{"type":"event","name":"Paused","inputs":[{"name":"account","type":"address","indexed":false,"internalType":"address"}],"anonymous":false},{"type":"event","name":"PermissionsAddedToChannelRole","inputs":[{"name":"updater","type":"address","indexed":true,"internalType":"address"},{"name":"roleId","type":"uint256","indexed":true,"internalType":"uint256"},{"name":"channelId","type":"bytes32","indexed":true,"internalType":"bytes32"}],"anonymous":false},{"type":"event","name":"PermissionsRemovedFromChannelRole","inputs":[{"name":"updater","type":"address","indexed":true,"internalType":"address"},{"name":"roleId","type":"uint256","indexed":true,"internalType":"uint256"},{"name":"channelId","type":"bytes32","indexed":true,"internalType":"bytes32"}],"anonymous":false},{"type":"event","name":"PermissionsUpdatedForChannelRole","inputs":[{"name":"updater","type":"address","indexed":true,"internalType":"address"},{"name":"roleId","type":"uint256","indexed":true,"internalType":"uint256"},{"name":"channelId","type":"bytes32","indexed":true,"internalType":"bytes32"}],"anonymous":false},{"type":"event","name":"RoleCreated","inputs":[{"name":"creator","type":"address","indexed":true,"internalType":"address"},{"name":"roleId","type":"uint256","indexed":true,"internalType":"uint256"}],"anonymous":false},{"type":"event","name":"RoleRemoved","inputs":[{"name":"remover","type":"address","indexed":true,"internalType":"address"},{"name":"roleId","type":"uint256","indexed":true,"internalType":"uint256"}],"anonymous":false},{"type":"event","name":"RoleUpdated","inputs":[{"name":"updater","type":"address","indexed":true,"internalType":"address"},{"name":"roleId","type":"uint256","indexed":true,"internalType":"uint256"}],"anonymous":false},{"type":"event","name":"SubscriptionUpdate","inputs":[{"name":"tokenId","type":"uint256","indexed":true,"internalType":"uint256"},{"name":"expiration","type":"uint64","indexed":false,"internalType":"uint64"}],"anonymous":false},{"type":"event","name":"Transfer","inputs":[{"name":"from","type":"address","indexed":true,"internalType":"address"},{"name":"to","type":"address","indexed":true,"internalType":"address"},{"name":"tokenId","type":"uint256","indexed":true,"internalType":"uint256"}],"anonymous":false},{"type":"event","name":"Unbanned","inputs":[{"name":"moderator","type":"address","indexed":true,"internalType":"address"},{"name":"tokenId","type":"uint256","indexed":true,"internalType":"uint256"}],"anonymous":false},{"type":"event","name":"Unpaused","inputs":[{"name":"account","type":"address","indexed":false,"internalType":"address"}],"anonymous":false},{"type":"error","name":"ApprovalCallerNotOwnerNorApproved","inputs":[]},{"type":"error","name":"ApprovalQueryForNonexistentToken","inputs":[]},{"type":"error","name":"BalanceQueryForZeroAddress","inputs":[]},{"type":"error","name":"Banning__AlreadyBanned","inputs":[{"name":"tokenId","type":"uint256","internalType":"uint256"}]},{"type":"error","name":"Banning__CannotBanOwner","inputs":[]},{"type":"error","name":"Banning__CannotBanSelf","inputs":[]},{"type":"error","name":"Banning__InvalidTokenId","inputs":[{"name":"tokenId","type":"uint256","internalType":"uint256"}]},{"type":"error","name":"Banning__NotBanned","inputs":[{"name":"tokenId","type":"uint256","internalType":"uint256"}]},{"type":"error","name":"ChannelService__ChannelAlreadyExists","inputs":[]},{"type":"error","name":"ChannelService__ChannelDisabled","inputs":[]},{"type":"error","name":"ChannelService__ChannelDoesNotExist","inputs":[]},{"type":"error","name":"ChannelService__RoleAlreadyExists","inputs":[]},{"type":"error","name":"ChannelService__RoleDoesNotExist","inputs":[]},{"type":"error","name":"ERC5643__DurationZero","inputs":[]},{"type":"error","name":"ERC5643__InvalidTokenId","inputs":[{"name":"tokenId","type":"uint256","internalType":"uint256"}]},{"type":"error","name":"ERC5643__NotApprovedOrOwner","inputs":[]},{"type":"error","name":"ERC5643__SubscriptionNotRenewable","inputs":[{"name":"tokenId","type":"uint256","internalType":"uint256"}]},{"type":"error","name":"Entitlement__InvalidValue","inputs":[]},{"type":"error","name":"Entitlement__NotAllowed","inputs":[]},{"type":"error","name":"Entitlement__NotMember","inputs":[]},{"type":"error","name":"Entitlement__ValueAlreadyExists","inputs":[]},{"type":"error","name":"Initializable_InInitializingState","inputs":[]},{"type":"error","name":"Introspection_AlreadySupported","inputs":[]},{"type":"error","name":"Introspection_NotSupported","inputs":[]},{"type":"error","name":"MintERC2309QuantityExceedsLimit","inputs":[]},{"type":"error","name":"MintToZeroAddress","inputs":[]},{"type":"error","name":"MintZeroQuantity","inputs":[]},{"type":"error","name":"Ownable__NotOwner","inputs":[{"name":"account","type":"address","internalType":"address"}]},{"type":"error","name":"Ownable__ZeroAddress","inputs":[]},{"type":"error","name":"OwnerQueryForNonexistentToken","inputs":[]},{"type":"error","name":"OwnershipNotInitializedForExtraData","inputs":[]},{"type":"error","name":"Pausable__NotPaused","inputs":[]},{"type":"error","name":"Pausable__Paused","inputs":[]},{"type":"error","name":"Roles__EntitlementAlreadyExists","inputs":[]},{"type":"error","name":"Roles__EntitlementDoesNotExist","inputs":[]},{"type":"error","name":"Roles__InvalidEntitlementAddress","inputs":[]},{"type":"error","name":"Roles__InvalidPermission","inputs":[]},{"type":"error","name":"Roles__PermissionAlreadyExists","inputs":[]},{"type":"error","name":"Roles__PermissionDoesNotExist","inputs":[]},{"type":"error","name":"Roles__RoleDoesNotExist","inputs":[]},{"type":"error","name":"TransferCallerNotOwnerNorApproved","inputs":[]},{"type":"error","name":"TransferFromIncorrectOwner","inputs":[]},{"type":"error","name":"TransferToNonERC721ReceiverImplementer","inputs":[]},{"type":"error","name":"TransferToZeroAddress","inputs":[]},{"type":"error","name":"URIQueryForNonexistentToken","inputs":[]},{"type":"error","name":"Validator__InvalidStringLength","inputs":[]}],"bytecode":{"object":"0x60806040523480156200001157600080fd5b506200001c62000022565b620000ca565b7f59b501c3653afc186af7d48dda36cf6732bd21629a6295693664240a6ef520008054640100000000900460ff16156200006f576040516366008a2d60e01b815260040160405180910390fd5b805463ffffffff9081161015620000c757805463ffffffff191663ffffffff90811782556040519081527fe9c9b456cb2994b80aeef036cf59d26e9617df80f816a6ee5a5b4166e07e2f5c9060200160405180910390a15b50565b6126e280620000da6000396000f3fe608060405234801561001057600080fd5b50600436106100935760003560e01c8063921f717511610066578063921f7175146100fc5780639575f6ac1461010f5780639935218314610124578063b9de615914610144578063ef86d6961461015757600080fd5b806302da0e511461009857806337644cf7146100ad5780635a2dce7a146100c0578063831c2b82146100d3575b600080fd5b6100ab6100a6366004611deb565b61016a565b005b6100ab6100bb366004611e04565b6101a8565b6100ab6100ce366004611edb565b6101e9565b6100e66100e1366004611deb565b610349565b6040516100f39190612035565b60405180910390f35b6100ab61010a36600461206b565b61037b565b6101176103bd565b6040516100f39190612132565b610137610132366004611deb565b6103cc565b6040516100f39190612196565b6100ab610152366004611e04565b6103d7565b6100ab6101653660046121e8565b610414565b61019c6040518060400160405280601181526020017041646452656d6f76654368616e6e656c7360781b815250610451565b6101a581610479565b50565b6101db826040518060400160405280601181526020017041646452656d6f76654368616e6e656c7360781b8152506104ba565b6101e582826104e1565b5050565b61021b6040518060400160405280601181526020017041646452656d6f76654368616e6e656c7360781b815250610451565b6000816001600160401b0381111561023557610235611e26565b60405190808252806020026020018201604052801561025e578160200160208202803683370190505b50905060005b828110156102b95783838281811061027e5761027e612242565b90506020028101906102909190612258565b600001358282815181106102a6576102a6612242565b6020908102919091010152600101610264565b506102c585858361052b565b60005b82811015610341576103398484838181106102e5576102e5612242565b90506020028101906102f79190612258565b358786868581811061030b5761030b612242565b905060200281019061031d9190612258565b61032b906020810190612278565b610334916122c8565b61057c565b6001016102c8565b505050505050565b604080516080810182526000808252602082015260609181018290528181019190915261037582610718565b92915050565b6103ad6040518060400160405280601181526020017041646452656d6f76654368616e6e656c7360781b815250610451565b6103b883838361052b565b505050565b60606103c761077f565b905090565b6060610375826108b6565b61040a826040518060400160405280601181526020017041646452656d6f76654368616e6e656c7360781b8152506104ba565b6101e582826108c1565b6104466040518060400160405280601181526020017041646452656d6f76654368616e6e656c7360781b815250610451565b6103b8838383610903565b61045c600082610940565b6101a557604051630ce39a4b60e21b815260040160405180910390fd5b610482816109c4565b60405181815233907f3a3f387aa42656bc1732adfc7aea5cde9ccc05a59f9af9c29ebfa68e66383e939060200160405180910390a250565b6104c48282610940565b6101e557604051630ce39a4b60e21b815260040160405180910390fd5b6104eb8282610abb565b604080518381526020810183905233917f2b10481523b59a7978f8ab73b237349b0f38c801f6094bdc8994d379c067d71391015b60405180910390a25050565b610536826000610b4c565b610541838383610b70565b60405183815233907fdd6c5b83be3557f8b2674712946f9f05dcd882b82bfd58b9539b9706efd35d8c906020015b60405180910390a2505050565b61058582610caa565b61058e83610ce1565b60008381527f672ef851d5f92307da037116e23aa9e31af7e1f7e3ca62c4e6d540631df3fd04602052604090207f672ef851d5f92307da037116e23aa9e31af7e1f7e3ca62c4e6d540631df3fd00906105e79084610d28565b506000848152600582016020908152604080832086845290915281209061060d82610d3b565b111561066757600061061e82610d45565b805190915060005b818110156106635761065a83828151811061064357610643612242565b602002602001015185610d5090919063ffffffff16565b50600101610626565b5050505b825180156106d75760005b818110156106d15761069c85828151811061068f5761068f612242565b6020026020010151610d5c565b6106c88582815181106106b1576106b1612242565b602002602001015184610d7d90919063ffffffff16565b50600101610672565b506106e1565b6106e18686610d89565b6040518590879033907f38ef31503bf60258feeceab5e2c3778cf74be2a8fbcc150d209ca96cd3c9855390600090a4505050505050565b604080516080810182526000808252602082015260609181018290528181019190915260008061074784610e7f565b9250925050600061075785610f9f565b6040805160808101825296875292151560208701529185019290925260608401525090919050565b6060600061078b610ff0565b9050600081516001600160401b038111156107a8576107a8611e26565b6040519080825280602002602001820160405280156107fc57816020015b60408051608081018252600080825260208201526060918101829052818101919091528152602001906001900390816107c65790505b50905060005b82518110156108af57600080600061083286858151811061082557610825612242565b6020026020010151610e7f565b925092509250600061085c87868151811061084f5761084f612242565b6020026020010151610f9f565b9050604051806080016040528085815260200183151581526020018481526020018281525086868151811061089357610893612242565b6020026020010181905250505050508080600101915050610802565b5092915050565b606061037582610f9f565b6108cb8282611010565b604080518381526020810183905233917faee688d80dbf97230e5d2b4b06aa7074bfe38ddd8abf856551177db303956129910161051f565b61090e8383836110a0565b60405183815233907f94af4a611b3fb1eaa653a6b29f82b71bcea25ca378171c5f059010fa18e0716e9060200161056f565b6000338061094c611155565b6001600160a01b031614806109bc57507fe17a067c7963a59b6dfd65d33b053fdbea1c56500e2aae4f976d9eda4da9eb005460ff161580156109bc57506109bc84828560405160200161099f919061233b565b6040516020818303038152906040526109b79061234d565b6111ec565b949350505050565b6109cd81610caa565b6000805160206126c28339815191526109e68183611465565b506040805160208082018352600080835285815260028086019092529290922090910190610a1490826123ed565b50600082815260028083016020526040822060018101805460ff191690558281559190610a4390830182611d9d565b505060008281526003820160205260408120610a5e90611471565b905060005b8151811015610ab557610aac828281518110610a8157610a81612242565b602002602001015184600301600087815260200190815260200160002061146590919063ffffffff16565b50600101610a63565b50505050565b610ac482610caa565b610acd8261147e565b60008281527f804ad633258ac9b908ae115a2763b3f6e04be3b1165402c872b25af518504303602052604090206000805160206126c283398151915290610b1490836114e0565b15610b32576040516302369ff360e41b815260040160405180910390fd5b60008381526003820160205260409020610ab59083610d28565b815182908211156103b8576040516374eb20a760e01b815260040160405180910390fd5b610b79836114f8565b6000805160206126c2833981519152610b928185610d28565b50604080516060810182528581526000602080830182815283850188815289845260028781019093529490922083518155915160018301805460ff191691151591909117905592519192909190820190610bec90826123ed565b5090505060005b8251811015610ca357610c3c838281518110610c1157610c11612242565b60200260200101518360030160008881526020019081526020016000206114e090919063ffffffff16565b15610c5a576040516302369ff360e41b815260040160405180910390fd5b610c9a838281518110610c6f57610c6f612242565b6020026020010151836003016000888152602001908152602001600020610d2890919063ffffffff16565b50600101610bf3565b5050505050565b610cc4816000805160206126c28339815191525b906114e0565b6101a55760405163560b4b4160e11b815260040160405180910390fd5b610d0b7f672ef851d5f92307da037116e23aa9e31af7e1f7e3ca62c4e6d540631df3fd01826114e0565b6101a55760405163a3f70f7b60e01b815260040160405180910390fd5b6000610d34838361152e565b9392505050565b6000610375825490565b60606103758261157d565b6000610d34838361165a565b80516000036101a55760405162ce76c160e41b815260040160405180910390fd5b6000610d348383611819565b610d9282610ce1565b610d9b81610caa565b60008281527f672ef851d5f92307da037116e23aa9e31af7e1f7e3ca62c4e6d540631df3fd056020908152604080832084845290915281207f672ef851d5f92307da037116e23aa9e31af7e1f7e3ca62c4e6d540631df3fd0091610dfe82610d45565b805190915060005b81811015610e2c57610e2383828151811061064357610643612242565b50600101610e06565b5060008681526004850160205260409020610e479086611465565b506040518590879033907f07439707c74b686d8e4d3f3226348eac82205e6dffd780ac4c555a4c2dc9d86c90600090a4505050505050565b600060606000610e8e84610caa565b60008481527f804ad633258ac9b908ae115a2763b3f6e04be3b1165402c872b25af51850430260209081526040808320815160608101835281548152600182015460ff161515938101939093526002810180546000805160206126c283398151915295949384019190610f0090612371565b80601f0160208091040260200160405190810160405280929190818152602001828054610f2c90612371565b8015610f795780601f10610f4e57610100808354040283529160200191610f79565b820191906000526020600020905b815481529060010190602001808311610f5c57829003601f168201915b505050919092525050815160408301516020909301519099929850965090945050505050565b6060610faa82610caa565b60008281527f804ad633258ac9b908ae115a2763b3f6e04be3b1165402c872b25af518504303602052604090206000805160206126c283398151915290610d3490611471565b60606000805160206126c283398151915261100a81611471565b91505090565b61101982610caa565b6110228261147e565b60008281527f804ad633258ac9b908ae115a2763b3f6e04be3b1165402c872b25af518504303602052604090206000805160206126c28339815191529061106990836114e0565b611086576040516333cb039f60e11b815260040160405180910390fd5b60008381526003820160205260409020610ab59083611465565b6110a983610caa565b60008381527f804ad633258ac9b908ae115a2763b3f6e04be3b1165402c872b25af5185043026020526040902082516000805160206126c283398151915291901580159061111657508060020160405161110391906124ac565b6040518091039020848051906020012014155b1561112b576002810161112985826123ed565b505b600181015460ff16151583151514610ca357600101805460ff191692151592909217909155505050565b6000807fd2f24d4f172e4e84e48e7c4125b6e904c29e5eba33ad4938fee51dd5dbd4b600805460018201546040516331a9108f60e11b815260048101919091529192506001600160a01b031690636352211e90602401602060405180830381865afa1580156111c8573d6000803e3d6000fd5b505050506040513d601f19601f8201168201806040525081019061100a919061253e565b6000806111f7611155565b9050600061120485611873565b80519091506000611213611af4565b805190915060005b838110156112d257600085828151811061123757611237612242565b60200260200101519050866001600160a01b0316816001600160a01b03160361126a576001975050505050505050610d34565b60005b838110156112c857816001600160a01b03166112a186838151811061129457611294612242565b6020026020010151611b1f565b6001600160a01b0316036112c057600098505050505050505050610d34565b60010161126d565b505060010161121b565b507fa558e822bd359dacbe30f0da89cbfde5f95895b441e13a4864caec1423c93100600061131f7fa558e822bd359dacbe30f0da89cbfde5f95895b441e13a4864caec1423c93101610d3b565b905060005b81811015611453576000838161133d6001830185611b2a565b6001600160a01b0390811682526020808301939093526040918201600020548251630b86d87960e21b81529251911693508392632e1b61e492600480820193918290030181865afa158015611396573d6000803e3d6000fd5b505050506040513d601f19601f820116820180604052508101906113ba9190612559565b1580156114335750806001600160a01b0316630cf0b5338e8a8e6040518463ffffffff1660e01b81526004016113f293929190612576565b602060405180830381865afa15801561140f573d6000803e3d6000fd5b505050506040513d601f19601f820116820180604052508101906114339190612559565b1561144a5760019950505050505050505050610d34565b50600101611324565b5060009b9a5050505050505050505050565b6000610d348383611b36565b60606000610d3483611c1f565b60008181527f804ad633258ac9b908ae115a2763b3f6e04be3b1165402c872b25af51850430260205260409020600101546000805160206126c28339815191529060ff16156101e557604051636ce0028960e11b815260040160405180910390fd5b60008181526001830160205260408120541515610d34565b611510816000805160206126c2833981519152610cbe565b156101a557604051632324f7d960e21b815260040160405180910390fd5b600081815260018301602052604081205461157557508154600181810184556000848152602080822090930184905584548482528286019093526040902091909155610375565b506000610375565b606081600001805480602002602001604051908101604052809291908181526020016000905b8282101561164f5783829060005260206000200180546115c290612371565b80601f01602080910402602001604051908101604052809291908181526020018280546115ee90612371565b801561163b5780601f106116105761010080835404028352916020019161163b565b820191906000526020600020905b81548152906001019060200180831161161e57829003601f168201915b5050505050815260200190600101906115a3565b505050509050919050565b600080836001018360405161166f919061233b565b90815260200160405180910390205490508060001461180f5760006116956001836125ee565b85549091506000906116a9906001906125ee565b90508181146117b05760008660000182815481106116c9576116c9612242565b9060005260206000200180546116de90612371565b80601f016020809104026020016040519081016040528092919081815260200182805461170a90612371565b80156117575780601f1061172c57610100808354040283529160200191611757565b820191906000526020600020905b81548152906001019060200180831161173a57829003601f168201915b505050505090508087600001848154811061177457611774612242565b90600052602060002001908161178a91906123ed565b5083876001018260405161179e919061233b565b90815260405190819003602001902055505b85548690806117c1576117c1612601565b6001900381819060005260206000200160006117dd9190611d9d565b905585600101856040516117f1919061233b565b90815260200160405180910390206000905560019350505050610375565b6000915050610375565b60006118258383611c7b565b6115755782546001810184556000848152602090200161184583826123ed565b508254604051600185019061185b90859061233b565b90815260405190819003602001902055506001610375565b606060007fc21004fcc619240a31f006438274d15cd813308303284436eef6055f0fdcb6006006015460405162468b7360e31b81526001600160a01b038581166004830152909116915060009082906302345b9890602401600060405180830381865afa1580156118e8573d6000803e3d6000fd5b505050506040513d6000823e601f3d908101601f191682016040526119109190810190612617565b604051631f04207360e31b81526001600160a01b03868116600483015291925060009184169063f821039890602401602060405180830381865afa15801561195c573d6000803e3d6000fd5b505050506040513d601f19601f82011682018060405250810190611980919061253e565b90508151600014801561199b57506001600160a01b03811615155b15611a155760405162468b7360e31b81526001600160a01b03808316600483015291955085918416906302345b9890602401600060405180830381865afa1580156119ea573d6000803e3d6000fd5b505050506040513d6000823e601f3d908101601f19168201604052611a129190810190612617565b91505b81516000611a248260016126ae565b6001600160401b03811115611a3b57611a3b611e26565b604051908082528060200260200182016040528015611a64578160200160208202803683370190505b50905060005b82811015611abe57848181518110611a8457611a84612242565b6020026020010151828281518110611a9e57611a9e612242565b6001600160a01b0390921660209283029190910190910152600101611a6a565b5086818381518110611ad257611ad2612242565b6001600160a01b03909216602092830291909101909101529695505050505050565b60606103c77f49daf035076c43671ca9f9fb568d931e51ab7f9098a5a694781b45341112cf00611471565b600061037582611ca8565b6000610d348383611d73565b6000818152600183016020526040812054801561180f576000611b5a6001836125ee565b8554909150600090611b6e906001906125ee565b9050808214611bd3576000866000018281548110611b8e57611b8e612242565b9060005260206000200154905080876000018481548110611bb157611bb1612242565b6000918252602080832090910192909255918252600188019052604090208390555b8554869080611be457611be4612601565b600190038181906000526020600020016000905590558560010160008681526020019081526020016000206000905560019350505050610375565b606081600001805480602002602001604051908101604052809291908181526020018280548015611c6f57602002820191906000526020600020905b815481526020019060010190808311611c5b575b50505050509050919050565b60008260010182604051611c8f919061233b565b9081526040519081900360200190205415159392505050565b60008181527f6569bde4a160c636ea8b8d11acb83a60d7fec0b8f2e09389306cba0e1340df046020526040812054907f6569bde4a160c636ea8b8d11acb83a60d7fec0b8f2e09389306cba0e1340df0090600160e01b83169003611d595781600003611d535780548310611d2f57604051636f96cda160e11b815260040160405180910390fd5b5b600019909201600081815260048401602052604090205490929091508115611d30575b50919050565b50604051636f96cda160e11b815260040160405180910390fd5b6000826000018281548110611d8a57611d8a612242565b9060005260206000200154905092915050565b508054611da990612371565b6000825580601f10611db9575050565b601f0160209004906000526020600020908101906101a591905b80821115611de75760008155600101611dd3565b5090565b600060208284031215611dfd57600080fd5b5035919050565b60008060408385031215611e1757600080fd5b50508035926020909101359150565b634e487b7160e01b600052604160045260246000fd5b604051601f8201601f191681016001600160401b0381118282101715611e6457611e64611e26565b604052919050565b600082601f830112611e7d57600080fd5b81356001600160401b03811115611e9657611e96611e26565b611ea9601f8201601f1916602001611e3c565b818152846020838601011115611ebe57600080fd5b816020850160208301376000918101602001919091529392505050565b60008060008060608587031215611ef157600080fd5b8435935060208501356001600160401b0380821115611f0f57600080fd5b611f1b88838901611e6c565b94506040870135915080821115611f3157600080fd5b818701915087601f830112611f4557600080fd5b813581811115611f5457600080fd5b8860208260051b8501011115611f6957600080fd5b95989497505060200194505050565b60005b83811015611f93578181015183820152602001611f7b565b50506000910152565b8051825260006020808301511515818501526040830151608060408601528051806080870152611fd28160a08801858501611f78565b601f19601f820116860191505060a08101606085015160a087840301606088015281815180845260c0850191508583019450600093505b808410156120295784518252938501936001939093019290850190612009565b50979650505050505050565b602081526000610d346020830184611f9c565b60006001600160401b0382111561206157612061611e26565b5060051b60200190565b60008060006060848603121561208057600080fd5b833592506020808501356001600160401b038082111561209f57600080fd5b6120ab88838901611e6c565b945060408701359150808211156120c157600080fd5b508501601f810187136120d357600080fd5b80356120e66120e182612048565b611e3c565b81815260059190911b8201830190838101908983111561210557600080fd5b928401925b828410156121235783358252928401929084019061210a565b80955050505050509250925092565b600060208083016020845280855180835260408601915060408160051b87010192506020870160005b8281101561218957603f19888603018452612177858351611f9c565b9450928501929085019060010161215b565b5092979650505050505050565b6020808252825182820181905260009190848201906040850190845b818110156121ce578351835292840192918401916001016121b2565b50909695505050505050565b80151581146101a557600080fd5b6000806000606084860312156121fd57600080fd5b8335925060208401356001600160401b0381111561221a57600080fd5b61222686828701611e6c565b9250506040840135612237816121da565b809150509250925092565b634e487b7160e01b600052603260045260246000fd5b60008235603e1983360301811261226e57600080fd5b9190910192915050565b6000808335601e1984360301811261228f57600080fd5b8301803591506001600160401b038211156122a957600080fd5b6020019150600581901b36038213156122c157600080fd5b9250929050565b60006122d66120e184612048565b80848252602080830192508560051b8501368111156122f457600080fd5b855b8181101561232f5780356001600160401b038111156123155760008081fd5b61232136828a01611e6c565b8652509382019382016122f6565b50919695505050505050565b6000825161226e818460208701611f78565b80516020808301519190811015611d535760001960209190910360031b1b16919050565b600181811c9082168061238557607f821691505b602082108103611d5357634e487b7160e01b600052602260045260246000fd5b601f8211156103b8576000816000526020600020601f850160051c810160208610156123ce5750805b601f850160051c820191505b81811015610341578281556001016123da565b81516001600160401b0381111561240657612406611e26565b61241a816124148454612371565b846123a5565b602080601f83116001811461244f57600084156124375750858301515b600019600386901b1c1916600185901b178555610341565b600085815260208120601f198616915b8281101561247e5788860151825594840194600190910190840161245f565b508582101561249c5787850151600019600388901b60f8161c191681555b5050505050600190811b01905550565b60008083546124ba81612371565b600182811680156124d257600181146124e757612516565b60ff1984168752821515830287019450612516565b8760005260208060002060005b8581101561250d5781548a8201529084019082016124f4565b50505082870194505b50929695505050505050565b80516001600160a01b038116811461253957600080fd5b919050565b60006020828403121561255057600080fd5b610d3482612522565b60006020828403121561256b57600080fd5b8151610d34816121da565b60006060820185835260206060602085015281865180845260808601915060208801935060005b818110156125c25784516001600160a01b03168352938301939183019160010161259d565b5050809350505050826040830152949350505050565b634e487b7160e01b600052601160045260246000fd5b81810381811115610375576103756125d8565b634e487b7160e01b600052603160045260246000fd5b6000602080838503121561262a57600080fd5b82516001600160401b0381111561264057600080fd5b8301601f8101851361265157600080fd5b805161265f6120e182612048565b81815260059190911b8201830190838101908783111561267e57600080fd5b928401925b828410156126a35761269484612522565b82529284019290840190612683565b979650505050505050565b80820180821115610375576103756125d856fe804ad633258ac9b908ae115a2763b3f6e04be3b1165402c872b25af518504300","linkReferences":{}},"methodIdentifiers":{"addRoleToChannel(bytes32,uint256)":"37644cf7","createChannel(bytes32,string,uint256[])":"921f7175","createChannelWithOverridePermissions(bytes32,string,(uint256,string[])[])":"5a2dce7a","getChannel(bytes32)":"831c2b82","getChannels()":"9575f6ac","getRolesByChannel(bytes32)":"99352183","removeChannel(bytes32)":"02da0e51","removeRoleFromChannel(bytes32,uint256)":"b9de6159","updateChannel(bytes32,string,bool)":"ef86d696"},"id":263}