{"abi":[{"type":"function","name":"__DiamondCut_init","inputs":[],"outputs":[],"stateMutability":"nonpayable"},{"type":"function","name":"diamondCut","inputs":[{"name":"facetCuts","type":"tuple[]","internalType":"struct IDiamond.FacetCut[]","components":[{"name":"facetAddress","type":"address","internalType":"address"},{"name":"action","type":"uint8","internalType":"enum IDiamond.FacetCutAction"},{"name":"functionSelectors","type":"bytes4[]","internalType":"bytes4[]"}]},{"name":"init","type":"address","internalType":"address"},{"name":"initPayload","type":"bytes","internalType":"bytes"}],"outputs":[],"stateMutability":"nonpayable"},{"type":"event","name":"DiamondCut","inputs":[{"name":"facetCuts","type":"tuple[]","indexed":false,"internalType":"struct IDiamond.FacetCut[]","components":[{"name":"facetAddress","type":"address","internalType":"address"},{"name":"action","type":"uint8","internalType":"enum IDiamond.FacetCutAction"},{"name":"functionSelectors","type":"bytes4[]","internalType":"bytes4[]"}]},{"name":"init","type":"address","indexed":false,"internalType":"address"},{"name":"initPayload","type":"bytes","indexed":false,"internalType":"bytes"}],"anonymous":false},{"type":"event","name":"Initialized","inputs":[{"name":"version","type":"uint32","indexed":false,"internalType":"uint32"}],"anonymous":false},{"type":"event","name":"InterfaceAdded","inputs":[{"name":"interfaceId","type":"bytes4","indexed":true,"internalType":"bytes4"}],"anonymous":false},{"type":"event","name":"InterfaceRemoved","inputs":[{"name":"interfaceId","type":"bytes4","indexed":true,"internalType":"bytes4"}],"anonymous":false},{"type":"event","name":"OwnershipTransferred","inputs":[{"name":"previousOwner","type":"address","indexed":true,"internalType":"address"},{"name":"newOwner","type":"address","indexed":true,"internalType":"address"}],"anonymous":false},{"type":"error","name":"AddressEmptyCode","inputs":[{"name":"target","type":"address","internalType":"address"}]},{"type":"error","name":"DiamondCut_FunctionAlreadyExists","inputs":[{"name":"selector","type":"bytes4","internalType":"bytes4"}]},{"type":"error","name":"DiamondCut_FunctionDoesNotExist","inputs":[{"name":"facet","type":"address","internalType":"address"}]},{"type":"error","name":"DiamondCut_FunctionFromSameFacetAlreadyExists","inputs":[{"name":"selector","type":"bytes4","internalType":"bytes4"}]},{"type":"error","name":"DiamondCut_ImmutableFacet","inputs":[]},{"type":"error","name":"DiamondCut_InvalidContract","inputs":[{"name":"init","type":"address","internalType":"address"}]},{"type":"error","name":"DiamondCut_InvalidFacet","inputs":[{"name":"facet","type":"address","internalType":"address"}]},{"type":"error","name":"DiamondCut_InvalidFacetCutAction","inputs":[]},{"type":"error","name":"DiamondCut_InvalidFacetCutLength","inputs":[]},{"type":"error","name":"DiamondCut_InvalidFacetRemoval","inputs":[{"name":"facet","type":"address","internalType":"address"},{"name":"selector","type":"bytes4","internalType":"bytes4"}]},{"type":"error","name":"DiamondCut_InvalidFacetSelectors","inputs":[{"name":"facet","type":"address","internalType":"address"}]},{"type":"error","name":"DiamondCut_InvalidSelector","inputs":[]},{"type":"error","name":"FailedCall","inputs":[]},{"type":"error","name":"Initializable_AlreadyInitialized","inputs":[{"name":"version","type":"uint32","internalType":"uint32"}]},{"type":"error","name":"Initializable_InInitializingState","inputs":[]},{"type":"error","name":"Initializable_NotInInitializingState","inputs":[]},{"type":"error","name":"Introspection_AlreadySupported","inputs":[]},{"type":"error","name":"Introspection_NotSupported","inputs":[]},{"type":"error","name":"Ownable__NotOwner","inputs":[{"name":"account","type":"address","internalType":"address"}]},{"type":"error","name":"Ownable__ZeroAddress","inputs":[]}],"bytecode":{"object":"0x608060405234801561001057600080fd5b5061001961001e565b6100c4565b7f59b501c3653afc186af7d48dda36cf6732bd21629a6295693664240a6ef520008054640100000000900460ff161561006a576040516366008a2d60e01b815260040160405180910390fd5b805463ffffffff90811610156100c157805463ffffffff191663ffffffff90811782556040519081527fe9c9b456cb2994b80aeef036cf59d26e9617df80f816a6ee5a5b4166e07e2f5c9060200160405180910390a15b50565b611202806100d36000396000f3fe608060405234801561001057600080fd5b50600436106100365760003560e01c80631f931c1c1461003b5780634f4bb5d614610050575b600080fd5b61004e610049366004610e54565b610058565b005b61004e61018f565b7f4675fa8241f86f37157864d3d49b85ad4b164352c516da28e1678a90470ae300546001600160a01b031633146100a9576040516365f4906560e01b81523360048201526024015b60405180910390fd5b6100b16101eb565b7f59b501c3653afc186af7d48dda36cf6732bd21629a6295693664240a6ef520008054640100000000900460ff16806100f45750805463ffffffff808416911610155b1561011d578054604051630a8ef77f60e31b815263ffffffff90911660048201526024016100a0565b805464ffffffffff191663ffffffff831617640100000000178155610143858585610225565b805464ff000000001916815560405163ffffffff831681527fe9c9b456cb2994b80aeef036cf59d26e9617df80f816a6ee5a5b4166e07e2f5c9060200160405180910390a15050505050565b7f59b501c3653afc186af7d48dda36cf6732bd21629a6295693664240a6ef5200054640100000000900460ff166101d957604051630ef4733760e31b815260040160405180910390fd5b6101e96307e4c70760e21b610361565b565b60007f59b501c3653afc186af7d48dda36cf6732bd21629a6295693664240a6ef52000546102209063ffffffff166001611021565b905090565b825160000361024757604051632795bfe160e11b815260040160405180910390fd5b60005b83518110156103155760008482815181106102675761026761103e565b6020026020010151905061027a8161043a565b60008160200151600281111561029257610292611054565b036102ae576102a9816000015182604001516104f6565b61030c565b6001816020015160028111156102c6576102c6611054565b036102dd576102a981600001518260400151610635565b6002816020015160028111156102f5576102f5611054565b0361030c5761030c81600001518260400151610866565b5060010161024a565b507f8faa70878671ccd212d20771b795c50af8fd3ff6cf27f4bde57e5d4de0aeb673838383604051610349939291906110ba565b60405180910390a161035c838383610a27565b505050565b6001600160e01b0319811660009081527f81088bbc801e045ea3e7620779ab349988f58afbdfba10dff983df3f33522b00602052604090205460ff166103e9576001600160e01b0319811660009081527f81088bbc801e045ea3e7620779ab349988f58afbdfba10dff983df3f33522b0060205260409020805460ff19166001179055610402565b604051637967f77d60e11b815260040160405180910390fd5b6040516001600160e01b03198216907f78f84e5b1c5c05be2b5ad3800781dd404d6d6c6302bc755c0fe20f58a33a7f2290600090a250565b80516001600160a01b03166104705780516040516344ae58e160e01b81526001600160a01b0390911660048201526024016100a0565b80516001600160a01b03163014801590610493575080516001600160a01b03163b155b156104bf5780516040516344ae58e160e01b81526001600160a01b0390911660048201526024016100a0565b8060400151516000036104f35780516040516305fb96cb60e41b81526001600160a01b0390911660048201526024016100a0565b50565b7fc6b63261e9313602f31108199c5a3f80ebd1f09ec3eaeb70561a2265ce2fc9006105218184610a7a565b6105315761052f8184610aa1565b505b815160005b8181101561062e5760008482815181106105525761055261103e565b602090810291909101015190506001600160e01b03198116610587576040516347518c8160e01b815260040160405180910390fd5b6001600160e01b0319811660009081526002850160205260409020546001600160a01b0316156105d657604051630e6c4db160e41b81526001600160e01b0319821660048201526024016100a0565b6001600160e01b031981166000818152600286016020908152604080832080546001600160a01b0319166001600160a01b038c16908117909155835260038801909152902061062491610ab6565b5050600101610536565b5050505050565b7fc6b63261e9313602f31108199c5a3f80ebd1f09ec3eaeb70561a2265ce2fc900306001600160a01b0384160361067f57604051630e7ce30960e11b815260040160405180910390fd5b6106898184610a7a565b610699576106978184610aa1565b505b815160005b8181101561062e5760008482815181106106ba576106ba61103e565b602090810291909101015190506001600160e01b031981166106ef576040516347518c8160e01b815260040160405180910390fd5b6001600160e01b0319811660009081526002850160205260409020546001600160a01b031630810361073457604051630e7ce30960e11b815260040160405180910390fd5b6001600160a01b0381166107665760405163126f174360e11b81526001600160a01b03881660048201526024016100a0565b866001600160a01b0316816001600160a01b0316036107a457604051631403eec360e21b81526001600160e01b0319831660048201526024016100a0565b6001600160e01b031982166000818152600287016020908152604080832080546001600160a01b0319166001600160a01b038d811691909117909155851683526003890190915290206107f691610ac2565b506001600160a01b03871660009081526003860160205260409020610825906001600160e01b03198416610ab6565b506001600160a01b0381166000908152600386016020526040902061084990610ace565b60000361085c5761085a8582610ad8565b505b505060010161069e565b7fc6b63261e9313602f31108199c5a3f80ebd1f09ec3eaeb70561a2265ce2fc900306001600160a01b038416036108b057604051630e7ce30960e11b815260040160405180910390fd5b6108ba8184610a7a565b6108e2576040516344ae58e160e01b81526001600160a01b03841660048201526024016100a0565b60005b82518110156109ec5760008382815181106109025761090261103e565b602090810291909101015190506001600160e01b03198116610937576040516347518c8160e01b815260040160405180910390fd5b6001600160e01b0319811660009081526002840160205260409020546001600160a01b038681169116146109985760405162062efb60e51b81526001600160a01b03861660048201526001600160e01b0319821660248201526044016100a0565b6001600160e01b031981166000818152600285016020908152604080832080546001600160a01b03191690556001600160a01b03891683526003870190915290206109e291610ac2565b50506001016108e5565b506001600160a01b03831660009081526003820160205260409020610a1090610ace565b60000361035c57610a218184610ad8565b50505050565b6001600160a01b038216610a3a57505050565b816001600160a01b03163b600003610a7057604051633b367e1560e21b81526001600160a01b03831660048201526024016100a0565b610a218282610aed565b6001600160a01b038116600090815260018301602052604081205415155b90505b92915050565b6000610a98836001600160a01b038416610b63565b6000610a988383610b63565b6000610a988383610bb2565b6000610a9b825490565b6000610a98836001600160a01b038416610bb2565b6060600080846001600160a01b031684604051610b0a91906111bd565b600060405180830381855af49150503d8060008114610b45576040519150601f19603f3d011682016040523d82523d6000602084013e610b4a565b606091505b5091509150610b5a858383610cac565b95945050505050565b6000818152600183016020526040812054610baa57508154600181810184556000848152602080822090930184905584548482528286019093526040902091909155610a9b565b506000610a9b565b60008181526001830160205260408120548015610c9b576000610bd66001836111d9565b8554909150600090610bea906001906111d9565b9050808214610c4f576000866000018281548110610c0a57610c0a61103e565b9060005260206000200154905080876000018481548110610c2d57610c2d61103e565b6000918252602080832090910192909255918252600188019052604090208390555b8554869080610c6057610c606111ec565b600190038181906000526020600020016000905590558560010160008681526020019081526020016000206000905560019350505050610a9b565b6000915050610a9b565b5092915050565b606082610cc157610cbc82610d0b565b610d04565b8151158015610cd857506001600160a01b0384163b155b15610d0157604051639996b31560e01b81526001600160a01b03851660048201526024016100a0565b50805b9392505050565b805115610d1b5780518082602001fd5b60405163d6bda27560e01b815260040160405180910390fd5b634e487b7160e01b600052604160045260246000fd5b6040516060810167ffffffffffffffff81118282101715610d6d57610d6d610d34565b60405290565b604051601f8201601f1916810167ffffffffffffffff81118282101715610d9c57610d9c610d34565b604052919050565b600067ffffffffffffffff821115610dbe57610dbe610d34565b5060051b60200190565b80356001600160a01b0381168114610ddf57600080fd5b919050565b600082601f830112610df557600080fd5b813567ffffffffffffffff811115610e0f57610e0f610d34565b610e22601f8201601f1916602001610d73565b818152846020838601011115610e3757600080fd5b816020850160208301376000918101602001919091529392505050565b600080600060608486031215610e6957600080fd5b67ffffffffffffffff8085351115610e8057600080fd5b8435850186601f820112610e9357600080fd5b610ea5610ea08235610da4565b610d73565b81358082526020808301929160051b84010189811115610ec457600080fd5b602084015b81811015610fcc578581351115610edf57600080fd5b803585016060818d03601f19011215610ef757600080fd5b610eff610d4a565b610f0b60208301610dc8565b8152604082013560038110610f1f57600080fd5b6020820152606082013588811115610f3657600080fd5b8083019250508c603f830112610f4b57600080fd5b6020820135610f5c610ea082610da4565b81815260059190911b83016040019060208101908f831115610f7d57600080fd5b6040850194505b82851015610fb65784356001600160e01b0319811614610fa357600080fd5b8435825260209485019490910190610f84565b6040840152505085525060209384019301610ec9565b5050809650505050610fe060208601610dc8565b9250604085013581811115610ff457600080fd5b61100087828801610de4565b925050509250925092565b634e487b7160e01b600052601160045260246000fd5b63ffffffff818116838216019080821115610ca557610ca561100b565b634e487b7160e01b600052603260045260246000fd5b634e487b7160e01b600052602160045260246000fd5b60005b8381101561108557818101518382015260200161106d565b50506000910152565b600081518084526110a681602086016020860161106a565b601f01601f19169290920160200192915050565b60006060808301606084528087518083526080925060808601915060808160051b8701016020808b0160005b8481101561118d57898403607f19018652815180516001600160a01b0316855283810151898601906003811061112c57634e487b7160e01b600052602160045260246000fd5b868601526040918201519186018a905281519081905290840190600090898701905b808310156111785783516001600160e01b031916825292860192600192909201919086019061114e565b509785019795505050908201906001016110e6565b50506001600160a01b038a169088015286810360408801526111af818961108e565b9a9950505050505050505050565b600082516111cf81846020870161106a565b9190910192915050565b81810381811115610a9b57610a9b61100b565b634e487b7160e01b600052603160045260246000fd","linkReferences":{}},"methodIdentifiers":{"__DiamondCut_init()":"4f4bb5d6","diamondCut((address,uint8,bytes4[])[],address,bytes)":"1f931c1c"},"id":129}