{"abi":[{"type":"function","name":"__DropFacet_init","inputs":[{"name":"rewardsDistribution","type":"address","internalType":"address"}],"outputs":[],"stateMutability":"nonpayable"},{"type":"function","name":"addClaimCondition","inputs":[{"name":"condition","type":"tuple","internalType":"struct IDropFacetBase.ClaimCondition","components":[{"name":"currency","type":"address","internalType":"address"},{"name":"startTimestamp","type":"uint40","internalType":"uint40"},{"name":"endTimestamp","type":"uint40","internalType":"uint40"},{"name":"penaltyBps","type":"uint16","internalType":"uint16"},{"name":"maxClaimableSupply","type":"uint256","internalType":"uint256"},{"name":"supplyClaimed","type":"uint256","internalType":"uint256"},{"name":"merkleRoot","type":"bytes32","internalType":"bytes32"}]}],"outputs":[],"stateMutability":"nonpayable"},{"type":"function","name":"claimAndStake","inputs":[{"name":"claim","type":"tuple","internalType":"struct IDropFacetBase.Claim","components":[{"name":"conditionId","type":"uint256","internalType":"uint256"},{"name":"account","type":"address","internalType":"address"},{"name":"quantity","type":"uint256","internalType":"uint256"},{"name":"proof","type":"bytes32[]","internalType":"bytes32[]"}]},{"name":"delegatee","type":"address","internalType":"address"},{"name":"deadline","type":"uint256","internalType":"uint256"},{"name":"signature","type":"bytes","internalType":"bytes"}],"outputs":[{"name":"","type":"uint256","internalType":"uint256"}],"stateMutability":"nonpayable"},{"type":"function","name":"claimWithPenalty","inputs":[{"name":"claim","type":"tuple","internalType":"struct IDropFacetBase.Claim","components":[{"name":"conditionId","type":"uint256","internalType":"uint256"},{"name":"account","type":"address","internalType":"address"},{"name":"quantity","type":"uint256","internalType":"uint256"},{"name":"proof","type":"bytes32[]","internalType":"bytes32[]"}]},{"name":"expectedPenaltyBps","type":"uint16","internalType":"uint16"}],"outputs":[{"name":"amount","type":"uint256","internalType":"uint256"}],"stateMutability":"nonpayable"},{"type":"function","name":"getActiveClaimConditionId","inputs":[],"outputs":[{"name":"","type":"uint256","internalType":"uint256"}],"stateMutability":"view"},{"type":"function","name":"getClaimConditionById","inputs":[{"name":"conditionId","type":"uint256","internalType":"uint256"}],"outputs":[{"name":"condition","type":"tuple","internalType":"struct IDropFacetBase.ClaimCondition","components":[{"name":"currency","type":"address","internalType":"address"},{"name":"startTimestamp","type":"uint40","internalType":"uint40"},{"name":"endTimestamp","type":"uint40","internalType":"uint40"},{"name":"penaltyBps","type":"uint16","internalType":"uint16"},{"name":"maxClaimableSupply","type":"uint256","internalType":"uint256"},{"name":"supplyClaimed","type":"uint256","internalType":"uint256"},{"name":"merkleRoot","type":"bytes32","internalType":"bytes32"}]}],"stateMutability":"view"},{"type":"function","name":"getClaimConditions","inputs":[],"outputs":[{"name":"","type":"tuple[]","internalType":"struct IDropFacetBase.ClaimCondition[]","components":[{"name":"currency","type":"address","internalType":"address"},{"name":"startTimestamp","type":"uint40","internalType":"uint40"},{"name":"endTimestamp","type":"uint40","internalType":"uint40"},{"name":"penaltyBps","type":"uint16","internalType":"uint16"},{"name":"maxClaimableSupply","type":"uint256","internalType":"uint256"},{"name":"supplyClaimed","type":"uint256","internalType":"uint256"},{"name":"merkleRoot","type":"bytes32","internalType":"bytes32"}]}],"stateMutability":"view"},{"type":"function","name":"getDepositIdByWallet","inputs":[{"name":"account","type":"address","internalType":"address"},{"name":"conditionId","type":"uint256","internalType":"uint256"}],"outputs":[{"name":"","type":"uint256","internalType":"uint256"}],"stateMutability":"view"},{"type":"function","name":"getSupplyClaimedByWallet","inputs":[{"name":"account","type":"address","internalType":"address"},{"name":"conditionId","type":"uint256","internalType":"uint256"}],"outputs":[{"name":"","type":"uint256","internalType":"uint256"}],"stateMutability":"view"},{"type":"function","name":"setClaimConditions","inputs":[{"name":"conditions","type":"tuple[]","internalType":"struct IDropFacetBase.ClaimCondition[]","components":[{"name":"currency","type":"address","internalType":"address"},{"name":"startTimestamp","type":"uint40","internalType":"uint40"},{"name":"endTimestamp","type":"uint40","internalType":"uint40"},{"name":"penaltyBps","type":"uint16","internalType":"uint16"},{"name":"maxClaimableSupply","type":"uint256","internalType":"uint256"},{"name":"supplyClaimed","type":"uint256","internalType":"uint256"},{"name":"merkleRoot","type":"bytes32","internalType":"bytes32"}]}],"outputs":[],"stateMutability":"nonpayable"},{"type":"event","name":"DropFacet_ClaimConditionAdded","inputs":[{"name":"condition","type":"tuple","indexed":false,"internalType":"struct IDropFacetBase.ClaimCondition","components":[{"name":"currency","type":"address","internalType":"address"},{"name":"startTimestamp","type":"uint40","internalType":"uint40"},{"name":"endTimestamp","type":"uint40","internalType":"uint40"},{"name":"penaltyBps","type":"uint16","internalType":"uint16"},{"name":"maxClaimableSupply","type":"uint256","internalType":"uint256"},{"name":"supplyClaimed","type":"uint256","internalType":"uint256"},{"name":"merkleRoot","type":"bytes32","internalType":"bytes32"}]}],"anonymous":false},{"type":"event","name":"DropFacet_ClaimConditionsUpdated","inputs":[{"name":"conditions","type":"tuple[]","indexed":false,"internalType":"struct IDropFacetBase.ClaimCondition[]","components":[{"name":"currency","type":"address","internalType":"address"},{"name":"startTimestamp","type":"uint40","internalType":"uint40"},{"name":"endTimestamp","type":"uint40","internalType":"uint40"},{"name":"penaltyBps","type":"uint16","internalType":"uint16"},{"name":"maxClaimableSupply","type":"uint256","internalType":"uint256"},{"name":"supplyClaimed","type":"uint256","internalType":"uint256"},{"name":"merkleRoot","type":"bytes32","internalType":"bytes32"}]}],"anonymous":false},{"type":"event","name":"DropFacet_Claimed_And_Staked","inputs":[{"name":"conditionId","type":"uint256","indexed":true,"internalType":"uint256"},{"name":"claimer","type":"address","indexed":true,"internalType":"address"},{"name":"account","type":"address","indexed":true,"internalType":"address"},{"name":"amount","type":"uint256","indexed":false,"internalType":"uint256"}],"anonymous":false},{"type":"event","name":"DropFacet_Claimed_WithPenalty","inputs":[{"name":"conditionId","type":"uint256","indexed":true,"internalType":"uint256"},{"name":"claimer","type":"address","indexed":true,"internalType":"address"},{"name":"account","type":"address","indexed":true,"internalType":"address"},{"name":"amount","type":"uint256","indexed":false,"internalType":"uint256"}],"anonymous":false},{"type":"event","name":"Initialized","inputs":[{"name":"version","type":"uint32","indexed":false,"internalType":"uint32"}],"anonymous":false},{"type":"event","name":"InterfaceAdded","inputs":[{"name":"interfaceId","type":"bytes4","indexed":true,"internalType":"bytes4"}],"anonymous":false},{"type":"event","name":"InterfaceRemoved","inputs":[{"name":"interfaceId","type":"bytes4","indexed":true,"internalType":"bytes4"}],"anonymous":false},{"type":"event","name":"OwnershipTransferred","inputs":[{"name":"previousOwner","type":"address","indexed":true,"internalType":"address"},{"name":"newOwner","type":"address","indexed":true,"internalType":"address"}],"anonymous":false},{"type":"error","name":"DropFacet__AlreadyClaimed","inputs":[]},{"type":"error","name":"DropFacet__CannotSetClaimConditions","inputs":[]},{"type":"error","name":"DropFacet__ClaimConditionsNotInAscendingOrder","inputs":[]},{"type":"error","name":"DropFacet__ClaimHasEnded","inputs":[]},{"type":"error","name":"DropFacet__ClaimHasNotStarted","inputs":[]},{"type":"error","name":"DropFacet__CurrencyNotSet","inputs":[]},{"type":"error","name":"DropFacet__ExceedsMaxClaimableSupply","inputs":[]},{"type":"error","name":"DropFacet__InsufficientBalance","inputs":[]},{"type":"error","name":"DropFacet__InvalidProof","inputs":[]},{"type":"error","name":"DropFacet__MerkleRootNotSet","inputs":[]},{"type":"error","name":"DropFacet__NoActiveClaimCondition","inputs":[]},{"type":"error","name":"DropFacet__QuantityMustBeGreaterThanZero","inputs":[]},{"type":"error","name":"DropFacet__RewardsDistributionNotSet","inputs":[]},{"type":"error","name":"DropFacet__UnexpectedPenaltyBps","inputs":[]},{"type":"error","name":"Initializable_InInitializingState","inputs":[]},{"type":"error","name":"Initializable_NotInInitializingState","inputs":[]},{"type":"error","name":"Introspection_AlreadySupported","inputs":[]},{"type":"error","name":"Introspection_NotSupported","inputs":[]},{"type":"error","name":"Ownable__NotOwner","inputs":[{"name":"account","type":"address","internalType":"address"}]},{"type":"error","name":"Ownable__ZeroAddress","inputs":[]}],"bytecode":{"object":"0x608060405234801561001057600080fd5b5061001961001e565b6100c4565b7f59b501c3653afc186af7d48dda36cf6732bd21629a6295693664240a6ef520008054640100000000900460ff161561006a576040516366008a2d60e01b815260040160405180910390fd5b805463ffffffff90811610156100c157805463ffffffff191663ffffffff90811782556040519081527fe9c9b456cb2994b80aeef036cf59d26e9617df80f816a6ee5a5b4166e07e2f5c9060200160405180910390a15b50565b61190e806100d36000396000f3fe608060405234801561001057600080fd5b506004361061009e5760003560e01c80636f8934f4116100665780636f8934f4146101175780637a05557c146101ee578063a1550b2f14610201578063c68907de14610216578063c9ac93681461021e57600080fd5b80630f8fb14f146100a357806314c9fcbc146100c957806333d42dc6146100de57806364843393146100f157806368c74fa814610104575b600080fd5b6100b66100b1366004611362565b610231565b6040519081526020015b60405180910390f35b6100dc6100d7366004611411565b61040a565b005b6100b66100ec36600461142c565b610470565b6100dc6100ff366004611456565b6104b8565b6100b661011236600461147a565b610526565b6101e16101253660046114c8565b6040805160008082526020808301828152838501838152606085018481526080860185815260a0870186815260c088018781529987527feda6a1e2ce6f1639b6d3066254ca87a2daf51c4f0ad5038d408bbab6cc2cab029095529487902060e0870190975286546001600160a01b0381168752600160a01b810464ffffffffff908116909452600160c81b8104909316909152600160f01b90910461ffff16905260018401549091526002830154905260039091015490915290565b6040516100c0919061153e565b6100b66101fc36600461142c565b610631565b610209610657565b6040516100c0919061154c565b6100b6610675565b6100dc61022c36600461159a565b61068e565b843560009081527feda6a1e2ce6f1639b6d3066254ca87a2daf51c4f0ad5038d408bbab6cc2cab02602052604081206000805160206118ee8339815191529060006102af893561028760408c0160208d01611411565b600091825260018601602090815260408084206001600160a01b039093168452919052902090565b90506102bc82828b6106f9565b6102cb82828b60400135610868565b6102da83838b60400135610889565b82546000906001600160a01b031663e69f94956102fa60408d0135610900565b8b8d602001602081019061030e9190611411565b8e60200160208101906103219190611411565b8d8d8d6040518863ffffffff1660e01b8152600401610346979695949392919061160f565b6020604051808303816000875af1158015610365573d6000803e3d6000fd5b505050506040513d601f19601f820116820180604052508101906103899190611681565b6001830181905590506103a260408b0160208c01611411565b6001600160a01b0316336001600160a01b03168b600001357ff08f338c8905e343697a35fef11af2f611a36658016e0653521354c865373ea78d604001356040516103ef91815260200190565b60405180910390a45050506040909601359695505050505050565b7f59b501c3653afc186af7d48dda36cf6732bd21629a6295693664240a6ef5200054640100000000900460ff1661045457604051630ef4733760e31b815260040160405180910390fd5b610464638be41ea360e01b610919565b61046d816109f2565b50565b60006104ae82846000805160206118ee8339815191525b6000928352600101602090815260408084206001600160a01b039093168452919052902090565b5490505b92915050565b7f4675fa8241f86f37157864d3d49b85ad4b164352c516da28e1678a90470ae300546001600160a01b03163314610509576040516365f4906560e01b81523360048201526024015b60405180910390fd5b6000805160206118ee8339815191526105228183610a0a565b5050565b813560009081527feda6a1e2ce6f1639b6d3066254ca87a2daf51c4f0ad5038d408bbab6cc2cab02602052604081206000805160206118ee83398151915290600061057c86356102876040890160208a01611411565b90506105898282886106f9565b610594828787610b2d565b93506105a1828286610868565b81546105c7906001600160a01b0316306105c160408a0160208b01611411565b87610b8e565b6105d76040870160208801611411565b6001600160a01b0316336001600160a01b031687600001357f970af01ab25e63f8131277859b2c17e9a07c2eb257e6db87449000d91c0f84018760405161062091815260200190565b60405180910390a450505092915050565b600061064c82846000805160206118ee833981519152610487565b600101549392505050565b60606106706000805160206118ee833981519152610be6565b905090565b60006106706000805160206118ee833981519152610d69565b7f4675fa8241f86f37157864d3d49b85ad4b164352c516da28e1678a90470ae300546001600160a01b031633146106da576040516365f4906560e01b8152336004820152602401610500565b6000805160206118ee8339815191526106f4818484610e3b565b505050565b60038301546107125761071263f235dd0160e01b611013565b806040013560000361072e5761072e63df4e56a560e01b611013565b82546001600160a01b031661074d5761074d63388470d360e21b611013565b82600101548160400135846002015461076691906116b0565b111561077c5761077c632c2d39b560e21b611013565b8254600160a01b900464ffffffffff164210156107a3576107a36309672a1b60e31b611013565b8254600160c81b900464ffffffffff16158015906107d057508254600160c81b900464ffffffffff164210155b156107e5576107e563d87c5b1d60e01b611013565b8154156107fc576107fc637f76444f60e01b611013565b600061082b6108116040840160208501611411565b836040013560009182526020908152604082208252902090565b600385015490915061084e908261084560608601866116c3565b9092909161101d565b6108625761086263164bf28d60e21b611013565b50505050565b8083600201600082825461087c91906116b0565b9091555050815401905550565b8154835460405163095ea7b360e01b81526001600160a01b0391821660048201526024810184905291169063095ea7b3906044016020604051808303816000875af11580156108dc573d6000803e3d6000fd5b505050506040513d601f19601f820116820180604052508101906108629190611714565b6000600160601b821061091557610915611057565b5090565b6001600160e01b0319811660009081527f81088bbc801e045ea3e7620779ab349988f58afbdfba10dff983df3f33522b00602052604090205460ff166109a1576001600160e01b0319811660009081527f81088bbc801e045ea3e7620779ab349988f58afbdfba10dff983df3f33522b0060205260409020805460ff191660011790556109ba565b604051637967f77d60e11b815260040160405180910390fd5b6040516001600160e01b03198216907f78f84e5b1c5c05be2b5ad3800781dd404d6d6c6302bc755c0fe20f58a33a7f2290600090a250565b61046d6000805160206118ee83398151915282611065565b815465ffffffffffff600160a01b8204811691600160d01b9004166000610a318284611736565b905065ffffffffffff821615610a9f5765ffffffffffff600019820116600090815260028601602090815260409182902091610a7291908701908701611771565b815464ffffffffff918216600160a01b90910490911610610a9d57610a9d631ec409a760e21b611013565b505b65ffffffffffff811660009081526002860160205260409020610ac290856110a0565b610acd826001611736565b855465ffffffffffff91909116600160d01b026001600160d01b039091161785556040517fbbf6c4d40b4e256406c3a10649830a16f5e696278f3051db12c5ee0a9f571dee90610b1e908690611806565b60405180910390a15050505050565b825460009061ffff600160f01b90910481169083168114610b5757610b57621c159b60ea1b611013565b6040840135915061ffff811615610b86576000610b7c85604001358361ffff1661118b565b6040860135039250505b509392505050565b816001600160a01b0316836001600160a01b0316031561086257306001600160a01b03841603610bd157610bcc6001600160a01b0385168383611207565b610862565b6108626001600160a01b038516848484611257565b8054606090600160d01b900465ffffffffffff1667ffffffffffffffff811115610c1257610c12611814565b604051908082528060200260200182016040528015610c7957816020015b6040805160e08101825260008082526020808301829052928201819052606082018190526080820181905260a0820181905260c08201528252600019909201910181610c305790505b50905060005b8254600160d01b900465ffffffffffff16811015610d635782546002840190600090610cbb908490600160a01b900465ffffffffffff166116b0565b81526020808201929092526040908101600020815160e08101835281546001600160a01b0381168252600160a01b810464ffffffffff90811695830195909552600160c81b810490941692810192909252600160f01b90920461ffff16606082015260018201546080820152600282015460a082015260039091015460c08201528251839083908110610d5057610d5061182a565b6020908102919091010152600101610c7f565b50919050565b805460009065ffffffffffff600160a01b8204811691600160d01b900416808303610d9e57610d9e6311357c2560e21b611013565b65ffffffffffff6000198383010116805b8365ffffffffffff168110610e225760008181526002870160205260409020805464ffffffffff600160c81b8204811691600160a01b9004164210801590610dfe5750801580610dfe57508042105b15610e0f5750909695505050505050565b505080610e1b90611840565b9050610daf565b50610e336311357c2560e21b611013565b505050919050565b825465ffffffffffff600160a01b8204811691600160d01b9004811690610e6284846116b0565b1115610e7857610e7863ae4eeeb160e01b611013565b826000805b8265ffffffffffff16811015610f4e5736878783818110610ea057610ea061182a565b905060e002019050806020016020810190610ebb9190611771565b64ffffffffff168365ffffffffffff1610610ee057610ee0631ec409a760e21b611013565b65ffffffffffff8616820160009081526002808b016020526040909120908101546080830135811115610f1d57610f1d63ae4eeeb160e01b611013565b610f2782846110a0565b610f376040840160208501611771565b64ffffffffff169450505050806001019050610e7d565b50865465ffffffffffff808416600160d01b81026001600160d01b0390931692909217895584161115610fd15765ffffffffffff82165b8365ffffffffffff16811015610fcf5765ffffffffffff8516810160009081526002808a016020526040822082815560018082018490559181018390556003019190915501610f85565b505b7f7609e28234a0fb3289eb48ac2b0315a8b49a296235f8c3b440f65db3ddc895688686604051611002929190611857565b60405180910390a150505050505050565b8060005260046000fd5b6000831561104f578360051b8501855b803580851160051b9485526020948518526040600020930181811061102d5750505b501492915050565b6335278d126000526004601cfd5b6001600160a01b03811661108357611083631c64498f60e31b611013565b81546001600160a01b0319166001600160a01b0391909116179055565b6110ba6110b06020830183611411565b82608001356112b5565b6110ca6040820160208301611771565b825464ffffffffff91909116600160a01b0264ffffffffff60a01b199091161782556110fc6060820160408301611771565b825464ffffffffff91909116600160c81b0264ffffffffff60c81b199091161782556080810135600183015560c0810135600383015561113f6020820182611411565b82546001600160a01b0319166001600160a01b039190911617825561116a6080820160608301611899565b825461ffff91909116600160f01b026001600160f01b039091161790915550565b60006127108211156111e95760405162461bcd60e51b815260206004820152602160248201527f426173697320706f696e74732063616e6e6f74206578636565642031305f30306044820152600360fc1b6064820152608401610500565b6127106111f683856118b4565b61120091906118cb565b9392505050565b816014528060345263a9059cbb60601b60005260206000604460106000875af1806001600051141661124c57803d853b15171061124c576390b8ec186000526004601cfd5b506000603452505050565b60405181606052826040528360601b602c526323b872dd60601b600c52602060006064601c6000895af180600160005114166112a657803d873b1517106112a657637939f4246000526004601cfd5b50600060605260405250505050565b6040516370a0823160e01b81523060048201526001600160a01b038316906370a0823190602401602060405180830381865afa1580156112f9573d6000803e3d6000fd5b505050506040513d601f19601f8201168201806040525081019061131d9190611681565b811115610522576105226342e1bedf60e01b611013565b600060808284031215610d6357600080fd5b80356001600160a01b038116811461135d57600080fd5b919050565b60008060008060006080868803121561137a57600080fd5b853567ffffffffffffffff8082111561139257600080fd5b61139e89838a01611334565b96506113ac60208901611346565b95506040880135945060608801359150808211156113c957600080fd5b818801915088601f8301126113dd57600080fd5b8135818111156113ec57600080fd5b8960208285010111156113fe57600080fd5b9699959850939650602001949392505050565b60006020828403121561142357600080fd5b61120082611346565b6000806040838503121561143f57600080fd5b61144883611346565b946020939093013593505050565b600060e08284031215610d6357600080fd5b803561ffff8116811461135d57600080fd5b6000806040838503121561148d57600080fd5b823567ffffffffffffffff8111156114a457600080fd5b6114b085828601611334565b9250506114bf60208401611468565b90509250929050565b6000602082840312156114da57600080fd5b5035919050565b60018060a01b038151168252602081015164ffffffffff8082166020850152806040840151166040850152505061ffff60608201511660608301526080810151608083015260a081015160a083015260c081015160c08301525050565b60e081016104b282846114e1565b6020808252825182820181905260009190848201906040850190845b8181101561158e5761157b8385516114e1565b9284019260e09290920191600101611568565b50909695505050505050565b600080602083850312156115ad57600080fd5b823567ffffffffffffffff808211156115c557600080fd5b818501915085601f8301126115d957600080fd5b8135818111156115e857600080fd5b86602060e0830285010111156115fd57600080fd5b60209290920196919550909350505050565b6bffffffffffffffffffffffff881681526001600160a01b0387811660208301528681166040830152851660608201526080810184905260c060a0820181905281018290526000828460e0840137600060e0848401015260e0601f19601f850116830101905098975050505050505050565b60006020828403121561169357600080fd5b5051919050565b634e487b7160e01b600052601160045260246000fd5b808201808211156104b2576104b261169a565b6000808335601e198436030181126116da57600080fd5b83018035915067ffffffffffffffff8211156116f557600080fd5b6020019150600581901b360382131561170d57600080fd5b9250929050565b60006020828403121561172657600080fd5b8151801515811461120057600080fd5b65ffffffffffff8181168382160190808211156117555761175561169a565b5092915050565b803564ffffffffff8116811461135d57600080fd5b60006020828403121561178357600080fd5b6112008261175c565b6001600160a01b0361179d82611346565b1682526117ac6020820161175c565b64ffffffffff8082166020850152806117c76040850161175c565b166040850152505061ffff6117de60608301611468565b1660608301526080810135608083015260a081013560a083015260c081013560c08301525050565b60e081016104b2828461178c565b634e487b7160e01b600052604160045260246000fd5b634e487b7160e01b600052603260045260246000fd5b60008161184f5761184f61169a565b506000190190565b6020808252810182905260008360408301825b8581101561188f5761187c828461178c565b60e092830192919091019060010161186a565b5095945050505050565b6000602082840312156118ab57600080fd5b61120082611468565b80820281158282048414176104b2576104b261169a565b6000826118e857634e487b7160e01b600052601260045260246000fd5b50049056feeda6a1e2ce6f1639b6d3066254ca87a2daf51c4f0ad5038d408bbab6cc2cab00","linkReferences":{}},"methodIdentifiers":{"__DropFacet_init(address)":"14c9fcbc","addClaimCondition((address,uint40,uint40,uint16,uint256,uint256,bytes32))":"64843393","claimAndStake((uint256,address,uint256,bytes32[]),address,uint256,bytes)":"0f8fb14f","claimWithPenalty((uint256,address,uint256,bytes32[]),uint16)":"68c74fa8","getActiveClaimConditionId()":"c68907de","getClaimConditionById(uint256)":"6f8934f4","getClaimConditions()":"a1550b2f","getDepositIdByWallet(address,uint256)":"7a05557c","getSupplyClaimedByWallet(address,uint256)":"33d42dc6","setClaimConditions((address,uint40,uint40,uint16,uint256,uint256,bytes32)[])":"c9ac9368"},"id":318}