{"abi":[{"type":"function","name":"__DropFacet_init","inputs":[{"name":"rewardsDistribution","type":"address","internalType":"address"}],"outputs":[],"stateMutability":"nonpayable"},{"type":"function","name":"addClaimCondition","inputs":[{"name":"condition","type":"tuple","internalType":"struct IDropFacetBase.ClaimCondition","components":[{"name":"currency","type":"address","internalType":"address"},{"name":"startTimestamp","type":"uint40","internalType":"uint40"},{"name":"endTimestamp","type":"uint40","internalType":"uint40"},{"name":"penaltyBps","type":"uint16","internalType":"uint16"},{"name":"maxClaimableSupply","type":"uint256","internalType":"uint256"},{"name":"supplyClaimed","type":"uint256","internalType":"uint256"},{"name":"merkleRoot","type":"bytes32","internalType":"bytes32"}]}],"outputs":[],"stateMutability":"nonpayable"},{"type":"function","name":"claimAndStake","inputs":[{"name":"claim","type":"tuple","internalType":"struct IDropFacetBase.Claim","components":[{"name":"conditionId","type":"uint256","internalType":"uint256"},{"name":"account","type":"address","internalType":"address"},{"name":"quantity","type":"uint256","internalType":"uint256"},{"name":"proof","type":"bytes32[]","internalType":"bytes32[]"}]},{"name":"delegatee","type":"address","internalType":"address"},{"name":"deadline","type":"uint256","internalType":"uint256"},{"name":"signature","type":"bytes","internalType":"bytes"}],"outputs":[{"name":"","type":"uint256","internalType":"uint256"}],"stateMutability":"nonpayable"},{"type":"function","name":"claimWithPenalty","inputs":[{"name":"claim","type":"tuple","internalType":"struct IDropFacetBase.Claim","components":[{"name":"conditionId","type":"uint256","internalType":"uint256"},{"name":"account","type":"address","internalType":"address"},{"name":"quantity","type":"uint256","internalType":"uint256"},{"name":"proof","type":"bytes32[]","internalType":"bytes32[]"}]},{"name":"expectedPenaltyBps","type":"uint16","internalType":"uint16"}],"outputs":[{"name":"amount","type":"uint256","internalType":"uint256"}],"stateMutability":"nonpayable"},{"type":"function","name":"getActiveClaimConditionId","inputs":[],"outputs":[{"name":"","type":"uint256","internalType":"uint256"}],"stateMutability":"view"},{"type":"function","name":"getClaimConditionById","inputs":[{"name":"conditionId","type":"uint256","internalType":"uint256"}],"outputs":[{"name":"condition","type":"tuple","internalType":"struct IDropFacetBase.ClaimCondition","components":[{"name":"currency","type":"address","internalType":"address"},{"name":"startTimestamp","type":"uint40","internalType":"uint40"},{"name":"endTimestamp","type":"uint40","internalType":"uint40"},{"name":"penaltyBps","type":"uint16","internalType":"uint16"},{"name":"maxClaimableSupply","type":"uint256","internalType":"uint256"},{"name":"supplyClaimed","type":"uint256","internalType":"uint256"},{"name":"merkleRoot","type":"bytes32","internalType":"bytes32"}]}],"stateMutability":"view"},{"type":"function","name":"getClaimConditions","inputs":[],"outputs":[{"name":"","type":"tuple[]","internalType":"struct IDropFacetBase.ClaimCondition[]","components":[{"name":"currency","type":"address","internalType":"address"},{"name":"startTimestamp","type":"uint40","internalType":"uint40"},{"name":"endTimestamp","type":"uint40","internalType":"uint40"},{"name":"penaltyBps","type":"uint16","internalType":"uint16"},{"name":"maxClaimableSupply","type":"uint256","internalType":"uint256"},{"name":"supplyClaimed","type":"uint256","internalType":"uint256"},{"name":"merkleRoot","type":"bytes32","internalType":"bytes32"}]}],"stateMutability":"view"},{"type":"function","name":"getDepositIdByWallet","inputs":[{"name":"account","type":"address","internalType":"address"},{"name":"conditionId","type":"uint256","internalType":"uint256"}],"outputs":[{"name":"","type":"uint256","internalType":"uint256"}],"stateMutability":"view"},{"type":"function","name":"getSupplyClaimedByWallet","inputs":[{"name":"account","type":"address","internalType":"address"},{"name":"conditionId","type":"uint256","internalType":"uint256"}],"outputs":[{"name":"","type":"uint256","internalType":"uint256"}],"stateMutability":"view"},{"type":"function","name":"setClaimConditions","inputs":[{"name":"conditions","type":"tuple[]","internalType":"struct IDropFacetBase.ClaimCondition[]","components":[{"name":"currency","type":"address","internalType":"address"},{"name":"startTimestamp","type":"uint40","internalType":"uint40"},{"name":"endTimestamp","type":"uint40","internalType":"uint40"},{"name":"penaltyBps","type":"uint16","internalType":"uint16"},{"name":"maxClaimableSupply","type":"uint256","internalType":"uint256"},{"name":"supplyClaimed","type":"uint256","internalType":"uint256"},{"name":"merkleRoot","type":"bytes32","internalType":"bytes32"}]}],"outputs":[],"stateMutability":"nonpayable"},{"type":"event","name":"DropFacet_ClaimConditionAdded","inputs":[{"name":"condition","type":"tuple","indexed":false,"internalType":"struct IDropFacetBase.ClaimCondition","components":[{"name":"currency","type":"address","internalType":"address"},{"name":"startTimestamp","type":"uint40","internalType":"uint40"},{"name":"endTimestamp","type":"uint40","internalType":"uint40"},{"name":"penaltyBps","type":"uint16","internalType":"uint16"},{"name":"maxClaimableSupply","type":"uint256","internalType":"uint256"},{"name":"supplyClaimed","type":"uint256","internalType":"uint256"},{"name":"merkleRoot","type":"bytes32","internalType":"bytes32"}]}],"anonymous":false},{"type":"event","name":"DropFacet_ClaimConditionsUpdated","inputs":[{"name":"conditions","type":"tuple[]","indexed":false,"internalType":"struct IDropFacetBase.ClaimCondition[]","components":[{"name":"currency","type":"address","internalType":"address"},{"name":"startTimestamp","type":"uint40","internalType":"uint40"},{"name":"endTimestamp","type":"uint40","internalType":"uint40"},{"name":"penaltyBps","type":"uint16","internalType":"uint16"},{"name":"maxClaimableSupply","type":"uint256","internalType":"uint256"},{"name":"supplyClaimed","type":"uint256","internalType":"uint256"},{"name":"merkleRoot","type":"bytes32","internalType":"bytes32"}]}],"anonymous":false},{"type":"event","name":"DropFacet_Claimed_And_Staked","inputs":[{"name":"conditionId","type":"uint256","indexed":true,"internalType":"uint256"},{"name":"claimer","type":"address","indexed":true,"internalType":"address"},{"name":"account","type":"address","indexed":true,"internalType":"address"},{"name":"amount","type":"uint256","indexed":false,"internalType":"uint256"}],"anonymous":false},{"type":"event","name":"DropFacet_Claimed_WithPenalty","inputs":[{"name":"conditionId","type":"uint256","indexed":true,"internalType":"uint256"},{"name":"claimer","type":"address","indexed":true,"internalType":"address"},{"name":"account","type":"address","indexed":true,"internalType":"address"},{"name":"amount","type":"uint256","indexed":false,"internalType":"uint256"}],"anonymous":false},{"type":"event","name":"Initialized","inputs":[{"name":"version","type":"uint32","indexed":false,"internalType":"uint32"}],"anonymous":false},{"type":"event","name":"InterfaceAdded","inputs":[{"name":"interfaceId","type":"bytes4","indexed":true,"internalType":"bytes4"}],"anonymous":false},{"type":"event","name":"InterfaceRemoved","inputs":[{"name":"interfaceId","type":"bytes4","indexed":true,"internalType":"bytes4"}],"anonymous":false},{"type":"event","name":"OwnershipTransferred","inputs":[{"name":"previousOwner","type":"address","indexed":true,"internalType":"address"},{"name":"newOwner","type":"address","indexed":true,"internalType":"address"}],"anonymous":false},{"type":"error","name":"DropFacet__AlreadyClaimed","inputs":[]},{"type":"error","name":"DropFacet__CannotSetClaimConditions","inputs":[]},{"type":"error","name":"DropFacet__ClaimConditionsNotInAscendingOrder","inputs":[]},{"type":"error","name":"DropFacet__ClaimHasEnded","inputs":[]},{"type":"error","name":"DropFacet__ClaimHasNotStarted","inputs":[]},{"type":"error","name":"DropFacet__CurrencyNotSet","inputs":[]},{"type":"error","name":"DropFacet__ExceedsMaxClaimableSupply","inputs":[]},{"type":"error","name":"DropFacet__InsufficientBalance","inputs":[]},{"type":"error","name":"DropFacet__InvalidProof","inputs":[]},{"type":"error","name":"DropFacet__MerkleRootNotSet","inputs":[]},{"type":"error","name":"DropFacet__NoActiveClaimCondition","inputs":[]},{"type":"error","name":"DropFacet__QuantityMustBeGreaterThanZero","inputs":[]},{"type":"error","name":"DropFacet__RewardsDistributionNotSet","inputs":[]},{"type":"error","name":"DropFacet__UnexpectedPenaltyBps","inputs":[]},{"type":"error","name":"Initializable_InInitializingState","inputs":[]},{"type":"error","name":"Initializable_NotInInitializingState","inputs":[]},{"type":"error","name":"Introspection_AlreadySupported","inputs":[]},{"type":"error","name":"Introspection_NotSupported","inputs":[]},{"type":"error","name":"Ownable__NotOwner","inputs":[{"name":"account","type":"address","internalType":"address"}]},{"type":"error","name":"Ownable__ZeroAddress","inputs":[]}],"bytecode":{"object":"0x608060405234801561001057600080fd5b5061001961001e565b6100c4565b7f59b501c3653afc186af7d48dda36cf6732bd21629a6295693664240a6ef520008054640100000000900460ff161561006a576040516366008a2d60e01b815260040160405180910390fd5b805463ffffffff90811610156100c157805463ffffffff191663ffffffff90811782556040519081527fe9c9b456cb2994b80aeef036cf59d26e9617df80f816a6ee5a5b4166e07e2f5c9060200160405180910390a15b50565b611936806100d36000396000f3fe608060405234801561001057600080fd5b506004361061009e5760003560e01c80636f8934f4116100665780636f8934f4146101175780637a05557c146101ee578063a1550b2f14610201578063c68907de14610216578063c9ac93681461021e57600080fd5b80630f8fb14f146100a357806314c9fcbc146100c957806333d42dc6146100de57806364843393146100f157806368c74fa814610104575b600080fd5b6100b66100b136600461138a565b610231565b6040519081526020015b60405180910390f35b6100dc6100d7366004611439565b61040a565b005b6100b66100ec366004611454565b610470565b6100dc6100ff36600461147e565b6104b8565b6100b66101123660046114a2565b610526565b6101e16101253660046114f0565b6040805160008082526020808301828152838501838152606085018481526080860185815260a0870186815260c088018781529987527feda6a1e2ce6f1639b6d3066254ca87a2daf51c4f0ad5038d408bbab6cc2cab029095529487902060e0870190975286546001600160a01b0381168752600160a01b810464ffffffffff908116909452600160c81b8104909316909152600160f01b90910461ffff16905260018401549091526002830154905260039091015490915290565b6040516100c09190611566565b6100b66101fc366004611454565b610631565b610209610657565b6040516100c09190611574565b6100b6610675565b6100dc61022c3660046115c2565b61068e565b843560009081527feda6a1e2ce6f1639b6d3066254ca87a2daf51c4f0ad5038d408bbab6cc2cab02602052604081206000805160206119168339815191529060006102af893561028760408c0160208d01611439565b600091825260018601602090815260408084206001600160a01b039093168452919052902090565b90506102bc82828b6106f9565b6102cb82828b60400135610868565b6102da83838b60400135610889565b82546000906001600160a01b031663e69f94956102fa60408d0135610900565b8b8d602001602081019061030e9190611439565b8e60200160208101906103219190611439565b8d8d8d6040518863ffffffff1660e01b81526004016103469796959493929190611637565b6020604051808303816000875af1158015610365573d6000803e3d6000fd5b505050506040513d601f19601f8201168201806040525081019061038991906116a9565b6001830181905590506103a260408b0160208c01611439565b6001600160a01b0316336001600160a01b03168b600001357ff08f338c8905e343697a35fef11af2f611a36658016e0653521354c865373ea78d604001356040516103ef91815260200190565b60405180910390a45050506040909601359695505050505050565b7f59b501c3653afc186af7d48dda36cf6732bd21629a6295693664240a6ef5200054640100000000900460ff1661045457604051630ef4733760e31b815260040160405180910390fd5b610464638be41ea360e01b610919565b61046d816109f2565b50565b60006104ae82846000805160206119168339815191525b6000928352600101602090815260408084206001600160a01b039093168452919052902090565b5490505b92915050565b7f4675fa8241f86f37157864d3d49b85ad4b164352c516da28e1678a90470ae300546001600160a01b03163314610509576040516365f4906560e01b81523360048201526024015b60405180910390fd5b6000805160206119168339815191526105228183610a0a565b5050565b813560009081527feda6a1e2ce6f1639b6d3066254ca87a2daf51c4f0ad5038d408bbab6cc2cab026020526040812060008051602061191683398151915290600061057c86356102876040890160208a01611439565b90506105898282886106f9565b610594828787610b47565b93506105a1828286610868565b81546105c7906001600160a01b0316306105c160408a0160208b01611439565b87610ba8565b6105d76040870160208801611439565b6001600160a01b0316336001600160a01b031687600001357f970af01ab25e63f8131277859b2c17e9a07c2eb257e6db87449000d91c0f84018760405161062091815260200190565b60405180910390a450505092915050565b600061064c8284600080516020611916833981519152610487565b600101549392505050565b6060610670600080516020611916833981519152610c00565b905090565b6000610670600080516020611916833981519152610d83565b7f4675fa8241f86f37157864d3d49b85ad4b164352c516da28e1678a90470ae300546001600160a01b031633146106da576040516365f4906560e01b8152336004820152602401610500565b6000805160206119168339815191526106f4818484610e55565b505050565b60038301546107125761071263f235dd0160e01b611055565b806040013560000361072e5761072e63df4e56a560e01b611055565b82546001600160a01b031661074d5761074d63388470d360e21b611055565b82600101548160400135846002015461076691906116d8565b111561077c5761077c632c2d39b560e21b611055565b8254600160a01b900464ffffffffff164210156107a3576107a36309672a1b60e31b611055565b8254600160c81b900464ffffffffff16158015906107d057508254600160c81b900464ffffffffff164210155b156107e5576107e563d87c5b1d60e01b611055565b8154156107fc576107fc637f76444f60e01b611055565b600061082b6108116040840160208501611439565b836040013560009182526020908152604082208252902090565b600385015490915061084e908261084560608601866116eb565b9092909161105f565b6108625761086263164bf28d60e21b611055565b50505050565b8083600201600082825461087c91906116d8565b9091555050815401905550565b8154835460405163095ea7b360e01b81526001600160a01b0391821660048201526024810184905291169063095ea7b3906044016020604051808303816000875af11580156108dc573d6000803e3d6000fd5b505050506040513d601f19601f82011682018060405250810190610862919061173c565b6000600160601b821061091557610915611099565b5090565b6001600160e01b0319811660009081527f81088bbc801e045ea3e7620779ab349988f58afbdfba10dff983df3f33522b00602052604090205460ff166109a1576001600160e01b0319811660009081527f81088bbc801e045ea3e7620779ab349988f58afbdfba10dff983df3f33522b0060205260409020805460ff191660011790556109ba565b604051637967f77d60e11b815260040160405180910390fd5b6040516001600160e01b03198216907f78f84e5b1c5c05be2b5ad3800781dd404d6d6c6302bc755c0fe20f58a33a7f2290600090a250565b61046d600080516020611916833981519152826110a7565b815465ffffffffffff600160a01b8204811691600160d01b9004166000610a31828461175e565b905065ffffffffffff821615610a9f5765ffffffffffff600019820116600090815260028601602090815260409182902091610a7291908701908701611799565b815464ffffffffff918216600160a01b90910490911610610a9d57610a9d631ec409a760e21b611055565b505b610ab9610aaf6020860186611439565b85608001356110e2565b65ffffffffffff811660009081526002860160205260409020610adc9085611161565b610ae782600161175e565b855465ffffffffffff91909116600160d01b026001600160d01b039091161785556040517fbbf6c4d40b4e256406c3a10649830a16f5e696278f3051db12c5ee0a9f571dee90610b3890869061182e565b60405180910390a15050505050565b825460009061ffff600160f01b90910481169083168114610b7157610b71621c159b60ea1b611055565b6040840135915061ffff811615610ba0576000610b9685604001358361ffff16611232565b6040860135039250505b509392505050565b816001600160a01b0316836001600160a01b0316031561086257306001600160a01b03841603610beb57610be66001600160a01b03851683836112ae565b610862565b6108626001600160a01b0385168484846112fe565b8054606090600160d01b900465ffffffffffff1667ffffffffffffffff811115610c2c57610c2c61183c565b604051908082528060200260200182016040528015610c9357816020015b6040805160e08101825260008082526020808301829052928201819052606082018190526080820181905260a0820181905260c08201528252600019909201910181610c4a5790505b50905060005b8254600160d01b900465ffffffffffff16811015610d7d5782546002840190600090610cd5908490600160a01b900465ffffffffffff166116d8565b81526020808201929092526040908101600020815160e08101835281546001600160a01b0381168252600160a01b810464ffffffffff90811695830195909552600160c81b810490941692810192909252600160f01b90920461ffff16606082015260018201546080820152600282015460a082015260039091015460c08201528251839083908110610d6a57610d6a611852565b6020908102919091010152600101610c99565b50919050565b805460009065ffffffffffff600160a01b8204811691600160d01b900416808303610db857610db86311357c2560e21b611055565b65ffffffffffff6000198383010116805b8365ffffffffffff168110610e3c5760008181526002870160205260409020805464ffffffffff600160c81b8204811691600160a01b9004164210801590610e185750801580610e1857508042105b15610e295750909695505050505050565b505080610e3590611868565b9050610dc9565b50610e4d6311357c2560e21b611055565b505050919050565b825465ffffffffffff600160a01b8204811691600160d01b9004811690610e7c84846116d8565b1115610e9257610e9263ae4eeeb160e01b611055565b82600080805b8365ffffffffffff16811015610f8f5736888883818110610ebb57610ebb611852565b905060e002019050806020016020810190610ed69190611799565b64ffffffffff168465ffffffffffff1610610efb57610efb631ec409a760e21b611055565b65ffffffffffff8716820160009081526002808c016020526040909120908101546080830135811115610f3857610f3863ae4eeeb160e01b611055565b610f428284611161565b610f526040840160208501611799565b64ffffffffff169550610f696080840135866116d8565b9450610f81610f7b6020850185611439565b866110e2565b505050806001019050610e98565b50875465ffffffffffff808516600160d01b81026001600160d01b03909316929092178a55851611156110125765ffffffffffff83165b8465ffffffffffff168110156110105765ffffffffffff8616810160009081526002808b016020526040822082815560018082018490559181018390556003019190915501610fc6565b505b7f7609e28234a0fb3289eb48ac2b0315a8b49a296235f8c3b440f65db3ddc89568878760405161104392919061187f565b60405180910390a15050505050505050565b8060005260046000fd5b60008315611091578360051b8501855b803580851160051b9485526020948518526040600020930181811061106f5750505b501492915050565b6335278d126000526004601cfd5b6001600160a01b0381166110c5576110c5631c64498f60e31b611055565b81546001600160a01b0319166001600160a01b0391909116179055565b6040516370a0823160e01b81523060048201526001600160a01b038316906370a0823190602401602060405180830381865afa158015611126573d6000803e3d6000fd5b505050506040513d601f19601f8201168201806040525081019061114a91906116a9565b811115610522576105226342e1bedf60e01b611055565b6111716040820160208301611799565b825464ffffffffff91909116600160a01b0264ffffffffff60a01b199091161782556111a36060820160408301611799565b825464ffffffffff91909116600160c81b0264ffffffffff60c81b199091161782556080810135600183015560c081013560038301556111e66020820182611439565b82546001600160a01b0319166001600160a01b039190911617825561121160808201606083016118c1565b825461ffff91909116600160f01b026001600160f01b039091161790915550565b60006127108211156112905760405162461bcd60e51b815260206004820152602160248201527f426173697320706f696e74732063616e6e6f74206578636565642031305f30306044820152600360fc1b6064820152608401610500565b61271061129d83856118dc565b6112a791906118f3565b9392505050565b816014528060345263a9059cbb60601b60005260206000604460106000875af180600160005114166112f357803d853b1517106112f3576390b8ec186000526004601cfd5b506000603452505050565b60405181606052826040528360601b602c526323b872dd60601b600c52602060006064601c6000895af1806001600051141661134d57803d873b15171061134d57637939f4246000526004601cfd5b50600060605260405250505050565b600060808284031215610d7d57600080fd5b80356001600160a01b038116811461138557600080fd5b919050565b6000806000806000608086880312156113a257600080fd5b853567ffffffffffffffff808211156113ba57600080fd5b6113c689838a0161135c565b96506113d46020890161136e565b95506040880135945060608801359150808211156113f157600080fd5b818801915088601f83011261140557600080fd5b81358181111561141457600080fd5b89602082850101111561142657600080fd5b9699959850939650602001949392505050565b60006020828403121561144b57600080fd5b6112a78261136e565b6000806040838503121561146757600080fd5b6114708361136e565b946020939093013593505050565b600060e08284031215610d7d57600080fd5b803561ffff8116811461138557600080fd5b600080604083850312156114b557600080fd5b823567ffffffffffffffff8111156114cc57600080fd5b6114d88582860161135c565b9250506114e760208401611490565b90509250929050565b60006020828403121561150257600080fd5b5035919050565b60018060a01b038151168252602081015164ffffffffff8082166020850152806040840151166040850152505061ffff60608201511660608301526080810151608083015260a081015160a083015260c081015160c08301525050565b60e081016104b28284611509565b6020808252825182820181905260009190848201906040850190845b818110156115b6576115a3838551611509565b9284019260e09290920191600101611590565b50909695505050505050565b600080602083850312156115d557600080fd5b823567ffffffffffffffff808211156115ed57600080fd5b818501915085601f83011261160157600080fd5b81358181111561161057600080fd5b86602060e08302850101111561162557600080fd5b60209290920196919550909350505050565b6bffffffffffffffffffffffff881681526001600160a01b0387811660208301528681166040830152851660608201526080810184905260c060a0820181905281018290526000828460e0840137600060e0848401015260e0601f19601f850116830101905098975050505050505050565b6000602082840312156116bb57600080fd5b5051919050565b634e487b7160e01b600052601160045260246000fd5b808201808211156104b2576104b26116c2565b6000808335601e1984360301811261170257600080fd5b83018035915067ffffffffffffffff82111561171d57600080fd5b6020019150600581901b360382131561173557600080fd5b9250929050565b60006020828403121561174e57600080fd5b815180151581146112a757600080fd5b65ffffffffffff81811683821601908082111561177d5761177d6116c2565b5092915050565b803564ffffffffff8116811461138557600080fd5b6000602082840312156117ab57600080fd5b6112a782611784565b6001600160a01b036117c58261136e565b1682526117d460208201611784565b64ffffffffff8082166020850152806117ef60408501611784565b166040850152505061ffff61180660608301611490565b1660608301526080810135608083015260a081013560a083015260c081013560c08301525050565b60e081016104b282846117b4565b634e487b7160e01b600052604160045260246000fd5b634e487b7160e01b600052603260045260246000fd5b600081611877576118776116c2565b506000190190565b6020808252810182905260008360408301825b858110156118b7576118a482846117b4565b60e0928301929190910190600101611892565b5095945050505050565b6000602082840312156118d357600080fd5b6112a782611490565b80820281158282048414176104b2576104b26116c2565b60008261191057634e487b7160e01b600052601260045260246000fd5b50049056feeda6a1e2ce6f1639b6d3066254ca87a2daf51c4f0ad5038d408bbab6cc2cab00","linkReferences":{}},"methodIdentifiers":{"__DropFacet_init(address)":"14c9fcbc","addClaimCondition((address,uint40,uint40,uint16,uint256,uint256,bytes32))":"64843393","claimAndStake((uint256,address,uint256,bytes32[]),address,uint256,bytes)":"0f8fb14f","claimWithPenalty((uint256,address,uint256,bytes32[]),uint16)":"68c74fa8","getActiveClaimConditionId()":"c68907de","getClaimConditionById(uint256)":"6f8934f4","getClaimConditions()":"a1550b2f","getDepositIdByWallet(address,uint256)":"7a05557c","getSupplyClaimedByWallet(address,uint256)":"33d42dc6","setClaimConditions((address,uint40,uint40,uint16,uint256,uint256,bytes32)[])":"c9ac9368"},"id":112}