{"abi":[{"type":"function","name":"addEntitlementModule","inputs":[{"name":"entitlement","type":"address","internalType":"address"}],"outputs":[],"stateMutability":"nonpayable"},{"type":"function","name":"addImmutableEntitlements","inputs":[{"name":"entitlements","type":"address[]","internalType":"address[]"}],"outputs":[],"stateMutability":"nonpayable"},{"type":"function","name":"getEntitlement","inputs":[{"name":"entitlement","type":"address","internalType":"address"}],"outputs":[{"name":"","type":"tuple","internalType":"struct IEntitlementsManagerBase.Entitlement","components":[{"name":"name","type":"string","internalType":"string"},{"name":"moduleAddress","type":"address","internalType":"address"},{"name":"moduleType","type":"string","internalType":"string"},{"name":"isImmutable","type":"bool","internalType":"bool"}]}],"stateMutability":"view"},{"type":"function","name":"getEntitlements","inputs":[],"outputs":[{"name":"","type":"tuple[]","internalType":"struct IEntitlementsManagerBase.Entitlement[]","components":[{"name":"name","type":"string","internalType":"string"},{"name":"moduleAddress","type":"address","internalType":"address"},{"name":"moduleType","type":"string","internalType":"string"},{"name":"isImmutable","type":"bool","internalType":"bool"}]}],"stateMutability":"view"},{"type":"function","name":"isEntitledToChannel","inputs":[{"name":"channelId","type":"bytes32","internalType":"bytes32"},{"name":"user","type":"address","internalType":"address"},{"name":"permission","type":"string","internalType":"string"}],"outputs":[{"name":"","type":"bool","internalType":"bool"}],"stateMutability":"view"},{"type":"function","name":"isEntitledToSpace","inputs":[{"name":"user","type":"address","internalType":"address"},{"name":"permission","type":"string","internalType":"string"}],"outputs":[{"name":"","type":"bool","internalType":"bool"}],"stateMutability":"view"},{"type":"function","name":"removeEntitlementModule","inputs":[{"name":"entitlement","type":"address","internalType":"address"}],"outputs":[],"stateMutability":"nonpayable"},{"type":"event","name":"Approval","inputs":[{"name":"owner","type":"address","indexed":true,"internalType":"address"},{"name":"approved","type":"address","indexed":true,"internalType":"address"},{"name":"tokenId","type":"uint256","indexed":true,"internalType":"uint256"}],"anonymous":false},{"type":"event","name":"ApprovalForAll","inputs":[{"name":"owner","type":"address","indexed":true,"internalType":"address"},{"name":"operator","type":"address","indexed":true,"internalType":"address"},{"name":"approved","type":"bool","indexed":false,"internalType":"bool"}],"anonymous":false},{"type":"event","name":"Banned","inputs":[{"name":"moderator","type":"address","indexed":true,"internalType":"address"},{"name":"tokenId","type":"uint256","indexed":true,"internalType":"uint256"}],"anonymous":false},{"type":"event","name":"ConsecutiveTransfer","inputs":[{"name":"fromTokenId","type":"uint256","indexed":true,"internalType":"uint256"},{"name":"toTokenId","type":"uint256","indexed":false,"internalType":"uint256"},{"name":"from","type":"address","indexed":true,"internalType":"address"},{"name":"to","type":"address","indexed":true,"internalType":"address"}],"anonymous":false},{"type":"event","name":"EntitlementModuleAdded","inputs":[{"name":"caller","type":"address","indexed":true,"internalType":"address"},{"name":"entitlement","type":"address","indexed":false,"internalType":"address"}],"anonymous":false},{"type":"event","name":"EntitlementModuleRemoved","inputs":[{"name":"caller","type":"address","indexed":true,"internalType":"address"},{"name":"entitlement","type":"address","indexed":false,"internalType":"address"}],"anonymous":false},{"type":"event","name":"OwnershipTransferred","inputs":[{"name":"previousOwner","type":"address","indexed":true,"internalType":"address"},{"name":"newOwner","type":"address","indexed":true,"internalType":"address"}],"anonymous":false},{"type":"event","name":"Paused","inputs":[{"name":"account","type":"address","indexed":false,"internalType":"address"}],"anonymous":false},{"type":"event","name":"SubscriptionUpdate","inputs":[{"name":"tokenId","type":"uint256","indexed":true,"internalType":"uint256"},{"name":"expiration","type":"uint64","indexed":false,"internalType":"uint64"}],"anonymous":false},{"type":"event","name":"Transfer","inputs":[{"name":"from","type":"address","indexed":true,"internalType":"address"},{"name":"to","type":"address","indexed":true,"internalType":"address"},{"name":"tokenId","type":"uint256","indexed":true,"internalType":"uint256"}],"anonymous":false},{"type":"event","name":"Unbanned","inputs":[{"name":"moderator","type":"address","indexed":true,"internalType":"address"},{"name":"tokenId","type":"uint256","indexed":true,"internalType":"uint256"}],"anonymous":false},{"type":"event","name":"Unpaused","inputs":[{"name":"account","type":"address","indexed":false,"internalType":"address"}],"anonymous":false},{"type":"error","name":"ApprovalCallerNotOwnerNorApproved","inputs":[]},{"type":"error","name":"ApprovalQueryForNonexistentToken","inputs":[]},{"type":"error","name":"BalanceQueryForZeroAddress","inputs":[]},{"type":"error","name":"Banning__AlreadyBanned","inputs":[{"name":"tokenId","type":"uint256","internalType":"uint256"}]},{"type":"error","name":"Banning__CannotBanOwner","inputs":[]},{"type":"error","name":"Banning__CannotBanSelf","inputs":[]},{"type":"error","name":"Banning__InvalidTokenId","inputs":[{"name":"tokenId","type":"uint256","internalType":"uint256"}]},{"type":"error","name":"Banning__NotBanned","inputs":[{"name":"tokenId","type":"uint256","internalType":"uint256"}]},{"type":"error","name":"ERC5643__DurationZero","inputs":[]},{"type":"error","name":"ERC5643__InvalidTokenId","inputs":[{"name":"tokenId","type":"uint256","internalType":"uint256"}]},{"type":"error","name":"ERC5643__NotApprovedOrOwner","inputs":[]},{"type":"error","name":"ERC5643__SubscriptionNotRenewable","inputs":[{"name":"tokenId","type":"uint256","internalType":"uint256"}]},{"type":"error","name":"Entitlement__InvalidValue","inputs":[]},{"type":"error","name":"Entitlement__NotAllowed","inputs":[]},{"type":"error","name":"Entitlement__NotMember","inputs":[]},{"type":"error","name":"Entitlement__ValueAlreadyExists","inputs":[]},{"type":"error","name":"EntitlementsService__EntitlementAlreadyExists","inputs":[]},{"type":"error","name":"EntitlementsService__EntitlementDoesNotExist","inputs":[]},{"type":"error","name":"EntitlementsService__ImmutableEntitlement","inputs":[]},{"type":"error","name":"EntitlementsService__InvalidEntitlementAddress","inputs":[]},{"type":"error","name":"EntitlementsService__InvalidEntitlementInterface","inputs":[]},{"type":"error","name":"MintERC2309QuantityExceedsLimit","inputs":[]},{"type":"error","name":"MintToZeroAddress","inputs":[]},{"type":"error","name":"MintZeroQuantity","inputs":[]},{"type":"error","name":"Ownable__NotOwner","inputs":[{"name":"account","type":"address","internalType":"address"}]},{"type":"error","name":"Ownable__ZeroAddress","inputs":[]},{"type":"error","name":"OwnerQueryForNonexistentToken","inputs":[]},{"type":"error","name":"OwnershipNotInitializedForExtraData","inputs":[]},{"type":"error","name":"Pausable__NotPaused","inputs":[]},{"type":"error","name":"Pausable__Paused","inputs":[]},{"type":"error","name":"TransferCallerNotOwnerNorApproved","inputs":[]},{"type":"error","name":"TransferFromIncorrectOwner","inputs":[]},{"type":"error","name":"TransferToNonERC721ReceiverImplementer","inputs":[]},{"type":"error","name":"TransferToZeroAddress","inputs":[]},{"type":"error","name":"URIQueryForNonexistentToken","inputs":[]}],"bytecode":{"object":"0x608060405234801561001057600080fd5b5061188a806100206000396000f3fe608060405234801561001057600080fd5b506004361061007d5760003560e01c8063487dc38c1161005b578063487dc38c146100d25780638bfc820f146100e7578063be24138d146100fa578063fba4ff9d1461010d57600080fd5b8063070b9c3f1461008257806320759f9e14610097578063367287e3146100bf575b600080fd5b6100956100903660046112f3565b61012d565b005b6100aa6100a5366004611359565b610179565b60405190151581526020015b60405180910390f35b6100aa6100cd3660046113ae565b610190565b6100da6101a7565b6040516100b691906114b3565b6100956100f5366004611517565b6101b6565b6100956101083660046112f3565b6101ff565b61012061011b3660046112f3565b610243565b6040516100b6919061158c565b61013561025a565b6001600160a01b0316336001600160a01b03161461016d576040516365f4906560e01b81523360048201526024015b60405180910390fd5b61017681610324565b50565b600061018684848461037a565b90505b9392505050565b600061019e858585856103b4565b95945050505050565b60606101b16103ce565b905090565b6101be61025a565b6001600160a01b0316336001600160a01b0316146101f1576040516365f4906560e01b8152336004820152602401610164565b6101fb82826104cb565b5050565b61020761025a565b6001600160a01b0316336001600160a01b03161461023a576040516365f4906560e01b8152336004820152602401610164565b61017681610543565b61024b6112ab565b61025482610590565b92915050565b6040805180820182527fd2f24d4f172e4e84e48e7c4125b6e904c29e5eba33ad4938fee51dd5dbd4b600546001600160a01b03168082527fd2f24d4f172e4e84e48e7c4125b6e904c29e5eba33ad4938fee51dd5dbd4b60154602080840182905284516331a9108f60e11b815260048101929092529351600094636352211e92602480820193918290030181865afa1580156102fa573d6000803e3d6000fd5b505050506040513d601f19601f8201168201806040525081019061031e919061159f565b91505090565b61032d816105e2565b6103388160006106ab565b6040516001600160a01b038216815233907f055c4c0e6f85afe96beaac6c9d650859c001e6ef93103856624cce6ceba811b4906020015b60405180910390a250565b60006101866000801b8585856040516020016103979291906115bc565b6040516020818303038152906040526103af906115cc565b61080c565b600061019e858585856040516020016103979291906115bc565b606060006103da610a73565b9050805167ffffffffffffffff8111156103f6576103f66115f0565b60405190808252806020026020018201604052801561042f57816020015b61041c6112ab565b8152602001906001900390816104145790505b50915060005b81518110156104c65760008060008061046686868151811061045957610459611606565b6020026020010151610a9e565b93509350935093506040518060800160405280858152602001846001600160a01b031681526020018381526020018215158152508786815181106104ac576104ac611606565b602002602001018190525050505050806001019050610435565b505090565b60005b8181101561053e576105058383838181106104eb576104eb611606565b905060200201602081019061050091906112f3565b6105e2565b61053683838381811061051a5761051a611606565b905060200201602081019061052f91906112f3565b60016106ab565b6001016104ce565b505050565b61054c816105e2565b61055581610c35565b6040516001600160a01b038216815233907fa8e3e13a35b592afaa9d213d12c7ea06384518ada9733585d20883cfafcf249b9060200161036f565b6105986112ab565b6105a1826105e2565b6000806000806105b086610a9e565b604080516080810182529485526001600160a01b03909316602085015291830152151560608201529695505050505050565b6001600160a01b03811661060957604051630706e15760e51b815260040160405180910390fd5b6040516301ffc9a760e01b8152637bc2cb4560e11b60048201526001600160a01b038216906301ffc9a790602401602060405180830381865afa925050508015610670575060408051601f3d908101601f1916820190925261066d9181019061161c565b60015b61068d5760405163f58a5f2760e01b815260040160405180910390fd5b806101fb5760405163f58a5f2760e01b815260040160405180910390fd5b6001600160a01b03821660009081527fa558e822bd359dacbe30f0da89cbfde5f95895b441e13a4864caec1423c931026020526040902054829060008051602061186a833981519152901561071357604051632406020960e01b815260040160405180910390fd5b6107206001820185610d13565b506040518060600160405280856001600160a01b031681526020018415158152602001836001600160a01b0316632e1b61e46040518163ffffffff1660e01b8152600401602060405180830381865afa158015610781573d6000803e3d6000fd5b505050506040513d601f19601f820116820180604052508101906107a5919061161c565b151590526001600160a01b0394851660009081526020928352604090819020825181549484015193909201511515600160a81b0260ff60a81b19931515600160a01b026001600160a81b031990951692909716919091179290921716939093179092555050565b60008061081761025a565b9050600061082485610d28565b80519091506000610833610faa565b805190915060005b838110156108f257600085828151811061085757610857611606565b60200260200101519050866001600160a01b0316816001600160a01b03160361088a576001975050505050505050610189565b60005b838110156108e857816001600160a01b03166108c18683815181106108b4576108b4611606565b6020026020010151610fd5565b6001600160a01b0316036108e057600098505050505050505050610189565b60010161088d565b505060010161083b565b5060008051602061186a833981519152600061092d7fa558e822bd359dacbe30f0da89cbfde5f95895b441e13a4864caec1423c93101610fe0565b905060005b81811015610a61576000838161094b6001830185610fea565b6001600160a01b0390811682526020808301939093526040918201600020548251630b86d87960e21b81529251911693508392632e1b61e492600480820193918290030181865afa1580156109a4573d6000803e3d6000fd5b505050506040513d601f19601f820116820180604052508101906109c8919061161c565b158015610a415750806001600160a01b0316630cf0b5338e8a8e6040518463ffffffff1660e01b8152600401610a009392919061163e565b602060405180830381865afa158015610a1d573d6000803e3d6000fd5b505050506040513d601f19601f82011682018060405250810190610a41919061161c565b15610a585760019950505050505050505050610189565b50600101610932565b5060009b9a5050505050505050505050565b60606101b17fa558e822bd359dacbe30f0da89cbfde5f95895b441e13a4864caec1423c93101610ff6565b6001600160a01b03811660009081527fa558e822bd359dacbe30f0da89cbfde5f95895b441e13a4864caec1423c931026020526040812054606091908290829060008051602061186a83398151915290610b0b5760405163017ab33760e71b815260040160405180910390fd5b60008690506000816001600160a01b03166306fdde036040518163ffffffff1660e01b8152600401600060405180830381865afa158015610b50573d6000803e3d6000fd5b505050506040513d6000823e601f3d908101601f19168201604052610b7891908101906116d1565b6001600160a01b03808a16600090815260208690526040808220548151636465e69f60e01b815291519495508316939192861691636465e69f9160048082019286929091908290030181865afa158015610bd6573d6000803e3d6000fd5b505050506040513d6000823e601f3d908101601f19168201604052610bfe91908101906116d1565b6001600160a01b039a909a16600090815260209590955250604090932054909892979650600160a01b900460ff1694509092505050565b6001600160a01b03811660009081527fa558e822bd359dacbe30f0da89cbfde5f95895b441e13a4864caec1423c93102602052604090205460008051602061186a83398151915290610c9a5760405163017ab33760e71b815260040160405180910390fd5b6001600160a01b038216600090815260208290526040902054600160a01b900460ff1615610cdb57604051636045809760e11b815260040160405180910390fd5b610ce86001820183611003565b506001600160a01b0390911660009081526020919091526040902080546001600160b01b0319169055565b6000610189836001600160a01b038416611018565b606060007fc21004fcc619240a31f006438274d15cd813308303284436eef6055f0fdcb6006006015460405162468b7360e31b81526001600160a01b038581166004830152909116915060009082906302345b9890602401600060405180830381865afa158015610d9d573d6000803e3d6000fd5b505050506040513d6000823e601f3d908101601f19168201604052610dc59190810190611765565b604051631f04207360e31b81526001600160a01b03868116600483015291925060009184169063f821039890602401602060405180830381865afa158015610e11573d6000803e3d6000fd5b505050506040513d601f19601f82011682018060405250810190610e35919061159f565b905081516000148015610e5057506001600160a01b03811615155b15610eca5760405162468b7360e31b81526001600160a01b03808316600483015291955085918416906302345b9890602401600060405180830381865afa158015610e9f573d6000803e3d6000fd5b505050506040513d6000823e601f3d908101601f19168201604052610ec79190810190611765565b91505b81516000610ed982600161182d565b67ffffffffffffffff811115610ef157610ef16115f0565b604051908082528060200260200182016040528015610f1a578160200160208202803683370190505b50905060005b82811015610f7457848181518110610f3a57610f3a611606565b6020026020010151828281518110610f5457610f54611606565b6001600160a01b0390921660209283029190910190910152600101610f20565b5086818381518110610f8857610f88611606565b6001600160a01b03909216602092830291909101909101529695505050505050565b60606101b17f49daf035076c43671ca9f9fb568d931e51ab7f9098a5a694781b45341112cf00610ff6565b600061025482611067565b6000610254825490565b60006101898383611132565b606060006101898361115c565b6000610189836001600160a01b0384166111b8565b600081815260018301602052604081205461105f57508154600181810184556000848152602080822090930184905584548482528286019093526040902091909155610254565b506000610254565b60008181527f6569bde4a160c636ea8b8d11acb83a60d7fec0b8f2e09389306cba0e1340df046020526040812054907f6569bde4a160c636ea8b8d11acb83a60d7fec0b8f2e09389306cba0e1340df0090600160e01b83169003611118578160000361111257805483106110ee57604051636f96cda160e11b815260040160405180910390fd5b5b6000199092016000818152600484016020526040902054909290915081156110ef575b50919050565b50604051636f96cda160e11b815260040160405180910390fd5b600082600001828154811061114957611149611606565b9060005260206000200154905092915050565b6060816000018054806020026020016040519081016040528092919081815260200182805480156111ac57602002820191906000526020600020905b815481526020019060010190808311611198575b50505050509050919050565b600081815260018301602052604081205480156112a15760006111dc600183611840565b85549091506000906111f090600190611840565b905080821461125557600086600001828154811061121057611210611606565b906000526020600020015490508087600001848154811061123357611233611606565b6000918252602080832090910192909255918252600188019052604090208390555b855486908061126657611266611853565b600190038181906000526020600020016000905590558560010160008681526020019081526020016000206000905560019350505050610254565b6000915050610254565b60405180608001604052806060815260200160006001600160a01b03168152602001606081526020016000151581525090565b6001600160a01b038116811461017657600080fd5b60006020828403121561130557600080fd5b8135610189816112de565b60008083601f84011261132257600080fd5b50813567ffffffffffffffff81111561133a57600080fd5b60208301915083602082850101111561135257600080fd5b9250929050565b60008060006040848603121561136e57600080fd5b8335611379816112de565b9250602084013567ffffffffffffffff81111561139557600080fd5b6113a186828701611310565b9497909650939450505050565b600080600080606085870312156113c457600080fd5b8435935060208501356113d6816112de565b9250604085013567ffffffffffffffff8111156113f257600080fd5b6113fe87828801611310565b95989497509550505050565b60005b8381101561142557818101518382015260200161140d565b50506000910152565b6000815180845261144681602086016020860161140a565b601f01601f19169290920160200192915050565b600081516080845261146f608085018261142e565b905060018060a01b0360208401511660208501526040830151848203604086015261149a828261142e565b9150506060830151151560608501528091505092915050565b600060208083016020845280855180835260408601915060408160051b87010192506020870160005b8281101561150a57603f198886030184526114f885835161145a565b945092850192908501906001016114dc565b5092979650505050505050565b6000806020838503121561152a57600080fd5b823567ffffffffffffffff8082111561154257600080fd5b818501915085601f83011261155657600080fd5b81358181111561156557600080fd5b8660208260051b850101111561157a57600080fd5b60209290920196919550909350505050565b602081526000610189602083018461145a565b6000602082840312156115b157600080fd5b8151610189816112de565b8183823760009101908152919050565b805160208083015191908110156111125760001960209190910360031b1b16919050565b634e487b7160e01b600052604160045260246000fd5b634e487b7160e01b600052603260045260246000fd5b60006020828403121561162e57600080fd5b8151801515811461018957600080fd5b60006060820185835260206060602085015281865180845260808601915060208801935060005b8181101561168a5784516001600160a01b031683529383019391830191600101611665565b5050809350505050826040830152949350505050565b604051601f8201601f1916810167ffffffffffffffff811182821017156116c9576116c96115f0565b604052919050565b6000602082840312156116e357600080fd5b815167ffffffffffffffff808211156116fb57600080fd5b818401915084601f83011261170f57600080fd5b815181811115611721576117216115f0565b611734601f8201601f19166020016116a0565b915080825285602082850101111561174b57600080fd5b61175c81602084016020860161140a565b50949350505050565b6000602080838503121561177857600080fd5b825167ffffffffffffffff8082111561179057600080fd5b818501915085601f8301126117a457600080fd5b8151818111156117b6576117b66115f0565b8060051b91506117c78483016116a0565b81815291830184019184810190888411156117e157600080fd5b938501935b8385101561180b57845192506117fb836112de565b82825293850193908501906117e6565b98975050505050505050565b634e487b7160e01b600052601160045260246000fd5b8082018082111561025457610254611817565b8181038181111561025457610254611817565b634e487b7160e01b600052603160045260246000fdfea558e822bd359dacbe30f0da89cbfde5f95895b441e13a4864caec1423c93100","linkReferences":{}},"methodIdentifiers":{"addEntitlementModule(address)":"070b9c3f","addImmutableEntitlements(address[])":"8bfc820f","getEntitlement(address)":"fba4ff9d","getEntitlements()":"487dc38c","isEntitledToChannel(bytes32,address,string)":"367287e3","isEntitledToSpace(address,string)":"20759f9e","removeEntitlementModule(address)":"be24138d"},"id":251}