{"abi":[{"type":"function","name":"__EntitlementGated_init","inputs":[{"name":"entitlementChecker","type":"address","internalType":"contract IEntitlementChecker"}],"outputs":[],"stateMutability":"nonpayable"},{"type":"function","name":"getRuleData","inputs":[{"name":"transactionId","type":"bytes32","internalType":"bytes32"},{"name":"roleId","type":"uint256","internalType":"uint256"}],"outputs":[{"name":"","type":"tuple","internalType":"struct IRuleEntitlementBase.RuleData","components":[{"name":"operations","type":"tuple[]","internalType":"struct IRuleEntitlementBase.Operation[]","components":[{"name":"opType","type":"uint8","internalType":"enum IRuleEntitlementBase.CombinedOperationType"},{"name":"index","type":"uint8","internalType":"uint8"}]},{"name":"checkOperations","type":"tuple[]","internalType":"struct IRuleEntitlementBase.CheckOperation[]","components":[{"name":"opType","type":"uint8","internalType":"enum IRuleEntitlementBase.CheckOperationType"},{"name":"chainId","type":"uint256","internalType":"uint256"},{"name":"contractAddress","type":"address","internalType":"address"},{"name":"threshold","type":"uint256","internalType":"uint256"}]},{"name":"logicalOperations","type":"tuple[]","internalType":"struct IRuleEntitlementBase.LogicalOperation[]","components":[{"name":"logOpType","type":"uint8","internalType":"enum IRuleEntitlementBase.LogicalOperationType"},{"name":"leftOperationIndex","type":"uint8","internalType":"uint8"},{"name":"rightOperationIndex","type":"uint8","internalType":"uint8"}]}]}],"stateMutability":"view"},{"type":"function","name":"postEntitlementCheckResult","inputs":[{"name":"transactionId","type":"bytes32","internalType":"bytes32"},{"name":"roleId","type":"uint256","internalType":"uint256"},{"name":"result","type":"uint8","internalType":"enum IEntitlementGatedBase.NodeVoteStatus"}],"outputs":[],"stateMutability":"nonpayable"},{"type":"function","name":"postEntitlementCheckResultV2","inputs":[{"name":"transactionId","type":"bytes32","internalType":"bytes32"},{"name":"roleId","type":"uint256","internalType":"uint256"},{"name":"result","type":"uint8","internalType":"enum IEntitlementGatedBase.NodeVoteStatus"}],"outputs":[],"stateMutability":"payable"},{"type":"event","name":"EntitlementCheckResultPosted","inputs":[{"name":"transactionId","type":"bytes32","indexed":true,"internalType":"bytes32"},{"name":"result","type":"uint8","indexed":false,"internalType":"enum IEntitlementGatedBase.NodeVoteStatus"}],"anonymous":false},{"type":"event","name":"Initialized","inputs":[{"name":"version","type":"uint32","indexed":false,"internalType":"uint32"}],"anonymous":false},{"type":"event","name":"InterfaceAdded","inputs":[{"name":"interfaceId","type":"bytes4","indexed":true,"internalType":"bytes4"}],"anonymous":false},{"type":"event","name":"InterfaceRemoved","inputs":[{"name":"interfaceId","type":"bytes4","indexed":true,"internalType":"bytes4"}],"anonymous":false},{"type":"error","name":"EntitlementGated_InvalidAddress","inputs":[]},{"type":"error","name":"EntitlementGated_InvalidEntitlement","inputs":[]},{"type":"error","name":"EntitlementGated_NodeAlreadyVoted","inputs":[]},{"type":"error","name":"EntitlementGated_NodeNotFound","inputs":[]},{"type":"error","name":"EntitlementGated_OnlyEntitlementChecker","inputs":[]},{"type":"error","name":"EntitlementGated_RequestIdNotFound","inputs":[]},{"type":"error","name":"EntitlementGated_TransactionCheckAlreadyCompleted","inputs":[]},{"type":"error","name":"EntitlementGated_TransactionCheckAlreadyRegistered","inputs":[]},{"type":"error","name":"EntitlementGated_TransactionNotRegistered","inputs":[]},{"type":"error","name":"Initializable_InInitializingState","inputs":[]},{"type":"error","name":"Initializable_NotInInitializingState","inputs":[]},{"type":"error","name":"Introspection_AlreadySupported","inputs":[]},{"type":"error","name":"Introspection_NotSupported","inputs":[]},{"type":"error","name":"Reentrancy","inputs":[]}],"bytecode":{"object":"0x608060405234801561001057600080fd5b5061001961001e565b6100c4565b7f59b501c3653afc186af7d48dda36cf6732bd21629a6295693664240a6ef520008054640100000000900460ff161561006a576040516366008a2d60e01b815260040160405180910390fd5b805463ffffffff90811610156100c157805463ffffffff191663ffffffff90811782556040519081527fe9c9b456cb2994b80aeef036cf59d26e9617df80f816a6ee5a5b4166e07e2f5c9060200160405180910390a15b50565b610f69806100d36000396000f3fe60806040526004361061003f5760003560e01c80634739e805146100445780637adc9cbe1461006657806392c399ff14610086578063e58690f2146100bc575b600080fd5b34801561005057600080fd5b5061006461005f36600461093f565b6100cf565b005b34801561007257600080fd5b5061006461008136600461098d565b610116565b34801561009257600080fd5b506100a66100a13660046109aa565b61016c565b6040516100b39190610abd565b60405180910390f35b6100646100ca36600461093f565b6101a1565b3068929eee149b4bd2126854036100ee5763ab143c066000526004601cfd5b3068929eee149b4bd2126855610105838383610206565b3868929eee149b4bd2126855505050565b7f59b501c3653afc186af7d48dda36cf6732bd21629a6295693664240a6ef5200054640100000000900460ff1661016057604051630ef4733760e31b815260040160405180910390fd5b610169816104b3565b50565b61019060405180606001604052806060815260200160608152602001606081525090565b61019a83836104ee565b9392505050565b600080516020610f29833981519152546001600160a01b031633146101d0576101d0630b2395d760e41b6105df565b3068929eee149b4bd2126854036101ef5763ab143c066000526004601cfd5b3068929eee149b4bd21268556101058383836105e9565b6000838152600080516020610f49833981519152602052604090208054600080516020610f29833981519152919061010090046001600160a01b031615806102505750805460ff16155b1561026e57604051637ad5a43960e11b815260040160405180910390fd5b600084815260028201602052604090205460ff16156102a057604051637912b73960e01b815260040160405180910390fd5b60008481526001820160205260408120805482918291825b818110156103ba5760008382815481106102d4576102d4610b56565b60009182526020909120018054909150336001600160a01b03909116036103605760008154600160a01b900460ff166002811115610314576103146109cc565b14610332576040516347592a4d60e01b815260040160405180910390fd5b80548a90829060ff60a01b1916600160a01b836002811115610356576103566109cc565b0217905550600196505b8054600160a01b900460ff166001816002811115610380576103806109cc565b03610390578660010196506103b0565b60028160028111156103a4576103a46109cc565b036103b0578560010195505b50506001016102b8565b50846103d957604051638223a7e960e01b815260040160405180910390fd5b6103e4600282610b6c565b8411806103fa57506103f7600282610b6c565b83115b156104a75760008981526002870160205260408120805460ff1916600117905583851161042857600261042b565b60015b905060006104388c610676565b9050600182600281111561044e5761044e6109cc565b14806104575750805b15610495578b7fb9d6ce397e562841871d119aaf77469c60a3b5bf8b99a5d9851656015015c6338360405161048c9190610b8e565b60405180910390a25b80156104a4576104a48c61070f565b50505b50505050505050505050565b6104c3636afd38fd60e11b6107e5565b600080516020610f2983398151915280546001600160a01b0319166001600160a01b03831617905550565b61051260405180606001604052806060815260200160608152602001606081525090565b6000838152600080516020610f49833981519152602052604090208054600080516020610f29833981519152919060ff1661056057604051637ad5a43960e11b815260040160405180910390fd5b600381015460405163069a3ee960e01b8152600481018690526001600160a01b0390911690819063069a3ee990602401600060405180830381865afa1580156105ad573d6000803e3d6000fd5b505050506040513d6000823e601f3d908101601f191682016040526105d59190810190610dea565b9695505050505050565b8060005260046000fd5b6000838152600080516020610f49833981519152602052604090208054600080516020610f29833981519152919060ff1661062e5761062e637ad5a43960e11b6105df565b847fb9d6ce397e562841871d119aaf77469c60a3b5bf8b99a5d9851656015015c6338460405161065e9190610b8e565b60405180910390a261066f8561070f565b5050505050565b6000818152600080516020610f49833981519152602052604081206004810154600080516020610f298339815191529190835b81811015610703578260020160008460040183815481106106cc576106cc610b56565b6000918252602080832090910154835282019290925260400190205460ff166106fb5750600095945050505050565b6001016106a9565b50600195945050505050565b6000818152600080516020610f49833981519152602052604081206004810154600080516020610f29833981519152925b818110156107905782600101600084600401838154811061076357610763610b56565b90600052602060002001548152602001908152602001600020600061078891906108be565b600101610740565b5061079f6004830160006108dc565b6000848152600184016020526040812080546001600160a81b03191681556003810180546001600160a01b0319169055906107dd60048301826108dc565b505050505050565b6001600160e01b0319811660009081527f81088bbc801e045ea3e7620779ab349988f58afbdfba10dff983df3f33522b00602052604090205460ff1661086d576001600160e01b0319811660009081527f81088bbc801e045ea3e7620779ab349988f58afbdfba10dff983df3f33522b0060205260409020805460ff19166001179055610886565b604051637967f77d60e11b815260040160405180910390fd5b6040516001600160e01b03198216907f78f84e5b1c5c05be2b5ad3800781dd404d6d6c6302bc755c0fe20f58a33a7f2290600090a250565b508054600082559060005260206000209081019061016991906108fa565b5080546000825590600052602060002090810190610169919061091d565b5b808211156109195780546001600160a81b03191681556001016108fb565b5090565b5b80821115610919576000815560010161091e565b6003811061016957600080fd5b60008060006060848603121561095457600080fd5b8335925060208401359150604084013561096d81610932565b809150509250925092565b6001600160a01b038116811461016957600080fd5b60006020828403121561099f57600080fd5b813561019a81610978565b600080604083850312156109bd57600080fd5b50508035926020909101359150565b634e487b7160e01b600052602160045260246000fd5b60038110610169576101696109cc565b60008151808452602080850194506020840160005b83811015610a5c578151805160078110610a2357610a236109cc565b885280840151848901526040808201516001600160a01b0316908901526060908101519088015260809096019590820190600101610a07565b509495945050505050565b60008151808452602080850194506020840160005b83811015610a5c5781518051610a91816109e2565b88528084015160ff908116858a0152604091820151169088015260609096019590820190600101610a7c565b6020808252825160608383015280516080840181905260009291820190839060a08601905b80831015610b195783518051610af7816109e2565b835285015160ff16858301529284019260019290920191604090910190610ae2565b50838701519350601f19925082868203016040870152610b3981856109f2565b935050506040850151818584030160608601526105d58382610a67565b634e487b7160e01b600052603260045260246000fd5b600082610b8957634e487b7160e01b600052601260045260246000fd5b500490565b60208101610b9b836109e2565b91905290565b634e487b7160e01b600052604160045260246000fd5b6040516080810167ffffffffffffffff81118282101715610bda57610bda610ba1565b60405290565b6040516060810167ffffffffffffffff81118282101715610bda57610bda610ba1565b6040805190810167ffffffffffffffff81118282101715610bda57610bda610ba1565b604051601f8201601f1916810167ffffffffffffffff81118282101715610c4f57610c4f610ba1565b604052919050565b600067ffffffffffffffff821115610c7157610c71610ba1565b5060051b60200190565b805160ff81168114610c8c57600080fd5b919050565b600082601f830112610ca257600080fd5b81516020610cb7610cb283610c57565b610c26565b828152600792831b8501820192828201919087851115610cd657600080fd5b8387015b85811015610d3f576080818a031215610cf35760008081fd5b610cfb610bb7565b8151838110610d0a5760008081fd5b81528186015186820152604080830151610d2381610978565b9082015260608281015190820152845292840192608001610cda565b5090979650505050505050565b600082601f830112610d5d57600080fd5b81516020610d6d610cb283610c57565b82815260609283028501820192828201919087851115610d8c57600080fd5b8387015b85811015610d3f5781818a031215610da85760008081fd5b610db0610be0565b8151610dbb81610932565b8152610dc8828701610c7b565b868201526040610dd9818401610c7b565b908201528452928401928101610d90565b60006020808385031215610dfd57600080fd5b825167ffffffffffffffff80821115610e1557600080fd5b9084019060608287031215610e2957600080fd5b610e31610be0565b825182811115610e4057600080fd5b8301601f81018813610e5157600080fd5b8051610e5f610cb282610c57565b81815260069190911b8201860190868101908a831115610e7e57600080fd5b928701925b82841015610ed2576040848c031215610e9c5760008081fd5b610ea4610c03565b8451610eaf81610932565b8152610ebc858a01610c7b565b818a015282526040939093019290870190610e83565b84525050508284015182811115610ee857600080fd5b610ef488828601610c91565b85830152506040830151935081841115610f0d57600080fd5b610f1987858501610d4c565b6040820152969550505050505056fe9075c515a635ba70c9696f31149324218d75cf00afe836c482e6473f38b19e009075c515a635ba70c9696f31149324218d75cf00afe836c482e6473f38b19e01","linkReferences":{}},"methodIdentifiers":{"__EntitlementGated_init(address)":"7adc9cbe","getRuleData(bytes32,uint256)":"92c399ff","postEntitlementCheckResult(bytes32,uint256,uint8)":"4739e805","postEntitlementCheckResultV2(bytes32,uint256,uint8)":"e58690f2"},"id":241}