{"abi":[{"type":"function","name":"addEntitlementModule","inputs":[{"name":"entitlement","type":"address","internalType":"address"}],"outputs":[],"stateMutability":"nonpayable"},{"type":"function","name":"addImmutableEntitlements","inputs":[{"name":"entitlements","type":"address[]","internalType":"address[]"}],"outputs":[],"stateMutability":"nonpayable"},{"type":"function","name":"getChannelEntitlementDataByPermission","inputs":[{"name":"channelId","type":"bytes32","internalType":"bytes32"},{"name":"permission","type":"string","internalType":"string"}],"outputs":[{"name":"","type":"tuple[]","internalType":"struct IEntitlementsManager.EntitlementData[]","components":[{"name":"entitlementType","type":"string","internalType":"string"},{"name":"entitlementData","type":"bytes","internalType":"bytes"}]}],"stateMutability":"view"},{"type":"function","name":"getEntitlement","inputs":[{"name":"entitlement","type":"address","internalType":"address"}],"outputs":[{"name":"","type":"tuple","internalType":"struct IEntitlementsManagerBase.Entitlement","components":[{"name":"name","type":"string","internalType":"string"},{"name":"moduleAddress","type":"address","internalType":"address"},{"name":"moduleType","type":"string","internalType":"string"},{"name":"isImmutable","type":"bool","internalType":"bool"}]}],"stateMutability":"view"},{"type":"function","name":"getEntitlementDataByPermission","inputs":[{"name":"permission","type":"string","internalType":"string"}],"outputs":[{"name":"","type":"tuple[]","internalType":"struct IEntitlementsManager.EntitlementData[]","components":[{"name":"entitlementType","type":"string","internalType":"string"},{"name":"entitlementData","type":"bytes","internalType":"bytes"}]}],"stateMutability":"view"},{"type":"function","name":"getEntitlements","inputs":[],"outputs":[{"name":"","type":"tuple[]","internalType":"struct IEntitlementsManagerBase.Entitlement[]","components":[{"name":"name","type":"string","internalType":"string"},{"name":"moduleAddress","type":"address","internalType":"address"},{"name":"moduleType","type":"string","internalType":"string"},{"name":"isImmutable","type":"bool","internalType":"bool"}]}],"stateMutability":"view"},{"type":"function","name":"isEntitledToChannel","inputs":[{"name":"channelId","type":"bytes32","internalType":"bytes32"},{"name":"user","type":"address","internalType":"address"},{"name":"permission","type":"string","internalType":"string"}],"outputs":[{"name":"","type":"bool","internalType":"bool"}],"stateMutability":"view"},{"type":"function","name":"isEntitledToSpace","inputs":[{"name":"user","type":"address","internalType":"address"},{"name":"permission","type":"string","internalType":"string"}],"outputs":[{"name":"","type":"bool","internalType":"bool"}],"stateMutability":"view"},{"type":"function","name":"removeEntitlementModule","inputs":[{"name":"entitlement","type":"address","internalType":"address"}],"outputs":[],"stateMutability":"nonpayable"},{"type":"event","name":"Approval","inputs":[{"name":"owner","type":"address","indexed":true,"internalType":"address"},{"name":"approved","type":"address","indexed":true,"internalType":"address"},{"name":"tokenId","type":"uint256","indexed":true,"internalType":"uint256"}],"anonymous":false},{"type":"event","name":"ApprovalForAll","inputs":[{"name":"owner","type":"address","indexed":true,"internalType":"address"},{"name":"operator","type":"address","indexed":true,"internalType":"address"},{"name":"approved","type":"bool","indexed":false,"internalType":"bool"}],"anonymous":false},{"type":"event","name":"Banned","inputs":[{"name":"moderator","type":"address","indexed":true,"internalType":"address"},{"name":"tokenId","type":"uint256","indexed":true,"internalType":"uint256"}],"anonymous":false},{"type":"event","name":"ConsecutiveTransfer","inputs":[{"name":"fromTokenId","type":"uint256","indexed":true,"internalType":"uint256"},{"name":"toTokenId","type":"uint256","indexed":false,"internalType":"uint256"},{"name":"from","type":"address","indexed":true,"internalType":"address"},{"name":"to","type":"address","indexed":true,"internalType":"address"}],"anonymous":false},{"type":"event","name":"EntitlementModuleAdded","inputs":[{"name":"caller","type":"address","indexed":true,"internalType":"address"},{"name":"entitlement","type":"address","indexed":false,"internalType":"address"}],"anonymous":false},{"type":"event","name":"EntitlementModuleRemoved","inputs":[{"name":"caller","type":"address","indexed":true,"internalType":"address"},{"name":"entitlement","type":"address","indexed":false,"internalType":"address"}],"anonymous":false},{"type":"event","name":"OwnershipTransferred","inputs":[{"name":"previousOwner","type":"address","indexed":true,"internalType":"address"},{"name":"newOwner","type":"address","indexed":true,"internalType":"address"}],"anonymous":false},{"type":"event","name":"Paused","inputs":[{"name":"account","type":"address","indexed":false,"internalType":"address"}],"anonymous":false},{"type":"event","name":"RoleCreated","inputs":[{"name":"creator","type":"address","indexed":true,"internalType":"address"},{"name":"roleId","type":"uint256","indexed":true,"internalType":"uint256"}],"anonymous":false},{"type":"event","name":"RoleRemoved","inputs":[{"name":"remover","type":"address","indexed":true,"internalType":"address"},{"name":"roleId","type":"uint256","indexed":true,"internalType":"uint256"}],"anonymous":false},{"type":"event","name":"RoleUpdated","inputs":[{"name":"updater","type":"address","indexed":true,"internalType":"address"},{"name":"roleId","type":"uint256","indexed":true,"internalType":"uint256"}],"anonymous":false},{"type":"event","name":"SubscriptionUpdate","inputs":[{"name":"tokenId","type":"uint256","indexed":true,"internalType":"uint256"},{"name":"expiration","type":"uint64","indexed":false,"internalType":"uint64"}],"anonymous":false},{"type":"event","name":"Transfer","inputs":[{"name":"from","type":"address","indexed":true,"internalType":"address"},{"name":"to","type":"address","indexed":true,"internalType":"address"},{"name":"tokenId","type":"uint256","indexed":true,"internalType":"uint256"}],"anonymous":false},{"type":"event","name":"Unbanned","inputs":[{"name":"moderator","type":"address","indexed":true,"internalType":"address"},{"name":"tokenId","type":"uint256","indexed":true,"internalType":"uint256"}],"anonymous":false},{"type":"event","name":"Unpaused","inputs":[{"name":"account","type":"address","indexed":false,"internalType":"address"}],"anonymous":false},{"type":"error","name":"ApprovalCallerNotOwnerNorApproved","inputs":[]},{"type":"error","name":"ApprovalQueryForNonexistentToken","inputs":[]},{"type":"error","name":"BalanceQueryForZeroAddress","inputs":[]},{"type":"error","name":"Banning__AlreadyBanned","inputs":[{"name":"tokenId","type":"uint256","internalType":"uint256"}]},{"type":"error","name":"Banning__CannotBanSelf","inputs":[]},{"type":"error","name":"Banning__InvalidTokenId","inputs":[{"name":"tokenId","type":"uint256","internalType":"uint256"}]},{"type":"error","name":"Banning__NotBanned","inputs":[{"name":"tokenId","type":"uint256","internalType":"uint256"}]},{"type":"error","name":"ChannelService__ChannelDoesNotExist","inputs":[]},{"type":"error","name":"ERC5643__DurationZero","inputs":[]},{"type":"error","name":"ERC5643__InvalidTokenId","inputs":[{"name":"tokenId","type":"uint256","internalType":"uint256"}]},{"type":"error","name":"ERC5643__NotApprovedOrOwner","inputs":[]},{"type":"error","name":"ERC5643__SubscriptionNotRenewable","inputs":[{"name":"tokenId","type":"uint256","internalType":"uint256"}]},{"type":"error","name":"Entitlement__InvalidValue","inputs":[]},{"type":"error","name":"Entitlement__NotAllowed","inputs":[]},{"type":"error","name":"Entitlement__NotMember","inputs":[]},{"type":"error","name":"Entitlement__ValueAlreadyExists","inputs":[]},{"type":"error","name":"EntitlementsService__EntitlementAlreadyExists","inputs":[]},{"type":"error","name":"EntitlementsService__EntitlementDoesNotExist","inputs":[]},{"type":"error","name":"EntitlementsService__ImmutableEntitlement","inputs":[]},{"type":"error","name":"EntitlementsService__InvalidEntitlementAddress","inputs":[]},{"type":"error","name":"EntitlementsService__InvalidEntitlementInterface","inputs":[]},{"type":"error","name":"MintERC2309QuantityExceedsLimit","inputs":[]},{"type":"error","name":"MintToZeroAddress","inputs":[]},{"type":"error","name":"MintZeroQuantity","inputs":[]},{"type":"error","name":"Ownable__NotOwner","inputs":[{"name":"account","type":"address","internalType":"address"}]},{"type":"error","name":"Ownable__ZeroAddress","inputs":[]},{"type":"error","name":"OwnerQueryForNonexistentToken","inputs":[]},{"type":"error","name":"OwnershipNotInitializedForExtraData","inputs":[]},{"type":"error","name":"Pausable__NotPaused","inputs":[]},{"type":"error","name":"Pausable__Paused","inputs":[]},{"type":"error","name":"Roles__EntitlementAlreadyExists","inputs":[]},{"type":"error","name":"Roles__EntitlementDoesNotExist","inputs":[]},{"type":"error","name":"Roles__InvalidEntitlementAddress","inputs":[]},{"type":"error","name":"Roles__InvalidPermission","inputs":[]},{"type":"error","name":"Roles__PermissionAlreadyExists","inputs":[]},{"type":"error","name":"Roles__PermissionDoesNotExist","inputs":[]},{"type":"error","name":"Roles__RoleDoesNotExist","inputs":[]},{"type":"error","name":"TransferCallerNotOwnerNorApproved","inputs":[]},{"type":"error","name":"TransferFromIncorrectOwner","inputs":[]},{"type":"error","name":"TransferToNonERC721ReceiverImplementer","inputs":[]},{"type":"error","name":"TransferToZeroAddress","inputs":[]},{"type":"error","name":"URIQueryForNonexistentToken","inputs":[]}],"bytecode":{"object":"0x608060405234801561001057600080fd5b5061264f806100206000396000f3fe608060405234801561001057600080fd5b50600436106100935760003560e01c8063487dc38c11610066578063487dc38c146101085780638bfc820f1461011d578063be24138d14610130578063db0a69a814610143578063fba4ff9d1461015657600080fd5b8063070b9c3f1461009857806320759f9e146100ad578063367287e3146100d557806340cd83fb146100e8575b600080fd5b6100ab6100a6366004611f0b565b610176565b005b6100c06100bb366004611f70565b6101c2565b60405190151581526020015b60405180910390f35b6100c06100e3366004611fc4565b6101d9565b6100fb6100f636600461201f565b6101f0565b6040516100cc91906120a1565b61011061020a565b6040516100cc9190612181565b6100ab61012b36600461224e565b610219565b6100ab61013e366004611f0b565b61025d565b6100fb6101513660046122ec565b6102a1565b610169610164366004611f0b565b6102f9565b6040516100cc919061232d565b61017e61030a565b6001600160a01b0316336001600160a01b0316146101b6576040516365f4906560e01b81523360048201526024015b60405180910390fd5b6101bf816103d4565b50565b60006101cf84848461042a565b90505b9392505050565b60006101e785858585610464565b95945050505050565b606060006101ff85858561047e565b90506101e78161069b565b6060610214610a6c565b905090565b61022161030a565b6001600160a01b0316336001600160a01b031614610254576040516365f4906560e01b81523360048201526024016101ad565b6101bf81610b6a565b61026561030a565b6001600160a01b0316336001600160a01b031614610298576040516365f4906560e01b81523360048201526024016101ad565b6101bf81610bc8565b606060006102e484848080601f016020809104026020016040519081016040528093929190818152602001838380828437600092019190915250610c1592505050565b90506102ef8161069b565b9150505b92915050565b610301611ec3565b6102f382610e5f565b6040805180820182527fd2f24d4f172e4e84e48e7c4125b6e904c29e5eba33ad4938fee51dd5dbd4b600546001600160a01b03168082527fd2f24d4f172e4e84e48e7c4125b6e904c29e5eba33ad4938fee51dd5dbd4b60154602080840182905284516331a9108f60e11b815260048101929092529351600094636352211e92602480820193918290030181865afa1580156103aa573d6000803e3d6000fd5b505050506040513d601f19601f820116820180604052508101906103ce9190612340565b91505090565b6103dd81610eb1565b6103e8816000610f7a565b6040516001600160a01b038216815233907f055c4c0e6f85afe96beaac6c9d650859c001e6ef93103856624cce6ceba811b4906020015b60405180910390a250565b60006101cf6000801b85858560405160200161044792919061235d565b60405160208183030381529060405261045f9061236d565b6110b9565b60006101e78585858560405160200161044792919061235d565b6060600061048b85611342565b905060008082516001600160401b038111156104a9576104a96121e5565b6040519080825280602002602001820160405280156104d2578160200160208202803683370190505b509050600086866040516020016104ea92919061235d565b60405160208183030381529060405280519060200120905060005b84518110156105c657600061053286838151811061052557610525612391565b60200260200101516113a5565b905080604001511561054457506105be565b60005b8160600151518110156105bb57838260600151828151811061056b5761056b612391565b602002602001015180519060200120036105b357816000015185878151811061059657610596612391565b6020908102919091010152856105ab816123bd565b9650506105bb565b600101610547565b50505b600101610505565b506000836001600160401b038111156105e1576105e16121e5565b60405190808252806020026020018201604052801561064657816020015b6106336040518060a00160405280600081526020016060815260200160001515815260200160608152602001606081525090565b8152602001906001900390816105ff5790505b50905060005b8481101561068e5761066984828151811061052557610525612391565b82828151811061067b5761067b612391565b602090810291909101015260010161064c565b5098975050505050505050565b60606000805b83518110156106ed5760008482815181106106be576106be612391565b6020026020010151905080604001516106e4576080810151516106e190846123d6565b92505b506001016106a1565b506000816001600160401b03811115610708576107086121e5565b60405190808252806020026020018201604052801561074d57816020015b60408051808201909152606080825260208201528152602001906001900390816107265790505b5090506000915060005b8451811015610a6457600085828151811061077457610774612391565b602002602001015190508060400151610a5b5760005b816080015151811015610a59576000826080015182815181106107af576107af612391565b60200260200101519050806001600160a01b0316632e1b61e46040518163ffffffff1660e01b8152600401602060405180830381865afa1580156107f7573d6000803e3d6000fd5b505050506040513d601f19601f8201168201806040525081019061081b91906123e9565b6109335760008190506040518060400160405280826001600160a01b0316636465e69f6040518163ffffffff1660e01b8152600401600060405180830381865afa15801561086d573d6000803e3d6000fd5b505050506040513d6000823e601f3d908101601f191682016040526108959190810190612459565b81528551604051630f7703d960e11b815260048101919091526020909101906001600160a01b03841690631eee07b290602401600060405180830381865afa1580156108e5573d6000803e3d6000fd5b505050506040513d6000823e601f3d908101601f1916820160405261090d9190810190612459565b81525086888151811061092257610922612391565b602002602001018190525050610a43565b60008190506040518060400160405280826001600160a01b0316636465e69f6040518163ffffffff1660e01b8152600401600060405180830381865afa158015610981573d6000803e3d6000fd5b505050506040513d6000823e601f3d908101601f191682016040526109a99190810190612459565b81528551604051630f7703d960e11b815260048101919091526020909101906001600160a01b03841690631eee07b290602401600060405180830381865afa1580156109f9573d6000803e3d6000fd5b505050506040513d6000823e601f3d908101601f19168201604052610a219190810190612459565b815250868881518110610a3657610a36612391565b6020026020010181905250505b85610a4d816123bd565b9650505060010161078a565b505b50600101610757565b509392505050565b60606000610a7861141e565b905080516001600160401b03811115610a9357610a936121e5565b604051908082528060200260200182016040528015610acc57816020015b610ab9611ec3565b815260200190600190039081610ab15790505b50915060005b8151811015610b6557600080600080610b03868681518110610af657610af6612391565b602002602001015161143b565b93509350935093506040518060800160405280858152602001846001600160a01b03168152602001838152602001821515815250878681518110610b4957610b49612391565b6020026020010181905250505050508080600101915050610ad2565b505090565b60005b8151811015610bc457610b98828281518110610b8b57610b8b612391565b6020026020010151610eb1565b610bbc828281518110610bad57610bad612391565b60200260200101516001610f7a565b600101610b6d565b5050565b610bd181610eb1565b610bda816115af565b6040516001600160a01b038216815233907fa8e3e13a35b592afaa9d213d12c7ea06384518ada9733585d20883cfafcf249b9060200161041f565b60606000610c2161166c565b80519091506000816001600160401b03811115610c4057610c406121e5565b604051908082528060200260200182016040528015610c69578160200160208202803683370190505b5085516020870120909150600090815b84811015610d38576000610ca5878381518110610c9857610c98612391565b6020026020010151611697565b509250505060005b8151811015610d2e5783828281518110610cc957610cc9612391565b60200260200101518051906020012003610d2657878381518110610cef57610cef612391565b6020026020010151868681518110610d0957610d09612391565b602090810291909101015284610d1e816123bd565b955050610d2e565b600101610cad565b5050600101610c79565b506000826001600160401b03811115610d5357610d536121e5565b604051908082528060200260200182016040528015610db857816020015b610da56040518060a00160405280600081526020016060815260200160001515815260200160608152602001606081525090565b815260200190600190039081610d715790505b50905060005b83811015610e53576000858281518110610dda57610dda612391565b60200260200101519050600080600080610df385611697565b93509350935093506040518060a00160405280868152602001858152602001841515815260200183815260200182815250878781518110610e3657610e36612391565b602002602001018190525050505050508080600101915050610dbe565b50979650505050505050565b610e67611ec3565b610e7082610eb1565b600080600080610e7f8661143b565b604080516080810182529485526001600160a01b03909316602085015291830152151560608201529695505050505050565b6001600160a01b038116610ed857604051630706e15760e51b815260040160405180910390fd5b6040516301ffc9a760e01b8152637bc2cb4560e11b60048201526001600160a01b038216906301ffc9a790602401602060405180830381865afa925050508015610f3f575060408051601f3d908101601f19168201909252610f3c918101906123e9565b60015b610f5c5760405163f58a5f2760e01b815260040160405180910390fd5b80610bc45760405163f58a5f2760e01b815260040160405180910390fd5b8160008051602061262f833981519152610fa260008051602061260f833981519152836117c2565b15610fc057604051632406020960e01b815260040160405180910390fd5b610fcd60018201856117e4565b506040518060600160405280856001600160a01b031681526020018415158152602001836001600160a01b0316632e1b61e46040518163ffffffff1660e01b8152600401602060405180830381865afa15801561102e573d6000803e3d6000fd5b505050506040513d601f19601f8201168201806040525081019061105291906123e9565b151590526001600160a01b0394851660009081526020928352604090819020825181549484015193909201511515600160a81b0260ff60a81b19931515600160a01b026001600160a81b031990951692909716919091179290921716939093179092555050565b6000806110c461030a565b905060006110d1856117f9565b805190915060006110e0611977565b805190915060005b8381101561119f57600085828151811061110457611104612391565b60200260200101519050866001600160a01b0316816001600160a01b0316036111375760019750505050505050506101d2565b60005b8381101561119557816001600160a01b031661116e86838151811061116157611161612391565b60200260200101516119a2565b6001600160a01b03160361118d576000985050505050505050506101d2565b60010161113a565b50506001016110e8565b5060008051602061262f83398151915260006111c860008051602061260f8339815191526119ad565b905060005b8181101561133057600083816111e660018301856119b7565b6001600160a01b03908116825260208083019390935260409182016000208251606081018452905491821680825260ff600160a01b84048116151583870152600160a81b9093049092161515818401528251630b86d87960e21b815292519094509092632e1b61e492600480820193918290030181865afa15801561126f573d6000803e3d6000fd5b505050506040513d601f19601f8201168201806040525081019061129391906123e9565b158015611310575080600001516001600160a01b0316630cf0b5338e8a8e6040518463ffffffff1660e01b81526004016112cf939291906124a1565b602060405180830381865afa1580156112ec573d6000803e3d6000fd5b505050506040513d601f19601f8201168201806040525081019061131091906123e9565b1561132757600199505050505050505050506101d2565b506001016111cd565b5060009b9a5050505050505050505050565b606061134d826119c3565b60008281527f804ad633258ac9b908ae115a2763b3f6e04be3b1165402c872b25af518504303602052604090207f804ad633258ac9b908ae115a2763b3f6e04be3b1165402c872b25af518504300906101d290611a0a565b6113d96040518060a00160405280600081526020016060815260200160001515815260200160608152602001606081525090565b6000806000806113e886611697565b6040805160a0810182529a8b5260208b019490945291151592890192909252606088019190915260808701525093949350505050565b606061021460008051602061262f8339815191525b600101611a0a565b60606000818160008051602061262f83398151915261146860008051602061260f833981519152876117c2565b6114855760405163017ab33760e71b815260040160405180910390fd5b60008690506000816001600160a01b03166306fdde036040518163ffffffff1660e01b8152600401600060405180830381865afa1580156114ca573d6000803e3d6000fd5b505050506040513d6000823e601f3d908101601f191682016040526114f29190810190612459565b6001600160a01b03808a16600090815260208690526040808220548151636465e69f60e01b815291519495508316939192861691636465e69f9160048082019286929091908290030181865afa158015611550573d6000803e3d6000fd5b505050506040513d6000823e601f3d908101601f191682016040526115789190810190612459565b6001600160a01b039a909a16600090815260209590955250604090932054909892979650600160a01b900460ff1694509092505050565b60008051602061262f8339815191526115d660008051602061260f833981519152836117c2565b6115f35760405163017ab33760e71b815260040160405180910390fd5b6001600160a01b038216600090815260208290526040902054600160a01b900460ff161561163457604051636045809760e11b815260040160405180910390fd5b6116416001820183611a17565b506001600160a01b0390911660009081526020919091526040902080546001600160b01b0319169055565b60606102147f672ef851d5f92307da037116e23aa9e31af7e1f7e3ca62c4e6d540631df3fd00611433565b60008181526000805160206125ef8339815191526020526040812080546060929183918291906116c690612503565b80601f01602080910402602001604051908101604052809291908181526020018280546116f290612503565b801561173f5780601f106117145761010080835404028352916020019161173f565b820191906000526020600020905b81548152906001019060200180831161172257829003601f168201915b5050505050935061176d7f672ef851d5f92307da037116e23aa9e31af7e1f7e3ca62c4e6d540631df3fd0090565b600086815260039190910160209081526040808320600101546000805160206125ef83398151915290925290912060ff90911693506117ae90600201611a2c565b91506117b985611a37565b90509193509193565b6001600160a01b038116600090815260018301602052604081205415156101d2565b60006101d2836001600160a01b038416611b3b565b606060007fc21004fcc619240a31f006438274d15cd813308303284436eef6055f0fdcb6006006015460405162468b7360e31b81526001600160a01b038581166004830152909116915060009082906302345b9890602401600060405180830381865afa15801561186e573d6000803e3d6000fd5b505050506040513d6000823e601f3d908101601f191682016040526118969190810190612537565b805190915060006118a88260016123d6565b6001600160401b038111156118bf576118bf6121e5565b6040519080825280602002602001820160405280156118e8578160200160208202803683370190505b50905060005b828110156119425783818151811061190857611908612391565b602002602001015182828151811061192257611922612391565b6001600160a01b03909216602092830291909101909101526001016118ee565b508581838151811061195657611956612391565b6001600160a01b039092166020928302919091019091015295945050505050565b60606102147f49daf035076c43671ca9f9fb568d931e51ab7f9098a5a694781b45341112cf00611a0a565b60006102f382611b8a565b60006102f3825490565b60006101d28383611c55565b6119ed7f804ad633258ac9b908ae115a2763b3f6e04be3b1165402c872b25af51850430082611c7f565b6101bf5760405163560b4b4160e11b815260040160405180910390fd5b606060006101d283611c97565b60006101d2836001600160a01b038416611cf3565b60606102f382611de6565b60008181526000805160206125ef8339815191526020526040812060609190611a62906004016119ad565b6001600160401b03811115611a7957611a796121e5565b604051908082528060200260200182016040528015611aa2578160200160208202803683370190505b50905060005b60008481526000805160206125ef83398151915260205260409020611acf906004016119ad565b811015611b345760008481526000805160206125ef83398151915260205260408120611afe90600401836119b7565b905080838381518110611b1357611b13612391565b6001600160a01b039092166020928302919091019091015250600101611aa8565b5092915050565b6000818152600183016020526040812054611b82575081546001818101845560008481526020808220909301849055845484825282860190935260409020919091556102f3565b5060006102f3565b60008181527f6569bde4a160c636ea8b8d11acb83a60d7fec0b8f2e09389306cba0e1340df046020526040812054907f6569bde4a160c636ea8b8d11acb83a60d7fec0b8f2e09389306cba0e1340df0090600160e01b83169003611c3b5781600003611c355780548310611c1157604051636f96cda160e11b815260040160405180910390fd5b5b600019909201600081815260048401602052604090205490929091508115611c12575b50919050565b50604051636f96cda160e11b815260040160405180910390fd5b6000826000018281548110611c6c57611c6c612391565b9060005260206000200154905092915050565b600081815260018301602052604081205415156101d2565b606081600001805480602002602001604051908101604052809291908181526020018280548015611ce757602002820191906000526020600020905b815481526020019060010190808311611cd3575b50505050509050919050565b60008181526001830160205260408120548015611ddc576000611d176001836125c5565b8554909150600090611d2b906001906125c5565b9050808214611d90576000866000018281548110611d4b57611d4b612391565b9060005260206000200154905080876000018481548110611d6e57611d6e612391565b6000918252602080832090910192909255918252600188019052604090208390555b8554869080611da157611da16125d8565b6001900381819060005260206000200160009055905585600101600086815260200190815260200160002060009055600193505050506102f3565b60009150506102f3565b606081600001805480602002602001604051908101604052809291908181526020016000905b82821015611eb8578382906000526020600020018054611e2b90612503565b80601f0160208091040260200160405190810160405280929190818152602001828054611e5790612503565b8015611ea45780601f10611e7957610100808354040283529160200191611ea4565b820191906000526020600020905b815481529060010190602001808311611e8757829003601f168201915b505050505081526020019060010190611e0c565b505050509050919050565b60405180608001604052806060815260200160006001600160a01b03168152602001606081526020016000151581525090565b6001600160a01b03811681146101bf57600080fd5b600060208284031215611f1d57600080fd5b81356101d281611ef6565b60008083601f840112611f3a57600080fd5b5081356001600160401b03811115611f5157600080fd5b602083019150836020828501011115611f6957600080fd5b9250929050565b600080600060408486031215611f8557600080fd5b8335611f9081611ef6565b925060208401356001600160401b03811115611fab57600080fd5b611fb786828701611f28565b9497909650939450505050565b60008060008060608587031215611fda57600080fd5b843593506020850135611fec81611ef6565b925060408501356001600160401b0381111561200757600080fd5b61201387828801611f28565b95989497509550505050565b60008060006040848603121561203457600080fd5b8335925060208401356001600160401b03811115611fab57600080fd5b60005b8381101561206c578181015183820152602001612054565b50506000910152565b6000815180845261208d816020860160208601612051565b601f01601f19169290920160200192915050565b600060208083018184528085518083526040925060408601915060408160051b87010184880160005b8381101561211a57888303603f19018552815180518785526120ee88860182612075565b91890151858303868b01529190506121068183612075565b9689019694505050908601906001016120ca565b509098975050505050505050565b600081516080845261213d6080850182612075565b905060018060a01b036020840151166020850152604083015184820360408601526121688282612075565b9150506060830151151560608501528091505092915050565b600060208083016020845280855180835260408601915060408160051b87010192506020870160005b828110156121d857603f198886030184526121c6858351612128565b945092850192908501906001016121aa565b5092979650505050505050565b634e487b7160e01b600052604160045260246000fd5b604051601f8201601f191681016001600160401b0381118282101715612223576122236121e5565b604052919050565b60006001600160401b03821115612244576122446121e5565b5060051b60200190565b6000602080838503121561226157600080fd5b82356001600160401b0381111561227757600080fd5b8301601f8101851361228857600080fd5b803561229b6122968261222b565b6121fb565b81815260059190911b820183019083810190878311156122ba57600080fd5b928401925b828410156122e15783356122d281611ef6565b825292840192908401906122bf565b979650505050505050565b600080602083850312156122ff57600080fd5b82356001600160401b0381111561231557600080fd5b61232185828601611f28565b90969095509350505050565b6020815260006101d26020830184612128565b60006020828403121561235257600080fd5b81516101d281611ef6565b8183823760009101908152919050565b80516020808301519190811015611c355760001960209190910360031b1b16919050565b634e487b7160e01b600052603260045260246000fd5b634e487b7160e01b600052601160045260246000fd5b6000600182016123cf576123cf6123a7565b5060010190565b808201808211156102f3576102f36123a7565b6000602082840312156123fb57600080fd5b815180151581146101d257600080fd5b60006001600160401b03831115612424576124246121e5565b612437601f8401601f19166020016121fb565b905082815283838301111561244b57600080fd5b6101d2836020830184612051565b60006020828403121561246b57600080fd5b81516001600160401b0381111561248157600080fd5b8201601f8101841361249257600080fd5b6102ef8482516020840161240b565b60006060820185835260206060602085015281865180845260808601915060208801935060005b818110156124ed5784516001600160a01b0316835293830193918301916001016124c8565b5050809350505050826040830152949350505050565b600181811c9082168061251757607f821691505b602082108103611c3557634e487b7160e01b600052602260045260246000fd5b6000602080838503121561254a57600080fd5b82516001600160401b0381111561256057600080fd5b8301601f8101851361257157600080fd5b805161257f6122968261222b565b81815260059190911b8201830190838101908783111561259e57600080fd5b928401925b828410156122e15783516125b681611ef6565b825292840192908401906125a3565b818103818111156102f3576102f36123a7565b634e487b7160e01b600052603160045260246000fdfe672ef851d5f92307da037116e23aa9e31af7e1f7e3ca62c4e6d540631df3fd03a558e822bd359dacbe30f0da89cbfde5f95895b441e13a4864caec1423c93101a558e822bd359dacbe30f0da89cbfde5f95895b441e13a4864caec1423c93100","linkReferences":{}},"methodIdentifiers":{"addEntitlementModule(address)":"070b9c3f","addImmutableEntitlements(address[])":"8bfc820f","getChannelEntitlementDataByPermission(bytes32,string)":"40cd83fb","getEntitlement(address)":"fba4ff9d","getEntitlementDataByPermission(string)":"db0a69a8","getEntitlements()":"487dc38c","isEntitledToChannel(bytes32,address,string)":"367287e3","isEntitledToSpace(address,string)":"20759f9e","removeEntitlementModule(address)":"be24138d"},"id":214}