{"abi":[{"type":"function","name":"addEntitlementModule","inputs":[{"name":"entitlement","type":"address","internalType":"address"}],"outputs":[],"stateMutability":"nonpayable"},{"type":"function","name":"addImmutableEntitlements","inputs":[{"name":"entitlements","type":"address[]","internalType":"address[]"}],"outputs":[],"stateMutability":"nonpayable"},{"type":"function","name":"getEntitlement","inputs":[{"name":"entitlement","type":"address","internalType":"address"}],"outputs":[{"name":"","type":"tuple","internalType":"struct IEntitlementsManagerBase.Entitlement","components":[{"name":"name","type":"string","internalType":"string"},{"name":"moduleAddress","type":"address","internalType":"address"},{"name":"moduleType","type":"string","internalType":"string"},{"name":"isImmutable","type":"bool","internalType":"bool"}]}],"stateMutability":"view"},{"type":"function","name":"getEntitlementDataByPermission","inputs":[{"name":"permission","type":"string","internalType":"string"}],"outputs":[{"name":"","type":"tuple[]","internalType":"struct IEntitlementsManager.EntitlementData[]","components":[{"name":"entitlementType","type":"string","internalType":"string"},{"name":"entitlementData","type":"bytes","internalType":"bytes"}]}],"stateMutability":"view"},{"type":"function","name":"getEntitlements","inputs":[],"outputs":[{"name":"","type":"tuple[]","internalType":"struct IEntitlementsManagerBase.Entitlement[]","components":[{"name":"name","type":"string","internalType":"string"},{"name":"moduleAddress","type":"address","internalType":"address"},{"name":"moduleType","type":"string","internalType":"string"},{"name":"isImmutable","type":"bool","internalType":"bool"}]}],"stateMutability":"view"},{"type":"function","name":"isEntitledToChannel","inputs":[{"name":"channelId","type":"bytes32","internalType":"bytes32"},{"name":"user","type":"address","internalType":"address"},{"name":"permission","type":"string","internalType":"string"}],"outputs":[{"name":"","type":"bool","internalType":"bool"}],"stateMutability":"view"},{"type":"function","name":"isEntitledToSpace","inputs":[{"name":"user","type":"address","internalType":"address"},{"name":"permission","type":"string","internalType":"string"}],"outputs":[{"name":"","type":"bool","internalType":"bool"}],"stateMutability":"view"},{"type":"function","name":"removeEntitlementModule","inputs":[{"name":"entitlement","type":"address","internalType":"address"}],"outputs":[],"stateMutability":"nonpayable"},{"type":"event","name":"Approval","inputs":[{"name":"owner","type":"address","indexed":true,"internalType":"address"},{"name":"approved","type":"address","indexed":true,"internalType":"address"},{"name":"tokenId","type":"uint256","indexed":true,"internalType":"uint256"}],"anonymous":false},{"type":"event","name":"ApprovalForAll","inputs":[{"name":"owner","type":"address","indexed":true,"internalType":"address"},{"name":"operator","type":"address","indexed":true,"internalType":"address"},{"name":"approved","type":"bool","indexed":false,"internalType":"bool"}],"anonymous":false},{"type":"event","name":"Banned","inputs":[{"name":"moderator","type":"address","indexed":true,"internalType":"address"},{"name":"tokenId","type":"uint256","indexed":true,"internalType":"uint256"}],"anonymous":false},{"type":"event","name":"ConsecutiveTransfer","inputs":[{"name":"fromTokenId","type":"uint256","indexed":true,"internalType":"uint256"},{"name":"toTokenId","type":"uint256","indexed":false,"internalType":"uint256"},{"name":"from","type":"address","indexed":true,"internalType":"address"},{"name":"to","type":"address","indexed":true,"internalType":"address"}],"anonymous":false},{"type":"event","name":"EntitlementModuleAdded","inputs":[{"name":"caller","type":"address","indexed":true,"internalType":"address"},{"name":"entitlement","type":"address","indexed":false,"internalType":"address"}],"anonymous":false},{"type":"event","name":"EntitlementModuleRemoved","inputs":[{"name":"caller","type":"address","indexed":true,"internalType":"address"},{"name":"entitlement","type":"address","indexed":false,"internalType":"address"}],"anonymous":false},{"type":"event","name":"OwnershipTransferred","inputs":[{"name":"previousOwner","type":"address","indexed":true,"internalType":"address"},{"name":"newOwner","type":"address","indexed":true,"internalType":"address"}],"anonymous":false},{"type":"event","name":"Paused","inputs":[{"name":"account","type":"address","indexed":false,"internalType":"address"}],"anonymous":false},{"type":"event","name":"RoleCreated","inputs":[{"name":"creator","type":"address","indexed":true,"internalType":"address"},{"name":"roleId","type":"uint256","indexed":true,"internalType":"uint256"}],"anonymous":false},{"type":"event","name":"RoleRemoved","inputs":[{"name":"remover","type":"address","indexed":true,"internalType":"address"},{"name":"roleId","type":"uint256","indexed":true,"internalType":"uint256"}],"anonymous":false},{"type":"event","name":"RoleUpdated","inputs":[{"name":"updater","type":"address","indexed":true,"internalType":"address"},{"name":"roleId","type":"uint256","indexed":true,"internalType":"uint256"}],"anonymous":false},{"type":"event","name":"SubscriptionUpdate","inputs":[{"name":"tokenId","type":"uint256","indexed":true,"internalType":"uint256"},{"name":"expiration","type":"uint64","indexed":false,"internalType":"uint64"}],"anonymous":false},{"type":"event","name":"Transfer","inputs":[{"name":"from","type":"address","indexed":true,"internalType":"address"},{"name":"to","type":"address","indexed":true,"internalType":"address"},{"name":"tokenId","type":"uint256","indexed":true,"internalType":"uint256"}],"anonymous":false},{"type":"event","name":"Unbanned","inputs":[{"name":"moderator","type":"address","indexed":true,"internalType":"address"},{"name":"tokenId","type":"uint256","indexed":true,"internalType":"uint256"}],"anonymous":false},{"type":"event","name":"Unpaused","inputs":[{"name":"account","type":"address","indexed":false,"internalType":"address"}],"anonymous":false},{"type":"error","name":"ApprovalCallerNotOwnerNorApproved","inputs":[]},{"type":"error","name":"ApprovalQueryForNonexistentToken","inputs":[]},{"type":"error","name":"BalanceQueryForZeroAddress","inputs":[]},{"type":"error","name":"Banning__AlreadyBanned","inputs":[{"name":"tokenId","type":"uint256","internalType":"uint256"}]},{"type":"error","name":"Banning__CannotBanSelf","inputs":[]},{"type":"error","name":"Banning__InvalidTokenId","inputs":[{"name":"tokenId","type":"uint256","internalType":"uint256"}]},{"type":"error","name":"Banning__NotBanned","inputs":[{"name":"tokenId","type":"uint256","internalType":"uint256"}]},{"type":"error","name":"ERC5643__DurationZero","inputs":[]},{"type":"error","name":"ERC5643__InvalidTokenId","inputs":[{"name":"tokenId","type":"uint256","internalType":"uint256"}]},{"type":"error","name":"ERC5643__NotApprovedOrOwner","inputs":[]},{"type":"error","name":"ERC5643__SubscriptionNotRenewable","inputs":[{"name":"tokenId","type":"uint256","internalType":"uint256"}]},{"type":"error","name":"Entitlement__InvalidValue","inputs":[]},{"type":"error","name":"Entitlement__NotAllowed","inputs":[]},{"type":"error","name":"Entitlement__NotMember","inputs":[]},{"type":"error","name":"Entitlement__ValueAlreadyExists","inputs":[]},{"type":"error","name":"EntitlementsService__EntitlementAlreadyExists","inputs":[]},{"type":"error","name":"EntitlementsService__EntitlementDoesNotExist","inputs":[]},{"type":"error","name":"EntitlementsService__ImmutableEntitlement","inputs":[]},{"type":"error","name":"EntitlementsService__InvalidEntitlementAddress","inputs":[]},{"type":"error","name":"EntitlementsService__InvalidEntitlementInterface","inputs":[]},{"type":"error","name":"MintERC2309QuantityExceedsLimit","inputs":[]},{"type":"error","name":"MintToZeroAddress","inputs":[]},{"type":"error","name":"MintZeroQuantity","inputs":[]},{"type":"error","name":"Ownable__NotOwner","inputs":[{"name":"account","type":"address","internalType":"address"}]},{"type":"error","name":"Ownable__ZeroAddress","inputs":[]},{"type":"error","name":"OwnerQueryForNonexistentToken","inputs":[]},{"type":"error","name":"OwnershipNotInitializedForExtraData","inputs":[]},{"type":"error","name":"Pausable__NotPaused","inputs":[]},{"type":"error","name":"Pausable__Paused","inputs":[]},{"type":"error","name":"Roles__EntitlementAlreadyExists","inputs":[]},{"type":"error","name":"Roles__EntitlementDoesNotExist","inputs":[]},{"type":"error","name":"Roles__InvalidEntitlementAddress","inputs":[]},{"type":"error","name":"Roles__InvalidPermission","inputs":[]},{"type":"error","name":"Roles__PermissionAlreadyExists","inputs":[]},{"type":"error","name":"Roles__PermissionDoesNotExist","inputs":[]},{"type":"error","name":"Roles__RoleDoesNotExist","inputs":[]},{"type":"error","name":"TransferCallerNotOwnerNorApproved","inputs":[]},{"type":"error","name":"TransferFromIncorrectOwner","inputs":[]},{"type":"error","name":"TransferToNonERC721ReceiverImplementer","inputs":[]},{"type":"error","name":"TransferToZeroAddress","inputs":[]},{"type":"error","name":"URIQueryForNonexistentToken","inputs":[]}],"bytecode":{"object":"0x608060405234801561001057600080fd5b50612284806100206000396000f3fe608060405234801561001057600080fd5b50600436106100885760003560e01c80638bfc820f1161005b5780638bfc820f146100f2578063be24138d14610105578063db0a69a814610118578063fba4ff9d1461013857600080fd5b8063070b9c3f1461008d57806320759f9e146100a2578063367287e3146100ca578063487dc38c146100dd575b600080fd5b6100a061009b366004611b6a565b610158565b005b6100b56100b0366004611bcf565b6101a4565b60405190151581526020015b60405180910390f35b6100b56100d8366004611c23565b6101bb565b6100e56101d2565b6040516100c19190611d27565b6100a0610100366004611df4565b6101e1565b6100a0610113366004611b6a565b610225565b61012b610126366004611e92565b610269565b6040516100c19190611ed3565b61014b610146366004611b6a565b610681565b6040516100c19190611f5a565b610160610692565b6001600160a01b0316336001600160a01b031614610198576040516365f4906560e01b81523360048201526024015b60405180910390fd5b6101a18161075c565b50565b60006101b18484846107b2565b90505b9392505050565b60006101c9858585856107ec565b95945050505050565b60606101dc610806565b905090565b6101e9610692565b6001600160a01b0316336001600160a01b03161461021c576040516365f4906560e01b815233600482015260240161018f565b6101a181610904565b61022d610692565b6001600160a01b0316336001600160a01b031614610260576040516365f4906560e01b815233600482015260240161018f565b6101a181610962565b606060006102ac84848080601f0160208091040260200160405190810160405280939291908181526020018383808284376000920191909152506109af92505050565b90506000805b82518110156102fe5760008382815181106102cf576102cf611f6d565b6020026020010151905080604001516102f5576080810151516102f29084611f99565b92505b506001016102b2565b506000816001600160401b0381111561031957610319611d8b565b60405190808252806020026020018201604052801561035e57816020015b60408051808201909152606080825260208201528152602001906001900390816103375790505b5090506000915060005b835181101561067557600084828151811061038557610385611f6d565b60200260200101519050806040015161066c5760005b81608001515181101561066a576000826080015182815181106103c0576103c0611f6d565b60200260200101519050806001600160a01b0316632e1b61e46040518163ffffffff1660e01b8152600401602060405180830381865afa158015610408573d6000803e3d6000fd5b505050506040513d601f19601f8201168201806040525081019061042c9190611fac565b6105445760008190506040518060400160405280826001600160a01b0316636465e69f6040518163ffffffff1660e01b8152600401600060405180830381865afa15801561047e573d6000803e3d6000fd5b505050506040513d6000823e601f3d908101601f191682016040526104a6919081019061201c565b81528551604051630f7703d960e11b815260048101919091526020909101906001600160a01b03841690631eee07b290602401600060405180830381865afa1580156104f6573d6000803e3d6000fd5b505050506040513d6000823e601f3d908101601f1916820160405261051e919081019061201c565b81525086888151811061053357610533611f6d565b602002602001018190525050610654565b60008190506040518060400160405280826001600160a01b0316636465e69f6040518163ffffffff1660e01b8152600401600060405180830381865afa158015610592573d6000803e3d6000fd5b505050506040513d6000823e601f3d908101601f191682016040526105ba919081019061201c565b81528551604051630f7703d960e11b815260048101919091526020909101906001600160a01b03841690631eee07b290602401600060405180830381865afa15801561060a573d6000803e3d6000fd5b505050506040513d6000823e601f3d908101601f19168201604052610632919081019061201c565b81525086888151811061064757610647611f6d565b6020026020010181905250505b8561065e8161206c565b9650505060010161039b565b505b50600101610368565b50925050505b92915050565b610689611b22565b61067b82610bf9565b6040805180820182527fd2f24d4f172e4e84e48e7c4125b6e904c29e5eba33ad4938fee51dd5dbd4b600546001600160a01b03168082527fd2f24d4f172e4e84e48e7c4125b6e904c29e5eba33ad4938fee51dd5dbd4b60154602080840182905284516331a9108f60e11b815260048101929092529351600094636352211e92602480820193918290030181865afa158015610732573d6000803e3d6000fd5b505050506040513d601f19601f820116820180604052508101906107569190612085565b91505090565b61076581610c4b565b610770816000610d14565b6040516001600160a01b038216815233907f055c4c0e6f85afe96beaac6c9d650859c001e6ef93103856624cce6ceba811b4906020015b60405180910390a250565b60006101b16000801b8585856040516020016107cf9291906120a2565b6040516020818303038152906040526107e7906120b2565b610e53565b60006101c9858585856040516020016107cf9291906120a2565b606060006108126110dc565b905080516001600160401b0381111561082d5761082d611d8b565b60405190808252806020026020018201604052801561086657816020015b610853611b22565b81526020019060019003908161084b5790505b50915060005b81518110156108ff5760008060008061089d86868151811061089057610890611f6d565b60200260200101516110f9565b93509350935093506040518060800160405280858152602001846001600160a01b031681526020018381526020018215158152508786815181106108e3576108e3611f6d565b602002602001018190525050505050808060010191505061086c565b505090565b60005b815181101561095e5761093282828151811061092557610925611f6d565b6020026020010151610c4b565b61095682828151811061094757610947611f6d565b60200260200101516001610d14565b600101610907565b5050565b61096b81610c4b565b6109748161126d565b6040516001600160a01b038216815233907fa8e3e13a35b592afaa9d213d12c7ea06384518ada9733585d20883cfafcf249b906020016107a7565b606060006109bb61132a565b80519091506000816001600160401b038111156109da576109da611d8b565b604051908082528060200260200182016040528015610a03578160200160208202803683370190505b5085516020870120909150600090815b84811015610ad2576000610a3f878381518110610a3257610a32611f6d565b6020026020010151611355565b509250505060005b8151811015610ac85783828281518110610a6357610a63611f6d565b60200260200101518051906020012003610ac057878381518110610a8957610a89611f6d565b6020026020010151868681518110610aa357610aa3611f6d565b602090810291909101015284610ab88161206c565b955050610ac8565b600101610a47565b5050600101610a13565b506000826001600160401b03811115610aed57610aed611d8b565b604051908082528060200260200182016040528015610b5257816020015b610b3f6040518060a00160405280600081526020016060815260200160001515815260200160608152602001606081525090565b815260200190600190039081610b0b5790505b50905060005b83811015610bed576000858281518110610b7457610b74611f6d565b60200260200101519050600080600080610b8d85611355565b93509350935093506040518060a00160405280868152602001858152602001841515815260200183815260200182815250878781518110610bd057610bd0611f6d565b602002602001018190525050505050508080600101915050610b58565b50979650505050505050565b610c01611b22565b610c0a82610c4b565b600080600080610c19866110f9565b604080516080810182529485526001600160a01b03909316602085015291830152151560608201529695505050505050565b6001600160a01b038116610c7257604051630706e15760e51b815260040160405180910390fd5b6040516301ffc9a760e01b8152637bc2cb4560e11b60048201526001600160a01b038216906301ffc9a790602401602060405180830381865afa925050508015610cd9575060408051601f3d908101601f19168201909252610cd691810190611fac565b60015b610cf65760405163f58a5f2760e01b815260040160405180910390fd5b8061095e5760405163f58a5f2760e01b815260040160405180910390fd5b81600080516020612264833981519152610d3c60008051602061224483398151915283611480565b15610d5a57604051632406020960e01b815260040160405180910390fd5b610d6760018201856114a2565b506040518060600160405280856001600160a01b031681526020018415158152602001836001600160a01b0316632e1b61e46040518163ffffffff1660e01b8152600401602060405180830381865afa158015610dc8573d6000803e3d6000fd5b505050506040513d601f19601f82011682018060405250810190610dec9190611fac565b151590526001600160a01b0394851660009081526020928352604090819020825181549484015193909201511515600160a81b0260ff60a81b19931515600160a01b026001600160a81b031990951692909716919091179290921716939093179092555050565b600080610e5e610692565b90506000610e6b856114b7565b80519091506000610e7a611635565b805190915060005b83811015610f39576000858281518110610e9e57610e9e611f6d565b60200260200101519050866001600160a01b0316816001600160a01b031603610ed15760019750505050505050506101b4565b60005b83811015610f2f57816001600160a01b0316610f08868381518110610efb57610efb611f6d565b6020026020010151611660565b6001600160a01b031603610f27576000985050505050505050506101b4565b600101610ed4565b5050600101610e82565b506000805160206122648339815191526000610f6260008051602061224483398151915261166b565b905060005b818110156110ca5760008381610f806001830185611675565b6001600160a01b03908116825260208083019390935260409182016000208251606081018452905491821680825260ff600160a01b84048116151583870152600160a81b9093049092161515818401528251630b86d87960e21b815292519094509092632e1b61e492600480820193918290030181865afa158015611009573d6000803e3d6000fd5b505050506040513d601f19601f8201168201806040525081019061102d9190611fac565b1580156110aa575080600001516001600160a01b0316630cf0b5338e8a8e6040518463ffffffff1660e01b8152600401611069939291906120d6565b602060405180830381865afa158015611086573d6000803e3d6000fd5b505050506040513d601f19601f820116820180604052508101906110aa9190611fac565b156110c157600199505050505050505050506101b4565b50600101610f67565b5060009b9a5050505050505050505050565b60606101dc6000805160206122648339815191525b600101611681565b60606000818160008051602061226483398151915261112660008051602061224483398151915287611480565b6111435760405163017ab33760e71b815260040160405180910390fd5b60008690506000816001600160a01b03166306fdde036040518163ffffffff1660e01b8152600401600060405180830381865afa158015611188573d6000803e3d6000fd5b505050506040513d6000823e601f3d908101601f191682016040526111b0919081019061201c565b6001600160a01b03808a16600090815260208690526040808220548151636465e69f60e01b815291519495508316939192861691636465e69f9160048082019286929091908290030181865afa15801561120e573d6000803e3d6000fd5b505050506040513d6000823e601f3d908101601f19168201604052611236919081019061201c565b6001600160a01b039a909a16600090815260209590955250604090932054909892979650600160a01b900460ff1694509092505050565b60008051602061226483398151915261129460008051602061224483398151915283611480565b6112b15760405163017ab33760e71b815260040160405180910390fd5b6001600160a01b038216600090815260208290526040902054600160a01b900460ff16156112f257604051636045809760e11b815260040160405180910390fd5b6112ff600182018361168e565b506001600160a01b0390911660009081526020919091526040902080546001600160b01b0319169055565b60606101dc7f672ef851d5f92307da037116e23aa9e31af7e1f7e3ca62c4e6d540631df3fd006110f1565b600081815260008051602061222483398151915260205260408120805460609291839182919061138490612138565b80601f01602080910402602001604051908101604052809291908181526020018280546113b090612138565b80156113fd5780601f106113d2576101008083540402835291602001916113fd565b820191906000526020600020905b8154815290600101906020018083116113e057829003601f168201915b5050505050935061142b7f672ef851d5f92307da037116e23aa9e31af7e1f7e3ca62c4e6d540631df3fd0090565b6000868152600391909101602090815260408083206001015460008051602061222483398151915290925290912060ff909116935061146c906002016116a3565b9150611477856116ae565b90509193509193565b6001600160a01b038116600090815260018301602052604081205415156101b4565b60006101b4836001600160a01b0384166117b2565b606060007fc21004fcc619240a31f006438274d15cd813308303284436eef6055f0fdcb6006006015460405162468b7360e31b81526001600160a01b038581166004830152909116915060009082906302345b9890602401600060405180830381865afa15801561152c573d6000803e3d6000fd5b505050506040513d6000823e601f3d908101601f19168201604052611554919081019061216c565b80519091506000611566826001611f99565b6001600160401b0381111561157d5761157d611d8b565b6040519080825280602002602001820160405280156115a6578160200160208202803683370190505b50905060005b82811015611600578381815181106115c6576115c6611f6d565b60200260200101518282815181106115e0576115e0611f6d565b6001600160a01b03909216602092830291909101909101526001016115ac565b508581838151811061161457611614611f6d565b6001600160a01b039092166020928302919091019091015295945050505050565b60606101dc7f49daf035076c43671ca9f9fb568d931e51ab7f9098a5a694781b45341112cf00611681565b600061067b82611801565b600061067b825490565b60006101b483836118cc565b606060006101b4836118f6565b60006101b4836001600160a01b038416611952565b606061067b82611a45565b600081815260008051602061222483398151915260205260408120606091906116d99060040161166b565b6001600160401b038111156116f0576116f0611d8b565b604051908082528060200260200182016040528015611719578160200160208202803683370190505b50905060005b6000848152600080516020612224833981519152602052604090206117469060040161166b565b8110156117ab576000848152600080516020612224833981519152602052604081206117759060040183611675565b90508083838151811061178a5761178a611f6d565b6001600160a01b03909216602092830291909101909101525060010161171f565b5092915050565b60008181526001830160205260408120546117f95750815460018181018455600084815260208082209093018490558454848252828601909352604090209190915561067b565b50600061067b565b60008181527f6569bde4a160c636ea8b8d11acb83a60d7fec0b8f2e09389306cba0e1340df046020526040812054907f6569bde4a160c636ea8b8d11acb83a60d7fec0b8f2e09389306cba0e1340df0090600160e01b831690036118b257816000036118ac578054831061188857604051636f96cda160e11b815260040160405180910390fd5b5b600019909201600081815260048401602052604090205490929091508115611889575b50919050565b50604051636f96cda160e11b815260040160405180910390fd5b60008260000182815481106118e3576118e3611f6d565b9060005260206000200154905092915050565b60608160000180548060200260200160405190810160405280929190818152602001828054801561194657602002820191906000526020600020905b815481526020019060010190808311611932575b50505050509050919050565b60008181526001830160205260408120548015611a3b5760006119766001836121fa565b855490915060009061198a906001906121fa565b90508082146119ef5760008660000182815481106119aa576119aa611f6d565b90600052602060002001549050808760000184815481106119cd576119cd611f6d565b6000918252602080832090910192909255918252600188019052604090208390555b8554869080611a0057611a0061220d565b60019003818190600052602060002001600090559055856001016000868152602001908152602001600020600090556001935050505061067b565b600091505061067b565b606081600001805480602002602001604051908101604052809291908181526020016000905b82821015611b17578382906000526020600020018054611a8a90612138565b80601f0160208091040260200160405190810160405280929190818152602001828054611ab690612138565b8015611b035780601f10611ad857610100808354040283529160200191611b03565b820191906000526020600020905b815481529060010190602001808311611ae657829003601f168201915b505050505081526020019060010190611a6b565b505050509050919050565b60405180608001604052806060815260200160006001600160a01b03168152602001606081526020016000151581525090565b6001600160a01b03811681146101a157600080fd5b600060208284031215611b7c57600080fd5b81356101b481611b55565b60008083601f840112611b9957600080fd5b5081356001600160401b03811115611bb057600080fd5b602083019150836020828501011115611bc857600080fd5b9250929050565b600080600060408486031215611be457600080fd5b8335611bef81611b55565b925060208401356001600160401b03811115611c0a57600080fd5b611c1686828701611b87565b9497909650939450505050565b60008060008060608587031215611c3957600080fd5b843593506020850135611c4b81611b55565b925060408501356001600160401b03811115611c6657600080fd5b611c7287828801611b87565b95989497509550505050565b60005b83811015611c99578181015183820152602001611c81565b50506000910152565b60008151808452611cba816020860160208601611c7e565b601f01601f19169290920160200192915050565b6000815160808452611ce36080850182611ca2565b905060018060a01b03602084015116602085015260408301518482036040860152611d0e8282611ca2565b9150506060830151151560608501528091505092915050565b600060208083016020845280855180835260408601915060408160051b87010192506020870160005b82811015611d7e57603f19888603018452611d6c858351611cce565b94509285019290850190600101611d50565b5092979650505050505050565b634e487b7160e01b600052604160045260246000fd5b604051601f8201601f191681016001600160401b0381118282101715611dc957611dc9611d8b565b604052919050565b60006001600160401b03821115611dea57611dea611d8b565b5060051b60200190565b60006020808385031215611e0757600080fd5b82356001600160401b03811115611e1d57600080fd5b8301601f81018513611e2e57600080fd5b8035611e41611e3c82611dd1565b611da1565b81815260059190911b82018301908381019087831115611e6057600080fd5b928401925b82841015611e87578335611e7881611b55565b82529284019290840190611e65565b979650505050505050565b60008060208385031215611ea557600080fd5b82356001600160401b03811115611ebb57600080fd5b611ec785828601611b87565b90969095509350505050565b600060208083018184528085518083526040925060408601915060408160051b87010184880160005b83811015611f4c57888303603f1901855281518051878552611f2088860182611ca2565b91890151858303868b0152919050611f388183611ca2565b968901969450505090860190600101611efc565b509098975050505050505050565b6020815260006101b46020830184611cce565b634e487b7160e01b600052603260045260246000fd5b634e487b7160e01b600052601160045260246000fd5b8082018082111561067b5761067b611f83565b600060208284031215611fbe57600080fd5b815180151581146101b457600080fd5b60006001600160401b03831115611fe757611fe7611d8b565b611ffa601f8401601f1916602001611da1565b905082815283838301111561200e57600080fd5b6101b4836020830184611c7e565b60006020828403121561202e57600080fd5b81516001600160401b0381111561204457600080fd5b8201601f8101841361205557600080fd5b61206484825160208401611fce565b949350505050565b60006001820161207e5761207e611f83565b5060010190565b60006020828403121561209757600080fd5b81516101b481611b55565b8183823760009101908152919050565b805160208083015191908110156118ac5760001960209190910360031b1b16919050565b60006060820185835260206060602085015281865180845260808601915060208801935060005b818110156121225784516001600160a01b0316835293830193918301916001016120fd565b5050809350505050826040830152949350505050565b600181811c9082168061214c57607f821691505b6020821081036118ac57634e487b7160e01b600052602260045260246000fd5b6000602080838503121561217f57600080fd5b82516001600160401b0381111561219557600080fd5b8301601f810185136121a657600080fd5b80516121b4611e3c82611dd1565b81815260059190911b820183019083810190878311156121d357600080fd5b928401925b82841015611e875783516121eb81611b55565b825292840192908401906121d8565b8181038181111561067b5761067b611f83565b634e487b7160e01b600052603160045260246000fdfe672ef851d5f92307da037116e23aa9e31af7e1f7e3ca62c4e6d540631df3fd03a558e822bd359dacbe30f0da89cbfde5f95895b441e13a4864caec1423c93101a558e822bd359dacbe30f0da89cbfde5f95895b441e13a4864caec1423c93100","linkReferences":{}},"methodIdentifiers":{"addEntitlementModule(address)":"070b9c3f","addImmutableEntitlements(address[])":"8bfc820f","getEntitlement(address)":"fba4ff9d","getEntitlementDataByPermission(string)":"db0a69a8","getEntitlements()":"487dc38c","isEntitledToChannel(bytes32,address,string)":"367287e3","isEntitledToSpace(address,string)":"20759f9e","removeEntitlementModule(address)":"be24138d"},"id":208}