{"abi":[{"type":"function","name":"expiresAt","inputs":[{"name":"tokenId","type":"uint256","internalType":"uint256"}],"outputs":[{"name":"","type":"uint256","internalType":"uint256"}],"stateMutability":"view"},{"type":"function","name":"getMembershipCurrency","inputs":[],"outputs":[{"name":"","type":"address","internalType":"address"}],"stateMutability":"view"},{"type":"function","name":"getMembershipDuration","inputs":[],"outputs":[{"name":"","type":"uint64","internalType":"uint64"}],"stateMutability":"view"},{"type":"function","name":"getMembershipFreeAllocation","inputs":[],"outputs":[{"name":"","type":"uint256","internalType":"uint256"}],"stateMutability":"view"},{"type":"function","name":"getMembershipImage","inputs":[],"outputs":[{"name":"","type":"string","internalType":"string"}],"stateMutability":"view"},{"type":"function","name":"getMembershipLimit","inputs":[],"outputs":[{"name":"","type":"uint256","internalType":"uint256"}],"stateMutability":"view"},{"type":"function","name":"getMembershipPrice","inputs":[],"outputs":[{"name":"","type":"uint256","internalType":"uint256"}],"stateMutability":"view"},{"type":"function","name":"getMembershipPricingModule","inputs":[],"outputs":[{"name":"","type":"address","internalType":"address"}],"stateMutability":"view"},{"type":"function","name":"getMembershipRenewalPrice","inputs":[{"name":"tokenId","type":"uint256","internalType":"uint256"}],"outputs":[{"name":"","type":"uint256","internalType":"uint256"}],"stateMutability":"view"},{"type":"function","name":"getSpaceFactory","inputs":[],"outputs":[{"name":"","type":"address","internalType":"address"}],"stateMutability":"view"},{"type":"function","name":"joinSpace","inputs":[{"name":"receiver","type":"address","internalType":"address"}],"outputs":[],"stateMutability":"payable"},{"type":"function","name":"renewMembership","inputs":[{"name":"tokenId","type":"uint256","internalType":"uint256"}],"outputs":[],"stateMutability":"payable"},{"type":"function","name":"setMembershipFreeAllocation","inputs":[{"name":"newAllocation","type":"uint256","internalType":"uint256"}],"outputs":[],"stateMutability":"nonpayable"},{"type":"function","name":"setMembershipImage","inputs":[{"name":"newImage","type":"string","internalType":"string"}],"outputs":[],"stateMutability":"nonpayable"},{"type":"function","name":"setMembershipLimit","inputs":[{"name":"newLimit","type":"uint256","internalType":"uint256"}],"outputs":[],"stateMutability":"nonpayable"},{"type":"function","name":"setMembershipPrice","inputs":[{"name":"newPrice","type":"uint256","internalType":"uint256"}],"outputs":[],"stateMutability":"nonpayable"},{"type":"function","name":"setMembershipPricingModule","inputs":[{"name":"pricingModule","type":"address","internalType":"address"}],"outputs":[],"stateMutability":"nonpayable"},{"type":"function","name":"withdraw","inputs":[{"name":"account","type":"address","internalType":"address"}],"outputs":[],"stateMutability":"nonpayable"},{"type":"event","name":"Approval","inputs":[{"name":"owner","type":"address","indexed":true,"internalType":"address"},{"name":"approved","type":"address","indexed":true,"internalType":"address"},{"name":"tokenId","type":"uint256","indexed":true,"internalType":"uint256"}],"anonymous":false},{"type":"event","name":"ApprovalForAll","inputs":[{"name":"owner","type":"address","indexed":true,"internalType":"address"},{"name":"operator","type":"address","indexed":true,"internalType":"address"},{"name":"approved","type":"bool","indexed":false,"internalType":"bool"}],"anonymous":false},{"type":"event","name":"Banned","inputs":[{"name":"moderator","type":"address","indexed":true,"internalType":"address"},{"name":"tokenId","type":"uint256","indexed":true,"internalType":"uint256"}],"anonymous":false},{"type":"event","name":"ConsecutiveTransfer","inputs":[{"name":"fromTokenId","type":"uint256","indexed":true,"internalType":"uint256"},{"name":"toTokenId","type":"uint256","indexed":false,"internalType":"uint256"},{"name":"from","type":"address","indexed":true,"internalType":"address"},{"name":"to","type":"address","indexed":true,"internalType":"address"}],"anonymous":false},{"type":"event","name":"DefaultBpsFeeUpdated","inputs":[{"name":"defaultBpsFee","type":"uint256","indexed":false,"internalType":"uint256"}],"anonymous":false},{"type":"event","name":"EntitlementCheckResultPosted","inputs":[{"name":"transactionId","type":"bytes32","indexed":true,"internalType":"bytes32"},{"name":"result","type":"uint8","indexed":false,"internalType":"enum IEntitlementGatedBase.NodeVoteStatus"}],"anonymous":false},{"type":"event","name":"Initialized","inputs":[{"name":"version","type":"uint32","indexed":false,"internalType":"uint32"}],"anonymous":false},{"type":"event","name":"InterfaceAdded","inputs":[{"name":"interfaceId","type":"bytes4","indexed":true,"internalType":"bytes4"}],"anonymous":false},{"type":"event","name":"InterfaceRemoved","inputs":[{"name":"interfaceId","type":"bytes4","indexed":true,"internalType":"bytes4"}],"anonymous":false},{"type":"event","name":"MaxBpsFeeUpdated","inputs":[{"name":"maxBpsFee","type":"uint256","indexed":false,"internalType":"uint256"}],"anonymous":false},{"type":"event","name":"MaxPartnerFeeSet","inputs":[{"name":"fee","type":"uint256","indexed":false,"internalType":"uint256"}],"anonymous":false},{"type":"event","name":"MembershipCurrencyUpdated","inputs":[{"name":"currency","type":"address","indexed":true,"internalType":"address"}],"anonymous":false},{"type":"event","name":"MembershipFeeRecipientUpdated","inputs":[{"name":"recipient","type":"address","indexed":true,"internalType":"address"}],"anonymous":false},{"type":"event","name":"MembershipFreeAllocationUpdated","inputs":[{"name":"allocation","type":"uint256","indexed":true,"internalType":"uint256"}],"anonymous":false},{"type":"event","name":"MembershipLimitUpdated","inputs":[{"name":"limit","type":"uint256","indexed":true,"internalType":"uint256"}],"anonymous":false},{"type":"event","name":"MembershipPriceUpdated","inputs":[{"name":"price","type":"uint256","indexed":true,"internalType":"uint256"}],"anonymous":false},{"type":"event","name":"MembershipTokenIssued","inputs":[{"name":"recipient","type":"address","indexed":true,"internalType":"address"},{"name":"tokenId","type":"uint256","indexed":true,"internalType":"uint256"}],"anonymous":false},{"type":"event","name":"MembershipTokenRejected","inputs":[{"name":"recipient","type":"address","indexed":true,"internalType":"address"}],"anonymous":false},{"type":"event","name":"MembershipWithdrawal","inputs":[{"name":"recipient","type":"address","indexed":true,"internalType":"address"},{"name":"amount","type":"uint256","indexed":false,"internalType":"uint256"}],"anonymous":false},{"type":"event","name":"OwnershipTransferred","inputs":[{"name":"previousOwner","type":"address","indexed":true,"internalType":"address"},{"name":"newOwner","type":"address","indexed":true,"internalType":"address"}],"anonymous":false},{"type":"event","name":"PartnerRegistered","inputs":[{"name":"account","type":"address","indexed":true,"internalType":"address"}],"anonymous":false},{"type":"event","name":"PartnerRemoved","inputs":[{"name":"account","type":"address","indexed":true,"internalType":"address"}],"anonymous":false},{"type":"event","name":"PartnerUpdated","inputs":[{"name":"account","type":"address","indexed":true,"internalType":"address"}],"anonymous":false},{"type":"event","name":"Paused","inputs":[{"name":"account","type":"address","indexed":false,"internalType":"address"}],"anonymous":false},{"type":"event","name":"PermissionsAddedToChannelRole","inputs":[{"name":"updater","type":"address","indexed":true,"internalType":"address"},{"name":"roleId","type":"uint256","indexed":true,"internalType":"uint256"},{"name":"channelId","type":"bytes32","indexed":true,"internalType":"bytes32"}],"anonymous":false},{"type":"event","name":"PermissionsRemovedFromChannelRole","inputs":[{"name":"updater","type":"address","indexed":true,"internalType":"address"},{"name":"roleId","type":"uint256","indexed":true,"internalType":"uint256"},{"name":"channelId","type":"bytes32","indexed":true,"internalType":"bytes32"}],"anonymous":false},{"type":"event","name":"PermissionsUpdatedForChannelRole","inputs":[{"name":"updater","type":"address","indexed":true,"internalType":"address"},{"name":"roleId","type":"uint256","indexed":true,"internalType":"uint256"},{"name":"channelId","type":"bytes32","indexed":true,"internalType":"bytes32"}],"anonymous":false},{"type":"event","name":"Prepay__Prepaid","inputs":[{"name":"supply","type":"uint256","indexed":false,"internalType":"uint256"}],"anonymous":false},{"type":"event","name":"ReferralRegistered","inputs":[{"name":"referralCode","type":"bytes32","indexed":false,"internalType":"bytes32"},{"name":"basisPoints","type":"uint256","indexed":false,"internalType":"uint256"},{"name":"recipient","type":"address","indexed":false,"internalType":"address"}],"anonymous":false},{"type":"event","name":"ReferralRemoved","inputs":[{"name":"referralCode","type":"bytes32","indexed":false,"internalType":"bytes32"}],"anonymous":false},{"type":"event","name":"ReferralUpdated","inputs":[{"name":"referralCode","type":"bytes32","indexed":false,"internalType":"bytes32"},{"name":"basisPoints","type":"uint256","indexed":false,"internalType":"uint256"},{"name":"recipient","type":"address","indexed":false,"internalType":"address"}],"anonymous":false},{"type":"event","name":"RegistryFeeSet","inputs":[{"name":"fee","type":"uint256","indexed":false,"internalType":"uint256"}],"anonymous":false},{"type":"event","name":"RoleCreated","inputs":[{"name":"creator","type":"address","indexed":true,"internalType":"address"},{"name":"roleId","type":"uint256","indexed":true,"internalType":"uint256"}],"anonymous":false},{"type":"event","name":"RoleRemoved","inputs":[{"name":"remover","type":"address","indexed":true,"internalType":"address"},{"name":"roleId","type":"uint256","indexed":true,"internalType":"uint256"}],"anonymous":false},{"type":"event","name":"RoleUpdated","inputs":[{"name":"updater","type":"address","indexed":true,"internalType":"address"},{"name":"roleId","type":"uint256","indexed":true,"internalType":"uint256"}],"anonymous":false},{"type":"event","name":"SubscriptionUpdate","inputs":[{"name":"tokenId","type":"uint256","indexed":true,"internalType":"uint256"},{"name":"expiration","type":"uint64","indexed":false,"internalType":"uint64"}],"anonymous":false},{"type":"event","name":"Transfer","inputs":[{"name":"from","type":"address","indexed":true,"internalType":"address"},{"name":"to","type":"address","indexed":true,"internalType":"address"},{"name":"tokenId","type":"uint256","indexed":true,"internalType":"uint256"}],"anonymous":false},{"type":"event","name":"Unbanned","inputs":[{"name":"moderator","type":"address","indexed":true,"internalType":"address"},{"name":"tokenId","type":"uint256","indexed":true,"internalType":"uint256"}],"anonymous":false},{"type":"event","name":"Unpaused","inputs":[{"name":"account","type":"address","indexed":false,"internalType":"address"}],"anonymous":false},{"type":"error","name":"AddressEmptyCode","inputs":[{"name":"target","type":"address","internalType":"address"}]},{"type":"error","name":"AddressInsufficientBalance","inputs":[{"name":"account","type":"address","internalType":"address"}]},{"type":"error","name":"ApprovalCallerNotOwnerNorApproved","inputs":[]},{"type":"error","name":"ApprovalQueryForNonexistentToken","inputs":[]},{"type":"error","name":"BalanceQueryForZeroAddress","inputs":[]},{"type":"error","name":"Banning__AlreadyBanned","inputs":[{"name":"tokenId","type":"uint256","internalType":"uint256"}]},{"type":"error","name":"Banning__CannotBanOwner","inputs":[]},{"type":"error","name":"Banning__CannotBanSelf","inputs":[]},{"type":"error","name":"Banning__InvalidTokenId","inputs":[{"name":"tokenId","type":"uint256","internalType":"uint256"}]},{"type":"error","name":"Banning__NotBanned","inputs":[{"name":"tokenId","type":"uint256","internalType":"uint256"}]},{"type":"error","name":"Dispatcher__InvalidCaller","inputs":[]},{"type":"error","name":"Dispatcher__InvalidValue","inputs":[]},{"type":"error","name":"Dispatcher__TransactionAlreadyExists","inputs":[]},{"type":"error","name":"ERC5643__DurationZero","inputs":[]},{"type":"error","name":"ERC5643__InvalidTokenId","inputs":[{"name":"tokenId","type":"uint256","internalType":"uint256"}]},{"type":"error","name":"ERC5643__NotApprovedOrOwner","inputs":[]},{"type":"error","name":"ERC5643__SubscriptionNotRenewable","inputs":[{"name":"tokenId","type":"uint256","internalType":"uint256"}]},{"type":"error","name":"EntitlementGated_InvalidAddress","inputs":[]},{"type":"error","name":"EntitlementGated_NodeAlreadyVoted","inputs":[]},{"type":"error","name":"EntitlementGated_NodeNotFound","inputs":[]},{"type":"error","name":"EntitlementGated_TransactionCheckAlreadyCompleted","inputs":[]},{"type":"error","name":"EntitlementGated_TransactionCheckAlreadyRegistered","inputs":[]},{"type":"error","name":"EntitlementGated_TransactionNotRegistered","inputs":[]},{"type":"error","name":"Entitlement__InvalidValue","inputs":[]},{"type":"error","name":"Entitlement__NotAllowed","inputs":[]},{"type":"error","name":"Entitlement__NotMember","inputs":[]},{"type":"error","name":"Entitlement__ValueAlreadyExists","inputs":[]},{"type":"error","name":"FailedInnerCall","inputs":[]},{"type":"error","name":"Initializable_InInitializingState","inputs":[]},{"type":"error","name":"Introspection_AlreadySupported","inputs":[]},{"type":"error","name":"Introspection_NotSupported","inputs":[]},{"type":"error","name":"Membership__AlreadyMember","inputs":[]},{"type":"error","name":"Membership__InsufficientAllowance","inputs":[]},{"type":"error","name":"Membership__InsufficientPayment","inputs":[]},{"type":"error","name":"Membership__InvalidAddress","inputs":[]},{"type":"error","name":"Membership__InvalidCurrency","inputs":[]},{"type":"error","name":"Membership__InvalidDuration","inputs":[]},{"type":"error","name":"Membership__InvalidFeeRecipient","inputs":[]},{"type":"error","name":"Membership__InvalidFreeAllocation","inputs":[]},{"type":"error","name":"Membership__InvalidLimit","inputs":[]},{"type":"error","name":"Membership__InvalidMaxSupply","inputs":[]},{"type":"error","name":"Membership__InvalidPayment","inputs":[]},{"type":"error","name":"Membership__InvalidPrice","inputs":[]},{"type":"error","name":"Membership__InvalidPricingModule","inputs":[]},{"type":"error","name":"Membership__InvalidTokenId","inputs":[]},{"type":"error","name":"Membership__InvalidTransactionType","inputs":[]},{"type":"error","name":"Membership__MaxSupplyReached","inputs":[]},{"type":"error","name":"Membership__NotExpired","inputs":[]},{"type":"error","name":"Membership__PriceTooLow","inputs":[]},{"type":"error","name":"MintERC2309QuantityExceedsLimit","inputs":[]},{"type":"error","name":"MintToZeroAddress","inputs":[]},{"type":"error","name":"MintZeroQuantity","inputs":[]},{"type":"error","name":"Ownable__NotOwner","inputs":[{"name":"account","type":"address","internalType":"address"}]},{"type":"error","name":"Ownable__ZeroAddress","inputs":[]},{"type":"error","name":"OwnerQueryForNonexistentToken","inputs":[]},{"type":"error","name":"OwnershipNotInitializedForExtraData","inputs":[]},{"type":"error","name":"PartnerRegistry__InvalidPartnerFee","inputs":[{"name":"fee","type":"uint256","internalType":"uint256"}]},{"type":"error","name":"PartnerRegistry__InvalidRecipient","inputs":[]},{"type":"error","name":"PartnerRegistry__NotPartnerAccount","inputs":[{"name":"account","type":"address","internalType":"address"}]},{"type":"error","name":"PartnerRegistry__PartnerAlreadyRegistered","inputs":[{"name":"account","type":"address","internalType":"address"}]},{"type":"error","name":"PartnerRegistry__PartnerNotActive","inputs":[{"name":"account","type":"address","internalType":"address"}]},{"type":"error","name":"PartnerRegistry__PartnerNotRegistered","inputs":[{"name":"account","type":"address","internalType":"address"}]},{"type":"error","name":"PartnerRegistry__RegistryFeeNotPaid","inputs":[{"name":"fee","type":"uint256","internalType":"uint256"}]},{"type":"error","name":"Pausable__NotPaused","inputs":[]},{"type":"error","name":"Pausable__Paused","inputs":[]},{"type":"error","name":"Prepay__InvalidAddress","inputs":[]},{"type":"error","name":"Prepay__InvalidAmount","inputs":[]},{"type":"error","name":"Prepay__InvalidMembership","inputs":[]},{"type":"error","name":"Prepay__InvalidSupplyAmount","inputs":[]},{"type":"error","name":"ReentrancyGuard__ReentrantCall","inputs":[]},{"type":"error","name":"Referrals__InvalidBasisPoints","inputs":[]},{"type":"error","name":"Referrals__InvalidBpsFee","inputs":[]},{"type":"error","name":"Referrals__InvalidRecipient","inputs":[]},{"type":"error","name":"Referrals__InvalidReferralCode","inputs":[]},{"type":"error","name":"Referrals__ReferralAlreadyExists","inputs":[]},{"type":"error","name":"Roles__EntitlementAlreadyExists","inputs":[]},{"type":"error","name":"Roles__EntitlementDoesNotExist","inputs":[]},{"type":"error","name":"Roles__InvalidEntitlementAddress","inputs":[]},{"type":"error","name":"Roles__InvalidPermission","inputs":[]},{"type":"error","name":"Roles__PermissionAlreadyExists","inputs":[]},{"type":"error","name":"Roles__PermissionDoesNotExist","inputs":[]},{"type":"error","name":"Roles__RoleDoesNotExist","inputs":[]},{"type":"error","name":"SafeERC20FailedOperation","inputs":[{"name":"token","type":"address","internalType":"address"}]},{"type":"error","name":"TransferCallerNotOwnerNorApproved","inputs":[]},{"type":"error","name":"TransferFromIncorrectOwner","inputs":[]},{"type":"error","name":"TransferToNonERC721ReceiverImplementer","inputs":[]},{"type":"error","name":"TransferToZeroAddress","inputs":[]},{"type":"error","name":"URIQueryForNonexistentToken","inputs":[]}],"bytecode":{"object":"0x60806040523480156200001157600080fd5b506200001c62000022565b620000ca565b7f59b501c3653afc186af7d48dda36cf6732bd21629a6295693664240a6ef520008054640100000000900460ff16156200006f576040516366008a2d60e01b815260040160405180910390fd5b805463ffffffff9081161015620000c757805463ffffffff191663ffffffff90811782556040519081527fe9c9b456cb2994b80aeef036cf59d26e9617df80f816a6ee5a5b4166e07e2f5c9060200160405180910390a15b50565b6137a780620000da6000396000f3fe6080604052600436106101095760003560e01c806379dda5851161009557806393b13cb71161006457806393b13cb7146102d757806395d600c8146102f957806397fb7c1e1461030e578063df9a9fe61461032e578063e847abdd1461034e57600080fd5b806379dda5851461026f5780637c9669ac146102845780638120f0ba146102975780638c625b06146102c457600080fd5b80635803909f116100dc5780635803909f146101cd5780635becd24a146101ed578063657e45e81461020d57806369d5f38a1461023a578063706b8e091461025a57600080fd5b80630ef1be5f1461010e5780631278076a1461013057806317c957091461015857806351cff8d9146101ad575b600080fd5b34801561011a57600080fd5b5061012e610129366004612fee565b610363565b005b34801561013c57600080fd5b506101456103e6565b6040519081526020015b60405180910390f35b34801561016457600080fd5b5061014561017336600461305f565b60009081527f4775a23600034fdd9f073b224f794d51a58b35ba663a9602623ba7a5c09cce0060205260409020546001600160401b031690565b3480156101b957600080fd5b5061012e6101c836600461308d565b6103fd565b3480156101d957600080fd5b506101456101e836600461305f565b61049f565b3480156101f957600080fd5b5061012e61020836600461305f565b6104b8565b34801561021957600080fd5b5061022261053d565b6040516001600160a01b03909116815260200161014f565b34801561024657600080fd5b5061012e61025536600461305f565b610547565b34801561026657600080fd5b506101456105f5565b34801561027b57600080fd5b506102226105ff565b61012e61029236600461305f565b610609565b3480156102a357600080fd5b506102ac610769565b6040516001600160401b03909116815260200161014f565b61012e6102d236600461308d565b610773565b3480156102e357600080fd5b506102ec6107da565b60405161014f91906130fa565b34801561030557600080fd5b506101456107e4565b34801561031a57600080fd5b5061012e61032936600461305f565b6107ee565b34801561033a57600080fd5b5061012e61034936600461308d565b610843565b34801561035a57600080fd5b50610222610890565b61036b61089a565b6001600160a01b0316336001600160a01b0316146103a3576040516365f4906560e01b81523360048201526024015b60405180910390fd5b6103e282828080601f01602080910402602001604051908101604052809392919081815260200183838082843760009201919091525061096492505050565b5050565b60006103f86103f361097b565b6109b1565b905090565b61040561089a565b6001600160a01b0316336001600160a01b031614610438576040516365f4906560e01b815233600482015260240161039a565b6001600160a01b03811661045f57604051635fbd571760e01b815260040160405180910390fd5b6000610469610ab1565b90508060000361048c57604051635894b54560e11b815260040160405180910390fd5b6103e2610497610ac4565b308484610ae0565b60006104b2826104ad61097b565b610b2c565b92915050565b6104c061089a565b6001600160a01b0316336001600160a01b0316146104f3576040516365f4906560e01b815233600482015260240161039a565b60006104fd610b72565b9050801580159061050d57508082115b1561052b5760405163c3983b9160e01b815260040160405180910390fd5b61053482610b85565b6103e282610c2a565b60006103f8610ac4565b61054f61089a565b6001600160a01b0316336001600160a01b031614610582576040516365f4906560e01b815233600482015260240161039a565b61058b81610c6d565b610593610cfb565b6001600160a01b03166391b7f5ed826040518263ffffffff1660e01b81526004016105c091815260200190565b600060405180830381600087803b1580156105da57600080fd5b505af11580156105ee573d6000803e3d6000fd5b5050505050565b60006103f8610d17565b60006103f8610db6565b6002600080516020613747833981519152540361063957604051635db5c7cd60e11b815260040160405180910390fd5b610650600260008051602061374783398151915255565b600061065b82610dd2565b90506001600160a01b03811661068457604051635fbd571760e01b815260040160405180910390fd5b60008281527f4775a23600034fdd9f073b224f794d51a58b35ba663a9602623ba7a5c09cce0060205260409020546001600160401b03166106c3610ddd565b6001600160401b03166106d64283613123565b106106f45760405163dce9a1d360e01b815260040160405180910390fd5b6000610702846104ad61097b565b9050801561073b5760006107168483610e63565b905060006107248284613123565b90508015610738576107368582610f7b565b505b50505b61074c84610747610ddd565b611119565b505050610766600160008051602061374783398151915255565b50565b60006103f8610ddd565b600260008051602061374783398151915254036107a357604051635db5c7cd60e11b815260040160405180910390fd5b6107ba600260008051602061374783398151915255565b6107c3816111e2565b610766600160008051602061374783398151915255565b60606103f86112cf565b60006103f8610b72565b6107f661089a565b6001600160a01b0316336001600160a01b031614610829576040516365f4906560e01b815233600482015260240161039a565b61083a8161083561097b565b61136a565b6107668161138b565b61084b61089a565b6001600160a01b0316336001600160a01b03161461087e576040516365f4906560e01b815233600482015260240161039a565b6108878161139b565b61076681611453565b60006103f8610cfb565b6040805180820182527fd2f24d4f172e4e84e48e7c4125b6e904c29e5eba33ad4938fee51dd5dbd4b600546001600160a01b03168082527fd2f24d4f172e4e84e48e7c4125b6e904c29e5eba33ad4938fee51dd5dbd4b60154602080840182905284516331a9108f60e11b815260048101929092529351600094636352211e92602480820193918290030181865afa15801561093a573d6000803e3d6000fd5b505050506040513d601f19601f8201168201806040525081019061095e9190613136565b91505090565b8061096d611480565b600c01906103e290826131ed565b7f6569bde4a160c636ea8b8d11acb83a60d7fec0b8f2e09389306cba0e1340df0154600080516020613727833981519152540390565b6000806109bc611480565b905060006109c8610d17565b60088301549091506001600160a01b031615610a5c576008820154604051635cf4ee9160e01b815260048101839052602481018690526001600160a01b0390911690635cf4ee9190604401602060405180830381865afa158015610a30573d6000803e3d6000fd5b505050506040513d601f19601f82011682018060405250810190610a5491906132ac565b949350505050565b8160060160009054906101000a90046001600160a01b03166001600160a01b0316631b159e2e6040518163ffffffff1660e01b8152600401602060405180830381865afa158015610a30573d6000803e3d6000fd5b6000610abb611480565b600a0154905090565b6000610ace611480565b600401546001600160a01b0316919050565b8015610b265773eeeeeeeeeeeeeeeeeeeeeeeeeeeeeeeeeeeeeeed196001600160a01b03851601610b1a57610b1582826114a4565b610b26565b610b268484848461154c565b50505050565b600080610b37611480565b600085815260098201602052604090205490915015610b695760008481526009909101602052604090205490506104b2565b610a54836109b1565b6000610b7c611480565b60030154905090565b6000610b8f611480565b90508060060160009054906101000a90046001600160a01b03166001600160a01b0316632cbb9d136040518163ffffffff1660e01b8152600401602060405180830381865afa158015610be6573d6000803e3d6000fd5b505050506040513d601f19601f82011682018060405250810190610c0a91906132ac565b8211156103e25760405163c3983b9160e01b815260040160405180910390fd5b6000610c34611480565b6007810183905560405190915082907fab14a23e88fb272313490d4f20d63098e64fd38304c0e07a377db98c2b39b92f90600090a25050565b6000610c77610db6565b6001600160a01b0316631b159e2e6040518163ffffffff1660e01b8152600401602060405180830381865afa158015610cb4573d6000803e3d6000fd5b505050506040513d601f19601f82011682018060405250810190610cd891906132ac565b9050808210156103e257604051631a23d64760e11b815260040160405180910390fd5b6000610d05611480565b600801546001600160a01b0316919050565b600080610d22611480565b60078101549091508015610d365792915050565b8160060160009054906101000a90046001600160a01b03166001600160a01b0316632cbb9d136040518163ffffffff1660e01b8152600401602060405180830381865afa158015610d8b573d6000803e3d6000fd5b505050506040513d601f19601f82011682018060405250810190610daf91906132ac565b9250505090565b6000610dc0611480565b600601546001600160a01b0316919050565b60006104b28261159f565b600080610de8611480565b90508060060160009054906101000a90046001600160a01b03166001600160a01b0316638120f0ba6040518163ffffffff1660e01b8152600401602060405180830381865afa158015610e3f573d6000803e3d6000fd5b505050506040513d601f19601f8201168201806040525081019061095e91906132c5565b600080610e6e611480565b6006810154600480830154604080516301332c8360e61b815290519495506001600160a01b039384169493909116926000928592634ccb20c092818301926020928290030181865afa158015610ec8573d6000803e3d6000fd5b505050506040513d601f19601f82011682018060405250810190610eec9190613136565b90506000836001600160a01b0316639f6542aa6040518163ffffffff1660e01b8152600401602060405180830381865afa158015610f2e573d6000803e3d6000fd5b505050506040513d601f19601f82011682018060405250810190610f5291906132ee565b9050610f62878261ffff16611658565b9550610f7083898489610ae0565b505050505092915050565b600080610f86611480565b90506000610f92610ac4565b905073eeeeeeeeeeeeeeeeeeeeeeeeeeeeeeeeeeeeeeed196001600160a01b03821601610fdd578382600a016000828254610fcd9190613312565b909155508493506104b292505050565b6040516370a0823160e01b815230600482015281906000906001600160a01b038316906370a0823190602401602060405180830381865afa158015611026573d6000803e3d6000fd5b505050506040513d601f19601f8201168201806040525081019061104a91906132ac565b905061105883883089610ae0565b6040516370a0823160e01b81523060048201526000906001600160a01b038416906370a0823190602401602060405180830381865afa15801561109f573d6000803e3d6000fd5b505050506040513d601f19601f820116820180604052508101906110c391906132ac565b905060006110d18383613123565b90508781146110f357604051635894b54560e11b815260040160405180910390fd5b8086600a0160008282546111079190613312565b90915550909998505050505050505050565b60008281527f4775a23600034fdd9f073b224f794d51a58b35ba663a9602623ba7a5c09cce006020819052604082205490916001600160401b039091169081810361116f576111688442613325565b905061117c565b6111798483613325565b90505b60008581526020848152604091829020805467ffffffffffffffff19166001600160401b038516908117909155915191825286917f2ec2be2c4b90c2cf13ecb6751a24daed6bb741ae5ed3f7371aabf9402f6d62e8910160405180910390a25050505050565b6111eb816116d4565b6000339050600061121882611212600085876040518060200160405280600081525061173d565b3461176f565b90506000806112278484611881565b91509150806105ee5781156112715760006112428585611a9f565b905080156112585761125384611b0b565b611262565b6112628486611c2a565b61126b86611c61565b506105ee565b61128a8360405180602001604052806000815250611cd2565b6112948385611c2a565b6040516001600160a01b038616907f86fd446d5c04e892d58b448a924dcd9c3ece3a5e0d2960b8c35cd475a5595a1f90600090a25050505050565b60606112d9611480565b600c0180546112e790613169565b80601f016020809104026020016040519081016040528092919081815260200182805461131390613169565b80156113605780601f1061133557610100808354040283529160200191611360565b820191906000526020600020905b81548152906001019060200180831161134357829003601f168201915b5050505050905090565b808210156103e257604051636664d51760e11b815260040160405180910390fd5b80611394611480565b6003015550565b6001600160a01b0381166113c257604051630e88bf4b60e01b815260040160405180910390fd5b6113ca610db6565b6040516346fc05eb60e11b81526001600160a01b0383811660048301529190911690638df80bd690602401602060405180830381865afa158015611412573d6000803e3d6000fd5b505050506040513d601f19601f82011682018060405250810190611436919061334c565b61076657604051630e88bf4b60e01b815260040160405180910390fd5b8061145c611480565b60080180546001600160a01b0319166001600160a01b039290921691909117905550565b7fc21004fcc619240a31f006438274d15cd813308303284436eef6055f0fdcb60090565b6000826001600160a01b03168260405160006040518083038185875af1925050503d80600081146114f1576040519150601f19603f3d011682016040523d82523d6000602084013e6114f6565b606091505b50509050806115475760405162461bcd60e51b815260206004820152601c60248201527f6e617469766520746f6b656e207472616e73666572206661696c656400000000604482015260640161039a565b505050565b816001600160a01b0316836001600160a01b03160315610b2657306001600160a01b0384160361158a57610b156001600160a01b0385168383611d19565b610b266001600160a01b038516848484611d78565b60008181527f6569bde4a160c636ea8b8d11acb83a60d7fec0b8f2e09389306cba0e1340df0460205260408120549060008051602061372783398151915290600160e01b8316900361163e5781600003611638578054831061161457604051636f96cda160e11b815260040160405180910390fd5b5b600019909201600081815260048401602052604090205490929091508115611615575b50919050565b50604051636f96cda160e11b815260040160405180910390fd5b60006127108211156116b65760405162461bcd60e51b815260206004820152602160248201527f426173697320706f696e74732063616e6e6f74206578636565642031305f30306044820152600360fc1b606482015260840161039a565b6127106116c3838561336e565b6116cd9190613385565b9392505050565b6001600160a01b0381166116fb57604051635fbd571760e01b815260040160405180910390fd5b611703610b72565b1580159061171f5750611714610b72565b61171c61097b565b10155b1561076657604051637efcdb4960e01b815260040160405180910390fd5b60608484848460405160200161175694939291906133bd565b6040516020818303038152906040529050949350505050565b6040516bffffffffffffffffffffffff19606085901b166020820152436034820152600090819060540160405160208183030381529060405280519060200120905060006118318261180584896117c587611db1565b604080516020808201959095526001600160a01b039390931683820152606080840192909252805180840390920182526080909201909152805191012090565b604080516020808201949094528082019290925280518083038201815260609092019052805191012090565b9050600061183e82611de6565b51111561185e5760405163f82e65c360e01b815260040160405180910390fd5b6118688186611cd2565b8315611878576118788185611eb7565b95945050505050565b60008060006118b0604051806040016040528060098152602001684a6f696e537061636560b81b815250611f3d565b905060006118bd866120df565b825190915060005b81811015611a935760008482815181106118e1576118e161340c565b602002602001015190508060400151156118fb5750611a8b565b60005b816080015151811015611a88576000826080015182815181106119235761192361340c565b60200260200101519050806001600160a01b0316630cf0b5336000801b88604051806040016040528060098152602001684a6f696e537061636560b81b8152506040516020016119739190613422565b60405160208183030381529060405261198b9061343e565b6040518463ffffffff1660e01b81526004016119a9939291906134a7565b602060405180830381865afa1580156119c6573d6000803e3d6000fd5b505050506040513d601f19601f820116820180604052508101906119ea919061334c565b15611a0457506001975060009650611a9895505050505050565b806001600160a01b0316632e1b61e46040518163ffffffff1660e01b8152600401602060405180830381865afa158015611a42573d6000803e3d6000fd5b505050506040513d601f19601f82011682018060405250810190611a66919061334c565b15611a7f57611a7a8a828560000151612347565b600197505b506001016118fe565b50505b6001016118c5565b505050505b9250929050565b600080611aaa61097b565b90506000611ab6610d17565b90506000611ac2612629565b905082821115611adf5760009350611ada8587611c2a565b611b02565b8015611afd5760009350611af36001612653565b611ada8587611c2a565b600193505b50505092915050565b6000611b186103f361097b565b60008381526000805160206137878339815191526020526040812054919250819003611b5757604051635894b54560e11b815260040160405180910390fd5b818114611b77576040516334a7a93d60e01b815260040160405180910390fd5b600080611b8385611de6565b806020019051810190611b969190613500565b50919350915060009050826001811115611bb257611bb26133a7565b14611bd05760405163da6153bd60e01b815260040160405180910390fd5b6000611bdc8286610e63565b90506000611bea8287613123565b90508015611bfe57611bfc8382610f7b565b505b611c088787612691565b611c218760405180602001604052806000815250611cd2565b50505050505050565b60008281526000805160206137878339815191526020526040902054801561154757611c568382612691565b611547610497610ac4565b6000611c6b6126cc565b9050611c8181611c7c6103f361097b565b6126e2565b611c8c826001612702565b611c9881610747610ddd565b60405181906001600160a01b038416907f2f40b0474996b72a4251e00fb9170cdd960deea1dc749772cbbab61395b9b57690600090a35050565b60008281527f34516f6fe09a043d57f1ff579a303a7ae85314751c77b4eb1a55837604a86e026020526040902060008051602061376783398151915290610b2683826131ed565b6040516001600160a01b0383811660248301526044820183905261154791859182169063a9059cbb906064015b604051602081830303815290604052915060e01b6020820180516001600160e01b03838183161783525050505061271c565b6040516001600160a01b038481166024830152838116604483015260648201839052610b269186918216906323b872dd90608401611d46565b600081815260008051602061376783398151915260208190526040822080549083611ddb836135d2565b909155509392505050565b60008181527f34516f6fe09a043d57f1ff579a303a7ae85314751c77b4eb1a55837604a86e0260205260409020805460609160008051602061376783398151915291611e3190613169565b80601f0160208091040260200160405190810160405280929190818152602001828054611e5d90613169565b8015611eaa5780601f10611e7f57610100808354040283529160200191611eaa565b820191906000526020600020905b815481529060010190602001808311611e8d57829003601f168201915b5050505050915050919050565b80600003611ed85760405163acdc0d4960e01b815260040160405180910390fd5b803414611ef85760405163acdc0d4960e01b815260040160405180910390fd5b600082815260008051602061378783398151915260205260408120805460008051602061376783398151915292849291611f33908490613312565b9091555050505050565b60606000611f4961277f565b80519091506000816001600160401b03811115611f6857611f68613153565b604051908082528060200260200182016040528015611fcd57816020015b611fba6040518060a00160405280600081526020016060815260200160001515815260200160608152602001606081525090565b815260200190600190039081611f865790505b5085516020870120909150600090815b848110156120d35760008060008061200d8a86815181106120005761200061340c565b60200260200101516127aa565b935093509350935060005b82518110156120c257868382815181106120345761203461340c565b602002602001015180519060200120036120ba576040518060a001604052808c88815181106120655761206561340c565b6020026020010151815260200186815260200185151581526020018481526020018381525089898151811061209c5761209c61340c565b602002602001018190525087806120b2906135d2565b9850506120c2565b600101612018565b505060019093019250611fdd915050565b50508152949350505050565b606060006120eb611480565b6006015460405162468b7360e31b81526001600160a01b038581166004830152909116915060009082906302345b9890602401600060405180830381865afa15801561213b573d6000803e3d6000fd5b505050506040513d6000823e601f3d908101601f1916820160405261216391908101906135eb565b604051631f04207360e31b81526001600160a01b03868116600483015291925060009184169063f821039890602401602060405180830381865afa1580156121af573d6000803e3d6000fd5b505050506040513d601f19601f820116820180604052508101906121d39190613136565b9050815160001480156121ee57506001600160a01b03811615155b156122685760405162468b7360e31b81526001600160a01b03808316600483015291955085918416906302345b9890602401600060405180830381865afa15801561223d573d6000803e3d6000fd5b505050506040513d6000823e601f3d908101601f1916820160405261226591908101906135eb565b91505b81516000612277826001613312565b6001600160401b0381111561228e5761228e613153565b6040519080825280602002602001820160405280156122b7578160200160208202803683370190505b50905060005b82811015612311578481815181106122d7576122d761340c565b60200260200101518282815181106122f1576122f161340c565b6001600160a01b03909216602092830291909101909101526001016122bd565b50868183815181106123255761232561340c565b6001600160a01b03909216602092830291909101909101529695505050505050565b60008381527f9075c515a635ba70c9696f31149324218d75cf00afe836c482e6473f38b19e016020526040902080547f9075c515a635ba70c9696f31149324218d75cf00afe836c482e6473f38b19e00919060ff16156123fb57600481015460005b818110156123f857848360040182815481106123c7576123c761340c565b9060005260206000200154036123f0576040516301ab53df60e31b815260040160405180910390fd5b6001016123a9565b50505b81546001600160a01b0316612412576124126128cc565b8154604051634f84544560e01b8152600560048201526000916001600160a01b031690634f84544590602401600060405180830381865afa15801561245b573d6000803e3d6000fd5b505050506040513d6000823e601f3d908101601f1916820160405261248391908101906135eb565b825490915060ff166124c45781546003830180546001600160a01b0319166001600160a01b0388161790556001600160a81b03191661010033021760011782555b600482018054600181810183556000928352602080842090920187905583518784529085019091526040822090915b828110156125b7578160405180604001604052808684815181106125195761251961340c565b60200260200101516001600160a01b0316815260200160006002811115612542576125426133a7565b9052815460018101835560009283526020928390208251910180546001600160a01b031981166001600160a01b03909316928317825593830151929390929183916001600160a81b03191617600160a01b8360028111156125a5576125a56133a7565b021790555050508060010190506124f3565b50845460405163541da4e560e01b81526001600160a01b039091169063541da4e5906125ed9033908c908b90899060040161369c565b600060405180830381600087803b15801561260757600080fd5b505af115801561261b573d6000803e3d6000fd5b505050505050505050505050565b60007f097b4f25b64e012d0cf55f67e9b34fe5d57f15b11b95baa4ddd136b424967c005b54919050565b7f097b4f25b64e012d0cf55f67e9b34fe5d57f15b11b95baa4ddd136b424967c00805482908290600090612688908490613123565b90915550505050565b600082815260008051602061378783398151915260205260408120805460008051602061376783398151915292849291611f33908490613123565b600060008051602061372783398151915261264d565b806126eb611480565b600093845260090160205260409092209190915550565b6103e2828260405180602001604052806000815250612992565b60006127316001600160a01b03841683612a12565b90508051600014158015612756575080806020019051810190612754919061334c565b155b1561154757604051635274afe760e01b81526001600160a01b038416600482015260240161039a565b60606103f87f672ef851d5f92307da037116e23aa9e31af7e1f7e3ca62c4e6d540631df3fd01612a20565b60008181527f672ef851d5f92307da037116e23aa9e31af7e1f7e3ca62c4e6d540631df3fd0360205260408120805460609291839182917f672ef851d5f92307da037116e23aa9e31af7e1f7e3ca62c4e6d540631df3fd009161280c90613169565b80601f016020809104026020016040519081016040528092919081815260200182805461283890613169565b80156128855780601f1061285a57610100808354040283529160200191612885565b820191906000526020600020905b81548152906001019060200180831161286857829003601f168201915b50505060008981526003850160205260409020600181015493985060ff90931696506128b7926002019150612a2d9050565b92506128c286612a38565b9150509193509193565b7f9075c515a635ba70c9696f31149324218d75cf00afe836c482e6473f38b19e0060006128f7611480565b60060154604051628956cd60e71b81526c29b830b1b2a7b832b930ba37b960991b60048201526001600160a01b03909116906344ab668090602401602060405180830381865afa15801561294f573d6000803e3d6000fd5b505050506040513d601f19601f820116820180604052508101906129739190613136565b82546001600160a01b0319166001600160a01b03919091161790915550565b61299c8383612b15565b6001600160a01b0383163b1561154757600080516020613727833981519152548281035b6129d36000868380600101945086612c6b565b6129f0576040516368d2bf6b60e11b815260040160405180910390fd5b8181106129c0578160008051602061372783398151915254146105ee57600080fd5b60606116cd83836000612d53565b606060006116cd83612df0565b60606104b282612e4c565b60008181527f672ef851d5f92307da037116e23aa9e31af7e1f7e3ca62c4e6d540631df3fd0360205260408120606091600490910190612a7782612f29565b90506000816001600160401b03811115612a9357612a93613153565b604051908082528060200260200182016040528015612abc578160200160208202803683370190505b50905060005b82811015612b0c576000612ad68583612f33565b905080838381518110612aeb57612aeb61340c565b6001600160a01b039092166020928302919091019091015250600101612ac2565b50949350505050565b600080516020613727833981519152546000829003612b475760405163b562e8dd60e01b815260040160405180910390fd5b6001600160a01b03831660008181527f6569bde4a160c636ea8b8d11acb83a60d7fec0b8f2e09389306cba0e1340df056020908152604080832080546801000000000000000188020190558483527f6569bde4a160c636ea8b8d11acb83a60d7fec0b8f2e09389306cba0e1340df0490915281206001851460e11b4260a01b178317905582840190839083907fddf252ad1be2c89b69c2b068fc378daa952ba7f163c4a11628f55a4df523b3ef8180a4600183015b818114612c3457808360007fddf252ad1be2c89b69c2b068fc378daa952ba7f163c4a11628f55a4df523b3ef600080a4600101612bfc565b5081600003612c5557604051622e076360e81b815260040160405180910390fd5b6000805160206137278339815191525550505050565b604051630a85bd0160e11b81526000906001600160a01b0385169063150b7a0290612ca09033908990889088906004016136c9565b6020604051808303816000875af1925050508015612cdb575060408051601f3d908101601f19168201909252612cd8918101906136fc565b60015b612d39573d808015612d09576040519150601f19603f3d011682016040523d82523d6000602084013e612d0e565b606091505b508051600003612d31576040516368d2bf6b60e11b815260040160405180910390fd5b805181602001fd5b6001600160e01b031916630a85bd0160e11b149050610a54565b606081471015612d785760405163cd78605960e01b815230600482015260240161039a565b600080856001600160a01b03168486604051612d949190613422565b60006040518083038185875af1925050503d8060008114612dd1576040519150601f19603f3d011682016040523d82523d6000602084013e612dd6565b606091505b5091509150612de6868383612f3f565b9695505050505050565b606081600001805480602002602001604051908101604052809291908181526020018280548015612e4057602002820191906000526020600020905b815481526020019060010190808311612e2c575b50505050509050919050565b606081600001805480602002602001604051908101604052809291908181526020016000905b82821015612f1e578382906000526020600020018054612e9190613169565b80601f0160208091040260200160405190810160405280929190818152602001828054612ebd90613169565b8015612f0a5780601f10612edf57610100808354040283529160200191612f0a565b820191906000526020600020905b815481529060010190602001808311612eed57829003601f168201915b505050505081526020019060010190612e72565b505050509050919050565b60006104b2825490565b60006116cd8383612f9b565b606082612f5457612f4f82612fc5565b6116cd565b8151158015612f6b57506001600160a01b0384163b155b15612f9457604051639996b31560e01b81526001600160a01b038516600482015260240161039a565b50806116cd565b6000826000018281548110612fb257612fb261340c565b9060005260206000200154905092915050565b805115612fd55780518082602001fd5b604051630a12f52160e11b815260040160405180910390fd5b6000806020838503121561300157600080fd5b82356001600160401b038082111561301857600080fd5b818501915085601f83011261302c57600080fd5b81358181111561303b57600080fd5b86602082850101111561304d57600080fd5b60209290920196919550909350505050565b60006020828403121561307157600080fd5b5035919050565b6001600160a01b038116811461076657600080fd5b60006020828403121561309f57600080fd5b81356116cd81613078565b60005b838110156130c55781810151838201526020016130ad565b50506000910152565b600081518084526130e68160208601602086016130aa565b601f01601f19169290920160200192915050565b6020815260006116cd60208301846130ce565b634e487b7160e01b600052601160045260246000fd5b818103818111156104b2576104b261310d565b60006020828403121561314857600080fd5b81516116cd81613078565b634e487b7160e01b600052604160045260246000fd5b600181811c9082168061317d57607f821691505b60208210810361163857634e487b7160e01b600052602260045260246000fd5b601f821115611547576000816000526020600020601f850160051c810160208610156131c65750805b601f850160051c820191505b818110156131e5578281556001016131d2565b505050505050565b81516001600160401b0381111561320657613206613153565b61321a816132148454613169565b8461319d565b602080601f83116001811461324f57600084156132375750858301515b600019600386901b1c1916600185901b1785556131e5565b600085815260208120601f198616915b8281101561327e5788860151825594840194600190910190840161325f565b508582101561329c5787850151600019600388901b60f8161c191681555b5050505050600190811b01905550565b6000602082840312156132be57600080fd5b5051919050565b6000602082840312156132d757600080fd5b81516001600160401b03811681146116cd57600080fd5b60006020828403121561330057600080fd5b815161ffff811681146116cd57600080fd5b808201808211156104b2576104b261310d565b6001600160401b038181168382160190808211156133455761334561310d565b5092915050565b60006020828403121561335e57600080fd5b815180151581146116cd57600080fd5b80820281158282048414176104b2576104b261310d565b6000826133a257634e487b7160e01b600052601260045260246000fd5b500490565b634e487b7160e01b600052602160045260246000fd5b6000600286106133dd57634e487b7160e01b600052602160045260246000fd5b8582526001600160a01b03858116602084015284166040830152608060608301819052612de6908301846130ce565b634e487b7160e01b600052603260045260246000fd5b600082516134348184602087016130aa565b9190910192915050565b805160208083015191908110156116385760001960209190910360031b1b16919050565b60008151808452602080850194506020840160005b8381101561349c5781516001600160a01b031687529582019590820190600101613477565b509495945050505050565b8381526060602082015260006134c06060830185613462565b9050826040830152949350505050565b604051601f8201601f191681016001600160401b03811182821017156134f8576134f8613153565b604052919050565b6000806000806080858703121561351657600080fd5b84516002811061352557600080fd5b602086015190945061353681613078565b604086015190935061354781613078565b60608601519092506001600160401b038082111561356457600080fd5b818701915087601f83011261357857600080fd5b81518181111561358a5761358a613153565b61359d601f8201601f19166020016134d0565b91508082528860208285010111156135b457600080fd5b6135c58160208401602086016130aa565b5094979396509194505050565b6000600182016135e4576135e461310d565b5060010190565b600060208083850312156135fe57600080fd5b82516001600160401b038082111561361557600080fd5b818501915085601f83011261362957600080fd5b81518181111561363b5761363b613153565b8060051b915061364c8483016134d0565b818152918301840191848101908884111561366657600080fd5b938501935b83851015613690578451925061368083613078565b828252938501939085019061366b565b98975050505050505050565b60018060a01b0385168152836020820152826040820152608060608201526000612de66080830184613462565b6001600160a01b0385811682528416602082015260408101839052608060608201819052600090612de6908301846130ce565b60006020828403121561370e57600080fd5b81516001600160e01b0319811681146116cd57600080fdfe6569bde4a160c636ea8b8d11acb83a60d7fec0b8f2e09389306cba0e1340df0054f22f54f370bd020e00ee80e1a5099a71652e2ccbcf6a75281e4c70a3e11a0034516f6fe09a043d57f1ff579a303a7ae85314751c77b4eb1a55837604a86e0034516f6fe09a043d57f1ff579a303a7ae85314751c77b4eb1a55837604a86e01","linkReferences":{}},"methodIdentifiers":{"expiresAt(uint256)":"17c95709","getMembershipCurrency()":"657e45e8","getMembershipDuration()":"8120f0ba","getMembershipFreeAllocation()":"706b8e09","getMembershipImage()":"93b13cb7","getMembershipLimit()":"95d600c8","getMembershipPrice()":"1278076a","getMembershipPricingModule()":"e847abdd","getMembershipRenewalPrice(uint256)":"5803909f","getSpaceFactory()":"79dda585","joinSpace(address)":"8c625b06","renewMembership(uint256)":"7c9669ac","setMembershipFreeAllocation(uint256)":"5becd24a","setMembershipImage(string)":"0ef1be5f","setMembershipLimit(uint256)":"97fb7c1e","setMembershipPrice(uint256)":"69d5f38a","setMembershipPricingModule(address)":"df9a9fe6","withdraw(address)":"51cff8d9"},"id":219}