{"abi":[{"type":"function","name":"expiresAt","inputs":[{"name":"tokenId","type":"uint256","internalType":"uint256"}],"outputs":[{"name":"","type":"uint256","internalType":"uint256"}],"stateMutability":"view"},{"type":"function","name":"getMembershipCurrency","inputs":[],"outputs":[{"name":"","type":"address","internalType":"address"}],"stateMutability":"view"},{"type":"function","name":"getMembershipDuration","inputs":[],"outputs":[{"name":"","type":"uint64","internalType":"uint64"}],"stateMutability":"view"},{"type":"function","name":"getMembershipFreeAllocation","inputs":[],"outputs":[{"name":"","type":"uint256","internalType":"uint256"}],"stateMutability":"view"},{"type":"function","name":"getMembershipImage","inputs":[],"outputs":[{"name":"","type":"string","internalType":"string"}],"stateMutability":"view"},{"type":"function","name":"getMembershipLimit","inputs":[],"outputs":[{"name":"","type":"uint256","internalType":"uint256"}],"stateMutability":"view"},{"type":"function","name":"getMembershipPrice","inputs":[],"outputs":[{"name":"","type":"uint256","internalType":"uint256"}],"stateMutability":"view"},{"type":"function","name":"getMembershipPricingModule","inputs":[],"outputs":[{"name":"","type":"address","internalType":"address"}],"stateMutability":"view"},{"type":"function","name":"getMembershipRenewalPrice","inputs":[{"name":"tokenId","type":"uint256","internalType":"uint256"}],"outputs":[{"name":"","type":"uint256","internalType":"uint256"}],"stateMutability":"view"},{"type":"function","name":"getSpaceFactory","inputs":[],"outputs":[{"name":"","type":"address","internalType":"address"}],"stateMutability":"view"},{"type":"function","name":"joinSpace","inputs":[{"name":"receiver","type":"address","internalType":"address"}],"outputs":[],"stateMutability":"payable"},{"type":"function","name":"joinSpaceWithReferral","inputs":[{"name":"receiver","type":"address","internalType":"address"},{"name":"referral","type":"tuple","internalType":"struct IMembershipBase.ReferralTypes","components":[{"name":"partner","type":"address","internalType":"address"},{"name":"userReferral","type":"address","internalType":"address"},{"name":"referralCode","type":"string","internalType":"string"}]}],"outputs":[],"stateMutability":"payable"},{"type":"function","name":"renewMembership","inputs":[{"name":"tokenId","type":"uint256","internalType":"uint256"}],"outputs":[],"stateMutability":"payable"},{"type":"function","name":"revenue","inputs":[],"outputs":[{"name":"","type":"uint256","internalType":"uint256"}],"stateMutability":"view"},{"type":"function","name":"setMembershipFreeAllocation","inputs":[{"name":"newAllocation","type":"uint256","internalType":"uint256"}],"outputs":[],"stateMutability":"nonpayable"},{"type":"function","name":"setMembershipImage","inputs":[{"name":"newImage","type":"string","internalType":"string"}],"outputs":[],"stateMutability":"nonpayable"},{"type":"function","name":"setMembershipLimit","inputs":[{"name":"newLimit","type":"uint256","internalType":"uint256"}],"outputs":[],"stateMutability":"nonpayable"},{"type":"function","name":"setMembershipPrice","inputs":[{"name":"newPrice","type":"uint256","internalType":"uint256"}],"outputs":[],"stateMutability":"nonpayable"},{"type":"function","name":"setMembershipPricingModule","inputs":[{"name":"pricingModule","type":"address","internalType":"address"}],"outputs":[],"stateMutability":"nonpayable"},{"type":"function","name":"withdraw","inputs":[{"name":"account","type":"address","internalType":"address"}],"outputs":[],"stateMutability":"nonpayable"},{"type":"event","name":"Approval","inputs":[{"name":"owner","type":"address","indexed":true,"internalType":"address"},{"name":"approved","type":"address","indexed":true,"internalType":"address"},{"name":"tokenId","type":"uint256","indexed":true,"internalType":"uint256"}],"anonymous":false},{"type":"event","name":"ApprovalForAll","inputs":[{"name":"owner","type":"address","indexed":true,"internalType":"address"},{"name":"operator","type":"address","indexed":true,"internalType":"address"},{"name":"approved","type":"bool","indexed":false,"internalType":"bool"}],"anonymous":false},{"type":"event","name":"Banned","inputs":[{"name":"moderator","type":"address","indexed":true,"internalType":"address"},{"name":"tokenId","type":"uint256","indexed":true,"internalType":"uint256"}],"anonymous":false},{"type":"event","name":"ConsecutiveTransfer","inputs":[{"name":"fromTokenId","type":"uint256","indexed":true,"internalType":"uint256"},{"name":"toTokenId","type":"uint256","indexed":false,"internalType":"uint256"},{"name":"from","type":"address","indexed":true,"internalType":"address"},{"name":"to","type":"address","indexed":true,"internalType":"address"}],"anonymous":false},{"type":"event","name":"DefaultBpsFeeUpdated","inputs":[{"name":"defaultBpsFee","type":"uint256","indexed":false,"internalType":"uint256"}],"anonymous":false},{"type":"event","name":"EntitlementCheckResultPosted","inputs":[{"name":"transactionId","type":"bytes32","indexed":true,"internalType":"bytes32"},{"name":"result","type":"uint8","indexed":false,"internalType":"enum IEntitlementGatedBase.NodeVoteStatus"}],"anonymous":false},{"type":"event","name":"Initialized","inputs":[{"name":"version","type":"uint32","indexed":false,"internalType":"uint32"}],"anonymous":false},{"type":"event","name":"InterfaceAdded","inputs":[{"name":"interfaceId","type":"bytes4","indexed":true,"internalType":"bytes4"}],"anonymous":false},{"type":"event","name":"InterfaceRemoved","inputs":[{"name":"interfaceId","type":"bytes4","indexed":true,"internalType":"bytes4"}],"anonymous":false},{"type":"event","name":"MaxBpsFeeUpdated","inputs":[{"name":"maxBpsFee","type":"uint256","indexed":false,"internalType":"uint256"}],"anonymous":false},{"type":"event","name":"MaxPartnerFeeSet","inputs":[{"name":"fee","type":"uint256","indexed":false,"internalType":"uint256"}],"anonymous":false},{"type":"event","name":"MembershipCurrencyUpdated","inputs":[{"name":"currency","type":"address","indexed":true,"internalType":"address"}],"anonymous":false},{"type":"event","name":"MembershipFeeRecipientUpdated","inputs":[{"name":"recipient","type":"address","indexed":true,"internalType":"address"}],"anonymous":false},{"type":"event","name":"MembershipFreeAllocationUpdated","inputs":[{"name":"allocation","type":"uint256","indexed":true,"internalType":"uint256"}],"anonymous":false},{"type":"event","name":"MembershipLimitUpdated","inputs":[{"name":"limit","type":"uint256","indexed":true,"internalType":"uint256"}],"anonymous":false},{"type":"event","name":"MembershipPriceUpdated","inputs":[{"name":"price","type":"uint256","indexed":true,"internalType":"uint256"}],"anonymous":false},{"type":"event","name":"MembershipTokenIssued","inputs":[{"name":"recipient","type":"address","indexed":true,"internalType":"address"},{"name":"tokenId","type":"uint256","indexed":true,"internalType":"uint256"}],"anonymous":false},{"type":"event","name":"MembershipTokenRejected","inputs":[{"name":"recipient","type":"address","indexed":true,"internalType":"address"}],"anonymous":false},{"type":"event","name":"MembershipWithdrawal","inputs":[{"name":"recipient","type":"address","indexed":true,"internalType":"address"},{"name":"amount","type":"uint256","indexed":false,"internalType":"uint256"}],"anonymous":false},{"type":"event","name":"OwnershipTransferred","inputs":[{"name":"previousOwner","type":"address","indexed":true,"internalType":"address"},{"name":"newOwner","type":"address","indexed":true,"internalType":"address"}],"anonymous":false},{"type":"event","name":"PartnerRegistered","inputs":[{"name":"account","type":"address","indexed":true,"internalType":"address"}],"anonymous":false},{"type":"event","name":"PartnerRemoved","inputs":[{"name":"account","type":"address","indexed":true,"internalType":"address"}],"anonymous":false},{"type":"event","name":"PartnerUpdated","inputs":[{"name":"account","type":"address","indexed":true,"internalType":"address"}],"anonymous":false},{"type":"event","name":"Paused","inputs":[{"name":"account","type":"address","indexed":false,"internalType":"address"}],"anonymous":false},{"type":"event","name":"PermissionsAddedToChannelRole","inputs":[{"name":"updater","type":"address","indexed":true,"internalType":"address"},{"name":"roleId","type":"uint256","indexed":true,"internalType":"uint256"},{"name":"channelId","type":"bytes32","indexed":true,"internalType":"bytes32"}],"anonymous":false},{"type":"event","name":"PermissionsRemovedFromChannelRole","inputs":[{"name":"updater","type":"address","indexed":true,"internalType":"address"},{"name":"roleId","type":"uint256","indexed":true,"internalType":"uint256"},{"name":"channelId","type":"bytes32","indexed":true,"internalType":"bytes32"}],"anonymous":false},{"type":"event","name":"PermissionsUpdatedForChannelRole","inputs":[{"name":"updater","type":"address","indexed":true,"internalType":"address"},{"name":"roleId","type":"uint256","indexed":true,"internalType":"uint256"},{"name":"channelId","type":"bytes32","indexed":true,"internalType":"bytes32"}],"anonymous":false},{"type":"event","name":"Prepay__Prepaid","inputs":[{"name":"supply","type":"uint256","indexed":false,"internalType":"uint256"}],"anonymous":false},{"type":"event","name":"ReferralRegistered","inputs":[{"name":"referralCode","type":"bytes32","indexed":false,"internalType":"bytes32"},{"name":"basisPoints","type":"uint256","indexed":false,"internalType":"uint256"},{"name":"recipient","type":"address","indexed":false,"internalType":"address"}],"anonymous":false},{"type":"event","name":"ReferralRemoved","inputs":[{"name":"referralCode","type":"bytes32","indexed":false,"internalType":"bytes32"}],"anonymous":false},{"type":"event","name":"ReferralUpdated","inputs":[{"name":"referralCode","type":"bytes32","indexed":false,"internalType":"bytes32"},{"name":"basisPoints","type":"uint256","indexed":false,"internalType":"uint256"},{"name":"recipient","type":"address","indexed":false,"internalType":"address"}],"anonymous":false},{"type":"event","name":"RegistryFeeSet","inputs":[{"name":"fee","type":"uint256","indexed":false,"internalType":"uint256"}],"anonymous":false},{"type":"event","name":"RoleCreated","inputs":[{"name":"creator","type":"address","indexed":true,"internalType":"address"},{"name":"roleId","type":"uint256","indexed":true,"internalType":"uint256"}],"anonymous":false},{"type":"event","name":"RoleRemoved","inputs":[{"name":"remover","type":"address","indexed":true,"internalType":"address"},{"name":"roleId","type":"uint256","indexed":true,"internalType":"uint256"}],"anonymous":false},{"type":"event","name":"RoleUpdated","inputs":[{"name":"updater","type":"address","indexed":true,"internalType":"address"},{"name":"roleId","type":"uint256","indexed":true,"internalType":"uint256"}],"anonymous":false},{"type":"event","name":"SubscriptionUpdate","inputs":[{"name":"tokenId","type":"uint256","indexed":true,"internalType":"uint256"},{"name":"expiration","type":"uint64","indexed":false,"internalType":"uint64"}],"anonymous":false},{"type":"event","name":"Transfer","inputs":[{"name":"from","type":"address","indexed":true,"internalType":"address"},{"name":"to","type":"address","indexed":true,"internalType":"address"},{"name":"tokenId","type":"uint256","indexed":true,"internalType":"uint256"}],"anonymous":false},{"type":"event","name":"Unbanned","inputs":[{"name":"moderator","type":"address","indexed":true,"internalType":"address"},{"name":"tokenId","type":"uint256","indexed":true,"internalType":"uint256"}],"anonymous":false},{"type":"event","name":"Unpaused","inputs":[{"name":"account","type":"address","indexed":false,"internalType":"address"}],"anonymous":false},{"type":"error","name":"ApprovalCallerNotOwnerNorApproved","inputs":[]},{"type":"error","name":"ApprovalQueryForNonexistentToken","inputs":[]},{"type":"error","name":"BalanceQueryForZeroAddress","inputs":[]},{"type":"error","name":"Banning__AlreadyBanned","inputs":[{"name":"tokenId","type":"uint256","internalType":"uint256"}]},{"type":"error","name":"Banning__CannotBanOwner","inputs":[]},{"type":"error","name":"Banning__CannotBanSelf","inputs":[]},{"type":"error","name":"Banning__InvalidTokenId","inputs":[{"name":"tokenId","type":"uint256","internalType":"uint256"}]},{"type":"error","name":"Banning__NotBanned","inputs":[{"name":"tokenId","type":"uint256","internalType":"uint256"}]},{"type":"error","name":"Dispatcher__InvalidCaller","inputs":[]},{"type":"error","name":"Dispatcher__InvalidValue","inputs":[]},{"type":"error","name":"Dispatcher__TransactionAlreadyExists","inputs":[]},{"type":"error","name":"ERC5643__DurationZero","inputs":[]},{"type":"error","name":"ERC5643__InvalidTokenId","inputs":[{"name":"tokenId","type":"uint256","internalType":"uint256"}]},{"type":"error","name":"ERC5643__NotApprovedOrOwner","inputs":[]},{"type":"error","name":"ERC5643__SubscriptionNotRenewable","inputs":[{"name":"tokenId","type":"uint256","internalType":"uint256"}]},{"type":"error","name":"EntitlementGated_InvalidAddress","inputs":[]},{"type":"error","name":"EntitlementGated_NodeAlreadyVoted","inputs":[]},{"type":"error","name":"EntitlementGated_NodeNotFound","inputs":[]},{"type":"error","name":"EntitlementGated_OnlyEntitlementChecker","inputs":[]},{"type":"error","name":"EntitlementGated_TransactionCheckAlreadyCompleted","inputs":[]},{"type":"error","name":"EntitlementGated_TransactionCheckAlreadyRegistered","inputs":[]},{"type":"error","name":"EntitlementGated_TransactionNotRegistered","inputs":[]},{"type":"error","name":"Entitlement__InvalidValue","inputs":[]},{"type":"error","name":"Entitlement__NotAllowed","inputs":[]},{"type":"error","name":"Entitlement__NotMember","inputs":[]},{"type":"error","name":"Entitlement__ValueAlreadyExists","inputs":[]},{"type":"error","name":"Initializable_InInitializingState","inputs":[]},{"type":"error","name":"Introspection_AlreadySupported","inputs":[]},{"type":"error","name":"Introspection_NotSupported","inputs":[]},{"type":"error","name":"Membership__AlreadyMember","inputs":[]},{"type":"error","name":"Membership__Banned","inputs":[]},{"type":"error","name":"Membership__InsufficientAllowance","inputs":[]},{"type":"error","name":"Membership__InsufficientPayment","inputs":[]},{"type":"error","name":"Membership__InvalidAddress","inputs":[]},{"type":"error","name":"Membership__InvalidCurrency","inputs":[]},{"type":"error","name":"Membership__InvalidDuration","inputs":[]},{"type":"error","name":"Membership__InvalidFeeRecipient","inputs":[]},{"type":"error","name":"Membership__InvalidFreeAllocation","inputs":[]},{"type":"error","name":"Membership__InvalidLimit","inputs":[]},{"type":"error","name":"Membership__InvalidMaxSupply","inputs":[]},{"type":"error","name":"Membership__InvalidPayment","inputs":[]},{"type":"error","name":"Membership__InvalidPrice","inputs":[]},{"type":"error","name":"Membership__InvalidPricingModule","inputs":[]},{"type":"error","name":"Membership__InvalidTokenId","inputs":[]},{"type":"error","name":"Membership__InvalidTransactionType","inputs":[]},{"type":"error","name":"Membership__MaxSupplyReached","inputs":[]},{"type":"error","name":"Membership__NotExpired","inputs":[]},{"type":"error","name":"Membership__PriceTooLow","inputs":[]},{"type":"error","name":"MintERC2309QuantityExceedsLimit","inputs":[]},{"type":"error","name":"MintToZeroAddress","inputs":[]},{"type":"error","name":"MintZeroQuantity","inputs":[]},{"type":"error","name":"Ownable__NotOwner","inputs":[{"name":"account","type":"address","internalType":"address"}]},{"type":"error","name":"Ownable__ZeroAddress","inputs":[]},{"type":"error","name":"OwnerQueryForNonexistentToken","inputs":[]},{"type":"error","name":"OwnershipNotInitializedForExtraData","inputs":[]},{"type":"error","name":"PartnerRegistry__InvalidPartnerFee","inputs":[{"name":"fee","type":"uint256","internalType":"uint256"}]},{"type":"error","name":"PartnerRegistry__InvalidRecipient","inputs":[]},{"type":"error","name":"PartnerRegistry__NotPartnerAccount","inputs":[{"name":"account","type":"address","internalType":"address"}]},{"type":"error","name":"PartnerRegistry__PartnerAlreadyRegistered","inputs":[{"name":"account","type":"address","internalType":"address"}]},{"type":"error","name":"PartnerRegistry__PartnerNotActive","inputs":[{"name":"account","type":"address","internalType":"address"}]},{"type":"error","name":"PartnerRegistry__PartnerNotRegistered","inputs":[{"name":"account","type":"address","internalType":"address"}]},{"type":"error","name":"PartnerRegistry__RegistryFeeNotPaid","inputs":[{"name":"fee","type":"uint256","internalType":"uint256"}]},{"type":"error","name":"Pausable__NotPaused","inputs":[]},{"type":"error","name":"Pausable__Paused","inputs":[]},{"type":"error","name":"Prepay__InvalidAddress","inputs":[]},{"type":"error","name":"Prepay__InvalidAmount","inputs":[]},{"type":"error","name":"Prepay__InvalidMembership","inputs":[]},{"type":"error","name":"Prepay__InvalidSupplyAmount","inputs":[]},{"type":"error","name":"Reentrancy","inputs":[]},{"type":"error","name":"Referrals__InvalidBasisPoints","inputs":[]},{"type":"error","name":"Referrals__InvalidBpsFee","inputs":[]},{"type":"error","name":"Referrals__InvalidRecipient","inputs":[]},{"type":"error","name":"Referrals__InvalidReferralCode","inputs":[]},{"type":"error","name":"Referrals__ReferralAlreadyExists","inputs":[]},{"type":"error","name":"Roles__EntitlementAlreadyExists","inputs":[]},{"type":"error","name":"Roles__EntitlementDoesNotExist","inputs":[]},{"type":"error","name":"Roles__InvalidEntitlementAddress","inputs":[]},{"type":"error","name":"Roles__InvalidPermission","inputs":[]},{"type":"error","name":"Roles__PermissionAlreadyExists","inputs":[]},{"type":"error","name":"Roles__PermissionDoesNotExist","inputs":[]},{"type":"error","name":"Roles__RoleDoesNotExist","inputs":[]},{"type":"error","name":"TransferCallerNotOwnerNorApproved","inputs":[]},{"type":"error","name":"TransferFromIncorrectOwner","inputs":[]},{"type":"error","name":"TransferToNonERC721ReceiverImplementer","inputs":[]},{"type":"error","name":"TransferToZeroAddress","inputs":[]},{"type":"error","name":"URIQueryForNonexistentToken","inputs":[]}],"bytecode":{"object":"0x60806040523480156200001157600080fd5b506200001c62000022565b620000ca565b7f59b501c3653afc186af7d48dda36cf6732bd21629a6295693664240a6ef520008054640100000000900460ff16156200006f576040516366008a2d60e01b815260040160405180910390fd5b805463ffffffff9081161015620000c757805463ffffffff191663ffffffff90811782556040519081527fe9c9b456cb2994b80aeef036cf59d26e9617df80f816a6ee5a5b4166e07e2f5c9060200160405180910390a15b50565b61415980620000da6000396000f3fe60806040526004361061011f5760003560e01c8063706b8e09116100a057806393b13cb71161006457806393b13cb71461031557806395d600c81461033757806397fb7c1e1461034c578063df9a9fe61461036c578063e847abdd1461038c57600080fd5b8063706b8e091461029857806379dda585146102ad5780637c9669ac146102c25780638120f0ba146102d55780638c625b061461030257600080fd5b80635803909f116100e75780635803909f146101f85780635becd24a14610218578063657e45e814610238578063686f76841461026557806369d5f38a1461027857600080fd5b80630ef1be5f146101245780631278076a1461014657806317c957091461016e5780633e9491a2146101c357806351cff8d9146101d8575b600080fd5b34801561013057600080fd5b5061014461013f3660046136ff565b6103a1565b005b34801561015257600080fd5b5061015b610424565b6040519081526020015b60405180910390f35b34801561017a57600080fd5b5061015b610189366004613770565b60009081527f4775a23600034fdd9f073b224f794d51a58b35ba663a9602623ba7a5c09cce0060205260409020546001600160401b031690565b3480156101cf57600080fd5b5061015b61043b565b3480156101e457600080fd5b506101446101f336600461379e565b610445565b34801561020457600080fd5b5061015b610213366004613770565b61052c565b34801561022457600080fd5b50610144610233366004613770565b610545565b34801561024457600080fd5b5061024d6105ca565b6040516001600160a01b039091168152602001610165565b610144610273366004613850565b6105d4565b34801561028457600080fd5b50610144610293366004613770565b610619565b3480156102a457600080fd5b5061015b6106c7565b3480156102b957600080fd5b5061024d6106d1565b6101446102d0366004613770565b6106db565b3480156102e157600080fd5b506102ea610814565b6040516001600160401b039091168152602001610165565b61014461031036600461379e565b61081e565b34801561032157600080fd5b5061032a61086f565b604051610165919061398a565b34801561034357600080fd5b5061015b610879565b34801561035857600080fd5b50610144610367366004613770565b610883565b34801561037857600080fd5b5061014461038736600461379e565b6108db565b34801561039857600080fd5b5061024d610928565b6103a9610932565b6001600160a01b0316336001600160a01b0316146103e1576040516365f4906560e01b81523360048201526024015b60405180910390fd5b61042082828080601f0160208091040260200160405190810160405280939291908181526020018383808284376000920191909152506109cf92505050565b5050565b60006104366104316109e6565b610a1c565b905090565b6000610436610ba8565b61044d610932565b6001600160a01b0316336001600160a01b031614610480576040516365f4906560e01b81523360048201526024016103d8565b3068929eee149b4bd21268540361049f5763ab143c066000526004601cfd5b3068929eee149b4bd21268556001600160a01b0381166104d257604051635fbd571760e01b815260040160405180910390fd5b60006104dc610ba8565b9050806000036104ff57604051635894b54560e11b815260040160405180910390fd5b6105096000610bbb565b61051c610514610bcb565b308484610be7565b503868929eee149b4bd212685550565b600061053f8261053a6109e6565b610c33565b92915050565b61054d610932565b6001600160a01b0316336001600160a01b031614610580576040516365f4906560e01b81523360048201526024016103d8565b600061058a610c81565b9050801580159061059a57508082115b156105b85760405163c3983b9160e01b815260040160405180910390fd5b6105c182610c94565b61042082610d39565b6000610436610bcb565b3068929eee149b4bd2126854036105f35763ab143c066000526004601cfd5b3068929eee149b4bd21268556106098282610d8b565b3868929eee149b4bd21268555050565b610621610932565b6001600160a01b0316336001600160a01b031614610654576040516365f4906560e01b81523360048201526024016103d8565b61065d81610ef3565b610665610f81565b6001600160a01b03166391b7f5ed826040518263ffffffff1660e01b815260040161069291815260200190565b600060405180830381600087803b1580156106ac57600080fd5b505af11580156106c0573d6000803e3d6000fd5b5050505050565b6000610436610f9d565b600061043661103a565b3068929eee149b4bd2126854036106fa5763ab143c066000526004601cfd5b3068929eee149b4bd2126855600061071182611056565b90506001600160a01b03811661073a57604051635fbd571760e01b815260040160405180910390fd5b60008281527f4775a23600034fdd9f073b224f794d51a58b35ba663a9602623ba7a5c09cce0060205260409020546001600160401b0316610779611061565b6001600160401b031661078c42836139b3565b106107aa5760405163dce9a1d360e01b815260040160405180910390fd5b60006107b88461053a6109e6565b905080156107f15760006107cc84836110e7565b905060006107da82846139b3565b905080156107ee576107ec8582611193565b505b50505b610802846107fd611061565b611331565b5050503868929eee149b4bd212685550565b6000610436611061565b3068929eee149b4bd21268540361083d5763ab143c066000526004601cfd5b3068929eee149b4bd21268556040805160608082018352600080835260208301529181019190915261051c8282610d8b565b60606104366113fa565b6000610436610c81565b61088b610932565b6001600160a01b0316336001600160a01b0316146108be576040516365f4906560e01b81523360048201526024016103d8565b6108cf816108ca6109e6565b611495565b6108d8816114b6565b50565b6108e3610932565b6001600160a01b0316336001600160a01b031614610916576040516365f4906560e01b81523360048201526024016103d8565b61091f816114c6565b6108d88161157e565b6000610436610f81565b6000807fd2f24d4f172e4e84e48e7c4125b6e904c29e5eba33ad4938fee51dd5dbd4b600805460018201546040516331a9108f60e11b815260048101919091529192506001600160a01b031690636352211e90602401602060405180830381865afa1580156109a5573d6000803e3d6000fd5b505050506040513d601f19601f820116820180604052508101906109c991906139c6565b91505090565b806109d86115ab565b600c01906104209082613a67565b7f6569bde4a160c636ea8b8d11acb83a60d7fec0b8f2e09389306cba0e1340df01546000805160206140f9833981519152540390565b600080610a276115ab565b90506000610a33610f9d565b6008830154604051635cf4ee9160e01b815260048101839052602481018790529192506000916001600160a01b0390911690635cf4ee9190604401602060405180830381865afa158015610a8b573d6000803e3d6000fd5b505050506040513d601f19601f82011682018060405250810190610aaf9190613b26565b90506000610abb61103a565b90506000816001600160a01b0316631b159e2e6040518163ffffffff1660e01b8152600401602060405180830381865afa158015610afd573d6000803e3d6000fd5b505050506040513d601f19601f82011682018060405250810190610b219190613b26565b90506000826001600160a01b0316630eac306d6040518163ffffffff1660e01b8152600401602060405180830381865afa158015610b63573d6000803e3d6000fd5b505050506040513d601f19601f82011682018060405250810190610b879190613b26565b905081841015610b9c57979650505050505050565b50919695505050505050565b6000610bb26115ab565b600a0154905090565b80610bc46115ab565b600a015550565b6000610bd56115ab565b600401546001600160a01b0316919050565b8015610c2d5773eeeeeeeeeeeeeeeeeeeeeeeeeeeeeeeeeeeeeeed196001600160a01b03851601610c2157610c1c82826115cf565b610c2d565b610c2d848484846115e2565b50505050565b600080610c3e6115ab565b600085815260098201602052604090205490915015610c7057600084815260099091016020526040902054905061053f565b610c7983610a1c565b949350505050565b6000610c8b6115ab565b60030154905090565b6000610c9e6115ab565b90508060060160009054906101000a90046001600160a01b03166001600160a01b0316632cbb9d136040518163ffffffff1660e01b8152600401602060405180830381865afa158015610cf5573d6000803e3d6000fd5b505050506040513d601f19601f82011682018060405250810190610d199190613b26565b8211156104205760405163c3983b9160e01b815260040160405180910390fd5b6000610d436115ab565b60078101839055600d8101805460ff1916600117905560405190915082907fab14a23e88fb272313490d4f20d63098e64fd38304c0e07a377db98c2b39b92f90600090a25050565b610d9482611635565b610d9c61169e565b610da682826116d2565b336000610db283611733565b9050600081610de05783604051602001610dcc9190613b3f565b604051602081830303815290604052610df1565b604051806020016040528060008152505b9050600082610e0757631a1bdda160e21b610e10565b6346312d8360e11b5b90506000610e2a87610e2484888b8861176a565b3461179c565b9050600080610e3989846118b0565b9150915080610ee8578115610e90576000610e52611acf565b90508015610e77578615610e6e57610e6984611b2a565b610e81565b610e6984611bf4565b610e818489611d1e565b610e8a8a611d5a565b50610ee8565b610ea98360405180602001604052806000815250611dcb565b610eb38388611d1e565b6040516001600160a01b038a16907f86fd446d5c04e892d58b448a924dcd9c3ece3a5e0d2960b8c35cd475a5595a1f90600090a25b505050505050505050565b6000610efd61103a565b6001600160a01b0316630eac306d6040518163ffffffff1660e01b8152600401602060405180830381865afa158015610f3a573d6000803e3d6000fd5b505050506040513d601f19601f82011682018060405250810190610f5e9190613b26565b90508082101561042057604051631a23d64760e11b815260040160405180910390fd5b6000610f8b6115ab565b600801546001600160a01b0316919050565b600080610fa86115ab565b600d81015490915060ff1615610fc15760070154919050565b8060060160009054906101000a90046001600160a01b03166001600160a01b0316632cbb9d136040518163ffffffff1660e01b8152600401602060405180830381865afa158015611016573d6000803e3d6000fd5b505050506040513d601f19601f820116820180604052508101906109c99190613b26565b60006110446115ab565b600601546001600160a01b0316919050565b600061053f82611e12565b60008061106c6115ab565b90508060060160009054906101000a90046001600160a01b03166001600160a01b0316638120f0ba6040518163ffffffff1660e01b8152600401602060405180830381865afa1580156110c3573d6000803e3d6000fd5b505050506040513d601f19601f820116820180604052508101906109c99190613b7a565b6000806110f26115ab565b6006810154600480830154604080516301332c8360e61b815290519495506001600160a01b039384169493909116926000928592634ccb20c092818301926020928290030181865afa15801561114c573d6000803e3d6000fd5b505050506040513d601f19601f8201168201806040525081019061117091906139c6565b905061117b86611ecb565b945061118982888388610be7565b5050505092915050565b60008061119e6115ab565b905060006111aa610bcb565b905073eeeeeeeeeeeeeeeeeeeeeeeeeeeeeeeeeeeeeeed196001600160a01b038216016111f5578382600a0160008282546111e59190613ba3565b9091555084935061053f92505050565b6040516370a0823160e01b815230600482015281906000906001600160a01b038316906370a0823190602401602060405180830381865afa15801561123e573d6000803e3d6000fd5b505050506040513d601f19601f820116820180604052508101906112629190613b26565b905061127083883089610be7565b6040516370a0823160e01b81523060048201526000906001600160a01b038416906370a0823190602401602060405180830381865afa1580156112b7573d6000803e3d6000fd5b505050506040513d601f19601f820116820180604052508101906112db9190613b26565b905060006112e983836139b3565b905087811461130b57604051635894b54560e11b815260040160405180910390fd5b8086600a01600082825461131f9190613ba3565b90915550909998505050505050505050565b60008281527f4775a23600034fdd9f073b224f794d51a58b35ba663a9602623ba7a5c09cce006020819052604082205490916001600160401b0390911690818103611387576113808442613bb6565b9050611394565b6113918483613bb6565b90505b60008581526020848152604091829020805467ffffffffffffffff19166001600160401b038516908117909155915191825286917f2ec2be2c4b90c2cf13ecb6751a24daed6bb741ae5ed3f7371aabf9402f6d62e8910160405180910390a25050505050565b60606114046115ab565b600c018054611412906139e3565b80601f016020809104026020016040519081016040528092919081815260200182805461143e906139e3565b801561148b5780601f106114605761010080835404028352916020019161148b565b820191906000526020600020905b81548152906001019060200180831161146e57829003601f168201915b5050505050905090565b8082101561042057604051636664d51760e11b815260040160405180910390fd5b806114bf6115ab565b6003015550565b6001600160a01b0381166114ed57604051630e88bf4b60e01b815260040160405180910390fd5b6114f561103a565b6040516346fc05eb60e11b81526001600160a01b0383811660048301529190911690638df80bd690602401602060405180830381865afa15801561153d573d6000803e3d6000fd5b505050506040513d601f19601f820116820180604052508101906115619190613bf2565b6108d857604051630e88bf4b60e01b815260040160405180910390fd5b806115876115ab565b60080180546001600160a01b0319166001600160a01b039290921691909117905550565b7fc21004fcc619240a31f006438274d15cd813308303284436eef6055f0fdcb60090565b6104206001600160a01b0383168261202c565b816001600160a01b0316836001600160a01b03160315610c2d57306001600160a01b0384160361162057610c1c6001600160a01b0385168383612048565b610c2d6001600160a01b038516848484612098565b6001600160a01b03811661165c57604051635fbd571760e01b815260040160405180910390fd5b611664610c81565b158015906116805750611675610c81565b61167d6109e6565b10155b156108d857604051637efcdb4960e01b815260040160405180910390fd5b34156116d05760006116ae6120f6565b90508034146108d8576040516334a7a93d60e01b815260040160405180910390fd5b565b60208101516001600160a01b03161561042057816001600160a01b031681602001516001600160a01b03161480611715575060208101516001600160a01b031633145b1561042057604051635fbd571760e01b815260040160405180910390fd5b80516000906001600160a01b0316158015611759575060208201516001600160a01b0316155b801561053f57505060400151511590565b6060848484846040516020016117839493929190613c0d565b6040516020818303038152906040529050949350505050565b6040516bffffffffffffffffffffffff19606085901b1660208201524360348201526000908190605401604051602081830303815290604052805190602001209050600061185e8261183284896117f28761214d565b604080516020808201959095526001600160a01b039390931683820152606080840192909252805180840390920182526080909201909152805191012090565b604080516020808201949094528082019290925280518083038201815260609092019052805191012090565b9050600061186b82612182565b51111561188b5760405163f82e65c360e01b815260040160405180910390fd5b6118958186611dcb565b83156118a5576118a58185612253565b9150505b9392505050565b60008060006118df604051806040016040528060098152602001684a6f696e537061636560b81b8152506122d9565b905060006118ec8661247b565b825190915060005b81811015611ac357600084828151811061191057611910613c53565b6020026020010151905080604001511561192a5750611abb565b60005b816080015151811015611ab85760008260800151828151811061195257611952613c53565b60200260200101519050806001600160a01b0316630cf0b5336000801b88604051806040016040528060098152602001684a6f696e537061636560b81b8152506040516020016119a29190613c69565b6040516020818303038152906040526119ba90613c85565b6040518463ffffffff1660e01b81526004016119d893929190613cee565b602060405180830381865afa1580156119f5573d6000803e3d6000fd5b505050506040513d601f19601f82011682018060405250810190611a199190613bf2565b15611a3357506001975060009650611ac895505050505050565b806001600160a01b0316632e1b61e46040518163ffffffff1660e01b8152600401602060405180830381865afa158015611a71573d6000803e3d6000fd5b505050506040513d601f19601f82011682018060405250810190611a959190613bf2565b15611aaf57611aaa8b8b8386600001516126e3565b600197505b5060010161192d565b50505b6001016118f4565b505050505b9250929050565b600080611ada6109e6565b90506000611ae6610f9d565b90506000611af26129d0565b905082821115611b06576000935050505090565b8015611b2057611b1660016129fa565b6000935050505090565b6001935050505090565b6000818152600080516020614139833981519152602052604081205490819003611b6757604051635894b54560e11b815260040160405180910390fd5b6000806000611b7585612182565b806020019051810190611b889190613d5f565b50919450925090506001600160e01b031983166346312d8360e11b14611bc15760405163da6153bd60e01b815260040160405180910390fd5b6000611bcd83866110e7565b90506000611bdb82876139b3565b9050611beb878585898587612a38565b50505050505050565b6000818152600080516020614139833981519152602052604081205490819003611c3157604051635894b54560e11b815260040160405180910390fd5b600080600080611c4086612182565b806020019051810190611c539190613d5f565b929650909450925090506001600160e01b03198416631a1bdda160e21b14611c8e5760405163da6153bd60e01b815260040160405180910390fd5b600081806020019051810190611ca49190613de7565b90506000611cb285886110e7565b90506000611cc58684600001518a612c6b565b90506000611cdd87856020015186604001518c612d47565b905060008183611ced868d6139b3565b611cf791906139b3565b611d0191906139b3565b9050611d118b89898d8589612a38565b5050505050505050505050565b600082815260008051602061413983398151915260205260409020548015611d5557611d4a8382612e34565b611d55610514610bcb565b505050565b6000611d64612e6f565b9050611d7a81611d756104316109e6565b612e85565b611d85826001612ea5565b611d91816107fd611061565b60405181906001600160a01b038416907f2f40b0474996b72a4251e00fb9170cdd960deea1dc749772cbbab61395b9b57690600090a35050565b60008281527f34516f6fe09a043d57f1ff579a303a7ae85314751c77b4eb1a55837604a86e026020526040902060008051602061411983398151915290610c2d8382613a67565b60008181527f6569bde4a160c636ea8b8d11acb83a60d7fec0b8f2e09389306cba0e1340df046020526040812054906000805160206140f983398151915290600160e01b83169003611eb15781600003611eab5780548310611e8757604051636f96cda160e11b815260040160405180910390fd5b5b600019909201600081815260048401602052604090205490929091508115611e88575b50919050565b50604051636f96cda160e11b815260040160405180910390fd5b600080611ed661103a565b90506000816001600160a01b0316631b159e2e6040518163ffffffff1660e01b8152600401602060405180830381865afa158015611f18573d6000803e3d6000fd5b505050506040513d601f19601f82011682018060405250810190611f3c9190613b26565b90506000826001600160a01b0316630eac306d6040518163ffffffff1660e01b8152600401602060405180830381865afa158015611f7e573d6000803e3d6000fd5b505050506040513d601f19601f82011682018060405250810190611fa29190613b26565b905081851015611fb457949350505050565b61202385846001600160a01b0316639f6542aa6040518163ffffffff1660e01b8152600401602060405180830381865afa158015611ff6573d6000803e3d6000fd5b505050506040513d601f19601f8201168201806040525081019061201a9190613e90565b61ffff16612ebf565b95945050505050565b60003860003884865af16104205763b12d13eb6000526004601cfd5b816014528060345263a9059cbb60601b60005260206000604460106000875af1806001600051141661208d57803d853b15171061208d576390b8ec186000526004601cfd5b506000603452505050565b60405181606052826040528360601b602c526323b872dd60601b600c52602060006064601c6000895af180600160005114166120e757803d873b1517106120e757637939f4246000526004601cfd5b50600060605260405250505050565b6000806121016129d0565b9050801561211157600091505090565b600061211e6104316109e6565b9050806000036121315760009250505090565b600061213c82611ecb565b828118908310029091189392505050565b60008181526000805160206141198339815191526020819052604082208054908361217783613eb4565b909155509392505050565b60008181527f34516f6fe09a043d57f1ff579a303a7ae85314751c77b4eb1a55837604a86e02602052604090208054606091600080516020614119833981519152916121cd906139e3565b80601f01602080910402602001604051908101604052809291908181526020018280546121f9906139e3565b80156122465780601f1061221b57610100808354040283529160200191612246565b820191906000526020600020905b81548152906001019060200180831161222957829003601f168201915b5050505050915050919050565b806000036122745760405163acdc0d4960e01b815260040160405180910390fd5b8034146122945760405163acdc0d4960e01b815260040160405180910390fd5b6000828152600080516020614139833981519152602052604081208054600080516020614119833981519152928492916122cf908490613ba3565b9091555050505050565b606060006122e5612f34565b80519091506000816001600160401b03811115612304576123046137bb565b60405190808252806020026020018201604052801561236957816020015b6123566040518060a00160405280600081526020016060815260200160001515815260200160608152602001606081525090565b8152602001906001900390816123225790505b5085516020870120909150600090815b8481101561246f576000806000806123a98a868151811061239c5761239c613c53565b6020026020010151612f5f565b935093509350935060005b825181101561245e57868382815181106123d0576123d0613c53565b60200260200101518051906020012003612456576040518060a001604052808c888151811061240157612401613c53565b6020026020010151815260200186815260200185151581526020018481526020018381525089898151811061243857612438613c53565b6020026020010181905250878061244e90613eb4565b98505061245e565b6001016123b4565b505060019093019250612379915050565b50508152949350505050565b606060006124876115ab565b6006015460405162468b7360e31b81526001600160a01b038581166004830152909116915060009082906302345b9890602401600060405180830381865afa1580156124d7573d6000803e3d6000fd5b505050506040513d6000823e601f3d908101601f191682016040526124ff9190810190613ecd565b604051631f04207360e31b81526001600160a01b03868116600483015291925060009184169063f821039890602401602060405180830381865afa15801561254b573d6000803e3d6000fd5b505050506040513d601f19601f8201168201806040525081019061256f91906139c6565b90508151600014801561258a57506001600160a01b03811615155b156126045760405162468b7360e31b81526001600160a01b03808316600483015291955085918416906302345b9890602401600060405180830381865afa1580156125d9573d6000803e3d6000fd5b505050506040513d6000823e601f3d908101601f191682016040526126019190810190613ecd565b91505b81516000612613826001613ba3565b6001600160401b0381111561262a5761262a6137bb565b604051908082528060200260200182016040528015612653578160200160208202803683370190505b50905060005b828110156126ad5784818151811061267357612673613c53565b602002602001015182828151811061268d5761268d613c53565b6001600160a01b0390921660209283029190910190910152600101612659565b50868183815181106126c1576126c1613c53565b6001600160a01b03909216602092830291909101909101529695505050505050565b60008381527f9075c515a635ba70c9696f31149324218d75cf00afe836c482e6473f38b19e016020526040902080547f9075c515a635ba70c9696f31149324218d75cf00afe836c482e6473f38b19e00919060ff161561279757600481015460005b81811015612794578483600401828154811061276357612763613c53565b90600052602060002001540361278c576040516301ab53df60e31b815260040160405180910390fd5b600101612745565b50505b81546001600160a01b03166127ae576127ae613081565b8154604051634f84544560e01b8152600560048201526000916001600160a01b031690634f84544590602401600060405180830381865afa1580156127f7573d6000803e3d6000fd5b505050506040513d6000823e601f3d908101601f1916820160405261281f9190810190613ecd565b825490915060ff1661286a5781546003830180546001600160a01b038089166001600160a01b0319909216919091179091558816610100026001600160a81b03199091161760011782555b600482018054600181810183556000928352602080842090920187905583518784529085019091526040822090915b8281101561295d578160405180604001604052808684815181106128bf576128bf613c53565b60200260200101516001600160a01b03168152602001600060028111156128e8576128e8613f7e565b9052815460018101835560009283526020928390208251910180546001600160a01b031981166001600160a01b03909316928317825593830151929390929183916001600160a81b03191617600160a01b83600281111561294b5761294b613f7e565b02179055505050806001019050612899565b50845460405163541da4e560e01b81526001600160a01b039091169063541da4e590612993908c908c908b908990600401613f94565b600060405180830381600087803b1580156129ad57600080fd5b505af11580156129c1573d6000803e3d6000fd5b50505050505050505050505050565b60007f097b4f25b64e012d0cf55f67e9b34fe5d57f15b11b95baa4ddd136b424967c005b54919050565b7f097b4f25b64e012d0cf55f67e9b34fe5d57f15b11b95baa4ddd136b424967c00805482908290600090612a2f9084906139b3565b90915550505050565b8115612a4a57612a488583611193565b505b612a548684612e34565b612a6d8660405180602001604052806000815250611dcb565b6000612a7761103a565b604051628956cd60e71b81526b0526976657241697264726f760a41b60048201526001600160a01b0391909116906344ab668090602401602060405180830381865afa158015612acb573d6000803e3d6000fd5b505050506040513d601f19601f82011682018060405250810190612aef91906139c6565b90506000816001600160a01b031663dc69fdde600085604051602001612b1791815260200190565b6040516020818303038152906040526040518363ffffffff1660e01b8152600401612b43929190613fc1565b602060405180830381865afa158015612b60573d6000803e3d6000fd5b505050506040513d601f19601f82011682018060405250810190612b849190613b26565b6040516340c10f1960e01b81526001600160a01b03888116600483015260248201839052919250908316906340c10f1990604401600060405180830381600087803b158015612bd257600080fd5b505af1158015612be6573d6000803e3d6000fd5b50505050816001600160a01b03166340c10f19612c01610932565b6040516001600160e01b031960e084901b1681526001600160a01b03909116600482015260248101849052604401600060405180830381600087803b158015612c4957600080fd5b505af1158015612c5d573d6000803e3d6000fd5b505050505050505050505050565b60006001600160a01b038316612c83575060006118a9565b6000612c8d61103a565b604051630b969ea960e31b81526001600160a01b0386811660048301529190911690635cb4f54890602401608060405180830381865afa158015612cd5573d6000803e3d6000fd5b505050506040513d601f19601f82011682018060405250810190612cf99190613ff8565b90508060400151600003612d115760009150506118a9565b604081015160208201516000612d278684612ebf565b9050612d3c612d34610bcb565b898484610be7565b979650505050505050565b6000808351600014612dbc576000612d5e85613147565b60408101519091506001600160a01b03161580612d7d57506020810151155b15612d8d57600092505050610c79565b6020810151612d9c8582612ebf565b9250612db5612da9610bcb565b89846040015186610be7565b5050612023565b6001600160a01b0385161561202357856001600160a01b0316856001600160a01b031603612dee576000915050610c79565b612e1f83612e1a7faca21cc4d2a125f3e0ae03aa135d42b2b9177631aca87599d42a68b47e9008015490565b612ebf565b9050612023612e2c610bcb565b878784610be7565b6000828152600080516020614139833981519152602052604081208054600080516020614119833981519152928492916122cf9084906139b3565b60006000805160206140f98339815191526129f4565b80612e8e6115ab565b600093845260090160205260409092209190915550565b6104208282604051806020016040528060008152506131d8565b6000612710821115612f1d5760405162461bcd60e51b815260206004820152602160248201527f426173697320706f696e74732063616e6e6f74206578636565642031305f30306044820152600360fc1b60648201526084016103d8565b612710612f2a8385614071565b6118a99190614088565b60606104367f672ef851d5f92307da037116e23aa9e31af7e1f7e3ca62c4e6d540631df3fd01613258565b60008181527f672ef851d5f92307da037116e23aa9e31af7e1f7e3ca62c4e6d540631df3fd0360205260408120805460609291839182917f672ef851d5f92307da037116e23aa9e31af7e1f7e3ca62c4e6d540631df3fd0091612fc1906139e3565b80601f0160208091040260200160405190810160405280929190818152602001828054612fed906139e3565b801561303a5780601f1061300f5761010080835404028352916020019161303a565b820191906000526020600020905b81548152906001019060200180831161301d57829003601f168201915b50505060008981526003850160205260409020600181015493985060ff909316965061306c9260020191506132659050565b925061307786613270565b9150509193509193565b7f9075c515a635ba70c9696f31149324218d75cf00afe836c482e6473f38b19e0060006130ac6115ab565b60060154604051628956cd60e71b81526c29b830b1b2a7b832b930ba37b960991b60048201526001600160a01b03909116906344ab668090602401602060405180830381865afa158015613104573d6000803e3d6000fd5b505050506040513d601f19601f8201168201806040525081019061312891906139c6565b82546001600160a01b0319166001600160a01b03919091161790915550565b6131746040518060600160405280606081526020016000815260200160006001600160a01b031681525090565b50805160208083019190912060009081527faca21cc4d2a125f3e0ae03aa135d42b2b9177631aca87599d42a68b47e900802825260409081902081516060810183529384528054928401929092526001909101546001600160a01b03169082015290565b6131e2838361334d565b6001600160a01b0383163b15611d55576000805160206140f9833981519152548281035b61321960008683806001019450866134a3565b613236576040516368d2bf6b60e11b815260040160405180910390fd5b81811061320657816000805160206140f983398151915254146106c057600080fd5b606060006118a98361358b565b606061053f826135e7565b60008181527f672ef851d5f92307da037116e23aa9e31af7e1f7e3ca62c4e6d540631df3fd03602052604081206060916004909101906132af826136c4565b90506000816001600160401b038111156132cb576132cb6137bb565b6040519080825280602002602001820160405280156132f4578160200160208202803683370190505b50905060005b8281101561334457600061330e85836136ce565b90508083838151811061332357613323613c53565b6001600160a01b0390921660209283029190910190910152506001016132fa565b50949350505050565b6000805160206140f983398151915254600082900361337f5760405163b562e8dd60e01b815260040160405180910390fd5b6001600160a01b03831660008181527f6569bde4a160c636ea8b8d11acb83a60d7fec0b8f2e09389306cba0e1340df056020908152604080832080546801000000000000000188020190558483527f6569bde4a160c636ea8b8d11acb83a60d7fec0b8f2e09389306cba0e1340df0490915281206001851460e11b4260a01b178317905582840190839083907fddf252ad1be2c89b69c2b068fc378daa952ba7f163c4a11628f55a4df523b3ef8180a4600183015b81811461346c57808360007fddf252ad1be2c89b69c2b068fc378daa952ba7f163c4a11628f55a4df523b3ef600080a4600101613434565b508160000361348d57604051622e076360e81b815260040160405180910390fd5b6000805160206140f98339815191525550505050565b604051630a85bd0160e11b81526000906001600160a01b0385169063150b7a02906134d89033908990889088906004016140aa565b6020604051808303816000875af1925050508015613513575060408051601f3d908101601f19168201909252613510918101906140dd565b60015b613571573d808015613541576040519150601f19603f3d011682016040523d82523d6000602084013e613546565b606091505b508051600003613569576040516368d2bf6b60e11b815260040160405180910390fd5b805181602001fd5b6001600160e01b031916630a85bd0160e11b149050610c79565b6060816000018054806020026020016040519081016040528092919081815260200182805480156135db57602002820191906000526020600020905b8154815260200190600101908083116135c7575b50505050509050919050565b606081600001805480602002602001604051908101604052809291908181526020016000905b828210156136b957838290600052602060002001805461362c906139e3565b80601f0160208091040260200160405190810160405280929190818152602001828054613658906139e3565b80156136a55780601f1061367a576101008083540402835291602001916136a5565b820191906000526020600020905b81548152906001019060200180831161368857829003601f168201915b50505050508152602001906001019061360d565b505050509050919050565b600061053f825490565b60006118a9838360008260000182815481106136ec576136ec613c53565b9060005260206000200154905092915050565b6000806020838503121561371257600080fd5b82356001600160401b038082111561372957600080fd5b818501915085601f83011261373d57600080fd5b81358181111561374c57600080fd5b86602082850101111561375e57600080fd5b60209290920196919550909350505050565b60006020828403121561378257600080fd5b5035919050565b6001600160a01b03811681146108d857600080fd5b6000602082840312156137b057600080fd5b81356118a981613789565b634e487b7160e01b600052604160045260246000fd5b604051606081016001600160401b03811182821017156137f3576137f36137bb565b60405290565b604051601f8201601f191681016001600160401b0381118282101715613821576138216137bb565b604052919050565b60006001600160401b03821115613842576138426137bb565b50601f01601f191660200190565b6000806040838503121561386357600080fd5b823561386e81613789565b91506020838101356001600160401b038082111561388b57600080fd5b908501906060828803121561389f57600080fd5b6138a76137d1565b82356138b281613789565b8152828401356138c181613789565b818501526040830135828111156138d757600080fd5b80840193505087601f8401126138ec57600080fd5b823591506139016138fc83613829565b6137f9565b828152888584860101111561391557600080fd5b8285850186830137600085848301015280604083015250809450505050509250929050565b60005b8381101561395557818101518382015260200161393d565b50506000910152565b6000815180845261397681602086016020860161393a565b601f01601f19169290920160200192915050565b6020815260006118a9602083018461395e565b634e487b7160e01b600052601160045260246000fd5b8181038181111561053f5761053f61399d565b6000602082840312156139d857600080fd5b81516118a981613789565b600181811c908216806139f757607f821691505b602082108103611eab57634e487b7160e01b600052602260045260246000fd5b601f821115611d55576000816000526020600020601f850160051c81016020861015613a405750805b601f850160051c820191505b81811015613a5f57828155600101613a4c565b505050505050565b81516001600160401b03811115613a8057613a806137bb565b613a9481613a8e84546139e3565b84613a17565b602080601f831160018114613ac95760008415613ab15750858301515b600019600386901b1c1916600185901b178555613a5f565b600085815260208120601f198616915b82811015613af857888601518255948401946001909101908401613ad9565b5085821015613b165787850151600019600388901b60f8161c191681555b5050505050600190811b01905550565b600060208284031215613b3857600080fd5b5051919050565b60208152600060018060a01b03808451166020840152806020850151166040840152506040830151606080840152610c79608084018261395e565b600060208284031215613b8c57600080fd5b81516001600160401b03811681146118a957600080fd5b8082018082111561053f5761053f61399d565b6001600160401b03818116838216019080821115613bd657613bd661399d565b5092915050565b80518015158114613bed57600080fd5b919050565b600060208284031215613c0457600080fd5b6118a982613bdd565b6001600160e01b0319851681526001600160a01b03848116602083015283166040820152608060608201819052600090613c499083018461395e565b9695505050505050565b634e487b7160e01b600052603260045260246000fd5b60008251613c7b81846020870161393a565b9190910192915050565b80516020808301519190811015611eab5760001960209190910360031b1b16919050565b60008151808452602080850194506020840160005b83811015613ce35781516001600160a01b031687529582019590820190600101613cbe565b509495945050505050565b838152606060208201526000613d076060830185613ca9565b9050826040830152949350505050565b80516001600160e01b031981168114613bed57600080fd5b6000613d3d6138fc84613829565b9050828152838383011115613d5157600080fd5b6118a983602083018461393a565b60008060008060808587031215613d7557600080fd5b613d7e85613d17565b93506020850151613d8e81613789565b6040860151909350613d9f81613789565b60608601519092506001600160401b03811115613dbb57600080fd5b8501601f81018713613dcc57600080fd5b613ddb87825160208401613d2f565b91505092959194509250565b600060208284031215613df957600080fd5b81516001600160401b0380821115613e1057600080fd5b9083019060608286031215613e2457600080fd5b613e2c6137d1565b8251613e3781613789565b81526020830151613e4781613789565b6020820152604083015182811115613e5e57600080fd5b80840193505085601f840112613e7357600080fd5b613e8286845160208601613d2f565b604082015295945050505050565b600060208284031215613ea257600080fd5b815161ffff811681146118a957600080fd5b600060018201613ec657613ec661399d565b5060010190565b60006020808385031215613ee057600080fd5b82516001600160401b0380821115613ef757600080fd5b818501915085601f830112613f0b57600080fd5b815181811115613f1d57613f1d6137bb565b8060051b9150613f2e8483016137f9565b8181529183018401918481019088841115613f4857600080fd5b938501935b83851015613f725784519250613f6283613789565b8282529385019390850190613f4d565b98975050505050505050565b634e487b7160e01b600052602160045260246000fd5b60018060a01b0385168152836020820152826040820152608060608201526000613c496080830184613ca9565b600060028410613fe157634e487b7160e01b600052602160045260246000fd5b83825260406020830152610c79604083018461395e565b60006080828403121561400a57600080fd5b604051608081018181106001600160401b038211171561402c5761402c6137bb565b604052825161403a81613789565b8152602083015161404a81613789565b60208201526040838101519082015261406560608401613bdd565b60608201529392505050565b808202811582820484141761053f5761053f61399d565b6000826140a557634e487b7160e01b600052601260045260246000fd5b500490565b6001600160a01b0385811682528416602082015260408101839052608060608201819052600090613c499083018461395e565b6000602082840312156140ef57600080fd5b6118a982613d1756fe6569bde4a160c636ea8b8d11acb83a60d7fec0b8f2e09389306cba0e1340df0034516f6fe09a043d57f1ff579a303a7ae85314751c77b4eb1a55837604a86e0034516f6fe09a043d57f1ff579a303a7ae85314751c77b4eb1a55837604a86e01","linkReferences":{}},"methodIdentifiers":{"expiresAt(uint256)":"17c95709","getMembershipCurrency()":"657e45e8","getMembershipDuration()":"8120f0ba","getMembershipFreeAllocation()":"706b8e09","getMembershipImage()":"93b13cb7","getMembershipLimit()":"95d600c8","getMembershipPrice()":"1278076a","getMembershipPricingModule()":"e847abdd","getMembershipRenewalPrice(uint256)":"5803909f","getSpaceFactory()":"79dda585","joinSpace(address)":"8c625b06","joinSpaceWithReferral(address,(address,address,string))":"686f7684","renewMembership(uint256)":"7c9669ac","revenue()":"3e9491a2","setMembershipFreeAllocation(uint256)":"5becd24a","setMembershipImage(string)":"0ef1be5f","setMembershipLimit(uint256)":"97fb7c1e","setMembershipPrice(uint256)":"69d5f38a","setMembershipPricingModule(address)":"df9a9fe6","withdraw(address)":"51cff8d9"},"id":246}