{"abi":[{"type":"function","name":"__ERC721A_init","inputs":[{"name":"name_","type":"string","internalType":"string"},{"name":"symbol_","type":"string","internalType":"string"}],"outputs":[],"stateMutability":"nonpayable"},{"type":"function","name":"__EntitlementGatedV2_init","inputs":[{"name":"entitlementChecker","type":"address","internalType":"contract IEntitlementChecker"}],"outputs":[],"stateMutability":"nonpayable"},{"type":"function","name":"__Membership_init","inputs":[{"name":"info","type":"tuple","internalType":"struct IMembershipBase.Membership","components":[{"name":"name","type":"string","internalType":"string"},{"name":"symbol","type":"string","internalType":"string"},{"name":"price","type":"uint256","internalType":"uint256"},{"name":"maxSupply","type":"uint256","internalType":"uint256"},{"name":"duration","type":"uint64","internalType":"uint64"},{"name":"currency","type":"address","internalType":"address"},{"name":"feeRecipient","type":"address","internalType":"address"},{"name":"freeAllocation","type":"uint256","internalType":"uint256"},{"name":"pricingModule","type":"address","internalType":"address"}]},{"name":"spaceFactory","type":"address","internalType":"address"}],"outputs":[],"stateMutability":"nonpayable"},{"type":"function","name":"approve","inputs":[{"name":"to","type":"address","internalType":"address"},{"name":"tokenId","type":"uint256","internalType":"uint256"}],"outputs":[],"stateMutability":"payable"},{"type":"function","name":"balanceOf","inputs":[{"name":"owner","type":"address","internalType":"address"}],"outputs":[{"name":"","type":"uint256","internalType":"uint256"}],"stateMutability":"view"},{"type":"function","name":"expiresAt","inputs":[{"name":"tokenId","type":"uint256","internalType":"uint256"}],"outputs":[{"name":"","type":"uint256","internalType":"uint256"}],"stateMutability":"view"},{"type":"function","name":"getApproved","inputs":[{"name":"tokenId","type":"uint256","internalType":"uint256"}],"outputs":[{"name":"","type":"address","internalType":"address"}],"stateMutability":"view"},{"type":"function","name":"getMembershipCurrency","inputs":[],"outputs":[{"name":"","type":"address","internalType":"address"}],"stateMutability":"view"},{"type":"function","name":"getMembershipDuration","inputs":[],"outputs":[{"name":"","type":"uint64","internalType":"uint64"}],"stateMutability":"view"},{"type":"function","name":"getMembershipFreeAllocation","inputs":[],"outputs":[{"name":"","type":"uint256","internalType":"uint256"}],"stateMutability":"view"},{"type":"function","name":"getMembershipImage","inputs":[],"outputs":[{"name":"","type":"string","internalType":"string"}],"stateMutability":"view"},{"type":"function","name":"getMembershipLimit","inputs":[],"outputs":[{"name":"","type":"uint256","internalType":"uint256"}],"stateMutability":"view"},{"type":"function","name":"getMembershipPrice","inputs":[],"outputs":[{"name":"","type":"uint256","internalType":"uint256"}],"stateMutability":"view"},{"type":"function","name":"getMembershipPricingModule","inputs":[],"outputs":[{"name":"","type":"address","internalType":"address"}],"stateMutability":"view"},{"type":"function","name":"getMembershipRenewalPrice","inputs":[{"name":"tokenId","type":"uint256","internalType":"uint256"}],"outputs":[{"name":"","type":"uint256","internalType":"uint256"}],"stateMutability":"view"},{"type":"function","name":"getRuleData","inputs":[{"name":"transactionId","type":"bytes32","internalType":"bytes32"},{"name":"roleId","type":"uint256","internalType":"uint256"}],"outputs":[{"name":"","type":"tuple","internalType":"struct IRuleEntitlement.RuleData","components":[{"name":"operations","type":"tuple[]","internalType":"struct IRuleEntitlement.Operation[]","components":[{"name":"opType","type":"uint8","internalType":"enum IRuleEntitlement.CombinedOperationType"},{"name":"index","type":"uint8","internalType":"uint8"}]},{"name":"checkOperations","type":"tuple[]","internalType":"struct IRuleEntitlement.CheckOperation[]","components":[{"name":"opType","type":"uint8","internalType":"enum IRuleEntitlement.CheckOperationType"},{"name":"chainId","type":"uint256","internalType":"uint256"},{"name":"contractAddress","type":"address","internalType":"address"},{"name":"threshold","type":"uint256","internalType":"uint256"}]},{"name":"logicalOperations","type":"tuple[]","internalType":"struct IRuleEntitlement.LogicalOperation[]","components":[{"name":"logOpType","type":"uint8","internalType":"enum IRuleEntitlement.LogicalOperationType"},{"name":"leftOperationIndex","type":"uint8","internalType":"uint8"},{"name":"rightOperationIndex","type":"uint8","internalType":"uint8"}]}]}],"stateMutability":"view"},{"type":"function","name":"getRuleDataV2","inputs":[{"name":"transactionId","type":"bytes32","internalType":"bytes32"},{"name":"roleId","type":"uint256","internalType":"uint256"}],"outputs":[{"name":"","type":"tuple","internalType":"struct IRuleEntitlementV2.RuleData","components":[{"name":"operations","type":"tuple[]","internalType":"struct IRuleEntitlementV2.Operation[]","components":[{"name":"opType","type":"uint8","internalType":"enum IRuleEntitlementV2.CombinedOperationType"},{"name":"index","type":"uint8","internalType":"uint8"}]},{"name":"checkOperations","type":"tuple[]","internalType":"struct IRuleEntitlementV2.CheckOperation[]","components":[{"name":"opType","type":"uint8","internalType":"enum IRuleEntitlementV2.CheckOperationType"},{"name":"chainId","type":"uint256","internalType":"uint256"},{"name":"contractAddress","type":"address","internalType":"address"},{"name":"params","type":"bytes","internalType":"bytes"}]},{"name":"logicalOperations","type":"tuple[]","internalType":"struct IRuleEntitlementV2.LogicalOperation[]","components":[{"name":"logOpType","type":"uint8","internalType":"enum IRuleEntitlementV2.LogicalOperationType"},{"name":"leftOperationIndex","type":"uint8","internalType":"uint8"},{"name":"rightOperationIndex","type":"uint8","internalType":"uint8"}]}]}],"stateMutability":"view"},{"type":"function","name":"getSpaceFactory","inputs":[],"outputs":[{"name":"","type":"address","internalType":"address"}],"stateMutability":"view"},{"type":"function","name":"isApprovedForAll","inputs":[{"name":"owner","type":"address","internalType":"address"},{"name":"operator","type":"address","internalType":"address"}],"outputs":[{"name":"","type":"bool","internalType":"bool"}],"stateMutability":"view"},{"type":"function","name":"joinSpace","inputs":[{"name":"receiver","type":"address","internalType":"address"}],"outputs":[],"stateMutability":"payable"},{"type":"function","name":"name","inputs":[],"outputs":[{"name":"","type":"string","internalType":"string"}],"stateMutability":"view"},{"type":"function","name":"ownerOf","inputs":[{"name":"tokenId","type":"uint256","internalType":"uint256"}],"outputs":[{"name":"","type":"address","internalType":"address"}],"stateMutability":"view"},{"type":"function","name":"postEntitlementCheckResult","inputs":[{"name":"transactionId","type":"bytes32","internalType":"bytes32"},{"name":"roleId","type":"uint256","internalType":"uint256"},{"name":"result","type":"uint8","internalType":"enum IEntitlementGatedBaseV2.NodeVoteStatus"}],"outputs":[],"stateMutability":"nonpayable"},{"type":"function","name":"renewMembership","inputs":[{"name":"tokenId","type":"uint256","internalType":"uint256"}],"outputs":[],"stateMutability":"payable"},{"type":"function","name":"safeTransferFrom","inputs":[{"name":"from","type":"address","internalType":"address"},{"name":"to","type":"address","internalType":"address"},{"name":"tokenId","type":"uint256","internalType":"uint256"}],"outputs":[],"stateMutability":"payable"},{"type":"function","name":"safeTransferFrom","inputs":[{"name":"from","type":"address","internalType":"address"},{"name":"to","type":"address","internalType":"address"},{"name":"tokenId","type":"uint256","internalType":"uint256"},{"name":"_data","type":"bytes","internalType":"bytes"}],"outputs":[],"stateMutability":"payable"},{"type":"function","name":"setApprovalForAll","inputs":[{"name":"operator","type":"address","internalType":"address"},{"name":"approved","type":"bool","internalType":"bool"}],"outputs":[],"stateMutability":"nonpayable"},{"type":"function","name":"setMembershipFreeAllocation","inputs":[{"name":"newAllocation","type":"uint256","internalType":"uint256"}],"outputs":[],"stateMutability":"nonpayable"},{"type":"function","name":"setMembershipImage","inputs":[{"name":"newImage","type":"string","internalType":"string"}],"outputs":[],"stateMutability":"nonpayable"},{"type":"function","name":"setMembershipLimit","inputs":[{"name":"newLimit","type":"uint256","internalType":"uint256"}],"outputs":[],"stateMutability":"nonpayable"},{"type":"function","name":"setMembershipPrice","inputs":[{"name":"newPrice","type":"uint256","internalType":"uint256"}],"outputs":[],"stateMutability":"nonpayable"},{"type":"function","name":"setMembershipPricingModule","inputs":[{"name":"pricingModule","type":"address","internalType":"address"}],"outputs":[],"stateMutability":"nonpayable"},{"type":"function","name":"symbol","inputs":[],"outputs":[{"name":"","type":"string","internalType":"string"}],"stateMutability":"view"},{"type":"function","name":"tokenURI","inputs":[{"name":"tokenId","type":"uint256","internalType":"uint256"}],"outputs":[{"name":"","type":"string","internalType":"string"}],"stateMutability":"view"},{"type":"function","name":"totalSupply","inputs":[],"outputs":[{"name":"","type":"uint256","internalType":"uint256"}],"stateMutability":"view"},{"type":"function","name":"transferFrom","inputs":[{"name":"from","type":"address","internalType":"address"},{"name":"to","type":"address","internalType":"address"},{"name":"tokenId","type":"uint256","internalType":"uint256"}],"outputs":[],"stateMutability":"payable"},{"type":"function","name":"withdraw","inputs":[{"name":"account","type":"address","internalType":"address"}],"outputs":[],"stateMutability":"nonpayable"},{"type":"event","name":"Approval","inputs":[{"name":"owner","type":"address","indexed":true,"internalType":"address"},{"name":"approved","type":"address","indexed":true,"internalType":"address"},{"name":"tokenId","type":"uint256","indexed":true,"internalType":"uint256"}],"anonymous":false},{"type":"event","name":"ApprovalForAll","inputs":[{"name":"owner","type":"address","indexed":true,"internalType":"address"},{"name":"operator","type":"address","indexed":true,"internalType":"address"},{"name":"approved","type":"bool","indexed":false,"internalType":"bool"}],"anonymous":false},{"type":"event","name":"Banned","inputs":[{"name":"moderator","type":"address","indexed":true,"internalType":"address"},{"name":"tokenId","type":"uint256","indexed":true,"internalType":"uint256"}],"anonymous":false},{"type":"event","name":"ConsecutiveTransfer","inputs":[{"name":"fromTokenId","type":"uint256","indexed":true,"internalType":"uint256"},{"name":"toTokenId","type":"uint256","indexed":false,"internalType":"uint256"},{"name":"from","type":"address","indexed":true,"internalType":"address"},{"name":"to","type":"address","indexed":true,"internalType":"address"}],"anonymous":false},{"type":"event","name":"EntitlementCheckResultPosted","inputs":[{"name":"transactionId","type":"bytes32","indexed":true,"internalType":"bytes32"},{"name":"result","type":"uint8","indexed":false,"internalType":"enum IEntitlementGatedBaseV2.NodeVoteStatus"}],"anonymous":false},{"type":"event","name":"Initialized","inputs":[{"name":"version","type":"uint32","indexed":false,"internalType":"uint32"}],"anonymous":false},{"type":"event","name":"InterfaceAdded","inputs":[{"name":"interfaceId","type":"bytes4","indexed":true,"internalType":"bytes4"}],"anonymous":false},{"type":"event","name":"InterfaceRemoved","inputs":[{"name":"interfaceId","type":"bytes4","indexed":true,"internalType":"bytes4"}],"anonymous":false},{"type":"event","name":"MembershipCurrencyUpdated","inputs":[{"name":"currency","type":"address","indexed":true,"internalType":"address"}],"anonymous":false},{"type":"event","name":"MembershipFeeRecipientUpdated","inputs":[{"name":"recipient","type":"address","indexed":true,"internalType":"address"}],"anonymous":false},{"type":"event","name":"MembershipFreeAllocationUpdated","inputs":[{"name":"allocation","type":"uint256","indexed":true,"internalType":"uint256"}],"anonymous":false},{"type":"event","name":"MembershipLimitUpdated","inputs":[{"name":"limit","type":"uint256","indexed":true,"internalType":"uint256"}],"anonymous":false},{"type":"event","name":"MembershipPriceUpdated","inputs":[{"name":"price","type":"uint256","indexed":true,"internalType":"uint256"}],"anonymous":false},{"type":"event","name":"MembershipTokenIssued","inputs":[{"name":"recipient","type":"address","indexed":true,"internalType":"address"},{"name":"tokenId","type":"uint256","indexed":true,"internalType":"uint256"}],"anonymous":false},{"type":"event","name":"MembershipTokenRejected","inputs":[{"name":"recipient","type":"address","indexed":true,"internalType":"address"}],"anonymous":false},{"type":"event","name":"MembershipWithdrawal","inputs":[{"name":"recipient","type":"address","indexed":true,"internalType":"address"},{"name":"amount","type":"uint256","indexed":false,"internalType":"uint256"}],"anonymous":false},{"type":"event","name":"OwnershipTransferred","inputs":[{"name":"previousOwner","type":"address","indexed":true,"internalType":"address"},{"name":"newOwner","type":"address","indexed":true,"internalType":"address"}],"anonymous":false},{"type":"event","name":"Paused","inputs":[{"name":"account","type":"address","indexed":false,"internalType":"address"}],"anonymous":false},{"type":"event","name":"Prepay__Prepaid","inputs":[{"name":"supply","type":"uint256","indexed":false,"internalType":"uint256"}],"anonymous":false},{"type":"event","name":"RoleCreated","inputs":[{"name":"creator","type":"address","indexed":true,"internalType":"address"},{"name":"roleId","type":"uint256","indexed":true,"internalType":"uint256"}],"anonymous":false},{"type":"event","name":"RoleRemoved","inputs":[{"name":"remover","type":"address","indexed":true,"internalType":"address"},{"name":"roleId","type":"uint256","indexed":true,"internalType":"uint256"}],"anonymous":false},{"type":"event","name":"RoleUpdated","inputs":[{"name":"updater","type":"address","indexed":true,"internalType":"address"},{"name":"roleId","type":"uint256","indexed":true,"internalType":"uint256"}],"anonymous":false},{"type":"event","name":"SubscriptionUpdate","inputs":[{"name":"tokenId","type":"uint256","indexed":true,"internalType":"uint256"},{"name":"expiration","type":"uint64","indexed":false,"internalType":"uint64"}],"anonymous":false},{"type":"event","name":"Transfer","inputs":[{"name":"from","type":"address","indexed":true,"internalType":"address"},{"name":"to","type":"address","indexed":true,"internalType":"address"},{"name":"tokenId","type":"uint256","indexed":true,"internalType":"uint256"}],"anonymous":false},{"type":"event","name":"Unbanned","inputs":[{"name":"moderator","type":"address","indexed":true,"internalType":"address"},{"name":"tokenId","type":"uint256","indexed":true,"internalType":"uint256"}],"anonymous":false},{"type":"event","name":"Unpaused","inputs":[{"name":"account","type":"address","indexed":false,"internalType":"address"}],"anonymous":false},{"type":"error","name":"AddressEmptyCode","inputs":[{"name":"target","type":"address","internalType":"address"}]},{"type":"error","name":"AddressInsufficientBalance","inputs":[{"name":"account","type":"address","internalType":"address"}]},{"type":"error","name":"ApprovalCallerNotOwnerNorApproved","inputs":[]},{"type":"error","name":"ApprovalQueryForNonexistentToken","inputs":[]},{"type":"error","name":"BalanceQueryForZeroAddress","inputs":[]},{"type":"error","name":"Banning__AlreadyBanned","inputs":[{"name":"tokenId","type":"uint256","internalType":"uint256"}]},{"type":"error","name":"Banning__CannotBanOwner","inputs":[]},{"type":"error","name":"Banning__CannotBanSelf","inputs":[]},{"type":"error","name":"Banning__InvalidTokenId","inputs":[{"name":"tokenId","type":"uint256","internalType":"uint256"}]},{"type":"error","name":"Banning__NotBanned","inputs":[{"name":"tokenId","type":"uint256","internalType":"uint256"}]},{"type":"error","name":"Dispatcher__InvalidCaller","inputs":[]},{"type":"error","name":"Dispatcher__InvalidValue","inputs":[]},{"type":"error","name":"ERC5643__DurationZero","inputs":[]},{"type":"error","name":"ERC5643__InvalidTokenId","inputs":[{"name":"tokenId","type":"uint256","internalType":"uint256"}]},{"type":"error","name":"ERC5643__NotApprovedOrOwner","inputs":[]},{"type":"error","name":"ERC5643__SubscriptionNotRenewable","inputs":[{"name":"tokenId","type":"uint256","internalType":"uint256"}]},{"type":"error","name":"EntitlementGated_InvalidAddress","inputs":[]},{"type":"error","name":"EntitlementGated_NodeAlreadyVoted","inputs":[]},{"type":"error","name":"EntitlementGated_NodeNotFound","inputs":[]},{"type":"error","name":"EntitlementGated_TransactionCheckAlreadyCompleted","inputs":[]},{"type":"error","name":"EntitlementGated_TransactionCheckAlreadyRegistered","inputs":[]},{"type":"error","name":"EntitlementGated_TransactionNotRegistered","inputs":[]},{"type":"error","name":"Entitlement__InvalidValue","inputs":[]},{"type":"error","name":"Entitlement__NotAllowed","inputs":[]},{"type":"error","name":"Entitlement__NotMember","inputs":[]},{"type":"error","name":"Entitlement__ValueAlreadyExists","inputs":[]},{"type":"error","name":"FailedInnerCall","inputs":[]},{"type":"error","name":"IncompatibleRuleData","inputs":[]},{"type":"error","name":"Initializable_InInitializingState","inputs":[]},{"type":"error","name":"Initializable_NotInInitializingState","inputs":[]},{"type":"error","name":"Introspection_AlreadySupported","inputs":[]},{"type":"error","name":"Introspection_NotSupported","inputs":[]},{"type":"error","name":"InvalidRuleData","inputs":[]},{"type":"error","name":"Membership__AlreadyMember","inputs":[]},{"type":"error","name":"Membership__InsufficientAllowance","inputs":[]},{"type":"error","name":"Membership__InsufficientPayment","inputs":[]},{"type":"error","name":"Membership__InvalidAddress","inputs":[]},{"type":"error","name":"Membership__InvalidCurrency","inputs":[]},{"type":"error","name":"Membership__InvalidDuration","inputs":[]},{"type":"error","name":"Membership__InvalidFeeRecipient","inputs":[]},{"type":"error","name":"Membership__InvalidFreeAllocation","inputs":[]},{"type":"error","name":"Membership__InvalidLimit","inputs":[]},{"type":"error","name":"Membership__InvalidMaxSupply","inputs":[]},{"type":"error","name":"Membership__InvalidPayment","inputs":[]},{"type":"error","name":"Membership__InvalidPrice","inputs":[]},{"type":"error","name":"Membership__InvalidPricingModule","inputs":[]},{"type":"error","name":"Membership__InvalidTokenId","inputs":[]},{"type":"error","name":"Membership__MaxSupplyReached","inputs":[]},{"type":"error","name":"Membership__NotExpired","inputs":[]},{"type":"error","name":"Membership__PriceTooLow","inputs":[]},{"type":"error","name":"MintERC2309QuantityExceedsLimit","inputs":[]},{"type":"error","name":"MintToZeroAddress","inputs":[]},{"type":"error","name":"MintZeroQuantity","inputs":[]},{"type":"error","name":"Ownable__NotOwner","inputs":[{"name":"account","type":"address","internalType":"address"}]},{"type":"error","name":"Ownable__ZeroAddress","inputs":[]},{"type":"error","name":"OwnerQueryForNonexistentToken","inputs":[]},{"type":"error","name":"OwnershipNotInitializedForExtraData","inputs":[]},{"type":"error","name":"Pausable__NotPaused","inputs":[]},{"type":"error","name":"Pausable__Paused","inputs":[]},{"type":"error","name":"Prepay__InvalidAddress","inputs":[]},{"type":"error","name":"Prepay__InvalidAmount","inputs":[]},{"type":"error","name":"Prepay__InvalidMembership","inputs":[]},{"type":"error","name":"Prepay__InvalidSupplyAmount","inputs":[]},{"type":"error","name":"ReentrancyGuard__ReentrantCall","inputs":[]},{"type":"error","name":"Roles__EntitlementAlreadyExists","inputs":[]},{"type":"error","name":"Roles__EntitlementDoesNotExist","inputs":[]},{"type":"error","name":"Roles__InvalidEntitlementAddress","inputs":[]},{"type":"error","name":"Roles__InvalidPermission","inputs":[]},{"type":"error","name":"Roles__PermissionAlreadyExists","inputs":[]},{"type":"error","name":"Roles__PermissionDoesNotExist","inputs":[]},{"type":"error","name":"Roles__RoleDoesNotExist","inputs":[]},{"type":"error","name":"SafeERC20FailedOperation","inputs":[{"name":"token","type":"address","internalType":"address"}]},{"type":"error","name":"TransferCallerNotOwnerNorApproved","inputs":[]},{"type":"error","name":"TransferFromIncorrectOwner","inputs":[]},{"type":"error","name":"TransferToNonERC721ReceiverImplementer","inputs":[]},{"type":"error","name":"TransferToZeroAddress","inputs":[]},{"type":"error","name":"URIQueryForNonexistentToken","inputs":[]}],"bytecode":{"object":"0x60806040523480156200001157600080fd5b506200001c62000022565b620000ca565b7f59b501c3653afc186af7d48dda36cf6732bd21629a6295693664240a6ef520008054640100000000900460ff16156200006f576040516366008a2d60e01b815260040160405180910390fd5b805463ffffffff9081161015620000c757805463ffffffff191663ffffffff90811782556040519081527fe9c9b456cb2994b80aeef036cf59d26e9617df80f816a6ee5a5b4166e07e2f5c9060200160405180910390a15b50565b615a9f80620000da6000396000f3fe60806040526004361061021a5760003560e01c80636fe674111161012357806395d600c8116100ab578063c87b56dd1161006f578063c87b56dd14610608578063d2f01f1914610628578063df9a9fe614610648578063e847abdd14610668578063e985e9c51461067d57600080fd5b806395d600c81461058b57806395d89b41146105a057806397fb7c1e146105b5578063a22cb465146105d5578063b88d4fde146105f557600080fd5b80637c9669ac116100f25780637c9669ac146104f65780638120f0ba146105095780638c625b061461053657806392c399ff1461054957806393b13cb71461057657600080fd5b80636fe674111461047f578063706b8e09146104ac57806370a08231146104c157806379dda585146104e157600080fd5b806342842e0e116101a65780635803909f116101755780635803909f146103ea5780635becd24a1461040a5780636352211e1461042a578063657e45e81461044a57806369d5f38a1461045f57600080fd5b806342842e0e146103775780634739e8051461038a5780634c2abfbe146103aa57806351cff8d9146103ca57600080fd5b80631278076a116101ed5780631278076a146102b757806317c95709146102da57806318160ddd1461032f57806323b872dd14610344578063375e3bbc1461035757600080fd5b806306fdde031461021f578063081812fc1461024a578063095ea7b3146102825780630ef1be5f14610297575b600080fd5b34801561022b57600080fd5b506102346106ad565b604051610241919061494e565b60405180910390f35b34801561025657600080fd5b5061026a610265366004614961565b610748565b6040516001600160a01b039091168152602001610241565b61029561029036600461499a565b610759565b005b3480156102a357600080fd5b506102956102b23660046149c6565b610769565b3480156102c357600080fd5b506102cc6107e8565b604051908152602001610241565b3480156102e657600080fd5b506102cc6102f5366004614961565b60009081527f4775a23600034fdd9f073b224f794d51a58b35ba663a9602623ba7a5c09cce0060205260409020546001600160401b031690565b34801561033b57600080fd5b506102cc6107ff565b610295610352366004614a37565b610809565b34801561036357600080fd5b50610295610372366004614a78565b610a00565b610295610385366004614a37565b610a56565b34801561039657600080fd5b506102956103a5366004614aa2565b610a76565b3480156103b657600080fd5b506102956103c5366004614c55565b610adf565b3480156103d657600080fd5b506102956103e5366004614a78565b610b55565b3480156103f657600080fd5b506102cc610405366004614961565b610bf7565b34801561041657600080fd5b50610295610425366004614961565b610c0a565b34801561043657600080fd5b5061026a610445366004614961565b610c8f565b34801561045657600080fd5b5061026a610c9a565b34801561046b57600080fd5b5061029561047a366004614961565b610ca4565b34801561048b57600080fd5b5061049f61049a366004614d5e565b610d52565b6040516102419190614eaa565b3480156104b857600080fd5b506102cc610d87565b3480156104cd57600080fd5b506102cc6104dc366004614a78565b610d91565b3480156104ed57600080fd5b5061026a610d9c565b610295610504366004614961565b610da6565b34801561051557600080fd5b5061051e610f03565b6040516001600160401b039091168152602001610241565b610295610544366004614a78565b610f0d565b34801561055557600080fd5b50610569610564366004614d5e565b61131c565b6040516102419190614fa6565b34801561058257600080fd5b5061023461135f565b34801561059757600080fd5b506102cc611369565b3480156105ac57600080fd5b50610234611373565b3480156105c157600080fd5b506102956105d0366004614961565b61138b565b3480156105e157600080fd5b506102956105f0366004615030565b6113e0565b610295610603366004615069565b61145d565b34801561061457600080fd5b50610234610623366004614961565b6114a7565b34801561063457600080fd5b506102956106433660046150e8565b611537565b34801561065457600080fd5b50610295610663366004614a78565b61158b565b34801561067457600080fd5b5061026a6115d8565b34801561068957600080fd5b5061069d61069836600461514b565b6115e2565b6040519015158152602001610241565b60606106b76115ee565b60020180546106c590615179565b80601f01602080910402602001604051908101604052809291908181526020018280546106f190615179565b801561073e5780601f106107135761010080835404028352916020019161073e565b820191906000526020600020905b81548152906001019060200180831161072157829003601f168201915b5050505050905090565b600061075382611612565b92915050565b6107658282600161165f565b5050565b610771611714565b6001600160a01b0316336001600160a01b0316146107a9576040516365f4906560e01b81523360048201526024015b60405180910390fd5b61076582828080601f0160208091040260200160405190810160405280939291908181526020018383808284376000920191909152506117de92505050565b60006107fa6107f56117f5565b611814565b905090565b60006107fa6117f5565b60006108148261190c565b9050836001600160a01b0316816001600160a01b0316146108475760405162a1148160e81b815260040160405180910390fd5b600080610853846119a7565b9150915061087881876108633390565b6001600160a01b039081169116811491141790565b6108a35761088686336115e2565b6108a357604051632ce44b5f60e11b815260040160405180910390fd5b6001600160a01b0385166108ca57604051633a954ecd60e21b815260040160405180910390fd5b80156108d557600082555b6108dd6115ee565b6001600160a01b03871660009081526005919091016020526040902080546000190190556109096115ee565b6001600160a01b03861660008181526005929092016020526040909120805460010190554260a01b17600160e11b176109406115ee565b60008681526004919091016020526040812091909155600160e11b841690036109b6576001840161096f6115ee565b6000828152600491909101602052604081205490036109b4576109906115ee565b5481146109b457836109a06115ee565b600083815260049190910160205260409020555b505b83856001600160a01b0316876001600160a01b03167fddf252ad1be2c89b69c2b068fc378daa952ba7f163c4a11628f55a4df523b3ef60405160405180910390a45b505050505050565b7f59b501c3653afc186af7d48dda36cf6732bd21629a6295693664240a6ef5200054640100000000900460ff16610a4a57604051630ef4733760e31b815260040160405180910390fd5b610a53816119cf565b50565b610a718383836040518060200160405280600081525061145d565b505050565b60026000805160206159df8339815191525403610aa657604051635db5c7cd60e11b815260040160405180910390fd5b610abd60026000805160206159df83398151915255565b610ac8838383611a0a565b610a7160016000805160206159df83398151915255565b7f59b501c3653afc186af7d48dda36cf6732bd21629a6295693664240a6ef5200054640100000000900460ff16610b2957604051630ef4733760e31b815260040160405180910390fd5b610b396322fa1fe560e21b611cad565b610b438282611d8b565b61076582600001518360200151611eae565b610b5d611714565b6001600160a01b0316336001600160a01b031614610b90576040516365f4906560e01b81523360048201526024016107a0565b6001600160a01b038116610bb757604051635fbd571760e01b815260040160405180910390fd5b6000610bc1611ed8565b905080600003610be457604051635894b54560e11b815260040160405180910390fd5b610765610bef611eeb565b308484611f07565b600061075382610c056117f5565b611f4d565b610c12611714565b6001600160a01b0316336001600160a01b031614610c45576040516365f4906560e01b81523360048201526024016107a0565b6000610c4f611f93565b90508015801590610c5f57508082115b15610c7d5760405163c3983b9160e01b815260040160405180910390fd5b610c8682611fa6565b6107658261204b565b60006107538261190c565b60006107fa611eeb565b610cac611714565b6001600160a01b0316336001600160a01b031614610cdf576040516365f4906560e01b81523360048201526024016107a0565b610ce88161208e565b610cf061211c565b6001600160a01b03166391b7f5ed826040518263ffffffff1660e01b8152600401610d1d91815260200190565b600060405180830381600087803b158015610d3757600080fd5b505af1158015610d4b573d6000803e3d6000fd5b5050505050565b610d7660405180606001604052806060815260200160608152602001606081525090565b610d808383612138565b9392505050565b60006107fa612232565b6000610753826122d1565b60006107fa612339565b60026000805160206159df8339815191525403610dd657604051635db5c7cd60e11b815260040160405180910390fd5b610ded60026000805160206159df83398151915255565b6000610df882610c8f565b90506001600160a01b038116610e2157604051635fbd571760e01b815260040160405180910390fd5b60008281527f4775a23600034fdd9f073b224f794d51a58b35ba663a9602623ba7a5c09cce0060205260409020546001600160401b0316610e60612355565b6001600160401b0316610e7342836151c3565b10610e915760405163dce9a1d360e01b815260040160405180910390fd5b6000610e9f84610c056117f5565b90508015610ed8576000610eb384836123db565b90506000610ec182846151c3565b90508015610ed557610ed385826124f3565b505b50505b610ee984610ee4612355565b612691565b505050610a5360016000805160206159df83398151915255565b60006107fa612355565b60026000805160206159df8339815191525403610f3d57604051635db5c7cd60e11b815260040160405180910390fd5b610f5460026000805160206159df83398151915255565b610f5d8161275a565b60405133606081901b6bffffffffffffffffffffffff1916602083015243603483015290600090605401604051602081830303815290604052805190602001209050600061101f82610ff38486610fb3876127c3565b604080516020808201959095526001600160a01b039390931683820152606080840192909252805180840390920182526080909201909152805191012090565b604080516020808201949094528082019290925280518083038201815260609092019052805191012090565b905061106181848660405160200161104d9291906001600160a01b0392831681529116602082015260400190565b6040516020818303038152906040526127f8565b341561107157611071813461283f565b600061109d604051806040016040528060098152602001684a6f696e537061636560b81b8152506128c5565b905060008060006110ad33612b0f565b845190915060005b8181101561128d5760008682815181106110d1576110d16151d6565b6020026020010151905080604001516112845760005b8160800151518110156112825760008260800151828151811061110c5761110c6151d6565b60200260200101519050806001600160a01b0316632e1b61e46040518163ffffffff1660e01b8152600401602060405180830381865afa158015611154573d6000803e3d6000fd5b505050506040513d601f19601f8201168201806040525081019061117891906151ec565b61126157806001600160a01b0316630cf0b5336000801b88604051806040016040528060098152602001684a6f696e537061636560b81b8152506040516020016111c29190615209565b6040516020818303038152906040526111da90615225565b6040518463ffffffff1660e01b81526004016111f893929190615283565b602060405180830381865afa158015611215573d6000803e3d6000fd5b505050506040513d601f19601f8201168201806040525081019061123991906151ec565b15611258576112478a612d77565b505050505050505050505050611305565b60019650611279565b6112708a828560000151612f29565b60009650600197505b506001016110e7565b505b506001016110b5565b50831580156112995750825b156112fc576112b786604051806020016040528060008152506127f8565b34156112c7576112c786896131d8565b6040516001600160a01b038a16907f86fd446d5c04e892d58b448a924dcd9c3ece3a5e0d2960b8c35cd475a5595a1f90600090a25b50505050505050505b610a5360016000805160206159df83398151915255565b61134060405180606001604052806060815260200160608152602001606081525090565b600061134c8484612138565b90506113578161320f565b949350505050565b60606107fa6136f1565b60006107fa611f93565b606061137d6115ee565b60030180546106c590615179565b611393611714565b6001600160a01b0316336001600160a01b0316146113c6576040516365f4906560e01b81523360048201526024016107a0565b6113d7816113d26117f5565b613709565b610a538161372a565b806113e96115ee565b336000818152600792909201602090815260408084206001600160a01b03881680865290835293819020805460ff19169515159590951790945592518415158152919290917f17307eab39ab6107e8899845ad3d59bd9653f200f220920489ca2b5937696c31910160405180910390a35050565b611468848484610809565b6001600160a01b0383163b156114a1576114848484848461373a565b6114a1576040516368d2bf6b60e11b815260040160405180910390fd5b50505050565b60606114b282613825565b6114cf57604051630a14c4b560e41b815260040160405180910390fd5b60006114e660408051602081019091526000815290565b905080516000036115065760405180602001604052806000815250610d80565b8061151084613861565b6040516020016115219291906152ac565b6040516020818303038152906040529392505050565b7f59b501c3653afc186af7d48dda36cf6732bd21629a6295693664240a6ef5200054640100000000900460ff1661158157604051630ef4733760e31b815260040160405180910390fd5b6107658282611eae565b611593611714565b6001600160a01b0316336001600160a01b0316146115c6576040516365f4906560e01b81523360048201526024016107a0565b6115cf816138a5565b610a538161395d565b60006107fa61211c565b6000610d80838361398a565b7f6569bde4a160c636ea8b8d11acb83a60d7fec0b8f2e09389306cba0e1340df0090565b600061161d82613825565b61163a576040516333d1c03960e21b815260040160405180910390fd5b6116426115ee565b60009283526006016020525060409020546001600160a01b031690565b600061166a83610c8f565b905081156116a957336001600160a01b038216146116a95761168c813361398a565b6116a9576040516367d9dca160e11b815260040160405180910390fd5b836116b26115ee565b6000858152600691909101602052604080822080546001600160a01b0319166001600160a01b0394851617905551859287811692908516917f8c5be1e5ebec7d5bd14f71427d1e84f3dd0314c0f7b2291e5b200ac8c7c3b9259190a450505050565b6040805180820182527fd2f24d4f172e4e84e48e7c4125b6e904c29e5eba33ad4938fee51dd5dbd4b600546001600160a01b03168082527fd2f24d4f172e4e84e48e7c4125b6e904c29e5eba33ad4938fee51dd5dbd4b60154602080840182905284516331a9108f60e11b815260048101929092529351600094636352211e92602480820193918290030181865afa1580156117b4573d6000803e3d6000fd5b505050506040513d601f19601f820116820180604052508101906117d891906152db565b91505090565b806117e76139c7565b600c01906107659082615340565b6000806118006115ee565b6001015461180c6115ee565b540303919050565b60008061181f6139c7565b9050600061182b612232565b60088301549091506001600160a01b0316156118b7576008820154604051635cf4ee9160e01b815260048101839052602481018690526001600160a01b0390911690635cf4ee9190604401602060405180830381865afa158015611893573d6000803e3d6000fd5b505050506040513d601f19601f8201168201806040525081019061135791906153ff565b8160060160009054906101000a90046001600160a01b03166001600160a01b0316631b159e2e6040518163ffffffff1660e01b8152600401602060405180830381865afa158015611893573d6000803e3d6000fd5b6000806119176115ee565b60008481526004820160205260408120549350909150600160e01b8316900361198d5781600003611987578054831061196357604051636f96cda160e11b815260040160405180910390fd5b5b600019909201600081815260048401602052604090205490929091508115611964575b50919050565b50604051636f96cda160e11b815260040160405180910390fd5b60008060006119b46115ee565b60009485526006016020525050604090912080549092909150565b6119df63ba1c05eb60e01b611cad565b600080516020615a3f83398151915280546001600160a01b0319166001600160a01b03831617905550565b6000838152600080516020615a1f833981519152602052604090208054600080516020615a3f833981519152919061010090046001600160a01b03161580611a545750805460ff16155b15611a7257604051637ad5a43960e11b815260040160405180910390fd5b600084815260028201602052604090205460ff1615611aa457604051637912b73960e01b815260040160405180910390fd5b600084815260018201602052604081205481908190815b81811015611be25760008981526001870160205260408120805483908110611ae557611ae56151d6565b60009182526020909120018054909150336001600160a01b0390911603611b715760008154600160a01b900460ff166002811115611b2557611b25614d80565b14611b43576040516347592a4d60e01b815260040160405180910390fd5b80548990829060ff60a01b1916600160a01b836002811115611b6757611b67614d80565b0217905550600195505b60018154600160a01b900460ff166002811115611b9057611b90614d80565b03611ba75784611b9f81615418565b955050611bd9565b60028154600160a01b900460ff166002811115611bc657611bc6614d80565b03611bd95783611bd581615418565b9450505b50600101611abb565b5083611c0157604051638223a7e960e01b815260040160405180910390fd5b611c0c600282615431565b831180611c225750611c1f600282615431565b82115b15611ca25760008881526002860160205260408120805460ff19166001179055828411611c50576002611c53565b60015b9050611c5f8a826139eb565b897fb9d6ce397e562841871d119aaf77469c60a3b5bf8b99a5d9851656015015c63382604051611c8f9190615453565b60405180910390a2611ca08a613a8d565b505b505050505050505050565b6001600160e01b0319811660009081527f81088bbc801e045ea3e7620779ab349988f58afbdfba10dff983df3f33522b00602052604090205460ff161515600114611d3a576001600160e01b0319811660009081527f81088bbc801e045ea3e7620779ab349988f58afbdfba10dff983df3f33522b0060205260409020805460ff19166001179055611d53565b604051637967f77d60e11b815260040160405180910390fd5b6040516001600160e01b03198216907f78f84e5b1c5c05be2b5ad3800781dd404d6d6c6302bc755c0fe20f58a33a7f2290600090a250565b6000611d956139c7565b6006810180546001600160a01b038086166001600160a01b031992831617909255610100860151600884018054919093169082161790915560048201805490911673eeeeeeeeeeeeeeeeeeeeeeeeeeeeeeeeeeeeeeee1790556060840151600382015560e08401516007820181905590915015611e1957611e198360e00151611fa6565b611e278361010001516138a5565b604083015115610a7157611e3e836040015161208e565b600881015460408085015190516391b7f5ed60e01b81526001600160a01b03909216916391b7f5ed91611e779160040190815260200190565b600060405180830381600087803b158015611e9157600080fd5b505af1158015611ea5573d6000803e3d6000fd5b50505050505050565b611ebe6380ac58cd60e01b611cad565b611ece635b5e139f60e01b611cad565b6107658282613b5a565b6000611ee26139c7565b600a0154905090565b6000611ef56139c7565b600401546001600160a01b0316919050565b80156114a15773eeeeeeeeeeeeeeeeeeeeeeeeeeeeeeeeeeeeeeed196001600160a01b03851601611f4157611f3c8282613b8c565b6114a1565b6114a184848484613c2f565b600080611f586139c7565b600085815260098201602052604090205490915015611f8a576000848152600990910160205260409020549050610753565b61135783611814565b6000611f9d6139c7565b60030154905090565b6000611fb06139c7565b90508060060160009054906101000a90046001600160a01b03166001600160a01b0316632cbb9d136040518163ffffffff1660e01b8152600401602060405180830381865afa158015612007573d6000803e3d6000fd5b505050506040513d601f19601f8201168201806040525081019061202b91906153ff565b8211156107655760405163c3983b9160e01b815260040160405180910390fd5b60006120556139c7565b6007810183905560405190915082907fab14a23e88fb272313490d4f20d63098e64fd38304c0e07a377db98c2b39b92f90600090a25050565b6000612098612339565b6001600160a01b0316631b159e2e6040518163ffffffff1660e01b8152600401602060405180830381865afa1580156120d5573d6000803e3d6000fd5b505050506040513d601f19601f820116820180604052508101906120f991906153ff565b90508082101561076557604051631a23d64760e11b815260040160405180910390fd5b60006121266139c7565b600801546001600160a01b0316919050565b61215c60405180606001604052806060815260200160608152602001606081525090565b6000838152600080516020615a1f833981519152602052604081208054600080516020615a3f8339815191529260ff909116151590036121af57604051637ad5a43960e11b815260040160405180910390fd5b6003810154604051633455beeb60e11b8152600481018690526001600160a01b039091169060009082906368ab7dd690602401600060405180830381865afa1580156121ff573d6000803e3d6000fd5b505050506040513d6000823e601f3d908101601f191682016040526122279190810190615672565b979650505050505050565b60008061223d6139c7565b600781015490915080156122515792915050565b8160060160009054906101000a90046001600160a01b03166001600160a01b0316632cbb9d136040518163ffffffff1660e01b8152600401602060405180830381865afa1580156122a6573d6000803e3d6000fd5b505050506040513d601f19601f820116820180604052508101906122ca91906153ff565b9250505090565b60006001600160a01b0382166122fa576040516323d3ad8160e21b815260040160405180910390fd5b6001600160401b0361230a6115ee565b6005016000846001600160a01b03166001600160a01b0316815260200190815260200160002054169050919050565b60006123436139c7565b600601546001600160a01b0316919050565b6000806123606139c7565b90508060060160009054906101000a90046001600160a01b03166001600160a01b0316638120f0ba6040518163ffffffff1660e01b8152600401602060405180830381865afa1580156123b7573d6000803e3d6000fd5b505050506040513d601f19601f820116820180604052508101906117d891906157af565b6000806123e66139c7565b6006810154600480830154604080516301332c8360e61b815290519495506001600160a01b039384169493909116926000928592634ccb20c092818301926020928290030181865afa158015612440573d6000803e3d6000fd5b505050506040513d601f19601f8201168201806040525081019061246491906152db565b90506000836001600160a01b0316639f6542aa6040518163ffffffff1660e01b8152600401602060405180830381865afa1580156124a6573d6000803e3d6000fd5b505050506040513d601f19601f820116820180604052508101906124ca91906157cc565b90506124da878261ffff16613c82565b95506124e883898489611f07565b505050505092915050565b6000806124fe6139c7565b9050600061250a611eeb565b905073eeeeeeeeeeeeeeeeeeeeeeeeeeeeeeeeeeeeeeed196001600160a01b03821601612555578382600a01600082825461254591906157f0565b9091555084935061075392505050565b6040516370a0823160e01b815230600482015281906000906001600160a01b038316906370a0823190602401602060405180830381865afa15801561259e573d6000803e3d6000fd5b505050506040513d601f19601f820116820180604052508101906125c291906153ff565b90506125d083883089611f07565b6040516370a0823160e01b81523060048201526000906001600160a01b038416906370a0823190602401602060405180830381865afa158015612617573d6000803e3d6000fd5b505050506040513d601f19601f8201168201806040525081019061263b91906153ff565b9050600061264983836151c3565b905087811461266b57604051635894b54560e11b815260040160405180910390fd5b8086600a01600082825461267f91906157f0565b90915550909998505050505050505050565b60008281527f4775a23600034fdd9f073b224f794d51a58b35ba663a9602623ba7a5c09cce006020819052604082205490916001600160401b03909116908181036126e7576126e08442615803565b90506126f4565b6126f18483615803565b90505b60008581526020848152604091829020805467ffffffffffffffff19166001600160401b038516908117909155915191825286917f2ec2be2c4b90c2cf13ecb6751a24daed6bb741ae5ed3f7371aabf9402f6d62e8910160405180910390a25050505050565b6001600160a01b03811661278157604051635fbd571760e01b815260040160405180910390fd5b612789611f93565b158015906127a5575061279a611f93565b6127a26117f5565b10155b15610a5357604051637efcdb4960e01b815260040160405180910390fd5b60008181526000805160206159ff833981519152602081905260408220805490836127ed83615418565b909155509392505050565b60008281527f34516f6fe09a043d57f1ff579a303a7ae85314751c77b4eb1a55837604a86e02602052604090206000805160206159ff833981519152906114a18382615340565b806000036128605760405163acdc0d4960e01b815260040160405180910390fd5b8034146128805760405163acdc0d4960e01b815260040160405180910390fd5b6000828152600080516020615a7f8339815191526020526040812080546000805160206159ff833981519152928492916128bb9084906157f0565b9091555050505050565b606060006128d1613cf7565b80519091506000816001600160401b038111156128f0576128f0614adb565b604051908082528060200260200182016040528015612919578160200160208202803683370190505b5085516020870120909150600090815b848110156129e8576000612955878381518110612948576129486151d6565b6020026020010151613d22565b509250505060005b81518110156129de5783828281518110612979576129796151d6565b602002602001015180519060200120036129d65787838151811061299f5761299f6151d6565b60200260200101518686815181106129b9576129b96151d6565b6020908102919091010152846129ce81615418565b9550506129de565b60010161295d565b5050600101612929565b506000826001600160401b03811115612a0357612a03614adb565b604051908082528060200260200182016040528015612a6857816020015b612a556040518060a00160405280600081526020016060815260200160001515815260200160608152602001606081525090565b815260200190600190039081612a215790505b50905060005b83811015612b03576000858281518110612a8a57612a8a6151d6565b60200260200101519050600080600080612aa385613d22565b93509350935093506040518060a00160405280868152602001858152602001841515815260200183815260200182815250878781518110612ae657612ae66151d6565b602002602001018190525050505050508080600101915050612a6e565b50979650505050505050565b60606000612b1b6139c7565b6006015460405162468b7360e31b81526001600160a01b038581166004830152909116915060009082906302345b9890602401600060405180830381865afa158015612b6b573d6000803e3d6000fd5b505050506040513d6000823e601f3d908101601f19168201604052612b939190810190615823565b604051631f04207360e31b81526001600160a01b03868116600483015291925060009184169063f821039890602401602060405180830381865afa158015612bdf573d6000803e3d6000fd5b505050506040513d601f19601f82011682018060405250810190612c0391906152db565b905081516000148015612c1e57506001600160a01b03811615155b15612c985760405162468b7360e31b81526001600160a01b03808316600483015291955085918416906302345b9890602401600060405180830381865afa158015612c6d573d6000803e3d6000fd5b505050506040513d6000823e601f3d908101601f19168201604052612c959190810190615823565b91505b81516000612ca78260016157f0565b6001600160401b03811115612cbe57612cbe614adb565b604051908082528060200260200182016040528015612ce7578160200160208202803683370190505b50905060005b82811015612d4157848181518110612d0757612d076151d6565b6020026020010151828281518110612d2157612d216151d6565b6001600160a01b0390921660209283029190910190910152600101612ced565b5086818381518110612d5557612d556151d6565b6001600160a01b03909216602092830291909101909101529695505050505050565b600080612d8383613e32565b806020019051810190612d9691906158b1565b915091506000612da46117f5565b9050600080612db1612232565b90506000612dbd613f03565b905083821115612dda5760009250612dd587876131d8565b612e04565b8015612df85760009250612dee6001613f2d565b612dd587876131d8565b612e0184611814565b92505b6000612e0e613f6b565b90508315612ed2576000888152600080516020615a7f833981519152602052604081205490819003612e5357604051635894b54560e11b815260040160405180910390fd5b848114612e73576040516334a7a93d60e01b815260040160405180910390fd5b612e7d8286613f75565b6000612e8989876123db565b90506000612e9782886151c3565b90508015612eab57612ea98a826124f3565b505b612eb58b88613f95565b612ece8b604051806020016040528060008152506127f8565b5050505b612edd866001613fd0565b612ee981610ee4612355565b60405181906001600160a01b038816907f2f40b0474996b72a4251e00fb9170cdd960deea1dc749772cbbab61395b9b57690600090a35050505050505050565b6000838152600080516020615a1f833981519152602052604090208054600080516020615a3f833981519152919060ff161515600103612fbb5760005b6004820154811015612fb95783826004018281548110612f8857612f886151d6565b906000526020600020015403612fb1576040516301ab53df60e31b815260040160405180910390fd5b600101612f66565b505b81546001600160a01b0316612fd257612fd2613fea565b8154604051634f84544560e01b8152600560048201526000916001600160a01b031690634f84544590602401600060405180830381865afa15801561301b573d6000803e3d6000fd5b505050506040513d6000823e601f3d908101601f191682016040526130439190810190615823565b825490915060ff166130845781546003830180546001600160a01b0319166001600160a01b0388161790556001600160a81b03191661010033021760011782555b600482018054600181018255600091825260208220018590555b81518110156131745782600101600086815260200190815260200160002060405180604001604052808484815181106130d9576130d96151d6565b60200260200101516001600160a01b031681526020016000600281111561310257613102614d80565b9052815460018101835560009283526020928390208251910180546001600160a01b031981166001600160a01b03909316928317825593830151929390929183916001600160a81b03191617600160a01b83600281111561316557613165614d80565b0217905550505060010161309e565b50825460405163541da4e560e01b81526001600160a01b039091169063541da4e5906131aa9033908a90899087906004016158e0565b600060405180830381600087803b1580156131c457600080fd5b505af1158015611ca0573d6000803e3d6000fd5b6000828152600080516020615a7f83398151915260205260409020548015610a71576132048382613f95565b610a71610bef611eeb565b61323360405180606001604052806060815260200160608152602001606081525090565b61325760405180606001604052806060815260200160608152602001606081525090565b8251516001600160401b0381111561327157613271614adb565b6040519080825280602002602001820160405280156132b657816020015b604080518082019091526000808252602082015281526020019060019003908161328f5790505b5081526020830151516001600160401b038111156132d6576132d6614adb565b60405190808252806020026020018201604052801561332857816020015b6040805160808101825260008082526020808301829052928201819052606082015282526000199092019101816132f45790505b5060208201526040830151516001600160401b0381111561334b5761334b614adb565b60405190808252806020026020018201604052801561339657816020015b60408051606081018252600080825260208083018290529282015282526000199092019101816133695790505b50604082015260005b83602001515181101561355b576000846020015182815181106133c4576133c46151d6565b60200260200101519050613403604080516080810190915280600081526020016000815260200160006001600160a01b03168152602001600081525090565b815161340e9061409e565b8190600581111561342157613421614d80565b9081600581111561343457613434614d80565b905250602080830151908201526040808301516001600160a01b03169082015260038251600581111561346957613469614d80565b036134945760008260600151806020019051810190613488919061594e565b5160608301525061352f565b6002825160058111156134a9576134a9614d80565b036134c85760008260600151806020019051810190613488919061594e565b6001825160058111156134dd576134dd614d80565b036134fc5760008260600151806020019051810190613488919061594e565b60048251600581111561351157613511614d80565b0361352f5760405163089f2a9160e31b815260040160405180910390fd5b8084602001518481518110613546576135466151d6565b6020908102919091010152505060010161339f565b5060005b83515181101561361257600084600001518281518110613581576135816151d6565b602002602001015190506135a5604080518082019091526000808252602082015290565b81516135b090614184565b819060028111156135c3576135c3614d80565b908160028111156135d6576135d6614d80565b90525060208083015160ff169082015283518051829190859081106135fd576135fd6151d6565b6020908102919091010152505060010161355f565b5060005b8360400151518110156136ea5760008460400151828151811061363b5761363b6151d6565b6020026020010151905061366a6040805160608101909152806000815260006020820181905260409091015290565b8151613675906141dc565b8190600281111561368857613688614d80565b9081600281111561369b5761369b614d80565b90525060208083015160ff90811691830191909152604080840151909116818301528401518051829190859081106136d5576136d56151d6565b60209081029190910101525050600101613616565b5092915050565b60606136fb6139c7565b600c0180546106c590615179565b8082101561076557604051636664d51760e11b815260040160405180910390fd5b806137336139c7565b6003015550565b604051630a85bd0160e11b81526000906001600160a01b0385169063150b7a029061376f90339089908890889060040161596a565b6020604051808303816000875af19250505080156137aa575060408051601f3d908101601f191682019092526137a79181019061599d565b60015b613808573d8080156137d8576040519150601f19603f3d011682016040523d82523d6000602084013e6137dd565b606091505b508051600003613800576040516368d2bf6b60e11b815260040160405180910390fd5b805181602001fd5b6001600160e01b031916630a85bd0160e11b149050949350505050565b600061382f6115ee565b54821080156107535750600160e01b6138466115ee565b60008481526004919091016020526040902054161592915050565b606060a06040510180604052602081039150506000815280825b600183039250600a81066030018353600a90048061387b5750819003601f19909101908152919050565b6001600160a01b0381166138cc57604051630e88bf4b60e01b815260040160405180910390fd5b6138d4612339565b6040516346fc05eb60e11b81526001600160a01b0383811660048301529190911690638df80bd690602401602060405180830381865afa15801561391c573d6000803e3d6000fd5b505050506040513d601f19601f8201168201806040525081019061394091906151ec565b610a5357604051630e88bf4b60e01b815260040160405180910390fd5b806139666139c7565b60080180546001600160a01b0319166001600160a01b039290921691909117905550565b60006139946115ee565b6001600160a01b039384166000908152600791909101602090815260408083209490951682529290925250205460ff1690565b7fc21004fcc619240a31f006438274d15cd813308303284436eef6055f0fdcb60090565b60018160028111156139ff576139ff614d80565b03613a0d5761076582612d77565b600080613a1984613e32565b806020019051810190613a2c91906158b1565b91509150613a4984604051806020016040528060008152506127f8565b613a5384836131d8565b6040516001600160a01b038216907f86fd446d5c04e892d58b448a924dcd9c3ece3a5e0d2960b8c35cd475a5595a1f90600090a250505050565b6000818152600080516020615a1f83398151915260205260408120600080516020615a3f833981519152915b6004820154811015613b0d57816001016000836004018381548110613ae057613ae06151d6565b906000526020600020015481526020019081526020016000206000613b05919061488a565b600101613ab9565b50613b1c6004820160006148a8565b6000838152600183016020526040812080546001600160a81b03191681556003810180546001600160a01b031916905590610d4b60048301826148a8565b6000613b646115ee565b905060028101613b748482615340565b5060038101613b838382615340565b50600090555050565b6000826001600160a01b03168260405160006040518083038185875af1925050503d8060008114613bd9576040519150601f19603f3d011682016040523d82523d6000602084013e613bde565b606091505b5050905080610a715760405162461bcd60e51b815260206004820152601c60248201527f6e617469766520746f6b656e207472616e73666572206661696c65640000000060448201526064016107a0565b816001600160a01b0316836001600160a01b031603156114a157306001600160a01b03841603613c6d57611f3c6001600160a01b0385168383614220565b6114a16001600160a01b03851684848461427f565b6000612710821115613ce05760405162461bcd60e51b815260206004820152602160248201527f426173697320706f696e74732063616e6e6f74206578636565642031305f30306044820152600360fc1b60648201526084016107a0565b612710613ced83856159c7565b610d809190615431565b60606107fa7f672ef851d5f92307da037116e23aa9e31af7e1f7e3ca62c4e6d540631df3fd016142b8565b6000818152600080516020615a5f83398151915260205260408120805460609291839182917f672ef851d5f92307da037116e23aa9e31af7e1f7e3ca62c4e6d540631df3fd0091613d7290615179565b80601f0160208091040260200160405190810160405280929190818152602001828054613d9e90615179565b8015613deb5780601f10613dc057610100808354040283529160200191613deb565b820191906000526020600020905b815481529060010190602001808311613dce57829003601f168201915b50505060008981526003850160205260409020600181015493985060ff9093169650613e1d9260020191506142c59050565b9250613e28866142d0565b9150509193509193565b60008181527f34516f6fe09a043d57f1ff579a303a7ae85314751c77b4eb1a55837604a86e026020526040902080546060916000805160206159ff83398151915291613e7d90615179565b80601f0160208091040260200160405190810160405280929190818152602001828054613ea990615179565b8015613ef65780601f10613ecb57610100808354040283529160200191613ef6565b820191906000526020600020905b815481529060010190602001808311613ed957829003601f168201915b5050505050915050919050565b60007f097b4f25b64e012d0cf55f67e9b34fe5d57f15b11b95baa4ddd136b424967c005b54919050565b7f097b4f25b64e012d0cf55f67e9b34fe5d57f15b11b95baa4ddd136b424967c00805482908290600090613f629084906151c3565b90915550505050565b6000613f276115ee565b80613f7e6139c7565b600093845260090160205260409092209190915550565b6000828152600080516020615a7f8339815191526020526040812080546000805160206159ff833981519152928492916128bb9084906151c3565b6107658282604051806020016040528060008152506143cd565b600080516020615a3f83398151915260006140036139c7565b60060154604051628956cd60e71b81526c29b830b1b2a7b832b930ba37b960991b60048201526001600160a01b03909116906344ab668090602401602060405180830381865afa15801561405b573d6000803e3d6000fd5b505050506040513d601f19601f8201168201806040525081019061407f91906152db565b82546001600160a01b0319166001600160a01b03919091161790915550565b600060038260058111156140b4576140b4614d80565b036140c157506003919050565b60028260058111156140d5576140d5614d80565b036140e257506002919050565b60048260058111156140f6576140f6614d80565b0361410357506004919050565b600582600581111561411757614117614d80565b0361412457506005919050565b600182600581111561413857614138614d80565b0361414557506001919050565b600082600581111561415957614159614d80565b0361416657506000919050565b6040516313b423f960e01b815260040160405180910390fd5b919050565b6000600182600281111561419a5761419a614d80565b036141a757506001919050565b60028260028111156141bb576141bb614d80565b036141c857506002919050565b600082600281111561415957614159614d80565b600060018260028111156141f2576141f2614d80565b036141ff57506001919050565b600282600281111561421357614213614d80565b0361416657506002919050565b6040516001600160a01b03838116602483015260448201839052610a7191859182169063a9059cbb906064015b604051602081830303815290604052915060e01b6020820180516001600160e01b038381831617835250505050614443565b6040516001600160a01b0384811660248301528381166044830152606482018390526114a19186918216906323b872dd9060840161424d565b60606000610d80836144a6565b606061075382614502565b6000818152600080516020615a5f83398151915260205260408120606091906142fb906004016145df565b6001600160401b0381111561431257614312614adb565b60405190808252806020026020018201604052801561433b578160200160208202803683370190505b50905060005b6000848152600080516020615a5f83398151915260205260409020614368906004016145df565b8110156136ea576000848152600080516020615a5f8339815191526020526040812061439790600401836145e9565b9050808383815181106143ac576143ac6151d6565b6001600160a01b039092166020928302919091019091015250600101614341565b6143d783836145f5565b6001600160a01b0383163b15610a715760006143f16115ee565b5490508281035b61440b600086838060010194508661373a565b614428576040516368d2bf6b60e11b815260040160405180910390fd5b8181106143f857816144386115ee565b5414610d4b57600080fd5b60006144586001600160a01b03841683614730565b9050805160001415801561447d57508080602001905181019061447b91906151ec565b155b15610a7157604051635274afe760e01b81526001600160a01b03841660048201526024016107a0565b6060816000018054806020026020016040519081016040528092919081815260200182805480156144f657602002820191906000526020600020905b8154815260200190600101908083116144e2575b50505050509050919050565b606081600001805480602002602001604051908101604052809291908181526020016000905b828210156145d457838290600052602060002001805461454790615179565b80601f016020809104026020016040519081016040528092919081815260200182805461457390615179565b80156145c05780601f10614595576101008083540402835291602001916145c0565b820191906000526020600020905b8154815290600101906020018083116145a357829003601f168201915b505050505081526020019060010190614528565b505050509050919050565b6000610753825490565b6000610d80838361473e565b60006145ff6115ee565b54905060008290036146245760405163b562e8dd60e01b815260040160405180910390fd5b6801000000000000000182026146386115ee565b6001600160a01b038516600081815260059290920160205260409091208054929092019091554260a01b6001841460e11b17176146736115ee565b600083815260049190910160205260408120919091556001600160a01b0384169083830190839083907fddf252ad1be2c89b69c2b068fc378daa952ba7f163c4a11628f55a4df523b3ef8180a4600183015b8181146146fd57808360007fddf252ad1be2c89b69c2b068fc378daa952ba7f163c4a11628f55a4df523b3ef600080a46001016146c5565b508160000361471e57604051622e076360e81b815260040160405180910390fd5b806147276115ee565b5550610a719050565b6060610d8083836000614768565b6000826000018281548110614755576147556151d6565b9060005260206000200154905092915050565b60608147101561478d5760405163cd78605960e01b81523060048201526024016107a0565b600080856001600160a01b031684866040516147a99190615209565b60006040518083038185875af1925050503d80600081146147e6576040519150601f19603f3d011682016040523d82523d6000602084013e6147eb565b606091505b50915091506147fb868383614805565b9695505050505050565b60608261481a5761481582614861565b610d80565b815115801561483157506001600160a01b0384163b155b1561485a57604051639996b31560e01b81526001600160a01b03851660048201526024016107a0565b5080610d80565b8051156148715780518082602001fd5b604051630a12f52160e11b815260040160405180910390fd5b5080546000825590600052602060002090810190610a5391906148c6565b5080546000825590600052602060002090810190610a5391906148e9565b5b808211156148e55780546001600160a81b03191681556001016148c7565b5090565b5b808211156148e557600081556001016148ea565b60005b83811015614919578181015183820152602001614901565b50506000910152565b6000815180845261493a8160208601602086016148fe565b601f01601f19169290920160200192915050565b602081526000610d806020830184614922565b60006020828403121561497357600080fd5b5035919050565b6001600160a01b0381168114610a5357600080fd5b803561417f8161497a565b600080604083850312156149ad57600080fd5b82356149b88161497a565b946020939093013593505050565b600080602083850312156149d957600080fd5b82356001600160401b03808211156149f057600080fd5b818501915085601f830112614a0457600080fd5b813581811115614a1357600080fd5b866020828501011115614a2557600080fd5b60209290920196919550909350505050565b600080600060608486031215614a4c57600080fd5b8335614a578161497a565b92506020840135614a678161497a565b929592945050506040919091013590565b600060208284031215614a8a57600080fd5b8135610d808161497a565b60038110610a5357600080fd5b600080600060608486031215614ab757600080fd5b83359250602084013591506040840135614ad081614a95565b809150509250925092565b634e487b7160e01b600052604160045260246000fd5b60405161012081016001600160401b0381118282101715614b1457614b14614adb565b60405290565b604051608081016001600160401b0381118282101715614b1457614b14614adb565b604051606081016001600160401b0381118282101715614b1457614b14614adb565b604080519081016001600160401b0381118282101715614b1457614b14614adb565b604051601f8201601f191681016001600160401b0381118282101715614ba857614ba8614adb565b604052919050565b60006001600160401b03821115614bc957614bc9614adb565b50601f01601f191660200190565b6000614bea614be584614bb0565b614b80565b9050828152838383011115614bfe57600080fd5b828260208301376000602084830101529392505050565b600082601f830112614c2657600080fd5b610d8083833560208501614bd7565b6001600160401b0381168114610a5357600080fd5b803561417f81614c35565b60008060408385031215614c6857600080fd5b82356001600160401b0380821115614c7f57600080fd5b908401906101208287031215614c9457600080fd5b614c9c614af1565b823582811115614cab57600080fd5b614cb788828601614c15565b825250602083013582811115614ccc57600080fd5b614cd888828601614c15565b6020830152506040830135604082015260608301356060820152614cfe60808401614c4a565b6080820152614d0f60a0840161498f565b60a0820152614d2060c0840161498f565b60c082015260e083013560e08201526101009150614d3f82840161498f565b82820152809450505050614d556020840161498f565b90509250929050565b60008060408385031215614d7157600080fd5b50508035926020909101359150565b634e487b7160e01b600052602160045260246000fd5b60038110610a5357610a53614d80565b60068110610a5357610a53614d80565b600082825180855260208086019550808260051b84010181860160005b84811015614e3c57601f19868403018952815160808151614df381614da6565b855281860151868601526040808301516001600160a01b031690860152606091820151918501819052614e2881860183614922565b9a86019a9450505090830190600101614dd3565b5090979650505050505050565b60008151808452602080850194506020840160005b83811015614e9f5781518051614e7381614d96565b88528084015160ff908116858a0152604091820151169088015260609096019590820190600101614e5e565b509495945050505050565b6020808252825160608383015280516080840181905260009291820190839060a08601905b80831015614f065783518051614ee481614d96565b835285015160ff16858301529284019260019290920191604090910190614ecf565b50838701519350601f19925082868203016040870152614f268185614db6565b935050506040850151818584030160608601526147fb8382614e49565b60008151808452602080850194506020840160005b83811015614e9f5781518051614f6d81614da6565b885280840151848901526040808201516001600160a01b0316908901526060908101519088015260809096019590820190600101614f58565b6020808252825160608383015280516080840181905260009291820190839060a08601905b808310156150025783518051614fe081614d96565b835285015160ff16858301529284019260019290920191604090910190614fcb565b50838701519350601f19925082868203016040870152614f268185614f43565b8015158114610a5357600080fd5b6000806040838503121561504357600080fd5b823561504e8161497a565b9150602083013561505e81615022565b809150509250929050565b6000806000806080858703121561507f57600080fd5b843561508a8161497a565b9350602085013561509a8161497a565b92506040850135915060608501356001600160401b038111156150bc57600080fd5b8501601f810187136150cd57600080fd5b6150dc87823560208401614bd7565b91505092959194509250565b600080604083850312156150fb57600080fd5b82356001600160401b038082111561511257600080fd5b61511e86838701614c15565b9350602085013591508082111561513457600080fd5b5061514185828601614c15565b9150509250929050565b6000806040838503121561515e57600080fd5b82356151698161497a565b9150602083013561505e8161497a565b600181811c9082168061518d57607f821691505b60208210810361198757634e487b7160e01b600052602260045260246000fd5b634e487b7160e01b600052601160045260246000fd5b81810381811115610753576107536151ad565b634e487b7160e01b600052603260045260246000fd5b6000602082840312156151fe57600080fd5b8151610d8081615022565b6000825161521b8184602087016148fe565b9190910192915050565b805160208083015191908110156119875760001960209190910360031b1b16919050565b60008151808452602080850194506020840160005b83811015614e9f5781516001600160a01b03168752958201959082019060010161525e565b83815260606020820152600061529c6060830185615249565b9050826040830152949350505050565b600083516152be8184602088016148fe565b8351908301906152d28183602088016148fe565b01949350505050565b6000602082840312156152ed57600080fd5b8151610d808161497a565b601f821115610a71576000816000526020600020601f850160051c810160208610156153215750805b601f850160051c820191505b818110156109f85782815560010161532d565b81516001600160401b0381111561535957615359614adb565b61536d816153678454615179565b846152f8565b602080601f8311600181146153a2576000841561538a5750858301515b600019600386901b1c1916600185901b1785556109f8565b600085815260208120601f198616915b828110156153d1578886015182559484019460019091019084016153b2565b50858210156153ef5787850151600019600388901b60f8161c191681555b5050505050600190811b01905550565b60006020828403121561541157600080fd5b5051919050565b60006001820161542a5761542a6151ad565b5060010190565b60008261544e57634e487b7160e01b600052601260045260246000fd5b500490565b6020810161546083614d96565b91905290565b60006001600160401b0382111561547f5761547f614adb565b5060051b60200190565b805160ff8116811461417f57600080fd5b600082601f8301126154ab57600080fd5b815160206154bb614be583615466565b82815260059290921b840181019181810190868411156154da57600080fd5b8286015b848110156155c95780516001600160401b03808211156154fe5760008081fd5b908801906080828b03601f19018113156155185760008081fd5b615520614b1a565b87840151600681106155325760008081fd5b81526040848101518983015260608086015161554d8161497a565b838301529285015192848411156155645760008081fd5b83860195508d603f87011261557b57600094508485fd5b89860151945061558d614be586614bb0565b93508484528d828688010111156155a45760008081fd5b6155b3858b86018489016148fe565b82019290925286525050509183019183016154de565b509695505050505050565b600082601f8301126155e557600080fd5b815160206155f5614be583615466565b8281526060928302850182019282820191908785111561561457600080fd5b8387015b85811015614e3c5781818a0312156156305760008081fd5b615638614b3c565b815161564381614a95565b8152615650828701615489565b868201526040615661818401615489565b908201528452928401928101615618565b6000602080838503121561568557600080fd5b82516001600160401b038082111561569c57600080fd5b90840190606082870312156156b057600080fd5b6156b8614b3c565b8251828111156156c757600080fd5b8301601f810188136156d857600080fd5b80516156e6614be582615466565b81815260069190911b8201860190868101908a83111561570557600080fd5b928701925b82841015615759576040848c0312156157235760008081fd5b61572b614b5e565b845161573681614a95565b8152615743858a01615489565b818a01528252604093909301929087019061570a565b8452505050828401518281111561576f57600080fd5b61577b8882860161549a565b8583015250604083015193508184111561579457600080fd5b6157a0878585016155d4565b60408201529695505050505050565b6000602082840312156157c157600080fd5b8151610d8081614c35565b6000602082840312156157de57600080fd5b815161ffff81168114610d8057600080fd5b80820180821115610753576107536151ad565b6001600160401b038181168382160190808211156136ea576136ea6151ad565b6000602080838503121561583657600080fd5b82516001600160401b0381111561584c57600080fd5b8301601f8101851361585d57600080fd5b805161586b614be582615466565b81815260059190911b8201830190838101908783111561588a57600080fd5b928401925b828410156122275783516158a28161497a565b8252928401929084019061588f565b600080604083850312156158c457600080fd5b82516158cf8161497a565b602084015190925061505e8161497a565b60018060a01b03851681528360208201528260408201526080606082015260006147fb6080830184615249565b60006020828403121561591f57600080fd5b604051602081018181106001600160401b038211171561594157615941614adb565b6040529151825250919050565b60006020828403121561596057600080fd5b610d80838361590d565b6001600160a01b03858116825284166020820152604081018390526080606082018190526000906147fb90830184614922565b6000602082840312156159af57600080fd5b81516001600160e01b031981168114610d8057600080fd5b8082028115828204841417610753576107536151ad56fe54f22f54f370bd020e00ee80e1a5099a71652e2ccbcf6a75281e4c70a3e11a0034516f6fe09a043d57f1ff579a303a7ae85314751c77b4eb1a55837604a86e00c9f85609eb60ac71988cfb4c314695ea9c394b99f001405aaba56d724f4cf801c9f85609eb60ac71988cfb4c314695ea9c394b99f001405aaba56d724f4cf800672ef851d5f92307da037116e23aa9e31af7e1f7e3ca62c4e6d540631df3fd0334516f6fe09a043d57f1ff579a303a7ae85314751c77b4eb1a55837604a86e01","linkReferences":{}},"methodIdentifiers":{"__ERC721A_init(string,string)":"d2f01f19","__EntitlementGatedV2_init(address)":"375e3bbc","__Membership_init((string,string,uint256,uint256,uint64,address,address,uint256,address),address)":"4c2abfbe","approve(address,uint256)":"095ea7b3","balanceOf(address)":"70a08231","expiresAt(uint256)":"17c95709","getApproved(uint256)":"081812fc","getMembershipCurrency()":"657e45e8","getMembershipDuration()":"8120f0ba","getMembershipFreeAllocation()":"706b8e09","getMembershipImage()":"93b13cb7","getMembershipLimit()":"95d600c8","getMembershipPrice()":"1278076a","getMembershipPricingModule()":"e847abdd","getMembershipRenewalPrice(uint256)":"5803909f","getRuleData(bytes32,uint256)":"92c399ff","getRuleDataV2(bytes32,uint256)":"6fe67411","getSpaceFactory()":"79dda585","isApprovedForAll(address,address)":"e985e9c5","joinSpace(address)":"8c625b06","name()":"06fdde03","ownerOf(uint256)":"6352211e","postEntitlementCheckResult(bytes32,uint256,uint8)":"4739e805","renewMembership(uint256)":"7c9669ac","safeTransferFrom(address,address,uint256)":"42842e0e","safeTransferFrom(address,address,uint256,bytes)":"b88d4fde","setApprovalForAll(address,bool)":"a22cb465","setMembershipFreeAllocation(uint256)":"5becd24a","setMembershipImage(string)":"0ef1be5f","setMembershipLimit(uint256)":"97fb7c1e","setMembershipPrice(uint256)":"69d5f38a","setMembershipPricingModule(address)":"df9a9fe6","symbol()":"95d89b41","tokenURI(uint256)":"c87b56dd","totalSupply()":"18160ddd","transferFrom(address,address,uint256)":"23b872dd","withdraw(address)":"51cff8d9"},"id":250}