{"abi":[{"type":"function","name":"expiresAt","inputs":[{"name":"tokenId","type":"uint256","internalType":"uint256"}],"outputs":[{"name":"","type":"uint256","internalType":"uint256"}],"stateMutability":"view"},{"type":"function","name":"getMembershipCurrency","inputs":[],"outputs":[{"name":"","type":"address","internalType":"address"}],"stateMutability":"view"},{"type":"function","name":"getMembershipDuration","inputs":[],"outputs":[{"name":"","type":"uint64","internalType":"uint64"}],"stateMutability":"view"},{"type":"function","name":"getMembershipFreeAllocation","inputs":[],"outputs":[{"name":"","type":"uint256","internalType":"uint256"}],"stateMutability":"view"},{"type":"function","name":"getMembershipImage","inputs":[],"outputs":[{"name":"","type":"string","internalType":"string"}],"stateMutability":"view"},{"type":"function","name":"getMembershipLimit","inputs":[],"outputs":[{"name":"","type":"uint256","internalType":"uint256"}],"stateMutability":"view"},{"type":"function","name":"getMembershipPrice","inputs":[],"outputs":[{"name":"","type":"uint256","internalType":"uint256"}],"stateMutability":"view"},{"type":"function","name":"getMembershipPricingModule","inputs":[],"outputs":[{"name":"","type":"address","internalType":"address"}],"stateMutability":"view"},{"type":"function","name":"getMembershipRenewalPrice","inputs":[{"name":"tokenId","type":"uint256","internalType":"uint256"}],"outputs":[{"name":"","type":"uint256","internalType":"uint256"}],"stateMutability":"view"},{"type":"function","name":"getSpaceFactory","inputs":[],"outputs":[{"name":"","type":"address","internalType":"address"}],"stateMutability":"view"},{"type":"function","name":"joinSpace","inputs":[{"name":"receiver","type":"address","internalType":"address"}],"outputs":[],"stateMutability":"payable"},{"type":"function","name":"joinSpaceWithReferral","inputs":[{"name":"receiver","type":"address","internalType":"address"},{"name":"referral","type":"tuple","internalType":"struct IMembershipBase.ReferralTypes","components":[{"name":"partner","type":"address","internalType":"address"},{"name":"userReferral","type":"address","internalType":"address"},{"name":"referralCode","type":"string","internalType":"string"}]}],"outputs":[],"stateMutability":"payable"},{"type":"function","name":"renewMembership","inputs":[{"name":"tokenId","type":"uint256","internalType":"uint256"}],"outputs":[],"stateMutability":"payable"},{"type":"function","name":"setMembershipFreeAllocation","inputs":[{"name":"newAllocation","type":"uint256","internalType":"uint256"}],"outputs":[],"stateMutability":"nonpayable"},{"type":"function","name":"setMembershipImage","inputs":[{"name":"newImage","type":"string","internalType":"string"}],"outputs":[],"stateMutability":"nonpayable"},{"type":"function","name":"setMembershipLimit","inputs":[{"name":"newLimit","type":"uint256","internalType":"uint256"}],"outputs":[],"stateMutability":"nonpayable"},{"type":"function","name":"setMembershipPrice","inputs":[{"name":"newPrice","type":"uint256","internalType":"uint256"}],"outputs":[],"stateMutability":"nonpayable"},{"type":"function","name":"setMembershipPricingModule","inputs":[{"name":"pricingModule","type":"address","internalType":"address"}],"outputs":[],"stateMutability":"nonpayable"},{"type":"function","name":"withdraw","inputs":[{"name":"account","type":"address","internalType":"address"}],"outputs":[],"stateMutability":"nonpayable"},{"type":"event","name":"Approval","inputs":[{"name":"owner","type":"address","indexed":true,"internalType":"address"},{"name":"approved","type":"address","indexed":true,"internalType":"address"},{"name":"tokenId","type":"uint256","indexed":true,"internalType":"uint256"}],"anonymous":false},{"type":"event","name":"ApprovalForAll","inputs":[{"name":"owner","type":"address","indexed":true,"internalType":"address"},{"name":"operator","type":"address","indexed":true,"internalType":"address"},{"name":"approved","type":"bool","indexed":false,"internalType":"bool"}],"anonymous":false},{"type":"event","name":"Banned","inputs":[{"name":"moderator","type":"address","indexed":true,"internalType":"address"},{"name":"tokenId","type":"uint256","indexed":true,"internalType":"uint256"}],"anonymous":false},{"type":"event","name":"ConsecutiveTransfer","inputs":[{"name":"fromTokenId","type":"uint256","indexed":true,"internalType":"uint256"},{"name":"toTokenId","type":"uint256","indexed":false,"internalType":"uint256"},{"name":"from","type":"address","indexed":true,"internalType":"address"},{"name":"to","type":"address","indexed":true,"internalType":"address"}],"anonymous":false},{"type":"event","name":"DefaultBpsFeeUpdated","inputs":[{"name":"defaultBpsFee","type":"uint256","indexed":false,"internalType":"uint256"}],"anonymous":false},{"type":"event","name":"EntitlementCheckResultPosted","inputs":[{"name":"transactionId","type":"bytes32","indexed":true,"internalType":"bytes32"},{"name":"result","type":"uint8","indexed":false,"internalType":"enum IEntitlementGatedBase.NodeVoteStatus"}],"anonymous":false},{"type":"event","name":"Initialized","inputs":[{"name":"version","type":"uint32","indexed":false,"internalType":"uint32"}],"anonymous":false},{"type":"event","name":"InterfaceAdded","inputs":[{"name":"interfaceId","type":"bytes4","indexed":true,"internalType":"bytes4"}],"anonymous":false},{"type":"event","name":"InterfaceRemoved","inputs":[{"name":"interfaceId","type":"bytes4","indexed":true,"internalType":"bytes4"}],"anonymous":false},{"type":"event","name":"MaxBpsFeeUpdated","inputs":[{"name":"maxBpsFee","type":"uint256","indexed":false,"internalType":"uint256"}],"anonymous":false},{"type":"event","name":"MaxPartnerFeeSet","inputs":[{"name":"fee","type":"uint256","indexed":false,"internalType":"uint256"}],"anonymous":false},{"type":"event","name":"MembershipCurrencyUpdated","inputs":[{"name":"currency","type":"address","indexed":true,"internalType":"address"}],"anonymous":false},{"type":"event","name":"MembershipFeeRecipientUpdated","inputs":[{"name":"recipient","type":"address","indexed":true,"internalType":"address"}],"anonymous":false},{"type":"event","name":"MembershipFreeAllocationUpdated","inputs":[{"name":"allocation","type":"uint256","indexed":true,"internalType":"uint256"}],"anonymous":false},{"type":"event","name":"MembershipLimitUpdated","inputs":[{"name":"limit","type":"uint256","indexed":true,"internalType":"uint256"}],"anonymous":false},{"type":"event","name":"MembershipPriceUpdated","inputs":[{"name":"price","type":"uint256","indexed":true,"internalType":"uint256"}],"anonymous":false},{"type":"event","name":"MembershipTokenIssued","inputs":[{"name":"recipient","type":"address","indexed":true,"internalType":"address"},{"name":"tokenId","type":"uint256","indexed":true,"internalType":"uint256"}],"anonymous":false},{"type":"event","name":"MembershipTokenRejected","inputs":[{"name":"recipient","type":"address","indexed":true,"internalType":"address"}],"anonymous":false},{"type":"event","name":"MembershipWithdrawal","inputs":[{"name":"recipient","type":"address","indexed":true,"internalType":"address"},{"name":"amount","type":"uint256","indexed":false,"internalType":"uint256"}],"anonymous":false},{"type":"event","name":"OwnershipTransferred","inputs":[{"name":"previousOwner","type":"address","indexed":true,"internalType":"address"},{"name":"newOwner","type":"address","indexed":true,"internalType":"address"}],"anonymous":false},{"type":"event","name":"PartnerRegistered","inputs":[{"name":"account","type":"address","indexed":true,"internalType":"address"}],"anonymous":false},{"type":"event","name":"PartnerRemoved","inputs":[{"name":"account","type":"address","indexed":true,"internalType":"address"}],"anonymous":false},{"type":"event","name":"PartnerUpdated","inputs":[{"name":"account","type":"address","indexed":true,"internalType":"address"}],"anonymous":false},{"type":"event","name":"Paused","inputs":[{"name":"account","type":"address","indexed":false,"internalType":"address"}],"anonymous":false},{"type":"event","name":"PermissionsAddedToChannelRole","inputs":[{"name":"updater","type":"address","indexed":true,"internalType":"address"},{"name":"roleId","type":"uint256","indexed":true,"internalType":"uint256"},{"name":"channelId","type":"bytes32","indexed":true,"internalType":"bytes32"}],"anonymous":false},{"type":"event","name":"PermissionsRemovedFromChannelRole","inputs":[{"name":"updater","type":"address","indexed":true,"internalType":"address"},{"name":"roleId","type":"uint256","indexed":true,"internalType":"uint256"},{"name":"channelId","type":"bytes32","indexed":true,"internalType":"bytes32"}],"anonymous":false},{"type":"event","name":"PermissionsUpdatedForChannelRole","inputs":[{"name":"updater","type":"address","indexed":true,"internalType":"address"},{"name":"roleId","type":"uint256","indexed":true,"internalType":"uint256"},{"name":"channelId","type":"bytes32","indexed":true,"internalType":"bytes32"}],"anonymous":false},{"type":"event","name":"Prepay__Prepaid","inputs":[{"name":"supply","type":"uint256","indexed":false,"internalType":"uint256"}],"anonymous":false},{"type":"event","name":"ReferralRegistered","inputs":[{"name":"referralCode","type":"bytes32","indexed":false,"internalType":"bytes32"},{"name":"basisPoints","type":"uint256","indexed":false,"internalType":"uint256"},{"name":"recipient","type":"address","indexed":false,"internalType":"address"}],"anonymous":false},{"type":"event","name":"ReferralRemoved","inputs":[{"name":"referralCode","type":"bytes32","indexed":false,"internalType":"bytes32"}],"anonymous":false},{"type":"event","name":"ReferralUpdated","inputs":[{"name":"referralCode","type":"bytes32","indexed":false,"internalType":"bytes32"},{"name":"basisPoints","type":"uint256","indexed":false,"internalType":"uint256"},{"name":"recipient","type":"address","indexed":false,"internalType":"address"}],"anonymous":false},{"type":"event","name":"RegistryFeeSet","inputs":[{"name":"fee","type":"uint256","indexed":false,"internalType":"uint256"}],"anonymous":false},{"type":"event","name":"RoleCreated","inputs":[{"name":"creator","type":"address","indexed":true,"internalType":"address"},{"name":"roleId","type":"uint256","indexed":true,"internalType":"uint256"}],"anonymous":false},{"type":"event","name":"RoleRemoved","inputs":[{"name":"remover","type":"address","indexed":true,"internalType":"address"},{"name":"roleId","type":"uint256","indexed":true,"internalType":"uint256"}],"anonymous":false},{"type":"event","name":"RoleUpdated","inputs":[{"name":"updater","type":"address","indexed":true,"internalType":"address"},{"name":"roleId","type":"uint256","indexed":true,"internalType":"uint256"}],"anonymous":false},{"type":"event","name":"SubscriptionUpdate","inputs":[{"name":"tokenId","type":"uint256","indexed":true,"internalType":"uint256"},{"name":"expiration","type":"uint64","indexed":false,"internalType":"uint64"}],"anonymous":false},{"type":"event","name":"Transfer","inputs":[{"name":"from","type":"address","indexed":true,"internalType":"address"},{"name":"to","type":"address","indexed":true,"internalType":"address"},{"name":"tokenId","type":"uint256","indexed":true,"internalType":"uint256"}],"anonymous":false},{"type":"event","name":"Unbanned","inputs":[{"name":"moderator","type":"address","indexed":true,"internalType":"address"},{"name":"tokenId","type":"uint256","indexed":true,"internalType":"uint256"}],"anonymous":false},{"type":"event","name":"Unpaused","inputs":[{"name":"account","type":"address","indexed":false,"internalType":"address"}],"anonymous":false},{"type":"error","name":"AddressEmptyCode","inputs":[{"name":"target","type":"address","internalType":"address"}]},{"type":"error","name":"AddressInsufficientBalance","inputs":[{"name":"account","type":"address","internalType":"address"}]},{"type":"error","name":"ApprovalCallerNotOwnerNorApproved","inputs":[]},{"type":"error","name":"ApprovalQueryForNonexistentToken","inputs":[]},{"type":"error","name":"BalanceQueryForZeroAddress","inputs":[]},{"type":"error","name":"Banning__AlreadyBanned","inputs":[{"name":"tokenId","type":"uint256","internalType":"uint256"}]},{"type":"error","name":"Banning__CannotBanOwner","inputs":[]},{"type":"error","name":"Banning__CannotBanSelf","inputs":[]},{"type":"error","name":"Banning__InvalidTokenId","inputs":[{"name":"tokenId","type":"uint256","internalType":"uint256"}]},{"type":"error","name":"Banning__NotBanned","inputs":[{"name":"tokenId","type":"uint256","internalType":"uint256"}]},{"type":"error","name":"Dispatcher__InvalidCaller","inputs":[]},{"type":"error","name":"Dispatcher__InvalidValue","inputs":[]},{"type":"error","name":"Dispatcher__TransactionAlreadyExists","inputs":[]},{"type":"error","name":"ERC5643__DurationZero","inputs":[]},{"type":"error","name":"ERC5643__InvalidTokenId","inputs":[{"name":"tokenId","type":"uint256","internalType":"uint256"}]},{"type":"error","name":"ERC5643__NotApprovedOrOwner","inputs":[]},{"type":"error","name":"ERC5643__SubscriptionNotRenewable","inputs":[{"name":"tokenId","type":"uint256","internalType":"uint256"}]},{"type":"error","name":"EntitlementGated_InvalidAddress","inputs":[]},{"type":"error","name":"EntitlementGated_NodeAlreadyVoted","inputs":[]},{"type":"error","name":"EntitlementGated_NodeNotFound","inputs":[]},{"type":"error","name":"EntitlementGated_TransactionCheckAlreadyCompleted","inputs":[]},{"type":"error","name":"EntitlementGated_TransactionCheckAlreadyRegistered","inputs":[]},{"type":"error","name":"EntitlementGated_TransactionNotRegistered","inputs":[]},{"type":"error","name":"Entitlement__InvalidValue","inputs":[]},{"type":"error","name":"Entitlement__NotAllowed","inputs":[]},{"type":"error","name":"Entitlement__NotMember","inputs":[]},{"type":"error","name":"Entitlement__ValueAlreadyExists","inputs":[]},{"type":"error","name":"FailedInnerCall","inputs":[]},{"type":"error","name":"Initializable_InInitializingState","inputs":[]},{"type":"error","name":"Introspection_AlreadySupported","inputs":[]},{"type":"error","name":"Introspection_NotSupported","inputs":[]},{"type":"error","name":"Membership__AlreadyMember","inputs":[]},{"type":"error","name":"Membership__InsufficientAllowance","inputs":[]},{"type":"error","name":"Membership__InsufficientPayment","inputs":[]},{"type":"error","name":"Membership__InvalidAddress","inputs":[]},{"type":"error","name":"Membership__InvalidCurrency","inputs":[]},{"type":"error","name":"Membership__InvalidDuration","inputs":[]},{"type":"error","name":"Membership__InvalidFeeRecipient","inputs":[]},{"type":"error","name":"Membership__InvalidFreeAllocation","inputs":[]},{"type":"error","name":"Membership__InvalidLimit","inputs":[]},{"type":"error","name":"Membership__InvalidMaxSupply","inputs":[]},{"type":"error","name":"Membership__InvalidPayment","inputs":[]},{"type":"error","name":"Membership__InvalidPrice","inputs":[]},{"type":"error","name":"Membership__InvalidPricingModule","inputs":[]},{"type":"error","name":"Membership__InvalidTokenId","inputs":[]},{"type":"error","name":"Membership__InvalidTransactionType","inputs":[]},{"type":"error","name":"Membership__MaxSupplyReached","inputs":[]},{"type":"error","name":"Membership__NotExpired","inputs":[]},{"type":"error","name":"Membership__PriceTooLow","inputs":[]},{"type":"error","name":"MintERC2309QuantityExceedsLimit","inputs":[]},{"type":"error","name":"MintToZeroAddress","inputs":[]},{"type":"error","name":"MintZeroQuantity","inputs":[]},{"type":"error","name":"Ownable__NotOwner","inputs":[{"name":"account","type":"address","internalType":"address"}]},{"type":"error","name":"Ownable__ZeroAddress","inputs":[]},{"type":"error","name":"OwnerQueryForNonexistentToken","inputs":[]},{"type":"error","name":"OwnershipNotInitializedForExtraData","inputs":[]},{"type":"error","name":"PartnerRegistry__InvalidPartnerFee","inputs":[{"name":"fee","type":"uint256","internalType":"uint256"}]},{"type":"error","name":"PartnerRegistry__InvalidRecipient","inputs":[]},{"type":"error","name":"PartnerRegistry__NotPartnerAccount","inputs":[{"name":"account","type":"address","internalType":"address"}]},{"type":"error","name":"PartnerRegistry__PartnerAlreadyRegistered","inputs":[{"name":"account","type":"address","internalType":"address"}]},{"type":"error","name":"PartnerRegistry__PartnerNotActive","inputs":[{"name":"account","type":"address","internalType":"address"}]},{"type":"error","name":"PartnerRegistry__PartnerNotRegistered","inputs":[{"name":"account","type":"address","internalType":"address"}]},{"type":"error","name":"PartnerRegistry__RegistryFeeNotPaid","inputs":[{"name":"fee","type":"uint256","internalType":"uint256"}]},{"type":"error","name":"Pausable__NotPaused","inputs":[]},{"type":"error","name":"Pausable__Paused","inputs":[]},{"type":"error","name":"Prepay__InvalidAddress","inputs":[]},{"type":"error","name":"Prepay__InvalidAmount","inputs":[]},{"type":"error","name":"Prepay__InvalidMembership","inputs":[]},{"type":"error","name":"Prepay__InvalidSupplyAmount","inputs":[]},{"type":"error","name":"ReentrancyGuard__ReentrantCall","inputs":[]},{"type":"error","name":"Referrals__InvalidBasisPoints","inputs":[]},{"type":"error","name":"Referrals__InvalidBpsFee","inputs":[]},{"type":"error","name":"Referrals__InvalidRecipient","inputs":[]},{"type":"error","name":"Referrals__InvalidReferralCode","inputs":[]},{"type":"error","name":"Referrals__ReferralAlreadyExists","inputs":[]},{"type":"error","name":"Roles__EntitlementAlreadyExists","inputs":[]},{"type":"error","name":"Roles__EntitlementDoesNotExist","inputs":[]},{"type":"error","name":"Roles__InvalidEntitlementAddress","inputs":[]},{"type":"error","name":"Roles__InvalidPermission","inputs":[]},{"type":"error","name":"Roles__PermissionAlreadyExists","inputs":[]},{"type":"error","name":"Roles__PermissionDoesNotExist","inputs":[]},{"type":"error","name":"Roles__RoleDoesNotExist","inputs":[]},{"type":"error","name":"SafeERC20FailedOperation","inputs":[{"name":"token","type":"address","internalType":"address"}]},{"type":"error","name":"TransferCallerNotOwnerNorApproved","inputs":[]},{"type":"error","name":"TransferFromIncorrectOwner","inputs":[]},{"type":"error","name":"TransferToNonERC721ReceiverImplementer","inputs":[]},{"type":"error","name":"TransferToZeroAddress","inputs":[]},{"type":"error","name":"URIQueryForNonexistentToken","inputs":[]}],"bytecode":{"object":"0x60806040523480156200001157600080fd5b506200001c62000022565b620000ca565b7f59b501c3653afc186af7d48dda36cf6732bd21629a6295693664240a6ef520008054640100000000900460ff16156200006f576040516366008a2d60e01b815260040160405180910390fd5b805463ffffffff9081161015620000c757805463ffffffff191663ffffffff90811782556040519081527fe9c9b456cb2994b80aeef036cf59d26e9617df80f816a6ee5a5b4166e07e2f5c9060200160405180910390a15b50565b613f3380620000da6000396000f3fe6080604052600436106101145760003560e01c8063706b8e09116100a057806393b13cb71161006457806393b13cb7146102f557806395d600c81461031757806397fb7c1e1461032c578063df9a9fe61461034c578063e847abdd1461036c57600080fd5b8063706b8e091461027857806379dda5851461028d5780637c9669ac146102a25780638120f0ba146102b55780638c625b06146102e257600080fd5b80635803909f116100e75780635803909f146101d85780635becd24a146101f8578063657e45e814610218578063686f76841461024557806369d5f38a1461025857600080fd5b80630ef1be5f146101195780631278076a1461013b57806317c957091461016357806351cff8d9146101b8575b600080fd5b34801561012557600080fd5b5061013961013436600461352c565b610381565b005b34801561014757600080fd5b50610150610404565b6040519081526020015b60405180910390f35b34801561016f57600080fd5b5061015061017e36600461359d565b60009081527f4775a23600034fdd9f073b224f794d51a58b35ba663a9602623ba7a5c09cce0060205260409020546001600160401b031690565b3480156101c457600080fd5b506101396101d33660046135cb565b61041b565b3480156101e457600080fd5b506101506101f336600461359d565b6104bd565b34801561020457600080fd5b5061013961021336600461359d565b6104d6565b34801561022457600080fd5b5061022d61055b565b6040516001600160a01b03909116815260200161015a565b61013961025336600461367d565b610565565b34801561026457600080fd5b5061013961027336600461359d565b6105cd565b34801561028457600080fd5b5061015061067b565b34801561029957600080fd5b5061022d610685565b6101396102b036600461359d565b61068f565b3480156102c157600080fd5b506102ca6107ef565b6040516001600160401b03909116815260200161015a565b6101396102f03660046135cb565b6107f9565b34801561030157600080fd5b5061030a61089e565b60405161015a91906137b7565b34801561032357600080fd5b506101506108a8565b34801561033857600080fd5b5061013961034736600461359d565b6108b2565b34801561035857600080fd5b506101396103673660046135cb565b610907565b34801561037857600080fd5b5061022d610954565b61038961095e565b6001600160a01b0316336001600160a01b0316146103c1576040516365f4906560e01b81523360048201526024015b60405180910390fd5b61040082828080601f016020809104026020016040519081016040528093929190818152602001838380828437600092019190915250610a2892505050565b5050565b6000610416610411610a3f565b610a75565b905090565b61042361095e565b6001600160a01b0316336001600160a01b031614610456576040516365f4906560e01b81523360048201526024016103b8565b6001600160a01b03811661047d57604051635fbd571760e01b815260040160405180910390fd5b6000610487610b75565b9050806000036104aa57604051635894b54560e11b815260040160405180910390fd5b6104006104b5610b88565b308484610ba4565b60006104d0826104cb610a3f565b610bf0565b92915050565b6104de61095e565b6001600160a01b0316336001600160a01b031614610511576040516365f4906560e01b81523360048201526024016103b8565b600061051b610c36565b9050801580159061052b57508082115b156105495760405163c3983b9160e01b815260040160405180910390fd5b61055282610c49565b61040082610cee565b6000610416610b88565b6002600080516020613ed3833981519152540361059557604051635db5c7cd60e11b815260040160405180910390fd5b6105ac6002600080516020613ed383398151915255565b6105b68282610d31565b6104006001600080516020613ed383398151915255565b6105d561095e565b6001600160a01b0316336001600160a01b031614610608576040516365f4906560e01b81523360048201526024016103b8565b61061181610e89565b610619610f17565b6001600160a01b03166391b7f5ed826040518263ffffffff1660e01b815260040161064691815260200190565b600060405180830381600087803b15801561066057600080fd5b505af1158015610674573d6000803e3d6000fd5b5050505050565b6000610416610f33565b6000610416610fd2565b6002600080516020613ed383398151915254036106bf57604051635db5c7cd60e11b815260040160405180910390fd5b6106d66002600080516020613ed383398151915255565b60006106e182610fee565b90506001600160a01b03811661070a57604051635fbd571760e01b815260040160405180910390fd5b60008281527f4775a23600034fdd9f073b224f794d51a58b35ba663a9602623ba7a5c09cce0060205260409020546001600160401b0316610749610ff9565b6001600160401b031661075c42836137e0565b1061077a5760405163dce9a1d360e01b815260040160405180910390fd5b6000610788846104cb610a3f565b905080156107c157600061079c848361107f565b905060006107aa82846137e0565b905080156107be576107bc8582611197565b505b50505b6107d2846107cd610ff9565b611335565b5050506107ec6001600080516020613ed383398151915255565b50565b6000610416610ff9565b6002600080516020613ed3833981519152540361082957604051635db5c7cd60e11b815260040160405180910390fd5b6108406002600080516020613ed383398151915255565b61088781604051806060016040528060006001600160a01b0316815260200160006001600160a01b0316815260200160405180602001604052806000815250815250610d31565b6107ec6001600080516020613ed383398151915255565b60606104166113fe565b6000610416610c36565b6108ba61095e565b6001600160a01b0316336001600160a01b0316146108ed576040516365f4906560e01b81523360048201526024016103b8565b6108fe816108f9610a3f565b611499565b6107ec816114ba565b61090f61095e565b6001600160a01b0316336001600160a01b031614610942576040516365f4906560e01b81523360048201526024016103b8565b61094b816114ca565b6107ec81611582565b6000610416610f17565b6040805180820182527fd2f24d4f172e4e84e48e7c4125b6e904c29e5eba33ad4938fee51dd5dbd4b600546001600160a01b03168082527fd2f24d4f172e4e84e48e7c4125b6e904c29e5eba33ad4938fee51dd5dbd4b60154602080840182905284516331a9108f60e11b815260048101929092529351600094636352211e92602480820193918290030181865afa1580156109fe573d6000803e3d6000fd5b505050506040513d601f19601f82011682018060405250810190610a2291906137f3565b91505090565b80610a316115af565b600c01906104009082613894565b7f6569bde4a160c636ea8b8d11acb83a60d7fec0b8f2e09389306cba0e1340df0154600080516020613eb3833981519152540390565b600080610a806115af565b90506000610a8c610f33565b60088301549091506001600160a01b031615610b20576008820154604051635cf4ee9160e01b815260048101839052602481018690526001600160a01b0390911690635cf4ee9190604401602060405180830381865afa158015610af4573d6000803e3d6000fd5b505050506040513d601f19601f82011682018060405250810190610b189190613953565b949350505050565b8160060160009054906101000a90046001600160a01b03166001600160a01b0316631b159e2e6040518163ffffffff1660e01b8152600401602060405180830381865afa158015610af4573d6000803e3d6000fd5b6000610b7f6115af565b600a0154905090565b6000610b926115af565b600401546001600160a01b0316919050565b8015610bea5773eeeeeeeeeeeeeeeeeeeeeeeeeeeeeeeeeeeeeeed196001600160a01b03851601610bde57610bd982826115d3565b610bea565b610bea8484848461167b565b50505050565b600080610bfb6115af565b600085815260098201602052604090205490915015610c2d5760008481526009909101602052604090205490506104d0565b610b1883610a75565b6000610c406115af565b60030154905090565b6000610c536115af565b90508060060160009054906101000a90046001600160a01b03166001600160a01b0316632cbb9d136040518163ffffffff1660e01b8152600401602060405180830381865afa158015610caa573d6000803e3d6000fd5b505050506040513d601f19601f82011682018060405250810190610cce9190613953565b8211156104005760405163c3983b9160e01b815260040160405180910390fd5b6000610cf86115af565b6007810183905560405190915082907fab14a23e88fb272313490d4f20d63098e64fd38304c0e07a377db98c2b39b92f90600090a25050565b610d3a826116ce565b336000610d4683611737565b9050600081610d745783604051602001610d60919061396c565b604051602081830303815290604052610d85565b604051806020016040528060008152505b9050600082610d9b57631a1bdda160e21b610da4565b6346312d8360e11b5b90506000610dbe85610db884888b8861176e565b346117a0565b9050600080610dcd87846118b4565b9150915080610e7e578115610e26576000610de88885611ad2565b90508015610e0d578615610e0457610dff84611b3e565b610e17565b610dff84611c5b565b610e178489611dd7565b610e208a611e0e565b50610e7e565b610e3f8360405180602001604052806000815250611e7f565b610e498388611dd7565b6040516001600160a01b038a16907f86fd446d5c04e892d58b448a924dcd9c3ece3a5e0d2960b8c35cd475a5595a1f90600090a25b505050505050505050565b6000610e93610fd2565b6001600160a01b0316631b159e2e6040518163ffffffff1660e01b8152600401602060405180830381865afa158015610ed0573d6000803e3d6000fd5b505050506040513d601f19601f82011682018060405250810190610ef49190613953565b90508082101561040057604051631a23d64760e11b815260040160405180910390fd5b6000610f216115af565b600801546001600160a01b0316919050565b600080610f3e6115af565b60078101549091508015610f525792915050565b8160060160009054906101000a90046001600160a01b03166001600160a01b0316632cbb9d136040518163ffffffff1660e01b8152600401602060405180830381865afa158015610fa7573d6000803e3d6000fd5b505050506040513d601f19601f82011682018060405250810190610fcb9190613953565b9250505090565b6000610fdc6115af565b600601546001600160a01b0316919050565b60006104d082611ec6565b6000806110046115af565b90508060060160009054906101000a90046001600160a01b03166001600160a01b0316638120f0ba6040518163ffffffff1660e01b8152600401602060405180830381865afa15801561105b573d6000803e3d6000fd5b505050506040513d601f19601f82011682018060405250810190610a2291906139a7565b60008061108a6115af565b6006810154600480830154604080516301332c8360e61b815290519495506001600160a01b039384169493909116926000928592634ccb20c092818301926020928290030181865afa1580156110e4573d6000803e3d6000fd5b505050506040513d601f19601f8201168201806040525081019061110891906137f3565b90506000836001600160a01b0316639f6542aa6040518163ffffffff1660e01b8152600401602060405180830381865afa15801561114a573d6000803e3d6000fd5b505050506040513d601f19601f8201168201806040525081019061116e91906139d0565b905061117e878261ffff16611f7f565b955061118c83898489610ba4565b505050505092915050565b6000806111a26115af565b905060006111ae610b88565b905073eeeeeeeeeeeeeeeeeeeeeeeeeeeeeeeeeeeeeeed196001600160a01b038216016111f9578382600a0160008282546111e991906139f4565b909155508493506104d092505050565b6040516370a0823160e01b815230600482015281906000906001600160a01b038316906370a0823190602401602060405180830381865afa158015611242573d6000803e3d6000fd5b505050506040513d601f19601f820116820180604052508101906112669190613953565b905061127483883089610ba4565b6040516370a0823160e01b81523060048201526000906001600160a01b038416906370a0823190602401602060405180830381865afa1580156112bb573d6000803e3d6000fd5b505050506040513d601f19601f820116820180604052508101906112df9190613953565b905060006112ed83836137e0565b905087811461130f57604051635894b54560e11b815260040160405180910390fd5b8086600a01600082825461132391906139f4565b90915550909998505050505050505050565b60008281527f4775a23600034fdd9f073b224f794d51a58b35ba663a9602623ba7a5c09cce006020819052604082205490916001600160401b039091169081810361138b576113848442613a07565b9050611398565b6113958483613a07565b90505b60008581526020848152604091829020805467ffffffffffffffff19166001600160401b038516908117909155915191825286917f2ec2be2c4b90c2cf13ecb6751a24daed6bb741ae5ed3f7371aabf9402f6d62e8910160405180910390a25050505050565b60606114086115af565b600c01805461141690613810565b80601f016020809104026020016040519081016040528092919081815260200182805461144290613810565b801561148f5780601f106114645761010080835404028352916020019161148f565b820191906000526020600020905b81548152906001019060200180831161147257829003601f168201915b5050505050905090565b8082101561040057604051636664d51760e11b815260040160405180910390fd5b806114c36115af565b6003015550565b6001600160a01b0381166114f157604051630e88bf4b60e01b815260040160405180910390fd5b6114f9610fd2565b6040516346fc05eb60e11b81526001600160a01b0383811660048301529190911690638df80bd690602401602060405180830381865afa158015611541573d6000803e3d6000fd5b505050506040513d601f19601f820116820180604052508101906115659190613a43565b6107ec57604051630e88bf4b60e01b815260040160405180910390fd5b8061158b6115af565b60080180546001600160a01b0319166001600160a01b039290921691909117905550565b7fc21004fcc619240a31f006438274d15cd813308303284436eef6055f0fdcb60090565b6000826001600160a01b03168260405160006040518083038185875af1925050503d8060008114611620576040519150601f19603f3d011682016040523d82523d6000602084013e611625565b606091505b50509050806116765760405162461bcd60e51b815260206004820152601c60248201527f6e617469766520746f6b656e207472616e73666572206661696c65640000000060448201526064016103b8565b505050565b816001600160a01b0316836001600160a01b03160315610bea57306001600160a01b038416036116b957610bd96001600160a01b0385168383611ff4565b610bea6001600160a01b038516848484612053565b6001600160a01b0381166116f557604051635fbd571760e01b815260040160405180910390fd5b6116fd610c36565b15801590611719575061170e610c36565b611716610a3f565b10155b156107ec57604051637efcdb4960e01b815260040160405180910390fd5b80516000906001600160a01b031615801561175d575060208201516001600160a01b0316155b80156104d057505060400151511590565b6060848484846040516020016117879493929190613a5e565b6040516020818303038152906040529050949350505050565b6040516bffffffffffffffffffffffff19606085901b166020820152436034820152600090819060540160405160208183030381529060405280519060200120905060006118628261183684896117f68761208c565b604080516020808201959095526001600160a01b039390931683820152606080840192909252805180840390920182526080909201909152805191012090565b604080516020808201949094528082019290925280518083038201815260609092019052805191012090565b9050600061186f826120c1565b51111561188f5760405163f82e65c360e01b815260040160405180910390fd5b6118998186611e7f565b83156118a9576118a98185612192565b9150505b9392505050565b60008060006118e3604051806040016040528060098152602001684a6f696e537061636560b81b815250612218565b905060006118f0866123ba565b825190915060005b81811015611ac657600084828151811061191457611914613a9a565b6020026020010151905080604001511561192e5750611abe565b60005b816080015151811015611abb5760008260800151828151811061195657611956613a9a565b60200260200101519050806001600160a01b0316630cf0b5336000801b88604051806040016040528060098152602001684a6f696e537061636560b81b8152506040516020016119a69190613ab0565b6040516020818303038152906040526119be90613acc565b6040518463ffffffff1660e01b81526004016119dc93929190613b35565b602060405180830381865afa1580156119f9573d6000803e3d6000fd5b505050506040513d601f19601f82011682018060405250810190611a1d9190613a43565b15611a3757506001975060009650611acb95505050505050565b806001600160a01b0316632e1b61e46040518163ffffffff1660e01b8152600401602060405180830381865afa158015611a75573d6000803e3d6000fd5b505050506040513d601f19601f82011682018060405250810190611a999190613a43565b15611ab257611aad8a828560000151612622565b600197505b50600101611931565b50505b6001016118f8565b505050505b9250929050565b600080611add610a3f565b90506000611ae9610f33565b90506000611af5612904565b905082821115611b125760009350611b0d8587611dd7565b611b35565b8015611b305760009350611b26600161292e565b611b0d8587611dd7565b600193505b50505092915050565b6000611b4b610411610a3f565b6000838152600080516020613f138339815191526020526040812054919250819003611b8a57604051635894b54560e11b815260040160405180910390fd5b818114611baa576040516334a7a93d60e01b815260040160405180910390fd5b600080611bb6856120c1565b806020019051810190611bc99190613ba6565b509193509150506001600160e01b031982166346312d8360e11b14611c015760405163da6153bd60e01b815260040160405180910390fd5b6000611c0d828661107f565b90506000611c1b82876137e0565b90508015611c2f57611c2d8382611197565b505b611c39878761296c565b611c528760405180602001604052806000815250611e7f565b50505050505050565b6000611c68610411610a3f565b6000838152600080516020613f138339815191526020526040812054919250819003611ca757604051635894b54560e11b815260040160405180910390fd5b818114611cc7576040516334a7a93d60e01b815260040160405180910390fd5b6000806000611cd5866120c1565b806020019051810190611ce89190613ba6565b929550909350909150506001600160e01b03198316631a1bdda160e21b14611d235760405163da6153bd60e01b815260040160405180910390fd5b600080600083806020019051810190611d3c9190613c2e565b9250925092506000611d4e868a61107f565b90506000611d5d87868c6129a7565b90506000611d6d8886868e612a83565b905060008183611d7d868f6137e0565b611d8791906137e0565b611d9191906137e0565b90508015611da557611da38982611197565b505b611daf8d8d61296c565b611dc88d60405180602001604052806000815250611e7f565b50505050505050505050505050565b6000828152600080516020613f138339815191526020526040902054801561167657611e03838261296c565b6116766104b5610b88565b6000611e18612b79565b9050611e2e81611e29610411610a3f565b612b8f565b611e39826001612baf565b611e45816107cd610ff9565b60405181906001600160a01b038416907f2f40b0474996b72a4251e00fb9170cdd960deea1dc749772cbbab61395b9b57690600090a35050565b60008281527f34516f6fe09a043d57f1ff579a303a7ae85314751c77b4eb1a55837604a86e0260205260409020600080516020613ef383398151915290610bea8382613894565b60008181527f6569bde4a160c636ea8b8d11acb83a60d7fec0b8f2e09389306cba0e1340df04602052604081205490600080516020613eb383398151915290600160e01b83169003611f655781600003611f5f5780548310611f3b57604051636f96cda160e11b815260040160405180910390fd5b5b600019909201600081815260048401602052604090205490929091508115611f3c575b50919050565b50604051636f96cda160e11b815260040160405180910390fd5b6000612710821115611fdd5760405162461bcd60e51b815260206004820152602160248201527f426173697320706f696e74732063616e6e6f74206578636565642031305f30306044820152600360fc1b60648201526084016103b8565b612710611fea8385613ca5565b6118ad9190613cbc565b6040516001600160a01b0383811660248301526044820183905261167691859182169063a9059cbb906064015b604051602081830303815290604052915060e01b6020820180516001600160e01b038381831617835250505050612bc9565b6040516001600160a01b038481166024830152838116604483015260648201839052610bea9186918216906323b872dd90608401612021565b6000818152600080516020613ef3833981519152602081905260408220805490836120b683613cde565b909155509392505050565b60008181527f34516f6fe09a043d57f1ff579a303a7ae85314751c77b4eb1a55837604a86e02602052604090208054606091600080516020613ef38339815191529161210c90613810565b80601f016020809104026020016040519081016040528092919081815260200182805461213890613810565b80156121855780601f1061215a57610100808354040283529160200191612185565b820191906000526020600020905b81548152906001019060200180831161216857829003601f168201915b5050505050915050919050565b806000036121b35760405163acdc0d4960e01b815260040160405180910390fd5b8034146121d35760405163acdc0d4960e01b815260040160405180910390fd5b6000828152600080516020613f13833981519152602052604081208054600080516020613ef38339815191529284929161220e9084906139f4565b9091555050505050565b60606000612224612c2c565b80519091506000816001600160401b03811115612243576122436135e8565b6040519080825280602002602001820160405280156122a857816020015b6122956040518060a00160405280600081526020016060815260200160001515815260200160608152602001606081525090565b8152602001906001900390816122615790505b5085516020870120909150600090815b848110156123ae576000806000806122e88a86815181106122db576122db613a9a565b6020026020010151612c57565b935093509350935060005b825181101561239d578683828151811061230f5761230f613a9a565b60200260200101518051906020012003612395576040518060a001604052808c888151811061234057612340613a9a565b6020026020010151815260200186815260200185151581526020018481526020018381525089898151811061237757612377613a9a565b6020026020010181905250878061238d90613cde565b98505061239d565b6001016122f3565b5050600190930192506122b8915050565b50508152949350505050565b606060006123c66115af565b6006015460405162468b7360e31b81526001600160a01b038581166004830152909116915060009082906302345b9890602401600060405180830381865afa158015612416573d6000803e3d6000fd5b505050506040513d6000823e601f3d908101601f1916820160405261243e9190810190613cf7565b604051631f04207360e31b81526001600160a01b03868116600483015291925060009184169063f821039890602401602060405180830381865afa15801561248a573d6000803e3d6000fd5b505050506040513d601f19601f820116820180604052508101906124ae91906137f3565b9050815160001480156124c957506001600160a01b03811615155b156125435760405162468b7360e31b81526001600160a01b03808316600483015291955085918416906302345b9890602401600060405180830381865afa158015612518573d6000803e3d6000fd5b505050506040513d6000823e601f3d908101601f191682016040526125409190810190613cf7565b91505b815160006125528260016139f4565b6001600160401b03811115612569576125696135e8565b604051908082528060200260200182016040528015612592578160200160208202803683370190505b50905060005b828110156125ec578481815181106125b2576125b2613a9a565b60200260200101518282815181106125cc576125cc613a9a565b6001600160a01b0390921660209283029190910190910152600101612598565b508681838151811061260057612600613a9a565b6001600160a01b03909216602092830291909101909101529695505050505050565b60008381527f9075c515a635ba70c9696f31149324218d75cf00afe836c482e6473f38b19e016020526040902080547f9075c515a635ba70c9696f31149324218d75cf00afe836c482e6473f38b19e00919060ff16156126d657600481015460005b818110156126d357848360040182815481106126a2576126a2613a9a565b9060005260206000200154036126cb576040516301ab53df60e31b815260040160405180910390fd5b600101612684565b50505b81546001600160a01b03166126ed576126ed612d79565b8154604051634f84544560e01b8152600560048201526000916001600160a01b031690634f84544590602401600060405180830381865afa158015612736573d6000803e3d6000fd5b505050506040513d6000823e601f3d908101601f1916820160405261275e9190810190613cf7565b825490915060ff1661279f5781546003830180546001600160a01b0319166001600160a01b0388161790556001600160a81b03191661010033021760011782555b600482018054600181810183556000928352602080842090920187905583518784529085019091526040822090915b82811015612892578160405180604001604052808684815181106127f4576127f4613a9a565b60200260200101516001600160a01b031681526020016000600281111561281d5761281d613da8565b9052815460018101835560009283526020928390208251910180546001600160a01b031981166001600160a01b03909316928317825593830151929390929183916001600160a81b03191617600160a01b83600281111561288057612880613da8565b021790555050508060010190506127ce565b50845460405163541da4e560e01b81526001600160a01b039091169063541da4e5906128c89033908c908b908990600401613dbe565b600060405180830381600087803b1580156128e257600080fd5b505af11580156128f6573d6000803e3d6000fd5b505050505050505050505050565b60007f097b4f25b64e012d0cf55f67e9b34fe5d57f15b11b95baa4ddd136b424967c005b54919050565b7f097b4f25b64e012d0cf55f67e9b34fe5d57f15b11b95baa4ddd136b424967c008054829082906000906129639084906137e0565b90915550505050565b6000828152600080516020613f13833981519152602052604081208054600080516020613ef38339815191529284929161220e9084906137e0565b60006001600160a01b0383166129bf575060006118ad565b60006129c9610fd2565b604051630b969ea960e31b81526001600160a01b0386811660048301529190911690635cb4f54890602401608060405180830381865afa158015612a11573d6000803e3d6000fd5b505050506040513d601f19601f82011682018060405250810190612a359190613deb565b90508060400151600003612a4d5760009150506118ad565b604081015160208201516000612a638684611f7f565b9050612a78612a70610b88565b898484610ba4565b979650505050505050565b6000808351600003612af8576000612a9a85612e3f565b60408101519091506001600160a01b03161580612ab957506020810151155b15612ac957600092505050610b18565b6020810151612ad88582611f7f565b9250612af1612ae5610b88565b89846040015186610ba4565b5050612b70565b6001600160a01b03851615612b7057856001600160a01b0316856001600160a01b031603612b2a576000915050610b18565b612b5b83612b567faca21cc4d2a125f3e0ae03aa135d42b2b9177631aca87599d42a68b47e9008015490565b611f7f565b9050612b70612b68610b88565b878784610ba4565b95945050505050565b6000600080516020613eb3833981519152612928565b80612b986115af565b600093845260090160205260409092209190915550565b610400828260405180602001604052806000815250612ed0565b6000612bde6001600160a01b03841683612f50565b90508051600014158015612c03575080806020019051810190612c019190613a43565b155b1561167657604051635274afe760e01b81526001600160a01b03841660048201526024016103b8565b60606104167f672ef851d5f92307da037116e23aa9e31af7e1f7e3ca62c4e6d540631df3fd01612f5e565b60008181527f672ef851d5f92307da037116e23aa9e31af7e1f7e3ca62c4e6d540631df3fd0360205260408120805460609291839182917f672ef851d5f92307da037116e23aa9e31af7e1f7e3ca62c4e6d540631df3fd0091612cb990613810565b80601f0160208091040260200160405190810160405280929190818152602001828054612ce590613810565b8015612d325780601f10612d0757610100808354040283529160200191612d32565b820191906000526020600020905b815481529060010190602001808311612d1557829003601f168201915b50505060008981526003850160205260409020600181015493985060ff9093169650612d64926002019150612f6b9050565b9250612d6f86612f76565b9150509193509193565b7f9075c515a635ba70c9696f31149324218d75cf00afe836c482e6473f38b19e006000612da46115af565b60060154604051628956cd60e71b81526c29b830b1b2a7b832b930ba37b960991b60048201526001600160a01b03909116906344ab668090602401602060405180830381865afa158015612dfc573d6000803e3d6000fd5b505050506040513d601f19601f82011682018060405250810190612e2091906137f3565b82546001600160a01b0319166001600160a01b03919091161790915550565b612e6c6040518060600160405280606081526020016000815260200160006001600160a01b031681525090565b50805160208083019190912060009081527faca21cc4d2a125f3e0ae03aa135d42b2b9177631aca87599d42a68b47e900802825260409081902081516060810183529384528054928401929092526001909101546001600160a01b03169082015290565b612eda8383613053565b6001600160a01b0383163b1561167657600080516020613eb3833981519152548281035b612f1160008683806001019450866131a9565b612f2e576040516368d2bf6b60e11b815260040160405180910390fd5b818110612efe5781600080516020613eb3833981519152541461067457600080fd5b60606118ad83836000613291565b606060006118ad8361332e565b60606104d08261338a565b60008181527f672ef851d5f92307da037116e23aa9e31af7e1f7e3ca62c4e6d540631df3fd0360205260408120606091600490910190612fb582613467565b90506000816001600160401b03811115612fd157612fd16135e8565b604051908082528060200260200182016040528015612ffa578160200160208202803683370190505b50905060005b8281101561304a5760006130148583613471565b90508083838151811061302957613029613a9a565b6001600160a01b039092166020928302919091019091015250600101613000565b50949350505050565b600080516020613eb38339815191525460008290036130855760405163b562e8dd60e01b815260040160405180910390fd5b6001600160a01b03831660008181527f6569bde4a160c636ea8b8d11acb83a60d7fec0b8f2e09389306cba0e1340df056020908152604080832080546801000000000000000188020190558483527f6569bde4a160c636ea8b8d11acb83a60d7fec0b8f2e09389306cba0e1340df0490915281206001851460e11b4260a01b178317905582840190839083907fddf252ad1be2c89b69c2b068fc378daa952ba7f163c4a11628f55a4df523b3ef8180a4600183015b81811461317257808360007fddf252ad1be2c89b69c2b068fc378daa952ba7f163c4a11628f55a4df523b3ef600080a460010161313a565b508160000361319357604051622e076360e81b815260040160405180910390fd5b600080516020613eb38339815191525550505050565b604051630a85bd0160e11b81526000906001600160a01b0385169063150b7a02906131de903390899088908890600401613e64565b6020604051808303816000875af1925050508015613219575060408051601f3d908101601f1916820190925261321691810190613e97565b60015b613277573d808015613247576040519150601f19603f3d011682016040523d82523d6000602084013e61324c565b606091505b50805160000361326f576040516368d2bf6b60e11b815260040160405180910390fd5b805181602001fd5b6001600160e01b031916630a85bd0160e11b149050610b18565b6060814710156132b65760405163cd78605960e01b81523060048201526024016103b8565b600080856001600160a01b031684866040516132d29190613ab0565b60006040518083038185875af1925050503d806000811461330f576040519150601f19603f3d011682016040523d82523d6000602084013e613314565b606091505b509150915061332486838361347d565b9695505050505050565b60608160000180548060200260200160405190810160405280929190818152602001828054801561337e57602002820191906000526020600020905b81548152602001906001019080831161336a575b50505050509050919050565b606081600001805480602002602001604051908101604052809291908181526020016000905b8282101561345c5783829060005260206000200180546133cf90613810565b80601f01602080910402602001604051908101604052809291908181526020018280546133fb90613810565b80156134485780601f1061341d57610100808354040283529160200191613448565b820191906000526020600020905b81548152906001019060200180831161342b57829003601f168201915b5050505050815260200190600101906133b0565b505050509050919050565b60006104d0825490565b60006118ad83836134d9565b6060826134925761348d82613503565b6118ad565b81511580156134a957506001600160a01b0384163b155b156134d257604051639996b31560e01b81526001600160a01b03851660048201526024016103b8565b50806118ad565b60008260000182815481106134f0576134f0613a9a565b9060005260206000200154905092915050565b8051156135135780518082602001fd5b604051630a12f52160e11b815260040160405180910390fd5b6000806020838503121561353f57600080fd5b82356001600160401b038082111561355657600080fd5b818501915085601f83011261356a57600080fd5b81358181111561357957600080fd5b86602082850101111561358b57600080fd5b60209290920196919550909350505050565b6000602082840312156135af57600080fd5b5035919050565b6001600160a01b03811681146107ec57600080fd5b6000602082840312156135dd57600080fd5b81356118ad816135b6565b634e487b7160e01b600052604160045260246000fd5b604051606081016001600160401b0381118282101715613620576136206135e8565b60405290565b604051601f8201601f191681016001600160401b038111828210171561364e5761364e6135e8565b604052919050565b60006001600160401b0382111561366f5761366f6135e8565b50601f01601f191660200190565b6000806040838503121561369057600080fd5b823561369b816135b6565b91506020838101356001600160401b03808211156136b857600080fd5b90850190606082880312156136cc57600080fd5b6136d46135fe565b82356136df816135b6565b8152828401356136ee816135b6565b8185015260408301358281111561370457600080fd5b80840193505087601f84011261371957600080fd5b8235915061372e61372983613656565b613626565b828152888584860101111561374257600080fd5b8285850186830137600085848301015280604083015250809450505050509250929050565b60005b8381101561378257818101518382015260200161376a565b50506000910152565b600081518084526137a3816020860160208601613767565b601f01601f19169290920160200192915050565b6020815260006118ad602083018461378b565b634e487b7160e01b600052601160045260246000fd5b818103818111156104d0576104d06137ca565b60006020828403121561380557600080fd5b81516118ad816135b6565b600181811c9082168061382457607f821691505b602082108103611f5f57634e487b7160e01b600052602260045260246000fd5b601f821115611676576000816000526020600020601f850160051c8101602086101561386d5750805b601f850160051c820191505b8181101561388c57828155600101613879565b505050505050565b81516001600160401b038111156138ad576138ad6135e8565b6138c1816138bb8454613810565b84613844565b602080601f8311600181146138f657600084156138de5750858301515b600019600386901b1c1916600185901b17855561388c565b600085815260208120601f198616915b8281101561392557888601518255948401946001909101908401613906565b50858210156139435787850151600019600388901b60f8161c191681555b5050505050600190811b01905550565b60006020828403121561396557600080fd5b5051919050565b60208152600060018060a01b03808451166020840152806020850151166040840152506040830151606080840152610b18608084018261378b565b6000602082840312156139b957600080fd5b81516001600160401b03811681146118ad57600080fd5b6000602082840312156139e257600080fd5b815161ffff811681146118ad57600080fd5b808201808211156104d0576104d06137ca565b6001600160401b03818116838216019080821115613a2757613a276137ca565b5092915050565b80518015158114613a3e57600080fd5b919050565b600060208284031215613a5557600080fd5b6118ad82613a2e565b6001600160e01b0319851681526001600160a01b038481166020830152831660408201526080606082018190526000906133249083018461378b565b634e487b7160e01b600052603260045260246000fd5b60008251613ac2818460208701613767565b9190910192915050565b80516020808301519190811015611f5f5760001960209190910360031b1b16919050565b60008151808452602080850194506020840160005b83811015613b2a5781516001600160a01b031687529582019590820190600101613b05565b509495945050505050565b838152606060208201526000613b4e6060830185613af0565b9050826040830152949350505050565b80516001600160e01b031981168114613a3e57600080fd5b6000613b8461372984613656565b9050828152838383011115613b9857600080fd5b6118ad836020830184613767565b60008060008060808587031215613bbc57600080fd5b613bc585613b5e565b93506020850151613bd5816135b6565b6040860151909350613be6816135b6565b60608601519092506001600160401b03811115613c0257600080fd5b8501601f81018713613c1357600080fd5b613c2287825160208401613b76565b91505092959194509250565b600080600060608486031215613c4357600080fd5b8351613c4e816135b6565b6020850151909350613c5f816135b6565b60408501519092506001600160401b03811115613c7b57600080fd5b8401601f81018613613c8c57600080fd5b613c9b86825160208401613b76565b9150509250925092565b80820281158282048414176104d0576104d06137ca565b600082613cd957634e487b7160e01b600052601260045260246000fd5b500490565b600060018201613cf057613cf06137ca565b5060010190565b60006020808385031215613d0a57600080fd5b82516001600160401b0380821115613d2157600080fd5b818501915085601f830112613d3557600080fd5b815181811115613d4757613d476135e8565b8060051b9150613d58848301613626565b8181529183018401918481019088841115613d7257600080fd5b938501935b83851015613d9c5784519250613d8c836135b6565b8282529385019390850190613d77565b98975050505050505050565b634e487b7160e01b600052602160045260246000fd5b60018060a01b03851681528360208201528260408201526080606082015260006133246080830184613af0565b600060808284031215613dfd57600080fd5b604051608081018181106001600160401b0382111715613e1f57613e1f6135e8565b6040528251613e2d816135b6565b81526020830151613e3d816135b6565b602082015260408381015190820152613e5860608401613a2e565b60608201529392505050565b6001600160a01b03858116825284166020820152604081018390526080606082018190526000906133249083018461378b565b600060208284031215613ea957600080fd5b6118ad82613b5e56fe6569bde4a160c636ea8b8d11acb83a60d7fec0b8f2e09389306cba0e1340df0054f22f54f370bd020e00ee80e1a5099a71652e2ccbcf6a75281e4c70a3e11a0034516f6fe09a043d57f1ff579a303a7ae85314751c77b4eb1a55837604a86e0034516f6fe09a043d57f1ff579a303a7ae85314751c77b4eb1a55837604a86e01","linkReferences":{}},"methodIdentifiers":{"expiresAt(uint256)":"17c95709","getMembershipCurrency()":"657e45e8","getMembershipDuration()":"8120f0ba","getMembershipFreeAllocation()":"706b8e09","getMembershipImage()":"93b13cb7","getMembershipLimit()":"95d600c8","getMembershipPrice()":"1278076a","getMembershipPricingModule()":"e847abdd","getMembershipRenewalPrice(uint256)":"5803909f","getSpaceFactory()":"79dda585","joinSpace(address)":"8c625b06","joinSpaceWithReferral(address,(address,address,string))":"686f7684","renewMembership(uint256)":"7c9669ac","setMembershipFreeAllocation(uint256)":"5becd24a","setMembershipImage(string)":"0ef1be5f","setMembershipLimit(uint256)":"97fb7c1e","setMembershipPrice(uint256)":"69d5f38a","setMembershipPricingModule(address)":"df9a9fe6","withdraw(address)":"51cff8d9"},"id":219}