{"abi":[{"type":"function","name":"expiresAt","inputs":[{"name":"tokenId","type":"uint256","internalType":"uint256"}],"outputs":[{"name":"","type":"uint256","internalType":"uint256"}],"stateMutability":"view"},{"type":"function","name":"getMembershipCurrency","inputs":[],"outputs":[{"name":"","type":"address","internalType":"address"}],"stateMutability":"view"},{"type":"function","name":"getMembershipDuration","inputs":[],"outputs":[{"name":"","type":"uint64","internalType":"uint64"}],"stateMutability":"view"},{"type":"function","name":"getMembershipFreeAllocation","inputs":[],"outputs":[{"name":"","type":"uint256","internalType":"uint256"}],"stateMutability":"view"},{"type":"function","name":"getMembershipImage","inputs":[],"outputs":[{"name":"","type":"string","internalType":"string"}],"stateMutability":"view"},{"type":"function","name":"getMembershipLimit","inputs":[],"outputs":[{"name":"","type":"uint256","internalType":"uint256"}],"stateMutability":"view"},{"type":"function","name":"getMembershipPrice","inputs":[],"outputs":[{"name":"","type":"uint256","internalType":"uint256"}],"stateMutability":"view"},{"type":"function","name":"getMembershipPricingModule","inputs":[],"outputs":[{"name":"","type":"address","internalType":"address"}],"stateMutability":"view"},{"type":"function","name":"getMembershipRenewalPrice","inputs":[{"name":"tokenId","type":"uint256","internalType":"uint256"}],"outputs":[{"name":"","type":"uint256","internalType":"uint256"}],"stateMutability":"view"},{"type":"function","name":"getProtocolFee","inputs":[],"outputs":[{"name":"","type":"uint256","internalType":"uint256"}],"stateMutability":"view"},{"type":"function","name":"getSpaceFactory","inputs":[],"outputs":[{"name":"","type":"address","internalType":"address"}],"stateMutability":"view"},{"type":"function","name":"joinSpace","inputs":[{"name":"receiver","type":"address","internalType":"address"}],"outputs":[],"stateMutability":"payable"},{"type":"function","name":"joinSpaceWithReferral","inputs":[{"name":"receiver","type":"address","internalType":"address"},{"name":"referral","type":"tuple","internalType":"struct IMembershipBase.ReferralTypes","components":[{"name":"partner","type":"address","internalType":"address"},{"name":"userReferral","type":"address","internalType":"address"},{"name":"referralCode","type":"string","internalType":"string"}]}],"outputs":[],"stateMutability":"payable"},{"type":"function","name":"renewMembership","inputs":[{"name":"tokenId","type":"uint256","internalType":"uint256"}],"outputs":[],"stateMutability":"payable"},{"type":"function","name":"revenue","inputs":[],"outputs":[{"name":"","type":"uint256","internalType":"uint256"}],"stateMutability":"view"},{"type":"function","name":"setMembershipFreeAllocation","inputs":[{"name":"newAllocation","type":"uint256","internalType":"uint256"}],"outputs":[],"stateMutability":"nonpayable"},{"type":"function","name":"setMembershipImage","inputs":[{"name":"newImage","type":"string","internalType":"string"}],"outputs":[],"stateMutability":"nonpayable"},{"type":"function","name":"setMembershipLimit","inputs":[{"name":"newLimit","type":"uint256","internalType":"uint256"}],"outputs":[],"stateMutability":"nonpayable"},{"type":"function","name":"setMembershipPrice","inputs":[{"name":"newPrice","type":"uint256","internalType":"uint256"}],"outputs":[],"stateMutability":"nonpayable"},{"type":"function","name":"setMembershipPricingModule","inputs":[{"name":"pricingModule","type":"address","internalType":"address"}],"outputs":[],"stateMutability":"nonpayable"},{"type":"function","name":"withdraw","inputs":[{"name":"account","type":"address","internalType":"address"}],"outputs":[],"stateMutability":"nonpayable"},{"type":"event","name":"Approval","inputs":[{"name":"owner","type":"address","indexed":true,"internalType":"address"},{"name":"approved","type":"address","indexed":true,"internalType":"address"},{"name":"tokenId","type":"uint256","indexed":true,"internalType":"uint256"}],"anonymous":false},{"type":"event","name":"ApprovalForAll","inputs":[{"name":"owner","type":"address","indexed":true,"internalType":"address"},{"name":"operator","type":"address","indexed":true,"internalType":"address"},{"name":"approved","type":"bool","indexed":false,"internalType":"bool"}],"anonymous":false},{"type":"event","name":"Banned","inputs":[{"name":"moderator","type":"address","indexed":true,"internalType":"address"},{"name":"tokenId","type":"uint256","indexed":true,"internalType":"uint256"}],"anonymous":false},{"type":"event","name":"ConsecutiveTransfer","inputs":[{"name":"fromTokenId","type":"uint256","indexed":true,"internalType":"uint256"},{"name":"toTokenId","type":"uint256","indexed":false,"internalType":"uint256"},{"name":"from","type":"address","indexed":true,"internalType":"address"},{"name":"to","type":"address","indexed":true,"internalType":"address"}],"anonymous":false},{"type":"event","name":"DefaultBpsFeeUpdated","inputs":[{"name":"defaultBpsFee","type":"uint256","indexed":false,"internalType":"uint256"}],"anonymous":false},{"type":"event","name":"EntitlementCheckResultPosted","inputs":[{"name":"transactionId","type":"bytes32","indexed":true,"internalType":"bytes32"},{"name":"result","type":"uint8","indexed":false,"internalType":"enum IEntitlementGatedBase.NodeVoteStatus"}],"anonymous":false},{"type":"event","name":"Initialized","inputs":[{"name":"version","type":"uint32","indexed":false,"internalType":"uint32"}],"anonymous":false},{"type":"event","name":"InterfaceAdded","inputs":[{"name":"interfaceId","type":"bytes4","indexed":true,"internalType":"bytes4"}],"anonymous":false},{"type":"event","name":"InterfaceRemoved","inputs":[{"name":"interfaceId","type":"bytes4","indexed":true,"internalType":"bytes4"}],"anonymous":false},{"type":"event","name":"MaxBpsFeeUpdated","inputs":[{"name":"maxBpsFee","type":"uint256","indexed":false,"internalType":"uint256"}],"anonymous":false},{"type":"event","name":"MaxPartnerFeeSet","inputs":[{"name":"fee","type":"uint256","indexed":false,"internalType":"uint256"}],"anonymous":false},{"type":"event","name":"MembershipCurrencyUpdated","inputs":[{"name":"currency","type":"address","indexed":true,"internalType":"address"}],"anonymous":false},{"type":"event","name":"MembershipFeeRecipientUpdated","inputs":[{"name":"recipient","type":"address","indexed":true,"internalType":"address"}],"anonymous":false},{"type":"event","name":"MembershipFreeAllocationUpdated","inputs":[{"name":"allocation","type":"uint256","indexed":true,"internalType":"uint256"}],"anonymous":false},{"type":"event","name":"MembershipLimitUpdated","inputs":[{"name":"limit","type":"uint256","indexed":true,"internalType":"uint256"}],"anonymous":false},{"type":"event","name":"MembershipPriceUpdated","inputs":[{"name":"price","type":"uint256","indexed":true,"internalType":"uint256"}],"anonymous":false},{"type":"event","name":"MembershipTokenIssued","inputs":[{"name":"recipient","type":"address","indexed":true,"internalType":"address"},{"name":"tokenId","type":"uint256","indexed":true,"internalType":"uint256"}],"anonymous":false},{"type":"event","name":"MembershipTokenRejected","inputs":[{"name":"recipient","type":"address","indexed":true,"internalType":"address"}],"anonymous":false},{"type":"event","name":"MembershipWithdrawal","inputs":[{"name":"recipient","type":"address","indexed":true,"internalType":"address"},{"name":"amount","type":"uint256","indexed":false,"internalType":"uint256"}],"anonymous":false},{"type":"event","name":"OwnershipTransferred","inputs":[{"name":"previousOwner","type":"address","indexed":true,"internalType":"address"},{"name":"newOwner","type":"address","indexed":true,"internalType":"address"}],"anonymous":false},{"type":"event","name":"PartnerRegistered","inputs":[{"name":"account","type":"address","indexed":true,"internalType":"address"}],"anonymous":false},{"type":"event","name":"PartnerRemoved","inputs":[{"name":"account","type":"address","indexed":true,"internalType":"address"}],"anonymous":false},{"type":"event","name":"PartnerUpdated","inputs":[{"name":"account","type":"address","indexed":true,"internalType":"address"}],"anonymous":false},{"type":"event","name":"Paused","inputs":[{"name":"account","type":"address","indexed":false,"internalType":"address"}],"anonymous":false},{"type":"event","name":"PermissionsAddedToChannelRole","inputs":[{"name":"updater","type":"address","indexed":true,"internalType":"address"},{"name":"roleId","type":"uint256","indexed":true,"internalType":"uint256"},{"name":"channelId","type":"bytes32","indexed":true,"internalType":"bytes32"}],"anonymous":false},{"type":"event","name":"PermissionsRemovedFromChannelRole","inputs":[{"name":"updater","type":"address","indexed":true,"internalType":"address"},{"name":"roleId","type":"uint256","indexed":true,"internalType":"uint256"},{"name":"channelId","type":"bytes32","indexed":true,"internalType":"bytes32"}],"anonymous":false},{"type":"event","name":"PermissionsUpdatedForChannelRole","inputs":[{"name":"updater","type":"address","indexed":true,"internalType":"address"},{"name":"roleId","type":"uint256","indexed":true,"internalType":"uint256"},{"name":"channelId","type":"bytes32","indexed":true,"internalType":"bytes32"}],"anonymous":false},{"type":"event","name":"Prepay__Prepaid","inputs":[{"name":"supply","type":"uint256","indexed":false,"internalType":"uint256"}],"anonymous":false},{"type":"event","name":"ReferralRegistered","inputs":[{"name":"referralCode","type":"bytes32","indexed":false,"internalType":"bytes32"},{"name":"basisPoints","type":"uint256","indexed":false,"internalType":"uint256"},{"name":"recipient","type":"address","indexed":false,"internalType":"address"}],"anonymous":false},{"type":"event","name":"ReferralRemoved","inputs":[{"name":"referralCode","type":"bytes32","indexed":false,"internalType":"bytes32"}],"anonymous":false},{"type":"event","name":"ReferralUpdated","inputs":[{"name":"referralCode","type":"bytes32","indexed":false,"internalType":"bytes32"},{"name":"basisPoints","type":"uint256","indexed":false,"internalType":"uint256"},{"name":"recipient","type":"address","indexed":false,"internalType":"address"}],"anonymous":false},{"type":"event","name":"RegistryFeeSet","inputs":[{"name":"fee","type":"uint256","indexed":false,"internalType":"uint256"}],"anonymous":false},{"type":"event","name":"RoleCreated","inputs":[{"name":"creator","type":"address","indexed":true,"internalType":"address"},{"name":"roleId","type":"uint256","indexed":true,"internalType":"uint256"}],"anonymous":false},{"type":"event","name":"RoleRemoved","inputs":[{"name":"remover","type":"address","indexed":true,"internalType":"address"},{"name":"roleId","type":"uint256","indexed":true,"internalType":"uint256"}],"anonymous":false},{"type":"event","name":"RoleUpdated","inputs":[{"name":"updater","type":"address","indexed":true,"internalType":"address"},{"name":"roleId","type":"uint256","indexed":true,"internalType":"uint256"}],"anonymous":false},{"type":"event","name":"SubscriptionUpdate","inputs":[{"name":"tokenId","type":"uint256","indexed":true,"internalType":"uint256"},{"name":"expiration","type":"uint64","indexed":false,"internalType":"uint64"}],"anonymous":false},{"type":"event","name":"Transfer","inputs":[{"name":"from","type":"address","indexed":true,"internalType":"address"},{"name":"to","type":"address","indexed":true,"internalType":"address"},{"name":"tokenId","type":"uint256","indexed":true,"internalType":"uint256"}],"anonymous":false},{"type":"event","name":"Unbanned","inputs":[{"name":"moderator","type":"address","indexed":true,"internalType":"address"},{"name":"tokenId","type":"uint256","indexed":true,"internalType":"uint256"}],"anonymous":false},{"type":"event","name":"Unpaused","inputs":[{"name":"account","type":"address","indexed":false,"internalType":"address"}],"anonymous":false},{"type":"error","name":"ApprovalCallerNotOwnerNorApproved","inputs":[]},{"type":"error","name":"ApprovalQueryForNonexistentToken","inputs":[]},{"type":"error","name":"BalanceQueryForZeroAddress","inputs":[]},{"type":"error","name":"Banning__AlreadyBanned","inputs":[{"name":"tokenId","type":"uint256","internalType":"uint256"}]},{"type":"error","name":"Banning__CannotBanOwner","inputs":[]},{"type":"error","name":"Banning__CannotBanSelf","inputs":[]},{"type":"error","name":"Banning__InvalidTokenId","inputs":[{"name":"tokenId","type":"uint256","internalType":"uint256"}]},{"type":"error","name":"Banning__NotBanned","inputs":[{"name":"tokenId","type":"uint256","internalType":"uint256"}]},{"type":"error","name":"Dispatcher__TransactionAlreadyExists","inputs":[]},{"type":"error","name":"ERC5643__DurationZero","inputs":[]},{"type":"error","name":"ERC5643__InvalidTokenId","inputs":[{"name":"tokenId","type":"uint256","internalType":"uint256"}]},{"type":"error","name":"ERC5643__NotApprovedOrOwner","inputs":[]},{"type":"error","name":"ERC5643__SubscriptionNotRenewable","inputs":[{"name":"tokenId","type":"uint256","internalType":"uint256"}]},{"type":"error","name":"EntitlementGated_InvalidAddress","inputs":[]},{"type":"error","name":"EntitlementGated_InvalidEntitlement","inputs":[]},{"type":"error","name":"EntitlementGated_NodeAlreadyVoted","inputs":[]},{"type":"error","name":"EntitlementGated_NodeNotFound","inputs":[]},{"type":"error","name":"EntitlementGated_OnlyEntitlementChecker","inputs":[]},{"type":"error","name":"EntitlementGated_RequestIdNotFound","inputs":[]},{"type":"error","name":"EntitlementGated_TransactionCheckAlreadyCompleted","inputs":[]},{"type":"error","name":"EntitlementGated_TransactionCheckAlreadyRegistered","inputs":[]},{"type":"error","name":"EntitlementGated_TransactionNotRegistered","inputs":[]},{"type":"error","name":"Entitlement__InvalidValue","inputs":[]},{"type":"error","name":"Entitlement__NotAllowed","inputs":[]},{"type":"error","name":"Entitlement__NotMember","inputs":[]},{"type":"error","name":"Entitlement__ValueAlreadyExists","inputs":[]},{"type":"error","name":"Initializable_InInitializingState","inputs":[]},{"type":"error","name":"Introspection_AlreadySupported","inputs":[]},{"type":"error","name":"Introspection_NotSupported","inputs":[]},{"type":"error","name":"Membership__AlreadyMember","inputs":[]},{"type":"error","name":"Membership__Banned","inputs":[]},{"type":"error","name":"Membership__InsufficientAllowance","inputs":[]},{"type":"error","name":"Membership__InsufficientPayment","inputs":[]},{"type":"error","name":"Membership__InvalidAddress","inputs":[]},{"type":"error","name":"Membership__InvalidCurrency","inputs":[]},{"type":"error","name":"Membership__InvalidDuration","inputs":[]},{"type":"error","name":"Membership__InvalidFeeRecipient","inputs":[]},{"type":"error","name":"Membership__InvalidFreeAllocation","inputs":[]},{"type":"error","name":"Membership__InvalidLimit","inputs":[]},{"type":"error","name":"Membership__InvalidMaxSupply","inputs":[]},{"type":"error","name":"Membership__InvalidPayment","inputs":[]},{"type":"error","name":"Membership__InvalidPrice","inputs":[]},{"type":"error","name":"Membership__InvalidPricingModule","inputs":[]},{"type":"error","name":"Membership__InvalidTokenId","inputs":[]},{"type":"error","name":"Membership__InvalidTransactionType","inputs":[]},{"type":"error","name":"Membership__MaxSupplyReached","inputs":[]},{"type":"error","name":"Membership__NotExpired","inputs":[]},{"type":"error","name":"Membership__PriceTooLow","inputs":[]},{"type":"error","name":"MintERC2309QuantityExceedsLimit","inputs":[]},{"type":"error","name":"MintToZeroAddress","inputs":[]},{"type":"error","name":"MintZeroQuantity","inputs":[]},{"type":"error","name":"Ownable__NotOwner","inputs":[{"name":"account","type":"address","internalType":"address"}]},{"type":"error","name":"Ownable__ZeroAddress","inputs":[]},{"type":"error","name":"OwnerQueryForNonexistentToken","inputs":[]},{"type":"error","name":"OwnershipNotInitializedForExtraData","inputs":[]},{"type":"error","name":"PartnerRegistry__InvalidPartnerFee","inputs":[{"name":"fee","type":"uint256","internalType":"uint256"}]},{"type":"error","name":"PartnerRegistry__InvalidRecipient","inputs":[]},{"type":"error","name":"PartnerRegistry__NotPartnerAccount","inputs":[{"name":"account","type":"address","internalType":"address"}]},{"type":"error","name":"PartnerRegistry__PartnerAlreadyRegistered","inputs":[{"name":"account","type":"address","internalType":"address"}]},{"type":"error","name":"PartnerRegistry__PartnerNotActive","inputs":[{"name":"account","type":"address","internalType":"address"}]},{"type":"error","name":"PartnerRegistry__PartnerNotRegistered","inputs":[{"name":"account","type":"address","internalType":"address"}]},{"type":"error","name":"PartnerRegistry__RegistryFeeNotPaid","inputs":[{"name":"fee","type":"uint256","internalType":"uint256"}]},{"type":"error","name":"Pausable__NotPaused","inputs":[]},{"type":"error","name":"Pausable__Paused","inputs":[]},{"type":"error","name":"Prepay__InvalidAddress","inputs":[]},{"type":"error","name":"Prepay__InvalidAmount","inputs":[]},{"type":"error","name":"Prepay__InvalidMembership","inputs":[]},{"type":"error","name":"Prepay__InvalidSupplyAmount","inputs":[]},{"type":"error","name":"Reentrancy","inputs":[]},{"type":"error","name":"Referrals__InvalidBasisPoints","inputs":[]},{"type":"error","name":"Referrals__InvalidBpsFee","inputs":[]},{"type":"error","name":"Referrals__InvalidRecipient","inputs":[]},{"type":"error","name":"Referrals__InvalidReferralCode","inputs":[]},{"type":"error","name":"Referrals__ReferralAlreadyExists","inputs":[]},{"type":"error","name":"Roles__EntitlementAlreadyExists","inputs":[]},{"type":"error","name":"Roles__EntitlementDoesNotExist","inputs":[]},{"type":"error","name":"Roles__InvalidEntitlementAddress","inputs":[]},{"type":"error","name":"Roles__InvalidPermission","inputs":[]},{"type":"error","name":"Roles__PermissionAlreadyExists","inputs":[]},{"type":"error","name":"Roles__PermissionDoesNotExist","inputs":[]},{"type":"error","name":"Roles__RoleDoesNotExist","inputs":[]},{"type":"error","name":"TransferCallerNotOwnerNorApproved","inputs":[]},{"type":"error","name":"TransferFromIncorrectOwner","inputs":[]},{"type":"error","name":"TransferToNonERC721ReceiverImplementer","inputs":[]},{"type":"error","name":"TransferToZeroAddress","inputs":[]},{"type":"error","name":"URIQueryForNonexistentToken","inputs":[]}],"bytecode":{"object":"0x60806040523480156200001157600080fd5b506200001c62000022565b620000ca565b7f59b501c3653afc186af7d48dda36cf6732bd21629a6295693664240a6ef520008054640100000000900460ff16156200006f576040516366008a2d60e01b815260040160405180910390fd5b805463ffffffff9081161015620000c757805463ffffffff191663ffffffff90811782556040519081527fe9c9b456cb2994b80aeef036cf59d26e9617df80f816a6ee5a5b4166e07e2f5c9060200160405180910390a15b50565b613e2980620000da6000396000f3fe60806040526004361061012a5760003560e01c8063706b8e09116100ab57806393b13cb71161006f57806393b13cb71461032057806395d600c81461034257806397fb7c1e14610357578063a5a4103114610377578063df9a9fe61461038c578063e847abdd146103ac57600080fd5b8063706b8e09146102a357806379dda585146102b85780637c9669ac146102cd5780638120f0ba146102e05780638c625b061461030d57600080fd5b80635803909f116100f25780635803909f146102035780635becd24a14610223578063657e45e814610243578063686f76841461027057806369d5f38a1461028357600080fd5b80630ef1be5f1461012f5780631278076a1461015157806317c95709146101795780633e9491a2146101ce57806351cff8d9146101e3575b600080fd5b34801561013b57600080fd5b5061014f61014a3660046133e0565b6103c1565b005b34801561015d57600080fd5b50610166610444565b6040519081526020015b60405180910390f35b34801561018557600080fd5b50610166610194366004613451565b60009081527f4775a23600034fdd9f073b224f794d51a58b35ba663a9602623ba7a5c09cce0060205260409020546001600160401b031690565b3480156101da57600080fd5b5061016661045b565b3480156101ef57600080fd5b5061014f6101fe36600461347f565b610485565b34801561020f57600080fd5b5061016661021e366004613451565b610599565b34801561022f57600080fd5b5061014f61023e366004613451565b6105b2565b34801561024f57600080fd5b5061025861063c565b6040516001600160a01b039091168152602001610170565b61014f61027e366004613531565b610646565b34801561028f57600080fd5b5061014f61029e366004613451565b61068b565b3480156102af57600080fd5b50610166610739565b3480156102c457600080fd5b50610258610743565b61014f6102db366004613451565b61074d565b3480156102ec57600080fd5b506102f5610874565b6040516001600160401b039091168152602001610170565b61014f61031b36600461347f565b61087e565b34801561032c57600080fd5b506103356108c1565b604051610170919061366b565b34801561034e57600080fd5b506101666108cb565b34801561036357600080fd5b5061014f610372366004613451565b6108e3565b34801561038357600080fd5b50610166610948565b34801561039857600080fd5b5061014f6103a736600461347f565b61095d565b3480156103b857600080fd5b506102586109de565b6103c96109e8565b6001600160a01b0316336001600160a01b031614610401576040516365f4906560e01b81523360048201526024015b60405180910390fd5b61044082828080601f016020809104026020016040519081016040528093929190818152602001838380828437600092019190915250610a8592505050565b5050565b6000610456610451610ab0565b610ae6565b905090565b60006104567fc21004fcc619240a31f006438274d15cd813308303284436eef6055f0fdcb60a5490565b61048d6109e8565b6001600160a01b0316336001600160a01b0316146104c0576040516365f4906560e01b81523360048201526024016103f8565b3068929eee149b4bd2126854036104df5763ab143c066000526004601cfd5b3068929eee149b4bd21268556001600160a01b03811661050957610509635fbd571760e01b610c5c565b60006105337fc21004fcc619240a31f006438274d15cd813308303284436eef6055f0fdcb60a5490565b90508060000361054d5761054d635894b54560e11b610c5c565b61057660007fc21004fcc619240a31f006438274d15cd813308303284436eef6055f0fdcb60a55565b610589610581610c66565b308484610c94565b503868929eee149b4bd212685550565b60006105ac826105a7610ab0565b610ce0565b92915050565b6105ba6109e8565b6001600160a01b0316336001600160a01b0316146105ed576040516365f4906560e01b81523360048201526024016103f8565b6000610605600080516020613de98339815191525490565b9050801580159061061557508082115b1561062a5761062a63c3983b9160e01b610c5c565b61063382610d3f565b61044082610dbf565b6000610456610c66565b3068929eee149b4bd2126854036106655763ab143c066000526004601cfd5b3068929eee149b4bd212685561067b8282610e4e565b3868929eee149b4bd21268555050565b6106936109e8565b6001600160a01b0316336001600160a01b0316146106c6576040516365f4906560e01b81523360048201526024016103f8565b6106cf81610f19565b6106d7610f9e565b6001600160a01b03166391b7f5ed826040518263ffffffff1660e01b815260040161070491815260200190565b600060405180830381600087803b15801561071e57600080fd5b505af1158015610732573d6000803e3d6000fd5b5050505050565b6000610456610fcc565b600061045661107b565b3068929eee149b4bd21268540361076c5763ab143c066000526004601cfd5b3068929eee149b4bd21268556000610783826110a9565b90506001600160a01b0381166107a3576107a3635fbd571760e01b610c5c565b60008281527f4775a23600034fdd9f073b224f794d51a58b35ba663a9602623ba7a5c09cce0060205260409020546001600160401b03166107e26110b4565b6001600160401b03166107f54283613694565b1061080a5761080a63dce9a1d360e01b610c5c565b6000610818846105a7610ab0565b9050801561085157600061082c848361111f565b9050600061083a8284613694565b9050801561084e5761084c85826111a7565b505b50505b6108628461085d6110b4565b611290565b5050503868929eee149b4bd212685550565b60006104566110b4565b3068929eee149b4bd21268540361089d5763ab143c066000526004601cfd5b3068929eee149b4bd21268556108b281611359565b3868929eee149b4bd212685550565b6060610456611401565b6000610456600080516020613de98339815191525490565b6108eb6109e8565b6001600160a01b0316336001600160a01b03161461091e576040516365f4906560e01b81523360048201526024016103f8565b61092f8161092a610ab0565b6114a3565b61094581600080516020613de983398151915255565b50565b6000610456610958610451610ab0565b6114bb565b6109656109e8565b6001600160a01b0316336001600160a01b031614610998576040516365f4906560e01b81523360048201526024016103f8565b6109a181611613565b7fc21004fcc619240a31f006438274d15cd813308303284436eef6055f0fdcb60880546001600160a01b0319166001600160a01b03831617905550565b6000610456610f9e565b6000807fd2f24d4f172e4e84e48e7c4125b6e904c29e5eba33ad4938fee51dd5dbd4b600805460018201546040516331a9108f60e11b815260048101919091529192506001600160a01b031690636352211e90602401602060405180830381865afa158015610a5b573d6000803e3d6000fd5b505050506040513d601f19601f82011682018060405250810190610a7f91906136a7565b91505090565b7fc21004fcc619240a31f006438274d15cd813308303284436eef6055f0fdcb60c6104408282613740565b7f6569bde4a160c636ea8b8d11acb83a60d7fec0b8f2e09389306cba0e1340df0154600080516020613da9833981519152540390565b600080610af1610fcc565b9050610afb610f9e565b604051635cf4ee9160e01b815260048101839052602481018590526001600160a01b039190911690635cf4ee9190604401602060405180830381865afa158015610b49573d6000803e3d6000fd5b505050506040513d601f19601f82011682018060405250810190610b6d91906137ff565b91506000610b79610743565b90506000816001600160a01b0316631b159e2e6040518163ffffffff1660e01b8152600401602060405180830381865afa158015610bbb573d6000803e3d6000fd5b505050506040513d601f19601f82011682018060405250810190610bdf91906137ff565b90506000826001600160a01b0316630eac306d6040518163ffffffff1660e01b8152600401602060405180830381865afa158015610c21573d6000803e3d6000fd5b505050506040513d601f19601f82011682018060405250810190610c4591906137ff565b905081851015610c53578094505b50505050919050565b8060005260046000fd5b7fc21004fcc619240a31f006438274d15cd813308303284436eef6055f0fdcb604546001600160a01b031690565b8015610cda5773eeeeeeeeeeeeeeeeeeeeeeeeeeeeeeeeeeeeeeed196001600160a01b03851601610cce57610cc982826116b9565b610cda565b610cda848484846116cc565b50505050565b60008281527fc21004fcc619240a31f006438274d15cd813308303284436eef6055f0fdcb6096020526040812054600080516020613e09833981519152908015610d2d5791506105ac9050565b610d3684610ae6565b95945050505050565b610d47610743565b6001600160a01b0316632cbb9d136040518163ffffffff1660e01b8152600401602060405180830381865afa158015610d84573d6000803e3d6000fd5b505050506040513d601f19601f82011682018060405250810190610da891906137ff565b8111156109455761094563c3983b9160e01b610c5c565b7fc21004fcc619240a31f006438274d15cd813308303284436eef6055f0fdcb6078190557fc21004fcc619240a31f006438274d15cd813308303284436eef6055f0fdcb60d805460ff19166001179055604051600080516020613e098339815191529082907fab14a23e88fb272313490d4f20d63098e64fd38304c0e07a377db98c2b39b92f90600090a25050565b610e578261171f565b6000610e61611782565b90508015610e7157610e716117dd565b610e7b8383611811565b600082604051602001610e8e9190613818565b60408051601f198184030181529190529050631a1bdda160e21b6000610ebf86610eba84338388611869565b61189c565b9050600080610ecf8833856119a0565b9150915080610f0f578115610f05578515610eed57610eed83611bc1565b610ef78389611cc2565b610f0088611d10565b610f0f565b610f0f8389611dad565b5050505050505050565b6000610f23610743565b6001600160a01b0316630eac306d6040518163ffffffff1660e01b8152600401602060405180830381865afa158015610f60573d6000803e3d6000fd5b505050506040513d601f19601f82011682018060405250810190610f8491906137ff565b90508082101561044057610440631a23d64760e11b610c5c565b7fc21004fcc619240a31f006438274d15cd813308303284436eef6055f0fdcb608546001600160a01b031690565b7fc21004fcc619240a31f006438274d15cd813308303284436eef6055f0fdcb60d54600090600080516020613e098339815191529060ff16156110125760070154919050565b61101a610743565b6001600160a01b0316632cbb9d136040518163ffffffff1660e01b8152600401602060405180830381865afa158015611057573d6000803e3d6000fd5b505050506040513d601f19601f82011682018060405250810190610a7f91906137ff565b7fc21004fcc619240a31f006438274d15cd813308303284436eef6055f0fdcb606546001600160a01b031690565b60006105ac82611e08565b60006110be610743565b6001600160a01b0316638120f0ba6040518163ffffffff1660e01b8152600401602060405180830381865afa1580156110fb573d6000803e3d6000fd5b505050506040513d601f19601f820116820180604052508101906104569190613853565b600061112a826114bb565b90506105ac611137610c66565b84611140610743565b6001600160a01b0316634ccb20c06040518163ffffffff1660e01b8152600401602060405180830381865afa15801561117d573d6000803e3d6000fd5b505050506040513d601f19601f820116820180604052508101906111a191906136a7565b84610c94565b6000600080516020613e09833981519152816111c1610c66565b905073eeeeeeeeeeeeeeeeeeeeeeeeeeeeeeeeeeeeeeed196001600160a01b0382160161120c578382600a0160008282546111fc919061387c565b909155508493506105ac92505050565b60006112216001600160a01b03831630611ec1565b905061122f82873088610c94565b60006112446001600160a01b03841630611ec1565b905060006112528383613694565b905086811461126b5761126b635894b54560e11b610c5c565b8085600a01600082825461127f919061387c565b909155509098975050505050505050565b60008281527f4775a23600034fdd9f073b224f794d51a58b35ba663a9602623ba7a5c09cce006020819052604082205490916001600160401b03909116908181036112e6576112df844261388f565b90506112f3565b6112f0848361388f565b90505b60008581526020848152604091829020805467ffffffffffffffff19166001600160401b038516908117909155915191825286917f2ec2be2c4b90c2cf13ecb6751a24daed6bb741ae5ed3f7371aabf9402f6d62e8910160405180910390a25050505050565b6113628161171f565b600061136c611782565b9050801561137c5761137c6117dd565b6000638c625b0660e01b905060006113a984610eba84338860405180602001604052806000815250611869565b90506000806113b98633856119a0565b91509150806113f95781156113ef5784156113d7576113d783611eed565b6113e18387611cc2565b6113ea86611d10565b6113f9565b6113f98387611dad565b505050505050565b6060600080516020613e09833981519152600c018054611420906136c4565b80601f016020809104026020016040519081016040528092919081815260200182805461144c906136c4565b80156114995780601f1061146e57610100808354040283529160200191611499565b820191906000526020600020905b81548152906001019060200180831161147c57829003601f168201915b5050505050905090565b8082101561044057610440636664d51760e11b610c5c565b6000806114c6610743565b90506000816001600160a01b0316631b159e2e6040518163ffffffff1660e01b8152600401602060405180830381865afa158015611508573d6000803e3d6000fd5b505050506040513d601f19601f8201168201806040525081019061152c91906137ff565b90506000826001600160a01b0316630eac306d6040518163ffffffff1660e01b8152600401602060405180830381865afa15801561156e573d6000803e3d6000fd5b505050506040513d601f19601f8201168201806040525081019061159291906137ff565b9050818510156115a457949350505050565b610d3685846001600160a01b0316639f6542aa6040518163ffffffff1660e01b8152600401602060405180830381865afa1580156115e6573d6000803e3d6000fd5b505050506040513d601f19601f8201168201806040525081019061160a91906138af565b61ffff16611f84565b6001600160a01b03811661163157611631630e88bf4b60e01b610c5c565b61163961107b565b6040516346fc05eb60e11b81526001600160a01b0383811660048301529190911690638df80bd690602401602060405180830381865afa158015611681573d6000803e3d6000fd5b505050506040513d601f19601f820116820180604052508101906116a591906138e8565b61094557610945630e88bf4b60e01b610c5c565b6104406001600160a01b03831682612000565b816001600160a01b0316836001600160a01b03160315610cda57306001600160a01b0384160361170a57610cc96001600160a01b038516838361201c565b610cda6001600160a01b03851684848461206c565b6001600160a01b03811661173d5761173d635fbd571760e01b610c5c565b6000611755600080516020613de98339815191525490565b9050801580159061176d57508061176a610ab0565b10155b1561044057610440637efcdb4960e01b610c5c565b60008061178d610ab0565b90506000611799610fcc565b905060006117a56120ca565b9050828211156117b9576000935050505090565b80156117d3576117c960016120f4565b6000935050505090565b6001935050505090565b60006117ea610451610ab0565b905060006117f782612132565b90508034101561044057610440635894b54560e11b610c5c565b60208101516001600160a01b03161561044057816001600160a01b031681602001516001600160a01b03161480611854575060208101516001600160a01b031633145b1561044057610440635fbd571760e01b610c5c565b6060848484846040516020016118829493929190613903565b60405160208183030381529060405290505b949350505050565b6040516bffffffffffffffffffffffff19606084901b166020820152436034820152600090819060540160405160208183030381529060405280519060200120905061195c8161193083876118f08661217a565b604080516020808201959095526001600160a01b039390931683820152606080840192909252805180840390920182526080909201909152805191012090565b604080516020808201949094528082019290925280518083038201815260609092019052805191012090565b91506000611969836121af565b5111156119805761198063f82e65c360e01b610c5c565b61198a8284612280565b341561199957611999826122c7565b5092915050565b60008060006119cf604051806040016040528060098152602001684a6f696e537061636560b81b815250612314565b905060006119dc876124b6565b825190915060005b81811015611bb4576000848281518110611a0057611a00613949565b60200260200101519050806040015115611a1a5750611bac565b60005b816080015151811015611ba957600082608001518281518110611a4257611a42613949565b60200260200101519050806001600160a01b0316630cf0b5336000801b88604051806040016040528060098152602001684a6f696e537061636560b81b815250604051602001611a92919061395f565b604051602081830303815290604052611aaa9061397b565b6040518463ffffffff1660e01b8152600401611ac89392919061399f565b602060405180830381865afa158015611ae5573d6000803e3d6000fd5b505050506040513d601f19601f82011682018060405250810190611b0991906138e8565b15611b2357506001975060009650611bb995505050505050565b806001600160a01b0316632e1b61e46040518163ffffffff1660e01b8152600401602060405180830381865afa158015611b61573d6000803e3d6000fd5b505050506040513d601f19601f82011682018060405250810190611b8591906138e8565b15611ba057611b9b8c8c8c848760000151612725565b600197505b50600101611a1d565b50505b6001016119e4565b505050505b935093915050565b6000611bce610451610ab0565b90506000611bdb82612132565b9050600080600080611bec876121af565b806020019051810190611bff9190613a49565b929650909450925090506001600160e01b03198416631a1bdda160e21b14611c3157611c3163da6153bd60e01b610c5c565b600081806020019051810190611c479190613ad1565b90506000611c55858961111f565b90506000611c688684600001518b612873565b90506000611c8087856020015186604001518d612948565b905060008183611c90868d613694565b611c9a9190613694565b611ca49190613694565b9050611cb48c89898d8589612a2f565b505050505050505050505050565b60008281527f34516f6fe09a043d57f1ff579a303a7ae85314751c77b4eb1a55837604a86e0160205260409020548015611d0b57611d008382612c54565b611d0b610581610c66565b505050565b6000611d1a612cab565b9050611d5c81611d2b610451610ab0565b60009182527fc21004fcc619240a31f006438274d15cd813308303284436eef6055f0fdcb609602052604090912055565b611d67826001612cc1565b611d738161085d6110b4565b60405181906001600160a01b038416907f2f40b0474996b72a4251e00fb9170cdd960deea1dc749772cbbab61395b9b57690600090a35050565b611dc68260405180602001604052806000815250612280565b611dd08282611cc2565b6040516001600160a01b038216907f86fd446d5c04e892d58b448a924dcd9c3ece3a5e0d2960b8c35cd475a5595a1f90600090a25050565b60008181527f6569bde4a160c636ea8b8d11acb83a60d7fec0b8f2e09389306cba0e1340df04602052604081205490600080516020613da983398151915290600160e01b83169003611ea75781600003611ea15780548310611e7d57604051636f96cda160e11b815260040160405180910390fd5b5b600019909201600081815260048401602052604090205490929091508115611e7e575b50919050565b50604051636f96cda160e11b815260040160405180910390fd5b6000816014526370a0823160601b60005260208060246010865afa601f3d111660205102905092915050565b6000611efa610451610ab0565b90506000611f0782612132565b90506000806000611f17866121af565b806020019051810190611f2a9190613a49565b50919450925090506001600160e01b031983166346312d8360e11b14611f5a57611f5a63da6153bd60e01b610c5c565b6000611f66838761111f565b90506000611f748287613694565b9050610f0f888585898587612a2f565b6000612710821115611fe25760405162461bcd60e51b815260206004820152602160248201527f426173697320706f696e74732063616e6e6f74206578636565642031305f30306044820152600360fc1b60648201526084016103f8565b612710611fef8385613b7a565b611ff99190613b91565b9392505050565b60003860003884865af16104405763b12d13eb6000526004601cfd5b816014528060345263a9059cbb60601b60005260206000604460106000875af1806001600051141661206157803d853b151710612061576390b8ec186000526004601cfd5b506000603452505050565b60405181606052826040528360601b602c526323b872dd60601b600c52602060006064601c6000895af180600160005114166120bb57803d873b1517106120bb57637939f4246000526004601cfd5b50600060605260405250505050565b60007f097b4f25b64e012d0cf55f67e9b34fe5d57f15b11b95baa4ddd136b424967c005b54919050565b7f097b4f25b64e012d0cf55f67e9b34fe5d57f15b11b95baa4ddd136b424967c00805482908290600090612129908490613694565b90915550505050565b60008061213d6120ca565b9050801561214e5750600092915050565b8260000361215f5750600092915050565b600061216a846114bb565b9050808410848218028418611894565b6000818152600080516020613dc9833981519152602081905260408220805490836121a483613bb3565b909155509392505050565b60008181527f34516f6fe09a043d57f1ff579a303a7ae85314751c77b4eb1a55837604a86e02602052604090208054606091600080516020613dc9833981519152916121fa906136c4565b80601f0160208091040260200160405190810160405280929190818152602001828054612226906136c4565b80156122735780601f1061224857610100808354040283529160200191612273565b820191906000526020600020905b81548152906001019060200180831161225657829003601f168201915b5050505050915050919050565b60008281527f34516f6fe09a043d57f1ff579a303a7ae85314751c77b4eb1a55837604a86e0260205260409020600080516020613dc983398151915290610cda8382613740565b60008181527f34516f6fe09a043d57f1ff579a303a7ae85314751c77b4eb1a55837604a86e01602052604081208054600080516020613dc98339815191529234929161212990849061387c565b60606000612320612cdb565b80519091506000816001600160401b0381111561233f5761233f61349c565b6040519080825280602002602001820160405280156123a457816020015b6123916040518060a00160405280600081526020016060815260200160001515815260200160608152602001606081525090565b81526020019060019003908161235d5790505b5085516020870120909150600090815b848110156124aa576000806000806123e48a86815181106123d7576123d7613949565b6020026020010151612d06565b935093509350935060005b8251811015612499578683828151811061240b5761240b613949565b60200260200101518051906020012003612491576040518060a001604052808c888151811061243c5761243c613949565b6020026020010151815260200186815260200185151581526020018481526020018381525089898151811061247357612473613949565b6020026020010181905250878061248990613bb3565b985050612499565b6001016123ef565b5050600190930192506123b4915050565b50508152949350505050565b60606000600080516020613e098339815191526006015460405162468b7360e31b81526001600160a01b038581166004830152909116915060009082906302345b9890602401600060405180830381865afa158015612519573d6000803e3d6000fd5b505050506040513d6000823e601f3d908101601f191682016040526125419190810190613bcc565b604051631f04207360e31b81526001600160a01b03868116600483015291925060009184169063f821039890602401602060405180830381865afa15801561258d573d6000803e3d6000fd5b505050506040513d601f19601f820116820180604052508101906125b191906136a7565b9050815160001480156125cc57506001600160a01b03811615155b156126465760405162468b7360e31b81526001600160a01b03808316600483015291955085918416906302345b9890602401600060405180830381865afa15801561261b573d6000803e3d6000fd5b505050506040513d6000823e601f3d908101601f191682016040526126439190810190613bcc565b91505b8151600061265582600161387c565b6001600160401b0381111561266c5761266c61349c565b604051908082528060200260200182016040528015612695578160200160208202803683370190505b50905060005b828110156126ef578481815181106126b5576126b5613949565b60200260200101518282815181106126cf576126cf613949565b6001600160a01b039092166020928302919091019091015260010161269b565b508681838151811061270357612703613949565b6001600160a01b03909216602092830291909101909101529695505050505050565b6001600160a01b0385166127435761274363133de07160e31b610c5c565b6001600160a01b03821661276157612761634bb7c20560e01b610c5c565b60008381527f9075c515a635ba70c9696f31149324218d75cf00afe836c482e6473f38b19e0160209081526040808320805460ff191660011781556003810180546001600160a01b0319166001600160a01b03888116919091179091558251908916938101939093527f9075c515a635ba70c9696f31149324218d75cf00afe836c482e6473f38b19e0093909290910160408051601f198184030181529082905284546310df028560e11b83529092506001600160a01b0316906321be050a903490612837908c908b908a908890600401613c7d565b6000604051808303818588803b15801561285057600080fd5b505af1158015612864573d6000803e3d6000fd5b50505050505050505050505050565b60006001600160a01b03831661288b57506000611ff9565b600061289561107b565b604051630b969ea960e31b81526001600160a01b0386811660048301529190911690635cb4f54890602401608060405180830381865afa1580156128dd573d6000803e3d6000fd5b505050506040513d601f19601f820116820180604052508101906129019190613caa565b90508060400151600003612919576000915050611ff9565b612927838260400151611f84565b9150612940612934610c66565b86836020015185610c94565b509392505050565b600082516000146129b957600061295e84612e28565b60408101519091506001600160a01b0316158061297d57506020810151155b1561298c576000915050611894565b61299a838260200151611f84565b91506129b36129a7610c66565b87836040015185610c94565b50611894565b6001600160a01b0384161561189457846001600160a01b0316846001600160a01b0316036129e957506000611894565b612a1a82612a157faca21cc4d2a125f3e0ae03aa135d42b2b9177631aca87599d42a68b47e9008015490565b611f84565b9050611894612a27610c66565b868684610c94565b8115612a4157612a3f85836111a7565b505b612a4b8684612c54565b612a648660405180602001604052806000815250612280565b6000612a6e61107b565b604051628956cd60e71b81526b0526976657241697264726f760a41b60048201526001600160a01b0391909116906344ab668090602401602060405180830381865afa158015612ac2573d6000803e3d6000fd5b505050506040513d601f19601f82011682018060405250810190612ae691906136a7565b90506000816001600160a01b031663dc69fdde600085604051602001612b0e91815260200190565b6040516020818303038152906040526040518363ffffffff1660e01b8152600401612b3a929190613d23565b602060405180830381865afa158015612b57573d6000803e3d6000fd5b505050506040513d601f19601f82011682018060405250810190612b7b91906137ff565b6040516340c10f1960e01b81526001600160a01b03888116600483015260248201839052919250908316906340c10f1990604401600060405180830381600087803b158015612bc957600080fd5b505af1158015612bdd573d6000803e3d6000fd5b50505050816001600160a01b03166340c10f19612bf86109e8565b6040516001600160e01b031960e084901b1681526001600160a01b03909116600482015260248101849052604401600060405180830381600087803b158015612c4057600080fd5b505af1158015611cb4573d6000803e3d6000fd5b60008281527f34516f6fe09a043d57f1ff579a303a7ae85314751c77b4eb1a55837604a86e01602052604081208054600080516020613dc983398151915292849291612ca1908490613694565b9091555050505050565b6000600080516020613da98339815191526120ee565b610440828260405180602001604052806000815250612eb9565b60606104567f672ef851d5f92307da037116e23aa9e31af7e1f7e3ca62c4e6d540631df3fd01612f39565b60008181527f672ef851d5f92307da037116e23aa9e31af7e1f7e3ca62c4e6d540631df3fd0360205260408120805460609291839182917f672ef851d5f92307da037116e23aa9e31af7e1f7e3ca62c4e6d540631df3fd0091612d68906136c4565b80601f0160208091040260200160405190810160405280929190818152602001828054612d94906136c4565b8015612de15780601f10612db657610100808354040283529160200191612de1565b820191906000526020600020905b815481529060010190602001808311612dc457829003601f168201915b50505060008981526003850160205260409020600181015493985060ff9093169650612e13926002019150612f469050565b9250612e1e86612f51565b9150509193509193565b612e556040518060600160405280606081526020016000815260200160006001600160a01b031681525090565b50805160208083019190912060009081527faca21cc4d2a125f3e0ae03aa135d42b2b9177631aca87599d42a68b47e900802825260409081902081516060810183529384528054928401929092526001909101546001600160a01b03169082015290565b612ec3838361302e565b6001600160a01b0383163b15611d0b57600080516020613da9833981519152548281035b612efa6000868380600101945086613184565b612f17576040516368d2bf6b60e11b815260040160405180910390fd5b818110612ee75781600080516020613da9833981519152541461073257600080fd5b60606000611ff98361326c565b60606105ac826132c8565b60008181527f672ef851d5f92307da037116e23aa9e31af7e1f7e3ca62c4e6d540631df3fd0360205260408120606091600490910190612f90826133a5565b90506000816001600160401b03811115612fac57612fac61349c565b604051908082528060200260200182016040528015612fd5578160200160208202803683370190505b50905060005b82811015613025576000612fef85836133af565b90508083838151811061300457613004613949565b6001600160a01b039092166020928302919091019091015250600101612fdb565b50949350505050565b600080516020613da98339815191525460008290036130605760405163b562e8dd60e01b815260040160405180910390fd5b6001600160a01b03831660008181527f6569bde4a160c636ea8b8d11acb83a60d7fec0b8f2e09389306cba0e1340df056020908152604080832080546801000000000000000188020190558483527f6569bde4a160c636ea8b8d11acb83a60d7fec0b8f2e09389306cba0e1340df0490915281206001851460e11b4260a01b178317905582840190839083907fddf252ad1be2c89b69c2b068fc378daa952ba7f163c4a11628f55a4df523b3ef8180a4600183015b81811461314d57808360007fddf252ad1be2c89b69c2b068fc378daa952ba7f163c4a11628f55a4df523b3ef600080a4600101613115565b508160000361316e57604051622e076360e81b815260040160405180910390fd5b600080516020613da98339815191525550505050565b604051630a85bd0160e11b81526000906001600160a01b0385169063150b7a02906131b9903390899088908890600401613d5a565b6020604051808303816000875af19250505080156131f4575060408051601f3d908101601f191682019092526131f191810190613d8d565b60015b613252573d808015613222576040519150601f19603f3d011682016040523d82523d6000602084013e613227565b606091505b50805160000361324a576040516368d2bf6b60e11b815260040160405180910390fd5b805181602001fd5b6001600160e01b031916630a85bd0160e11b149050611894565b6060816000018054806020026020016040519081016040528092919081815260200182805480156132bc57602002820191906000526020600020905b8154815260200190600101908083116132a8575b50505050509050919050565b606081600001805480602002602001604051908101604052809291908181526020016000905b8282101561339a57838290600052602060002001805461330d906136c4565b80601f0160208091040260200160405190810160405280929190818152602001828054613339906136c4565b80156133865780601f1061335b57610100808354040283529160200191613386565b820191906000526020600020905b81548152906001019060200180831161336957829003601f168201915b5050505050815260200190600101906132ee565b505050509050919050565b60006105ac825490565b6000611ff9838360008260000182815481106133cd576133cd613949565b9060005260206000200154905092915050565b600080602083850312156133f357600080fd5b82356001600160401b038082111561340a57600080fd5b818501915085601f83011261341e57600080fd5b81358181111561342d57600080fd5b86602082850101111561343f57600080fd5b60209290920196919550909350505050565b60006020828403121561346357600080fd5b5035919050565b6001600160a01b038116811461094557600080fd5b60006020828403121561349157600080fd5b8135611ff98161346a565b634e487b7160e01b600052604160045260246000fd5b604051606081016001600160401b03811182821017156134d4576134d461349c565b60405290565b604051601f8201601f191681016001600160401b03811182821017156135025761350261349c565b604052919050565b60006001600160401b038211156135235761352361349c565b50601f01601f191660200190565b6000806040838503121561354457600080fd5b823561354f8161346a565b91506020838101356001600160401b038082111561356c57600080fd5b908501906060828803121561358057600080fd5b6135886134b2565b82356135938161346a565b8152828401356135a28161346a565b818501526040830135828111156135b857600080fd5b80840193505087601f8401126135cd57600080fd5b823591506135e26135dd8361350a565b6134da565b82815288858486010111156135f657600080fd5b8285850186830137600085848301015280604083015250809450505050509250929050565b60005b8381101561363657818101518382015260200161361e565b50506000910152565b6000815180845261365781602086016020860161361b565b601f01601f19169290920160200192915050565b602081526000611ff9602083018461363f565b634e487b7160e01b600052601160045260246000fd5b818103818111156105ac576105ac61367e565b6000602082840312156136b957600080fd5b8151611ff98161346a565b600181811c908216806136d857607f821691505b602082108103611ea157634e487b7160e01b600052602260045260246000fd5b601f821115611d0b576000816000526020600020601f850160051c810160208610156137215750805b601f850160051c820191505b818110156113f95782815560010161372d565b81516001600160401b038111156137595761375961349c565b61376d8161376784546136c4565b846136f8565b602080601f8311600181146137a2576000841561378a5750858301515b600019600386901b1c1916600185901b1785556113f9565b600085815260208120601f198616915b828110156137d1578886015182559484019460019091019084016137b2565b50858210156137ef5787850151600019600388901b60f8161c191681555b5050505050600190811b01905550565b60006020828403121561381157600080fd5b5051919050565b60208152600060018060a01b03808451166020840152806020850151166040840152506040830151606080840152611894608084018261363f565b60006020828403121561386557600080fd5b81516001600160401b0381168114611ff957600080fd5b808201808211156105ac576105ac61367e565b6001600160401b038181168382160190808211156119995761199961367e565b6000602082840312156138c157600080fd5b815161ffff81168114611ff957600080fd5b805180151581146138e357600080fd5b919050565b6000602082840312156138fa57600080fd5b611ff9826138d3565b6001600160e01b0319851681526001600160a01b0384811660208301528316604082015260806060820181905260009061393f9083018461363f565b9695505050505050565b634e487b7160e01b600052603260045260246000fd5b6000825161397181846020870161361b565b9190910192915050565b80516020808301519190811015611ea15760001960209190910360031b1b16919050565b60006060820185835260206060602085015281865180845260808601915060208801935060005b818110156139eb5784516001600160a01b0316835293830193918301916001016139c6565b5050809350505050826040830152949350505050565b80516001600160e01b0319811681146138e357600080fd5b6000613a276135dd8461350a565b9050828152838383011115613a3b57600080fd5b611ff983602083018461361b565b60008060008060808587031215613a5f57600080fd5b613a6885613a01565b93506020850151613a788161346a565b6040860151909350613a898161346a565b60608601519092506001600160401b03811115613aa557600080fd5b8501601f81018713613ab657600080fd5b613ac587825160208401613a19565b91505092959194509250565b600060208284031215613ae357600080fd5b81516001600160401b0380821115613afa57600080fd5b9083019060608286031215613b0e57600080fd5b613b166134b2565b8251613b218161346a565b81526020830151613b318161346a565b6020820152604083015182811115613b4857600080fd5b80840193505085601f840112613b5d57600080fd5b613b6c86845160208601613a19565b604082015295945050505050565b80820281158282048414176105ac576105ac61367e565b600082613bae57634e487b7160e01b600052601260045260246000fd5b500490565b600060018201613bc557613bc561367e565b5060010190565b60006020808385031215613bdf57600080fd5b82516001600160401b0380821115613bf657600080fd5b818501915085601f830112613c0a57600080fd5b815181811115613c1c57613c1c61349c565b8060051b9150613c2d8483016134da565b8181529183018401918481019088841115613c4757600080fd5b938501935b83851015613c715784519250613c618361346a565b8282529385019390850190613c4c565b98975050505050505050565b60018060a01b038516815283602082015282604082015260806060820152600061393f608083018461363f565b600060808284031215613cbc57600080fd5b604051608081018181106001600160401b0382111715613cde57613cde61349c565b6040528251613cec8161346a565b81526020830151613cfc8161346a565b602082015260408381015190820152613d17606084016138d3565b60608201529392505050565b600060028410613d4357634e487b7160e01b600052602160045260246000fd5b83825260406020830152611894604083018461363f565b6001600160a01b038581168252841660208201526040810183905260806060820181905260009061393f9083018461363f565b600060208284031215613d9f57600080fd5b611ff982613a0156fe6569bde4a160c636ea8b8d11acb83a60d7fec0b8f2e09389306cba0e1340df0034516f6fe09a043d57f1ff579a303a7ae85314751c77b4eb1a55837604a86e00c21004fcc619240a31f006438274d15cd813308303284436eef6055f0fdcb603c21004fcc619240a31f006438274d15cd813308303284436eef6055f0fdcb600","linkReferences":{}},"methodIdentifiers":{"expiresAt(uint256)":"17c95709","getMembershipCurrency()":"657e45e8","getMembershipDuration()":"8120f0ba","getMembershipFreeAllocation()":"706b8e09","getMembershipImage()":"93b13cb7","getMembershipLimit()":"95d600c8","getMembershipPrice()":"1278076a","getMembershipPricingModule()":"e847abdd","getMembershipRenewalPrice(uint256)":"5803909f","getProtocolFee()":"a5a41031","getSpaceFactory()":"79dda585","joinSpace(address)":"8c625b06","joinSpaceWithReferral(address,(address,address,string))":"686f7684","renewMembership(uint256)":"7c9669ac","revenue()":"3e9491a2","setMembershipFreeAllocation(uint256)":"5becd24a","setMembershipImage(string)":"0ef1be5f","setMembershipLimit(uint256)":"97fb7c1e","setMembershipPrice(uint256)":"69d5f38a","setMembershipPricingModule(address)":"df9a9fe6","withdraw(address)":"51cff8d9"},"id":255}