{"abi":[{"type":"function","name":"__ERC721A_init","inputs":[{"name":"name_","type":"string","internalType":"string"},{"name":"symbol_","type":"string","internalType":"string"}],"outputs":[],"stateMutability":"nonpayable"},{"type":"function","name":"__EntitlementGated_init","inputs":[{"name":"entitlementChecker","type":"address","internalType":"contract IEntitlementChecker"}],"outputs":[],"stateMutability":"nonpayable"},{"type":"function","name":"__Membership_init","inputs":[{"name":"info","type":"tuple","internalType":"struct IMembershipBase.Membership","components":[{"name":"name","type":"string","internalType":"string"},{"name":"symbol","type":"string","internalType":"string"},{"name":"price","type":"uint256","internalType":"uint256"},{"name":"maxSupply","type":"uint256","internalType":"uint256"},{"name":"duration","type":"uint64","internalType":"uint64"},{"name":"currency","type":"address","internalType":"address"},{"name":"feeRecipient","type":"address","internalType":"address"},{"name":"freeAllocation","type":"uint256","internalType":"uint256"},{"name":"pricingModule","type":"address","internalType":"address"}]},{"name":"spaceFactory","type":"address","internalType":"address"}],"outputs":[],"stateMutability":"nonpayable"},{"type":"function","name":"_getMembershipCurrency","inputs":[],"outputs":[{"name":"","type":"address","internalType":"address"}],"stateMutability":"view"},{"type":"function","name":"_getMembershipFreeAllocation","inputs":[],"outputs":[{"name":"","type":"uint256","internalType":"uint256"}],"stateMutability":"view"},{"type":"function","name":"_getMembershipImage","inputs":[],"outputs":[{"name":"","type":"string","internalType":"string"}],"stateMutability":"view"},{"type":"function","name":"_getMembershipPrice","inputs":[{"name":"totalSupply","type":"uint256","internalType":"uint256"}],"outputs":[{"name":"","type":"uint256","internalType":"uint256"}],"stateMutability":"view"},{"type":"function","name":"_getMembershipSupplyLimit","inputs":[],"outputs":[{"name":"","type":"uint256","internalType":"uint256"}],"stateMutability":"view"},{"type":"function","name":"_getPricingModule","inputs":[],"outputs":[{"name":"","type":"address","internalType":"address"}],"stateMutability":"view"},{"type":"function","name":"_getSpaceFactory","inputs":[],"outputs":[{"name":"","type":"address","internalType":"address"}],"stateMutability":"view"},{"type":"function","name":"_setMembershipFreeAllocation","inputs":[{"name":"newAllocation","type":"uint256","internalType":"uint256"}],"outputs":[],"stateMutability":"nonpayable"},{"type":"function","name":"_setMembershipSupplyLimit","inputs":[{"name":"newLimit","type":"uint256","internalType":"uint256"}],"outputs":[],"stateMutability":"nonpayable"},{"type":"function","name":"_setPricingModule","inputs":[{"name":"newPricingModule","type":"address","internalType":"address"}],"outputs":[],"stateMutability":"nonpayable"},{"type":"function","name":"approve","inputs":[{"name":"to","type":"address","internalType":"address"},{"name":"tokenId","type":"uint256","internalType":"uint256"}],"outputs":[],"stateMutability":"payable"},{"type":"function","name":"balanceOf","inputs":[{"name":"owner","type":"address","internalType":"address"}],"outputs":[{"name":"","type":"uint256","internalType":"uint256"}],"stateMutability":"view"},{"type":"function","name":"expiresAt","inputs":[{"name":"tokenId","type":"uint256","internalType":"uint256"}],"outputs":[{"name":"","type":"uint256","internalType":"uint256"}],"stateMutability":"view"},{"type":"function","name":"getApproved","inputs":[{"name":"tokenId","type":"uint256","internalType":"uint256"}],"outputs":[{"name":"","type":"address","internalType":"address"}],"stateMutability":"view"},{"type":"function","name":"getMembershipCurrency","inputs":[],"outputs":[{"name":"","type":"address","internalType":"address"}],"stateMutability":"view"},{"type":"function","name":"getMembershipDuration","inputs":[],"outputs":[{"name":"","type":"uint64","internalType":"uint64"}],"stateMutability":"view"},{"type":"function","name":"getMembershipFreeAllocation","inputs":[],"outputs":[{"name":"","type":"uint256","internalType":"uint256"}],"stateMutability":"view"},{"type":"function","name":"getMembershipImage","inputs":[],"outputs":[{"name":"","type":"string","internalType":"string"}],"stateMutability":"view"},{"type":"function","name":"getMembershipLimit","inputs":[],"outputs":[{"name":"","type":"uint256","internalType":"uint256"}],"stateMutability":"view"},{"type":"function","name":"getMembershipPrice","inputs":[],"outputs":[{"name":"","type":"uint256","internalType":"uint256"}],"stateMutability":"view"},{"type":"function","name":"getMembershipPricingModule","inputs":[],"outputs":[{"name":"","type":"address","internalType":"address"}],"stateMutability":"view"},{"type":"function","name":"getMembershipRenewalPrice","inputs":[{"name":"tokenId","type":"uint256","internalType":"uint256"}],"outputs":[{"name":"","type":"uint256","internalType":"uint256"}],"stateMutability":"view"},{"type":"function","name":"getRuleData","inputs":[{"name":"transactionId","type":"bytes32","internalType":"bytes32"},{"name":"roleId","type":"uint256","internalType":"uint256"}],"outputs":[{"name":"","type":"tuple","internalType":"struct IRuleEntitlement.RuleData","components":[{"name":"operations","type":"tuple[]","internalType":"struct IRuleEntitlement.Operation[]","components":[{"name":"opType","type":"uint8","internalType":"enum IRuleEntitlement.CombinedOperationType"},{"name":"index","type":"uint8","internalType":"uint8"}]},{"name":"checkOperations","type":"tuple[]","internalType":"struct IRuleEntitlement.CheckOperation[]","components":[{"name":"opType","type":"uint8","internalType":"enum IRuleEntitlement.CheckOperationType"},{"name":"chainId","type":"uint256","internalType":"uint256"},{"name":"contractAddress","type":"address","internalType":"address"},{"name":"threshold","type":"uint256","internalType":"uint256"}]},{"name":"logicalOperations","type":"tuple[]","internalType":"struct IRuleEntitlement.LogicalOperation[]","components":[{"name":"logOpType","type":"uint8","internalType":"enum IRuleEntitlement.LogicalOperationType"},{"name":"leftOperationIndex","type":"uint8","internalType":"uint8"},{"name":"rightOperationIndex","type":"uint8","internalType":"uint8"}]}]}],"stateMutability":"view"},{"type":"function","name":"getSpaceFactory","inputs":[],"outputs":[{"name":"","type":"address","internalType":"address"}],"stateMutability":"view"},{"type":"function","name":"isApprovedForAll","inputs":[{"name":"owner","type":"address","internalType":"address"},{"name":"operator","type":"address","internalType":"address"}],"outputs":[{"name":"","type":"bool","internalType":"bool"}],"stateMutability":"view"},{"type":"function","name":"joinSpace","inputs":[{"name":"receiver","type":"address","internalType":"address"}],"outputs":[],"stateMutability":"payable"},{"type":"function","name":"joinSpaceWithReferral","inputs":[{"name":"receiver","type":"address","internalType":"address"},{"name":"referrer","type":"address","internalType":"address"},{"name":"referralCode","type":"uint256","internalType":"uint256"}],"outputs":[],"stateMutability":"payable"},{"type":"function","name":"name","inputs":[],"outputs":[{"name":"","type":"string","internalType":"string"}],"stateMutability":"view"},{"type":"function","name":"ownerOf","inputs":[{"name":"tokenId","type":"uint256","internalType":"uint256"}],"outputs":[{"name":"","type":"address","internalType":"address"}],"stateMutability":"view"},{"type":"function","name":"postEntitlementCheckResult","inputs":[{"name":"transactionId","type":"bytes32","internalType":"bytes32"},{"name":"roleId","type":"uint256","internalType":"uint256"},{"name":"result","type":"uint8","internalType":"enum IEntitlementGatedBase.NodeVoteStatus"}],"outputs":[],"stateMutability":"nonpayable"},{"type":"function","name":"renewMembership","inputs":[{"name":"tokenId","type":"uint256","internalType":"uint256"}],"outputs":[],"stateMutability":"payable"},{"type":"function","name":"safeTransferFrom","inputs":[{"name":"from","type":"address","internalType":"address"},{"name":"to","type":"address","internalType":"address"},{"name":"tokenId","type":"uint256","internalType":"uint256"}],"outputs":[],"stateMutability":"payable"},{"type":"function","name":"safeTransferFrom","inputs":[{"name":"from","type":"address","internalType":"address"},{"name":"to","type":"address","internalType":"address"},{"name":"tokenId","type":"uint256","internalType":"uint256"},{"name":"_data","type":"bytes","internalType":"bytes"}],"outputs":[],"stateMutability":"payable"},{"type":"function","name":"setApprovalForAll","inputs":[{"name":"operator","type":"address","internalType":"address"},{"name":"approved","type":"bool","internalType":"bool"}],"outputs":[],"stateMutability":"nonpayable"},{"type":"function","name":"setMembershipFreeAllocation","inputs":[{"name":"newAllocation","type":"uint256","internalType":"uint256"}],"outputs":[],"stateMutability":"nonpayable"},{"type":"function","name":"setMembershipImage","inputs":[{"name":"newImage","type":"string","internalType":"string"}],"outputs":[],"stateMutability":"nonpayable"},{"type":"function","name":"setMembershipLimit","inputs":[{"name":"newLimit","type":"uint256","internalType":"uint256"}],"outputs":[],"stateMutability":"nonpayable"},{"type":"function","name":"setMembershipPrice","inputs":[{"name":"newPrice","type":"uint256","internalType":"uint256"}],"outputs":[],"stateMutability":"nonpayable"},{"type":"function","name":"setMembershipPricingModule","inputs":[{"name":"pricingModule","type":"address","internalType":"address"}],"outputs":[],"stateMutability":"nonpayable"},{"type":"function","name":"symbol","inputs":[],"outputs":[{"name":"","type":"string","internalType":"string"}],"stateMutability":"view"},{"type":"function","name":"tokenURI","inputs":[{"name":"tokenId","type":"uint256","internalType":"uint256"}],"outputs":[{"name":"","type":"string","internalType":"string"}],"stateMutability":"view"},{"type":"function","name":"totalSupply","inputs":[],"outputs":[{"name":"","type":"uint256","internalType":"uint256"}],"stateMutability":"view"},{"type":"function","name":"transferFrom","inputs":[{"name":"from","type":"address","internalType":"address"},{"name":"to","type":"address","internalType":"address"},{"name":"tokenId","type":"uint256","internalType":"uint256"}],"outputs":[],"stateMutability":"payable"},{"type":"function","name":"withdraw","inputs":[{"name":"account","type":"address","internalType":"address"}],"outputs":[],"stateMutability":"nonpayable"},{"type":"event","name":"Approval","inputs":[{"name":"owner","type":"address","indexed":true,"internalType":"address"},{"name":"approved","type":"address","indexed":true,"internalType":"address"},{"name":"tokenId","type":"uint256","indexed":true,"internalType":"uint256"}],"anonymous":false},{"type":"event","name":"ApprovalForAll","inputs":[{"name":"owner","type":"address","indexed":true,"internalType":"address"},{"name":"operator","type":"address","indexed":true,"internalType":"address"},{"name":"approved","type":"bool","indexed":false,"internalType":"bool"}],"anonymous":false},{"type":"event","name":"Banned","inputs":[{"name":"moderator","type":"address","indexed":true,"internalType":"address"},{"name":"tokenId","type":"uint256","indexed":true,"internalType":"uint256"}],"anonymous":false},{"type":"event","name":"ConsecutiveTransfer","inputs":[{"name":"fromTokenId","type":"uint256","indexed":true,"internalType":"uint256"},{"name":"toTokenId","type":"uint256","indexed":false,"internalType":"uint256"},{"name":"from","type":"address","indexed":true,"internalType":"address"},{"name":"to","type":"address","indexed":true,"internalType":"address"}],"anonymous":false},{"type":"event","name":"EntitlementCheckResultPosted","inputs":[{"name":"transactionId","type":"bytes32","indexed":true,"internalType":"bytes32"},{"name":"result","type":"uint8","indexed":false,"internalType":"enum IEntitlementGatedBase.NodeVoteStatus"}],"anonymous":false},{"type":"event","name":"Initialized","inputs":[{"name":"version","type":"uint32","indexed":false,"internalType":"uint32"}],"anonymous":false},{"type":"event","name":"InterfaceAdded","inputs":[{"name":"interfaceId","type":"bytes4","indexed":true,"internalType":"bytes4"}],"anonymous":false},{"type":"event","name":"InterfaceRemoved","inputs":[{"name":"interfaceId","type":"bytes4","indexed":true,"internalType":"bytes4"}],"anonymous":false},{"type":"event","name":"MembershipCurrencyUpdated","inputs":[{"name":"currency","type":"address","indexed":true,"internalType":"address"}],"anonymous":false},{"type":"event","name":"MembershipFeeRecipientUpdated","inputs":[{"name":"recipient","type":"address","indexed":true,"internalType":"address"}],"anonymous":false},{"type":"event","name":"MembershipFreeAllocationUpdated","inputs":[{"name":"allocation","type":"uint256","indexed":true,"internalType":"uint256"}],"anonymous":false},{"type":"event","name":"MembershipLimitUpdated","inputs":[{"name":"limit","type":"uint256","indexed":true,"internalType":"uint256"}],"anonymous":false},{"type":"event","name":"MembershipPriceUpdated","inputs":[{"name":"price","type":"uint256","indexed":true,"internalType":"uint256"}],"anonymous":false},{"type":"event","name":"MembershipTokenIssued","inputs":[{"name":"recipient","type":"address","indexed":true,"internalType":"address"},{"name":"tokenId","type":"uint256","indexed":true,"internalType":"uint256"}],"anonymous":false},{"type":"event","name":"MembershipTokenRejected","inputs":[{"name":"recipient","type":"address","indexed":true,"internalType":"address"}],"anonymous":false},{"type":"event","name":"MembershipWithdrawal","inputs":[{"name":"recipient","type":"address","indexed":true,"internalType":"address"},{"name":"amount","type":"uint256","indexed":false,"internalType":"uint256"}],"anonymous":false},{"type":"event","name":"Membership__ReferralCreated","inputs":[{"name":"code","type":"uint256","indexed":true,"internalType":"uint256"},{"name":"bps","type":"uint16","indexed":false,"internalType":"uint16"}],"anonymous":false},{"type":"event","name":"Membership__ReferralRemoved","inputs":[{"name":"code","type":"uint256","indexed":true,"internalType":"uint256"}],"anonymous":false},{"type":"event","name":"Membership__ReferralTimeCreated","inputs":[{"name":"code","type":"uint256","indexed":true,"internalType":"uint256"},{"name":"bps","type":"uint16","indexed":false,"internalType":"uint16"},{"name":"startTime","type":"uint256","indexed":false,"internalType":"uint256"},{"name":"endTime","type":"uint256","indexed":false,"internalType":"uint256"}],"anonymous":false},{"type":"event","name":"OwnershipTransferred","inputs":[{"name":"previousOwner","type":"address","indexed":true,"internalType":"address"},{"name":"newOwner","type":"address","indexed":true,"internalType":"address"}],"anonymous":false},{"type":"event","name":"Paused","inputs":[{"name":"account","type":"address","indexed":false,"internalType":"address"}],"anonymous":false},{"type":"event","name":"RoleCreated","inputs":[{"name":"creator","type":"address","indexed":true,"internalType":"address"},{"name":"roleId","type":"uint256","indexed":true,"internalType":"uint256"}],"anonymous":false},{"type":"event","name":"RoleRemoved","inputs":[{"name":"remover","type":"address","indexed":true,"internalType":"address"},{"name":"roleId","type":"uint256","indexed":true,"internalType":"uint256"}],"anonymous":false},{"type":"event","name":"RoleUpdated","inputs":[{"name":"updater","type":"address","indexed":true,"internalType":"address"},{"name":"roleId","type":"uint256","indexed":true,"internalType":"uint256"}],"anonymous":false},{"type":"event","name":"SubscriptionUpdate","inputs":[{"name":"tokenId","type":"uint256","indexed":true,"internalType":"uint256"},{"name":"expiration","type":"uint64","indexed":false,"internalType":"uint64"}],"anonymous":false},{"type":"event","name":"Transfer","inputs":[{"name":"from","type":"address","indexed":true,"internalType":"address"},{"name":"to","type":"address","indexed":true,"internalType":"address"},{"name":"tokenId","type":"uint256","indexed":true,"internalType":"uint256"}],"anonymous":false},{"type":"event","name":"Unbanned","inputs":[{"name":"moderator","type":"address","indexed":true,"internalType":"address"},{"name":"tokenId","type":"uint256","indexed":true,"internalType":"uint256"}],"anonymous":false},{"type":"event","name":"Unpaused","inputs":[{"name":"account","type":"address","indexed":false,"internalType":"address"}],"anonymous":false},{"type":"error","name":"AddressEmptyCode","inputs":[{"name":"target","type":"address","internalType":"address"}]},{"type":"error","name":"AddressInsufficientBalance","inputs":[{"name":"account","type":"address","internalType":"address"}]},{"type":"error","name":"ApprovalCallerNotOwnerNorApproved","inputs":[]},{"type":"error","name":"ApprovalQueryForNonexistentToken","inputs":[]},{"type":"error","name":"BalanceQueryForZeroAddress","inputs":[]},{"type":"error","name":"Banning__AlreadyBanned","inputs":[{"name":"tokenId","type":"uint256","internalType":"uint256"}]},{"type":"error","name":"Banning__CannotBanSelf","inputs":[]},{"type":"error","name":"Banning__InvalidTokenId","inputs":[{"name":"tokenId","type":"uint256","internalType":"uint256"}]},{"type":"error","name":"Banning__NotBanned","inputs":[{"name":"tokenId","type":"uint256","internalType":"uint256"}]},{"type":"error","name":"Dispatcher__InvalidCaller","inputs":[]},{"type":"error","name":"Dispatcher__InvalidValue","inputs":[]},{"type":"error","name":"ERC5643__DurationZero","inputs":[]},{"type":"error","name":"ERC5643__InvalidTokenId","inputs":[{"name":"tokenId","type":"uint256","internalType":"uint256"}]},{"type":"error","name":"ERC5643__NotApprovedOrOwner","inputs":[]},{"type":"error","name":"ERC5643__SubscriptionNotRenewable","inputs":[{"name":"tokenId","type":"uint256","internalType":"uint256"}]},{"type":"error","name":"EntitlementGated_InvalidAddress","inputs":[]},{"type":"error","name":"EntitlementGated_NodeAlreadyVoted","inputs":[]},{"type":"error","name":"EntitlementGated_NodeNotFound","inputs":[]},{"type":"error","name":"EntitlementGated_TransactionCheckAlreadyCompleted","inputs":[]},{"type":"error","name":"EntitlementGated_TransactionCheckAlreadyRegistered","inputs":[]},{"type":"error","name":"EntitlementGated_TransactionNotRegistered","inputs":[]},{"type":"error","name":"Entitlement__InvalidValue","inputs":[]},{"type":"error","name":"Entitlement__NotAllowed","inputs":[]},{"type":"error","name":"Entitlement__NotMember","inputs":[]},{"type":"error","name":"Entitlement__ValueAlreadyExists","inputs":[]},{"type":"error","name":"FailedInnerCall","inputs":[]},{"type":"error","name":"Initializable_InInitializingState","inputs":[]},{"type":"error","name":"Initializable_NotInInitializingState","inputs":[]},{"type":"error","name":"Introspection_AlreadySupported","inputs":[]},{"type":"error","name":"Introspection_NotSupported","inputs":[]},{"type":"error","name":"Membership__AlreadyMember","inputs":[]},{"type":"error","name":"Membership__InsufficientAllowance","inputs":[]},{"type":"error","name":"Membership__InsufficientPayment","inputs":[]},{"type":"error","name":"Membership__InvalidAddress","inputs":[]},{"type":"error","name":"Membership__InvalidCurrency","inputs":[]},{"type":"error","name":"Membership__InvalidDuration","inputs":[]},{"type":"error","name":"Membership__InvalidFeeRecipient","inputs":[]},{"type":"error","name":"Membership__InvalidFreeAllocation","inputs":[]},{"type":"error","name":"Membership__InvalidLimit","inputs":[]},{"type":"error","name":"Membership__InvalidMaxSupply","inputs":[]},{"type":"error","name":"Membership__InvalidPrice","inputs":[]},{"type":"error","name":"Membership__InvalidPricingModule","inputs":[]},{"type":"error","name":"Membership__InvalidReferralBps","inputs":[]},{"type":"error","name":"Membership__InvalidReferralCode","inputs":[]},{"type":"error","name":"Membership__InvalidReferralTime","inputs":[]},{"type":"error","name":"Membership__InvalidTokenId","inputs":[]},{"type":"error","name":"Membership__MaxSupplyReached","inputs":[]},{"type":"error","name":"Membership__NotExpired","inputs":[]},{"type":"error","name":"Membership__PriceTooLow","inputs":[]},{"type":"error","name":"MintERC2309QuantityExceedsLimit","inputs":[]},{"type":"error","name":"MintToZeroAddress","inputs":[]},{"type":"error","name":"MintZeroQuantity","inputs":[]},{"type":"error","name":"Ownable__NotOwner","inputs":[{"name":"account","type":"address","internalType":"address"}]},{"type":"error","name":"Ownable__ZeroAddress","inputs":[]},{"type":"error","name":"OwnerQueryForNonexistentToken","inputs":[]},{"type":"error","name":"OwnershipNotInitializedForExtraData","inputs":[]},{"type":"error","name":"Pausable__NotPaused","inputs":[]},{"type":"error","name":"Pausable__Paused","inputs":[]},{"type":"error","name":"ReentrancyGuard__ReentrantCall","inputs":[]},{"type":"error","name":"Roles__EntitlementAlreadyExists","inputs":[]},{"type":"error","name":"Roles__EntitlementDoesNotExist","inputs":[]},{"type":"error","name":"Roles__InvalidEntitlementAddress","inputs":[]},{"type":"error","name":"Roles__InvalidPermission","inputs":[]},{"type":"error","name":"Roles__PermissionAlreadyExists","inputs":[]},{"type":"error","name":"Roles__PermissionDoesNotExist","inputs":[]},{"type":"error","name":"Roles__RoleDoesNotExist","inputs":[]},{"type":"error","name":"SafeERC20FailedOperation","inputs":[{"name":"token","type":"address","internalType":"address"}]},{"type":"error","name":"TransferCallerNotOwnerNorApproved","inputs":[]},{"type":"error","name":"TransferFromIncorrectOwner","inputs":[]},{"type":"error","name":"TransferToNonERC721ReceiverImplementer","inputs":[]},{"type":"error","name":"TransferToZeroAddress","inputs":[]},{"type":"error","name":"URIQueryForNonexistentToken","inputs":[]}],"bytecode":{"object":"0x60806040523480156200001157600080fd5b506200001c62000022565b620000ca565b7f59b501c3653afc186af7d48dda36cf6732bd21629a6295693664240a6ef520008054640100000000900460ff16156200006f576040516366008a2d60e01b815260040160405180910390fd5b805463ffffffff9081161015620000c757805463ffffffff191663ffffffff90811782556040519081527fe9c9b456cb2994b80aeef036cf59d26e9617df80f816a6ee5a5b4166e07e2f5c9060200160405180910390a15b50565b6152c880620000da6000396000f3fe6080604052600436106102885760003560e01c806377460cd31161015a578063a22cb465116100c1578063d2f01f191161007a578063d2f01f1914610745578063d33d934514610765578063df9a9fe61461077a578063e847abdd1461079a578063e985e9c5146107af578063f9d5d22c146107df57600080fd5b8063a22cb465146106b5578063ac7ee626146106d5578063b3a5be6d146106ea578063b88d4fde146106ff578063c87b56dd14610712578063c9f7c8331461073257600080fd5b80638c625b06116101135780638c625b061461061657806392c399ff1461062957806393b13cb71461065657806395d600c81461066b57806395d89b411461068057806397fb7c1e1461069557600080fd5b806377460cd31461057757806379dda5851461058c5780637adc9cbe146105a15780637c9669ac146105c15780638120f0ba146105d45780638934207f1461060157600080fd5b80634c2abfbe116101fe57806369d5f38a116101b757806369d5f38a146104cd57806369d9346b146104ed578063702515631461050d578063706b8e091461052257806370a082311461053757806373fc5a051461055757600080fd5b80634c2abfbe1461041857806351cff8d9146104385780635803909f146104585780635becd24a146104785780636352211e14610498578063657e45e8146104b857600080fd5b806317c957091161025057806317c957091461034857806318160ddd1461039d57806323b872dd146103b25780633ded10de146103c557806342842e0e146103e55780634739e805146103f857600080fd5b806306fdde031461028d578063081812fc146102b8578063095ea7b3146102f05780630ef1be5f146103055780631278076a14610325575b600080fd5b34801561029957600080fd5b506102a26107ff565b6040516102af9190614348565b60405180910390f35b3480156102c457600080fd5b506102d86102d336600461435b565b61089a565b6040516001600160a01b0390911681526020016102af565b6103036102fe366004614399565b6108ab565b005b34801561031157600080fd5b506103036103203660046143c5565b6108bb565b34801561033157600080fd5b5061033a61093a565b6040519081526020016102af565b34801561035457600080fd5b5061033a61036336600461435b565b60009081527f4775a23600034fdd9f073b224f794d51a58b35ba663a9602623ba7a5c09cce0060205260409020546001600160401b031690565b3480156103a957600080fd5b5061033a61094c565b6103036103c0366004614436565b610956565b3480156103d157600080fd5b5061033a6103e036600461435b565b610b4d565b6103036103f3366004614436565b610cdc565b34801561040457600080fd5b50610303610413366004614484565b610cfc565b34801561042457600080fd5b50610303610433366004614629565b610d65565b34801561044457600080fd5b50610303610453366004614732565b610dc9565b34801561046457600080fd5b5061033a61047336600461435b565b610e6b565b34801561048457600080fd5b5061030361049336600461435b565b610e7e565b3480156104a457600080fd5b506102d86104b336600461435b565b610f03565b3480156104c457600080fd5b506102d8610f0e565b3480156104d957600080fd5b506103036104e836600461435b565b610f18565b3480156104f957600080fd5b50610303610508366004614732565b610fc6565b34801561051957600080fd5b506102d8610ff3565b34801561052e57600080fd5b5061033a61100f565b34801561054357600080fd5b5061033a610552366004614732565b611019565b34801561056357600080fd5b5061030361057236600461435b565b611024565b34801561058357600080fd5b506102d8611034565b34801561059857600080fd5b506102d8611050565b3480156105ad57600080fd5b506103036105bc366004614732565b61105a565b6103036105cf36600461435b565b61109e565b3480156105e057600080fd5b506105e96111fb565b6040516001600160401b0390911681526020016102af565b34801561060d57600080fd5b5061033a611205565b610303610624366004614732565b611218565b34801561063557600080fd5b5061064961064436600461474f565b61162a565b6040516102af9190614862565b34801561066257600080fd5b506102a261165f565b34801561067757600080fd5b5061033a611669565b34801561068c57600080fd5b506102a2611673565b3480156106a157600080fd5b506103036106b036600461435b565b61168b565b3480156106c157600080fd5b506103036106d0366004614909565b6116e0565b3480156106e157600080fd5b506102d861175d565b3480156106f657600080fd5b5061033a611779565b61030361070d366004614942565b611818565b34801561071e57600080fd5b506102a261072d36600461435b565b611862565b610303610740366004614436565b6118f2565b34801561075157600080fd5b506103036107603660046149c1565b611a0c565b34801561077157600080fd5b506102a2611a4e565b34801561078657600080fd5b50610303610795366004614732565b611a66565b3480156107a657600080fd5b506102d8611ab3565b3480156107bb57600080fd5b506107cf6107ca366004614a24565b611abd565b60405190151581526020016102af565b3480156107eb57600080fd5b506103036107fa36600461435b565b611ac9565b6060610809611b0c565b600201805461081790614a52565b80601f016020809104026020016040519081016040528092919081815260200182805461084390614a52565b80156108905780601f1061086557610100808354040283529160200191610890565b820191906000526020600020905b81548152906001019060200180831161087357829003601f168201915b5050505050905090565b60006108a582611b30565b92915050565b6108b782826001611b7d565b5050565b6108c3611c32565b6001600160a01b0316336001600160a01b0316146108fb576040516365f4906560e01b81523360048201526024015b60405180910390fd5b6108b782828080601f016020809104026020016040519081016040528093929190818152602001838380828437600092019190915250611cfc92505050565b60006109476103e0611d13565b905090565b6000610947611d13565b600061096182611d32565b9050836001600160a01b0316816001600160a01b0316146109945760405162a1148160e81b815260040160405180910390fd5b6000806109a084611dcd565b915091506109c581876109b03390565b6001600160a01b039081169116811491141790565b6109f0576109d38633611abd565b6109f057604051632ce44b5f60e11b815260040160405180910390fd5b6001600160a01b038516610a1757604051633a954ecd60e21b815260040160405180910390fd5b8015610a2257600082555b610a2a611b0c565b6001600160a01b0387166000908152600591909101602052604090208054600019019055610a56611b0c565b6001600160a01b03861660008181526005929092016020526040909120805460010190554260a01b17600160e11b17610a8d611b0c565b60008681526004919091016020526040812091909155600160e11b84169003610b035760018401610abc611b0c565b600082815260049190910160205260408120549003610b0157610add611b0c565b548114610b015783610aed611b0c565b600083815260049190910160205260409020555b505b83856001600160a01b0316876001600160a01b03167fddf252ad1be2c89b69c2b068fc378daa952ba7f163c4a11628f55a4df523b3ef60405160405180910390a45b505050505050565b600080610b58611df5565b90506000610b64611779565b905083811115610b78575060009392505050565b6006820154604051639262b1b360e01b815230600482015285916001600160a01b031690639262b1b390602401602060405180830381865afa158015610bc2573d6000803e3d6000fd5b505050506040513d601f19601f82011682018060405250810190610be69190614a86565b1115610bf6575060009392505050565b60088201546001600160a01b031615610c87576008820154604051635cf4ee9160e01b815260048101839052602481018690526001600160a01b0390911690635cf4ee9190604401602060405180830381865afa158015610c5b573d6000803e3d6000fd5b505050506040513d601f19601f82011682018060405250810190610c7f9190614a86565b949350505050565b8160060160009054906101000a90046001600160a01b03166001600160a01b0316630eac306d6040518163ffffffff1660e01b8152600401602060405180830381865afa158015610c5b573d6000803e3d6000fd5b610cf783838360405180602001604052806000815250611818565b505050565b60026000805160206152288339815191525403610d2c57604051635db5c7cd60e11b815260040160405180910390fd5b610d43600260008051602061522883398151915255565b610d4e838383611e19565b610cf7600160008051602061522883398151915255565b60008051602061528883398151915254640100000000900460ff16610d9d57604051630ef4733760e31b815260040160405180910390fd5b610dad63421fb7a760e01b6120bc565b610db7828261219a565b6108b7826000015183602001516122bd565b610dd1611c32565b6001600160a01b0316336001600160a01b031614610e04576040516365f4906560e01b81523360048201526024016108f2565b6001600160a01b038116610e2b57604051635fbd571760e01b815260040160405180910390fd5b6000610e3561231f565b905080600003610e5857604051635894b54560e11b815260040160405180910390fd5b6108b7610e63610ff3565b308484612332565b60006108a582610e79611d13565b612378565b610e86611c32565b6001600160a01b0316336001600160a01b031614610eb9576040516365f4906560e01b81523360048201526024016108f2565b6000610ec3611205565b90508015801590610ed357508082115b15610ef15760405163c3983b9160e01b815260040160405180910390fd5b610efa826123be565b6108b782611ac9565b60006108a582611d32565b6000610947610ff3565b610f20611c32565b6001600160a01b0316336001600160a01b031614610f53576040516365f4906560e01b81523360048201526024016108f2565b610f5c81612463565b610f6461175d565b6001600160a01b03166391b7f5ed826040518263ffffffff1660e01b8152600401610f9191815260200190565b600060405180830381600087803b158015610fab57600080fd5b505af1158015610fbf573d6000803e3d6000fd5b5050505050565b80610fcf611df5565b60080180546001600160a01b0319166001600160a01b039290921691909117905550565b6000610ffd611df5565b600401546001600160a01b0316919050565b6000610947611779565b60006108a5826124f1565b8061102d611df5565b6003015550565b600061103e611df5565b600601546001600160a01b0316919050565b6000610947611034565b60008051602061528883398151915254640100000000900460ff1661109257604051630ef4733760e31b815260040160405180910390fd5b61109b81612559565b50565b600260008051602061522883398151915254036110ce57604051635db5c7cd60e11b815260040160405180910390fd5b6110e5600260008051602061522883398151915255565b60006110f082610f03565b90506001600160a01b03811661111957604051635fbd571760e01b815260040160405180910390fd5b60008281527f4775a23600034fdd9f073b224f794d51a58b35ba663a9602623ba7a5c09cce0060205260409020546001600160401b0316611158612594565b6001600160401b031661116b4283614ab5565b106111895760405163dce9a1d360e01b815260040160405180910390fd5b600061119784610e79611d13565b905080156111d05760006111ab848361261a565b905060006111b98284614ab5565b905080156111cd576111cb8582612732565b505b50505b6111e1846111dc612594565b6128d0565b50505061109b600160008051602061522883398151915255565b6000610947612594565b600061120f611df5565b60030154905090565b6002600080516020615228833981519152540361124857604051635db5c7cd60e11b815260040160405180910390fd5b61125f600260008051602061522883398151915255565b61126881612999565b60405133606081901b6bffffffffffffffffffffffff191660208301524360348301526000918290605401604051602081830303815290604052805190602001209050600061132b826112ff84866112bf87612a02565b604080516020808201959095526001600160a01b039390931683820152606080840192909252805180840390920182526080909201909152805191012090565b604080516020808201949094528082019290925280518083038201815260609092019052805191012090565b905061136d8184876040516020016113599291906001600160a01b0392831681529116602082015260400190565b604051602081830303815290604052612a37565b341561137d5761137d8134612a7e565b60006113a9604051806040016040528060098152602001684a6f696e537061636560b81b815250612b04565b905060005b81518110156115d25760008282815181106113cb576113cb614ac8565b6020026020010151905080604001516115c95760005b8160800151518110156115c75760008260800151828151811061140657611406614ac8565b60200260200101519050806001600160a01b0316632e1b61e46040518163ffffffff1660e01b8152600401602060405180830381865afa15801561144e573d6000803e3d6000fd5b505050506040513d601f19601f820116820180604052508101906114729190614ade565b6115aa576040805160018082528183019092526000916020808301908036833701905050905088816000815181106114ac576114ac614ac8565b60200260200101906001600160a01b031690816001600160a01b031681525050816001600160a01b0316630cf0b533600083604051806040016040528060098152602001684a6f696e537061636560b81b8152506040516020016115109190614afb565b60405160208183030381529060405261152890614b17565b6040518463ffffffff1660e01b815260040161154693929190614b75565b602060405180830381865afa158015611563573d6000803e3d6000fd5b505050506040513d601f19601f820116820180604052508101906115879190614ade565b156115a45761159587612d4e565b50505050505050505050611613565b506115be565b6115b986828560000151612ea3565b600198505b506001016113e1565b505b506001016113ae565b508461160d576040516001600160a01b038716907f86fd446d5c04e892d58b448a924dcd9c3ece3a5e0d2960b8c35cd475a5595a1f90600090a25b50505050505b61109b600160008051602061522883398151915255565b61164e60405180606001604052806060815260200160608152602001606081525090565b6116588383613152565b9392505050565b6060610947611a4e565b6000610947611205565b606061167d611b0c565b600301805461081790614a52565b611693611c32565b6001600160a01b0316336001600160a01b0316146116c6576040516365f4906560e01b81523360048201526024016108f2565b6116d7816116d2611d13565b61324c565b61109b81611024565b806116e9611b0c565b336000818152600792909201602090815260408084206001600160a01b03881680865290835293819020805460ff19169515159590951790945592518415158152919290917f17307eab39ab6107e8899845ad3d59bd9653f200f220920489ca2b5937696c31910160405180910390a35050565b6000611767611df5565b600801546001600160a01b0316919050565b600080611784611df5565b600781015490915080156117985792915050565b8160060160009054906101000a90046001600160a01b03166001600160a01b0316632cbb9d136040518163ffffffff1660e01b8152600401602060405180830381865afa1580156117ed573d6000803e3d6000fd5b505050506040513d601f19601f820116820180604052508101906118119190614a86565b9250505090565b611823848484610956565b6001600160a01b0383163b1561185c5761183f8484848461326d565b61185c576040516368d2bf6b60e11b815260040160405180910390fd5b50505050565b606061186d82613358565b61188a57604051630a14c4b560e41b815260040160405180910390fd5b60006118a160408051602081019091526000815290565b905080516000036118c15760405180602001604052806000815250611658565b806118cb84613394565b6040516020016118dc929190614b9e565b6040516020818303038152906040529392505050565b6002600080516020615228833981519152540361192257604051635db5c7cd60e11b815260040160405180910390fd5b611939600260008051602061522883398151915255565b61194283612999565b600061194c6133d8565b9050600061195b6103e0611d13565b905080156119dc5761196d82826133e8565b6000611979868361261a565b905060006119878284614ab5565b90506000611993610ff3565b905081156119d85760006119a78388613408565b90506119b5828a8a84612332565b60006119c18285614ab5565b905080156119d5576119d38a82612732565b505b50505b5050505b6119e78560016134bb565b6119f3826111dc612594565b5050610cf7600160008051602061522883398151915255565b60008051602061528883398151915254640100000000900460ff16611a4457604051630ef4733760e31b815260040160405180910390fd5b6108b782826122bd565b6060611a58611df5565b600c01805461081790614a52565b611a6e611c32565b6001600160a01b0316336001600160a01b031614611aa1576040516365f4906560e01b81523360048201526024016108f2565b611aaa816134d5565b61109b81610fc6565b600061094761175d565b6000611658838361358d565b6000611ad3611df5565b6007810183905560405190915082907fab14a23e88fb272313490d4f20d63098e64fd38304c0e07a377db98c2b39b92f90600090a25050565b7f6569bde4a160c636ea8b8d11acb83a60d7fec0b8f2e09389306cba0e1340df0090565b6000611b3b82613358565b611b58576040516333d1c03960e21b815260040160405180910390fd5b611b60611b0c565b60009283526006016020525060409020546001600160a01b031690565b6000611b8883610f03565b90508115611bc757336001600160a01b03821614611bc757611baa813361358d565b611bc7576040516367d9dca160e11b815260040160405180910390fd5b83611bd0611b0c565b6000858152600691909101602052604080822080546001600160a01b0319166001600160a01b0394851617905551859287811692908516917f8c5be1e5ebec7d5bd14f71427d1e84f3dd0314c0f7b2291e5b200ac8c7c3b9259190a450505050565b6040805180820182527fd2f24d4f172e4e84e48e7c4125b6e904c29e5eba33ad4938fee51dd5dbd4b600546001600160a01b03168082527fd2f24d4f172e4e84e48e7c4125b6e904c29e5eba33ad4938fee51dd5dbd4b60154602080840182905284516331a9108f60e11b815260048101929092529351600094636352211e92602480820193918290030181865afa158015611cd2573d6000803e3d6000fd5b505050506040513d601f19601f82011682018060405250810190611cf69190614bcd565b91505090565b80611d05611df5565b600c01906108b79082614c32565b600080611d1e611b0c565b60010154611d2a611b0c565b540303919050565b600080611d3d611b0c565b60008481526004820160205260408120549350909150600160e01b83169003611db35781600003611dad5780548310611d8957604051636f96cda160e11b815260040160405180910390fd5b5b600019909201600081815260048401602052604090205490929091508115611d8a575b50919050565b50604051636f96cda160e11b815260040160405180910390fd5b6000806000611dda611b0c565b60009485526006016020525050604090912080549092909150565b7fc21004fcc619240a31f006438274d15cd813308303284436eef6055f0fdcb60090565b60008381526000805160206152088339815191526020526040902080546000805160206151e8833981519152919061010090046001600160a01b03161580611e635750805460ff16155b15611e8157604051637ad5a43960e11b815260040160405180910390fd5b600084815260028201602052604090205460ff1615611eb357604051637912b73960e01b815260040160405180910390fd5b600084815260018201602052604081205481908190815b81811015611ff15760008981526001870160205260408120805483908110611ef457611ef4614ac8565b60009182526020909120018054909150336001600160a01b0390911603611f805760008154600160a01b900460ff166002811115611f3457611f34614771565b14611f52576040516347592a4d60e01b815260040160405180910390fd5b80548990829060ff60a01b1916600160a01b836002811115611f7657611f76614771565b0217905550600195505b60018154600160a01b900460ff166002811115611f9f57611f9f614771565b03611fb65784611fae81614cf1565b955050611fe8565b60028154600160a01b900460ff166002811115611fd557611fd5614771565b03611fe85783611fe481614cf1565b9450505b50600101611eca565b508361201057604051638223a7e960e01b815260040160405180910390fd5b61201b600282614d0a565b831180612031575061202e600282614d0a565b82115b156120b15760008881526002860160205260408120805460ff1916600117905582841161205f576002612062565b60015b905061206e8a826135ca565b897fb9d6ce397e562841871d119aaf77469c60a3b5bf8b99a5d9851656015015c6338260405161209e9190614d2c565b60405180910390a26120af8a6136a2565b505b505050505050505050565b6001600160e01b0319811660009081527f81088bbc801e045ea3e7620779ab349988f58afbdfba10dff983df3f33522b00602052604090205460ff161515600114612149576001600160e01b0319811660009081527f81088bbc801e045ea3e7620779ab349988f58afbdfba10dff983df3f33522b0060205260409020805460ff19166001179055612162565b604051637967f77d60e11b815260040160405180910390fd5b6040516001600160e01b03198216907f78f84e5b1c5c05be2b5ad3800781dd404d6d6c6302bc755c0fe20f58a33a7f2290600090a250565b60006121a4611df5565b6006810180546001600160a01b038086166001600160a01b031992831617909255610100860151600884018054919093169082161790915560048201805490911673eeeeeeeeeeeeeeeeeeeeeeeeeeeeeeeeeeeeeeee1790556060840151600382015560e08401516007820181905590915015612228576122288360e001516123be565b6122368361010001516134d5565b604083015115610cf75761224d8360400151612463565b600881015460408085015190516391b7f5ed60e01b81526001600160a01b03909216916391b7f5ed916122869160040190815260200190565b600060405180830381600087803b1580156122a057600080fd5b505af11580156122b4573d6000803e3d6000fd5b50505050505050565b60008051602061528883398151915254640100000000900460ff166122f557604051630ef4733760e31b815260040160405180910390fd5b6123056380ac58cd60e01b6120bc565b612315635b5e139f60e01b6120bc565b6108b7828261376f565b6000612329611df5565b600a0154905090565b801561185c5773eeeeeeeeeeeeeeeeeeeeeeeeeeeeeeeeeeeeeeed196001600160a01b0385160161236c5761236782826137a1565b61185c565b61185c84848484613844565b600080612383611df5565b6000858152600982016020526040902054909150156123b55760008481526009909101602052604090205490506108a5565b610c7f83610b4d565b60006123c8611df5565b90508060060160009054906101000a90046001600160a01b03166001600160a01b0316632cbb9d136040518163ffffffff1660e01b8152600401602060405180830381865afa15801561241f573d6000803e3d6000fd5b505050506040513d601f19601f820116820180604052508101906124439190614a86565b8211156108b75760405163c3983b9160e01b815260040160405180910390fd5b600061246d611034565b6001600160a01b0316630eac306d6040518163ffffffff1660e01b8152600401602060405180830381865afa1580156124aa573d6000803e3d6000fd5b505050506040513d601f19601f820116820180604052508101906124ce9190614a86565b9050808210156108b757604051631a23d64760e11b815260040160405180910390fd5b60006001600160a01b03821661251a576040516323d3ad8160e21b815260040160405180910390fd5b6001600160401b0361252a611b0c565b6005016000846001600160a01b03166001600160a01b0316815260200190815260200160002054169050919050565b612569636afd38fd60e11b6120bc565b6000805160206151e883398151915280546001600160a01b0319166001600160a01b03831617905550565b60008061259f611df5565b90508060060160009054906101000a90046001600160a01b03166001600160a01b0316638120f0ba6040518163ffffffff1660e01b8152600401602060405180830381865afa1580156125f6573d6000803e3d6000fd5b505050506040513d601f19601f82011682018060405250810190611cf69190614d3f565b600080612625611df5565b6006810154600480830154604080516301332c8360e61b815290519495506001600160a01b039384169493909116926000928592634ccb20c092818301926020928290030181865afa15801561267f573d6000803e3d6000fd5b505050506040513d601f19601f820116820180604052508101906126a39190614bcd565b90506000836001600160a01b0316639f6542aa6040518163ffffffff1660e01b8152600401602060405180830381865afa1580156126e5573d6000803e3d6000fd5b505050506040513d601f19601f820116820180604052508101906127099190614d5c565b9050612719878261ffff16613897565b955061272783898489612332565b505050505092915050565b60008061273d611df5565b90506000612749610ff3565b905073eeeeeeeeeeeeeeeeeeeeeeeeeeeeeeeeeeeeeeed196001600160a01b03821601612794578382600a0160008282546127849190614d80565b909155508493506108a592505050565b6040516370a0823160e01b815230600482015281906000906001600160a01b038316906370a0823190602401602060405180830381865afa1580156127dd573d6000803e3d6000fd5b505050506040513d601f19601f820116820180604052508101906128019190614a86565b905061280f83883089612332565b6040516370a0823160e01b81523060048201526000906001600160a01b038416906370a0823190602401602060405180830381865afa158015612856573d6000803e3d6000fd5b505050506040513d601f19601f8201168201806040525081019061287a9190614a86565b905060006128888383614ab5565b90508781146128aa57604051635894b54560e11b815260040160405180910390fd5b8086600a0160008282546128be9190614d80565b90915550909998505050505050505050565b60008281527f4775a23600034fdd9f073b224f794d51a58b35ba663a9602623ba7a5c09cce006020819052604082205490916001600160401b03909116908181036129265761291f8442614d93565b9050612933565b6129308483614d93565b90505b60008581526020848152604091829020805467ffffffffffffffff19166001600160401b038516908117909155915191825286917f2ec2be2c4b90c2cf13ecb6751a24daed6bb741ae5ed3f7371aabf9402f6d62e8910160405180910390a25050505050565b6001600160a01b0381166129c057604051635fbd571760e01b815260040160405180910390fd5b6129c8611205565b158015906129e457506129d9611205565b6129e1611d13565b10155b1561109b57604051637efcdb4960e01b815260040160405180910390fd5b600081815260008051602061524883398151915260208190526040822080549083612a2c83614cf1565b909155509392505050565b60008281527f34516f6fe09a043d57f1ff579a303a7ae85314751c77b4eb1a55837604a86e02602052604090206000805160206152488339815191529061185c8382614c32565b80600003612a9f5760405163acdc0d4960e01b815260040160405180910390fd5b803414612abf5760405163acdc0d4960e01b815260040160405180910390fd5b60008281526000805160206152a883398151915260205260408120805460008051602061524883398151915292849291612afa908490614d80565b9091555050505050565b60606000612b1061390c565b80519091506000816001600160401b03811115612b2f57612b2f6144bd565b604051908082528060200260200182016040528015612b58578160200160208202803683370190505b5085516020870120909150600090815b84811015612c27576000612b94878381518110612b8757612b87614ac8565b6020026020010151613937565b509250505060005b8151811015612c1d5783828281518110612bb857612bb8614ac8565b60200260200101518051906020012003612c1557878381518110612bde57612bde614ac8565b6020026020010151868681518110612bf857612bf8614ac8565b602090810291909101015284612c0d81614cf1565b955050612c1d565b600101612b9c565b5050600101612b68565b506000826001600160401b03811115612c4257612c426144bd565b604051908082528060200260200182016040528015612ca757816020015b612c946040518060a00160405280600081526020016060815260200160001515815260200160608152602001606081525090565b815260200190600190039081612c605790505b50905060005b83811015612d42576000858281518110612cc957612cc9614ac8565b60200260200101519050600080600080612ce285613937565b93509350935093506040518060a00160405280868152602001858152602001841515815260200183815260200182815250878781518110612d2557612d25614ac8565b602002602001018190525050505050508080600101915050612cad565b50979650505050505050565b600080612d5a83613a62565b806020019051810190612d6d9190614db3565b915091506000612d7e6103e0611d13565b90506000612d8a6133d8565b90508115612e4f5760008581526000805160206152a8833981519152602052604081205490819003612dcf57604051635894b54560e11b815260040160405180910390fd5b80831115612df057604051635894b54560e11b815260040160405180910390fd5b612dfa82846133e8565b6000612e06868561261a565b90506000612e148286614ab5565b90508015612e2857612e268782612732565b505b612e328886613b33565b612e4b8860405180602001604052806000815250612a37565b5050505b612e5a8360016134bb565b612e66816111dc612594565b60405181906001600160a01b038516907f2f40b0474996b72a4251e00fb9170cdd960deea1dc749772cbbab61395b9b57690600090a35050505050565b60008381526000805160206152088339815191526020526040902080546000805160206151e8833981519152919060ff161515600103612f355760005b6004820154811015612f335783826004018281548110612f0257612f02614ac8565b906000526020600020015403612f2b576040516301ab53df60e31b815260040160405180910390fd5b600101612ee0565b505b81546001600160a01b0316612f4c57612f4c613b6e565b8154604051634f84544560e01b8152600560048201526000916001600160a01b031690634f84544590602401600060405180830381865afa158015612f95573d6000803e3d6000fd5b505050506040513d6000823e601f3d908101601f19168201604052612fbd9190810190614e05565b825490915060ff16612ffe5781546003830180546001600160a01b0319166001600160a01b0388161790556001600160a81b03191661010033021760011782555b600482018054600181018255600091825260208220018590555b81518110156130ee57826001016000868152602001908152602001600020604051806040016040528084848151811061305357613053614ac8565b60200260200101516001600160a01b031681526020016000600281111561307c5761307c614771565b9052815460018101835560009283526020928390208251910180546001600160a01b031981166001600160a01b03909316928317825593830151929390929183916001600160a81b03191617600160a01b8360028111156130df576130df614771565b02179055505050600101613018565b50825460405163541da4e560e01b81526001600160a01b039091169063541da4e5906131249033908a9089908790600401614e98565b600060405180830381600087803b15801561313e57600080fd5b505af11580156120af573d6000803e3d6000fd5b61317660405180606001604052806060815260200160608152602001606081525090565b60008381526000805160206152088339815191526020526040812080546000805160206151e88339815191529260ff909116151590036131c957604051637ad5a43960e11b815260040160405180910390fd5b600381015460405163069a3ee960e01b8152600481018690526001600160a01b0390911690600090829063069a3ee990602401600060405180830381865afa158015613219573d6000803e3d6000fd5b505050506040513d6000823e601f3d908101601f191682016040526132419190810190615036565b979650505050505050565b808210156108b757604051636664d51760e11b815260040160405180910390fd5b604051630a85bd0160e11b81526000906001600160a01b0385169063150b7a02906132a2903390899088908890600401615173565b6020604051808303816000875af19250505080156132dd575060408051601f3d908101601f191682019092526132da918101906151a6565b60015b61333b573d80801561330b576040519150601f19603f3d011682016040523d82523d6000602084013e613310565b606091505b508051600003613333576040516368d2bf6b60e11b815260040160405180910390fd5b805181602001fd5b6001600160e01b031916630a85bd0160e11b149050949350505050565b6000613362611b0c565b54821080156108a55750600160e01b613379611b0c565b60008481526004919091016020526040902054161592915050565b606060a06040510180604052602081039150506000815280825b600183039250600a81066030018353600a9004806133ae5750819003601f19909101908152919050565b60006133e2611b0c565b54919050565b806133f1611df5565b600093845260090160205260409092209190915550565b60008181527f3c2290b88407133303e904ceb4ee7d0d14164eda8a629372d8406216ceb57e006020819052604082205461ffff1680830361344e576000925050506108a5565b600084815260018084016020908152604092839020835180850190945280548085529201549083015215801590613492575080514210806134925750806020015142115b156134a357600093505050506108a5565b6134b1868361ffff16613897565b9695505050505050565b6108b7828260405180602001604052806000815250613c22565b6001600160a01b0381166134fc57604051630e88bf4b60e01b815260040160405180910390fd5b613504611034565b6040516346fc05eb60e11b81526001600160a01b0383811660048301529190911690638df80bd690602401602060405180830381865afa15801561354c573d6000803e3d6000fd5b505050506040513d601f19601f820116820180604052508101906135709190614ade565b61109b57604051630e88bf4b60e01b815260040160405180910390fd5b6000613597611b0c565b6001600160a01b039384166000908152600791909101602090815260408083209490951682529290925250205460ff1690565b60018160028111156135de576135de614771565b036135ec576108b782612d4e565b6000806135f884613a62565b80602001905181019061360b9190614db3565b915091506136288460405180602001604052806000815250612a37565b60008481526000805160206152a883398151915260205260409020548015613667576136548582613b33565b61366761365f610ff3565b308584612332565b6040516001600160a01b038316907f86fd446d5c04e892d58b448a924dcd9c3ece3a5e0d2960b8c35cd475a5595a1f90600090a25050505050565b6000818152600080516020615208833981519152602052604081206000805160206151e8833981519152915b6004820154811015613722578160010160008360040183815481106136f5576136f5614ac8565b90600052602060002001548152602001908152602001600020600061371a9190614284565b6001016136ce565b506137316004820160006142a2565b6000838152600183016020526040812080546001600160a81b03191681556003810180546001600160a01b031916905590610fbf60048301826142a2565b6000613779611b0c565b9050600281016137898482614c32565b50600381016137988382614c32565b50600090555050565b6000826001600160a01b03168260405160006040518083038185875af1925050503d80600081146137ee576040519150601f19603f3d011682016040523d82523d6000602084013e6137f3565b606091505b5050905080610cf75760405162461bcd60e51b815260206004820152601c60248201527f6e617469766520746f6b656e207472616e73666572206661696c65640000000060448201526064016108f2565b816001600160a01b0316836001600160a01b0316031561185c57306001600160a01b03841603613882576123676001600160a01b0385168383613c98565b61185c6001600160a01b038516848484613cf7565b60006127108211156138f55760405162461bcd60e51b815260206004820152602160248201527f426173697320706f696e74732063616e6e6f74206578636565642031305f30306044820152600360fc1b60648201526084016108f2565b61271061390283856151d0565b6116589190614d0a565b60606109477f672ef851d5f92307da037116e23aa9e31af7e1f7e3ca62c4e6d540631df3fd01613d30565b600081815260008051602061526883398151915260205260408120805460609291839182919061396690614a52565b80601f016020809104026020016040519081016040528092919081815260200182805461399290614a52565b80156139df5780601f106139b4576101008083540402835291602001916139df565b820191906000526020600020905b8154815290600101906020018083116139c257829003601f168201915b50505050509350613a0d7f672ef851d5f92307da037116e23aa9e31af7e1f7e3ca62c4e6d540631df3fd0090565b6000868152600391909101602090815260408083206001015460008051602061526883398151915290925290912060ff9091169350613a4e90600201613d3d565b9150613a5985613d48565b90509193509193565b60008181527f34516f6fe09a043d57f1ff579a303a7ae85314751c77b4eb1a55837604a86e0260205260409020805460609160008051602061524883398151915291613aad90614a52565b80601f0160208091040260200160405190810160405280929190818152602001828054613ad990614a52565b8015613b265780601f10613afb57610100808354040283529160200191613b26565b820191906000526020600020905b815481529060010190602001808311613b0957829003601f168201915b5050505050915050919050565b60008281526000805160206152a883398151915260205260408120805460008051602061524883398151915292849291612afa908490614ab5565b6000805160206151e88339815191526000613b87611df5565b60060154604051628956cd60e71b81526c29b830b1b2a7b832b930ba37b960991b60048201526001600160a01b03909116906344ab668090602401602060405180830381865afa158015613bdf573d6000803e3d6000fd5b505050506040513d601f19601f82011682018060405250810190613c039190614bcd565b82546001600160a01b0319166001600160a01b03919091161790915550565b613c2c8383613e4c565b6001600160a01b0383163b15610cf7576000613c46611b0c565b5490508281035b613c60600086838060010194508661326d565b613c7d576040516368d2bf6b60e11b815260040160405180910390fd5b818110613c4d5781613c8d611b0c565b5414610fbf57600080fd5b6040516001600160a01b03838116602483015260448201839052610cf791859182169063a9059cbb906064015b604051602081830303815290604052915060e01b6020820180516001600160e01b038381831617835250505050613f87565b6040516001600160a01b03848116602483015283811660448301526064820183905261185c9186918216906323b872dd90608401613cc5565b6060600061165883613fea565b60606108a582614046565b60008181526000805160206152688339815191526020526040812060609190613d7390600401614123565b6001600160401b03811115613d8a57613d8a6144bd565b604051908082528060200260200182016040528015613db3578160200160208202803683370190505b50905060005b600084815260008051602061526883398151915260205260409020613de090600401614123565b811015613e4557600084815260008051602061526883398151915260205260408120613e0f906004018361412d565b905080838381518110613e2457613e24614ac8565b6001600160a01b039092166020928302919091019091015250600101613db9565b5092915050565b6000613e56611b0c565b5490506000829003613e7b5760405163b562e8dd60e01b815260040160405180910390fd5b680100000000000000018202613e8f611b0c565b6001600160a01b038516600081815260059290920160205260409091208054929092019091554260a01b6001841460e11b1717613eca611b0c565b600083815260049190910160205260408120919091556001600160a01b0384169083830190839083907fddf252ad1be2c89b69c2b068fc378daa952ba7f163c4a11628f55a4df523b3ef8180a4600183015b818114613f5457808360007fddf252ad1be2c89b69c2b068fc378daa952ba7f163c4a11628f55a4df523b3ef600080a4600101613f1c565b5081600003613f7557604051622e076360e81b815260040160405180910390fd5b80613f7e611b0c565b5550610cf79050565b6000613f9c6001600160a01b03841683614139565b90508051600014158015613fc1575080806020019051810190613fbf9190614ade565b155b15610cf757604051635274afe760e01b81526001600160a01b03841660048201526024016108f2565b60608160000180548060200260200160405190810160405280929190818152602001828054801561403a57602002820191906000526020600020905b815481526020019060010190808311614026575b50505050509050919050565b606081600001805480602002602001604051908101604052809291908181526020016000905b8282101561411857838290600052602060002001805461408b90614a52565b80601f01602080910402602001604051908101604052809291908181526020018280546140b790614a52565b80156141045780601f106140d957610100808354040283529160200191614104565b820191906000526020600020905b8154815290600101906020018083116140e757829003601f168201915b50505050508152602001906001019061406c565b505050509050919050565b60006108a5825490565b60006116588383614147565b606061165883836000614171565b600082600001828154811061415e5761415e614ac8565b9060005260206000200154905092915050565b6060814710156141965760405163cd78605960e01b81523060048201526024016108f2565b600080856001600160a01b031684866040516141b29190614afb565b60006040518083038185875af1925050503d80600081146141ef576040519150601f19603f3d011682016040523d82523d6000602084013e6141f4565b606091505b50915091506134b18683836060826142145761420f8261425b565b611658565b815115801561422b57506001600160a01b0384163b155b1561425457604051639996b31560e01b81526001600160a01b03851660048201526024016108f2565b5080611658565b80511561426b5780518082602001fd5b604051630a12f52160e11b815260040160405180910390fd5b508054600082559060005260206000209081019061109b91906142c0565b508054600082559060005260206000209081019061109b91906142e3565b5b808211156142df5780546001600160a81b03191681556001016142c1565b5090565b5b808211156142df57600081556001016142e4565b60005b838110156143135781810151838201526020016142fb565b50506000910152565b600081518084526143348160208601602086016142f8565b601f01601f19169290920160200192915050565b602081526000611658602083018461431c565b60006020828403121561436d57600080fd5b5035919050565b6001600160a01b038116811461109b57600080fd5b803561439481614374565b919050565b600080604083850312156143ac57600080fd5b82356143b781614374565b946020939093013593505050565b600080602083850312156143d857600080fd5b82356001600160401b03808211156143ef57600080fd5b818501915085601f83011261440357600080fd5b81358181111561441257600080fd5b86602082850101111561442457600080fd5b60209290920196919550909350505050565b60008060006060848603121561444b57600080fd5b833561445681614374565b9250602084013561446681614374565b929592945050506040919091013590565b6003811061109b57600080fd5b60008060006060848603121561449957600080fd5b833592506020840135915060408401356144b281614477565b809150509250925092565b634e487b7160e01b600052604160045260246000fd5b60405161012081016001600160401b03811182821017156144f6576144f66144bd565b60405290565b604051608081016001600160401b03811182821017156144f6576144f66144bd565b604051606081016001600160401b03811182821017156144f6576144f66144bd565b604080519081016001600160401b03811182821017156144f6576144f66144bd565b604051601f8201601f191681016001600160401b038111828210171561458a5761458a6144bd565b604052919050565b60006001600160401b038311156145ab576145ab6144bd565b6145be601f8401601f1916602001614562565b90508281528383830111156145d257600080fd5b828260208301376000602084830101529392505050565b600082601f8301126145fa57600080fd5b61165883833560208501614592565b6001600160401b038116811461109b57600080fd5b803561439481614609565b6000806040838503121561463c57600080fd5b82356001600160401b038082111561465357600080fd5b90840190610120828703121561466857600080fd5b6146706144d3565b82358281111561467f57600080fd5b61468b888286016145e9565b8252506020830135828111156146a057600080fd5b6146ac888286016145e9565b60208301525060408301356040820152606083013560608201526146d26080840161461e565b60808201526146e360a08401614389565b60a08201526146f460c08401614389565b60c082015260e083013560e08201526101009150614713828401614389565b8282015280945050505061472960208401614389565b90509250929050565b60006020828403121561474457600080fd5b813561165881614374565b6000806040838503121561476257600080fd5b50508035926020909101359150565b634e487b7160e01b600052602160045260246000fd5b6003811061109b5761109b614771565b60008151808452602080850194506020840160005b838110156148015781518051600681106147c8576147c8614771565b885280840151848901526040808201516001600160a01b03169089015260609081015190880152608090960195908201906001016147ac565b509495945050505050565b60008151808452602080850194506020840160005b83811015614801578151805161483681614787565b88528084015160ff908116858a0152604091820151169088015260609096019590820190600101614821565b6020808252825160608383015280516080840181905260009291820190839060a08601905b808310156148be578351805161489c81614787565b835285015160ff16858301529284019260019290920191604090910190614887565b50838701519350601f199250828682030160408701526148de8185614797565b935050506040850151818584030160608601526134b1838261480c565b801515811461109b57600080fd5b6000806040838503121561491c57600080fd5b823561492781614374565b91506020830135614937816148fb565b809150509250929050565b6000806000806080858703121561495857600080fd5b843561496381614374565b9350602085013561497381614374565b92506040850135915060608501356001600160401b0381111561499557600080fd5b8501601f810187136149a657600080fd5b6149b587823560208401614592565b91505092959194509250565b600080604083850312156149d457600080fd5b82356001600160401b03808211156149eb57600080fd5b6149f7868387016145e9565b93506020850135915080821115614a0d57600080fd5b50614a1a858286016145e9565b9150509250929050565b60008060408385031215614a3757600080fd5b8235614a4281614374565b9150602083013561493781614374565b600181811c90821680614a6657607f821691505b602082108103611dad57634e487b7160e01b600052602260045260246000fd5b600060208284031215614a9857600080fd5b5051919050565b634e487b7160e01b600052601160045260246000fd5b818103818111156108a5576108a5614a9f565b634e487b7160e01b600052603260045260246000fd5b600060208284031215614af057600080fd5b8151611658816148fb565b60008251614b0d8184602087016142f8565b9190910192915050565b80516020808301519190811015611dad5760001960209190910360031b1b16919050565b60008151808452602080850194506020840160005b838110156148015781516001600160a01b031687529582019590820190600101614b50565b838152606060208201526000614b8e6060830185614b3b565b9050826040830152949350505050565b60008351614bb08184602088016142f8565b835190830190614bc48183602088016142f8565b01949350505050565b600060208284031215614bdf57600080fd5b815161165881614374565b601f821115610cf7576000816000526020600020601f850160051c81016020861015614c135750805b601f850160051c820191505b81811015610b4557828155600101614c1f565b81516001600160401b03811115614c4b57614c4b6144bd565b614c5f81614c598454614a52565b84614bea565b602080601f831160018114614c945760008415614c7c5750858301515b600019600386901b1c1916600185901b178555610b45565b600085815260208120601f198616915b82811015614cc357888601518255948401946001909101908401614ca4565b5085821015614ce15787850151600019600388901b60f8161c191681555b5050505050600190811b01905550565b600060018201614d0357614d03614a9f565b5060010190565b600082614d2757634e487b7160e01b600052601260045260246000fd5b500490565b60208101614d3983614787565b91905290565b600060208284031215614d5157600080fd5b815161165881614609565b600060208284031215614d6e57600080fd5b815161ffff8116811461165857600080fd5b808201808211156108a5576108a5614a9f565b6001600160401b03818116838216019080821115613e4557613e45614a9f565b60008060408385031215614dc657600080fd5b8251614dd181614374565b602084015190925061493781614374565b60006001600160401b03821115614dfb57614dfb6144bd565b5060051b60200190565b60006020808385031215614e1857600080fd5b82516001600160401b03811115614e2e57600080fd5b8301601f81018513614e3f57600080fd5b8051614e52614e4d82614de2565b614562565b81815260059190911b82018301908381019087831115614e7157600080fd5b928401925b82841015613241578351614e8981614374565b82529284019290840190614e76565b60018060a01b03851681528360208201528260408201526080606082015260006134b16080830184614b3b565b805160ff8116811461439457600080fd5b600082601f830112614ee757600080fd5b81516020614ef7614e4d83614de2565b82815260079290921b84018101918181019086841115614f1657600080fd5b8286015b84811015614f805760808189031215614f335760008081fd5b614f3b6144fc565b815160068110614f4b5760008081fd5b81528185015185820152604080830151614f6481614374565b9082015260608281015190820152835291830191608001614f1a565b509695505050505050565b600082601f830112614f9c57600080fd5b81516020614fac614e4d83614de2565b82815260609283028501820192828201919087851115614fcb57600080fd5b8387015b858110156150295781818a031215614fe75760008081fd5b614fef61451e565b8151614ffa81614477565b8152615007828701614ec5565b868201526040615018818401614ec5565b908201528452928401928101614fcf565b5090979650505050505050565b6000602080838503121561504957600080fd5b82516001600160401b038082111561506057600080fd5b908401906060828703121561507457600080fd5b61507c61451e565b82518281111561508b57600080fd5b8301601f8101881361509c57600080fd5b80516150aa614e4d82614de2565b81815260069190911b8201860190868101908a8311156150c957600080fd5b928701925b8284101561511d576040848c0312156150e75760008081fd5b6150ef614540565b84516150fa81614477565b8152615107858a01614ec5565b818a0152825260409390930192908701906150ce565b8452505050828401518281111561513357600080fd5b61513f88828601614ed6565b8583015250604083015193508184111561515857600080fd5b61516487858501614f8b565b60408201529695505050505050565b6001600160a01b03858116825284166020820152604081018390526080606082018190526000906134b19083018461431c565b6000602082840312156151b857600080fd5b81516001600160e01b03198116811461165857600080fd5b80820281158282048414176108a5576108a5614a9f56fe9075c515a635ba70c9696f31149324218d75cf00afe836c482e6473f38b19e009075c515a635ba70c9696f31149324218d75cf00afe836c482e6473f38b19e0154f22f54f370bd020e00ee80e1a5099a71652e2ccbcf6a75281e4c70a3e11a0034516f6fe09a043d57f1ff579a303a7ae85314751c77b4eb1a55837604a86e00672ef851d5f92307da037116e23aa9e31af7e1f7e3ca62c4e6d540631df3fd0359b501c3653afc186af7d48dda36cf6732bd21629a6295693664240a6ef5200034516f6fe09a043d57f1ff579a303a7ae85314751c77b4eb1a55837604a86e01","linkReferences":{}},"methodIdentifiers":{"__ERC721A_init(string,string)":"d2f01f19","__EntitlementGated_init(address)":"7adc9cbe","__Membership_init((string,string,uint256,uint256,uint64,address,address,uint256,address),address)":"4c2abfbe","_getMembershipCurrency()":"70251563","_getMembershipFreeAllocation()":"b3a5be6d","_getMembershipImage()":"d33d9345","_getMembershipPrice(uint256)":"3ded10de","_getMembershipSupplyLimit()":"8934207f","_getPricingModule()":"ac7ee626","_getSpaceFactory()":"77460cd3","_setMembershipFreeAllocation(uint256)":"f9d5d22c","_setMembershipSupplyLimit(uint256)":"73fc5a05","_setPricingModule(address)":"69d9346b","approve(address,uint256)":"095ea7b3","balanceOf(address)":"70a08231","expiresAt(uint256)":"17c95709","getApproved(uint256)":"081812fc","getMembershipCurrency()":"657e45e8","getMembershipDuration()":"8120f0ba","getMembershipFreeAllocation()":"706b8e09","getMembershipImage()":"93b13cb7","getMembershipLimit()":"95d600c8","getMembershipPrice()":"1278076a","getMembershipPricingModule()":"e847abdd","getMembershipRenewalPrice(uint256)":"5803909f","getRuleData(bytes32,uint256)":"92c399ff","getSpaceFactory()":"79dda585","isApprovedForAll(address,address)":"e985e9c5","joinSpace(address)":"8c625b06","joinSpaceWithReferral(address,address,uint256)":"c9f7c833","name()":"06fdde03","ownerOf(uint256)":"6352211e","postEntitlementCheckResult(bytes32,uint256,uint8)":"4739e805","renewMembership(uint256)":"7c9669ac","safeTransferFrom(address,address,uint256)":"42842e0e","safeTransferFrom(address,address,uint256,bytes)":"b88d4fde","setApprovalForAll(address,bool)":"a22cb465","setMembershipFreeAllocation(uint256)":"5becd24a","setMembershipImage(string)":"0ef1be5f","setMembershipLimit(uint256)":"97fb7c1e","setMembershipPrice(uint256)":"69d5f38a","setMembershipPricingModule(address)":"df9a9fe6","symbol()":"95d89b41","tokenURI(uint256)":"c87b56dd","totalSupply()":"18160ddd","transferFrom(address,address,uint256)":"23b872dd","withdraw(address)":"51cff8d9"},"id":229}