{"abi":[{"type":"function","name":"expiresAt","inputs":[{"name":"tokenId","type":"uint256","internalType":"uint256"}],"outputs":[{"name":"","type":"uint256","internalType":"uint256"}],"stateMutability":"view"},{"type":"function","name":"getMembershipCurrency","inputs":[],"outputs":[{"name":"","type":"address","internalType":"address"}],"stateMutability":"view"},{"type":"function","name":"getMembershipDuration","inputs":[],"outputs":[{"name":"","type":"uint64","internalType":"uint64"}],"stateMutability":"view"},{"type":"function","name":"getMembershipFreeAllocation","inputs":[],"outputs":[{"name":"","type":"uint256","internalType":"uint256"}],"stateMutability":"view"},{"type":"function","name":"getMembershipImage","inputs":[],"outputs":[{"name":"","type":"string","internalType":"string"}],"stateMutability":"view"},{"type":"function","name":"getMembershipLimit","inputs":[],"outputs":[{"name":"","type":"uint256","internalType":"uint256"}],"stateMutability":"view"},{"type":"function","name":"getMembershipPrice","inputs":[],"outputs":[{"name":"","type":"uint256","internalType":"uint256"}],"stateMutability":"view"},{"type":"function","name":"getMembershipPricingModule","inputs":[],"outputs":[{"name":"","type":"address","internalType":"address"}],"stateMutability":"view"},{"type":"function","name":"getMembershipRenewalPrice","inputs":[{"name":"tokenId","type":"uint256","internalType":"uint256"}],"outputs":[{"name":"","type":"uint256","internalType":"uint256"}],"stateMutability":"view"},{"type":"function","name":"getSpaceFactory","inputs":[],"outputs":[{"name":"","type":"address","internalType":"address"}],"stateMutability":"view"},{"type":"function","name":"joinSpace","inputs":[{"name":"receiver","type":"address","internalType":"address"}],"outputs":[],"stateMutability":"payable"},{"type":"function","name":"joinSpaceWithReferral","inputs":[{"name":"receiver","type":"address","internalType":"address"},{"name":"referral","type":"tuple","internalType":"struct IMembershipBase.ReferralTypes","components":[{"name":"partner","type":"address","internalType":"address"},{"name":"userReferral","type":"address","internalType":"address"},{"name":"referralCode","type":"string","internalType":"string"}]}],"outputs":[],"stateMutability":"payable"},{"type":"function","name":"renewMembership","inputs":[{"name":"tokenId","type":"uint256","internalType":"uint256"}],"outputs":[],"stateMutability":"payable"},{"type":"function","name":"setMembershipFreeAllocation","inputs":[{"name":"newAllocation","type":"uint256","internalType":"uint256"}],"outputs":[],"stateMutability":"nonpayable"},{"type":"function","name":"setMembershipImage","inputs":[{"name":"newImage","type":"string","internalType":"string"}],"outputs":[],"stateMutability":"nonpayable"},{"type":"function","name":"setMembershipLimit","inputs":[{"name":"newLimit","type":"uint256","internalType":"uint256"}],"outputs":[],"stateMutability":"nonpayable"},{"type":"function","name":"setMembershipPrice","inputs":[{"name":"newPrice","type":"uint256","internalType":"uint256"}],"outputs":[],"stateMutability":"nonpayable"},{"type":"function","name":"setMembershipPricingModule","inputs":[{"name":"pricingModule","type":"address","internalType":"address"}],"outputs":[],"stateMutability":"nonpayable"},{"type":"function","name":"withdraw","inputs":[{"name":"account","type":"address","internalType":"address"}],"outputs":[],"stateMutability":"nonpayable"},{"type":"event","name":"Approval","inputs":[{"name":"owner","type":"address","indexed":true,"internalType":"address"},{"name":"approved","type":"address","indexed":true,"internalType":"address"},{"name":"tokenId","type":"uint256","indexed":true,"internalType":"uint256"}],"anonymous":false},{"type":"event","name":"ApprovalForAll","inputs":[{"name":"owner","type":"address","indexed":true,"internalType":"address"},{"name":"operator","type":"address","indexed":true,"internalType":"address"},{"name":"approved","type":"bool","indexed":false,"internalType":"bool"}],"anonymous":false},{"type":"event","name":"Banned","inputs":[{"name":"moderator","type":"address","indexed":true,"internalType":"address"},{"name":"tokenId","type":"uint256","indexed":true,"internalType":"uint256"}],"anonymous":false},{"type":"event","name":"ConsecutiveTransfer","inputs":[{"name":"fromTokenId","type":"uint256","indexed":true,"internalType":"uint256"},{"name":"toTokenId","type":"uint256","indexed":false,"internalType":"uint256"},{"name":"from","type":"address","indexed":true,"internalType":"address"},{"name":"to","type":"address","indexed":true,"internalType":"address"}],"anonymous":false},{"type":"event","name":"DefaultBpsFeeUpdated","inputs":[{"name":"defaultBpsFee","type":"uint256","indexed":false,"internalType":"uint256"}],"anonymous":false},{"type":"event","name":"EntitlementCheckResultPosted","inputs":[{"name":"transactionId","type":"bytes32","indexed":true,"internalType":"bytes32"},{"name":"result","type":"uint8","indexed":false,"internalType":"enum IEntitlementGatedBase.NodeVoteStatus"}],"anonymous":false},{"type":"event","name":"Initialized","inputs":[{"name":"version","type":"uint32","indexed":false,"internalType":"uint32"}],"anonymous":false},{"type":"event","name":"InterfaceAdded","inputs":[{"name":"interfaceId","type":"bytes4","indexed":true,"internalType":"bytes4"}],"anonymous":false},{"type":"event","name":"InterfaceRemoved","inputs":[{"name":"interfaceId","type":"bytes4","indexed":true,"internalType":"bytes4"}],"anonymous":false},{"type":"event","name":"MaxBpsFeeUpdated","inputs":[{"name":"maxBpsFee","type":"uint256","indexed":false,"internalType":"uint256"}],"anonymous":false},{"type":"event","name":"MaxPartnerFeeSet","inputs":[{"name":"fee","type":"uint256","indexed":false,"internalType":"uint256"}],"anonymous":false},{"type":"event","name":"MembershipCurrencyUpdated","inputs":[{"name":"currency","type":"address","indexed":true,"internalType":"address"}],"anonymous":false},{"type":"event","name":"MembershipFeeRecipientUpdated","inputs":[{"name":"recipient","type":"address","indexed":true,"internalType":"address"}],"anonymous":false},{"type":"event","name":"MembershipFreeAllocationUpdated","inputs":[{"name":"allocation","type":"uint256","indexed":true,"internalType":"uint256"}],"anonymous":false},{"type":"event","name":"MembershipLimitUpdated","inputs":[{"name":"limit","type":"uint256","indexed":true,"internalType":"uint256"}],"anonymous":false},{"type":"event","name":"MembershipPriceUpdated","inputs":[{"name":"price","type":"uint256","indexed":true,"internalType":"uint256"}],"anonymous":false},{"type":"event","name":"MembershipTokenIssued","inputs":[{"name":"recipient","type":"address","indexed":true,"internalType":"address"},{"name":"tokenId","type":"uint256","indexed":true,"internalType":"uint256"}],"anonymous":false},{"type":"event","name":"MembershipTokenRejected","inputs":[{"name":"recipient","type":"address","indexed":true,"internalType":"address"}],"anonymous":false},{"type":"event","name":"MembershipWithdrawal","inputs":[{"name":"recipient","type":"address","indexed":true,"internalType":"address"},{"name":"amount","type":"uint256","indexed":false,"internalType":"uint256"}],"anonymous":false},{"type":"event","name":"OwnershipTransferred","inputs":[{"name":"previousOwner","type":"address","indexed":true,"internalType":"address"},{"name":"newOwner","type":"address","indexed":true,"internalType":"address"}],"anonymous":false},{"type":"event","name":"PartnerRegistered","inputs":[{"name":"account","type":"address","indexed":true,"internalType":"address"}],"anonymous":false},{"type":"event","name":"PartnerRemoved","inputs":[{"name":"account","type":"address","indexed":true,"internalType":"address"}],"anonymous":false},{"type":"event","name":"PartnerUpdated","inputs":[{"name":"account","type":"address","indexed":true,"internalType":"address"}],"anonymous":false},{"type":"event","name":"Paused","inputs":[{"name":"account","type":"address","indexed":false,"internalType":"address"}],"anonymous":false},{"type":"event","name":"PermissionsAddedToChannelRole","inputs":[{"name":"updater","type":"address","indexed":true,"internalType":"address"},{"name":"roleId","type":"uint256","indexed":true,"internalType":"uint256"},{"name":"channelId","type":"bytes32","indexed":true,"internalType":"bytes32"}],"anonymous":false},{"type":"event","name":"PermissionsRemovedFromChannelRole","inputs":[{"name":"updater","type":"address","indexed":true,"internalType":"address"},{"name":"roleId","type":"uint256","indexed":true,"internalType":"uint256"},{"name":"channelId","type":"bytes32","indexed":true,"internalType":"bytes32"}],"anonymous":false},{"type":"event","name":"PermissionsUpdatedForChannelRole","inputs":[{"name":"updater","type":"address","indexed":true,"internalType":"address"},{"name":"roleId","type":"uint256","indexed":true,"internalType":"uint256"},{"name":"channelId","type":"bytes32","indexed":true,"internalType":"bytes32"}],"anonymous":false},{"type":"event","name":"Prepay__Prepaid","inputs":[{"name":"supply","type":"uint256","indexed":false,"internalType":"uint256"}],"anonymous":false},{"type":"event","name":"ReferralRegistered","inputs":[{"name":"referralCode","type":"bytes32","indexed":false,"internalType":"bytes32"},{"name":"basisPoints","type":"uint256","indexed":false,"internalType":"uint256"},{"name":"recipient","type":"address","indexed":false,"internalType":"address"}],"anonymous":false},{"type":"event","name":"ReferralRemoved","inputs":[{"name":"referralCode","type":"bytes32","indexed":false,"internalType":"bytes32"}],"anonymous":false},{"type":"event","name":"ReferralUpdated","inputs":[{"name":"referralCode","type":"bytes32","indexed":false,"internalType":"bytes32"},{"name":"basisPoints","type":"uint256","indexed":false,"internalType":"uint256"},{"name":"recipient","type":"address","indexed":false,"internalType":"address"}],"anonymous":false},{"type":"event","name":"RegistryFeeSet","inputs":[{"name":"fee","type":"uint256","indexed":false,"internalType":"uint256"}],"anonymous":false},{"type":"event","name":"RoleCreated","inputs":[{"name":"creator","type":"address","indexed":true,"internalType":"address"},{"name":"roleId","type":"uint256","indexed":true,"internalType":"uint256"}],"anonymous":false},{"type":"event","name":"RoleRemoved","inputs":[{"name":"remover","type":"address","indexed":true,"internalType":"address"},{"name":"roleId","type":"uint256","indexed":true,"internalType":"uint256"}],"anonymous":false},{"type":"event","name":"RoleUpdated","inputs":[{"name":"updater","type":"address","indexed":true,"internalType":"address"},{"name":"roleId","type":"uint256","indexed":true,"internalType":"uint256"}],"anonymous":false},{"type":"event","name":"SubscriptionUpdate","inputs":[{"name":"tokenId","type":"uint256","indexed":true,"internalType":"uint256"},{"name":"expiration","type":"uint64","indexed":false,"internalType":"uint64"}],"anonymous":false},{"type":"event","name":"Transfer","inputs":[{"name":"from","type":"address","indexed":true,"internalType":"address"},{"name":"to","type":"address","indexed":true,"internalType":"address"},{"name":"tokenId","type":"uint256","indexed":true,"internalType":"uint256"}],"anonymous":false},{"type":"event","name":"Unbanned","inputs":[{"name":"moderator","type":"address","indexed":true,"internalType":"address"},{"name":"tokenId","type":"uint256","indexed":true,"internalType":"uint256"}],"anonymous":false},{"type":"event","name":"Unpaused","inputs":[{"name":"account","type":"address","indexed":false,"internalType":"address"}],"anonymous":false},{"type":"error","name":"ApprovalCallerNotOwnerNorApproved","inputs":[]},{"type":"error","name":"ApprovalQueryForNonexistentToken","inputs":[]},{"type":"error","name":"BalanceQueryForZeroAddress","inputs":[]},{"type":"error","name":"Banning__AlreadyBanned","inputs":[{"name":"tokenId","type":"uint256","internalType":"uint256"}]},{"type":"error","name":"Banning__CannotBanOwner","inputs":[]},{"type":"error","name":"Banning__CannotBanSelf","inputs":[]},{"type":"error","name":"Banning__InvalidTokenId","inputs":[{"name":"tokenId","type":"uint256","internalType":"uint256"}]},{"type":"error","name":"Banning__NotBanned","inputs":[{"name":"tokenId","type":"uint256","internalType":"uint256"}]},{"type":"error","name":"Dispatcher__InvalidCaller","inputs":[]},{"type":"error","name":"Dispatcher__InvalidValue","inputs":[]},{"type":"error","name":"Dispatcher__TransactionAlreadyExists","inputs":[]},{"type":"error","name":"ERC5643__DurationZero","inputs":[]},{"type":"error","name":"ERC5643__InvalidTokenId","inputs":[{"name":"tokenId","type":"uint256","internalType":"uint256"}]},{"type":"error","name":"ERC5643__NotApprovedOrOwner","inputs":[]},{"type":"error","name":"ERC5643__SubscriptionNotRenewable","inputs":[{"name":"tokenId","type":"uint256","internalType":"uint256"}]},{"type":"error","name":"EntitlementGated_InvalidAddress","inputs":[]},{"type":"error","name":"EntitlementGated_NodeAlreadyVoted","inputs":[]},{"type":"error","name":"EntitlementGated_NodeNotFound","inputs":[]},{"type":"error","name":"EntitlementGated_TransactionCheckAlreadyCompleted","inputs":[]},{"type":"error","name":"EntitlementGated_TransactionCheckAlreadyRegistered","inputs":[]},{"type":"error","name":"EntitlementGated_TransactionNotRegistered","inputs":[]},{"type":"error","name":"Entitlement__InvalidValue","inputs":[]},{"type":"error","name":"Entitlement__NotAllowed","inputs":[]},{"type":"error","name":"Entitlement__NotMember","inputs":[]},{"type":"error","name":"Entitlement__ValueAlreadyExists","inputs":[]},{"type":"error","name":"Initializable_InInitializingState","inputs":[]},{"type":"error","name":"Introspection_AlreadySupported","inputs":[]},{"type":"error","name":"Introspection_NotSupported","inputs":[]},{"type":"error","name":"Membership__AlreadyMember","inputs":[]},{"type":"error","name":"Membership__Banned","inputs":[]},{"type":"error","name":"Membership__InsufficientAllowance","inputs":[]},{"type":"error","name":"Membership__InsufficientPayment","inputs":[]},{"type":"error","name":"Membership__InvalidAddress","inputs":[]},{"type":"error","name":"Membership__InvalidCurrency","inputs":[]},{"type":"error","name":"Membership__InvalidDuration","inputs":[]},{"type":"error","name":"Membership__InvalidFeeRecipient","inputs":[]},{"type":"error","name":"Membership__InvalidFreeAllocation","inputs":[]},{"type":"error","name":"Membership__InvalidLimit","inputs":[]},{"type":"error","name":"Membership__InvalidMaxSupply","inputs":[]},{"type":"error","name":"Membership__InvalidPayment","inputs":[]},{"type":"error","name":"Membership__InvalidPrice","inputs":[]},{"type":"error","name":"Membership__InvalidPricingModule","inputs":[]},{"type":"error","name":"Membership__InvalidTokenId","inputs":[]},{"type":"error","name":"Membership__InvalidTransactionType","inputs":[]},{"type":"error","name":"Membership__MaxSupplyReached","inputs":[]},{"type":"error","name":"Membership__NotExpired","inputs":[]},{"type":"error","name":"Membership__PriceTooLow","inputs":[]},{"type":"error","name":"MintERC2309QuantityExceedsLimit","inputs":[]},{"type":"error","name":"MintToZeroAddress","inputs":[]},{"type":"error","name":"MintZeroQuantity","inputs":[]},{"type":"error","name":"Ownable__NotOwner","inputs":[{"name":"account","type":"address","internalType":"address"}]},{"type":"error","name":"Ownable__ZeroAddress","inputs":[]},{"type":"error","name":"OwnerQueryForNonexistentToken","inputs":[]},{"type":"error","name":"OwnershipNotInitializedForExtraData","inputs":[]},{"type":"error","name":"PartnerRegistry__InvalidPartnerFee","inputs":[{"name":"fee","type":"uint256","internalType":"uint256"}]},{"type":"error","name":"PartnerRegistry__InvalidRecipient","inputs":[]},{"type":"error","name":"PartnerRegistry__NotPartnerAccount","inputs":[{"name":"account","type":"address","internalType":"address"}]},{"type":"error","name":"PartnerRegistry__PartnerAlreadyRegistered","inputs":[{"name":"account","type":"address","internalType":"address"}]},{"type":"error","name":"PartnerRegistry__PartnerNotActive","inputs":[{"name":"account","type":"address","internalType":"address"}]},{"type":"error","name":"PartnerRegistry__PartnerNotRegistered","inputs":[{"name":"account","type":"address","internalType":"address"}]},{"type":"error","name":"PartnerRegistry__RegistryFeeNotPaid","inputs":[{"name":"fee","type":"uint256","internalType":"uint256"}]},{"type":"error","name":"Pausable__NotPaused","inputs":[]},{"type":"error","name":"Pausable__Paused","inputs":[]},{"type":"error","name":"Prepay__InvalidAddress","inputs":[]},{"type":"error","name":"Prepay__InvalidAmount","inputs":[]},{"type":"error","name":"Prepay__InvalidMembership","inputs":[]},{"type":"error","name":"Prepay__InvalidSupplyAmount","inputs":[]},{"type":"error","name":"ReentrancyGuard__ReentrantCall","inputs":[]},{"type":"error","name":"Referrals__InvalidBasisPoints","inputs":[]},{"type":"error","name":"Referrals__InvalidBpsFee","inputs":[]},{"type":"error","name":"Referrals__InvalidRecipient","inputs":[]},{"type":"error","name":"Referrals__InvalidReferralCode","inputs":[]},{"type":"error","name":"Referrals__ReferralAlreadyExists","inputs":[]},{"type":"error","name":"Roles__EntitlementAlreadyExists","inputs":[]},{"type":"error","name":"Roles__EntitlementDoesNotExist","inputs":[]},{"type":"error","name":"Roles__InvalidEntitlementAddress","inputs":[]},{"type":"error","name":"Roles__InvalidPermission","inputs":[]},{"type":"error","name":"Roles__PermissionAlreadyExists","inputs":[]},{"type":"error","name":"Roles__PermissionDoesNotExist","inputs":[]},{"type":"error","name":"Roles__RoleDoesNotExist","inputs":[]},{"type":"error","name":"TransferCallerNotOwnerNorApproved","inputs":[]},{"type":"error","name":"TransferFromIncorrectOwner","inputs":[]},{"type":"error","name":"TransferToNonERC721ReceiverImplementer","inputs":[]},{"type":"error","name":"TransferToZeroAddress","inputs":[]},{"type":"error","name":"URIQueryForNonexistentToken","inputs":[]}],"bytecode":{"object":"0x60806040523480156200001157600080fd5b506200001c62000022565b620000ca565b7f59b501c3653afc186af7d48dda36cf6732bd21629a6295693664240a6ef520008054640100000000900460ff16156200006f576040516366008a2d60e01b815260040160405180910390fd5b805463ffffffff9081161015620000c757805463ffffffff191663ffffffff90811782556040519081527fe9c9b456cb2994b80aeef036cf59d26e9617df80f816a6ee5a5b4166e07e2f5c9060200160405180910390a15b50565b613f9380620000da6000396000f3fe6080604052600436106101145760003560e01c8063706b8e09116100a057806393b13cb71161006457806393b13cb7146102f557806395d600c81461031757806397fb7c1e1461032c578063df9a9fe61461034c578063e847abdd1461036c57600080fd5b8063706b8e091461027857806379dda5851461028d5780637c9669ac146102a25780638120f0ba146102b55780638c625b06146102e257600080fd5b80635803909f116100e75780635803909f146101d85780635becd24a146101f8578063657e45e814610218578063686f76841461024557806369d5f38a1461025857600080fd5b80630ef1be5f146101195780631278076a1461013b57806317c957091461016357806351cff8d9146101b8575b600080fd5b34801561012557600080fd5b50610139610134366004613558565b610381565b005b34801561014757600080fd5b50610150610404565b6040519081526020015b60405180910390f35b34801561016f57600080fd5b5061015061017e3660046135c9565b60009081527f4775a23600034fdd9f073b224f794d51a58b35ba663a9602623ba7a5c09cce0060205260409020546001600160401b031690565b3480156101c457600080fd5b506101396101d33660046135f7565b61041b565b3480156101e457600080fd5b506101506101f33660046135c9565b610529565b34801561020457600080fd5b506101396102133660046135c9565b610542565b34801561022457600080fd5b5061022d6105c7565b6040516001600160a01b03909116815260200161015a565b6101396102533660046136a9565b6105d1565b34801561026457600080fd5b506101396102733660046135c9565b610639565b34801561028457600080fd5b506101506106e7565b34801561029957600080fd5b5061022d6106f1565b6101396102b03660046135c9565b6106fb565b3480156102c157600080fd5b506102ca610858565b6040516001600160401b03909116815260200161015a565b6101396102f03660046135f7565b610862565b34801561030157600080fd5b5061030a6108cf565b60405161015a91906137e3565b34801561032357600080fd5b506101506108d9565b34801561033857600080fd5b506101396103473660046135c9565b6108e3565b34801561035857600080fd5b506101396103673660046135f7565b610938565b34801561037857600080fd5b5061022d610985565b61038961098f565b6001600160a01b0316336001600160a01b0316146103c1576040516365f4906560e01b81523360048201526024015b60405180910390fd5b61040082828080601f016020809104026020016040519081016040528093929190818152602001838380828437600092019190915250610a2c92505050565b5050565b6000610416610411610a43565b610a79565b905090565b61042361098f565b6001600160a01b0316336001600160a01b031614610456576040516365f4906560e01b81523360048201526024016103b8565b6002600080516020613f33833981519152540361048657604051635db5c7cd60e11b815260040160405180910390fd5b61049d6002600080516020613f3383398151915255565b6001600160a01b0381166104c457604051635fbd571760e01b815260040160405180910390fd5b60006104ce610c05565b9050806000036104f157604051635894b54560e11b815260040160405180910390fd5b6104fb6000610c26565b61050e610506610c36565b308484610c52565b506105266001600080516020613f3383398151915255565b50565b600061053c82610537610a43565b610c9e565b92915050565b61054a61098f565b6001600160a01b0316336001600160a01b03161461057d576040516365f4906560e01b81523360048201526024016103b8565b6000610587610cec565b9050801580159061059757508082115b156105b55760405163c3983b9160e01b815260040160405180910390fd5b6105be82610cff565b61040082610da4565b6000610416610c36565b6002600080516020613f33833981519152540361060157604051635db5c7cd60e11b815260040160405180910390fd5b6106186002600080516020613f3383398151915255565b6106228282610df6565b6104006001600080516020613f3383398151915255565b61064161098f565b6001600160a01b0316336001600160a01b031614610674576040516365f4906560e01b81523360048201526024016103b8565b61067d81610f5e565b610685610fec565b6001600160a01b03166391b7f5ed826040518263ffffffff1660e01b81526004016106b291815260200190565b600060405180830381600087803b1580156106cc57600080fd5b505af11580156106e0573d6000803e3d6000fd5b5050505050565b6000610416611008565b60006104166110a5565b6002600080516020613f33833981519152540361072b57604051635db5c7cd60e11b815260040160405180910390fd5b6107426002600080516020613f3383398151915255565b600061074d826110c1565b90506001600160a01b03811661077657604051635fbd571760e01b815260040160405180910390fd5b60008281527f4775a23600034fdd9f073b224f794d51a58b35ba663a9602623ba7a5c09cce0060205260409020546001600160401b03166107b56110cc565b6001600160401b03166107c8428361380c565b106107e65760405163dce9a1d360e01b815260040160405180910390fd5b60006107f484610537610a43565b9050801561082d5760006108088483611152565b90506000610816828461380c565b9050801561082a5761082885826111fe565b505b50505b61083e846108396110cc565b61139c565b5050506105266001600080516020613f3383398151915255565b60006104166110cc565b6002600080516020613f33833981519152540361089257604051635db5c7cd60e11b815260040160405180910390fd5b6108a96002600080516020613f3383398151915255565b6040805160608082018352600080835260208301529181019190915261050e8282610df6565b6060610416611465565b6000610416610cec565b6108eb61098f565b6001600160a01b0316336001600160a01b03161461091e576040516365f4906560e01b81523360048201526024016103b8565b61092f8161092a610a43565b611500565b61052681611521565b61094061098f565b6001600160a01b0316336001600160a01b031614610973576040516365f4906560e01b81523360048201526024016103b8565b61097c81611531565b610526816115e9565b6000610416610fec565b6000807fd2f24d4f172e4e84e48e7c4125b6e904c29e5eba33ad4938fee51dd5dbd4b600805460018201546040516331a9108f60e11b815260048101919091529192506001600160a01b031690636352211e90602401602060405180830381865afa158015610a02573d6000803e3d6000fd5b505050506040513d601f19601f82011682018060405250810190610a26919061381f565b91505090565b80610a35611616565b600c019061040090826138b8565b7f6569bde4a160c636ea8b8d11acb83a60d7fec0b8f2e09389306cba0e1340df0154600080516020613f13833981519152540390565b600080610a84611616565b90506000610a90611008565b6008830154604051635cf4ee9160e01b815260048101839052602481018790529192506000916001600160a01b0390911690635cf4ee9190604401602060405180830381865afa158015610ae8573d6000803e3d6000fd5b505050506040513d601f19601f82011682018060405250810190610b0c9190613977565b90506000610b186110a5565b90506000816001600160a01b0316631b159e2e6040518163ffffffff1660e01b8152600401602060405180830381865afa158015610b5a573d6000803e3d6000fd5b505050506040513d601f19601f82011682018060405250810190610b7e9190613977565b90506000826001600160a01b0316630eac306d6040518163ffffffff1660e01b8152600401602060405180830381865afa158015610bc0573d6000803e3d6000fd5b505050506040513d601f19601f82011682018060405250810190610be49190613977565b905081841015610bf957979650505050505050565b50919695505050505050565b600080610c10611616565b600a015447808218918111919091021892915050565b80610c2f611616565b600a015550565b6000610c40611616565b600401546001600160a01b0316919050565b8015610c985773eeeeeeeeeeeeeeeeeeeeeeeeeeeeeeeeeeeeeeed196001600160a01b03851601610c8c57610c87828261163a565b610c98565b610c988484848461164d565b50505050565b600080610ca9611616565b600085815260098201602052604090205490915015610cdb57600084815260099091016020526040902054905061053c565b610ce483610a79565b949350505050565b6000610cf6611616565b60030154905090565b6000610d09611616565b90508060060160009054906101000a90046001600160a01b03166001600160a01b0316632cbb9d136040518163ffffffff1660e01b8152600401602060405180830381865afa158015610d60573d6000803e3d6000fd5b505050506040513d601f19601f82011682018060405250810190610d849190613977565b8211156104005760405163c3983b9160e01b815260040160405180910390fd5b6000610dae611616565b60078101839055600d8101805460ff1916600117905560405190915082907fab14a23e88fb272313490d4f20d63098e64fd38304c0e07a377db98c2b39b92f90600090a25050565b610dff826116a0565b610e07611709565b610e11828261173d565b336000610e1d8361179e565b9050600081610e4b5783604051602001610e379190613990565b604051602081830303815290604052610e5c565b604051806020016040528060008152505b9050600082610e7257631a1bdda160e21b610e7b565b6346312d8360e11b5b90506000610e9585610e8f84888b886117d5565b34611807565b9050600080610ea4878461191b565b9150915080610f53578115610efb576000610ebd611b39565b90508015610ee2578615610ed957610ed484611b94565b610eec565b610ed484611c59565b610eec8489611d80565b610ef58a611dbc565b50610f53565b610f148360405180602001604052806000815250611e2d565b610f1e8388611d80565b6040516001600160a01b038a16907f86fd446d5c04e892d58b448a924dcd9c3ece3a5e0d2960b8c35cd475a5595a1f90600090a25b505050505050505050565b6000610f686110a5565b6001600160a01b0316630eac306d6040518163ffffffff1660e01b8152600401602060405180830381865afa158015610fa5573d6000803e3d6000fd5b505050506040513d601f19601f82011682018060405250810190610fc99190613977565b90508082101561040057604051631a23d64760e11b815260040160405180910390fd5b6000610ff6611616565b600801546001600160a01b0316919050565b600080611013611616565b600d81015490915060ff161561102c5760070154919050565b8060060160009054906101000a90046001600160a01b03166001600160a01b0316632cbb9d136040518163ffffffff1660e01b8152600401602060405180830381865afa158015611081573d6000803e3d6000fd5b505050506040513d601f19601f82011682018060405250810190610a269190613977565b60006110af611616565b600601546001600160a01b0316919050565b600061053c82611e74565b6000806110d7611616565b90508060060160009054906101000a90046001600160a01b03166001600160a01b0316638120f0ba6040518163ffffffff1660e01b8152600401602060405180830381865afa15801561112e573d6000803e3d6000fd5b505050506040513d601f19601f82011682018060405250810190610a2691906139cb565b60008061115d611616565b6006810154600480830154604080516301332c8360e61b815290519495506001600160a01b039384169493909116926000928592634ccb20c092818301926020928290030181865afa1580156111b7573d6000803e3d6000fd5b505050506040513d601f19601f820116820180604052508101906111db919061381f565b90506111e686611f2d565b94506111f482888388610c52565b5050505092915050565b600080611209611616565b90506000611215610c36565b905073eeeeeeeeeeeeeeeeeeeeeeeeeeeeeeeeeeeeeeed196001600160a01b03821601611260578382600a01600082825461125091906139f4565b9091555084935061053c92505050565b6040516370a0823160e01b815230600482015281906000906001600160a01b038316906370a0823190602401602060405180830381865afa1580156112a9573d6000803e3d6000fd5b505050506040513d601f19601f820116820180604052508101906112cd9190613977565b90506112db83883089610c52565b6040516370a0823160e01b81523060048201526000906001600160a01b038416906370a0823190602401602060405180830381865afa158015611322573d6000803e3d6000fd5b505050506040513d601f19601f820116820180604052508101906113469190613977565b90506000611354838361380c565b905087811461137657604051635894b54560e11b815260040160405180910390fd5b8086600a01600082825461138a91906139f4565b90915550909998505050505050505050565b60008281527f4775a23600034fdd9f073b224f794d51a58b35ba663a9602623ba7a5c09cce006020819052604082205490916001600160401b03909116908181036113f2576113eb8442613a07565b90506113ff565b6113fc8483613a07565b90505b60008581526020848152604091829020805467ffffffffffffffff19166001600160401b038516908117909155915191825286917f2ec2be2c4b90c2cf13ecb6751a24daed6bb741ae5ed3f7371aabf9402f6d62e8910160405180910390a25050505050565b606061146f611616565b600c01805461147d9061383c565b80601f01602080910402602001604051908101604052809291908181526020018280546114a99061383c565b80156114f65780601f106114cb576101008083540402835291602001916114f6565b820191906000526020600020905b8154815290600101906020018083116114d957829003601f168201915b5050505050905090565b8082101561040057604051636664d51760e11b815260040160405180910390fd5b8061152a611616565b6003015550565b6001600160a01b03811661155857604051630e88bf4b60e01b815260040160405180910390fd5b6115606110a5565b6040516346fc05eb60e11b81526001600160a01b0383811660048301529190911690638df80bd690602401602060405180830381865afa1580156115a8573d6000803e3d6000fd5b505050506040513d601f19601f820116820180604052508101906115cc9190613a43565b61052657604051630e88bf4b60e01b815260040160405180910390fd5b806115f2611616565b60080180546001600160a01b0319166001600160a01b039290921691909117905550565b7fc21004fcc619240a31f006438274d15cd813308303284436eef6055f0fdcb60090565b6104006001600160a01b0383168261208e565b816001600160a01b0316836001600160a01b03160315610c9857306001600160a01b0384160361168b57610c876001600160a01b03851683836120aa565b610c986001600160a01b0385168484846120fa565b6001600160a01b0381166116c757604051635fbd571760e01b815260040160405180910390fd5b6116cf610cec565b158015906116eb57506116e0610cec565b6116e8610a43565b10155b1561052657604051637efcdb4960e01b815260040160405180910390fd5b341561173b576000611719612158565b9050803414610526576040516334a7a93d60e01b815260040160405180910390fd5b565b60208101516001600160a01b03161561040057816001600160a01b031681602001516001600160a01b03161480611780575060208101516001600160a01b031633145b1561040057604051635fbd571760e01b815260040160405180910390fd5b80516000906001600160a01b03161580156117c4575060208201516001600160a01b0316155b801561053c57505060400151511590565b6060848484846040516020016117ee9493929190613a5e565b6040516020818303038152906040529050949350505050565b6040516bffffffffffffffffffffffff19606085901b166020820152436034820152600090819060540160405160208183030381529060405280519060200120905060006118c98261189d848961185d876121af565b604080516020808201959095526001600160a01b039390931683820152606080840192909252805180840390920182526080909201909152805191012090565b604080516020808201949094528082019290925280518083038201815260609092019052805191012090565b905060006118d6826121e4565b5111156118f65760405163f82e65c360e01b815260040160405180910390fd5b6119008186611e2d565b83156119105761191081856122b5565b9150505b9392505050565b600080600061194a604051806040016040528060098152602001684a6f696e537061636560b81b81525061233b565b90506000611957866124dd565b825190915060005b81811015611b2d57600084828151811061197b5761197b613aa4565b602002602001015190508060400151156119955750611b25565b60005b816080015151811015611b22576000826080015182815181106119bd576119bd613aa4565b60200260200101519050806001600160a01b0316630cf0b5336000801b88604051806040016040528060098152602001684a6f696e537061636560b81b815250604051602001611a0d9190613aba565b604051602081830303815290604052611a2590613ad6565b6040518463ffffffff1660e01b8152600401611a4393929190613b3f565b602060405180830381865afa158015611a60573d6000803e3d6000fd5b505050506040513d601f19601f82011682018060405250810190611a849190613a43565b15611a9e57506001975060009650611b3295505050505050565b806001600160a01b0316632e1b61e46040518163ffffffff1660e01b8152600401602060405180830381865afa158015611adc573d6000803e3d6000fd5b505050506040513d601f19601f82011682018060405250810190611b009190613a43565b15611b1957611b148a828560000151612745565b600197505b50600101611998565b50505b60010161195f565b505050505b9250929050565b600080611b44610a43565b90506000611b50611008565b90506000611b5c612a27565b905082821115611b70576000935050505090565b8015611b8a57611b806001612a51565b6000935050505090565b6001935050505090565b6000818152600080516020613f73833981519152602052604081205490819003611bd157604051635894b54560e11b815260040160405180910390fd5b600080611bdd846121e4565b806020019051810190611bf09190613bb0565b509193509150506001600160e01b031982166346312d8360e11b14611c285760405163da6153bd60e01b815260040160405180910390fd5b6000611c348285611152565b90506000611c42828661380c565b9050611c518684878486612a8f565b505050505050565b6000818152600080516020613f73833981519152602052604081205490819003611c9657604051635894b54560e11b815260040160405180910390fd5b6000806000611ca4856121e4565b806020019051810190611cb79190613bb0565b929550909350909150506001600160e01b03198316631a1bdda160e21b14611cf25760405163da6153bd60e01b815260040160405180910390fd5b600081806020019051810190611d089190613c38565b90506000611d168487611152565b90506000611d2985846000015189612ac4565b90506000611d4186856020015186604001518b612ba0565b905060008183611d51868c61380c565b611d5b919061380c565b611d65919061380c565b9050611d748a888b8488612a8f565b50505050505050505050565b6000828152600080516020613f7383398151915260205260409020548015611db757611dac8382612c8d565b611db7610506610c36565b505050565b6000611dc6612cc8565b9050611ddc81611dd7610411610a43565b612cde565b611de7826001612cfe565b611df3816108396110cc565b60405181906001600160a01b038416907f2f40b0474996b72a4251e00fb9170cdd960deea1dc749772cbbab61395b9b57690600090a35050565b60008281527f34516f6fe09a043d57f1ff579a303a7ae85314751c77b4eb1a55837604a86e0260205260409020600080516020613f5383398151915290610c9883826138b8565b60008181527f6569bde4a160c636ea8b8d11acb83a60d7fec0b8f2e09389306cba0e1340df04602052604081205490600080516020613f1383398151915290600160e01b83169003611f135781600003611f0d5780548310611ee957604051636f96cda160e11b815260040160405180910390fd5b5b600019909201600081815260048401602052604090205490929091508115611eea575b50919050565b50604051636f96cda160e11b815260040160405180910390fd5b600080611f386110a5565b90506000816001600160a01b0316631b159e2e6040518163ffffffff1660e01b8152600401602060405180830381865afa158015611f7a573d6000803e3d6000fd5b505050506040513d601f19601f82011682018060405250810190611f9e9190613977565b90506000826001600160a01b0316630eac306d6040518163ffffffff1660e01b8152600401602060405180830381865afa158015611fe0573d6000803e3d6000fd5b505050506040513d601f19601f820116820180604052508101906120049190613977565b90508185101561201657949350505050565b61208585846001600160a01b0316639f6542aa6040518163ffffffff1660e01b8152600401602060405180830381865afa158015612058573d6000803e3d6000fd5b505050506040513d601f19601f8201168201806040525081019061207c9190613ce1565b61ffff16612d18565b95945050505050565b60003860003884865af16104005763b12d13eb6000526004601cfd5b816014528060345263a9059cbb60601b60005260206000604460106000875af180600160005114166120ef57803d853b1517106120ef576390b8ec186000526004601cfd5b506000603452505050565b60405181606052826040528360601b602c526323b872dd60601b600c52602060006064601c6000895af1806001600051141661214957803d873b15171061214957637939f4246000526004601cfd5b50600060605260405250505050565b600080612163612a27565b9050801561217357600091505090565b6000612180610411610a43565b9050806000036121935760009250505090565b600061219e82611f2d565b828118908310029091189392505050565b6000818152600080516020613f53833981519152602081905260408220805490836121d983613d05565b909155509392505050565b60008181527f34516f6fe09a043d57f1ff579a303a7ae85314751c77b4eb1a55837604a86e02602052604090208054606091600080516020613f538339815191529161222f9061383c565b80601f016020809104026020016040519081016040528092919081815260200182805461225b9061383c565b80156122a85780601f1061227d576101008083540402835291602001916122a8565b820191906000526020600020905b81548152906001019060200180831161228b57829003601f168201915b5050505050915050919050565b806000036122d65760405163acdc0d4960e01b815260040160405180910390fd5b8034146122f65760405163acdc0d4960e01b815260040160405180910390fd5b6000828152600080516020613f73833981519152602052604081208054600080516020613f53833981519152928492916123319084906139f4565b9091555050505050565b60606000612347612d8d565b80519091506000816001600160401b0381111561236657612366613614565b6040519080825280602002602001820160405280156123cb57816020015b6123b86040518060a00160405280600081526020016060815260200160001515815260200160608152602001606081525090565b8152602001906001900390816123845790505b5085516020870120909150600090815b848110156124d15760008060008061240b8a86815181106123fe576123fe613aa4565b6020026020010151612db8565b935093509350935060005b82518110156124c0578683828151811061243257612432613aa4565b602002602001015180519060200120036124b8576040518060a001604052808c888151811061246357612463613aa4565b6020026020010151815260200186815260200185151581526020018481526020018381525089898151811061249a5761249a613aa4565b602002602001018190525087806124b090613d05565b9850506124c0565b600101612416565b5050600190930192506123db915050565b50508152949350505050565b606060006124e9611616565b6006015460405162468b7360e31b81526001600160a01b038581166004830152909116915060009082906302345b9890602401600060405180830381865afa158015612539573d6000803e3d6000fd5b505050506040513d6000823e601f3d908101601f191682016040526125619190810190613d1e565b604051631f04207360e31b81526001600160a01b03868116600483015291925060009184169063f821039890602401602060405180830381865afa1580156125ad573d6000803e3d6000fd5b505050506040513d601f19601f820116820180604052508101906125d1919061381f565b9050815160001480156125ec57506001600160a01b03811615155b156126665760405162468b7360e31b81526001600160a01b03808316600483015291955085918416906302345b9890602401600060405180830381865afa15801561263b573d6000803e3d6000fd5b505050506040513d6000823e601f3d908101601f191682016040526126639190810190613d1e565b91505b815160006126758260016139f4565b6001600160401b0381111561268c5761268c613614565b6040519080825280602002602001820160405280156126b5578160200160208202803683370190505b50905060005b8281101561270f578481815181106126d5576126d5613aa4565b60200260200101518282815181106126ef576126ef613aa4565b6001600160a01b03909216602092830291909101909101526001016126bb565b508681838151811061272357612723613aa4565b6001600160a01b03909216602092830291909101909101529695505050505050565b60008381527f9075c515a635ba70c9696f31149324218d75cf00afe836c482e6473f38b19e016020526040902080547f9075c515a635ba70c9696f31149324218d75cf00afe836c482e6473f38b19e00919060ff16156127f957600481015460005b818110156127f657848360040182815481106127c5576127c5613aa4565b9060005260206000200154036127ee576040516301ab53df60e31b815260040160405180910390fd5b6001016127a7565b50505b81546001600160a01b031661281057612810612eda565b8154604051634f84544560e01b8152600560048201526000916001600160a01b031690634f84544590602401600060405180830381865afa158015612859573d6000803e3d6000fd5b505050506040513d6000823e601f3d908101601f191682016040526128819190810190613d1e565b825490915060ff166128c25781546003830180546001600160a01b0319166001600160a01b0388161790556001600160a81b03191661010033021760011782555b600482018054600181810183556000928352602080842090920187905583518784529085019091526040822090915b828110156129b55781604051806040016040528086848151811061291757612917613aa4565b60200260200101516001600160a01b031681526020016000600281111561294057612940613dcf565b9052815460018101835560009283526020928390208251910180546001600160a01b031981166001600160a01b03909316928317825593830151929390929183916001600160a81b03191617600160a01b8360028111156129a3576129a3613dcf565b021790555050508060010190506128f1565b50845460405163541da4e560e01b81526001600160a01b039091169063541da4e5906129eb9033908c908b908990600401613de5565b600060405180830381600087803b158015612a0557600080fd5b505af1158015612a19573d6000803e3d6000fd5b505050505050505050505050565b60007f097b4f25b64e012d0cf55f67e9b34fe5d57f15b11b95baa4ddd136b424967c005b54919050565b7f097b4f25b64e012d0cf55f67e9b34fe5d57f15b11b95baa4ddd136b424967c00805482908290600090612a8690849061380c565b90915550505050565b8115612aa157612a9f84836111fe565b505b612aab8584612c8d565b6106e08560405180602001604052806000815250611e2d565b60006001600160a01b038316612adc57506000611914565b6000612ae66110a5565b604051630b969ea960e31b81526001600160a01b0386811660048301529190911690635cb4f54890602401608060405180830381865afa158015612b2e573d6000803e3d6000fd5b505050506040513d601f19601f82011682018060405250810190612b529190613e12565b90508060400151600003612b6a576000915050611914565b604081015160208201516000612b808684612d18565b9050612b95612b8d610c36565b898484610c52565b979650505050505050565b6000808351600014612c15576000612bb785612fa0565b60408101519091506001600160a01b03161580612bd657506020810151155b15612be657600092505050610ce4565b6020810151612bf58582612d18565b9250612c0e612c02610c36565b89846040015186610c52565b5050612085565b6001600160a01b0385161561208557856001600160a01b0316856001600160a01b031603612c47576000915050610ce4565b612c7883612c737faca21cc4d2a125f3e0ae03aa135d42b2b9177631aca87599d42a68b47e9008015490565b612d18565b9050612085612c85610c36565b878784610c52565b6000828152600080516020613f73833981519152602052604081208054600080516020613f538339815191529284929161233190849061380c565b6000600080516020613f13833981519152612a4b565b80612ce7611616565b600093845260090160205260409092209190915550565b610400828260405180602001604052806000815250613031565b6000612710821115612d765760405162461bcd60e51b815260206004820152602160248201527f426173697320706f696e74732063616e6e6f74206578636565642031305f30306044820152600360fc1b60648201526084016103b8565b612710612d838385613e8b565b6119149190613ea2565b60606104167f672ef851d5f92307da037116e23aa9e31af7e1f7e3ca62c4e6d540631df3fd016130b1565b60008181527f672ef851d5f92307da037116e23aa9e31af7e1f7e3ca62c4e6d540631df3fd0360205260408120805460609291839182917f672ef851d5f92307da037116e23aa9e31af7e1f7e3ca62c4e6d540631df3fd0091612e1a9061383c565b80601f0160208091040260200160405190810160405280929190818152602001828054612e469061383c565b8015612e935780601f10612e6857610100808354040283529160200191612e93565b820191906000526020600020905b815481529060010190602001808311612e7657829003601f168201915b50505060008981526003850160205260409020600181015493985060ff9093169650612ec59260020191506130be9050565b9250612ed0866130c9565b9150509193509193565b7f9075c515a635ba70c9696f31149324218d75cf00afe836c482e6473f38b19e006000612f05611616565b60060154604051628956cd60e71b81526c29b830b1b2a7b832b930ba37b960991b60048201526001600160a01b03909116906344ab668090602401602060405180830381865afa158015612f5d573d6000803e3d6000fd5b505050506040513d601f19601f82011682018060405250810190612f81919061381f565b82546001600160a01b0319166001600160a01b03919091161790915550565b612fcd6040518060600160405280606081526020016000815260200160006001600160a01b031681525090565b50805160208083019190912060009081527faca21cc4d2a125f3e0ae03aa135d42b2b9177631aca87599d42a68b47e900802825260409081902081516060810183529384528054928401929092526001909101546001600160a01b03169082015290565b61303b83836131a6565b6001600160a01b0383163b15611db757600080516020613f13833981519152548281035b61307260008683806001019450866132fc565b61308f576040516368d2bf6b60e11b815260040160405180910390fd5b81811061305f5781600080516020613f1383398151915254146106e057600080fd5b60606000611914836133e4565b606061053c82613440565b60008181527f672ef851d5f92307da037116e23aa9e31af7e1f7e3ca62c4e6d540631df3fd03602052604081206060916004909101906131088261351d565b90506000816001600160401b0381111561312457613124613614565b60405190808252806020026020018201604052801561314d578160200160208202803683370190505b50905060005b8281101561319d5760006131678583613527565b90508083838151811061317c5761317c613aa4565b6001600160a01b039092166020928302919091019091015250600101613153565b50949350505050565b600080516020613f138339815191525460008290036131d85760405163b562e8dd60e01b815260040160405180910390fd5b6001600160a01b03831660008181527f6569bde4a160c636ea8b8d11acb83a60d7fec0b8f2e09389306cba0e1340df056020908152604080832080546801000000000000000188020190558483527f6569bde4a160c636ea8b8d11acb83a60d7fec0b8f2e09389306cba0e1340df0490915281206001851460e11b4260a01b178317905582840190839083907fddf252ad1be2c89b69c2b068fc378daa952ba7f163c4a11628f55a4df523b3ef8180a4600183015b8181146132c557808360007fddf252ad1be2c89b69c2b068fc378daa952ba7f163c4a11628f55a4df523b3ef600080a460010161328d565b50816000036132e657604051622e076360e81b815260040160405180910390fd5b600080516020613f138339815191525550505050565b604051630a85bd0160e11b81526000906001600160a01b0385169063150b7a0290613331903390899088908890600401613ec4565b6020604051808303816000875af192505050801561336c575060408051601f3d908101601f1916820190925261336991810190613ef7565b60015b6133ca573d80801561339a576040519150601f19603f3d011682016040523d82523d6000602084013e61339f565b606091505b5080516000036133c2576040516368d2bf6b60e11b815260040160405180910390fd5b805181602001fd5b6001600160e01b031916630a85bd0160e11b149050610ce4565b60608160000180548060200260200160405190810160405280929190818152602001828054801561343457602002820191906000526020600020905b815481526020019060010190808311613420575b50505050509050919050565b606081600001805480602002602001604051908101604052809291908181526020016000905b828210156135125783829060005260206000200180546134859061383c565b80601f01602080910402602001604051908101604052809291908181526020018280546134b19061383c565b80156134fe5780601f106134d3576101008083540402835291602001916134fe565b820191906000526020600020905b8154815290600101906020018083116134e157829003601f168201915b505050505081526020019060010190613466565b505050509050919050565b600061053c825490565b60006119148383600082600001828154811061354557613545613aa4565b9060005260206000200154905092915050565b6000806020838503121561356b57600080fd5b82356001600160401b038082111561358257600080fd5b818501915085601f83011261359657600080fd5b8135818111156135a557600080fd5b8660208285010111156135b757600080fd5b60209290920196919550909350505050565b6000602082840312156135db57600080fd5b5035919050565b6001600160a01b038116811461052657600080fd5b60006020828403121561360957600080fd5b8135611914816135e2565b634e487b7160e01b600052604160045260246000fd5b604051606081016001600160401b038111828210171561364c5761364c613614565b60405290565b604051601f8201601f191681016001600160401b038111828210171561367a5761367a613614565b604052919050565b60006001600160401b0382111561369b5761369b613614565b50601f01601f191660200190565b600080604083850312156136bc57600080fd5b82356136c7816135e2565b91506020838101356001600160401b03808211156136e457600080fd5b90850190606082880312156136f857600080fd5b61370061362a565b823561370b816135e2565b81528284013561371a816135e2565b8185015260408301358281111561373057600080fd5b80840193505087601f84011261374557600080fd5b8235915061375a61375583613682565b613652565b828152888584860101111561376e57600080fd5b8285850186830137600085848301015280604083015250809450505050509250929050565b60005b838110156137ae578181015183820152602001613796565b50506000910152565b600081518084526137cf816020860160208601613793565b601f01601f19169290920160200192915050565b60208152600061191460208301846137b7565b634e487b7160e01b600052601160045260246000fd5b8181038181111561053c5761053c6137f6565b60006020828403121561383157600080fd5b8151611914816135e2565b600181811c9082168061385057607f821691505b602082108103611f0d57634e487b7160e01b600052602260045260246000fd5b601f821115611db7576000816000526020600020601f850160051c810160208610156138995750805b601f850160051c820191505b81811015611c51578281556001016138a5565b81516001600160401b038111156138d1576138d1613614565b6138e5816138df845461383c565b84613870565b602080601f83116001811461391a57600084156139025750858301515b600019600386901b1c1916600185901b178555611c51565b600085815260208120601f198616915b828110156139495788860151825594840194600190910190840161392a565b50858210156139675787850151600019600388901b60f8161c191681555b5050505050600190811b01905550565b60006020828403121561398957600080fd5b5051919050565b60208152600060018060a01b03808451166020840152806020850151166040840152506040830151606080840152610ce460808401826137b7565b6000602082840312156139dd57600080fd5b81516001600160401b038116811461191457600080fd5b8082018082111561053c5761053c6137f6565b6001600160401b03818116838216019080821115613a2757613a276137f6565b5092915050565b80518015158114613a3e57600080fd5b919050565b600060208284031215613a5557600080fd5b61191482613a2e565b6001600160e01b0319851681526001600160a01b03848116602083015283166040820152608060608201819052600090613a9a908301846137b7565b9695505050505050565b634e487b7160e01b600052603260045260246000fd5b60008251613acc818460208701613793565b9190910192915050565b80516020808301519190811015611f0d5760001960209190910360031b1b16919050565b60008151808452602080850194506020840160005b83811015613b345781516001600160a01b031687529582019590820190600101613b0f565b509495945050505050565b838152606060208201526000613b586060830185613afa565b9050826040830152949350505050565b80516001600160e01b031981168114613a3e57600080fd5b6000613b8e61375584613682565b9050828152838383011115613ba257600080fd5b611914836020830184613793565b60008060008060808587031215613bc657600080fd5b613bcf85613b68565b93506020850151613bdf816135e2565b6040860151909350613bf0816135e2565b60608601519092506001600160401b03811115613c0c57600080fd5b8501601f81018713613c1d57600080fd5b613c2c87825160208401613b80565b91505092959194509250565b600060208284031215613c4a57600080fd5b81516001600160401b0380821115613c6157600080fd5b9083019060608286031215613c7557600080fd5b613c7d61362a565b8251613c88816135e2565b81526020830151613c98816135e2565b6020820152604083015182811115613caf57600080fd5b80840193505085601f840112613cc457600080fd5b613cd386845160208601613b80565b604082015295945050505050565b600060208284031215613cf357600080fd5b815161ffff8116811461191457600080fd5b600060018201613d1757613d176137f6565b5060010190565b60006020808385031215613d3157600080fd5b82516001600160401b0380821115613d4857600080fd5b818501915085601f830112613d5c57600080fd5b815181811115613d6e57613d6e613614565b8060051b9150613d7f848301613652565b8181529183018401918481019088841115613d9957600080fd5b938501935b83851015613dc35784519250613db3836135e2565b8282529385019390850190613d9e565b98975050505050505050565b634e487b7160e01b600052602160045260246000fd5b60018060a01b0385168152836020820152826040820152608060608201526000613a9a6080830184613afa565b600060808284031215613e2457600080fd5b604051608081018181106001600160401b0382111715613e4657613e46613614565b6040528251613e54816135e2565b81526020830151613e64816135e2565b602082015260408381015190820152613e7f60608401613a2e565b60608201529392505050565b808202811582820484141761053c5761053c6137f6565b600082613ebf57634e487b7160e01b600052601260045260246000fd5b500490565b6001600160a01b0385811682528416602082015260408101839052608060608201819052600090613a9a908301846137b7565b600060208284031215613f0957600080fd5b61191482613b6856fe6569bde4a160c636ea8b8d11acb83a60d7fec0b8f2e09389306cba0e1340df0054f22f54f370bd020e00ee80e1a5099a71652e2ccbcf6a75281e4c70a3e11a0034516f6fe09a043d57f1ff579a303a7ae85314751c77b4eb1a55837604a86e0034516f6fe09a043d57f1ff579a303a7ae85314751c77b4eb1a55837604a86e01","linkReferences":{}},"methodIdentifiers":{"expiresAt(uint256)":"17c95709","getMembershipCurrency()":"657e45e8","getMembershipDuration()":"8120f0ba","getMembershipFreeAllocation()":"706b8e09","getMembershipImage()":"93b13cb7","getMembershipLimit()":"95d600c8","getMembershipPrice()":"1278076a","getMembershipPricingModule()":"e847abdd","getMembershipRenewalPrice(uint256)":"5803909f","getSpaceFactory()":"79dda585","joinSpace(address)":"8c625b06","joinSpaceWithReferral(address,(address,address,string))":"686f7684","renewMembership(uint256)":"7c9669ac","setMembershipFreeAllocation(uint256)":"5becd24a","setMembershipImage(string)":"0ef1be5f","setMembershipLimit(uint256)":"97fb7c1e","setMembershipPrice(uint256)":"69d5f38a","setMembershipPricingModule(address)":"df9a9fe6","withdraw(address)":"51cff8d9"},"id":283}