{"abi":[{"type":"function","name":"__ERC721A_init","inputs":[{"name":"name_","type":"string","internalType":"string"},{"name":"symbol_","type":"string","internalType":"string"}],"outputs":[],"stateMutability":"nonpayable"},{"type":"function","name":"__EntitlementGated_init","inputs":[{"name":"entitlementChecker","type":"address","internalType":"contract IEntitlementChecker"}],"outputs":[],"stateMutability":"nonpayable"},{"type":"function","name":"__Membership_init","inputs":[{"name":"info","type":"tuple","internalType":"struct IMembershipBase.Membership","components":[{"name":"name","type":"string","internalType":"string"},{"name":"symbol","type":"string","internalType":"string"},{"name":"price","type":"uint256","internalType":"uint256"},{"name":"maxSupply","type":"uint256","internalType":"uint256"},{"name":"duration","type":"uint64","internalType":"uint64"},{"name":"currency","type":"address","internalType":"address"},{"name":"feeRecipient","type":"address","internalType":"address"},{"name":"freeAllocation","type":"uint256","internalType":"uint256"},{"name":"pricingModule","type":"address","internalType":"address"}]},{"name":"spaceFactory","type":"address","internalType":"address"}],"outputs":[],"stateMutability":"nonpayable"},{"type":"function","name":"approve","inputs":[{"name":"to","type":"address","internalType":"address"},{"name":"tokenId","type":"uint256","internalType":"uint256"}],"outputs":[],"stateMutability":"payable"},{"type":"function","name":"balanceOf","inputs":[{"name":"owner","type":"address","internalType":"address"}],"outputs":[{"name":"","type":"uint256","internalType":"uint256"}],"stateMutability":"view"},{"type":"function","name":"expiresAt","inputs":[{"name":"tokenId","type":"uint256","internalType":"uint256"}],"outputs":[{"name":"","type":"uint256","internalType":"uint256"}],"stateMutability":"view"},{"type":"function","name":"getApproved","inputs":[{"name":"tokenId","type":"uint256","internalType":"uint256"}],"outputs":[{"name":"","type":"address","internalType":"address"}],"stateMutability":"view"},{"type":"function","name":"getMembershipCurrency","inputs":[],"outputs":[{"name":"","type":"address","internalType":"address"}],"stateMutability":"view"},{"type":"function","name":"getMembershipDuration","inputs":[],"outputs":[{"name":"","type":"uint64","internalType":"uint64"}],"stateMutability":"view"},{"type":"function","name":"getMembershipFreeAllocation","inputs":[],"outputs":[{"name":"","type":"uint256","internalType":"uint256"}],"stateMutability":"view"},{"type":"function","name":"getMembershipImage","inputs":[],"outputs":[{"name":"","type":"string","internalType":"string"}],"stateMutability":"view"},{"type":"function","name":"getMembershipLimit","inputs":[],"outputs":[{"name":"","type":"uint256","internalType":"uint256"}],"stateMutability":"view"},{"type":"function","name":"getMembershipPrice","inputs":[],"outputs":[{"name":"","type":"uint256","internalType":"uint256"}],"stateMutability":"view"},{"type":"function","name":"getMembershipPricingModule","inputs":[],"outputs":[{"name":"","type":"address","internalType":"address"}],"stateMutability":"view"},{"type":"function","name":"getMembershipRenewalPrice","inputs":[{"name":"tokenId","type":"uint256","internalType":"uint256"}],"outputs":[{"name":"","type":"uint256","internalType":"uint256"}],"stateMutability":"view"},{"type":"function","name":"getRuleData","inputs":[{"name":"transactionId","type":"bytes32","internalType":"bytes32"},{"name":"roleId","type":"uint256","internalType":"uint256"}],"outputs":[{"name":"","type":"tuple","internalType":"struct IRuleEntitlementBase.RuleData","components":[{"name":"operations","type":"tuple[]","internalType":"struct IRuleEntitlementBase.Operation[]","components":[{"name":"opType","type":"uint8","internalType":"enum IRuleEntitlementBase.CombinedOperationType"},{"name":"index","type":"uint8","internalType":"uint8"}]},{"name":"checkOperations","type":"tuple[]","internalType":"struct IRuleEntitlementBase.CheckOperation[]","components":[{"name":"opType","type":"uint8","internalType":"enum IRuleEntitlementBase.CheckOperationType"},{"name":"chainId","type":"uint256","internalType":"uint256"},{"name":"contractAddress","type":"address","internalType":"address"},{"name":"threshold","type":"uint256","internalType":"uint256"}]},{"name":"logicalOperations","type":"tuple[]","internalType":"struct IRuleEntitlementBase.LogicalOperation[]","components":[{"name":"logOpType","type":"uint8","internalType":"enum IRuleEntitlementBase.LogicalOperationType"},{"name":"leftOperationIndex","type":"uint8","internalType":"uint8"},{"name":"rightOperationIndex","type":"uint8","internalType":"uint8"}]}]}],"stateMutability":"view"},{"type":"function","name":"getSpaceFactory","inputs":[],"outputs":[{"name":"","type":"address","internalType":"address"}],"stateMutability":"view"},{"type":"function","name":"isApprovedForAll","inputs":[{"name":"owner","type":"address","internalType":"address"},{"name":"operator","type":"address","internalType":"address"}],"outputs":[{"name":"","type":"bool","internalType":"bool"}],"stateMutability":"view"},{"type":"function","name":"joinSpace","inputs":[{"name":"receiver","type":"address","internalType":"address"}],"outputs":[],"stateMutability":"payable"},{"type":"function","name":"name","inputs":[],"outputs":[{"name":"","type":"string","internalType":"string"}],"stateMutability":"view"},{"type":"function","name":"ownerOf","inputs":[{"name":"tokenId","type":"uint256","internalType":"uint256"}],"outputs":[{"name":"","type":"address","internalType":"address"}],"stateMutability":"view"},{"type":"function","name":"postEntitlementCheckResult","inputs":[{"name":"transactionId","type":"bytes32","internalType":"bytes32"},{"name":"roleId","type":"uint256","internalType":"uint256"},{"name":"result","type":"uint8","internalType":"enum IEntitlementGatedBase.NodeVoteStatus"}],"outputs":[],"stateMutability":"nonpayable"},{"type":"function","name":"renewMembership","inputs":[{"name":"tokenId","type":"uint256","internalType":"uint256"}],"outputs":[],"stateMutability":"payable"},{"type":"function","name":"safeTransferFrom","inputs":[{"name":"from","type":"address","internalType":"address"},{"name":"to","type":"address","internalType":"address"},{"name":"tokenId","type":"uint256","internalType":"uint256"}],"outputs":[],"stateMutability":"payable"},{"type":"function","name":"safeTransferFrom","inputs":[{"name":"from","type":"address","internalType":"address"},{"name":"to","type":"address","internalType":"address"},{"name":"tokenId","type":"uint256","internalType":"uint256"},{"name":"_data","type":"bytes","internalType":"bytes"}],"outputs":[],"stateMutability":"payable"},{"type":"function","name":"setApprovalForAll","inputs":[{"name":"operator","type":"address","internalType":"address"},{"name":"approved","type":"bool","internalType":"bool"}],"outputs":[],"stateMutability":"nonpayable"},{"type":"function","name":"setMembershipFreeAllocation","inputs":[{"name":"newAllocation","type":"uint256","internalType":"uint256"}],"outputs":[],"stateMutability":"nonpayable"},{"type":"function","name":"setMembershipImage","inputs":[{"name":"newImage","type":"string","internalType":"string"}],"outputs":[],"stateMutability":"nonpayable"},{"type":"function","name":"setMembershipLimit","inputs":[{"name":"newLimit","type":"uint256","internalType":"uint256"}],"outputs":[],"stateMutability":"nonpayable"},{"type":"function","name":"setMembershipPrice","inputs":[{"name":"newPrice","type":"uint256","internalType":"uint256"}],"outputs":[],"stateMutability":"nonpayable"},{"type":"function","name":"setMembershipPricingModule","inputs":[{"name":"pricingModule","type":"address","internalType":"address"}],"outputs":[],"stateMutability":"nonpayable"},{"type":"function","name":"symbol","inputs":[],"outputs":[{"name":"","type":"string","internalType":"string"}],"stateMutability":"view"},{"type":"function","name":"tokenURI","inputs":[{"name":"tokenId","type":"uint256","internalType":"uint256"}],"outputs":[{"name":"","type":"string","internalType":"string"}],"stateMutability":"view"},{"type":"function","name":"totalSupply","inputs":[],"outputs":[{"name":"","type":"uint256","internalType":"uint256"}],"stateMutability":"view"},{"type":"function","name":"transferFrom","inputs":[{"name":"from","type":"address","internalType":"address"},{"name":"to","type":"address","internalType":"address"},{"name":"tokenId","type":"uint256","internalType":"uint256"}],"outputs":[],"stateMutability":"payable"},{"type":"function","name":"withdraw","inputs":[{"name":"account","type":"address","internalType":"address"}],"outputs":[],"stateMutability":"nonpayable"},{"type":"event","name":"Approval","inputs":[{"name":"owner","type":"address","indexed":true,"internalType":"address"},{"name":"approved","type":"address","indexed":true,"internalType":"address"},{"name":"tokenId","type":"uint256","indexed":true,"internalType":"uint256"}],"anonymous":false},{"type":"event","name":"ApprovalForAll","inputs":[{"name":"owner","type":"address","indexed":true,"internalType":"address"},{"name":"operator","type":"address","indexed":true,"internalType":"address"},{"name":"approved","type":"bool","indexed":false,"internalType":"bool"}],"anonymous":false},{"type":"event","name":"Banned","inputs":[{"name":"moderator","type":"address","indexed":true,"internalType":"address"},{"name":"tokenId","type":"uint256","indexed":true,"internalType":"uint256"}],"anonymous":false},{"type":"event","name":"ConsecutiveTransfer","inputs":[{"name":"fromTokenId","type":"uint256","indexed":true,"internalType":"uint256"},{"name":"toTokenId","type":"uint256","indexed":false,"internalType":"uint256"},{"name":"from","type":"address","indexed":true,"internalType":"address"},{"name":"to","type":"address","indexed":true,"internalType":"address"}],"anonymous":false},{"type":"event","name":"EntitlementCheckResultPosted","inputs":[{"name":"transactionId","type":"bytes32","indexed":true,"internalType":"bytes32"},{"name":"result","type":"uint8","indexed":false,"internalType":"enum IEntitlementGatedBase.NodeVoteStatus"}],"anonymous":false},{"type":"event","name":"Initialized","inputs":[{"name":"version","type":"uint32","indexed":false,"internalType":"uint32"}],"anonymous":false},{"type":"event","name":"InterfaceAdded","inputs":[{"name":"interfaceId","type":"bytes4","indexed":true,"internalType":"bytes4"}],"anonymous":false},{"type":"event","name":"InterfaceRemoved","inputs":[{"name":"interfaceId","type":"bytes4","indexed":true,"internalType":"bytes4"}],"anonymous":false},{"type":"event","name":"MembershipCurrencyUpdated","inputs":[{"name":"currency","type":"address","indexed":true,"internalType":"address"}],"anonymous":false},{"type":"event","name":"MembershipFeeRecipientUpdated","inputs":[{"name":"recipient","type":"address","indexed":true,"internalType":"address"}],"anonymous":false},{"type":"event","name":"MembershipFreeAllocationUpdated","inputs":[{"name":"allocation","type":"uint256","indexed":true,"internalType":"uint256"}],"anonymous":false},{"type":"event","name":"MembershipLimitUpdated","inputs":[{"name":"limit","type":"uint256","indexed":true,"internalType":"uint256"}],"anonymous":false},{"type":"event","name":"MembershipPriceUpdated","inputs":[{"name":"price","type":"uint256","indexed":true,"internalType":"uint256"}],"anonymous":false},{"type":"event","name":"MembershipTokenIssued","inputs":[{"name":"recipient","type":"address","indexed":true,"internalType":"address"},{"name":"tokenId","type":"uint256","indexed":true,"internalType":"uint256"}],"anonymous":false},{"type":"event","name":"MembershipTokenRejected","inputs":[{"name":"recipient","type":"address","indexed":true,"internalType":"address"}],"anonymous":false},{"type":"event","name":"MembershipWithdrawal","inputs":[{"name":"recipient","type":"address","indexed":true,"internalType":"address"},{"name":"amount","type":"uint256","indexed":false,"internalType":"uint256"}],"anonymous":false},{"type":"event","name":"OwnershipTransferred","inputs":[{"name":"previousOwner","type":"address","indexed":true,"internalType":"address"},{"name":"newOwner","type":"address","indexed":true,"internalType":"address"}],"anonymous":false},{"type":"event","name":"Paused","inputs":[{"name":"account","type":"address","indexed":false,"internalType":"address"}],"anonymous":false},{"type":"event","name":"PermissionsAddedToChannelRole","inputs":[{"name":"updater","type":"address","indexed":true,"internalType":"address"},{"name":"roleId","type":"uint256","indexed":true,"internalType":"uint256"},{"name":"channelId","type":"bytes32","indexed":true,"internalType":"bytes32"}],"anonymous":false},{"type":"event","name":"PermissionsRemovedFromChannelRole","inputs":[{"name":"updater","type":"address","indexed":true,"internalType":"address"},{"name":"roleId","type":"uint256","indexed":true,"internalType":"uint256"},{"name":"channelId","type":"bytes32","indexed":true,"internalType":"bytes32"}],"anonymous":false},{"type":"event","name":"PermissionsUpdatedForChannelRole","inputs":[{"name":"updater","type":"address","indexed":true,"internalType":"address"},{"name":"roleId","type":"uint256","indexed":true,"internalType":"uint256"},{"name":"channelId","type":"bytes32","indexed":true,"internalType":"bytes32"}],"anonymous":false},{"type":"event","name":"Prepay__Prepaid","inputs":[{"name":"supply","type":"uint256","indexed":false,"internalType":"uint256"}],"anonymous":false},{"type":"event","name":"RoleCreated","inputs":[{"name":"creator","type":"address","indexed":true,"internalType":"address"},{"name":"roleId","type":"uint256","indexed":true,"internalType":"uint256"}],"anonymous":false},{"type":"event","name":"RoleRemoved","inputs":[{"name":"remover","type":"address","indexed":true,"internalType":"address"},{"name":"roleId","type":"uint256","indexed":true,"internalType":"uint256"}],"anonymous":false},{"type":"event","name":"RoleUpdated","inputs":[{"name":"updater","type":"address","indexed":true,"internalType":"address"},{"name":"roleId","type":"uint256","indexed":true,"internalType":"uint256"}],"anonymous":false},{"type":"event","name":"SubscriptionUpdate","inputs":[{"name":"tokenId","type":"uint256","indexed":true,"internalType":"uint256"},{"name":"expiration","type":"uint64","indexed":false,"internalType":"uint64"}],"anonymous":false},{"type":"event","name":"Transfer","inputs":[{"name":"from","type":"address","indexed":true,"internalType":"address"},{"name":"to","type":"address","indexed":true,"internalType":"address"},{"name":"tokenId","type":"uint256","indexed":true,"internalType":"uint256"}],"anonymous":false},{"type":"event","name":"Unbanned","inputs":[{"name":"moderator","type":"address","indexed":true,"internalType":"address"},{"name":"tokenId","type":"uint256","indexed":true,"internalType":"uint256"}],"anonymous":false},{"type":"event","name":"Unpaused","inputs":[{"name":"account","type":"address","indexed":false,"internalType":"address"}],"anonymous":false},{"type":"error","name":"AddressEmptyCode","inputs":[{"name":"target","type":"address","internalType":"address"}]},{"type":"error","name":"AddressInsufficientBalance","inputs":[{"name":"account","type":"address","internalType":"address"}]},{"type":"error","name":"ApprovalCallerNotOwnerNorApproved","inputs":[]},{"type":"error","name":"ApprovalQueryForNonexistentToken","inputs":[]},{"type":"error","name":"BalanceQueryForZeroAddress","inputs":[]},{"type":"error","name":"Banning__AlreadyBanned","inputs":[{"name":"tokenId","type":"uint256","internalType":"uint256"}]},{"type":"error","name":"Banning__CannotBanOwner","inputs":[]},{"type":"error","name":"Banning__CannotBanSelf","inputs":[]},{"type":"error","name":"Banning__InvalidTokenId","inputs":[{"name":"tokenId","type":"uint256","internalType":"uint256"}]},{"type":"error","name":"Banning__NotBanned","inputs":[{"name":"tokenId","type":"uint256","internalType":"uint256"}]},{"type":"error","name":"Dispatcher__InvalidCaller","inputs":[]},{"type":"error","name":"Dispatcher__InvalidValue","inputs":[]},{"type":"error","name":"ERC5643__DurationZero","inputs":[]},{"type":"error","name":"ERC5643__InvalidTokenId","inputs":[{"name":"tokenId","type":"uint256","internalType":"uint256"}]},{"type":"error","name":"ERC5643__NotApprovedOrOwner","inputs":[]},{"type":"error","name":"ERC5643__SubscriptionNotRenewable","inputs":[{"name":"tokenId","type":"uint256","internalType":"uint256"}]},{"type":"error","name":"EntitlementGated_InvalidAddress","inputs":[]},{"type":"error","name":"EntitlementGated_NodeAlreadyVoted","inputs":[]},{"type":"error","name":"EntitlementGated_NodeNotFound","inputs":[]},{"type":"error","name":"EntitlementGated_TransactionCheckAlreadyCompleted","inputs":[]},{"type":"error","name":"EntitlementGated_TransactionCheckAlreadyRegistered","inputs":[]},{"type":"error","name":"EntitlementGated_TransactionNotRegistered","inputs":[]},{"type":"error","name":"Entitlement__InvalidValue","inputs":[]},{"type":"error","name":"Entitlement__NotAllowed","inputs":[]},{"type":"error","name":"Entitlement__NotMember","inputs":[]},{"type":"error","name":"Entitlement__ValueAlreadyExists","inputs":[]},{"type":"error","name":"FailedInnerCall","inputs":[]},{"type":"error","name":"Initializable_InInitializingState","inputs":[]},{"type":"error","name":"Initializable_NotInInitializingState","inputs":[]},{"type":"error","name":"Introspection_AlreadySupported","inputs":[]},{"type":"error","name":"Introspection_NotSupported","inputs":[]},{"type":"error","name":"Membership__AlreadyMember","inputs":[]},{"type":"error","name":"Membership__InsufficientAllowance","inputs":[]},{"type":"error","name":"Membership__InsufficientPayment","inputs":[]},{"type":"error","name":"Membership__InvalidAddress","inputs":[]},{"type":"error","name":"Membership__InvalidCurrency","inputs":[]},{"type":"error","name":"Membership__InvalidDuration","inputs":[]},{"type":"error","name":"Membership__InvalidFeeRecipient","inputs":[]},{"type":"error","name":"Membership__InvalidFreeAllocation","inputs":[]},{"type":"error","name":"Membership__InvalidLimit","inputs":[]},{"type":"error","name":"Membership__InvalidMaxSupply","inputs":[]},{"type":"error","name":"Membership__InvalidPayment","inputs":[]},{"type":"error","name":"Membership__InvalidPrice","inputs":[]},{"type":"error","name":"Membership__InvalidPricingModule","inputs":[]},{"type":"error","name":"Membership__InvalidTokenId","inputs":[]},{"type":"error","name":"Membership__MaxSupplyReached","inputs":[]},{"type":"error","name":"Membership__NotExpired","inputs":[]},{"type":"error","name":"Membership__PriceTooLow","inputs":[]},{"type":"error","name":"MintERC2309QuantityExceedsLimit","inputs":[]},{"type":"error","name":"MintToZeroAddress","inputs":[]},{"type":"error","name":"MintZeroQuantity","inputs":[]},{"type":"error","name":"Ownable__NotOwner","inputs":[{"name":"account","type":"address","internalType":"address"}]},{"type":"error","name":"Ownable__ZeroAddress","inputs":[]},{"type":"error","name":"OwnerQueryForNonexistentToken","inputs":[]},{"type":"error","name":"OwnershipNotInitializedForExtraData","inputs":[]},{"type":"error","name":"Pausable__NotPaused","inputs":[]},{"type":"error","name":"Pausable__Paused","inputs":[]},{"type":"error","name":"Prepay__InvalidAddress","inputs":[]},{"type":"error","name":"Prepay__InvalidAmount","inputs":[]},{"type":"error","name":"Prepay__InvalidMembership","inputs":[]},{"type":"error","name":"Prepay__InvalidSupplyAmount","inputs":[]},{"type":"error","name":"ReentrancyGuard__ReentrantCall","inputs":[]},{"type":"error","name":"Roles__EntitlementAlreadyExists","inputs":[]},{"type":"error","name":"Roles__EntitlementDoesNotExist","inputs":[]},{"type":"error","name":"Roles__InvalidEntitlementAddress","inputs":[]},{"type":"error","name":"Roles__InvalidPermission","inputs":[]},{"type":"error","name":"Roles__PermissionAlreadyExists","inputs":[]},{"type":"error","name":"Roles__PermissionDoesNotExist","inputs":[]},{"type":"error","name":"Roles__RoleDoesNotExist","inputs":[]},{"type":"error","name":"SafeERC20FailedOperation","inputs":[{"name":"token","type":"address","internalType":"address"}]},{"type":"error","name":"TransferCallerNotOwnerNorApproved","inputs":[]},{"type":"error","name":"TransferFromIncorrectOwner","inputs":[]},{"type":"error","name":"TransferToNonERC721ReceiverImplementer","inputs":[]},{"type":"error","name":"TransferToZeroAddress","inputs":[]},{"type":"error","name":"URIQueryForNonexistentToken","inputs":[]}],"bytecode":{"object":"0x60806040523480156200001157600080fd5b506200001c62000022565b620000ca565b7f59b501c3653afc186af7d48dda36cf6732bd21629a6295693664240a6ef520008054640100000000900460ff16156200006f576040516366008a2d60e01b815260040160405180910390fd5b805463ffffffff9081161015620000c757805463ffffffff191663ffffffff90811782556040519081527fe9c9b456cb2994b80aeef036cf59d26e9617df80f816a6ee5a5b4166e07e2f5c9060200160405180910390a15b50565b61517f80620000da6000396000f3fe60806040526004361061020f5760003560e01c806370a082311161011857806395d89b41116100a0578063c87b56dd1161006f578063c87b56dd146105d0578063d2f01f19146105f0578063df9a9fe614610610578063e847abdd14610630578063e985e9c51461064557600080fd5b806395d89b411461056857806397fb7c1e1461057d578063a22cb4651461059d578063b88d4fde146105bd57600080fd5b80638120f0ba116100e75780638120f0ba146104d15780638c625b06146104fe57806392c399ff1461051157806393b13cb71461053e57806395d600c81461055357600080fd5b806370a082311461046957806379dda585146104895780637adc9cbe1461049e5780637c9669ac146104be57600080fd5b80634739e8051161019b5780635becd24a1161016a5780635becd24a146103df5780636352211e146103ff578063657e45e81461041f57806369d5f38a14610434578063706b8e091461045457600080fd5b80634739e8051461035f5780634c2abfbe1461037f57806351cff8d91461039f5780635803909f146103bf57600080fd5b80631278076a116101e25780631278076a146102ac57806317c95709146102cf57806318160ddd1461032457806323b872dd1461033957806342842e0e1461034c57600080fd5b806306fdde0314610214578063081812fc1461023f578063095ea7b3146102775780630ef1be5f1461028c575b600080fd5b34801561022057600080fd5b50610229610675565b6040516102369190614239565b60405180910390f35b34801561024b57600080fd5b5061025f61025a36600461424c565b610710565b6040516001600160a01b039091168152602001610236565b61028a61028536600461428a565b610721565b005b34801561029857600080fd5b5061028a6102a73660046142b6565b610731565b3480156102b857600080fd5b506102c16107b0565b604051908152602001610236565b3480156102db57600080fd5b506102c16102ea36600461424c565b60009081527f4775a23600034fdd9f073b224f794d51a58b35ba663a9602623ba7a5c09cce0060205260409020546001600160401b031690565b34801561033057600080fd5b506102c16107c7565b61028a610347366004614327565b6107d1565b61028a61035a366004614327565b6109c8565b34801561036b57600080fd5b5061028a61037a366004614375565b6109e8565b34801561038b57600080fd5b5061028a61039a36600461451a565b610a51565b3480156103ab57600080fd5b5061028a6103ba366004614623565b610ac7565b3480156103cb57600080fd5b506102c16103da36600461424c565b610b69565b3480156103eb57600080fd5b5061028a6103fa36600461424c565b610b7c565b34801561040b57600080fd5b5061025f61041a36600461424c565b610c01565b34801561042b57600080fd5b5061025f610c0c565b34801561044057600080fd5b5061028a61044f36600461424c565b610c16565b34801561046057600080fd5b506102c1610cc4565b34801561047557600080fd5b506102c1610484366004614623565b610cce565b34801561049557600080fd5b5061025f610cd9565b3480156104aa57600080fd5b5061028a6104b9366004614623565b610ce3565b61028a6104cc36600461424c565b610d39565b3480156104dd57600080fd5b506104e6610e96565b6040516001600160401b039091168152602001610236565b61028a61050c366004614623565b610ea0565b34801561051d57600080fd5b5061053161052c366004614640565b6112af565b6040516102369190614753565b34801561054a57600080fd5b506102296112e4565b34801561055f57600080fd5b506102c16112ee565b34801561057457600080fd5b506102296112f8565b34801561058957600080fd5b5061028a61059836600461424c565b611310565b3480156105a957600080fd5b5061028a6105b83660046147fa565b611365565b61028a6105cb366004614833565b6113e2565b3480156105dc57600080fd5b506102296105eb36600461424c565b61142c565b3480156105fc57600080fd5b5061028a61060b3660046148b2565b6114bc565b34801561061c57600080fd5b5061028a61062b366004614623565b611510565b34801561063c57600080fd5b5061025f61155d565b34801561065157600080fd5b50610665610660366004614915565b611567565b6040519015158152602001610236565b606061067f611573565b600201805461068d90614943565b80601f01602080910402602001604051908101604052809291908181526020018280546106b990614943565b80156107065780601f106106db57610100808354040283529160200191610706565b820191906000526020600020905b8154815290600101906020018083116106e957829003601f168201915b5050505050905090565b600061071b82611597565b92915050565b61072d828260016115e4565b5050565b610739611699565b6001600160a01b0316336001600160a01b031614610771576040516365f4906560e01b81523360048201526024015b60405180910390fd5b61072d82828080601f01602080910402602001604051908101604052809392919081815260200183838082843760009201919091525061176392505050565b60006107c26107bd61177a565b611799565b905090565b60006107c261177a565b60006107dc82611899565b9050836001600160a01b0316816001600160a01b03161461080f5760405162a1148160e81b815260040160405180910390fd5b60008061081b84611934565b91509150610840818761082b3390565b6001600160a01b039081169116811491141790565b61086b5761084e8633611567565b61086b57604051632ce44b5f60e11b815260040160405180910390fd5b6001600160a01b03851661089257604051633a954ecd60e21b815260040160405180910390fd5b801561089d57600082555b6108a5611573565b6001600160a01b03871660009081526005919091016020526040902080546000190190556108d1611573565b6001600160a01b03861660008181526005929092016020526040909120805460010190554260a01b17600160e11b17610908611573565b60008681526004919091016020526040812091909155600160e11b8416900361097e5760018401610937611573565b60008281526004919091016020526040812054900361097c57610958611573565b54811461097c5783610968611573565b600083815260049190910160205260409020555b505b83856001600160a01b0316876001600160a01b03167fddf252ad1be2c89b69c2b068fc378daa952ba7f163c4a11628f55a4df523b3ef60405160405180910390a45b505050505050565b6109e3838383604051806020016040528060008152506113e2565b505050565b600260008051602061511f8339815191525403610a1857604051635db5c7cd60e11b815260040160405180910390fd5b610a2f600260008051602061511f83398151915255565b610a3a83838361195c565b6109e3600160008051602061511f83398151915255565b7f59b501c3653afc186af7d48dda36cf6732bd21629a6295693664240a6ef5200054640100000000900460ff16610a9b57604051630ef4733760e31b815260040160405180910390fd5b610aab6322fa1fe560e21b611bdc565b610ab58282611cb5565b61072d82600001518360200151611dd8565b610acf611699565b6001600160a01b0316336001600160a01b031614610b02576040516365f4906560e01b8152336004820152602401610768565b6001600160a01b038116610b2957604051635fbd571760e01b815260040160405180910390fd5b6000610b33611e02565b905080600003610b5657604051635894b54560e11b815260040160405180910390fd5b61072d610b61611e15565b308484611e31565b600061071b82610b7761177a565b611e77565b610b84611699565b6001600160a01b0316336001600160a01b031614610bb7576040516365f4906560e01b8152336004820152602401610768565b6000610bc1611ebd565b90508015801590610bd157508082115b15610bef5760405163c3983b9160e01b815260040160405180910390fd5b610bf882611ed0565b61072d82611f75565b600061071b82611899565b60006107c2611e15565b610c1e611699565b6001600160a01b0316336001600160a01b031614610c51576040516365f4906560e01b8152336004820152602401610768565b610c5a81611fb8565b610c62612046565b6001600160a01b03166391b7f5ed826040518263ffffffff1660e01b8152600401610c8f91815260200190565b600060405180830381600087803b158015610ca957600080fd5b505af1158015610cbd573d6000803e3d6000fd5b5050505050565b60006107c2612062565b600061071b82612101565b60006107c2612169565b7f59b501c3653afc186af7d48dda36cf6732bd21629a6295693664240a6ef5200054640100000000900460ff16610d2d57604051630ef4733760e31b815260040160405180910390fd5b610d3681612185565b50565b600260008051602061511f8339815191525403610d6957604051635db5c7cd60e11b815260040160405180910390fd5b610d80600260008051602061511f83398151915255565b6000610d8b82610c01565b90506001600160a01b038116610db457604051635fbd571760e01b815260040160405180910390fd5b60008281527f4775a23600034fdd9f073b224f794d51a58b35ba663a9602623ba7a5c09cce0060205260409020546001600160401b0316610df36121c0565b6001600160401b0316610e06428361498d565b10610e245760405163dce9a1d360e01b815260040160405180910390fd5b6000610e3284610b7761177a565b90508015610e6b576000610e468483612246565b90506000610e54828461498d565b90508015610e6857610e66858261235e565b505b50505b610e7c84610e776121c0565b6124fc565b505050610d36600160008051602061511f83398151915255565b60006107c26121c0565b600260008051602061511f8339815191525403610ed057604051635db5c7cd60e11b815260040160405180910390fd5b610ee7600260008051602061511f83398151915255565b610ef0816125c5565b60405133606081901b6bffffffffffffffffffffffff19166020830152436034830152906000906054016040516020818303038152906040528051906020012090506000610fb282610f868486610f468761262e565b604080516020808201959095526001600160a01b039390931683820152606080840192909252805180840390920182526080909201909152805191012090565b604080516020808201949094528082019290925280518083038201815260609092019052805191012090565b9050610ff4818486604051602001610fe09291906001600160a01b0392831681529116602082015260400190565b604051602081830303815290604052612663565b34156110045761100481346126aa565b6000611030604051806040016040528060098152602001684a6f696e537061636560b81b815250612730565b905060008060006110403361297a565b845190915060005b81811015611220576000868281518110611064576110646149a0565b6020026020010151905080604001516112175760005b8160800151518110156112155760008260800151828151811061109f5761109f6149a0565b60200260200101519050806001600160a01b0316632e1b61e46040518163ffffffff1660e01b8152600401602060405180830381865afa1580156110e7573d6000803e3d6000fd5b505050506040513d601f19601f8201168201806040525081019061110b91906149b6565b6111f457806001600160a01b0316630cf0b5336000801b88604051806040016040528060098152602001684a6f696e537061636560b81b81525060405160200161115591906149d3565b60405160208183030381529060405261116d906149ef565b6040518463ffffffff1660e01b815260040161118b93929190614a4d565b602060405180830381865afa1580156111a8573d6000803e3d6000fd5b505050506040513d601f19601f820116820180604052508101906111cc91906149b6565b156111eb576111da8a612be2565b505050505050505050505050611298565b6001965061120c565b6112038a828560000151612d94565b60009650600197505b5060010161107a565b505b50600101611048565b508315801561122c5750825b1561128f5761124a8660405180602001604052806000815250612663565b341561125a5761125a8689613052565b6040516001600160a01b038a16907f86fd446d5c04e892d58b448a924dcd9c3ece3a5e0d2960b8c35cd475a5595a1f90600090a25b50505050505050505b610d36600160008051602061511f83398151915255565b6112d360405180606001604052806060815260200160608152602001606081525090565b6112dd8383613089565b9392505050565b60606107c261317a565b60006107c2611ebd565b6060611302611573565b600301805461068d90614943565b611318611699565b6001600160a01b0316336001600160a01b03161461134b576040516365f4906560e01b8152336004820152602401610768565b61135c8161135761177a565b613192565b610d36816131b3565b8061136e611573565b336000818152600792909201602090815260408084206001600160a01b03881680865290835293819020805460ff19169515159590951790945592518415158152919290917f17307eab39ab6107e8899845ad3d59bd9653f200f220920489ca2b5937696c31910160405180910390a35050565b6113ed8484846107d1565b6001600160a01b0383163b1561142657611409848484846131c3565b611426576040516368d2bf6b60e11b815260040160405180910390fd5b50505050565b6060611437826132ae565b61145457604051630a14c4b560e41b815260040160405180910390fd5b600061146b60408051602081019091526000815290565b9050805160000361148b57604051806020016040528060008152506112dd565b80611495846132ea565b6040516020016114a6929190614a76565b6040516020818303038152906040529392505050565b7f59b501c3653afc186af7d48dda36cf6732bd21629a6295693664240a6ef5200054640100000000900460ff1661150657604051630ef4733760e31b815260040160405180910390fd5b61072d8282611dd8565b611518611699565b6001600160a01b0316336001600160a01b03161461154b576040516365f4906560e01b8152336004820152602401610768565b6115548161332e565b610d36816133e6565b60006107c2612046565b60006112dd8383613413565b7f6569bde4a160c636ea8b8d11acb83a60d7fec0b8f2e09389306cba0e1340df0090565b60006115a2826132ae565b6115bf576040516333d1c03960e21b815260040160405180910390fd5b6115c7611573565b60009283526006016020525060409020546001600160a01b031690565b60006115ef83610c01565b9050811561162e57336001600160a01b0382161461162e576116118133613413565b61162e576040516367d9dca160e11b815260040160405180910390fd5b83611637611573565b6000858152600691909101602052604080822080546001600160a01b0319166001600160a01b0394851617905551859287811692908516917f8c5be1e5ebec7d5bd14f71427d1e84f3dd0314c0f7b2291e5b200ac8c7c3b9259190a450505050565b6040805180820182527fd2f24d4f172e4e84e48e7c4125b6e904c29e5eba33ad4938fee51dd5dbd4b600546001600160a01b03168082527fd2f24d4f172e4e84e48e7c4125b6e904c29e5eba33ad4938fee51dd5dbd4b60154602080840182905284516331a9108f60e11b815260048101929092529351600094636352211e92602480820193918290030181865afa158015611739573d6000803e3d6000fd5b505050506040513d601f19601f8201168201806040525081019061175d9190614aa5565b91505090565b8061176c613450565b600c019061072d9082614b0a565b600080611785611573565b60010154611791611573565b540303919050565b6000806117a4613450565b905060006117b0612062565b60088301549091506001600160a01b031615611844576008820154604051635cf4ee9160e01b815260048101839052602481018690526001600160a01b0390911690635cf4ee9190604401602060405180830381865afa158015611818573d6000803e3d6000fd5b505050506040513d601f19601f8201168201806040525081019061183c9190614bc9565b949350505050565b8160060160009054906101000a90046001600160a01b03166001600160a01b0316631b159e2e6040518163ffffffff1660e01b8152600401602060405180830381865afa158015611818573d6000803e3d6000fd5b6000806118a4611573565b60008481526004820160205260408120549350909150600160e01b8316900361191a578160000361191457805483106118f057604051636f96cda160e11b815260040160405180910390fd5b5b6000199092016000818152600484016020526040902054909290915081156118f1575b50919050565b50604051636f96cda160e11b815260040160405180910390fd5b6000806000611941611573565b60009485526006016020525050604090912080549092909150565b60008381526000805160206150ff8339815191526020526040902080546000805160206150df833981519152919061010090046001600160a01b031615806119a65750805460ff16155b156119c457604051637ad5a43960e11b815260040160405180910390fd5b600084815260028201602052604090205460ff16156119f657604051637912b73960e01b815260040160405180910390fd5b60008481526001820160205260408120805482918291825b81811015611b10576000838281548110611a2a57611a2a6149a0565b60009182526020909120018054909150336001600160a01b0390911603611ab65760008154600160a01b900460ff166002811115611a6a57611a6a614662565b14611a88576040516347592a4d60e01b815260040160405180910390fd5b80548a90829060ff60a01b1916600160a01b836002811115611aac57611aac614662565b0217905550600196505b8054600160a01b900460ff166001816002811115611ad657611ad6614662565b03611ae657866001019650611b06565b6002816002811115611afa57611afa614662565b03611b06578560010195505b5050600101611a0e565b5084611b2f57604051638223a7e960e01b815260040160405180910390fd5b611b3a600282614be2565b841180611b505750611b4d600282614be2565b83115b15611bd05760008981526002870160205260408120805460ff19166001179055838511611b7e576002611b81565b60015b9050611b8d8b82613474565b8a7fb9d6ce397e562841871d119aaf77469c60a3b5bf8b99a5d9851656015015c63382604051611bbd9190614c04565b60405180910390a2611bce8b613516565b505b50505050505050505050565b6001600160e01b0319811660009081527f81088bbc801e045ea3e7620779ab349988f58afbdfba10dff983df3f33522b00602052604090205460ff16611c64576001600160e01b0319811660009081527f81088bbc801e045ea3e7620779ab349988f58afbdfba10dff983df3f33522b0060205260409020805460ff19166001179055611c7d565b604051637967f77d60e11b815260040160405180910390fd5b6040516001600160e01b03198216907f78f84e5b1c5c05be2b5ad3800781dd404d6d6c6302bc755c0fe20f58a33a7f2290600090a250565b6000611cbf613450565b6006810180546001600160a01b038086166001600160a01b031992831617909255610100860151600884018054919093169082161790915560048201805490911673eeeeeeeeeeeeeeeeeeeeeeeeeeeeeeeeeeeeeeee1790556060840151600382015560e08401516007820181905590915015611d4357611d438360e00151611ed0565b611d5183610100015161332e565b6040830151156109e357611d688360400151611fb8565b600881015460408085015190516391b7f5ed60e01b81526001600160a01b03909216916391b7f5ed91611da19160040190815260200190565b600060405180830381600087803b158015611dbb57600080fd5b505af1158015611dcf573d6000803e3d6000fd5b50505050505050565b611de86380ac58cd60e01b611bdc565b611df8635b5e139f60e01b611bdc565b61072d82826135e4565b6000611e0c613450565b600a0154905090565b6000611e1f613450565b600401546001600160a01b0316919050565b80156114265773eeeeeeeeeeeeeeeeeeeeeeeeeeeeeeeeeeeeeeed196001600160a01b03851601611e6b57611e668282613616565b611426565b611426848484846136b9565b600080611e82613450565b600085815260098201602052604090205490915015611eb457600084815260099091016020526040902054905061071b565b61183c83611799565b6000611ec7613450565b60030154905090565b6000611eda613450565b90508060060160009054906101000a90046001600160a01b03166001600160a01b0316632cbb9d136040518163ffffffff1660e01b8152600401602060405180830381865afa158015611f31573d6000803e3d6000fd5b505050506040513d601f19601f82011682018060405250810190611f559190614bc9565b82111561072d5760405163c3983b9160e01b815260040160405180910390fd5b6000611f7f613450565b6007810183905560405190915082907fab14a23e88fb272313490d4f20d63098e64fd38304c0e07a377db98c2b39b92f90600090a25050565b6000611fc2612169565b6001600160a01b0316631b159e2e6040518163ffffffff1660e01b8152600401602060405180830381865afa158015611fff573d6000803e3d6000fd5b505050506040513d601f19601f820116820180604052508101906120239190614bc9565b90508082101561072d57604051631a23d64760e11b815260040160405180910390fd5b6000612050613450565b600801546001600160a01b0316919050565b60008061206d613450565b600781015490915080156120815792915050565b8160060160009054906101000a90046001600160a01b03166001600160a01b0316632cbb9d136040518163ffffffff1660e01b8152600401602060405180830381865afa1580156120d6573d6000803e3d6000fd5b505050506040513d601f19601f820116820180604052508101906120fa9190614bc9565b9250505090565b60006001600160a01b03821661212a576040516323d3ad8160e21b815260040160405180910390fd5b6001600160401b0361213a611573565b6005016000846001600160a01b03166001600160a01b0316815260200190815260200160002054169050919050565b6000612173613450565b600601546001600160a01b0316919050565b612195636afd38fd60e11b611bdc565b6000805160206150df83398151915280546001600160a01b0319166001600160a01b03831617905550565b6000806121cb613450565b90508060060160009054906101000a90046001600160a01b03166001600160a01b0316638120f0ba6040518163ffffffff1660e01b8152600401602060405180830381865afa158015612222573d6000803e3d6000fd5b505050506040513d601f19601f8201168201806040525081019061175d9190614c17565b600080612251613450565b6006810154600480830154604080516301332c8360e61b815290519495506001600160a01b039384169493909116926000928592634ccb20c092818301926020928290030181865afa1580156122ab573d6000803e3d6000fd5b505050506040513d601f19601f820116820180604052508101906122cf9190614aa5565b90506000836001600160a01b0316639f6542aa6040518163ffffffff1660e01b8152600401602060405180830381865afa158015612311573d6000803e3d6000fd5b505050506040513d601f19601f820116820180604052508101906123359190614c34565b9050612345878261ffff1661370c565b955061235383898489611e31565b505050505092915050565b600080612369613450565b90506000612375611e15565b905073eeeeeeeeeeeeeeeeeeeeeeeeeeeeeeeeeeeeeeed196001600160a01b038216016123c0578382600a0160008282546123b09190614c58565b9091555084935061071b92505050565b6040516370a0823160e01b815230600482015281906000906001600160a01b038316906370a0823190602401602060405180830381865afa158015612409573d6000803e3d6000fd5b505050506040513d601f19601f8201168201806040525081019061242d9190614bc9565b905061243b83883089611e31565b6040516370a0823160e01b81523060048201526000906001600160a01b038416906370a0823190602401602060405180830381865afa158015612482573d6000803e3d6000fd5b505050506040513d601f19601f820116820180604052508101906124a69190614bc9565b905060006124b4838361498d565b90508781146124d657604051635894b54560e11b815260040160405180910390fd5b8086600a0160008282546124ea9190614c58565b90915550909998505050505050505050565b60008281527f4775a23600034fdd9f073b224f794d51a58b35ba663a9602623ba7a5c09cce006020819052604082205490916001600160401b03909116908181036125525761254b8442614c6b565b905061255f565b61255c8483614c6b565b90505b60008581526020848152604091829020805467ffffffffffffffff19166001600160401b038516908117909155915191825286917f2ec2be2c4b90c2cf13ecb6751a24daed6bb741ae5ed3f7371aabf9402f6d62e8910160405180910390a25050505050565b6001600160a01b0381166125ec57604051635fbd571760e01b815260040160405180910390fd5b6125f4611ebd565b158015906126105750612605611ebd565b61260d61177a565b10155b15610d3657604051637efcdb4960e01b815260040160405180910390fd5b600081815260008051602061513f8339815191526020819052604082208054908361265883614c92565b909155509392505050565b60008281527f34516f6fe09a043d57f1ff579a303a7ae85314751c77b4eb1a55837604a86e026020526040902060008051602061513f833981519152906114268382614b0a565b806000036126cb5760405163acdc0d4960e01b815260040160405180910390fd5b8034146126eb5760405163acdc0d4960e01b815260040160405180910390fd5b600082815260008051602061515f83398151915260205260408120805460008051602061513f83398151915292849291612726908490614c58565b9091555050505050565b6060600061273c613781565b80519091506000816001600160401b0381111561275b5761275b6143ae565b604051908082528060200260200182016040528015612784578160200160208202803683370190505b5085516020870120909150600090815b848110156128535760006127c08783815181106127b3576127b36149a0565b60200260200101516137ac565b509250505060005b815181101561284957838282815181106127e4576127e46149a0565b602002602001015180519060200120036128415787838151811061280a5761280a6149a0565b6020026020010151868681518110612824576128246149a0565b60209081029190910101528461283981614c92565b955050612849565b6001016127c8565b5050600101612794565b506000826001600160401b0381111561286e5761286e6143ae565b6040519080825280602002602001820160405280156128d357816020015b6128c06040518060a00160405280600081526020016060815260200160001515815260200160608152602001606081525090565b81526020019060019003908161288c5790505b50905060005b8381101561296e5760008582815181106128f5576128f56149a0565b6020026020010151905060008060008061290e856137ac565b93509350935093506040518060a00160405280868152602001858152602001841515815260200183815260200182815250878781518110612951576129516149a0565b6020026020010181905250505050505080806001019150506128d9565b50979650505050505050565b60606000612986613450565b6006015460405162468b7360e31b81526001600160a01b038581166004830152909116915060009082906302345b9890602401600060405180830381865afa1580156129d6573d6000803e3d6000fd5b505050506040513d6000823e601f3d908101601f191682016040526129fe9190810190614cce565b604051631f04207360e31b81526001600160a01b03868116600483015291925060009184169063f821039890602401602060405180830381865afa158015612a4a573d6000803e3d6000fd5b505050506040513d601f19601f82011682018060405250810190612a6e9190614aa5565b905081516000148015612a8957506001600160a01b03811615155b15612b035760405162468b7360e31b81526001600160a01b03808316600483015291955085918416906302345b9890602401600060405180830381865afa158015612ad8573d6000803e3d6000fd5b505050506040513d6000823e601f3d908101601f19168201604052612b009190810190614cce565b91505b81516000612b12826001614c58565b6001600160401b03811115612b2957612b296143ae565b604051908082528060200260200182016040528015612b52578160200160208202803683370190505b50905060005b82811015612bac57848181518110612b7257612b726149a0565b6020026020010151828281518110612b8c57612b8c6149a0565b6001600160a01b0390921660209283029190910190910152600101612b58565b5086818381518110612bc057612bc06149a0565b6001600160a01b03909216602092830291909101909101529695505050505050565b600080612bee836138ce565b806020019051810190612c019190614d6c565b915091506000612c0f61177a565b9050600080612c1c612062565b90506000612c2861399f565b905083821115612c455760009250612c408787613052565b612c6f565b8015612c635760009250612c5960016139c9565b612c408787613052565b612c6c84611799565b92505b6000612c79613a07565b90508315612d3d57600088815260008051602061515f833981519152602052604081205490819003612cbe57604051635894b54560e11b815260040160405180910390fd5b848114612cde576040516334a7a93d60e01b815260040160405180910390fd5b612ce88286613a11565b6000612cf48987612246565b90506000612d02828861498d565b90508015612d1657612d148a8261235e565b505b612d208b88613a31565b612d398b60405180602001604052806000815250612663565b5050505b612d48866001613a6c565b612d5481610e776121c0565b60405181906001600160a01b038816907f2f40b0474996b72a4251e00fb9170cdd960deea1dc749772cbbab61395b9b57690600090a35050505050505050565b60008381526000805160206150ff8339815191526020526040902080546000805160206150df833981519152919060ff1615612e2457600481015460005b81811015612e215784836004018281548110612df057612df06149a0565b906000526020600020015403612e19576040516301ab53df60e31b815260040160405180910390fd5b600101612dd2565b50505b81546001600160a01b0316612e3b57612e3b613a86565b8154604051634f84544560e01b8152600560048201526000916001600160a01b031690634f84544590602401600060405180830381865afa158015612e84573d6000803e3d6000fd5b505050506040513d6000823e601f3d908101601f19168201604052612eac9190810190614cce565b825490915060ff16612eed5781546003830180546001600160a01b0319166001600160a01b0388161790556001600160a81b03191661010033021760011782555b600482018054600181810183556000928352602080842090920187905583518784529085019091526040822090915b82811015612fe057816040518060400160405280868481518110612f4257612f426149a0565b60200260200101516001600160a01b0316815260200160006002811115612f6b57612f6b614662565b9052815460018101835560009283526020928390208251910180546001600160a01b031981166001600160a01b03909316928317825593830151929390929183916001600160a81b03191617600160a01b836002811115612fce57612fce614662565b02179055505050806001019050612f1c565b50845460405163541da4e560e01b81526001600160a01b039091169063541da4e5906130169033908c908b908990600401614d9b565b600060405180830381600087803b15801561303057600080fd5b505af1158015613044573d6000803e3d6000fd5b505050505050505050505050565b600082815260008051602061515f833981519152602052604090205480156109e35761307e8382613a31565b6109e3610b61611e15565b6130ad60405180606001604052806060815260200160608152602001606081525090565b60008381526000805160206150ff8339815191526020526040902080546000805160206150df833981519152919060ff166130fb57604051637ad5a43960e11b815260040160405180910390fd5b600381015460405163069a3ee960e01b8152600481018690526001600160a01b0390911690819063069a3ee990602401600060405180830381865afa158015613148573d6000803e3d6000fd5b505050506040513d6000823e601f3d908101601f191682016040526131709190810190614f2d565b9695505050505050565b6060613184613450565b600c01805461068d90614943565b8082101561072d57604051636664d51760e11b815260040160405180910390fd5b806131bc613450565b6003015550565b604051630a85bd0160e11b81526000906001600160a01b0385169063150b7a02906131f890339089908890889060040161506a565b6020604051808303816000875af1925050508015613233575060408051601f3d908101601f191682019092526132309181019061509d565b60015b613291573d808015613261576040519150601f19603f3d011682016040523d82523d6000602084013e613266565b606091505b508051600003613289576040516368d2bf6b60e11b815260040160405180910390fd5b805181602001fd5b6001600160e01b031916630a85bd0160e11b149050949350505050565b60006132b8611573565b548210801561071b5750600160e01b6132cf611573565b60008481526004919091016020526040902054161592915050565b606060a06040510180604052602081039150506000815280825b600183039250600a81066030018353600a9004806133045750819003601f19909101908152919050565b6001600160a01b03811661335557604051630e88bf4b60e01b815260040160405180910390fd5b61335d612169565b6040516346fc05eb60e11b81526001600160a01b0383811660048301529190911690638df80bd690602401602060405180830381865afa1580156133a5573d6000803e3d6000fd5b505050506040513d601f19601f820116820180604052508101906133c991906149b6565b610d3657604051630e88bf4b60e01b815260040160405180910390fd5b806133ef613450565b60080180546001600160a01b0319166001600160a01b039290921691909117905550565b600061341d611573565b6001600160a01b039384166000908152600791909101602090815260408083209490951682529290925250205460ff1690565b7fc21004fcc619240a31f006438274d15cd813308303284436eef6055f0fdcb60090565b600181600281111561348857613488614662565b036134965761072d82612be2565b6000806134a2846138ce565b8060200190518101906134b59190614d6c565b915091506134d28460405180602001604052806000815250612663565b6134dc8483613052565b6040516001600160a01b038216907f86fd446d5c04e892d58b448a924dcd9c3ece3a5e0d2960b8c35cd475a5595a1f90600090a250505050565b60008181526000805160206150ff8339815191526020526040812060048101546000805160206150df833981519152925b818110156135975782600101600084600401838154811061356a5761356a6149a0565b90600052602060002001548152602001908152602001600020600061358f9190614175565b600101613547565b506135a6600483016000614193565b6000848152600184016020526040812080546001600160a81b03191681556003810180546001600160a01b0319169055906109c06004830182614193565b60006135ee611573565b9050600281016135fe8482614b0a565b506003810161360d8382614b0a565b50600090555050565b6000826001600160a01b03168260405160006040518083038185875af1925050503d8060008114613663576040519150601f19603f3d011682016040523d82523d6000602084013e613668565b606091505b50509050806109e35760405162461bcd60e51b815260206004820152601c60248201527f6e617469766520746f6b656e207472616e73666572206661696c6564000000006044820152606401610768565b816001600160a01b0316836001600160a01b0316031561142657306001600160a01b038416036136f757611e666001600160a01b0385168383613b3a565b6114266001600160a01b038516848484613b99565b600061271082111561376a5760405162461bcd60e51b815260206004820152602160248201527f426173697320706f696e74732063616e6e6f74206578636565642031305f30306044820152600360fc1b6064820152608401610768565b61271061377783856150c7565b6112dd9190614be2565b60606107c27f672ef851d5f92307da037116e23aa9e31af7e1f7e3ca62c4e6d540631df3fd01613bd2565b60008181527f672ef851d5f92307da037116e23aa9e31af7e1f7e3ca62c4e6d540631df3fd0360205260408120805460609291839182917f672ef851d5f92307da037116e23aa9e31af7e1f7e3ca62c4e6d540631df3fd009161380e90614943565b80601f016020809104026020016040519081016040528092919081815260200182805461383a90614943565b80156138875780601f1061385c57610100808354040283529160200191613887565b820191906000526020600020905b81548152906001019060200180831161386a57829003601f168201915b50505060008981526003850160205260409020600181015493985060ff90931696506138b9926002019150613bdf9050565b92506138c486613bea565b9150509193509193565b60008181527f34516f6fe09a043d57f1ff579a303a7ae85314751c77b4eb1a55837604a86e0260205260409020805460609160008051602061513f8339815191529161391990614943565b80601f016020809104026020016040519081016040528092919081815260200182805461394590614943565b80156139925780601f1061396757610100808354040283529160200191613992565b820191906000526020600020905b81548152906001019060200180831161397557829003601f168201915b5050505050915050919050565b60007f097b4f25b64e012d0cf55f67e9b34fe5d57f15b11b95baa4ddd136b424967c005b54919050565b7f097b4f25b64e012d0cf55f67e9b34fe5d57f15b11b95baa4ddd136b424967c008054829082906000906139fe90849061498d565b90915550505050565b60006139c3611573565b80613a1a613450565b600093845260090160205260409092209190915550565b600082815260008051602061515f83398151915260205260408120805460008051602061513f8339815191529284929161272690849061498d565b61072d828260405180602001604052806000815250613cc7565b6000805160206150df8339815191526000613a9f613450565b60060154604051628956cd60e71b81526c29b830b1b2a7b832b930ba37b960991b60048201526001600160a01b03909116906344ab668090602401602060405180830381865afa158015613af7573d6000803e3d6000fd5b505050506040513d601f19601f82011682018060405250810190613b1b9190614aa5565b82546001600160a01b0319166001600160a01b03919091161790915550565b6040516001600160a01b038381166024830152604482018390526109e391859182169063a9059cbb906064015b604051602081830303815290604052915060e01b6020820180516001600160e01b038381831617835250505050613d3d565b6040516001600160a01b0384811660248301528381166044830152606482018390526114269186918216906323b872dd90608401613b67565b606060006112dd83613da0565b606061071b82613dfc565b60008181527f672ef851d5f92307da037116e23aa9e31af7e1f7e3ca62c4e6d540631df3fd0360205260408120606091600490910190613c2982613ed9565b90506000816001600160401b03811115613c4557613c456143ae565b604051908082528060200260200182016040528015613c6e578160200160208202803683370190505b50905060005b82811015613cbe576000613c888583613ee3565b905080838381518110613c9d57613c9d6149a0565b6001600160a01b039092166020928302919091019091015250600101613c74565b50949350505050565b613cd18383613eef565b6001600160a01b0383163b156109e3576000613ceb611573565b5490508281035b613d0560008683806001019450866131c3565b613d22576040516368d2bf6b60e11b815260040160405180910390fd5b818110613cf25781613d32611573565b5414610cbd57600080fd5b6000613d526001600160a01b0384168361402a565b90508051600014158015613d77575080806020019051810190613d7591906149b6565b155b156109e357604051635274afe760e01b81526001600160a01b0384166004820152602401610768565b606081600001805480602002602001604051908101604052809291908181526020018280548015613df057602002820191906000526020600020905b815481526020019060010190808311613ddc575b50505050509050919050565b606081600001805480602002602001604051908101604052809291908181526020016000905b82821015613ece578382906000526020600020018054613e4190614943565b80601f0160208091040260200160405190810160405280929190818152602001828054613e6d90614943565b8015613eba5780601f10613e8f57610100808354040283529160200191613eba565b820191906000526020600020905b815481529060010190602001808311613e9d57829003601f168201915b505050505081526020019060010190613e22565b505050509050919050565b600061071b825490565b60006112dd8383614038565b6000613ef9611573565b5490506000829003613f1e5760405163b562e8dd60e01b815260040160405180910390fd5b680100000000000000018202613f32611573565b6001600160a01b038516600081815260059290920160205260409091208054929092019091554260a01b6001841460e11b1717613f6d611573565b600083815260049190910160205260408120919091556001600160a01b0384169083830190839083907fddf252ad1be2c89b69c2b068fc378daa952ba7f163c4a11628f55a4df523b3ef8180a4600183015b818114613ff757808360007fddf252ad1be2c89b69c2b068fc378daa952ba7f163c4a11628f55a4df523b3ef600080a4600101613fbf565b508160000361401857604051622e076360e81b815260040160405180910390fd5b80614021611573565b55506109e39050565b60606112dd83836000614062565b600082600001828154811061404f5761404f6149a0565b9060005260206000200154905092915050565b6060814710156140875760405163cd78605960e01b8152306004820152602401610768565b600080856001600160a01b031684866040516140a391906149d3565b60006040518083038185875af1925050503d80600081146140e0576040519150601f19603f3d011682016040523d82523d6000602084013e6140e5565b606091505b5091509150613170868383606082614105576141008261414c565b6112dd565b815115801561411c57506001600160a01b0384163b155b1561414557604051639996b31560e01b81526001600160a01b0385166004820152602401610768565b50806112dd565b80511561415c5780518082602001fd5b604051630a12f52160e11b815260040160405180910390fd5b5080546000825590600052602060002090810190610d3691906141b1565b5080546000825590600052602060002090810190610d3691906141d4565b5b808211156141d05780546001600160a81b03191681556001016141b2565b5090565b5b808211156141d057600081556001016141d5565b60005b838110156142045781810151838201526020016141ec565b50506000910152565b600081518084526142258160208601602086016141e9565b601f01601f19169290920160200192915050565b6020815260006112dd602083018461420d565b60006020828403121561425e57600080fd5b5035919050565b6001600160a01b0381168114610d3657600080fd5b803561428581614265565b919050565b6000806040838503121561429d57600080fd5b82356142a881614265565b946020939093013593505050565b600080602083850312156142c957600080fd5b82356001600160401b03808211156142e057600080fd5b818501915085601f8301126142f457600080fd5b81358181111561430357600080fd5b86602082850101111561431557600080fd5b60209290920196919550909350505050565b60008060006060848603121561433c57600080fd5b833561434781614265565b9250602084013561435781614265565b929592945050506040919091013590565b60038110610d3657600080fd5b60008060006060848603121561438a57600080fd5b833592506020840135915060408401356143a381614368565b809150509250925092565b634e487b7160e01b600052604160045260246000fd5b60405161012081016001600160401b03811182821017156143e7576143e76143ae565b60405290565b604051608081016001600160401b03811182821017156143e7576143e76143ae565b604051606081016001600160401b03811182821017156143e7576143e76143ae565b604080519081016001600160401b03811182821017156143e7576143e76143ae565b604051601f8201601f191681016001600160401b038111828210171561447b5761447b6143ae565b604052919050565b60006001600160401b0383111561449c5761449c6143ae565b6144af601f8401601f1916602001614453565b90508281528383830111156144c357600080fd5b828260208301376000602084830101529392505050565b600082601f8301126144eb57600080fd5b6112dd83833560208501614483565b6001600160401b0381168114610d3657600080fd5b8035614285816144fa565b6000806040838503121561452d57600080fd5b82356001600160401b038082111561454457600080fd5b90840190610120828703121561455957600080fd5b6145616143c4565b82358281111561457057600080fd5b61457c888286016144da565b82525060208301358281111561459157600080fd5b61459d888286016144da565b60208301525060408301356040820152606083013560608201526145c36080840161450f565b60808201526145d460a0840161427a565b60a08201526145e560c0840161427a565b60c082015260e083013560e0820152610100915061460482840161427a565b8282015280945050505061461a6020840161427a565b90509250929050565b60006020828403121561463557600080fd5b81356112dd81614265565b6000806040838503121561465357600080fd5b50508035926020909101359150565b634e487b7160e01b600052602160045260246000fd5b60038110610d3657610d36614662565b60008151808452602080850194506020840160005b838110156146f25781518051600781106146b9576146b9614662565b885280840151848901526040808201516001600160a01b031690890152606090810151908801526080909601959082019060010161469d565b509495945050505050565b60008151808452602080850194506020840160005b838110156146f2578151805161472781614678565b88528084015160ff908116858a0152604091820151169088015260609096019590820190600101614712565b6020808252825160608383015280516080840181905260009291820190839060a08601905b808310156147af578351805161478d81614678565b835285015160ff16858301529284019260019290920191604090910190614778565b50838701519350601f199250828682030160408701526147cf8185614688565b9350505060408501518185840301606086015261317083826146fd565b8015158114610d3657600080fd5b6000806040838503121561480d57600080fd5b823561481881614265565b91506020830135614828816147ec565b809150509250929050565b6000806000806080858703121561484957600080fd5b843561485481614265565b9350602085013561486481614265565b92506040850135915060608501356001600160401b0381111561488657600080fd5b8501601f8101871361489757600080fd5b6148a687823560208401614483565b91505092959194509250565b600080604083850312156148c557600080fd5b82356001600160401b03808211156148dc57600080fd5b6148e8868387016144da565b935060208501359150808211156148fe57600080fd5b5061490b858286016144da565b9150509250929050565b6000806040838503121561492857600080fd5b823561493381614265565b9150602083013561482881614265565b600181811c9082168061495757607f821691505b60208210810361191457634e487b7160e01b600052602260045260246000fd5b634e487b7160e01b600052601160045260246000fd5b8181038181111561071b5761071b614977565b634e487b7160e01b600052603260045260246000fd5b6000602082840312156149c857600080fd5b81516112dd816147ec565b600082516149e58184602087016141e9565b9190910192915050565b805160208083015191908110156119145760001960209190910360031b1b16919050565b60008151808452602080850194506020840160005b838110156146f25781516001600160a01b031687529582019590820190600101614a28565b838152606060208201526000614a666060830185614a13565b9050826040830152949350505050565b60008351614a888184602088016141e9565b835190830190614a9c8183602088016141e9565b01949350505050565b600060208284031215614ab757600080fd5b81516112dd81614265565b601f8211156109e3576000816000526020600020601f850160051c81016020861015614aeb5750805b601f850160051c820191505b818110156109c057828155600101614af7565b81516001600160401b03811115614b2357614b236143ae565b614b3781614b318454614943565b84614ac2565b602080601f831160018114614b6c5760008415614b545750858301515b600019600386901b1c1916600185901b1785556109c0565b600085815260208120601f198616915b82811015614b9b57888601518255948401946001909101908401614b7c565b5085821015614bb95787850151600019600388901b60f8161c191681555b5050505050600190811b01905550565b600060208284031215614bdb57600080fd5b5051919050565b600082614bff57634e487b7160e01b600052601260045260246000fd5b500490565b60208101614c1183614678565b91905290565b600060208284031215614c2957600080fd5b81516112dd816144fa565b600060208284031215614c4657600080fd5b815161ffff811681146112dd57600080fd5b8082018082111561071b5761071b614977565b6001600160401b03818116838216019080821115614c8b57614c8b614977565b5092915050565b600060018201614ca457614ca4614977565b5060010190565b60006001600160401b03821115614cc457614cc46143ae565b5060051b60200190565b60006020808385031215614ce157600080fd5b82516001600160401b03811115614cf757600080fd5b8301601f81018513614d0857600080fd5b8051614d1b614d1682614cab565b614453565b81815260059190911b82018301908381019087831115614d3a57600080fd5b928401925b82841015614d61578351614d5281614265565b82529284019290840190614d3f565b979650505050505050565b60008060408385031215614d7f57600080fd5b8251614d8a81614265565b602084015190925061482881614265565b60018060a01b03851681528360208201528260408201526080606082015260006131706080830184614a13565b805160ff8116811461428557600080fd5b600082601f830112614dea57600080fd5b81516020614dfa614d1683614cab565b828152600792831b8501820192828201919087851115614e1957600080fd5b8387015b85811015614e82576080818a031215614e365760008081fd5b614e3e6143ed565b8151838110614e4d5760008081fd5b81528186015186820152604080830151614e6681614265565b9082015260608281015190820152845292840192608001614e1d565b5090979650505050505050565b600082601f830112614ea057600080fd5b81516020614eb0614d1683614cab565b82815260609283028501820192828201919087851115614ecf57600080fd5b8387015b85811015614e825781818a031215614eeb5760008081fd5b614ef361440f565b8151614efe81614368565b8152614f0b828701614dc8565b868201526040614f1c818401614dc8565b908201528452928401928101614ed3565b60006020808385031215614f4057600080fd5b82516001600160401b0380821115614f5757600080fd5b9084019060608287031215614f6b57600080fd5b614f7361440f565b825182811115614f8257600080fd5b8301601f81018813614f9357600080fd5b8051614fa1614d1682614cab565b81815260069190911b8201860190868101908a831115614fc057600080fd5b928701925b82841015615014576040848c031215614fde5760008081fd5b614fe6614431565b8451614ff181614368565b8152614ffe858a01614dc8565b818a015282526040939093019290870190614fc5565b8452505050828401518281111561502a57600080fd5b61503688828601614dd9565b8583015250604083015193508184111561504f57600080fd5b61505b87858501614e8f565b60408201529695505050505050565b6001600160a01b03858116825284166020820152604081018390526080606082018190526000906131709083018461420d565b6000602082840312156150af57600080fd5b81516001600160e01b0319811681146112dd57600080fd5b808202811582820484141761071b5761071b61497756fe9075c515a635ba70c9696f31149324218d75cf00afe836c482e6473f38b19e009075c515a635ba70c9696f31149324218d75cf00afe836c482e6473f38b19e0154f22f54f370bd020e00ee80e1a5099a71652e2ccbcf6a75281e4c70a3e11a0034516f6fe09a043d57f1ff579a303a7ae85314751c77b4eb1a55837604a86e0034516f6fe09a043d57f1ff579a303a7ae85314751c77b4eb1a55837604a86e01","linkReferences":{}},"methodIdentifiers":{"__ERC721A_init(string,string)":"d2f01f19","__EntitlementGated_init(address)":"7adc9cbe","__Membership_init((string,string,uint256,uint256,uint64,address,address,uint256,address),address)":"4c2abfbe","approve(address,uint256)":"095ea7b3","balanceOf(address)":"70a08231","expiresAt(uint256)":"17c95709","getApproved(uint256)":"081812fc","getMembershipCurrency()":"657e45e8","getMembershipDuration()":"8120f0ba","getMembershipFreeAllocation()":"706b8e09","getMembershipImage()":"93b13cb7","getMembershipLimit()":"95d600c8","getMembershipPrice()":"1278076a","getMembershipPricingModule()":"e847abdd","getMembershipRenewalPrice(uint256)":"5803909f","getRuleData(bytes32,uint256)":"92c399ff","getSpaceFactory()":"79dda585","isApprovedForAll(address,address)":"e985e9c5","joinSpace(address)":"8c625b06","name()":"06fdde03","ownerOf(uint256)":"6352211e","postEntitlementCheckResult(bytes32,uint256,uint8)":"4739e805","renewMembership(uint256)":"7c9669ac","safeTransferFrom(address,address,uint256)":"42842e0e","safeTransferFrom(address,address,uint256,bytes)":"b88d4fde","setApprovalForAll(address,bool)":"a22cb465","setMembershipFreeAllocation(uint256)":"5becd24a","setMembershipImage(string)":"0ef1be5f","setMembershipLimit(uint256)":"97fb7c1e","setMembershipPrice(uint256)":"69d5f38a","setMembershipPricingModule(address)":"df9a9fe6","symbol()":"95d89b41","tokenURI(uint256)":"c87b56dd","totalSupply()":"18160ddd","transferFrom(address,address,uint256)":"23b872dd","withdraw(address)":"51cff8d9"},"id":246}