{"abi":[{"type":"function","name":"expiresAt","inputs":[{"name":"tokenId","type":"uint256","internalType":"uint256"}],"outputs":[{"name":"","type":"uint256","internalType":"uint256"}],"stateMutability":"view"},{"type":"function","name":"getMembershipCurrency","inputs":[],"outputs":[{"name":"","type":"address","internalType":"address"}],"stateMutability":"view"},{"type":"function","name":"getMembershipDuration","inputs":[],"outputs":[{"name":"","type":"uint64","internalType":"uint64"}],"stateMutability":"view"},{"type":"function","name":"getMembershipFreeAllocation","inputs":[],"outputs":[{"name":"","type":"uint256","internalType":"uint256"}],"stateMutability":"view"},{"type":"function","name":"getMembershipImage","inputs":[],"outputs":[{"name":"","type":"string","internalType":"string"}],"stateMutability":"view"},{"type":"function","name":"getMembershipLimit","inputs":[],"outputs":[{"name":"","type":"uint256","internalType":"uint256"}],"stateMutability":"view"},{"type":"function","name":"getMembershipPrice","inputs":[],"outputs":[{"name":"","type":"uint256","internalType":"uint256"}],"stateMutability":"view"},{"type":"function","name":"getMembershipPricingModule","inputs":[],"outputs":[{"name":"","type":"address","internalType":"address"}],"stateMutability":"view"},{"type":"function","name":"getMembershipRenewalPrice","inputs":[{"name":"tokenId","type":"uint256","internalType":"uint256"}],"outputs":[{"name":"","type":"uint256","internalType":"uint256"}],"stateMutability":"view"},{"type":"function","name":"getProtocolFee","inputs":[],"outputs":[{"name":"","type":"uint256","internalType":"uint256"}],"stateMutability":"view"},{"type":"function","name":"getSpaceFactory","inputs":[],"outputs":[{"name":"","type":"address","internalType":"address"}],"stateMutability":"view"},{"type":"function","name":"joinSpace","inputs":[{"name":"receiver","type":"address","internalType":"address"}],"outputs":[],"stateMutability":"payable"},{"type":"function","name":"joinSpaceWithReferral","inputs":[{"name":"receiver","type":"address","internalType":"address"},{"name":"referral","type":"tuple","internalType":"struct IMembershipBase.ReferralTypes","components":[{"name":"partner","type":"address","internalType":"address"},{"name":"userReferral","type":"address","internalType":"address"},{"name":"referralCode","type":"string","internalType":"string"}]}],"outputs":[],"stateMutability":"payable"},{"type":"function","name":"renewMembership","inputs":[{"name":"tokenId","type":"uint256","internalType":"uint256"}],"outputs":[],"stateMutability":"payable"},{"type":"function","name":"revenue","inputs":[],"outputs":[{"name":"","type":"uint256","internalType":"uint256"}],"stateMutability":"view"},{"type":"function","name":"setMembershipFreeAllocation","inputs":[{"name":"newAllocation","type":"uint256","internalType":"uint256"}],"outputs":[],"stateMutability":"nonpayable"},{"type":"function","name":"setMembershipImage","inputs":[{"name":"newImage","type":"string","internalType":"string"}],"outputs":[],"stateMutability":"nonpayable"},{"type":"function","name":"setMembershipLimit","inputs":[{"name":"newLimit","type":"uint256","internalType":"uint256"}],"outputs":[],"stateMutability":"nonpayable"},{"type":"function","name":"setMembershipPrice","inputs":[{"name":"newPrice","type":"uint256","internalType":"uint256"}],"outputs":[],"stateMutability":"nonpayable"},{"type":"function","name":"setMembershipPricingModule","inputs":[{"name":"pricingModule","type":"address","internalType":"address"}],"outputs":[],"stateMutability":"nonpayable"},{"type":"function","name":"withdraw","inputs":[{"name":"account","type":"address","internalType":"address"}],"outputs":[],"stateMutability":"nonpayable"},{"type":"event","name":"Approval","inputs":[{"name":"owner","type":"address","indexed":true,"internalType":"address"},{"name":"approved","type":"address","indexed":true,"internalType":"address"},{"name":"tokenId","type":"uint256","indexed":true,"internalType":"uint256"}],"anonymous":false},{"type":"event","name":"ApprovalForAll","inputs":[{"name":"owner","type":"address","indexed":true,"internalType":"address"},{"name":"operator","type":"address","indexed":true,"internalType":"address"},{"name":"approved","type":"bool","indexed":false,"internalType":"bool"}],"anonymous":false},{"type":"event","name":"Banned","inputs":[{"name":"moderator","type":"address","indexed":true,"internalType":"address"},{"name":"tokenId","type":"uint256","indexed":true,"internalType":"uint256"}],"anonymous":false},{"type":"event","name":"ConsecutiveTransfer","inputs":[{"name":"fromTokenId","type":"uint256","indexed":true,"internalType":"uint256"},{"name":"toTokenId","type":"uint256","indexed":false,"internalType":"uint256"},{"name":"from","type":"address","indexed":true,"internalType":"address"},{"name":"to","type":"address","indexed":true,"internalType":"address"}],"anonymous":false},{"type":"event","name":"DefaultBpsFeeUpdated","inputs":[{"name":"defaultBpsFee","type":"uint256","indexed":false,"internalType":"uint256"}],"anonymous":false},{"type":"event","name":"EntitlementCheckResultPosted","inputs":[{"name":"transactionId","type":"bytes32","indexed":true,"internalType":"bytes32"},{"name":"result","type":"uint8","indexed":false,"internalType":"enum IEntitlementGatedBase.NodeVoteStatus"}],"anonymous":false},{"type":"event","name":"Initialized","inputs":[{"name":"version","type":"uint32","indexed":false,"internalType":"uint32"}],"anonymous":false},{"type":"event","name":"InterfaceAdded","inputs":[{"name":"interfaceId","type":"bytes4","indexed":true,"internalType":"bytes4"}],"anonymous":false},{"type":"event","name":"InterfaceRemoved","inputs":[{"name":"interfaceId","type":"bytes4","indexed":true,"internalType":"bytes4"}],"anonymous":false},{"type":"event","name":"MaxBpsFeeUpdated","inputs":[{"name":"maxBpsFee","type":"uint256","indexed":false,"internalType":"uint256"}],"anonymous":false},{"type":"event","name":"MaxPartnerFeeSet","inputs":[{"name":"fee","type":"uint256","indexed":false,"internalType":"uint256"}],"anonymous":false},{"type":"event","name":"MembershipCurrencyUpdated","inputs":[{"name":"currency","type":"address","indexed":true,"internalType":"address"}],"anonymous":false},{"type":"event","name":"MembershipFeeRecipientUpdated","inputs":[{"name":"recipient","type":"address","indexed":true,"internalType":"address"}],"anonymous":false},{"type":"event","name":"MembershipFreeAllocationUpdated","inputs":[{"name":"allocation","type":"uint256","indexed":true,"internalType":"uint256"}],"anonymous":false},{"type":"event","name":"MembershipLimitUpdated","inputs":[{"name":"limit","type":"uint256","indexed":true,"internalType":"uint256"}],"anonymous":false},{"type":"event","name":"MembershipPriceUpdated","inputs":[{"name":"price","type":"uint256","indexed":true,"internalType":"uint256"}],"anonymous":false},{"type":"event","name":"MembershipTokenIssued","inputs":[{"name":"recipient","type":"address","indexed":true,"internalType":"address"},{"name":"tokenId","type":"uint256","indexed":true,"internalType":"uint256"}],"anonymous":false},{"type":"event","name":"MembershipTokenRejected","inputs":[{"name":"recipient","type":"address","indexed":true,"internalType":"address"}],"anonymous":false},{"type":"event","name":"MembershipWithdrawal","inputs":[{"name":"recipient","type":"address","indexed":true,"internalType":"address"},{"name":"amount","type":"uint256","indexed":false,"internalType":"uint256"}],"anonymous":false},{"type":"event","name":"OwnershipTransferred","inputs":[{"name":"previousOwner","type":"address","indexed":true,"internalType":"address"},{"name":"newOwner","type":"address","indexed":true,"internalType":"address"}],"anonymous":false},{"type":"event","name":"PartnerRegistered","inputs":[{"name":"account","type":"address","indexed":true,"internalType":"address"}],"anonymous":false},{"type":"event","name":"PartnerRemoved","inputs":[{"name":"account","type":"address","indexed":true,"internalType":"address"}],"anonymous":false},{"type":"event","name":"PartnerUpdated","inputs":[{"name":"account","type":"address","indexed":true,"internalType":"address"}],"anonymous":false},{"type":"event","name":"Paused","inputs":[{"name":"account","type":"address","indexed":false,"internalType":"address"}],"anonymous":false},{"type":"event","name":"PermissionsAddedToChannelRole","inputs":[{"name":"updater","type":"address","indexed":true,"internalType":"address"},{"name":"roleId","type":"uint256","indexed":true,"internalType":"uint256"},{"name":"channelId","type":"bytes32","indexed":true,"internalType":"bytes32"}],"anonymous":false},{"type":"event","name":"PermissionsRemovedFromChannelRole","inputs":[{"name":"updater","type":"address","indexed":true,"internalType":"address"},{"name":"roleId","type":"uint256","indexed":true,"internalType":"uint256"},{"name":"channelId","type":"bytes32","indexed":true,"internalType":"bytes32"}],"anonymous":false},{"type":"event","name":"PermissionsUpdatedForChannelRole","inputs":[{"name":"updater","type":"address","indexed":true,"internalType":"address"},{"name":"roleId","type":"uint256","indexed":true,"internalType":"uint256"},{"name":"channelId","type":"bytes32","indexed":true,"internalType":"bytes32"}],"anonymous":false},{"type":"event","name":"Prepay__Prepaid","inputs":[{"name":"supply","type":"uint256","indexed":false,"internalType":"uint256"}],"anonymous":false},{"type":"event","name":"ReferralRegistered","inputs":[{"name":"referralCode","type":"bytes32","indexed":false,"internalType":"bytes32"},{"name":"basisPoints","type":"uint256","indexed":false,"internalType":"uint256"},{"name":"recipient","type":"address","indexed":false,"internalType":"address"}],"anonymous":false},{"type":"event","name":"ReferralRemoved","inputs":[{"name":"referralCode","type":"bytes32","indexed":false,"internalType":"bytes32"}],"anonymous":false},{"type":"event","name":"ReferralUpdated","inputs":[{"name":"referralCode","type":"bytes32","indexed":false,"internalType":"bytes32"},{"name":"basisPoints","type":"uint256","indexed":false,"internalType":"uint256"},{"name":"recipient","type":"address","indexed":false,"internalType":"address"}],"anonymous":false},{"type":"event","name":"RegistryFeeSet","inputs":[{"name":"fee","type":"uint256","indexed":false,"internalType":"uint256"}],"anonymous":false},{"type":"event","name":"RoleCreated","inputs":[{"name":"creator","type":"address","indexed":true,"internalType":"address"},{"name":"roleId","type":"uint256","indexed":true,"internalType":"uint256"}],"anonymous":false},{"type":"event","name":"RoleRemoved","inputs":[{"name":"remover","type":"address","indexed":true,"internalType":"address"},{"name":"roleId","type":"uint256","indexed":true,"internalType":"uint256"}],"anonymous":false},{"type":"event","name":"RoleUpdated","inputs":[{"name":"updater","type":"address","indexed":true,"internalType":"address"},{"name":"roleId","type":"uint256","indexed":true,"internalType":"uint256"}],"anonymous":false},{"type":"event","name":"SubscriptionUpdate","inputs":[{"name":"tokenId","type":"uint256","indexed":true,"internalType":"uint256"},{"name":"expiration","type":"uint64","indexed":false,"internalType":"uint64"}],"anonymous":false},{"type":"event","name":"Transfer","inputs":[{"name":"from","type":"address","indexed":true,"internalType":"address"},{"name":"to","type":"address","indexed":true,"internalType":"address"},{"name":"tokenId","type":"uint256","indexed":true,"internalType":"uint256"}],"anonymous":false},{"type":"event","name":"Unbanned","inputs":[{"name":"moderator","type":"address","indexed":true,"internalType":"address"},{"name":"tokenId","type":"uint256","indexed":true,"internalType":"uint256"}],"anonymous":false},{"type":"event","name":"Unpaused","inputs":[{"name":"account","type":"address","indexed":false,"internalType":"address"}],"anonymous":false},{"type":"error","name":"ApprovalCallerNotOwnerNorApproved","inputs":[]},{"type":"error","name":"ApprovalQueryForNonexistentToken","inputs":[]},{"type":"error","name":"BalanceQueryForZeroAddress","inputs":[]},{"type":"error","name":"Banning__AlreadyBanned","inputs":[{"name":"tokenId","type":"uint256","internalType":"uint256"}]},{"type":"error","name":"Banning__CannotBanOwner","inputs":[]},{"type":"error","name":"Banning__CannotBanSelf","inputs":[]},{"type":"error","name":"Banning__InvalidTokenId","inputs":[{"name":"tokenId","type":"uint256","internalType":"uint256"}]},{"type":"error","name":"Banning__NotBanned","inputs":[{"name":"tokenId","type":"uint256","internalType":"uint256"}]},{"type":"error","name":"Dispatcher__InvalidCaller","inputs":[]},{"type":"error","name":"Dispatcher__InvalidValue","inputs":[]},{"type":"error","name":"Dispatcher__TransactionAlreadyExists","inputs":[]},{"type":"error","name":"ERC5643__DurationZero","inputs":[]},{"type":"error","name":"ERC5643__InvalidTokenId","inputs":[{"name":"tokenId","type":"uint256","internalType":"uint256"}]},{"type":"error","name":"ERC5643__NotApprovedOrOwner","inputs":[]},{"type":"error","name":"ERC5643__SubscriptionNotRenewable","inputs":[{"name":"tokenId","type":"uint256","internalType":"uint256"}]},{"type":"error","name":"EntitlementGated_InvalidAddress","inputs":[]},{"type":"error","name":"EntitlementGated_NodeAlreadyVoted","inputs":[]},{"type":"error","name":"EntitlementGated_NodeNotFound","inputs":[]},{"type":"error","name":"EntitlementGated_TransactionCheckAlreadyCompleted","inputs":[]},{"type":"error","name":"EntitlementGated_TransactionCheckAlreadyRegistered","inputs":[]},{"type":"error","name":"EntitlementGated_TransactionNotRegistered","inputs":[]},{"type":"error","name":"Entitlement__InvalidValue","inputs":[]},{"type":"error","name":"Entitlement__NotAllowed","inputs":[]},{"type":"error","name":"Entitlement__NotMember","inputs":[]},{"type":"error","name":"Entitlement__ValueAlreadyExists","inputs":[]},{"type":"error","name":"Initializable_InInitializingState","inputs":[]},{"type":"error","name":"Introspection_AlreadySupported","inputs":[]},{"type":"error","name":"Introspection_NotSupported","inputs":[]},{"type":"error","name":"Membership__AlreadyMember","inputs":[]},{"type":"error","name":"Membership__Banned","inputs":[]},{"type":"error","name":"Membership__InsufficientAllowance","inputs":[]},{"type":"error","name":"Membership__InsufficientPayment","inputs":[]},{"type":"error","name":"Membership__InvalidAddress","inputs":[]},{"type":"error","name":"Membership__InvalidCurrency","inputs":[]},{"type":"error","name":"Membership__InvalidDuration","inputs":[]},{"type":"error","name":"Membership__InvalidFeeRecipient","inputs":[]},{"type":"error","name":"Membership__InvalidFreeAllocation","inputs":[]},{"type":"error","name":"Membership__InvalidLimit","inputs":[]},{"type":"error","name":"Membership__InvalidMaxSupply","inputs":[]},{"type":"error","name":"Membership__InvalidPayment","inputs":[]},{"type":"error","name":"Membership__InvalidPrice","inputs":[]},{"type":"error","name":"Membership__InvalidPricingModule","inputs":[]},{"type":"error","name":"Membership__InvalidTokenId","inputs":[]},{"type":"error","name":"Membership__InvalidTransactionType","inputs":[]},{"type":"error","name":"Membership__MaxSupplyReached","inputs":[]},{"type":"error","name":"Membership__NotExpired","inputs":[]},{"type":"error","name":"Membership__PriceTooLow","inputs":[]},{"type":"error","name":"MintERC2309QuantityExceedsLimit","inputs":[]},{"type":"error","name":"MintToZeroAddress","inputs":[]},{"type":"error","name":"MintZeroQuantity","inputs":[]},{"type":"error","name":"Ownable__NotOwner","inputs":[{"name":"account","type":"address","internalType":"address"}]},{"type":"error","name":"Ownable__ZeroAddress","inputs":[]},{"type":"error","name":"OwnerQueryForNonexistentToken","inputs":[]},{"type":"error","name":"OwnershipNotInitializedForExtraData","inputs":[]},{"type":"error","name":"PartnerRegistry__InvalidPartnerFee","inputs":[{"name":"fee","type":"uint256","internalType":"uint256"}]},{"type":"error","name":"PartnerRegistry__InvalidRecipient","inputs":[]},{"type":"error","name":"PartnerRegistry__NotPartnerAccount","inputs":[{"name":"account","type":"address","internalType":"address"}]},{"type":"error","name":"PartnerRegistry__PartnerAlreadyRegistered","inputs":[{"name":"account","type":"address","internalType":"address"}]},{"type":"error","name":"PartnerRegistry__PartnerNotActive","inputs":[{"name":"account","type":"address","internalType":"address"}]},{"type":"error","name":"PartnerRegistry__PartnerNotRegistered","inputs":[{"name":"account","type":"address","internalType":"address"}]},{"type":"error","name":"PartnerRegistry__RegistryFeeNotPaid","inputs":[{"name":"fee","type":"uint256","internalType":"uint256"}]},{"type":"error","name":"Pausable__NotPaused","inputs":[]},{"type":"error","name":"Pausable__Paused","inputs":[]},{"type":"error","name":"Prepay__InvalidAddress","inputs":[]},{"type":"error","name":"Prepay__InvalidAmount","inputs":[]},{"type":"error","name":"Prepay__InvalidMembership","inputs":[]},{"type":"error","name":"Prepay__InvalidSupplyAmount","inputs":[]},{"type":"error","name":"Reentrancy","inputs":[]},{"type":"error","name":"Referrals__InvalidBasisPoints","inputs":[]},{"type":"error","name":"Referrals__InvalidBpsFee","inputs":[]},{"type":"error","name":"Referrals__InvalidRecipient","inputs":[]},{"type":"error","name":"Referrals__InvalidReferralCode","inputs":[]},{"type":"error","name":"Referrals__ReferralAlreadyExists","inputs":[]},{"type":"error","name":"Roles__EntitlementAlreadyExists","inputs":[]},{"type":"error","name":"Roles__EntitlementDoesNotExist","inputs":[]},{"type":"error","name":"Roles__InvalidEntitlementAddress","inputs":[]},{"type":"error","name":"Roles__InvalidPermission","inputs":[]},{"type":"error","name":"Roles__PermissionAlreadyExists","inputs":[]},{"type":"error","name":"Roles__PermissionDoesNotExist","inputs":[]},{"type":"error","name":"Roles__RoleDoesNotExist","inputs":[]},{"type":"error","name":"TransferCallerNotOwnerNorApproved","inputs":[]},{"type":"error","name":"TransferFromIncorrectOwner","inputs":[]},{"type":"error","name":"TransferToNonERC721ReceiverImplementer","inputs":[]},{"type":"error","name":"TransferToZeroAddress","inputs":[]},{"type":"error","name":"URIQueryForNonexistentToken","inputs":[]}],"bytecode":{"object":"0x60806040523480156200001157600080fd5b506200001c62000022565b620000ca565b7f59b501c3653afc186af7d48dda36cf6732bd21629a6295693664240a6ef520008054640100000000900460ff16156200006f576040516366008a2d60e01b815260040160405180910390fd5b805463ffffffff9081161015620000c757805463ffffffff191663ffffffff90811782556040519081527fe9c9b456cb2994b80aeef036cf59d26e9617df80f816a6ee5a5b4166e07e2f5c9060200160405180910390a15b50565b61412080620000da6000396000f3fe60806040526004361061012a5760003560e01c8063706b8e09116100ab57806393b13cb71161006f57806393b13cb71461032057806395d600c81461034257806397fb7c1e14610357578063a5a4103114610377578063df9a9fe61461038c578063e847abdd146103ac57600080fd5b8063706b8e09146102a357806379dda585146102b85780637c9669ac146102cd5780638120f0ba146102e05780638c625b061461030d57600080fd5b80635803909f116100f25780635803909f146102035780635becd24a14610223578063657e45e814610243578063686f76841461027057806369d5f38a1461028357600080fd5b80630ef1be5f1461012f5780631278076a1461015157806317c95709146101795780633e9491a2146101ce57806351cff8d9146101e3575b600080fd5b34801561013b57600080fd5b5061014f61014a366004613686565b6103c1565b005b34801561015d57600080fd5b50610166610444565b6040519081526020015b60405180910390f35b34801561018557600080fd5b506101666101943660046136f7565b60009081527f4775a23600034fdd9f073b224f794d51a58b35ba663a9602623ba7a5c09cce0060205260409020546001600160401b031690565b3480156101da57600080fd5b5061016661045b565b3480156101ef57600080fd5b5061014f6101fe366004613725565b610485565b34801561020f57600080fd5b5061016661021e3660046136f7565b610599565b34801561022f57600080fd5b5061014f61023e3660046136f7565b6105b2565b34801561024f57600080fd5b5061025861063c565b6040516001600160a01b039091168152602001610170565b61014f61027e3660046137d7565b610646565b34801561028f57600080fd5b5061014f61029e3660046136f7565b61068b565b3480156102af57600080fd5b50610166610739565b3480156102c457600080fd5b50610258610743565b61014f6102db3660046136f7565b61074d565b3480156102ec57600080fd5b506102f5610874565b6040516001600160401b039091168152602001610170565b61014f61031b366004613725565b61087e565b34801561032c57600080fd5b506103356108cf565b6040516101709190613911565b34801561034e57600080fd5b506101666108d9565b34801561036357600080fd5b5061014f6103723660046136f7565b6108f1565b34801561038357600080fd5b50610166610956565b34801561039857600080fd5b5061014f6103a7366004613725565b61096b565b3480156103b857600080fd5b506102586109ec565b6103c96109f6565b6001600160a01b0316336001600160a01b031614610401576040516365f4906560e01b81523360048201526024015b60405180910390fd5b61044082828080601f016020809104026020016040519081016040528093929190818152602001838380828437600092019190915250610a9392505050565b5050565b6000610456610451610abe565b610af4565b905090565b60006104567fc21004fcc619240a31f006438274d15cd813308303284436eef6055f0fdcb60a5490565b61048d6109f6565b6001600160a01b0316336001600160a01b0316146104c0576040516365f4906560e01b81523360048201526024016103f8565b3068929eee149b4bd2126854036104df5763ab143c066000526004601cfd5b3068929eee149b4bd21268556001600160a01b03811661050957610509635fbd571760e01b610c74565b60006105337fc21004fcc619240a31f006438274d15cd813308303284436eef6055f0fdcb60a5490565b90508060000361054d5761054d635894b54560e11b610c74565b61057660007fc21004fcc619240a31f006438274d15cd813308303284436eef6055f0fdcb60a55565b610589610581610c7e565b308484610cac565b503868929eee149b4bd212685550565b60006105ac826105a7610abe565b610cf8565b92915050565b6105ba6109f6565b6001600160a01b0316336001600160a01b0316146105ed576040516365f4906560e01b81523360048201526024016103f8565b60006106056000805160206140e08339815191525490565b9050801580159061061557508082115b1561062a5761062a63c3983b9160e01b610c74565b61063382610d57565b61044082610dd7565b6000610456610c7e565b3068929eee149b4bd2126854036106655763ab143c066000526004601cfd5b3068929eee149b4bd212685561067b8282610e66565b3868929eee149b4bd21268555050565b6106936109f6565b6001600160a01b0316336001600160a01b0316146106c6576040516365f4906560e01b81523360048201526024016103f8565b6106cf81610fcb565b6106d7611050565b6001600160a01b03166391b7f5ed826040518263ffffffff1660e01b815260040161070491815260200190565b600060405180830381600087803b15801561071e57600080fd5b505af1158015610732573d6000803e3d6000fd5b5050505050565b600061045661107e565b600061045661112d565b3068929eee149b4bd21268540361076c5763ab143c066000526004601cfd5b3068929eee149b4bd212685560006107838261115b565b90506001600160a01b0381166107a3576107a3635fbd571760e01b610c74565b60008281527f4775a23600034fdd9f073b224f794d51a58b35ba663a9602623ba7a5c09cce0060205260409020546001600160401b03166107e2611166565b6001600160401b03166107f5428361393a565b1061080a5761080a63dce9a1d360e01b610c74565b6000610818846105a7610abe565b9050801561085157600061082c84836111d1565b9050600061083a828461393a565b9050801561084e5761084c858261126a565b505b50505b6108628461085d611166565b611353565b5050503868929eee149b4bd212685550565b6000610456611166565b3068929eee149b4bd21268540361089d5763ab143c066000526004601cfd5b3068929eee149b4bd2126855604080516060808201835260008083526020830152918101919091526105898282610e66565b606061045661141c565b60006104566000805160206140e08339815191525490565b6108f96109f6565b6001600160a01b0316336001600160a01b03161461092c576040516365f4906560e01b81523360048201526024016103f8565b61093d81610938610abe565b6114be565b610953816000805160206140e083398151915255565b50565b6000610456610966610451610abe565b6114d6565b6109736109f6565b6001600160a01b0316336001600160a01b0316146109a6576040516365f4906560e01b81523360048201526024016103f8565b6109af8161162e565b7fc21004fcc619240a31f006438274d15cd813308303284436eef6055f0fdcb60880546001600160a01b0319166001600160a01b03831617905550565b6000610456611050565b6000807fd2f24d4f172e4e84e48e7c4125b6e904c29e5eba33ad4938fee51dd5dbd4b600805460018201546040516331a9108f60e11b815260048101919091529192506001600160a01b031690636352211e90602401602060405180830381865afa158015610a69573d6000803e3d6000fd5b505050506040513d601f19601f82011682018060405250810190610a8d919061394d565b91505090565b7fc21004fcc619240a31f006438274d15cd813308303284436eef6055f0fdcb60c61044082826139ee565b7f6569bde4a160c636ea8b8d11acb83a60d7fec0b8f2e09389306cba0e1340df0154600080516020614080833981519152540390565b600080610aff61107e565b90506000610b0b611050565b604051635cf4ee9160e01b815260048101849052602481018690526001600160a01b039190911690635cf4ee9190604401602060405180830381865afa158015610b59573d6000803e3d6000fd5b505050506040513d601f19601f82011682018060405250810190610b7d9190613aad565b90506000610b89610743565b90506000816001600160a01b0316631b159e2e6040518163ffffffff1660e01b8152600401602060405180830381865afa158015610bcb573d6000803e3d6000fd5b505050506040513d601f19601f82011682018060405250810190610bef9190613aad565b90506000826001600160a01b0316630eac306d6040518163ffffffff1660e01b8152600401602060405180830381865afa158015610c31573d6000803e3d6000fd5b505050506040513d601f19601f82011682018060405250810190610c559190613aad565b905081841015610c69579695505050505050565b509195945050505050565b8060005260046000fd5b7fc21004fcc619240a31f006438274d15cd813308303284436eef6055f0fdcb604546001600160a01b031690565b8015610cf25773eeeeeeeeeeeeeeeeeeeeeeeeeeeeeeeeeeeeeeed196001600160a01b03851601610ce657610ce182826116d4565b610cf2565b610cf2848484846116e7565b50505050565b60008281527fc21004fcc619240a31f006438274d15cd813308303284436eef6055f0fdcb6096020526040812054600080516020614100833981519152908015610d455791506105ac9050565b610d4e84610af4565b95945050505050565b610d5f610743565b6001600160a01b0316632cbb9d136040518163ffffffff1660e01b8152600401602060405180830381865afa158015610d9c573d6000803e3d6000fd5b505050506040513d601f19601f82011682018060405250810190610dc09190613aad565b8111156109535761095363c3983b9160e01b610c74565b7fc21004fcc619240a31f006438274d15cd813308303284436eef6055f0fdcb6078190557fc21004fcc619240a31f006438274d15cd813308303284436eef6055f0fdcb60d805460ff191660011790556040516000805160206141008339815191529082907fab14a23e88fb272313490d4f20d63098e64fd38304c0e07a377db98c2b39b92f90600090a25050565b610e6f8261173a565b610e7761179d565b610e8182826117c8565b6000610e8c82611820565b9050600081610eba5782604051602001610ea69190613ac6565b604051602081830303815290604052610ecb565b604051806020016040528060008152505b9050600082610ee157631a1bdda160e21b610eea565b6346312d8360e11b5b90506000610f0386610efe84338a88611857565b61188a565b9050600080610f12888461198a565b9150915080610fc1578115610f69576000610f2b611ba9565b90508015610f50578615610f4757610f4284611c04565b610f5a565b610f4284611cbc565b610f5a8433611dd4565b610f6389611e10565b50610fc1565b610f828360405180602001604052806000815250611ead565b610f8c8333611dd4565b6040516001600160a01b038916907f86fd446d5c04e892d58b448a924dcd9c3ece3a5e0d2960b8c35cd475a5595a1f90600090a25b5050505050505050565b6000610fd5610743565b6001600160a01b0316630eac306d6040518163ffffffff1660e01b8152600401602060405180830381865afa158015611012573d6000803e3d6000fd5b505050506040513d601f19601f820116820180604052508101906110369190613aad565b90508082101561044057610440631a23d64760e11b610c74565b7fc21004fcc619240a31f006438274d15cd813308303284436eef6055f0fdcb608546001600160a01b031690565b7fc21004fcc619240a31f006438274d15cd813308303284436eef6055f0fdcb60d546000906000805160206141008339815191529060ff16156110c45760070154919050565b6110cc610743565b6001600160a01b0316632cbb9d136040518163ffffffff1660e01b8152600401602060405180830381865afa158015611109573d6000803e3d6000fd5b505050506040513d601f19601f82011682018060405250810190610a8d9190613aad565b7fc21004fcc619240a31f006438274d15cd813308303284436eef6055f0fdcb606546001600160a01b031690565b60006105ac82611ef4565b6000611170610743565b6001600160a01b0316638120f0ba6040518163ffffffff1660e01b8152600401602060405180830381865afa1580156111ad573d6000803e3d6000fd5b505050506040513d601f19601f820116820180604052508101906104569190613b01565b6000806111dc610743565b90506000816001600160a01b0316634ccb20c06040518163ffffffff1660e01b8152600401602060405180830381865afa15801561121e573d6000803e3d6000fd5b505050506040513d601f19601f82011682018060405250810190611242919061394d565b905061124d846114d6565b925061126261125a610c7e565b868386610cac565b505092915050565b600060008051602061410083398151915281611284610c7e565b905073eeeeeeeeeeeeeeeeeeeeeeeeeeeeeeeeeeeeeeed196001600160a01b038216016112cf578382600a0160008282546112bf9190613b2a565b909155508493506105ac92505050565b60006112e46001600160a01b03831630611fad565b90506112f282873088610cac565b60006113076001600160a01b03841630611fad565b90506000611315838361393a565b905086811461132e5761132e635894b54560e11b610c74565b8085600a0160008282546113429190613b2a565b909155509098975050505050505050565b60008281527f4775a23600034fdd9f073b224f794d51a58b35ba663a9602623ba7a5c09cce006020819052604082205490916001600160401b03909116908181036113a9576113a28442613b3d565b90506113b6565b6113b38483613b3d565b90505b60008581526020848152604091829020805467ffffffffffffffff19166001600160401b038516908117909155915191825286917f2ec2be2c4b90c2cf13ecb6751a24daed6bb741ae5ed3f7371aabf9402f6d62e8910160405180910390a25050505050565b6060600080516020614100833981519152600c01805461143b9061396a565b80601f01602080910402602001604051908101604052809291908181526020018280546114679061396a565b80156114b45780601f10611489576101008083540402835291602001916114b4565b820191906000526020600020905b81548152906001019060200180831161149757829003601f168201915b5050505050905090565b8082101561044057610440636664d51760e11b610c74565b6000806114e1610743565b90506000816001600160a01b0316631b159e2e6040518163ffffffff1660e01b8152600401602060405180830381865afa158015611523573d6000803e3d6000fd5b505050506040513d601f19601f820116820180604052508101906115479190613aad565b90506000826001600160a01b0316630eac306d6040518163ffffffff1660e01b8152600401602060405180830381865afa158015611589573d6000803e3d6000fd5b505050506040513d601f19601f820116820180604052508101906115ad9190613aad565b9050818510156115bf57949350505050565b610d4e85846001600160a01b0316639f6542aa6040518163ffffffff1660e01b8152600401602060405180830381865afa158015611601573d6000803e3d6000fd5b505050506040513d601f19601f820116820180604052508101906116259190613b64565b61ffff16611fd9565b6001600160a01b03811661164c5761164c630e88bf4b60e01b610c74565b61165461112d565b6040516346fc05eb60e11b81526001600160a01b0383811660048301529190911690638df80bd690602401602060405180830381865afa15801561169c573d6000803e3d6000fd5b505050506040513d601f19601f820116820180604052508101906116c09190613b9d565b61095357610953630e88bf4b60e01b610c74565b6104406001600160a01b03831682612055565b816001600160a01b0316836001600160a01b03160315610cf257306001600160a01b0384160361172557610ce16001600160a01b0385168383612071565b610cf26001600160a01b0385168484846120c1565b6001600160a01b03811661175857611758635fbd571760e01b610c74565b60006117706000805160206140e08339815191525490565b90508015801590611788575080611785610abe565b10155b1561044057610440637efcdb4960e01b610c74565b34156117c65760006117ad61211f565b9050803414610953576109536334a7a93d60e01b610c74565b565b60208101516001600160a01b03161561044057816001600160a01b031681602001516001600160a01b0316148061180b575060208101516001600160a01b031633145b1561044057610440635fbd571760e01b610c74565b80516000906001600160a01b0316158015611846575060208201516001600160a01b0316155b80156105ac57505060400151511590565b6060848484846040516020016118709493929190613bb8565b60405160208183030381529060405290505b949350505050565b6040516bffffffffffffffffffffffff19606084901b1660208201524360348201526000908190605401604051602081830303815290604052805190602001209050600061194c8261192084886118e087612176565b604080516020808201959095526001600160a01b039390931683820152606080840192909252805180840390920182526080909201909152805191012090565b604080516020808201949094528082019290925280518083038201815260609092019052805191012090565b90506000611959826121ab565b5111156119705761197063f82e65c360e01b610c74565b61197a8185611ead565b341561188257611882813461227c565b60008060006119b9604051806040016040528060098152602001684a6f696e537061636560b81b8152506122f0565b905060006119c686612492565b825190915060005b81811015611b9d5760008482815181106119ea576119ea613bfe565b60200260200101519050806040015115611a045750611b95565b60005b816080015151811015611b9257600082608001518281518110611a2c57611a2c613bfe565b60200260200101519050806001600160a01b0316630cf0b5336000801b88604051806040016040528060098152602001684a6f696e537061636560b81b815250604051602001611a7c9190613c14565b604051602081830303815290604052611a9490613c30565b6040518463ffffffff1660e01b8152600401611ab293929190613c99565b602060405180830381865afa158015611acf573d6000803e3d6000fd5b505050506040513d601f19601f82011682018060405250810190611af39190613b9d565b15611b0d57506001975060009650611ba295505050505050565b806001600160a01b0316632e1b61e46040518163ffffffff1660e01b8152600401602060405180830381865afa158015611b4b573d6000803e3d6000fd5b505050506040513d601f19601f82011682018060405250810190611b6f9190613b9d565b15611b8957611b848b8b838660000151612701565b600197505b50600101611a07565b50505b6001016119ce565b505050505b9250929050565b600080611bb4610abe565b90506000611bc061107e565b90506000611bcc6129ee565b905082821115611be0576000935050505090565b8015611bfa57611bf06001612a18565b6000935050505090565b6001935050505090565b60008181526000805160206140c0833981519152602052604081205490819003611c3857611c38635894b54560e11b610c74565b6000806000611c46856121ab565b806020019051810190611c599190613d0a565b50919450925090506001600160e01b031983166346312d8360e11b14611c8957611c8963da6153bd60e01b610c74565b6000611c9583866111d1565b90506000611ca3828761393a565b9050611cb3878585898587612a56565b50505050505050565b60008181526000805160206140c0833981519152602052604081205490819003611cf057611cf0635894b54560e11b610c74565b600080600080611cff866121ab565b806020019051810190611d129190613d0a565b929650909450925090506001600160e01b03198416631a1bdda160e21b14611d4457611d4463da6153bd60e01b610c74565b600081806020019051810190611d5a9190613d92565b90506000611d6885886111d1565b90506000611d7b8684600001518a612c89565b90506000611d9387856020015186604001518c612d5e565b905060008183611da3868d61393a565b611dad919061393a565b611db7919061393a565b9050611dc78b89898d8589612a56565b5050505050505050505050565b60008281526000805160206140c083398151915260205260409020548015611e0b57611e008382612e45565b611e0b610581610c7e565b505050565b6000611e1a612e80565b9050611e5c81611e2b610451610abe565b60009182527fc21004fcc619240a31f006438274d15cd813308303284436eef6055f0fdcb609602052604090912055565b611e67826001612e96565b611e738161085d611166565b60405181906001600160a01b038416907f2f40b0474996b72a4251e00fb9170cdd960deea1dc749772cbbab61395b9b57690600090a35050565b60008281527f34516f6fe09a043d57f1ff579a303a7ae85314751c77b4eb1a55837604a86e02602052604090206000805160206140a083398151915290610cf283826139ee565b60008181527f6569bde4a160c636ea8b8d11acb83a60d7fec0b8f2e09389306cba0e1340df0460205260408120549060008051602061408083398151915290600160e01b83169003611f935781600003611f8d5780548310611f6957604051636f96cda160e11b815260040160405180910390fd5b5b600019909201600081815260048401602052604090205490929091508115611f6a575b50919050565b50604051636f96cda160e11b815260040160405180910390fd5b6000816014526370a0823160601b60005260208060246010865afa601f3d111660205102905092915050565b60006127108211156120375760405162461bcd60e51b815260206004820152602160248201527f426173697320706f696e74732063616e6e6f74206578636565642031305f30306044820152600360fc1b60648201526084016103f8565b6127106120448385613e3b565b61204e9190613e52565b9392505050565b60003860003884865af16104405763b12d13eb6000526004601cfd5b816014528060345263a9059cbb60601b60005260206000604460106000875af180600160005114166120b657803d853b1517106120b6576390b8ec186000526004601cfd5b506000603452505050565b60405181606052826040528360601b602c526323b872dd60601b600c52602060006064601c6000895af1806001600051141661211057803d873b15171061211057637939f4246000526004601cfd5b50600060605260405250505050565b60008061212a6129ee565b9050801561213a57600091505090565b6000612147610451610abe565b90508060000361215a5760009250505090565b6000612165826114d6565b828118908310029091189392505050565b60008181526000805160206140a0833981519152602081905260408220805490836121a083613e74565b909155509392505050565b60008181527f34516f6fe09a043d57f1ff579a303a7ae85314751c77b4eb1a55837604a86e026020526040902080546060916000805160206140a0833981519152916121f69061396a565b80601f01602080910402602001604051908101604052809291908181526020018280546122229061396a565b801561226f5780601f106122445761010080835404028352916020019161226f565b820191906000526020600020905b81548152906001019060200180831161225257829003601f168201915b5050505050915050919050565b806000036122945761229463acdc0d4960e01b610c74565b8034146122ab576122ab63acdc0d4960e01b610c74565b60008281526000805160206140c08339815191526020526040812080546000805160206140a0833981519152928492916122e6908490613b2a565b9091555050505050565b606060006122fc612eb0565b80519091506000816001600160401b0381111561231b5761231b613742565b60405190808252806020026020018201604052801561238057816020015b61236d6040518060a00160405280600081526020016060815260200160001515815260200160608152602001606081525090565b8152602001906001900390816123395790505b5085516020870120909150600090815b84811015612486576000806000806123c08a86815181106123b3576123b3613bfe565b6020026020010151612edb565b935093509350935060005b825181101561247557868382815181106123e7576123e7613bfe565b6020026020010151805190602001200361246d576040518060a001604052808c888151811061241857612418613bfe565b6020026020010151815260200186815260200185151581526020018481526020018381525089898151811061244f5761244f613bfe565b6020026020010181905250878061246590613e74565b985050612475565b6001016123cb565b505060019093019250612390915050565b50508152949350505050565b606060006000805160206141008339815191526006015460405162468b7360e31b81526001600160a01b038581166004830152909116915060009082906302345b9890602401600060405180830381865afa1580156124f5573d6000803e3d6000fd5b505050506040513d6000823e601f3d908101601f1916820160405261251d9190810190613e8d565b604051631f04207360e31b81526001600160a01b03868116600483015291925060009184169063f821039890602401602060405180830381865afa158015612569573d6000803e3d6000fd5b505050506040513d601f19601f8201168201806040525081019061258d919061394d565b9050815160001480156125a857506001600160a01b03811615155b156126225760405162468b7360e31b81526001600160a01b03808316600483015291955085918416906302345b9890602401600060405180830381865afa1580156125f7573d6000803e3d6000fd5b505050506040513d6000823e601f3d908101601f1916820160405261261f9190810190613e8d565b91505b81516000612631826001613b2a565b6001600160401b0381111561264857612648613742565b604051908082528060200260200182016040528015612671578160200160208202803683370190505b50905060005b828110156126cb5784818151811061269157612691613bfe565b60200260200101518282815181106126ab576126ab613bfe565b6001600160a01b0390921660209283029190910190910152600101612677565b50868183815181106126df576126df613bfe565b6001600160a01b03909216602092830291909101909101529695505050505050565b60008381527f9075c515a635ba70c9696f31149324218d75cf00afe836c482e6473f38b19e016020526040902080547f9075c515a635ba70c9696f31149324218d75cf00afe836c482e6473f38b19e00919060ff16156127b557600481015460005b818110156127b2578483600401828154811061278157612781613bfe565b9060005260206000200154036127aa576040516301ab53df60e31b815260040160405180910390fd5b600101612763565b50505b81546001600160a01b03166127cc576127cc612ffd565b8154604051634f84544560e01b8152600560048201526000916001600160a01b031690634f84544590602401600060405180830381865afa158015612815573d6000803e3d6000fd5b505050506040513d6000823e601f3d908101601f1916820160405261283d9190810190613e8d565b825490915060ff166128885781546003830180546001600160a01b038089166001600160a01b0319909216919091179091558816610100026001600160a81b03199091161760011782555b600482018054600181810183556000928352602080842090920187905583518784529085019091526040822090915b8281101561297b578160405180604001604052808684815181106128dd576128dd613bfe565b60200260200101516001600160a01b031681526020016000600281111561290657612906613f3e565b9052815460018101835560009283526020928390208251910180546001600160a01b031981166001600160a01b03909316928317825593830151929390929183916001600160a81b03191617600160a01b83600281111561296957612969613f3e565b021790555050508060010190506128b7565b50845460405163541da4e560e01b81526001600160a01b039091169063541da4e5906129b1908c908c908b908990600401613f54565b600060405180830381600087803b1580156129cb57600080fd5b505af11580156129df573d6000803e3d6000fd5b50505050505050505050505050565b60007f097b4f25b64e012d0cf55f67e9b34fe5d57f15b11b95baa4ddd136b424967c005b54919050565b7f097b4f25b64e012d0cf55f67e9b34fe5d57f15b11b95baa4ddd136b424967c00805482908290600090612a4d90849061393a565b90915550505050565b8115612a6857612a66858361126a565b505b612a728684612e45565b612a8b8660405180602001604052806000815250611ead565b6000612a9561112d565b604051628956cd60e71b81526b0526976657241697264726f760a41b60048201526001600160a01b0391909116906344ab668090602401602060405180830381865afa158015612ae9573d6000803e3d6000fd5b505050506040513d601f19601f82011682018060405250810190612b0d919061394d565b90506000816001600160a01b031663dc69fdde600085604051602001612b3591815260200190565b6040516020818303038152906040526040518363ffffffff1660e01b8152600401612b61929190613f81565b602060405180830381865afa158015612b7e573d6000803e3d6000fd5b505050506040513d601f19601f82011682018060405250810190612ba29190613aad565b6040516340c10f1960e01b81526001600160a01b03888116600483015260248201839052919250908316906340c10f1990604401600060405180830381600087803b158015612bf057600080fd5b505af1158015612c04573d6000803e3d6000fd5b50505050816001600160a01b03166340c10f19612c1f6109f6565b6040516001600160e01b031960e084901b1681526001600160a01b03909116600482015260248101849052604401600060405180830381600087803b158015612c6757600080fd5b505af1158015612c7b573d6000803e3d6000fd5b505050505050505050505050565b60006001600160a01b038316612ca15750600061204e565b6000612cab61112d565b604051630b969ea960e31b81526001600160a01b0386811660048301529190911690635cb4f54890602401608060405180830381865afa158015612cf3573d6000803e3d6000fd5b505050506040513d601f19601f82011682018060405250810190612d179190613fb8565b90508060400151600003612d2f57600091505061204e565b612d3d838260400151611fd9565b9150612d56612d4a610c7e565b86836020015185610cac565b509392505050565b60008251600014612dcf576000612d74846130ce565b60408101519091506001600160a01b03161580612d9357506020810151155b15612da2576000915050611882565b612db0838260200151611fd9565b9150612dc9612dbd610c7e565b87836040015185610cac565b50611882565b6001600160a01b0384161561188257846001600160a01b0316846001600160a01b031603612dff57506000611882565b612e3082612e2b7faca21cc4d2a125f3e0ae03aa135d42b2b9177631aca87599d42a68b47e9008015490565b611fd9565b9050611882612e3d610c7e565b868684610cac565b60008281526000805160206140c08339815191526020526040812080546000805160206140a0833981519152928492916122e690849061393a565b6000600080516020614080833981519152612a12565b61044082826040518060200160405280600081525061315f565b60606104567f672ef851d5f92307da037116e23aa9e31af7e1f7e3ca62c4e6d540631df3fd016131df565b60008181527f672ef851d5f92307da037116e23aa9e31af7e1f7e3ca62c4e6d540631df3fd0360205260408120805460609291839182917f672ef851d5f92307da037116e23aa9e31af7e1f7e3ca62c4e6d540631df3fd0091612f3d9061396a565b80601f0160208091040260200160405190810160405280929190818152602001828054612f699061396a565b8015612fb65780601f10612f8b57610100808354040283529160200191612fb6565b820191906000526020600020905b815481529060010190602001808311612f9957829003601f168201915b50505060008981526003850160205260409020600181015493985060ff9093169650612fe89260020191506131ec9050565b9250612ff3866131f7565b9150509193509193565b60007f9075c515a635ba70c9696f31149324218d75cf00afe836c482e6473f38b19e009050600060008051602061410083398151915260060154604051628956cd60e71b81526c29b830b1b2a7b832b930ba37b960991b60048201526001600160a01b03909116906344ab668090602401602060405180830381865afa15801561308b573d6000803e3d6000fd5b505050506040513d601f19601f820116820180604052508101906130af919061394d565b82546001600160a01b0319166001600160a01b03919091161790915550565b6130fb6040518060600160405280606081526020016000815260200160006001600160a01b031681525090565b50805160208083019190912060009081527faca21cc4d2a125f3e0ae03aa135d42b2b9177631aca87599d42a68b47e900802825260409081902081516060810183529384528054928401929092526001909101546001600160a01b03169082015290565b61316983836132d4565b6001600160a01b0383163b15611e0b57600080516020614080833981519152548281035b6131a0600086838060010194508661342a565b6131bd576040516368d2bf6b60e11b815260040160405180910390fd5b81811061318d5781600080516020614080833981519152541461073257600080fd5b6060600061204e83613512565b60606105ac8261356e565b60008181527f672ef851d5f92307da037116e23aa9e31af7e1f7e3ca62c4e6d540631df3fd03602052604081206060916004909101906132368261364b565b90506000816001600160401b0381111561325257613252613742565b60405190808252806020026020018201604052801561327b578160200160208202803683370190505b50905060005b828110156132cb5760006132958583613655565b9050808383815181106132aa576132aa613bfe565b6001600160a01b039092166020928302919091019091015250600101613281565b50949350505050565b6000805160206140808339815191525460008290036133065760405163b562e8dd60e01b815260040160405180910390fd5b6001600160a01b03831660008181527f6569bde4a160c636ea8b8d11acb83a60d7fec0b8f2e09389306cba0e1340df056020908152604080832080546801000000000000000188020190558483527f6569bde4a160c636ea8b8d11acb83a60d7fec0b8f2e09389306cba0e1340df0490915281206001851460e11b4260a01b178317905582840190839083907fddf252ad1be2c89b69c2b068fc378daa952ba7f163c4a11628f55a4df523b3ef8180a4600183015b8181146133f357808360007fddf252ad1be2c89b69c2b068fc378daa952ba7f163c4a11628f55a4df523b3ef600080a46001016133bb565b508160000361341457604051622e076360e81b815260040160405180910390fd5b6000805160206140808339815191525550505050565b604051630a85bd0160e11b81526000906001600160a01b0385169063150b7a029061345f903390899088908890600401614031565b6020604051808303816000875af192505050801561349a575060408051601f3d908101601f1916820190925261349791810190614064565b60015b6134f8573d8080156134c8576040519150601f19603f3d011682016040523d82523d6000602084013e6134cd565b606091505b5080516000036134f0576040516368d2bf6b60e11b815260040160405180910390fd5b805181602001fd5b6001600160e01b031916630a85bd0160e11b149050611882565b60608160000180548060200260200160405190810160405280929190818152602001828054801561356257602002820191906000526020600020905b81548152602001906001019080831161354e575b50505050509050919050565b606081600001805480602002602001604051908101604052809291908181526020016000905b828210156136405783829060005260206000200180546135b39061396a565b80601f01602080910402602001604051908101604052809291908181526020018280546135df9061396a565b801561362c5780601f106136015761010080835404028352916020019161362c565b820191906000526020600020905b81548152906001019060200180831161360f57829003601f168201915b505050505081526020019060010190613594565b505050509050919050565b60006105ac825490565b600061204e8383600082600001828154811061367357613673613bfe565b9060005260206000200154905092915050565b6000806020838503121561369957600080fd5b82356001600160401b03808211156136b057600080fd5b818501915085601f8301126136c457600080fd5b8135818111156136d357600080fd5b8660208285010111156136e557600080fd5b60209290920196919550909350505050565b60006020828403121561370957600080fd5b5035919050565b6001600160a01b038116811461095357600080fd5b60006020828403121561373757600080fd5b813561204e81613710565b634e487b7160e01b600052604160045260246000fd5b604051606081016001600160401b038111828210171561377a5761377a613742565b60405290565b604051601f8201601f191681016001600160401b03811182821017156137a8576137a8613742565b604052919050565b60006001600160401b038211156137c9576137c9613742565b50601f01601f191660200190565b600080604083850312156137ea57600080fd5b82356137f581613710565b91506020838101356001600160401b038082111561381257600080fd5b908501906060828803121561382657600080fd5b61382e613758565b823561383981613710565b81528284013561384881613710565b8185015260408301358281111561385e57600080fd5b80840193505087601f84011261387357600080fd5b82359150613888613883836137b0565b613780565b828152888584860101111561389c57600080fd5b8285850186830137600085848301015280604083015250809450505050509250929050565b60005b838110156138dc5781810151838201526020016138c4565b50506000910152565b600081518084526138fd8160208601602086016138c1565b601f01601f19169290920160200192915050565b60208152600061204e60208301846138e5565b634e487b7160e01b600052601160045260246000fd5b818103818111156105ac576105ac613924565b60006020828403121561395f57600080fd5b815161204e81613710565b600181811c9082168061397e57607f821691505b602082108103611f8d57634e487b7160e01b600052602260045260246000fd5b601f821115611e0b576000816000526020600020601f850160051c810160208610156139c75750805b601f850160051c820191505b818110156139e6578281556001016139d3565b505050505050565b81516001600160401b03811115613a0757613a07613742565b613a1b81613a15845461396a565b8461399e565b602080601f831160018114613a505760008415613a385750858301515b600019600386901b1c1916600185901b1785556139e6565b600085815260208120601f198616915b82811015613a7f57888601518255948401946001909101908401613a60565b5085821015613a9d5787850151600019600388901b60f8161c191681555b5050505050600190811b01905550565b600060208284031215613abf57600080fd5b5051919050565b60208152600060018060a01b0380845116602084015280602085015116604084015250604083015160608084015261188260808401826138e5565b600060208284031215613b1357600080fd5b81516001600160401b038116811461204e57600080fd5b808201808211156105ac576105ac613924565b6001600160401b03818116838216019080821115613b5d57613b5d613924565b5092915050565b600060208284031215613b7657600080fd5b815161ffff8116811461204e57600080fd5b80518015158114613b9857600080fd5b919050565b600060208284031215613baf57600080fd5b61204e82613b88565b6001600160e01b0319851681526001600160a01b03848116602083015283166040820152608060608201819052600090613bf4908301846138e5565b9695505050505050565b634e487b7160e01b600052603260045260246000fd5b60008251613c268184602087016138c1565b9190910192915050565b80516020808301519190811015611f8d5760001960209190910360031b1b16919050565b60008151808452602080850194506020840160005b83811015613c8e5781516001600160a01b031687529582019590820190600101613c69565b509495945050505050565b838152606060208201526000613cb26060830185613c54565b9050826040830152949350505050565b80516001600160e01b031981168114613b9857600080fd5b6000613ce8613883846137b0565b9050828152838383011115613cfc57600080fd5b61204e8360208301846138c1565b60008060008060808587031215613d2057600080fd5b613d2985613cc2565b93506020850151613d3981613710565b6040860151909350613d4a81613710565b60608601519092506001600160401b03811115613d6657600080fd5b8501601f81018713613d7757600080fd5b613d8687825160208401613cda565b91505092959194509250565b600060208284031215613da457600080fd5b81516001600160401b0380821115613dbb57600080fd5b9083019060608286031215613dcf57600080fd5b613dd7613758565b8251613de281613710565b81526020830151613df281613710565b6020820152604083015182811115613e0957600080fd5b80840193505085601f840112613e1e57600080fd5b613e2d86845160208601613cda565b604082015295945050505050565b80820281158282048414176105ac576105ac613924565b600082613e6f57634e487b7160e01b600052601260045260246000fd5b500490565b600060018201613e8657613e86613924565b5060010190565b60006020808385031215613ea057600080fd5b82516001600160401b0380821115613eb757600080fd5b818501915085601f830112613ecb57600080fd5b815181811115613edd57613edd613742565b8060051b9150613eee848301613780565b8181529183018401918481019088841115613f0857600080fd5b938501935b83851015613f325784519250613f2283613710565b8282529385019390850190613f0d565b98975050505050505050565b634e487b7160e01b600052602160045260246000fd5b60018060a01b0385168152836020820152826040820152608060608201526000613bf46080830184613c54565b600060028410613fa157634e487b7160e01b600052602160045260246000fd5b8382526040602083015261188260408301846138e5565b600060808284031215613fca57600080fd5b604051608081018181106001600160401b0382111715613fec57613fec613742565b6040528251613ffa81613710565b8152602083015161400a81613710565b60208201526040838101519082015261402560608401613b88565b60608201529392505050565b6001600160a01b0385811682528416602082015260408101839052608060608201819052600090613bf4908301846138e5565b60006020828403121561407657600080fd5b61204e82613cc256fe6569bde4a160c636ea8b8d11acb83a60d7fec0b8f2e09389306cba0e1340df0034516f6fe09a043d57f1ff579a303a7ae85314751c77b4eb1a55837604a86e0034516f6fe09a043d57f1ff579a303a7ae85314751c77b4eb1a55837604a86e01c21004fcc619240a31f006438274d15cd813308303284436eef6055f0fdcb603c21004fcc619240a31f006438274d15cd813308303284436eef6055f0fdcb600","linkReferences":{}},"methodIdentifiers":{"expiresAt(uint256)":"17c95709","getMembershipCurrency()":"657e45e8","getMembershipDuration()":"8120f0ba","getMembershipFreeAllocation()":"706b8e09","getMembershipImage()":"93b13cb7","getMembershipLimit()":"95d600c8","getMembershipPrice()":"1278076a","getMembershipPricingModule()":"e847abdd","getMembershipRenewalPrice(uint256)":"5803909f","getProtocolFee()":"a5a41031","getSpaceFactory()":"79dda585","joinSpace(address)":"8c625b06","joinSpaceWithReferral(address,(address,address,string))":"686f7684","renewMembership(uint256)":"7c9669ac","revenue()":"3e9491a2","setMembershipFreeAllocation(uint256)":"5becd24a","setMembershipImage(string)":"0ef1be5f","setMembershipLimit(uint256)":"97fb7c1e","setMembershipPrice(uint256)":"69d5f38a","setMembershipPricingModule(address)":"df9a9fe6","withdraw(address)":"51cff8d9"},"id":250}