{"abi":[{"type":"function","name":"__ERC721A_init","inputs":[{"name":"name_","type":"string","internalType":"string"},{"name":"symbol_","type":"string","internalType":"string"}],"outputs":[],"stateMutability":"nonpayable"},{"type":"function","name":"__EntitlementGated_init","inputs":[{"name":"entitlementChecker","type":"address","internalType":"contract IEntitlementChecker"}],"outputs":[],"stateMutability":"nonpayable"},{"type":"function","name":"__Membership_init","inputs":[{"name":"info","type":"tuple","internalType":"struct IMembershipBase.Membership","components":[{"name":"name","type":"string","internalType":"string"},{"name":"symbol","type":"string","internalType":"string"},{"name":"price","type":"uint256","internalType":"uint256"},{"name":"maxSupply","type":"uint256","internalType":"uint256"},{"name":"duration","type":"uint64","internalType":"uint64"},{"name":"currency","type":"address","internalType":"address"},{"name":"feeRecipient","type":"address","internalType":"address"},{"name":"freeAllocation","type":"uint256","internalType":"uint256"},{"name":"pricingModule","type":"address","internalType":"address"}]},{"name":"spaceFactory","type":"address","internalType":"address"}],"outputs":[],"stateMutability":"nonpayable"},{"type":"function","name":"_getMembershipCurrency","inputs":[],"outputs":[{"name":"","type":"address","internalType":"address"}],"stateMutability":"view"},{"type":"function","name":"_getMembershipFreeAllocation","inputs":[],"outputs":[{"name":"","type":"uint256","internalType":"uint256"}],"stateMutability":"view"},{"type":"function","name":"_getMembershipImage","inputs":[],"outputs":[{"name":"","type":"string","internalType":"string"}],"stateMutability":"view"},{"type":"function","name":"_getMembershipPrice","inputs":[{"name":"totalSupply","type":"uint256","internalType":"uint256"}],"outputs":[{"name":"","type":"uint256","internalType":"uint256"}],"stateMutability":"view"},{"type":"function","name":"_getMembershipSupplyLimit","inputs":[],"outputs":[{"name":"","type":"uint256","internalType":"uint256"}],"stateMutability":"view"},{"type":"function","name":"_getPricingModule","inputs":[],"outputs":[{"name":"","type":"address","internalType":"address"}],"stateMutability":"view"},{"type":"function","name":"_getSpaceFactory","inputs":[],"outputs":[{"name":"","type":"address","internalType":"address"}],"stateMutability":"view"},{"type":"function","name":"_setMembershipFreeAllocation","inputs":[{"name":"newAllocation","type":"uint256","internalType":"uint256"}],"outputs":[],"stateMutability":"nonpayable"},{"type":"function","name":"_setMembershipSupplyLimit","inputs":[{"name":"newLimit","type":"uint256","internalType":"uint256"}],"outputs":[],"stateMutability":"nonpayable"},{"type":"function","name":"_setPricingModule","inputs":[{"name":"newPricingModule","type":"address","internalType":"address"}],"outputs":[],"stateMutability":"nonpayable"},{"type":"function","name":"approve","inputs":[{"name":"to","type":"address","internalType":"address"},{"name":"tokenId","type":"uint256","internalType":"uint256"}],"outputs":[],"stateMutability":"payable"},{"type":"function","name":"balanceOf","inputs":[{"name":"owner","type":"address","internalType":"address"}],"outputs":[{"name":"","type":"uint256","internalType":"uint256"}],"stateMutability":"view"},{"type":"function","name":"expiresAt","inputs":[{"name":"tokenId","type":"uint256","internalType":"uint256"}],"outputs":[{"name":"","type":"uint256","internalType":"uint256"}],"stateMutability":"view"},{"type":"function","name":"getApproved","inputs":[{"name":"tokenId","type":"uint256","internalType":"uint256"}],"outputs":[{"name":"","type":"address","internalType":"address"}],"stateMutability":"view"},{"type":"function","name":"getMembershipCurrency","inputs":[],"outputs":[{"name":"","type":"address","internalType":"address"}],"stateMutability":"view"},{"type":"function","name":"getMembershipDuration","inputs":[],"outputs":[{"name":"","type":"uint64","internalType":"uint64"}],"stateMutability":"view"},{"type":"function","name":"getMembershipFreeAllocation","inputs":[],"outputs":[{"name":"","type":"uint256","internalType":"uint256"}],"stateMutability":"view"},{"type":"function","name":"getMembershipImage","inputs":[],"outputs":[{"name":"","type":"string","internalType":"string"}],"stateMutability":"view"},{"type":"function","name":"getMembershipLimit","inputs":[],"outputs":[{"name":"","type":"uint256","internalType":"uint256"}],"stateMutability":"view"},{"type":"function","name":"getMembershipPrice","inputs":[],"outputs":[{"name":"","type":"uint256","internalType":"uint256"}],"stateMutability":"view"},{"type":"function","name":"getMembershipPricingModule","inputs":[],"outputs":[{"name":"","type":"address","internalType":"address"}],"stateMutability":"view"},{"type":"function","name":"getMembershipRenewalPrice","inputs":[{"name":"tokenId","type":"uint256","internalType":"uint256"}],"outputs":[{"name":"","type":"uint256","internalType":"uint256"}],"stateMutability":"view"},{"type":"function","name":"getRuleData","inputs":[{"name":"transactionId","type":"bytes32","internalType":"bytes32"},{"name":"roleId","type":"uint256","internalType":"uint256"}],"outputs":[{"name":"","type":"tuple","internalType":"struct IRuleEntitlement.RuleData","components":[{"name":"operations","type":"tuple[]","internalType":"struct IRuleEntitlement.Operation[]","components":[{"name":"opType","type":"uint8","internalType":"enum IRuleEntitlement.CombinedOperationType"},{"name":"index","type":"uint8","internalType":"uint8"}]},{"name":"checkOperations","type":"tuple[]","internalType":"struct IRuleEntitlement.CheckOperation[]","components":[{"name":"opType","type":"uint8","internalType":"enum IRuleEntitlement.CheckOperationType"},{"name":"chainId","type":"uint256","internalType":"uint256"},{"name":"contractAddress","type":"address","internalType":"address"},{"name":"threshold","type":"uint256","internalType":"uint256"}]},{"name":"logicalOperations","type":"tuple[]","internalType":"struct IRuleEntitlement.LogicalOperation[]","components":[{"name":"logOpType","type":"uint8","internalType":"enum IRuleEntitlement.LogicalOperationType"},{"name":"leftOperationIndex","type":"uint8","internalType":"uint8"},{"name":"rightOperationIndex","type":"uint8","internalType":"uint8"}]}]}],"stateMutability":"view"},{"type":"function","name":"getSpaceFactory","inputs":[],"outputs":[{"name":"","type":"address","internalType":"address"}],"stateMutability":"view"},{"type":"function","name":"isApprovedForAll","inputs":[{"name":"owner","type":"address","internalType":"address"},{"name":"operator","type":"address","internalType":"address"}],"outputs":[{"name":"","type":"bool","internalType":"bool"}],"stateMutability":"view"},{"type":"function","name":"joinSpace","inputs":[{"name":"receiver","type":"address","internalType":"address"}],"outputs":[],"stateMutability":"payable"},{"type":"function","name":"joinSpaceWithReferral","inputs":[{"name":"receiver","type":"address","internalType":"address"},{"name":"referrer","type":"address","internalType":"address"},{"name":"referralCode","type":"uint256","internalType":"uint256"}],"outputs":[],"stateMutability":"payable"},{"type":"function","name":"name","inputs":[],"outputs":[{"name":"","type":"string","internalType":"string"}],"stateMutability":"view"},{"type":"function","name":"ownerOf","inputs":[{"name":"tokenId","type":"uint256","internalType":"uint256"}],"outputs":[{"name":"","type":"address","internalType":"address"}],"stateMutability":"view"},{"type":"function","name":"postEntitlementCheckResult","inputs":[{"name":"transactionId","type":"bytes32","internalType":"bytes32"},{"name":"roleId","type":"uint256","internalType":"uint256"},{"name":"result","type":"uint8","internalType":"enum IEntitlementGatedBase.NodeVoteStatus"}],"outputs":[],"stateMutability":"nonpayable"},{"type":"function","name":"renewMembership","inputs":[{"name":"tokenId","type":"uint256","internalType":"uint256"}],"outputs":[],"stateMutability":"payable"},{"type":"function","name":"safeTransferFrom","inputs":[{"name":"from","type":"address","internalType":"address"},{"name":"to","type":"address","internalType":"address"},{"name":"tokenId","type":"uint256","internalType":"uint256"}],"outputs":[],"stateMutability":"payable"},{"type":"function","name":"safeTransferFrom","inputs":[{"name":"from","type":"address","internalType":"address"},{"name":"to","type":"address","internalType":"address"},{"name":"tokenId","type":"uint256","internalType":"uint256"},{"name":"_data","type":"bytes","internalType":"bytes"}],"outputs":[],"stateMutability":"payable"},{"type":"function","name":"setApprovalForAll","inputs":[{"name":"operator","type":"address","internalType":"address"},{"name":"approved","type":"bool","internalType":"bool"}],"outputs":[],"stateMutability":"nonpayable"},{"type":"function","name":"setMembershipFreeAllocation","inputs":[{"name":"newAllocation","type":"uint256","internalType":"uint256"}],"outputs":[],"stateMutability":"nonpayable"},{"type":"function","name":"setMembershipImage","inputs":[{"name":"newImage","type":"string","internalType":"string"}],"outputs":[],"stateMutability":"nonpayable"},{"type":"function","name":"setMembershipLimit","inputs":[{"name":"newLimit","type":"uint256","internalType":"uint256"}],"outputs":[],"stateMutability":"nonpayable"},{"type":"function","name":"setMembershipPrice","inputs":[{"name":"newPrice","type":"uint256","internalType":"uint256"}],"outputs":[],"stateMutability":"nonpayable"},{"type":"function","name":"setMembershipPricingModule","inputs":[{"name":"pricingModule","type":"address","internalType":"address"}],"outputs":[],"stateMutability":"nonpayable"},{"type":"function","name":"symbol","inputs":[],"outputs":[{"name":"","type":"string","internalType":"string"}],"stateMutability":"view"},{"type":"function","name":"tokenURI","inputs":[{"name":"tokenId","type":"uint256","internalType":"uint256"}],"outputs":[{"name":"","type":"string","internalType":"string"}],"stateMutability":"view"},{"type":"function","name":"totalSupply","inputs":[],"outputs":[{"name":"","type":"uint256","internalType":"uint256"}],"stateMutability":"view"},{"type":"function","name":"transferFrom","inputs":[{"name":"from","type":"address","internalType":"address"},{"name":"to","type":"address","internalType":"address"},{"name":"tokenId","type":"uint256","internalType":"uint256"}],"outputs":[],"stateMutability":"payable"},{"type":"function","name":"withdraw","inputs":[{"name":"account","type":"address","internalType":"address"}],"outputs":[],"stateMutability":"nonpayable"},{"type":"event","name":"Approval","inputs":[{"name":"owner","type":"address","indexed":true,"internalType":"address"},{"name":"approved","type":"address","indexed":true,"internalType":"address"},{"name":"tokenId","type":"uint256","indexed":true,"internalType":"uint256"}],"anonymous":false},{"type":"event","name":"ApprovalForAll","inputs":[{"name":"owner","type":"address","indexed":true,"internalType":"address"},{"name":"operator","type":"address","indexed":true,"internalType":"address"},{"name":"approved","type":"bool","indexed":false,"internalType":"bool"}],"anonymous":false},{"type":"event","name":"Banned","inputs":[{"name":"moderator","type":"address","indexed":true,"internalType":"address"},{"name":"tokenId","type":"uint256","indexed":true,"internalType":"uint256"}],"anonymous":false},{"type":"event","name":"ConsecutiveTransfer","inputs":[{"name":"fromTokenId","type":"uint256","indexed":true,"internalType":"uint256"},{"name":"toTokenId","type":"uint256","indexed":false,"internalType":"uint256"},{"name":"from","type":"address","indexed":true,"internalType":"address"},{"name":"to","type":"address","indexed":true,"internalType":"address"}],"anonymous":false},{"type":"event","name":"EntitlementCheckResultPosted","inputs":[{"name":"transactionId","type":"bytes32","indexed":true,"internalType":"bytes32"},{"name":"result","type":"uint8","indexed":false,"internalType":"enum IEntitlementGatedBase.NodeVoteStatus"}],"anonymous":false},{"type":"event","name":"Initialized","inputs":[{"name":"version","type":"uint32","indexed":false,"internalType":"uint32"}],"anonymous":false},{"type":"event","name":"InterfaceAdded","inputs":[{"name":"interfaceId","type":"bytes4","indexed":true,"internalType":"bytes4"}],"anonymous":false},{"type":"event","name":"InterfaceRemoved","inputs":[{"name":"interfaceId","type":"bytes4","indexed":true,"internalType":"bytes4"}],"anonymous":false},{"type":"event","name":"MembershipCurrencyUpdated","inputs":[{"name":"currency","type":"address","indexed":true,"internalType":"address"}],"anonymous":false},{"type":"event","name":"MembershipFeeRecipientUpdated","inputs":[{"name":"recipient","type":"address","indexed":true,"internalType":"address"}],"anonymous":false},{"type":"event","name":"MembershipFreeAllocationUpdated","inputs":[{"name":"allocation","type":"uint256","indexed":true,"internalType":"uint256"}],"anonymous":false},{"type":"event","name":"MembershipLimitUpdated","inputs":[{"name":"limit","type":"uint256","indexed":true,"internalType":"uint256"}],"anonymous":false},{"type":"event","name":"MembershipPriceUpdated","inputs":[{"name":"price","type":"uint256","indexed":true,"internalType":"uint256"}],"anonymous":false},{"type":"event","name":"MembershipTokenIssued","inputs":[{"name":"recipient","type":"address","indexed":true,"internalType":"address"},{"name":"tokenId","type":"uint256","indexed":true,"internalType":"uint256"}],"anonymous":false},{"type":"event","name":"MembershipTokenRejected","inputs":[{"name":"recipient","type":"address","indexed":true,"internalType":"address"}],"anonymous":false},{"type":"event","name":"MembershipWithdrawal","inputs":[{"name":"recipient","type":"address","indexed":true,"internalType":"address"},{"name":"amount","type":"uint256","indexed":false,"internalType":"uint256"}],"anonymous":false},{"type":"event","name":"Membership__ReferralCreated","inputs":[{"name":"code","type":"uint256","indexed":true,"internalType":"uint256"},{"name":"bps","type":"uint16","indexed":false,"internalType":"uint16"}],"anonymous":false},{"type":"event","name":"Membership__ReferralRemoved","inputs":[{"name":"code","type":"uint256","indexed":true,"internalType":"uint256"}],"anonymous":false},{"type":"event","name":"Membership__ReferralTimeCreated","inputs":[{"name":"code","type":"uint256","indexed":true,"internalType":"uint256"},{"name":"bps","type":"uint16","indexed":false,"internalType":"uint16"},{"name":"startTime","type":"uint256","indexed":false,"internalType":"uint256"},{"name":"endTime","type":"uint256","indexed":false,"internalType":"uint256"}],"anonymous":false},{"type":"event","name":"OwnershipTransferred","inputs":[{"name":"previousOwner","type":"address","indexed":true,"internalType":"address"},{"name":"newOwner","type":"address","indexed":true,"internalType":"address"}],"anonymous":false},{"type":"event","name":"Paused","inputs":[{"name":"account","type":"address","indexed":false,"internalType":"address"}],"anonymous":false},{"type":"event","name":"RoleCreated","inputs":[{"name":"creator","type":"address","indexed":true,"internalType":"address"},{"name":"roleId","type":"uint256","indexed":true,"internalType":"uint256"}],"anonymous":false},{"type":"event","name":"RoleRemoved","inputs":[{"name":"remover","type":"address","indexed":true,"internalType":"address"},{"name":"roleId","type":"uint256","indexed":true,"internalType":"uint256"}],"anonymous":false},{"type":"event","name":"RoleUpdated","inputs":[{"name":"updater","type":"address","indexed":true,"internalType":"address"},{"name":"roleId","type":"uint256","indexed":true,"internalType":"uint256"}],"anonymous":false},{"type":"event","name":"SubscriptionUpdate","inputs":[{"name":"tokenId","type":"uint256","indexed":true,"internalType":"uint256"},{"name":"expiration","type":"uint64","indexed":false,"internalType":"uint64"}],"anonymous":false},{"type":"event","name":"Transfer","inputs":[{"name":"from","type":"address","indexed":true,"internalType":"address"},{"name":"to","type":"address","indexed":true,"internalType":"address"},{"name":"tokenId","type":"uint256","indexed":true,"internalType":"uint256"}],"anonymous":false},{"type":"event","name":"Unbanned","inputs":[{"name":"moderator","type":"address","indexed":true,"internalType":"address"},{"name":"tokenId","type":"uint256","indexed":true,"internalType":"uint256"}],"anonymous":false},{"type":"event","name":"Unpaused","inputs":[{"name":"account","type":"address","indexed":false,"internalType":"address"}],"anonymous":false},{"type":"error","name":"AddressEmptyCode","inputs":[{"name":"target","type":"address","internalType":"address"}]},{"type":"error","name":"AddressInsufficientBalance","inputs":[{"name":"account","type":"address","internalType":"address"}]},{"type":"error","name":"ApprovalCallerNotOwnerNorApproved","inputs":[]},{"type":"error","name":"ApprovalQueryForNonexistentToken","inputs":[]},{"type":"error","name":"BalanceQueryForZeroAddress","inputs":[]},{"type":"error","name":"Banning__AlreadyBanned","inputs":[{"name":"tokenId","type":"uint256","internalType":"uint256"}]},{"type":"error","name":"Banning__CannotBanOwner","inputs":[]},{"type":"error","name":"Banning__CannotBanSelf","inputs":[]},{"type":"error","name":"Banning__InvalidTokenId","inputs":[{"name":"tokenId","type":"uint256","internalType":"uint256"}]},{"type":"error","name":"Banning__NotBanned","inputs":[{"name":"tokenId","type":"uint256","internalType":"uint256"}]},{"type":"error","name":"Dispatcher__InvalidCaller","inputs":[]},{"type":"error","name":"Dispatcher__InvalidValue","inputs":[]},{"type":"error","name":"ERC5643__DurationZero","inputs":[]},{"type":"error","name":"ERC5643__InvalidTokenId","inputs":[{"name":"tokenId","type":"uint256","internalType":"uint256"}]},{"type":"error","name":"ERC5643__NotApprovedOrOwner","inputs":[]},{"type":"error","name":"ERC5643__SubscriptionNotRenewable","inputs":[{"name":"tokenId","type":"uint256","internalType":"uint256"}]},{"type":"error","name":"EntitlementGated_InvalidAddress","inputs":[]},{"type":"error","name":"EntitlementGated_NodeAlreadyVoted","inputs":[]},{"type":"error","name":"EntitlementGated_NodeNotFound","inputs":[]},{"type":"error","name":"EntitlementGated_TransactionCheckAlreadyCompleted","inputs":[]},{"type":"error","name":"EntitlementGated_TransactionCheckAlreadyRegistered","inputs":[]},{"type":"error","name":"EntitlementGated_TransactionNotRegistered","inputs":[]},{"type":"error","name":"Entitlement__InvalidValue","inputs":[]},{"type":"error","name":"Entitlement__NotAllowed","inputs":[]},{"type":"error","name":"Entitlement__NotMember","inputs":[]},{"type":"error","name":"Entitlement__ValueAlreadyExists","inputs":[]},{"type":"error","name":"FailedInnerCall","inputs":[]},{"type":"error","name":"Initializable_InInitializingState","inputs":[]},{"type":"error","name":"Initializable_NotInInitializingState","inputs":[]},{"type":"error","name":"Introspection_AlreadySupported","inputs":[]},{"type":"error","name":"Introspection_NotSupported","inputs":[]},{"type":"error","name":"Membership__AlreadyMember","inputs":[]},{"type":"error","name":"Membership__InsufficientAllowance","inputs":[]},{"type":"error","name":"Membership__InsufficientPayment","inputs":[]},{"type":"error","name":"Membership__InvalidAddress","inputs":[]},{"type":"error","name":"Membership__InvalidCurrency","inputs":[]},{"type":"error","name":"Membership__InvalidDuration","inputs":[]},{"type":"error","name":"Membership__InvalidFeeRecipient","inputs":[]},{"type":"error","name":"Membership__InvalidFreeAllocation","inputs":[]},{"type":"error","name":"Membership__InvalidLimit","inputs":[]},{"type":"error","name":"Membership__InvalidMaxSupply","inputs":[]},{"type":"error","name":"Membership__InvalidPrice","inputs":[]},{"type":"error","name":"Membership__InvalidPricingModule","inputs":[]},{"type":"error","name":"Membership__InvalidReferralBps","inputs":[]},{"type":"error","name":"Membership__InvalidReferralCode","inputs":[]},{"type":"error","name":"Membership__InvalidReferralTime","inputs":[]},{"type":"error","name":"Membership__InvalidTokenId","inputs":[]},{"type":"error","name":"Membership__MaxSupplyReached","inputs":[]},{"type":"error","name":"Membership__NotExpired","inputs":[]},{"type":"error","name":"Membership__PriceTooLow","inputs":[]},{"type":"error","name":"MintERC2309QuantityExceedsLimit","inputs":[]},{"type":"error","name":"MintToZeroAddress","inputs":[]},{"type":"error","name":"MintZeroQuantity","inputs":[]},{"type":"error","name":"Ownable__NotOwner","inputs":[{"name":"account","type":"address","internalType":"address"}]},{"type":"error","name":"Ownable__ZeroAddress","inputs":[]},{"type":"error","name":"OwnerQueryForNonexistentToken","inputs":[]},{"type":"error","name":"OwnershipNotInitializedForExtraData","inputs":[]},{"type":"error","name":"Pausable__NotPaused","inputs":[]},{"type":"error","name":"Pausable__Paused","inputs":[]},{"type":"error","name":"ReentrancyGuard__ReentrantCall","inputs":[]},{"type":"error","name":"Roles__EntitlementAlreadyExists","inputs":[]},{"type":"error","name":"Roles__EntitlementDoesNotExist","inputs":[]},{"type":"error","name":"Roles__InvalidEntitlementAddress","inputs":[]},{"type":"error","name":"Roles__InvalidPermission","inputs":[]},{"type":"error","name":"Roles__PermissionAlreadyExists","inputs":[]},{"type":"error","name":"Roles__PermissionDoesNotExist","inputs":[]},{"type":"error","name":"Roles__RoleDoesNotExist","inputs":[]},{"type":"error","name":"SafeERC20FailedOperation","inputs":[{"name":"token","type":"address","internalType":"address"}]},{"type":"error","name":"TransferCallerNotOwnerNorApproved","inputs":[]},{"type":"error","name":"TransferFromIncorrectOwner","inputs":[]},{"type":"error","name":"TransferToNonERC721ReceiverImplementer","inputs":[]},{"type":"error","name":"TransferToZeroAddress","inputs":[]},{"type":"error","name":"URIQueryForNonexistentToken","inputs":[]}],"bytecode":{"object":"0x60806040523480156200001157600080fd5b506200001c62000022565b620000ca565b7f59b501c3653afc186af7d48dda36cf6732bd21629a6295693664240a6ef520008054640100000000900460ff16156200006f576040516366008a2d60e01b815260040160405180910390fd5b805463ffffffff9081161015620000c757805463ffffffff191663ffffffff90811782556040519081527fe9c9b456cb2994b80aeef036cf59d26e9617df80f816a6ee5a5b4166e07e2f5c9060200160405180910390a15b50565b6152ee80620000da6000396000f3fe6080604052600436106102885760003560e01c806377460cd31161015a578063a22cb465116100c1578063d2f01f191161007a578063d2f01f1914610745578063d33d934514610765578063df9a9fe61461077a578063e847abdd1461079a578063e985e9c5146107af578063f9d5d22c146107df57600080fd5b8063a22cb465146106b5578063ac7ee626146106d5578063b3a5be6d146106ea578063b88d4fde146106ff578063c87b56dd14610712578063c9f7c8331461073257600080fd5b80638c625b06116101135780638c625b061461061657806392c399ff1461062957806393b13cb71461065657806395d600c81461066b57806395d89b411461068057806397fb7c1e1461069557600080fd5b806377460cd31461057757806379dda5851461058c5780637adc9cbe146105a15780637c9669ac146105c15780638120f0ba146105d45780638934207f1461060157600080fd5b80634c2abfbe116101fe57806369d5f38a116101b757806369d5f38a146104cd57806369d9346b146104ed578063702515631461050d578063706b8e091461052257806370a082311461053757806373fc5a051461055757600080fd5b80634c2abfbe1461041857806351cff8d9146104385780635803909f146104585780635becd24a146104785780636352211e14610498578063657e45e8146104b857600080fd5b806317c957091161025057806317c957091461034857806318160ddd1461039d57806323b872dd146103b25780633ded10de146103c557806342842e0e146103e55780634739e805146103f857600080fd5b806306fdde031461028d578063081812fc146102b8578063095ea7b3146102f05780630ef1be5f146103055780631278076a14610325575b600080fd5b34801561029957600080fd5b506102a26107ff565b6040516102af919061436e565b60405180910390f35b3480156102c457600080fd5b506102d86102d3366004614381565b61089a565b6040516001600160a01b0390911681526020016102af565b6103036102fe3660046143bf565b6108ab565b005b34801561031157600080fd5b506103036103203660046143eb565b6108bb565b34801561033157600080fd5b5061033a61093a565b6040519081526020016102af565b34801561035457600080fd5b5061033a610363366004614381565b60009081527f4775a23600034fdd9f073b224f794d51a58b35ba663a9602623ba7a5c09cce0060205260409020546001600160401b031690565b3480156103a957600080fd5b5061033a61094c565b6103036103c036600461445c565b610956565b3480156103d157600080fd5b5061033a6103e0366004614381565b610b4d565b6103036103f336600461445c565b610cdc565b34801561040457600080fd5b506103036104133660046144aa565b610cfc565b34801561042457600080fd5b5061030361043336600461464f565b610d65565b34801561044457600080fd5b50610303610453366004614758565b610dc9565b34801561046457600080fd5b5061033a610473366004614381565b610e6b565b34801561048457600080fd5b50610303610493366004614381565b610e7e565b3480156104a457600080fd5b506102d86104b3366004614381565b610f03565b3480156104c457600080fd5b506102d8610f0e565b3480156104d957600080fd5b506103036104e8366004614381565b610f18565b3480156104f957600080fd5b50610303610508366004614758565b610fc6565b34801561051957600080fd5b506102d8610ff3565b34801561052e57600080fd5b5061033a61100f565b34801561054357600080fd5b5061033a610552366004614758565b611019565b34801561056357600080fd5b50610303610572366004614381565b611024565b34801561058357600080fd5b506102d8611034565b34801561059857600080fd5b506102d8611050565b3480156105ad57600080fd5b506103036105bc366004614758565b61105a565b6103036105cf366004614381565b61109e565b3480156105e057600080fd5b506105e96111fb565b6040516001600160401b0390911681526020016102af565b34801561060d57600080fd5b5061033a611205565b610303610624366004614758565b611218565b34801561063557600080fd5b50610649610644366004614775565b61166a565b6040516102af9190614888565b34801561066257600080fd5b506102a261169f565b34801561067757600080fd5b5061033a6116a9565b34801561068c57600080fd5b506102a26116b3565b3480156106a157600080fd5b506103036106b0366004614381565b6116cb565b3480156106c157600080fd5b506103036106d036600461492f565b611720565b3480156106e157600080fd5b506102d861179d565b3480156106f657600080fd5b5061033a6117b9565b61030361070d366004614968565b611858565b34801561071e57600080fd5b506102a261072d366004614381565b6118a2565b61030361074036600461445c565b611932565b34801561075157600080fd5b506103036107603660046149e7565b611a4c565b34801561077157600080fd5b506102a2611a8e565b34801561078657600080fd5b50610303610795366004614758565b611aa6565b3480156107a657600080fd5b506102d8611af3565b3480156107bb57600080fd5b506107cf6107ca366004614a4a565b611afd565b60405190151581526020016102af565b3480156107eb57600080fd5b506103036107fa366004614381565b611b09565b6060610809611b4c565b600201805461081790614a78565b80601f016020809104026020016040519081016040528092919081815260200182805461084390614a78565b80156108905780601f1061086557610100808354040283529160200191610890565b820191906000526020600020905b81548152906001019060200180831161087357829003601f168201915b5050505050905090565b60006108a582611b70565b92915050565b6108b782826001611bbd565b5050565b6108c3611c72565b6001600160a01b0316336001600160a01b0316146108fb576040516365f4906560e01b81523360048201526024015b60405180910390fd5b6108b782828080601f016020809104026020016040519081016040528093929190818152602001838380828437600092019190915250611d3c92505050565b60006109476103e0611d53565b905090565b6000610947611d53565b600061096182611d72565b9050836001600160a01b0316816001600160a01b0316146109945760405162a1148160e81b815260040160405180910390fd5b6000806109a084611e0d565b915091506109c581876109b03390565b6001600160a01b039081169116811491141790565b6109f0576109d38633611afd565b6109f057604051632ce44b5f60e11b815260040160405180910390fd5b6001600160a01b038516610a1757604051633a954ecd60e21b815260040160405180910390fd5b8015610a2257600082555b610a2a611b4c565b6001600160a01b0387166000908152600591909101602052604090208054600019019055610a56611b4c565b6001600160a01b03861660008181526005929092016020526040909120805460010190554260a01b17600160e11b17610a8d611b4c565b60008681526004919091016020526040812091909155600160e11b84169003610b035760018401610abc611b4c565b600082815260049190910160205260408120549003610b0157610add611b4c565b548114610b015783610aed611b4c565b600083815260049190910160205260409020555b505b83856001600160a01b0316876001600160a01b03167fddf252ad1be2c89b69c2b068fc378daa952ba7f163c4a11628f55a4df523b3ef60405160405180910390a45b505050505050565b600080610b58611e35565b90506000610b646117b9565b905083811115610b78575060009392505050565b6006820154604051639262b1b360e01b815230600482015285916001600160a01b031690639262b1b390602401602060405180830381865afa158015610bc2573d6000803e3d6000fd5b505050506040513d601f19601f82011682018060405250810190610be69190614aac565b1115610bf6575060009392505050565b60088201546001600160a01b031615610c87576008820154604051635cf4ee9160e01b815260048101839052602481018690526001600160a01b0390911690635cf4ee9190604401602060405180830381865afa158015610c5b573d6000803e3d6000fd5b505050506040513d601f19601f82011682018060405250810190610c7f9190614aac565b949350505050565b8160060160009054906101000a90046001600160a01b03166001600160a01b0316630eac306d6040518163ffffffff1660e01b8152600401602060405180830381865afa158015610c5b573d6000803e3d6000fd5b610cf783838360405180602001604052806000815250611858565b505050565b600260008051602061524e8339815191525403610d2c57604051635db5c7cd60e11b815260040160405180910390fd5b610d43600260008051602061524e83398151915255565b610d4e838383611e59565b610cf7600160008051602061524e83398151915255565b6000805160206152ae83398151915254640100000000900460ff16610d9d57604051630ef4733760e31b815260040160405180910390fd5b610dad63421fb7a760e01b6120fc565b610db782826121da565b6108b7826000015183602001516122fd565b610dd1611c72565b6001600160a01b0316336001600160a01b031614610e04576040516365f4906560e01b81523360048201526024016108f2565b6001600160a01b038116610e2b57604051635fbd571760e01b815260040160405180910390fd5b6000610e3561235f565b905080600003610e5857604051635894b54560e11b815260040160405180910390fd5b6108b7610e63610ff3565b308484612372565b60006108a582610e79611d53565b6123b8565b610e86611c72565b6001600160a01b0316336001600160a01b031614610eb9576040516365f4906560e01b81523360048201526024016108f2565b6000610ec3611205565b90508015801590610ed357508082115b15610ef15760405163c3983b9160e01b815260040160405180910390fd5b610efa826123fe565b6108b782611b09565b60006108a582611d72565b6000610947610ff3565b610f20611c72565b6001600160a01b0316336001600160a01b031614610f53576040516365f4906560e01b81523360048201526024016108f2565b610f5c816124a3565b610f6461179d565b6001600160a01b03166391b7f5ed826040518263ffffffff1660e01b8152600401610f9191815260200190565b600060405180830381600087803b158015610fab57600080fd5b505af1158015610fbf573d6000803e3d6000fd5b5050505050565b80610fcf611e35565b60080180546001600160a01b0319166001600160a01b039290921691909117905550565b6000610ffd611e35565b600401546001600160a01b0316919050565b60006109476117b9565b60006108a582612531565b8061102d611e35565b6003015550565b600061103e611e35565b600601546001600160a01b0316919050565b6000610947611034565b6000805160206152ae83398151915254640100000000900460ff1661109257604051630ef4733760e31b815260040160405180910390fd5b61109b81612599565b50565b600260008051602061524e83398151915254036110ce57604051635db5c7cd60e11b815260040160405180910390fd5b6110e5600260008051602061524e83398151915255565b60006110f082610f03565b90506001600160a01b03811661111957604051635fbd571760e01b815260040160405180910390fd5b60008281527f4775a23600034fdd9f073b224f794d51a58b35ba663a9602623ba7a5c09cce0060205260409020546001600160401b03166111586125d4565b6001600160401b031661116b4283614adb565b106111895760405163dce9a1d360e01b815260040160405180910390fd5b600061119784610e79611d53565b905080156111d05760006111ab848361265a565b905060006111b98284614adb565b905080156111cd576111cb8582612772565b505b50505b6111e1846111dc6125d4565b612910565b50505061109b600160008051602061524e83398151915255565b60006109476125d4565b600061120f611e35565b60030154905090565b600260008051602061524e833981519152540361124857604051635db5c7cd60e11b815260040160405180910390fd5b61125f600260008051602061524e83398151915255565b611268816129d9565b60405133606081901b6bffffffffffffffffffffffff1916602083015243603483015290600090605401604051602081830303815290604052805190602001209050600061132a826112fe84866112be87612a42565b604080516020808201959095526001600160a01b039390931683820152606080840192909252805180840390920182526080909201909152805191012090565b604080516020808201949094528082019290925280518083038201815260609092019052805191012090565b905061136c8184866040516020016113589291906001600160a01b0392831681529116602082015260400190565b604051602081830303815290604052612a77565b341561137c5761137c8134612abe565b60006113a8604051806040016040528060098152602001684a6f696e537061636560b81b815250612b44565b905060008060005b83518110156115dd5760008482815181106113cd576113cd614aee565b6020026020010151905080604001516115d45760005b8160800151518110156115d25760008260800151828151811061140857611408614aee565b60200260200101519050806001600160a01b0316632e1b61e46040518163ffffffff1660e01b8152600401602060405180830381865afa158015611450573d6000803e3d6000fd5b505050506040513d601f19601f820116820180604052508101906114749190614b04565b6115b157604080516001808252818301909252600091602080830190803683370190505090508a816000815181106114ae576114ae614aee565b60200260200101906001600160a01b031690816001600160a01b031681525050816001600160a01b0316630cf0b533600083604051806040016040528060098152602001684a6f696e537061636560b81b8152506040516020016115129190614b21565b60405160208183030381529060405261152a90614b3d565b6040518463ffffffff1660e01b815260040161154893929190614b9b565b602060405180830381865afa158015611565573d6000803e3d6000fd5b505050506040513d601f19601f820116820180604052508101906115899190614b04565b156115a75761159789612d8e565b5050505050505050505050611653565b60019550506115c9565b6115c088828560000151612ee3565b60009450600195505b506001016113e3565b505b506001016113b0565b50811580156115e95750805b1561164c576116078460405180602001604052806000815250612a77565b3415611617576116178434613192565b6040516001600160a01b038816907f86fd446d5c04e892d58b448a924dcd9c3ece3a5e0d2960b8c35cd475a5595a1f90600090a25b5050505050505b61109b600160008051602061524e83398151915255565b61168e60405180606001604052806060815260200160608152602001606081525090565b61169883836131cd565b9392505050565b6060610947611a8e565b6000610947611205565b60606116bd611b4c565b600301805461081790614a78565b6116d3611c72565b6001600160a01b0316336001600160a01b031614611706576040516365f4906560e01b81523360048201526024016108f2565b61171781611712611d53565b6132c7565b61109b81611024565b80611729611b4c565b336000818152600792909201602090815260408084206001600160a01b03881680865290835293819020805460ff19169515159590951790945592518415158152919290917f17307eab39ab6107e8899845ad3d59bd9653f200f220920489ca2b5937696c31910160405180910390a35050565b60006117a7611e35565b600801546001600160a01b0316919050565b6000806117c4611e35565b600781015490915080156117d85792915050565b8160060160009054906101000a90046001600160a01b03166001600160a01b0316632cbb9d136040518163ffffffff1660e01b8152600401602060405180830381865afa15801561182d573d6000803e3d6000fd5b505050506040513d601f19601f820116820180604052508101906118519190614aac565b9250505090565b611863848484610956565b6001600160a01b0383163b1561189c5761187f848484846132e8565b61189c576040516368d2bf6b60e11b815260040160405180910390fd5b50505050565b60606118ad826133d3565b6118ca57604051630a14c4b560e41b815260040160405180910390fd5b60006118e160408051602081019091526000815290565b905080516000036119015760405180602001604052806000815250611698565b8061190b8461340f565b60405160200161191c929190614bc4565b6040516020818303038152906040529392505050565b600260008051602061524e833981519152540361196257604051635db5c7cd60e11b815260040160405180910390fd5b611979600260008051602061524e83398151915255565b611982836129d9565b600061198c613453565b9050600061199b6103e0611d53565b90508015611a1c576119ad8282613463565b60006119b9868361265a565b905060006119c78284614adb565b905060006119d3610ff3565b90508115611a185760006119e78388613483565b90506119f5828a8a84612372565b6000611a018285614adb565b90508015611a1557611a138a82612772565b505b50505b5050505b611a27856001613536565b611a33826111dc6125d4565b5050610cf7600160008051602061524e83398151915255565b6000805160206152ae83398151915254640100000000900460ff16611a8457604051630ef4733760e31b815260040160405180910390fd5b6108b782826122fd565b6060611a98611e35565b600c01805461081790614a78565b611aae611c72565b6001600160a01b0316336001600160a01b031614611ae1576040516365f4906560e01b81523360048201526024016108f2565b611aea81613550565b61109b81610fc6565b600061094761179d565b60006116988383613608565b6000611b13611e35565b6007810183905560405190915082907fab14a23e88fb272313490d4f20d63098e64fd38304c0e07a377db98c2b39b92f90600090a25050565b7f6569bde4a160c636ea8b8d11acb83a60d7fec0b8f2e09389306cba0e1340df0090565b6000611b7b826133d3565b611b98576040516333d1c03960e21b815260040160405180910390fd5b611ba0611b4c565b60009283526006016020525060409020546001600160a01b031690565b6000611bc883610f03565b90508115611c0757336001600160a01b03821614611c0757611bea8133613608565b611c07576040516367d9dca160e11b815260040160405180910390fd5b83611c10611b4c565b6000858152600691909101602052604080822080546001600160a01b0319166001600160a01b0394851617905551859287811692908516917f8c5be1e5ebec7d5bd14f71427d1e84f3dd0314c0f7b2291e5b200ac8c7c3b9259190a450505050565b6040805180820182527fd2f24d4f172e4e84e48e7c4125b6e904c29e5eba33ad4938fee51dd5dbd4b600546001600160a01b03168082527fd2f24d4f172e4e84e48e7c4125b6e904c29e5eba33ad4938fee51dd5dbd4b60154602080840182905284516331a9108f60e11b815260048101929092529351600094636352211e92602480820193918290030181865afa158015611d12573d6000803e3d6000fd5b505050506040513d601f19601f82011682018060405250810190611d369190614bf3565b91505090565b80611d45611e35565b600c01906108b79082614c58565b600080611d5e611b4c565b60010154611d6a611b4c565b540303919050565b600080611d7d611b4c565b60008481526004820160205260408120549350909150600160e01b83169003611df35781600003611ded5780548310611dc957604051636f96cda160e11b815260040160405180910390fd5b5b600019909201600081815260048401602052604090205490929091508115611dca575b50919050565b50604051636f96cda160e11b815260040160405180910390fd5b6000806000611e1a611b4c565b60009485526006016020525050604090912080549092909150565b7fc21004fcc619240a31f006438274d15cd813308303284436eef6055f0fdcb60090565b600083815260008051602061522e83398151915260205260409020805460008051602061520e833981519152919061010090046001600160a01b03161580611ea35750805460ff16155b15611ec157604051637ad5a43960e11b815260040160405180910390fd5b600084815260028201602052604090205460ff1615611ef357604051637912b73960e01b815260040160405180910390fd5b600084815260018201602052604081205481908190815b818110156120315760008981526001870160205260408120805483908110611f3457611f34614aee565b60009182526020909120018054909150336001600160a01b0390911603611fc05760008154600160a01b900460ff166002811115611f7457611f74614797565b14611f92576040516347592a4d60e01b815260040160405180910390fd5b80548990829060ff60a01b1916600160a01b836002811115611fb657611fb6614797565b0217905550600195505b60018154600160a01b900460ff166002811115611fdf57611fdf614797565b03611ff65784611fee81614d17565b955050612028565b60028154600160a01b900460ff16600281111561201557612015614797565b03612028578361202481614d17565b9450505b50600101611f0a565b508361205057604051638223a7e960e01b815260040160405180910390fd5b61205b600282614d30565b831180612071575061206e600282614d30565b82115b156120f15760008881526002860160205260408120805460ff1916600117905582841161209f5760026120a2565b60015b90506120ae8a82613645565b897fb9d6ce397e562841871d119aaf77469c60a3b5bf8b99a5d9851656015015c633826040516120de9190614d52565b60405180910390a26120ef8a6136e7565b505b505050505050505050565b6001600160e01b0319811660009081527f81088bbc801e045ea3e7620779ab349988f58afbdfba10dff983df3f33522b00602052604090205460ff161515600114612189576001600160e01b0319811660009081527f81088bbc801e045ea3e7620779ab349988f58afbdfba10dff983df3f33522b0060205260409020805460ff191660011790556121a2565b604051637967f77d60e11b815260040160405180910390fd5b6040516001600160e01b03198216907f78f84e5b1c5c05be2b5ad3800781dd404d6d6c6302bc755c0fe20f58a33a7f2290600090a250565b60006121e4611e35565b6006810180546001600160a01b038086166001600160a01b031992831617909255610100860151600884018054919093169082161790915560048201805490911673eeeeeeeeeeeeeeeeeeeeeeeeeeeeeeeeeeeeeeee1790556060840151600382015560e08401516007820181905590915015612268576122688360e001516123fe565b612276836101000151613550565b604083015115610cf75761228d83604001516124a3565b600881015460408085015190516391b7f5ed60e01b81526001600160a01b03909216916391b7f5ed916122c69160040190815260200190565b600060405180830381600087803b1580156122e057600080fd5b505af11580156122f4573d6000803e3d6000fd5b50505050505050565b6000805160206152ae83398151915254640100000000900460ff1661233557604051630ef4733760e31b815260040160405180910390fd5b6123456380ac58cd60e01b6120fc565b612355635b5e139f60e01b6120fc565b6108b782826137b4565b6000612369611e35565b600a0154905090565b801561189c5773eeeeeeeeeeeeeeeeeeeeeeeeeeeeeeeeeeeeeeed196001600160a01b038516016123ac576123a782826137e6565b61189c565b61189c84848484613889565b6000806123c3611e35565b6000858152600982016020526040902054909150156123f55760008481526009909101602052604090205490506108a5565b610c7f83610b4d565b6000612408611e35565b90508060060160009054906101000a90046001600160a01b03166001600160a01b0316632cbb9d136040518163ffffffff1660e01b8152600401602060405180830381865afa15801561245f573d6000803e3d6000fd5b505050506040513d601f19601f820116820180604052508101906124839190614aac565b8211156108b75760405163c3983b9160e01b815260040160405180910390fd5b60006124ad611034565b6001600160a01b0316630eac306d6040518163ffffffff1660e01b8152600401602060405180830381865afa1580156124ea573d6000803e3d6000fd5b505050506040513d601f19601f8201168201806040525081019061250e9190614aac565b9050808210156108b757604051631a23d64760e11b815260040160405180910390fd5b60006001600160a01b03821661255a576040516323d3ad8160e21b815260040160405180910390fd5b6001600160401b0361256a611b4c565b6005016000846001600160a01b03166001600160a01b0316815260200190815260200160002054169050919050565b6125a9636afd38fd60e11b6120fc565b60008051602061520e83398151915280546001600160a01b0319166001600160a01b03831617905550565b6000806125df611e35565b90508060060160009054906101000a90046001600160a01b03166001600160a01b0316638120f0ba6040518163ffffffff1660e01b8152600401602060405180830381865afa158015612636573d6000803e3d6000fd5b505050506040513d601f19601f82011682018060405250810190611d369190614d65565b600080612665611e35565b6006810154600480830154604080516301332c8360e61b815290519495506001600160a01b039384169493909116926000928592634ccb20c092818301926020928290030181865afa1580156126bf573d6000803e3d6000fd5b505050506040513d601f19601f820116820180604052508101906126e39190614bf3565b90506000836001600160a01b0316639f6542aa6040518163ffffffff1660e01b8152600401602060405180830381865afa158015612725573d6000803e3d6000fd5b505050506040513d601f19601f820116820180604052508101906127499190614d82565b9050612759878261ffff166138dc565b955061276783898489612372565b505050505092915050565b60008061277d611e35565b90506000612789610ff3565b905073eeeeeeeeeeeeeeeeeeeeeeeeeeeeeeeeeeeeeeed196001600160a01b038216016127d4578382600a0160008282546127c49190614da6565b909155508493506108a592505050565b6040516370a0823160e01b815230600482015281906000906001600160a01b038316906370a0823190602401602060405180830381865afa15801561281d573d6000803e3d6000fd5b505050506040513d601f19601f820116820180604052508101906128419190614aac565b905061284f83883089612372565b6040516370a0823160e01b81523060048201526000906001600160a01b038416906370a0823190602401602060405180830381865afa158015612896573d6000803e3d6000fd5b505050506040513d601f19601f820116820180604052508101906128ba9190614aac565b905060006128c88383614adb565b90508781146128ea57604051635894b54560e11b815260040160405180910390fd5b8086600a0160008282546128fe9190614da6565b90915550909998505050505050505050565b60008281527f4775a23600034fdd9f073b224f794d51a58b35ba663a9602623ba7a5c09cce006020819052604082205490916001600160401b03909116908181036129665761295f8442614db9565b9050612973565b6129708483614db9565b90505b60008581526020848152604091829020805467ffffffffffffffff19166001600160401b038516908117909155915191825286917f2ec2be2c4b90c2cf13ecb6751a24daed6bb741ae5ed3f7371aabf9402f6d62e8910160405180910390a25050505050565b6001600160a01b038116612a0057604051635fbd571760e01b815260040160405180910390fd5b612a08611205565b15801590612a245750612a19611205565b612a21611d53565b10155b1561109b57604051637efcdb4960e01b815260040160405180910390fd5b600081815260008051602061526e83398151915260208190526040822080549083612a6c83614d17565b909155509392505050565b60008281527f34516f6fe09a043d57f1ff579a303a7ae85314751c77b4eb1a55837604a86e026020526040902060008051602061526e8339815191529061189c8382614c58565b80600003612adf5760405163acdc0d4960e01b815260040160405180910390fd5b803414612aff5760405163acdc0d4960e01b815260040160405180910390fd5b60008281526000805160206152ce83398151915260205260408120805460008051602061526e83398151915292849291612b3a908490614da6565b9091555050505050565b60606000612b50613951565b80519091506000816001600160401b03811115612b6f57612b6f6144e3565b604051908082528060200260200182016040528015612b98578160200160208202803683370190505b5085516020870120909150600090815b84811015612c67576000612bd4878381518110612bc757612bc7614aee565b602002602001015161397c565b509250505060005b8151811015612c5d5783828281518110612bf857612bf8614aee565b60200260200101518051906020012003612c5557878381518110612c1e57612c1e614aee565b6020026020010151868681518110612c3857612c38614aee565b602090810291909101015284612c4d81614d17565b955050612c5d565b600101612bdc565b5050600101612ba8565b506000826001600160401b03811115612c8257612c826144e3565b604051908082528060200260200182016040528015612ce757816020015b612cd46040518060a00160405280600081526020016060815260200160001515815260200160608152602001606081525090565b815260200190600190039081612ca05790505b50905060005b83811015612d82576000858281518110612d0957612d09614aee565b60200260200101519050600080600080612d228561397c565b93509350935093506040518060a00160405280868152602001858152602001841515815260200183815260200182815250878781518110612d6557612d65614aee565b602002602001018190525050505050508080600101915050612ced565b50979650505050505050565b600080612d9a83613a8c565b806020019051810190612dad9190614dd9565b915091506000612dbe6103e0611d53565b90506000612dca613453565b90508115612e8f5760008581526000805160206152ce833981519152602052604081205490819003612e0f57604051635894b54560e11b815260040160405180910390fd5b80831115612e3057604051635894b54560e11b815260040160405180910390fd5b612e3a8284613463565b6000612e46868561265a565b90506000612e548286614adb565b90508015612e6857612e668782612772565b505b612e728886613192565b612e8b8860405180602001604052806000815250612a77565b5050505b612e9a836001613536565b612ea6816111dc6125d4565b60405181906001600160a01b038516907f2f40b0474996b72a4251e00fb9170cdd960deea1dc749772cbbab61395b9b57690600090a35050505050565b600083815260008051602061522e83398151915260205260409020805460008051602061520e833981519152919060ff161515600103612f755760005b6004820154811015612f735783826004018281548110612f4257612f42614aee565b906000526020600020015403612f6b576040516301ab53df60e31b815260040160405180910390fd5b600101612f20565b505b81546001600160a01b0316612f8c57612f8c613b5d565b8154604051634f84544560e01b8152600560048201526000916001600160a01b031690634f84544590602401600060405180830381865afa158015612fd5573d6000803e3d6000fd5b505050506040513d6000823e601f3d908101601f19168201604052612ffd9190810190614e2b565b825490915060ff1661303e5781546003830180546001600160a01b0319166001600160a01b0388161790556001600160a81b03191661010033021760011782555b600482018054600181018255600091825260208220018590555b815181101561312e57826001016000868152602001908152602001600020604051806040016040528084848151811061309357613093614aee565b60200260200101516001600160a01b03168152602001600060028111156130bc576130bc614797565b9052815460018101835560009283526020928390208251910180546001600160a01b031981166001600160a01b03909316928317825593830151929390929183916001600160a81b03191617600160a01b83600281111561311f5761311f614797565b02179055505050600101613058565b50825460405163541da4e560e01b81526001600160a01b039091169063541da4e5906131649033908a9089908790600401614ebe565b600060405180830381600087803b15801561317e57600080fd5b505af11580156120ef573d6000803e3d6000fd5b60008281526000805160206152ce83398151915260205260408120805460008051602061526e83398151915292849291612b3a908490614adb565b6131f160405180606001604052806060815260200160608152602001606081525090565b600083815260008051602061522e83398151915260205260408120805460008051602061520e8339815191529260ff9091161515900361324457604051637ad5a43960e11b815260040160405180910390fd5b600381015460405163069a3ee960e01b8152600481018690526001600160a01b0390911690600090829063069a3ee990602401600060405180830381865afa158015613294573d6000803e3d6000fd5b505050506040513d6000823e601f3d908101601f191682016040526132bc919081019061505c565b979650505050505050565b808210156108b757604051636664d51760e11b815260040160405180910390fd5b604051630a85bd0160e11b81526000906001600160a01b0385169063150b7a029061331d903390899088908890600401615199565b6020604051808303816000875af1925050508015613358575060408051601f3d908101601f19168201909252613355918101906151cc565b60015b6133b6573d808015613386576040519150601f19603f3d011682016040523d82523d6000602084013e61338b565b606091505b5080516000036133ae576040516368d2bf6b60e11b815260040160405180910390fd5b805181602001fd5b6001600160e01b031916630a85bd0160e11b149050949350505050565b60006133dd611b4c565b54821080156108a55750600160e01b6133f4611b4c565b60008481526004919091016020526040902054161592915050565b606060a06040510180604052602081039150506000815280825b600183039250600a81066030018353600a9004806134295750819003601f19909101908152919050565b600061345d611b4c565b54919050565b8061346c611e35565b600093845260090160205260409092209190915550565b60008181527f3c2290b88407133303e904ceb4ee7d0d14164eda8a629372d8406216ceb57e006020819052604082205461ffff168083036134c9576000925050506108a5565b60008481526001808401602090815260409283902083518085019094528054808552920154908301521580159061350d5750805142108061350d5750806020015142115b1561351e57600093505050506108a5565b61352c868361ffff166138dc565b9695505050505050565b6108b7828260405180602001604052806000815250613c11565b6001600160a01b03811661357757604051630e88bf4b60e01b815260040160405180910390fd5b61357f611034565b6040516346fc05eb60e11b81526001600160a01b0383811660048301529190911690638df80bd690602401602060405180830381865afa1580156135c7573d6000803e3d6000fd5b505050506040513d601f19601f820116820180604052508101906135eb9190614b04565b61109b57604051630e88bf4b60e01b815260040160405180910390fd5b6000613612611b4c565b6001600160a01b039384166000908152600791909101602090815260408083209490951682529290925250205460ff1690565b600181600281111561365957613659614797565b03613667576108b782612d8e565b60008061367384613a8c565b8060200190518101906136869190614dd9565b915091506136a38460405180602001604052806000815250612a77565b6136ad8483613c87565b6040516001600160a01b038216907f86fd446d5c04e892d58b448a924dcd9c3ece3a5e0d2960b8c35cd475a5595a1f90600090a250505050565b600081815260008051602061522e8339815191526020526040812060008051602061520e833981519152915b60048201548110156137675781600101600083600401838154811061373a5761373a614aee565b90600052602060002001548152602001908152602001600020600061375f91906142aa565b600101613713565b506137766004820160006142c8565b6000838152600183016020526040812080546001600160a81b03191681556003810180546001600160a01b031916905590610fbf60048301826142c8565b60006137be611b4c565b9050600281016137ce8482614c58565b50600381016137dd8382614c58565b50600090555050565b6000826001600160a01b03168260405160006040518083038185875af1925050503d8060008114613833576040519150601f19603f3d011682016040523d82523d6000602084013e613838565b606091505b5050905080610cf75760405162461bcd60e51b815260206004820152601c60248201527f6e617469766520746f6b656e207472616e73666572206661696c65640000000060448201526064016108f2565b816001600160a01b0316836001600160a01b0316031561189c57306001600160a01b038416036138c7576123a76001600160a01b0385168383613cbe565b61189c6001600160a01b038516848484613d1d565b600061271082111561393a5760405162461bcd60e51b815260206004820152602160248201527f426173697320706f696e74732063616e6e6f74206578636565642031305f30306044820152600360fc1b60648201526084016108f2565b61271061394783856151f6565b6116989190614d30565b60606109477f672ef851d5f92307da037116e23aa9e31af7e1f7e3ca62c4e6d540631df3fd01613d56565b600081815260008051602061528e83398151915260205260408120805460609291839182917f672ef851d5f92307da037116e23aa9e31af7e1f7e3ca62c4e6d540631df3fd00916139cc90614a78565b80601f01602080910402602001604051908101604052809291908181526020018280546139f890614a78565b8015613a455780601f10613a1a57610100808354040283529160200191613a45565b820191906000526020600020905b815481529060010190602001808311613a2857829003601f168201915b50505060008981526003850160205260409020600181015493985060ff9093169650613a77926002019150613d639050565b9250613a8286613d6e565b9150509193509193565b60008181527f34516f6fe09a043d57f1ff579a303a7ae85314751c77b4eb1a55837604a86e0260205260409020805460609160008051602061526e83398151915291613ad790614a78565b80601f0160208091040260200160405190810160405280929190818152602001828054613b0390614a78565b8015613b505780601f10613b2557610100808354040283529160200191613b50565b820191906000526020600020905b815481529060010190602001808311613b3357829003601f168201915b5050505050915050919050565b60008051602061520e8339815191526000613b76611e35565b60060154604051628956cd60e71b81526c29b830b1b2a7b832b930ba37b960991b60048201526001600160a01b03909116906344ab668090602401602060405180830381865afa158015613bce573d6000803e3d6000fd5b505050506040513d601f19601f82011682018060405250810190613bf29190614bf3565b82546001600160a01b0319166001600160a01b03919091161790915550565b613c1b8383613e72565b6001600160a01b0383163b15610cf7576000613c35611b4c565b5490508281035b613c4f60008683806001019450866132e8565b613c6c576040516368d2bf6b60e11b815260040160405180910390fd5b818110613c3c5781613c7c611b4c565b5414610fbf57600080fd5b60008281526000805160206152ce83398151915260205260409020548015610cf757613cb38382613192565b610cf7610e63610ff3565b6040516001600160a01b03838116602483015260448201839052610cf791859182169063a9059cbb906064015b604051602081830303815290604052915060e01b6020820180516001600160e01b038381831617835250505050613fad565b6040516001600160a01b03848116602483015283811660448301526064820183905261189c9186918216906323b872dd90608401613ceb565b6060600061169883614010565b60606108a58261406c565b600081815260008051602061528e8339815191526020526040812060609190613d9990600401614149565b6001600160401b03811115613db057613db06144e3565b604051908082528060200260200182016040528015613dd9578160200160208202803683370190505b50905060005b600084815260008051602061528e83398151915260205260409020613e0690600401614149565b811015613e6b57600084815260008051602061528e83398151915260205260408120613e359060040183614153565b905080838381518110613e4a57613e4a614aee565b6001600160a01b039092166020928302919091019091015250600101613ddf565b5092915050565b6000613e7c611b4c565b5490506000829003613ea15760405163b562e8dd60e01b815260040160405180910390fd5b680100000000000000018202613eb5611b4c565b6001600160a01b038516600081815260059290920160205260409091208054929092019091554260a01b6001841460e11b1717613ef0611b4c565b600083815260049190910160205260408120919091556001600160a01b0384169083830190839083907fddf252ad1be2c89b69c2b068fc378daa952ba7f163c4a11628f55a4df523b3ef8180a4600183015b818114613f7a57808360007fddf252ad1be2c89b69c2b068fc378daa952ba7f163c4a11628f55a4df523b3ef600080a4600101613f42565b5081600003613f9b57604051622e076360e81b815260040160405180910390fd5b80613fa4611b4c565b5550610cf79050565b6000613fc26001600160a01b0384168361415f565b90508051600014158015613fe7575080806020019051810190613fe59190614b04565b155b15610cf757604051635274afe760e01b81526001600160a01b03841660048201526024016108f2565b60608160000180548060200260200160405190810160405280929190818152602001828054801561406057602002820191906000526020600020905b81548152602001906001019080831161404c575b50505050509050919050565b606081600001805480602002602001604051908101604052809291908181526020016000905b8282101561413e5783829060005260206000200180546140b190614a78565b80601f01602080910402602001604051908101604052809291908181526020018280546140dd90614a78565b801561412a5780601f106140ff5761010080835404028352916020019161412a565b820191906000526020600020905b81548152906001019060200180831161410d57829003601f168201915b505050505081526020019060010190614092565b505050509050919050565b60006108a5825490565b6000611698838361416d565b606061169883836000614197565b600082600001828154811061418457614184614aee565b9060005260206000200154905092915050565b6060814710156141bc5760405163cd78605960e01b81523060048201526024016108f2565b600080856001600160a01b031684866040516141d89190614b21565b60006040518083038185875af1925050503d8060008114614215576040519150601f19603f3d011682016040523d82523d6000602084013e61421a565b606091505b509150915061352c86838360608261423a5761423582614281565b611698565b815115801561425157506001600160a01b0384163b155b1561427a57604051639996b31560e01b81526001600160a01b03851660048201526024016108f2565b5080611698565b8051156142915780518082602001fd5b604051630a12f52160e11b815260040160405180910390fd5b508054600082559060005260206000209081019061109b91906142e6565b508054600082559060005260206000209081019061109b9190614309565b5b808211156143055780546001600160a81b03191681556001016142e7565b5090565b5b80821115614305576000815560010161430a565b60005b83811015614339578181015183820152602001614321565b50506000910152565b6000815180845261435a81602086016020860161431e565b601f01601f19169290920160200192915050565b6020815260006116986020830184614342565b60006020828403121561439357600080fd5b5035919050565b6001600160a01b038116811461109b57600080fd5b80356143ba8161439a565b919050565b600080604083850312156143d257600080fd5b82356143dd8161439a565b946020939093013593505050565b600080602083850312156143fe57600080fd5b82356001600160401b038082111561441557600080fd5b818501915085601f83011261442957600080fd5b81358181111561443857600080fd5b86602082850101111561444a57600080fd5b60209290920196919550909350505050565b60008060006060848603121561447157600080fd5b833561447c8161439a565b9250602084013561448c8161439a565b929592945050506040919091013590565b6003811061109b57600080fd5b6000806000606084860312156144bf57600080fd5b833592506020840135915060408401356144d88161449d565b809150509250925092565b634e487b7160e01b600052604160045260246000fd5b60405161012081016001600160401b038111828210171561451c5761451c6144e3565b60405290565b604051608081016001600160401b038111828210171561451c5761451c6144e3565b604051606081016001600160401b038111828210171561451c5761451c6144e3565b604080519081016001600160401b038111828210171561451c5761451c6144e3565b604051601f8201601f191681016001600160401b03811182821017156145b0576145b06144e3565b604052919050565b60006001600160401b038311156145d1576145d16144e3565b6145e4601f8401601f1916602001614588565b90508281528383830111156145f857600080fd5b828260208301376000602084830101529392505050565b600082601f83011261462057600080fd5b611698838335602085016145b8565b6001600160401b038116811461109b57600080fd5b80356143ba8161462f565b6000806040838503121561466257600080fd5b82356001600160401b038082111561467957600080fd5b90840190610120828703121561468e57600080fd5b6146966144f9565b8235828111156146a557600080fd5b6146b18882860161460f565b8252506020830135828111156146c657600080fd5b6146d28882860161460f565b60208301525060408301356040820152606083013560608201526146f860808401614644565b608082015261470960a084016143af565b60a082015261471a60c084016143af565b60c082015260e083013560e082015261010091506147398284016143af565b8282015280945050505061474f602084016143af565b90509250929050565b60006020828403121561476a57600080fd5b81356116988161439a565b6000806040838503121561478857600080fd5b50508035926020909101359150565b634e487b7160e01b600052602160045260246000fd5b6003811061109b5761109b614797565b60008151808452602080850194506020840160005b838110156148275781518051600681106147ee576147ee614797565b885280840151848901526040808201516001600160a01b03169089015260609081015190880152608090960195908201906001016147d2565b509495945050505050565b60008151808452602080850194506020840160005b83811015614827578151805161485c816147ad565b88528084015160ff908116858a0152604091820151169088015260609096019590820190600101614847565b6020808252825160608383015280516080840181905260009291820190839060a08601905b808310156148e457835180516148c2816147ad565b835285015160ff168583015292840192600192909201916040909101906148ad565b50838701519350601f1992508286820301604087015261490481856147bd565b9350505060408501518185840301606086015261352c8382614832565b801515811461109b57600080fd5b6000806040838503121561494257600080fd5b823561494d8161439a565b9150602083013561495d81614921565b809150509250929050565b6000806000806080858703121561497e57600080fd5b84356149898161439a565b935060208501356149998161439a565b92506040850135915060608501356001600160401b038111156149bb57600080fd5b8501601f810187136149cc57600080fd5b6149db878235602084016145b8565b91505092959194509250565b600080604083850312156149fa57600080fd5b82356001600160401b0380821115614a1157600080fd5b614a1d8683870161460f565b93506020850135915080821115614a3357600080fd5b50614a408582860161460f565b9150509250929050565b60008060408385031215614a5d57600080fd5b8235614a688161439a565b9150602083013561495d8161439a565b600181811c90821680614a8c57607f821691505b602082108103611ded57634e487b7160e01b600052602260045260246000fd5b600060208284031215614abe57600080fd5b5051919050565b634e487b7160e01b600052601160045260246000fd5b818103818111156108a5576108a5614ac5565b634e487b7160e01b600052603260045260246000fd5b600060208284031215614b1657600080fd5b815161169881614921565b60008251614b3381846020870161431e565b9190910192915050565b80516020808301519190811015611ded5760001960209190910360031b1b16919050565b60008151808452602080850194506020840160005b838110156148275781516001600160a01b031687529582019590820190600101614b76565b838152606060208201526000614bb46060830185614b61565b9050826040830152949350505050565b60008351614bd681846020880161431e565b835190830190614bea81836020880161431e565b01949350505050565b600060208284031215614c0557600080fd5b81516116988161439a565b601f821115610cf7576000816000526020600020601f850160051c81016020861015614c395750805b601f850160051c820191505b81811015610b4557828155600101614c45565b81516001600160401b03811115614c7157614c716144e3565b614c8581614c7f8454614a78565b84614c10565b602080601f831160018114614cba5760008415614ca25750858301515b600019600386901b1c1916600185901b178555610b45565b600085815260208120601f198616915b82811015614ce957888601518255948401946001909101908401614cca565b5085821015614d075787850151600019600388901b60f8161c191681555b5050505050600190811b01905550565b600060018201614d2957614d29614ac5565b5060010190565b600082614d4d57634e487b7160e01b600052601260045260246000fd5b500490565b60208101614d5f836147ad565b91905290565b600060208284031215614d7757600080fd5b81516116988161462f565b600060208284031215614d9457600080fd5b815161ffff8116811461169857600080fd5b808201808211156108a5576108a5614ac5565b6001600160401b03818116838216019080821115613e6b57613e6b614ac5565b60008060408385031215614dec57600080fd5b8251614df78161439a565b602084015190925061495d8161439a565b60006001600160401b03821115614e2157614e216144e3565b5060051b60200190565b60006020808385031215614e3e57600080fd5b82516001600160401b03811115614e5457600080fd5b8301601f81018513614e6557600080fd5b8051614e78614e7382614e08565b614588565b81815260059190911b82018301908381019087831115614e9757600080fd5b928401925b828410156132bc578351614eaf8161439a565b82529284019290840190614e9c565b60018060a01b038516815283602082015282604082015260806060820152600061352c6080830184614b61565b805160ff811681146143ba57600080fd5b600082601f830112614f0d57600080fd5b81516020614f1d614e7383614e08565b82815260079290921b84018101918181019086841115614f3c57600080fd5b8286015b84811015614fa65760808189031215614f595760008081fd5b614f61614522565b815160068110614f715760008081fd5b81528185015185820152604080830151614f8a8161439a565b9082015260608281015190820152835291830191608001614f40565b509695505050505050565b600082601f830112614fc257600080fd5b81516020614fd2614e7383614e08565b82815260609283028501820192828201919087851115614ff157600080fd5b8387015b8581101561504f5781818a03121561500d5760008081fd5b615015614544565b81516150208161449d565b815261502d828701614eeb565b86820152604061503e818401614eeb565b908201528452928401928101614ff5565b5090979650505050505050565b6000602080838503121561506f57600080fd5b82516001600160401b038082111561508657600080fd5b908401906060828703121561509a57600080fd5b6150a2614544565b8251828111156150b157600080fd5b8301601f810188136150c257600080fd5b80516150d0614e7382614e08565b81815260069190911b8201860190868101908a8311156150ef57600080fd5b928701925b82841015615143576040848c03121561510d5760008081fd5b615115614566565b84516151208161449d565b815261512d858a01614eeb565b818a0152825260409390930192908701906150f4565b8452505050828401518281111561515957600080fd5b61516588828601614efc565b8583015250604083015193508184111561517e57600080fd5b61518a87858501614fb1565b60408201529695505050505050565b6001600160a01b038581168252841660208201526040810183905260806060820181905260009061352c90830184614342565b6000602082840312156151de57600080fd5b81516001600160e01b03198116811461169857600080fd5b80820281158282048414176108a5576108a5614ac556fe9075c515a635ba70c9696f31149324218d75cf00afe836c482e6473f38b19e009075c515a635ba70c9696f31149324218d75cf00afe836c482e6473f38b19e0154f22f54f370bd020e00ee80e1a5099a71652e2ccbcf6a75281e4c70a3e11a0034516f6fe09a043d57f1ff579a303a7ae85314751c77b4eb1a55837604a86e00672ef851d5f92307da037116e23aa9e31af7e1f7e3ca62c4e6d540631df3fd0359b501c3653afc186af7d48dda36cf6732bd21629a6295693664240a6ef5200034516f6fe09a043d57f1ff579a303a7ae85314751c77b4eb1a55837604a86e01","linkReferences":{}},"methodIdentifiers":{"__ERC721A_init(string,string)":"d2f01f19","__EntitlementGated_init(address)":"7adc9cbe","__Membership_init((string,string,uint256,uint256,uint64,address,address,uint256,address),address)":"4c2abfbe","_getMembershipCurrency()":"70251563","_getMembershipFreeAllocation()":"b3a5be6d","_getMembershipImage()":"d33d9345","_getMembershipPrice(uint256)":"3ded10de","_getMembershipSupplyLimit()":"8934207f","_getPricingModule()":"ac7ee626","_getSpaceFactory()":"77460cd3","_setMembershipFreeAllocation(uint256)":"f9d5d22c","_setMembershipSupplyLimit(uint256)":"73fc5a05","_setPricingModule(address)":"69d9346b","approve(address,uint256)":"095ea7b3","balanceOf(address)":"70a08231","expiresAt(uint256)":"17c95709","getApproved(uint256)":"081812fc","getMembershipCurrency()":"657e45e8","getMembershipDuration()":"8120f0ba","getMembershipFreeAllocation()":"706b8e09","getMembershipImage()":"93b13cb7","getMembershipLimit()":"95d600c8","getMembershipPrice()":"1278076a","getMembershipPricingModule()":"e847abdd","getMembershipRenewalPrice(uint256)":"5803909f","getRuleData(bytes32,uint256)":"92c399ff","getSpaceFactory()":"79dda585","isApprovedForAll(address,address)":"e985e9c5","joinSpace(address)":"8c625b06","joinSpaceWithReferral(address,address,uint256)":"c9f7c833","name()":"06fdde03","ownerOf(uint256)":"6352211e","postEntitlementCheckResult(bytes32,uint256,uint8)":"4739e805","renewMembership(uint256)":"7c9669ac","safeTransferFrom(address,address,uint256)":"42842e0e","safeTransferFrom(address,address,uint256,bytes)":"b88d4fde","setApprovalForAll(address,bool)":"a22cb465","setMembershipFreeAllocation(uint256)":"5becd24a","setMembershipImage(string)":"0ef1be5f","setMembershipLimit(uint256)":"97fb7c1e","setMembershipPrice(uint256)":"69d5f38a","setMembershipPricingModule(address)":"df9a9fe6","symbol()":"95d89b41","tokenURI(uint256)":"c87b56dd","totalSupply()":"18160ddd","transferFrom(address,address,uint256)":"23b872dd","withdraw(address)":"51cff8d9"},"id":211}