{"abi":[{"type":"constructor","inputs":[{"name":"checker","type":"address","internalType":"contract IEntitlementChecker"}],"stateMutability":"nonpayable"},{"type":"function","name":"__EntitlementGated_init","inputs":[{"name":"entitlementChecker","type":"address","internalType":"contract IEntitlementChecker"}],"outputs":[],"stateMutability":"nonpayable"},{"type":"function","name":"getRuleData","inputs":[{"name":"roleId","type":"uint256","internalType":"uint256"}],"outputs":[{"name":"","type":"tuple","internalType":"struct IRuleEntitlement.RuleData","components":[{"name":"operations","type":"tuple[]","internalType":"struct IRuleEntitlement.Operation[]","components":[{"name":"opType","type":"uint8","internalType":"enum IRuleEntitlement.CombinedOperationType"},{"name":"index","type":"uint8","internalType":"uint8"}]},{"name":"checkOperations","type":"tuple[]","internalType":"struct IRuleEntitlement.CheckOperation[]","components":[{"name":"opType","type":"uint8","internalType":"enum IRuleEntitlement.CheckOperationType"},{"name":"chainId","type":"uint256","internalType":"uint256"},{"name":"contractAddress","type":"address","internalType":"address"},{"name":"threshold","type":"uint256","internalType":"uint256"}]},{"name":"logicalOperations","type":"tuple[]","internalType":"struct IRuleEntitlement.LogicalOperation[]","components":[{"name":"logOpType","type":"uint8","internalType":"enum IRuleEntitlement.LogicalOperationType"},{"name":"leftOperationIndex","type":"uint8","internalType":"uint8"},{"name":"rightOperationIndex","type":"uint8","internalType":"uint8"}]}]}],"stateMutability":"view"},{"type":"function","name":"getRuleData","inputs":[{"name":"transactionId","type":"bytes32","internalType":"bytes32"},{"name":"roleId","type":"uint256","internalType":"uint256"}],"outputs":[{"name":"","type":"tuple","internalType":"struct IRuleEntitlement.RuleData","components":[{"name":"operations","type":"tuple[]","internalType":"struct IRuleEntitlement.Operation[]","components":[{"name":"opType","type":"uint8","internalType":"enum IRuleEntitlement.CombinedOperationType"},{"name":"index","type":"uint8","internalType":"uint8"}]},{"name":"checkOperations","type":"tuple[]","internalType":"struct IRuleEntitlement.CheckOperation[]","components":[{"name":"opType","type":"uint8","internalType":"enum IRuleEntitlement.CheckOperationType"},{"name":"chainId","type":"uint256","internalType":"uint256"},{"name":"contractAddress","type":"address","internalType":"address"},{"name":"threshold","type":"uint256","internalType":"uint256"}]},{"name":"logicalOperations","type":"tuple[]","internalType":"struct IRuleEntitlement.LogicalOperation[]","components":[{"name":"logOpType","type":"uint8","internalType":"enum IRuleEntitlement.LogicalOperationType"},{"name":"leftOperationIndex","type":"uint8","internalType":"uint8"},{"name":"rightOperationIndex","type":"uint8","internalType":"uint8"}]}]}],"stateMutability":"view"},{"type":"function","name":"postEntitlementCheckResult","inputs":[{"name":"transactionId","type":"bytes32","internalType":"bytes32"},{"name":"roleId","type":"uint256","internalType":"uint256"},{"name":"result","type":"uint8","internalType":"enum IEntitlementGatedBase.NodeVoteStatus"}],"outputs":[],"stateMutability":"nonpayable"},{"type":"function","name":"requestEntitlementCheck","inputs":[{"name":"roleId","type":"uint256","internalType":"uint256"},{"name":"ruleData","type":"tuple","internalType":"struct IRuleEntitlement.RuleData","components":[{"name":"operations","type":"tuple[]","internalType":"struct IRuleEntitlement.Operation[]","components":[{"name":"opType","type":"uint8","internalType":"enum IRuleEntitlement.CombinedOperationType"},{"name":"index","type":"uint8","internalType":"uint8"}]},{"name":"checkOperations","type":"tuple[]","internalType":"struct IRuleEntitlement.CheckOperation[]","components":[{"name":"opType","type":"uint8","internalType":"enum IRuleEntitlement.CheckOperationType"},{"name":"chainId","type":"uint256","internalType":"uint256"},{"name":"contractAddress","type":"address","internalType":"address"},{"name":"threshold","type":"uint256","internalType":"uint256"}]},{"name":"logicalOperations","type":"tuple[]","internalType":"struct IRuleEntitlement.LogicalOperation[]","components":[{"name":"logOpType","type":"uint8","internalType":"enum IRuleEntitlement.LogicalOperationType"},{"name":"leftOperationIndex","type":"uint8","internalType":"uint8"},{"name":"rightOperationIndex","type":"uint8","internalType":"uint8"}]}]}],"outputs":[{"name":"","type":"bytes32","internalType":"bytes32"}],"stateMutability":"nonpayable"},{"type":"event","name":"EntitlementCheckResultPosted","inputs":[{"name":"transactionId","type":"bytes32","indexed":true,"internalType":"bytes32"},{"name":"result","type":"uint8","indexed":false,"internalType":"enum IEntitlementGatedBase.NodeVoteStatus"}],"anonymous":false},{"type":"event","name":"Initialized","inputs":[{"name":"version","type":"uint32","indexed":false,"internalType":"uint32"}],"anonymous":false},{"type":"event","name":"InterfaceAdded","inputs":[{"name":"interfaceId","type":"bytes4","indexed":true,"internalType":"bytes4"}],"anonymous":false},{"type":"event","name":"InterfaceRemoved","inputs":[{"name":"interfaceId","type":"bytes4","indexed":true,"internalType":"bytes4"}],"anonymous":false},{"type":"error","name":"EntitlementGated_InvalidAddress","inputs":[]},{"type":"error","name":"EntitlementGated_NodeAlreadyVoted","inputs":[]},{"type":"error","name":"EntitlementGated_NodeNotFound","inputs":[]},{"type":"error","name":"EntitlementGated_TransactionCheckAlreadyCompleted","inputs":[]},{"type":"error","name":"EntitlementGated_TransactionCheckAlreadyRegistered","inputs":[]},{"type":"error","name":"EntitlementGated_TransactionNotRegistered","inputs":[]},{"type":"error","name":"Initializable_InInitializingState","inputs":[]},{"type":"error","name":"Initializable_NotInInitializingState","inputs":[]},{"type":"error","name":"Introspection_AlreadySupported","inputs":[]},{"type":"error","name":"Introspection_NotSupported","inputs":[]},{"type":"error","name":"ReentrancyGuard__ReentrantCall","inputs":[]}],"bytecode":{"object":"0x60806040523480156200001157600080fd5b5060405162001b9a38038062001b9a833981016040819052620000349162000127565b6200003e6200007f565b7f9075c515a635ba70c9696f31149324218d75cf00afe836c482e6473f38b19e0080546001600160a01b0319166001600160a01b0383161790555062000159565b7f59b501c3653afc186af7d48dda36cf6732bd21629a6295693664240a6ef520008054640100000000900460ff1615620000cc576040516366008a2d60e01b815260040160405180910390fd5b805463ffffffff90811610156200012457805463ffffffff191663ffffffff90811782556040519081527fe9c9b456cb2994b80aeef036cf59d26e9617df80f816a6ee5a5b4166e07e2f5c9060200160405180910390a15b50565b6000602082840312156200013a57600080fd5b81516001600160a01b03811681146200015257600080fd5b9392505050565b611a3180620001696000396000f3fe608060405234801561001057600080fd5b50600436106100575760003560e01c8063069a3ee91461005c5780634739e8051461008557806357e700271461009a5780637adc9cbe146100bb57806392c399ff146100ce575b600080fd5b61006f61006a366004610e1e565b6100e1565b60405161007c9190610f28565b60405180910390f35b610098610093366004610fd8565b610314565b005b6100ad6100a8366004611011565b6103b8565b60405190815260200161007c565b6100986100c9366004611074565b610426565b61006f6100dc366004611091565b61047c565b61010560405180606001604052806060815260200160608152602001606081525090565b6000828152602081815260408083208151815460809481028201850190935260608101838152909491938593919285929185015b828210156101a257600084815260209020604080518082019091529083018054829060ff16600281111561016f5761016f610e37565b600281111561018057610180610e37565b81529054610100900460ff166020918201529082526001929092019101610139565b50505050815260200160018201805480602002602001604051908101604052809291908181526020016000905b8282101561025a576000848152602090206040805160808101909152600484029091018054829060ff16600581111561020a5761020a610e37565b600581111561021b5761021b610e37565b815260018281015460208084019190915260028401546001600160a01b03166040840152600390930154606090920191909152918352920191016101cf565b50505050815260200160028201805480602002602001604051908101604052809291908181526020016000905b828210156103065760008481526020902060408051606081019091529083018054829060ff1660028111156102be576102be610e37565b60028111156102cf576102cf610e37565b8152905460ff6101008204811660208085019190915262010000909204166040909201919091529082526001929092019101610287565b505050915250909392505050565b60027f54f22f54f370bd020e00ee80e1a5099a71652e2ccbcf6a75281e4c70a3e11a00540361035657604051635db5c7cd60e11b815260040160405180910390fd5b61037f60027f54f22f54f370bd020e00ee80e1a5099a71652e2ccbcf6a75281e4c70a3e11a0055565b61038a8383836104aa565b6103b360017f54f22f54f370bd020e00ee80e1a5099a71652e2ccbcf6a75281e4c70a3e11a0055565b505050565b600082815260208190526040812082906103d2828261140a565b50506040516bffffffffffffffffffffffff193260601b16602082015243603482015260009060540160405160208183030381529060405280519060200120905061041f81306000610743565b9392505050565b7f59b501c3653afc186af7d48dda36cf6732bd21629a6295693664240a6ef5200054640100000000900460ff1661047057604051630ef4733760e31b815260040160405180910390fd5b610479816109f2565b50565b6104a060405180606001604052806060815260200160608152602001606081525090565b61041f8383610a2d565b6000838152600080516020611a118339815191526020526040902080546000805160206119f1833981519152919061010090046001600160a01b031615806104f45750805460ff16155b1561051257604051637ad5a43960e11b815260040160405180910390fd5b600084815260028201602052604090205460ff161561054457604051637912b73960e01b815260040160405180910390fd5b600084815260018201602052604081205481908190815b8181101561068257600089815260018701602052604081208054839081106105855761058561150e565b60009182526020909120018054909150336001600160a01b03909116036106115760008154600160a01b900460ff1660028111156105c5576105c5610e37565b146105e3576040516347592a4d60e01b815260040160405180910390fd5b80548990829060ff60a01b1916600160a01b83600281111561060757610607610e37565b0217905550600195505b60018154600160a01b900460ff16600281111561063057610630610e37565b03610647578461063f81611524565b955050610679565b60028154600160a01b900460ff16600281111561066657610666610e37565b03610679578361067581611524565b9450505b5060010161055b565b50836106a157604051638223a7e960e01b815260040160405180910390fd5b6106ac60028261153d565b8311806106c257506106bf60028261153d565b82115b156107385760008881526002860160205260408120805460ff191660011790558284116106f05760026106f3565b60015b9050897fb9d6ce397e562841871d119aaf77469c60a3b5bf8b99a5d9851656015015c63382604051610725919061155f565b60405180910390a26107368a610b27565b505b505050505050505050565b6000838152600080516020611a118339815191526020526040902080546000805160206119f1833981519152919060ff1615156001036107d55760005b60048201548110156107d357838260040182815481106107a2576107a261150e565b9060005260206000200154036107cb576040516301ab53df60e31b815260040160405180910390fd5b600101610780565b505b81546001600160a01b03166107ec576107ec610bfb565b8154604051634f84544560e01b8152600560048201526000916001600160a01b031690634f84544590602401600060405180830381865afa158015610835573d6000803e3d6000fd5b505050506040513d6000823e601f3d908101601f1916820160405261085d9190810190611636565b825490915060ff1661089e5781546003830180546001600160a01b0319166001600160a01b0388161790556001600160a81b03191661010033021760011782555b600482018054600181018255600091825260208220018590555b815181101561098e5782600101600086815260200190815260200160002060405180604001604052808484815181106108f3576108f361150e565b60200260200101516001600160a01b031681526020016000600281111561091c5761091c610e37565b9052815460018101835560009283526020928390208251910180546001600160a01b031981166001600160a01b03909316928317825593830151929390929183916001600160a81b03191617600160a01b83600281111561097f5761097f610e37565b021790555050506001016108b8565b50825460405163541da4e560e01b81526001600160a01b039091169063541da4e5906109c49033908a90899087906004016116ca565b600060405180830381600087803b1580156109de57600080fd5b505af1158015610736573d6000803e3d6000fd5b610a02636afd38fd60e11b610ccc565b6000805160206119f183398151915280546001600160a01b0319166001600160a01b03831617905550565b610a5160405180606001604052806060815260200160608152602001606081525090565b6000838152600080516020611a118339815191526020526040812080546000805160206119f18339815191529260ff90911615159003610aa457604051637ad5a43960e11b815260040160405180910390fd5b600381015460405163069a3ee960e01b8152600481018690526001600160a01b0390911690600090829063069a3ee990602401600060405180830381865afa158015610af4573d6000803e3d6000fd5b505050506040513d6000823e601f3d908101601f19168201604052610b1c9190810190611893565b979650505050505050565b6000818152600080516020611a11833981519152602052604081206000805160206119f1833981519152915b6004820154811015610ba757816001016000836004018381548110610b7a57610b7a61150e565b906000526020600020015481526020019081526020016000206000610b9f9190610daa565b600101610b53565b50610bb6600482016000610dc8565b6000838152600183016020526040812080546001600160a81b03191681556003810180546001600160a01b031916905590610bf46004830182610dc8565b5050505050565b60006000805160206119f1833981519152905060007fc21004fcc619240a31f006438274d15cd813308303284436eef6055f0fdcb60060060154604051628956cd60e71b81526c29b830b1b2a7b832b930ba37b960991b60048201526001600160a01b03909116906344ab668090602401602060405180830381865afa158015610c89573d6000803e3d6000fd5b505050506040513d601f19601f82011682018060405250810190610cad91906119d3565b82546001600160a01b0319166001600160a01b03919091161790915550565b6001600160e01b0319811660009081527f81088bbc801e045ea3e7620779ab349988f58afbdfba10dff983df3f33522b00602052604090205460ff161515600114610d59576001600160e01b0319811660009081527f81088bbc801e045ea3e7620779ab349988f58afbdfba10dff983df3f33522b0060205260409020805460ff19166001179055610d72565b604051637967f77d60e11b815260040160405180910390fd5b6040516001600160e01b03198216907f78f84e5b1c5c05be2b5ad3800781dd404d6d6c6302bc755c0fe20f58a33a7f2290600090a250565b50805460008255906000526020600020908101906104799190610de6565b50805460008255906000526020600020908101906104799190610e09565b5b80821115610e055780546001600160a81b0319168155600101610de7565b5090565b5b80821115610e055760008155600101610e0a565b600060208284031215610e3057600080fd5b5035919050565b634e487b7160e01b600052602160045260246000fd5b6003811061047957610479610e37565b60008151808452602080850194506020840160005b83811015610ec7578151805160068110610e8e57610e8e610e37565b885280840151848901526040808201516001600160a01b0316908901526060908101519088015260809096019590820190600101610e72565b509495945050505050565b60008151808452602080850194506020840160005b83811015610ec75781518051610efc81610e4d565b88528084015160ff908116858a0152604091820151169088015260609096019590820190600101610ee7565b6020808252825160608383015280516080840181905260009291820190839060a08601905b80831015610f845783518051610f6281610e4d565b835285015160ff16858301529284019260019290920191604090910190610f4d565b50838701519350601f19925082868203016040870152610fa48185610e5d565b93505050604085015181858403016060860152610fc18382610ed2565b9695505050505050565b6003811061047957600080fd5b600080600060608486031215610fed57600080fd5b8335925060208401359150604084013561100681610fcb565b809150509250925092565b6000806040838503121561102457600080fd5b82359150602083013567ffffffffffffffff81111561104257600080fd5b83016060818603121561105457600080fd5b809150509250929050565b6001600160a01b038116811461047957600080fd5b60006020828403121561108657600080fd5b813561041f8161105f565b600080604083850312156110a457600080fd5b50508035926020909101359150565b634e487b7160e01b600052604160045260246000fd5b634e487b7160e01b600052601160045260246000fd5b60ff8116811461047957600080fd5b81356110f981610fcb565b61110281610e4d565b60ff1982541660ff82168117835550506020820135611120816110df565b815461ff001916600882901b61ff0016178255505050565b6000808335601e1984360301811261114f57600080fd5b83018035915067ffffffffffffffff82111561116a57600080fd5b6020019150600781901b360382131561118257600080fd5b9250929050565b6006811061047957600080fd5b81356111a181611189565b600681106111b1576111b1610e37565b60ff1982541660ff8216811783555050602082013560018201556002810160408301356111dd8161105f565b81546001600160a01b0319166001600160a01b03919091161790556060919091013560039190910155565b600160401b83111561121c5761121c6110b3565b80548382558084101561129a5760026001600160fe1b038281168314611244576112446110c9565b8086168614611255576112556110c9565b506000838152602081208360021b81018760021b820191505b8082101561129557828255826001830155828483015582600383015560048201915061126e565b505050505b5060008181526020812083915b858110156112cf576112b98383611196565b60809290920191600491909101906001016112a7565b505050505050565b6000808335601e198436030181126112ee57600080fd5b83018035915067ffffffffffffffff82111561130957600080fd5b602001915060608102360382131561118257600080fd5b813561132b81610fcb565b61133481610e4d565b60ff1982541660ff82168117835550506020820135611352816110df565b815461ff001916600882901b61ff0016178255506040820135611374816110df565b815462ff0000191660109190911b62ff00001617905550565b600160401b8311156113a1576113a16110b3565b8054838255808410156113d8576000828152602081208581019083015b808210156113d4578282556001820191506113be565b5050505b5060008181526020812083915b858110156112cf576113f78383611320565b60609290920191600191820191016113e5565b8135601e1983360301811261141e57600080fd5b8201803567ffffffffffffffff81111561143757600080fd5b6020820191508060061b360382131561144f57600080fd5b600160401b811115611463576114636110b3565b82548184558082101561149a576000848152602081208381019083015b8082101561149657828255600182019150611480565b5050505b5060008381526020902060005b828110156114cc576114b984836110ee565b60409390930192600191820191016114a7565b505050506114dd6020830183611138565b6114eb818360018601611208565b50506114fa60408301836112d7565b61150881836002860161138d565b50505050565b634e487b7160e01b600052603260045260246000fd5b600060018201611536576115366110c9565b5060010190565b60008261155a57634e487b7160e01b600052601260045260246000fd5b500490565b6020810161156c83610e4d565b91905290565b6040516080810167ffffffffffffffff81118282101715611595576115956110b3565b60405290565b6040516060810167ffffffffffffffff81118282101715611595576115956110b3565b6040805190810167ffffffffffffffff81118282101715611595576115956110b3565b604051601f8201601f1916810167ffffffffffffffff8111828210171561160a5761160a6110b3565b604052919050565b600067ffffffffffffffff82111561162c5761162c6110b3565b5060051b60200190565b6000602080838503121561164957600080fd5b825167ffffffffffffffff81111561166057600080fd5b8301601f8101851361167157600080fd5b805161168461167f82611612565b6115e1565b81815260059190911b820183019083810190878311156116a357600080fd5b928401925b82841015610b1c5783516116bb8161105f565b825292840192908401906116a8565b60006080820160018060a01b03808816845260208760208601528660408601526080606086015282865180855260a08701915060208801945060005b81811015611724578551851683529483019491830191600101611706565b50909a9950505050505050505050565b600082601f83011261174557600080fd5b8151602061175561167f83611612565b82815260079290921b8401810191818101908684111561177457600080fd5b8286015b848110156117d957608081890312156117915760008081fd5b611799611572565b81516117a481611189565b815281850151858201526040808301516117bd8161105f565b9082015260608281015190820152835291830191608001611778565b509695505050505050565b600082601f8301126117f557600080fd5b8151602061180561167f83611612565b8281526060928302850182019282820191908785111561182457600080fd5b8387015b858110156118865781818a0312156118405760008081fd5b61184861159b565b815161185381610fcb565b815281860151611862816110df565b81870152604082810151611875816110df565b908201528452928401928101611828565b5090979650505050505050565b600060208083850312156118a657600080fd5b825167ffffffffffffffff808211156118be57600080fd5b90840190606082870312156118d257600080fd5b6118da61159b565b8251828111156118e957600080fd5b8301601f810188136118fa57600080fd5b805161190861167f82611612565b81815260069190911b8201860190868101908a83111561192757600080fd5b928701925b8284101561197d576040848c0312156119455760008081fd5b61194d6115be565b845161195881610fcb565b815284890151611967816110df565b818a01528252604093909301929087019061192c565b8452505050828401518281111561199357600080fd5b61199f88828601611734565b858301525060408301519350818411156119b857600080fd5b6119c4878585016117e4565b60408201529695505050505050565b6000602082840312156119e557600080fd5b815161041f8161105f56fe9075c515a635ba70c9696f31149324218d75cf00afe836c482e6473f38b19e009075c515a635ba70c9696f31149324218d75cf00afe836c482e6473f38b19e01","linkReferences":{}},"methodIdentifiers":{"__EntitlementGated_init(address)":"7adc9cbe","getRuleData(bytes32,uint256)":"92c399ff","getRuleData(uint256)":"069a3ee9","postEntitlementCheckResult(bytes32,uint256,uint8)":"4739e805","requestEntitlementCheck(uint256,((uint8,uint8)[],(uint8,uint256,address,uint256)[],(uint8,uint8,uint8)[]))":"57e70027"},"id":247}