{"abi":[{"type":"function","name":"__Architect_init","inputs":[],"outputs":[],"stateMutability":"nonpayable"},{"type":"function","name":"createSpace","inputs":[{"name":"spaceInfo","type":"tuple","internalType":"struct ILegacyArchitectBase.SpaceInfo","components":[{"name":"name","type":"string","internalType":"string"},{"name":"uri","type":"string","internalType":"string"},{"name":"shortDescription","type":"string","internalType":"string"},{"name":"longDescription","type":"string","internalType":"string"},{"name":"membership","type":"tuple","internalType":"struct ILegacyArchitectBase.Membership","components":[{"name":"settings","type":"tuple","internalType":"struct IMembershipBase.Membership","components":[{"name":"name","type":"string","internalType":"string"},{"name":"symbol","type":"string","internalType":"string"},{"name":"price","type":"uint256","internalType":"uint256"},{"name":"maxSupply","type":"uint256","internalType":"uint256"},{"name":"duration","type":"uint64","internalType":"uint64"},{"name":"currency","type":"address","internalType":"address"},{"name":"feeRecipient","type":"address","internalType":"address"},{"name":"freeAllocation","type":"uint256","internalType":"uint256"},{"name":"pricingModule","type":"address","internalType":"address"}]},{"name":"requirements","type":"tuple","internalType":"struct ILegacyArchitectBase.MembershipRequirements","components":[{"name":"everyone","type":"bool","internalType":"bool"},{"name":"users","type":"address[]","internalType":"address[]"},{"name":"ruleData","type":"tuple","internalType":"struct IRuleEntitlementBase.RuleData","components":[{"name":"operations","type":"tuple[]","internalType":"struct IRuleEntitlementBase.Operation[]","components":[{"name":"opType","type":"uint8","internalType":"enum IRuleEntitlementBase.CombinedOperationType"},{"name":"index","type":"uint8","internalType":"uint8"}]},{"name":"checkOperations","type":"tuple[]","internalType":"struct IRuleEntitlementBase.CheckOperation[]","components":[{"name":"opType","type":"uint8","internalType":"enum IRuleEntitlementBase.CheckOperationType"},{"name":"chainId","type":"uint256","internalType":"uint256"},{"name":"contractAddress","type":"address","internalType":"address"},{"name":"threshold","type":"uint256","internalType":"uint256"}]},{"name":"logicalOperations","type":"tuple[]","internalType":"struct IRuleEntitlementBase.LogicalOperation[]","components":[{"name":"logOpType","type":"uint8","internalType":"enum IRuleEntitlementBase.LogicalOperationType"},{"name":"leftOperationIndex","type":"uint8","internalType":"uint8"},{"name":"rightOperationIndex","type":"uint8","internalType":"uint8"}]}]},{"name":"syncEntitlements","type":"bool","internalType":"bool"}]},{"name":"permissions","type":"string[]","internalType":"string[]"}]},{"name":"channel","type":"tuple","internalType":"struct ILegacyArchitectBase.ChannelInfo","components":[{"name":"metadata","type":"string","internalType":"string"}]}]}],"outputs":[{"name":"","type":"address","internalType":"address"}],"stateMutability":"nonpayable"},{"type":"event","name":"Initialized","inputs":[{"name":"version","type":"uint32","indexed":false,"internalType":"uint32"}],"anonymous":false},{"type":"event","name":"InterfaceAdded","inputs":[{"name":"interfaceId","type":"bytes4","indexed":true,"internalType":"bytes4"}],"anonymous":false},{"type":"event","name":"InterfaceRemoved","inputs":[{"name":"interfaceId","type":"bytes4","indexed":true,"internalType":"bytes4"}],"anonymous":false},{"type":"event","name":"Paused","inputs":[{"name":"account","type":"address","indexed":false,"internalType":"address"}],"anonymous":false},{"type":"event","name":"SpaceCreated","inputs":[{"name":"owner","type":"address","indexed":true,"internalType":"address"},{"name":"tokenId","type":"uint256","indexed":true,"internalType":"uint256"},{"name":"space","type":"address","indexed":true,"internalType":"address"}],"anonymous":false},{"type":"event","name":"Unpaused","inputs":[{"name":"account","type":"address","indexed":false,"internalType":"address"}],"anonymous":false},{"type":"error","name":"Architect__InvalidAddress","inputs":[]},{"type":"error","name":"Architect__InvalidNetworkId","inputs":[]},{"type":"error","name":"Architect__InvalidStringLength","inputs":[]},{"type":"error","name":"Architect__NotContract","inputs":[]},{"type":"error","name":"Factory__FailedDeployment","inputs":[]},{"type":"error","name":"Initializable_InInitializingState","inputs":[]},{"type":"error","name":"Initializable_NotInInitializingState","inputs":[]},{"type":"error","name":"Introspection_AlreadySupported","inputs":[]},{"type":"error","name":"Introspection_NotSupported","inputs":[]},{"type":"error","name":"Pausable__NotPaused","inputs":[]},{"type":"error","name":"Pausable__Paused","inputs":[]},{"type":"error","name":"Reentrancy","inputs":[]},{"type":"error","name":"Validator__InvalidAddress","inputs":[]}],"bytecode":{"object":"0x608060405234801561001057600080fd5b5061001961001e565b6100c4565b7f59b501c3653afc186af7d48dda36cf6732bd21629a6295693664240a6ef520008054640100000000900460ff161561006a576040516366008a2d60e01b815260040160405180910390fd5b805463ffffffff90811610156100c157805463ffffffff191663ffffffff90811782556040519081527fe9c9b456cb2994b80aeef036cf59d26e9617df80f816a6ee5a5b4166e07e2f5c9060200160405180910390a15b50565b612aa680620000d46000396000f3fe60806040523480156200001157600080fd5b50600436106200003a5760003560e01c8063ade4c8fa146200003f578063e8546e071462000072575b600080fd5b6200005662000050366004620017c1565b6200007e565b6040516001600160a01b03909116815260200160405180910390f35b6200007c6200010d565b005b60003068929eee149b4bd212685403620000a05763ab143c066000526004601cfd5b3068929eee149b4bd21268557fe17a067c7963a59b6dfd65d33b053fdbea1c56500e2aae4f976d9eda4da9eb005460ff1615620000f0576040516302ca8ced60e11b815260040160405180910390fd5b620000fb826200016c565b3868929eee149b4bd212685592915050565b7f59b501c3653afc186af7d48dda36cf6732bd21629a6295693664240a6ef5200054640100000000900460ff166200015857604051630ef4733760e31b815260040160405180910390fd5b6200016a6356f2647d60e11b6200052d565b565b7f9e34afa7b4d27d347d25d9d9dab4f1a106fa081382e6c4243e834d093e787d00805460408051631d5e528f60e21b815290516000937f06bd04a817647c31ee485c8a0baab96facd62dbfd4b475796bb17ca2c12f000093909285926001600160a01b03909216916375794a3c916004808201926020929091908290030181865afa15801562000200573d6000803e3d6000fd5b505050506040513d601f19601f82011682018060405250810190620002269190620018f8565b90506200023881866080015162000608565b83549094508360006200024b8362001912565b90915550506000818152600284016020908152604080832080546001600160a01b0319166001600160a01b0389811691821790925584526001870183529281902084905584548851928901518983015160608b01519351630efd6e3d60e21b81529290951694633bf5b8f494620002cb9490938b9291906004016200198e565b6020604051808303816000875af1158015620002eb573d6000803e3d6000fd5b505050506040513d601f19601f82011682018060405250810190620003119190620018f8565b5060018201546000906200032f906001600160a01b03168662000634565b60058401549091506000906200034f906001600160a01b03168762000634565b604080516002808252606082018352929350600092909160208301908036833701905050905082816000815181106200038c576200038c620019fe565b60200260200101906001600160a01b031690816001600160a01b0316815250508181600181518110620003c357620003c3620019fe565b6001600160a01b039283166020918202929092010152604051638bfc820f60e01b815290881690638bfc820f906200040090849060040162001a14565b600060405180830381600087803b1580156200041b57600080fd5b505af115801562000430573d6000803e3d6000fd5b505050506200044a8784848b6080015160200151620006f1565b5060808801518051516040909101516000916200046b918a91908762000b24565b90506200047e88828b60a0015162000cb4565b8554604051632142170760e11b8152306004820152336024820152604481018790526001600160a01b03909116906342842e0e90606401600060405180830381600087803b158015620004d057600080fd5b505af1158015620004e5573d6000803e3d6000fd5b50506040516001600160a01b038b16925087915033907fe50fc3942f8a2d7e5a7c8fb9488499eba5255b41e18bc3f1b4791402976d1d0b90600090a450505050505050919050565b6001600160e01b0319811660009081527f81088bbc801e045ea3e7620779ab349988f58afbdfba10dff983df3f33522b00602052604090205460ff16620005b7576001600160e01b0319811660009081527f81088bbc801e045ea3e7620779ab349988f58afbdfba10dff983df3f33522b0060205260409020805460ff19166001179055620005d0565b604051637967f77d60e11b815260040160405180910390fd5b6040516001600160e01b03198216907f78f84e5b1c5c05be2b5ad3800781dd404d6d6c6302bc755c0fe20f58a33a7f2290600090a250565b600080600062000619858562000db5565b9150915062000629828262000f1f565b925050505b92915050565b60008060405180602001620006499062000f9a565b601f1982820381018352601f9091011660408190526001600160a01b0385166024820152859060440160408051601f19818403018152918152602080830180516001600160e01b031663189acdbd60e31b1790529051620006ad9392910162001a63565b60408051601f1981840301815290829052620006cd929160200162001a89565b6040516020818303038152906040529050620006e98162000f45565b949350505050565b604080516001808252818301909252600091829190816020015b60608152602001906001900390816200070b579050509050604051806040016040528060098152602001684a6f696e537061636560b81b815250816000815181106200075b576200075b620019fe565b6020026020010181905250856001600160a01b0316638fcd793d6040518060400160405280600681526020016526b4b73a32b960d11b8152508360006001600160401b03811115620007b157620007b162000fb6565b604051908082528060200260200182016040528015620007f957816020015b604080518082019091526000815260606020820152815260200190600190039081620007d05790505b506040518463ffffffff1660e01b81526004016200081a9392919062001ae5565b6020604051808303816000875af11580156200083a573d6000803e3d6000fd5b505050506040513d601f19601f82011682018060405250810190620008609190620018f8565b8351909250156200096e5760408051600180825281830190925260009160208083019080368337019050509050600181600081518110620008a557620008a5620019fe565b60200260200101906001600160a01b031690816001600160a01b031681525050866001600160a01b031663ba201ba88460405180604001604052808a6001600160a01b031681526020018560405160200162000902919062001a14565b6040516020818303038152906040528152506040518363ffffffff1660e01b81526004016200093392919062001bb7565b600060405180830381600087803b1580156200094e57600080fd5b505af115801562000963573d6000803e3d6000fd5b505050505062000b1b565b6020830151511562000a675760005b836020015151811015620009bf57620009b684602001518281518110620009a857620009a8620019fe565b602002602001015162000f6f565b6001016200097d565b50856001600160a01b031663ba201ba8836040518060400160405280896001600160a01b03168152602001876020015160405160200162000a01919062001a14565b6040516020818303038152906040528152506040518363ffffffff1660e01b815260040162000a3292919062001bb7565b600060405180830381600087803b15801562000a4d57600080fd5b505af115801562000a62573d6000803e3d6000fd5b505050505b604083015151511562000b1b57856001600160a01b031663ba201ba8836040518060400160405280886001600160a01b03168152602001876040015160405160200162000ab5919062001ccf565b6040516020818303038152906040528152506040518363ffffffff1660e01b815260040162000ae692919062001bb7565b600060405180830381600087803b15801562000b0157600080fd5b505af115801562000b16573d6000803e3d6000fd5b505050505b50949350505050565b6040805160018082528183019092526000918291906020808301908036833701905050905060018160008151811062000b615762000b61620019fe565b6001600160a01b039290921660209283029190910190910152604080516001808252818301909252600091816020015b60408051808201909152600081526060602082015281526020019060019003908162000b91579050509050838160008151811062000bd35762000bd3620019fe565b6020908102919091018101516001600160a01b0390921690915260405162000bfe9184910162001a14565b6040516020818303038152906040528160008151811062000c235762000c23620019fe565b6020908102919091018101510152604051638fcd793d60e01b81526001600160a01b03881690638fcd793d9062000c639089908990869060040162001ae5565b6020604051808303816000875af115801562000c83573d6000803e3d6000fd5b505050506040513d601f19601f8201168201806040525081019062000ca99190620018f8565b979650505050505050565b60408051600180825281830190925260009160208083019080368337019050509050828160008151811062000ced5762000ced620019fe565b602090810291909101810191909152604051600160fd1b918101919091526bffffffffffffffffffffffff19606086901b16602182015260009060350160405160208183030381529060405262000d449062001d7a565b835160405163921f717560e01b81529192506001600160a01b0387169163921f71759162000d7a91859190879060040162001da2565b600060405180830381600087803b15801562000d9557600080fd5b505af115801562000daa573d6000803e3d6000fd5b505050505050505050565b60408051336020808301919091528183018590524260608381019190915283518084038201815260809093019093528151910120825160c08101517f9e34afa7b4d27d347d25d9d9dab4f1a106fa081382e6c4243e834d093e787d0091906001600160a01b031662000e28573360c08201525b60068201546040516001600160a01b039091169062000e4a6020820162000fa8565b601f19828203810183526040601f90920116818101825263dc9cc64560e01b81523060208281018290528351808501855288546001600160a01b031681529081018c905292519192859262000ea89233929091899060240162001e03565b60408051601f19818403018152918152602080830180516001600160e01b03166320723eff60e11b179052905162000ee4949392910162001ee9565b60408051601f198184030181529082905262000f04929160200162001a89565b60405160208183030381529060405294505050509250929050565b60008260200183518381836000f592505050806200062e5763ef35ca196000526004601cfd5b600081602001825180826000f0925050508062000f6a5763ef35ca196000526004601cfd5b919050565b6001600160a01b03811662000f97576040516302e47d1560e41b815260040160405180910390fd5b50565b6103d48062001f3a83390190565b610798806200230e83390190565b634e487b7160e01b600052604160045260246000fd5b604051608081016001600160401b038111828210171562000ff15762000ff162000fb6565b60405290565b604051606081016001600160401b038111828210171562000ff15762000ff162000fb6565b604080519081016001600160401b038111828210171562000ff15762000ff162000fb6565b60405161012081016001600160401b038111828210171562000ff15762000ff162000fb6565b60405160c081016001600160401b038111828210171562000ff15762000ff162000fb6565b604051601f8201601f191681016001600160401b0381118282101715620010b757620010b762000fb6565b604052919050565b600082601f830112620010d157600080fd5b81356001600160401b03811115620010ed57620010ed62000fb6565b62001102601f8201601f19166020016200108c565b8181528460208386010111156200111857600080fd5b816020850160208301376000918101602001919091529392505050565b80356001600160401b038116811462000f6a57600080fd5b80356001600160a01b038116811462000f6a57600080fd5b8035801515811462000f6a57600080fd5b60006001600160401b0382111562001192576200119262000fb6565b5060051b60200190565b6003811062000f9757600080fd5b803560ff8116811462000f6a57600080fd5b600082601f830112620011ce57600080fd5b81356020620011e7620011e18362001176565b6200108c565b828152600792831b85018201928282019190878511156200120757600080fd5b8387015b8581101562001276576080818a031215620012265760008081fd5b6200123062000fcc565b8135838110620012405760008081fd5b815281860135868201526040620012598184016200114d565b90820152606082810135908201528452928401926080016200120b565b5090979650505050505050565b600082601f8301126200129557600080fd5b81356020620012a8620011e18362001176565b82815260609283028501820192828201919087851115620012c857600080fd5b8387015b85811015620012765781818a031215620012e65760008081fd5b620012f062000ff7565b8135620012fd816200119c565b81526200130c828701620011aa565b8682015260406200131f818401620011aa565b908201528452928401928101620012cc565b6000606082840312156200134457600080fd5b6200134e62000ff7565b905081356001600160401b03808211156200136857600080fd5b818401915084601f8301126200137d57600080fd5b8135602062001390620011e18362001176565b82815260069290921b84018101918181019088841115620013b057600080fd5b948201945b838610156200140d576040868a031215620013d05760008081fd5b620013da6200101c565b8635620013e7816200119c565b8152620013f6878501620011aa565b8185015282526040959095019490820190620013b5565b865250858101359350828411156200142457600080fd5b6200143287858801620011bc565b908501525060408401359150808211156200144c57600080fd5b506200145b8482850162001283565b60408301525092915050565b6000608082840312156200147a57600080fd5b6200148462000fcc565b9050620014918262001165565b81526020808301356001600160401b0380821115620014af57600080fd5b818501915085601f830112620014c457600080fd5b8135620014d5620011e18262001176565b81815260059190911b83018401908481019088831115620014f557600080fd5b938501935b828510156200151e576200150e856200114d565b82529385019390850190620014fa565b808688015250505060408501359250808311156200153b57600080fd5b50506200154b8482850162001331565b6040830152506200155f6060830162001165565b606082015292915050565b600082601f8301126200157c57600080fd5b813560206200158f620011e18362001176565b82815260059290921b84018101918181019086841115620015af57600080fd5b8286015b84811015620015f35780356001600160401b03811115620015d45760008081fd5b620015e48986838b0101620010bf565b845250918301918301620015b3565b509695505050505050565b6000606082840312156200161157600080fd5b6200161b62000ff7565b905081356001600160401b03808211156200163557600080fd5b9083019061012082860312156200164b57600080fd5b6200165562001041565b8235828111156200166557600080fd5b6200167387828601620010bf565b8252506020830135828111156200168957600080fd5b6200169787828601620010bf565b6020830152506040830135604082015260608301356060820152620016bf6080840162001135565b6080820152620016d260a084016200114d565b60a0820152620016e560c084016200114d565b60c082015260e083013560e0820152610100620017048185016200114d565b90820152835260208401359150808211156200171f57600080fd5b6200172d8583860162001467565b602084015260408401359150808211156200174757600080fd5b506200145b848285016200156a565b6000602082840312156200176957600080fd5b604051602081016001600160401b0382821081831117156200178f576200178f62000fb6565b816040528293508435915080821115620017a857600080fd5b50620017b785828601620010bf565b8252505092915050565b600060208284031215620017d457600080fd5b81356001600160401b0380821115620017ec57600080fd5b9083019060c082860312156200180157600080fd5b6200180b62001067565b8235828111156200181b57600080fd5b6200182987828601620010bf565b8252506020830135828111156200183f57600080fd5b6200184d87828601620010bf565b6020830152506040830135828111156200186657600080fd5b6200187487828601620010bf565b6040830152506060830135828111156200188d57600080fd5b6200189b87828601620010bf565b606083015250608083013582811115620018b457600080fd5b620018c287828601620015fe565b60808301525060a083013582811115620018db57600080fd5b620018e98782860162001756565b60a08301525095945050505050565b6000602082840312156200190b57600080fd5b5051919050565b6000600182016200193357634e487b7160e01b600052601160045260246000fd5b5060010190565b60005b83811015620019575781810151838201526020016200193d565b50506000910152565b600081518084526200197a8160208601602086016200193a565b601f01601f19169290920160200192915050565b60a081526000620019a360a083018862001960565b8281036020840152620019b7818862001960565b6001600160a01b038716604085015283810360608501529050620019dc818662001960565b90508281036080840152620019f2818562001960565b98975050505050505050565b634e487b7160e01b600052603260045260246000fd5b6020808252825182820181905260009190848201906040850190845b8181101562001a575783516001600160a01b03168352928401929184019160010162001a30565b50909695505050505050565b6001600160a01b0383168152604060208201819052600090620006e99083018462001960565b6000835162001a9d8184602088016200193a565b83519083019062001ab38183602088016200193a565b01949350505050565b60018060a01b0381511682526000602082015160406020850152620006e9604085018262001960565b60608152600062001afa606083018662001960565b6020838203818501528186518084528284019150828160051b85010183890160005b8381101562001b4e57601f1987840301855262001b3b83835162001960565b9486019492509085019060010162001b1c565b50508681036040880152875180825284820195509250600583901b81018401915083880160005b8481101562001ba757601f1983850301875262001b9484835162001abc565b9686019693509085019060010162001b75565b50919a9950505050505050505050565b828152604060208201526000620006e9604083018462001abc565b634e487b7160e01b600052602160045260246000fd5b6003811062000f975762000f9762001bd2565b60008151808452602080850194506020840160005b8381101562001c6a57815180516007811062001c305762001c3062001bd2565b885280840151848901526040808201516001600160a01b031690890152606090810151908801526080909601959082019060010162001c10565b509495945050505050565b60008151808452602080850194506020840160005b8381101562001c6a578151805162001ca28162001be8565b88528084015160ff908116858a015260409182015116908801526060909601959082019060010162001c8a565b6020808252825160608383015280516080840181905260009291820190839060a08601905b8083101562001d2f578351805162001d0c8162001be8565b835285015160ff1685830152928401926001929092019160409091019062001cf4565b50838701519350601f1992508286820301604087015262001d51818562001bfb565b9350505060408501518185840301606086015262001d70838262001c75565b9695505050505050565b8051602080830151919081101562001d9c576000198160200360031b1b821691505b50919050565b838152600060206060602084015262001dbf606084018662001960565b83810360408501528451808252602080870192019060005b8181101562001df55783518352928401929184019160010162001dd7565b509098975050505050505050565b600060018060a01b0380871683528086166020840152808551166040840152506020840151606083015260a0608083015282516101208060a085015262001e4f6101c085018362001960565b91506020850151609f198584030160c086015262001e6e838262001960565b925050604085015160e0850152606085015161010081818701526080870151915062001ea4838701836001600160401b03169052565b60a08701516001600160a01b0390811661014088015260c0880151811661016088015260e0880151610180880152908701519081166101a08701529150620015f39050565b83516001600160e01b03191681526020808501516001600160a01b03908116918301919091528316604082015260806060820181905260009062001f309083018462001960565b9594505050505056fe60806040526040516103d43803806103d483398101604081905261002291610268565b61002c8282610033565b5050610352565b61003c82610092565b6040516001600160a01b038316907fbc7cd75a20ee27fd9adebab32041f755214dbc6bffa90cc0225b39da2e5c2d3b90600090a280511561008657610081828261010e565b505050565b61008e610185565b5050565b806001600160a01b03163b6000036100cd57604051634c9c8ce360e01b81526001600160a01b03821660048201526024015b60405180910390fd5b7f360894a13ba1a3210667c828492db98dca3e2076cc3735a920a3ca505d382bbc80546001600160a01b0319166001600160a01b0392909216919091179055565b6060600080846001600160a01b03168460405161012b9190610336565b600060405180830381855af49150503d8060008114610166576040519150601f19603f3d011682016040523d82523d6000602084013e61016b565b606091505b50909250905061017c8583836101a6565b95945050505050565b34156101a45760405163b398979f60e01b815260040160405180910390fd5b565b6060826101bb576101b682610205565b6101fe565b81511580156101d257506001600160a01b0384163b155b156101fb57604051639996b31560e01b81526001600160a01b03851660048201526024016100c4565b50805b9392505050565b8051156102155780518082602001fd5b60405163d6bda27560e01b815260040160405180910390fd5b634e487b7160e01b600052604160045260246000fd5b60005b8381101561025f578181015183820152602001610247565b50506000910152565b6000806040838503121561027b57600080fd5b82516001600160a01b038116811461029257600080fd5b60208401519092506001600160401b03808211156102af57600080fd5b818501915085601f8301126102c357600080fd5b8151818111156102d5576102d561022e565b604051601f8201601f19908116603f011681019083821181831017156102fd576102fd61022e565b8160405282815288602084870101111561031657600080fd5b610327836020830160208801610244565b80955050505050509250929050565b60008251610348818460208701610244565b9190910192915050565b6074806103606000396000f3fe6080604052600a600c565b005b60186014601a565b6051565b565b6000604c7f360894a13ba1a3210667c828492db98dca3e2076cc3735a920a3ca505d382bbc546001600160a01b031690565b905090565b3660008037600080366000845af43d6000803e808015606f573d6000f35b3d6000fd608060405234801561001057600080fd5b5060405161079838038061079883398101604081905261002f91610259565b6100958380517f9c16cba5b9f2fcbd952b38bec34079e93cbe107475c15fc20705f4e704198a0080546020909301516001600160a01b03166001600160a01b031960e09390931c600160a01b02929092166001600160c01b031990931692909217179055565b61009f82826100a8565b50505050610366565b6060600080846001600160a01b0316846040516100c5919061034a565b600060405180830381855af49150503d8060008114610100576040519150601f19603f3d011682016040523d82523d6000602084013e610105565b606091505b50909250905061011685838361011f565b95945050505050565b6060826101345761012f82610182565b61017b565b815115801561014b57506001600160a01b0384163b155b1561017857604051639996b31560e01b81526001600160a01b038516600482015260240160405180910390fd5b50805b9392505050565b8051156101925780518082602001fd5b60405163d6bda27560e01b815260040160405180910390fd5b634e487b7160e01b600052604160045260246000fd5b604080519081016001600160401b03811182821017156101e3576101e36101ab565b60405290565b604051601f8201601f191681016001600160401b0381118282101715610211576102116101ab565b604052919050565b80516001600160a01b038116811461023057600080fd5b919050565b60005b83811015610250578181015183820152602001610238565b50506000910152565b6000806000838503608081121561026f57600080fd5b604081121561027d57600080fd5b506102866101c1565b84516001600160e01b03198116811461029e57600080fd5b815260206102ad868201610219565b818301528194506102c060408701610219565b606087015190945091506001600160401b03808311156102df57600080fd5b828701925087601f8401126102f357600080fd5b825181811115610305576103056101ab565b610317601f8201601f191684016101e9565b9150808252888382860101111561032d57600080fd5b61033c81848401858701610235565b508093505050509250925092565b6000825161035c818460208701610235565b9190910192915050565b610423806103756000396000f3fe6080604052600436106100225760003560e01c8063ac9650d81461003357610029565b3661002957005b61003161005c565b005b6100466100413660046102c4565b6100b7565b604051610053919061035d565b60405180910390f35b60006100666100dc565b9050806001600160a01b03163b600003610093576040516321f27f0d60e21b815260040160405180910390fd5b3660008037600080366000845af43d6000803e8080156100b2573d6000f35b3d6000fd5b606034156100c457600080fd5b6100d66100d18484610222565b6102b3565b92915050565b7f9c16cba5b9f2fcbd952b38bec34079e93cbe107475c15fc20705f4e704198a0054600090600160a01b900460e01b818061013e7f9c16cba5b9f2fcbd952b38bec34079e93cbe107475c15fc20705f4e704198a00546001600160a01b031690565b6040516001600160e01b03196000351660248201526001600160a01b039190911690849060440160408051601f198184030181529181526020820180516001600160e01b03166001600160e01b03199094169390931790925290516101a391906103d7565b600060405180830381855afa9150503d80600081146101de576040519150601f19603f3d011682016040523d82523d6000602084013e6101e3565b606091505b5091509150816102065760405163391aa44560e01b815260040160405180910390fd5b8080602001905181019061021a91906103f3565b935050505090565b600060405190506020815281816020015280604001808360051b8086843782018085156102a1575b835187018035602082018337600038823584305af461026c573d6000873e3d86fd5b5082810384523d815260209384019381013d6000823e60003d8201523d01601f0167ffffffffffffffe016905081841061024a575b60408181521b90931795945050505050565b8060401c8167ffffffffffffffff16f35b600080602083850312156102d757600080fd5b823567ffffffffffffffff808211156102ef57600080fd5b818501915085601f83011261030357600080fd5b81358181111561031257600080fd5b8660208260051b850101111561032757600080fd5b60209290920196919550909350505050565b60005b8381101561035457818101518382015260200161033c565b50506000910152565b6000602080830181845280855180835260408601915060408160051b870101925083870160005b828110156103ca57878503603f19018452815180518087526103ab818989018a8501610339565b601f01601f191695909501860194509285019290850190600101610384565b5092979650505050505050565b600082516103e9818460208701610339565b9190910192915050565b60006020828403121561040557600080fd5b81516001600160a01b038116811461041c57600080fd5b939250505056","linkReferences":{}},"methodIdentifiers":{"__Architect_init()":"e8546e07","createSpace((string,string,string,string,((string,string,uint256,uint256,uint64,address,address,uint256,address),(bool,address[],((uint8,uint8)[],(uint8,uint256,address,uint256)[],(uint8,uint8,uint8)[]),bool),string[]),(string)))":"ade4c8fa"},"id":396}