{"abi":[{"type":"constructor","inputs":[{"name":"checker","type":"address","internalType":"contract IEntitlementChecker"}],"stateMutability":"nonpayable"},{"type":"function","name":"__EntitlementGated_init","inputs":[{"name":"entitlementChecker","type":"address","internalType":"contract IEntitlementChecker"}],"outputs":[],"stateMutability":"nonpayable"},{"type":"function","name":"getCrossChainEntitlementData","inputs":[{"name":"","type":"bytes32","internalType":"bytes32"},{"name":"roleId","type":"uint256","internalType":"uint256"}],"outputs":[{"name":"","type":"tuple","internalType":"struct IEntitlementDataQueryableBase.EntitlementData","components":[{"name":"entitlementType","type":"string","internalType":"string"},{"name":"entitlementData","type":"bytes","internalType":"bytes"}]}],"stateMutability":"view"},{"type":"function","name":"getRuleData","inputs":[{"name":"roleId","type":"uint256","internalType":"uint256"}],"outputs":[{"name":"","type":"tuple","internalType":"struct IRuleEntitlementBase.RuleData","components":[{"name":"operations","type":"tuple[]","internalType":"struct IRuleEntitlementBase.Operation[]","components":[{"name":"opType","type":"uint8","internalType":"enum IRuleEntitlementBase.CombinedOperationType"},{"name":"index","type":"uint8","internalType":"uint8"}]},{"name":"checkOperations","type":"tuple[]","internalType":"struct IRuleEntitlementBase.CheckOperation[]","components":[{"name":"opType","type":"uint8","internalType":"enum IRuleEntitlementBase.CheckOperationType"},{"name":"chainId","type":"uint256","internalType":"uint256"},{"name":"contractAddress","type":"address","internalType":"address"},{"name":"threshold","type":"uint256","internalType":"uint256"}]},{"name":"logicalOperations","type":"tuple[]","internalType":"struct IRuleEntitlementBase.LogicalOperation[]","components":[{"name":"logOpType","type":"uint8","internalType":"enum IRuleEntitlementBase.LogicalOperationType"},{"name":"leftOperationIndex","type":"uint8","internalType":"uint8"},{"name":"rightOperationIndex","type":"uint8","internalType":"uint8"}]}]}],"stateMutability":"view"},{"type":"function","name":"getRuleData","inputs":[{"name":"transactionId","type":"bytes32","internalType":"bytes32"},{"name":"roleId","type":"uint256","internalType":"uint256"}],"outputs":[{"name":"","type":"tuple","internalType":"struct IRuleEntitlementBase.RuleData","components":[{"name":"operations","type":"tuple[]","internalType":"struct IRuleEntitlementBase.Operation[]","components":[{"name":"opType","type":"uint8","internalType":"enum IRuleEntitlementBase.CombinedOperationType"},{"name":"index","type":"uint8","internalType":"uint8"}]},{"name":"checkOperations","type":"tuple[]","internalType":"struct IRuleEntitlementBase.CheckOperation[]","components":[{"name":"opType","type":"uint8","internalType":"enum IRuleEntitlementBase.CheckOperationType"},{"name":"chainId","type":"uint256","internalType":"uint256"},{"name":"contractAddress","type":"address","internalType":"address"},{"name":"threshold","type":"uint256","internalType":"uint256"}]},{"name":"logicalOperations","type":"tuple[]","internalType":"struct IRuleEntitlementBase.LogicalOperation[]","components":[{"name":"logOpType","type":"uint8","internalType":"enum IRuleEntitlementBase.LogicalOperationType"},{"name":"leftOperationIndex","type":"uint8","internalType":"uint8"},{"name":"rightOperationIndex","type":"uint8","internalType":"uint8"}]}]}],"stateMutability":"view"},{"type":"function","name":"getRuleDataV2","inputs":[{"name":"roleId","type":"uint256","internalType":"uint256"}],"outputs":[{"name":"","type":"tuple","internalType":"struct IRuleEntitlementBase.RuleDataV2","components":[{"name":"operations","type":"tuple[]","internalType":"struct IRuleEntitlementBase.Operation[]","components":[{"name":"opType","type":"uint8","internalType":"enum IRuleEntitlementBase.CombinedOperationType"},{"name":"index","type":"uint8","internalType":"uint8"}]},{"name":"checkOperations","type":"tuple[]","internalType":"struct IRuleEntitlementBase.CheckOperationV2[]","components":[{"name":"opType","type":"uint8","internalType":"enum IRuleEntitlementBase.CheckOperationType"},{"name":"chainId","type":"uint256","internalType":"uint256"},{"name":"contractAddress","type":"address","internalType":"address"},{"name":"params","type":"bytes","internalType":"bytes"}]},{"name":"logicalOperations","type":"tuple[]","internalType":"struct IRuleEntitlementBase.LogicalOperation[]","components":[{"name":"logOpType","type":"uint8","internalType":"enum IRuleEntitlementBase.LogicalOperationType"},{"name":"leftOperationIndex","type":"uint8","internalType":"uint8"},{"name":"rightOperationIndex","type":"uint8","internalType":"uint8"}]}]}],"stateMutability":"view"},{"type":"function","name":"postEntitlementCheckResult","inputs":[{"name":"transactionId","type":"bytes32","internalType":"bytes32"},{"name":"roleId","type":"uint256","internalType":"uint256"},{"name":"result","type":"uint8","internalType":"enum IEntitlementGatedBase.NodeVoteStatus"}],"outputs":[],"stateMutability":"nonpayable"},{"type":"function","name":"postEntitlementCheckResultV2","inputs":[{"name":"transactionId","type":"bytes32","internalType":"bytes32"},{"name":"roleId","type":"uint256","internalType":"uint256"},{"name":"result","type":"uint8","internalType":"enum IEntitlementGatedBase.NodeVoteStatus"}],"outputs":[],"stateMutability":"payable"},{"type":"function","name":"requestEntitlementCheck","inputs":[{"name":"roleId","type":"uint256","internalType":"uint256"},{"name":"ruleData","type":"tuple","internalType":"struct IRuleEntitlementBase.RuleData","components":[{"name":"operations","type":"tuple[]","internalType":"struct IRuleEntitlementBase.Operation[]","components":[{"name":"opType","type":"uint8","internalType":"enum IRuleEntitlementBase.CombinedOperationType"},{"name":"index","type":"uint8","internalType":"uint8"}]},{"name":"checkOperations","type":"tuple[]","internalType":"struct IRuleEntitlementBase.CheckOperation[]","components":[{"name":"opType","type":"uint8","internalType":"enum IRuleEntitlementBase.CheckOperationType"},{"name":"chainId","type":"uint256","internalType":"uint256"},{"name":"contractAddress","type":"address","internalType":"address"},{"name":"threshold","type":"uint256","internalType":"uint256"}]},{"name":"logicalOperations","type":"tuple[]","internalType":"struct IRuleEntitlementBase.LogicalOperation[]","components":[{"name":"logOpType","type":"uint8","internalType":"enum IRuleEntitlementBase.LogicalOperationType"},{"name":"leftOperationIndex","type":"uint8","internalType":"uint8"},{"name":"rightOperationIndex","type":"uint8","internalType":"uint8"}]}]}],"outputs":[{"name":"","type":"bytes32","internalType":"bytes32"}],"stateMutability":"nonpayable"},{"type":"function","name":"requestEntitlementCheckV2","inputs":[{"name":"roleIds","type":"uint256[]","internalType":"uint256[]"},{"name":"ruleData","type":"tuple","internalType":"struct IRuleEntitlementBase.RuleDataV2","components":[{"name":"operations","type":"tuple[]","internalType":"struct IRuleEntitlementBase.Operation[]","components":[{"name":"opType","type":"uint8","internalType":"enum IRuleEntitlementBase.CombinedOperationType"},{"name":"index","type":"uint8","internalType":"uint8"}]},{"name":"checkOperations","type":"tuple[]","internalType":"struct IRuleEntitlementBase.CheckOperationV2[]","components":[{"name":"opType","type":"uint8","internalType":"enum IRuleEntitlementBase.CheckOperationType"},{"name":"chainId","type":"uint256","internalType":"uint256"},{"name":"contractAddress","type":"address","internalType":"address"},{"name":"params","type":"bytes","internalType":"bytes"}]},{"name":"logicalOperations","type":"tuple[]","internalType":"struct IRuleEntitlementBase.LogicalOperation[]","components":[{"name":"logOpType","type":"uint8","internalType":"enum IRuleEntitlementBase.LogicalOperationType"},{"name":"leftOperationIndex","type":"uint8","internalType":"uint8"},{"name":"rightOperationIndex","type":"uint8","internalType":"uint8"}]}]}],"outputs":[{"name":"","type":"bytes32","internalType":"bytes32"}],"stateMutability":"nonpayable"},{"type":"function","name":"requestEntitlementCheckV3","inputs":[{"name":"roleIds","type":"uint256[]","internalType":"uint256[]"},{"name":"ruleData","type":"tuple","internalType":"struct IRuleEntitlementBase.RuleDataV2","components":[{"name":"operations","type":"tuple[]","internalType":"struct IRuleEntitlementBase.Operation[]","components":[{"name":"opType","type":"uint8","internalType":"enum IRuleEntitlementBase.CombinedOperationType"},{"name":"index","type":"uint8","internalType":"uint8"}]},{"name":"checkOperations","type":"tuple[]","internalType":"struct IRuleEntitlementBase.CheckOperationV2[]","components":[{"name":"opType","type":"uint8","internalType":"enum IRuleEntitlementBase.CheckOperationType"},{"name":"chainId","type":"uint256","internalType":"uint256"},{"name":"contractAddress","type":"address","internalType":"address"},{"name":"params","type":"bytes","internalType":"bytes"}]},{"name":"logicalOperations","type":"tuple[]","internalType":"struct IRuleEntitlementBase.LogicalOperation[]","components":[{"name":"logOpType","type":"uint8","internalType":"enum IRuleEntitlementBase.LogicalOperationType"},{"name":"leftOperationIndex","type":"uint8","internalType":"uint8"},{"name":"rightOperationIndex","type":"uint8","internalType":"uint8"}]}]}],"outputs":[{"name":"","type":"bytes32","internalType":"bytes32"}],"stateMutability":"payable"},{"type":"function","name":"requestLegacyEntitlementCheckV3","inputs":[{"name":"roleIds","type":"uint256[]","internalType":"uint256[]"},{"name":"ruleData","type":"tuple","internalType":"struct IRuleEntitlementBase.RuleData","components":[{"name":"operations","type":"tuple[]","internalType":"struct IRuleEntitlementBase.Operation[]","components":[{"name":"opType","type":"uint8","internalType":"enum IRuleEntitlementBase.CombinedOperationType"},{"name":"index","type":"uint8","internalType":"uint8"}]},{"name":"checkOperations","type":"tuple[]","internalType":"struct IRuleEntitlementBase.CheckOperation[]","components":[{"name":"opType","type":"uint8","internalType":"enum IRuleEntitlementBase.CheckOperationType"},{"name":"chainId","type":"uint256","internalType":"uint256"},{"name":"contractAddress","type":"address","internalType":"address"},{"name":"threshold","type":"uint256","internalType":"uint256"}]},{"name":"logicalOperations","type":"tuple[]","internalType":"struct IRuleEntitlementBase.LogicalOperation[]","components":[{"name":"logOpType","type":"uint8","internalType":"enum IRuleEntitlementBase.LogicalOperationType"},{"name":"leftOperationIndex","type":"uint8","internalType":"uint8"},{"name":"rightOperationIndex","type":"uint8","internalType":"uint8"}]}]}],"outputs":[{"name":"","type":"bytes32","internalType":"bytes32"}],"stateMutability":"nonpayable"},{"type":"event","name":"EntitlementCheckResultPosted","inputs":[{"name":"transactionId","type":"bytes32","indexed":true,"internalType":"bytes32"},{"name":"result","type":"uint8","indexed":false,"internalType":"enum IEntitlementGatedBase.NodeVoteStatus"}],"anonymous":false},{"type":"event","name":"Initialized","inputs":[{"name":"version","type":"uint32","indexed":false,"internalType":"uint32"}],"anonymous":false},{"type":"event","name":"InterfaceAdded","inputs":[{"name":"interfaceId","type":"bytes4","indexed":true,"internalType":"bytes4"}],"anonymous":false},{"type":"event","name":"InterfaceRemoved","inputs":[{"name":"interfaceId","type":"bytes4","indexed":true,"internalType":"bytes4"}],"anonymous":false},{"type":"error","name":"EntitlementGated_InvalidAddress","inputs":[]},{"type":"error","name":"EntitlementGated_InvalidEntitlement","inputs":[]},{"type":"error","name":"EntitlementGated_NodeAlreadyVoted","inputs":[]},{"type":"error","name":"EntitlementGated_NodeNotFound","inputs":[]},{"type":"error","name":"EntitlementGated_OnlyEntitlementChecker","inputs":[]},{"type":"error","name":"EntitlementGated_RequestIdNotFound","inputs":[]},{"type":"error","name":"EntitlementGated_TransactionCheckAlreadyCompleted","inputs":[]},{"type":"error","name":"EntitlementGated_TransactionCheckAlreadyRegistered","inputs":[]},{"type":"error","name":"EntitlementGated_TransactionNotRegistered","inputs":[]},{"type":"error","name":"Initializable_InInitializingState","inputs":[]},{"type":"error","name":"Initializable_NotInInitializingState","inputs":[]},{"type":"error","name":"Introspection_AlreadySupported","inputs":[]},{"type":"error","name":"Introspection_NotSupported","inputs":[]},{"type":"error","name":"Reentrancy","inputs":[]}],"bytecode":{"object":"0x60806040523480156200001157600080fd5b5060405162002dde38038062002dde833981016040819052620000349162000127565b6200003e6200007f565b7f9075c515a635ba70c9696f31149324218d75cf00afe836c482e6473f38b19e0080546001600160a01b0319166001600160a01b0383161790555062000159565b7f59b501c3653afc186af7d48dda36cf6732bd21629a6295693664240a6ef520008054640100000000900460ff1615620000cc576040516366008a2d60e01b815260040160405180910390fd5b805463ffffffff90811610156200012457805463ffffffff191663ffffffff90811782556040519081527fe9c9b456cb2994b80aeef036cf59d26e9617df80f816a6ee5a5b4166e07e2f5c9060200160405180910390a15b50565b6000602082840312156200013a57600080fd5b81516001600160a01b03811681146200015257600080fd5b9392505050565b612c7580620001696000396000f3fe60806040526004361061009c5760003560e01c80637adc9cbe116100645780637adc9cbe1461018157806383f1cfa5146101a1578063916ba680146101c157806392c399ff146101e1578063a0d7fb8014610201578063e58690f21461021457600080fd5b8063069a3ee9146100a15780630fe44a21146100d75780634739e8051461010457806357e700271461012657806368ab7dd614610154575b600080fd5b3480156100ad57600080fd5b506100c16100bc366004611790565b610227565b6040516100ce919061188c565b60405180910390f35b3480156100e357600080fd5b506100f76100f2366004611949565b61045a565b6040516100ce91906119b1565b34801561011057600080fd5b5061012461011f366004611a00565b61053d565b005b34801561013257600080fd5b50610146610141366004611a51565b610584565b6040519081526020016100ce565b34801561016057600080fd5b5061017461016f366004611790565b6105e1565b6040516100ce9190611a97565b34801561018d57600080fd5b5061012461019c366004611b85565b61088e565b3480156101ad57600080fd5b506101466101bc366004611bed565b6108e4565b3480156101cd57600080fd5b506101466101dc366004611bed565b6109a0565b3480156101ed57600080fd5b506100c16101fc366004611949565b610a52565b61014661020f366004611bed565b610a80565b610124610222366004611a00565b610b27565b61024b60405180606001604052806060815260200160608152602001606081525090565b6000828152602081815260408083208151815460809481028201850190935260608101838152909491938593919285929185015b828210156102e857600084815260209020604080518082019091529083018054829060ff1660028111156102b5576102b56117a9565b60028111156102c6576102c66117a9565b81529054610100900460ff16602091820152908252600192909201910161027f565b50505050815260200160018201805480602002602001604051908101604052809291908181526020016000905b828210156103a0576000848152602090206040805160808101909152600484029091018054829060ff166006811115610350576103506117a9565b6006811115610361576103616117a9565b815260018281015460208084019190915260028401546001600160a01b0316604084015260039093015460609092019190915291835292019101610315565b50505050815260200160028201805480602002602001604051908101604052809291908181526020016000905b8282101561044c5760008481526020902060408051606081019091529083018054829060ff166002811115610404576104046117a9565b6002811115610415576104156117a9565b8152905460ff61010082048116602080850191909152620100009092041660409092019190915290825260019290920191016103cd565b505050915250909392505050565b6040805180820190915260608082526020820152600082815260208190526040902054156104e75760408051608081018252600f8183019081526e149d5b19515b9d1a5d1b195b595b9d608a1b60608301528152600084815260208181529083902092519192818401926104ce9201611d03565b6040516020818303038152906040528152509050610537565b60408051608081018252601181830190815270293ab632a2b73a34ba3632b6b2b73a2b1960791b606083015281526000848152600160209081529083902092519192818401926104ce9201611df9565b92915050565b3068929eee149b4bd21268540361055c5763ab143c066000526004601cfd5b3068929eee149b4bd2126855610573838383610b8c565b3868929eee149b4bd2126855505050565b6000828152602081905260408120829061059e82826122e7565b905050600032436040516020016105b69291906123b0565b6040516020818303038152906040528051906020012090506105da33823087610e39565b9392505050565b61060560405180606001604052806060815260200160608152602001606081525090565b60008281526001602090815260408083208151815460809481028201850190935260608101838152909491938593919285929185015b828210156106a457600084815260209020604080518082019091529083018054829060ff166002811115610671576106716117a9565b6002811115610682576106826117a9565b81529054610100900460ff16602091820152908252600192909201910161063b565b50505050815260200160018201805480602002602001604051908101604052809291908181526020016000905b828210156107e2576000848152602090206040805160808101909152600484029091018054829060ff16600681111561070c5761070c6117a9565b600681111561071d5761071d6117a9565b81526001820154602082015260028201546001600160a01b0316604082015260038201805460609092019161075190611dc5565b80601f016020809104026020016040519081016040528092919081815260200182805461077d90611dc5565b80156107ca5780601f1061079f576101008083540402835291602001916107ca565b820191906000526020600020905b8154815290600101906020018083116107ad57829003601f168201915b505050505081525050815260200190600101906106d1565b50505050815260200160028201805480602002602001604051908101604052809291908181526020016000905b8282101561044c5760008481526020902060408051606081019091529083018054829060ff166002811115610846576108466117a9565b6002811115610857576108576117a9565b8152905460ff610100820481166020808501919091526201000090920416604090920191909152908252600192909201910161080f565b7f59b501c3653afc186af7d48dda36cf6732bd21629a6295693664240a6ef5200054640100000000900460ff166108d857604051630ef4733760e31b815260040160405180910390fd5b6108e181611120565b50565b6000805b83811015610932578260016000878785818110610907576109076123d2565b905060200201358152602001908152602001600020818161092891906126d7565b50506001016108e8565b50600032436040516020016109489291906123b0565b60405160208183030381529060405280519060200120905060005b848110156109975761098f338330898986818110610983576109836123d2565b90506020020135610e39565b600101610963565b50949350505050565b6000805b838110156109ed57826000808787858181106109c2576109c26123d2565b90506020020135815260200190815260200160002081816109e391906122e7565b50506001016109a4565b5060003243604051602001610a039291906123b0565b60405160208183030381529060405280519060200120905060005b8481101561099757610a4a338330898986818110610a3e57610a3e6123d2565b9050602002013561115b565b600101610a1e565b610a7660405180606001604052806060815260200160608152602001606081525090565b6105da8383611277565b6000805b83811015610ace578260016000878785818110610aa357610aa36123d2565b9050602002013581526020019081526020016000208181610ac491906126d7565b5050600101610a84565b5060003243604051602001610ae49291906123b0565b60405160208183030381529060405280519060200120905060005b8481101561099757610b1f338330898986818110610a3e57610a3e6123d2565b600101610aff565b600080516020612c35833981519152546001600160a01b03163314610b5657610b56630b2395d760e41b611368565b3068929eee149b4bd212685403610b755763ab143c066000526004601cfd5b3068929eee149b4bd2126855610573838383611372565b6000838152600080516020612c55833981519152602052604090208054600080516020612c35833981519152919061010090046001600160a01b03161580610bd65750805460ff16155b15610bf457604051637ad5a43960e11b815260040160405180910390fd5b600084815260028201602052604090205460ff1615610c2657604051637912b73960e01b815260040160405180910390fd5b60008481526001820160205260408120805482918291825b81811015610d40576000838281548110610c5a57610c5a6123d2565b60009182526020909120018054909150336001600160a01b0390911603610ce65760008154600160a01b900460ff166002811115610c9a57610c9a6117a9565b14610cb8576040516347592a4d60e01b815260040160405180910390fd5b80548a90829060ff60a01b1916600160a01b836002811115610cdc57610cdc6117a9565b0217905550600196505b8054600160a01b900460ff166001816002811115610d0657610d066117a9565b03610d1657866001019650610d36565b6002816002811115610d2a57610d2a6117a9565b03610d36578560010195505b5050600101610c3e565b5084610d5f57604051638223a7e960e01b815260040160405180910390fd5b610d6a60028261277d565b841180610d805750610d7d60028261277d565b83115b15610e2d5760008981526002870160205260408120805460ff19166001179055838511610dae576002610db1565b60015b90506000610dbe8c6113ff565b90506001826002811115610dd457610dd46117a9565b1480610ddd5750805b15610e1b578b7fb9d6ce397e562841871d119aaf77469c60a3b5bf8b99a5d9851656015015c63383604051610e12919061279f565b60405180910390a25b8015610e2a57610e2a8c61149c565b50505b50505050505050505050565b6001600160a01b038416610e5757610e5763133de07160e31b611368565b6000838152600080516020612c55833981519152602052604090208054600080516020612c35833981519152919060ff1615610ee757600481015460005b81811015610ee45784836004018281548110610eb357610eb36123d2565b906000526020600020015403610edc576040516301ab53df60e31b815260040160405180910390fd5b600101610e95565b50505b81546001600160a01b0316610efe57610efe611572565b8154604051634f84544560e01b8152600560048201526000916001600160a01b031690634f84544590602401600060405180830381865afa158015610f47573d6000803e3d6000fd5b505050506040513d6000823e601f3d908101601f19168201604052610f6f9190810190612871565b825490915060ff16610fba5781546003830180546001600160a01b038089166001600160a01b0319909216919091179091558816610100026001600160a81b03199091161760011782555b600482018054600181810183556000928352602080842090920187905583518784529085019091526040822090915b828110156110ad5781604051806040016040528086848151811061100f5761100f6123d2565b60200260200101516001600160a01b0316815260200160006002811115611038576110386117a9565b9052815460018101835560009283526020928390208251910180546001600160a01b031981166001600160a01b03909316928317825593830151929390929183916001600160a81b03191617600160a01b83600281111561109b5761109b6117a9565b02179055505050806001019050610fe9565b50845460405163541da4e560e01b81526001600160a01b039091169063541da4e5906110e3908c908c908b90899060040161290f565b600060405180830381600087803b1580156110fd57600080fd5b505af1158015611111573d6000803e3d6000fd5b50505050505050505050505050565b611130636afd38fd60e11b611643565b600080516020612c3583398151915280546001600160a01b0319166001600160a01b03831617905550565b6001600160a01b0384166111795761117963133de07160e31b611368565b6001600160a01b03821661119757611197634bb7c20560e01b611368565b6000838152600080516020612c5583398151915260205260409020600080516020612c3583398151915280549091906001600160a01b03166111db576111db611572565b8054600160ff199091161781556003810180546001600160a01b0319166001600160a01b03868116919091179091558254604051633a5b134160e11b8152888316600482015260248101889052604481018690529116906374b626829034906064016000604051808303818588803b15801561125657600080fd5b505af115801561126a573d6000803e3d6000fd5b5050505050505050505050565b61129b60405180606001604052806060815260200160608152602001606081525090565b6000838152600080516020612c55833981519152602052604090208054600080516020612c35833981519152919060ff166112e957604051637ad5a43960e11b815260040160405180910390fd5b600381015460405163069a3ee960e01b8152600481018690526001600160a01b0390911690819063069a3ee990602401600060405180830381865afa158015611336573d6000803e3d6000fd5b505050506040513d6000823e601f3d908101601f1916820160405261135e9190810190612ad8565b9695505050505050565b8060005260046000fd5b6000838152600080516020612c55833981519152602052604090208054600080516020612c35833981519152919060ff166113b7576113b7637ad5a43960e11b611368565b847fb9d6ce397e562841871d119aaf77469c60a3b5bf8b99a5d9851656015015c633846040516113e7919061279f565b60405180910390a26113f88561149c565b5050505050565b6000818152600080516020612c55833981519152602052604081206004810154600080516020612c358339815191529190835b8181101561148c57826002016000846004018381548110611455576114556123d2565b6000918252602080832090910154835282019290925260400190205460ff166114845750600095945050505050565b600101611432565b50600195945050505050565b5050565b6000818152600080516020612c55833981519152602052604081206004810154600080516020612c35833981519152925b8181101561151d578260010160008460040183815481106114f0576114f06123d2565b906000526020600020015481526020019081526020016000206000611515919061171c565b6001016114cd565b5061152c60048301600061173a565b6000848152600184016020526040812080546001600160a81b03191681556003810180546001600160a01b03191690559061156a600483018261173a565b505050505050565b6000600080516020612c35833981519152905060007fc21004fcc619240a31f006438274d15cd813308303284436eef6055f0fdcb60060060154604051628956cd60e71b81526c29b830b1b2a7b832b930ba37b960991b60048201526001600160a01b03909116906344ab668090602401602060405180830381865afa158015611600573d6000803e3d6000fd5b505050506040513d601f19601f820116820180604052508101906116249190612c17565b82546001600160a01b0319166001600160a01b03919091161790915550565b6001600160e01b0319811660009081527f81088bbc801e045ea3e7620779ab349988f58afbdfba10dff983df3f33522b00602052604090205460ff166116cb576001600160e01b0319811660009081527f81088bbc801e045ea3e7620779ab349988f58afbdfba10dff983df3f33522b0060205260409020805460ff191660011790556116e4565b604051637967f77d60e11b815260040160405180910390fd5b6040516001600160e01b03198216907f78f84e5b1c5c05be2b5ad3800781dd404d6d6c6302bc755c0fe20f58a33a7f2290600090a250565b50805460008255906000526020600020908101906108e19190611758565b50805460008255906000526020600020908101906108e1919061177b565b5b808211156117775780546001600160a81b0319168155600101611759565b5090565b5b80821115611777576000815560010161177c565b6000602082840312156117a257600080fd5b5035919050565b634e487b7160e01b600052602160045260246000fd5b600381106108e1576108e16117a9565b60008151808452602080850194506020840160005b8381101561181757815180516117f9816117bf565b885283015160ff1683880152604090960195908201906001016117e4565b509495945050505050565b60078110611832576118326117a9565b9052565b60008151808452602080850194506020840160005b838110156118175781518051611860816117bf565b88528084015160ff908116858a015260409182015116908801526060909601959082019060010161184b565b6000602080835260808451606080848701526118ab60808701836117cf565b915083870151601f196040818986030160408a015284835180875288870191508885019650600094505b8085101561191e5786516118ea838251611822565b808a0151838b0152838101516001600160a01b031684840152860151868301529588019560019490940193908701906118d5565b5060408b01519750828a82030160608b015261193a8189611836565b9b9a5050505050505050505050565b6000806040838503121561195c57600080fd5b50508035926020909101359150565b6000815180845260005b8181101561199157602081850181015186830182015201611975565b506000602082860101526020601f19601f83011685010191505092915050565b6020815260008251604060208401526119cd606084018261196b565b90506020840151601f198483030160408501526119ea828261196b565b95945050505050565b600381106108e157600080fd5b600080600060608486031215611a1557600080fd5b83359250602084013591506040840135611a2e816119f3565b809150509250925092565b600060608284031215611a4b57600080fd5b50919050565b60008060408385031215611a6457600080fd5b8235915060208301356001600160401b03811115611a8157600080fd5b611a8d85828601611a39565b9150509250929050565b600060208083526080845160608084870152611ab660808701836117cf565b915083870151601f196040818986030160408a01528483518087528887019150888160051b880101898601955060005b82811015611b4357858983030184528651611b02838251611822565b808c0151838d0152858101516001600160a01b0316868401528801518883018b9052611b308b84018261196b565b978c0197948c0194925050600101611ae6565b5060408d01519950848c82030160608d0152611b5f818b611836565b9d9c50505050505050505050505050565b6001600160a01b03811681146108e157600080fd5b600060208284031215611b9757600080fd5b81356105da81611b70565b60008083601f840112611bb457600080fd5b5081356001600160401b03811115611bcb57600080fd5b6020830191508360208260051b8501011115611be657600080fd5b9250929050565b600080600060408486031215611c0257600080fd5b83356001600160401b0380821115611c1957600080fd5b611c2587838801611ba2565b90955093506020860135915080821115611c3e57600080fd5b50611c4b86828701611a39565b9150509250925092565b600081548084526020808501945083600052602060002060005b8381101561181757815460ff808216611c87816117bf565b895260089190911c168388015260409096019560019182019101611c6f565b600081548084526020808501945083600052602060002060005b8381101561181757815460ff808216611cd8816117bf565b8952600882901c8116858a015260109190911c16604088015260609096019560019182019101611cc0565b6000602080835260806060806020860152611d216080860187611c55565b6001808801601f196040818a86030160408b01528483548087526020870191508460005260206000209650600094505b80851015611d9d57611d678260ff895416611822565b86860154828b015260028701546001600160a01b0316838301526003870154888301526004909601959385019390880190611d51565b50828b82030160608c0152611db58160028e01611ca6565b9c9b505050505050505050505050565b600181811c90821680611dd957607f821691505b602082108103611a4b57634e487b7160e01b600052602260045260246000fd5b60006020808352606081840152611e136080840185611c55565b60018501601f19808684030160408701528282548085528585019150858160051b86010160008581528781209550805b83811015611f175785888403018552611e608360ff895416611822565b6001870154838a015260028701546001600160a01b03166040840152608060608401526003870180548390611e9481611dc5565b8060808801526001821660008114611eb35760018114611ecf57611efe565b60ff19831660a089015260a082151560051b8901019350611efe565b8487528d8720875b83811015611ef55781548a820160a001526001909101908f01611ed7565b890160a0019450505b50505060049890980197958a0195935050600101611e43565b5050838982030160608a0152611f308160028c01611ca6565b9a9950505050505050505050565b6000808335601e19843603018112611f5557600080fd5b8301803591506001600160401b03821115611f6f57600080fd5b6020019150600681901b3603821315611be657600080fd5b634e487b7160e01b600052604160045260246000fd5b600281901b6001600160fe1b0382168214611fc857634e487b7160e01b600052601160045260246000fd5b919050565b60ff811681146108e157600080fd5b8135611fe7816119f3565b611ff0816117bf565b60ff1982541660ff8216811783555050602082013561200e81611fcd565b815461ff001916600882901b61ff0016178255505050565b505050565b6000808335601e1984360301811261204257600080fd5b8301803591506001600160401b0382111561205c57600080fd5b6020019150600781901b3603821315611be657600080fd5b600781106108e157600080fd5b60078210612091576120916117a9565b60ff1981541660ff831681178255505050565b80546001600160a01b0319166001600160a01b0392909216919091179055565b81356120cf81612074565b6120d98183612081565b506020820135600182015560408201356120f281611b70565b6120ff81600284016120a4565b50606082013560038201555050565b600160401b83111561212257612122611f87565b8054838255808410156121805761213881611f9d565b61214185611f9d565b6000848152602081209283019291909101905b8282101561217c57808255806001830155806002830155806003830155600482019150612154565b5050505b5060008181526020812083915b8581101561156a5761219f83836120c4565b608092909201916004919091019060010161218d565b6000808335601e198436030181126121cc57600080fd5b8301803591506001600160401b038211156121e657600080fd5b6020019150606081023603821315611be657600080fd5b8135612208816119f3565b612211816117bf565b60ff1982541660ff8216811783555050602082013561222f81611fcd565b815461ff001916600882901b61ff001617825550604082013561225181611fcd565b815462ff0000191660109190911b62ff00001617905550565b600160401b83111561227e5761227e611f87565b8054838255808410156122b5576000828152602081208581019083015b808210156122b15782825560018201915061229b565b5050505b5060008181526020812083915b8581101561156a576122d483836121fd565b60609290920191600191820191016122c2565b6122f18283611f3e565b600160401b81111561230557612305611f87565b82548184558082101561233c576000848152602081208381019083015b8082101561233857828255600182019150612322565b5050505b5060008381526020902060005b8281101561236e5761235b8483611fdc565b6040939093019260019182019101612349565b5050505061237f602083018361202b565b61238d81836001860161210e565b505061239c60408301836121b5565b6123aa81836002860161226a565b50505050565b60609290921b6bffffffffffffffffffffffff19168252601482015260340190565b634e487b7160e01b600052603260045260246000fd5b6000808335601e198436030181126123ff57600080fd5b8301803591506001600160401b0382111561241957600080fd5b6020019150600581901b3603821315611be657600080fd5b60008235607e1983360301811261244757600080fd5b9190910192915050565b5b818110156114985760008155600101612452565b601f82111561202657806000526020600020601f840160051c8101602085101561248d5750805b6113f8601f850160051c830182612451565b81356124aa81612074565b6124b48183612081565b506001602080840135600184015560408401356124d081611b70565b6124dd81600286016120a4565b50600383016060850135601e198636030181126124f957600080fd5b850180356001600160401b0381111561251157600080fd5b803603848301131561252257600080fd5b612536816125308554611dc5565b85612466565b6000601f82116001811461256c576000831561255457508382018601355b600019600385901b1c1916600184901b1785556125c7565b600085815260209020601f19841690835b8281101561259c5786850189013582559388019390890190880161257d565b50848210156125bb5760001960f88660031b161c198885880101351681555b505060018360011b0185555b505050505050505050565b600160401b8311156125e6576125e6611f87565b805483825580841015612699576125fc81611f9d565b61260585611f9d565b6000848152602081209283019291909101905b8282101561269557808255600181818401558160028401556003830161263e8154611dc5565b801561268757601f8082116001811461265957858455612684565b60008481526020902061267583850160051c8201878301612451565b50600084815260208120818655555b50505b505050600482019150612618565b5050505b5060008181526020812083915b8581101561156a576126c16126bb8487612431565b8361249f565b60209290920191600491909101906001016126a6565b6126e18283611f3e565b600160401b8111156126f5576126f5611f87565b82548184558082101561272c576000848152602081208381019083015b8082101561272857828255600182019150612712565b5050505b5060008381526020902060005b8281101561275e5761274b8483611fdc565b6040939093019260019182019101612739565b5050505061276f60208301836123e8565b61238d8183600186016125d2565b60008261279a57634e487b7160e01b600052601260045260246000fd5b500490565b602081016127ac836117bf565b91905290565b604051608081016001600160401b03811182821017156127d4576127d4611f87565b60405290565b604051606081016001600160401b03811182821017156127d4576127d4611f87565b604080519081016001600160401b03811182821017156127d4576127d4611f87565b604051601f8201601f191681016001600160401b038111828210171561284657612846611f87565b604052919050565b60006001600160401b0382111561286757612867611f87565b5060051b60200190565b6000602080838503121561288457600080fd5b82516001600160401b0381111561289a57600080fd5b8301601f810185136128ab57600080fd5b80516128be6128b98261284e565b61281e565b81815260059190911b820183019083810190878311156128dd57600080fd5b928401925b828410156129045783516128f581611b70565b825292840192908401906128e2565b979650505050505050565b60006080820160018060a01b03808816845260208760208601528660408601526080606086015282865180855260a08701915060208801945060005b8181101561296957855185168352948301949183019160010161294b565b50909a9950505050505050505050565b600082601f83011261298a57600080fd5b8151602061299a6128b98361284e565b82815260079290921b840181019181810190868411156129b957600080fd5b8286015b84811015612a1e57608081890312156129d65760008081fd5b6129de6127b2565b81516129e981612074565b81528185015185820152604080830151612a0281611b70565b90820152606082810151908201528352918301916080016129bd565b509695505050505050565b600082601f830112612a3a57600080fd5b81516020612a4a6128b98361284e565b82815260609283028501820192828201919087851115612a6957600080fd5b8387015b85811015612acb5781818a031215612a855760008081fd5b612a8d6127da565b8151612a98816119f3565b815281860151612aa781611fcd565b81870152604082810151612aba81611fcd565b908201528452928401928101612a6d565b5090979650505050505050565b60006020808385031215612aeb57600080fd5b82516001600160401b0380821115612b0257600080fd5b9084019060608287031215612b1657600080fd5b612b1e6127da565b825182811115612b2d57600080fd5b8301601f81018813612b3e57600080fd5b8051612b4c6128b98261284e565b81815260069190911b8201860190868101908a831115612b6b57600080fd5b928701925b82841015612bc1576040848c031215612b895760008081fd5b612b916127fc565b8451612b9c816119f3565b815284890151612bab81611fcd565b818a015282526040939093019290870190612b70565b84525050508284015182811115612bd757600080fd5b612be388828601612979565b85830152506040830151935081841115612bfc57600080fd5b612c0887858501612a29565b60408201529695505050505050565b600060208284031215612c2957600080fd5b81516105da81611b7056fe9075c515a635ba70c9696f31149324218d75cf00afe836c482e6473f38b19e009075c515a635ba70c9696f31149324218d75cf00afe836c482e6473f38b19e01","linkReferences":{}},"methodIdentifiers":{"__EntitlementGated_init(address)":"7adc9cbe","getCrossChainEntitlementData(bytes32,uint256)":"0fe44a21","getRuleData(bytes32,uint256)":"92c399ff","getRuleData(uint256)":"069a3ee9","getRuleDataV2(uint256)":"68ab7dd6","postEntitlementCheckResult(bytes32,uint256,uint8)":"4739e805","postEntitlementCheckResultV2(bytes32,uint256,uint8)":"e58690f2","requestEntitlementCheck(uint256,((uint8,uint8)[],(uint8,uint256,address,uint256)[],(uint8,uint8,uint8)[]))":"57e70027","requestEntitlementCheckV2(uint256[],((uint8,uint8)[],(uint8,uint256,address,bytes)[],(uint8,uint8,uint8)[]))":"83f1cfa5","requestEntitlementCheckV3(uint256[],((uint8,uint8)[],(uint8,uint256,address,bytes)[],(uint8,uint8,uint8)[]))":"a0d7fb80","requestLegacyEntitlementCheckV3(uint256[],((uint8,uint8)[],(uint8,uint256,address,uint256)[],(uint8,uint8,uint8)[]))":"916ba680"},"id":383}