{"abi":[{"type":"function","name":"__ERC721A_init","inputs":[{"name":"name_","type":"string","internalType":"string"},{"name":"symbol_","type":"string","internalType":"string"}],"outputs":[],"stateMutability":"nonpayable"},{"type":"function","name":"approve","inputs":[{"name":"to","type":"address","internalType":"address"},{"name":"tokenId","type":"uint256","internalType":"uint256"}],"outputs":[],"stateMutability":"payable"},{"type":"function","name":"balanceOf","inputs":[{"name":"owner","type":"address","internalType":"address"}],"outputs":[{"name":"","type":"uint256","internalType":"uint256"}],"stateMutability":"view"},{"type":"function","name":"burn","inputs":[{"name":"token","type":"uint256","internalType":"uint256"}],"outputs":[],"stateMutability":"nonpayable"},{"type":"function","name":"getApproved","inputs":[{"name":"tokenId","type":"uint256","internalType":"uint256"}],"outputs":[{"name":"","type":"address","internalType":"address"}],"stateMutability":"view"},{"type":"function","name":"isApprovedForAll","inputs":[{"name":"owner","type":"address","internalType":"address"},{"name":"operator","type":"address","internalType":"address"}],"outputs":[{"name":"","type":"bool","internalType":"bool"}],"stateMutability":"view"},{"type":"function","name":"mint","inputs":[{"name":"to","type":"address","internalType":"address"},{"name":"amount","type":"uint256","internalType":"uint256"}],"outputs":[],"stateMutability":"nonpayable"},{"type":"function","name":"mintTo","inputs":[{"name":"to","type":"address","internalType":"address"}],"outputs":[{"name":"tokenId","type":"uint256","internalType":"uint256"}],"stateMutability":"nonpayable"},{"type":"function","name":"name","inputs":[],"outputs":[{"name":"","type":"string","internalType":"string"}],"stateMutability":"view"},{"type":"function","name":"ownerOf","inputs":[{"name":"tokenId","type":"uint256","internalType":"uint256"}],"outputs":[{"name":"","type":"address","internalType":"address"}],"stateMutability":"view"},{"type":"function","name":"safeTransferFrom","inputs":[{"name":"from","type":"address","internalType":"address"},{"name":"to","type":"address","internalType":"address"},{"name":"tokenId","type":"uint256","internalType":"uint256"}],"outputs":[],"stateMutability":"payable"},{"type":"function","name":"safeTransferFrom","inputs":[{"name":"from","type":"address","internalType":"address"},{"name":"to","type":"address","internalType":"address"},{"name":"tokenId","type":"uint256","internalType":"uint256"},{"name":"_data","type":"bytes","internalType":"bytes"}],"outputs":[],"stateMutability":"payable"},{"type":"function","name":"setApprovalForAll","inputs":[{"name":"operator","type":"address","internalType":"address"},{"name":"approved","type":"bool","internalType":"bool"}],"outputs":[],"stateMutability":"nonpayable"},{"type":"function","name":"symbol","inputs":[],"outputs":[{"name":"","type":"string","internalType":"string"}],"stateMutability":"view"},{"type":"function","name":"tokenURI","inputs":[{"name":"tokenId","type":"uint256","internalType":"uint256"}],"outputs":[{"name":"","type":"string","internalType":"string"}],"stateMutability":"view"},{"type":"function","name":"totalSupply","inputs":[],"outputs":[{"name":"","type":"uint256","internalType":"uint256"}],"stateMutability":"view"},{"type":"function","name":"transferFrom","inputs":[{"name":"from","type":"address","internalType":"address"},{"name":"to","type":"address","internalType":"address"},{"name":"tokenId","type":"uint256","internalType":"uint256"}],"outputs":[],"stateMutability":"payable"},{"type":"event","name":"Approval","inputs":[{"name":"owner","type":"address","indexed":true,"internalType":"address"},{"name":"approved","type":"address","indexed":true,"internalType":"address"},{"name":"tokenId","type":"uint256","indexed":true,"internalType":"uint256"}],"anonymous":false},{"type":"event","name":"ApprovalForAll","inputs":[{"name":"owner","type":"address","indexed":true,"internalType":"address"},{"name":"operator","type":"address","indexed":true,"internalType":"address"},{"name":"approved","type":"bool","indexed":false,"internalType":"bool"}],"anonymous":false},{"type":"event","name":"ConsecutiveTransfer","inputs":[{"name":"fromTokenId","type":"uint256","indexed":true,"internalType":"uint256"},{"name":"toTokenId","type":"uint256","indexed":false,"internalType":"uint256"},{"name":"from","type":"address","indexed":true,"internalType":"address"},{"name":"to","type":"address","indexed":true,"internalType":"address"}],"anonymous":false},{"type":"event","name":"Initialized","inputs":[{"name":"version","type":"uint32","indexed":false,"internalType":"uint32"}],"anonymous":false},{"type":"event","name":"InterfaceAdded","inputs":[{"name":"interfaceId","type":"bytes4","indexed":true,"internalType":"bytes4"}],"anonymous":false},{"type":"event","name":"InterfaceRemoved","inputs":[{"name":"interfaceId","type":"bytes4","indexed":true,"internalType":"bytes4"}],"anonymous":false},{"type":"event","name":"Transfer","inputs":[{"name":"from","type":"address","indexed":true,"internalType":"address"},{"name":"to","type":"address","indexed":true,"internalType":"address"},{"name":"tokenId","type":"uint256","indexed":true,"internalType":"uint256"}],"anonymous":false},{"type":"error","name":"ApprovalCallerNotOwnerNorApproved","inputs":[]},{"type":"error","name":"ApprovalQueryForNonexistentToken","inputs":[]},{"type":"error","name":"BalanceQueryForZeroAddress","inputs":[]},{"type":"error","name":"Initializable_InInitializingState","inputs":[]},{"type":"error","name":"Initializable_NotInInitializingState","inputs":[]},{"type":"error","name":"Introspection_AlreadySupported","inputs":[]},{"type":"error","name":"Introspection_NotSupported","inputs":[]},{"type":"error","name":"MintERC2309QuantityExceedsLimit","inputs":[]},{"type":"error","name":"MintToZeroAddress","inputs":[]},{"type":"error","name":"MintZeroQuantity","inputs":[]},{"type":"error","name":"OwnerQueryForNonexistentToken","inputs":[]},{"type":"error","name":"OwnershipNotInitializedForExtraData","inputs":[]},{"type":"error","name":"TransferCallerNotOwnerNorApproved","inputs":[]},{"type":"error","name":"TransferFromIncorrectOwner","inputs":[]},{"type":"error","name":"TransferToNonERC721ReceiverImplementer","inputs":[]},{"type":"error","name":"TransferToZeroAddress","inputs":[]},{"type":"error","name":"URIQueryForNonexistentToken","inputs":[]}],"bytecode":{"object":"0x608060405234801561001057600080fd5b5061001961001e565b6100c4565b7f59b501c3653afc186af7d48dda36cf6732bd21629a6295693664240a6ef520008054640100000000900460ff161561006a576040516366008a2d60e01b815260040160405180910390fd5b805463ffffffff90811610156100c157805463ffffffff191663ffffffff90811782556040519081527fe9c9b456cb2994b80aeef036cf59d26e9617df80f816a6ee5a5b4166e07e2f5c9060200160405180910390a15b50565b611516806100d36000396000f3fe6080604052600436106100fe5760003560e01c80636352211e11610095578063a22cb46511610064578063a22cb46514610279578063b88d4fde14610299578063c87b56dd146102ac578063d2f01f19146102cc578063e985e9c5146102ec57600080fd5b80636352211e1461020457806370a0823114610224578063755edd171461024457806395d89b411461026457600080fd5b806323b872dd116100d157806323b872dd1461019e57806340c10f19146101b157806342842e0e146101d157806342966c68146101e457600080fd5b806306fdde0314610103578063081812fc1461012e578063095ea7b31461016657806318160ddd1461017b575b600080fd5b34801561010f57600080fd5b5061011861031c565b6040516101259190611064565b60405180910390f35b34801561013a57600080fd5b5061014e610149366004611077565b6103b7565b6040516001600160a01b039091168152602001610125565b6101796101743660046110a7565b6103c8565b005b34801561018757600080fd5b506101906103d8565b604051908152602001610125565b6101796101ac3660046110d1565b6103e7565b3480156101bd57600080fd5b506101796101cc3660046110a7565b6105cc565b6101796101df3660046110d1565b6105d6565b3480156101f057600080fd5b506101796101ff366004611077565b6105f6565b34801561021057600080fd5b5061014e61021f366004611077565b610602565b34801561023057600080fd5b5061019061023f36600461110d565b61060d565b34801561025057600080fd5b5061019061025f36600461110d565b610618565b34801561027057600080fd5b50610118610634565b34801561028557600080fd5b50610179610294366004611128565b61064c565b6101796102a73660046111f0565b6106c9565b3480156102b857600080fd5b506101186102c7366004611077565b610713565b3480156102d857600080fd5b506101796102e736600461128c565b6107a4565b3480156102f857600080fd5b5061030c6103073660046112f0565b6107f8565b6040519015158152602001610125565b6060610326610804565b600201805461033490611323565b80601f016020809104026020016040519081016040528092919081815260200182805461036090611323565b80156103ad5780601f10610382576101008083540402835291602001916103ad565b820191906000526020600020905b81548152906001019060200180831161039057829003601f168201915b5050505050905090565b60006103c282610828565b92915050565b6103d482826001610875565b5050565b60006103e261092a565b905090565b60006103f282610949565b9050836001600160a01b0316816001600160a01b0316146104255760405162a1148160e81b815260040160405180910390fd5b600080610431846109e4565b9150915061045681876104413390565b6001600160a01b039081169116811491141790565b6104815761046486336107f8565b61048157604051632ce44b5f60e11b815260040160405180910390fd5b6001600160a01b0385166104a857604051633a954ecd60e21b815260040160405180910390fd5b80156104b357600082555b6104bb610804565b6001600160a01b03871660009081526005919091016020526040902080546000190190556104e7610804565b6001600160a01b03861660008181526005929092016020526040909120805460010190554260a01b17600160e11b1761051e610804565b60008681526004919091016020526040812091909155600160e11b84169003610594576001840161054d610804565b6000828152600491909101602052604081205490036105925761056e610804565b548114610592578361057e610804565b600083815260049190910160205260409020555b505b83856001600160a01b0316876001600160a01b03166000805160206114f683398151915260405160405180910390a45b505050505050565b6103d48282610a0c565b6105f1838383604051806020016040528060008152506106c9565b505050565b6105ff81610b23565b50565b60006103c282610949565b60006103c282610b2e565b6000610622610b97565b905061062f826001610a0c565b919050565b606061063e610804565b600301805461033490611323565b80610655610804565b336000818152600792909201602090815260408084206001600160a01b03881680865290835293819020805460ff19169515159590951790945592518415158152919290917f17307eab39ab6107e8899845ad3d59bd9653f200f220920489ca2b5937696c31910160405180910390a35050565b6106d48484846103e7565b6001600160a01b0383163b1561070d576106f084848484610ba7565b61070d576040516368d2bf6b60e11b815260040160405180910390fd5b50505050565b606061071e82610c92565b61073b57604051630a14c4b560e41b815260040160405180910390fd5b600061075260408051602081019091526000815290565b90508051600003610772576040518060200160405280600081525061079d565b8061077c84610cce565b60405160200161078d929190611357565b6040516020818303038152906040525b9392505050565b7f59b501c3653afc186af7d48dda36cf6732bd21629a6295693664240a6ef5200054640100000000900460ff166107ee57604051630ef4733760e31b815260040160405180910390fd5b6103d48282610d12565b600061079d8383610d86565b7f6569bde4a160c636ea8b8d11acb83a60d7fec0b8f2e09389306cba0e1340df0090565b600061083382610c92565b610850576040516333d1c03960e21b815260040160405180910390fd5b610858610804565b60009283526006016020525060409020546001600160a01b031690565b600061088083610602565b905081156108bf57336001600160a01b038216146108bf576108a28133610d86565b6108bf576040516367d9dca160e11b815260040160405180910390fd5b836108c8610804565b6000858152600691909101602052604080822080546001600160a01b0319166001600160a01b0394851617905551859287811692908516917f8c5be1e5ebec7d5bd14f71427d1e84f3dd0314c0f7b2291e5b200ac8c7c3b9259190a450505050565b600080610935610804565b60010154610941610804565b540303919050565b600080610954610804565b60008481526004820160205260408120549350909150600160e01b831690036109ca57816000036109c457805483106109a057604051636f96cda160e11b815260040160405180910390fd5b5b6000199092016000818152600484016020526040902054909290915081156109a1575b50919050565b50604051636f96cda160e11b815260040160405180910390fd5b60008060006109f1610804565b60009485526006016020525050604090912080549092909150565b6000610a16610804565b5490506000829003610a3b5760405163b562e8dd60e01b815260040160405180910390fd5b680100000000000000018202610a4f610804565b6001600160a01b038516600081815260059290920160205260409091208054929092019091554260a01b6001841460e11b1717610a8a610804565b600083815260049190910160205260408120919091556001600160a01b0384169083830190839083906000805160206114f68339815191528180a4600183015b818114610af057808360006000805160206114f6833981519152600080a4600101610aca565b5081600003610b1157604051622e076360e81b815260040160405180910390fd5b80610b1a610804565b55506105f19050565b6105ff816000610dc3565b60006001600160a01b038216610b57576040516323d3ad8160e21b815260040160405180910390fd5b67ffffffffffffffff610b68610804565b6005016000846001600160a01b03166001600160a01b0316815260200190815260200160002054169050919050565b6000610ba1610804565b54919050565b604051630a85bd0160e11b81526000906001600160a01b0385169063150b7a0290610bdc903390899088908890600401611386565b6020604051808303816000875af1925050508015610c17575060408051601f3d908101601f19168201909252610c14918101906113c3565b60015b610c75573d808015610c45576040519150601f19603f3d011682016040523d82523d6000602084013e610c4a565b606091505b508051600003610c6d576040516368d2bf6b60e11b815260040160405180910390fd5b805181602001fd5b6001600160e01b031916630a85bd0160e11b149050949350505050565b6000610c9c610804565b54821080156103c25750600160e01b610cb3610804565b60008481526004919091016020526040902054161592915050565b606060a06040510180604052602081039150506000815280825b600183039250600a81066030018353600a900480610ce85750819003601f19909101908152919050565b7f59b501c3653afc186af7d48dda36cf6732bd21629a6295693664240a6ef5200054640100000000900460ff16610d5c57604051630ef4733760e31b815260040160405180910390fd5b610d6c6380ac58cd60e01b610f04565b610d7c635b5e139f60e01b610f04565b6103d48282610fe2565b6000610d90610804565b6001600160a01b039384166000908152600791909101602090815260408083209490951682529290925250205460ff1690565b6000610dce83610949565b905080600080610ddd866109e4565b915091508415610e1d57610df2818433610441565b610e1d57610e008333610d86565b610e1d57604051632ce44b5f60e11b815260040160405180910390fd5b8015610e2857600082555b6000610e32610804565b6001600160a01b0385166000818152600583016020526040902080546fffffffffffffffffffffffffffffffff0190559091504260a01b17600360e01b176000888152600483016020526040812091909155600160e11b86169003610eca576001870160008181526004830160205260408120549003610ec85781548114610ec857600081815260048301602052604090208690555b505b60405187906000906001600160a01b038716906000805160206114f6833981519152908390a4600190810180549091019055505050505050565b6001600160e01b0319811660009081527f81088bbc801e045ea3e7620779ab349988f58afbdfba10dff983df3f33522b00602052604090205460ff161515600114610f91576001600160e01b0319811660009081527f81088bbc801e045ea3e7620779ab349988f58afbdfba10dff983df3f33522b0060205260409020805460ff19166001179055610faa565b604051637967f77d60e11b815260040160405180910390fd5b6040516001600160e01b03198216907f78f84e5b1c5c05be2b5ad3800781dd404d6d6c6302bc755c0fe20f58a33a7f2290600090a250565b6000610fec610804565b905060028101610ffc8482611435565b506003810161100b8382611435565b50600090555050565b60005b8381101561102f578181015183820152602001611017565b50506000910152565b60008151808452611050816020860160208601611014565b601f01601f19169290920160200192915050565b60208152600061079d6020830184611038565b60006020828403121561108957600080fd5b5035919050565b80356001600160a01b038116811461062f57600080fd5b600080604083850312156110ba57600080fd5b6110c383611090565b946020939093013593505050565b6000806000606084860312156110e657600080fd5b6110ef84611090565b92506110fd60208501611090565b9150604084013590509250925092565b60006020828403121561111f57600080fd5b61079d82611090565b6000806040838503121561113b57600080fd5b61114483611090565b91506020830135801515811461115957600080fd5b809150509250929050565b634e487b7160e01b600052604160045260246000fd5b600067ffffffffffffffff8084111561119557611195611164565b604051601f8501601f19908116603f011681019082821181831017156111bd576111bd611164565b816040528093508581528686860111156111d657600080fd5b858560208301376000602087830101525050509392505050565b6000806000806080858703121561120657600080fd5b61120f85611090565b935061121d60208601611090565b925060408501359150606085013567ffffffffffffffff81111561124057600080fd5b8501601f8101871361125157600080fd5b6112608782356020840161117a565b91505092959194509250565b600082601f83011261127d57600080fd5b61079d8383356020850161117a565b6000806040838503121561129f57600080fd5b823567ffffffffffffffff808211156112b757600080fd5b6112c38683870161126c565b935060208501359150808211156112d957600080fd5b506112e68582860161126c565b9150509250929050565b6000806040838503121561130357600080fd5b61130c83611090565b915061131a60208401611090565b90509250929050565b600181811c9082168061133757607f821691505b6020821081036109c457634e487b7160e01b600052602260045260246000fd5b60008351611369818460208801611014565b83519083019061137d818360208801611014565b01949350505050565b6001600160a01b03858116825284166020820152604081018390526080606082018190526000906113b990830184611038565b9695505050505050565b6000602082840312156113d557600080fd5b81516001600160e01b03198116811461079d57600080fd5b601f8211156105f1576000816000526020600020601f850160051c810160208610156114165750805b601f850160051c820191505b818110156105c457828155600101611422565b815167ffffffffffffffff81111561144f5761144f611164565b6114638161145d8454611323565b846113ed565b602080601f83116001811461149857600084156114805750858301515b600019600386901b1c1916600185901b1785556105c4565b600085815260208120601f198616915b828110156114c7578886015182559484019460019091019084016114a8565b50858210156114e55787850151600019600388901b60f8161c191681555b5050505050600190811b0190555056feddf252ad1be2c89b69c2b068fc378daa952ba7f163c4a11628f55a4df523b3ef","linkReferences":{}},"methodIdentifiers":{"__ERC721A_init(string,string)":"d2f01f19","approve(address,uint256)":"095ea7b3","balanceOf(address)":"70a08231","burn(uint256)":"42966c68","getApproved(uint256)":"081812fc","isApprovedForAll(address,address)":"e985e9c5","mint(address,uint256)":"40c10f19","mintTo(address)":"755edd17","name()":"06fdde03","ownerOf(uint256)":"6352211e","safeTransferFrom(address,address,uint256)":"42842e0e","safeTransferFrom(address,address,uint256,bytes)":"b88d4fde","setApprovalForAll(address,bool)":"a22cb465","symbol()":"95d89b41","tokenURI(uint256)":"c87b56dd","totalSupply()":"18160ddd","transferFrom(address,address,uint256)":"23b872dd"},"id":329}