{"abi":[{"type":"constructor","inputs":[{"name":"approvedOperators","type":"address[]","internalType":"address[]"}],"stateMutability":"nonpayable"},{"type":"function","name":"__OperatorRegistry_init","inputs":[{"name":"initialOperators","type":"address[]","internalType":"address[]"}],"outputs":[],"stateMutability":"nonpayable"},{"type":"function","name":"__RiverConfig_init","inputs":[{"name":"configManagers","type":"address[]","internalType":"address[]"}],"outputs":[],"stateMutability":"nonpayable"},{"type":"function","name":"allocateStream","inputs":[{"name":"streamId","type":"bytes32","internalType":"bytes32"},{"name":"nodes","type":"address[]","internalType":"address[]"},{"name":"genesisMiniblockHash","type":"bytes32","internalType":"bytes32"},{"name":"genesisMiniblock","type":"bytes","internalType":"bytes"}],"outputs":[],"stateMutability":"nonpayable"},{"type":"function","name":"approveConfigurationManager","inputs":[{"name":"manager","type":"address","internalType":"address"}],"outputs":[],"stateMutability":"nonpayable"},{"type":"function","name":"approveOperator","inputs":[{"name":"operator","type":"address","internalType":"address"}],"outputs":[],"stateMutability":"nonpayable"},{"type":"function","name":"configurationExists","inputs":[{"name":"key","type":"bytes32","internalType":"bytes32"}],"outputs":[{"name":"","type":"bool","internalType":"bool"}],"stateMutability":"view"},{"type":"function","name":"deleteConfiguration","inputs":[{"name":"key","type":"bytes32","internalType":"bytes32"}],"outputs":[],"stateMutability":"nonpayable"},{"type":"function","name":"deleteConfigurationOnBlock","inputs":[{"name":"key","type":"bytes32","internalType":"bytes32"},{"name":"blockNumber","type":"uint64","internalType":"uint64"}],"outputs":[],"stateMutability":"nonpayable"},{"type":"function","name":"getAllConfiguration","inputs":[],"outputs":[{"name":"","type":"tuple[]","internalType":"struct Setting[]","components":[{"name":"key","type":"bytes32","internalType":"bytes32"},{"name":"blockNumber","type":"uint64","internalType":"uint64"},{"name":"value","type":"bytes","internalType":"bytes"}]}],"stateMutability":"view"},{"type":"function","name":"getAllNodeAddresses","inputs":[],"outputs":[{"name":"","type":"address[]","internalType":"address[]"}],"stateMutability":"view"},{"type":"function","name":"getAllNodes","inputs":[],"outputs":[{"name":"","type":"tuple[]","internalType":"struct Node[]","components":[{"name":"status","type":"uint8","internalType":"enum NodeStatus"},{"name":"url","type":"string","internalType":"string"},{"name":"nodeAddress","type":"address","internalType":"address"},{"name":"operator","type":"address","internalType":"address"}]}],"stateMutability":"view"},{"type":"function","name":"getAllOperators","inputs":[],"outputs":[{"name":"","type":"address[]","internalType":"address[]"}],"stateMutability":"view"},{"type":"function","name":"getConfiguration","inputs":[{"name":"key","type":"bytes32","internalType":"bytes32"}],"outputs":[{"name":"","type":"tuple[]","internalType":"struct Setting[]","components":[{"name":"key","type":"bytes32","internalType":"bytes32"},{"name":"blockNumber","type":"uint64","internalType":"uint64"},{"name":"value","type":"bytes","internalType":"bytes"}]}],"stateMutability":"view"},{"type":"function","name":"getNode","inputs":[{"name":"nodeAddress","type":"address","internalType":"address"}],"outputs":[{"name":"","type":"tuple","internalType":"struct Node","components":[{"name":"status","type":"uint8","internalType":"enum NodeStatus"},{"name":"url","type":"string","internalType":"string"},{"name":"nodeAddress","type":"address","internalType":"address"},{"name":"operator","type":"address","internalType":"address"}]}],"stateMutability":"view"},{"type":"function","name":"getNodeCount","inputs":[],"outputs":[{"name":"","type":"uint256","internalType":"uint256"}],"stateMutability":"view"},{"type":"function","name":"getPaginatedStreams","inputs":[{"name":"start","type":"uint256","internalType":"uint256"},{"name":"stop","type":"uint256","internalType":"uint256"}],"outputs":[{"name":"","type":"tuple[]","internalType":"struct StreamWithId[]","components":[{"name":"id","type":"bytes32","internalType":"bytes32"},{"name":"stream","type":"tuple","internalType":"struct Stream","components":[{"name":"lastMiniblockHash","type":"bytes32","internalType":"bytes32"},{"name":"lastMiniblockNum","type":"uint64","internalType":"uint64"},{"name":"reserved0","type":"uint64","internalType":"uint64"},{"name":"flags","type":"uint64","internalType":"uint64"},{"name":"nodes","type":"address[]","internalType":"address[]"}]}]},{"name":"","type":"bool","internalType":"bool"}],"stateMutability":"view"},{"type":"function","name":"getStream","inputs":[{"name":"streamId","type":"bytes32","internalType":"bytes32"}],"outputs":[{"name":"","type":"tuple","internalType":"struct Stream","components":[{"name":"lastMiniblockHash","type":"bytes32","internalType":"bytes32"},{"name":"lastMiniblockNum","type":"uint64","internalType":"uint64"},{"name":"reserved0","type":"uint64","internalType":"uint64"},{"name":"flags","type":"uint64","internalType":"uint64"},{"name":"nodes","type":"address[]","internalType":"address[]"}]}],"stateMutability":"view"},{"type":"function","name":"getStreamCount","inputs":[],"outputs":[{"name":"","type":"uint256","internalType":"uint256"}],"stateMutability":"view"},{"type":"function","name":"getStreamCountOnNode","inputs":[{"name":"nodeAddress","type":"address","internalType":"address"}],"outputs":[{"name":"","type":"uint256","internalType":"uint256"}],"stateMutability":"view"},{"type":"function","name":"isConfigurationManager","inputs":[{"name":"manager","type":"address","internalType":"address"}],"outputs":[{"name":"","type":"bool","internalType":"bool"}],"stateMutability":"view"},{"type":"function","name":"isNode","inputs":[{"name":"nodeAddress","type":"address","internalType":"address"}],"outputs":[{"name":"","type":"bool","internalType":"bool"}],"stateMutability":"view"},{"type":"function","name":"isOperator","inputs":[{"name":"operator","type":"address","internalType":"address"}],"outputs":[{"name":"","type":"bool","internalType":"bool"}],"stateMutability":"view"},{"type":"function","name":"isStream","inputs":[{"name":"streamId","type":"bytes32","internalType":"bytes32"}],"outputs":[{"name":"","type":"bool","internalType":"bool"}],"stateMutability":"view"},{"type":"function","name":"placeStreamOnNode","inputs":[{"name":"streamId","type":"bytes32","internalType":"bytes32"},{"name":"nodeAddress","type":"address","internalType":"address"}],"outputs":[],"stateMutability":"nonpayable"},{"type":"function","name":"registerNode","inputs":[{"name":"nodeAddress","type":"address","internalType":"address"},{"name":"url","type":"string","internalType":"string"},{"name":"status","type":"uint8","internalType":"enum NodeStatus"}],"outputs":[],"stateMutability":"nonpayable"},{"type":"function","name":"removeConfigurationManager","inputs":[{"name":"manager","type":"address","internalType":"address"}],"outputs":[],"stateMutability":"nonpayable"},{"type":"function","name":"removeNode","inputs":[{"name":"nodeAddress","type":"address","internalType":"address"}],"outputs":[],"stateMutability":"nonpayable"},{"type":"function","name":"removeOperator","inputs":[{"name":"operator","type":"address","internalType":"address"}],"outputs":[],"stateMutability":"nonpayable"},{"type":"function","name":"removeStreamFromNode","inputs":[{"name":"streamId","type":"bytes32","internalType":"bytes32"},{"name":"nodeAddress","type":"address","internalType":"address"}],"outputs":[],"stateMutability":"nonpayable"},{"type":"function","name":"setConfiguration","inputs":[{"name":"key","type":"bytes32","internalType":"bytes32"},{"name":"blockNumber","type":"uint64","internalType":"uint64"},{"name":"value","type":"bytes","internalType":"bytes"}],"outputs":[],"stateMutability":"nonpayable"},{"type":"function","name":"setStreamLastMiniblockBatch","inputs":[{"name":"miniblocks","type":"tuple[]","internalType":"struct SetMiniblock[]","components":[{"name":"streamId","type":"bytes32","internalType":"bytes32"},{"name":"prevMiniBlockHash","type":"bytes32","internalType":"bytes32"},{"name":"lastMiniblockHash","type":"bytes32","internalType":"bytes32"},{"name":"lastMiniblockNum","type":"uint64","internalType":"uint64"},{"name":"isSealed","type":"bool","internalType":"bool"}]}],"outputs":[],"stateMutability":"nonpayable"},{"type":"function","name":"updateNodeStatus","inputs":[{"name":"nodeAddress","type":"address","internalType":"address"},{"name":"status","type":"uint8","internalType":"enum NodeStatus"}],"outputs":[],"stateMutability":"nonpayable"},{"type":"function","name":"updateNodeUrl","inputs":[{"name":"nodeAddress","type":"address","internalType":"address"},{"name":"url","type":"string","internalType":"string"}],"outputs":[],"stateMutability":"nonpayable"},{"type":"event","name":"ConfigurationChanged","inputs":[{"name":"key","type":"bytes32","indexed":false,"internalType":"bytes32"},{"name":"block","type":"uint64","indexed":false,"internalType":"uint64"},{"name":"value","type":"bytes","indexed":false,"internalType":"bytes"},{"name":"deleted","type":"bool","indexed":false,"internalType":"bool"}],"anonymous":false},{"type":"event","name":"ConfigurationManagerAdded","inputs":[{"name":"manager","type":"address","indexed":true,"internalType":"address"}],"anonymous":false},{"type":"event","name":"ConfigurationManagerRemoved","inputs":[{"name":"manager","type":"address","indexed":true,"internalType":"address"}],"anonymous":false},{"type":"event","name":"Initialized","inputs":[{"name":"version","type":"uint32","indexed":false,"internalType":"uint32"}],"anonymous":false},{"type":"event","name":"InterfaceAdded","inputs":[{"name":"interfaceId","type":"bytes4","indexed":true,"internalType":"bytes4"}],"anonymous":false},{"type":"event","name":"InterfaceRemoved","inputs":[{"name":"interfaceId","type":"bytes4","indexed":true,"internalType":"bytes4"}],"anonymous":false},{"type":"event","name":"NodeAdded","inputs":[{"name":"nodeAddress","type":"address","indexed":true,"internalType":"address"},{"name":"operator","type":"address","indexed":true,"internalType":"address"},{"name":"url","type":"string","indexed":false,"internalType":"string"},{"name":"status","type":"uint8","indexed":false,"internalType":"enum NodeStatus"}],"anonymous":false},{"type":"event","name":"NodeRemoved","inputs":[{"name":"nodeAddress","type":"address","indexed":true,"internalType":"address"}],"anonymous":false},{"type":"event","name":"NodeStatusUpdated","inputs":[{"name":"nodeAddress","type":"address","indexed":true,"internalType":"address"},{"name":"status","type":"uint8","indexed":false,"internalType":"enum NodeStatus"}],"anonymous":false},{"type":"event","name":"NodeUrlUpdated","inputs":[{"name":"nodeAddress","type":"address","indexed":true,"internalType":"address"},{"name":"url","type":"string","indexed":false,"internalType":"string"}],"anonymous":false},{"type":"event","name":"OperatorAdded","inputs":[{"name":"operatorAddress","type":"address","indexed":true,"internalType":"address"}],"anonymous":false},{"type":"event","name":"OperatorRemoved","inputs":[{"name":"operatorAddress","type":"address","indexed":true,"internalType":"address"}],"anonymous":false},{"type":"event","name":"OwnershipTransferred","inputs":[{"name":"previousOwner","type":"address","indexed":true,"internalType":"address"},{"name":"newOwner","type":"address","indexed":true,"internalType":"address"}],"anonymous":false},{"type":"event","name":"StreamAllocated","inputs":[{"name":"streamId","type":"bytes32","indexed":false,"internalType":"bytes32"},{"name":"nodes","type":"address[]","indexed":false,"internalType":"address[]"},{"name":"genesisMiniblockHash","type":"bytes32","indexed":false,"internalType":"bytes32"},{"name":"genesisMiniblock","type":"bytes","indexed":false,"internalType":"bytes"}],"anonymous":false},{"type":"event","name":"StreamLastMiniblockUpdateFailed","inputs":[{"name":"streamId","type":"bytes32","indexed":false,"internalType":"bytes32"},{"name":"lastMiniblockHash","type":"bytes32","indexed":false,"internalType":"bytes32"},{"name":"lastMiniblockNum","type":"uint64","indexed":false,"internalType":"uint64"},{"name":"reason","type":"string","indexed":false,"internalType":"string"}],"anonymous":false},{"type":"event","name":"StreamLastMiniblockUpdated","inputs":[{"name":"streamId","type":"bytes32","indexed":false,"internalType":"bytes32"},{"name":"lastMiniblockHash","type":"bytes32","indexed":false,"internalType":"bytes32"},{"name":"lastMiniblockNum","type":"uint64","indexed":false,"internalType":"uint64"},{"name":"isSealed","type":"bool","indexed":false,"internalType":"bool"}],"anonymous":false},{"type":"event","name":"StreamPlacementUpdated","inputs":[{"name":"streamId","type":"bytes32","indexed":false,"internalType":"bytes32"},{"name":"nodeAddress","type":"address","indexed":false,"internalType":"address"},{"name":"isAdded","type":"bool","indexed":false,"internalType":"bool"}],"anonymous":false},{"type":"error","name":"Initializable_InInitializingState","inputs":[]},{"type":"error","name":"Initializable_NotInInitializingState","inputs":[]},{"type":"error","name":"Introspection_AlreadySupported","inputs":[]},{"type":"error","name":"Introspection_NotSupported","inputs":[]},{"type":"error","name":"Ownable__NotOwner","inputs":[{"name":"account","type":"address","internalType":"address"}]},{"type":"error","name":"Ownable__ZeroAddress","inputs":[]}],"bytecode":{"object":"0x60806040523480156200001157600080fd5b50604051620045c1380380620045c18339810160408190526200003491620004a6565b6200003e620000c1565b620000493362000169565b60005b8151811015620000b957620000838282815181106200006f576200006f62000578565b60200260200101516200023760201b60201c565b620000b08282815181106200009c576200009c62000578565b60200260200101516200031c60201b60201c565b6001016200004c565b5050620005df565b7f59b501c3653afc186af7d48dda36cf6732bd21629a6295693664240a6ef520008054640100000000900460ff16156200010e576040516366008a2d60e01b815260040160405180910390fd5b805463ffffffff90811610156200016657805463ffffffff191663ffffffff90811782556040519081527fe9c9b456cb2994b80aeef036cf59d26e9617df80f816a6ee5a5b4166e07e2f5c9060200160405180910390a15b50565b60006200019d7f4675fa8241f86f37157864d3d49b85ad4b164352c516da28e1678a90470ae300546001600160a01b031690565b90506001600160a01b038216620001c757604051634e3ef82560e01b815260040160405180910390fd5b817f4675fa8241f86f37157864d3d49b85ad4b164352c516da28e1678a90470ae30080546001600160a01b0319166001600160a01b03928316179055604051838216918316907f8be0079c531659141344cd1fd0a4f28419497f9722a3daafe3b4186f6b6457e090600090a35050565b6001600160a01b038116620002865760408051808201825260078152664241445f41524760c81b6020820152905162461bcd60e51b81526200027d91906004016200058e565b60405180910390fd5b62000293600882620003e9565b15620002d757604080518082018252600e81526d414c52454144595f45584953545360901b6020820152905162461bcd60e51b81526200027d91906004016200058e565b620002e460088262000410565b506040516001600160a01b038216907fac6fa858e9350a46cec16539926e0fde25b7629f84b5a72bffaae4df888ae86d90600090a250565b6001600160a01b038116620003625760408051808201825260078152664241445f41524760c81b6020820152905162461bcd60e51b81526200027d91906004016200058e565b6200036f600d8262000410565b620003b257604080518082018252600e81526d414c52454144595f45584953545360901b6020820152905162461bcd60e51b81526200027d91906004016200058e565b6040516001600160a01b038216907f7afd798379ae2d2e5035438544cea2b60eb1dde6a8128e6d447fd2a25f8825a290600090a250565b6001600160a01b038116600090815260018301602052604081205415155b90505b92915050565b600062000407836001600160a01b03841660008181526001830160205260408120546200046a575081546001818101845560008481526020808220909301849055845484825282860190935260409020919091556200040a565b5060006200040a565b634e487b7160e01b600052604160045260246000fd5b80516001600160a01b0381168114620004a157600080fd5b919050565b60006020808385031215620004ba57600080fd5b82516001600160401b0380821115620004d257600080fd5b818501915085601f830112620004e757600080fd5b815181811115620004fc57620004fc62000473565b8060051b604051601f19603f8301168101818110858211171562000524576200052462000473565b6040529182528482019250838101850191888311156200054357600080fd5b938501935b828510156200056c576200055c8562000489565b8452938501939285019262000548565b98975050505050505050565b634e487b7160e01b600052603260045260246000fd5b60006020808352835180602085015260005b81811015620005be57858101830151858201604001528201620005a0565b506000604082860101526040601f19601f8301168501019250505092915050565b613fd280620005ef6000396000f3fe608060405234801561001057600080fd5b50600436106101fb5760003560e01c8063a1174e7d1161011a578063c8fe3a01116100ad578063d911c6321161007c578063d911c6321461046f578063ee885b1214610477578063eecc66f41461048a578063fc207c011461049d578063ff3a14ab146104b057600080fd5b8063c8fe3a0114610413578063ca78c41a14610428578063d0c27c4f14610449578063d4bd44a01461045c57600080fd5b8063ba428b1a116100e9578063ba428b1a146103d2578063c0f22084146103e5578063c179b85f146103ed578063c87d13241461040057600080fd5b8063a1174e7d14610384578063ac8a584a14610399578063b2b99ec9146103ac578063b7f227ee146103bf57600080fd5b80636b883c39116101925780639283ae3a116101615780639283ae3a1461032b5780639d2090481461033e5780639ee86d381461035e578063a09449a61461037157600080fd5b80636b883c39146102df5780636d70f7ae146102f25780637e4465e714610305578063813049ec1461031857600080fd5b8063242cae9f116101ce578063242cae9f1461029057806331374511146102a357806339bf397e146102b6578063581f8b9b146102cc57600080fd5b80630175015214610200578063035759e114610246578063081814db1461025b5780631290abe814610270575b600080fd5b61023161020e366004613298565b6001600160a01b0390811660009081526007602052604090206002015416151590565b60405190151581526020015b60405180910390f35b6102596102543660046132b3565b6104c3565b005b610263610637565b60405161023d919061331c565b61028361027e3660046132b3565b6108a2565b60405161023d9190613437565b61025961029e366004613298565b6109c4565b6102596102b136600461344a565b610a0b565b6102be610a9c565b60405190815260200161023d565b6102596102da3660046134cd565b610aad565b6102596102ed3660046135b5565b610c4d565b610231610300366004613298565b610eb4565b610259610313366004613698565b610ec7565b610259610326366004613298565b6110bf565b6102636103393660046132b3565b6111ba565b61035161034c366004613298565b61131d565b60405161023d9190613771565b61025961036c366004613784565b61149e565b61025961037f3660046137be565b61165c565b61038c61192b565b60405161023d9190613844565b6102596103a7366004613298565b611aff565b6102596103ba366004613298565b611c62565b6102596103cd3660046138a8565b611e2b565b6102596103e036600461344a565b61207a565b6102be612106565b6102596103fb366004613298565b612111565b6102be61040e366004613298565b612155565b61041b612203565b60405161023d9190613910565b61043b610436366004613923565b61220f565b60405161023d929190613945565b6102316104573660046132b3565b6123ff565b61023161046a366004613298565b61240b565b61041b612418565b610259610485366004613784565b612424565b6102596104983660046139c4565b61266d565b6102316104ab3660046132b3565b612838565b6102596104be366004613a21565b612845565b336104cf600d82612b65565b6105125760408051808201825260088152670848288be82aaa8960c31b6020820152905162461bcd60e51b81526105099190600401613a83565b60405180910390fd5b8161051e600a82612b8a565b6105595760408051808201825260098152681393d517d193d5539160ba1b6020820152905162461bcd60e51b81526105099190600401613a83565b6000838152600c6020526040902054156105cc576000838152600c6020526040902080548061058a5761058a613a96565b60008281526020812060036000199093019283020181815560018101805467ffffffffffffffff19169055906105c36002830182613127565b50509055610559565b6000838152600c602052604081206105e391613161565b6105ee600a84612ba2565b50604080518481526001600160401b0360208201526080818301819052600090820152600160608201529051600080516020613fb28339815191529181900360a00190a1505050565b6060600080610646600a612bae565b905060005b81811015610687576000610660600a83612bb8565b6000818152600c602052604090205490915061067c9085613ac2565b93505060010161064b565b506000826001600160401b038111156106a2576106a2613500565b6040519080825280602002602001820160405280156106ef57816020015b604080516060808201835260008083526020830152918101919091528152602001906001900390816106c05790505b50905060006106fe600a612bae565b90506000805b82811015610897576000610719600a83612bb8565b6000818152600c6020908152604080832080548251818502810185019093528083529495509293909291849084015b8282101561082c57600084815260209081902060408051606081018252600386029092018054835260018101546001600160401b0316938301939093526002830180549293929184019161079b90613ad5565b80601f01602080910402602001604051908101604052809291908181526020018280546107c790613ad5565b80156108145780601f106107e957610100808354040283529160200191610814565b820191906000526020600020905b8154815290600101906020018083116107f757829003601f168201915b50505050508152505081526020019060010190610748565b50505050905060005b81518110156108895781818151811061085057610850613b09565b602002602001015187868061086490613b1f565b97508151811061087657610876613b09565b6020908102919091010152600101610835565b505050806001019050610704565b509195945050505050565b6040805160a08101825260008082526020820181905291810182905260608082018390526080820152906108d69083612b8a565b6109115760408051808201825260098152681393d517d193d5539160ba1b6020820152905162461bcd60e51b81526105099190600401613a83565b600082815260026020818152604092839020835160a0810185528154815260018201546001600160401b0380821683860152600160401b8204811683880152600160801b90910416606082015292810180548551818502810185019096528086529394919360808601938301828280156109b457602002820191906000526020600020905b81546001600160a01b03168152600190910190602001808311610996575b5050505050815250509050919050565b6109cc612bc4565b6001600160a01b0316336001600160a01b0316146109ff576040516365f4906560e01b8152336004820152602401610509565b610a0881612bf2565b50565b7f59b501c3653afc186af7d48dda36cf6732bd21629a6295693664240a6ef5200054640100000000900460ff16610a5557604051630ef4733760e31b815260040160405180910390fd5b60005b81811015610a9757610a8f838383818110610a7557610a75613b09565b9050602002016020810190610a8a9190613298565b612cc4565b600101610a58565b505050565b6000610aa86005612bae565b905090565b6001600160a01b03808316600090815260076020526040902060020154839116610b0d57604080518082018252600e81526d1393d11157d393d517d193d5539160921b6020820152905162461bcd60e51b81526105099190600401613a83565b33610b19600882612b65565b610b535760408051808201825260088152670848288be82aaa8960c31b6020820152905162461bcd60e51b81526105099190600401613a83565b6001600160a01b0380851660009081526007602052604090206003015485913391168114610bb15760408051808201825260088152670848288be82aaa8960c31b6020820152905162461bcd60e51b81526105099190600401613a83565b6001600160a01b03861660009081526007602052604090208054610bd89060ff1687612d89565b80548690829060ff19166001836005811115610bf657610bf66136e5565b021790555060028101546040516001600160a01b03909116907f20891cc7622c7951cbd8c70c61a5201eb45625b8c00e8f6c986cfca78f3dbfa090610c3c908990613b38565b60405180910390a250505050505050565b336000818152600760205260409020600201546001600160a01b0316610ca957604080518082018252600e81526d1393d11157d393d517d193d5539160921b6020820152905162461bcd60e51b81526105099190600401613a83565b610cb4600086612b8a565b15610cf557604080518082018252600e81526d414c52454144595f45584953545360901b6020820152905162461bcd60e51b81526105099190600401613a83565b835160005b81811015610d7a57610d32868281518110610d1757610d17613b09565b60200260200101516000600501612b6590919063ffffffff16565b610d7257604080518082018252600e81526d1393d11157d393d517d193d5539160921b6020820152905162461bcd60e51b81526105099190600401613a83565b600101610cfa565b506040805160a081018252858152600060208201819052918101829052606081018290526080810187905290610db09088612f1c565b5060008781526002602081815260409283902084518155818501516001820180549587015160608801516001600160401b03908116600160801b0267ffffffffffffffff60801b19928216600160401b026fffffffffffffffffffffffffffffffff19909916919094161796909617959095161790935560808401518051859493610e4093908501920190613182565b5050506000878152600360205260409020610e5b8582613bab565b5060008781526004602052604090819020869055517f55ef7efc60ef99743e54209752c9a8e047e013917ec91572db75875069dd65bb90610ea3908990899089908990613c64565b60405180910390a150505050505050565b6000610ec1600883612b65565b92915050565b33610ed3600882612b65565b610f0d5760408051808201825260088152670848288be82aaa8960c31b6020820152905162461bcd60e51b81526105099190600401613a83565b6001600160a01b03808416600090815260076020526040902060020154849116610f6d57604080518082018252600e81526d1393d11157d393d517d193d5539160921b6020820152905162461bcd60e51b81526105099190600401613a83565b6001600160a01b0380851660009081526007602052604090206003015485913391168114610fcb5760408051808201825260088152670848288be82aaa8960c31b6020820152905162461bcd60e51b81526105099190600401613a83565b6001600160a01b0386166000908152600760209081526040918290209151610ff591889101613ca0565b604051602081830303815290604052805190602001208160010160405160200161101f9190613cbc565b604051602081830303815290604052805190602001200361106f5760408051808201825260078152664241445f41524760c81b6020820152905162461bcd60e51b81526105099190600401613a83565b6001810161107d8782613bab565b5060028101546040516001600160a01b03909116907f4505168a8705a16fd4d0575197fd0f510db69df93a065e158ad2c0957ba12bac90610c3c908990613a83565b6110c7612bc4565b6001600160a01b0316336001600160a01b0316146110fa576040516365f4906560e01b8152336004820152602401610509565b6001600160a01b03811661113d5760408051808201825260078152664241445f41524760c81b6020820152905162461bcd60e51b81526105099190600401613a83565b611148600d82612f28565b6111835760408051808201825260098152681393d517d193d5539160ba1b6020820152905162461bcd60e51b81526105099190600401613a83565b6040516001600160a01b038216907ff9889c857e5356066b564327caa757c325ecbc001b2b47d72edf8cf9aedb1be590600090a250565b6060816111c8600a82612b8a565b6112035760408051808201825260098152681393d517d193d5539160ba1b6020820152905162461bcd60e51b81526105099190600401613a83565b6000838152600c6020908152604080832080548251818502810185019093528083529193909284015b8282101561131057600084815260209081902060408051606081018252600386029092018054835260018101546001600160401b0316938301939093526002830180549293929184019161127f90613ad5565b80601f01602080910402602001604051908101604052809291908181526020018280546112ab90613ad5565b80156112f85780601f106112cd576101008083540402835291602001916112f8565b820191906000526020600020905b8154815290600101906020018083116112db57829003601f168201915b5050505050815250508152602001906001019061122c565b5050505091505b50919050565b6113486040805160808101909152806000815260606020820181905260006040830181905291015290565b611353600583612b65565b61139357604080518082018252600e81526d1393d11157d393d517d193d5539160921b6020820152905162461bcd60e51b81526105099190600401613a83565b6001600160a01b038216600090815260076020526040908190208151608081019092528054829060ff1660058111156113ce576113ce6136e5565b60058111156113df576113df6136e5565b81526020016001820180546113f390613ad5565b80601f016020809104026020016040519081016040528092919081815260200182805461141f90613ad5565b801561146c5780601f106114415761010080835404028352916020019161146c565b820191906000526020600020905b81548152906001019060200180831161144f57829003601f168201915b505050918352505060028201546001600160a01b03908116602083015260039092015490911660409091015292915050565b816114aa600082612b8a565b6114e55760408051808201825260098152681393d517d193d5539160ba1b6020820152905162461bcd60e51b81526105099190600401613a83565b336000818152600760205260409020600201546001600160a01b031661154157604080518082018252600e81526d1393d11157d393d517d193d5539160921b6020820152905162461bcd60e51b81526105099190600401613a83565b600084815260026020819052604082209081015490915b818110156115dd57856001600160a01b031683600201828154811061157f5761157f613b09565b6000918252602090912001546001600160a01b0316036115d557604080518082018252600e81526d414c52454144595f45584953545360901b6020820152905162461bcd60e51b81526105099190600401613a83565b600101611558565b5060028201805460018082018355600092835260209283902090910180546001600160a01b0319166001600160a01b038916908117909155604080518a8152938401919091528201527faaa473c28a5fe04b6a7ecd795826e462f9d0c23f00ef9f51ec02fa6ea418806f906060015b60405180910390a1505050505050565b33611668600d82612b65565b6116a25760408051808201825260088152670848288be82aaa8960c31b6020820152905162461bcd60e51b81526105099190600401613a83565b67fffffffffffffffe196001600160401b038516016116f05760408051808201825260078152664241445f41524760c81b6020820152905162461bcd60e51b81526105099190600401613a83565b600082900361172e5760408051808201825260078152664241445f41524760c81b6020820152905162461bcd60e51b81526105099190600401613a83565b611739600a86612b8a565b61174a57611748600a86612f1c565b505b6000858152600c6020526040812054905b81811015611831576000878152600c6020526040902080546001600160401b03881691908390811061178f5761178f613b09565b60009182526020909120600160039092020101546001600160401b031603611829576000878152600c60205260409020805486918691849081106117d5576117d5613b09565b906000526020600020906003020160020191826117f3929190613d32565b50600080516020613fb283398151915287878787600060405161181a959493929190613deb565b60405180910390a15050611924565b60010161175b565b506000600c0160008781526020019081526020016000206040518060600160405280888152602001876001600160401b0316815260200186868080601f0160208091040260200160405190810160405280939291908181526020018383808284376000920182905250939094525050835460018082018655948252602091829020845160039092020190815590830151938101805467ffffffffffffffff19166001600160401b039095169490941790935550604081015190919060028201906118fb9082613bab565b505050600080516020613fb283398151915286868686600060405161164c959493929190613deb565b5050505050565b606060006119396005612bae565b6001600160401b0381111561195057611950613500565b6040519080825280602002602001820160405280156119ac57816020015b6119996040805160808101909152806000815260606020820181905260006040830181905291015290565b81526020019060019003908161196e5790505b50905060005b6119bc6005612bae565b81101561131757600760006119d2600584612bb8565b6001600160a01b03168152602081019190915260409081016000208151608081019092528054829060ff166005811115611a0e57611a0e6136e5565b6005811115611a1f57611a1f6136e5565b8152602001600182018054611a3390613ad5565b80601f0160208091040260200160405190810160405280929190818152602001828054611a5f90613ad5565b8015611aac5780601f10611a8157610100808354040283529160200191611aac565b820191906000526020600020905b815481529060010190602001808311611a8f57829003601f168201915b505050918352505060028201546001600160a01b0390811660208301526003909201549091166040909101528251839083908110611aec57611aec613b09565b60209081029190910101526001016119b2565b611b07612bc4565b6001600160a01b0316336001600160a01b031614611b3a576040516365f4906560e01b8152336004820152602401610509565b611b45600882612b65565b611b8957604080518082018252601281527113d41154905513d497d393d517d193d5539160721b6020820152905162461bcd60e51b81526105099190600401613a83565b60005b611b966005612bae565b811015611c1e576001600160a01b03821660076000611bb6600585612bb8565b6001600160a01b0390811682526020820192909252604001600020600301541603611c1657604080518082018252600d81526c4f55545f4f465f424f554e445360981b6020820152905162461bcd60e51b81526105099190600401613a83565b600101611b8c565b50611c2a600882612f28565b506040516001600160a01b038216907f80c0b871b97b595b16a7741c1b06fed0c6f6f558639f18ccbce50724325dc40d90600090a250565b6001600160a01b0380821660009081526007602052604090206003015482913391168114611cc05760408051808201825260088152670848288be82aaa8960c31b6020820152905162461bcd60e51b81526105099190600401613a83565b6001600160a01b0383811660009081526007602052604090206002015416611d1e57604080518082018252600e81526d1393d11157d393d517d193d5539160921b6020820152905162461bcd60e51b81526105099190600401613a83565b60056001600160a01b03841660009081526007602052604090205460ff166005811115611d4d57611d4d6136e5565b14611d965760408051808201825260168152751393d11157d4d510551157d393d517d0531313d5d15160521b6020820152905162461bcd60e51b81526105099190600401613a83565b611da1600584612f28565b506001600160a01b0383166000908152600760205260408120805460ff1916815590611dd06001830182613127565b506002810180546001600160a01b03199081169091556003909101805490911690556040516001600160a01b038416907fcfc24166db4bb677e857cacabd1541fb2b30645021b27c5130419589b84db52b90600090a2505050565b33611e37600d82612b65565b611e715760408051808201825260088152670848288be82aaa8960c31b6020820152905162461bcd60e51b81526105099190600401613a83565b6000805b6000858152600c6020526040902054811015611ff2576000858152600c6020526040902080546001600160401b038616919083908110611eb757611eb7613b09565b60009182526020909120600160039092020101546001600160401b031603611fea576000858152600c602052604090208054611ef590600190613e3b565b81548110611f0557611f05613b09565b90600052602060002090600302016000600c0160008781526020019081526020016000208281548110611f3a57611f3a613b09565b600091825260209091208254600390920201908155600180830154908201805467ffffffffffffffff19166001600160401b03909216919091179055600280820190611f8890840182613e4e565b5050506000858152600c60205260409020805480611fa857611fa8613a96565b60008281526020812060036000199093019283020181815560018101805467ffffffffffffffff1916905590611fe16002830182613127565b50509055600191505b600101611e75565b508061202f5760408051808201825260098152681393d517d193d5539160ba1b6020820152905162461bcd60e51b81526105099190600401613a83565b604080518581526001600160401b03851660208201526080818301819052600090820152600160608201529051600080516020613fb28339815191529181900360a00190a150505050565b7f59b501c3653afc186af7d48dda36cf6732bd21629a6295693664240a6ef5200054640100000000900460ff166120c457604051630ef4733760e31b815260040160405180910390fd5b60005b81811015610a97576120fe8383838181106120e4576120e4613b09565b90506020020160208101906120f99190613298565b612bf2565b6001016120c7565b6000610aa881612bae565b612119612bc4565b6001600160a01b0316336001600160a01b03161461214c576040516365f4906560e01b8152336004820152602401610509565b610a0881612cc4565b6000808061216281612bae565b905060005b818110156121fa57600061217b8183612bb8565b60008181526002602052604081209192505b60028201548110156121ec57876001600160a01b03168260020182815481106121b8576121b8613b09565b6000918252602090912001546001600160a01b0316036121e457856121dc81613b1f565b9650506121ec565b60010161218d565b505050806001019050612167565b50909392505050565b6060610aa86005612f3d565b6060600082841061224f5760408051808201825260078152664241445f41524760c81b6020820152905162461bcd60e51b81526105099190600401613a83565b600061225a81612bae565b9050600081851161226b578461226d565b815b9050600086821161227f576000612289565b6122898783613e3b565b90506000816001600160401b038111156122a5576122a5613500565b6040519080825280602002602001820160405280156122de57816020015b6122cb6131e7565b8152602001906001900390816122c35790505b50905060005b828110156123ee5760006123036122fb838c613ac2565b600090612bb8565b60408051808201825282815260008381526002602081815291849020845160a0810186528154815260018201546001600160401b0380821683870152600160401b8204811683890152600160801b90910416606082015291810180548651818602810186019097528087529697509395838701959294919360808601939291908301828280156123bc57602002820191906000526020600020905b81546001600160a01b0316815260019091019060200180831161239e575b5050505050815250508152508383815181106123da576123da613b09565b6020908102919091010152506001016122e4565b509450505083101590509250929050565b6000610ec18183612b8a565b6000610ec1600d83612b65565b6060610aa86008612f3d565b81612430600082612b8a565b61246b5760408051808201825260098152681393d517d193d5539160ba1b6020820152905162461bcd60e51b81526105099190600401613a83565b336000818152600760205260409020600201546001600160a01b03166124c757604080518082018252600e81526d1393d11157d393d517d193d5539160921b6020820152905162461bcd60e51b81526105099190600401613a83565b6000848152600260208190526040822090810154909190815b818110156125e257866001600160a01b031684600201828154811061250757612507613b09565b6000918252602090912001546001600160a01b0316036125da5760028401612530600184613e3b565b8154811061254057612540613b09565b6000918252602090912001546002850180546001600160a01b03909216918390811061256e5761256e613b09565b9060005260206000200160006101000a8154816001600160a01b0302191690836001600160a01b03160217905550836002018054806125af576125af613a96565b600082815260209020810160001990810180546001600160a01b0319169055019055600192506125e2565b6001016124e0565b508161262457604080518082018252600e81526d1393d11157d393d517d193d5539160921b6020820152905162461bcd60e51b81526105099190600401613a83565b604080518881526001600160a01b03881660208201526000918101919091527faaa473c28a5fe04b6a7ecd795826e462f9d0c23f00ef9f51ec02fa6ea418806f90606001610ea3565b33612679600882612b65565b6126b35760408051808201825260088152670848288be82aaa8960c31b6020820152905162461bcd60e51b81526105099190600401613a83565b6001600160a01b03848116600090815260076020526040902060020154161561271257604080518082018252600e81526d414c52454144595f45584953545360901b6020820152905162461bcd60e51b81526105099190600401613a83565b60006040518060800160405280846005811115612731576127316136e5565b8152602081018690526001600160a01b038716604082015233606090910152905061275d600586612f4a565b506001600160a01b03851660009081526007602052604090208151815483929190829060ff19166001836005811115612798576127986136e5565b0217905550602082015160018201906127b19082613bab565b506040828101516002830180546001600160a01b03199081166001600160a01b03938416179091556060909401516003909301805490941692811692909217909255905133918716907f759154d15a6aec80ceab7bc8820f46ebc53ad68bb18f47afb77483fea9dcc9ff906128299088908890613f1a565b60405180910390a35050505050565b6000610ec1600a83612b8a565b336000818152600760205260409020600201546001600160a01b03166128a157604080518082018252600e81526d1393d11157d393d517d193d5539160921b6020820152905162461bcd60e51b81526105099190600401613a83565b8160008190036128e05760408051808201825260078152664241445f41524760c81b6020820152905162461bcd60e51b81526105099190600401613a83565b60005b8181101561192457368585838181106128fe576128fe613b09565b60a002919091019150612915905060008235612b8a565b61298d577f75460fe319331413a18a82d99b07735cec53fa0c4061ada38c2141e331082afa813560408301356129516080850160608601613f3c565b60408051808201825260098152681393d517d193d5539160ba1b6020820152905161297f9493929190613f57565b60405180910390a150612b5d565b80356000908152600260205260409020600180820154600160801b90041615612a29577f75460fe319331413a18a82d99b07735cec53fa0c4061ada38c2141e331082afa823560408401356129e86080860160608701613f3c565b604080518082018252600d81526c14d51491505357d4d150531151609a1b60208201529051612a1a9493929190613f57565b60405180910390a15050612b5d565b60018101546001600160401b0316600003612a575781356000908152600360205260408120612a5791613127565b60408201358155612a6e6080830160608401613f3c565b60018201805467ffffffffffffffff19166001600160401b0392909216919091179055612aa160a0830160808401613f8f565b15612ad9576001818101805467ffffffffffffffff60801b198116600160801b918290046001600160401b0316909317029190911790555b7fccc26bbb6dd655ea0bb8a40a3c30e35c6bdf42f8faf0d71bbea897af768cda8b82356040840135612b116080860160608701613f3c565b612b2160a0870160808801613f8f565b604051612b52949392919093845260208401929092526001600160401b031660408301521515606082015260800190565b60405180910390a150505b6001016128e3565b6001600160a01b038116600090815260018301602052604081205415155b9392505050565b60008181526001830160205260408120541515612b83565b6000612b838383612f5f565b6000610ec1825490565b6000612b838383613052565b7f4675fa8241f86f37157864d3d49b85ad4b164352c516da28e1678a90470ae300546001600160a01b031690565b6001600160a01b038116612c355760408051808201825260078152664241445f41524760c81b6020820152905162461bcd60e51b81526105099190600401613a83565b612c40600882612b65565b15612c8157604080518082018252600e81526d414c52454144595f45584953545360901b6020820152905162461bcd60e51b81526105099190600401613a83565b612c8c600882612f4a565b506040516001600160a01b038216907fac6fa858e9350a46cec16539926e0fde25b7629f84b5a72bffaae4df888ae86d90600090a250565b6001600160a01b038116612d075760408051808201825260078152664241445f41524760c81b6020820152905162461bcd60e51b81526105099190600401613a83565b612d12600d82612f4a565b612d5257604080518082018252600e81526d414c52454144595f45584953545360901b6020820152905162461bcd60e51b81526105099190600401613a83565b6040516001600160a01b038216907f7afd798379ae2d2e5035438544cea2b60eb1dde6a8128e6d447fd2a25f8825a290600090a250565b6000826005811115612d9d57612d9d6136e5565b1480612df157506001826005811115612db857612db86136e5565b148015612df157506003816005811115612dd457612dd46136e5565b1480612df157506004816005811115612def57612def6136e5565b145b80612e4457506002826005811115612e0b57612e0b6136e5565b148015612e4457506003816005811115612e2757612e276136e5565b1480612e4457506004816005811115612e4257612e426136e5565b145b80612e9757506004826005811115612e5e57612e5e6136e5565b148015612e9757506003816005811115612e7a57612e7a6136e5565b1480612e9757506005816005811115612e9557612e956136e5565b145b80612ecf57506003826005811115612eb157612eb16136e5565b148015612ecf57506005816005811115612ecd57612ecd6136e5565b145b15612ed8575050565b60408051808201825260168152751393d11157d4d510551157d393d517d0531313d5d15160521b6020820152905162461bcd60e51b81526105099190600401613a83565b6000612b83838361307c565b6000612b83836001600160a01b038416612f5f565b60606000612b83836130cb565b6000612b83836001600160a01b03841661307c565b60008181526001830160205260408120548015613048576000612f83600183613e3b565b8554909150600090612f9790600190613e3b565b9050808214612ffc576000866000018281548110612fb757612fb7613b09565b9060005260206000200154905080876000018481548110612fda57612fda613b09565b6000918252602080832090910192909255918252600188019052604090208390555b855486908061300d5761300d613a96565b600190038181906000526020600020016000905590558560010160008681526020019081526020016000206000905560019350505050610ec1565b6000915050610ec1565b600082600001828154811061306957613069613b09565b9060005260206000200154905092915050565b60008181526001830160205260408120546130c357508154600181810184556000848152602080822090930184905584548482528286019093526040902091909155610ec1565b506000610ec1565b60608160000180548060200260200160405190810160405280929190818152602001828054801561311b57602002820191906000526020600020905b815481526020019060010190808311613107575b50505050509050919050565b50805461313390613ad5565b6000825580601f10613143575050565b601f016020900490600052602060002090810190610a089190613231565b5080546000825560030290600052602060002090810190610a089190613246565b8280548282559060005260206000209081019282156131d7579160200282015b828111156131d757825182546001600160a01b0319166001600160a01b039091161782556020909201916001909101906131a2565b506131e3929150613231565b5090565b60408051808201909152600081526020810161322c6040805160a081018252600080825260208201819052918101829052606080820192909252608081019190915290565b905290565b5b808211156131e35760008155600101613232565b808211156131e357600080825560018201805467ffffffffffffffff191690556132736002830182613127565b50600301613246565b80356001600160a01b038116811461329357600080fd5b919050565b6000602082840312156132aa57600080fd5b612b838261327c565b6000602082840312156132c557600080fd5b5035919050565b60005b838110156132e75781810151838201526020016132cf565b50506000910152565b600081518084526133088160208601602086016132cc565b601f01601f19169290920160200192915050565b600060208083018184528085518083526040925060408601915060408160051b87010184880160005b8381101561339857888303603f19018552815180518452878101516001600160401b0316888501528601516060878501819052613384818601836132f0565b968901969450505090860190600101613345565b509098975050505050505050565b600060a08301825184526020808401516001600160401b0380821660208801528060408701511660408801528060608701511660608801525050608084015160a0608087015282815180855260c088019150602083019450600092505b8083101561342c5784516001600160a01b03168252938301936001929092019190830190613403565b509695505050505050565b602081526000612b8360208301846133a6565b6000806020838503121561345d57600080fd5b82356001600160401b038082111561347457600080fd5b818501915085601f83011261348857600080fd5b81358181111561349757600080fd5b8660208260051b85010111156134ac57600080fd5b60209290920196919550909350505050565b80356006811061329357600080fd5b600080604083850312156134e057600080fd5b6134e98361327c565b91506134f7602084016134be565b90509250929050565b634e487b7160e01b600052604160045260246000fd5b604051601f8201601f191681016001600160401b038111828210171561353e5761353e613500565b604052919050565b600082601f83011261355757600080fd5b81356001600160401b0381111561357057613570613500565b613583601f8201601f1916602001613516565b81815284602083860101111561359857600080fd5b816020850160208301376000918101602001919091529392505050565b600080600080608085870312156135cb57600080fd5b843593506020808601356001600160401b03808211156135ea57600080fd5b818801915088601f8301126135fe57600080fd5b81358181111561361057613610613500565b8060051b61361f858201613516565b918252838101850191858101908c84111561363957600080fd5b948601945b8386101561365e5761364f8661327c565b8252948601949086019061363e565b985050505060408801359450606088013592508083111561367e57600080fd5b505061368c87828801613546565b91505092959194509250565b600080604083850312156136ab57600080fd5b6136b48361327c565b915060208301356001600160401b038111156136cf57600080fd5b6136db85828601613546565b9150509250929050565b634e487b7160e01b600052602160045260246000fd5b6006811061371957634e487b7160e01b600052602160045260246000fd5b9052565b6137288282516136fb565b600060208201516080602085015261374360808501826132f0565b6040848101516001600160a01b03908116918701919091526060948501511693909401929092525090919050565b602081526000612b83602083018461371d565b6000806040838503121561379757600080fd5b823591506134f76020840161327c565b80356001600160401b038116811461329357600080fd5b600080600080606085870312156137d457600080fd5b843593506137e4602086016137a7565b925060408501356001600160401b038082111561380057600080fd5b818701915087601f83011261381457600080fd5b81358181111561382357600080fd5b88602082850101111561383557600080fd5b95989497505060200194505050565b600060208083016020845280855180835260408601915060408160051b87010192506020870160005b8281101561389b57603f1988860301845261388985835161371d565b9450928501929085019060010161386d565b5092979650505050505050565b600080604083850312156138bb57600080fd5b823591506134f7602084016137a7565b60008151808452602080850194506020840160005b838110156139055781516001600160a01b0316875295820195908201906001016138e0565b509495945050505050565b602081526000612b8360208301846138cb565b6000806040838503121561393657600080fd5b50508035926020909101359150565b600060408083016040845280865180835260608601915060608160051b8701019250602080890160005b838110156139ae57888603605f1901855281518051875283015183870188905261399b888801826133a6565b965050938201939082019060010161396f565b5050961515959096019490945295945050505050565b6000806000606084860312156139d957600080fd5b6139e28461327c565b925060208401356001600160401b038111156139fd57600080fd5b613a0986828701613546565b925050613a18604085016134be565b90509250925092565b60008060208385031215613a3457600080fd5b82356001600160401b0380821115613a4b57600080fd5b818501915085601f830112613a5f57600080fd5b813581811115613a6e57600080fd5b86602060a0830285010111156134ac57600080fd5b602081526000612b8360208301846132f0565b634e487b7160e01b600052603160045260246000fd5b634e487b7160e01b600052601160045260246000fd5b80820180821115610ec157610ec1613aac565b600181811c90821680613ae957607f821691505b60208210810361131757634e487b7160e01b600052602260045260246000fd5b634e487b7160e01b600052603260045260246000fd5b600060018201613b3157613b31613aac565b5060010190565b60208101610ec182846136fb565b601f821115610a97576000816000526020600020601f850160051c81016020861015613b6f5750805b601f850160051c820191505b81811015613b8e57828155600101613b7b565b505050505050565b600019600383901b1c191660019190911b1790565b81516001600160401b03811115613bc457613bc4613500565b613bd881613bd28454613ad5565b84613b46565b602080601f831160018114613c075760008415613bf55750858301515b613bff8582613b96565b865550613b8e565b600085815260208120601f198616915b82811015613c3657888601518255948401946001909101908401613c17565b5085821015613c545787850151600019600388901b60f8161c191681555b5050505050600190811b01905550565b848152608060208201526000613c7d60808301866138cb565b8460408401528281036060840152613c9581856132f0565b979650505050505050565b60008251613cb28184602087016132cc565b9190910192915050565b6000808354613cca81613ad5565b60018281168015613ce25760018114613cf757613d26565b60ff1984168752821515830287019450613d26565b8760005260208060002060005b85811015613d1d5781548a820152908401908201613d04565b50505082870194505b50929695505050505050565b6001600160401b03831115613d4957613d49613500565b613d5d83613d578354613ad5565b83613b46565b6000601f841160018114613d8b5760008515613d795750838201355b613d838682613b96565b845550611924565b600083815260209020601f19861690835b82811015613dbc5786850135825560209485019460019092019101613d9c565b5086821015613dd95760001960f88860031b161c19848701351681555b505060018560011b0183555050505050565b8581526001600160401b038516602082015260806040820152826080820152828460a0830137600081840160a0908101919091529115156060820152601f909201601f1916909101019392505050565b81810381811115610ec157610ec1613aac565b818103613e59575050565b613e638254613ad5565b6001600160401b03811115613e7a57613e7a613500565b613e8881613bd28454613ad5565b6000601f821160018114613eb65760008315613ea45750848201545b613eae8482613b96565b855550611924565b600085815260209020601f19841690600086815260209020845b83811015613ef05782860154825560019586019590910190602001613ed0565b5085831015613c545793015460001960f8600387901b161c19169092555050600190811b01905550565b604081526000613f2d60408301856132f0565b9050612b8360208301846136fb565b600060208284031215613f4e57600080fd5b612b83826137a7565b8481528360208201526001600160401b0383166040820152608060608201526000613f8560808301846132f0565b9695505050505050565b600060208284031215613fa157600080fd5b81358015158114612b8357600080fdfec01483261a841a868b99cb8802faed4ea44a1a816651c4f7ee061a96a205fe98","linkReferences":{}},"methodIdentifiers":{"__OperatorRegistry_init(address[])":"ba428b1a","__RiverConfig_init(address[])":"31374511","allocateStream(bytes32,address[],bytes32,bytes)":"6b883c39","approveConfigurationManager(address)":"c179b85f","approveOperator(address)":"242cae9f","configurationExists(bytes32)":"fc207c01","deleteConfiguration(bytes32)":"035759e1","deleteConfigurationOnBlock(bytes32,uint64)":"b7f227ee","getAllConfiguration()":"081814db","getAllNodeAddresses()":"c8fe3a01","getAllNodes()":"a1174e7d","getAllOperators()":"d911c632","getConfiguration(bytes32)":"9283ae3a","getNode(address)":"9d209048","getNodeCount()":"39bf397e","getPaginatedStreams(uint256,uint256)":"ca78c41a","getStream(bytes32)":"1290abe8","getStreamCount()":"c0f22084","getStreamCountOnNode(address)":"c87d1324","isConfigurationManager(address)":"d4bd44a0","isNode(address)":"01750152","isOperator(address)":"6d70f7ae","isStream(bytes32)":"d0c27c4f","placeStreamOnNode(bytes32,address)":"9ee86d38","registerNode(address,string,uint8)":"eecc66f4","removeConfigurationManager(address)":"813049ec","removeNode(address)":"b2b99ec9","removeOperator(address)":"ac8a584a","removeStreamFromNode(bytes32,address)":"ee885b12","setConfiguration(bytes32,uint64,bytes)":"a09449a6","setStreamLastMiniblockBatch((bytes32,bytes32,bytes32,uint64,bool)[])":"ff3a14ab","updateNodeStatus(address,uint8)":"581f8b9b","updateNodeUrl(address,string)":"7e4465e7"},"id":387}