{"abi":[{"type":"function","name":"__Architect_init","inputs":[],"outputs":[],"stateMutability":"nonpayable"},{"type":"function","name":"createSpace","inputs":[{"name":"spaceInfo","type":"tuple","internalType":"struct ILegacyArchitectBase.SpaceInfo","components":[{"name":"name","type":"string","internalType":"string"},{"name":"uri","type":"string","internalType":"string"},{"name":"membership","type":"tuple","internalType":"struct ILegacyArchitectBase.Membership","components":[{"name":"settings","type":"tuple","internalType":"struct IMembershipBase.Membership","components":[{"name":"name","type":"string","internalType":"string"},{"name":"symbol","type":"string","internalType":"string"},{"name":"price","type":"uint256","internalType":"uint256"},{"name":"maxSupply","type":"uint256","internalType":"uint256"},{"name":"duration","type":"uint64","internalType":"uint64"},{"name":"currency","type":"address","internalType":"address"},{"name":"feeRecipient","type":"address","internalType":"address"},{"name":"freeAllocation","type":"uint256","internalType":"uint256"},{"name":"pricingModule","type":"address","internalType":"address"}]},{"name":"requirements","type":"tuple","internalType":"struct ILegacyArchitectBase.MembershipRequirements","components":[{"name":"everyone","type":"bool","internalType":"bool"},{"name":"users","type":"address[]","internalType":"address[]"},{"name":"ruleData","type":"tuple","internalType":"struct IRuleEntitlementBase.RuleData","components":[{"name":"operations","type":"tuple[]","internalType":"struct IRuleEntitlementBase.Operation[]","components":[{"name":"opType","type":"uint8","internalType":"enum IRuleEntitlementBase.CombinedOperationType"},{"name":"index","type":"uint8","internalType":"uint8"}]},{"name":"checkOperations","type":"tuple[]","internalType":"struct IRuleEntitlementBase.CheckOperation[]","components":[{"name":"opType","type":"uint8","internalType":"enum IRuleEntitlementBase.CheckOperationType"},{"name":"chainId","type":"uint256","internalType":"uint256"},{"name":"contractAddress","type":"address","internalType":"address"},{"name":"threshold","type":"uint256","internalType":"uint256"}]},{"name":"logicalOperations","type":"tuple[]","internalType":"struct IRuleEntitlementBase.LogicalOperation[]","components":[{"name":"logOpType","type":"uint8","internalType":"enum IRuleEntitlementBase.LogicalOperationType"},{"name":"leftOperationIndex","type":"uint8","internalType":"uint8"},{"name":"rightOperationIndex","type":"uint8","internalType":"uint8"}]}]}]},{"name":"permissions","type":"string[]","internalType":"string[]"}]},{"name":"channel","type":"tuple","internalType":"struct ILegacyArchitectBase.ChannelInfo","components":[{"name":"metadata","type":"string","internalType":"string"}]},{"name":"shortDescription","type":"string","internalType":"string"},{"name":"longDescription","type":"string","internalType":"string"}]}],"outputs":[{"name":"","type":"address","internalType":"address"}],"stateMutability":"nonpayable"},{"type":"event","name":"Initialized","inputs":[{"name":"version","type":"uint32","indexed":false,"internalType":"uint32"}],"anonymous":false},{"type":"event","name":"InterfaceAdded","inputs":[{"name":"interfaceId","type":"bytes4","indexed":true,"internalType":"bytes4"}],"anonymous":false},{"type":"event","name":"InterfaceRemoved","inputs":[{"name":"interfaceId","type":"bytes4","indexed":true,"internalType":"bytes4"}],"anonymous":false},{"type":"event","name":"Paused","inputs":[{"name":"account","type":"address","indexed":false,"internalType":"address"}],"anonymous":false},{"type":"event","name":"SpaceCreated","inputs":[{"name":"owner","type":"address","indexed":true,"internalType":"address"},{"name":"tokenId","type":"uint256","indexed":true,"internalType":"uint256"},{"name":"space","type":"address","indexed":true,"internalType":"address"}],"anonymous":false},{"type":"event","name":"Unpaused","inputs":[{"name":"account","type":"address","indexed":false,"internalType":"address"}],"anonymous":false},{"type":"error","name":"Architect__InvalidAddress","inputs":[]},{"type":"error","name":"Architect__InvalidNetworkId","inputs":[]},{"type":"error","name":"Architect__InvalidStringLength","inputs":[]},{"type":"error","name":"Architect__NotContract","inputs":[]},{"type":"error","name":"Factory__FailedDeployment","inputs":[]},{"type":"error","name":"Initializable_InInitializingState","inputs":[]},{"type":"error","name":"Initializable_NotInInitializingState","inputs":[]},{"type":"error","name":"Introspection_AlreadySupported","inputs":[]},{"type":"error","name":"Introspection_NotSupported","inputs":[]},{"type":"error","name":"Pausable__NotPaused","inputs":[]},{"type":"error","name":"Pausable__Paused","inputs":[]},{"type":"error","name":"ReentrancyGuard__ReentrantCall","inputs":[]},{"type":"error","name":"Validator__InvalidAddress","inputs":[]}],"bytecode":{"object":"0x608060405234801561001057600080fd5b5061001961001e565b6100c4565b7f59b501c3653afc186af7d48dda36cf6732bd21629a6295693664240a6ef520008054640100000000900460ff161561006a576040516366008a2d60e01b815260040160405180910390fd5b805463ffffffff90811610156100c157805463ffffffff191663ffffffff90811782556040519081527fe9c9b456cb2994b80aeef036cf59d26e9617df80f816a6ee5a5b4166e07e2f5c9060200160405180910390a15b50565b6136ba80620000d46000396000f3fe60806040523480156200001157600080fd5b50600436106200003a5760003560e01c8063e8546e07146200003f578063ef009225146200004b575b600080fd5b620000496200007e565b005b620000626200005c36600462001835565b620000dd565b6040516001600160a01b03909116815260200160405180910390f35b7f59b501c3653afc186af7d48dda36cf6732bd21629a6295693664240a6ef5200054640100000000900460ff16620000c957604051630ef4733760e31b815260040160405180910390fd5b620000db63ef00922560e01b620001cc565b565b600060027f54f22f54f370bd020e00ee80e1a5099a71652e2ccbcf6a75281e4c70a3e11a0054036200012257604051635db5c7cd60e11b815260040160405180910390fd5b6200014c60027f54f22f54f370bd020e00ee80e1a5099a71652e2ccbcf6a75281e4c70a3e11a0055565b7fe17a067c7963a59b6dfd65d33b053fdbea1c56500e2aae4f976d9eda4da9eb005460ff161562000190576040516302ca8ced60e11b815260040160405180910390fd5b6200019b82620002a7565b9050620001c760017f54f22f54f370bd020e00ee80e1a5099a71652e2ccbcf6a75281e4c70a3e11a0055565b919050565b6001600160e01b0319811660009081527f81088bbc801e045ea3e7620779ab349988f58afbdfba10dff983df3f33522b00602052604090205460ff1662000256576001600160e01b0319811660009081527f81088bbc801e045ea3e7620779ab349988f58afbdfba10dff983df3f33522b0060205260409020805460ff191660011790556200026f565b604051637967f77d60e11b815260040160405180910390fd5b6040516001600160e01b03198216907f78f84e5b1c5c05be2b5ad3800781dd404d6d6c6302bc755c0fe20f58a33a7f2290600090a250565b7f9e34afa7b4d27d347d25d9d9dab4f1a106fa081382e6c4243e834d093e787d00805460408051631d5e528f60e21b815290516000937f06bd04a817647c31ee485c8a0baab96facd62dbfd4b475796bb17ca2c12f000093909285926001600160a01b03909216916375794a3c916004808201926020929091908290030181865afa1580156200033b573d6000803e3d6000fd5b505050506040513d601f19601f820116820180604052508101906200036191906200196c565b90506200037381866040015162000667565b8354909450836000620003868362001986565b90915550506000818152600284016020908152604080832080546001600160a01b0319166001600160a01b03898116918217909255845260018701835292819020849055845488519289015160808a015160a08b01519351630efd6e3d60e21b81529290951694633bf5b8f494620004079490938b92919060040162001a02565b6020604051808303816000875af115801562000427573d6000803e3d6000fd5b505050506040513d601f19601f820116820180604052508101906200044d91906200196c565b5060018201546000906200046b906001600160a01b03168662000693565b60058401549091506000906200048b906001600160a01b03168762000693565b60408051600280825260608201835292935060009290916020830190803683370190505090508281600081518110620004c857620004c862001a72565b60200260200101906001600160a01b031690816001600160a01b0316815250508181600181518110620004ff57620004ff62001a72565b6001600160a01b039283166020918202929092010152604051638bfc820f60e01b815290881690638bfc820f906200053c90849060040162001a88565b600060405180830381600087803b1580156200055757600080fd5b505af11580156200056c573d6000803e3d6000fd5b50505050620005868784848b604001516020015162000750565b50604080890151805151910151600091620005a5918a91908762000b83565b9050620005b888828b6060015162000d13565b8554604051632142170760e11b8152306004820152336024820152604481018790526001600160a01b03909116906342842e0e90606401600060405180830381600087803b1580156200060a57600080fd5b505af11580156200061f573d6000803e3d6000fd5b50506040516001600160a01b038b16925087915033907fe50fc3942f8a2d7e5a7c8fb9488499eba5255b41e18bc3f1b4791402976d1d0b90600090a450505050505050919050565b600080600062000678858562000e14565b9150915062000688828262000fc2565b925050505b92915050565b60008060405180602001620006a89062001038565b601f1982820381018352601f9091011660408190526001600160a01b0385166024820152859060440160408051601f19818403018152918152602080830180516001600160e01b031663189acdbd60e31b17905290516200070c9392910162001ad7565b60408051601f19818403018152908290526200072c929160200162001afd565b6040516020818303038152906040529050620007488162000fe8565b949350505050565b604080516001808252818301909252600091829190816020015b60608152602001906001900390816200076a579050509050604051806040016040528060098152602001684a6f696e537061636560b81b81525081600081518110620007ba57620007ba62001a72565b6020026020010181905250856001600160a01b0316638fcd793d6040518060400160405280600681526020016526b4b73a32b960d11b8152508360006001600160401b0381111562000810576200081062001054565b6040519080825280602002602001820160405280156200085857816020015b6040805180820190915260008152606060208201528152602001906001900390816200082f5790505b506040518463ffffffff1660e01b8152600401620008799392919062001b59565b6020604051808303816000875af115801562000899573d6000803e3d6000fd5b505050506040513d601f19601f82011682018060405250810190620008bf91906200196c565b835190925015620009cd576040805160018082528183019092526000916020808301908036833701905050905060018160008151811062000904576200090462001a72565b60200260200101906001600160a01b031690816001600160a01b031681525050866001600160a01b031663ba201ba88460405180604001604052808a6001600160a01b031681526020018560405160200162000961919062001a88565b6040516020818303038152906040528152506040518363ffffffff1660e01b81526004016200099292919062001c2b565b600060405180830381600087803b158015620009ad57600080fd5b505af1158015620009c2573d6000803e3d6000fd5b505050505062000b7a565b6020830151511562000ac65760005b83602001515181101562000a1e5762000a158460200151828151811062000a075762000a0762001a72565b60200260200101516200100d565b600101620009dc565b50856001600160a01b031663ba201ba8836040518060400160405280896001600160a01b03168152602001876020015160405160200162000a60919062001a88565b6040516020818303038152906040528152506040518363ffffffff1660e01b815260040162000a9192919062001c2b565b600060405180830381600087803b15801562000aac57600080fd5b505af115801562000ac1573d6000803e3d6000fd5b505050505b604083015151511562000b7a57856001600160a01b031663ba201ba8836040518060400160405280886001600160a01b03168152602001876040015160405160200162000b14919062001d43565b6040516020818303038152906040528152506040518363ffffffff1660e01b815260040162000b4592919062001c2b565b600060405180830381600087803b15801562000b6057600080fd5b505af115801562000b75573d6000803e3d6000fd5b505050505b50949350505050565b6040805160018082528183019092526000918291906020808301908036833701905050905060018160008151811062000bc05762000bc062001a72565b6001600160a01b039290921660209283029190910190910152604080516001808252818301909252600091816020015b60408051808201909152600081526060602082015281526020019060019003908162000bf0579050509050838160008151811062000c325762000c3262001a72565b6020908102919091018101516001600160a01b0390921690915260405162000c5d9184910162001a88565b6040516020818303038152906040528160008151811062000c825762000c8262001a72565b6020908102919091018101510152604051638fcd793d60e01b81526001600160a01b03881690638fcd793d9062000cc29089908990869060040162001b59565b6020604051808303816000875af115801562000ce2573d6000803e3d6000fd5b505050506040513d601f19601f8201168201806040525081019062000d0891906200196c565b979650505050505050565b60408051600180825281830190925260009160208083019080368337019050509050828160008151811062000d4c5762000d4c62001a72565b602090810291909101810191909152604051600160fd1b918101919091526bffffffffffffffffffffffff19606086901b16602182015260009060350160405160208183030381529060405262000da39062001dee565b835160405163921f717560e01b81529192506001600160a01b0387169163921f71759162000dd991859190879060040162001e16565b600060405180830381600087803b15801562000df457600080fd5b505af115801562000e09573d6000803e3d6000fd5b505050505050505050565b60606000807f9e34afa7b4d27d347d25d9d9dab4f1a106fa081382e6c4243e834d093e787d00604080513360208201529081018790524260608201529091506080016040516020818303038152906040528051906020012091506040518060200162000e809062001046565b601f19828203810183526040601f90920116818101825263dc9cc64560e01b8152306020828101919091528251808401845285546001600160a01b0390811682528183018b90528451610120810186528a515181528a518401519381019390935289518501519483019490945288516060908101519083015288516080908101516001600160401b031690830152885160a090810151851690830152885160c090810151339592939291830191161562000f4057895160c0015162000f42565b335b6001600160a01b03168152602001896000015160e001518152602001896000015161010001516001600160a01b031681525060405160200162000f89949392919062001e77565b60408051601f198184030181529082905262000fa9929160200162001afd565b6040516020818303038152906040529250509250929050565b60008260200183518381836000f592505050806200068d5763ef35ca196000526004601cfd5b600081602001825180826000f09250505080620001c75763ef35ca196000526004601cfd5b6001600160a01b03811662001035576040516302e47d1560e41b815260040160405180910390fd5b50565b6103d48062001f7383390190565b611373806200234783390190565b634e487b7160e01b600052604160045260246000fd5b604051608081016001600160401b03811182821017156200108f576200108f62001054565b60405290565b604051606081016001600160401b03811182821017156200108f576200108f62001054565b604080519081016001600160401b03811182821017156200108f576200108f62001054565b60405161012081016001600160401b03811182821017156200108f576200108f62001054565b60405160c081016001600160401b03811182821017156200108f576200108f62001054565b604051601f8201601f191681016001600160401b038111828210171562001155576200115562001054565b604052919050565b600082601f8301126200116f57600080fd5b81356001600160401b038111156200118b576200118b62001054565b620011a0601f8201601f19166020016200112a565b818152846020838601011115620011b657600080fd5b816020850160208301376000918101602001919091529392505050565b80356001600160401b0381168114620001c757600080fd5b80356001600160a01b0381168114620001c757600080fd5b60006001600160401b038211156200121f576200121f62001054565b5060051b60200190565b600381106200103557600080fd5b803560ff81168114620001c757600080fd5b600082601f8301126200125b57600080fd5b81356020620012746200126e8362001203565b6200112a565b828152600792831b85018201928282019190878511156200129457600080fd5b8387015b8581101562001303576080818a031215620012b35760008081fd5b620012bd6200106a565b8135838110620012cd5760008081fd5b815281860135868201526040620012e6818401620011eb565b908201526060828101359082015284529284019260800162001298565b5090979650505050505050565b600082601f8301126200132257600080fd5b81356020620013356200126e8362001203565b828152606092830285018201928282019190878511156200135557600080fd5b8387015b85811015620013035781818a031215620013735760008081fd5b6200137d62001095565b81356200138a8162001229565b81526200139982870162001237565b868201526040620013ac81840162001237565b90820152845292840192810162001359565b600060608284031215620013d157600080fd5b620013db62001095565b905081356001600160401b0380821115620013f557600080fd5b818401915084601f8301126200140a57600080fd5b813560206200141d6200126e8362001203565b82815260069290921b840181019181810190888411156200143d57600080fd5b948201945b838610156200149a576040868a0312156200145d5760008081fd5b62001467620010ba565b8635620014748162001229565b81526200148387850162001237565b818501528252604095909501949082019062001442565b86525085810135935082841115620014b157600080fd5b620014bf8785880162001249565b90850152506040840135915080821115620014d957600080fd5b50620014e88482850162001310565b60408301525092915050565b6000606082840312156200150757600080fd5b6200151162001095565b9050813580151581146200152457600080fd5b81526020828101356001600160401b03808211156200154257600080fd5b818501915085601f8301126200155757600080fd5b8135620015686200126e8262001203565b81815260059190911b830184019084810190888311156200158857600080fd5b938501935b82851015620015b157620015a185620011eb565b825293850193908501906200158d565b80868801525050506040850135925080831115620015ce57600080fd5b5050620014e884828501620013be565b600082601f830112620015f057600080fd5b81356020620016036200126e8362001203565b82815260059290921b840181019181810190868411156200162357600080fd5b8286015b84811015620016675780356001600160401b03811115620016485760008081fd5b620016588986838b01016200115d565b84525091830191830162001627565b509695505050505050565b6000606082840312156200168557600080fd5b6200168f62001095565b905081356001600160401b0380821115620016a957600080fd5b908301906101208286031215620016bf57600080fd5b620016c9620010df565b823582811115620016d957600080fd5b620016e7878286016200115d565b825250602083013582811115620016fd57600080fd5b6200170b878286016200115d565b60208301525060408301356040820152606083013560608201526200173360808401620011d3565b60808201526200174660a08401620011eb565b60a08201526200175960c08401620011eb565b60c082015260e083013560e082015261010062001778818501620011eb565b90820152835260208401359150808211156200179357600080fd5b620017a185838601620014f4565b60208401526040840135915080821115620017bb57600080fd5b50620014e884828501620015de565b600060208284031215620017dd57600080fd5b604051602081016001600160401b03828210818311171562001803576200180362001054565b8160405282935084359150808211156200181c57600080fd5b506200182b858286016200115d565b8252505092915050565b6000602082840312156200184857600080fd5b81356001600160401b03808211156200186057600080fd5b9083019060c082860312156200187557600080fd5b6200187f62001105565b8235828111156200188f57600080fd5b6200189d878286016200115d565b825250602083013582811115620018b357600080fd5b620018c1878286016200115d565b602083015250604083013582811115620018da57600080fd5b620018e88782860162001672565b6040830152506060830135828111156200190157600080fd5b6200190f87828601620017ca565b6060830152506080830135828111156200192857600080fd5b62001936878286016200115d565b60808301525060a0830135828111156200194f57600080fd5b6200195d878286016200115d565b60a08301525095945050505050565b6000602082840312156200197f57600080fd5b5051919050565b600060018201620019a757634e487b7160e01b600052601160045260246000fd5b5060010190565b60005b83811015620019cb578181015183820152602001620019b1565b50506000910152565b60008151808452620019ee816020860160208601620019ae565b601f01601f19169290920160200192915050565b60a08152600062001a1760a0830188620019d4565b828103602084015262001a2b8188620019d4565b6001600160a01b03871660408501528381036060850152905062001a508186620019d4565b9050828103608084015262001a668185620019d4565b98975050505050505050565b634e487b7160e01b600052603260045260246000fd5b6020808252825182820181905260009190848201906040850190845b8181101562001acb5783516001600160a01b03168352928401929184019160010162001aa4565b50909695505050505050565b6001600160a01b03831681526040602082018190526000906200074890830184620019d4565b6000835162001b11818460208801620019ae565b83519083019062001b27818360208801620019ae565b01949350505050565b60018060a01b0381511682526000602082015160406020850152620007486040850182620019d4565b60608152600062001b6e6060830186620019d4565b6020838203818501528186518084528284019150828160051b85010183890160005b8381101562001bc257601f1987840301855262001baf838351620019d4565b9486019492509085019060010162001b90565b50508681036040880152875180825284820195509250600583901b81018401915083880160005b8481101562001c1b57601f1983850301875262001c0884835162001b30565b9686019693509085019060010162001be9565b50919a9950505050505050505050565b82815260406020820152600062000748604083018462001b30565b634e487b7160e01b600052602160045260246000fd5b6003811062001035576200103562001c46565b60008151808452602080850194506020840160005b8381101562001cde57815180516007811062001ca45762001ca462001c46565b885280840151848901526040808201516001600160a01b031690890152606090810151908801526080909601959082019060010162001c84565b509495945050505050565b60008151808452602080850194506020840160005b8381101562001cde578151805162001d168162001c5c565b88528084015160ff908116858a015260409182015116908801526060909601959082019060010162001cfe565b6020808252825160608383015280516080840181905260009291820190839060a08601905b8083101562001da3578351805162001d808162001c5c565b835285015160ff1685830152928401926001929092019160409091019062001d68565b50838701519350601f1992508286820301604087015262001dc5818562001c6f565b9350505060408501518185840301606086015262001de4838262001ce9565b9695505050505050565b8051602080830151919081101562001e10576000198160200360031b1b821691505b50919050565b838152600060206060602084015262001e336060840186620019d4565b83810360408501528451808252602080870192019060005b8181101562001e695783518352928401929184019160010162001e4b565b509098975050505050505050565b600060018060a01b03808716835263ffffffff60e01b8651166020840152806020870151166040840152808551166060840152506020840151608083015260c060a083015282516101208060c085015262001ed76101e0850183620019d4565b9150602085015160bf198584030160e086015262001ef68382620019d4565b925050604085015161010081818701526060870151838701526080870151925062001f2d6101408701846001600160401b03169052565b60a08701516001600160a01b0390811661016088015260c0880151811661018088015260e08801516101a0880152908701519081166101c0870152915062001667905056fe60806040526040516103d43803806103d483398101604081905261002291610268565b61002c8282610033565b5050610352565b61003c82610092565b6040516001600160a01b038316907fbc7cd75a20ee27fd9adebab32041f755214dbc6bffa90cc0225b39da2e5c2d3b90600090a280511561008657610081828261010e565b505050565b61008e610185565b5050565b806001600160a01b03163b6000036100cd57604051634c9c8ce360e01b81526001600160a01b03821660048201526024015b60405180910390fd5b7f360894a13ba1a3210667c828492db98dca3e2076cc3735a920a3ca505d382bbc80546001600160a01b0319166001600160a01b0392909216919091179055565b6060600080846001600160a01b03168460405161012b9190610336565b600060405180830381855af49150503d8060008114610166576040519150601f19603f3d011682016040523d82523d6000602084013e61016b565b606091505b50909250905061017c8583836101a6565b95945050505050565b34156101a45760405163b398979f60e01b815260040160405180910390fd5b565b6060826101bb576101b682610205565b6101fe565b81511580156101d257506001600160a01b0384163b155b156101fb57604051639996b31560e01b81526001600160a01b03851660048201526024016100c4565b50805b9392505050565b8051156102155780518082602001fd5b604051630a12f52160e11b815260040160405180910390fd5b634e487b7160e01b600052604160045260246000fd5b60005b8381101561025f578181015183820152602001610247565b50506000910152565b6000806040838503121561027b57600080fd5b82516001600160a01b038116811461029257600080fd5b60208401519092506001600160401b03808211156102af57600080fd5b818501915085601f8301126102c357600080fd5b8151818111156102d5576102d561022e565b604051601f8201601f19908116603f011681019083821181831017156102fd576102fd61022e565b8160405282815288602084870101111561031657600080fd5b610327836020830160208801610244565b80955050505050509250929050565b60008251610348818460208701610244565b9190910192915050565b6074806103606000396000f3fe6080604052600a600c565b005b60186014601a565b6051565b565b6000604c7f360894a13ba1a3210667c828492db98dca3e2076cc3735a920a3ca505d382bbc546001600160a01b031690565b905090565b3660008037600080366000845af43d6000803e808015606f573d6000f35b3d6000fd60806040523480156200001157600080fd5b506040516200137338038062001373833981016040819052620000349162000c14565b6200003e62000160565b620000a58380517f9c16cba5b9f2fcbd952b38bec34079e93cbe107475c15fc20705f4e704198a0080546020909301516001600160a01b03166001600160a01b031960e09390931c600160a01b02929092166001600160c01b031990931692909217179055565b81517fd2f24d4f172e4e84e48e7c4125b6e904c29e5eba33ad4938fee51dd5dbd4b60080546001600160a01b0319166001600160a01b0390921691909117905560208201517fd2f24d4f172e4e84e48e7c4125b6e904c29e5eba33ad4938fee51dd5dbd4b60155805160208201516200011f919062000174565b62000135818460200151620001cb60201b60201c565b6200014284600162000380565b6200014c620003a6565b620001566200047b565b5050505062000ef9565b620001726301ffc9a760e01b620004d0565b565b600080516020620012f38339815191527f6569bde4a160c636ea8b8d11acb83a60d7fec0b8f2e09389306cba0e1340df02620001b1848262000d7a565b5060038101620001c2838262000d7a565b50600090555050565b6000805160206200131383398151915280546001600160a01b038381166001600160a01b0319928316179092556101008401517fc21004fcc619240a31f006438274d15cd813308303284436eef6055f0fdcb608805491909316908216179091557fc21004fcc619240a31f006438274d15cd813308303284436eef6055f0fdcb604805490911673eeeeeeeeeeeeeeeeeeeeeeeeeeeeeeeeeeeeeeee17905560608201517fc21004fcc619240a31f006438274d15cd813308303284436eef6055f0fdcb6035560e08201517fc21004fcc619240a31f006438274d15cd813308303284436eef6055f0fdcb607819055600080516020620013538339815191529015620002f15760e0830151620002e190620005ab565b600d8101805460ff191660011790555b6040830151156200037b5760408301516200030c9062000659565b600881015460408085015190516391b7f5ed60e01b81526001600160a01b03909216916391b7f5ed91620003469160040190815260200190565b600060405180830381600087803b1580156200036157600080fd5b505af115801562000376573d6000803e3d6000fd5b505050505b505050565b620003a28282604051806020016040528060008152506200070460201b60201c565b5050565b60007f9075c515a635ba70c9696f31149324218d75cf00afe836c482e6473f38b19e00905060006000805160206200135383398151915260060154604051628956cd60e71b81526c29b830b1b2a7b832b930ba37b960991b60048201526001600160a01b03909116906344ab668090602401602060405180830381865afa15801562000436573d6000803e3d6000fd5b505050506040513d601f19601f820116820180604052508101906200045c919062000e46565b82546001600160a01b0319166001600160a01b03919091161790915550565b6200048d6380ac58cd60e01b620004d0565b6200049f635b5e139f60e01b620004d0565b620004b1638c65f84d60e01b620004d0565b620004c36307f5828d60e41b620004d0565b62000172630e38709160e41b5b6001600160e01b0319811660009081527f81088bbc801e045ea3e7620779ab349988f58afbdfba10dff983df3f33522b00602052604090205460ff166200055a576001600160e01b0319811660009081527f81088bbc801e045ea3e7620779ab349988f58afbdfba10dff983df3f33522b0060205260409020805460ff1916600117905562000573565b604051637967f77d60e11b815260040160405180910390fd5b6040516001600160e01b03198216907f78f84e5b1c5c05be2b5ad3800781dd404d6d6c6302bc755c0fe20f58a33a7f2290600090a250565b600080516020620013138339815191525460408051632cbb9d1360e01b8152905160008051602062001353833981519152926001600160a01b031691632cbb9d139160048083019260209291908290030181865afa15801562000612573d6000803e3d6000fd5b505050506040513d601f19601f8201168201806040525081019062000638919062000e6b565b821115620003a25760405163c3983b9160e01b815260040160405180910390fd5b60006200067c60008051602062001313833981519152546001600160a01b031690565b6001600160a01b0316631b159e2e6040518163ffffffff1660e01b8152600401602060405180830381865afa158015620006ba573d6000803e3d6000fd5b505050506040513d601f19601f82011682018060405250810190620006e0919062000e6b565b905080821015620003a257604051631a23d64760e11b815260040160405180910390fd5b62000710838362000796565b6001600160a01b0383163b156200037b57600080516020620012f3833981519152548281035b60018101906200074c90600090879086620008d0565b6200076a576040516368d2bf6b60e11b815260040160405180910390fd5b818110620007365781600080516020620012f383398151915254146200078f57600080fd5b5050505050565b600080516020620012f3833981519152546000829003620007ca5760405163b562e8dd60e01b815260040160405180910390fd5b6001600160a01b03831660008181527f6569bde4a160c636ea8b8d11acb83a60d7fec0b8f2e09389306cba0e1340df056020908152604080832080546801000000000000000188020190558483527f6569bde4a160c636ea8b8d11acb83a60d7fec0b8f2e09389306cba0e1340df0490915281206001851460e11b4260a01b17831790558284019083908390600080516020620013338339815191528180a4600183015b81811462000897578083600060008051602062001333833981519152600080a46001016200086e565b5081600003620008b957604051622e076360e81b815260040160405180910390fd5b600080516020620012f38339815191525550505050565b604051630a85bd0160e11b81526000906001600160a01b0385169063150b7a02906200090790339089908890889060040162000e85565b6020604051808303816000875af192505050801562000945575060408051601f3d908101601f19168201909252620009429181019062000edb565b60015b620009a7573d80801562000976576040519150601f19603f3d011682016040523d82523d6000602084013e6200097b565b606091505b5080516000036200099f576040516368d2bf6b60e11b815260040160405180910390fd5b805181602001fd5b6001600160e01b031916630a85bd0160e11b149050949350505050565b80516001600160a01b0381168114620009dc57600080fd5b919050565b634e487b7160e01b600052604160045260246000fd5b60405161012081016001600160401b038111828210171562000a1d5762000a1d620009e1565b60405290565b604080519081016001600160401b038111828210171562000a1d5762000a1d620009e1565b80516001600160e01b031981168114620009dc57600080fd5b60005b8381101562000a7e57818101518382015260200162000a64565b50506000910152565b600082601f83011262000a9957600080fd5b81516001600160401b038082111562000ab65762000ab6620009e1565b604051601f8301601f19908116603f0116810190828211818310171562000ae15762000ae1620009e1565b8160405283815286602085880101111562000afb57600080fd5b62000b0e84602083016020890162000a61565b9695505050505050565b80516001600160401b0381168114620009dc57600080fd5b6000610120828403121562000b4457600080fd5b62000b4e620009f7565b82519091506001600160401b038082111562000b6957600080fd5b62000b778583860162000a87565b8352602084015191508082111562000b8e57600080fd5b5062000b9d8482850162000a87565b602083015250604082015160408201526060820151606082015262000bc56080830162000b18565b608082015262000bd860a08301620009c4565b60a082015262000beb60c08301620009c4565b60c082015260e082015160e082015261010062000c0a818401620009c4565b9082015292915050565b60008060008084860360c081121562000c2c57600080fd5b62000c3786620009c4565b94506040601f198201121562000c4c57600080fd5b62000c5662000a23565b62000c646020880162000a48565b815262000c7460408801620009c4565b602082015293506040605f198201121562000c8e57600080fd5b5062000c9962000a23565b62000ca760608701620009c4565b81526080860151602082015260a08601519092506001600160401b0381111562000cd057600080fd5b62000cde8782880162000b30565b91505092959194509250565b600181811c9082168062000cff57607f821691505b60208210810362000d2057634e487b7160e01b600052602260045260246000fd5b50919050565b601f8211156200037b576000816000526020600020601f850160051c8101602086101562000d515750805b601f850160051c820191505b8181101562000d725782815560010162000d5d565b505050505050565b81516001600160401b0381111562000d965762000d96620009e1565b62000dae8162000da7845462000cea565b8462000d26565b602080601f83116001811462000de6576000841562000dcd5750858301515b600019600386901b1c1916600185901b17855562000d72565b600085815260208120601f198616915b8281101562000e175788860151825594840194600190910190840162000df6565b508582101562000e365787850151600019600388901b60f8161c191681555b5050505050600190811b01905550565b60006020828403121562000e5957600080fd5b62000e6482620009c4565b9392505050565b60006020828403121562000e7e57600080fd5b5051919050565b600060018060a01b03808716835280861660208401525083604083015260806060830152825180608084015262000ec48160a085016020870162000a61565b601f01601f19169190910160a00195945050505050565b60006020828403121562000eee57600080fd5b62000e648262000a48565b6103ea8062000f096000396000f3fe6080604052600436106100225760003560e01c8063ac9650d81461003357610029565b3661002957005b610031610069565b005b34801561003f57600080fd5b5061005361004e36600461028b565b6100c4565b6040516100609190610324565b60405180910390f35b6000610073610145565b9050806001600160a01b03163b6000036100a0576040516321f27f0d60e21b815260040160405180910390fd5b3660008037600080366000845af43d6000803e8080156100bf573d6000f35b3d6000fd5b6060602060005281602052816100da5760406000f35b60408260051b8085604037818101905b82518601604082018135602083018237600038833583305af4610111573d6000803e3d6000fd5b8285526020850194503d81523d6000602083013e50503d01603f0167ffffffffffffffe0168183106100ea57604081016000f35b7f9c16cba5b9f2fcbd952b38bec34079e93cbe107475c15fc20705f4e704198a0054600090600160a01b900460e01b81806101a77f9c16cba5b9f2fcbd952b38bec34079e93cbe107475c15fc20705f4e704198a00546001600160a01b031690565b6040516001600160e01b03196000351660248201526001600160a01b039190911690849060440160408051601f198184030181529181526020820180516001600160e01b03166001600160e01b031990941693909317909252905161020c919061039e565b600060405180830381855afa9150503d8060008114610247576040519150601f19603f3d011682016040523d82523d6000602084013e61024c565b606091505b50915091508161026f5760405163391aa44560e01b815260040160405180910390fd5b8080602001905181019061028391906103ba565b935050505090565b6000806020838503121561029e57600080fd5b823567ffffffffffffffff808211156102b657600080fd5b818501915085601f8301126102ca57600080fd5b8135818111156102d957600080fd5b8660208260051b85010111156102ee57600080fd5b60209290920196919550909350505050565b60005b8381101561031b578181015183820152602001610303565b50506000910152565b6000602080830181845280855180835260408601915060408160051b870101925083870160005b8281101561039157878503603f1901845281518051808752610372818989018a8501610300565b601f01601f19169590950186019450928501929085019060010161034b565b5092979650505050505050565b600082516103b0818460208701610300565b9190910192915050565b6000602082840312156103cc57600080fd5b81516001600160a01b03811681146103e357600080fd5b9392505050566569bde4a160c636ea8b8d11acb83a60d7fec0b8f2e09389306cba0e1340df00c21004fcc619240a31f006438274d15cd813308303284436eef6055f0fdcb606ddf252ad1be2c89b69c2b068fc378daa952ba7f163c4a11628f55a4df523b3efc21004fcc619240a31f006438274d15cd813308303284436eef6055f0fdcb600","linkReferences":{}},"methodIdentifiers":{"__Architect_init()":"e8546e07","createSpace((string,string,((string,string,uint256,uint256,uint64,address,address,uint256,address),(bool,address[],((uint8,uint8)[],(uint8,uint256,address,uint256)[],(uint8,uint8,uint8)[])),string[]),(string),string,string))":"ef009225"},"id":305}