{"abi":[{"type":"constructor","inputs":[{"name":"approvedOperators","type":"address[]","internalType":"address[]"}],"stateMutability":"nonpayable"},{"type":"function","name":"__OperatorRegistry_init","inputs":[{"name":"initialOperators","type":"address[]","internalType":"address[]"}],"outputs":[],"stateMutability":"nonpayable"},{"type":"function","name":"__RiverConfig_init","inputs":[{"name":"configManagers","type":"address[]","internalType":"address[]"}],"outputs":[],"stateMutability":"nonpayable"},{"type":"function","name":"addStream","inputs":[{"name":"streamId","type":"bytes32","internalType":"bytes32"},{"name":"genesisMiniblockHash","type":"bytes32","internalType":"bytes32"},{"name":"stream","type":"tuple","internalType":"struct Stream","components":[{"name":"lastMiniblockHash","type":"bytes32","internalType":"bytes32"},{"name":"lastMiniblockNum","type":"uint64","internalType":"uint64"},{"name":"reserved0","type":"uint64","internalType":"uint64"},{"name":"flags","type":"uint64","internalType":"uint64"},{"name":"nodes","type":"address[]","internalType":"address[]"}]}],"outputs":[],"stateMutability":"nonpayable"},{"type":"function","name":"allocateStream","inputs":[{"name":"streamId","type":"bytes32","internalType":"bytes32"},{"name":"nodes","type":"address[]","internalType":"address[]"},{"name":"genesisMiniblockHash","type":"bytes32","internalType":"bytes32"},{"name":"genesisMiniblock","type":"bytes","internalType":"bytes"}],"outputs":[],"stateMutability":"nonpayable"},{"type":"function","name":"approveConfigurationManager","inputs":[{"name":"manager","type":"address","internalType":"address"}],"outputs":[],"stateMutability":"nonpayable"},{"type":"function","name":"approveOperator","inputs":[{"name":"operator","type":"address","internalType":"address"}],"outputs":[],"stateMutability":"nonpayable"},{"type":"function","name":"configurationExists","inputs":[{"name":"key","type":"bytes32","internalType":"bytes32"}],"outputs":[{"name":"","type":"bool","internalType":"bool"}],"stateMutability":"view"},{"type":"function","name":"deleteConfiguration","inputs":[{"name":"key","type":"bytes32","internalType":"bytes32"}],"outputs":[],"stateMutability":"nonpayable"},{"type":"function","name":"deleteConfigurationOnBlock","inputs":[{"name":"key","type":"bytes32","internalType":"bytes32"},{"name":"blockNumber","type":"uint64","internalType":"uint64"}],"outputs":[],"stateMutability":"nonpayable"},{"type":"function","name":"getAllConfiguration","inputs":[],"outputs":[{"name":"","type":"tuple[]","internalType":"struct Setting[]","components":[{"name":"key","type":"bytes32","internalType":"bytes32"},{"name":"blockNumber","type":"uint64","internalType":"uint64"},{"name":"value","type":"bytes","internalType":"bytes"}]}],"stateMutability":"view"},{"type":"function","name":"getAllNodeAddresses","inputs":[],"outputs":[{"name":"","type":"address[]","internalType":"address[]"}],"stateMutability":"view"},{"type":"function","name":"getAllNodes","inputs":[],"outputs":[{"name":"","type":"tuple[]","internalType":"struct Node[]","components":[{"name":"status","type":"uint8","internalType":"enum NodeStatus"},{"name":"url","type":"string","internalType":"string"},{"name":"nodeAddress","type":"address","internalType":"address"},{"name":"operator","type":"address","internalType":"address"}]}],"stateMutability":"view"},{"type":"function","name":"getAllOperators","inputs":[],"outputs":[{"name":"","type":"address[]","internalType":"address[]"}],"stateMutability":"view"},{"type":"function","name":"getConfiguration","inputs":[{"name":"key","type":"bytes32","internalType":"bytes32"}],"outputs":[{"name":"","type":"tuple[]","internalType":"struct Setting[]","components":[{"name":"key","type":"bytes32","internalType":"bytes32"},{"name":"blockNumber","type":"uint64","internalType":"uint64"},{"name":"value","type":"bytes","internalType":"bytes"}]}],"stateMutability":"view"},{"type":"function","name":"getNode","inputs":[{"name":"nodeAddress","type":"address","internalType":"address"}],"outputs":[{"name":"","type":"tuple","internalType":"struct Node","components":[{"name":"status","type":"uint8","internalType":"enum NodeStatus"},{"name":"url","type":"string","internalType":"string"},{"name":"nodeAddress","type":"address","internalType":"address"},{"name":"operator","type":"address","internalType":"address"}]}],"stateMutability":"view"},{"type":"function","name":"getNodeCount","inputs":[],"outputs":[{"name":"","type":"uint256","internalType":"uint256"}],"stateMutability":"view"},{"type":"function","name":"getPaginatedStreams","inputs":[{"name":"start","type":"uint256","internalType":"uint256"},{"name":"stop","type":"uint256","internalType":"uint256"}],"outputs":[{"name":"","type":"tuple[]","internalType":"struct StreamWithId[]","components":[{"name":"id","type":"bytes32","internalType":"bytes32"},{"name":"stream","type":"tuple","internalType":"struct Stream","components":[{"name":"lastMiniblockHash","type":"bytes32","internalType":"bytes32"},{"name":"lastMiniblockNum","type":"uint64","internalType":"uint64"},{"name":"reserved0","type":"uint64","internalType":"uint64"},{"name":"flags","type":"uint64","internalType":"uint64"},{"name":"nodes","type":"address[]","internalType":"address[]"}]}]},{"name":"","type":"bool","internalType":"bool"}],"stateMutability":"view"},{"type":"function","name":"getStream","inputs":[{"name":"streamId","type":"bytes32","internalType":"bytes32"}],"outputs":[{"name":"stream","type":"tuple","internalType":"struct Stream","components":[{"name":"lastMiniblockHash","type":"bytes32","internalType":"bytes32"},{"name":"lastMiniblockNum","type":"uint64","internalType":"uint64"},{"name":"reserved0","type":"uint64","internalType":"uint64"},{"name":"flags","type":"uint64","internalType":"uint64"},{"name":"nodes","type":"address[]","internalType":"address[]"}]}],"stateMutability":"view"},{"type":"function","name":"getStreamCount","inputs":[],"outputs":[{"name":"","type":"uint256","internalType":"uint256"}],"stateMutability":"view"},{"type":"function","name":"getStreamCountOnNode","inputs":[{"name":"nodeAddress","type":"address","internalType":"address"}],"outputs":[{"name":"count","type":"uint256","internalType":"uint256"}],"stateMutability":"view"},{"type":"function","name":"getStreamWithGenesis","inputs":[{"name":"streamId","type":"bytes32","internalType":"bytes32"}],"outputs":[{"name":"stream","type":"tuple","internalType":"struct Stream","components":[{"name":"lastMiniblockHash","type":"bytes32","internalType":"bytes32"},{"name":"lastMiniblockNum","type":"uint64","internalType":"uint64"},{"name":"reserved0","type":"uint64","internalType":"uint64"},{"name":"flags","type":"uint64","internalType":"uint64"},{"name":"nodes","type":"address[]","internalType":"address[]"}]},{"name":"","type":"bytes32","internalType":"bytes32"},{"name":"","type":"bytes","internalType":"bytes"}],"stateMutability":"view"},{"type":"function","name":"isConfigurationManager","inputs":[{"name":"manager","type":"address","internalType":"address"}],"outputs":[{"name":"","type":"bool","internalType":"bool"}],"stateMutability":"view"},{"type":"function","name":"isNode","inputs":[{"name":"nodeAddress","type":"address","internalType":"address"}],"outputs":[{"name":"","type":"bool","internalType":"bool"}],"stateMutability":"view"},{"type":"function","name":"isOperator","inputs":[{"name":"operator","type":"address","internalType":"address"}],"outputs":[{"name":"","type":"bool","internalType":"bool"}],"stateMutability":"view"},{"type":"function","name":"isStream","inputs":[{"name":"streamId","type":"bytes32","internalType":"bytes32"}],"outputs":[{"name":"","type":"bool","internalType":"bool"}],"stateMutability":"view"},{"type":"function","name":"placeStreamOnNode","inputs":[{"name":"streamId","type":"bytes32","internalType":"bytes32"},{"name":"nodeAddress","type":"address","internalType":"address"}],"outputs":[],"stateMutability":"nonpayable"},{"type":"function","name":"registerNode","inputs":[{"name":"nodeAddress","type":"address","internalType":"address"},{"name":"url","type":"string","internalType":"string"},{"name":"status","type":"uint8","internalType":"enum NodeStatus"}],"outputs":[],"stateMutability":"nonpayable"},{"type":"function","name":"removeConfigurationManager","inputs":[{"name":"manager","type":"address","internalType":"address"}],"outputs":[],"stateMutability":"nonpayable"},{"type":"function","name":"removeNode","inputs":[{"name":"nodeAddress","type":"address","internalType":"address"}],"outputs":[],"stateMutability":"nonpayable"},{"type":"function","name":"removeOperator","inputs":[{"name":"operator","type":"address","internalType":"address"}],"outputs":[],"stateMutability":"nonpayable"},{"type":"function","name":"removeStreamFromNode","inputs":[{"name":"streamId","type":"bytes32","internalType":"bytes32"},{"name":"nodeAddress","type":"address","internalType":"address"}],"outputs":[],"stateMutability":"nonpayable"},{"type":"function","name":"setConfiguration","inputs":[{"name":"key","type":"bytes32","internalType":"bytes32"},{"name":"blockNumber","type":"uint64","internalType":"uint64"},{"name":"value","type":"bytes","internalType":"bytes"}],"outputs":[],"stateMutability":"nonpayable"},{"type":"function","name":"setStreamLastMiniblock","inputs":[{"name":"streamId","type":"bytes32","internalType":"bytes32"},{"name":"","type":"bytes32","internalType":"bytes32"},{"name":"lastMiniblockHash","type":"bytes32","internalType":"bytes32"},{"name":"lastMiniblockNum","type":"uint64","internalType":"uint64"},{"name":"isSealed","type":"bool","internalType":"bool"}],"outputs":[],"stateMutability":"nonpayable"},{"type":"function","name":"setStreamLastMiniblockBatch","inputs":[{"name":"miniblocks","type":"tuple[]","internalType":"struct SetMiniblock[]","components":[{"name":"streamId","type":"bytes32","internalType":"bytes32"},{"name":"prevMiniBlockHash","type":"bytes32","internalType":"bytes32"},{"name":"lastMiniblockHash","type":"bytes32","internalType":"bytes32"},{"name":"lastMiniblockNum","type":"uint64","internalType":"uint64"},{"name":"isSealed","type":"bool","internalType":"bool"}]}],"outputs":[],"stateMutability":"nonpayable"},{"type":"function","name":"updateNodeStatus","inputs":[{"name":"nodeAddress","type":"address","internalType":"address"},{"name":"status","type":"uint8","internalType":"enum NodeStatus"}],"outputs":[],"stateMutability":"nonpayable"},{"type":"function","name":"updateNodeUrl","inputs":[{"name":"nodeAddress","type":"address","internalType":"address"},{"name":"url","type":"string","internalType":"string"}],"outputs":[],"stateMutability":"nonpayable"},{"type":"event","name":"ConfigurationChanged","inputs":[{"name":"key","type":"bytes32","indexed":false,"internalType":"bytes32"},{"name":"block","type":"uint64","indexed":false,"internalType":"uint64"},{"name":"value","type":"bytes","indexed":false,"internalType":"bytes"},{"name":"deleted","type":"bool","indexed":false,"internalType":"bool"}],"anonymous":false},{"type":"event","name":"ConfigurationManagerAdded","inputs":[{"name":"manager","type":"address","indexed":true,"internalType":"address"}],"anonymous":false},{"type":"event","name":"ConfigurationManagerRemoved","inputs":[{"name":"manager","type":"address","indexed":true,"internalType":"address"}],"anonymous":false},{"type":"event","name":"Initialized","inputs":[{"name":"version","type":"uint32","indexed":false,"internalType":"uint32"}],"anonymous":false},{"type":"event","name":"InterfaceAdded","inputs":[{"name":"interfaceId","type":"bytes4","indexed":true,"internalType":"bytes4"}],"anonymous":false},{"type":"event","name":"InterfaceRemoved","inputs":[{"name":"interfaceId","type":"bytes4","indexed":true,"internalType":"bytes4"}],"anonymous":false},{"type":"event","name":"NodeAdded","inputs":[{"name":"nodeAddress","type":"address","indexed":true,"internalType":"address"},{"name":"operator","type":"address","indexed":true,"internalType":"address"},{"name":"url","type":"string","indexed":false,"internalType":"string"},{"name":"status","type":"uint8","indexed":false,"internalType":"enum NodeStatus"}],"anonymous":false},{"type":"event","name":"NodeRemoved","inputs":[{"name":"nodeAddress","type":"address","indexed":true,"internalType":"address"}],"anonymous":false},{"type":"event","name":"NodeStatusUpdated","inputs":[{"name":"nodeAddress","type":"address","indexed":true,"internalType":"address"},{"name":"status","type":"uint8","indexed":false,"internalType":"enum NodeStatus"}],"anonymous":false},{"type":"event","name":"NodeUrlUpdated","inputs":[{"name":"nodeAddress","type":"address","indexed":true,"internalType":"address"},{"name":"url","type":"string","indexed":false,"internalType":"string"}],"anonymous":false},{"type":"event","name":"OperatorAdded","inputs":[{"name":"operatorAddress","type":"address","indexed":true,"internalType":"address"}],"anonymous":false},{"type":"event","name":"OperatorRemoved","inputs":[{"name":"operatorAddress","type":"address","indexed":true,"internalType":"address"}],"anonymous":false},{"type":"event","name":"OwnershipTransferred","inputs":[{"name":"previousOwner","type":"address","indexed":true,"internalType":"address"},{"name":"newOwner","type":"address","indexed":true,"internalType":"address"}],"anonymous":false},{"type":"event","name":"StreamAllocated","inputs":[{"name":"streamId","type":"bytes32","indexed":false,"internalType":"bytes32"},{"name":"nodes","type":"address[]","indexed":false,"internalType":"address[]"},{"name":"genesisMiniblockHash","type":"bytes32","indexed":false,"internalType":"bytes32"},{"name":"genesisMiniblock","type":"bytes","indexed":false,"internalType":"bytes"}],"anonymous":false},{"type":"event","name":"StreamCreated","inputs":[{"name":"streamId","type":"bytes32","indexed":false,"internalType":"bytes32"},{"name":"genesisMiniblockHash","type":"bytes32","indexed":false,"internalType":"bytes32"},{"name":"stream","type":"tuple","indexed":false,"internalType":"struct Stream","components":[{"name":"lastMiniblockHash","type":"bytes32","internalType":"bytes32"},{"name":"lastMiniblockNum","type":"uint64","internalType":"uint64"},{"name":"reserved0","type":"uint64","internalType":"uint64"},{"name":"flags","type":"uint64","internalType":"uint64"},{"name":"nodes","type":"address[]","internalType":"address[]"}]}],"anonymous":false},{"type":"event","name":"StreamLastMiniblockUpdateFailed","inputs":[{"name":"streamId","type":"bytes32","indexed":false,"internalType":"bytes32"},{"name":"lastMiniblockHash","type":"bytes32","indexed":false,"internalType":"bytes32"},{"name":"lastMiniblockNum","type":"uint64","indexed":false,"internalType":"uint64"},{"name":"reason","type":"string","indexed":false,"internalType":"string"}],"anonymous":false},{"type":"event","name":"StreamLastMiniblockUpdated","inputs":[{"name":"streamId","type":"bytes32","indexed":false,"internalType":"bytes32"},{"name":"lastMiniblockHash","type":"bytes32","indexed":false,"internalType":"bytes32"},{"name":"lastMiniblockNum","type":"uint64","indexed":false,"internalType":"uint64"},{"name":"isSealed","type":"bool","indexed":false,"internalType":"bool"}],"anonymous":false},{"type":"event","name":"StreamPlacementUpdated","inputs":[{"name":"streamId","type":"bytes32","indexed":false,"internalType":"bytes32"},{"name":"nodeAddress","type":"address","indexed":false,"internalType":"address"},{"name":"isAdded","type":"bool","indexed":false,"internalType":"bool"}],"anonymous":false},{"type":"error","name":"Initializable_InInitializingState","inputs":[]},{"type":"error","name":"Initializable_NotInInitializingState","inputs":[]},{"type":"error","name":"Introspection_AlreadySupported","inputs":[]},{"type":"error","name":"Introspection_NotSupported","inputs":[]},{"type":"error","name":"Ownable__NotOwner","inputs":[{"name":"account","type":"address","internalType":"address"}]},{"type":"error","name":"Ownable__ZeroAddress","inputs":[]}],"bytecode":{"object":"0x60806040523480156200001157600080fd5b5060405162005026380380620050268339810160408190526200003491620004a6565b6200003e620000c1565b620000493362000169565b60005b8151811015620000b957620000838282815181106200006f576200006f62000578565b60200260200101516200023760201b60201c565b620000b08282815181106200009c576200009c62000578565b60200260200101516200031c60201b60201c565b6001016200004c565b5050620005df565b7f59b501c3653afc186af7d48dda36cf6732bd21629a6295693664240a6ef520008054640100000000900460ff16156200010e576040516366008a2d60e01b815260040160405180910390fd5b805463ffffffff90811610156200016657805463ffffffff191663ffffffff90811782556040519081527fe9c9b456cb2994b80aeef036cf59d26e9617df80f816a6ee5a5b4166e07e2f5c9060200160405180910390a15b50565b60006200019d7f4675fa8241f86f37157864d3d49b85ad4b164352c516da28e1678a90470ae300546001600160a01b031690565b90506001600160a01b038216620001c757604051634e3ef82560e01b815260040160405180910390fd5b817f4675fa8241f86f37157864d3d49b85ad4b164352c516da28e1678a90470ae30080546001600160a01b0319166001600160a01b03928316179055604051838216918316907f8be0079c531659141344cd1fd0a4f28419497f9722a3daafe3b4186f6b6457e090600090a35050565b6001600160a01b038116620002865760408051808201825260078152664241445f41524760c81b6020820152905162461bcd60e51b81526200027d91906004016200058e565b60405180910390fd5b62000293600882620003e9565b15620002d757604080518082018252600e81526d414c52454144595f45584953545360901b6020820152905162461bcd60e51b81526200027d91906004016200058e565b620002e460088262000410565b506040516001600160a01b038216907fac6fa858e9350a46cec16539926e0fde25b7629f84b5a72bffaae4df888ae86d90600090a250565b6001600160a01b038116620003625760408051808201825260078152664241445f41524760c81b6020820152905162461bcd60e51b81526200027d91906004016200058e565b6200036f600d8262000410565b620003b257604080518082018252600e81526d414c52454144595f45584953545360901b6020820152905162461bcd60e51b81526200027d91906004016200058e565b6040516001600160a01b038216907f7afd798379ae2d2e5035438544cea2b60eb1dde6a8128e6d447fd2a25f8825a290600090a250565b6001600160a01b038116600090815260018301602052604081205415155b90505b92915050565b600062000407836001600160a01b03841660008181526001830160205260408120546200046a575081546001818101845560008481526020808220909301849055845484825282860190935260409020919091556200040a565b5060006200040a565b634e487b7160e01b600052604160045260246000fd5b80516001600160a01b0381168114620004a157600080fd5b919050565b60006020808385031215620004ba57600080fd5b82516001600160401b0380821115620004d257600080fd5b818501915085601f830112620004e757600080fd5b815181811115620004fc57620004fc62000473565b8060051b604051601f19603f8301168101818110858211171562000524576200052462000473565b6040529182528482019250838101850191888311156200054357600080fd5b938501935b828510156200056c576200055c8562000489565b8452938501939285019262000548565b98975050505050505050565b634e487b7160e01b600052603260045260246000fd5b60006020808352835180602085015260005b81811015620005be57858101830151858201604001528201620005a0565b506000604082860101526040601f19601f8301168501019250505092915050565b614a3780620005ef6000396000f3fe608060405234801561001057600080fd5b506004361061021c5760003560e01c8063ac8a584a11610125578063ca78c41a116100ad578063d911c6321161007c578063d911c632146104d8578063ee885b12146104e0578063eecc66f4146104f3578063fc207c0114610506578063ff3a14ab1461051957600080fd5b8063ca78c41a1461047e578063d0c27c4f1461049f578063d4bd44a0146104b2578063d7a3158a146104c557600080fd5b8063ba428b1a116100f4578063ba428b1a14610428578063c0f220841461043b578063c179b85f14610443578063c87d132414610456578063c8fe3a011461046957600080fd5b8063ac8a584a146103dc578063b2b99ec9146103ef578063b2e76b8e14610402578063b7f227ee1461041557600080fd5b80636b883c39116101a85780639283ae3a116101775780639283ae3a1461036e5780639d209048146103815780639ee86d38146103a1578063a09449a6146103b4578063a1174e7d146103c757600080fd5b80636b883c39146103225780636d70f7ae146103355780637e4465e714610348578063813049ec1461035b57600080fd5b8063242cae9f116101ef578063242cae9f146102b157806331374511146102c457806339bf397e146102d75780633c2544d1146102ed578063581f8b9b1461030f57600080fd5b80630175015214610221578063035759e114610267578063081814db1461027c5780631290abe814610291575b600080fd5b61025261022f36600461396b565b6001600160a01b0390811660009081526007602052604090206002015416151590565b60405190151581526020015b60405180910390f35b61027a610275366004613988565b61052c565b005b6102846106a0565b60405161025e91906139f1565b6102a461029f366004613988565b61090b565b60405161025e9190613b0c565b61027a6102bf36600461396b565b610a2b565b61027a6102d2366004613b63565b610a72565b6102df610b03565b60405190815260200161025e565b6103006102fb366004613988565b610b14565b60405161025e93929190613ba4565b61027a61031d366004613bed565b610ce2565b61027a610330366004613c63565b610e82565b61025261034336600461396b565b611143565b61027a610356366004613d87565b611156565b61027a61036936600461396b565b61134e565b61028461037c366004613988565b611449565b61039461038f36600461396b565b6115ac565b60405161025e9190613e62565b61027a6103af366004613e75565b61172d565b61027a6103c2366004613eba565b6118eb565b6103cf611bba565b60405161025e9190613f15565b61027a6103ea36600461396b565b611d8e565b61027a6103fd36600461396b565b611ef1565b61027a610410366004613f79565b6120ba565b61027a610423366004613fcf565b612265565b61027a610436366004613b63565b6124b4565b6102df612540565b61027a61045136600461396b565b61254b565b6102df61046436600461396b565b61258f565b610471612638565b60405161025e9190613ff4565b61049161048c366004614041565b612644565b60405161025e929190614063565b6102526104ad366004613988565b612835565b6102526104c036600461396b565b612841565b61027a6104d33660046140f2565b61284e565b610471612a67565b61027a6104ee366004613e75565b612a73565b61027a610501366004614144565b612cbc565b610252610514366004613988565b612e87565b61027a6105273660046141a3565b612e94565b33610538600d8261323f565b61057b5760408051808201825260088152670848288be82aaa8960c31b6020820152905162461bcd60e51b81526105729190600401614217565b60405180910390fd5b81610587600a82613264565b6105c25760408051808201825260098152681393d517d193d5539160ba1b6020820152905162461bcd60e51b81526105729190600401614217565b6000838152600c602052604090205415610635576000838152600c602052604090208054806105f3576105f361422a565b60008281526020812060036000199093019283020181815560018101805467ffffffffffffffff191690559061062c6002830182613801565b505090556105c2565b6000838152600c6020526040812061064c9161383b565b610657600a8461327c565b50604080518481526001600160401b0360208201526080818301819052600090820152600160608201529051600080516020614a178339815191529181900360a00190a1505050565b60606000806106af600a613288565b905060005b818110156106f05760006106c9600a83613292565b6000818152600c60205260409020549091506106e59085614256565b9350506001016106b4565b506000826001600160401b0381111561070b5761070b613ce5565b60405190808252806020026020018201604052801561075857816020015b604080516060808201835260008083526020830152918101919091528152602001906001900390816107295790505b5090506000610767600a613288565b90506000805b82811015610900576000610782600a83613292565b6000818152600c6020908152604080832080548251818502810185019093528083529495509293909291849084015b8282101561089557600084815260209081902060408051606081018252600386029092018054835260018101546001600160401b0316938301939093526002830180549293929184019161080490614269565b80601f016020809104026020016040519081016040528092919081815260200182805461083090614269565b801561087d5780601f106108525761010080835404028352916020019161087d565b820191906000526020600020905b81548152906001019060200180831161086057829003601f168201915b505050505081525050815260200190600101906107b1565b50505050905060005b81518110156108f2578181815181106108b9576108b961429d565b60200260200101518786806108cd906142b3565b9750815181106108df576108df61429d565b602090810291909101015260010161089e565b50505080600101905061076d565b509195945050505050565b6040805160008082526020820181905281830181905260608083018290526080830152918190529061093d9083613264565b6109785760408051808201825260098152681393d517d193d5539160ba1b6020820152905162461bcd60e51b81526105729190600401614217565b600082815260026020818152604092839020835160a0810185528154815260018201546001600160401b0380821683860152600160401b8204811683880152600160801b9091041660608201529281018054855181850281018501909652808652939491936080860193830182828015610a1b57602002820191906000526020600020905b81546001600160a01b031681526001909101906020018083116109fd575b5050505050815250509050919050565b610a3361329e565b6001600160a01b0316336001600160a01b031614610a66576040516365f4906560e01b8152336004820152602401610572565b610a6f816132cc565b50565b7f59b501c3653afc186af7d48dda36cf6732bd21629a6295693664240a6ef5200054640100000000900460ff16610abc57604051630ef4733760e31b815260040160405180910390fd5b60005b81811015610afe57610af6838383818110610adc57610adc61429d565b9050602002016020810190610af1919061396b565b61339e565b600101610abf565b505050565b6000610b0f6005613288565b905090565b60408051600080825260208201819052818301819052606080830182905260808301819052928290529091610b498285613264565b610b845760408051808201825260098152681393d517d193d5539160ba1b6020820152905162461bcd60e51b81526105729190600401614217565b600084815260026020818152604080842060048352818520546003845294829020825160a0810184528254815260018301546001600160401b0380821683880152600160401b8204811683870152600160801b90910416606082015294820180548451818702810187019095528085529296959194919387936080860193919291830182828015610c3e57602002820191906000526020600020905b81546001600160a01b03168152600190910190602001808311610c20575b5050505050815250509250808054610c5590614269565b80601f0160208091040260200160405190810160405280929190818152602001828054610c8190614269565b8015610cce5780601f10610ca357610100808354040283529160200191610cce565b820191906000526020600020905b815481529060010190602001808311610cb157829003601f168201915b505050505090509250925092509193909250565b6001600160a01b03808316600090815260076020526040902060020154839116610d4257604080518082018252600e81526d1393d11157d393d517d193d5539160921b6020820152905162461bcd60e51b81526105729190600401614217565b33610d4e60088261323f565b610d885760408051808201825260088152670848288be82aaa8960c31b6020820152905162461bcd60e51b81526105729190600401614217565b6001600160a01b0380851660009081526007602052604090206003015485913391168114610de65760408051808201825260088152670848288be82aaa8960c31b6020820152905162461bcd60e51b81526105729190600401614217565b6001600160a01b03861660009081526007602052604090208054610e0d9060ff1687613463565b80548690829060ff19166001836005811115610e2b57610e2b613dd6565b021790555060028101546040516001600160a01b03909116907f20891cc7622c7951cbd8c70c61a5201eb45625b8c00e8f6c986cfca78f3dbfa090610e719089906142cc565b60405180910390a250505050505050565b336000818152600760205260409020600201546001600160a01b0316610ede57604080518082018252600e81526d1393d11157d393d517d193d5539160921b6020820152905162461bcd60e51b81526105729190600401614217565b610ee9600088613264565b15610f2a57604080518082018252600e81526d414c52454144595f45584953545360901b6020820152905162461bcd60e51b81526105729190600401614217565b8460005b81811015610fb057610f68888883818110610f4b57610f4b61429d565b9050602002016020810190610f60919061396b565b60059061323f565b610fa857604080518082018252600e81526d1393d11157d393d517d193d5539160921b6020820152905162461bcd60e51b81526105729190600401614217565b600101610f2e565b5060006040518060a0016040528087815260200160006001600160401b0316815260200160006001600160401b0316815260200160006001600160401b0316815260200189898080602002602001604051908101604052809392919081815260200183836020028082843760009201829052509390945250929350611038925090508a6135f6565b5060008981526002602081815260409283902084518155818501516001820180549587015160608801516001600160401b03908116600160801b0267ffffffffffffffff60801b19928216600160401b026fffffffffffffffffffffffffffffffff199099169190941617969096179590951617909355608084015180518594936110c89390850192019061385c565b50505060008981526003602052604090206110e4858783614341565b5060008981526004602052604090819020879055517f55ef7efc60ef99743e54209752c9a8e047e013917ec91572db75875069dd65bb90611130908b908b908b908b908b908b9061446c565b60405180910390a1505050505050505050565b600061115060088361323f565b92915050565b3361116260088261323f565b61119c5760408051808201825260088152670848288be82aaa8960c31b6020820152905162461bcd60e51b81526105729190600401614217565b6001600160a01b038084166000908152600760205260409020600201548491166111fc57604080518082018252600e81526d1393d11157d393d517d193d5539160921b6020820152905162461bcd60e51b81526105729190600401614217565b6001600160a01b038085166000908152600760205260409020600301548591339116811461125a5760408051808201825260088152670848288be82aaa8960c31b6020820152905162461bcd60e51b81526105729190600401614217565b6001600160a01b0386166000908152600760209081526040918290209151611284918891016144ac565b60405160208183030381529060405280519060200120816001016040516020016112ae91906144c8565b60405160208183030381529060405280519060200120036112fe5760408051808201825260078152664241445f41524760c81b6020820152905162461bcd60e51b81526105729190600401614217565b6001810161130c878261453e565b5060028101546040516001600160a01b03909116907f4505168a8705a16fd4d0575197fd0f510db69df93a065e158ad2c0957ba12bac90610e71908990614217565b61135661329e565b6001600160a01b0316336001600160a01b031614611389576040516365f4906560e01b8152336004820152602401610572565b6001600160a01b0381166113cc5760408051808201825260078152664241445f41524760c81b6020820152905162461bcd60e51b81526105729190600401614217565b6113d7600d82613602565b6114125760408051808201825260098152681393d517d193d5539160ba1b6020820152905162461bcd60e51b81526105729190600401614217565b6040516001600160a01b038216907ff9889c857e5356066b564327caa757c325ecbc001b2b47d72edf8cf9aedb1be590600090a250565b606081611457600a82613264565b6114925760408051808201825260098152681393d517d193d5539160ba1b6020820152905162461bcd60e51b81526105729190600401614217565b6000838152600c6020908152604080832080548251818502810185019093528083529193909284015b8282101561159f57600084815260209081902060408051606081018252600386029092018054835260018101546001600160401b0316938301939093526002830180549293929184019161150e90614269565b80601f016020809104026020016040519081016040528092919081815260200182805461153a90614269565b80156115875780601f1061155c57610100808354040283529160200191611587565b820191906000526020600020905b81548152906001019060200180831161156a57829003601f168201915b505050505081525050815260200190600101906114bb565b5050505091505b50919050565b6115d76040805160808101909152806000815260606020820181905260006040830181905291015290565b6115e260058361323f565b61162257604080518082018252600e81526d1393d11157d393d517d193d5539160921b6020820152905162461bcd60e51b81526105729190600401614217565b6001600160a01b038216600090815260076020526040908190208151608081019092528054829060ff16600581111561165d5761165d613dd6565b600581111561166e5761166e613dd6565b815260200160018201805461168290614269565b80601f01602080910402602001604051908101604052809291908181526020018280546116ae90614269565b80156116fb5780601f106116d0576101008083540402835291602001916116fb565b820191906000526020600020905b8154815290600101906020018083116116de57829003601f168201915b505050918352505060028201546001600160a01b03908116602083015260039092015490911660409091015292915050565b81611739600082613264565b6117745760408051808201825260098152681393d517d193d5539160ba1b6020820152905162461bcd60e51b81526105729190600401614217565b336000818152600760205260409020600201546001600160a01b03166117d057604080518082018252600e81526d1393d11157d393d517d193d5539160921b6020820152905162461bcd60e51b81526105729190600401614217565b600084815260026020819052604082209081015490915b8181101561186c57856001600160a01b031683600201828154811061180e5761180e61429d565b6000918252602090912001546001600160a01b03160361186457604080518082018252600e81526d414c52454144595f45584953545360901b6020820152905162461bcd60e51b81526105729190600401614217565b6001016117e7565b5060028201805460018082018355600092835260209283902090910180546001600160a01b0319166001600160a01b038916908117909155604080518a8152938401919091528201527faaa473c28a5fe04b6a7ecd795826e462f9d0c23f00ef9f51ec02fa6ea418806f906060015b60405180910390a1505050505050565b336118f7600d8261323f565b6119315760408051808201825260088152670848288be82aaa8960c31b6020820152905162461bcd60e51b81526105729190600401614217565b67fffffffffffffffe196001600160401b0385160161197f5760408051808201825260078152664241445f41524760c81b6020820152905162461bcd60e51b81526105729190600401614217565b60008290036119bd5760408051808201825260078152664241445f41524760c81b6020820152905162461bcd60e51b81526105729190600401614217565b6119c8600a86613264565b6119d9576119d7600a866135f6565b505b6000858152600c6020526040812054905b81811015611ac0576000878152600c6020526040902080546001600160401b038816919083908110611a1e57611a1e61429d565b60009182526020909120600160039092020101546001600160401b031603611ab8576000878152600c6020526040902080548691869184908110611a6457611a6461429d565b90600052602060002090600302016002019182611a82929190614341565b50600080516020614a17833981519152878787876000604051611aa99594939291906145fb565b60405180910390a15050611bb3565b6001016119ea565b506000600c0160008781526020019081526020016000206040518060600160405280888152602001876001600160401b0316815260200186868080601f0160208091040260200160405190810160405280939291908181526020018383808284376000920182905250939094525050835460018082018655948252602091829020845160039092020190815590830151938101805467ffffffffffffffff19166001600160401b03909516949094179093555060408101519091906002820190611b8a908261453e565b505050600080516020614a178339815191528686868660006040516118db9594939291906145fb565b5050505050565b60606000611bc86005613288565b6001600160401b03811115611bdf57611bdf613ce5565b604051908082528060200260200182016040528015611c3b57816020015b611c286040805160808101909152806000815260606020820181905260006040830181905291015290565b815260200190600190039081611bfd5790505b50905060005b611c4b6005613288565b8110156115a65760076000611c61600584613292565b6001600160a01b03168152602081019190915260409081016000208151608081019092528054829060ff166005811115611c9d57611c9d613dd6565b6005811115611cae57611cae613dd6565b8152602001600182018054611cc290614269565b80601f0160208091040260200160405190810160405280929190818152602001828054611cee90614269565b8015611d3b5780601f10611d1057610100808354040283529160200191611d3b565b820191906000526020600020905b815481529060010190602001808311611d1e57829003601f168201915b505050918352505060028201546001600160a01b0390811660208301526003909201549091166040909101528251839083908110611d7b57611d7b61429d565b6020908102919091010152600101611c41565b611d9661329e565b6001600160a01b0316336001600160a01b031614611dc9576040516365f4906560e01b8152336004820152602401610572565b611dd460088261323f565b611e1857604080518082018252601281527113d41154905513d497d393d517d193d5539160721b6020820152905162461bcd60e51b81526105729190600401614217565b60005b611e256005613288565b811015611ead576001600160a01b03821660076000611e45600585613292565b6001600160a01b0390811682526020820192909252604001600020600301541603611ea557604080518082018252600d81526c4f55545f4f465f424f554e445360981b6020820152905162461bcd60e51b81526105729190600401614217565b600101611e1b565b50611eb9600882613602565b506040516001600160a01b038216907f80c0b871b97b595b16a7741c1b06fed0c6f6f558639f18ccbce50724325dc40d90600090a250565b6001600160a01b0380821660009081526007602052604090206003015482913391168114611f4f5760408051808201825260088152670848288be82aaa8960c31b6020820152905162461bcd60e51b81526105729190600401614217565b6001600160a01b0383811660009081526007602052604090206002015416611fad57604080518082018252600e81526d1393d11157d393d517d193d5539160921b6020820152905162461bcd60e51b81526105729190600401614217565b60056001600160a01b03841660009081526007602052604090205460ff166005811115611fdc57611fdc613dd6565b146120255760408051808201825260168152751393d11157d4d510551157d393d517d0531313d5d15160521b6020820152905162461bcd60e51b81526105729190600401614217565b612030600584613602565b506001600160a01b0383166000908152600760205260408120805460ff191681559061205f6001830182613801565b506002810180546001600160a01b03199081169091556003909101805490911690556040516001600160a01b038416907fcfc24166db4bb677e857cacabd1541fb2b30645021b27c5130419589b84db52b90600090a2505050565b336000818152600760205260409020600201546001600160a01b031661211657604080518082018252600e81526d1393d11157d393d517d193d5539160921b6020820152905162461bcd60e51b81526105729190600401614217565b612121600085613264565b1561216257604080518082018252600e81526d414c52454144595f45584953545360901b6020820152905162461bcd60e51b81526105729190600401614217565b60006121716080840184614638565b9050905060005b818110156121e8576121a06121906080860186614638565b83818110610f4b57610f4b61429d565b6121e057604080518082018252600e81526d1393d11157d393d517d193d5539160921b6020820152905162461bcd60e51b81526105729190600401614217565b600101612178565b506121f46000866135f6565b506000858152600260205260409020839061220f828261470d565b505060008581526004602052604090819020859055517fac1b69e6e0382c43def3cccabf63091ba47b5d8b10a705d16a1076668643fe4d90612256908790879087906147e2565b60405180910390a15050505050565b33612271600d8261323f565b6122ab5760408051808201825260088152670848288be82aaa8960c31b6020820152905162461bcd60e51b81526105729190600401614217565b6000805b6000858152600c602052604090205481101561242c576000858152600c6020526040902080546001600160401b0386169190839081106122f1576122f161429d565b60009182526020909120600160039092020101546001600160401b031603612424576000858152600c60205260409020805461232f906001906148ab565b8154811061233f5761233f61429d565b90600052602060002090600302016000600c01600087815260200190815260200160002082815481106123745761237461429d565b600091825260209091208254600390920201908155600180830154908201805467ffffffffffffffff19166001600160401b039092169190911790556002808201906123c2908401826148be565b5050506000858152600c602052604090208054806123e2576123e261422a565b60008281526020812060036000199093019283020181815560018101805467ffffffffffffffff191690559061241b6002830182613801565b50509055600191505b6001016122af565b50806124695760408051808201825260098152681393d517d193d5539160ba1b6020820152905162461bcd60e51b81526105729190600401614217565b604080518581526001600160401b03851660208201526080818301819052600090820152600160608201529051600080516020614a178339815191529181900360a00190a150505050565b7f59b501c3653afc186af7d48dda36cf6732bd21629a6295693664240a6ef5200054640100000000900460ff166124fe57604051630ef4733760e31b815260040160405180910390fd5b60005b81811015610afe5761253883838381811061251e5761251e61429d565b9050602002016020810190612533919061396b565b6132cc565b600101612501565b6000610b0f81613288565b61255361329e565b6001600160a01b0316336001600160a01b031614612586576040516365f4906560e01b8152336004820152602401610572565b610a6f8161339e565b60008061259b81613288565b905060005b818110156126315760006125b48183613292565b60008181526002602052604081209192505b600282015481101561262357866001600160a01b03168260020182815481106125f1576125f161429d565b6000918252602090912001546001600160a01b03160361261b57612614866142b3565b9550612623565b6001016125c6565b5050508060010190506125a0565b5050919050565b6060610b0f6005613617565b606060008284106126845760408051808201825260078152664241445f41524760c81b6020820152905162461bcd60e51b81526105729190600401614217565b600061268f81613288565b905060008185116126a057846126a2565b815b905060008682116126b45760006126be565b6126be87836148ab565b90506000816001600160401b038111156126da576126da613ce5565b60405190808252806020026020018201604052801561271357816020015b6127006138c1565b8152602001906001900390816126f85790505b50905060005b82811015612823576000612738612730838c614256565b600090613292565b60408051808201825282815260008381526002602081815291849020845160a0810186528154815260018201546001600160401b0380821683870152600160401b8204811683890152600160801b90910416606082015291810180548651818602810186019097528087529697509395838701959294919360808601939291908301828280156127f157602002820191906000526020600020905b81546001600160a01b031681526001909101906020018083116127d3575b50505050508152505081525083838151811061280f5761280f61429d565b602090810291909101015250600101612719565b509450505083101590505b9250929050565b60006111508183613264565b6000611150600d8361323f565b336000818152600760205260409020600201546001600160a01b03166128aa57604080518082018252600e81526d1393d11157d393d517d193d5539160921b6020820152905162461bcd60e51b81526105729190600401614217565b6128b5600087613264565b6128f05760408051808201825260098152681393d517d193d5539160ba1b6020820152905162461bcd60e51b81526105729190600401614217565b6000868152600260205260409020600180820154600160801b9004161561294c57604080518082018252600d81526c14d51491505357d4d150531151609a1b6020820152905162461bcd60e51b81526105729190600401614217565b60018101546001600160401b038086169116106129985760408051808201825260078152664241445f41524760c81b6020820152905162461bcd60e51b81526105729190600401614217565b60008781526003602052604081206129af91613801565b84815560018101805467ffffffffffffffff19166001600160401b0386161790558215612a09576001818101805467ffffffffffffffff60801b198116600160801b918290046001600160401b0316909317029190911790555b60408051888152602081018790526001600160401b0386169181019190915283151560608201527fccc26bbb6dd655ea0bb8a40a3c30e35c6bdf42f8faf0d71bbea897af768cda8b906080015b60405180910390a150505050505050565b6060610b0f6008613617565b81612a7f600082613264565b612aba5760408051808201825260098152681393d517d193d5539160ba1b6020820152905162461bcd60e51b81526105729190600401614217565b336000818152600760205260409020600201546001600160a01b0316612b1657604080518082018252600e81526d1393d11157d393d517d193d5539160921b6020820152905162461bcd60e51b81526105729190600401614217565b6000848152600260208190526040822090810154909190815b81811015612c3157866001600160a01b0316846002018281548110612b5657612b5661429d565b6000918252602090912001546001600160a01b031603612c295760028401612b7f6001846148ab565b81548110612b8f57612b8f61429d565b6000918252602090912001546002850180546001600160a01b039092169183908110612bbd57612bbd61429d565b9060005260206000200160006101000a8154816001600160a01b0302191690836001600160a01b0316021790555083600201805480612bfe57612bfe61422a565b600082815260209020810160001990810180546001600160a01b031916905501905560019250612c31565b600101612b2f565b5081612c7357604080518082018252600e81526d1393d11157d393d517d193d5539160921b6020820152905162461bcd60e51b81526105729190600401614217565b604080518881526001600160a01b03881660208201526000918101919091527faaa473c28a5fe04b6a7ecd795826e462f9d0c23f00ef9f51ec02fa6ea418806f90606001612a56565b33612cc860088261323f565b612d025760408051808201825260088152670848288be82aaa8960c31b6020820152905162461bcd60e51b81526105729190600401614217565b6001600160a01b038481166000908152600760205260409020600201541615612d6157604080518082018252600e81526d414c52454144595f45584953545360901b6020820152905162461bcd60e51b81526105729190600401614217565b60006040518060800160405280846005811115612d8057612d80613dd6565b8152602081018690526001600160a01b0387166040820152336060909101529050612dac600586613624565b506001600160a01b03851660009081526007602052604090208151815483929190829060ff19166001836005811115612de757612de7613dd6565b021790555060208201516001820190612e00908261453e565b506040828101516002830180546001600160a01b03199081166001600160a01b03938416179091556060909401516003909301805490941692811692909217909255905133918716907f759154d15a6aec80ceab7bc8820f46ebc53ad68bb18f47afb77483fea9dcc9ff90612e78908890889061498e565b60405180910390a35050505050565b6000611150600a83613264565b336000818152600760205260409020600201546001600160a01b0316612ef057604080518082018252600e81526d1393d11157d393d517d193d5539160921b6020820152905162461bcd60e51b81526105729190600401614217565b816000819003612f2f5760408051808201825260078152664241445f41524760c81b6020820152905162461bcd60e51b81526105729190600401614217565b60005b81811015611bb35736858583818110612f4d57612f4d61429d565b60a002919091019150612f64905060008235613264565b612fdc577f75460fe319331413a18a82d99b07735cec53fa0c4061ada38c2141e331082afa81356040830135612fa060808501606086016149b0565b60408051808201825260098152681393d517d193d5539160ba1b60208201529051612fce94939291906149cd565b60405180910390a150613237565b80356000908152600260205260409020600180820154600160801b90041615613078577f75460fe319331413a18a82d99b07735cec53fa0c4061ada38c2141e331082afa8235604084013561303760808601606087016149b0565b604080518082018252600d81526c14d51491505357d4d150531151609a1b6020820152905161306994939291906149cd565b60405180910390a15050613237565b61308860808301606084016149b0565b60018201546001600160401b03918216911610613103577f75460fe319331413a18a82d99b07735cec53fa0c4061ada38c2141e331082afa823560408401356130d760808601606087016149b0565b60408051808201825260078152664241445f41524760c81b6020820152905161306994939291906149cd565b60018101546001600160401b0316600003613131578135600090815260036020526040812061313191613801565b6040820135815561314860808301606084016149b0565b60018201805467ffffffffffffffff19166001600160401b039290921691909117905561317b60a08301608084016149fb565b156131b3576001818101805467ffffffffffffffff60801b198116600160801b918290046001600160401b0316909317029190911790555b7fccc26bbb6dd655ea0bb8a40a3c30e35c6bdf42f8faf0d71bbea897af768cda8b823560408401356131eb60808601606087016149b0565b6131fb60a08701608088016149fb565b60405161322c949392919093845260208401929092526001600160401b031660408301521515606082015260800190565b60405180910390a150505b600101612f32565b6001600160a01b038116600090815260018301602052604081205415155b9392505050565b6000818152600183016020526040812054151561325d565b600061325d8383613639565b6000611150825490565b600061325d838361372c565b7f4675fa8241f86f37157864d3d49b85ad4b164352c516da28e1678a90470ae300546001600160a01b031690565b6001600160a01b03811661330f5760408051808201825260078152664241445f41524760c81b6020820152905162461bcd60e51b81526105729190600401614217565b61331a60088261323f565b1561335b57604080518082018252600e81526d414c52454144595f45584953545360901b6020820152905162461bcd60e51b81526105729190600401614217565b613366600882613624565b506040516001600160a01b038216907fac6fa858e9350a46cec16539926e0fde25b7629f84b5a72bffaae4df888ae86d90600090a250565b6001600160a01b0381166133e15760408051808201825260078152664241445f41524760c81b6020820152905162461bcd60e51b81526105729190600401614217565b6133ec600d82613624565b61342c57604080518082018252600e81526d414c52454144595f45584953545360901b6020820152905162461bcd60e51b81526105729190600401614217565b6040516001600160a01b038216907f7afd798379ae2d2e5035438544cea2b60eb1dde6a8128e6d447fd2a25f8825a290600090a250565b600082600581111561347757613477613dd6565b14806134cb5750600182600581111561349257613492613dd6565b1480156134cb575060038160058111156134ae576134ae613dd6565b14806134cb575060048160058111156134c9576134c9613dd6565b145b8061351e575060028260058111156134e5576134e5613dd6565b14801561351e5750600381600581111561350157613501613dd6565b148061351e5750600481600581111561351c5761351c613dd6565b145b806135715750600482600581111561353857613538613dd6565b1480156135715750600381600581111561355457613554613dd6565b14806135715750600581600581111561356f5761356f613dd6565b145b806135a95750600382600581111561358b5761358b613dd6565b1480156135a9575060058160058111156135a7576135a7613dd6565b145b156135b2575050565b60408051808201825260168152751393d11157d4d510551157d393d517d0531313d5d15160521b6020820152905162461bcd60e51b81526105729190600401614217565b600061325d8383613756565b600061325d836001600160a01b038416613639565b6060600061325d836137a5565b600061325d836001600160a01b038416613756565b6000818152600183016020526040812054801561372257600061365d6001836148ab565b8554909150600090613671906001906148ab565b90508082146136d65760008660000182815481106136915761369161429d565b90600052602060002001549050808760000184815481106136b4576136b461429d565b6000918252602080832090910192909255918252600188019052604090208390555b85548690806136e7576136e761422a565b600190038181906000526020600020016000905590558560010160008681526020019081526020016000206000905560019350505050611150565b6000915050611150565b60008260000182815481106137435761374361429d565b9060005260206000200154905092915050565b600081815260018301602052604081205461379d57508154600181810184556000848152602080822090930184905584548482528286019093526040902091909155611150565b506000611150565b6060816000018054806020026020016040519081016040528092919081815260200182805480156137f557602002820191906000526020600020905b8154815260200190600101908083116137e1575b50505050509050919050565b50805461380d90614269565b6000825580601f1061381d575050565b601f016020900490600052602060002090810190610a6f919061390b565b5080546000825560030290600052602060002090810190610a6f9190613920565b8280548282559060005260206000209081019282156138b1579160200282015b828111156138b157825182546001600160a01b0319166001600160a01b0390911617825560209092019160019091019061387c565b506138bd92915061390b565b5090565b6040805180820190915260008152602081016139066040805160a081018252600080825260208201819052918101829052606080820192909252608081019190915290565b905290565b5b808211156138bd576000815560010161390c565b808211156138bd57600080825560018201805467ffffffffffffffff1916905561394d6002830182613801565b50600301613920565b6001600160a01b0381168114610a6f57600080fd5b60006020828403121561397d57600080fd5b813561325d81613956565b60006020828403121561399a57600080fd5b5035919050565b60005b838110156139bc5781810151838201526020016139a4565b50506000910152565b600081518084526139dd8160208601602086016139a1565b601f01601f19169290920160200192915050565b600060208083018184528085518083526040925060408601915060408160051b87010184880160005b83811015613a6d57888303603f19018552815180518452878101516001600160401b0316888501528601516060878501819052613a59818601836139c5565b968901969450505090860190600101613a1a565b509098975050505050505050565b600060a08301825184526020808401516001600160401b0380821660208801528060408701511660408801528060608701511660608801525050608084015160a0608087015282815180855260c088019150602083019450600092505b80831015613b015784516001600160a01b03168252938301936001929092019190830190613ad8565b509695505050505050565b60208152600061325d6020830184613a7b565b60008083601f840112613b3157600080fd5b5081356001600160401b03811115613b4857600080fd5b6020830191508360208260051b850101111561282e57600080fd5b60008060208385031215613b7657600080fd5b82356001600160401b03811115613b8c57600080fd5b613b9885828601613b1f565b90969095509350505050565b606081526000613bb76060830186613a7b565b8460208401528281036040840152613bcf81856139c5565b9695505050505050565b803560068110613be857600080fd5b919050565b60008060408385031215613c0057600080fd5b8235613c0b81613956565b9150613c1960208401613bd9565b90509250929050565b60008083601f840112613c3457600080fd5b5081356001600160401b03811115613c4b57600080fd5b60208301915083602082850101111561282e57600080fd5b60008060008060008060808789031215613c7c57600080fd5b8635955060208701356001600160401b0380821115613c9a57600080fd5b613ca68a838b01613b1f565b9097509550604089013594506060890135915080821115613cc657600080fd5b50613cd389828a01613c22565b979a9699509497509295939492505050565b634e487b7160e01b600052604160045260246000fd5b600082601f830112613d0c57600080fd5b81356001600160401b0380821115613d2657613d26613ce5565b604051601f8301601f19908116603f01168101908282118183101715613d4e57613d4e613ce5565b81604052838152866020858801011115613d6757600080fd5b836020870160208301376000602085830101528094505050505092915050565b60008060408385031215613d9a57600080fd5b8235613da581613956565b915060208301356001600160401b03811115613dc057600080fd5b613dcc85828601613cfb565b9150509250929050565b634e487b7160e01b600052602160045260246000fd5b60068110613e0a57634e487b7160e01b600052602160045260246000fd5b9052565b613e19828251613dec565b6000602082015160806020850152613e3460808501826139c5565b6040848101516001600160a01b03908116918701919091526060948501511693909401929092525090919050565b60208152600061325d6020830184613e0e565b60008060408385031215613e8857600080fd5b823591506020830135613e9a81613956565b809150509250929050565b6001600160401b0381168114610a6f57600080fd5b60008060008060608587031215613ed057600080fd5b843593506020850135613ee281613ea5565b925060408501356001600160401b03811115613efd57600080fd5b613f0987828801613c22565b95989497509550505050565b600060208083016020845280855180835260408601915060408160051b87010192506020870160005b82811015613f6c57603f19888603018452613f5a858351613e0e565b94509285019290850190600101613f3e565b5092979650505050505050565b600080600060608486031215613f8e57600080fd5b833592506020840135915060408401356001600160401b03811115613fb257600080fd5b840160a08187031215613fc457600080fd5b809150509250925092565b60008060408385031215613fe257600080fd5b823591506020830135613e9a81613ea5565b6020808252825182820181905260009190848201906040850190845b818110156140355783516001600160a01b031683529284019291840191600101614010565b50909695505050505050565b6000806040838503121561405457600080fd5b50508035926020909101359150565b600060408083016040845280865180835260608601915060608160051b8701019250602080890160005b838110156140cc57888603605f190185528151805187528301518387018890526140b988880182613a7b565b965050938201939082019060010161408d565b5050961515959096019490945295945050505050565b80358015158114613be857600080fd5b600080600080600060a0868803121561410a57600080fd5b853594506020860135935060408601359250606086013561412a81613ea5565b9150614138608087016140e2565b90509295509295909350565b60008060006060848603121561415957600080fd5b833561416481613956565b925060208401356001600160401b0381111561417f57600080fd5b61418b86828701613cfb565b92505061419a60408501613bd9565b90509250925092565b600080602083850312156141b657600080fd5b82356001600160401b03808211156141cd57600080fd5b818501915085601f8301126141e157600080fd5b8135818111156141f057600080fd5b86602060a08302850101111561420557600080fd5b60209290920196919550909350505050565b60208152600061325d60208301846139c5565b634e487b7160e01b600052603160045260246000fd5b634e487b7160e01b600052601160045260246000fd5b8082018082111561115057611150614240565b600181811c9082168061427d57607f821691505b6020821081036115a657634e487b7160e01b600052602260045260246000fd5b634e487b7160e01b600052603260045260246000fd5b6000600182016142c5576142c5614240565b5060010190565b602081016111508284613dec565b5b818110156142ef57600081556001016142db565b5050565b601f821115610afe57806000526020600020601f840160051c8101602085101561431a5750805b611bb3601f850160051c8301826142da565b600019600383901b1c191660019190911b1790565b6001600160401b0383111561435857614358613ce5565b61436c836143668354614269565b836142f3565b6000601f84116001811461439a57600085156143885750838201355b614392868261432c565b845550611bb3565b600083815260209020601f19861690835b828110156143cb57868501358255602094850194600190920191016143ab565b50868210156143e85760001960f88860031b161c19848701351681555b505060018560011b0183555050505050565b8183526000602080850194508260005b8581101561443857813561441d81613956565b6001600160a01b03168752958201959082019060010161440a565b509495945050505050565b81835281816020850137506000828201602090810191909152601f909101601f19169091010190565b8681526080602082015260006144866080830187896143fa565b856040840152828103606084015261449f818587614443565b9998505050505050505050565b600082516144be8184602087016139a1565b9190910192915050565b60008083546144d681614269565b600182811680156144ee576001811461450357614532565b60ff1984168752821515830287019450614532565b8760005260208060002060005b858110156145295781548a820152908401908201614510565b50505082870194505b50929695505050505050565b81516001600160401b0381111561455757614557613ce5565b61456b816145658454614269565b846142f3565b602080601f83116001811461459a57600084156145885750858301515b614592858261432c565b8655506145f3565b600085815260208120601f198616915b828110156145c9578886015182559484019460019091019084016145aa565b50858210156145e75787850151600019600388901b60f8161c191681555b505060018460011b0185555b505050505050565b8581526001600160401b0385166020820152608060408201526000614624608083018587614443565b905082151560608301529695505050505050565b6000808335601e1984360301811261464f57600080fd5b8301803591506001600160401b0382111561466957600080fd5b6020019150600581901b360382131561282e57600080fd5b6001600160401b0383111561469857614698613ce5565b600160401b8311156146ac576146ac613ce5565b8054838255808410156146d2578160005260206000206146d08282018683016142da565b505b50818160005260208060002060005b868110156147045783356146f481613956565b82820155928201926001016146e1565b50505050505050565b8135815560018101602083013561472381613ea5565b6001600160401b038254604086013561473b81613ea5565b606087013561474981613ea5565b6001600160401b0360801b8160801b168486166001600160401b0360c01b8516176fffffffffffffffff00000000000000008460401b161717865550505060808501359250601e198536030183126147a057600080fd5b9184019182359150808211156147b557600080fd5b506020820191508060051b36038213156147ce57600080fd5b6147dc818360028601614681565b50505050565b83815282602082015260606040820152813560608201526000602083013561480981613ea5565b6001600160401b03908116608084015260408401359061482882613ea5565b90811660a084015260608401359061483f82613ea5565b90811660c084015260808401359036859003601e1901821261486057600080fd5b602091850191820191358181111561487757600080fd5b8060051b360383131561488957600080fd5b60a060e086015261489f610100860182856143fa565b98975050505050505050565b8181038181111561115057611150614240565b8181036148c9575050565b6148d38254614269565b6001600160401b038111156148ea576148ea613ce5565b6148f8816145658454614269565b6000601f82116001811461492657600083156149145750848201545b61491e848261432c565b855550611bb3565b600085815260209020601f19841690600086815260209020845b838110156149605782860154825560019586019590910190602001614940565b508583101561497e5781850154600019600388901b60f8161c191681555b5050505050600190811b01905550565b6040815260006149a160408301856139c5565b905061325d6020830184613dec565b6000602082840312156149c257600080fd5b813561325d81613ea5565b8481528360208201526001600160401b0383166040820152608060608201526000613bcf60808301846139c5565b600060208284031215614a0d57600080fd5b61325d826140e256fec01483261a841a868b99cb8802faed4ea44a1a816651c4f7ee061a96a205fe98","linkReferences":{}},"methodIdentifiers":{"__OperatorRegistry_init(address[])":"ba428b1a","__RiverConfig_init(address[])":"31374511","addStream(bytes32,bytes32,(bytes32,uint64,uint64,uint64,address[]))":"b2e76b8e","allocateStream(bytes32,address[],bytes32,bytes)":"6b883c39","approveConfigurationManager(address)":"c179b85f","approveOperator(address)":"242cae9f","configurationExists(bytes32)":"fc207c01","deleteConfiguration(bytes32)":"035759e1","deleteConfigurationOnBlock(bytes32,uint64)":"b7f227ee","getAllConfiguration()":"081814db","getAllNodeAddresses()":"c8fe3a01","getAllNodes()":"a1174e7d","getAllOperators()":"d911c632","getConfiguration(bytes32)":"9283ae3a","getNode(address)":"9d209048","getNodeCount()":"39bf397e","getPaginatedStreams(uint256,uint256)":"ca78c41a","getStream(bytes32)":"1290abe8","getStreamCount()":"c0f22084","getStreamCountOnNode(address)":"c87d1324","getStreamWithGenesis(bytes32)":"3c2544d1","isConfigurationManager(address)":"d4bd44a0","isNode(address)":"01750152","isOperator(address)":"6d70f7ae","isStream(bytes32)":"d0c27c4f","placeStreamOnNode(bytes32,address)":"9ee86d38","registerNode(address,string,uint8)":"eecc66f4","removeConfigurationManager(address)":"813049ec","removeNode(address)":"b2b99ec9","removeOperator(address)":"ac8a584a","removeStreamFromNode(bytes32,address)":"ee885b12","setConfiguration(bytes32,uint64,bytes)":"a09449a6","setStreamLastMiniblock(bytes32,bytes32,bytes32,uint64,bool)":"d7a3158a","setStreamLastMiniblockBatch((bytes32,bytes32,bytes32,uint64,bool)[])":"ff3a14ab","updateNodeStatus(address,uint8)":"581f8b9b","updateNodeUrl(address,string)":"7e4465e7"},"id":398}