{"abi":[{"type":"function","name":"__Architect_init","inputs":[{"name":"ownerImplementation","type":"address","internalType":"contract ISpaceOwner"},{"name":"userEntitlementImplementation","type":"address","internalType":"contract IUserEntitlement"},{"name":"ruleEntitlementImplementation","type":"address","internalType":"contract IRuleEntitlement"},{"name":"legacyRuleEntitlement","type":"address","internalType":"contract IRuleEntitlement"}],"outputs":[],"stateMutability":"nonpayable"},{"type":"function","name":"createSpace","inputs":[{"name":"spaceInfo","type":"tuple","internalType":"struct ILegacyArchitectBase.SpaceInfo","components":[{"name":"name","type":"string","internalType":"string"},{"name":"uri","type":"string","internalType":"string"},{"name":"membership","type":"tuple","internalType":"struct ILegacyArchitectBase.Membership","components":[{"name":"settings","type":"tuple","internalType":"struct IMembershipBase.Membership","components":[{"name":"name","type":"string","internalType":"string"},{"name":"symbol","type":"string","internalType":"string"},{"name":"price","type":"uint256","internalType":"uint256"},{"name":"maxSupply","type":"uint256","internalType":"uint256"},{"name":"duration","type":"uint64","internalType":"uint64"},{"name":"currency","type":"address","internalType":"address"},{"name":"feeRecipient","type":"address","internalType":"address"},{"name":"freeAllocation","type":"uint256","internalType":"uint256"},{"name":"pricingModule","type":"address","internalType":"address"}]},{"name":"requirements","type":"tuple","internalType":"struct ILegacyArchitectBase.MembershipRequirements","components":[{"name":"everyone","type":"bool","internalType":"bool"},{"name":"users","type":"address[]","internalType":"address[]"},{"name":"ruleData","type":"tuple","internalType":"struct IRuleEntitlementBase.RuleData","components":[{"name":"operations","type":"tuple[]","internalType":"struct IRuleEntitlementBase.Operation[]","components":[{"name":"opType","type":"uint8","internalType":"enum IRuleEntitlementBase.CombinedOperationType"},{"name":"index","type":"uint8","internalType":"uint8"}]},{"name":"checkOperations","type":"tuple[]","internalType":"struct IRuleEntitlementBase.CheckOperation[]","components":[{"name":"opType","type":"uint8","internalType":"enum IRuleEntitlementBase.CheckOperationType"},{"name":"chainId","type":"uint256","internalType":"uint256"},{"name":"contractAddress","type":"address","internalType":"address"},{"name":"threshold","type":"uint256","internalType":"uint256"}]},{"name":"logicalOperations","type":"tuple[]","internalType":"struct IRuleEntitlementBase.LogicalOperation[]","components":[{"name":"logOpType","type":"uint8","internalType":"enum IRuleEntitlementBase.LogicalOperationType"},{"name":"leftOperationIndex","type":"uint8","internalType":"uint8"},{"name":"rightOperationIndex","type":"uint8","internalType":"uint8"}]}]}]},{"name":"permissions","type":"string[]","internalType":"string[]"}]},{"name":"channel","type":"tuple","internalType":"struct ILegacyArchitectBase.ChannelInfo","components":[{"name":"metadata","type":"string","internalType":"string"}]},{"name":"shortDescription","type":"string","internalType":"string"},{"name":"longDescription","type":"string","internalType":"string"}]}],"outputs":[{"name":"","type":"address","internalType":"address"}],"stateMutability":"nonpayable"},{"type":"function","name":"getSpaceArchitectImplementations","inputs":[],"outputs":[{"name":"spaceToken","type":"address","internalType":"contract ISpaceOwner"},{"name":"userEntitlementImplementation","type":"address","internalType":"contract IUserEntitlement"},{"name":"ruleEntitlementImplementation","type":"address","internalType":"contract IRuleEntitlement"}],"stateMutability":"view"},{"type":"function","name":"getSpaceByTokenId","inputs":[{"name":"tokenId","type":"uint256","internalType":"uint256"}],"outputs":[{"name":"","type":"address","internalType":"address"}],"stateMutability":"view"},{"type":"function","name":"getTokenIdBySpace","inputs":[{"name":"space","type":"address","internalType":"address"}],"outputs":[{"name":"","type":"uint256","internalType":"uint256"}],"stateMutability":"view"},{"type":"function","name":"setSpaceArchitectImplementations","inputs":[{"name":"spaceToken","type":"address","internalType":"contract ISpaceOwner"},{"name":"userEntitlementImplementation","type":"address","internalType":"contract IUserEntitlement"},{"name":"ruleEntitlementImplementation","type":"address","internalType":"contract IRuleEntitlement"}],"outputs":[],"stateMutability":"nonpayable"},{"type":"event","name":"Initialized","inputs":[{"name":"version","type":"uint32","indexed":false,"internalType":"uint32"}],"anonymous":false},{"type":"event","name":"InterfaceAdded","inputs":[{"name":"interfaceId","type":"bytes4","indexed":true,"internalType":"bytes4"}],"anonymous":false},{"type":"event","name":"InterfaceRemoved","inputs":[{"name":"interfaceId","type":"bytes4","indexed":true,"internalType":"bytes4"}],"anonymous":false},{"type":"event","name":"OwnershipTransferred","inputs":[{"name":"previousOwner","type":"address","indexed":true,"internalType":"address"},{"name":"newOwner","type":"address","indexed":true,"internalType":"address"}],"anonymous":false},{"type":"event","name":"Paused","inputs":[{"name":"account","type":"address","indexed":false,"internalType":"address"}],"anonymous":false},{"type":"event","name":"SpaceCreated","inputs":[{"name":"owner","type":"address","indexed":true,"internalType":"address"},{"name":"tokenId","type":"uint256","indexed":true,"internalType":"uint256"},{"name":"space","type":"address","indexed":true,"internalType":"address"}],"anonymous":false},{"type":"event","name":"Unpaused","inputs":[{"name":"account","type":"address","indexed":false,"internalType":"address"}],"anonymous":false},{"type":"error","name":"Architect__InvalidAddress","inputs":[]},{"type":"error","name":"Architect__InvalidNetworkId","inputs":[]},{"type":"error","name":"Architect__InvalidStringLength","inputs":[]},{"type":"error","name":"Architect__NotContract","inputs":[]},{"type":"error","name":"Factory__FailedDeployment","inputs":[]},{"type":"error","name":"Initializable_InInitializingState","inputs":[]},{"type":"error","name":"Initializable_NotInInitializingState","inputs":[]},{"type":"error","name":"Introspection_AlreadySupported","inputs":[]},{"type":"error","name":"Introspection_NotSupported","inputs":[]},{"type":"error","name":"Ownable__NotOwner","inputs":[{"name":"account","type":"address","internalType":"address"}]},{"type":"error","name":"Ownable__ZeroAddress","inputs":[]},{"type":"error","name":"Pausable__NotPaused","inputs":[]},{"type":"error","name":"Pausable__Paused","inputs":[]},{"type":"error","name":"ReentrancyGuard__ReentrantCall","inputs":[]},{"type":"error","name":"Validator__InvalidAddress","inputs":[]}],"bytecode":{"object":"0x608060405234801561001057600080fd5b5061001961001e565b6100c4565b7f59b501c3653afc186af7d48dda36cf6732bd21629a6295693664240a6ef520008054640100000000900460ff161561006a576040516366008a2d60e01b815260040160405180910390fd5b805463ffffffff90811610156100c157805463ffffffff191663ffffffff90811782556040519081527fe9c9b456cb2994b80aeef036cf59d26e9617df80f816a6ee5a5b4166e07e2f5c9060200160405180910390a15b50565b613b6380620000d46000396000f3fe60806040523480156200001157600080fd5b50600436106200006a5760003560e01c80631a424b66146200006f578063545efb2d1462000088578063673f0dd514620000c15780638bfc94b914620000f1578063c0bc67961462000108578063ef009225146200012e575b600080fd5b6200008662000080366004620012d6565b62000145565b005b62000092620001dd565b604080516001600160a01b03948516815292841660208401529216918101919091526060015b60405180910390f35b620000d8620000d23660046200133b565b6200025a565b6040516001600160a01b039091168152602001620000b8565b620000866200010236600462001355565b62000298565b6200011f62000119366004620013b4565b620002fb565b604051908152602001620000b8565b620000d86200013f36600462001ba8565b62000339565b7f59b501c3653afc186af7d48dda36cf6732bd21629a6295693664240a6ef5200054640100000000900460ff166200019057604051630ef4733760e31b815260040160405180910390fd5b6200019d84848462000428565b7f9e34afa7b4d27d347d25d9d9dab4f1a106fa081382e6c4243e834d093e787d0580546001600160a01b0319166001600160a01b03831617905550505050565b60008060006200024f60008051602062003b43833981519152547f9e34afa7b4d27d347d25d9d9dab4f1a106fa081382e6c4243e834d093e787d01547f9e34afa7b4d27d347d25d9d9dab4f1a106fa081382e6c4243e834d093e787d02546001600160a01b0392831693918316921690565b925092509250909192565b60008181527f06bd04a817647c31ee485c8a0baab96facd62dbfd4b475796bb17ca2c12f000260205260408120546001600160a01b03165b92915050565b7f4675fa8241f86f37157864d3d49b85ad4b164352c516da28e1678a90470ae300546001600160a01b03163314620002e9576040516365f4906560e01b815233600482015260240160405180910390fd5b620002f683838362000428565b505050565b6001600160a01b03811660009081527f06bd04a817647c31ee485c8a0baab96facd62dbfd4b475796bb17ca2c12f0001602052604081205462000292565b600060027f54f22f54f370bd020e00ee80e1a5099a71652e2ccbcf6a75281e4c70a3e11a0054036200037e57604051635db5c7cd60e11b815260040160405180910390fd5b620003a860027f54f22f54f370bd020e00ee80e1a5099a71652e2ccbcf6a75281e4c70a3e11a0055565b7fe17a067c7963a59b6dfd65d33b053fdbea1c56500e2aae4f976d9eda4da9eb005460ff1615620003ec576040516302ca8ced60e11b815260040160405180910390fd5b620003f78262000537565b90506200042360017f54f22f54f370bd020e00ee80e1a5099a71652e2ccbcf6a75281e4c70a3e11a0055565b919050565b826001600160a01b03163b60000362000454576040516302f3d00b60e01b815260040160405180910390fd5b816001600160a01b03163b60000362000480576040516302f3d00b60e01b815260040160405180910390fd5b806001600160a01b03163b600003620004ac576040516302f3d00b60e01b815260040160405180910390fd5b60008051602062003b4383398151915280546001600160a01b039485166001600160a01b0319918216179091557f9e34afa7b4d27d347d25d9d9dab4f1a106fa081382e6c4243e834d093e787d018054938516938216939093179092557f9e34afa7b4d27d347d25d9d9dab4f1a106fa081382e6c4243e834d093e787d028054919093169116179055565b60008051602062003b43833981519152805460408051631d5e528f60e21b815290516000937f06bd04a817647c31ee485c8a0baab96facd62dbfd4b475796bb17ca2c12f000093909285926001600160a01b03909216916375794a3c916004808201926020929091908290030181865afa158015620005ba573d6000803e3d6000fd5b505050506040513d601f19601f82011682018060405250810190620005e0919062001cdf565b9050620005f2818660400151620008e6565b8354909450836000620006058362001cf9565b90915550506000818152600284016020908152604080832080546001600160a01b0319166001600160a01b03898116918217909255845260018701835292819020849055845488519289015160808a015160a08b01519351630efd6e3d60e21b81529290951694633bf5b8f494620006869490938b92919060040162001d75565b6020604051808303816000875af1158015620006a6573d6000803e3d6000fd5b505050506040513d601f19601f82011682018060405250810190620006cc919062001cdf565b506001820154600090620006ea906001600160a01b03168662000910565b60058401549091506000906200070a906001600160a01b03168762000910565b6040805160028082526060820183529293506000929091602083019080368337019050509050828160008151811062000747576200074762001de5565b60200260200101906001600160a01b031690816001600160a01b03168152505081816001815181106200077e576200077e62001de5565b6001600160a01b039283166020918202929092010152604051638bfc820f60e01b815290881690638bfc820f90620007bb90849060040162001dfb565b600060405180830381600087803b158015620007d657600080fd5b505af1158015620007eb573d6000803e3d6000fd5b50505050620008058784848b6040015160200151620009cd565b5060408089015180515191015160009162000824918a91908762000e00565b90506200083788828b6060015162000f90565b8554604051632142170760e11b8152306004820152336024820152604481018790526001600160a01b03909116906342842e0e90606401600060405180830381600087803b1580156200088957600080fd5b505af11580156200089e573d6000803e3d6000fd5b50506040516001600160a01b038b16925087915033907fe50fc3942f8a2d7e5a7c8fb9488499eba5255b41e18bc3f1b4791402976d1d0b90600090a450505050505050919050565b6000806000620008f7858562001091565b915091506200090782826200122e565b95945050505050565b600080604051806020016200092590620012a4565b601f1982820381018352601f9091011660408190526001600160a01b0385166024820152859060440160408051601f19818403018152918152602080830180516001600160e01b031663189acdbd60e31b1790529051620009899392910162001e4a565b60408051601f1981840301815290829052620009a9929160200162001e70565b6040516020818303038152906040529050620009c58162001254565b949350505050565b604080516001808252818301909252600091829190816020015b6060815260200190600190039081620009e7579050509050604051806040016040528060098152602001684a6f696e537061636560b81b8152508160008151811062000a375762000a3762001de5565b6020026020010181905250856001600160a01b0316638fcd793d6040518060400160405280600681526020016526b4b73a32b960d11b8152508360006001600160401b0381111562000a8d5762000a8d620013db565b60405190808252806020026020018201604052801562000ad557816020015b60408051808201909152600081526060602082015281526020019060019003908162000aac5790505b506040518463ffffffff1660e01b815260040162000af69392919062001ecc565b6020604051808303816000875af115801562000b16573d6000803e3d6000fd5b505050506040513d601f19601f8201168201806040525081019062000b3c919062001cdf565b83519092501562000c4a576040805160018082528183019092526000916020808301908036833701905050905060018160008151811062000b815762000b8162001de5565b60200260200101906001600160a01b031690816001600160a01b031681525050866001600160a01b031663ba201ba88460405180604001604052808a6001600160a01b031681526020018560405160200162000bde919062001dfb565b6040516020818303038152906040528152506040518363ffffffff1660e01b815260040162000c0f92919062001f9e565b600060405180830381600087803b15801562000c2a57600080fd5b505af115801562000c3f573d6000803e3d6000fd5b505050505062000df7565b6020830151511562000d435760005b83602001515181101562000c9b5762000c928460200151828151811062000c845762000c8462001de5565b602002602001015162001279565b60010162000c59565b50856001600160a01b031663ba201ba8836040518060400160405280896001600160a01b03168152602001876020015160405160200162000cdd919062001dfb565b6040516020818303038152906040528152506040518363ffffffff1660e01b815260040162000d0e92919062001f9e565b600060405180830381600087803b15801562000d2957600080fd5b505af115801562000d3e573d6000803e3d6000fd5b505050505b604083015151511562000df757856001600160a01b031663ba201ba8836040518060400160405280886001600160a01b03168152602001876040015160405160200162000d919190620020b6565b6040516020818303038152906040528152506040518363ffffffff1660e01b815260040162000dc292919062001f9e565b600060405180830381600087803b15801562000ddd57600080fd5b505af115801562000df2573d6000803e3d6000fd5b505050505b50949350505050565b6040805160018082528183019092526000918291906020808301908036833701905050905060018160008151811062000e3d5762000e3d62001de5565b6001600160a01b039290921660209283029190910190910152604080516001808252818301909252600091816020015b60408051808201909152600081526060602082015281526020019060019003908162000e6d579050509050838160008151811062000eaf5762000eaf62001de5565b6020908102919091018101516001600160a01b0390921690915260405162000eda9184910162001dfb565b6040516020818303038152906040528160008151811062000eff5762000eff62001de5565b6020908102919091018101510152604051638fcd793d60e01b81526001600160a01b03881690638fcd793d9062000f3f9089908990869060040162001ecc565b6020604051808303816000875af115801562000f5f573d6000803e3d6000fd5b505050506040513d601f19601f8201168201806040525081019062000f85919062001cdf565b979650505050505050565b60408051600180825281830190925260009160208083019080368337019050509050828160008151811062000fc95762000fc962001de5565b602090810291909101810191909152604051600160fd1b918101919091526bffffffffffffffffffffffff19606086901b166021820152600090603501604051602081830303815290604052620010209062002161565b835160405163921f717560e01b81529192506001600160a01b0387169163921f7175916200105691859190879060040162002189565b600060405180830381600087803b1580156200107157600080fd5b505af115801562001086573d6000803e3d6000fd5b505050505050505050565b606060008060008051602062003b438339815191526040805133602082015290810187905242606082015290915060800160405160208183030381529060405280519060200120915060405180602001620010ec90620012b2565b601f19828203810183526040601f90920116818101825263dc9cc64560e01b8152306020828101919091528251808401845285546001600160a01b0390811682528183018b90528451610120810186528a515181528a518401519381019390935289518501519483019490945288516060908101519083015288516080908101516001600160401b031690830152885160a090810151851690830152885160c0908101513395929392918301911615620011ac57895160c00151620011ae565b335b6001600160a01b03168152602001896000015160e001518152602001896000015161010001516001600160a01b0316815250604051602001620011f59493929190620021ea565b60408051601f198184030181529082905262001215929160200162001e70565b6040516020818303038152906040529250509250929050565b60008260200183518381836000f59250505080620002925763ef35ca196000526004601cfd5b600081602001825180826000f09250505080620004235763ef35ca196000526004601cfd5b6001600160a01b038116620012a1576040516302e47d1560e41b815260040160405180910390fd5b50565b6103d480620022e683390190565b61148980620026ba83390190565b6001600160a01b0381168114620012a157600080fd5b60008060008060808587031215620012ed57600080fd5b8435620012fa81620012c0565b935060208501356200130c81620012c0565b925060408501356200131e81620012c0565b915060608501356200133081620012c0565b939692955090935050565b6000602082840312156200134e57600080fd5b5035919050565b6000806000606084860312156200136b57600080fd5b83356200137881620012c0565b925060208401356200138a81620012c0565b915060408401356200139c81620012c0565b809150509250925092565b80356200042381620012c0565b600060208284031215620013c757600080fd5b8135620013d481620012c0565b9392505050565b634e487b7160e01b600052604160045260246000fd5b604051608081016001600160401b0381118282101715620014165762001416620013db565b60405290565b604051606081016001600160401b0381118282101715620014165762001416620013db565b604080519081016001600160401b0381118282101715620014165762001416620013db565b60405161012081016001600160401b0381118282101715620014165762001416620013db565b60405160c081016001600160401b0381118282101715620014165762001416620013db565b604051601f8201601f191681016001600160401b0381118282101715620014dc57620014dc620013db565b604052919050565b600082601f830112620014f657600080fd5b81356001600160401b03811115620015125762001512620013db565b62001527601f8201601f1916602001620014b1565b8181528460208386010111156200153d57600080fd5b816020850160208301376000918101602001919091529392505050565b80356001600160401b03811681146200042357600080fd5b60006001600160401b038211156200158e576200158e620013db565b5060051b60200190565b60038110620012a157600080fd5b803560ff811681146200042357600080fd5b600082601f830112620015ca57600080fd5b81356020620015e3620015dd8362001572565b620014b1565b828152600792831b85018201928282019190878511156200160357600080fd5b8387015b8581101562001674576080818a031215620016225760008081fd5b6200162c620013f1565b81358381106200163c5760008081fd5b815281860135868201526040808301356200165781620012c0565b908201526060828101359082015284529284019260800162001607565b5090979650505050505050565b600082601f8301126200169357600080fd5b81356020620016a6620015dd8362001572565b82815260609283028501820192828201919087851115620016c657600080fd5b8387015b85811015620016745781818a031215620016e45760008081fd5b620016ee6200141c565b8135620016fb8162001598565b81526200170a828701620015a6565b8682015260406200171d818401620015a6565b908201528452928401928101620016ca565b6000606082840312156200174257600080fd5b6200174c6200141c565b905081356001600160401b03808211156200176657600080fd5b818401915084601f8301126200177b57600080fd5b813560206200178e620015dd8362001572565b82815260069290921b84018101918181019088841115620017ae57600080fd5b948201945b838610156200180b576040868a031215620017ce5760008081fd5b620017d862001441565b8635620017e58162001598565b8152620017f4878501620015a6565b8185015282526040959095019490820190620017b3565b865250858101359350828411156200182257600080fd5b6200183087858801620015b8565b908501525060408401359150808211156200184a57600080fd5b50620018598482850162001681565b60408301525092915050565b6000606082840312156200187857600080fd5b620018826200141c565b9050813580151581146200189557600080fd5b81526020828101356001600160401b0380821115620018b357600080fd5b818501915085601f830112620018c857600080fd5b8135620018d9620015dd8262001572565b81815260059190911b83018401908481019088831115620018f957600080fd5b938501935b82851015620019245784356200191481620012c0565b82529385019390850190620018fe565b808688015250505060408501359250808311156200194157600080fd5b505062001859848285016200172f565b600082601f8301126200196357600080fd5b8135602062001976620015dd8362001572565b82815260059290921b840181019181810190868411156200199657600080fd5b8286015b84811015620019da5780356001600160401b03811115620019bb5760008081fd5b620019cb8986838b0101620014e4565b8452509183019183016200199a565b509695505050505050565b600060608284031215620019f857600080fd5b62001a026200141c565b905081356001600160401b038082111562001a1c57600080fd5b90830190610120828603121562001a3257600080fd5b62001a3c62001466565b82358281111562001a4c57600080fd5b62001a5a87828601620014e4565b82525060208301358281111562001a7057600080fd5b62001a7e87828601620014e4565b602083015250604083013560408201526060830135606082015262001aa6608084016200155a565b608082015262001ab960a08401620013a7565b60a082015262001acc60c08401620013a7565b60c082015260e083013560e082015261010062001aeb818501620013a7565b908201528352602084013591508082111562001b0657600080fd5b62001b148583860162001865565b6020840152604084013591508082111562001b2e57600080fd5b50620018598482850162001951565b60006020828403121562001b5057600080fd5b604051602081016001600160401b03828210818311171562001b765762001b76620013db565b81604052829350843591508082111562001b8f57600080fd5b5062001b9e85828601620014e4565b8252505092915050565b60006020828403121562001bbb57600080fd5b81356001600160401b038082111562001bd357600080fd5b9083019060c0828603121562001be857600080fd5b62001bf26200148c565b82358281111562001c0257600080fd5b62001c1087828601620014e4565b82525060208301358281111562001c2657600080fd5b62001c3487828601620014e4565b60208301525060408301358281111562001c4d57600080fd5b62001c5b87828601620019e5565b60408301525060608301358281111562001c7457600080fd5b62001c828782860162001b3d565b60608301525060808301358281111562001c9b57600080fd5b62001ca987828601620014e4565b60808301525060a08301358281111562001cc257600080fd5b62001cd087828601620014e4565b60a08301525095945050505050565b60006020828403121562001cf257600080fd5b5051919050565b60006001820162001d1a57634e487b7160e01b600052601160045260246000fd5b5060010190565b60005b8381101562001d3e57818101518382015260200162001d24565b50506000910152565b6000815180845262001d6181602086016020860162001d21565b601f01601f19169290920160200192915050565b60a08152600062001d8a60a083018862001d47565b828103602084015262001d9e818862001d47565b6001600160a01b03871660408501528381036060850152905062001dc3818662001d47565b9050828103608084015262001dd9818562001d47565b98975050505050505050565b634e487b7160e01b600052603260045260246000fd5b6020808252825182820181905260009190848201906040850190845b8181101562001e3e5783516001600160a01b03168352928401929184019160010162001e17565b50909695505050505050565b6001600160a01b0383168152604060208201819052600090620009c59083018462001d47565b6000835162001e8481846020880162001d21565b83519083019062001e9a81836020880162001d21565b01949350505050565b60018060a01b0381511682526000602082015160406020850152620009c5604085018262001d47565b60608152600062001ee1606083018662001d47565b6020838203818501528186518084528284019150828160051b85010183890160005b8381101562001f3557601f1987840301855262001f2283835162001d47565b9486019492509085019060010162001f03565b50508681036040880152875180825284820195509250600583901b81018401915083880160005b8481101562001f8e57601f1983850301875262001f7b84835162001ea3565b9686019693509085019060010162001f5c565b50919a9950505050505050505050565b828152604060208201526000620009c5604083018462001ea3565b634e487b7160e01b600052602160045260246000fd5b60038110620012a157620012a162001fb9565b60008151808452602080850194506020840160005b838110156200205157815180516007811062002017576200201762001fb9565b885280840151848901526040808201516001600160a01b031690890152606090810151908801526080909601959082019060010162001ff7565b509495945050505050565b60008151808452602080850194506020840160005b83811015620020515781518051620020898162001fcf565b88528084015160ff908116858a015260409182015116908801526060909601959082019060010162002071565b6020808252825160608383015280516080840181905260009291820190839060a08601905b80831015620021165783518051620020f38162001fcf565b835285015160ff16858301529284019260019290920191604090910190620020db565b50838701519350601f1992508286820301604087015262002138818562001fe2565b935050506040850151818584030160608601526200215783826200205c565b9695505050505050565b8051602080830151919081101562002183576000198160200360031b1b821691505b50919050565b8381526000602060606020840152620021a6606084018662001d47565b83810360408501528451808252602080870192019060005b81811015620021dc57835183529284019291840191600101620021be565b509098975050505050505050565b600060018060a01b03808716835263ffffffff60e01b8651166020840152806020870151166040840152808551166060840152506020840151608083015260c060a083015282516101208060c08501526200224a6101e085018362001d47565b9150602085015160bf198584030160e086015262002269838262001d47565b9250506040850151610100818187015260608701518387015260808701519250620022a06101408701846001600160401b03169052565b60a08701516001600160a01b0390811661016088015260c0880151811661018088015260e08801516101a0880152908701519081166101c08701529150620019da905056fe60806040526040516103d43803806103d483398101604081905261002291610268565b61002c8282610033565b5050610352565b61003c82610092565b6040516001600160a01b038316907fbc7cd75a20ee27fd9adebab32041f755214dbc6bffa90cc0225b39da2e5c2d3b90600090a280511561008657610081828261010e565b505050565b61008e610185565b5050565b806001600160a01b03163b6000036100cd57604051634c9c8ce360e01b81526001600160a01b03821660048201526024015b60405180910390fd5b7f360894a13ba1a3210667c828492db98dca3e2076cc3735a920a3ca505d382bbc80546001600160a01b0319166001600160a01b0392909216919091179055565b6060600080846001600160a01b03168460405161012b9190610336565b600060405180830381855af49150503d8060008114610166576040519150601f19603f3d011682016040523d82523d6000602084013e61016b565b606091505b50909250905061017c8583836101a6565b95945050505050565b34156101a45760405163b398979f60e01b815260040160405180910390fd5b565b6060826101bb576101b682610205565b6101fe565b81511580156101d257506001600160a01b0384163b155b156101fb57604051639996b31560e01b81526001600160a01b03851660048201526024016100c4565b50805b9392505050565b8051156102155780518082602001fd5b604051630a12f52160e11b815260040160405180910390fd5b634e487b7160e01b600052604160045260246000fd5b60005b8381101561025f578181015183820152602001610247565b50506000910152565b6000806040838503121561027b57600080fd5b82516001600160a01b038116811461029257600080fd5b60208401519092506001600160401b03808211156102af57600080fd5b818501915085601f8301126102c357600080fd5b8151818111156102d5576102d561022e565b604051601f8201601f19908116603f011681019083821181831017156102fd576102fd61022e565b8160405282815288602084870101111561031657600080fd5b610327836020830160208801610244565b80955050505050509250929050565b60008251610348818460208701610244565b9190910192915050565b6074806103606000396000f3fe6080604052600a600c565b005b60186014601a565b6051565b565b6000604c7f360894a13ba1a3210667c828492db98dca3e2076cc3735a920a3ca505d382bbc546001600160a01b031690565b905090565b3660008037600080366000845af43d6000803e808015606f573d6000f35b3d6000fd60806040523480156200001157600080fd5b506040516200148938038062001489833981016040819052620000349162000c04565b6200003e62000160565b620000a58380517f9c16cba5b9f2fcbd952b38bec34079e93cbe107475c15fc20705f4e704198a0080546020909301516001600160a01b03166001600160a01b031960e09390931c600160a01b02929092166001600160c01b031990931692909217179055565b81517fd2f24d4f172e4e84e48e7c4125b6e904c29e5eba33ad4938fee51dd5dbd4b60080546001600160a01b0319166001600160a01b0390921691909117905560208201517fd2f24d4f172e4e84e48e7c4125b6e904c29e5eba33ad4938fee51dd5dbd4b60155805160208201516200011f919062000174565b62000135818460200151620001cb60201b60201c565b6200014284600162000370565b6200014c62000396565b620001566200046b565b5050505062000ee9565b620001726301ffc9a760e01b620004c0565b565b600080516020620014098339815191527f6569bde4a160c636ea8b8d11acb83a60d7fec0b8f2e09389306cba0e1340df02620001b1848262000d6a565b5060038101620001c2838262000d6a565b50600090555050565b6000805160206200142983398151915280546001600160a01b038381166001600160a01b0319928316179092556101008401517fc21004fcc619240a31f006438274d15cd813308303284436eef6055f0fdcb608805491909316908216179091557fc21004fcc619240a31f006438274d15cd813308303284436eef6055f0fdcb604805490911673eeeeeeeeeeeeeeeeeeeeeeeeeeeeeeeeeeeeeeee17905560608201517fc21004fcc619240a31f006438274d15cd813308303284436eef6055f0fdcb6035560e08201517fc21004fcc619240a31f006438274d15cd813308303284436eef6055f0fdcb607819055600080516020620014698339815191529015620002e15760e0830151620002e1906200059b565b6040830151156200036b576040830151620002fc9062000649565b600881015460408085015190516391b7f5ed60e01b81526001600160a01b03909216916391b7f5ed91620003369160040190815260200190565b600060405180830381600087803b1580156200035157600080fd5b505af115801562000366573d6000803e3d6000fd5b505050505b505050565b62000392828260405180602001604052806000815250620006f460201b60201c565b5050565b60007f9075c515a635ba70c9696f31149324218d75cf00afe836c482e6473f38b19e00905060006000805160206200146983398151915260060154604051628956cd60e71b81526c29b830b1b2a7b832b930ba37b960991b60048201526001600160a01b03909116906344ab668090602401602060405180830381865afa15801562000426573d6000803e3d6000fd5b505050506040513d601f19601f820116820180604052508101906200044c919062000e36565b82546001600160a01b0319166001600160a01b03919091161790915550565b6200047d6380ac58cd60e01b620004c0565b6200048f635b5e139f60e01b620004c0565b620004a1638c65f84d60e01b620004c0565b620004b36307f5828d60e41b620004c0565b620001726322fa1fe560e21b5b6001600160e01b0319811660009081527f81088bbc801e045ea3e7620779ab349988f58afbdfba10dff983df3f33522b00602052604090205460ff166200054a576001600160e01b0319811660009081527f81088bbc801e045ea3e7620779ab349988f58afbdfba10dff983df3f33522b0060205260409020805460ff1916600117905562000563565b604051637967f77d60e11b815260040160405180910390fd5b6040516001600160e01b03198216907f78f84e5b1c5c05be2b5ad3800781dd404d6d6c6302bc755c0fe20f58a33a7f2290600090a250565b600080516020620014298339815191525460408051632cbb9d1360e01b8152905160008051602062001469833981519152926001600160a01b031691632cbb9d139160048083019260209291908290030181865afa15801562000602573d6000803e3d6000fd5b505050506040513d601f19601f8201168201806040525081019062000628919062000e5b565b821115620003925760405163c3983b9160e01b815260040160405180910390fd5b60006200066c60008051602062001429833981519152546001600160a01b031690565b6001600160a01b0316631b159e2e6040518163ffffffff1660e01b8152600401602060405180830381865afa158015620006aa573d6000803e3d6000fd5b505050506040513d601f19601f82011682018060405250810190620006d0919062000e5b565b9050808210156200039257604051631a23d64760e11b815260040160405180910390fd5b62000700838362000786565b6001600160a01b0383163b156200036b5760008051602062001409833981519152548281035b60018101906200073c90600090879086620008c0565b6200075a576040516368d2bf6b60e11b815260040160405180910390fd5b8181106200072657816000805160206200140983398151915254146200077f57600080fd5b5050505050565b60008051602062001409833981519152546000829003620007ba5760405163b562e8dd60e01b815260040160405180910390fd5b6001600160a01b03831660008181527f6569bde4a160c636ea8b8d11acb83a60d7fec0b8f2e09389306cba0e1340df056020908152604080832080546801000000000000000188020190558483527f6569bde4a160c636ea8b8d11acb83a60d7fec0b8f2e09389306cba0e1340df0490915281206001851460e11b4260a01b17831790558284019083908390600080516020620014498339815191528180a4600183015b81811462000887578083600060008051602062001449833981519152600080a46001016200085e565b5081600003620008a957604051622e076360e81b815260040160405180910390fd5b600080516020620014098339815191525550505050565b604051630a85bd0160e11b81526000906001600160a01b0385169063150b7a0290620008f790339089908890889060040162000e75565b6020604051808303816000875af192505050801562000935575060408051601f3d908101601f19168201909252620009329181019062000ecb565b60015b62000997573d80801562000966576040519150601f19603f3d011682016040523d82523d6000602084013e6200096b565b606091505b5080516000036200098f576040516368d2bf6b60e11b815260040160405180910390fd5b805181602001fd5b6001600160e01b031916630a85bd0160e11b149050949350505050565b80516001600160a01b0381168114620009cc57600080fd5b919050565b634e487b7160e01b600052604160045260246000fd5b60405161012081016001600160401b038111828210171562000a0d5762000a0d620009d1565b60405290565b604080519081016001600160401b038111828210171562000a0d5762000a0d620009d1565b80516001600160e01b031981168114620009cc57600080fd5b60005b8381101562000a6e57818101518382015260200162000a54565b50506000910152565b600082601f83011262000a8957600080fd5b81516001600160401b038082111562000aa65762000aa6620009d1565b604051601f8301601f19908116603f0116810190828211818310171562000ad15762000ad1620009d1565b8160405283815286602085880101111562000aeb57600080fd5b62000afe84602083016020890162000a51565b9695505050505050565b80516001600160401b0381168114620009cc57600080fd5b6000610120828403121562000b3457600080fd5b62000b3e620009e7565b82519091506001600160401b038082111562000b5957600080fd5b62000b678583860162000a77565b8352602084015191508082111562000b7e57600080fd5b5062000b8d8482850162000a77565b602083015250604082015160408201526060820151606082015262000bb56080830162000b08565b608082015262000bc860a08301620009b4565b60a082015262000bdb60c08301620009b4565b60c082015260e082015160e082015261010062000bfa818401620009b4565b9082015292915050565b60008060008084860360c081121562000c1c57600080fd5b62000c2786620009b4565b94506040601f198201121562000c3c57600080fd5b62000c4662000a13565b62000c546020880162000a38565b815262000c6460408801620009b4565b602082015293506040605f198201121562000c7e57600080fd5b5062000c8962000a13565b62000c9760608701620009b4565b81526080860151602082015260a08601519092506001600160401b0381111562000cc057600080fd5b62000cce8782880162000b20565b91505092959194509250565b600181811c9082168062000cef57607f821691505b60208210810362000d1057634e487b7160e01b600052602260045260246000fd5b50919050565b601f8211156200036b576000816000526020600020601f850160051c8101602086101562000d415750805b601f850160051c820191505b8181101562000d625782815560010162000d4d565b505050505050565b81516001600160401b0381111562000d865762000d86620009d1565b62000d9e8162000d97845462000cda565b8462000d16565b602080601f83116001811462000dd6576000841562000dbd5750858301515b600019600386901b1c1916600185901b17855562000d62565b600085815260208120601f198616915b8281101562000e075788860151825594840194600190910190840162000de6565b508582101562000e265787850151600019600388901b60f8161c191681555b5050505050600190811b01905550565b60006020828403121562000e4957600080fd5b62000e5482620009b4565b9392505050565b60006020828403121562000e6e57600080fd5b5051919050565b600060018060a01b03808716835280861660208401525083604083015260806060830152825180608084015262000eb48160a085016020870162000a51565b601f01601f19169190910160a00195945050505050565b60006020828403121562000ede57600080fd5b62000e548262000a38565b6105108062000ef96000396000f3fe6080604052600436106100225760003560e01c8063ac9650d81461003357610029565b3661002957005b610031610069565b005b34801561003f57600080fd5b5061005361004e366004610327565b6100c4565b60405161006091906103c0565b60405180910390f35b60006100736101e1565b9050806001600160a01b03163b6000036100a0576040516321f27f0d60e21b815260040160405180910390fd5b3660008037600080366000845af43d6000803e8080156100bf573d6000f35b3d6000fd5b6060818067ffffffffffffffff8111156100e0576100e061043a565b60405190808252806020026020018201604052801561011357816020015b60608152602001906001900390816100fe5790505b50915060005b818110156101d9576000803087878581811061013757610137610450565b90506020028101906101499190610466565b6040516101579291906104b4565b600060405180830381855af49150503d8060008114610192576040519150601f19603f3d011682016040523d82523d6000602084013e610197565b606091505b509150915081156101c557808584815181106101b5576101b5610450565b60200260200101819052506101cf565b3d6000803e3d6000fd5b5050600101610119565b505092915050565b7f9c16cba5b9f2fcbd952b38bec34079e93cbe107475c15fc20705f4e704198a0054600090600160a01b900460e01b81806102437f9c16cba5b9f2fcbd952b38bec34079e93cbe107475c15fc20705f4e704198a00546001600160a01b031690565b6040516001600160e01b03196000351660248201526001600160a01b039190911690849060440160408051601f198184030181529181526020820180516001600160e01b03166001600160e01b03199094169390931790925290516102a891906104c4565b600060405180830381855afa9150503d80600081146102e3576040519150601f19603f3d011682016040523d82523d6000602084013e6102e8565b606091505b50915091508161030b5760405163391aa44560e01b815260040160405180910390fd5b8080602001905181019061031f91906104e0565b935050505090565b6000806020838503121561033a57600080fd5b823567ffffffffffffffff8082111561035257600080fd5b818501915085601f83011261036657600080fd5b81358181111561037557600080fd5b8660208260051b850101111561038a57600080fd5b60209290920196919550909350505050565b60005b838110156103b757818101518382015260200161039f565b50506000910152565b6000602080830181845280855180835260408601915060408160051b870101925083870160005b8281101561042d57878503603f190184528151805180875261040e818989018a850161039c565b601f01601f1916959095018601945092850192908501906001016103e7565b5092979650505050505050565b634e487b7160e01b600052604160045260246000fd5b634e487b7160e01b600052603260045260246000fd5b6000808335601e1984360301811261047d57600080fd5b83018035915067ffffffffffffffff82111561049857600080fd5b6020019150368190038213156104ad57600080fd5b9250929050565b8183823760009101908152919050565b600082516104d681846020870161039c565b9190910192915050565b6000602082840312156104f257600080fd5b81516001600160a01b038116811461050957600080fd5b9392505050566569bde4a160c636ea8b8d11acb83a60d7fec0b8f2e09389306cba0e1340df00c21004fcc619240a31f006438274d15cd813308303284436eef6055f0fdcb606ddf252ad1be2c89b69c2b068fc378daa952ba7f163c4a11628f55a4df523b3efc21004fcc619240a31f006438274d15cd813308303284436eef6055f0fdcb6009e34afa7b4d27d347d25d9d9dab4f1a106fa081382e6c4243e834d093e787d00","linkReferences":{}},"methodIdentifiers":{"__Architect_init(address,address,address,address)":"1a424b66","createSpace((string,string,((string,string,uint256,uint256,uint64,address,address,uint256,address),(bool,address[],((uint8,uint8)[],(uint8,uint256,address,uint256)[],(uint8,uint8,uint8)[])),string[]),(string),string,string))":"ef009225","getSpaceArchitectImplementations()":"545efb2d","getSpaceByTokenId(uint256)":"673f0dd5","getTokenIdBySpace(address)":"c0bc6796","setSpaceArchitectImplementations(address,address,address)":"8bfc94b9"},"id":288}