{"abi":[{"type":"constructor","inputs":[{"name":"approvedOperators","type":"address[]","internalType":"address[]"}],"stateMutability":"nonpayable"},{"type":"function","name":"__OperatorRegistry_init","inputs":[{"name":"initialOperators","type":"address[]","internalType":"address[]"}],"outputs":[],"stateMutability":"nonpayable"},{"type":"function","name":"__RiverConfig_init","inputs":[{"name":"configManagers","type":"address[]","internalType":"address[]"}],"outputs":[],"stateMutability":"nonpayable"},{"type":"function","name":"allocateStream","inputs":[{"name":"streamId","type":"bytes32","internalType":"bytes32"},{"name":"nodes","type":"address[]","internalType":"address[]"},{"name":"genesisMiniblockHash","type":"bytes32","internalType":"bytes32"},{"name":"genesisMiniblock","type":"bytes","internalType":"bytes"}],"outputs":[],"stateMutability":"nonpayable"},{"type":"function","name":"allocateStream","inputs":[{"name":"streamId","type":"bytes32","internalType":"bytes32"},{"name":"nodes","type":"address[]","internalType":"address[]"},{"name":"genesisMiniblockHash","type":"bytes32","internalType":"bytes32"}],"outputs":[],"stateMutability":"nonpayable"},{"type":"function","name":"approveConfigurationManager","inputs":[{"name":"manager","type":"address","internalType":"address"}],"outputs":[],"stateMutability":"nonpayable"},{"type":"function","name":"approveOperator","inputs":[{"name":"operator","type":"address","internalType":"address"}],"outputs":[],"stateMutability":"nonpayable"},{"type":"function","name":"configurationExists","inputs":[{"name":"key","type":"bytes32","internalType":"bytes32"}],"outputs":[{"name":"","type":"bool","internalType":"bool"}],"stateMutability":"view"},{"type":"function","name":"deleteConfiguration","inputs":[{"name":"key","type":"bytes32","internalType":"bytes32"}],"outputs":[],"stateMutability":"nonpayable"},{"type":"function","name":"deleteConfigurationOnBlock","inputs":[{"name":"key","type":"bytes32","internalType":"bytes32"},{"name":"blockNumber","type":"uint64","internalType":"uint64"}],"outputs":[],"stateMutability":"nonpayable"},{"type":"function","name":"getAllConfiguration","inputs":[],"outputs":[{"name":"","type":"tuple[]","internalType":"struct Setting[]","components":[{"name":"key","type":"bytes32","internalType":"bytes32"},{"name":"blockNumber","type":"uint64","internalType":"uint64"},{"name":"value","type":"bytes","internalType":"bytes"}]}],"stateMutability":"view"},{"type":"function","name":"getAllNodeAddresses","inputs":[],"outputs":[{"name":"","type":"address[]","internalType":"address[]"}],"stateMutability":"view"},{"type":"function","name":"getAllNodes","inputs":[],"outputs":[{"name":"","type":"tuple[]","internalType":"struct Node[]","components":[{"name":"status","type":"uint8","internalType":"enum NodeStatus"},{"name":"url","type":"string","internalType":"string"},{"name":"nodeAddress","type":"address","internalType":"address"},{"name":"operator","type":"address","internalType":"address"}]}],"stateMutability":"view"},{"type":"function","name":"getAllOperators","inputs":[],"outputs":[{"name":"","type":"address[]","internalType":"address[]"}],"stateMutability":"view"},{"type":"function","name":"getConfiguration","inputs":[{"name":"key","type":"bytes32","internalType":"bytes32"}],"outputs":[{"name":"","type":"tuple[]","internalType":"struct Setting[]","components":[{"name":"key","type":"bytes32","internalType":"bytes32"},{"name":"blockNumber","type":"uint64","internalType":"uint64"},{"name":"value","type":"bytes","internalType":"bytes"}]}],"stateMutability":"view"},{"type":"function","name":"getNode","inputs":[{"name":"nodeAddress","type":"address","internalType":"address"}],"outputs":[{"name":"","type":"tuple","internalType":"struct Node","components":[{"name":"status","type":"uint8","internalType":"enum NodeStatus"},{"name":"url","type":"string","internalType":"string"},{"name":"nodeAddress","type":"address","internalType":"address"},{"name":"operator","type":"address","internalType":"address"}]}],"stateMutability":"view"},{"type":"function","name":"getNodeCount","inputs":[],"outputs":[{"name":"","type":"uint256","internalType":"uint256"}],"stateMutability":"view"},{"type":"function","name":"getPaginatedStreams","inputs":[{"name":"start","type":"uint256","internalType":"uint256"},{"name":"stop","type":"uint256","internalType":"uint256"}],"outputs":[{"name":"","type":"tuple[]","internalType":"struct StreamWithId[]","components":[{"name":"id","type":"bytes32","internalType":"bytes32"},{"name":"stream","type":"tuple","internalType":"struct Stream","components":[{"name":"lastMiniblockHash","type":"bytes32","internalType":"bytes32"},{"name":"lastMiniblockNum","type":"uint64","internalType":"uint64"},{"name":"reserved0","type":"uint64","internalType":"uint64"},{"name":"flags","type":"uint64","internalType":"uint64"},{"name":"nodes","type":"address[]","internalType":"address[]"}]}]},{"name":"","type":"bool","internalType":"bool"}],"stateMutability":"view"},{"type":"function","name":"getStream","inputs":[{"name":"streamId","type":"bytes32","internalType":"bytes32"}],"outputs":[{"name":"","type":"tuple","internalType":"struct Stream","components":[{"name":"lastMiniblockHash","type":"bytes32","internalType":"bytes32"},{"name":"lastMiniblockNum","type":"uint64","internalType":"uint64"},{"name":"reserved0","type":"uint64","internalType":"uint64"},{"name":"flags","type":"uint64","internalType":"uint64"},{"name":"nodes","type":"address[]","internalType":"address[]"}]}],"stateMutability":"view"},{"type":"function","name":"getStreamCount","inputs":[],"outputs":[{"name":"","type":"uint256","internalType":"uint256"}],"stateMutability":"view"},{"type":"function","name":"getStreamCountOnNode","inputs":[{"name":"nodeAddress","type":"address","internalType":"address"}],"outputs":[{"name":"","type":"uint256","internalType":"uint256"}],"stateMutability":"view"},{"type":"function","name":"getStreamWithGenesis","inputs":[{"name":"streamId","type":"bytes32","internalType":"bytes32"}],"outputs":[{"name":"","type":"tuple","internalType":"struct Stream","components":[{"name":"lastMiniblockHash","type":"bytes32","internalType":"bytes32"},{"name":"lastMiniblockNum","type":"uint64","internalType":"uint64"},{"name":"reserved0","type":"uint64","internalType":"uint64"},{"name":"flags","type":"uint64","internalType":"uint64"},{"name":"nodes","type":"address[]","internalType":"address[]"}]},{"name":"","type":"bytes32","internalType":"bytes32"},{"name":"","type":"bytes","internalType":"bytes"}],"stateMutability":"view"},{"type":"function","name":"getStreamWithGenesisHash","inputs":[{"name":"streamId","type":"bytes32","internalType":"bytes32"}],"outputs":[{"name":"","type":"tuple","internalType":"struct Stream","components":[{"name":"lastMiniblockHash","type":"bytes32","internalType":"bytes32"},{"name":"lastMiniblockNum","type":"uint64","internalType":"uint64"},{"name":"reserved0","type":"uint64","internalType":"uint64"},{"name":"flags","type":"uint64","internalType":"uint64"},{"name":"nodes","type":"address[]","internalType":"address[]"}]},{"name":"","type":"bytes32","internalType":"bytes32"}],"stateMutability":"view"},{"type":"function","name":"isConfigurationManager","inputs":[{"name":"manager","type":"address","internalType":"address"}],"outputs":[{"name":"","type":"bool","internalType":"bool"}],"stateMutability":"view"},{"type":"function","name":"isNode","inputs":[{"name":"nodeAddress","type":"address","internalType":"address"}],"outputs":[{"name":"","type":"bool","internalType":"bool"}],"stateMutability":"view"},{"type":"function","name":"isOperator","inputs":[{"name":"operator","type":"address","internalType":"address"}],"outputs":[{"name":"","type":"bool","internalType":"bool"}],"stateMutability":"view"},{"type":"function","name":"isStream","inputs":[{"name":"streamId","type":"bytes32","internalType":"bytes32"}],"outputs":[{"name":"","type":"bool","internalType":"bool"}],"stateMutability":"view"},{"type":"function","name":"placeStreamOnNode","inputs":[{"name":"streamId","type":"bytes32","internalType":"bytes32"},{"name":"nodeAddress","type":"address","internalType":"address"}],"outputs":[],"stateMutability":"nonpayable"},{"type":"function","name":"registerNode","inputs":[{"name":"nodeAddress","type":"address","internalType":"address"},{"name":"url","type":"string","internalType":"string"},{"name":"status","type":"uint8","internalType":"enum NodeStatus"}],"outputs":[],"stateMutability":"nonpayable"},{"type":"function","name":"removeConfigurationManager","inputs":[{"name":"manager","type":"address","internalType":"address"}],"outputs":[],"stateMutability":"nonpayable"},{"type":"function","name":"removeNode","inputs":[{"name":"nodeAddress","type":"address","internalType":"address"}],"outputs":[],"stateMutability":"nonpayable"},{"type":"function","name":"removeOperator","inputs":[{"name":"operator","type":"address","internalType":"address"}],"outputs":[],"stateMutability":"nonpayable"},{"type":"function","name":"removeStreamFromNode","inputs":[{"name":"streamId","type":"bytes32","internalType":"bytes32"},{"name":"nodeAddress","type":"address","internalType":"address"}],"outputs":[],"stateMutability":"nonpayable"},{"type":"function","name":"setConfiguration","inputs":[{"name":"key","type":"bytes32","internalType":"bytes32"},{"name":"blockNumber","type":"uint64","internalType":"uint64"},{"name":"value","type":"bytes","internalType":"bytes"}],"outputs":[],"stateMutability":"nonpayable"},{"type":"function","name":"setStreamLastMiniblock","inputs":[{"name":"streamId","type":"bytes32","internalType":"bytes32"},{"name":"","type":"bytes32","internalType":"bytes32"},{"name":"lastMiniblockHash","type":"bytes32","internalType":"bytes32"},{"name":"lastMiniblockNum","type":"uint64","internalType":"uint64"},{"name":"isSealed","type":"bool","internalType":"bool"}],"outputs":[],"stateMutability":"nonpayable"},{"type":"function","name":"setStreamLastMiniblockBatch","inputs":[{"name":"miniblocks","type":"tuple[]","internalType":"struct SetMiniblock[]","components":[{"name":"streamId","type":"bytes32","internalType":"bytes32"},{"name":"prevMiniBlockHash","type":"bytes32","internalType":"bytes32"},{"name":"lastMiniblockHash","type":"bytes32","internalType":"bytes32"},{"name":"lastMiniblockNum","type":"uint64","internalType":"uint64"},{"name":"isSealed","type":"bool","internalType":"bool"}]}],"outputs":[],"stateMutability":"nonpayable"},{"type":"function","name":"updateNodeStatus","inputs":[{"name":"nodeAddress","type":"address","internalType":"address"},{"name":"status","type":"uint8","internalType":"enum NodeStatus"}],"outputs":[],"stateMutability":"nonpayable"},{"type":"function","name":"updateNodeUrl","inputs":[{"name":"nodeAddress","type":"address","internalType":"address"},{"name":"url","type":"string","internalType":"string"}],"outputs":[],"stateMutability":"nonpayable"},{"type":"event","name":"ConfigurationChanged","inputs":[{"name":"key","type":"bytes32","indexed":false,"internalType":"bytes32"},{"name":"block","type":"uint64","indexed":false,"internalType":"uint64"},{"name":"value","type":"bytes","indexed":false,"internalType":"bytes"},{"name":"deleted","type":"bool","indexed":false,"internalType":"bool"}],"anonymous":false},{"type":"event","name":"ConfigurationManagerAdded","inputs":[{"name":"manager","type":"address","indexed":true,"internalType":"address"}],"anonymous":false},{"type":"event","name":"ConfigurationManagerRemoved","inputs":[{"name":"manager","type":"address","indexed":true,"internalType":"address"}],"anonymous":false},{"type":"event","name":"Initialized","inputs":[{"name":"version","type":"uint32","indexed":false,"internalType":"uint32"}],"anonymous":false},{"type":"event","name":"InterfaceAdded","inputs":[{"name":"interfaceId","type":"bytes4","indexed":true,"internalType":"bytes4"}],"anonymous":false},{"type":"event","name":"InterfaceRemoved","inputs":[{"name":"interfaceId","type":"bytes4","indexed":true,"internalType":"bytes4"}],"anonymous":false},{"type":"event","name":"NodeAdded","inputs":[{"name":"nodeAddress","type":"address","indexed":true,"internalType":"address"},{"name":"operator","type":"address","indexed":true,"internalType":"address"},{"name":"url","type":"string","indexed":false,"internalType":"string"},{"name":"status","type":"uint8","indexed":false,"internalType":"enum NodeStatus"}],"anonymous":false},{"type":"event","name":"NodeRemoved","inputs":[{"name":"nodeAddress","type":"address","indexed":true,"internalType":"address"}],"anonymous":false},{"type":"event","name":"NodeStatusUpdated","inputs":[{"name":"nodeAddress","type":"address","indexed":true,"internalType":"address"},{"name":"status","type":"uint8","indexed":false,"internalType":"enum NodeStatus"}],"anonymous":false},{"type":"event","name":"NodeUrlUpdated","inputs":[{"name":"nodeAddress","type":"address","indexed":true,"internalType":"address"},{"name":"url","type":"string","indexed":false,"internalType":"string"}],"anonymous":false},{"type":"event","name":"OperatorAdded","inputs":[{"name":"operatorAddress","type":"address","indexed":true,"internalType":"address"}],"anonymous":false},{"type":"event","name":"OperatorRemoved","inputs":[{"name":"operatorAddress","type":"address","indexed":true,"internalType":"address"}],"anonymous":false},{"type":"event","name":"OwnershipTransferred","inputs":[{"name":"previousOwner","type":"address","indexed":true,"internalType":"address"},{"name":"newOwner","type":"address","indexed":true,"internalType":"address"}],"anonymous":false},{"type":"event","name":"StreamAllocated","inputs":[{"name":"streamId","type":"bytes32","indexed":false,"internalType":"bytes32"},{"name":"nodes","type":"address[]","indexed":false,"internalType":"address[]"},{"name":"genesisMiniblockHash","type":"bytes32","indexed":false,"internalType":"bytes32"},{"name":"genesisMiniblock","type":"bytes","indexed":false,"internalType":"bytes"}],"anonymous":false},{"type":"event","name":"StreamAllocated","inputs":[{"name":"streamId","type":"bytes32","indexed":false,"internalType":"bytes32"},{"name":"nodes","type":"address[]","indexed":false,"internalType":"address[]"},{"name":"genesisMiniblockHash","type":"bytes32","indexed":false,"internalType":"bytes32"}],"anonymous":false},{"type":"event","name":"StreamLastMiniblockUpdateFailed","inputs":[{"name":"streamId","type":"bytes32","indexed":false,"internalType":"bytes32"},{"name":"lastMiniblockHash","type":"bytes32","indexed":false,"internalType":"bytes32"},{"name":"lastMiniblockNum","type":"uint64","indexed":false,"internalType":"uint64"},{"name":"reason","type":"string","indexed":false,"internalType":"string"}],"anonymous":false},{"type":"event","name":"StreamLastMiniblockUpdated","inputs":[{"name":"streamId","type":"bytes32","indexed":false,"internalType":"bytes32"},{"name":"lastMiniblockHash","type":"bytes32","indexed":false,"internalType":"bytes32"},{"name":"lastMiniblockNum","type":"uint64","indexed":false,"internalType":"uint64"},{"name":"isSealed","type":"bool","indexed":false,"internalType":"bool"}],"anonymous":false},{"type":"event","name":"StreamPlacementUpdated","inputs":[{"name":"streamId","type":"bytes32","indexed":false,"internalType":"bytes32"},{"name":"nodeAddress","type":"address","indexed":false,"internalType":"address"},{"name":"isAdded","type":"bool","indexed":false,"internalType":"bool"}],"anonymous":false},{"type":"error","name":"Initializable_InInitializingState","inputs":[]},{"type":"error","name":"Initializable_NotInInitializingState","inputs":[]},{"type":"error","name":"Introspection_AlreadySupported","inputs":[]},{"type":"error","name":"Introspection_NotSupported","inputs":[]},{"type":"error","name":"Ownable__NotOwner","inputs":[{"name":"account","type":"address","internalType":"address"}]},{"type":"error","name":"Ownable__ZeroAddress","inputs":[]}],"bytecode":{"object":"0x60806040523480156200001157600080fd5b5060405162004eec38038062004eec8339810160408190526200003491620004a6565b6200003e620000c1565b620000493362000169565b60005b8151811015620000b957620000838282815181106200006f576200006f62000578565b60200260200101516200023760201b60201c565b620000b08282815181106200009c576200009c62000578565b60200260200101516200031c60201b60201c565b6001016200004c565b5050620005df565b7f59b501c3653afc186af7d48dda36cf6732bd21629a6295693664240a6ef520008054640100000000900460ff16156200010e576040516366008a2d60e01b815260040160405180910390fd5b805463ffffffff90811610156200016657805463ffffffff191663ffffffff90811782556040519081527fe9c9b456cb2994b80aeef036cf59d26e9617df80f816a6ee5a5b4166e07e2f5c9060200160405180910390a15b50565b60006200019d7f4675fa8241f86f37157864d3d49b85ad4b164352c516da28e1678a90470ae300546001600160a01b031690565b90506001600160a01b038216620001c757604051634e3ef82560e01b815260040160405180910390fd5b817f4675fa8241f86f37157864d3d49b85ad4b164352c516da28e1678a90470ae30080546001600160a01b0319166001600160a01b03928316179055604051838216918316907f8be0079c531659141344cd1fd0a4f28419497f9722a3daafe3b4186f6b6457e090600090a35050565b6001600160a01b038116620002865760408051808201825260078152664241445f41524760c81b6020820152905162461bcd60e51b81526200027d91906004016200058e565b60405180910390fd5b62000293600882620003e9565b15620002d757604080518082018252600e81526d414c52454144595f45584953545360901b6020820152905162461bcd60e51b81526200027d91906004016200058e565b620002e460088262000410565b506040516001600160a01b038216907fac6fa858e9350a46cec16539926e0fde25b7629f84b5a72bffaae4df888ae86d90600090a250565b6001600160a01b038116620003625760408051808201825260078152664241445f41524760c81b6020820152905162461bcd60e51b81526200027d91906004016200058e565b6200036f600d8262000410565b620003b257604080518082018252600e81526d414c52454144595f45584953545360901b6020820152905162461bcd60e51b81526200027d91906004016200058e565b6040516001600160a01b038216907f7afd798379ae2d2e5035438544cea2b60eb1dde6a8128e6d447fd2a25f8825a290600090a250565b6001600160a01b038116600090815260018301602052604081205415155b90505b92915050565b600062000407836001600160a01b03841660008181526001830160205260408120546200046a575081546001818101845560008481526020808220909301849055845484825282860190935260409020919091556200040a565b5060006200040a565b634e487b7160e01b600052604160045260246000fd5b80516001600160a01b0381168114620004a157600080fd5b919050565b60006020808385031215620004ba57600080fd5b82516001600160401b0380821115620004d257600080fd5b818501915085601f830112620004e757600080fd5b815181811115620004fc57620004fc62000473565b8060051b604051601f19603f8301168101818110858211171562000524576200052462000473565b6040529182528482019250838101850191888311156200054357600080fd5b938501935b828510156200056c576200055c8562000489565b8452938501939285019262000548565b98975050505050505050565b634e487b7160e01b600052603260045260246000fd5b60006020808352835180602085015260005b81811015620005be57858101830151858201604001528201620005a0565b506000604082860101526040601f19601f8301168501019250505092915050565b6148fd80620005ef6000396000f3fe608060405234801561001057600080fd5b50600436106102275760003560e01c8063a09449a611610130578063c8fe3a01116100b8578063d911c6321161007c578063d911c63214610504578063ee885b121461050c578063eecc66f41461051f578063fc207c0114610532578063ff3a14ab1461054557600080fd5b8063c8fe3a0114610495578063ca78c41a146104aa578063d0c27c4f146104cb578063d4bd44a0146104de578063d7a3158a146104f157600080fd5b8063b7f227ee116100ff578063b7f227ee14610441578063ba428b1a14610454578063c0f2208414610467578063c179b85f1461046f578063c87d13241461048257600080fd5b8063a09449a6146103f3578063a1174e7d14610406578063ac8a584a1461041b578063b2b99ec91461042e57600080fd5b80636b883c39116101b35780638988ac97116101825780638988ac97146103795780638f94936c1461038c5780639283ae3a146103ad5780639d209048146103c05780639ee86d38146103e057600080fd5b80636b883c391461032d5780636d70f7ae146103405780637e4465e714610353578063813049ec1461036657600080fd5b8063242cae9f116101fa578063242cae9f146102bc57806331374511146102cf57806339bf397e146102e25780633c2544d1146102f8578063581f8b9b1461031a57600080fd5b8063017501521461022c578063035759e114610272578063081814db146102875780631290abe81461029c575b600080fd5b61025d61023a366004613a7b565b6001600160a01b0390811660009081526007602052604090206002015416151590565b60405190151581526020015b60405180910390f35b610285610280366004613a96565b610558565b005b61028f6106cc565b6040516102699190613aff565b6102af6102aa366004613a96565b610937565b6040516102699190613c1a565b6102856102ca366004613a7b565b610a38565b6102856102dd366004613c2d565b610a7f565b6102ea610b10565b604051908152602001610269565b61030b610306366004613a96565b610b21565b60405161026993929190613ca1565b610285610328366004613ce5565b610cd0565b61028561033b366004613e3b565b610e70565b61025d61034e366004613a7b565b6110ce565b610285610361366004613ee5565b6110e1565b610285610374366004613a7b565b6112d9565b610285610387366004613f32565b6113d4565b61039f61039a366004613a96565b6115fb565b604051610269929190613f81565b61028f6103bb366004613a96565b61170d565b6103d36103ce366004613a7b565b611870565b604051610269919061402f565b6102856103ee366004614042565b6119f1565b61028561040136600461407c565b611ba3565b61040e611e72565b6040516102699190614102565b610285610429366004613a7b565b612046565b61028561043c366004613a7b565b6121a9565b61028561044f366004614166565b612372565b610285610462366004613c2d565b6125c1565b6102ea61264d565b61028561047d366004613a7b565b612658565b6102ea610490366004613a7b565b61269c565b61049d61274a565b60405161026991906141ce565b6104bd6104b83660046141e1565b612756565b604051610269929190614203565b61025d6104d9366004613a96565b612946565b61025d6104ec366004613a7b565b612952565b6102856104ff366004614292565b61295f565b61049d612b6b565b61028561051a366004614042565b612b77565b61028561052d3660046142e2565b612dc0565b61025d610540366004613a96565b612f8b565b61028561055336600461433f565b612f98565b33610564600d82613343565b6105a75760408051808201825260088152670848288be82aaa8960c31b6020820152905162461bcd60e51b815261059e91906004016143a1565b60405180910390fd5b816105b3600a82613368565b6105ee5760408051808201825260098152681393d517d193d5539160ba1b6020820152905162461bcd60e51b815261059e91906004016143a1565b6000838152600c602052604090205415610661576000838152600c6020526040902080548061061f5761061f6143b4565b60008281526020812060036000199093019283020181815560018101805467ffffffffffffffff19169055906106586002830182613905565b505090556105ee565b6000838152600c602052604081206106789161393f565b610683600a84613380565b50604080518481526001600160401b03602082015260808183018190526000908201526001606082015290516000805160206148dd8339815191529181900360a00190a1505050565b60606000806106db600a61338c565b905060005b8181101561071c5760006106f5600a83613396565b6000818152600c602052604090205490915061071190856143e0565b9350506001016106e0565b506000826001600160401b0381111561073757610737613d18565b60405190808252806020026020018201604052801561078457816020015b604080516060808201835260008083526020830152918101919091528152602001906001900390816107555790505b5090506000610793600a61338c565b90506000805b8281101561092c5760006107ae600a83613396565b6000818152600c6020908152604080832080548251818502810185019093528083529495509293909291849084015b828210156108c157600084815260209081902060408051606081018252600386029092018054835260018101546001600160401b03169383019390935260028301805492939291840191610830906143f3565b80601f016020809104026020016040519081016040528092919081815260200182805461085c906143f3565b80156108a95780601f1061087e576101008083540402835291602001916108a9565b820191906000526020600020905b81548152906001019060200180831161088c57829003601f168201915b505050505081525050815260200190600101906107dd565b50505050905060005b815181101561091e578181815181106108e5576108e5614427565b60200260200101518786806108f99061443d565b97508151811061090b5761090b614427565b60209081029190910101526001016108ca565b505050806001019050610799565b509195945050505050565b61093f613960565b61094a600083613368565b6109855760408051808201825260098152681393d517d193d5539160ba1b6020820152905162461bcd60e51b815261059e91906004016143a1565b600082815260026020818152604092839020835160a0810185528154815260018201546001600160401b0380821683860152600160401b8204811683880152600160801b9091041660608201529281018054855181850281018501909652808652939491936080860193830182828015610a2857602002820191906000526020600020905b81546001600160a01b03168152600190910190602001808311610a0a575b5050505050815250509050919050565b610a406133a2565b6001600160a01b0316336001600160a01b031614610a73576040516365f4906560e01b815233600482015260240161059e565b610a7c816133d0565b50565b7f59b501c3653afc186af7d48dda36cf6732bd21629a6295693664240a6ef5200054640100000000900460ff16610ac957604051630ef4733760e31b815260040160405180910390fd5b60005b81811015610b0b57610b03838383818110610ae957610ae9614427565b9050602002016020810190610afe9190613a7b565b6134a2565b600101610acc565b505050565b6000610b1c600561338c565b905090565b610b29613960565b60006060610b378285613368565b610b725760408051808201825260098152681393d517d193d5539160ba1b6020820152905162461bcd60e51b815261059e91906004016143a1565b600084815260026020818152604080842060048352818520546003845294829020825160a0810184528254815260018301546001600160401b0380821683880152600160401b8204811683870152600160801b90910416606082015294820180548451818702810187019095528085529296959194919387936080860193919291830182828015610c2c57602002820191906000526020600020905b81546001600160a01b03168152600190910190602001808311610c0e575b5050505050815250509250808054610c43906143f3565b80601f0160208091040260200160405190810160405280929190818152602001828054610c6f906143f3565b8015610cbc5780601f10610c9157610100808354040283529160200191610cbc565b820191906000526020600020905b815481529060010190602001808311610c9f57829003601f168201915b505050505090509250925092509193909250565b6001600160a01b03808316600090815260076020526040902060020154839116610d3057604080518082018252600e81526d1393d11157d393d517d193d5539160921b6020820152905162461bcd60e51b815261059e91906004016143a1565b33610d3c600882613343565b610d765760408051808201825260088152670848288be82aaa8960c31b6020820152905162461bcd60e51b815261059e91906004016143a1565b6001600160a01b0380851660009081526007602052604090206003015485913391168114610dd45760408051808201825260088152670848288be82aaa8960c31b6020820152905162461bcd60e51b815261059e91906004016143a1565b6001600160a01b03861660009081526007602052604090208054610dfb9060ff1687613567565b80548690829060ff19166001836005811115610e1957610e19613fa3565b021790555060028101546040516001600160a01b03909116907f20891cc7622c7951cbd8c70c61a5201eb45625b8c00e8f6c986cfca78f3dbfa090610e5f908990614456565b60405180910390a250505050505050565b336000818152600760205260409020600201546001600160a01b0316610ecc57604080518082018252600e81526d1393d11157d393d517d193d5539160921b6020820152905162461bcd60e51b815261059e91906004016143a1565b610ed7600086613368565b15610f1857604080518082018252600e81526d414c52454144595f45584953545360901b6020820152905162461bcd60e51b815261059e91906004016143a1565b835160005b81811015610f9d57610f55868281518110610f3a57610f3a614427565b6020026020010151600060050161334390919063ffffffff16565b610f9557604080518082018252600e81526d1393d11157d393d517d193d5539160921b6020820152905162461bcd60e51b815261059e91906004016143a1565b600101610f1d565b506040805160a081018252858152600060208201819052918101829052606081018290526080810187905290610fd390886136fa565b5060008781526002602081815260409283902084518155818501516001820180549587015160608801516001600160401b03908116600160801b0267ffffffffffffffff60801b19928216600160401b026001600160801b031990991691909416179690961795909516179093556080840151805185949361105a93908501920190613990565b505050600087815260036020526040902061107585826144c9565b5060008781526004602052604090819020869055517f55ef7efc60ef99743e54209752c9a8e047e013917ec91572db75875069dd65bb906110bd908990899089908990614582565b60405180910390a150505050505050565b60006110db600883613343565b92915050565b336110ed600882613343565b6111275760408051808201825260088152670848288be82aaa8960c31b6020820152905162461bcd60e51b815261059e91906004016143a1565b6001600160a01b0380841660009081526007602052604090206002015484911661118757604080518082018252600e81526d1393d11157d393d517d193d5539160921b6020820152905162461bcd60e51b815261059e91906004016143a1565b6001600160a01b03808516600090815260076020526040902060030154859133911681146111e55760408051808201825260088152670848288be82aaa8960c31b6020820152905162461bcd60e51b815261059e91906004016143a1565b6001600160a01b038616600090815260076020908152604091829020915161120f918891016145b3565b604051602081830303815290604052805190602001208160010160405160200161123991906145cf565b60405160208183030381529060405280519060200120036112895760408051808201825260078152664241445f41524760c81b6020820152905162461bcd60e51b815261059e91906004016143a1565b6001810161129787826144c9565b5060028101546040516001600160a01b03909116907f4505168a8705a16fd4d0575197fd0f510db69df93a065e158ad2c0957ba12bac90610e5f9089906143a1565b6112e16133a2565b6001600160a01b0316336001600160a01b031614611314576040516365f4906560e01b815233600482015260240161059e565b6001600160a01b0381166113575760408051808201825260078152664241445f41524760c81b6020820152905162461bcd60e51b815261059e91906004016143a1565b611362600d82613706565b61139d5760408051808201825260098152681393d517d193d5539160ba1b6020820152905162461bcd60e51b815261059e91906004016143a1565b6040516001600160a01b038216907ff9889c857e5356066b564327caa757c325ecbc001b2b47d72edf8cf9aedb1be590600090a250565b336000818152600760205260409020600201546001600160a01b031661143057604080518082018252600e81526d1393d11157d393d517d193d5539160921b6020820152905162461bcd60e51b815261059e91906004016143a1565b61143b600085613368565b1561147c57604080518082018252600e81526d414c52454144595f45584953545360901b6020820152905162461bcd60e51b815261059e91906004016143a1565b825160005b818110156114e65761149e858281518110610f3a57610f3a614427565b6114de57604080518082018252600e81526d1393d11157d393d517d193d5539160921b6020820152905162461bcd60e51b815261059e91906004016143a1565b600101611481565b506040805160a08101825284815260006020820181905291810182905260608101829052608081018690529061151c90876136fa565b5060008681526002602081815260409283902084518155818501516001820180549587015160608801516001600160401b03908116600160801b0267ffffffffffffffff60801b19928216600160401b026001600160801b03199099169190941617969096179590951617909355608084015180518594936115a393908501920190613990565b50505060008681526004602052604090819020859055517fd79158fa478ef0af48ae6b32b29d29b2a37ee7b0dfcce6005880fd071623b5fb906115eb90889088908890614645565b60405180910390a1505050505050565b611603613960565b600061160f8184613368565b61164a5760408051808201825260098152681393d517d193d5539160ba1b6020820152905162461bcd60e51b815261059e91906004016143a1565b6000838152600260208181526040808420600483529381902054815160a0810183528554815260018601546001600160401b0380821683870152600160401b8204811683860152600160801b9091041660608201529385018054835181860281018601909452808452919493869360808601939092918301828280156116f957602002820191906000526020600020905b81546001600160a01b031681526001909101906020018083116116db575b505050505081525050915091509150915091565b60608161171b600a82613368565b6117565760408051808201825260098152681393d517d193d5539160ba1b6020820152905162461bcd60e51b815261059e91906004016143a1565b6000838152600c6020908152604080832080548251818502810185019093528083529193909284015b8282101561186357600084815260209081902060408051606081018252600386029092018054835260018101546001600160401b031693830193909352600283018054929392918401916117d2906143f3565b80601f01602080910402602001604051908101604052809291908181526020018280546117fe906143f3565b801561184b5780601f106118205761010080835404028352916020019161184b565b820191906000526020600020905b81548152906001019060200180831161182e57829003601f168201915b5050505050815250508152602001906001019061177f565b5050505091505b50919050565b61189b6040805160808101909152806000815260606020820181905260006040830181905291015290565b6118a6600583613343565b6118e657604080518082018252600e81526d1393d11157d393d517d193d5539160921b6020820152905162461bcd60e51b815261059e91906004016143a1565b6001600160a01b038216600090815260076020526040908190208151608081019092528054829060ff16600581111561192157611921613fa3565b600581111561193257611932613fa3565b8152602001600182018054611946906143f3565b80601f0160208091040260200160405190810160405280929190818152602001828054611972906143f3565b80156119bf5780601f10611994576101008083540402835291602001916119bf565b820191906000526020600020905b8154815290600101906020018083116119a257829003601f168201915b505050918352505060028201546001600160a01b03908116602083015260039092015490911660409091015292915050565b816119fd600082613368565b611a385760408051808201825260098152681393d517d193d5539160ba1b6020820152905162461bcd60e51b815261059e91906004016143a1565b336000818152600760205260409020600201546001600160a01b0316611a9457604080518082018252600e81526d1393d11157d393d517d193d5539160921b6020820152905162461bcd60e51b815261059e91906004016143a1565b600084815260026020819052604082209081015490915b81811015611b3057856001600160a01b0316836002018281548110611ad257611ad2614427565b6000918252602090912001546001600160a01b031603611b2857604080518082018252600e81526d414c52454144595f45584953545360901b6020820152905162461bcd60e51b815261059e91906004016143a1565b600101611aab565b5060028201805460018082018355600092835260209283902090910180546001600160a01b0319166001600160a01b038916908117909155604080518a8152938401919091528201527faaa473c28a5fe04b6a7ecd795826e462f9d0c23f00ef9f51ec02fa6ea418806f906060016115eb565b33611baf600d82613343565b611be95760408051808201825260088152670848288be82aaa8960c31b6020820152905162461bcd60e51b815261059e91906004016143a1565b67fffffffffffffffe196001600160401b03851601611c375760408051808201825260078152664241445f41524760c81b6020820152905162461bcd60e51b815261059e91906004016143a1565b6000829003611c755760408051808201825260078152664241445f41524760c81b6020820152905162461bcd60e51b815261059e91906004016143a1565b611c80600a86613368565b611c9157611c8f600a866136fa565b505b6000858152600c6020526040812054905b81811015611d78576000878152600c6020526040902080546001600160401b038816919083908110611cd657611cd6614427565b60009182526020909120600160039092020101546001600160401b031603611d70576000878152600c6020526040902080548691869184908110611d1c57611d1c614427565b90600052602060002090600302016002019182611d3a92919061466e565b506000805160206148dd833981519152878787876000604051611d61959493929190614727565b60405180910390a15050611e6b565b600101611ca2565b506000600c0160008781526020019081526020016000206040518060600160405280888152602001876001600160401b0316815260200186868080601f0160208091040260200160405190810160405280939291908181526020018383808284376000920182905250939094525050835460018082018655948252602091829020845160039092020190815590830151938101805467ffffffffffffffff19166001600160401b03909516949094179093555060408101519091906002820190611e4290826144c9565b5050506000805160206148dd8339815191528686868660006040516115eb959493929190614727565b5050505050565b60606000611e80600561338c565b6001600160401b03811115611e9757611e97613d18565b604051908082528060200260200182016040528015611ef357816020015b611ee06040805160808101909152806000815260606020820181905260006040830181905291015290565b815260200190600190039081611eb55790505b50905060005b611f03600561338c565b81101561186a5760076000611f19600584613396565b6001600160a01b03168152602081019190915260409081016000208151608081019092528054829060ff166005811115611f5557611f55613fa3565b6005811115611f6657611f66613fa3565b8152602001600182018054611f7a906143f3565b80601f0160208091040260200160405190810160405280929190818152602001828054611fa6906143f3565b8015611ff35780601f10611fc857610100808354040283529160200191611ff3565b820191906000526020600020905b815481529060010190602001808311611fd657829003601f168201915b505050918352505060028201546001600160a01b039081166020830152600390920154909116604090910152825183908390811061203357612033614427565b6020908102919091010152600101611ef9565b61204e6133a2565b6001600160a01b0316336001600160a01b031614612081576040516365f4906560e01b815233600482015260240161059e565b61208c600882613343565b6120d057604080518082018252601281527113d41154905513d497d393d517d193d5539160721b6020820152905162461bcd60e51b815261059e91906004016143a1565b60005b6120dd600561338c565b811015612165576001600160a01b038216600760006120fd600585613396565b6001600160a01b039081168252602082019290925260400160002060030154160361215d57604080518082018252600d81526c4f55545f4f465f424f554e445360981b6020820152905162461bcd60e51b815261059e91906004016143a1565b6001016120d3565b50612171600882613706565b506040516001600160a01b038216907f80c0b871b97b595b16a7741c1b06fed0c6f6f558639f18ccbce50724325dc40d90600090a250565b6001600160a01b03808216600090815260076020526040902060030154829133911681146122075760408051808201825260088152670848288be82aaa8960c31b6020820152905162461bcd60e51b815261059e91906004016143a1565b6001600160a01b038381166000908152600760205260409020600201541661226557604080518082018252600e81526d1393d11157d393d517d193d5539160921b6020820152905162461bcd60e51b815261059e91906004016143a1565b60056001600160a01b03841660009081526007602052604090205460ff16600581111561229457612294613fa3565b146122dd5760408051808201825260168152751393d11157d4d510551157d393d517d0531313d5d15160521b6020820152905162461bcd60e51b815261059e91906004016143a1565b6122e8600584613706565b506001600160a01b0383166000908152600760205260408120805460ff19168155906123176001830182613905565b506002810180546001600160a01b03199081169091556003909101805490911690556040516001600160a01b038416907fcfc24166db4bb677e857cacabd1541fb2b30645021b27c5130419589b84db52b90600090a2505050565b3361237e600d82613343565b6123b85760408051808201825260088152670848288be82aaa8960c31b6020820152905162461bcd60e51b815261059e91906004016143a1565b6000805b6000858152600c6020526040902054811015612539576000858152600c6020526040902080546001600160401b0386169190839081106123fe576123fe614427565b60009182526020909120600160039092020101546001600160401b031603612531576000858152600c60205260409020805461243c90600190614777565b8154811061244c5761244c614427565b90600052602060002090600302016000600c016000878152602001908152602001600020828154811061248157612481614427565b600091825260209091208254600390920201908155600180830154908201805467ffffffffffffffff19166001600160401b039092169190911790556002808201906124cf9084018261478a565b5050506000858152600c602052604090208054806124ef576124ef6143b4565b60008281526020812060036000199093019283020181815560018101805467ffffffffffffffff19169055906125286002830182613905565b50509055600191505b6001016123bc565b50806125765760408051808201825260098152681393d517d193d5539160ba1b6020820152905162461bcd60e51b815261059e91906004016143a1565b604080518581526001600160401b038516602082015260808183018190526000908201526001606082015290516000805160206148dd8339815191529181900360a00190a150505050565b7f59b501c3653afc186af7d48dda36cf6732bd21629a6295693664240a6ef5200054640100000000900460ff1661260b57604051630ef4733760e31b815260040160405180910390fd5b60005b81811015610b0b5761264583838381811061262b5761262b614427565b90506020020160208101906126409190613a7b565b6133d0565b60010161260e565b6000610b1c8161338c565b6126606133a2565b6001600160a01b0316336001600160a01b031614612693576040516365f4906560e01b815233600482015260240161059e565b610a7c816134a2565b600080806126a98161338c565b905060005b818110156127415760006126c28183613396565b60008181526002602052604081209192505b600282015481101561273357876001600160a01b03168260020182815481106126ff576126ff614427565b6000918252602090912001546001600160a01b03160361272b57856127238161443d565b965050612733565b6001016126d4565b5050508060010190506126ae565b50909392505050565b6060610b1c600561371b565b606060008284106127965760408051808201825260078152664241445f41524760c81b6020820152905162461bcd60e51b815261059e91906004016143a1565b60006127a18161338c565b905060008185116127b257846127b4565b815b905060008682116127c65760006127d0565b6127d08783614777565b90506000816001600160401b038111156127ec576127ec613d18565b60405190808252806020026020018201604052801561282557816020015b6128126139f5565b81526020019060019003908161280a5790505b50905060005b8281101561293557600061284a612842838c6143e0565b600090613396565b60408051808201825282815260008381526002602081815291849020845160a0810186528154815260018201546001600160401b0380821683870152600160401b8204811683890152600160801b909104166060820152918101805486518186028101860190975280875296975093958387019592949193608086019392919083018282801561290357602002820191906000526020600020905b81546001600160a01b031681526001909101906020018083116128e5575b50505050508152505081525083838151811061292157612921614427565b60209081029190910101525060010161282b565b509450505083101590509250929050565b60006110db8183613368565b60006110db600d83613343565b336000818152600760205260409020600201546001600160a01b03166129bb57604080518082018252600e81526d1393d11157d393d517d193d5539160921b6020820152905162461bcd60e51b815261059e91906004016143a1565b6129c6600087613368565b612a015760408051808201825260098152681393d517d193d5539160ba1b6020820152905162461bcd60e51b815261059e91906004016143a1565b6000868152600260205260409020600180820154600160801b90041615612a5d57604080518082018252600d81526c14d51491505357d4d150531151609a1b6020820152905162461bcd60e51b815261059e91906004016143a1565b60018101546001600160401b03808616911610612aa95760408051808201825260078152664241445f41524760c81b6020820152905162461bcd60e51b815261059e91906004016143a1565b6000878152600360205260408120612ac091613905565b84815560018101805467ffffffffffffffff19166001600160401b0386161790558215612b1a576001818101805467ffffffffffffffff60801b198116600160801b918290046001600160401b0316909317029190911790555b60408051888152602081018790526001600160401b0386169181019190915283151560608201527fccc26bbb6dd655ea0bb8a40a3c30e35c6bdf42f8faf0d71bbea897af768cda8b906080016110bd565b6060610b1c600861371b565b81612b83600082613368565b612bbe5760408051808201825260098152681393d517d193d5539160ba1b6020820152905162461bcd60e51b815261059e91906004016143a1565b336000818152600760205260409020600201546001600160a01b0316612c1a57604080518082018252600e81526d1393d11157d393d517d193d5539160921b6020820152905162461bcd60e51b815261059e91906004016143a1565b6000848152600260208190526040822090810154909190815b81811015612d3557866001600160a01b0316846002018281548110612c5a57612c5a614427565b6000918252602090912001546001600160a01b031603612d2d5760028401612c83600184614777565b81548110612c9357612c93614427565b6000918252602090912001546002850180546001600160a01b039092169183908110612cc157612cc1614427565b9060005260206000200160006101000a8154816001600160a01b0302191690836001600160a01b0316021790555083600201805480612d0257612d026143b4565b600082815260209020810160001990810180546001600160a01b031916905501905560019250612d35565b600101612c33565b5081612d7757604080518082018252600e81526d1393d11157d393d517d193d5539160921b6020820152905162461bcd60e51b815261059e91906004016143a1565b604080518881526001600160a01b03881660208201526000918101919091527faaa473c28a5fe04b6a7ecd795826e462f9d0c23f00ef9f51ec02fa6ea418806f906060016110bd565b33612dcc600882613343565b612e065760408051808201825260088152670848288be82aaa8960c31b6020820152905162461bcd60e51b815261059e91906004016143a1565b6001600160a01b038481166000908152600760205260409020600201541615612e6557604080518082018252600e81526d414c52454144595f45584953545360901b6020820152905162461bcd60e51b815261059e91906004016143a1565b60006040518060800160405280846005811115612e8457612e84613fa3565b8152602081018690526001600160a01b0387166040820152336060909101529050612eb0600586613728565b506001600160a01b03851660009081526007602052604090208151815483929190829060ff19166001836005811115612eeb57612eeb613fa3565b021790555060208201516001820190612f0490826144c9565b506040828101516002830180546001600160a01b03199081166001600160a01b03938416179091556060909401516003909301805490941692811692909217909255905133918716907f759154d15a6aec80ceab7bc8820f46ebc53ad68bb18f47afb77483fea9dcc9ff90612f7c9088908890614856565b60405180910390a35050505050565b60006110db600a83613368565b336000818152600760205260409020600201546001600160a01b0316612ff457604080518082018252600e81526d1393d11157d393d517d193d5539160921b6020820152905162461bcd60e51b815261059e91906004016143a1565b8160008190036130335760408051808201825260078152664241445f41524760c81b6020820152905162461bcd60e51b815261059e91906004016143a1565b60005b81811015611e6b573685858381811061305157613051614427565b60a002919091019150613068905060008235613368565b6130e0577f75460fe319331413a18a82d99b07735cec53fa0c4061ada38c2141e331082afa813560408301356130a46080850160608601614878565b60408051808201825260098152681393d517d193d5539160ba1b602082015290516130d29493929190614893565b60405180910390a15061333b565b80356000908152600260205260409020600180820154600160801b9004161561317c577f75460fe319331413a18a82d99b07735cec53fa0c4061ada38c2141e331082afa8235604084013561313b6080860160608701614878565b604080518082018252600d81526c14d51491505357d4d150531151609a1b6020820152905161316d9493929190614893565b60405180910390a1505061333b565b61318c6080830160608401614878565b60018201546001600160401b03918216911610613207577f75460fe319331413a18a82d99b07735cec53fa0c4061ada38c2141e331082afa823560408401356131db6080860160608701614878565b60408051808201825260078152664241445f41524760c81b6020820152905161316d9493929190614893565b60018101546001600160401b0316600003613235578135600090815260036020526040812061323591613905565b6040820135815561324c6080830160608401614878565b60018201805467ffffffffffffffff19166001600160401b039290921691909117905561327f60a08301608084016148c1565b156132b7576001818101805467ffffffffffffffff60801b198116600160801b918290046001600160401b0316909317029190911790555b7fccc26bbb6dd655ea0bb8a40a3c30e35c6bdf42f8faf0d71bbea897af768cda8b823560408401356132ef6080860160608701614878565b6132ff60a08701608088016148c1565b604051613330949392919093845260208401929092526001600160401b031660408301521515606082015260800190565b60405180910390a150505b600101613036565b6001600160a01b038116600090815260018301602052604081205415155b9392505050565b60008181526001830160205260408120541515613361565b6000613361838361373d565b60006110db825490565b60006133618383613830565b7f4675fa8241f86f37157864d3d49b85ad4b164352c516da28e1678a90470ae300546001600160a01b031690565b6001600160a01b0381166134135760408051808201825260078152664241445f41524760c81b6020820152905162461bcd60e51b815261059e91906004016143a1565b61341e600882613343565b1561345f57604080518082018252600e81526d414c52454144595f45584953545360901b6020820152905162461bcd60e51b815261059e91906004016143a1565b61346a600882613728565b506040516001600160a01b038216907fac6fa858e9350a46cec16539926e0fde25b7629f84b5a72bffaae4df888ae86d90600090a250565b6001600160a01b0381166134e55760408051808201825260078152664241445f41524760c81b6020820152905162461bcd60e51b815261059e91906004016143a1565b6134f0600d82613728565b61353057604080518082018252600e81526d414c52454144595f45584953545360901b6020820152905162461bcd60e51b815261059e91906004016143a1565b6040516001600160a01b038216907f7afd798379ae2d2e5035438544cea2b60eb1dde6a8128e6d447fd2a25f8825a290600090a250565b600082600581111561357b5761357b613fa3565b14806135cf5750600182600581111561359657613596613fa3565b1480156135cf575060038160058111156135b2576135b2613fa3565b14806135cf575060048160058111156135cd576135cd613fa3565b145b80613622575060028260058111156135e9576135e9613fa3565b1480156136225750600381600581111561360557613605613fa3565b14806136225750600481600581111561362057613620613fa3565b145b806136755750600482600581111561363c5761363c613fa3565b1480156136755750600381600581111561365857613658613fa3565b14806136755750600581600581111561367357613673613fa3565b145b806136ad5750600382600581111561368f5761368f613fa3565b1480156136ad575060058160058111156136ab576136ab613fa3565b145b156136b6575050565b60408051808201825260168152751393d11157d4d510551157d393d517d0531313d5d15160521b6020820152905162461bcd60e51b815261059e91906004016143a1565b6000613361838361385a565b6000613361836001600160a01b03841661373d565b60606000613361836138a9565b6000613361836001600160a01b03841661385a565b60008181526001830160205260408120548015613826576000613761600183614777565b855490915060009061377590600190614777565b90508082146137da57600086600001828154811061379557613795614427565b90600052602060002001549050808760000184815481106137b8576137b8614427565b6000918252602080832090910192909255918252600188019052604090208390555b85548690806137eb576137eb6143b4565b6001900381819060005260206000200160009055905585600101600086815260200190815260200160002060009055600193505050506110db565b60009150506110db565b600082600001828154811061384757613847614427565b9060005260206000200154905092915050565b60008181526001830160205260408120546138a1575081546001818101845560008481526020808220909301849055845484825282860190935260409020919091556110db565b5060006110db565b6060816000018054806020026020016040519081016040528092919081815260200182805480156138f957602002820191906000526020600020905b8154815260200190600101908083116138e5575b50505050509050919050565b508054613911906143f3565b6000825580601f10613921575050565b601f016020900490600052602060002090810190610a7c9190613a14565b5080546000825560030290600052602060002090810190610a7c9190613a29565b6040805160a081018252600080825260208201819052918101829052606080820192909252608081019190915290565b8280548282559060005260206000209081019282156139e5579160200282015b828111156139e557825182546001600160a01b0319166001600160a01b039091161782556020909201916001909101906139b0565b506139f1929150613a14565b5090565b604080518082019091526000815260208101613a0f613960565b905290565b5b808211156139f15760008155600101613a15565b808211156139f157600080825560018201805467ffffffffffffffff19169055613a566002830182613905565b50600301613a29565b80356001600160a01b0381168114613a7657600080fd5b919050565b600060208284031215613a8d57600080fd5b61336182613a5f565b600060208284031215613aa857600080fd5b5035919050565b60005b83811015613aca578181015183820152602001613ab2565b50506000910152565b60008151808452613aeb816020860160208601613aaf565b601f01601f19169290920160200192915050565b600060208083018184528085518083526040925060408601915060408160051b87010184880160005b83811015613b7b57888303603f19018552815180518452878101516001600160401b0316888501528601516060878501819052613b6781860183613ad3565b968901969450505090860190600101613b28565b509098975050505050505050565b600060a08301825184526020808401516001600160401b0380821660208801528060408701511660408801528060608701511660608801525050608084015160a0608087015282815180855260c088019150602083019450600092505b80831015613c0f5784516001600160a01b03168252938301936001929092019190830190613be6565b509695505050505050565b6020815260006133616020830184613b89565b60008060208385031215613c4057600080fd5b82356001600160401b0380821115613c5757600080fd5b818501915085601f830112613c6b57600080fd5b813581811115613c7a57600080fd5b8660208260051b8501011115613c8f57600080fd5b60209290920196919550909350505050565b606081526000613cb46060830186613b89565b8460208401528281036040840152613ccc8185613ad3565b9695505050505050565b803560068110613a7657600080fd5b60008060408385031215613cf857600080fd5b613d0183613a5f565b9150613d0f60208401613cd6565b90509250929050565b634e487b7160e01b600052604160045260246000fd5b604051601f8201601f191681016001600160401b0381118282101715613d5657613d56613d18565b604052919050565b600082601f830112613d6f57600080fd5b813560206001600160401b03821115613d8a57613d8a613d18565b8160051b613d99828201613d2e565b9283528481018201928281019087851115613db357600080fd5b83870192505b84831015613dd957613dca83613a5f565b82529183019190830190613db9565b979650505050505050565b60006001600160401b03831115613dfd57613dfd613d18565b613e10601f8401601f1916602001613d2e565b9050828152838383011115613e2457600080fd5b828260208301376000602084830101529392505050565b60008060008060808587031215613e5157600080fd5b8435935060208501356001600160401b0380821115613e6f57600080fd5b613e7b88838901613d5e565b9450604087013593506060870135915080821115613e9857600080fd5b508501601f81018713613eaa57600080fd5b613eb987823560208401613de4565b91505092959194509250565b600082601f830112613ed657600080fd5b61336183833560208501613de4565b60008060408385031215613ef857600080fd5b613f0183613a5f565b915060208301356001600160401b03811115613f1c57600080fd5b613f2885828601613ec5565b9150509250929050565b600080600060608486031215613f4757600080fd5b8335925060208401356001600160401b03811115613f6457600080fd5b613f7086828701613d5e565b925050604084013590509250925092565b604081526000613f946040830185613b89565b90508260208301529392505050565b634e487b7160e01b600052602160045260246000fd5b60068110613fd757634e487b7160e01b600052602160045260246000fd5b9052565b613fe6828251613fb9565b60006020820151608060208501526140016080850182613ad3565b6040848101516001600160a01b03908116918701919091526060948501511693909401929092525090919050565b6020815260006133616020830184613fdb565b6000806040838503121561405557600080fd5b82359150613d0f60208401613a5f565b80356001600160401b0381168114613a7657600080fd5b6000806000806060858703121561409257600080fd5b843593506140a260208601614065565b925060408501356001600160401b03808211156140be57600080fd5b818701915087601f8301126140d257600080fd5b8135818111156140e157600080fd5b8860208285010111156140f357600080fd5b95989497505060200194505050565b600060208083016020845280855180835260408601915060408160051b87010192506020870160005b8281101561415957603f19888603018452614147858351613fdb565b9450928501929085019060010161412b565b5092979650505050505050565b6000806040838503121561417957600080fd5b82359150613d0f60208401614065565b60008151808452602080850194506020840160005b838110156141c35781516001600160a01b03168752958201959082019060010161419e565b509495945050505050565b6020815260006133616020830184614189565b600080604083850312156141f457600080fd5b50508035926020909101359150565b600060408083016040845280865180835260608601915060608160051b8701019250602080890160005b8381101561426c57888603605f1901855281518051875283015183870188905261425988880182613b89565b965050938201939082019060010161422d565b5050961515959096019490945295945050505050565b80358015158114613a7657600080fd5b600080600080600060a086880312156142aa57600080fd5b8535945060208601359350604086013592506142c860608701614065565b91506142d660808701614282565b90509295509295909350565b6000806000606084860312156142f757600080fd5b61430084613a5f565b925060208401356001600160401b0381111561431b57600080fd5b61432786828701613ec5565b92505061433660408501613cd6565b90509250925092565b6000806020838503121561435257600080fd5b82356001600160401b038082111561436957600080fd5b818501915085601f83011261437d57600080fd5b81358181111561438c57600080fd5b86602060a083028501011115613c8f57600080fd5b6020815260006133616020830184613ad3565b634e487b7160e01b600052603160045260246000fd5b634e487b7160e01b600052601160045260246000fd5b808201808211156110db576110db6143ca565b600181811c9082168061440757607f821691505b60208210810361186a57634e487b7160e01b600052602260045260246000fd5b634e487b7160e01b600052603260045260246000fd5b60006001820161444f5761444f6143ca565b5060010190565b602081016110db8284613fb9565b601f821115610b0b576000816000526020600020601f850160051c8101602086101561448d5750805b601f850160051c820191505b818110156144ac57828155600101614499565b505050505050565b600019600383901b1c191660019190911b1790565b81516001600160401b038111156144e2576144e2613d18565b6144f6816144f084546143f3565b84614464565b602080601f83116001811461452557600084156145135750858301515b61451d85826144b4565b8655506144ac565b600085815260208120601f198616915b8281101561455457888601518255948401946001909101908401614535565b50858210156145725787850151600019600388901b60f8161c191681555b5050505050600190811b01905550565b84815260806020820152600061459b6080830186614189565b8460408401528281036060840152613dd98185613ad3565b600082516145c5818460208701613aaf565b9190910192915050565b60008083546145dd816143f3565b600182811680156145f5576001811461460a57614639565b60ff1984168752821515830287019450614639565b8760005260208060002060005b858110156146305781548a820152908401908201614617565b50505082870194505b50929695505050505050565b83815260606020820152600061465e6060830185614189565b9050826040830152949350505050565b6001600160401b0383111561468557614685613d18565b6146998361469383546143f3565b83614464565b6000601f8411600181146146c757600085156146b55750838201355b6146bf86826144b4565b845550611e6b565b600083815260209020601f19861690835b828110156146f857868501358255602094850194600190920191016146d8565b50868210156147155760001960f88860031b161c19848701351681555b505060018560011b0183555050505050565b8581526001600160401b038516602082015260806040820152826080820152828460a0830137600081840160a0908101919091529115156060820152601f909201601f1916909101019392505050565b818103818111156110db576110db6143ca565b818103614795575050565b61479f82546143f3565b6001600160401b038111156147b6576147b6613d18565b6147c4816144f084546143f3565b6000601f8211600181146147f257600083156147e05750848201545b6147ea84826144b4565b855550611e6b565b600085815260209020601f19841690600086815260209020845b8381101561482c578286015482556001958601959091019060200161480c565b50858310156145725793015460001960f8600387901b161c19169092555050600190811b01905550565b6040815260006148696040830185613ad3565b90506133616020830184613fb9565b60006020828403121561488a57600080fd5b61336182614065565b8481528360208201526001600160401b0383166040820152608060608201526000613ccc6080830184613ad3565b6000602082840312156148d357600080fd5b6133618261428256fec01483261a841a868b99cb8802faed4ea44a1a816651c4f7ee061a96a205fe98","linkReferences":{}},"methodIdentifiers":{"__OperatorRegistry_init(address[])":"ba428b1a","__RiverConfig_init(address[])":"31374511","allocateStream(bytes32,address[],bytes32)":"8988ac97","allocateStream(bytes32,address[],bytes32,bytes)":"6b883c39","approveConfigurationManager(address)":"c179b85f","approveOperator(address)":"242cae9f","configurationExists(bytes32)":"fc207c01","deleteConfiguration(bytes32)":"035759e1","deleteConfigurationOnBlock(bytes32,uint64)":"b7f227ee","getAllConfiguration()":"081814db","getAllNodeAddresses()":"c8fe3a01","getAllNodes()":"a1174e7d","getAllOperators()":"d911c632","getConfiguration(bytes32)":"9283ae3a","getNode(address)":"9d209048","getNodeCount()":"39bf397e","getPaginatedStreams(uint256,uint256)":"ca78c41a","getStream(bytes32)":"1290abe8","getStreamCount()":"c0f22084","getStreamCountOnNode(address)":"c87d1324","getStreamWithGenesis(bytes32)":"3c2544d1","getStreamWithGenesisHash(bytes32)":"8f94936c","isConfigurationManager(address)":"d4bd44a0","isNode(address)":"01750152","isOperator(address)":"6d70f7ae","isStream(bytes32)":"d0c27c4f","placeStreamOnNode(bytes32,address)":"9ee86d38","registerNode(address,string,uint8)":"eecc66f4","removeConfigurationManager(address)":"813049ec","removeNode(address)":"b2b99ec9","removeOperator(address)":"ac8a584a","removeStreamFromNode(bytes32,address)":"ee885b12","setConfiguration(bytes32,uint64,bytes)":"a09449a6","setStreamLastMiniblock(bytes32,bytes32,bytes32,uint64,bool)":"d7a3158a","setStreamLastMiniblockBatch((bytes32,bytes32,bytes32,uint64,bool)[])":"ff3a14ab","updateNodeStatus(address,uint8)":"581f8b9b","updateNodeUrl(address,string)":"7e4465e7"},"id":395}