{"abi":[{"type":"constructor","inputs":[{"name":"approvedOperators","type":"address[]","internalType":"address[]"}],"stateMutability":"nonpayable"},{"type":"function","name":"__OperatorRegistry_init","inputs":[{"name":"initialOperators","type":"address[]","internalType":"address[]"}],"outputs":[],"stateMutability":"nonpayable"},{"type":"function","name":"__RiverConfig_init","inputs":[{"name":"configManagers","type":"address[]","internalType":"address[]"}],"outputs":[],"stateMutability":"nonpayable"},{"type":"function","name":"allocateStream","inputs":[{"name":"streamId","type":"bytes32","internalType":"bytes32"},{"name":"nodes","type":"address[]","internalType":"address[]"},{"name":"genesisMiniblockHash","type":"bytes32","internalType":"bytes32"},{"name":"genesisMiniblock","type":"bytes","internalType":"bytes"}],"outputs":[],"stateMutability":"nonpayable"},{"type":"function","name":"approveConfigurationManager","inputs":[{"name":"manager","type":"address","internalType":"address"}],"outputs":[],"stateMutability":"nonpayable"},{"type":"function","name":"approveOperator","inputs":[{"name":"operator","type":"address","internalType":"address"}],"outputs":[],"stateMutability":"nonpayable"},{"type":"function","name":"configurationExists","inputs":[{"name":"key","type":"bytes32","internalType":"bytes32"}],"outputs":[{"name":"","type":"bool","internalType":"bool"}],"stateMutability":"view"},{"type":"function","name":"createStream","inputs":[{"name":"streamId","type":"bytes32","internalType":"bytes32"},{"name":"genesisMiniblockHash","type":"bytes32","internalType":"bytes32"},{"name":"stream","type":"tuple","internalType":"struct Stream","components":[{"name":"lastMiniblockHash","type":"bytes32","internalType":"bytes32"},{"name":"lastMiniblockNum","type":"uint64","internalType":"uint64"},{"name":"reserved0","type":"uint64","internalType":"uint64"},{"name":"flags","type":"uint64","internalType":"uint64"},{"name":"nodes","type":"address[]","internalType":"address[]"}]}],"outputs":[],"stateMutability":"nonpayable"},{"type":"function","name":"deleteConfiguration","inputs":[{"name":"key","type":"bytes32","internalType":"bytes32"}],"outputs":[],"stateMutability":"nonpayable"},{"type":"function","name":"deleteConfigurationOnBlock","inputs":[{"name":"key","type":"bytes32","internalType":"bytes32"},{"name":"blockNumber","type":"uint64","internalType":"uint64"}],"outputs":[],"stateMutability":"nonpayable"},{"type":"function","name":"getAllConfiguration","inputs":[],"outputs":[{"name":"","type":"tuple[]","internalType":"struct Setting[]","components":[{"name":"key","type":"bytes32","internalType":"bytes32"},{"name":"blockNumber","type":"uint64","internalType":"uint64"},{"name":"value","type":"bytes","internalType":"bytes"}]}],"stateMutability":"view"},{"type":"function","name":"getAllNodeAddresses","inputs":[],"outputs":[{"name":"","type":"address[]","internalType":"address[]"}],"stateMutability":"view"},{"type":"function","name":"getAllNodes","inputs":[],"outputs":[{"name":"","type":"tuple[]","internalType":"struct Node[]","components":[{"name":"status","type":"uint8","internalType":"enum NodeStatus"},{"name":"url","type":"string","internalType":"string"},{"name":"nodeAddress","type":"address","internalType":"address"},{"name":"operator","type":"address","internalType":"address"}]}],"stateMutability":"view"},{"type":"function","name":"getAllOperators","inputs":[],"outputs":[{"name":"","type":"address[]","internalType":"address[]"}],"stateMutability":"view"},{"type":"function","name":"getConfiguration","inputs":[{"name":"key","type":"bytes32","internalType":"bytes32"}],"outputs":[{"name":"","type":"tuple[]","internalType":"struct Setting[]","components":[{"name":"key","type":"bytes32","internalType":"bytes32"},{"name":"blockNumber","type":"uint64","internalType":"uint64"},{"name":"value","type":"bytes","internalType":"bytes"}]}],"stateMutability":"view"},{"type":"function","name":"getNode","inputs":[{"name":"nodeAddress","type":"address","internalType":"address"}],"outputs":[{"name":"","type":"tuple","internalType":"struct Node","components":[{"name":"status","type":"uint8","internalType":"enum NodeStatus"},{"name":"url","type":"string","internalType":"string"},{"name":"nodeAddress","type":"address","internalType":"address"},{"name":"operator","type":"address","internalType":"address"}]}],"stateMutability":"view"},{"type":"function","name":"getNodeCount","inputs":[],"outputs":[{"name":"","type":"uint256","internalType":"uint256"}],"stateMutability":"view"},{"type":"function","name":"getPaginatedStreams","inputs":[{"name":"start","type":"uint256","internalType":"uint256"},{"name":"stop","type":"uint256","internalType":"uint256"}],"outputs":[{"name":"","type":"tuple[]","internalType":"struct StreamWithId[]","components":[{"name":"id","type":"bytes32","internalType":"bytes32"},{"name":"stream","type":"tuple","internalType":"struct Stream","components":[{"name":"lastMiniblockHash","type":"bytes32","internalType":"bytes32"},{"name":"lastMiniblockNum","type":"uint64","internalType":"uint64"},{"name":"reserved0","type":"uint64","internalType":"uint64"},{"name":"flags","type":"uint64","internalType":"uint64"},{"name":"nodes","type":"address[]","internalType":"address[]"}]}]},{"name":"","type":"bool","internalType":"bool"}],"stateMutability":"view"},{"type":"function","name":"getStream","inputs":[{"name":"streamId","type":"bytes32","internalType":"bytes32"}],"outputs":[{"name":"","type":"tuple","internalType":"struct Stream","components":[{"name":"lastMiniblockHash","type":"bytes32","internalType":"bytes32"},{"name":"lastMiniblockNum","type":"uint64","internalType":"uint64"},{"name":"reserved0","type":"uint64","internalType":"uint64"},{"name":"flags","type":"uint64","internalType":"uint64"},{"name":"nodes","type":"address[]","internalType":"address[]"}]}],"stateMutability":"view"},{"type":"function","name":"getStreamCount","inputs":[],"outputs":[{"name":"","type":"uint256","internalType":"uint256"}],"stateMutability":"view"},{"type":"function","name":"getStreamCountOnNode","inputs":[{"name":"nodeAddress","type":"address","internalType":"address"}],"outputs":[{"name":"","type":"uint256","internalType":"uint256"}],"stateMutability":"view"},{"type":"function","name":"getStreamWithGenesis","inputs":[{"name":"streamId","type":"bytes32","internalType":"bytes32"}],"outputs":[{"name":"","type":"tuple","internalType":"struct Stream","components":[{"name":"lastMiniblockHash","type":"bytes32","internalType":"bytes32"},{"name":"lastMiniblockNum","type":"uint64","internalType":"uint64"},{"name":"reserved0","type":"uint64","internalType":"uint64"},{"name":"flags","type":"uint64","internalType":"uint64"},{"name":"nodes","type":"address[]","internalType":"address[]"}]},{"name":"","type":"bytes32","internalType":"bytes32"},{"name":"","type":"bytes","internalType":"bytes"}],"stateMutability":"view"},{"type":"function","name":"isConfigurationManager","inputs":[{"name":"manager","type":"address","internalType":"address"}],"outputs":[{"name":"","type":"bool","internalType":"bool"}],"stateMutability":"view"},{"type":"function","name":"isNode","inputs":[{"name":"nodeAddress","type":"address","internalType":"address"}],"outputs":[{"name":"","type":"bool","internalType":"bool"}],"stateMutability":"view"},{"type":"function","name":"isOperator","inputs":[{"name":"operator","type":"address","internalType":"address"}],"outputs":[{"name":"","type":"bool","internalType":"bool"}],"stateMutability":"view"},{"type":"function","name":"isStream","inputs":[{"name":"streamId","type":"bytes32","internalType":"bytes32"}],"outputs":[{"name":"","type":"bool","internalType":"bool"}],"stateMutability":"view"},{"type":"function","name":"placeStreamOnNode","inputs":[{"name":"streamId","type":"bytes32","internalType":"bytes32"},{"name":"nodeAddress","type":"address","internalType":"address"}],"outputs":[],"stateMutability":"nonpayable"},{"type":"function","name":"registerNode","inputs":[{"name":"nodeAddress","type":"address","internalType":"address"},{"name":"url","type":"string","internalType":"string"},{"name":"status","type":"uint8","internalType":"enum NodeStatus"}],"outputs":[],"stateMutability":"nonpayable"},{"type":"function","name":"removeConfigurationManager","inputs":[{"name":"manager","type":"address","internalType":"address"}],"outputs":[],"stateMutability":"nonpayable"},{"type":"function","name":"removeNode","inputs":[{"name":"nodeAddress","type":"address","internalType":"address"}],"outputs":[],"stateMutability":"nonpayable"},{"type":"function","name":"removeOperator","inputs":[{"name":"operator","type":"address","internalType":"address"}],"outputs":[],"stateMutability":"nonpayable"},{"type":"function","name":"removeStreamFromNode","inputs":[{"name":"streamId","type":"bytes32","internalType":"bytes32"},{"name":"nodeAddress","type":"address","internalType":"address"}],"outputs":[],"stateMutability":"nonpayable"},{"type":"function","name":"setConfiguration","inputs":[{"name":"key","type":"bytes32","internalType":"bytes32"},{"name":"blockNumber","type":"uint64","internalType":"uint64"},{"name":"value","type":"bytes","internalType":"bytes"}],"outputs":[],"stateMutability":"nonpayable"},{"type":"function","name":"setStreamLastMiniblock","inputs":[{"name":"streamId","type":"bytes32","internalType":"bytes32"},{"name":"","type":"bytes32","internalType":"bytes32"},{"name":"lastMiniblockHash","type":"bytes32","internalType":"bytes32"},{"name":"lastMiniblockNum","type":"uint64","internalType":"uint64"},{"name":"isSealed","type":"bool","internalType":"bool"}],"outputs":[],"stateMutability":"nonpayable"},{"type":"function","name":"setStreamLastMiniblockBatch","inputs":[{"name":"miniblocks","type":"tuple[]","internalType":"struct SetMiniblock[]","components":[{"name":"streamId","type":"bytes32","internalType":"bytes32"},{"name":"prevMiniBlockHash","type":"bytes32","internalType":"bytes32"},{"name":"lastMiniblockHash","type":"bytes32","internalType":"bytes32"},{"name":"lastMiniblockNum","type":"uint64","internalType":"uint64"},{"name":"isSealed","type":"bool","internalType":"bool"}]}],"outputs":[],"stateMutability":"nonpayable"},{"type":"function","name":"updateNodeStatus","inputs":[{"name":"nodeAddress","type":"address","internalType":"address"},{"name":"status","type":"uint8","internalType":"enum NodeStatus"}],"outputs":[],"stateMutability":"nonpayable"},{"type":"function","name":"updateNodeUrl","inputs":[{"name":"nodeAddress","type":"address","internalType":"address"},{"name":"url","type":"string","internalType":"string"}],"outputs":[],"stateMutability":"nonpayable"},{"type":"event","name":"ConfigurationChanged","inputs":[{"name":"key","type":"bytes32","indexed":false,"internalType":"bytes32"},{"name":"block","type":"uint64","indexed":false,"internalType":"uint64"},{"name":"value","type":"bytes","indexed":false,"internalType":"bytes"},{"name":"deleted","type":"bool","indexed":false,"internalType":"bool"}],"anonymous":false},{"type":"event","name":"ConfigurationManagerAdded","inputs":[{"name":"manager","type":"address","indexed":true,"internalType":"address"}],"anonymous":false},{"type":"event","name":"ConfigurationManagerRemoved","inputs":[{"name":"manager","type":"address","indexed":true,"internalType":"address"}],"anonymous":false},{"type":"event","name":"Initialized","inputs":[{"name":"version","type":"uint32","indexed":false,"internalType":"uint32"}],"anonymous":false},{"type":"event","name":"InterfaceAdded","inputs":[{"name":"interfaceId","type":"bytes4","indexed":true,"internalType":"bytes4"}],"anonymous":false},{"type":"event","name":"InterfaceRemoved","inputs":[{"name":"interfaceId","type":"bytes4","indexed":true,"internalType":"bytes4"}],"anonymous":false},{"type":"event","name":"NodeAdded","inputs":[{"name":"nodeAddress","type":"address","indexed":true,"internalType":"address"},{"name":"operator","type":"address","indexed":true,"internalType":"address"},{"name":"url","type":"string","indexed":false,"internalType":"string"},{"name":"status","type":"uint8","indexed":false,"internalType":"enum NodeStatus"}],"anonymous":false},{"type":"event","name":"NodeRemoved","inputs":[{"name":"nodeAddress","type":"address","indexed":true,"internalType":"address"}],"anonymous":false},{"type":"event","name":"NodeStatusUpdated","inputs":[{"name":"nodeAddress","type":"address","indexed":true,"internalType":"address"},{"name":"status","type":"uint8","indexed":false,"internalType":"enum NodeStatus"}],"anonymous":false},{"type":"event","name":"NodeUrlUpdated","inputs":[{"name":"nodeAddress","type":"address","indexed":true,"internalType":"address"},{"name":"url","type":"string","indexed":false,"internalType":"string"}],"anonymous":false},{"type":"event","name":"OperatorAdded","inputs":[{"name":"operatorAddress","type":"address","indexed":true,"internalType":"address"}],"anonymous":false},{"type":"event","name":"OperatorRemoved","inputs":[{"name":"operatorAddress","type":"address","indexed":true,"internalType":"address"}],"anonymous":false},{"type":"event","name":"OwnershipTransferred","inputs":[{"name":"previousOwner","type":"address","indexed":true,"internalType":"address"},{"name":"newOwner","type":"address","indexed":true,"internalType":"address"}],"anonymous":false},{"type":"event","name":"StreamAllocated","inputs":[{"name":"streamId","type":"bytes32","indexed":false,"internalType":"bytes32"},{"name":"nodes","type":"address[]","indexed":false,"internalType":"address[]"},{"name":"genesisMiniblockHash","type":"bytes32","indexed":false,"internalType":"bytes32"},{"name":"genesisMiniblock","type":"bytes","indexed":false,"internalType":"bytes"}],"anonymous":false},{"type":"event","name":"StreamCreated","inputs":[{"name":"streamId","type":"bytes32","indexed":false,"internalType":"bytes32"},{"name":"genesisMiniblockHash","type":"bytes32","indexed":false,"internalType":"bytes32"},{"name":"stream","type":"tuple","indexed":false,"internalType":"struct Stream","components":[{"name":"lastMiniblockHash","type":"bytes32","internalType":"bytes32"},{"name":"lastMiniblockNum","type":"uint64","internalType":"uint64"},{"name":"reserved0","type":"uint64","internalType":"uint64"},{"name":"flags","type":"uint64","internalType":"uint64"},{"name":"nodes","type":"address[]","internalType":"address[]"}]}],"anonymous":false},{"type":"event","name":"StreamLastMiniblockUpdateFailed","inputs":[{"name":"streamId","type":"bytes32","indexed":false,"internalType":"bytes32"},{"name":"lastMiniblockHash","type":"bytes32","indexed":false,"internalType":"bytes32"},{"name":"lastMiniblockNum","type":"uint64","indexed":false,"internalType":"uint64"},{"name":"reason","type":"string","indexed":false,"internalType":"string"}],"anonymous":false},{"type":"event","name":"StreamLastMiniblockUpdated","inputs":[{"name":"streamId","type":"bytes32","indexed":false,"internalType":"bytes32"},{"name":"lastMiniblockHash","type":"bytes32","indexed":false,"internalType":"bytes32"},{"name":"lastMiniblockNum","type":"uint64","indexed":false,"internalType":"uint64"},{"name":"isSealed","type":"bool","indexed":false,"internalType":"bool"}],"anonymous":false},{"type":"event","name":"StreamPlacementUpdated","inputs":[{"name":"streamId","type":"bytes32","indexed":false,"internalType":"bytes32"},{"name":"nodeAddress","type":"address","indexed":false,"internalType":"address"},{"name":"isAdded","type":"bool","indexed":false,"internalType":"bool"}],"anonymous":false},{"type":"error","name":"Initializable_InInitializingState","inputs":[]},{"type":"error","name":"Initializable_NotInInitializingState","inputs":[]},{"type":"error","name":"Introspection_AlreadySupported","inputs":[]},{"type":"error","name":"Introspection_NotSupported","inputs":[]},{"type":"error","name":"Ownable__NotOwner","inputs":[{"name":"account","type":"address","internalType":"address"}]},{"type":"error","name":"Ownable__ZeroAddress","inputs":[]}],"bytecode":{"object":"0x60806040523480156200001157600080fd5b5060405162004dbe38038062004dbe8339810160408190526200003491620004a6565b6200003e620000c1565b620000493362000169565b60005b8151811015620000b957620000838282815181106200006f576200006f62000578565b60200260200101516200023760201b60201c565b620000b08282815181106200009c576200009c62000578565b60200260200101516200031c60201b60201c565b6001016200004c565b5050620005df565b7f59b501c3653afc186af7d48dda36cf6732bd21629a6295693664240a6ef520008054640100000000900460ff16156200010e576040516366008a2d60e01b815260040160405180910390fd5b805463ffffffff90811610156200016657805463ffffffff191663ffffffff90811782556040519081527fe9c9b456cb2994b80aeef036cf59d26e9617df80f816a6ee5a5b4166e07e2f5c9060200160405180910390a15b50565b60006200019d7f4675fa8241f86f37157864d3d49b85ad4b164352c516da28e1678a90470ae300546001600160a01b031690565b90506001600160a01b038216620001c757604051634e3ef82560e01b815260040160405180910390fd5b817f4675fa8241f86f37157864d3d49b85ad4b164352c516da28e1678a90470ae30080546001600160a01b0319166001600160a01b03928316179055604051838216918316907f8be0079c531659141344cd1fd0a4f28419497f9722a3daafe3b4186f6b6457e090600090a35050565b6001600160a01b038116620002865760408051808201825260078152664241445f41524760c81b6020820152905162461bcd60e51b81526200027d91906004016200058e565b60405180910390fd5b62000293600882620003e9565b15620002d757604080518082018252600e81526d414c52454144595f45584953545360901b6020820152905162461bcd60e51b81526200027d91906004016200058e565b620002e460088262000410565b506040516001600160a01b038216907fac6fa858e9350a46cec16539926e0fde25b7629f84b5a72bffaae4df888ae86d90600090a250565b6001600160a01b038116620003625760408051808201825260078152664241445f41524760c81b6020820152905162461bcd60e51b81526200027d91906004016200058e565b6200036f600d8262000410565b620003b257604080518082018252600e81526d414c52454144595f45584953545360901b6020820152905162461bcd60e51b81526200027d91906004016200058e565b6040516001600160a01b038216907f7afd798379ae2d2e5035438544cea2b60eb1dde6a8128e6d447fd2a25f8825a290600090a250565b6001600160a01b038116600090815260018301602052604081205415155b90505b92915050565b600062000407836001600160a01b03841660008181526001830160205260408120546200046a575081546001818101845560008481526020808220909301849055845484825282860190935260409020919091556200040a565b5060006200040a565b634e487b7160e01b600052604160045260246000fd5b80516001600160a01b0381168114620004a157600080fd5b919050565b60006020808385031215620004ba57600080fd5b82516001600160401b0380821115620004d257600080fd5b818501915085601f830112620004e757600080fd5b815181811115620004fc57620004fc62000473565b8060051b604051601f19603f8301168101818110858211171562000524576200052462000473565b6040529182528482019250838101850191888311156200054357600080fd5b938501935b828510156200056c576200055c8562000489565b8452938501939285019262000548565b98975050505050505050565b634e487b7160e01b600052603260045260246000fd5b60006020808352835180602085015260005b81811015620005be57858101830151858201604001528201620005a0565b506000604082860101526040601f19601f8301168501019250505092915050565b6147cf80620005ef6000396000f3fe608060405234801561001057600080fd5b506004361061021c5760003560e01c8063ac8a584a11610125578063d0c27c4f116100ad578063ee885b121161007c578063ee885b12146104cd578063eecc66f4146104e0578063f42c1eab146104f3578063fc207c0114610506578063ff3a14ab1461051957600080fd5b8063d0c27c4f1461048c578063d4bd44a01461049f578063d7a3158a146104b2578063d911c632146104c557600080fd5b8063c0f22084116100f4578063c0f2208414610428578063c179b85f14610430578063c87d132414610443578063c8fe3a0114610456578063ca78c41a1461046b57600080fd5b8063ac8a584a146103dc578063b2b99ec9146103ef578063b7f227ee14610402578063ba428b1a1461041557600080fd5b80636b883c39116101a85780639283ae3a116101775780639283ae3a1461036e5780639d209048146103815780639ee86d38146103a1578063a09449a6146103b4578063a1174e7d146103c757600080fd5b80636b883c39146103225780636d70f7ae146103355780637e4465e714610348578063813049ec1461035b57600080fd5b8063242cae9f116101ef578063242cae9f146102b157806331374511146102c457806339bf397e146102d75780633c2544d1146102ed578063581f8b9b1461030f57600080fd5b80630175015214610221578063035759e114610267578063081814db1461027c5780631290abe814610291575b600080fd5b61025261022f3660046138d9565b6001600160a01b0390811660009081526007602052604090206002015416151590565b60405190151581526020015b60405180910390f35b61027a6102753660046138f4565b61052c565b005b6102846106a0565b60405161025e919061395d565b6102a461029f3660046138f4565b61090b565b60405161025e9190613a78565b61027a6102bf3660046138d9565b610a2d565b61027a6102d2366004613a8b565b610a74565b6102df610b05565b60405190815260200161025e565b6103006102fb3660046138f4565b610b16565b60405161025e93929190613aff565b61027a61031d366004613b43565b610ce7565b61027a610330366004613cc1565b610e87565b6102526103433660046138d9565b6110e5565b61027a610356366004613d6b565b6110f8565b61027a6103693660046138d9565b6112f0565b61028461037c3660046138f4565b6113eb565b61039461038f3660046138d9565b61154e565b60405161025e9190613e44565b61027a6103af366004613e57565b6116cf565b61027a6103c2366004613e91565b61188d565b6103cf611b5c565b60405161025e9190613f17565b61027a6103ea3660046138d9565b611d30565b61027a6103fd3660046138d9565b611e93565b61027a610410366004613f7b565b61205c565b61027a610423366004613a8b565b6122ab565b6102df612337565b61027a61043e3660046138d9565b612342565b6102df6104513660046138d9565b612386565b61045e612434565b60405161025e9190613fe3565b61047e610479366004613ff6565b612440565b60405161025e929190614018565b61025261049a3660046138f4565b612630565b6102526104ad3660046138d9565b61263c565b61027a6104c03660046140a7565b612649565b61045e612855565b61027a6104db366004613e57565b612861565b61027a6104ee3660046140f7565b612aaa565b61027a610501366004614154565b612c75565b6102526105143660046138f4565b612e79565b61027a610527366004614212565b612e86565b33610538600d826131a6565b61057b5760408051808201825260088152670848288be82aaa8960c31b6020820152905162461bcd60e51b81526105729190600401614274565b60405180910390fd5b81610587600a826131cb565b6105c25760408051808201825260098152681393d517d193d5539160ba1b6020820152905162461bcd60e51b81526105729190600401614274565b6000838152600c602052604090205415610635576000838152600c602052604090208054806105f3576105f3614287565b60008281526020812060036000199093019283020181815560018101805467ffffffffffffffff191690559061062c6002830182613768565b505090556105c2565b6000838152600c6020526040812061064c916137a2565b610657600a846131e3565b50604080518481526001600160401b03602082015260808183018190526000908201526001606082015290516000805160206147af8339815191529181900360a00190a1505050565b60606000806106af600a6131ef565b905060005b818110156106f05760006106c9600a836131f9565b6000818152600c60205260409020549091506106e590856142b3565b9350506001016106b4565b506000826001600160401b0381111561070b5761070b613b76565b60405190808252806020026020018201604052801561075857816020015b604080516060808201835260008083526020830152918101919091528152602001906001900390816107295790505b5090506000610767600a6131ef565b90506000805b82811015610900576000610782600a836131f9565b6000818152600c6020908152604080832080548251818502810185019093528083529495509293909291849084015b8282101561089557600084815260209081902060408051606081018252600386029092018054835260018101546001600160401b03169383019390935260028301805492939291840191610804906142c6565b80601f0160208091040260200160405190810160405280929190818152602001828054610830906142c6565b801561087d5780601f106108525761010080835404028352916020019161087d565b820191906000526020600020905b81548152906001019060200180831161086057829003601f168201915b505050505081525050815260200190600101906107b1565b50505050905060005b81518110156108f2578181815181106108b9576108b96142fa565b60200260200101518786806108cd90614310565b9750815181106108df576108df6142fa565b602090810291909101015260010161089e565b50505080600101905061076d565b509195945050505050565b6040805160a081018252600080825260208201819052918101829052606080820183905260808201529061093f90836131cb565b61097a5760408051808201825260098152681393d517d193d5539160ba1b6020820152905162461bcd60e51b81526105729190600401614274565b600082815260026020818152604092839020835160a0810185528154815260018201546001600160401b0380821683860152600160401b8204811683880152600160801b9091041660608201529281018054855181850281018501909652808652939491936080860193830182828015610a1d57602002820191906000526020600020905b81546001600160a01b031681526001909101906020018083116109ff575b5050505050815250509050919050565b610a35613205565b6001600160a01b0316336001600160a01b031614610a68576040516365f4906560e01b8152336004820152602401610572565b610a7181613233565b50565b7f59b501c3653afc186af7d48dda36cf6732bd21629a6295693664240a6ef5200054640100000000900460ff16610abe57604051630ef4733760e31b815260040160405180910390fd5b60005b81811015610b0057610af8838383818110610ade57610ade6142fa565b9050602002016020810190610af391906138d9565b613305565b600101610ac1565b505050565b6000610b1160056131ef565b905090565b6040805160a081018252600080825260208201819052918101829052606080820183905260808201819052909190610b4e82856131cb565b610b895760408051808201825260098152681393d517d193d5539160ba1b6020820152905162461bcd60e51b81526105729190600401614274565b600084815260026020818152604080842060048352818520546003845294829020825160a0810184528254815260018301546001600160401b0380821683880152600160401b8204811683870152600160801b90910416606082015294820180548451818702810187019095528085529296959194919387936080860193919291830182828015610c4357602002820191906000526020600020905b81546001600160a01b03168152600190910190602001808311610c25575b5050505050815250509250808054610c5a906142c6565b80601f0160208091040260200160405190810160405280929190818152602001828054610c86906142c6565b8015610cd35780601f10610ca857610100808354040283529160200191610cd3565b820191906000526020600020905b815481529060010190602001808311610cb657829003601f168201915b505050505090509250925092509193909250565b6001600160a01b03808316600090815260076020526040902060020154839116610d4757604080518082018252600e81526d1393d11157d393d517d193d5539160921b6020820152905162461bcd60e51b81526105729190600401614274565b33610d536008826131a6565b610d8d5760408051808201825260088152670848288be82aaa8960c31b6020820152905162461bcd60e51b81526105729190600401614274565b6001600160a01b0380851660009081526007602052604090206003015485913391168114610deb5760408051808201825260088152670848288be82aaa8960c31b6020820152905162461bcd60e51b81526105729190600401614274565b6001600160a01b03861660009081526007602052604090208054610e129060ff16876133ca565b80548690829060ff19166001836005811115610e3057610e30613db8565b021790555060028101546040516001600160a01b03909116907f20891cc7622c7951cbd8c70c61a5201eb45625b8c00e8f6c986cfca78f3dbfa090610e76908990614329565b60405180910390a250505050505050565b336000818152600760205260409020600201546001600160a01b0316610ee357604080518082018252600e81526d1393d11157d393d517d193d5539160921b6020820152905162461bcd60e51b81526105729190600401614274565b610eee6000866131cb565b15610f2f57604080518082018252600e81526d414c52454144595f45584953545360901b6020820152905162461bcd60e51b81526105729190600401614274565b835160005b81811015610fb457610f6c868281518110610f5157610f516142fa565b602002602001015160006005016131a690919063ffffffff16565b610fac57604080518082018252600e81526d1393d11157d393d517d193d5539160921b6020820152905162461bcd60e51b81526105729190600401614274565b600101610f34565b506040805160a081018252858152600060208201819052918101829052606081018290526080810187905290610fea908861355d565b5060008781526002602081815260409283902084518155818501516001820180549587015160608801516001600160401b03908116600160801b0267ffffffffffffffff60801b19928216600160401b026001600160801b0319909916919094161796909617959095161790935560808401518051859493611071939085019201906137c3565b505050600087815260036020526040902061108c858261439c565b5060008781526004602052604090819020869055517f55ef7efc60ef99743e54209752c9a8e047e013917ec91572db75875069dd65bb906110d4908990899089908990614455565b60405180910390a150505050505050565b60006110f26008836131a6565b92915050565b336111046008826131a6565b61113e5760408051808201825260088152670848288be82aaa8960c31b6020820152905162461bcd60e51b81526105729190600401614274565b6001600160a01b0380841660009081526007602052604090206002015484911661119e57604080518082018252600e81526d1393d11157d393d517d193d5539160921b6020820152905162461bcd60e51b81526105729190600401614274565b6001600160a01b03808516600090815260076020526040902060030154859133911681146111fc5760408051808201825260088152670848288be82aaa8960c31b6020820152905162461bcd60e51b81526105729190600401614274565b6001600160a01b038616600090815260076020908152604091829020915161122691889101614486565b604051602081830303815290604052805190602001208160010160405160200161125091906144a2565b60405160208183030381529060405280519060200120036112a05760408051808201825260078152664241445f41524760c81b6020820152905162461bcd60e51b81526105729190600401614274565b600181016112ae878261439c565b5060028101546040516001600160a01b03909116907f4505168a8705a16fd4d0575197fd0f510db69df93a065e158ad2c0957ba12bac90610e76908990614274565b6112f8613205565b6001600160a01b0316336001600160a01b03161461132b576040516365f4906560e01b8152336004820152602401610572565b6001600160a01b03811661136e5760408051808201825260078152664241445f41524760c81b6020820152905162461bcd60e51b81526105729190600401614274565b611379600d82613569565b6113b45760408051808201825260098152681393d517d193d5539160ba1b6020820152905162461bcd60e51b81526105729190600401614274565b6040516001600160a01b038216907ff9889c857e5356066b564327caa757c325ecbc001b2b47d72edf8cf9aedb1be590600090a250565b6060816113f9600a826131cb565b6114345760408051808201825260098152681393d517d193d5539160ba1b6020820152905162461bcd60e51b81526105729190600401614274565b6000838152600c6020908152604080832080548251818502810185019093528083529193909284015b8282101561154157600084815260209081902060408051606081018252600386029092018054835260018101546001600160401b031693830193909352600283018054929392918401916114b0906142c6565b80601f01602080910402602001604051908101604052809291908181526020018280546114dc906142c6565b80156115295780601f106114fe57610100808354040283529160200191611529565b820191906000526020600020905b81548152906001019060200180831161150c57829003601f168201915b5050505050815250508152602001906001019061145d565b5050505091505b50919050565b6115796040805160808101909152806000815260606020820181905260006040830181905291015290565b6115846005836131a6565b6115c457604080518082018252600e81526d1393d11157d393d517d193d5539160921b6020820152905162461bcd60e51b81526105729190600401614274565b6001600160a01b038216600090815260076020526040908190208151608081019092528054829060ff1660058111156115ff576115ff613db8565b600581111561161057611610613db8565b8152602001600182018054611624906142c6565b80601f0160208091040260200160405190810160405280929190818152602001828054611650906142c6565b801561169d5780601f106116725761010080835404028352916020019161169d565b820191906000526020600020905b81548152906001019060200180831161168057829003601f168201915b505050918352505060028201546001600160a01b03908116602083015260039092015490911660409091015292915050565b816116db6000826131cb565b6117165760408051808201825260098152681393d517d193d5539160ba1b6020820152905162461bcd60e51b81526105729190600401614274565b336000818152600760205260409020600201546001600160a01b031661177257604080518082018252600e81526d1393d11157d393d517d193d5539160921b6020820152905162461bcd60e51b81526105729190600401614274565b600084815260026020819052604082209081015490915b8181101561180e57856001600160a01b03168360020182815481106117b0576117b06142fa565b6000918252602090912001546001600160a01b03160361180657604080518082018252600e81526d414c52454144595f45584953545360901b6020820152905162461bcd60e51b81526105729190600401614274565b600101611789565b5060028201805460018082018355600092835260209283902090910180546001600160a01b0319166001600160a01b038916908117909155604080518a8152938401919091528201527faaa473c28a5fe04b6a7ecd795826e462f9d0c23f00ef9f51ec02fa6ea418806f906060015b60405180910390a1505050505050565b33611899600d826131a6565b6118d35760408051808201825260088152670848288be82aaa8960c31b6020820152905162461bcd60e51b81526105729190600401614274565b67fffffffffffffffe196001600160401b038516016119215760408051808201825260078152664241445f41524760c81b6020820152905162461bcd60e51b81526105729190600401614274565b600082900361195f5760408051808201825260078152664241445f41524760c81b6020820152905162461bcd60e51b81526105729190600401614274565b61196a600a866131cb565b61197b57611979600a8661355d565b505b6000858152600c6020526040812054905b81811015611a62576000878152600c6020526040902080546001600160401b0388169190839081106119c0576119c06142fa565b60009182526020909120600160039092020101546001600160401b031603611a5a576000878152600c6020526040902080548691869184908110611a0657611a066142fa565b90600052602060002090600302016002019182611a24929190614518565b506000805160206147af833981519152878787876000604051611a4b9594939291906145d1565b60405180910390a15050611b55565b60010161198c565b506000600c0160008781526020019081526020016000206040518060600160405280888152602001876001600160401b0316815260200186868080601f0160208091040260200160405190810160405280939291908181526020018383808284376000920182905250939094525050835460018082018655948252602091829020845160039092020190815590830151938101805467ffffffffffffffff19166001600160401b03909516949094179093555060408101519091906002820190611b2c908261439c565b5050506000805160206147af83398151915286868686600060405161187d9594939291906145d1565b5050505050565b60606000611b6a60056131ef565b6001600160401b03811115611b8157611b81613b76565b604051908082528060200260200182016040528015611bdd57816020015b611bca6040805160808101909152806000815260606020820181905260006040830181905291015290565b815260200190600190039081611b9f5790505b50905060005b611bed60056131ef565b8110156115485760076000611c036005846131f9565b6001600160a01b03168152602081019190915260409081016000208151608081019092528054829060ff166005811115611c3f57611c3f613db8565b6005811115611c5057611c50613db8565b8152602001600182018054611c64906142c6565b80601f0160208091040260200160405190810160405280929190818152602001828054611c90906142c6565b8015611cdd5780601f10611cb257610100808354040283529160200191611cdd565b820191906000526020600020905b815481529060010190602001808311611cc057829003601f168201915b505050918352505060028201546001600160a01b0390811660208301526003909201549091166040909101528251839083908110611d1d57611d1d6142fa565b6020908102919091010152600101611be3565b611d38613205565b6001600160a01b0316336001600160a01b031614611d6b576040516365f4906560e01b8152336004820152602401610572565b611d766008826131a6565b611dba57604080518082018252601281527113d41154905513d497d393d517d193d5539160721b6020820152905162461bcd60e51b81526105729190600401614274565b60005b611dc760056131ef565b811015611e4f576001600160a01b03821660076000611de76005856131f9565b6001600160a01b0390811682526020820192909252604001600020600301541603611e4757604080518082018252600d81526c4f55545f4f465f424f554e445360981b6020820152905162461bcd60e51b81526105729190600401614274565b600101611dbd565b50611e5b600882613569565b506040516001600160a01b038216907f80c0b871b97b595b16a7741c1b06fed0c6f6f558639f18ccbce50724325dc40d90600090a250565b6001600160a01b0380821660009081526007602052604090206003015482913391168114611ef15760408051808201825260088152670848288be82aaa8960c31b6020820152905162461bcd60e51b81526105729190600401614274565b6001600160a01b0383811660009081526007602052604090206002015416611f4f57604080518082018252600e81526d1393d11157d393d517d193d5539160921b6020820152905162461bcd60e51b81526105729190600401614274565b60056001600160a01b03841660009081526007602052604090205460ff166005811115611f7e57611f7e613db8565b14611fc75760408051808201825260168152751393d11157d4d510551157d393d517d0531313d5d15160521b6020820152905162461bcd60e51b81526105729190600401614274565b611fd2600584613569565b506001600160a01b0383166000908152600760205260408120805460ff19168155906120016001830182613768565b506002810180546001600160a01b03199081169091556003909101805490911690556040516001600160a01b038416907fcfc24166db4bb677e857cacabd1541fb2b30645021b27c5130419589b84db52b90600090a2505050565b33612068600d826131a6565b6120a25760408051808201825260088152670848288be82aaa8960c31b6020820152905162461bcd60e51b81526105729190600401614274565b6000805b6000858152600c6020526040902054811015612223576000858152600c6020526040902080546001600160401b0386169190839081106120e8576120e86142fa565b60009182526020909120600160039092020101546001600160401b03160361221b576000858152600c60205260409020805461212690600190614621565b81548110612136576121366142fa565b90600052602060002090600302016000600c016000878152602001908152602001600020828154811061216b5761216b6142fa565b600091825260209091208254600390920201908155600180830154908201805467ffffffffffffffff19166001600160401b039092169190911790556002808201906121b990840182614634565b5050506000858152600c602052604090208054806121d9576121d9614287565b60008281526020812060036000199093019283020181815560018101805467ffffffffffffffff19169055906122126002830182613768565b50509055600191505b6001016120a6565b50806122605760408051808201825260098152681393d517d193d5539160ba1b6020820152905162461bcd60e51b81526105729190600401614274565b604080518581526001600160401b038516602082015260808183018190526000908201526001606082015290516000805160206147af8339815191529181900360a00190a150505050565b7f59b501c3653afc186af7d48dda36cf6732bd21629a6295693664240a6ef5200054640100000000900460ff166122f557604051630ef4733760e31b815260040160405180910390fd5b60005b81811015610b005761232f838383818110612315576123156142fa565b905060200201602081019061232a91906138d9565b613233565b6001016122f8565b6000610b11816131ef565b61234a613205565b6001600160a01b0316336001600160a01b03161461237d576040516365f4906560e01b8152336004820152602401610572565b610a7181613305565b60008080612393816131ef565b905060005b8181101561242b5760006123ac81836131f9565b60008181526002602052604081209192505b600282015481101561241d57876001600160a01b03168260020182815481106123e9576123e96142fa565b6000918252602090912001546001600160a01b031603612415578561240d81614310565b96505061241d565b6001016123be565b505050806001019050612398565b50909392505050565b6060610b11600561357e565b606060008284106124805760408051808201825260078152664241445f41524760c81b6020820152905162461bcd60e51b81526105729190600401614274565b600061248b816131ef565b9050600081851161249c578461249e565b815b905060008682116124b05760006124ba565b6124ba8783614621565b90506000816001600160401b038111156124d6576124d6613b76565b60405190808252806020026020018201604052801561250f57816020015b6124fc613828565b8152602001906001900390816124f45790505b50905060005b8281101561261f57600061253461252c838c6142b3565b6000906131f9565b60408051808201825282815260008381526002602081815291849020845160a0810186528154815260018201546001600160401b0380821683870152600160401b8204811683890152600160801b90910416606082015291810180548651818602810186019097528087529697509395838701959294919360808601939291908301828280156125ed57602002820191906000526020600020905b81546001600160a01b031681526001909101906020018083116125cf575b50505050508152505081525083838151811061260b5761260b6142fa565b602090810291909101015250600101612515565b509450505083101590509250929050565b60006110f281836131cb565b60006110f2600d836131a6565b336000818152600760205260409020600201546001600160a01b03166126a557604080518082018252600e81526d1393d11157d393d517d193d5539160921b6020820152905162461bcd60e51b81526105729190600401614274565b6126b06000876131cb565b6126eb5760408051808201825260098152681393d517d193d5539160ba1b6020820152905162461bcd60e51b81526105729190600401614274565b6000868152600260205260409020600180820154600160801b9004161561274757604080518082018252600d81526c14d51491505357d4d150531151609a1b6020820152905162461bcd60e51b81526105729190600401614274565b60018101546001600160401b038086169116106127935760408051808201825260078152664241445f41524760c81b6020820152905162461bcd60e51b81526105729190600401614274565b60008781526003602052604081206127aa91613768565b84815560018101805467ffffffffffffffff19166001600160401b0386161790558215612804576001818101805467ffffffffffffffff60801b198116600160801b918290046001600160401b0316909317029190911790555b60408051888152602081018790526001600160401b0386169181019190915283151560608201527fccc26bbb6dd655ea0bb8a40a3c30e35c6bdf42f8faf0d71bbea897af768cda8b906080016110d4565b6060610b11600861357e565b8161286d6000826131cb565b6128a85760408051808201825260098152681393d517d193d5539160ba1b6020820152905162461bcd60e51b81526105729190600401614274565b336000818152600760205260409020600201546001600160a01b031661290457604080518082018252600e81526d1393d11157d393d517d193d5539160921b6020820152905162461bcd60e51b81526105729190600401614274565b6000848152600260208190526040822090810154909190815b81811015612a1f57866001600160a01b0316846002018281548110612944576129446142fa565b6000918252602090912001546001600160a01b031603612a17576002840161296d600184614621565b8154811061297d5761297d6142fa565b6000918252602090912001546002850180546001600160a01b0390921691839081106129ab576129ab6142fa565b9060005260206000200160006101000a8154816001600160a01b0302191690836001600160a01b03160217905550836002018054806129ec576129ec614287565b600082815260209020810160001990810180546001600160a01b031916905501905560019250612a1f565b60010161291d565b5081612a6157604080518082018252600e81526d1393d11157d393d517d193d5539160921b6020820152905162461bcd60e51b81526105729190600401614274565b604080518881526001600160a01b03881660208201526000918101919091527faaa473c28a5fe04b6a7ecd795826e462f9d0c23f00ef9f51ec02fa6ea418806f906060016110d4565b33612ab66008826131a6565b612af05760408051808201825260088152670848288be82aaa8960c31b6020820152905162461bcd60e51b81526105729190600401614274565b6001600160a01b038481166000908152600760205260409020600201541615612b4f57604080518082018252600e81526d414c52454144595f45584953545360901b6020820152905162461bcd60e51b81526105729190600401614274565b60006040518060800160405280846005811115612b6e57612b6e613db8565b8152602081018690526001600160a01b0387166040820152336060909101529050612b9a60058661358b565b506001600160a01b03851660009081526007602052604090208151815483929190829060ff19166001836005811115612bd557612bd5613db8565b021790555060208201516001820190612bee908261439c565b506040828101516002830180546001600160a01b03199081166001600160a01b03938416179091556060909401516003909301805490941692811692909217909255905133918716907f759154d15a6aec80ceab7bc8820f46ebc53ad68bb18f47afb77483fea9dcc9ff90612c669088908890614700565b60405180910390a35050505050565b336000818152600760205260409020600201546001600160a01b0316612cd157604080518082018252600e81526d1393d11157d393d517d193d5539160921b6020820152905162461bcd60e51b81526105729190600401614274565b612cdc6000856131cb565b15612d1d57604080518082018252600e81526d414c52454144595f45584953545360901b6020820152905162461bcd60e51b81526105729190600401614274565b60808201515160005b81811015612d8f57612d4784608001518281518110610f5157610f516142fa565b612d8757604080518082018252600e81526d1393d11157d393d517d193d5539160921b6020820152905162461bcd60e51b81526105729190600401614274565b600101612d26565b50612d9b60008661355d565b5060008581526002602081815260409283902086518155818701516001820180549589015160608a01516001600160401b03908116600160801b0267ffffffffffffffff60801b19928216600160401b026001600160801b0319909916919094161796909617959095161790935560808601518051879493612e22939085019201906137c3565b50505060008581526004602052604090819020859055517fac1b69e6e0382c43def3cccabf63091ba47b5d8b10a705d16a1076668643fe4d90612e6a90879087908790614722565b60405180910390a15050505050565b60006110f2600a836131cb565b336000818152600760205260409020600201546001600160a01b0316612ee257604080518082018252600e81526d1393d11157d393d517d193d5539160921b6020820152905162461bcd60e51b81526105729190600401614274565b816000819003612f215760408051808201825260078152664241445f41524760c81b6020820152905162461bcd60e51b81526105729190600401614274565b60005b81811015611b555736858583818110612f3f57612f3f6142fa565b60a002919091019150612f569050600082356131cb565b612fce577f75460fe319331413a18a82d99b07735cec53fa0c4061ada38c2141e331082afa81356040830135612f92608085016060860161474a565b60408051808201825260098152681393d517d193d5539160ba1b60208201529051612fc09493929190614765565b60405180910390a15061319e565b80356000908152600260205260409020600180820154600160801b9004161561306a577f75460fe319331413a18a82d99b07735cec53fa0c4061ada38c2141e331082afa82356040840135613029608086016060870161474a565b604080518082018252600d81526c14d51491505357d4d150531151609a1b6020820152905161305b9493929190614765565b60405180910390a1505061319e565b60018101546001600160401b0316600003613098578135600090815260036020526040812061309891613768565b604082013581556130af608083016060840161474a565b60018201805467ffffffffffffffff19166001600160401b03929092169190911790556130e260a0830160808401614793565b1561311a576001818101805467ffffffffffffffff60801b198116600160801b918290046001600160401b0316909317029190911790555b7fccc26bbb6dd655ea0bb8a40a3c30e35c6bdf42f8faf0d71bbea897af768cda8b82356040840135613152608086016060870161474a565b61316260a0870160808801614793565b604051613193949392919093845260208401929092526001600160401b031660408301521515606082015260800190565b60405180910390a150505b600101612f24565b6001600160a01b038116600090815260018301602052604081205415155b9392505050565b600081815260018301602052604081205415156131c4565b60006131c483836135a0565b60006110f2825490565b60006131c48383613693565b7f4675fa8241f86f37157864d3d49b85ad4b164352c516da28e1678a90470ae300546001600160a01b031690565b6001600160a01b0381166132765760408051808201825260078152664241445f41524760c81b6020820152905162461bcd60e51b81526105729190600401614274565b6132816008826131a6565b156132c257604080518082018252600e81526d414c52454144595f45584953545360901b6020820152905162461bcd60e51b81526105729190600401614274565b6132cd60088261358b565b506040516001600160a01b038216907fac6fa858e9350a46cec16539926e0fde25b7629f84b5a72bffaae4df888ae86d90600090a250565b6001600160a01b0381166133485760408051808201825260078152664241445f41524760c81b6020820152905162461bcd60e51b81526105729190600401614274565b613353600d8261358b565b61339357604080518082018252600e81526d414c52454144595f45584953545360901b6020820152905162461bcd60e51b81526105729190600401614274565b6040516001600160a01b038216907f7afd798379ae2d2e5035438544cea2b60eb1dde6a8128e6d447fd2a25f8825a290600090a250565b60008260058111156133de576133de613db8565b1480613432575060018260058111156133f9576133f9613db8565b1480156134325750600381600581111561341557613415613db8565b14806134325750600481600581111561343057613430613db8565b145b806134855750600282600581111561344c5761344c613db8565b1480156134855750600381600581111561346857613468613db8565b14806134855750600481600581111561348357613483613db8565b145b806134d85750600482600581111561349f5761349f613db8565b1480156134d8575060038160058111156134bb576134bb613db8565b14806134d8575060058160058111156134d6576134d6613db8565b145b80613510575060038260058111156134f2576134f2613db8565b1480156135105750600581600581111561350e5761350e613db8565b145b15613519575050565b60408051808201825260168152751393d11157d4d510551157d393d517d0531313d5d15160521b6020820152905162461bcd60e51b81526105729190600401614274565b60006131c483836136bd565b60006131c4836001600160a01b0384166135a0565b606060006131c48361370c565b60006131c4836001600160a01b0384166136bd565b600081815260018301602052604081205480156136895760006135c4600183614621565b85549091506000906135d890600190614621565b905080821461363d5760008660000182815481106135f8576135f86142fa565b906000526020600020015490508087600001848154811061361b5761361b6142fa565b6000918252602080832090910192909255918252600188019052604090208390555b855486908061364e5761364e614287565b6001900381819060005260206000200160009055905585600101600086815260200190815260200160002060009055600193505050506110f2565b60009150506110f2565b60008260000182815481106136aa576136aa6142fa565b9060005260206000200154905092915050565b6000818152600183016020526040812054613704575081546001818101845560008481526020808220909301849055845484825282860190935260409020919091556110f2565b5060006110f2565b60608160000180548060200260200160405190810160405280929190818152602001828054801561375c57602002820191906000526020600020905b815481526020019060010190808311613748575b50505050509050919050565b508054613774906142c6565b6000825580601f10613784575050565b601f016020900490600052602060002090810190610a719190613872565b5080546000825560030290600052602060002090810190610a719190613887565b828054828255906000526020600020908101928215613818579160200282015b8281111561381857825182546001600160a01b0319166001600160a01b039091161782556020909201916001909101906137e3565b50613824929150613872565b5090565b60408051808201909152600081526020810161386d6040805160a081018252600080825260208201819052918101829052606080820192909252608081019190915290565b905290565b5b808211156138245760008155600101613873565b8082111561382457600080825560018201805467ffffffffffffffff191690556138b46002830182613768565b50600301613887565b80356001600160a01b03811681146138d457600080fd5b919050565b6000602082840312156138eb57600080fd5b6131c4826138bd565b60006020828403121561390657600080fd5b5035919050565b60005b83811015613928578181015183820152602001613910565b50506000910152565b6000815180845261394981602086016020860161390d565b601f01601f19169290920160200192915050565b600060208083018184528085518083526040925060408601915060408160051b87010184880160005b838110156139d957888303603f19018552815180518452878101516001600160401b03168885015286015160608785018190526139c581860183613931565b968901969450505090860190600101613986565b509098975050505050505050565b600060a08301825184526020808401516001600160401b0380821660208801528060408701511660408801528060608701511660608801525050608084015160a0608087015282815180855260c088019150602083019450600092505b80831015613a6d5784516001600160a01b03168252938301936001929092019190830190613a44565b509695505050505050565b6020815260006131c460208301846139e7565b60008060208385031215613a9e57600080fd5b82356001600160401b0380821115613ab557600080fd5b818501915085601f830112613ac957600080fd5b813581811115613ad857600080fd5b8660208260051b8501011115613aed57600080fd5b60209290920196919550909350505050565b606081526000613b1260608301866139e7565b8460208401528281036040840152613b2a8185613931565b9695505050505050565b8035600681106138d457600080fd5b60008060408385031215613b5657600080fd5b613b5f836138bd565b9150613b6d60208401613b34565b90509250929050565b634e487b7160e01b600052604160045260246000fd5b60405160a081016001600160401b0381118282101715613bae57613bae613b76565b60405290565b604051601f8201601f191681016001600160401b0381118282101715613bdc57613bdc613b76565b604052919050565b600082601f830112613bf557600080fd5b813560206001600160401b03821115613c1057613c10613b76565b8160051b613c1f828201613bb4565b9283528481018201928281019087851115613c3957600080fd5b83870192505b84831015613c5f57613c50836138bd565b82529183019190830190613c3f565b979650505050505050565b60006001600160401b03831115613c8357613c83613b76565b613c96601f8401601f1916602001613bb4565b9050828152838383011115613caa57600080fd5b828260208301376000602084830101529392505050565b60008060008060808587031215613cd757600080fd5b8435935060208501356001600160401b0380821115613cf557600080fd5b613d0188838901613be4565b9450604087013593506060870135915080821115613d1e57600080fd5b508501601f81018713613d3057600080fd5b613d3f87823560208401613c6a565b91505092959194509250565b600082601f830112613d5c57600080fd5b6131c483833560208501613c6a565b60008060408385031215613d7e57600080fd5b613d87836138bd565b915060208301356001600160401b03811115613da257600080fd5b613dae85828601613d4b565b9150509250929050565b634e487b7160e01b600052602160045260246000fd5b60068110613dec57634e487b7160e01b600052602160045260246000fd5b9052565b613dfb828251613dce565b6000602082015160806020850152613e166080850182613931565b6040848101516001600160a01b03908116918701919091526060948501511693909401929092525090919050565b6020815260006131c46020830184613df0565b60008060408385031215613e6a57600080fd5b82359150613b6d602084016138bd565b80356001600160401b03811681146138d457600080fd5b60008060008060608587031215613ea757600080fd5b84359350613eb760208601613e7a565b925060408501356001600160401b0380821115613ed357600080fd5b818701915087601f830112613ee757600080fd5b813581811115613ef657600080fd5b886020828501011115613f0857600080fd5b95989497505060200194505050565b600060208083016020845280855180835260408601915060408160051b87010192506020870160005b82811015613f6e57603f19888603018452613f5c858351613df0565b94509285019290850190600101613f40565b5092979650505050505050565b60008060408385031215613f8e57600080fd5b82359150613b6d60208401613e7a565b60008151808452602080850194506020840160005b83811015613fd85781516001600160a01b031687529582019590820190600101613fb3565b509495945050505050565b6020815260006131c46020830184613f9e565b6000806040838503121561400957600080fd5b50508035926020909101359150565b600060408083016040845280865180835260608601915060608160051b8701019250602080890160005b8381101561408157888603605f1901855281518051875283015183870188905261406e888801826139e7565b9650509382019390820190600101614042565b5050961515959096019490945295945050505050565b803580151581146138d457600080fd5b600080600080600060a086880312156140bf57600080fd5b8535945060208601359350604086013592506140dd60608701613e7a565b91506140eb60808701614097565b90509295509295909350565b60008060006060848603121561410c57600080fd5b614115846138bd565b925060208401356001600160401b0381111561413057600080fd5b61413c86828701613d4b565b92505061414b60408501613b34565b90509250925092565b60008060006060848603121561416957600080fd5b833592506020840135915060408401356001600160401b038082111561418e57600080fd5b9085019060a082880312156141a257600080fd5b6141aa613b8c565b823581526141ba60208401613e7a565b60208201526141cb60408401613e7a565b60408201526141dc60608401613e7a565b60608201526080830135828111156141f357600080fd5b6141ff89828601613be4565b6080830152508093505050509250925092565b6000806020838503121561422557600080fd5b82356001600160401b038082111561423c57600080fd5b818501915085601f83011261425057600080fd5b81358181111561425f57600080fd5b86602060a083028501011115613aed57600080fd5b6020815260006131c46020830184613931565b634e487b7160e01b600052603160045260246000fd5b634e487b7160e01b600052601160045260246000fd5b808201808211156110f2576110f261429d565b600181811c908216806142da57607f821691505b60208210810361154857634e487b7160e01b600052602260045260246000fd5b634e487b7160e01b600052603260045260246000fd5b6000600182016143225761432261429d565b5060010190565b602081016110f28284613dce565b601f821115610b00576000816000526020600020601f850160051c810160208610156143605750805b601f850160051c820191505b8181101561437f5782815560010161436c565b505050505050565b600019600383901b1c191660019190911b1790565b81516001600160401b038111156143b5576143b5613b76565b6143c9816143c384546142c6565b84614337565b602080601f8311600181146143f857600084156143e65750858301515b6143f08582614387565b86555061437f565b600085815260208120601f198616915b8281101561442757888601518255948401946001909101908401614408565b50858210156144455787850151600019600388901b60f8161c191681555b5050505050600190811b01905550565b84815260806020820152600061446e6080830186613f9e565b8460408401528281036060840152613c5f8185613931565b6000825161449881846020870161390d565b9190910192915050565b60008083546144b0816142c6565b600182811680156144c857600181146144dd5761450c565b60ff198416875282151583028701945061450c565b8760005260208060002060005b858110156145035781548a8201529084019082016144ea565b50505082870194505b50929695505050505050565b6001600160401b0383111561452f5761452f613b76565b6145438361453d83546142c6565b83614337565b6000601f841160018114614571576000851561455f5750838201355b6145698682614387565b845550611b55565b600083815260209020601f19861690835b828110156145a25786850135825560209485019460019092019101614582565b50868210156145bf5760001960f88860031b161c19848701351681555b505060018560011b0183555050505050565b8581526001600160401b038516602082015260806040820152826080820152828460a0830137600081840160a0908101919091529115156060820152601f909201601f1916909101019392505050565b818103818111156110f2576110f261429d565b81810361463f575050565b61464982546142c6565b6001600160401b0381111561466057614660613b76565b61466e816143c384546142c6565b6000601f82116001811461469c576000831561468a5750848201545b6146948482614387565b855550611b55565b600085815260209020601f19841690600086815260209020845b838110156146d657828601548255600195860195909101906020016146b6565b50858310156144455793015460001960f8600387901b161c19169092555050600190811b01905550565b6040815260006147136040830185613931565b90506131c46020830184613dce565b83815282602082015260606040820152600061474160608301846139e7565b95945050505050565b60006020828403121561475c57600080fd5b6131c482613e7a565b8481528360208201526001600160401b0383166040820152608060608201526000613b2a6080830184613931565b6000602082840312156147a557600080fd5b6131c48261409756fec01483261a841a868b99cb8802faed4ea44a1a816651c4f7ee061a96a205fe98","linkReferences":{}},"methodIdentifiers":{"__OperatorRegistry_init(address[])":"ba428b1a","__RiverConfig_init(address[])":"31374511","allocateStream(bytes32,address[],bytes32,bytes)":"6b883c39","approveConfigurationManager(address)":"c179b85f","approveOperator(address)":"242cae9f","configurationExists(bytes32)":"fc207c01","createStream(bytes32,bytes32,(bytes32,uint64,uint64,uint64,address[]))":"f42c1eab","deleteConfiguration(bytes32)":"035759e1","deleteConfigurationOnBlock(bytes32,uint64)":"b7f227ee","getAllConfiguration()":"081814db","getAllNodeAddresses()":"c8fe3a01","getAllNodes()":"a1174e7d","getAllOperators()":"d911c632","getConfiguration(bytes32)":"9283ae3a","getNode(address)":"9d209048","getNodeCount()":"39bf397e","getPaginatedStreams(uint256,uint256)":"ca78c41a","getStream(bytes32)":"1290abe8","getStreamCount()":"c0f22084","getStreamCountOnNode(address)":"c87d1324","getStreamWithGenesis(bytes32)":"3c2544d1","isConfigurationManager(address)":"d4bd44a0","isNode(address)":"01750152","isOperator(address)":"6d70f7ae","isStream(bytes32)":"d0c27c4f","placeStreamOnNode(bytes32,address)":"9ee86d38","registerNode(address,string,uint8)":"eecc66f4","removeConfigurationManager(address)":"813049ec","removeNode(address)":"b2b99ec9","removeOperator(address)":"ac8a584a","removeStreamFromNode(bytes32,address)":"ee885b12","setConfiguration(bytes32,uint64,bytes)":"a09449a6","setStreamLastMiniblock(bytes32,bytes32,bytes32,uint64,bool)":"d7a3158a","setStreamLastMiniblockBatch((bytes32,bytes32,bytes32,uint64,bool)[])":"ff3a14ab","updateNodeStatus(address,uint8)":"581f8b9b","updateNodeUrl(address,string)":"7e4465e7"},"id":385}