{"abi":[{"type":"constructor","inputs":[{"name":"approvedOperators","type":"address[]","internalType":"address[]"}],"stateMutability":"nonpayable"},{"type":"function","name":"__OperatorRegistry_init","inputs":[{"name":"initialOperators","type":"address[]","internalType":"address[]"}],"outputs":[],"stateMutability":"nonpayable"},{"type":"function","name":"__RiverConfig_init","inputs":[{"name":"configManagers","type":"address[]","internalType":"address[]"}],"outputs":[],"stateMutability":"nonpayable"},{"type":"function","name":"addStream","inputs":[{"name":"streamId","type":"bytes32","internalType":"bytes32"},{"name":"genesisMiniblockHash","type":"bytes32","internalType":"bytes32"},{"name":"stream","type":"tuple","internalType":"struct Stream","components":[{"name":"lastMiniblockHash","type":"bytes32","internalType":"bytes32"},{"name":"lastMiniblockNum","type":"uint64","internalType":"uint64"},{"name":"reserved0","type":"uint64","internalType":"uint64"},{"name":"flags","type":"uint64","internalType":"uint64"},{"name":"nodes","type":"address[]","internalType":"address[]"}]}],"outputs":[],"stateMutability":"nonpayable"},{"type":"function","name":"allocateStream","inputs":[{"name":"streamId","type":"bytes32","internalType":"bytes32"},{"name":"nodes","type":"address[]","internalType":"address[]"},{"name":"genesisMiniblockHash","type":"bytes32","internalType":"bytes32"},{"name":"genesisMiniblock","type":"bytes","internalType":"bytes"}],"outputs":[],"stateMutability":"nonpayable"},{"type":"function","name":"approveConfigurationManager","inputs":[{"name":"manager","type":"address","internalType":"address"}],"outputs":[],"stateMutability":"nonpayable"},{"type":"function","name":"approveOperator","inputs":[{"name":"operator","type":"address","internalType":"address"}],"outputs":[],"stateMutability":"nonpayable"},{"type":"function","name":"configurationExists","inputs":[{"name":"key","type":"bytes32","internalType":"bytes32"}],"outputs":[{"name":"","type":"bool","internalType":"bool"}],"stateMutability":"view"},{"type":"function","name":"deleteConfiguration","inputs":[{"name":"key","type":"bytes32","internalType":"bytes32"}],"outputs":[],"stateMutability":"nonpayable"},{"type":"function","name":"deleteConfigurationOnBlock","inputs":[{"name":"key","type":"bytes32","internalType":"bytes32"},{"name":"blockNumber","type":"uint64","internalType":"uint64"}],"outputs":[],"stateMutability":"nonpayable"},{"type":"function","name":"getAllConfiguration","inputs":[],"outputs":[{"name":"","type":"tuple[]","internalType":"struct Setting[]","components":[{"name":"key","type":"bytes32","internalType":"bytes32"},{"name":"blockNumber","type":"uint64","internalType":"uint64"},{"name":"value","type":"bytes","internalType":"bytes"}]}],"stateMutability":"view"},{"type":"function","name":"getAllNodeAddresses","inputs":[],"outputs":[{"name":"","type":"address[]","internalType":"address[]"}],"stateMutability":"view"},{"type":"function","name":"getAllNodes","inputs":[],"outputs":[{"name":"","type":"tuple[]","internalType":"struct Node[]","components":[{"name":"status","type":"uint8","internalType":"enum NodeStatus"},{"name":"url","type":"string","internalType":"string"},{"name":"nodeAddress","type":"address","internalType":"address"},{"name":"operator","type":"address","internalType":"address"}]}],"stateMutability":"view"},{"type":"function","name":"getAllOperators","inputs":[],"outputs":[{"name":"","type":"address[]","internalType":"address[]"}],"stateMutability":"view"},{"type":"function","name":"getConfiguration","inputs":[{"name":"key","type":"bytes32","internalType":"bytes32"}],"outputs":[{"name":"","type":"tuple[]","internalType":"struct Setting[]","components":[{"name":"key","type":"bytes32","internalType":"bytes32"},{"name":"blockNumber","type":"uint64","internalType":"uint64"},{"name":"value","type":"bytes","internalType":"bytes"}]}],"stateMutability":"view"},{"type":"function","name":"getNode","inputs":[{"name":"nodeAddress","type":"address","internalType":"address"}],"outputs":[{"name":"","type":"tuple","internalType":"struct Node","components":[{"name":"status","type":"uint8","internalType":"enum NodeStatus"},{"name":"url","type":"string","internalType":"string"},{"name":"nodeAddress","type":"address","internalType":"address"},{"name":"operator","type":"address","internalType":"address"}]}],"stateMutability":"view"},{"type":"function","name":"getNodeCount","inputs":[],"outputs":[{"name":"","type":"uint256","internalType":"uint256"}],"stateMutability":"view"},{"type":"function","name":"getPaginatedStreams","inputs":[{"name":"start","type":"uint256","internalType":"uint256"},{"name":"stop","type":"uint256","internalType":"uint256"}],"outputs":[{"name":"","type":"tuple[]","internalType":"struct StreamWithId[]","components":[{"name":"id","type":"bytes32","internalType":"bytes32"},{"name":"stream","type":"tuple","internalType":"struct Stream","components":[{"name":"lastMiniblockHash","type":"bytes32","internalType":"bytes32"},{"name":"lastMiniblockNum","type":"uint64","internalType":"uint64"},{"name":"reserved0","type":"uint64","internalType":"uint64"},{"name":"flags","type":"uint64","internalType":"uint64"},{"name":"nodes","type":"address[]","internalType":"address[]"}]}]},{"name":"","type":"bool","internalType":"bool"}],"stateMutability":"view"},{"type":"function","name":"getStream","inputs":[{"name":"streamId","type":"bytes32","internalType":"bytes32"}],"outputs":[{"name":"","type":"tuple","internalType":"struct Stream","components":[{"name":"lastMiniblockHash","type":"bytes32","internalType":"bytes32"},{"name":"lastMiniblockNum","type":"uint64","internalType":"uint64"},{"name":"reserved0","type":"uint64","internalType":"uint64"},{"name":"flags","type":"uint64","internalType":"uint64"},{"name":"nodes","type":"address[]","internalType":"address[]"}]}],"stateMutability":"view"},{"type":"function","name":"getStreamCount","inputs":[],"outputs":[{"name":"","type":"uint256","internalType":"uint256"}],"stateMutability":"view"},{"type":"function","name":"getStreamCountOnNode","inputs":[{"name":"nodeAddress","type":"address","internalType":"address"}],"outputs":[{"name":"","type":"uint256","internalType":"uint256"}],"stateMutability":"view"},{"type":"function","name":"getStreamWithGenesis","inputs":[{"name":"streamId","type":"bytes32","internalType":"bytes32"}],"outputs":[{"name":"","type":"tuple","internalType":"struct Stream","components":[{"name":"lastMiniblockHash","type":"bytes32","internalType":"bytes32"},{"name":"lastMiniblockNum","type":"uint64","internalType":"uint64"},{"name":"reserved0","type":"uint64","internalType":"uint64"},{"name":"flags","type":"uint64","internalType":"uint64"},{"name":"nodes","type":"address[]","internalType":"address[]"}]},{"name":"","type":"bytes32","internalType":"bytes32"},{"name":"","type":"bytes","internalType":"bytes"}],"stateMutability":"view"},{"type":"function","name":"isConfigurationManager","inputs":[{"name":"manager","type":"address","internalType":"address"}],"outputs":[{"name":"","type":"bool","internalType":"bool"}],"stateMutability":"view"},{"type":"function","name":"isNode","inputs":[{"name":"nodeAddress","type":"address","internalType":"address"}],"outputs":[{"name":"","type":"bool","internalType":"bool"}],"stateMutability":"view"},{"type":"function","name":"isOperator","inputs":[{"name":"operator","type":"address","internalType":"address"}],"outputs":[{"name":"","type":"bool","internalType":"bool"}],"stateMutability":"view"},{"type":"function","name":"isStream","inputs":[{"name":"streamId","type":"bytes32","internalType":"bytes32"}],"outputs":[{"name":"","type":"bool","internalType":"bool"}],"stateMutability":"view"},{"type":"function","name":"placeStreamOnNode","inputs":[{"name":"streamId","type":"bytes32","internalType":"bytes32"},{"name":"nodeAddress","type":"address","internalType":"address"}],"outputs":[],"stateMutability":"nonpayable"},{"type":"function","name":"registerNode","inputs":[{"name":"nodeAddress","type":"address","internalType":"address"},{"name":"url","type":"string","internalType":"string"},{"name":"status","type":"uint8","internalType":"enum NodeStatus"}],"outputs":[],"stateMutability":"nonpayable"},{"type":"function","name":"removeConfigurationManager","inputs":[{"name":"manager","type":"address","internalType":"address"}],"outputs":[],"stateMutability":"nonpayable"},{"type":"function","name":"removeNode","inputs":[{"name":"nodeAddress","type":"address","internalType":"address"}],"outputs":[],"stateMutability":"nonpayable"},{"type":"function","name":"removeOperator","inputs":[{"name":"operator","type":"address","internalType":"address"}],"outputs":[],"stateMutability":"nonpayable"},{"type":"function","name":"removeStreamFromNode","inputs":[{"name":"streamId","type":"bytes32","internalType":"bytes32"},{"name":"nodeAddress","type":"address","internalType":"address"}],"outputs":[],"stateMutability":"nonpayable"},{"type":"function","name":"setConfiguration","inputs":[{"name":"key","type":"bytes32","internalType":"bytes32"},{"name":"blockNumber","type":"uint64","internalType":"uint64"},{"name":"value","type":"bytes","internalType":"bytes"}],"outputs":[],"stateMutability":"nonpayable"},{"type":"function","name":"setStreamLastMiniblock","inputs":[{"name":"streamId","type":"bytes32","internalType":"bytes32"},{"name":"","type":"bytes32","internalType":"bytes32"},{"name":"lastMiniblockHash","type":"bytes32","internalType":"bytes32"},{"name":"lastMiniblockNum","type":"uint64","internalType":"uint64"},{"name":"isSealed","type":"bool","internalType":"bool"}],"outputs":[],"stateMutability":"nonpayable"},{"type":"function","name":"setStreamLastMiniblockBatch","inputs":[{"name":"miniblocks","type":"tuple[]","internalType":"struct SetMiniblock[]","components":[{"name":"streamId","type":"bytes32","internalType":"bytes32"},{"name":"prevMiniBlockHash","type":"bytes32","internalType":"bytes32"},{"name":"lastMiniblockHash","type":"bytes32","internalType":"bytes32"},{"name":"lastMiniblockNum","type":"uint64","internalType":"uint64"},{"name":"isSealed","type":"bool","internalType":"bool"}]}],"outputs":[],"stateMutability":"nonpayable"},{"type":"function","name":"updateNodeStatus","inputs":[{"name":"nodeAddress","type":"address","internalType":"address"},{"name":"status","type":"uint8","internalType":"enum NodeStatus"}],"outputs":[],"stateMutability":"nonpayable"},{"type":"function","name":"updateNodeUrl","inputs":[{"name":"nodeAddress","type":"address","internalType":"address"},{"name":"url","type":"string","internalType":"string"}],"outputs":[],"stateMutability":"nonpayable"},{"type":"event","name":"ConfigurationChanged","inputs":[{"name":"key","type":"bytes32","indexed":false,"internalType":"bytes32"},{"name":"block","type":"uint64","indexed":false,"internalType":"uint64"},{"name":"value","type":"bytes","indexed":false,"internalType":"bytes"},{"name":"deleted","type":"bool","indexed":false,"internalType":"bool"}],"anonymous":false},{"type":"event","name":"ConfigurationManagerAdded","inputs":[{"name":"manager","type":"address","indexed":true,"internalType":"address"}],"anonymous":false},{"type":"event","name":"ConfigurationManagerRemoved","inputs":[{"name":"manager","type":"address","indexed":true,"internalType":"address"}],"anonymous":false},{"type":"event","name":"Initialized","inputs":[{"name":"version","type":"uint32","indexed":false,"internalType":"uint32"}],"anonymous":false},{"type":"event","name":"InterfaceAdded","inputs":[{"name":"interfaceId","type":"bytes4","indexed":true,"internalType":"bytes4"}],"anonymous":false},{"type":"event","name":"InterfaceRemoved","inputs":[{"name":"interfaceId","type":"bytes4","indexed":true,"internalType":"bytes4"}],"anonymous":false},{"type":"event","name":"NodeAdded","inputs":[{"name":"nodeAddress","type":"address","indexed":true,"internalType":"address"},{"name":"operator","type":"address","indexed":true,"internalType":"address"},{"name":"url","type":"string","indexed":false,"internalType":"string"},{"name":"status","type":"uint8","indexed":false,"internalType":"enum NodeStatus"}],"anonymous":false},{"type":"event","name":"NodeRemoved","inputs":[{"name":"nodeAddress","type":"address","indexed":true,"internalType":"address"}],"anonymous":false},{"type":"event","name":"NodeStatusUpdated","inputs":[{"name":"nodeAddress","type":"address","indexed":true,"internalType":"address"},{"name":"status","type":"uint8","indexed":false,"internalType":"enum NodeStatus"}],"anonymous":false},{"type":"event","name":"NodeUrlUpdated","inputs":[{"name":"nodeAddress","type":"address","indexed":true,"internalType":"address"},{"name":"url","type":"string","indexed":false,"internalType":"string"}],"anonymous":false},{"type":"event","name":"OperatorAdded","inputs":[{"name":"operatorAddress","type":"address","indexed":true,"internalType":"address"}],"anonymous":false},{"type":"event","name":"OperatorRemoved","inputs":[{"name":"operatorAddress","type":"address","indexed":true,"internalType":"address"}],"anonymous":false},{"type":"event","name":"OwnershipTransferred","inputs":[{"name":"previousOwner","type":"address","indexed":true,"internalType":"address"},{"name":"newOwner","type":"address","indexed":true,"internalType":"address"}],"anonymous":false},{"type":"event","name":"StreamAllocated","inputs":[{"name":"streamId","type":"bytes32","indexed":false,"internalType":"bytes32"},{"name":"nodes","type":"address[]","indexed":false,"internalType":"address[]"},{"name":"genesisMiniblockHash","type":"bytes32","indexed":false,"internalType":"bytes32"},{"name":"genesisMiniblock","type":"bytes","indexed":false,"internalType":"bytes"}],"anonymous":false},{"type":"event","name":"StreamCreated","inputs":[{"name":"streamId","type":"bytes32","indexed":false,"internalType":"bytes32"},{"name":"genesisMiniblockHash","type":"bytes32","indexed":false,"internalType":"bytes32"},{"name":"stream","type":"tuple","indexed":false,"internalType":"struct Stream","components":[{"name":"lastMiniblockHash","type":"bytes32","internalType":"bytes32"},{"name":"lastMiniblockNum","type":"uint64","internalType":"uint64"},{"name":"reserved0","type":"uint64","internalType":"uint64"},{"name":"flags","type":"uint64","internalType":"uint64"},{"name":"nodes","type":"address[]","internalType":"address[]"}]}],"anonymous":false},{"type":"event","name":"StreamLastMiniblockUpdateFailed","inputs":[{"name":"streamId","type":"bytes32","indexed":false,"internalType":"bytes32"},{"name":"lastMiniblockHash","type":"bytes32","indexed":false,"internalType":"bytes32"},{"name":"lastMiniblockNum","type":"uint64","indexed":false,"internalType":"uint64"},{"name":"reason","type":"string","indexed":false,"internalType":"string"}],"anonymous":false},{"type":"event","name":"StreamLastMiniblockUpdated","inputs":[{"name":"streamId","type":"bytes32","indexed":false,"internalType":"bytes32"},{"name":"lastMiniblockHash","type":"bytes32","indexed":false,"internalType":"bytes32"},{"name":"lastMiniblockNum","type":"uint64","indexed":false,"internalType":"uint64"},{"name":"isSealed","type":"bool","indexed":false,"internalType":"bool"}],"anonymous":false},{"type":"event","name":"StreamPlacementUpdated","inputs":[{"name":"streamId","type":"bytes32","indexed":false,"internalType":"bytes32"},{"name":"nodeAddress","type":"address","indexed":false,"internalType":"address"},{"name":"isAdded","type":"bool","indexed":false,"internalType":"bool"}],"anonymous":false},{"type":"error","name":"Initializable_InInitializingState","inputs":[]},{"type":"error","name":"Initializable_NotInInitializingState","inputs":[]},{"type":"error","name":"Introspection_AlreadySupported","inputs":[]},{"type":"error","name":"Introspection_NotSupported","inputs":[]},{"type":"error","name":"Ownable__NotOwner","inputs":[{"name":"account","type":"address","internalType":"address"}]},{"type":"error","name":"Ownable__ZeroAddress","inputs":[]}],"bytecode":{"object":"0x60806040523480156200001157600080fd5b5060405162004e4938038062004e498339810160408190526200003491620004a6565b6200003e620000c1565b620000493362000169565b60005b8151811015620000b957620000838282815181106200006f576200006f62000578565b60200260200101516200023760201b60201c565b620000b08282815181106200009c576200009c62000578565b60200260200101516200031c60201b60201c565b6001016200004c565b5050620005df565b7f59b501c3653afc186af7d48dda36cf6732bd21629a6295693664240a6ef520008054640100000000900460ff16156200010e576040516366008a2d60e01b815260040160405180910390fd5b805463ffffffff90811610156200016657805463ffffffff191663ffffffff90811782556040519081527fe9c9b456cb2994b80aeef036cf59d26e9617df80f816a6ee5a5b4166e07e2f5c9060200160405180910390a15b50565b60006200019d7f4675fa8241f86f37157864d3d49b85ad4b164352c516da28e1678a90470ae300546001600160a01b031690565b90506001600160a01b038216620001c757604051634e3ef82560e01b815260040160405180910390fd5b817f4675fa8241f86f37157864d3d49b85ad4b164352c516da28e1678a90470ae30080546001600160a01b0319166001600160a01b03928316179055604051838216918316907f8be0079c531659141344cd1fd0a4f28419497f9722a3daafe3b4186f6b6457e090600090a35050565b6001600160a01b038116620002865760408051808201825260078152664241445f41524760c81b6020820152905162461bcd60e51b81526200027d91906004016200058e565b60405180910390fd5b62000293600882620003e9565b15620002d757604080518082018252600e81526d414c52454144595f45584953545360901b6020820152905162461bcd60e51b81526200027d91906004016200058e565b620002e460088262000410565b506040516001600160a01b038216907fac6fa858e9350a46cec16539926e0fde25b7629f84b5a72bffaae4df888ae86d90600090a250565b6001600160a01b038116620003625760408051808201825260078152664241445f41524760c81b6020820152905162461bcd60e51b81526200027d91906004016200058e565b6200036f600d8262000410565b620003b257604080518082018252600e81526d414c52454144595f45584953545360901b6020820152905162461bcd60e51b81526200027d91906004016200058e565b6040516001600160a01b038216907f7afd798379ae2d2e5035438544cea2b60eb1dde6a8128e6d447fd2a25f8825a290600090a250565b6001600160a01b038116600090815260018301602052604081205415155b90505b92915050565b600062000407836001600160a01b03841660008181526001830160205260408120546200046a575081546001818101845560008481526020808220909301849055845484825282860190935260409020919091556200040a565b5060006200040a565b634e487b7160e01b600052604160045260246000fd5b80516001600160a01b0381168114620004a157600080fd5b919050565b60006020808385031215620004ba57600080fd5b82516001600160401b0380821115620004d257600080fd5b818501915085601f830112620004e757600080fd5b815181811115620004fc57620004fc62000473565b8060051b604051601f19603f8301168101818110858211171562000524576200052462000473565b6040529182528482019250838101850191888311156200054357600080fd5b938501935b828510156200056c576200055c8562000489565b8452938501939285019262000548565b98975050505050505050565b634e487b7160e01b600052603260045260246000fd5b60006020808352835180602085015260005b81811015620005be57858101830151858201604001528201620005a0565b506000604082860101526040601f19601f8301168501019250505092915050565b61485a80620005ef6000396000f3fe608060405234801561001057600080fd5b506004361061021c5760003560e01c8063ac8a584a11610125578063ca78c41a116100ad578063d911c6321161007c578063d911c632146104d8578063ee885b12146104e0578063eecc66f4146104f3578063fc207c0114610506578063ff3a14ab1461051957600080fd5b8063ca78c41a1461047e578063d0c27c4f1461049f578063d4bd44a0146104b2578063d7a3158a146104c557600080fd5b8063ba428b1a116100f4578063ba428b1a14610428578063c0f220841461043b578063c179b85f14610443578063c87d132414610456578063c8fe3a011461046957600080fd5b8063ac8a584a146103dc578063b2b99ec9146103ef578063b2e76b8e14610402578063b7f227ee1461041557600080fd5b80636b883c39116101a85780639283ae3a116101775780639283ae3a1461036e5780639d209048146103815780639ee86d38146103a1578063a09449a6146103b4578063a1174e7d146103c757600080fd5b80636b883c39146103225780636d70f7ae146103355780637e4465e714610348578063813049ec1461035b57600080fd5b8063242cae9f116101ef578063242cae9f146102b157806331374511146102c457806339bf397e146102d75780633c2544d1146102ed578063581f8b9b1461030f57600080fd5b80630175015214610221578063035759e114610267578063081814db1461027c5780631290abe814610291575b600080fd5b61025261022f366004613964565b6001600160a01b0390811660009081526007602052604090206002015416151590565b60405190151581526020015b60405180910390f35b61027a61027536600461397f565b61052c565b005b6102846106a0565b60405161025e91906139e8565b6102a461029f36600461397f565b61090b565b60405161025e9190613b03565b61027a6102bf366004613964565b610a2d565b61027a6102d2366004613b16565b610a74565b6102df610b05565b60405190815260200161025e565b6103006102fb36600461397f565b610b16565b60405161025e93929190613b8a565b61027a61031d366004613bce565b610ce7565b61027a610330366004613d4c565b610e87565b610252610343366004613964565b6110e5565b61027a610356366004613df6565b6110f8565b61027a610369366004613964565b6112f0565b61028461037c36600461397f565b6113eb565b61039461038f366004613964565b61154e565b60405161025e9190613ecf565b61027a6103af366004613ee2565b6116cf565b61027a6103c2366004613f1c565b61188d565b6103cf611b5c565b60405161025e9190613fa2565b61027a6103ea366004613964565b611d30565b61027a6103fd366004613964565b611e93565b61027a610410366004614006565b61205c565b61027a6104233660046140c4565b612260565b61027a610436366004613b16565b6124af565b6102df61253b565b61027a610451366004613964565b612546565b6102df610464366004613964565b61258a565b610471612638565b60405161025e919061412c565b61049161048c36600461413f565b612644565b60405161025e929190614161565b6102526104ad36600461397f565b612834565b6102526104c0366004613964565b612840565b61027a6104d33660046141f0565b61284d565b610471612a59565b61027a6104ee366004613ee2565b612a65565b61027a610501366004614240565b612cae565b61025261051436600461397f565b612e79565b61027a61052736600461429d565b612e86565b33610538600d82613231565b61057b5760408051808201825260088152670848288be82aaa8960c31b6020820152905162461bcd60e51b815261057291906004016142ff565b60405180910390fd5b81610587600a82613256565b6105c25760408051808201825260098152681393d517d193d5539160ba1b6020820152905162461bcd60e51b815261057291906004016142ff565b6000838152600c602052604090205415610635576000838152600c602052604090208054806105f3576105f3614312565b60008281526020812060036000199093019283020181815560018101805467ffffffffffffffff191690559061062c60028301826137f3565b505090556105c2565b6000838152600c6020526040812061064c9161382d565b610657600a8461326e565b50604080518481526001600160401b036020820152608081830181905260009082015260016060820152905160008051602061483a8339815191529181900360a00190a1505050565b60606000806106af600a61327a565b905060005b818110156106f05760006106c9600a83613284565b6000818152600c60205260409020549091506106e5908561433e565b9350506001016106b4565b506000826001600160401b0381111561070b5761070b613c01565b60405190808252806020026020018201604052801561075857816020015b604080516060808201835260008083526020830152918101919091528152602001906001900390816107295790505b5090506000610767600a61327a565b90506000805b82811015610900576000610782600a83613284565b6000818152600c6020908152604080832080548251818502810185019093528083529495509293909291849084015b8282101561089557600084815260209081902060408051606081018252600386029092018054835260018101546001600160401b0316938301939093526002830180549293929184019161080490614351565b80601f016020809104026020016040519081016040528092919081815260200182805461083090614351565b801561087d5780601f106108525761010080835404028352916020019161087d565b820191906000526020600020905b81548152906001019060200180831161086057829003601f168201915b505050505081525050815260200190600101906107b1565b50505050905060005b81518110156108f2578181815181106108b9576108b9614385565b60200260200101518786806108cd9061439b565b9750815181106108df576108df614385565b602090810291909101015260010161089e565b50505080600101905061076d565b509195945050505050565b6040805160a081018252600080825260208201819052918101829052606080820183905260808201529061093f9083613256565b61097a5760408051808201825260098152681393d517d193d5539160ba1b6020820152905162461bcd60e51b815261057291906004016142ff565b600082815260026020818152604092839020835160a0810185528154815260018201546001600160401b0380821683860152600160401b8204811683880152600160801b9091041660608201529281018054855181850281018501909652808652939491936080860193830182828015610a1d57602002820191906000526020600020905b81546001600160a01b031681526001909101906020018083116109ff575b5050505050815250509050919050565b610a35613290565b6001600160a01b0316336001600160a01b031614610a68576040516365f4906560e01b8152336004820152602401610572565b610a71816132be565b50565b7f59b501c3653afc186af7d48dda36cf6732bd21629a6295693664240a6ef5200054640100000000900460ff16610abe57604051630ef4733760e31b815260040160405180910390fd5b60005b81811015610b0057610af8838383818110610ade57610ade614385565b9050602002016020810190610af39190613964565b613390565b600101610ac1565b505050565b6000610b11600561327a565b905090565b6040805160a081018252600080825260208201819052918101829052606080820183905260808201819052909190610b4e8285613256565b610b895760408051808201825260098152681393d517d193d5539160ba1b6020820152905162461bcd60e51b815261057291906004016142ff565b600084815260026020818152604080842060048352818520546003845294829020825160a0810184528254815260018301546001600160401b0380821683880152600160401b8204811683870152600160801b90910416606082015294820180548451818702810187019095528085529296959194919387936080860193919291830182828015610c4357602002820191906000526020600020905b81546001600160a01b03168152600190910190602001808311610c25575b5050505050815250509250808054610c5a90614351565b80601f0160208091040260200160405190810160405280929190818152602001828054610c8690614351565b8015610cd35780601f10610ca857610100808354040283529160200191610cd3565b820191906000526020600020905b815481529060010190602001808311610cb657829003601f168201915b505050505090509250925092509193909250565b6001600160a01b03808316600090815260076020526040902060020154839116610d4757604080518082018252600e81526d1393d11157d393d517d193d5539160921b6020820152905162461bcd60e51b815261057291906004016142ff565b33610d53600882613231565b610d8d5760408051808201825260088152670848288be82aaa8960c31b6020820152905162461bcd60e51b815261057291906004016142ff565b6001600160a01b0380851660009081526007602052604090206003015485913391168114610deb5760408051808201825260088152670848288be82aaa8960c31b6020820152905162461bcd60e51b815261057291906004016142ff565b6001600160a01b03861660009081526007602052604090208054610e129060ff1687613455565b80548690829060ff19166001836005811115610e3057610e30613e43565b021790555060028101546040516001600160a01b03909116907f20891cc7622c7951cbd8c70c61a5201eb45625b8c00e8f6c986cfca78f3dbfa090610e769089906143b4565b60405180910390a250505050505050565b336000818152600760205260409020600201546001600160a01b0316610ee357604080518082018252600e81526d1393d11157d393d517d193d5539160921b6020820152905162461bcd60e51b815261057291906004016142ff565b610eee600086613256565b15610f2f57604080518082018252600e81526d414c52454144595f45584953545360901b6020820152905162461bcd60e51b815261057291906004016142ff565b835160005b81811015610fb457610f6c868281518110610f5157610f51614385565b6020026020010151600060050161323190919063ffffffff16565b610fac57604080518082018252600e81526d1393d11157d393d517d193d5539160921b6020820152905162461bcd60e51b815261057291906004016142ff565b600101610f34565b506040805160a081018252858152600060208201819052918101829052606081018290526080810187905290610fea90886135e8565b5060008781526002602081815260409283902084518155818501516001820180549587015160608801516001600160401b03908116600160801b0267ffffffffffffffff60801b19928216600160401b026001600160801b03199099169190941617969096179590951617909355608084015180518594936110719390850192019061384e565b505050600087815260036020526040902061108c8582614427565b5060008781526004602052604090819020869055517f55ef7efc60ef99743e54209752c9a8e047e013917ec91572db75875069dd65bb906110d49089908990899089906144e0565b60405180910390a150505050505050565b60006110f2600883613231565b92915050565b33611104600882613231565b61113e5760408051808201825260088152670848288be82aaa8960c31b6020820152905162461bcd60e51b815261057291906004016142ff565b6001600160a01b0380841660009081526007602052604090206002015484911661119e57604080518082018252600e81526d1393d11157d393d517d193d5539160921b6020820152905162461bcd60e51b815261057291906004016142ff565b6001600160a01b03808516600090815260076020526040902060030154859133911681146111fc5760408051808201825260088152670848288be82aaa8960c31b6020820152905162461bcd60e51b815261057291906004016142ff565b6001600160a01b038616600090815260076020908152604091829020915161122691889101614511565b6040516020818303038152906040528051906020012081600101604051602001611250919061452d565b60405160208183030381529060405280519060200120036112a05760408051808201825260078152664241445f41524760c81b6020820152905162461bcd60e51b815261057291906004016142ff565b600181016112ae8782614427565b5060028101546040516001600160a01b03909116907f4505168a8705a16fd4d0575197fd0f510db69df93a065e158ad2c0957ba12bac90610e769089906142ff565b6112f8613290565b6001600160a01b0316336001600160a01b03161461132b576040516365f4906560e01b8152336004820152602401610572565b6001600160a01b03811661136e5760408051808201825260078152664241445f41524760c81b6020820152905162461bcd60e51b815261057291906004016142ff565b611379600d826135f4565b6113b45760408051808201825260098152681393d517d193d5539160ba1b6020820152905162461bcd60e51b815261057291906004016142ff565b6040516001600160a01b038216907ff9889c857e5356066b564327caa757c325ecbc001b2b47d72edf8cf9aedb1be590600090a250565b6060816113f9600a82613256565b6114345760408051808201825260098152681393d517d193d5539160ba1b6020820152905162461bcd60e51b815261057291906004016142ff565b6000838152600c6020908152604080832080548251818502810185019093528083529193909284015b8282101561154157600084815260209081902060408051606081018252600386029092018054835260018101546001600160401b031693830193909352600283018054929392918401916114b090614351565b80601f01602080910402602001604051908101604052809291908181526020018280546114dc90614351565b80156115295780601f106114fe57610100808354040283529160200191611529565b820191906000526020600020905b81548152906001019060200180831161150c57829003601f168201915b5050505050815250508152602001906001019061145d565b5050505091505b50919050565b6115796040805160808101909152806000815260606020820181905260006040830181905291015290565b611584600583613231565b6115c457604080518082018252600e81526d1393d11157d393d517d193d5539160921b6020820152905162461bcd60e51b815261057291906004016142ff565b6001600160a01b038216600090815260076020526040908190208151608081019092528054829060ff1660058111156115ff576115ff613e43565b600581111561161057611610613e43565b815260200160018201805461162490614351565b80601f016020809104026020016040519081016040528092919081815260200182805461165090614351565b801561169d5780601f106116725761010080835404028352916020019161169d565b820191906000526020600020905b81548152906001019060200180831161168057829003601f168201915b505050918352505060028201546001600160a01b03908116602083015260039092015490911660409091015292915050565b816116db600082613256565b6117165760408051808201825260098152681393d517d193d5539160ba1b6020820152905162461bcd60e51b815261057291906004016142ff565b336000818152600760205260409020600201546001600160a01b031661177257604080518082018252600e81526d1393d11157d393d517d193d5539160921b6020820152905162461bcd60e51b815261057291906004016142ff565b600084815260026020819052604082209081015490915b8181101561180e57856001600160a01b03168360020182815481106117b0576117b0614385565b6000918252602090912001546001600160a01b03160361180657604080518082018252600e81526d414c52454144595f45584953545360901b6020820152905162461bcd60e51b815261057291906004016142ff565b600101611789565b5060028201805460018082018355600092835260209283902090910180546001600160a01b0319166001600160a01b038916908117909155604080518a8152938401919091528201527faaa473c28a5fe04b6a7ecd795826e462f9d0c23f00ef9f51ec02fa6ea418806f906060015b60405180910390a1505050505050565b33611899600d82613231565b6118d35760408051808201825260088152670848288be82aaa8960c31b6020820152905162461bcd60e51b815261057291906004016142ff565b67fffffffffffffffe196001600160401b038516016119215760408051808201825260078152664241445f41524760c81b6020820152905162461bcd60e51b815261057291906004016142ff565b600082900361195f5760408051808201825260078152664241445f41524760c81b6020820152905162461bcd60e51b815261057291906004016142ff565b61196a600a86613256565b61197b57611979600a866135e8565b505b6000858152600c6020526040812054905b81811015611a62576000878152600c6020526040902080546001600160401b0388169190839081106119c0576119c0614385565b60009182526020909120600160039092020101546001600160401b031603611a5a576000878152600c6020526040902080548691869184908110611a0657611a06614385565b90600052602060002090600302016002019182611a249291906145a3565b5060008051602061483a833981519152878787876000604051611a4b95949392919061465c565b60405180910390a15050611b55565b60010161198c565b506000600c0160008781526020019081526020016000206040518060600160405280888152602001876001600160401b0316815260200186868080601f0160208091040260200160405190810160405280939291908181526020018383808284376000920182905250939094525050835460018082018655948252602091829020845160039092020190815590830151938101805467ffffffffffffffff19166001600160401b03909516949094179093555060408101519091906002820190611b2c9082614427565b50505060008051602061483a83398151915286868686600060405161187d95949392919061465c565b5050505050565b60606000611b6a600561327a565b6001600160401b03811115611b8157611b81613c01565b604051908082528060200260200182016040528015611bdd57816020015b611bca6040805160808101909152806000815260606020820181905260006040830181905291015290565b815260200190600190039081611b9f5790505b50905060005b611bed600561327a565b8110156115485760076000611c03600584613284565b6001600160a01b03168152602081019190915260409081016000208151608081019092528054829060ff166005811115611c3f57611c3f613e43565b6005811115611c5057611c50613e43565b8152602001600182018054611c6490614351565b80601f0160208091040260200160405190810160405280929190818152602001828054611c9090614351565b8015611cdd5780601f10611cb257610100808354040283529160200191611cdd565b820191906000526020600020905b815481529060010190602001808311611cc057829003601f168201915b505050918352505060028201546001600160a01b0390811660208301526003909201549091166040909101528251839083908110611d1d57611d1d614385565b6020908102919091010152600101611be3565b611d38613290565b6001600160a01b0316336001600160a01b031614611d6b576040516365f4906560e01b8152336004820152602401610572565b611d76600882613231565b611dba57604080518082018252601281527113d41154905513d497d393d517d193d5539160721b6020820152905162461bcd60e51b815261057291906004016142ff565b60005b611dc7600561327a565b811015611e4f576001600160a01b03821660076000611de7600585613284565b6001600160a01b0390811682526020820192909252604001600020600301541603611e4757604080518082018252600d81526c4f55545f4f465f424f554e445360981b6020820152905162461bcd60e51b815261057291906004016142ff565b600101611dbd565b50611e5b6008826135f4565b506040516001600160a01b038216907f80c0b871b97b595b16a7741c1b06fed0c6f6f558639f18ccbce50724325dc40d90600090a250565b6001600160a01b0380821660009081526007602052604090206003015482913391168114611ef15760408051808201825260088152670848288be82aaa8960c31b6020820152905162461bcd60e51b815261057291906004016142ff565b6001600160a01b0383811660009081526007602052604090206002015416611f4f57604080518082018252600e81526d1393d11157d393d517d193d5539160921b6020820152905162461bcd60e51b815261057291906004016142ff565b60056001600160a01b03841660009081526007602052604090205460ff166005811115611f7e57611f7e613e43565b14611fc75760408051808201825260168152751393d11157d4d510551157d393d517d0531313d5d15160521b6020820152905162461bcd60e51b815261057291906004016142ff565b611fd26005846135f4565b506001600160a01b0383166000908152600760205260408120805460ff191681559061200160018301826137f3565b506002810180546001600160a01b03199081169091556003909101805490911690556040516001600160a01b038416907fcfc24166db4bb677e857cacabd1541fb2b30645021b27c5130419589b84db52b90600090a2505050565b336000818152600760205260409020600201546001600160a01b03166120b857604080518082018252600e81526d1393d11157d393d517d193d5539160921b6020820152905162461bcd60e51b815261057291906004016142ff565b6120c3600085613256565b1561210457604080518082018252600e81526d414c52454144595f45584953545360901b6020820152905162461bcd60e51b815261057291906004016142ff565b60808201515160005b818110156121765761212e84608001518281518110610f5157610f51614385565b61216e57604080518082018252600e81526d1393d11157d393d517d193d5539160921b6020820152905162461bcd60e51b815261057291906004016142ff565b60010161210d565b506121826000866135e8565b5060008581526002602081815260409283902086518155818701516001820180549589015160608a01516001600160401b03908116600160801b0267ffffffffffffffff60801b19928216600160401b026001600160801b03199099169190941617969096179590951617909355608086015180518794936122099390850192019061384e565b50505060008581526004602052604090819020859055517fac1b69e6e0382c43def3cccabf63091ba47b5d8b10a705d16a1076668643fe4d90612251908790879087906146ac565b60405180910390a15050505050565b3361226c600d82613231565b6122a65760408051808201825260088152670848288be82aaa8960c31b6020820152905162461bcd60e51b815261057291906004016142ff565b6000805b6000858152600c6020526040902054811015612427576000858152600c6020526040902080546001600160401b0386169190839081106122ec576122ec614385565b60009182526020909120600160039092020101546001600160401b03160361241f576000858152600c60205260409020805461232a906001906146d4565b8154811061233a5761233a614385565b90600052602060002090600302016000600c016000878152602001908152602001600020828154811061236f5761236f614385565b600091825260209091208254600390920201908155600180830154908201805467ffffffffffffffff19166001600160401b039092169190911790556002808201906123bd908401826146e7565b5050506000858152600c602052604090208054806123dd576123dd614312565b60008281526020812060036000199093019283020181815560018101805467ffffffffffffffff191690559061241660028301826137f3565b50509055600191505b6001016122aa565b50806124645760408051808201825260098152681393d517d193d5539160ba1b6020820152905162461bcd60e51b815261057291906004016142ff565b604080518581526001600160401b0385166020820152608081830181905260009082015260016060820152905160008051602061483a8339815191529181900360a00190a150505050565b7f59b501c3653afc186af7d48dda36cf6732bd21629a6295693664240a6ef5200054640100000000900460ff166124f957604051630ef4733760e31b815260040160405180910390fd5b60005b81811015610b005761253383838381811061251957612519614385565b905060200201602081019061252e9190613964565b6132be565b6001016124fc565b6000610b118161327a565b61254e613290565b6001600160a01b0316336001600160a01b031614612581576040516365f4906560e01b8152336004820152602401610572565b610a7181613390565b600080806125978161327a565b905060005b8181101561262f5760006125b08183613284565b60008181526002602052604081209192505b600282015481101561262157876001600160a01b03168260020182815481106125ed576125ed614385565b6000918252602090912001546001600160a01b03160361261957856126118161439b565b965050612621565b6001016125c2565b50505080600101905061259c565b50909392505050565b6060610b116005613609565b606060008284106126845760408051808201825260078152664241445f41524760c81b6020820152905162461bcd60e51b815261057291906004016142ff565b600061268f8161327a565b905060008185116126a057846126a2565b815b905060008682116126b45760006126be565b6126be87836146d4565b90506000816001600160401b038111156126da576126da613c01565b60405190808252806020026020018201604052801561271357816020015b6127006138b3565b8152602001906001900390816126f85790505b50905060005b82811015612823576000612738612730838c61433e565b600090613284565b60408051808201825282815260008381526002602081815291849020845160a0810186528154815260018201546001600160401b0380821683870152600160401b8204811683890152600160801b90910416606082015291810180548651818602810186019097528087529697509395838701959294919360808601939291908301828280156127f157602002820191906000526020600020905b81546001600160a01b031681526001909101906020018083116127d3575b50505050508152505081525083838151811061280f5761280f614385565b602090810291909101015250600101612719565b509450505083101590509250929050565b60006110f28183613256565b60006110f2600d83613231565b336000818152600760205260409020600201546001600160a01b03166128a957604080518082018252600e81526d1393d11157d393d517d193d5539160921b6020820152905162461bcd60e51b815261057291906004016142ff565b6128b4600087613256565b6128ef5760408051808201825260098152681393d517d193d5539160ba1b6020820152905162461bcd60e51b815261057291906004016142ff565b6000868152600260205260409020600180820154600160801b9004161561294b57604080518082018252600d81526c14d51491505357d4d150531151609a1b6020820152905162461bcd60e51b815261057291906004016142ff565b60018101546001600160401b038086169116106129975760408051808201825260078152664241445f41524760c81b6020820152905162461bcd60e51b815261057291906004016142ff565b60008781526003602052604081206129ae916137f3565b84815560018101805467ffffffffffffffff19166001600160401b0386161790558215612a08576001818101805467ffffffffffffffff60801b198116600160801b918290046001600160401b0316909317029190911790555b60408051888152602081018790526001600160401b0386169181019190915283151560608201527fccc26bbb6dd655ea0bb8a40a3c30e35c6bdf42f8faf0d71bbea897af768cda8b906080016110d4565b6060610b116008613609565b81612a71600082613256565b612aac5760408051808201825260098152681393d517d193d5539160ba1b6020820152905162461bcd60e51b815261057291906004016142ff565b336000818152600760205260409020600201546001600160a01b0316612b0857604080518082018252600e81526d1393d11157d393d517d193d5539160921b6020820152905162461bcd60e51b815261057291906004016142ff565b6000848152600260208190526040822090810154909190815b81811015612c2357866001600160a01b0316846002018281548110612b4857612b48614385565b6000918252602090912001546001600160a01b031603612c1b5760028401612b716001846146d4565b81548110612b8157612b81614385565b6000918252602090912001546002850180546001600160a01b039092169183908110612baf57612baf614385565b9060005260206000200160006101000a8154816001600160a01b0302191690836001600160a01b0316021790555083600201805480612bf057612bf0614312565b600082815260209020810160001990810180546001600160a01b031916905501905560019250612c23565b600101612b21565b5081612c6557604080518082018252600e81526d1393d11157d393d517d193d5539160921b6020820152905162461bcd60e51b815261057291906004016142ff565b604080518881526001600160a01b03881660208201526000918101919091527faaa473c28a5fe04b6a7ecd795826e462f9d0c23f00ef9f51ec02fa6ea418806f906060016110d4565b33612cba600882613231565b612cf45760408051808201825260088152670848288be82aaa8960c31b6020820152905162461bcd60e51b815261057291906004016142ff565b6001600160a01b038481166000908152600760205260409020600201541615612d5357604080518082018252600e81526d414c52454144595f45584953545360901b6020820152905162461bcd60e51b815261057291906004016142ff565b60006040518060800160405280846005811115612d7257612d72613e43565b8152602081018690526001600160a01b0387166040820152336060909101529050612d9e600586613616565b506001600160a01b03851660009081526007602052604090208151815483929190829060ff19166001836005811115612dd957612dd9613e43565b021790555060208201516001820190612df29082614427565b506040828101516002830180546001600160a01b03199081166001600160a01b03938416179091556060909401516003909301805490941692811692909217909255905133918716907f759154d15a6aec80ceab7bc8820f46ebc53ad68bb18f47afb77483fea9dcc9ff90612e6a90889088906147b3565b60405180910390a35050505050565b60006110f2600a83613256565b336000818152600760205260409020600201546001600160a01b0316612ee257604080518082018252600e81526d1393d11157d393d517d193d5539160921b6020820152905162461bcd60e51b815261057291906004016142ff565b816000819003612f215760408051808201825260078152664241445f41524760c81b6020820152905162461bcd60e51b815261057291906004016142ff565b60005b81811015611b555736858583818110612f3f57612f3f614385565b60a002919091019150612f56905060008235613256565b612fce577f75460fe319331413a18a82d99b07735cec53fa0c4061ada38c2141e331082afa81356040830135612f9260808501606086016147d5565b60408051808201825260098152681393d517d193d5539160ba1b60208201529051612fc094939291906147f0565b60405180910390a150613229565b80356000908152600260205260409020600180820154600160801b9004161561306a577f75460fe319331413a18a82d99b07735cec53fa0c4061ada38c2141e331082afa8235604084013561302960808601606087016147d5565b604080518082018252600d81526c14d51491505357d4d150531151609a1b6020820152905161305b94939291906147f0565b60405180910390a15050613229565b61307a60808301606084016147d5565b60018201546001600160401b039182169116106130f5577f75460fe319331413a18a82d99b07735cec53fa0c4061ada38c2141e331082afa823560408401356130c960808601606087016147d5565b60408051808201825260078152664241445f41524760c81b6020820152905161305b94939291906147f0565b60018101546001600160401b03166000036131235781356000908152600360205260408120613123916137f3565b6040820135815561313a60808301606084016147d5565b60018201805467ffffffffffffffff19166001600160401b039290921691909117905561316d60a083016080840161481e565b156131a5576001818101805467ffffffffffffffff60801b198116600160801b918290046001600160401b0316909317029190911790555b7fccc26bbb6dd655ea0bb8a40a3c30e35c6bdf42f8faf0d71bbea897af768cda8b823560408401356131dd60808601606087016147d5565b6131ed60a087016080880161481e565b60405161321e949392919093845260208401929092526001600160401b031660408301521515606082015260800190565b60405180910390a150505b600101612f24565b6001600160a01b038116600090815260018301602052604081205415155b9392505050565b6000818152600183016020526040812054151561324f565b600061324f838361362b565b60006110f2825490565b600061324f838361371e565b7f4675fa8241f86f37157864d3d49b85ad4b164352c516da28e1678a90470ae300546001600160a01b031690565b6001600160a01b0381166133015760408051808201825260078152664241445f41524760c81b6020820152905162461bcd60e51b815261057291906004016142ff565b61330c600882613231565b1561334d57604080518082018252600e81526d414c52454144595f45584953545360901b6020820152905162461bcd60e51b815261057291906004016142ff565b613358600882613616565b506040516001600160a01b038216907fac6fa858e9350a46cec16539926e0fde25b7629f84b5a72bffaae4df888ae86d90600090a250565b6001600160a01b0381166133d35760408051808201825260078152664241445f41524760c81b6020820152905162461bcd60e51b815261057291906004016142ff565b6133de600d82613616565b61341e57604080518082018252600e81526d414c52454144595f45584953545360901b6020820152905162461bcd60e51b815261057291906004016142ff565b6040516001600160a01b038216907f7afd798379ae2d2e5035438544cea2b60eb1dde6a8128e6d447fd2a25f8825a290600090a250565b600082600581111561346957613469613e43565b14806134bd5750600182600581111561348457613484613e43565b1480156134bd575060038160058111156134a0576134a0613e43565b14806134bd575060048160058111156134bb576134bb613e43565b145b80613510575060028260058111156134d7576134d7613e43565b148015613510575060038160058111156134f3576134f3613e43565b14806135105750600481600581111561350e5761350e613e43565b145b806135635750600482600581111561352a5761352a613e43565b1480156135635750600381600581111561354657613546613e43565b14806135635750600581600581111561356157613561613e43565b145b8061359b5750600382600581111561357d5761357d613e43565b14801561359b5750600581600581111561359957613599613e43565b145b156135a4575050565b60408051808201825260168152751393d11157d4d510551157d393d517d0531313d5d15160521b6020820152905162461bcd60e51b815261057291906004016142ff565b600061324f8383613748565b600061324f836001600160a01b03841661362b565b6060600061324f83613797565b600061324f836001600160a01b038416613748565b6000818152600183016020526040812054801561371457600061364f6001836146d4565b8554909150600090613663906001906146d4565b90508082146136c857600086600001828154811061368357613683614385565b90600052602060002001549050808760000184815481106136a6576136a6614385565b6000918252602080832090910192909255918252600188019052604090208390555b85548690806136d9576136d9614312565b6001900381819060005260206000200160009055905585600101600086815260200190815260200160002060009055600193505050506110f2565b60009150506110f2565b600082600001828154811061373557613735614385565b9060005260206000200154905092915050565b600081815260018301602052604081205461378f575081546001818101845560008481526020808220909301849055845484825282860190935260409020919091556110f2565b5060006110f2565b6060816000018054806020026020016040519081016040528092919081815260200182805480156137e757602002820191906000526020600020905b8154815260200190600101908083116137d3575b50505050509050919050565b5080546137ff90614351565b6000825580601f1061380f575050565b601f016020900490600052602060002090810190610a7191906138fd565b5080546000825560030290600052602060002090810190610a719190613912565b8280548282559060005260206000209081019282156138a3579160200282015b828111156138a357825182546001600160a01b0319166001600160a01b0390911617825560209092019160019091019061386e565b506138af9291506138fd565b5090565b6040805180820190915260008152602081016138f86040805160a081018252600080825260208201819052918101829052606080820192909252608081019190915290565b905290565b5b808211156138af57600081556001016138fe565b808211156138af57600080825560018201805467ffffffffffffffff1916905561393f60028301826137f3565b50600301613912565b80356001600160a01b038116811461395f57600080fd5b919050565b60006020828403121561397657600080fd5b61324f82613948565b60006020828403121561399157600080fd5b5035919050565b60005b838110156139b357818101518382015260200161399b565b50506000910152565b600081518084526139d4816020860160208601613998565b601f01601f19169290920160200192915050565b600060208083018184528085518083526040925060408601915060408160051b87010184880160005b83811015613a6457888303603f19018552815180518452878101516001600160401b0316888501528601516060878501819052613a50818601836139bc565b968901969450505090860190600101613a11565b509098975050505050505050565b600060a08301825184526020808401516001600160401b0380821660208801528060408701511660408801528060608701511660608801525050608084015160a0608087015282815180855260c088019150602083019450600092505b80831015613af85784516001600160a01b03168252938301936001929092019190830190613acf565b509695505050505050565b60208152600061324f6020830184613a72565b60008060208385031215613b2957600080fd5b82356001600160401b0380821115613b4057600080fd5b818501915085601f830112613b5457600080fd5b813581811115613b6357600080fd5b8660208260051b8501011115613b7857600080fd5b60209290920196919550909350505050565b606081526000613b9d6060830186613a72565b8460208401528281036040840152613bb581856139bc565b9695505050505050565b80356006811061395f57600080fd5b60008060408385031215613be157600080fd5b613bea83613948565b9150613bf860208401613bbf565b90509250929050565b634e487b7160e01b600052604160045260246000fd5b60405160a081016001600160401b0381118282101715613c3957613c39613c01565b60405290565b604051601f8201601f191681016001600160401b0381118282101715613c6757613c67613c01565b604052919050565b600082601f830112613c8057600080fd5b813560206001600160401b03821115613c9b57613c9b613c01565b8160051b613caa828201613c3f565b9283528481018201928281019087851115613cc457600080fd5b83870192505b84831015613cea57613cdb83613948565b82529183019190830190613cca565b979650505050505050565b60006001600160401b03831115613d0e57613d0e613c01565b613d21601f8401601f1916602001613c3f565b9050828152838383011115613d3557600080fd5b828260208301376000602084830101529392505050565b60008060008060808587031215613d6257600080fd5b8435935060208501356001600160401b0380821115613d8057600080fd5b613d8c88838901613c6f565b9450604087013593506060870135915080821115613da957600080fd5b508501601f81018713613dbb57600080fd5b613dca87823560208401613cf5565b91505092959194509250565b600082601f830112613de757600080fd5b61324f83833560208501613cf5565b60008060408385031215613e0957600080fd5b613e1283613948565b915060208301356001600160401b03811115613e2d57600080fd5b613e3985828601613dd6565b9150509250929050565b634e487b7160e01b600052602160045260246000fd5b60068110613e7757634e487b7160e01b600052602160045260246000fd5b9052565b613e86828251613e59565b6000602082015160806020850152613ea160808501826139bc565b6040848101516001600160a01b03908116918701919091526060948501511693909401929092525090919050565b60208152600061324f6020830184613e7b565b60008060408385031215613ef557600080fd5b82359150613bf860208401613948565b80356001600160401b038116811461395f57600080fd5b60008060008060608587031215613f3257600080fd5b84359350613f4260208601613f05565b925060408501356001600160401b0380821115613f5e57600080fd5b818701915087601f830112613f7257600080fd5b813581811115613f8157600080fd5b886020828501011115613f9357600080fd5b95989497505060200194505050565b600060208083016020845280855180835260408601915060408160051b87010192506020870160005b82811015613ff957603f19888603018452613fe7858351613e7b565b94509285019290850190600101613fcb565b5092979650505050505050565b60008060006060848603121561401b57600080fd5b833592506020840135915060408401356001600160401b038082111561404057600080fd5b9085019060a0828803121561405457600080fd5b61405c613c17565b8235815261406c60208401613f05565b602082015261407d60408401613f05565b604082015261408e60608401613f05565b60608201526080830135828111156140a557600080fd5b6140b189828601613c6f565b6080830152508093505050509250925092565b600080604083850312156140d757600080fd5b82359150613bf860208401613f05565b60008151808452602080850194506020840160005b838110156141215781516001600160a01b0316875295820195908201906001016140fc565b509495945050505050565b60208152600061324f60208301846140e7565b6000806040838503121561415257600080fd5b50508035926020909101359150565b600060408083016040845280865180835260608601915060608160051b8701019250602080890160005b838110156141ca57888603605f190185528151805187528301518387018890526141b788880182613a72565b965050938201939082019060010161418b565b5050961515959096019490945295945050505050565b8035801515811461395f57600080fd5b600080600080600060a0868803121561420857600080fd5b85359450602086013593506040860135925061422660608701613f05565b9150614234608087016141e0565b90509295509295909350565b60008060006060848603121561425557600080fd5b61425e84613948565b925060208401356001600160401b0381111561427957600080fd5b61428586828701613dd6565b92505061429460408501613bbf565b90509250925092565b600080602083850312156142b057600080fd5b82356001600160401b03808211156142c757600080fd5b818501915085601f8301126142db57600080fd5b8135818111156142ea57600080fd5b86602060a083028501011115613b7857600080fd5b60208152600061324f60208301846139bc565b634e487b7160e01b600052603160045260246000fd5b634e487b7160e01b600052601160045260246000fd5b808201808211156110f2576110f2614328565b600181811c9082168061436557607f821691505b60208210810361154857634e487b7160e01b600052602260045260246000fd5b634e487b7160e01b600052603260045260246000fd5b6000600182016143ad576143ad614328565b5060010190565b602081016110f28284613e59565b601f821115610b00576000816000526020600020601f850160051c810160208610156143eb5750805b601f850160051c820191505b8181101561440a578281556001016143f7565b505050505050565b600019600383901b1c191660019190911b1790565b81516001600160401b0381111561444057614440613c01565b6144548161444e8454614351565b846143c2565b602080601f83116001811461448357600084156144715750858301515b61447b8582614412565b86555061440a565b600085815260208120601f198616915b828110156144b257888601518255948401946001909101908401614493565b50858210156144d05787850151600019600388901b60f8161c191681555b5050505050600190811b01905550565b8481526080602082015260006144f960808301866140e7565b8460408401528281036060840152613cea81856139bc565b60008251614523818460208701613998565b9190910192915050565b600080835461453b81614351565b60018281168015614553576001811461456857614597565b60ff1984168752821515830287019450614597565b8760005260208060002060005b8581101561458e5781548a820152908401908201614575565b50505082870194505b50929695505050505050565b6001600160401b038311156145ba576145ba613c01565b6145ce836145c88354614351565b836143c2565b6000601f8411600181146145fc57600085156145ea5750838201355b6145f48682614412565b845550611b55565b600083815260209020601f19861690835b8281101561462d578685013582556020948501946001909201910161460d565b508682101561464a5760001960f88860031b161c19848701351681555b505060018560011b0183555050505050565b8581526001600160401b038516602082015260806040820152826080820152828460a0830137600081840160a0908101919091529115156060820152601f909201601f1916909101019392505050565b8381528260208201526060604082015260006146cb6060830184613a72565b95945050505050565b818103818111156110f2576110f2614328565b8181036146f2575050565b6146fc8254614351565b6001600160401b0381111561471357614713613c01565b6147218161444e8454614351565b6000601f82116001811461474f576000831561473d5750848201545b6147478482614412565b855550611b55565b600085815260209020601f19841690600086815260209020845b838110156147895782860154825560019586019590910190602001614769565b50858310156144d05793015460001960f8600387901b161c19169092555050600190811b01905550565b6040815260006147c660408301856139bc565b905061324f6020830184613e59565b6000602082840312156147e757600080fd5b61324f82613f05565b8481528360208201526001600160401b0383166040820152608060608201526000613bb560808301846139bc565b60006020828403121561483057600080fd5b61324f826141e056fec01483261a841a868b99cb8802faed4ea44a1a816651c4f7ee061a96a205fe98","linkReferences":{}},"methodIdentifiers":{"__OperatorRegistry_init(address[])":"ba428b1a","__RiverConfig_init(address[])":"31374511","addStream(bytes32,bytes32,(bytes32,uint64,uint64,uint64,address[]))":"b2e76b8e","allocateStream(bytes32,address[],bytes32,bytes)":"6b883c39","approveConfigurationManager(address)":"c179b85f","approveOperator(address)":"242cae9f","configurationExists(bytes32)":"fc207c01","deleteConfiguration(bytes32)":"035759e1","deleteConfigurationOnBlock(bytes32,uint64)":"b7f227ee","getAllConfiguration()":"081814db","getAllNodeAddresses()":"c8fe3a01","getAllNodes()":"a1174e7d","getAllOperators()":"d911c632","getConfiguration(bytes32)":"9283ae3a","getNode(address)":"9d209048","getNodeCount()":"39bf397e","getPaginatedStreams(uint256,uint256)":"ca78c41a","getStream(bytes32)":"1290abe8","getStreamCount()":"c0f22084","getStreamCountOnNode(address)":"c87d1324","getStreamWithGenesis(bytes32)":"3c2544d1","isConfigurationManager(address)":"d4bd44a0","isNode(address)":"01750152","isOperator(address)":"6d70f7ae","isStream(bytes32)":"d0c27c4f","placeStreamOnNode(bytes32,address)":"9ee86d38","registerNode(address,string,uint8)":"eecc66f4","removeConfigurationManager(address)":"813049ec","removeNode(address)":"b2b99ec9","removeOperator(address)":"ac8a584a","removeStreamFromNode(bytes32,address)":"ee885b12","setConfiguration(bytes32,uint64,bytes)":"a09449a6","setStreamLastMiniblock(bytes32,bytes32,bytes32,uint64,bool)":"d7a3158a","setStreamLastMiniblockBatch((bytes32,bytes32,bytes32,uint64,bool)[])":"ff3a14ab","updateNodeStatus(address,uint8)":"581f8b9b","updateNodeUrl(address,string)":"7e4465e7"},"id":395}