{"abi":[{"type":"constructor","inputs":[{"name":"approvedOperators","type":"address[]","internalType":"address[]"}],"stateMutability":"nonpayable"},{"type":"function","name":"__OperatorRegistry_init","inputs":[{"name":"initialOperators","type":"address[]","internalType":"address[]"}],"outputs":[],"stateMutability":"nonpayable"},{"type":"function","name":"__RiverConfig_init","inputs":[{"name":"configManagers","type":"address[]","internalType":"address[]"}],"outputs":[],"stateMutability":"nonpayable"},{"type":"function","name":"allocateStream","inputs":[{"name":"streamId","type":"bytes32","internalType":"bytes32"},{"name":"nodes","type":"address[]","internalType":"address[]"},{"name":"genesisMiniblockHash","type":"bytes32","internalType":"bytes32"},{"name":"genesisMiniblock","type":"bytes","internalType":"bytes"}],"outputs":[],"stateMutability":"nonpayable"},{"type":"function","name":"approveConfigurationManager","inputs":[{"name":"manager","type":"address","internalType":"address"}],"outputs":[],"stateMutability":"nonpayable"},{"type":"function","name":"approveOperator","inputs":[{"name":"operator","type":"address","internalType":"address"}],"outputs":[],"stateMutability":"nonpayable"},{"type":"function","name":"configurationExists","inputs":[{"name":"key","type":"bytes32","internalType":"bytes32"}],"outputs":[{"name":"","type":"bool","internalType":"bool"}],"stateMutability":"view"},{"type":"function","name":"deleteConfiguration","inputs":[{"name":"key","type":"bytes32","internalType":"bytes32"}],"outputs":[],"stateMutability":"nonpayable"},{"type":"function","name":"deleteConfigurationOnBlock","inputs":[{"name":"key","type":"bytes32","internalType":"bytes32"},{"name":"blockNumber","type":"uint64","internalType":"uint64"}],"outputs":[],"stateMutability":"nonpayable"},{"type":"function","name":"getAllConfiguration","inputs":[],"outputs":[{"name":"","type":"tuple[]","internalType":"struct Setting[]","components":[{"name":"key","type":"bytes32","internalType":"bytes32"},{"name":"blockNumber","type":"uint64","internalType":"uint64"},{"name":"value","type":"bytes","internalType":"bytes"}]}],"stateMutability":"view"},{"type":"function","name":"getAllNodeAddresses","inputs":[],"outputs":[{"name":"","type":"address[]","internalType":"address[]"}],"stateMutability":"view"},{"type":"function","name":"getAllNodes","inputs":[],"outputs":[{"name":"","type":"tuple[]","internalType":"struct Node[]","components":[{"name":"status","type":"uint8","internalType":"enum NodeStatus"},{"name":"url","type":"string","internalType":"string"},{"name":"nodeAddress","type":"address","internalType":"address"},{"name":"operator","type":"address","internalType":"address"}]}],"stateMutability":"view"},{"type":"function","name":"getAllOperators","inputs":[],"outputs":[{"name":"","type":"address[]","internalType":"address[]"}],"stateMutability":"view"},{"type":"function","name":"getAllStreamIds","inputs":[],"outputs":[{"name":"","type":"bytes32[]","internalType":"bytes32[]"}],"stateMutability":"view"},{"type":"function","name":"getAllStreams","inputs":[],"outputs":[{"name":"","type":"tuple[]","internalType":"struct StreamWithId[]","components":[{"name":"id","type":"bytes32","internalType":"bytes32"},{"name":"stream","type":"tuple","internalType":"struct Stream","components":[{"name":"lastMiniblockHash","type":"bytes32","internalType":"bytes32"},{"name":"lastMiniblockNum","type":"uint64","internalType":"uint64"},{"name":"reserved0","type":"uint64","internalType":"uint64"},{"name":"flags","type":"uint64","internalType":"uint64"},{"name":"nodes","type":"address[]","internalType":"address[]"}]}]}],"stateMutability":"view"},{"type":"function","name":"getConfiguration","inputs":[{"name":"key","type":"bytes32","internalType":"bytes32"}],"outputs":[{"name":"","type":"tuple[]","internalType":"struct Setting[]","components":[{"name":"key","type":"bytes32","internalType":"bytes32"},{"name":"blockNumber","type":"uint64","internalType":"uint64"},{"name":"value","type":"bytes","internalType":"bytes"}]}],"stateMutability":"view"},{"type":"function","name":"getNode","inputs":[{"name":"nodeAddress","type":"address","internalType":"address"}],"outputs":[{"name":"","type":"tuple","internalType":"struct Node","components":[{"name":"status","type":"uint8","internalType":"enum NodeStatus"},{"name":"url","type":"string","internalType":"string"},{"name":"nodeAddress","type":"address","internalType":"address"},{"name":"operator","type":"address","internalType":"address"}]}],"stateMutability":"view"},{"type":"function","name":"getNodeCount","inputs":[],"outputs":[{"name":"","type":"uint256","internalType":"uint256"}],"stateMutability":"view"},{"type":"function","name":"getPaginatedStreams","inputs":[{"name":"start","type":"uint256","internalType":"uint256"},{"name":"stop","type":"uint256","internalType":"uint256"}],"outputs":[{"name":"","type":"tuple[]","internalType":"struct StreamWithId[]","components":[{"name":"id","type":"bytes32","internalType":"bytes32"},{"name":"stream","type":"tuple","internalType":"struct Stream","components":[{"name":"lastMiniblockHash","type":"bytes32","internalType":"bytes32"},{"name":"lastMiniblockNum","type":"uint64","internalType":"uint64"},{"name":"reserved0","type":"uint64","internalType":"uint64"},{"name":"flags","type":"uint64","internalType":"uint64"},{"name":"nodes","type":"address[]","internalType":"address[]"}]}]},{"name":"","type":"bool","internalType":"bool"}],"stateMutability":"view"},{"type":"function","name":"getStream","inputs":[{"name":"streamId","type":"bytes32","internalType":"bytes32"}],"outputs":[{"name":"","type":"tuple","internalType":"struct Stream","components":[{"name":"lastMiniblockHash","type":"bytes32","internalType":"bytes32"},{"name":"lastMiniblockNum","type":"uint64","internalType":"uint64"},{"name":"reserved0","type":"uint64","internalType":"uint64"},{"name":"flags","type":"uint64","internalType":"uint64"},{"name":"nodes","type":"address[]","internalType":"address[]"}]}],"stateMutability":"view"},{"type":"function","name":"getStreamByIndex","inputs":[{"name":"i","type":"uint256","internalType":"uint256"}],"outputs":[{"name":"","type":"tuple","internalType":"struct StreamWithId","components":[{"name":"id","type":"bytes32","internalType":"bytes32"},{"name":"stream","type":"tuple","internalType":"struct Stream","components":[{"name":"lastMiniblockHash","type":"bytes32","internalType":"bytes32"},{"name":"lastMiniblockNum","type":"uint64","internalType":"uint64"},{"name":"reserved0","type":"uint64","internalType":"uint64"},{"name":"flags","type":"uint64","internalType":"uint64"},{"name":"nodes","type":"address[]","internalType":"address[]"}]}]}],"stateMutability":"view"},{"type":"function","name":"getStreamCount","inputs":[],"outputs":[{"name":"","type":"uint256","internalType":"uint256"}],"stateMutability":"view"},{"type":"function","name":"getStreamCountOnNode","inputs":[{"name":"nodeAddress","type":"address","internalType":"address"}],"outputs":[{"name":"","type":"uint256","internalType":"uint256"}],"stateMutability":"view"},{"type":"function","name":"getStreamWithGenesis","inputs":[{"name":"streamId","type":"bytes32","internalType":"bytes32"}],"outputs":[{"name":"","type":"tuple","internalType":"struct Stream","components":[{"name":"lastMiniblockHash","type":"bytes32","internalType":"bytes32"},{"name":"lastMiniblockNum","type":"uint64","internalType":"uint64"},{"name":"reserved0","type":"uint64","internalType":"uint64"},{"name":"flags","type":"uint64","internalType":"uint64"},{"name":"nodes","type":"address[]","internalType":"address[]"}]},{"name":"","type":"bytes32","internalType":"bytes32"},{"name":"","type":"bytes","internalType":"bytes"}],"stateMutability":"view"},{"type":"function","name":"getStreamsOnNode","inputs":[{"name":"nodeAddress","type":"address","internalType":"address"}],"outputs":[{"name":"","type":"tuple[]","internalType":"struct StreamWithId[]","components":[{"name":"id","type":"bytes32","internalType":"bytes32"},{"name":"stream","type":"tuple","internalType":"struct Stream","components":[{"name":"lastMiniblockHash","type":"bytes32","internalType":"bytes32"},{"name":"lastMiniblockNum","type":"uint64","internalType":"uint64"},{"name":"reserved0","type":"uint64","internalType":"uint64"},{"name":"flags","type":"uint64","internalType":"uint64"},{"name":"nodes","type":"address[]","internalType":"address[]"}]}]}],"stateMutability":"view"},{"type":"function","name":"isConfigurationManager","inputs":[{"name":"manager","type":"address","internalType":"address"}],"outputs":[{"name":"","type":"bool","internalType":"bool"}],"stateMutability":"view"},{"type":"function","name":"isOperator","inputs":[{"name":"operator","type":"address","internalType":"address"}],"outputs":[{"name":"","type":"bool","internalType":"bool"}],"stateMutability":"view"},{"type":"function","name":"placeStreamOnNode","inputs":[{"name":"streamId","type":"bytes32","internalType":"bytes32"},{"name":"nodeAddress","type":"address","internalType":"address"}],"outputs":[],"stateMutability":"nonpayable"},{"type":"function","name":"registerNode","inputs":[{"name":"nodeAddress","type":"address","internalType":"address"},{"name":"url","type":"string","internalType":"string"},{"name":"status","type":"uint8","internalType":"enum NodeStatus"}],"outputs":[],"stateMutability":"nonpayable"},{"type":"function","name":"removeConfigurationManager","inputs":[{"name":"manager","type":"address","internalType":"address"}],"outputs":[],"stateMutability":"nonpayable"},{"type":"function","name":"removeNode","inputs":[{"name":"nodeAddress","type":"address","internalType":"address"}],"outputs":[],"stateMutability":"nonpayable"},{"type":"function","name":"removeOperator","inputs":[{"name":"operator","type":"address","internalType":"address"}],"outputs":[],"stateMutability":"nonpayable"},{"type":"function","name":"removeStreamFromNode","inputs":[{"name":"streamId","type":"bytes32","internalType":"bytes32"},{"name":"nodeAddress","type":"address","internalType":"address"}],"outputs":[],"stateMutability":"nonpayable"},{"type":"function","name":"setConfiguration","inputs":[{"name":"key","type":"bytes32","internalType":"bytes32"},{"name":"blockNumber","type":"uint64","internalType":"uint64"},{"name":"value","type":"bytes","internalType":"bytes"}],"outputs":[],"stateMutability":"nonpayable"},{"type":"function","name":"setStreamLastMiniblock","inputs":[{"name":"streamId","type":"bytes32","internalType":"bytes32"},{"name":"","type":"bytes32","internalType":"bytes32"},{"name":"lastMiniblockHash","type":"bytes32","internalType":"bytes32"},{"name":"lastMiniblockNum","type":"uint64","internalType":"uint64"},{"name":"isSealed","type":"bool","internalType":"bool"}],"outputs":[],"stateMutability":"nonpayable"},{"type":"function","name":"setStreamLastMiniblockBatch","inputs":[{"name":"miniblocks","type":"tuple[]","internalType":"struct SetMiniblock[]","components":[{"name":"streamId","type":"bytes32","internalType":"bytes32"},{"name":"prevMiniBlockHash","type":"bytes32","internalType":"bytes32"},{"name":"lastMiniblockHash","type":"bytes32","internalType":"bytes32"},{"name":"lastMiniblockNum","type":"uint64","internalType":"uint64"},{"name":"isSealed","type":"bool","internalType":"bool"}]}],"outputs":[],"stateMutability":"nonpayable"},{"type":"function","name":"updateNodeStatus","inputs":[{"name":"nodeAddress","type":"address","internalType":"address"},{"name":"status","type":"uint8","internalType":"enum NodeStatus"}],"outputs":[],"stateMutability":"nonpayable"},{"type":"function","name":"updateNodeUrl","inputs":[{"name":"nodeAddress","type":"address","internalType":"address"},{"name":"url","type":"string","internalType":"string"}],"outputs":[],"stateMutability":"nonpayable"},{"type":"event","name":"ConfigurationChanged","inputs":[{"name":"key","type":"bytes32","indexed":false,"internalType":"bytes32"},{"name":"block","type":"uint64","indexed":false,"internalType":"uint64"},{"name":"value","type":"bytes","indexed":false,"internalType":"bytes"},{"name":"deleted","type":"bool","indexed":false,"internalType":"bool"}],"anonymous":false},{"type":"event","name":"ConfigurationManagerAdded","inputs":[{"name":"manager","type":"address","indexed":true,"internalType":"address"}],"anonymous":false},{"type":"event","name":"ConfigurationManagerRemoved","inputs":[{"name":"manager","type":"address","indexed":true,"internalType":"address"}],"anonymous":false},{"type":"event","name":"Initialized","inputs":[{"name":"version","type":"uint32","indexed":false,"internalType":"uint32"}],"anonymous":false},{"type":"event","name":"InterfaceAdded","inputs":[{"name":"interfaceId","type":"bytes4","indexed":true,"internalType":"bytes4"}],"anonymous":false},{"type":"event","name":"InterfaceRemoved","inputs":[{"name":"interfaceId","type":"bytes4","indexed":true,"internalType":"bytes4"}],"anonymous":false},{"type":"event","name":"NodeAdded","inputs":[{"name":"nodeAddress","type":"address","indexed":true,"internalType":"address"},{"name":"url","type":"string","indexed":false,"internalType":"string"},{"name":"status","type":"uint8","indexed":false,"internalType":"enum NodeStatus"}],"anonymous":false},{"type":"event","name":"NodeRemoved","inputs":[{"name":"nodeAddress","type":"address","indexed":true,"internalType":"address"}],"anonymous":false},{"type":"event","name":"NodeStatusUpdated","inputs":[{"name":"nodeAddress","type":"address","indexed":true,"internalType":"address"},{"name":"status","type":"uint8","indexed":false,"internalType":"enum NodeStatus"}],"anonymous":false},{"type":"event","name":"NodeUrlUpdated","inputs":[{"name":"nodeAddress","type":"address","indexed":true,"internalType":"address"},{"name":"url","type":"string","indexed":false,"internalType":"string"}],"anonymous":false},{"type":"event","name":"OperatorAdded","inputs":[{"name":"operatorAddress","type":"address","indexed":true,"internalType":"address"}],"anonymous":false},{"type":"event","name":"OperatorRemoved","inputs":[{"name":"operatorAddress","type":"address","indexed":true,"internalType":"address"}],"anonymous":false},{"type":"event","name":"OwnershipTransferred","inputs":[{"name":"previousOwner","type":"address","indexed":true,"internalType":"address"},{"name":"newOwner","type":"address","indexed":true,"internalType":"address"}],"anonymous":false},{"type":"event","name":"StreamAllocated","inputs":[{"name":"streamId","type":"bytes32","indexed":false,"internalType":"bytes32"},{"name":"nodes","type":"address[]","indexed":false,"internalType":"address[]"},{"name":"genesisMiniblockHash","type":"bytes32","indexed":false,"internalType":"bytes32"},{"name":"genesisMiniblock","type":"bytes","indexed":false,"internalType":"bytes"}],"anonymous":false},{"type":"event","name":"StreamLastMiniblockUpdateFailed","inputs":[{"name":"streamId","type":"bytes32","indexed":false,"internalType":"bytes32"},{"name":"lastMiniblockHash","type":"bytes32","indexed":false,"internalType":"bytes32"},{"name":"lastMiniblockNum","type":"uint64","indexed":false,"internalType":"uint64"},{"name":"reason","type":"string","indexed":false,"internalType":"string"}],"anonymous":false},{"type":"event","name":"StreamLastMiniblockUpdated","inputs":[{"name":"streamId","type":"bytes32","indexed":false,"internalType":"bytes32"},{"name":"lastMiniblockHash","type":"bytes32","indexed":false,"internalType":"bytes32"},{"name":"lastMiniblockNum","type":"uint64","indexed":false,"internalType":"uint64"},{"name":"isSealed","type":"bool","indexed":false,"internalType":"bool"}],"anonymous":false},{"type":"event","name":"StreamPlacementUpdated","inputs":[{"name":"streamId","type":"bytes32","indexed":false,"internalType":"bytes32"},{"name":"nodeAddress","type":"address","indexed":false,"internalType":"address"},{"name":"isAdded","type":"bool","indexed":false,"internalType":"bool"}],"anonymous":false},{"type":"error","name":"Initializable_InInitializingState","inputs":[]},{"type":"error","name":"Initializable_NotInInitializingState","inputs":[]},{"type":"error","name":"Introspection_AlreadySupported","inputs":[]},{"type":"error","name":"Introspection_NotSupported","inputs":[]},{"type":"error","name":"Ownable__NotOwner","inputs":[{"name":"account","type":"address","internalType":"address"}]},{"type":"error","name":"Ownable__ZeroAddress","inputs":[]}],"bytecode":{"object":"0x60806040523480156200001157600080fd5b5060405162004f0d38038062004f0d8339810160408190526200003491620004a6565b6200003e620000c1565b620000493362000169565b60005b8151811015620000b957620000838282815181106200006f576200006f62000578565b60200260200101516200023760201b60201c565b620000b08282815181106200009c576200009c62000578565b60200260200101516200031c60201b60201c565b6001016200004c565b5050620005df565b7f59b501c3653afc186af7d48dda36cf6732bd21629a6295693664240a6ef520008054640100000000900460ff16156200010e576040516366008a2d60e01b815260040160405180910390fd5b805463ffffffff90811610156200016657805463ffffffff191663ffffffff90811782556040519081527fe9c9b456cb2994b80aeef036cf59d26e9617df80f816a6ee5a5b4166e07e2f5c9060200160405180910390a15b50565b60006200019d7f4675fa8241f86f37157864d3d49b85ad4b164352c516da28e1678a90470ae300546001600160a01b031690565b90506001600160a01b038216620001c757604051634e3ef82560e01b815260040160405180910390fd5b817f4675fa8241f86f37157864d3d49b85ad4b164352c516da28e1678a90470ae30080546001600160a01b0319166001600160a01b03928316179055604051838216918316907f8be0079c531659141344cd1fd0a4f28419497f9722a3daafe3b4186f6b6457e090600090a35050565b6001600160a01b038116620002865760408051808201825260078152664241445f41524760c81b6020820152905162461bcd60e51b81526200027d91906004016200058e565b60405180910390fd5b62000293600882620003e9565b15620002d757604080518082018252600e81526d414c52454144595f45584953545360901b6020820152905162461bcd60e51b81526200027d91906004016200058e565b620002e460088262000410565b506040516001600160a01b038216907fac6fa858e9350a46cec16539926e0fde25b7629f84b5a72bffaae4df888ae86d90600090a250565b6001600160a01b038116620003625760408051808201825260078152664241445f41524760c81b6020820152905162461bcd60e51b81526200027d91906004016200058e565b6200036f600d8262000410565b620003b257604080518082018252600e81526d414c52454144595f45584953545360901b6020820152905162461bcd60e51b81526200027d91906004016200058e565b6040516001600160a01b038216907f7afd798379ae2d2e5035438544cea2b60eb1dde6a8128e6d447fd2a25f8825a290600090a250565b6001600160a01b038116600090815260018301602052604081205415155b90505b92915050565b600062000407836001600160a01b03841660008181526001830160205260408120546200046a575081546001818101845560008481526020808220909301849055845484825282860190935260409020919091556200040a565b5060006200040a565b634e487b7160e01b600052604160045260246000fd5b80516001600160a01b0381168114620004a157600080fd5b919050565b60006020808385031215620004ba57600080fd5b82516001600160401b0380821115620004d257600080fd5b818501915085601f830112620004e757600080fd5b815181811115620004fc57620004fc62000473565b8060051b604051601f19603f8301168101818110858211171562000524576200052462000473565b6040529182528482019250838101850191888311156200054357600080fd5b938501935b828510156200056c576200055c8562000489565b8452938501939285019262000548565b98975050505050505050565b634e487b7160e01b600052603260045260246000fd5b60006020808352835180602085015260005b81811015620005be57858101830151858201604001528201620005a0565b506000604082860101526040601f19601f8301168501019250505092915050565b61491e80620005ef6000396000f3fe608060405234801561001057600080fd5b50600436106102275760003560e01c80639ee86d3811610130578063c87d1324116100b8578063d911c6321161007c578063d911c632146104ed578063ee885b12146104f5578063eecc66f414610508578063fc207c011461051b578063ff3a14ab1461052e57600080fd5b8063c87d13241461047e578063c8fe3a0114610491578063ca78c41a146104a6578063d4bd44a0146104c7578063d7a3158a146104da57600080fd5b8063b2b99ec9116100ff578063b2b99ec91461042a578063b7f227ee1461043d578063ba428b1a14610450578063c0f2208414610463578063c179b85f1461046b57600080fd5b80639ee86d38146103dc578063a09449a6146103ef578063a1174e7d14610402578063ac8a584a1461041757600080fd5b8063581f8b9b116101b35780637e4465e7116101825780637e4465e71461036e578063813049ec1461038157806386789fc6146103945780639283ae3a146103a95780639d209048146103bc57600080fd5b8063581f8b9b1461030557806368b454df146103185780636b883c39146103385780636d70f7ae1461034b57600080fd5b806331374511116101fa578063313745111461029257806332705ac4146102a557806339bf397e146102c55780633bd84c0c146102db5780633c2544d1146102e357600080fd5b8063035759e11461022c578063081814db146102415780631290abe81461025f578063242cae9f1461027f575b600080fd5b61023f61023a366004613a91565b610541565b005b6102496106ae565b6040516102569190613afa565b60405180910390f35b61027261026d366004613a91565b610919565b6040516102569190613c15565b61023f61028d366004613c44565b610a3b565b61023f6102a0366004613c5f565b610a82565b6102b86102b3366004613c44565b610b13565b6040516102569190613d54565b6102cd610dc3565b604051908152602001610256565b6102b8610dd4565b6102f66102f1366004613a91565b610f45565b60405161025693929190613d67565b61023f610313366004613dab565b611116565b61032b610326366004613a91565b6112b6565b6040516102569190613dde565b61023f610346366004613ea6565b6113dd565b61035e610359366004613c44565b611642565b6040519015158152602001610256565b61023f61037c366004613f89565b611655565b61023f61038f366004613c44565b61184d565b61039c611948565b6040516102569190613fd6565b6102496103b7366004613a91565b611954565b6103cf6103ca366004613c44565b611ab6565b60405161025691906140a6565b61023f6103ea3660046140b9565b611c37565b61023f6103fd3660046140f3565b611df4565b61040a612075565b6040516102569190614179565b61023f610425366004613c44565b612249565b61023f610438366004613c44565b6123ac565b61023f61044b3660046141dd565b612575565b61023f61045e366004613c5f565b6127c4565b6102cd612850565b61023f610479366004613c44565b61285b565b6102cd61048c366004613c44565b61289f565b610499612947565b6040516102569190614245565b6104b96104b4366004614258565b612953565b60405161025692919061427a565b61035e6104d5366004613c44565b612b4c565b61023f6104e83660046142ae565b612b59565b610499612ce4565b61023f6105033660046140b9565b612cf0565b61023f6105163660046142fe565b612f3c565b61035e610529366004613a91565b613106565b61023f61053c36600461435b565b613113565b3361054d600d8261337a565b6105905760408051808201825260088152670848288be82aaa8960c31b6020820152905162461bcd60e51b815261058791906004016143bd565b60405180910390fd5b8161059c600a8261339f565b6105d75760408051808201825260098152681393d517d193d5539160ba1b6020820152905162461bcd60e51b815261058791906004016143bd565b6000838152600c60205260409020541561064a576000838152600c60205260409020805480610608576106086143d0565b60008281526020812060036000199093019283020181815560018101805467ffffffffffffffff1916905590610641600283018261393c565b505090556105d7565b6000838152600c6020526040812061066191613976565b61066c600a846133b7565b506040805184815260006020820181905260808284018190528201526001606082015290516000805160206148fe8339815191529181900360a00190a1505050565b60606000806106bd600a6133c3565b905060005b818110156106fe5760006106d7600a836133cd565b6000818152600c60205260409020549091506106f390856143fc565b9350506001016106c2565b506000826001600160401b0381111561071957610719613df1565b60405190808252806020026020018201604052801561076657816020015b604080516060808201835260008083526020830152918101919091528152602001906001900390816107375790505b5090506000610775600a6133c3565b90506000805b8281101561090e576000610790600a836133cd565b6000818152600c6020908152604080832080548251818502810185019093528083529495509293909291849084015b828210156108a357600084815260209081902060408051606081018252600386029092018054835260018101546001600160401b031693830193909352600283018054929392918401916108129061440f565b80601f016020809104026020016040519081016040528092919081815260200182805461083e9061440f565b801561088b5780601f106108605761010080835404028352916020019161088b565b820191906000526020600020905b81548152906001019060200180831161086e57829003601f168201915b505050505081525050815260200190600101906107bf565b50505050905060005b8151811015610900578181815181106108c7576108c7614443565b60200260200101518786806108db90614459565b9750815181106108ed576108ed614443565b60209081029190910101526001016108ac565b50505080600101905061077b565b509195945050505050565b6040805160a081018252600080825260208201819052918101829052606080820183905260808201529061094d908361339f565b6109885760408051808201825260098152681393d517d193d5539160ba1b6020820152905162461bcd60e51b815261058791906004016143bd565b600082815260026020818152604092839020835160a0810185528154815260018201546001600160401b0380821683860152600160401b8204811683880152600160801b9091041660608201529281018054855181850281018501909652808652939491936080860193830182828015610a2b57602002820191906000526020600020905b81546001600160a01b03168152600190910190602001808311610a0d575b5050505050815250509050919050565b610a436133d9565b6001600160a01b0316336001600160a01b031614610a76576040516365f4906560e01b8152336004820152602401610587565b610a7f81613407565b50565b7f59b501c3653afc186af7d48dda36cf6732bd21629a6295693664240a6ef5200054640100000000900460ff16610acc57604051630ef4733760e31b815260040160405180910390fd5b60005b81811015610b0e57610b06838383818110610aec57610aec614443565b9050602002016020810190610b019190613c44565b6134d9565b600101610acf565b505050565b60606000610b20816133c3565b6001600160401b03811115610b3757610b37613df1565b604051908082528060200260200182016040528015610b60578160200160208202803683370190505b5090506000805b610b7160006133c3565b811015610c26576000610b8481836133cd565b60008181526002602052604081209192505b6002820154811015610c1857876001600160a01b0316826002018281548110610bc157610bc1614443565b6000918252602090912001546001600160a01b031603610c1057828686610be781614472565b975063ffffffff1681518110610bff57610bff614443565b602002602001018181525050610c18565b600101610b96565b505050806001019050610b67565b5060008163ffffffff166001600160401b03811115610c4757610c47613df1565b604051908082528060200260200182016040528015610c8057816020015b610c6d613997565b815260200190600190039081610c655790505b50905060005b8263ffffffff16811015610dba576040518060400160405280858381518110610cb157610cb1614443565b6020026020010151815260200160006002016000878581518110610cd757610cd7614443565b6020908102919091018101518252818101929092526040908101600020815160a0810183528154815260018201546001600160401b0380821683870152600160401b8204811683860152600160801b909104166060820152600282018054845181870281018701909552808552919492936080860193909290830182828015610d8957602002820191906000526020600020905b81546001600160a01b03168152600190910190602001808311610d6b575b505050505081525050815250828281518110610da757610da7614443565b6020908102919091010152600101610c86565b50949350505050565b6000610dcf60056133c3565b905090565b60606000610de1816133c3565b6001600160401b03811115610df857610df8613df1565b604051908082528060200260200182016040528015610e3157816020015b610e1e613997565b815260200190600190039081610e165790505b50905060005b610e4160006133c3565b811015610f3f576000610e5481836133cd565b60408051808201825282815260008381526002602081815291849020845160a0810186528154815260018201546001600160401b0380821683870152600160401b8204811683890152600160801b9091041660608201529181018054865181860281018601909752808752969750939583870195929491936080860193929190830182828015610f0d57602002820191906000526020600020905b81546001600160a01b03168152600190910190602001808311610eef575b505050505081525050815250838381518110610f2b57610f2b614443565b602090810291909101015250600101610e37565b50919050565b6040805160a081018252600080825260208201819052918101829052606080820183905260808201819052909190610f7d828561339f565b610fb85760408051808201825260098152681393d517d193d5539160ba1b6020820152905162461bcd60e51b815261058791906004016143bd565b600084815260026020818152604080842060048352818520546003845294829020825160a0810184528254815260018301546001600160401b0380821683880152600160401b8204811683870152600160801b9091041660608201529482018054845181870281018701909552808552929695919491938793608086019391929183018282801561107257602002820191906000526020600020905b81546001600160a01b03168152600190910190602001808311611054575b50505050508152505092508080546110899061440f565b80601f01602080910402602001604051908101604052809291908181526020018280546110b59061440f565b80156111025780601f106110d757610100808354040283529160200191611102565b820191906000526020600020905b8154815290600101906020018083116110e557829003601f168201915b505050505090509250925092509193909250565b6001600160a01b0380831660009081526007602052604090206002015483911661117657604080518082018252600e81526d1393d11157d393d517d193d5539160921b6020820152905162461bcd60e51b815261058791906004016143bd565b3361118260088261337a565b6111bc5760408051808201825260088152670848288be82aaa8960c31b6020820152905162461bcd60e51b815261058791906004016143bd565b6001600160a01b038085166000908152600760205260409020600301548591339116811461121a5760408051808201825260088152670848288be82aaa8960c31b6020820152905162461bcd60e51b815261058791906004016143bd565b6001600160a01b038616600090815260076020526040902080546112419060ff168761359e565b80548690829060ff1916600183600581111561125f5761125f61401a565b021790555060028101546040516001600160a01b03909116907f20891cc7622c7951cbd8c70c61a5201eb45625b8c00e8f6c986cfca78f3dbfa0906112a5908990614495565b60405180910390a250505050505050565b6112be613997565b6112c860006133c3565b82106113055760408051808201825260098152681393d517d193d5539160ba1b6020820152905162461bcd60e51b815261058791906004016143bd565b600061131181846133cd565b60408051808201825282815260008381526002602081815291849020845160a0810186528154815260018201546001600160401b0380821683870152600160401b8204811683890152600160801b90910416606082015291810180548651818602810186019097528087529697509395838701959294919360808601939291908301828280156113ca57602002820191906000526020600020905b81546001600160a01b031681526001909101906020018083116113ac575b5050509190925250505090529392505050565b336000818152600760205260409020600201546001600160a01b031661143957604080518082018252600e81526d1393d11157d393d517d193d5539160921b6020820152905162461bcd60e51b815261058791906004016143bd565b61144460008661339f565b1561148557604080518082018252600e81526d414c52454144595f45584953545360901b6020820152905162461bcd60e51b815261058791906004016143bd565b60005b8451811015611509576114c18582815181106114a6576114a6614443565b6020026020010151600060050161337a90919063ffffffff16565b61150157604080518082018252600e81526d1393d11157d393d517d193d5539160921b6020820152905162461bcd60e51b815261058791906004016143bd565b600101611488565b506040805160a08101825284815260006020820181905291810182905260608101829052608081018690529061153f9087613731565b5060008681526002602081815260409283902084518155818501516001820180549587015160608801516001600160401b03908116600160801b0267ffffffffffffffff60801b19928216600160401b026fffffffffffffffffffffffffffffffff199099169190941617969096179590951617909355608084015180518594936115cf939085019201906139e1565b50505060008681526003602052604090206115ea8482614508565b5060008681526004602052604090819020859055517f55ef7efc60ef99743e54209752c9a8e047e013917ec91572db75875069dd65bb906116329088908890889088906145c1565b60405180910390a1505050505050565b600061164f60088361337a565b92915050565b3361166160088261337a565b61169b5760408051808201825260088152670848288be82aaa8960c31b6020820152905162461bcd60e51b815261058791906004016143bd565b6001600160a01b038084166000908152600760205260409020600201548491166116fb57604080518082018252600e81526d1393d11157d393d517d193d5539160921b6020820152905162461bcd60e51b815261058791906004016143bd565b6001600160a01b03808516600090815260076020526040902060030154859133911681146117595760408051808201825260088152670848288be82aaa8960c31b6020820152905162461bcd60e51b815261058791906004016143bd565b6001600160a01b0386166000908152600760209081526040918290209151611783918891016145fd565b60405160208183030381529060405280519060200120816001016040516020016117ad9190614619565b60405160208183030381529060405280519060200120036117fd5760408051808201825260078152664241445f41524760c81b6020820152905162461bcd60e51b815261058791906004016143bd565b6001810161180b8782614508565b5060028101546040516001600160a01b03909116907f4505168a8705a16fd4d0575197fd0f510db69df93a065e158ad2c0957ba12bac906112a59089906143bd565b6118556133d9565b6001600160a01b0316336001600160a01b031614611888576040516365f4906560e01b8152336004820152602401610587565b6001600160a01b0381166118cb5760408051808201825260078152664241445f41524760c81b6020820152905162461bcd60e51b815261058791906004016143bd565b6118d6600d8261373d565b6119115760408051808201825260098152681393d517d193d5539160ba1b6020820152905162461bcd60e51b815261058791906004016143bd565b6040516001600160a01b038216907ff9889c857e5356066b564327caa757c325ecbc001b2b47d72edf8cf9aedb1be590600090a250565b6060610dcf6000613752565b606081611962600a8261339f565b61199d5760408051808201825260098152681393d517d193d5539160ba1b6020820152905162461bcd60e51b815261058791906004016143bd565b6000838152600c6020908152604080832080548251818502810185019093528083529193909284015b82821015611aaa57600084815260209081902060408051606081018252600386029092018054835260018101546001600160401b03169383019390935260028301805492939291840191611a199061440f565b80601f0160208091040260200160405190810160405280929190818152602001828054611a459061440f565b8015611a925780601f10611a6757610100808354040283529160200191611a92565b820191906000526020600020905b815481529060010190602001808311611a7557829003601f168201915b505050505081525050815260200190600101906119c6565b50505050915050919050565b611ae16040805160808101909152806000815260606020820181905260006040830181905291015290565b611aec60058361337a565b611b2c57604080518082018252600e81526d1393d11157d393d517d193d5539160921b6020820152905162461bcd60e51b815261058791906004016143bd565b6001600160a01b038216600090815260076020526040908190208151608081019092528054829060ff166005811115611b6757611b6761401a565b6005811115611b7857611b7861401a565b8152602001600182018054611b8c9061440f565b80601f0160208091040260200160405190810160405280929190818152602001828054611bb89061440f565b8015611c055780601f10611bda57610100808354040283529160200191611c05565b820191906000526020600020905b815481529060010190602001808311611be857829003601f168201915b505050918352505060028201546001600160a01b03908116602083015260039092015490911660409091015292915050565b81611c4360008261339f565b611c7e5760408051808201825260098152681393d517d193d5539160ba1b6020820152905162461bcd60e51b815261058791906004016143bd565b6001600160a01b03808316600090815260076020526040902060020154839116611cde57604080518082018252600e81526d1393d11157d393d517d193d5539160921b6020820152905162461bcd60e51b815261058791906004016143bd565b6000848152600260205260408120905b6002820154811015611d7757846001600160a01b0316826002018281548110611d1957611d19614443565b6000918252602090912001546001600160a01b031603611d6f57604080518082018252600e81526d414c52454144595f45584953545360901b6020820152905162461bcd60e51b815261058791906004016143bd565b600101611cee565b5060028101805460018082018355600092835260209283902090910180546001600160a01b0319166001600160a01b03881690811790915560408051898152938401919091528201527faaa473c28a5fe04b6a7ecd795826e462f9d0c23f00ef9f51ec02fa6ea418806f9060600160405180910390a15050505050565b33611e00600d8261337a565b611e3a5760408051808201825260088152670848288be82aaa8960c31b6020820152905162461bcd60e51b815261058791906004016143bd565b6000829003611e785760408051808201825260078152664241445f41524760c81b6020820152905162461bcd60e51b815261058791906004016143bd565b611e83600a8661339f565b611e9457611e92600a86613731565b505b6000858152600c6020526040812054905b81811015611f7b576000878152600c6020526040902080546001600160401b038816919083908110611ed957611ed9614443565b60009182526020909120600160039092020101546001600160401b031603611f73576000878152600c6020526040902080548691869184908110611f1f57611f1f614443565b90600052602060002090600302016002019182611f3d92919061468f565b506000805160206148fe833981519152878787876000604051611f64959493929190614748565b60405180910390a1505061206e565b600101611ea5565b506000600c0160008781526020019081526020016000206040518060600160405280888152602001876001600160401b0316815260200186868080601f0160208091040260200160405190810160405280939291908181526020018383808284376000920182905250939094525050835460018082018655948252602091829020845160039092020190815590830151938101805467ffffffffffffffff19166001600160401b039095169490941790935550604081015190919060028201906120459082614508565b5050506000805160206148fe833981519152868686866000604051611632959493929190614748565b5050505050565b6060600061208360056133c3565b6001600160401b0381111561209a5761209a613df1565b6040519080825280602002602001820160405280156120f657816020015b6120e36040805160808101909152806000815260606020820181905260006040830181905291015290565b8152602001906001900390816120b85790505b50905060005b61210660056133c3565b811015610f3f576007600061211c6005846133cd565b6001600160a01b03168152602081019190915260409081016000208151608081019092528054829060ff1660058111156121585761215861401a565b60058111156121695761216961401a565b815260200160018201805461217d9061440f565b80601f01602080910402602001604051908101604052809291908181526020018280546121a99061440f565b80156121f65780601f106121cb576101008083540402835291602001916121f6565b820191906000526020600020905b8154815290600101906020018083116121d957829003601f168201915b505050918352505060028201546001600160a01b039081166020830152600390920154909116604090910152825183908390811061223657612236614443565b60209081029190910101526001016120fc565b6122516133d9565b6001600160a01b0316336001600160a01b031614612284576040516365f4906560e01b8152336004820152602401610587565b61228f60088261337a565b6122d357604080518082018252601281527113d41154905513d497d393d517d193d5539160721b6020820152905162461bcd60e51b815261058791906004016143bd565b60005b6122e060056133c3565b811015612368576001600160a01b038216600760006123006005856133cd565b6001600160a01b039081168252602082019290925260400160002060030154160361236057604080518082018252600d81526c4f55545f4f465f424f554e445360981b6020820152905162461bcd60e51b815261058791906004016143bd565b6001016122d6565b5061237460088261373d565b506040516001600160a01b038216907f80c0b871b97b595b16a7741c1b06fed0c6f6f558639f18ccbce50724325dc40d90600090a250565b6001600160a01b038082166000908152600760205260409020600301548291339116811461240a5760408051808201825260088152670848288be82aaa8960c31b6020820152905162461bcd60e51b815261058791906004016143bd565b6001600160a01b038381166000908152600760205260409020600201541661246857604080518082018252600e81526d1393d11157d393d517d193d5539160921b6020820152905162461bcd60e51b815261058791906004016143bd565b60056001600160a01b03841660009081526007602052604090205460ff1660058111156124975761249761401a565b146124e05760408051808201825260168152751393d11157d4d510551157d393d517d0531313d5d15160521b6020820152905162461bcd60e51b815261058791906004016143bd565b6124eb60058461373d565b506001600160a01b0383166000908152600760205260408120805460ff191681559061251a600183018261393c565b506002810180546001600160a01b03199081169091556003909101805490911690556040516001600160a01b038416907fcfc24166db4bb677e857cacabd1541fb2b30645021b27c5130419589b84db52b90600090a2505050565b33612581600d8261337a565b6125bb5760408051808201825260088152670848288be82aaa8960c31b6020820152905162461bcd60e51b815261058791906004016143bd565b6000805b6000858152600c602052604090205481101561273c576000858152600c6020526040902080546001600160401b03861691908390811061260157612601614443565b60009182526020909120600160039092020101546001600160401b031603612734576000858152600c60205260409020805461263f90600190614798565b8154811061264f5761264f614443565b90600052602060002090600302016000600c016000878152602001908152602001600020828154811061268457612684614443565b600091825260209091208254600390920201908155600180830154908201805467ffffffffffffffff19166001600160401b039092169190911790556002808201906126d2908401826147ab565b5050506000858152600c602052604090208054806126f2576126f26143d0565b60008281526020812060036000199093019283020181815560018101805467ffffffffffffffff191690559061272b600283018261393c565b50509055600191505b6001016125bf565b50806127795760408051808201825260098152681393d517d193d5539160ba1b6020820152905162461bcd60e51b815261058791906004016143bd565b604080518581526001600160401b038516602082015260808183018190526000908201526001606082015290516000805160206148fe8339815191529181900360a00190a150505050565b7f59b501c3653afc186af7d48dda36cf6732bd21629a6295693664240a6ef5200054640100000000900460ff1661280e57604051630ef4733760e31b815260040160405180910390fd5b60005b81811015610b0e5761284883838381811061282e5761282e614443565b90506020020160208101906128439190613c44565b613407565b600101612811565b6000610dcf816133c3565b6128636133d9565b6001600160a01b0316336001600160a01b031614612896576040516365f4906560e01b8152336004820152602401610587565b610a7f816134d9565b600080805b6128ae60006133c3565b8110156129405760006128c181836133cd565b60008181526002602052604081209192505b600282015481101561293257866001600160a01b03168260020182815481106128fe576128fe614443565b6000918252602090912001546001600160a01b03160361292a578461292281614459565b955050612932565b6001016128d3565b5050508060010190506128a4565b5092915050565b6060610dcf6005613752565b60606000828410604051806040016040528060078152602001664241445f41524760c81b815250906129985760405162461bcd60e51b815260040161058791906143bd565b5060006129a58585614798565b6001600160401b038111156129bc576129bc613df1565b6040519080825280602002602001820160405280156129f557816020015b6129e2613997565b8152602001906001900390816129da5790505b50905060005b612a0560006133c3565b612a0f82886143fc565b108015612a24575084612a2282886143fc565b105b15612b34576000612a40612a3883896143fc565b6000906133cd565b60408051808201825282815260008381526002602081815291849020845160a0810186528154815260018201546001600160401b0380821683870152600160401b8204811683890152600160801b9091041660608201529181018054865181860281018601909752808752969750939583870195929491936080860193929190830182828015612af957602002820191906000526020600020905b81546001600160a01b03168152600190910190602001808311612adb575b505050505081525050815250838381518110612b1757612b17614443565b60200260200101819052505080612b2d90614459565b90506129fb565b5080612b4060006133c3565b90969410159450505050565b600061164f600d8361337a565b336000818152600760205260409020600201546001600160a01b0316612bb557604080518082018252600e81526d1393d11157d393d517d193d5539160921b6020820152905162461bcd60e51b815261058791906004016143bd565b612bc060008761339f565b612bfb5760408051808201825260098152681393d517d193d5539160ba1b6020820152905162461bcd60e51b815261058791906004016143bd565b600086815260026020526040902084815560018101805467ffffffffffffffff19166001600160401b0386161790558215612c63576001818101805467ffffffffffffffff60801b198116600160801b918290046001600160401b0316909317029190911790555b836001600160401b0316600103612c8b576000878152600360205260408120612c8b9161393c565b60408051888152602081018790526001600160401b03861681830152841515606082015290517fccc26bbb6dd655ea0bb8a40a3c30e35c6bdf42f8faf0d71bbea897af768cda8b9181900360800190a150505050505050565b6060610dcf6008613752565b81612cfc60008261339f565b612d375760408051808201825260098152681393d517d193d5539160ba1b6020820152905162461bcd60e51b815261058791906004016143bd565b6001600160a01b03808316600090815260076020526040902060020154839116612d9757604080518082018252600e81526d1393d11157d393d517d193d5539160921b6020820152905162461bcd60e51b815261058791906004016143bd565b600084815260026020526040812090805b6002830154811015612eb157856001600160a01b0316836002018281548110612dd357612dd3614443565b6000918252602090912001546001600160a01b031603612ea957600283018054612dff90600190614798565b81548110612e0f57612e0f614443565b6000918252602090912001546002840180546001600160a01b039092169183908110612e3d57612e3d614443565b9060005260206000200160006101000a8154816001600160a01b0302191690836001600160a01b0316021790555082600201805480612e7e57612e7e6143d0565b600082815260209020810160001990810180546001600160a01b031916905501905560019150612eb1565b600101612da8565b5080612ef357604080518082018252600e81526d1393d11157d393d517d193d5539160921b6020820152905162461bcd60e51b815261058791906004016143bd565b604080518781526001600160a01b03871660208201526000918101919091527faaa473c28a5fe04b6a7ecd795826e462f9d0c23f00ef9f51ec02fa6ea418806f90606001611632565b33612f4860088261337a565b612f825760408051808201825260088152670848288be82aaa8960c31b6020820152905162461bcd60e51b815261058791906004016143bd565b6001600160a01b038481166000908152600760205260409020600201541615612fe157604080518082018252600e81526d414c52454144595f45584953545360901b6020820152905162461bcd60e51b815261058791906004016143bd565b600060405180608001604052808460058111156130005761300061401a565b8152602081018690526001600160a01b038716604082015233606090910152905061302c60058661375f565b506001600160a01b03851660009081526007602052604090208151815483929190829060ff191660018360058111156130675761306761401a565b0217905550602082015160018201906130809082614508565b506040828101516002830180546001600160a01b03199081166001600160a01b039384161790915560609094015160039093018054909416928116929092179092559051908616907fd6f3629b08191adb8308c3a65d5f8803b7f8f3e359c433fa7ae623276635e561906130f79087908790614877565b60405180910390a25050505050565b600061164f600a8361339f565b336000818152600760205260409020600201546001600160a01b031661316f57604080518082018252600e81526d1393d11157d393d517d193d5539160921b6020820152905162461bcd60e51b815261058791906004016143bd565b60005b82811015613374573684848381811061318d5761318d614443565b60a0029190910191506131a490506000823561339f565b61321c577f75460fe319331413a18a82d99b07735cec53fa0c4061ada38c2141e331082afa813560408301356131e06080850160608601614899565b60408051808201825260098152681393d517d193d5539160ba1b6020820152905161320e94939291906148b4565b60405180910390a15061336c565b8035600090815260026020526040908190209082013581556132446080830160608401614899565b60018201805467ffffffffffffffff19166001600160401b039290921691909117905561327760a08301608084016148e2565b156132af576001818101805467ffffffffffffffff60801b198116600160801b918290046001600160401b0316909317029190911790555b6132bf6080830160608401614899565b6001600160401b03166001036132e857813560009081526003602052604081206132e89161393c565b7fccc26bbb6dd655ea0bb8a40a3c30e35c6bdf42f8faf0d71bbea897af768cda8b823560408401356133206080860160608701614899565b61333060a08701608088016148e2565b604051613361949392919093845260208401929092526001600160401b031660408301521515606082015260800190565b60405180910390a150505b600101613172565b50505050565b6001600160a01b038116600090815260018301602052604081205415155b9392505050565b60008181526001830160205260408120541515613398565b60006133988383613774565b600061164f825490565b60006133988383613867565b7f4675fa8241f86f37157864d3d49b85ad4b164352c516da28e1678a90470ae300546001600160a01b031690565b6001600160a01b03811661344a5760408051808201825260078152664241445f41524760c81b6020820152905162461bcd60e51b815261058791906004016143bd565b61345560088261337a565b1561349657604080518082018252600e81526d414c52454144595f45584953545360901b6020820152905162461bcd60e51b815261058791906004016143bd565b6134a160088261375f565b506040516001600160a01b038216907fac6fa858e9350a46cec16539926e0fde25b7629f84b5a72bffaae4df888ae86d90600090a250565b6001600160a01b03811661351c5760408051808201825260078152664241445f41524760c81b6020820152905162461bcd60e51b815261058791906004016143bd565b613527600d8261375f565b61356757604080518082018252600e81526d414c52454144595f45584953545360901b6020820152905162461bcd60e51b815261058791906004016143bd565b6040516001600160a01b038216907f7afd798379ae2d2e5035438544cea2b60eb1dde6a8128e6d447fd2a25f8825a290600090a250565b60008260058111156135b2576135b261401a565b1480613606575060018260058111156135cd576135cd61401a565b148015613606575060038160058111156135e9576135e961401a565b1480613606575060048160058111156136045761360461401a565b145b80613659575060028260058111156136205761362061401a565b1480156136595750600381600581111561363c5761363c61401a565b1480613659575060048160058111156136575761365761401a565b145b806136ac575060048260058111156136735761367361401a565b1480156136ac5750600381600581111561368f5761368f61401a565b14806136ac575060058160058111156136aa576136aa61401a565b145b806136e4575060038260058111156136c6576136c661401a565b1480156136e4575060058160058111156136e2576136e261401a565b145b156136ed575050565b60408051808201825260168152751393d11157d4d510551157d393d517d0531313d5d15160521b6020820152905162461bcd60e51b815261058791906004016143bd565b60006133988383613891565b6000613398836001600160a01b038416613774565b60606000613398836138e0565b6000613398836001600160a01b038416613891565b6000818152600183016020526040812054801561385d576000613798600183614798565b85549091506000906137ac90600190614798565b90508082146138115760008660000182815481106137cc576137cc614443565b90600052602060002001549050808760000184815481106137ef576137ef614443565b6000918252602080832090910192909255918252600188019052604090208390555b8554869080613822576138226143d0565b60019003818190600052602060002001600090559055856001016000868152602001908152602001600020600090556001935050505061164f565b600091505061164f565b600082600001828154811061387e5761387e614443565b9060005260206000200154905092915050565b60008181526001830160205260408120546138d85750815460018181018455600084815260208082209093018490558454848252828601909352604090209190915561164f565b50600061164f565b60608160000180548060200260200160405190810160405280929190818152602001828054801561393057602002820191906000526020600020905b81548152602001906001019080831161391c575b50505050509050919050565b5080546139489061440f565b6000825580601f10613958575050565b601f016020900490600052602060002090810190610a7f9190613a46565b5080546000825560030290600052602060002090810190610a7f9190613a5b565b6040805180820190915260008152602081016139dc6040805160a081018252600080825260208201819052918101829052606080820192909252608081019190915290565b905290565b828054828255906000526020600020908101928215613a36579160200282015b82811115613a3657825182546001600160a01b0319166001600160a01b03909116178255602090920191600190910190613a01565b50613a42929150613a46565b5090565b5b80821115613a425760008155600101613a47565b80821115613a4257600080825560018201805467ffffffffffffffff19169055613a88600283018261393c565b50600301613a5b565b600060208284031215613aa357600080fd5b5035919050565b60005b83811015613ac5578181015183820152602001613aad565b50506000910152565b60008151808452613ae6816020860160208601613aaa565b601f01601f19169290920160200192915050565b600060208083018184528085518083526040925060408601915060408160051b87010184880160005b83811015613b7657888303603f19018552815180518452878101516001600160401b0316888501528601516060878501819052613b6281860183613ace565b968901969450505090860190600101613b23565b509098975050505050505050565b600060a08301825184526020808401516001600160401b0380821660208801528060408701511660408801528060608701511660608801525050608084015160a0608087015282815180855260c088019150602083019450600092505b80831015613c0a5784516001600160a01b03168252938301936001929092019190830190613be1565b509695505050505050565b6020815260006133986020830184613b84565b80356001600160a01b0381168114613c3f57600080fd5b919050565b600060208284031215613c5657600080fd5b61339882613c28565b60008060208385031215613c7257600080fd5b82356001600160401b0380821115613c8957600080fd5b818501915085601f830112613c9d57600080fd5b813581811115613cac57600080fd5b8660208260051b8501011115613cc157600080fd5b60209290920196919550909350505050565b805182526000602082015160406020850152613cf26040850182613b84565b949350505050565b60008282518085526020808601955060208260051b8401016020860160005b84811015613d4757601f19868403018952613d35838351613cd3565b98840198925090830190600101613d19565b5090979650505050505050565b6020815260006133986020830184613cfa565b606081526000613d7a6060830186613b84565b8460208401528281036040840152613d928185613ace565b9695505050505050565b803560068110613c3f57600080fd5b60008060408385031215613dbe57600080fd5b613dc783613c28565b9150613dd560208401613d9c565b90509250929050565b6020815260006133986020830184613cd3565b634e487b7160e01b600052604160045260246000fd5b604051601f8201601f191681016001600160401b0381118282101715613e2f57613e2f613df1565b604052919050565b600082601f830112613e4857600080fd5b81356001600160401b03811115613e6157613e61613df1565b613e74601f8201601f1916602001613e07565b818152846020838601011115613e8957600080fd5b816020850160208301376000918101602001919091529392505050565b60008060008060808587031215613ebc57600080fd5b843593506020808601356001600160401b0380821115613edb57600080fd5b818801915088601f830112613eef57600080fd5b813581811115613f0157613f01613df1565b8060051b613f10858201613e07565b918252838101850191858101908c841115613f2a57600080fd5b948601945b83861015613f4f57613f4086613c28565b82529486019490860190613f2f565b9850505050604088013594506060880135925080831115613f6f57600080fd5b5050613f7d87828801613e37565b91505092959194509250565b60008060408385031215613f9c57600080fd5b613fa583613c28565b915060208301356001600160401b03811115613fc057600080fd5b613fcc85828601613e37565b9150509250929050565b6020808252825182820181905260009190848201906040850190845b8181101561400e57835183529284019291840191600101613ff2565b50909695505050505050565b634e487b7160e01b600052602160045260246000fd5b6006811061404e57634e487b7160e01b600052602160045260246000fd5b9052565b61405d828251614030565b60006020820151608060208501526140786080850182613ace565b6040848101516001600160a01b03908116918701919091526060948501511693909401929092525090919050565b6020815260006133986020830184614052565b600080604083850312156140cc57600080fd5b82359150613dd560208401613c28565b80356001600160401b0381168114613c3f57600080fd5b6000806000806060858703121561410957600080fd5b84359350614119602086016140dc565b925060408501356001600160401b038082111561413557600080fd5b818701915087601f83011261414957600080fd5b81358181111561415857600080fd5b88602082850101111561416a57600080fd5b95989497505060200194505050565b600060208083016020845280855180835260408601915060408160051b87010192506020870160005b828110156141d057603f198886030184526141be858351614052565b945092850192908501906001016141a2565b5092979650505050505050565b600080604083850312156141f057600080fd5b82359150613dd5602084016140dc565b60008151808452602080850194506020840160005b8381101561423a5781516001600160a01b031687529582019590820190600101614215565b509495945050505050565b6020815260006133986020830184614200565b6000806040838503121561426b57600080fd5b50508035926020909101359150565b60408152600061428d6040830185613cfa565b905082151560208301529392505050565b80358015158114613c3f57600080fd5b600080600080600060a086880312156142c657600080fd5b8535945060208601359350604086013592506142e4606087016140dc565b91506142f26080870161429e565b90509295509295909350565b60008060006060848603121561431357600080fd5b61431c84613c28565b925060208401356001600160401b0381111561433757600080fd5b61434386828701613e37565b92505061435260408501613d9c565b90509250925092565b6000806020838503121561436e57600080fd5b82356001600160401b038082111561438557600080fd5b818501915085601f83011261439957600080fd5b8135818111156143a857600080fd5b86602060a083028501011115613cc157600080fd5b6020815260006133986020830184613ace565b634e487b7160e01b600052603160045260246000fd5b634e487b7160e01b600052601160045260246000fd5b8082018082111561164f5761164f6143e6565b600181811c9082168061442357607f821691505b602082108103610f3f57634e487b7160e01b600052602260045260246000fd5b634e487b7160e01b600052603260045260246000fd5b60006001820161446b5761446b6143e6565b5060010190565b600063ffffffff80831681810361448b5761448b6143e6565b6001019392505050565b6020810161164f8284614030565b601f821115610b0e576000816000526020600020601f850160051c810160208610156144cc5750805b601f850160051c820191505b818110156144eb578281556001016144d8565b505050505050565b600019600383901b1c191660019190911b1790565b81516001600160401b0381111561452157614521613df1565b6145358161452f845461440f565b846144a3565b602080601f83116001811461456457600084156145525750858301515b61455c85826144f3565b8655506144eb565b600085815260208120601f198616915b8281101561459357888601518255948401946001909101908401614574565b50858210156145b15787850151600019600388901b60f8161c191681555b5050505050600190811b01905550565b8481526080602082015260006145da6080830186614200565b84604084015282810360608401526145f28185613ace565b979650505050505050565b6000825161460f818460208701613aaa565b9190910192915050565b60008083546146278161440f565b6001828116801561463f576001811461465457614683565b60ff1984168752821515830287019450614683565b8760005260208060002060005b8581101561467a5781548a820152908401908201614661565b50505082870194505b50929695505050505050565b6001600160401b038311156146a6576146a6613df1565b6146ba836146b4835461440f565b836144a3565b6000601f8411600181146146e857600085156146d65750838201355b6146e086826144f3565b84555061206e565b600083815260209020601f19861690835b8281101561471957868501358255602094850194600190920191016146f9565b50868210156147365760001960f88860031b161c19848701351681555b505060018560011b0183555050505050565b8581526001600160401b038516602082015260806040820152826080820152828460a0830137600081840160a0908101919091529115156060820152601f909201601f1916909101019392505050565b8181038181111561164f5761164f6143e6565b8181036147b6575050565b6147c0825461440f565b6001600160401b038111156147d7576147d7613df1565b6147e58161452f845461440f565b6000601f82116001811461481357600083156148015750848201545b61480b84826144f3565b85555061206e565b600085815260209020601f19841690600086815260209020845b8381101561484d578286015482556001958601959091019060200161482d565b50858310156145b15793015460001960f8600387901b161c19169092555050600190811b01905550565b60408152600061488a6040830185613ace565b90506133986020830184614030565b6000602082840312156148ab57600080fd5b613398826140dc565b8481528360208201526001600160401b0383166040820152608060608201526000613d926080830184613ace565b6000602082840312156148f457600080fd5b6133988261429e56fec01483261a841a868b99cb8802faed4ea44a1a816651c4f7ee061a96a205fe98","linkReferences":{}},"methodIdentifiers":{"__OperatorRegistry_init(address[])":"ba428b1a","__RiverConfig_init(address[])":"31374511","allocateStream(bytes32,address[],bytes32,bytes)":"6b883c39","approveConfigurationManager(address)":"c179b85f","approveOperator(address)":"242cae9f","configurationExists(bytes32)":"fc207c01","deleteConfiguration(bytes32)":"035759e1","deleteConfigurationOnBlock(bytes32,uint64)":"b7f227ee","getAllConfiguration()":"081814db","getAllNodeAddresses()":"c8fe3a01","getAllNodes()":"a1174e7d","getAllOperators()":"d911c632","getAllStreamIds()":"86789fc6","getAllStreams()":"3bd84c0c","getConfiguration(bytes32)":"9283ae3a","getNode(address)":"9d209048","getNodeCount()":"39bf397e","getPaginatedStreams(uint256,uint256)":"ca78c41a","getStream(bytes32)":"1290abe8","getStreamByIndex(uint256)":"68b454df","getStreamCount()":"c0f22084","getStreamCountOnNode(address)":"c87d1324","getStreamWithGenesis(bytes32)":"3c2544d1","getStreamsOnNode(address)":"32705ac4","isConfigurationManager(address)":"d4bd44a0","isOperator(address)":"6d70f7ae","placeStreamOnNode(bytes32,address)":"9ee86d38","registerNode(address,string,uint8)":"eecc66f4","removeConfigurationManager(address)":"813049ec","removeNode(address)":"b2b99ec9","removeOperator(address)":"ac8a584a","removeStreamFromNode(bytes32,address)":"ee885b12","setConfiguration(bytes32,uint64,bytes)":"a09449a6","setStreamLastMiniblock(bytes32,bytes32,bytes32,uint64,bool)":"d7a3158a","setStreamLastMiniblockBatch((bytes32,bytes32,bytes32,uint64,bool)[])":"ff3a14ab","updateNodeStatus(address,uint8)":"581f8b9b","updateNodeUrl(address,string)":"7e4465e7"},"id":299}