{"abi":[{"type":"constructor","inputs":[{"name":"approvedOperators","type":"address[]","internalType":"address[]"}],"stateMutability":"nonpayable"},{"type":"function","name":"__OperatorRegistry_init","inputs":[{"name":"initialOperators","type":"address[]","internalType":"address[]"}],"outputs":[],"stateMutability":"nonpayable"},{"type":"function","name":"__RiverConfig_init","inputs":[{"name":"configManagers","type":"address[]","internalType":"address[]"}],"outputs":[],"stateMutability":"nonpayable"},{"type":"function","name":"allocateStream","inputs":[{"name":"streamId","type":"bytes32","internalType":"bytes32"},{"name":"nodes","type":"address[]","internalType":"address[]"},{"name":"genesisMiniblockHash","type":"bytes32","internalType":"bytes32"},{"name":"genesisMiniblock","type":"bytes","internalType":"bytes"}],"outputs":[],"stateMutability":"nonpayable"},{"type":"function","name":"approveConfigurationManager","inputs":[{"name":"manager","type":"address","internalType":"address"}],"outputs":[],"stateMutability":"nonpayable"},{"type":"function","name":"approveOperator","inputs":[{"name":"operator","type":"address","internalType":"address"}],"outputs":[],"stateMutability":"nonpayable"},{"type":"function","name":"configurationExists","inputs":[{"name":"key","type":"bytes32","internalType":"bytes32"}],"outputs":[{"name":"","type":"bool","internalType":"bool"}],"stateMutability":"view"},{"type":"function","name":"deleteConfiguration","inputs":[{"name":"key","type":"bytes32","internalType":"bytes32"}],"outputs":[],"stateMutability":"nonpayable"},{"type":"function","name":"deleteConfigurationOnBlock","inputs":[{"name":"key","type":"bytes32","internalType":"bytes32"},{"name":"blockNumber","type":"uint64","internalType":"uint64"}],"outputs":[],"stateMutability":"nonpayable"},{"type":"function","name":"getAllConfiguration","inputs":[],"outputs":[{"name":"","type":"tuple[]","internalType":"struct Setting[]","components":[{"name":"key","type":"bytes32","internalType":"bytes32"},{"name":"blockNumber","type":"uint64","internalType":"uint64"},{"name":"value","type":"bytes","internalType":"bytes"}]}],"stateMutability":"view"},{"type":"function","name":"getAllNodeAddresses","inputs":[],"outputs":[{"name":"","type":"address[]","internalType":"address[]"}],"stateMutability":"view"},{"type":"function","name":"getAllNodes","inputs":[],"outputs":[{"name":"","type":"tuple[]","internalType":"struct Node[]","components":[{"name":"status","type":"uint8","internalType":"enum NodeStatus"},{"name":"url","type":"string","internalType":"string"},{"name":"nodeAddress","type":"address","internalType":"address"},{"name":"operator","type":"address","internalType":"address"}]}],"stateMutability":"view"},{"type":"function","name":"getAllOperators","inputs":[],"outputs":[{"name":"","type":"address[]","internalType":"address[]"}],"stateMutability":"view"},{"type":"function","name":"getAllStreamIds","inputs":[],"outputs":[{"name":"","type":"bytes32[]","internalType":"bytes32[]"}],"stateMutability":"view"},{"type":"function","name":"getAllStreams","inputs":[],"outputs":[{"name":"","type":"tuple[]","internalType":"struct StreamWithId[]","components":[{"name":"id","type":"bytes32","internalType":"bytes32"},{"name":"stream","type":"tuple","internalType":"struct Stream","components":[{"name":"lastMiniblockHash","type":"bytes32","internalType":"bytes32"},{"name":"lastMiniblockNum","type":"uint64","internalType":"uint64"},{"name":"reserved0","type":"uint64","internalType":"uint64"},{"name":"flags","type":"uint64","internalType":"uint64"},{"name":"nodes","type":"address[]","internalType":"address[]"}]}]}],"stateMutability":"view"},{"type":"function","name":"getConfiguration","inputs":[{"name":"key","type":"bytes32","internalType":"bytes32"}],"outputs":[{"name":"","type":"tuple[]","internalType":"struct Setting[]","components":[{"name":"key","type":"bytes32","internalType":"bytes32"},{"name":"blockNumber","type":"uint64","internalType":"uint64"},{"name":"value","type":"bytes","internalType":"bytes"}]}],"stateMutability":"view"},{"type":"function","name":"getNode","inputs":[{"name":"nodeAddress","type":"address","internalType":"address"}],"outputs":[{"name":"","type":"tuple","internalType":"struct Node","components":[{"name":"status","type":"uint8","internalType":"enum NodeStatus"},{"name":"url","type":"string","internalType":"string"},{"name":"nodeAddress","type":"address","internalType":"address"},{"name":"operator","type":"address","internalType":"address"}]}],"stateMutability":"view"},{"type":"function","name":"getNodeCount","inputs":[],"outputs":[{"name":"","type":"uint256","internalType":"uint256"}],"stateMutability":"view"},{"type":"function","name":"getPaginatedStreams","inputs":[{"name":"start","type":"uint256","internalType":"uint256"},{"name":"stop","type":"uint256","internalType":"uint256"}],"outputs":[{"name":"","type":"tuple[]","internalType":"struct StreamWithId[]","components":[{"name":"id","type":"bytes32","internalType":"bytes32"},{"name":"stream","type":"tuple","internalType":"struct Stream","components":[{"name":"lastMiniblockHash","type":"bytes32","internalType":"bytes32"},{"name":"lastMiniblockNum","type":"uint64","internalType":"uint64"},{"name":"reserved0","type":"uint64","internalType":"uint64"},{"name":"flags","type":"uint64","internalType":"uint64"},{"name":"nodes","type":"address[]","internalType":"address[]"}]}]},{"name":"","type":"bool","internalType":"bool"}],"stateMutability":"view"},{"type":"function","name":"getStream","inputs":[{"name":"streamId","type":"bytes32","internalType":"bytes32"}],"outputs":[{"name":"","type":"tuple","internalType":"struct Stream","components":[{"name":"lastMiniblockHash","type":"bytes32","internalType":"bytes32"},{"name":"lastMiniblockNum","type":"uint64","internalType":"uint64"},{"name":"reserved0","type":"uint64","internalType":"uint64"},{"name":"flags","type":"uint64","internalType":"uint64"},{"name":"nodes","type":"address[]","internalType":"address[]"}]}],"stateMutability":"view"},{"type":"function","name":"getStreamByIndex","inputs":[{"name":"i","type":"uint256","internalType":"uint256"}],"outputs":[{"name":"","type":"tuple","internalType":"struct StreamWithId","components":[{"name":"id","type":"bytes32","internalType":"bytes32"},{"name":"stream","type":"tuple","internalType":"struct Stream","components":[{"name":"lastMiniblockHash","type":"bytes32","internalType":"bytes32"},{"name":"lastMiniblockNum","type":"uint64","internalType":"uint64"},{"name":"reserved0","type":"uint64","internalType":"uint64"},{"name":"flags","type":"uint64","internalType":"uint64"},{"name":"nodes","type":"address[]","internalType":"address[]"}]}]}],"stateMutability":"view"},{"type":"function","name":"getStreamCount","inputs":[],"outputs":[{"name":"","type":"uint256","internalType":"uint256"}],"stateMutability":"view"},{"type":"function","name":"getStreamCountOnNode","inputs":[{"name":"nodeAddress","type":"address","internalType":"address"}],"outputs":[{"name":"","type":"uint256","internalType":"uint256"}],"stateMutability":"view"},{"type":"function","name":"getStreamWithGenesis","inputs":[{"name":"streamId","type":"bytes32","internalType":"bytes32"}],"outputs":[{"name":"","type":"tuple","internalType":"struct Stream","components":[{"name":"lastMiniblockHash","type":"bytes32","internalType":"bytes32"},{"name":"lastMiniblockNum","type":"uint64","internalType":"uint64"},{"name":"reserved0","type":"uint64","internalType":"uint64"},{"name":"flags","type":"uint64","internalType":"uint64"},{"name":"nodes","type":"address[]","internalType":"address[]"}]},{"name":"","type":"bytes32","internalType":"bytes32"},{"name":"","type":"bytes","internalType":"bytes"}],"stateMutability":"view"},{"type":"function","name":"getStreamsOnNode","inputs":[{"name":"nodeAddress","type":"address","internalType":"address"}],"outputs":[{"name":"","type":"tuple[]","internalType":"struct StreamWithId[]","components":[{"name":"id","type":"bytes32","internalType":"bytes32"},{"name":"stream","type":"tuple","internalType":"struct Stream","components":[{"name":"lastMiniblockHash","type":"bytes32","internalType":"bytes32"},{"name":"lastMiniblockNum","type":"uint64","internalType":"uint64"},{"name":"reserved0","type":"uint64","internalType":"uint64"},{"name":"flags","type":"uint64","internalType":"uint64"},{"name":"nodes","type":"address[]","internalType":"address[]"}]}]}],"stateMutability":"view"},{"type":"function","name":"isConfigurationManager","inputs":[{"name":"manager","type":"address","internalType":"address"}],"outputs":[{"name":"","type":"bool","internalType":"bool"}],"stateMutability":"view"},{"type":"function","name":"isOperator","inputs":[{"name":"operator","type":"address","internalType":"address"}],"outputs":[{"name":"","type":"bool","internalType":"bool"}],"stateMutability":"view"},{"type":"function","name":"placeStreamOnNode","inputs":[{"name":"streamId","type":"bytes32","internalType":"bytes32"},{"name":"nodeAddress","type":"address","internalType":"address"}],"outputs":[],"stateMutability":"nonpayable"},{"type":"function","name":"registerNode","inputs":[{"name":"nodeAddress","type":"address","internalType":"address"},{"name":"url","type":"string","internalType":"string"},{"name":"status","type":"uint8","internalType":"enum NodeStatus"}],"outputs":[],"stateMutability":"nonpayable"},{"type":"function","name":"removeConfigurationManager","inputs":[{"name":"manager","type":"address","internalType":"address"}],"outputs":[],"stateMutability":"nonpayable"},{"type":"function","name":"removeNode","inputs":[{"name":"nodeAddress","type":"address","internalType":"address"}],"outputs":[],"stateMutability":"nonpayable"},{"type":"function","name":"removeOperator","inputs":[{"name":"operator","type":"address","internalType":"address"}],"outputs":[],"stateMutability":"nonpayable"},{"type":"function","name":"removeStreamFromNode","inputs":[{"name":"streamId","type":"bytes32","internalType":"bytes32"},{"name":"nodeAddress","type":"address","internalType":"address"}],"outputs":[],"stateMutability":"nonpayable"},{"type":"function","name":"setConfiguration","inputs":[{"name":"key","type":"bytes32","internalType":"bytes32"},{"name":"blockNumber","type":"uint64","internalType":"uint64"},{"name":"value","type":"bytes","internalType":"bytes"}],"outputs":[],"stateMutability":"nonpayable"},{"type":"function","name":"setStreamLastMiniblock","inputs":[{"name":"streamId","type":"bytes32","internalType":"bytes32"},{"name":"","type":"bytes32","internalType":"bytes32"},{"name":"lastMiniblockHash","type":"bytes32","internalType":"bytes32"},{"name":"lastMiniblockNum","type":"uint64","internalType":"uint64"},{"name":"isSealed","type":"bool","internalType":"bool"}],"outputs":[],"stateMutability":"nonpayable"},{"type":"function","name":"setStreamLastMiniblockBatch","inputs":[{"name":"miniblocks","type":"tuple[]","internalType":"struct SetMiniblock[]","components":[{"name":"streamId","type":"bytes32","internalType":"bytes32"},{"name":"prevMiniBlockHash","type":"bytes32","internalType":"bytes32"},{"name":"lastMiniblockHash","type":"bytes32","internalType":"bytes32"},{"name":"lastMiniblockNum","type":"uint64","internalType":"uint64"},{"name":"isSealed","type":"bool","internalType":"bool"}]}],"outputs":[],"stateMutability":"nonpayable"},{"type":"function","name":"updateNodeStatus","inputs":[{"name":"nodeAddress","type":"address","internalType":"address"},{"name":"status","type":"uint8","internalType":"enum NodeStatus"}],"outputs":[],"stateMutability":"nonpayable"},{"type":"function","name":"updateNodeUrl","inputs":[{"name":"nodeAddress","type":"address","internalType":"address"},{"name":"url","type":"string","internalType":"string"}],"outputs":[],"stateMutability":"nonpayable"},{"type":"event","name":"ConfigurationChanged","inputs":[{"name":"key","type":"bytes32","indexed":false,"internalType":"bytes32"},{"name":"block","type":"uint64","indexed":false,"internalType":"uint64"},{"name":"value","type":"bytes","indexed":false,"internalType":"bytes"},{"name":"deleted","type":"bool","indexed":false,"internalType":"bool"}],"anonymous":false},{"type":"event","name":"ConfigurationManagerAdded","inputs":[{"name":"manager","type":"address","indexed":true,"internalType":"address"}],"anonymous":false},{"type":"event","name":"ConfigurationManagerRemoved","inputs":[{"name":"manager","type":"address","indexed":true,"internalType":"address"}],"anonymous":false},{"type":"event","name":"Initialized","inputs":[{"name":"version","type":"uint32","indexed":false,"internalType":"uint32"}],"anonymous":false},{"type":"event","name":"InterfaceAdded","inputs":[{"name":"interfaceId","type":"bytes4","indexed":true,"internalType":"bytes4"}],"anonymous":false},{"type":"event","name":"InterfaceRemoved","inputs":[{"name":"interfaceId","type":"bytes4","indexed":true,"internalType":"bytes4"}],"anonymous":false},{"type":"event","name":"NodeAdded","inputs":[{"name":"nodeAddress","type":"address","indexed":true,"internalType":"address"},{"name":"url","type":"string","indexed":false,"internalType":"string"},{"name":"status","type":"uint8","indexed":false,"internalType":"enum NodeStatus"}],"anonymous":false},{"type":"event","name":"NodeRemoved","inputs":[{"name":"nodeAddress","type":"address","indexed":true,"internalType":"address"}],"anonymous":false},{"type":"event","name":"NodeStatusUpdated","inputs":[{"name":"nodeAddress","type":"address","indexed":true,"internalType":"address"},{"name":"status","type":"uint8","indexed":false,"internalType":"enum NodeStatus"}],"anonymous":false},{"type":"event","name":"NodeUrlUpdated","inputs":[{"name":"nodeAddress","type":"address","indexed":true,"internalType":"address"},{"name":"url","type":"string","indexed":false,"internalType":"string"}],"anonymous":false},{"type":"event","name":"OperatorAdded","inputs":[{"name":"operatorAddress","type":"address","indexed":true,"internalType":"address"}],"anonymous":false},{"type":"event","name":"OperatorRemoved","inputs":[{"name":"operatorAddress","type":"address","indexed":true,"internalType":"address"}],"anonymous":false},{"type":"event","name":"OwnershipTransferred","inputs":[{"name":"previousOwner","type":"address","indexed":true,"internalType":"address"},{"name":"newOwner","type":"address","indexed":true,"internalType":"address"}],"anonymous":false},{"type":"event","name":"StreamAllocated","inputs":[{"name":"streamId","type":"bytes32","indexed":false,"internalType":"bytes32"},{"name":"nodes","type":"address[]","indexed":false,"internalType":"address[]"},{"name":"genesisMiniblockHash","type":"bytes32","indexed":false,"internalType":"bytes32"},{"name":"genesisMiniblock","type":"bytes","indexed":false,"internalType":"bytes"}],"anonymous":false},{"type":"event","name":"StreamLastMiniblockUpdateFailed","inputs":[{"name":"streamId","type":"bytes32","indexed":false,"internalType":"bytes32"},{"name":"lastMiniblockHash","type":"bytes32","indexed":false,"internalType":"bytes32"},{"name":"lastMiniblockNum","type":"uint64","indexed":false,"internalType":"uint64"},{"name":"reason","type":"string","indexed":false,"internalType":"string"}],"anonymous":false},{"type":"event","name":"StreamLastMiniblockUpdated","inputs":[{"name":"streamId","type":"bytes32","indexed":false,"internalType":"bytes32"},{"name":"lastMiniblockHash","type":"bytes32","indexed":false,"internalType":"bytes32"},{"name":"lastMiniblockNum","type":"uint64","indexed":false,"internalType":"uint64"},{"name":"isSealed","type":"bool","indexed":false,"internalType":"bool"}],"anonymous":false},{"type":"event","name":"StreamPlacementUpdated","inputs":[{"name":"streamId","type":"bytes32","indexed":false,"internalType":"bytes32"},{"name":"nodeAddress","type":"address","indexed":false,"internalType":"address"},{"name":"isAdded","type":"bool","indexed":false,"internalType":"bool"}],"anonymous":false},{"type":"error","name":"Initializable_InInitializingState","inputs":[]},{"type":"error","name":"Initializable_NotInInitializingState","inputs":[]},{"type":"error","name":"Introspection_AlreadySupported","inputs":[]},{"type":"error","name":"Introspection_NotSupported","inputs":[]},{"type":"error","name":"Ownable__NotOwner","inputs":[{"name":"account","type":"address","internalType":"address"}]},{"type":"error","name":"Ownable__ZeroAddress","inputs":[]}],"bytecode":{"object":"0x60806040523480156200001157600080fd5b5060405162004f6238038062004f628339810160408190526200003491620004a6565b6200003e620000c1565b620000493362000169565b60005b8151811015620000b957620000838282815181106200006f576200006f62000578565b60200260200101516200023760201b60201c565b620000b08282815181106200009c576200009c62000578565b60200260200101516200031c60201b60201c565b6001016200004c565b5050620005df565b7f59b501c3653afc186af7d48dda36cf6732bd21629a6295693664240a6ef520008054640100000000900460ff16156200010e576040516366008a2d60e01b815260040160405180910390fd5b805463ffffffff90811610156200016657805463ffffffff191663ffffffff90811782556040519081527fe9c9b456cb2994b80aeef036cf59d26e9617df80f816a6ee5a5b4166e07e2f5c9060200160405180910390a15b50565b60006200019d7f4675fa8241f86f37157864d3d49b85ad4b164352c516da28e1678a90470ae300546001600160a01b031690565b90506001600160a01b038216620001c757604051634e3ef82560e01b815260040160405180910390fd5b817f4675fa8241f86f37157864d3d49b85ad4b164352c516da28e1678a90470ae30080546001600160a01b0319166001600160a01b03928316179055604051838216918316907f8be0079c531659141344cd1fd0a4f28419497f9722a3daafe3b4186f6b6457e090600090a35050565b6001600160a01b038116620002865760408051808201825260078152664241445f41524760c81b6020820152905162461bcd60e51b81526200027d91906004016200058e565b60405180910390fd5b62000293600882620003e9565b15620002d757604080518082018252600e81526d414c52454144595f45584953545360901b6020820152905162461bcd60e51b81526200027d91906004016200058e565b620002e460088262000410565b506040516001600160a01b038216907fac6fa858e9350a46cec16539926e0fde25b7629f84b5a72bffaae4df888ae86d90600090a250565b6001600160a01b038116620003625760408051808201825260078152664241445f41524760c81b6020820152905162461bcd60e51b81526200027d91906004016200058e565b6200036f600d8262000410565b620003b257604080518082018252600e81526d414c52454144595f45584953545360901b6020820152905162461bcd60e51b81526200027d91906004016200058e565b6040516001600160a01b038216907f7afd798379ae2d2e5035438544cea2b60eb1dde6a8128e6d447fd2a25f8825a290600090a250565b6001600160a01b038116600090815260018301602052604081205415155b90505b92915050565b600062000407836001600160a01b03841660008181526001830160205260408120546200046a575081546001818101845560008481526020808220909301849055845484825282860190935260409020919091556200040a565b5060006200040a565b634e487b7160e01b600052604160045260246000fd5b80516001600160a01b0381168114620004a157600080fd5b919050565b60006020808385031215620004ba57600080fd5b82516001600160401b0380821115620004d257600080fd5b818501915085601f830112620004e757600080fd5b815181811115620004fc57620004fc62000473565b8060051b604051601f19603f8301168101818110858211171562000524576200052462000473565b6040529182528482019250838101850191888311156200054357600080fd5b938501935b828510156200056c576200055c8562000489565b8452938501939285019262000548565b98975050505050505050565b634e487b7160e01b600052603260045260246000fd5b60006020808352835180602085015260005b81811015620005be57858101830151858201604001528201620005a0565b506000604082860101526040601f19601f8301168501019250505092915050565b61497380620005ef6000396000f3fe608060405234801561001057600080fd5b50600436106102275760003560e01c80639ee86d3811610130578063c87d1324116100b8578063d911c6321161007c578063d911c632146104ed578063ee885b12146104f5578063eecc66f414610508578063fc207c011461051b578063ff3a14ab1461052e57600080fd5b8063c87d13241461047e578063c8fe3a0114610491578063ca78c41a146104a6578063d4bd44a0146104c7578063d7a3158a146104da57600080fd5b8063b2b99ec9116100ff578063b2b99ec91461042a578063b7f227ee1461043d578063ba428b1a14610450578063c0f2208414610463578063c179b85f1461046b57600080fd5b80639ee86d38146103dc578063a09449a6146103ef578063a1174e7d14610402578063ac8a584a1461041757600080fd5b8063581f8b9b116101b35780637e4465e7116101825780637e4465e71461036e578063813049ec1461038157806386789fc6146103945780639283ae3a146103a95780639d209048146103bc57600080fd5b8063581f8b9b1461030557806368b454df146103185780636b883c39146103385780636d70f7ae1461034b57600080fd5b806331374511116101fa578063313745111461029257806332705ac4146102a557806339bf397e146102c55780633bd84c0c146102db5780633c2544d1146102e357600080fd5b8063035759e11461022c578063081814db146102415780631290abe81461025f578063242cae9f1461027f575b600080fd5b61023f61023a366004613ae6565b610541565b005b6102496106b5565b6040516102569190613b4f565b60405180910390f35b61027261026d366004613ae6565b610920565b6040516102569190613c6a565b61023f61028d366004613c99565b610a42565b61023f6102a0366004613cb4565b610a89565b6102b86102b3366004613c99565b610b1a565b6040516102569190613da9565b6102cd610dca565b604051908152602001610256565b6102b8610ddb565b6102f66102f1366004613ae6565b610f4c565b60405161025693929190613dbc565b61023f610313366004613e00565b61111d565b61032b610326366004613ae6565b6112bd565b6040516102569190613e33565b61023f610346366004613efb565b6113e4565b61035e610359366004613c99565b611649565b6040519015158152602001610256565b61023f61037c366004613fde565b61165c565b61023f61038f366004613c99565b611854565b61039c61194f565b604051610256919061402b565b6102496103b7366004613ae6565b61195b565b6103cf6103ca366004613c99565b611abd565b60405161025691906140fb565b61023f6103ea36600461410e565b611c3e565b61023f6103fd366004614148565b611dfb565b61040a6120ca565b60405161025691906141ce565b61023f610425366004613c99565b61229e565b61023f610438366004613c99565b612401565b61023f61044b366004614232565b6125ca565b61023f61045e366004613cb4565b612819565b6102cd6128a5565b61023f610479366004613c99565b6128b0565b6102cd61048c366004613c99565b6128f4565b61049961299c565b604051610256919061429a565b6104b96104b43660046142ad565b6129a8565b6040516102569291906142cf565b61035e6104d5366004613c99565b612ba1565b61023f6104e8366004614303565b612bae565b610499612d39565b61023f61050336600461410e565b612d45565b61023f610516366004614353565b612f91565b61035e610529366004613ae6565b61315b565b61023f61053c3660046143b0565b613168565b3361054d600d826133cf565b6105905760408051808201825260088152670848288be82aaa8960c31b6020820152905162461bcd60e51b81526105879190600401614412565b60405180910390fd5b8161059c600a826133f4565b6105d75760408051808201825260098152681393d517d193d5539160ba1b6020820152905162461bcd60e51b81526105879190600401614412565b6000838152600c60205260409020541561064a576000838152600c6020526040902080548061060857610608614425565b60008281526020812060036000199093019283020181815560018101805467ffffffffffffffff19169055906106416002830182613991565b505090556105d7565b6000838152600c60205260408120610661916139cb565b61066c600a8461340c565b50604080518481526001600160401b03602082015260808183018190526000908201526001606082015290516000805160206149538339815191529181900360a00190a1505050565b60606000806106c4600a613418565b905060005b818110156107055760006106de600a83613422565b6000818152600c60205260409020549091506106fa9085614451565b9350506001016106c9565b506000826001600160401b0381111561072057610720613e46565b60405190808252806020026020018201604052801561076d57816020015b6040805160608082018352600080835260208301529181019190915281526020019060019003908161073e5790505b509050600061077c600a613418565b90506000805b82811015610915576000610797600a83613422565b6000818152600c6020908152604080832080548251818502810185019093528083529495509293909291849084015b828210156108aa57600084815260209081902060408051606081018252600386029092018054835260018101546001600160401b0316938301939093526002830180549293929184019161081990614464565b80601f016020809104026020016040519081016040528092919081815260200182805461084590614464565b80156108925780601f1061086757610100808354040283529160200191610892565b820191906000526020600020905b81548152906001019060200180831161087557829003601f168201915b505050505081525050815260200190600101906107c6565b50505050905060005b8151811015610907578181815181106108ce576108ce614498565b60200260200101518786806108e2906144ae565b9750815181106108f4576108f4614498565b60209081029190910101526001016108b3565b505050806001019050610782565b509195945050505050565b6040805160a081018252600080825260208201819052918101829052606080820183905260808201529061095490836133f4565b61098f5760408051808201825260098152681393d517d193d5539160ba1b6020820152905162461bcd60e51b81526105879190600401614412565b600082815260026020818152604092839020835160a0810185528154815260018201546001600160401b0380821683860152600160401b8204811683880152600160801b9091041660608201529281018054855181850281018501909652808652939491936080860193830182828015610a3257602002820191906000526020600020905b81546001600160a01b03168152600190910190602001808311610a14575b5050505050815250509050919050565b610a4a61342e565b6001600160a01b0316336001600160a01b031614610a7d576040516365f4906560e01b8152336004820152602401610587565b610a868161345c565b50565b7f59b501c3653afc186af7d48dda36cf6732bd21629a6295693664240a6ef5200054640100000000900460ff16610ad357604051630ef4733760e31b815260040160405180910390fd5b60005b81811015610b1557610b0d838383818110610af357610af3614498565b9050602002016020810190610b089190613c99565b61352e565b600101610ad6565b505050565b60606000610b2781613418565b6001600160401b03811115610b3e57610b3e613e46565b604051908082528060200260200182016040528015610b67578160200160208202803683370190505b5090506000805b610b786000613418565b811015610c2d576000610b8b8183613422565b60008181526002602052604081209192505b6002820154811015610c1f57876001600160a01b0316826002018281548110610bc857610bc8614498565b6000918252602090912001546001600160a01b031603610c1757828686610bee816144c7565b975063ffffffff1681518110610c0657610c06614498565b602002602001018181525050610c1f565b600101610b9d565b505050806001019050610b6e565b5060008163ffffffff166001600160401b03811115610c4e57610c4e613e46565b604051908082528060200260200182016040528015610c8757816020015b610c746139ec565b815260200190600190039081610c6c5790505b50905060005b8263ffffffff16811015610dc1576040518060400160405280858381518110610cb857610cb8614498565b6020026020010151815260200160006002016000878581518110610cde57610cde614498565b6020908102919091018101518252818101929092526040908101600020815160a0810183528154815260018201546001600160401b0380821683870152600160401b8204811683860152600160801b909104166060820152600282018054845181870281018701909552808552919492936080860193909290830182828015610d9057602002820191906000526020600020905b81546001600160a01b03168152600190910190602001808311610d72575b505050505081525050815250828281518110610dae57610dae614498565b6020908102919091010152600101610c8d565b50949350505050565b6000610dd66005613418565b905090565b60606000610de881613418565b6001600160401b03811115610dff57610dff613e46565b604051908082528060200260200182016040528015610e3857816020015b610e256139ec565b815260200190600190039081610e1d5790505b50905060005b610e486000613418565b811015610f46576000610e5b8183613422565b60408051808201825282815260008381526002602081815291849020845160a0810186528154815260018201546001600160401b0380821683870152600160401b8204811683890152600160801b9091041660608201529181018054865181860281018601909752808752969750939583870195929491936080860193929190830182828015610f1457602002820191906000526020600020905b81546001600160a01b03168152600190910190602001808311610ef6575b505050505081525050815250838381518110610f3257610f32614498565b602090810291909101015250600101610e3e565b50919050565b6040805160a081018252600080825260208201819052918101829052606080820183905260808201819052909190610f8482856133f4565b610fbf5760408051808201825260098152681393d517d193d5539160ba1b6020820152905162461bcd60e51b81526105879190600401614412565b600084815260026020818152604080842060048352818520546003845294829020825160a0810184528254815260018301546001600160401b0380821683880152600160401b8204811683870152600160801b9091041660608201529482018054845181870281018701909552808552929695919491938793608086019391929183018282801561107957602002820191906000526020600020905b81546001600160a01b0316815260019091019060200180831161105b575b505050505081525050925080805461109090614464565b80601f01602080910402602001604051908101604052809291908181526020018280546110bc90614464565b80156111095780601f106110de57610100808354040283529160200191611109565b820191906000526020600020905b8154815290600101906020018083116110ec57829003601f168201915b505050505090509250925092509193909250565b6001600160a01b0380831660009081526007602052604090206002015483911661117d57604080518082018252600e81526d1393d11157d393d517d193d5539160921b6020820152905162461bcd60e51b81526105879190600401614412565b336111896008826133cf565b6111c35760408051808201825260088152670848288be82aaa8960c31b6020820152905162461bcd60e51b81526105879190600401614412565b6001600160a01b03808516600090815260076020526040902060030154859133911681146112215760408051808201825260088152670848288be82aaa8960c31b6020820152905162461bcd60e51b81526105879190600401614412565b6001600160a01b038616600090815260076020526040902080546112489060ff16876135f3565b80548690829060ff191660018360058111156112665761126661406f565b021790555060028101546040516001600160a01b03909116907f20891cc7622c7951cbd8c70c61a5201eb45625b8c00e8f6c986cfca78f3dbfa0906112ac9089906144ea565b60405180910390a250505050505050565b6112c56139ec565b6112cf6000613418565b821061130c5760408051808201825260098152681393d517d193d5539160ba1b6020820152905162461bcd60e51b81526105879190600401614412565b60006113188184613422565b60408051808201825282815260008381526002602081815291849020845160a0810186528154815260018201546001600160401b0380821683870152600160401b8204811683890152600160801b90910416606082015291810180548651818602810186019097528087529697509395838701959294919360808601939291908301828280156113d157602002820191906000526020600020905b81546001600160a01b031681526001909101906020018083116113b3575b5050509190925250505090529392505050565b336000818152600760205260409020600201546001600160a01b031661144057604080518082018252600e81526d1393d11157d393d517d193d5539160921b6020820152905162461bcd60e51b81526105879190600401614412565b61144b6000866133f4565b1561148c57604080518082018252600e81526d414c52454144595f45584953545360901b6020820152905162461bcd60e51b81526105879190600401614412565b60005b8451811015611510576114c88582815181106114ad576114ad614498565b602002602001015160006005016133cf90919063ffffffff16565b61150857604080518082018252600e81526d1393d11157d393d517d193d5539160921b6020820152905162461bcd60e51b81526105879190600401614412565b60010161148f565b506040805160a0810182528481526000602082018190529181018290526060810182905260808101869052906115469087613786565b5060008681526002602081815260409283902084518155818501516001820180549587015160608801516001600160401b03908116600160801b0267ffffffffffffffff60801b19928216600160401b026fffffffffffffffffffffffffffffffff199099169190941617969096179590951617909355608084015180518594936115d693908501920190613a36565b50505060008681526003602052604090206115f1848261455d565b5060008681526004602052604090819020859055517f55ef7efc60ef99743e54209752c9a8e047e013917ec91572db75875069dd65bb90611639908890889088908890614616565b60405180910390a1505050505050565b60006116566008836133cf565b92915050565b336116686008826133cf565b6116a25760408051808201825260088152670848288be82aaa8960c31b6020820152905162461bcd60e51b81526105879190600401614412565b6001600160a01b0380841660009081526007602052604090206002015484911661170257604080518082018252600e81526d1393d11157d393d517d193d5539160921b6020820152905162461bcd60e51b81526105879190600401614412565b6001600160a01b03808516600090815260076020526040902060030154859133911681146117605760408051808201825260088152670848288be82aaa8960c31b6020820152905162461bcd60e51b81526105879190600401614412565b6001600160a01b038616600090815260076020908152604091829020915161178a91889101614652565b60405160208183030381529060405280519060200120816001016040516020016117b4919061466e565b60405160208183030381529060405280519060200120036118045760408051808201825260078152664241445f41524760c81b6020820152905162461bcd60e51b81526105879190600401614412565b60018101611812878261455d565b5060028101546040516001600160a01b03909116907f4505168a8705a16fd4d0575197fd0f510db69df93a065e158ad2c0957ba12bac906112ac908990614412565b61185c61342e565b6001600160a01b0316336001600160a01b03161461188f576040516365f4906560e01b8152336004820152602401610587565b6001600160a01b0381166118d25760408051808201825260078152664241445f41524760c81b6020820152905162461bcd60e51b81526105879190600401614412565b6118dd600d82613792565b6119185760408051808201825260098152681393d517d193d5539160ba1b6020820152905162461bcd60e51b81526105879190600401614412565b6040516001600160a01b038216907ff9889c857e5356066b564327caa757c325ecbc001b2b47d72edf8cf9aedb1be590600090a250565b6060610dd660006137a7565b606081611969600a826133f4565b6119a45760408051808201825260098152681393d517d193d5539160ba1b6020820152905162461bcd60e51b81526105879190600401614412565b6000838152600c6020908152604080832080548251818502810185019093528083529193909284015b82821015611ab157600084815260209081902060408051606081018252600386029092018054835260018101546001600160401b03169383019390935260028301805492939291840191611a2090614464565b80601f0160208091040260200160405190810160405280929190818152602001828054611a4c90614464565b8015611a995780601f10611a6e57610100808354040283529160200191611a99565b820191906000526020600020905b815481529060010190602001808311611a7c57829003601f168201915b505050505081525050815260200190600101906119cd565b50505050915050919050565b611ae86040805160808101909152806000815260606020820181905260006040830181905291015290565b611af36005836133cf565b611b3357604080518082018252600e81526d1393d11157d393d517d193d5539160921b6020820152905162461bcd60e51b81526105879190600401614412565b6001600160a01b038216600090815260076020526040908190208151608081019092528054829060ff166005811115611b6e57611b6e61406f565b6005811115611b7f57611b7f61406f565b8152602001600182018054611b9390614464565b80601f0160208091040260200160405190810160405280929190818152602001828054611bbf90614464565b8015611c0c5780601f10611be157610100808354040283529160200191611c0c565b820191906000526020600020905b815481529060010190602001808311611bef57829003601f168201915b505050918352505060028201546001600160a01b03908116602083015260039092015490911660409091015292915050565b81611c4a6000826133f4565b611c855760408051808201825260098152681393d517d193d5539160ba1b6020820152905162461bcd60e51b81526105879190600401614412565b6001600160a01b03808316600090815260076020526040902060020154839116611ce557604080518082018252600e81526d1393d11157d393d517d193d5539160921b6020820152905162461bcd60e51b81526105879190600401614412565b6000848152600260205260408120905b6002820154811015611d7e57846001600160a01b0316826002018281548110611d2057611d20614498565b6000918252602090912001546001600160a01b031603611d7657604080518082018252600e81526d414c52454144595f45584953545360901b6020820152905162461bcd60e51b81526105879190600401614412565b600101611cf5565b5060028101805460018082018355600092835260209283902090910180546001600160a01b0319166001600160a01b03881690811790915560408051898152938401919091528201527faaa473c28a5fe04b6a7ecd795826e462f9d0c23f00ef9f51ec02fa6ea418806f9060600160405180910390a15050505050565b33611e07600d826133cf565b611e415760408051808201825260088152670848288be82aaa8960c31b6020820152905162461bcd60e51b81526105879190600401614412565b67fffffffffffffffe196001600160401b03851601611e8f5760408051808201825260078152664241445f41524760c81b6020820152905162461bcd60e51b81526105879190600401614412565b6000829003611ecd5760408051808201825260078152664241445f41524760c81b6020820152905162461bcd60e51b81526105879190600401614412565b611ed8600a866133f4565b611ee957611ee7600a86613786565b505b6000858152600c6020526040812054905b81811015611fd0576000878152600c6020526040902080546001600160401b038816919083908110611f2e57611f2e614498565b60009182526020909120600160039092020101546001600160401b031603611fc8576000878152600c6020526040902080548691869184908110611f7457611f74614498565b90600052602060002090600302016002019182611f929291906146e4565b50600080516020614953833981519152878787876000604051611fb995949392919061479d565b60405180910390a150506120c3565b600101611efa565b506000600c0160008781526020019081526020016000206040518060600160405280888152602001876001600160401b0316815260200186868080601f0160208091040260200160405190810160405280939291908181526020018383808284376000920182905250939094525050835460018082018655948252602091829020845160039092020190815590830151938101805467ffffffffffffffff19166001600160401b0390951694909417909355506040810151909190600282019061209a908261455d565b50505060008051602061495383398151915286868686600060405161163995949392919061479d565b5050505050565b606060006120d86005613418565b6001600160401b038111156120ef576120ef613e46565b60405190808252806020026020018201604052801561214b57816020015b6121386040805160808101909152806000815260606020820181905260006040830181905291015290565b81526020019060019003908161210d5790505b50905060005b61215b6005613418565b811015610f465760076000612171600584613422565b6001600160a01b03168152602081019190915260409081016000208151608081019092528054829060ff1660058111156121ad576121ad61406f565b60058111156121be576121be61406f565b81526020016001820180546121d290614464565b80601f01602080910402602001604051908101604052809291908181526020018280546121fe90614464565b801561224b5780601f106122205761010080835404028352916020019161224b565b820191906000526020600020905b81548152906001019060200180831161222e57829003601f168201915b505050918352505060028201546001600160a01b039081166020830152600390920154909116604090910152825183908390811061228b5761228b614498565b6020908102919091010152600101612151565b6122a661342e565b6001600160a01b0316336001600160a01b0316146122d9576040516365f4906560e01b8152336004820152602401610587565b6122e46008826133cf565b61232857604080518082018252601281527113d41154905513d497d393d517d193d5539160721b6020820152905162461bcd60e51b81526105879190600401614412565b60005b6123356005613418565b8110156123bd576001600160a01b03821660076000612355600585613422565b6001600160a01b03908116825260208201929092526040016000206003015416036123b557604080518082018252600d81526c4f55545f4f465f424f554e445360981b6020820152905162461bcd60e51b81526105879190600401614412565b60010161232b565b506123c9600882613792565b506040516001600160a01b038216907f80c0b871b97b595b16a7741c1b06fed0c6f6f558639f18ccbce50724325dc40d90600090a250565b6001600160a01b038082166000908152600760205260409020600301548291339116811461245f5760408051808201825260088152670848288be82aaa8960c31b6020820152905162461bcd60e51b81526105879190600401614412565b6001600160a01b03838116600090815260076020526040902060020154166124bd57604080518082018252600e81526d1393d11157d393d517d193d5539160921b6020820152905162461bcd60e51b81526105879190600401614412565b60056001600160a01b03841660009081526007602052604090205460ff1660058111156124ec576124ec61406f565b146125355760408051808201825260168152751393d11157d4d510551157d393d517d0531313d5d15160521b6020820152905162461bcd60e51b81526105879190600401614412565b612540600584613792565b506001600160a01b0383166000908152600760205260408120805460ff191681559061256f6001830182613991565b506002810180546001600160a01b03199081169091556003909101805490911690556040516001600160a01b038416907fcfc24166db4bb677e857cacabd1541fb2b30645021b27c5130419589b84db52b90600090a2505050565b336125d6600d826133cf565b6126105760408051808201825260088152670848288be82aaa8960c31b6020820152905162461bcd60e51b81526105879190600401614412565b6000805b6000858152600c6020526040902054811015612791576000858152600c6020526040902080546001600160401b03861691908390811061265657612656614498565b60009182526020909120600160039092020101546001600160401b031603612789576000858152600c602052604090208054612694906001906147ed565b815481106126a4576126a4614498565b90600052602060002090600302016000600c01600087815260200190815260200160002082815481106126d9576126d9614498565b600091825260209091208254600390920201908155600180830154908201805467ffffffffffffffff19166001600160401b0390921691909117905560028082019061272790840182614800565b5050506000858152600c6020526040902080548061274757612747614425565b60008281526020812060036000199093019283020181815560018101805467ffffffffffffffff19169055906127806002830182613991565b50509055600191505b600101612614565b50806127ce5760408051808201825260098152681393d517d193d5539160ba1b6020820152905162461bcd60e51b81526105879190600401614412565b604080518581526001600160401b038516602082015260808183018190526000908201526001606082015290516000805160206149538339815191529181900360a00190a150505050565b7f59b501c3653afc186af7d48dda36cf6732bd21629a6295693664240a6ef5200054640100000000900460ff1661286357604051630ef4733760e31b815260040160405180910390fd5b60005b81811015610b155761289d83838381811061288357612883614498565b90506020020160208101906128989190613c99565b61345c565b600101612866565b6000610dd681613418565b6128b861342e565b6001600160a01b0316336001600160a01b0316146128eb576040516365f4906560e01b8152336004820152602401610587565b610a868161352e565b600080805b6129036000613418565b8110156129955760006129168183613422565b60008181526002602052604081209192505b600282015481101561298757866001600160a01b031682600201828154811061295357612953614498565b6000918252602090912001546001600160a01b03160361297f5784612977816144ae565b955050612987565b600101612928565b5050508060010190506128f9565b5092915050565b6060610dd660056137a7565b60606000828410604051806040016040528060078152602001664241445f41524760c81b815250906129ed5760405162461bcd60e51b81526004016105879190614412565b5060006129fa85856147ed565b6001600160401b03811115612a1157612a11613e46565b604051908082528060200260200182016040528015612a4a57816020015b612a376139ec565b815260200190600190039081612a2f5790505b50905060005b612a5a6000613418565b612a648288614451565b108015612a79575084612a778288614451565b105b15612b89576000612a95612a8d8389614451565b600090613422565b60408051808201825282815260008381526002602081815291849020845160a0810186528154815260018201546001600160401b0380821683870152600160401b8204811683890152600160801b9091041660608201529181018054865181860281018601909752808752969750939583870195929491936080860193929190830182828015612b4e57602002820191906000526020600020905b81546001600160a01b03168152600190910190602001808311612b30575b505050505081525050815250838381518110612b6c57612b6c614498565b60200260200101819052505080612b82906144ae565b9050612a50565b5080612b956000613418565b90969410159450505050565b6000611656600d836133cf565b336000818152600760205260409020600201546001600160a01b0316612c0a57604080518082018252600e81526d1393d11157d393d517d193d5539160921b6020820152905162461bcd60e51b81526105879190600401614412565b612c156000876133f4565b612c505760408051808201825260098152681393d517d193d5539160ba1b6020820152905162461bcd60e51b81526105879190600401614412565b600086815260026020526040902084815560018101805467ffffffffffffffff19166001600160401b0386161790558215612cb8576001818101805467ffffffffffffffff60801b198116600160801b918290046001600160401b0316909317029190911790555b836001600160401b0316600103612ce0576000878152600360205260408120612ce091613991565b60408051888152602081018790526001600160401b03861681830152841515606082015290517fccc26bbb6dd655ea0bb8a40a3c30e35c6bdf42f8faf0d71bbea897af768cda8b9181900360800190a150505050505050565b6060610dd660086137a7565b81612d516000826133f4565b612d8c5760408051808201825260098152681393d517d193d5539160ba1b6020820152905162461bcd60e51b81526105879190600401614412565b6001600160a01b03808316600090815260076020526040902060020154839116612dec57604080518082018252600e81526d1393d11157d393d517d193d5539160921b6020820152905162461bcd60e51b81526105879190600401614412565b600084815260026020526040812090805b6002830154811015612f0657856001600160a01b0316836002018281548110612e2857612e28614498565b6000918252602090912001546001600160a01b031603612efe57600283018054612e54906001906147ed565b81548110612e6457612e64614498565b6000918252602090912001546002840180546001600160a01b039092169183908110612e9257612e92614498565b9060005260206000200160006101000a8154816001600160a01b0302191690836001600160a01b0316021790555082600201805480612ed357612ed3614425565b600082815260209020810160001990810180546001600160a01b031916905501905560019150612f06565b600101612dfd565b5080612f4857604080518082018252600e81526d1393d11157d393d517d193d5539160921b6020820152905162461bcd60e51b81526105879190600401614412565b604080518781526001600160a01b03871660208201526000918101919091527faaa473c28a5fe04b6a7ecd795826e462f9d0c23f00ef9f51ec02fa6ea418806f90606001611639565b33612f9d6008826133cf565b612fd75760408051808201825260088152670848288be82aaa8960c31b6020820152905162461bcd60e51b81526105879190600401614412565b6001600160a01b03848116600090815260076020526040902060020154161561303657604080518082018252600e81526d414c52454144595f45584953545360901b6020820152905162461bcd60e51b81526105879190600401614412565b600060405180608001604052808460058111156130555761305561406f565b8152602081018690526001600160a01b03871660408201523360609091015290506130816005866137b4565b506001600160a01b03851660009081526007602052604090208151815483929190829060ff191660018360058111156130bc576130bc61406f565b0217905550602082015160018201906130d5908261455d565b506040828101516002830180546001600160a01b03199081166001600160a01b039384161790915560609094015160039093018054909416928116929092179092559051908616907fd6f3629b08191adb8308c3a65d5f8803b7f8f3e359c433fa7ae623276635e5619061314c90879087906148cc565b60405180910390a25050505050565b6000611656600a836133f4565b336000818152600760205260409020600201546001600160a01b03166131c457604080518082018252600e81526d1393d11157d393d517d193d5539160921b6020820152905162461bcd60e51b81526105879190600401614412565b60005b828110156133c957368484838181106131e2576131e2614498565b60a0029190910191506131f99050600082356133f4565b613271577f75460fe319331413a18a82d99b07735cec53fa0c4061ada38c2141e331082afa8135604083013561323560808501606086016148ee565b60408051808201825260098152681393d517d193d5539160ba1b602082015290516132639493929190614909565b60405180910390a1506133c1565b80356000908152600260205260409081902090820135815561329960808301606084016148ee565b60018201805467ffffffffffffffff19166001600160401b03929092169190911790556132cc60a0830160808401614937565b15613304576001818101805467ffffffffffffffff60801b198116600160801b918290046001600160401b0316909317029190911790555b61331460808301606084016148ee565b6001600160401b031660010361333d578135600090815260036020526040812061333d91613991565b7fccc26bbb6dd655ea0bb8a40a3c30e35c6bdf42f8faf0d71bbea897af768cda8b8235604084013561337560808601606087016148ee565b61338560a0870160808801614937565b6040516133b6949392919093845260208401929092526001600160401b031660408301521515606082015260800190565b60405180910390a150505b6001016131c7565b50505050565b6001600160a01b038116600090815260018301602052604081205415155b9392505050565b600081815260018301602052604081205415156133ed565b60006133ed83836137c9565b6000611656825490565b60006133ed83836138bc565b7f4675fa8241f86f37157864d3d49b85ad4b164352c516da28e1678a90470ae300546001600160a01b031690565b6001600160a01b03811661349f5760408051808201825260078152664241445f41524760c81b6020820152905162461bcd60e51b81526105879190600401614412565b6134aa6008826133cf565b156134eb57604080518082018252600e81526d414c52454144595f45584953545360901b6020820152905162461bcd60e51b81526105879190600401614412565b6134f66008826137b4565b506040516001600160a01b038216907fac6fa858e9350a46cec16539926e0fde25b7629f84b5a72bffaae4df888ae86d90600090a250565b6001600160a01b0381166135715760408051808201825260078152664241445f41524760c81b6020820152905162461bcd60e51b81526105879190600401614412565b61357c600d826137b4565b6135bc57604080518082018252600e81526d414c52454144595f45584953545360901b6020820152905162461bcd60e51b81526105879190600401614412565b6040516001600160a01b038216907f7afd798379ae2d2e5035438544cea2b60eb1dde6a8128e6d447fd2a25f8825a290600090a250565b60008260058111156136075761360761406f565b148061365b575060018260058111156136225761362261406f565b14801561365b5750600381600581111561363e5761363e61406f565b148061365b575060048160058111156136595761365961406f565b145b806136ae575060028260058111156136755761367561406f565b1480156136ae575060038160058111156136915761369161406f565b14806136ae575060048160058111156136ac576136ac61406f565b145b80613701575060048260058111156136c8576136c861406f565b148015613701575060038160058111156136e4576136e461406f565b1480613701575060058160058111156136ff576136ff61406f565b145b806137395750600382600581111561371b5761371b61406f565b148015613739575060058160058111156137375761373761406f565b145b15613742575050565b60408051808201825260168152751393d11157d4d510551157d393d517d0531313d5d15160521b6020820152905162461bcd60e51b81526105879190600401614412565b60006133ed83836138e6565b60006133ed836001600160a01b0384166137c9565b606060006133ed83613935565b60006133ed836001600160a01b0384166138e6565b600081815260018301602052604081205480156138b25760006137ed6001836147ed565b8554909150600090613801906001906147ed565b905080821461386657600086600001828154811061382157613821614498565b906000526020600020015490508087600001848154811061384457613844614498565b6000918252602080832090910192909255918252600188019052604090208390555b855486908061387757613877614425565b600190038181906000526020600020016000905590558560010160008681526020019081526020016000206000905560019350505050611656565b6000915050611656565b60008260000182815481106138d3576138d3614498565b9060005260206000200154905092915050565b600081815260018301602052604081205461392d57508154600181810184556000848152602080822090930184905584548482528286019093526040902091909155611656565b506000611656565b60608160000180548060200260200160405190810160405280929190818152602001828054801561398557602002820191906000526020600020905b815481526020019060010190808311613971575b50505050509050919050565b50805461399d90614464565b6000825580601f106139ad575050565b601f016020900490600052602060002090810190610a869190613a9b565b5080546000825560030290600052602060002090810190610a869190613ab0565b604080518082019091526000815260208101613a316040805160a081018252600080825260208201819052918101829052606080820192909252608081019190915290565b905290565b828054828255906000526020600020908101928215613a8b579160200282015b82811115613a8b57825182546001600160a01b0319166001600160a01b03909116178255602090920191600190910190613a56565b50613a97929150613a9b565b5090565b5b80821115613a975760008155600101613a9c565b80821115613a9757600080825560018201805467ffffffffffffffff19169055613add6002830182613991565b50600301613ab0565b600060208284031215613af857600080fd5b5035919050565b60005b83811015613b1a578181015183820152602001613b02565b50506000910152565b60008151808452613b3b816020860160208601613aff565b601f01601f19169290920160200192915050565b600060208083018184528085518083526040925060408601915060408160051b87010184880160005b83811015613bcb57888303603f19018552815180518452878101516001600160401b0316888501528601516060878501819052613bb781860183613b23565b968901969450505090860190600101613b78565b509098975050505050505050565b600060a08301825184526020808401516001600160401b0380821660208801528060408701511660408801528060608701511660608801525050608084015160a0608087015282815180855260c088019150602083019450600092505b80831015613c5f5784516001600160a01b03168252938301936001929092019190830190613c36565b509695505050505050565b6020815260006133ed6020830184613bd9565b80356001600160a01b0381168114613c9457600080fd5b919050565b600060208284031215613cab57600080fd5b6133ed82613c7d565b60008060208385031215613cc757600080fd5b82356001600160401b0380821115613cde57600080fd5b818501915085601f830112613cf257600080fd5b813581811115613d0157600080fd5b8660208260051b8501011115613d1657600080fd5b60209290920196919550909350505050565b805182526000602082015160406020850152613d476040850182613bd9565b949350505050565b60008282518085526020808601955060208260051b8401016020860160005b84811015613d9c57601f19868403018952613d8a838351613d28565b98840198925090830190600101613d6e565b5090979650505050505050565b6020815260006133ed6020830184613d4f565b606081526000613dcf6060830186613bd9565b8460208401528281036040840152613de78185613b23565b9695505050505050565b803560068110613c9457600080fd5b60008060408385031215613e1357600080fd5b613e1c83613c7d565b9150613e2a60208401613df1565b90509250929050565b6020815260006133ed6020830184613d28565b634e487b7160e01b600052604160045260246000fd5b604051601f8201601f191681016001600160401b0381118282101715613e8457613e84613e46565b604052919050565b600082601f830112613e9d57600080fd5b81356001600160401b03811115613eb657613eb6613e46565b613ec9601f8201601f1916602001613e5c565b818152846020838601011115613ede57600080fd5b816020850160208301376000918101602001919091529392505050565b60008060008060808587031215613f1157600080fd5b843593506020808601356001600160401b0380821115613f3057600080fd5b818801915088601f830112613f4457600080fd5b813581811115613f5657613f56613e46565b8060051b613f65858201613e5c565b918252838101850191858101908c841115613f7f57600080fd5b948601945b83861015613fa457613f9586613c7d565b82529486019490860190613f84565b9850505050604088013594506060880135925080831115613fc457600080fd5b5050613fd287828801613e8c565b91505092959194509250565b60008060408385031215613ff157600080fd5b613ffa83613c7d565b915060208301356001600160401b0381111561401557600080fd5b61402185828601613e8c565b9150509250929050565b6020808252825182820181905260009190848201906040850190845b8181101561406357835183529284019291840191600101614047565b50909695505050505050565b634e487b7160e01b600052602160045260246000fd5b600681106140a357634e487b7160e01b600052602160045260246000fd5b9052565b6140b2828251614085565b60006020820151608060208501526140cd6080850182613b23565b6040848101516001600160a01b03908116918701919091526060948501511693909401929092525090919050565b6020815260006133ed60208301846140a7565b6000806040838503121561412157600080fd5b82359150613e2a60208401613c7d565b80356001600160401b0381168114613c9457600080fd5b6000806000806060858703121561415e57600080fd5b8435935061416e60208601614131565b925060408501356001600160401b038082111561418a57600080fd5b818701915087601f83011261419e57600080fd5b8135818111156141ad57600080fd5b8860208285010111156141bf57600080fd5b95989497505060200194505050565b600060208083016020845280855180835260408601915060408160051b87010192506020870160005b8281101561422557603f198886030184526142138583516140a7565b945092850192908501906001016141f7565b5092979650505050505050565b6000806040838503121561424557600080fd5b82359150613e2a60208401614131565b60008151808452602080850194506020840160005b8381101561428f5781516001600160a01b03168752958201959082019060010161426a565b509495945050505050565b6020815260006133ed6020830184614255565b600080604083850312156142c057600080fd5b50508035926020909101359150565b6040815260006142e26040830185613d4f565b905082151560208301529392505050565b80358015158114613c9457600080fd5b600080600080600060a0868803121561431b57600080fd5b85359450602086013593506040860135925061433960608701614131565b9150614347608087016142f3565b90509295509295909350565b60008060006060848603121561436857600080fd5b61437184613c7d565b925060208401356001600160401b0381111561438c57600080fd5b61439886828701613e8c565b9250506143a760408501613df1565b90509250925092565b600080602083850312156143c357600080fd5b82356001600160401b03808211156143da57600080fd5b818501915085601f8301126143ee57600080fd5b8135818111156143fd57600080fd5b86602060a083028501011115613d1657600080fd5b6020815260006133ed6020830184613b23565b634e487b7160e01b600052603160045260246000fd5b634e487b7160e01b600052601160045260246000fd5b808201808211156116565761165661443b565b600181811c9082168061447857607f821691505b602082108103610f4657634e487b7160e01b600052602260045260246000fd5b634e487b7160e01b600052603260045260246000fd5b6000600182016144c0576144c061443b565b5060010190565b600063ffffffff8083168181036144e0576144e061443b565b6001019392505050565b602081016116568284614085565b601f821115610b15576000816000526020600020601f850160051c810160208610156145215750805b601f850160051c820191505b818110156145405782815560010161452d565b505050505050565b600019600383901b1c191660019190911b1790565b81516001600160401b0381111561457657614576613e46565b61458a816145848454614464565b846144f8565b602080601f8311600181146145b957600084156145a75750858301515b6145b18582614548565b865550614540565b600085815260208120601f198616915b828110156145e8578886015182559484019460019091019084016145c9565b50858210156146065787850151600019600388901b60f8161c191681555b5050505050600190811b01905550565b84815260806020820152600061462f6080830186614255565b84604084015282810360608401526146478185613b23565b979650505050505050565b60008251614664818460208701613aff565b9190910192915050565b600080835461467c81614464565b6001828116801561469457600181146146a9576146d8565b60ff19841687528215158302870194506146d8565b8760005260208060002060005b858110156146cf5781548a8201529084019082016146b6565b50505082870194505b50929695505050505050565b6001600160401b038311156146fb576146fb613e46565b61470f836147098354614464565b836144f8565b6000601f84116001811461473d576000851561472b5750838201355b6147358682614548565b8455506120c3565b600083815260209020601f19861690835b8281101561476e578685013582556020948501946001909201910161474e565b508682101561478b5760001960f88860031b161c19848701351681555b505060018560011b0183555050505050565b8581526001600160401b038516602082015260806040820152826080820152828460a0830137600081840160a0908101919091529115156060820152601f909201601f1916909101019392505050565b818103818111156116565761165661443b565b81810361480b575050565b6148158254614464565b6001600160401b0381111561482c5761482c613e46565b61483a816145848454614464565b6000601f82116001811461486857600083156148565750848201545b6148608482614548565b8555506120c3565b600085815260209020601f19841690600086815260209020845b838110156148a25782860154825560019586019590910190602001614882565b50858310156146065793015460001960f8600387901b161c19169092555050600190811b01905550565b6040815260006148df6040830185613b23565b90506133ed6020830184614085565b60006020828403121561490057600080fd5b6133ed82614131565b8481528360208201526001600160401b0383166040820152608060608201526000613de76080830184613b23565b60006020828403121561494957600080fd5b6133ed826142f356fec01483261a841a868b99cb8802faed4ea44a1a816651c4f7ee061a96a205fe98","linkReferences":{}},"methodIdentifiers":{"__OperatorRegistry_init(address[])":"ba428b1a","__RiverConfig_init(address[])":"31374511","allocateStream(bytes32,address[],bytes32,bytes)":"6b883c39","approveConfigurationManager(address)":"c179b85f","approveOperator(address)":"242cae9f","configurationExists(bytes32)":"fc207c01","deleteConfiguration(bytes32)":"035759e1","deleteConfigurationOnBlock(bytes32,uint64)":"b7f227ee","getAllConfiguration()":"081814db","getAllNodeAddresses()":"c8fe3a01","getAllNodes()":"a1174e7d","getAllOperators()":"d911c632","getAllStreamIds()":"86789fc6","getAllStreams()":"3bd84c0c","getConfiguration(bytes32)":"9283ae3a","getNode(address)":"9d209048","getNodeCount()":"39bf397e","getPaginatedStreams(uint256,uint256)":"ca78c41a","getStream(bytes32)":"1290abe8","getStreamByIndex(uint256)":"68b454df","getStreamCount()":"c0f22084","getStreamCountOnNode(address)":"c87d1324","getStreamWithGenesis(bytes32)":"3c2544d1","getStreamsOnNode(address)":"32705ac4","isConfigurationManager(address)":"d4bd44a0","isOperator(address)":"6d70f7ae","placeStreamOnNode(bytes32,address)":"9ee86d38","registerNode(address,string,uint8)":"eecc66f4","removeConfigurationManager(address)":"813049ec","removeNode(address)":"b2b99ec9","removeOperator(address)":"ac8a584a","removeStreamFromNode(bytes32,address)":"ee885b12","setConfiguration(bytes32,uint64,bytes)":"a09449a6","setStreamLastMiniblock(bytes32,bytes32,bytes32,uint64,bool)":"d7a3158a","setStreamLastMiniblockBatch((bytes32,bytes32,bytes32,uint64,bool)[])":"ff3a14ab","updateNodeStatus(address,uint8)":"581f8b9b","updateNodeUrl(address,string)":"7e4465e7"},"id":381}