{"abi":[{"type":"constructor","inputs":[],"stateMutability":"nonpayable"},{"type":"function","name":"isEntitled","inputs":[{"name":"users","type":"address[]","internalType":"address[]"}],"outputs":[{"name":"","type":"bool","internalType":"bool"}],"stateMutability":"view"},{"type":"function","name":"setEntitled","inputs":[{"name":"users","type":"address[]","internalType":"address[]"},{"name":"userIsEntitled","type":"bool","internalType":"bool"}],"outputs":[],"stateMutability":"nonpayable"}],"bytecode":{"object":"0x608060405234801561001057600080fd5b50610317806100206000396000f3fe608060405234801561001057600080fd5b50600436106100365760003560e01c80633f4c4d831461003b578063ddc6e68e14610050575b600080fd5b61004e61004936600461026d565b610077565b005b61006361005e3660046102c4565b610101565b604051901515815260200160405180910390f35b60005b82518110156100fc578160008085848151811061009957610099610301565b60200260200101516040516020016100c091906001600160a01b0391909116815260200190565b60408051808303601f19018152918152815160209283012083529082019290925201600020805460ff191691151591909117905560010161007a565b505050565b6000805b825181101561018d5760008084838151811061012357610123610301565b602002602001015160405160200161014a91906001600160a01b0391909116815260200190565b60408051601f198184030181529181528151602092830120835290820192909252016000205460ff1615156001036101855750600192915050565b600101610105565b50600092915050565b634e487b7160e01b600052604160045260246000fd5b80356001600160a01b03811681146101c357600080fd5b919050565b600082601f8301126101d957600080fd5b8135602067ffffffffffffffff808311156101f6576101f6610196565b8260051b604051601f19603f8301168101818110848211171561021b5761021b610196565b604052938452602081870181019490810192508785111561023b57600080fd5b6020870191505b8482101561026257610253826101ac565b83529183019190830190610242565b979650505050505050565b6000806040838503121561028057600080fd5b823567ffffffffffffffff81111561029757600080fd5b6102a3858286016101c8565b925050602083013580151581146102b957600080fd5b809150509250929050565b6000602082840312156102d657600080fd5b813567ffffffffffffffff8111156102ed57600080fd5b6102f9848285016101c8565b949350505050565b634e487b7160e01b600052603260045260246000fd","linkReferences":{}},"methodIdentifiers":{"isEntitled(address[])":"ddc6e68e","setEntitled(address[],bool)":"3f4c4d83"},"id":335}