{"abi":[{"type":"constructor","inputs":[{"name":"checker","type":"address","internalType":"contract IEntitlementChecker"}],"stateMutability":"nonpayable"},{"type":"function","name":"__EntitlementGated_init","inputs":[{"name":"entitlementChecker","type":"address","internalType":"contract IEntitlementChecker"}],"outputs":[],"stateMutability":"nonpayable"},{"type":"function","name":"getCrossChainEntitlementData","inputs":[{"name":"","type":"bytes32","internalType":"bytes32"},{"name":"roleId","type":"uint256","internalType":"uint256"}],"outputs":[{"name":"","type":"tuple","internalType":"struct IEntitlementDataQueryableBase.EntitlementData","components":[{"name":"entitlementType","type":"string","internalType":"string"},{"name":"entitlementData","type":"bytes","internalType":"bytes"}]}],"stateMutability":"view"},{"type":"function","name":"getRuleData","inputs":[{"name":"roleId","type":"uint256","internalType":"uint256"}],"outputs":[{"name":"","type":"tuple","internalType":"struct IRuleEntitlementBase.RuleData","components":[{"name":"operations","type":"tuple[]","internalType":"struct IRuleEntitlementBase.Operation[]","components":[{"name":"opType","type":"uint8","internalType":"enum IRuleEntitlementBase.CombinedOperationType"},{"name":"index","type":"uint8","internalType":"uint8"}]},{"name":"checkOperations","type":"tuple[]","internalType":"struct IRuleEntitlementBase.CheckOperation[]","components":[{"name":"opType","type":"uint8","internalType":"enum IRuleEntitlementBase.CheckOperationType"},{"name":"chainId","type":"uint256","internalType":"uint256"},{"name":"contractAddress","type":"address","internalType":"address"},{"name":"threshold","type":"uint256","internalType":"uint256"}]},{"name":"logicalOperations","type":"tuple[]","internalType":"struct IRuleEntitlementBase.LogicalOperation[]","components":[{"name":"logOpType","type":"uint8","internalType":"enum IRuleEntitlementBase.LogicalOperationType"},{"name":"leftOperationIndex","type":"uint8","internalType":"uint8"},{"name":"rightOperationIndex","type":"uint8","internalType":"uint8"}]}]}],"stateMutability":"view"},{"type":"function","name":"getRuleData","inputs":[{"name":"transactionId","type":"bytes32","internalType":"bytes32"},{"name":"roleId","type":"uint256","internalType":"uint256"}],"outputs":[{"name":"","type":"tuple","internalType":"struct IRuleEntitlementBase.RuleData","components":[{"name":"operations","type":"tuple[]","internalType":"struct IRuleEntitlementBase.Operation[]","components":[{"name":"opType","type":"uint8","internalType":"enum IRuleEntitlementBase.CombinedOperationType"},{"name":"index","type":"uint8","internalType":"uint8"}]},{"name":"checkOperations","type":"tuple[]","internalType":"struct IRuleEntitlementBase.CheckOperation[]","components":[{"name":"opType","type":"uint8","internalType":"enum IRuleEntitlementBase.CheckOperationType"},{"name":"chainId","type":"uint256","internalType":"uint256"},{"name":"contractAddress","type":"address","internalType":"address"},{"name":"threshold","type":"uint256","internalType":"uint256"}]},{"name":"logicalOperations","type":"tuple[]","internalType":"struct IRuleEntitlementBase.LogicalOperation[]","components":[{"name":"logOpType","type":"uint8","internalType":"enum IRuleEntitlementBase.LogicalOperationType"},{"name":"leftOperationIndex","type":"uint8","internalType":"uint8"},{"name":"rightOperationIndex","type":"uint8","internalType":"uint8"}]}]}],"stateMutability":"view"},{"type":"function","name":"getRuleDataV2","inputs":[{"name":"roleId","type":"uint256","internalType":"uint256"}],"outputs":[{"name":"","type":"tuple","internalType":"struct IRuleEntitlementBase.RuleDataV2","components":[{"name":"operations","type":"tuple[]","internalType":"struct IRuleEntitlementBase.Operation[]","components":[{"name":"opType","type":"uint8","internalType":"enum IRuleEntitlementBase.CombinedOperationType"},{"name":"index","type":"uint8","internalType":"uint8"}]},{"name":"checkOperations","type":"tuple[]","internalType":"struct IRuleEntitlementBase.CheckOperationV2[]","components":[{"name":"opType","type":"uint8","internalType":"enum IRuleEntitlementBase.CheckOperationType"},{"name":"chainId","type":"uint256","internalType":"uint256"},{"name":"contractAddress","type":"address","internalType":"address"},{"name":"params","type":"bytes","internalType":"bytes"}]},{"name":"logicalOperations","type":"tuple[]","internalType":"struct IRuleEntitlementBase.LogicalOperation[]","components":[{"name":"logOpType","type":"uint8","internalType":"enum IRuleEntitlementBase.LogicalOperationType"},{"name":"leftOperationIndex","type":"uint8","internalType":"uint8"},{"name":"rightOperationIndex","type":"uint8","internalType":"uint8"}]}]}],"stateMutability":"view"},{"type":"function","name":"postEntitlementCheckResult","inputs":[{"name":"transactionId","type":"bytes32","internalType":"bytes32"},{"name":"roleId","type":"uint256","internalType":"uint256"},{"name":"result","type":"uint8","internalType":"enum IEntitlementGatedBase.NodeVoteStatus"}],"outputs":[],"stateMutability":"nonpayable"},{"type":"function","name":"requestEntitlementCheck","inputs":[{"name":"roleId","type":"uint256","internalType":"uint256"},{"name":"ruleData","type":"tuple","internalType":"struct IRuleEntitlementBase.RuleData","components":[{"name":"operations","type":"tuple[]","internalType":"struct IRuleEntitlementBase.Operation[]","components":[{"name":"opType","type":"uint8","internalType":"enum IRuleEntitlementBase.CombinedOperationType"},{"name":"index","type":"uint8","internalType":"uint8"}]},{"name":"checkOperations","type":"tuple[]","internalType":"struct IRuleEntitlementBase.CheckOperation[]","components":[{"name":"opType","type":"uint8","internalType":"enum IRuleEntitlementBase.CheckOperationType"},{"name":"chainId","type":"uint256","internalType":"uint256"},{"name":"contractAddress","type":"address","internalType":"address"},{"name":"threshold","type":"uint256","internalType":"uint256"}]},{"name":"logicalOperations","type":"tuple[]","internalType":"struct IRuleEntitlementBase.LogicalOperation[]","components":[{"name":"logOpType","type":"uint8","internalType":"enum IRuleEntitlementBase.LogicalOperationType"},{"name":"leftOperationIndex","type":"uint8","internalType":"uint8"},{"name":"rightOperationIndex","type":"uint8","internalType":"uint8"}]}]}],"outputs":[{"name":"","type":"bytes32","internalType":"bytes32"}],"stateMutability":"nonpayable"},{"type":"function","name":"requestEntitlementCheckV2","inputs":[{"name":"roleId","type":"uint256","internalType":"uint256"},{"name":"ruleData","type":"tuple","internalType":"struct IRuleEntitlementBase.RuleDataV2","components":[{"name":"operations","type":"tuple[]","internalType":"struct IRuleEntitlementBase.Operation[]","components":[{"name":"opType","type":"uint8","internalType":"enum IRuleEntitlementBase.CombinedOperationType"},{"name":"index","type":"uint8","internalType":"uint8"}]},{"name":"checkOperations","type":"tuple[]","internalType":"struct IRuleEntitlementBase.CheckOperationV2[]","components":[{"name":"opType","type":"uint8","internalType":"enum IRuleEntitlementBase.CheckOperationType"},{"name":"chainId","type":"uint256","internalType":"uint256"},{"name":"contractAddress","type":"address","internalType":"address"},{"name":"params","type":"bytes","internalType":"bytes"}]},{"name":"logicalOperations","type":"tuple[]","internalType":"struct IRuleEntitlementBase.LogicalOperation[]","components":[{"name":"logOpType","type":"uint8","internalType":"enum IRuleEntitlementBase.LogicalOperationType"},{"name":"leftOperationIndex","type":"uint8","internalType":"uint8"},{"name":"rightOperationIndex","type":"uint8","internalType":"uint8"}]}]}],"outputs":[{"name":"","type":"bytes32","internalType":"bytes32"}],"stateMutability":"nonpayable"},{"type":"event","name":"EntitlementCheckResultPosted","inputs":[{"name":"transactionId","type":"bytes32","indexed":true,"internalType":"bytes32"},{"name":"result","type":"uint8","indexed":false,"internalType":"enum IEntitlementGatedBase.NodeVoteStatus"}],"anonymous":false},{"type":"event","name":"Initialized","inputs":[{"name":"version","type":"uint32","indexed":false,"internalType":"uint32"}],"anonymous":false},{"type":"event","name":"InterfaceAdded","inputs":[{"name":"interfaceId","type":"bytes4","indexed":true,"internalType":"bytes4"}],"anonymous":false},{"type":"event","name":"InterfaceRemoved","inputs":[{"name":"interfaceId","type":"bytes4","indexed":true,"internalType":"bytes4"}],"anonymous":false},{"type":"error","name":"EntitlementGated_InvalidAddress","inputs":[]},{"type":"error","name":"EntitlementGated_NodeAlreadyVoted","inputs":[]},{"type":"error","name":"EntitlementGated_NodeNotFound","inputs":[]},{"type":"error","name":"EntitlementGated_TransactionCheckAlreadyCompleted","inputs":[]},{"type":"error","name":"EntitlementGated_TransactionCheckAlreadyRegistered","inputs":[]},{"type":"error","name":"EntitlementGated_TransactionNotRegistered","inputs":[]},{"type":"error","name":"Initializable_InInitializingState","inputs":[]},{"type":"error","name":"Initializable_NotInInitializingState","inputs":[]},{"type":"error","name":"Introspection_AlreadySupported","inputs":[]},{"type":"error","name":"Introspection_NotSupported","inputs":[]},{"type":"error","name":"ReentrancyGuard__ReentrantCall","inputs":[]}],"bytecode":{"object":"0x60806040523480156200001157600080fd5b50604051620027b1380380620027b1833981016040819052620000349162000127565b6200003e6200007f565b7f9075c515a635ba70c9696f31149324218d75cf00afe836c482e6473f38b19e0080546001600160a01b0319166001600160a01b0383161790555062000159565b7f59b501c3653afc186af7d48dda36cf6732bd21629a6295693664240a6ef520008054640100000000900460ff1615620000cc576040516366008a2d60e01b815260040160405180910390fd5b805463ffffffff90811610156200012457805463ffffffff191663ffffffff90811782556040519081527fe9c9b456cb2994b80aeef036cf59d26e9617df80f816a6ee5a5b4166e07e2f5c9060200160405180910390a15b50565b6000602082840312156200013a57600080fd5b81516001600160a01b03811681146200015257600080fd5b9392505050565b61264880620001696000396000f3fe608060405234801561001057600080fd5b50600436106100885760003560e01c806368ab7dd61161005b57806368ab7dd61461010c5780637adc9cbe1461012c57806392c399ff1461013f578063ea7aafb71461015257600080fd5b8063069a3ee91461008d5780630fe44a21146100b65780634739e805146100d657806357e70027146100eb575b600080fd5b6100a061009b36600461122f565b610165565b6040516100ad919061132b565b60405180910390f35b6100c96100c43660046113e8565b610398565b6040516100ad9190611450565b6100e96100e436600461149f565b61047b565b005b6100fe6100f93660046114f0565b61051f565b6040519081526020016100ad565b61011f61011a36600461122f565b61058c565b6040516100ad9190611536565b6100e961013a366004611624565b610839565b6100a061014d3660046113e8565b61088f565b6100fe6101603660046114f0565b6108bd565b61018960405180606001604052806060815260200160608152602001606081525090565b6000828152602081815260408083208151815460809481028201850190935260608101838152909491938593919285929185015b8282101561022657600084815260209020604080518082019091529083018054829060ff1660028111156101f3576101f3611248565b600281111561020457610204611248565b81529054610100900460ff1660209182015290825260019290920191016101bd565b50505050815260200160018201805480602002602001604051908101604052809291908181526020016000905b828210156102de576000848152602090206040805160808101909152600484029091018054829060ff16600681111561028e5761028e611248565b600681111561029f5761029f611248565b815260018281015460208084019190915260028401546001600160a01b0316604084015260039093015460609092019190915291835292019101610253565b50505050815260200160028201805480602002602001604051908101604052809291908181526020016000905b8282101561038a5760008481526020902060408051606081019091529083018054829060ff16600281111561034257610342611248565b600281111561035357610353611248565b8152905460ff610100820481166020808501919091526201000090920416604090920191909152908252600192909201910161030b565b505050915250909392505050565b6040805180820190915260608082526020820152600082815260208190526040902054156104255760408051608081018252600f8183019081526e149d5b19515b9d1a5d1b195b595b9d608a1b606083015281526000848152602081815290839020925191928184019261040c92016116ef565b6040516020818303038152906040528152509050610475565b60408051608081018252601181830190815270293ab632a2b73a34ba3632b6b2b73a2b1960791b6060830152815260008481526001602090815290839020925191928184019261040c92016117e5565b92915050565b60027f54f22f54f370bd020e00ee80e1a5099a71652e2ccbcf6a75281e4c70a3e11a0054036104bd57604051635db5c7cd60e11b815260040160405180910390fd5b6104e660027f54f22f54f370bd020e00ee80e1a5099a71652e2ccbcf6a75281e4c70a3e11a0055565b6104f18383836108d7565b61051a60017f54f22f54f370bd020e00ee80e1a5099a71652e2ccbcf6a75281e4c70a3e11a0055565b505050565b600082815260208190526040812082906105398282611cd5565b50506040516bffffffffffffffffffffffff193260601b166020820152436034820152600090605401604051602081830303815290604052805190602001209050610585813086610b4d565b9392505050565b6105b060405180606001604052806060815260200160608152602001606081525090565b60008281526001602090815260408083208151815460809481028201850190935260608101838152909491938593919285929185015b8282101561064f57600084815260209020604080518082019091529083018054829060ff16600281111561061c5761061c611248565b600281111561062d5761062d611248565b81529054610100900460ff1660209182015290825260019290920191016105e6565b50505050815260200160018201805480602002602001604051908101604052809291908181526020016000905b8282101561078d576000848152602090206040805160808101909152600484029091018054829060ff1660068111156106b7576106b7611248565b60068111156106c8576106c8611248565b81526001820154602082015260028201546001600160a01b031660408201526003820180546060909201916106fc906117b1565b80601f0160208091040260200160405190810160405280929190818152602001828054610728906117b1565b80156107755780601f1061074a57610100808354040283529160200191610775565b820191906000526020600020905b81548152906001019060200180831161075857829003601f168201915b5050505050815250508152602001906001019061067c565b50505050815260200160028201805480602002602001604051908101604052809291908181526020016000905b8282101561038a5760008481526020902060408051606081019091529083018054829060ff1660028111156107f1576107f1611248565b600281111561080257610802611248565b8152905460ff61010082048116602080850191909152620100009092041660409092019190915290825260019290920191016107ba565b7f59b501c3653afc186af7d48dda36cf6732bd21629a6295693664240a6ef5200054640100000000900460ff1661088357604051630ef4733760e31b815260040160405180910390fd5b61088c81610e0b565b50565b6108b360405180606001604052806060815260200160608152602001606081525090565b6105858383610e46565b600082815260016020526040812082906105398282612094565b6000838152600080516020612628833981519152602052604090208054600080516020612608833981519152919061010090046001600160a01b031615806109215750805460ff16155b1561093f57604051637ad5a43960e11b815260040160405180910390fd5b600084815260028201602052604090205460ff161561097157604051637912b73960e01b815260040160405180910390fd5b60008481526001820160205260408120805482918291825b81811015610a8b5760008382815481106109a5576109a561213a565b60009182526020909120018054909150336001600160a01b0390911603610a315760008154600160a01b900460ff1660028111156109e5576109e5611248565b14610a03576040516347592a4d60e01b815260040160405180910390fd5b80548a90829060ff60a01b1916600160a01b836002811115610a2757610a27611248565b0217905550600196505b8054600160a01b900460ff166001816002811115610a5157610a51611248565b03610a6157866001019650610a81565b6002816002811115610a7557610a75611248565b03610a81578560010195505b5050600101610989565b5084610aaa57604051638223a7e960e01b815260040160405180910390fd5b610ab5600282612150565b841180610acb5750610ac8600282612150565b83115b15610b415760008981526002870160205260408120805460ff19166001179055838511610af9576002610afc565b60015b90508a7fb9d6ce397e562841871d119aaf77469c60a3b5bf8b99a5d9851656015015c63382604051610b2e9190612172565b60405180910390a2610b3f8b610f3b565b505b50505050505050505050565b6000838152600080516020612628833981519152602052604090208054600080516020612608833981519152919060ff1615610bdd57600481015460005b81811015610bda5784836004018281548110610ba957610ba961213a565b906000526020600020015403610bd2576040516301ab53df60e31b815260040160405180910390fd5b600101610b8b565b50505b81546001600160a01b0316610bf457610bf4611011565b8154604051634f84544560e01b8152600560048201526000916001600160a01b031690634f84544590602401600060405180830381865afa158015610c3d573d6000803e3d6000fd5b505050506040513d6000823e601f3d908101601f19168201604052610c659190810190612244565b825490915060ff16610ca65781546003830180546001600160a01b0319166001600160a01b0388161790556001600160a81b03191661010033021760011782555b600482018054600181810183556000928352602080842090920187905583518784529085019091526040822090915b82811015610d9957816040518060400160405280868481518110610cfb57610cfb61213a565b60200260200101516001600160a01b0316815260200160006002811115610d2457610d24611248565b9052815460018101835560009283526020928390208251910180546001600160a01b031981166001600160a01b03909316928317825593830151929390929183916001600160a81b03191617600160a01b836002811115610d8757610d87611248565b02179055505050806001019050610cd5565b50845460405163541da4e560e01b81526001600160a01b039091169063541da4e590610dcf9033908c908b9089906004016122e2565b600060405180830381600087803b158015610de957600080fd5b505af1158015610dfd573d6000803e3d6000fd5b505050505050505050505050565b610e1b636afd38fd60e11b6110e2565b60008051602061260883398151915280546001600160a01b0319166001600160a01b03831617905550565b610e6a60405180606001604052806060815260200160608152602001606081525090565b6000838152600080516020612628833981519152602052604090208054600080516020612608833981519152919060ff16610eb857604051637ad5a43960e11b815260040160405180910390fd5b600381015460405163069a3ee960e01b8152600481018690526001600160a01b0390911690819063069a3ee990602401600060405180830381865afa158015610f05573d6000803e3d6000fd5b505050506040513d6000823e601f3d908101601f19168201604052610f2d91908101906124ab565b9695505050505050565b5050565b6000818152600080516020612628833981519152602052604081206004810154600080516020612608833981519152925b81811015610fbc57826001016000846004018381548110610f8f57610f8f61213a565b906000526020600020015481526020019081526020016000206000610fb491906111bb565b600101610f6c565b50610fcb6004830160006111d9565b6000848152600184016020526040812080546001600160a81b03191681556003810180546001600160a01b03191690559061100960048301826111d9565b505050505050565b6000600080516020612608833981519152905060007fc21004fcc619240a31f006438274d15cd813308303284436eef6055f0fdcb60060060154604051628956cd60e71b81526c29b830b1b2a7b832b930ba37b960991b60048201526001600160a01b03909116906344ab668090602401602060405180830381865afa15801561109f573d6000803e3d6000fd5b505050506040513d601f19601f820116820180604052508101906110c391906125ea565b82546001600160a01b0319166001600160a01b03919091161790915550565b6001600160e01b0319811660009081527f81088bbc801e045ea3e7620779ab349988f58afbdfba10dff983df3f33522b00602052604090205460ff1661116a576001600160e01b0319811660009081527f81088bbc801e045ea3e7620779ab349988f58afbdfba10dff983df3f33522b0060205260409020805460ff19166001179055611183565b604051637967f77d60e11b815260040160405180910390fd5b6040516001600160e01b03198216907f78f84e5b1c5c05be2b5ad3800781dd404d6d6c6302bc755c0fe20f58a33a7f2290600090a250565b508054600082559060005260206000209081019061088c91906111f7565b508054600082559060005260206000209081019061088c919061121a565b5b808211156112165780546001600160a81b03191681556001016111f8565b5090565b5b80821115611216576000815560010161121b565b60006020828403121561124157600080fd5b5035919050565b634e487b7160e01b600052602160045260246000fd5b6003811061088c5761088c611248565b60008151808452602080850194506020840160005b838110156112b657815180516112988161125e565b885283015160ff168388015260409096019590820190600101611283565b509495945050505050565b600781106112d1576112d1611248565b9052565b60008151808452602080850194506020840160005b838110156112b657815180516112ff8161125e565b88528084015160ff908116858a01526040918201511690880152606090960195908201906001016112ea565b60006020808352608084516060808487015261134a608087018361126e565b915083870151601f196040818986030160408a015284835180875288870191508885019650600094505b808510156113bd5786516113898382516112c1565b808a0151838b0152838101516001600160a01b03168484015286015186830152958801956001949094019390870190611374565b5060408b01519750828a82030160608b01526113d981896112d5565b9b9a5050505050505050505050565b600080604083850312156113fb57600080fd5b50508035926020909101359150565b6000815180845260005b8181101561143057602081850181015186830182015201611414565b506000602082860101526020601f19601f83011685010191505092915050565b60208152600082516040602084015261146c606084018261140a565b90506020840151601f19848303016040850152611489828261140a565b95945050505050565b6003811061088c57600080fd5b6000806000606084860312156114b457600080fd5b833592506020840135915060408401356114cd81611492565b809150509250925092565b6000606082840312156114ea57600080fd5b50919050565b6000806040838503121561150357600080fd5b8235915060208301356001600160401b0381111561152057600080fd5b61152c858286016114d8565b9150509250929050565b600060208083526080845160608084870152611555608087018361126e565b915083870151601f196040818986030160408a01528483518087528887019150888160051b880101898601955060005b828110156115e2578589830301845286516115a18382516112c1565b808c0151838d0152858101516001600160a01b0316868401528801518883018b90526115cf8b84018261140a565b978c0197948c0194925050600101611585565b5060408d01519950848c82030160608d01526115fe818b6112d5565b9d9c50505050505050505050505050565b6001600160a01b038116811461088c57600080fd5b60006020828403121561163657600080fd5b81356105858161160f565b600081548084526020808501945083600052602060002060005b838110156112b657815460ff8082166116738161125e565b895260089190911c16838801526040909601956001918201910161165b565b600081548084526020808501945083600052602060002060005b838110156112b657815460ff8082166116c48161125e565b8952600882901c8116858a015260109190911c166040880152606090960195600191820191016116ac565b600060208083526080606080602086015261170d6080860187611641565b6001808801601f196040818a86030160408b01528483548087526020870191508460005260206000209650600094505b80851015611789576117538260ff8954166112c1565b86860154828b015260028701546001600160a01b031683830152600387015488830152600490960195938501939088019061173d565b50828b82030160608c01526117a18160028e01611692565b9c9b505050505050505050505050565b600181811c908216806117c557607f821691505b6020821081036114ea57634e487b7160e01b600052602260045260246000fd5b600060208083526060818401526117ff6080840185611641565b60018501601f19808684030160408701528282548085528585019150858160051b86010160008581528781209550805b83811015611903578588840301855261184c8360ff8954166112c1565b6001870154838a015260028701546001600160a01b03166040840152608060608401526003870180548390611880816117b1565b806080880152600182166000811461189f57600181146118bb576118ea565b60ff19831660a089015260a082151560051b89010193506118ea565b8487528d8720875b838110156118e15781548a820160a001526001909101908f016118c3565b890160a0019450505b50505060049890980197958a019593505060010161182f565b5050838982030160608a015261191c8160028c01611692565b9a9950505050505050505050565b6000808335601e1984360301811261194157600080fd5b8301803591506001600160401b0382111561195b57600080fd5b6020019150600681901b360382131561197357600080fd5b9250929050565b634e487b7160e01b600052604160045260246000fd5b600281901b6001600160fe1b03821682146119bb57634e487b7160e01b600052601160045260246000fd5b919050565b60ff8116811461088c57600080fd5b81356119da81611492565b6119e38161125e565b60ff1982541660ff82168117835550506020820135611a01816119c0565b815461ff001916600882901b61ff0016178255505050565b6000808335601e19843603018112611a3057600080fd5b8301803591506001600160401b03821115611a4a57600080fd5b6020019150600781901b360382131561197357600080fd5b6007811061088c57600080fd5b60078210611a7f57611a7f611248565b60ff1981541660ff831681178255505050565b80546001600160a01b0319166001600160a01b0392909216919091179055565b8135611abd81611a62565b611ac78183611a6f565b50602082013560018201556040820135611ae08161160f565b611aed8160028401611a92565b50606082013560038201555050565b600160401b831115611b1057611b1061197a565b805483825580841015611b6e57611b2681611990565b611b2f85611990565b6000848152602081209283019291909101905b82821015611b6a57808255806001830155806002830155806003830155600482019150611b42565b5050505b5060008181526020812083915b8581101561100957611b8d8383611ab2565b6080929092019160049190910190600101611b7b565b6000808335601e19843603018112611bba57600080fd5b8301803591506001600160401b03821115611bd457600080fd5b602001915060608102360382131561197357600080fd5b8135611bf681611492565b611bff8161125e565b60ff1982541660ff82168117835550506020820135611c1d816119c0565b815461ff001916600882901b61ff0016178255506040820135611c3f816119c0565b815462ff0000191660109190911b62ff00001617905550565b600160401b831115611c6c57611c6c61197a565b805483825580841015611ca3576000828152602081208581019083015b80821015611c9f57828255600182019150611c89565b5050505b5060008181526020812083915b8581101561100957611cc28383611beb565b6060929092019160019182019101611cb0565b611cdf828361192a565b600160401b811115611cf357611cf361197a565b825481845580821015611d2a576000848152602081208381019083015b80821015611d2657828255600182019150611d10565b5050505b5060008381526020902060005b82811015611d5c57611d4984836119cf565b6040939093019260019182019101611d37565b50505050611d6d6020830183611a19565b611d7b818360018601611afc565b5050611d8a6040830183611ba3565b611d98818360028601611c58565b50505050565b6000808335601e19843603018112611db557600080fd5b8301803591506001600160401b03821115611dcf57600080fd5b6020019150600581901b360382131561197357600080fd5b60008235607e19833603018112611dfd57600080fd5b9190910192915050565b5b81811015610f375760008155600101611e08565b601f82111561051a57806000526020600020601f840160051c81016020851015611e435750805b611e55601f850160051c830182611e07565b5050505050565b8135611e6781611a62565b611e718183611a6f565b50600160208084013560018401556040840135611e8d8161160f565b611e9a8160028601611a92565b50600383016060850135601e19863603018112611eb657600080fd5b850180356001600160401b03811115611ece57600080fd5b8036038483011315611edf57600080fd5b611ef381611eed85546117b1565b85611e1c565b6000601f821160018114611f295760008315611f1157508382018601355b600019600385901b1c1916600184901b178555611f84565b600085815260209020601f19841690835b82811015611f5957868501890135825593880193908901908801611f3a565b5084821015611f785760001960f88660031b161c198885880101351681555b505060018360011b0185555b505050505050505050565b600160401b831115611fa357611fa361197a565b80548382558084101561205657611fb981611990565b611fc285611990565b6000848152602081209283019291909101905b82821015612052578082556001818184015581600284015560038301611ffb81546117b1565b801561204457601f8082116001811461201657858455612041565b60008481526020902061203283850160051c8201878301611e07565b50600084815260208120818655555b50505b505050600482019150611fd5565b5050505b5060008181526020812083915b858110156110095761207e6120788487611de7565b83611e5c565b6020929092019160049190910190600101612063565b61209e828361192a565b600160401b8111156120b2576120b261197a565b8254818455808210156120e9576000848152602081208381019083015b808210156120e5578282556001820191506120cf565b5050505b5060008381526020902060005b8281101561211b5761210884836119cf565b60409390930192600191820191016120f6565b5050505061212c6020830183611d9e565b611d7b818360018601611f8f565b634e487b7160e01b600052603260045260246000fd5b60008261216d57634e487b7160e01b600052601260045260246000fd5b500490565b6020810161217f8361125e565b91905290565b604051608081016001600160401b03811182821017156121a7576121a761197a565b60405290565b604051606081016001600160401b03811182821017156121a7576121a761197a565b604080519081016001600160401b03811182821017156121a7576121a761197a565b604051601f8201601f191681016001600160401b03811182821017156122195761221961197a565b604052919050565b60006001600160401b0382111561223a5761223a61197a565b5060051b60200190565b6000602080838503121561225757600080fd5b82516001600160401b0381111561226d57600080fd5b8301601f8101851361227e57600080fd5b805161229161228c82612221565b6121f1565b81815260059190911b820183019083810190878311156122b057600080fd5b928401925b828410156122d75783516122c88161160f565b825292840192908401906122b5565b979650505050505050565b60006080820160018060a01b03808816845260208760208601528660408601526080606086015282865180855260a08701915060208801945060005b8181101561233c57855185168352948301949183019160010161231e565b50909a9950505050505050505050565b600082601f83011261235d57600080fd5b8151602061236d61228c83612221565b82815260079290921b8401810191818101908684111561238c57600080fd5b8286015b848110156123f157608081890312156123a95760008081fd5b6123b1612185565b81516123bc81611a62565b815281850151858201526040808301516123d58161160f565b9082015260608281015190820152835291830191608001612390565b509695505050505050565b600082601f83011261240d57600080fd5b8151602061241d61228c83612221565b8281526060928302850182019282820191908785111561243c57600080fd5b8387015b8581101561249e5781818a0312156124585760008081fd5b6124606121ad565b815161246b81611492565b81528186015161247a816119c0565b8187015260408281015161248d816119c0565b908201528452928401928101612440565b5090979650505050505050565b600060208083850312156124be57600080fd5b82516001600160401b03808211156124d557600080fd5b90840190606082870312156124e957600080fd5b6124f16121ad565b82518281111561250057600080fd5b8301601f8101881361251157600080fd5b805161251f61228c82612221565b81815260069190911b8201860190868101908a83111561253e57600080fd5b928701925b82841015612594576040848c03121561255c5760008081fd5b6125646121cf565b845161256f81611492565b81528489015161257e816119c0565b818a015282526040939093019290870190612543565b845250505082840151828111156125aa57600080fd5b6125b68882860161234c565b858301525060408301519350818411156125cf57600080fd5b6125db878585016123fc565b60408201529695505050505050565b6000602082840312156125fc57600080fd5b81516105858161160f56fe9075c515a635ba70c9696f31149324218d75cf00afe836c482e6473f38b19e009075c515a635ba70c9696f31149324218d75cf00afe836c482e6473f38b19e01","linkReferences":{}},"methodIdentifiers":{"__EntitlementGated_init(address)":"7adc9cbe","getCrossChainEntitlementData(bytes32,uint256)":"0fe44a21","getRuleData(bytes32,uint256)":"92c399ff","getRuleData(uint256)":"069a3ee9","getRuleDataV2(uint256)":"68ab7dd6","postEntitlementCheckResult(bytes32,uint256,uint8)":"4739e805","requestEntitlementCheck(uint256,((uint8,uint8)[],(uint8,uint256,address,uint256)[],(uint8,uint8,uint8)[]))":"57e70027","requestEntitlementCheckV2(uint256,((uint8,uint8)[],(uint8,uint256,address,bytes)[],(uint8,uint8,uint8)[]))":"ea7aafb7"},"id":393}