{"abi":[{"type":"constructor","inputs":[],"stateMutability":"nonpayable"},{"type":"function","name":"isEntitled","inputs":[{"name":"","type":"address[]","internalType":"address[]"},{"name":"","type":"bytes","internalType":"bytes"}],"outputs":[{"name":"","type":"bool","internalType":"bool"}],"stateMutability":"pure"},{"type":"function","name":"isEntitled","inputs":[{"name":"users","type":"address[]","internalType":"address[]"}],"outputs":[{"name":"","type":"bool","internalType":"bool"}],"stateMutability":"view"},{"type":"function","name":"setEntitled","inputs":[{"name":"users","type":"address[]","internalType":"address[]"},{"name":"userIsEntitled","type":"bool","internalType":"bool"}],"outputs":[],"stateMutability":"nonpayable"},{"type":"function","name":"supportsInterface","inputs":[{"name":"interfaceId","type":"bytes4","internalType":"bytes4"}],"outputs":[{"name":"","type":"bool","internalType":"bool"}],"stateMutability":"view"}],"bytecode":{"object":"0x608060405234801561001057600080fd5b50610455806100206000396000f3fe608060405234801561001057600080fd5b506004361061004c5760003560e01c806301ffc9a71461005157806316089f65146100895780633f4c4d831461009f578063ddc6e68e146100b4575b600080fd5b61007561005f3660046101e6565b6001600160e01b03191663cbce79eb60e01b1490565b604051901515815260200160405180910390f35b6100756100973660046102f4565b600192915050565b6100b26100ad3660046103ab565b6100c7565b005b6100756100c2366004610402565b610151565b60005b825181101561014c57816000808584815181106100e9576100e961043f565b602002602001015160405160200161011091906001600160a01b0391909116815260200190565b60408051808303601f19018152918152815160209283012083529082019290925201600020805460ff19169115159190911790556001016100ca565b505050565b6000805b82518110156101dd576000808483815181106101735761017361043f565b602002602001015160405160200161019a91906001600160a01b0391909116815260200190565b60408051601f198184030181529181528151602092830120835290820192909252016000205460ff1615156001036101d55750600192915050565b600101610155565b50600092915050565b6000602082840312156101f857600080fd5b81356001600160e01b03198116811461021057600080fd5b9392505050565b634e487b7160e01b600052604160045260246000fd5b604051601f8201601f1916810167ffffffffffffffff8111828210171561025657610256610217565b604052919050565b600082601f83011261026f57600080fd5b8135602067ffffffffffffffff82111561028b5761028b610217565b8160051b61029a82820161022d565b92835284810182019282810190878511156102b457600080fd5b83870192505b848310156102e95782356001600160a01b03811681146102da5760008081fd5b825291830191908301906102ba565b979650505050505050565b6000806040838503121561030757600080fd5b823567ffffffffffffffff8082111561031f57600080fd5b61032b8683870161025e565b935060209150818501358181111561034257600080fd5b8501601f8101871361035357600080fd5b80358281111561036557610365610217565b610377601f8201601f1916850161022d565b9250808352878482840101111561038d57600080fd5b80848301858501376000848285010152505080925050509250929050565b600080604083850312156103be57600080fd5b823567ffffffffffffffff8111156103d557600080fd5b6103e18582860161025e565b925050602083013580151581146103f757600080fd5b809150509250929050565b60006020828403121561041457600080fd5b813567ffffffffffffffff81111561042b57600080fd5b6104378482850161025e565b949350505050565b634e487b7160e01b600052603260045260246000fd","linkReferences":{}},"methodIdentifiers":{"isEntitled(address[])":"ddc6e68e","isEntitled(address[],bytes)":"16089f65","setEntitled(address[],bool)":"3f4c4d83","supportsInterface(bytes4)":"01ffc9a7"},"id":295}