{"abi":[{"type":"constructor","inputs":[],"stateMutability":"nonpayable"},{"type":"function","name":"isEntitled","inputs":[{"name":"user","type":"address[]","internalType":"address[]"}],"outputs":[{"name":"","type":"bool","internalType":"bool"}],"stateMutability":"view"},{"type":"function","name":"setEntitled","inputs":[{"name":"user","type":"address[]","internalType":"address[]"},{"name":"userIsEntitled","type":"bool","internalType":"bool"}],"outputs":[],"stateMutability":"nonpayable"}],"bytecode":{"object":"0x608060405234801561001057600080fd5b506102c1806100206000396000f3fe608060405234801561001057600080fd5b50600436106100365760003560e01c80633f4c4d831461003b578063ddc6e68e14610050575b600080fd5b61004e6100493660046101e0565b610077565b005b61006361005e366004610237565b6100c4565b604051901515815260200160405180910390f35b806000808460405160200161008c9190610274565b60408051808303601f19018152918152815160209283012083529082019290925201600020805460ff19169115159190911790555050565b6000806000836040516020016100da9190610274565b60408051601f198184030181529181528151602092830120835290820192909252016000205460ff1692915050565b634e487b7160e01b600052604160045260246000fd5b80356001600160a01b038116811461013657600080fd5b919050565b600082601f83011261014c57600080fd5b8135602067ffffffffffffffff8083111561016957610169610109565b8260051b604051601f19603f8301168101818110848211171561018e5761018e610109565b60405293845260208187018101949081019250878511156101ae57600080fd5b6020870191505b848210156101d5576101c68261011f565b835291830191908301906101b5565b979650505050505050565b600080604083850312156101f357600080fd5b823567ffffffffffffffff81111561020a57600080fd5b6102168582860161013b565b9250506020830135801515811461022c57600080fd5b809150509250929050565b60006020828403121561024957600080fd5b813567ffffffffffffffff81111561026057600080fd5b61026c8482850161013b565b949350505050565b6020808252825182820181905260009190848201906040850190845b818110156102b55783516001600160a01b031683529284019291840191600101610290565b5090969550505050505056","linkReferences":{}},"methodIdentifiers":{"isEntitled(address[])":"ddc6e68e","setEntitled(address[],bool)":"3f4c4d83"},"id":356}