{"abi":[{"type":"function","name":"checkIfLinked","inputs":[{"name":"rootKey","type":"address","internalType":"address"},{"name":"wallet","type":"address","internalType":"address"}],"outputs":[{"name":"","type":"bool","internalType":"bool"}],"stateMutability":"view"},{"type":"function","name":"getLatestNonceForRootKey","inputs":[{"name":"","type":"address","internalType":"address"}],"outputs":[{"name":"","type":"uint256","internalType":"uint256"}],"stateMutability":"pure"},{"type":"function","name":"getRootKeyForWallet","inputs":[{"name":"wallet","type":"address","internalType":"address"}],"outputs":[{"name":"rootKey","type":"address","internalType":"address"}],"stateMutability":"view"},{"type":"function","name":"getWalletsByRootKey","inputs":[{"name":"rootKey","type":"address","internalType":"address"}],"outputs":[{"name":"wallets","type":"address[]","internalType":"address[]"}],"stateMutability":"view"},{"type":"function","name":"linkCallerToRootKey","inputs":[{"name":"rootWallet","type":"tuple","internalType":"struct IWalletLinkBase.LinkedWallet","components":[{"name":"addr","type":"address","internalType":"address"},{"name":"signature","type":"bytes","internalType":"bytes"},{"name":"message","type":"string","internalType":"string"}]},{"name":"","type":"uint256","internalType":"uint256"}],"outputs":[],"stateMutability":"nonpayable"},{"type":"function","name":"linkWalletToRootKey","inputs":[{"name":"wallet","type":"tuple","internalType":"struct IWalletLinkBase.LinkedWallet","components":[{"name":"addr","type":"address","internalType":"address"},{"name":"signature","type":"bytes","internalType":"bytes"},{"name":"message","type":"string","internalType":"string"}]},{"name":"rootWallet","type":"tuple","internalType":"struct IWalletLinkBase.LinkedWallet","components":[{"name":"addr","type":"address","internalType":"address"},{"name":"signature","type":"bytes","internalType":"bytes"},{"name":"message","type":"string","internalType":"string"}]},{"name":"","type":"uint256","internalType":"uint256"}],"outputs":[],"stateMutability":"nonpayable"},{"type":"event","name":"LinkWalletToRootKey","inputs":[{"name":"wallet","type":"address","indexed":true,"internalType":"address"},{"name":"rootKey","type":"address","indexed":true,"internalType":"address"}],"anonymous":false},{"type":"event","name":"RemoveLink","inputs":[{"name":"wallet","type":"address","indexed":true,"internalType":"address"},{"name":"secondWallet","type":"address","indexed":true,"internalType":"address"}],"anonymous":false},{"type":"error","name":"WalletLink__CannotLinkToRootWallet","inputs":[{"name":"wallet","type":"address","internalType":"address"},{"name":"rootKey","type":"address","internalType":"address"}]},{"type":"error","name":"WalletLink__CannotLinkToSelf","inputs":[]},{"type":"error","name":"WalletLink__CannotRemoveRootWallet","inputs":[]},{"type":"error","name":"WalletLink__InvalidAddress","inputs":[]},{"type":"error","name":"WalletLink__InvalidSignature","inputs":[]},{"type":"error","name":"WalletLink__LinkAlreadyExists","inputs":[{"name":"wallet","type":"address","internalType":"address"},{"name":"rootKey","type":"address","internalType":"address"}]},{"type":"error","name":"WalletLink__LinkedToAnotherRootKey","inputs":[{"name":"wallet","type":"address","internalType":"address"},{"name":"rootKey","type":"address","internalType":"address"}]},{"type":"error","name":"WalletLink__NotLinked","inputs":[{"name":"wallet","type":"address","internalType":"address"},{"name":"rootKey","type":"address","internalType":"address"}]}],"bytecode":{"object":"0x608060405234801561001057600080fd5b50610689806100206000396000f3fe608060405234801561001057600080fd5b50600436106100625760003560e01c806302345b981461006757806320a00ac814610090578063243a7134146100b25780632f461453146100c7578063912b9758146100da578063f821039814610139575b600080fd5b61007a6100753660046103dc565b61019c565b60405161008791906103f7565b60405180910390f35b6100a461009e3660046103dc565b50600090565b604051908152602001610087565b6100c56100c03660046105a4565b6101e5565b005b6100c56100d5366004610611565b61026a565b6101296100e8366004610656565b6001600160a01b0390811660009081527f53bdded980027e2c478b287c6d24ce77f39d36276f54116d9f518f7ecd94eb016020526040902054811691161490565b6040519015158152602001610087565b6101846101473660046103dc565b6001600160a01b0390811660009081527f53bdded980027e2c478b287c6d24ce77f39d36276f54116d9f518f7ecd94eb0160205260409020541690565b6040516001600160a01b039091168152602001610087565b6001600160a01b03811660009081527f53bdded980027e2c478b287c6d24ce77f39d36276f54116d9f518f7ecd94eb00602052604090206060906101df906102ec565b92915050565b825182516001600160a01b031660009081527f53bdded980027e2c478b287c6d24ce77f39d36276f54116d9f518f7ecd94eb0060208190526040909120909161022e9190610300565b50915192516001600160a01b0390811660009081526001909301602052604090922080546001600160a01b031916929093169190911790915550565b81516001600160a01b031660009081527f53bdded980027e2c478b287c6d24ce77f39d36276f54116d9f518f7ecd94eb006020819052604090912033906102b19082610300565b5092516001600160a01b039384166000908152600192909201602052604090912080546001600160a01b031916939091169290921790915550565b606060006102f983610315565b9392505050565b60006102f9836001600160a01b038416610371565b60608160000180548060200260200160405190810160405280929190818152602001828054801561036557602002820191906000526020600020905b815481526020019060010190808311610351575b50505050509050919050565b60008181526001830160205260408120546103b8575081546001818101845560008481526020808220909301849055845484825282860190935260409020919091556101df565b5060006101df565b80356001600160a01b03811681146103d757600080fd5b919050565b6000602082840312156103ee57600080fd5b6102f9826103c0565b6020808252825182820181905260009190848201906040850190845b818110156104385783516001600160a01b031683529284019291840191600101610413565b50909695505050505050565b634e487b7160e01b600052604160045260246000fd5b6040516060810167ffffffffffffffff8111828210171561047d5761047d610444565b60405290565b600067ffffffffffffffff8084111561049e5761049e610444565b604051601f8501601f19908116603f011681019082821181831017156104c6576104c6610444565b816040528093508581528686860111156104df57600080fd5b858560208301376000602087830101525050509392505050565b60006060828403121561050b57600080fd5b61051361045a565b905061051e826103c0565b8152602082013567ffffffffffffffff8082111561053b57600080fd5b818401915084601f83011261054f57600080fd5b61055e85833560208501610483565b6020840152604084013591508082111561057757600080fd5b508201601f8101841361058957600080fd5b61059884823560208401610483565b60408301525092915050565b6000806000606084860312156105b957600080fd5b833567ffffffffffffffff808211156105d157600080fd5b6105dd878388016104f9565b945060208601359150808211156105f357600080fd5b50610600868287016104f9565b925050604084013590509250925092565b6000806040838503121561062457600080fd5b823567ffffffffffffffff81111561063b57600080fd5b610647858286016104f9565b95602094909401359450505050565b6000806040838503121561066957600080fd5b610672836103c0565b9150610680602084016103c0565b9050925092905056","linkReferences":{}},"methodIdentifiers":{"checkIfLinked(address,address)":"912b9758","getLatestNonceForRootKey(address)":"20a00ac8","getRootKeyForWallet(address)":"f8210398","getWalletsByRootKey(address)":"02345b98","linkCallerToRootKey((address,bytes,string),uint256)":"2f461453","linkWalletToRootKey((address,bytes,string),(address,bytes,string),uint256)":"243a7134"},"id":377}