{"abi":[{"type":"constructor","inputs":[{"name":"checker","type":"address","internalType":"contract IEntitlementChecker"}],"stateMutability":"nonpayable"},{"type":"function","name":"__EntitlementGated_init","inputs":[{"name":"entitlementChecker","type":"address","internalType":"contract IEntitlementChecker"}],"outputs":[],"stateMutability":"nonpayable"},{"type":"function","name":"getCrossChainEntitlementData","inputs":[{"name":"","type":"bytes32","internalType":"bytes32"},{"name":"roleId","type":"uint256","internalType":"uint256"}],"outputs":[{"name":"","type":"tuple","internalType":"struct IEntitlementDataQueryableBase.EntitlementData","components":[{"name":"entitlementType","type":"string","internalType":"string"},{"name":"entitlementData","type":"bytes","internalType":"bytes"}]}],"stateMutability":"view"},{"type":"function","name":"getRuleData","inputs":[{"name":"roleId","type":"uint256","internalType":"uint256"}],"outputs":[{"name":"","type":"tuple","internalType":"struct IRuleEntitlementBase.RuleData","components":[{"name":"operations","type":"tuple[]","internalType":"struct IRuleEntitlementBase.Operation[]","components":[{"name":"opType","type":"uint8","internalType":"enum IRuleEntitlementBase.CombinedOperationType"},{"name":"index","type":"uint8","internalType":"uint8"}]},{"name":"checkOperations","type":"tuple[]","internalType":"struct IRuleEntitlementBase.CheckOperation[]","components":[{"name":"opType","type":"uint8","internalType":"enum IRuleEntitlementBase.CheckOperationType"},{"name":"chainId","type":"uint256","internalType":"uint256"},{"name":"contractAddress","type":"address","internalType":"address"},{"name":"threshold","type":"uint256","internalType":"uint256"}]},{"name":"logicalOperations","type":"tuple[]","internalType":"struct IRuleEntitlementBase.LogicalOperation[]","components":[{"name":"logOpType","type":"uint8","internalType":"enum IRuleEntitlementBase.LogicalOperationType"},{"name":"leftOperationIndex","type":"uint8","internalType":"uint8"},{"name":"rightOperationIndex","type":"uint8","internalType":"uint8"}]}]}],"stateMutability":"view"},{"type":"function","name":"getRuleData","inputs":[{"name":"transactionId","type":"bytes32","internalType":"bytes32"},{"name":"roleId","type":"uint256","internalType":"uint256"}],"outputs":[{"name":"","type":"tuple","internalType":"struct IRuleEntitlementBase.RuleData","components":[{"name":"operations","type":"tuple[]","internalType":"struct IRuleEntitlementBase.Operation[]","components":[{"name":"opType","type":"uint8","internalType":"enum IRuleEntitlementBase.CombinedOperationType"},{"name":"index","type":"uint8","internalType":"uint8"}]},{"name":"checkOperations","type":"tuple[]","internalType":"struct IRuleEntitlementBase.CheckOperation[]","components":[{"name":"opType","type":"uint8","internalType":"enum IRuleEntitlementBase.CheckOperationType"},{"name":"chainId","type":"uint256","internalType":"uint256"},{"name":"contractAddress","type":"address","internalType":"address"},{"name":"threshold","type":"uint256","internalType":"uint256"}]},{"name":"logicalOperations","type":"tuple[]","internalType":"struct IRuleEntitlementBase.LogicalOperation[]","components":[{"name":"logOpType","type":"uint8","internalType":"enum IRuleEntitlementBase.LogicalOperationType"},{"name":"leftOperationIndex","type":"uint8","internalType":"uint8"},{"name":"rightOperationIndex","type":"uint8","internalType":"uint8"}]}]}],"stateMutability":"view"},{"type":"function","name":"getRuleDataV2","inputs":[{"name":"roleId","type":"uint256","internalType":"uint256"}],"outputs":[{"name":"","type":"tuple","internalType":"struct IRuleEntitlementBase.RuleDataV2","components":[{"name":"operations","type":"tuple[]","internalType":"struct IRuleEntitlementBase.Operation[]","components":[{"name":"opType","type":"uint8","internalType":"enum IRuleEntitlementBase.CombinedOperationType"},{"name":"index","type":"uint8","internalType":"uint8"}]},{"name":"checkOperations","type":"tuple[]","internalType":"struct IRuleEntitlementBase.CheckOperationV2[]","components":[{"name":"opType","type":"uint8","internalType":"enum IRuleEntitlementBase.CheckOperationType"},{"name":"chainId","type":"uint256","internalType":"uint256"},{"name":"contractAddress","type":"address","internalType":"address"},{"name":"params","type":"bytes","internalType":"bytes"}]},{"name":"logicalOperations","type":"tuple[]","internalType":"struct IRuleEntitlementBase.LogicalOperation[]","components":[{"name":"logOpType","type":"uint8","internalType":"enum IRuleEntitlementBase.LogicalOperationType"},{"name":"leftOperationIndex","type":"uint8","internalType":"uint8"},{"name":"rightOperationIndex","type":"uint8","internalType":"uint8"}]}]}],"stateMutability":"view"},{"type":"function","name":"postEntitlementCheckResult","inputs":[{"name":"transactionId","type":"bytes32","internalType":"bytes32"},{"name":"roleId","type":"uint256","internalType":"uint256"},{"name":"result","type":"uint8","internalType":"enum IEntitlementGatedBase.NodeVoteStatus"}],"outputs":[],"stateMutability":"nonpayable"},{"type":"function","name":"requestEntitlementCheck","inputs":[{"name":"roleId","type":"uint256","internalType":"uint256"},{"name":"ruleData","type":"tuple","internalType":"struct IRuleEntitlementBase.RuleData","components":[{"name":"operations","type":"tuple[]","internalType":"struct IRuleEntitlementBase.Operation[]","components":[{"name":"opType","type":"uint8","internalType":"enum IRuleEntitlementBase.CombinedOperationType"},{"name":"index","type":"uint8","internalType":"uint8"}]},{"name":"checkOperations","type":"tuple[]","internalType":"struct IRuleEntitlementBase.CheckOperation[]","components":[{"name":"opType","type":"uint8","internalType":"enum IRuleEntitlementBase.CheckOperationType"},{"name":"chainId","type":"uint256","internalType":"uint256"},{"name":"contractAddress","type":"address","internalType":"address"},{"name":"threshold","type":"uint256","internalType":"uint256"}]},{"name":"logicalOperations","type":"tuple[]","internalType":"struct IRuleEntitlementBase.LogicalOperation[]","components":[{"name":"logOpType","type":"uint8","internalType":"enum IRuleEntitlementBase.LogicalOperationType"},{"name":"leftOperationIndex","type":"uint8","internalType":"uint8"},{"name":"rightOperationIndex","type":"uint8","internalType":"uint8"}]}]}],"outputs":[{"name":"","type":"bytes32","internalType":"bytes32"}],"stateMutability":"nonpayable"},{"type":"function","name":"requestEntitlementCheckV2","inputs":[{"name":"roleIds","type":"uint256[]","internalType":"uint256[]"},{"name":"ruleData","type":"tuple","internalType":"struct IRuleEntitlementBase.RuleDataV2","components":[{"name":"operations","type":"tuple[]","internalType":"struct IRuleEntitlementBase.Operation[]","components":[{"name":"opType","type":"uint8","internalType":"enum IRuleEntitlementBase.CombinedOperationType"},{"name":"index","type":"uint8","internalType":"uint8"}]},{"name":"checkOperations","type":"tuple[]","internalType":"struct IRuleEntitlementBase.CheckOperationV2[]","components":[{"name":"opType","type":"uint8","internalType":"enum IRuleEntitlementBase.CheckOperationType"},{"name":"chainId","type":"uint256","internalType":"uint256"},{"name":"contractAddress","type":"address","internalType":"address"},{"name":"params","type":"bytes","internalType":"bytes"}]},{"name":"logicalOperations","type":"tuple[]","internalType":"struct IRuleEntitlementBase.LogicalOperation[]","components":[{"name":"logOpType","type":"uint8","internalType":"enum IRuleEntitlementBase.LogicalOperationType"},{"name":"leftOperationIndex","type":"uint8","internalType":"uint8"},{"name":"rightOperationIndex","type":"uint8","internalType":"uint8"}]}]}],"outputs":[{"name":"","type":"bytes32","internalType":"bytes32"}],"stateMutability":"nonpayable"},{"type":"event","name":"EntitlementCheckResultPosted","inputs":[{"name":"transactionId","type":"bytes32","indexed":true,"internalType":"bytes32"},{"name":"result","type":"uint8","indexed":false,"internalType":"enum IEntitlementGatedBase.NodeVoteStatus"}],"anonymous":false},{"type":"event","name":"Initialized","inputs":[{"name":"version","type":"uint32","indexed":false,"internalType":"uint32"}],"anonymous":false},{"type":"event","name":"InterfaceAdded","inputs":[{"name":"interfaceId","type":"bytes4","indexed":true,"internalType":"bytes4"}],"anonymous":false},{"type":"event","name":"InterfaceRemoved","inputs":[{"name":"interfaceId","type":"bytes4","indexed":true,"internalType":"bytes4"}],"anonymous":false},{"type":"error","name":"EntitlementGated_InvalidAddress","inputs":[]},{"type":"error","name":"EntitlementGated_NodeAlreadyVoted","inputs":[]},{"type":"error","name":"EntitlementGated_NodeNotFound","inputs":[]},{"type":"error","name":"EntitlementGated_TransactionCheckAlreadyCompleted","inputs":[]},{"type":"error","name":"EntitlementGated_TransactionCheckAlreadyRegistered","inputs":[]},{"type":"error","name":"EntitlementGated_TransactionNotRegistered","inputs":[]},{"type":"error","name":"Initializable_InInitializingState","inputs":[]},{"type":"error","name":"Initializable_NotInInitializingState","inputs":[]},{"type":"error","name":"Introspection_AlreadySupported","inputs":[]},{"type":"error","name":"Introspection_NotSupported","inputs":[]},{"type":"error","name":"ReentrancyGuard__ReentrantCall","inputs":[]}],"bytecode":{"object":"0x60806040523480156200001157600080fd5b50604051620029d7380380620029d7833981016040819052620000349162000127565b6200003e6200007f565b7f9075c515a635ba70c9696f31149324218d75cf00afe836c482e6473f38b19e0080546001600160a01b0319166001600160a01b0383161790555062000159565b7f59b501c3653afc186af7d48dda36cf6732bd21629a6295693664240a6ef520008054640100000000900460ff1615620000cc576040516366008a2d60e01b815260040160405180910390fd5b805463ffffffff90811610156200012457805463ffffffff191663ffffffff90811782556040519081527fe9c9b456cb2994b80aeef036cf59d26e9617df80f816a6ee5a5b4166e07e2f5c9060200160405180910390a15b50565b6000602082840312156200013a57600080fd5b81516001600160a01b03811681146200015257600080fd5b9392505050565b61286e80620001696000396000f3fe608060405234801561001057600080fd5b50600436106100885760003560e01c806368ab7dd61161005b57806368ab7dd61461010c5780637adc9cbe1461012c57806383f1cfa51461013f57806392c399ff1461015257600080fd5b8063069a3ee91461008d5780630fe44a21146100b65780634739e805146100d657806357e70027146100eb575b600080fd5b6100a061009b3660046113bf565b610165565b6040516100ad91906114bb565b60405180910390f35b6100c96100c4366004611578565b610398565b6040516100ad91906115e0565b6100e96100e436600461162f565b61047b565b005b6100fe6100f9366004611680565b61051f565b6040519081526020016100ad565b61011f61011a3660046113bf565b61058d565b6040516100ad91906116c6565b6100e961013a3660046117b4565b61083a565b6100fe61014d3660046117d1565b610890565b6100a0610160366004611578565b61095e565b61018960405180606001604052806060815260200160608152602001606081525090565b6000828152602081815260408083208151815460809481028201850190935260608101838152909491938593919285929185015b8282101561022657600084815260209020604080518082019091529083018054829060ff1660028111156101f3576101f36113d8565b6002811115610204576102046113d8565b81529054610100900460ff1660209182015290825260019290920191016101bd565b50505050815260200160018201805480602002602001604051908101604052809291908181526020016000905b828210156102de576000848152602090206040805160808101909152600484029091018054829060ff16600681111561028e5761028e6113d8565b600681111561029f5761029f6113d8565b815260018281015460208084019190915260028401546001600160a01b0316604084015260039093015460609092019190915291835292019101610253565b50505050815260200160028201805480602002602001604051908101604052809291908181526020016000905b8282101561038a5760008481526020902060408051606081019091529083018054829060ff166002811115610342576103426113d8565b6002811115610353576103536113d8565b8152905460ff610100820481166020808501919091526201000090920416604090920191909152908252600192909201910161030b565b505050915250909392505050565b6040805180820190915260608082526020820152600082815260208190526040902054156104255760408051608081018252600f8183019081526e149d5b19515b9d1a5d1b195b595b9d608a1b606083015281526000848152602081815290839020925191928184019261040c9201611915565b6040516020818303038152906040528152509050610475565b60408051608081018252601181830190815270293ab632a2b73a34ba3632b6b2b73a2b1960791b6060830152815260008481526001602090815290839020925191928184019261040c9201611a0b565b92915050565b60027f54f22f54f370bd020e00ee80e1a5099a71652e2ccbcf6a75281e4c70a3e11a0054036104bd57604051635db5c7cd60e11b815260040160405180910390fd5b6104e660027f54f22f54f370bd020e00ee80e1a5099a71652e2ccbcf6a75281e4c70a3e11a0055565b6104f183838361098c565b61051a60017f54f22f54f370bd020e00ee80e1a5099a71652e2ccbcf6a75281e4c70a3e11a0055565b505050565b600082815260208190526040812082906105398282611efb565b50506040516bffffffffffffffffffffffff193260601b16602082015243603482015260009060540160405160208183030381529060405280519060200120905061058633823087610c39565b9392505050565b6105b160405180606001604052806060815260200160608152602001606081525090565b60008281526001602090815260408083208151815460809481028201850190935260608101838152909491938593919285929185015b8282101561065057600084815260209020604080518082019091529083018054829060ff16600281111561061d5761061d6113d8565b600281111561062e5761062e6113d8565b81529054610100900460ff1660209182015290825260019290920191016105e7565b50505050815260200160018201805480602002602001604051908101604052809291908181526020016000905b8282101561078e576000848152602090206040805160808101909152600484029091018054829060ff1660068111156106b8576106b86113d8565b60068111156106c9576106c96113d8565b81526001820154602082015260028201546001600160a01b031660408201526003820180546060909201916106fd906119d7565b80601f0160208091040260200160405190810160405280929190818152602001828054610729906119d7565b80156107765780601f1061074b57610100808354040283529160200191610776565b820191906000526020600020905b81548152906001019060200180831161075957829003601f168201915b5050505050815250508152602001906001019061067d565b50505050815260200160028201805480602002602001604051908101604052809291908181526020016000905b8282101561038a5760008481526020902060408051606081019091529083018054829060ff1660028111156107f2576107f26113d8565b6002811115610803576108036113d8565b8152905460ff61010082048116602080850191909152620100009092041660409092019190915290825260019290920191016107bb565b7f59b501c3653afc186af7d48dda36cf6732bd21629a6295693664240a6ef5200054640100000000900460ff1661088457604051630ef4733760e31b815260040160405180910390fd5b61088d81610f02565b50565b6000805b838110156108de5782600160008787858181106108b3576108b3611fc4565b90506020020135815260200190815260200160002081816108d491906122d0565b5050600101610894565b506040516bffffffffffffffffffffffff193260601b16602082015243603482015260009060540160405160208183030381529060405280519060200120905060005b848110156109555761094d33833089898681811061094157610941611fc4565b90506020020135610c39565b600101610921565b50949350505050565b61098260405180606001604052806060815260200160608152602001606081525090565b6105868383610f3d565b600083815260008051602061284e83398151915260205260409020805460008051602061282e833981519152919061010090046001600160a01b031615806109d65750805460ff16155b156109f457604051637ad5a43960e11b815260040160405180910390fd5b600084815260028201602052604090205460ff1615610a2657604051637912b73960e01b815260040160405180910390fd5b60008481526001820160205260408120805482918291825b81811015610b40576000838281548110610a5a57610a5a611fc4565b60009182526020909120018054909150336001600160a01b0390911603610ae65760008154600160a01b900460ff166002811115610a9a57610a9a6113d8565b14610ab8576040516347592a4d60e01b815260040160405180910390fd5b80548a90829060ff60a01b1916600160a01b836002811115610adc57610adc6113d8565b0217905550600196505b8054600160a01b900460ff166001816002811115610b0657610b066113d8565b03610b1657866001019650610b36565b6002816002811115610b2a57610b2a6113d8565b03610b36578560010195505b5050600101610a3e565b5084610b5f57604051638223a7e960e01b815260040160405180910390fd5b610b6a600282612376565b841180610b805750610b7d600282612376565b83115b15610c2d5760008981526002870160205260408120805460ff19166001179055838511610bae576002610bb1565b60015b90506000610bbe8c61102e565b90506001826002811115610bd457610bd46113d8565b1480610bdd5750805b15610c1b578b7fb9d6ce397e562841871d119aaf77469c60a3b5bf8b99a5d9851656015015c63383604051610c129190612398565b60405180910390a25b8015610c2a57610c2a8c6110cb565b50505b50505050505050505050565b600083815260008051602061284e83398151915260205260409020805460008051602061282e833981519152919060ff1615610cc957600481015460005b81811015610cc65784836004018281548110610c9557610c95611fc4565b906000526020600020015403610cbe576040516301ab53df60e31b815260040160405180910390fd5b600101610c77565b50505b81546001600160a01b0316610ce057610ce06111a1565b8154604051634f84544560e01b8152600560048201526000916001600160a01b031690634f84544590602401600060405180830381865afa158015610d29573d6000803e3d6000fd5b505050506040513d6000823e601f3d908101601f19168201604052610d51919081019061246a565b825490915060ff16610d9c5781546003830180546001600160a01b038089166001600160a01b0319909216919091179091558816610100026001600160a81b03199091161760011782555b600482018054600181810183556000928352602080842090920187905583518784529085019091526040822090915b82811015610e8f57816040518060400160405280868481518110610df157610df1611fc4565b60200260200101516001600160a01b0316815260200160006002811115610e1a57610e1a6113d8565b9052815460018101835560009283526020928390208251910180546001600160a01b031981166001600160a01b03909316928317825593830151929390929183916001600160a81b03191617600160a01b836002811115610e7d57610e7d6113d8565b02179055505050806001019050610dcb565b50845460405163541da4e560e01b81526001600160a01b039091169063541da4e590610ec5908c908c908b908990600401612508565b600060405180830381600087803b158015610edf57600080fd5b505af1158015610ef3573d6000803e3d6000fd5b50505050505050505050505050565b610f12636afd38fd60e11b611272565b60008051602061282e83398151915280546001600160a01b0319166001600160a01b03831617905550565b610f6160405180606001604052806060815260200160608152602001606081525090565b600083815260008051602061284e83398151915260205260409020805460008051602061282e833981519152919060ff16610faf57604051637ad5a43960e11b815260040160405180910390fd5b600381015460405163069a3ee960e01b8152600481018690526001600160a01b0390911690819063069a3ee990602401600060405180830381865afa158015610ffc573d6000803e3d6000fd5b505050506040513d6000823e601f3d908101601f1916820160405261102491908101906126d1565b9695505050505050565b600081815260008051602061284e83398151915260205260408120600481015460008051602061282e8339815191529190835b818110156110bb5782600201600084600401838154811061108457611084611fc4565b6000918252602080832090910154835282019290925260400190205460ff166110b35750600095945050505050565b600101611061565b50600195945050505050565b5050565b600081815260008051602061284e83398151915260205260408120600481015460008051602061282e833981519152925b8181101561114c5782600101600084600401838154811061111f5761111f611fc4565b906000526020600020015481526020019081526020016000206000611144919061134b565b6001016110fc565b5061115b600483016000611369565b6000848152600184016020526040812080546001600160a81b03191681556003810180546001600160a01b0319169055906111996004830182611369565b505050505050565b600060008051602061282e833981519152905060007fc21004fcc619240a31f006438274d15cd813308303284436eef6055f0fdcb60060060154604051628956cd60e71b81526c29b830b1b2a7b832b930ba37b960991b60048201526001600160a01b03909116906344ab668090602401602060405180830381865afa15801561122f573d6000803e3d6000fd5b505050506040513d601f19601f820116820180604052508101906112539190612810565b82546001600160a01b0319166001600160a01b03919091161790915550565b6001600160e01b0319811660009081527f81088bbc801e045ea3e7620779ab349988f58afbdfba10dff983df3f33522b00602052604090205460ff166112fa576001600160e01b0319811660009081527f81088bbc801e045ea3e7620779ab349988f58afbdfba10dff983df3f33522b0060205260409020805460ff19166001179055611313565b604051637967f77d60e11b815260040160405180910390fd5b6040516001600160e01b03198216907f78f84e5b1c5c05be2b5ad3800781dd404d6d6c6302bc755c0fe20f58a33a7f2290600090a250565b508054600082559060005260206000209081019061088d9190611387565b508054600082559060005260206000209081019061088d91906113aa565b5b808211156113a65780546001600160a81b0319168155600101611388565b5090565b5b808211156113a657600081556001016113ab565b6000602082840312156113d157600080fd5b5035919050565b634e487b7160e01b600052602160045260246000fd5b6003811061088d5761088d6113d8565b60008151808452602080850194506020840160005b838110156114465781518051611428816113ee565b885283015160ff168388015260409096019590820190600101611413565b509495945050505050565b60078110611461576114616113d8565b9052565b60008151808452602080850194506020840160005b83811015611446578151805161148f816113ee565b88528084015160ff908116858a015260409182015116908801526060909601959082019060010161147a565b6000602080835260808451606080848701526114da60808701836113fe565b915083870151601f196040818986030160408a015284835180875288870191508885019650600094505b8085101561154d578651611519838251611451565b808a0151838b0152838101516001600160a01b03168484015286015186830152958801956001949094019390870190611504565b5060408b01519750828a82030160608b01526115698189611465565b9b9a5050505050505050505050565b6000806040838503121561158b57600080fd5b50508035926020909101359150565b6000815180845260005b818110156115c0576020818501810151868301820152016115a4565b506000602082860101526020601f19601f83011685010191505092915050565b6020815260008251604060208401526115fc606084018261159a565b90506020840151601f19848303016040850152611619828261159a565b95945050505050565b6003811061088d57600080fd5b60008060006060848603121561164457600080fd5b8335925060208401359150604084013561165d81611622565b809150509250925092565b60006060828403121561167a57600080fd5b50919050565b6000806040838503121561169357600080fd5b8235915060208301356001600160401b038111156116b057600080fd5b6116bc85828601611668565b9150509250929050565b6000602080835260808451606080848701526116e560808701836113fe565b915083870151601f196040818986030160408a01528483518087528887019150888160051b880101898601955060005b8281101561177257858983030184528651611731838251611451565b808c0151838d0152858101516001600160a01b0316868401528801518883018b905261175f8b84018261159a565b978c0197948c0194925050600101611715565b5060408d01519950848c82030160608d015261178e818b611465565b9d9c50505050505050505050505050565b6001600160a01b038116811461088d57600080fd5b6000602082840312156117c657600080fd5b81356105868161179f565b6000806000604084860312156117e657600080fd5b83356001600160401b03808211156117fd57600080fd5b818601915086601f83011261181157600080fd5b81358181111561182057600080fd5b8760208260051b850101111561183557600080fd5b60209283019550935090850135908082111561185057600080fd5b5061185d86828701611668565b9150509250925092565b600081548084526020808501945083600052602060002060005b8381101561144657815460ff808216611899816113ee565b895260089190911c168388015260409096019560019182019101611881565b600081548084526020808501945083600052602060002060005b8381101561144657815460ff8082166118ea816113ee565b8952600882901c8116858a015260109190911c166040880152606090960195600191820191016118d2565b60006020808352608060608060208601526119336080860187611867565b6001808801601f196040818a86030160408b01528483548087526020870191508460005260206000209650600094505b808510156119af576119798260ff895416611451565b86860154828b015260028701546001600160a01b0316838301526003870154888301526004909601959385019390880190611963565b50828b82030160608c01526119c78160028e016118b8565b9c9b505050505050505050505050565b600181811c908216806119eb57607f821691505b60208210810361167a57634e487b7160e01b600052602260045260246000fd5b60006020808352606081840152611a256080840185611867565b60018501601f19808684030160408701528282548085528585019150858160051b86010160008581528781209550805b83811015611b295785888403018552611a728360ff895416611451565b6001870154838a015260028701546001600160a01b03166040840152608060608401526003870180548390611aa6816119d7565b8060808801526001821660008114611ac55760018114611ae157611b10565b60ff19831660a089015260a082151560051b8901019350611b10565b8487528d8720875b83811015611b075781548a820160a001526001909101908f01611ae9565b890160a0019450505b50505060049890980197958a0195935050600101611a55565b5050838982030160608a0152611b428160028c016118b8565b9a9950505050505050505050565b6000808335601e19843603018112611b6757600080fd5b8301803591506001600160401b03821115611b8157600080fd5b6020019150600681901b3603821315611b9957600080fd5b9250929050565b634e487b7160e01b600052604160045260246000fd5b600281901b6001600160fe1b0382168214611be157634e487b7160e01b600052601160045260246000fd5b919050565b60ff8116811461088d57600080fd5b8135611c0081611622565b611c09816113ee565b60ff1982541660ff82168117835550506020820135611c2781611be6565b815461ff001916600882901b61ff0016178255505050565b6000808335601e19843603018112611c5657600080fd5b8301803591506001600160401b03821115611c7057600080fd5b6020019150600781901b3603821315611b9957600080fd5b6007811061088d57600080fd5b60078210611ca557611ca56113d8565b60ff1981541660ff831681178255505050565b80546001600160a01b0319166001600160a01b0392909216919091179055565b8135611ce381611c88565b611ced8183611c95565b50602082013560018201556040820135611d068161179f565b611d138160028401611cb8565b50606082013560038201555050565b600160401b831115611d3657611d36611ba0565b805483825580841015611d9457611d4c81611bb6565b611d5585611bb6565b6000848152602081209283019291909101905b82821015611d9057808255806001830155806002830155806003830155600482019150611d68565b5050505b5060008181526020812083915b8581101561119957611db38383611cd8565b6080929092019160049190910190600101611da1565b6000808335601e19843603018112611de057600080fd5b8301803591506001600160401b03821115611dfa57600080fd5b6020019150606081023603821315611b9957600080fd5b8135611e1c81611622565b611e25816113ee565b60ff1982541660ff82168117835550506020820135611e4381611be6565b815461ff001916600882901b61ff0016178255506040820135611e6581611be6565b815462ff0000191660109190911b62ff00001617905550565b600160401b831115611e9257611e92611ba0565b805483825580841015611ec9576000828152602081208581019083015b80821015611ec557828255600182019150611eaf565b5050505b5060008181526020812083915b8581101561119957611ee88383611e11565b6060929092019160019182019101611ed6565b611f058283611b50565b600160401b811115611f1957611f19611ba0565b825481845580821015611f50576000848152602081208381019083015b80821015611f4c57828255600182019150611f36565b5050505b5060008381526020902060005b82811015611f8257611f6f8483611bf5565b6040939093019260019182019101611f5d565b50505050611f936020830183611c3f565b611fa1818360018601611d22565b5050611fb06040830183611dc9565b611fbe818360028601611e7e565b50505050565b634e487b7160e01b600052603260045260246000fd5b6000808335601e19843603018112611ff157600080fd5b8301803591506001600160401b0382111561200b57600080fd5b6020019150600581901b3603821315611b9957600080fd5b60008235607e1983360301811261203957600080fd5b9190910192915050565b5b818110156110c75760008155600101612044565b601f82111561051a57806000526020600020601f840160051c8101602085101561207f5750805b612091601f850160051c830182612043565b5050505050565b81356120a381611c88565b6120ad8183611c95565b506001602080840135600184015560408401356120c98161179f565b6120d68160028601611cb8565b50600383016060850135601e198636030181126120f257600080fd5b850180356001600160401b0381111561210a57600080fd5b803603848301131561211b57600080fd5b61212f8161212985546119d7565b85612058565b6000601f821160018114612165576000831561214d57508382018601355b600019600385901b1c1916600184901b1785556121c0565b600085815260209020601f19841690835b8281101561219557868501890135825593880193908901908801612176565b50848210156121b45760001960f88660031b161c198885880101351681555b505060018360011b0185555b505050505050505050565b600160401b8311156121df576121df611ba0565b805483825580841015612292576121f581611bb6565b6121fe85611bb6565b6000848152602081209283019291909101905b8282101561228e57808255600181818401558160028401556003830161223781546119d7565b801561228057601f808211600181146122525785845561227d565b60008481526020902061226e83850160051c8201878301612043565b50600084815260208120818655555b50505b505050600482019150612211565b5050505b5060008181526020812083915b85811015611199576122ba6122b48487612023565b83612098565b602092909201916004919091019060010161229f565b6122da8283611b50565b600160401b8111156122ee576122ee611ba0565b825481845580821015612325576000848152602081208381019083015b808210156123215782825560018201915061230b565b5050505b5060008381526020902060005b82811015612357576123448483611bf5565b6040939093019260019182019101612332565b505050506123686020830183611fda565b611fa18183600186016121cb565b60008261239357634e487b7160e01b600052601260045260246000fd5b500490565b602081016123a5836113ee565b91905290565b604051608081016001600160401b03811182821017156123cd576123cd611ba0565b60405290565b604051606081016001600160401b03811182821017156123cd576123cd611ba0565b604080519081016001600160401b03811182821017156123cd576123cd611ba0565b604051601f8201601f191681016001600160401b038111828210171561243f5761243f611ba0565b604052919050565b60006001600160401b0382111561246057612460611ba0565b5060051b60200190565b6000602080838503121561247d57600080fd5b82516001600160401b0381111561249357600080fd5b8301601f810185136124a457600080fd5b80516124b76124b282612447565b612417565b81815260059190911b820183019083810190878311156124d657600080fd5b928401925b828410156124fd5783516124ee8161179f565b825292840192908401906124db565b979650505050505050565b60006080820160018060a01b03808816845260208760208601528660408601526080606086015282865180855260a08701915060208801945060005b81811015612562578551851683529483019491830191600101612544565b50909a9950505050505050505050565b600082601f83011261258357600080fd5b815160206125936124b283612447565b82815260079290921b840181019181810190868411156125b257600080fd5b8286015b8481101561261757608081890312156125cf5760008081fd5b6125d76123ab565b81516125e281611c88565b815281850151858201526040808301516125fb8161179f565b90820152606082810151908201528352918301916080016125b6565b509695505050505050565b600082601f83011261263357600080fd5b815160206126436124b283612447565b8281526060928302850182019282820191908785111561266257600080fd5b8387015b858110156126c45781818a03121561267e5760008081fd5b6126866123d3565b815161269181611622565b8152818601516126a081611be6565b818701526040828101516126b381611be6565b908201528452928401928101612666565b5090979650505050505050565b600060208083850312156126e457600080fd5b82516001600160401b03808211156126fb57600080fd5b908401906060828703121561270f57600080fd5b6127176123d3565b82518281111561272657600080fd5b8301601f8101881361273757600080fd5b80516127456124b282612447565b81815260069190911b8201860190868101908a83111561276457600080fd5b928701925b828410156127ba576040848c0312156127825760008081fd5b61278a6123f5565b845161279581611622565b8152848901516127a481611be6565b818a015282526040939093019290870190612769565b845250505082840151828111156127d057600080fd5b6127dc88828601612572565b858301525060408301519350818411156127f557600080fd5b61280187858501612622565b60408201529695505050505050565b60006020828403121561282257600080fd5b81516105868161179f56fe9075c515a635ba70c9696f31149324218d75cf00afe836c482e6473f38b19e009075c515a635ba70c9696f31149324218d75cf00afe836c482e6473f38b19e01","linkReferences":{}},"methodIdentifiers":{"__EntitlementGated_init(address)":"7adc9cbe","getCrossChainEntitlementData(bytes32,uint256)":"0fe44a21","getRuleData(bytes32,uint256)":"92c399ff","getRuleData(uint256)":"069a3ee9","getRuleDataV2(uint256)":"68ab7dd6","postEntitlementCheckResult(bytes32,uint256,uint8)":"4739e805","requestEntitlementCheck(uint256,((uint8,uint8)[],(uint8,uint256,address,uint256)[],(uint8,uint8,uint8)[]))":"57e70027","requestEntitlementCheckV2(uint256[],((uint8,uint8)[],(uint8,uint256,address,bytes)[],(uint8,uint8,uint8)[]))":"83f1cfa5"},"id":435}