{"abi":[{"type":"constructor","inputs":[{"name":"approvedOperators","type":"address[]","internalType":"address[]"}],"stateMutability":"nonpayable"},{"type":"function","name":"__OperatorRegistry_init","inputs":[{"name":"initialOperators","type":"address[]","internalType":"address[]"}],"outputs":[],"stateMutability":"nonpayable"},{"type":"function","name":"__RiverConfig_init","inputs":[{"name":"configManagers","type":"address[]","internalType":"address[]"}],"outputs":[],"stateMutability":"nonpayable"},{"type":"function","name":"allocateStream","inputs":[{"name":"streamId","type":"bytes32","internalType":"bytes32"},{"name":"nodes","type":"address[]","internalType":"address[]"},{"name":"genesisMiniblockHash","type":"bytes32","internalType":"bytes32"},{"name":"genesisMiniblock","type":"bytes","internalType":"bytes"}],"outputs":[],"stateMutability":"nonpayable"},{"type":"function","name":"approveConfigurationManager","inputs":[{"name":"manager","type":"address","internalType":"address"}],"outputs":[],"stateMutability":"nonpayable"},{"type":"function","name":"approveOperator","inputs":[{"name":"operator","type":"address","internalType":"address"}],"outputs":[],"stateMutability":"nonpayable"},{"type":"function","name":"configurationExists","inputs":[{"name":"key","type":"bytes32","internalType":"bytes32"}],"outputs":[{"name":"","type":"bool","internalType":"bool"}],"stateMutability":"view"},{"type":"function","name":"deleteConfiguration","inputs":[{"name":"key","type":"bytes32","internalType":"bytes32"}],"outputs":[],"stateMutability":"nonpayable"},{"type":"function","name":"deleteConfigurationOnBlock","inputs":[{"name":"key","type":"bytes32","internalType":"bytes32"},{"name":"blockNumber","type":"uint64","internalType":"uint64"}],"outputs":[],"stateMutability":"nonpayable"},{"type":"function","name":"getAllConfiguration","inputs":[],"outputs":[{"name":"","type":"tuple[]","internalType":"struct Setting[]","components":[{"name":"key","type":"bytes32","internalType":"bytes32"},{"name":"blockNumber","type":"uint64","internalType":"uint64"},{"name":"value","type":"bytes","internalType":"bytes"}]}],"stateMutability":"view"},{"type":"function","name":"getAllNodeAddresses","inputs":[],"outputs":[{"name":"","type":"address[]","internalType":"address[]"}],"stateMutability":"view"},{"type":"function","name":"getAllNodes","inputs":[],"outputs":[{"name":"","type":"tuple[]","internalType":"struct Node[]","components":[{"name":"status","type":"uint8","internalType":"enum NodeStatus"},{"name":"url","type":"string","internalType":"string"},{"name":"nodeAddress","type":"address","internalType":"address"},{"name":"operator","type":"address","internalType":"address"}]}],"stateMutability":"view"},{"type":"function","name":"getAllOperators","inputs":[],"outputs":[{"name":"","type":"address[]","internalType":"address[]"}],"stateMutability":"view"},{"type":"function","name":"getConfiguration","inputs":[{"name":"key","type":"bytes32","internalType":"bytes32"}],"outputs":[{"name":"","type":"tuple[]","internalType":"struct Setting[]","components":[{"name":"key","type":"bytes32","internalType":"bytes32"},{"name":"blockNumber","type":"uint64","internalType":"uint64"},{"name":"value","type":"bytes","internalType":"bytes"}]}],"stateMutability":"view"},{"type":"function","name":"getNode","inputs":[{"name":"nodeAddress","type":"address","internalType":"address"}],"outputs":[{"name":"","type":"tuple","internalType":"struct Node","components":[{"name":"status","type":"uint8","internalType":"enum NodeStatus"},{"name":"url","type":"string","internalType":"string"},{"name":"nodeAddress","type":"address","internalType":"address"},{"name":"operator","type":"address","internalType":"address"}]}],"stateMutability":"view"},{"type":"function","name":"getNodeCount","inputs":[],"outputs":[{"name":"","type":"uint256","internalType":"uint256"}],"stateMutability":"view"},{"type":"function","name":"getPaginatedStreams","inputs":[{"name":"start","type":"uint256","internalType":"uint256"},{"name":"stop","type":"uint256","internalType":"uint256"}],"outputs":[{"name":"","type":"tuple[]","internalType":"struct StreamWithId[]","components":[{"name":"id","type":"bytes32","internalType":"bytes32"},{"name":"stream","type":"tuple","internalType":"struct Stream","components":[{"name":"lastMiniblockHash","type":"bytes32","internalType":"bytes32"},{"name":"lastMiniblockNum","type":"uint64","internalType":"uint64"},{"name":"reserved0","type":"uint64","internalType":"uint64"},{"name":"flags","type":"uint64","internalType":"uint64"},{"name":"nodes","type":"address[]","internalType":"address[]"}]}]},{"name":"","type":"bool","internalType":"bool"}],"stateMutability":"view"},{"type":"function","name":"getStream","inputs":[{"name":"streamId","type":"bytes32","internalType":"bytes32"}],"outputs":[{"name":"","type":"tuple","internalType":"struct Stream","components":[{"name":"lastMiniblockHash","type":"bytes32","internalType":"bytes32"},{"name":"lastMiniblockNum","type":"uint64","internalType":"uint64"},{"name":"reserved0","type":"uint64","internalType":"uint64"},{"name":"flags","type":"uint64","internalType":"uint64"},{"name":"nodes","type":"address[]","internalType":"address[]"}]}],"stateMutability":"view"},{"type":"function","name":"getStreamCount","inputs":[],"outputs":[{"name":"","type":"uint256","internalType":"uint256"}],"stateMutability":"view"},{"type":"function","name":"getStreamCountOnNode","inputs":[{"name":"nodeAddress","type":"address","internalType":"address"}],"outputs":[{"name":"","type":"uint256","internalType":"uint256"}],"stateMutability":"view"},{"type":"function","name":"getStreamWithGenesis","inputs":[{"name":"streamId","type":"bytes32","internalType":"bytes32"}],"outputs":[{"name":"","type":"tuple","internalType":"struct Stream","components":[{"name":"lastMiniblockHash","type":"bytes32","internalType":"bytes32"},{"name":"lastMiniblockNum","type":"uint64","internalType":"uint64"},{"name":"reserved0","type":"uint64","internalType":"uint64"},{"name":"flags","type":"uint64","internalType":"uint64"},{"name":"nodes","type":"address[]","internalType":"address[]"}]},{"name":"","type":"bytes32","internalType":"bytes32"},{"name":"","type":"bytes","internalType":"bytes"}],"stateMutability":"view"},{"type":"function","name":"isConfigurationManager","inputs":[{"name":"manager","type":"address","internalType":"address"}],"outputs":[{"name":"","type":"bool","internalType":"bool"}],"stateMutability":"view"},{"type":"function","name":"isNode","inputs":[{"name":"nodeAddress","type":"address","internalType":"address"}],"outputs":[{"name":"","type":"bool","internalType":"bool"}],"stateMutability":"view"},{"type":"function","name":"isOperator","inputs":[{"name":"operator","type":"address","internalType":"address"}],"outputs":[{"name":"","type":"bool","internalType":"bool"}],"stateMutability":"view"},{"type":"function","name":"isStream","inputs":[{"name":"streamId","type":"bytes32","internalType":"bytes32"}],"outputs":[{"name":"","type":"bool","internalType":"bool"}],"stateMutability":"view"},{"type":"function","name":"placeStreamOnNode","inputs":[{"name":"streamId","type":"bytes32","internalType":"bytes32"},{"name":"nodeAddress","type":"address","internalType":"address"}],"outputs":[],"stateMutability":"nonpayable"},{"type":"function","name":"registerNode","inputs":[{"name":"nodeAddress","type":"address","internalType":"address"},{"name":"url","type":"string","internalType":"string"},{"name":"status","type":"uint8","internalType":"enum NodeStatus"}],"outputs":[],"stateMutability":"nonpayable"},{"type":"function","name":"removeConfigurationManager","inputs":[{"name":"manager","type":"address","internalType":"address"}],"outputs":[],"stateMutability":"nonpayable"},{"type":"function","name":"removeNode","inputs":[{"name":"nodeAddress","type":"address","internalType":"address"}],"outputs":[],"stateMutability":"nonpayable"},{"type":"function","name":"removeOperator","inputs":[{"name":"operator","type":"address","internalType":"address"}],"outputs":[],"stateMutability":"nonpayable"},{"type":"function","name":"removeStreamFromNode","inputs":[{"name":"streamId","type":"bytes32","internalType":"bytes32"},{"name":"nodeAddress","type":"address","internalType":"address"}],"outputs":[],"stateMutability":"nonpayable"},{"type":"function","name":"setConfiguration","inputs":[{"name":"key","type":"bytes32","internalType":"bytes32"},{"name":"blockNumber","type":"uint64","internalType":"uint64"},{"name":"value","type":"bytes","internalType":"bytes"}],"outputs":[],"stateMutability":"nonpayable"},{"type":"function","name":"setStreamLastMiniblock","inputs":[{"name":"streamId","type":"bytes32","internalType":"bytes32"},{"name":"","type":"bytes32","internalType":"bytes32"},{"name":"lastMiniblockHash","type":"bytes32","internalType":"bytes32"},{"name":"lastMiniblockNum","type":"uint64","internalType":"uint64"},{"name":"isSealed","type":"bool","internalType":"bool"}],"outputs":[],"stateMutability":"nonpayable"},{"type":"function","name":"setStreamLastMiniblockBatch","inputs":[{"name":"miniblocks","type":"tuple[]","internalType":"struct SetMiniblock[]","components":[{"name":"streamId","type":"bytes32","internalType":"bytes32"},{"name":"prevMiniBlockHash","type":"bytes32","internalType":"bytes32"},{"name":"lastMiniblockHash","type":"bytes32","internalType":"bytes32"},{"name":"lastMiniblockNum","type":"uint64","internalType":"uint64"},{"name":"isSealed","type":"bool","internalType":"bool"}]}],"outputs":[],"stateMutability":"nonpayable"},{"type":"function","name":"updateNodeStatus","inputs":[{"name":"nodeAddress","type":"address","internalType":"address"},{"name":"status","type":"uint8","internalType":"enum NodeStatus"}],"outputs":[],"stateMutability":"nonpayable"},{"type":"function","name":"updateNodeUrl","inputs":[{"name":"nodeAddress","type":"address","internalType":"address"},{"name":"url","type":"string","internalType":"string"}],"outputs":[],"stateMutability":"nonpayable"},{"type":"event","name":"ConfigurationChanged","inputs":[{"name":"key","type":"bytes32","indexed":false,"internalType":"bytes32"},{"name":"block","type":"uint64","indexed":false,"internalType":"uint64"},{"name":"value","type":"bytes","indexed":false,"internalType":"bytes"},{"name":"deleted","type":"bool","indexed":false,"internalType":"bool"}],"anonymous":false},{"type":"event","name":"ConfigurationManagerAdded","inputs":[{"name":"manager","type":"address","indexed":true,"internalType":"address"}],"anonymous":false},{"type":"event","name":"ConfigurationManagerRemoved","inputs":[{"name":"manager","type":"address","indexed":true,"internalType":"address"}],"anonymous":false},{"type":"event","name":"Initialized","inputs":[{"name":"version","type":"uint32","indexed":false,"internalType":"uint32"}],"anonymous":false},{"type":"event","name":"InterfaceAdded","inputs":[{"name":"interfaceId","type":"bytes4","indexed":true,"internalType":"bytes4"}],"anonymous":false},{"type":"event","name":"InterfaceRemoved","inputs":[{"name":"interfaceId","type":"bytes4","indexed":true,"internalType":"bytes4"}],"anonymous":false},{"type":"event","name":"NodeAdded","inputs":[{"name":"nodeAddress","type":"address","indexed":true,"internalType":"address"},{"name":"operator","type":"address","indexed":true,"internalType":"address"},{"name":"url","type":"string","indexed":false,"internalType":"string"},{"name":"status","type":"uint8","indexed":false,"internalType":"enum NodeStatus"}],"anonymous":false},{"type":"event","name":"NodeRemoved","inputs":[{"name":"nodeAddress","type":"address","indexed":true,"internalType":"address"}],"anonymous":false},{"type":"event","name":"NodeStatusUpdated","inputs":[{"name":"nodeAddress","type":"address","indexed":true,"internalType":"address"},{"name":"status","type":"uint8","indexed":false,"internalType":"enum NodeStatus"}],"anonymous":false},{"type":"event","name":"NodeUrlUpdated","inputs":[{"name":"nodeAddress","type":"address","indexed":true,"internalType":"address"},{"name":"url","type":"string","indexed":false,"internalType":"string"}],"anonymous":false},{"type":"event","name":"OperatorAdded","inputs":[{"name":"operatorAddress","type":"address","indexed":true,"internalType":"address"}],"anonymous":false},{"type":"event","name":"OperatorRemoved","inputs":[{"name":"operatorAddress","type":"address","indexed":true,"internalType":"address"}],"anonymous":false},{"type":"event","name":"OwnershipTransferred","inputs":[{"name":"previousOwner","type":"address","indexed":true,"internalType":"address"},{"name":"newOwner","type":"address","indexed":true,"internalType":"address"}],"anonymous":false},{"type":"event","name":"StreamAllocated","inputs":[{"name":"streamId","type":"bytes32","indexed":false,"internalType":"bytes32"},{"name":"nodes","type":"address[]","indexed":false,"internalType":"address[]"},{"name":"genesisMiniblockHash","type":"bytes32","indexed":false,"internalType":"bytes32"},{"name":"genesisMiniblock","type":"bytes","indexed":false,"internalType":"bytes"}],"anonymous":false},{"type":"event","name":"StreamLastMiniblockUpdateFailed","inputs":[{"name":"streamId","type":"bytes32","indexed":false,"internalType":"bytes32"},{"name":"lastMiniblockHash","type":"bytes32","indexed":false,"internalType":"bytes32"},{"name":"lastMiniblockNum","type":"uint64","indexed":false,"internalType":"uint64"},{"name":"reason","type":"string","indexed":false,"internalType":"string"}],"anonymous":false},{"type":"event","name":"StreamLastMiniblockUpdated","inputs":[{"name":"streamId","type":"bytes32","indexed":false,"internalType":"bytes32"},{"name":"lastMiniblockHash","type":"bytes32","indexed":false,"internalType":"bytes32"},{"name":"lastMiniblockNum","type":"uint64","indexed":false,"internalType":"uint64"},{"name":"isSealed","type":"bool","indexed":false,"internalType":"bool"}],"anonymous":false},{"type":"event","name":"StreamPlacementUpdated","inputs":[{"name":"streamId","type":"bytes32","indexed":false,"internalType":"bytes32"},{"name":"nodeAddress","type":"address","indexed":false,"internalType":"address"},{"name":"isAdded","type":"bool","indexed":false,"internalType":"bool"}],"anonymous":false},{"type":"error","name":"Initializable_InInitializingState","inputs":[]},{"type":"error","name":"Initializable_NotInInitializingState","inputs":[]},{"type":"error","name":"Introspection_AlreadySupported","inputs":[]},{"type":"error","name":"Introspection_NotSupported","inputs":[]},{"type":"error","name":"Ownable__NotOwner","inputs":[{"name":"account","type":"address","internalType":"address"}]},{"type":"error","name":"Ownable__ZeroAddress","inputs":[]}],"bytecode":{"object":"0x60806040523480156200001157600080fd5b5060405162004a6d38038062004a6d8339810160408190526200003491620004a6565b6200003e620000c1565b620000493362000169565b60005b8151811015620000b957620000838282815181106200006f576200006f62000578565b60200260200101516200023760201b60201c565b620000b08282815181106200009c576200009c62000578565b60200260200101516200031c60201b60201c565b6001016200004c565b5050620005df565b7f59b501c3653afc186af7d48dda36cf6732bd21629a6295693664240a6ef520008054640100000000900460ff16156200010e576040516366008a2d60e01b815260040160405180910390fd5b805463ffffffff90811610156200016657805463ffffffff191663ffffffff90811782556040519081527fe9c9b456cb2994b80aeef036cf59d26e9617df80f816a6ee5a5b4166e07e2f5c9060200160405180910390a15b50565b60006200019d7f4675fa8241f86f37157864d3d49b85ad4b164352c516da28e1678a90470ae300546001600160a01b031690565b90506001600160a01b038216620001c757604051634e3ef82560e01b815260040160405180910390fd5b817f4675fa8241f86f37157864d3d49b85ad4b164352c516da28e1678a90470ae30080546001600160a01b0319166001600160a01b03928316179055604051838216918316907f8be0079c531659141344cd1fd0a4f28419497f9722a3daafe3b4186f6b6457e090600090a35050565b6001600160a01b038116620002865760408051808201825260078152664241445f41524760c81b6020820152905162461bcd60e51b81526200027d91906004016200058e565b60405180910390fd5b62000293600882620003e9565b15620002d757604080518082018252600e81526d414c52454144595f45584953545360901b6020820152905162461bcd60e51b81526200027d91906004016200058e565b620002e460088262000410565b506040516001600160a01b038216907fac6fa858e9350a46cec16539926e0fde25b7629f84b5a72bffaae4df888ae86d90600090a250565b6001600160a01b038116620003625760408051808201825260078152664241445f41524760c81b6020820152905162461bcd60e51b81526200027d91906004016200058e565b6200036f600d8262000410565b620003b257604080518082018252600e81526d414c52454144595f45584953545360901b6020820152905162461bcd60e51b81526200027d91906004016200058e565b6040516001600160a01b038216907f7afd798379ae2d2e5035438544cea2b60eb1dde6a8128e6d447fd2a25f8825a290600090a250565b6001600160a01b038116600090815260018301602052604081205415155b90505b92915050565b600062000407836001600160a01b03841660008181526001830160205260408120546200046a575081546001818101845560008481526020808220909301849055845484825282860190935260409020919091556200040a565b5060006200040a565b634e487b7160e01b600052604160045260246000fd5b80516001600160a01b0381168114620004a157600080fd5b919050565b60006020808385031215620004ba57600080fd5b82516001600160401b0380821115620004d257600080fd5b818501915085601f830112620004e757600080fd5b815181811115620004fc57620004fc62000473565b8060051b604051601f19603f8301168101818110858211171562000524576200052462000473565b6040529182528482019250838101850191888311156200054357600080fd5b938501935b828510156200056c576200055c8562000489565b8452938501939285019262000548565b98975050505050505050565b634e487b7160e01b600052603260045260246000fd5b60006020808352835180602085015260005b81811015620005be57858101830151858201604001528201620005a0565b506000604082860101526040601f19601f8301168501019250505092915050565b61447e80620005ef6000396000f3fe608060405234801561001057600080fd5b50600436106102115760003560e01c8063a1174e7d11610125578063ca78c41a116100ad578063d911c6321161007c578063d911c632146104ba578063ee885b12146104c2578063eecc66f4146104d5578063fc207c01146104e8578063ff3a14ab146104fb57600080fd5b8063ca78c41a14610460578063d0c27c4f14610481578063d4bd44a014610494578063d7a3158a146104a757600080fd5b8063ba428b1a116100f4578063ba428b1a1461040a578063c0f220841461041d578063c179b85f14610425578063c87d132414610438578063c8fe3a011461044b57600080fd5b8063a1174e7d146103bc578063ac8a584a146103d1578063b2b99ec9146103e4578063b7f227ee146103f757600080fd5b8063581f8b9b116101a8578063813049ec11610177578063813049ec146103505780639283ae3a146103635780639d209048146103765780639ee86d3814610396578063a09449a6146103a957600080fd5b8063581f8b9b146103045780636b883c39146103175780636d70f7ae1461032a5780637e4465e71461033d57600080fd5b8063242cae9f116101e4578063242cae9f146102a657806331374511146102b957806339bf397e146102cc5780633c2544d1146102e257600080fd5b80630175015214610216578063035759e11461025c578063081814db146102715780631290abe814610286575b600080fd5b6102476102243660046136c0565b6001600160a01b0390811660009081526007602052604090206002015416151590565b60405190151581526020015b60405180910390f35b61026f61026a3660046136db565b61050e565b005b610279610682565b6040516102539190613744565b6102996102943660046136db565b6108ed565b604051610253919061385f565b61026f6102b43660046136c0565b610a0f565b61026f6102c7366004613872565b610a56565b6102d4610ae7565b604051908152602001610253565b6102f56102f03660046136db565b610af8565b604051610253939291906138e6565b61026f61031236600461392a565b610cc9565b61026f610325366004613a12565b610e69565b6102476103383660046136c0565b6110d0565b61026f61034b366004613af5565b6110e3565b61026f61035e3660046136c0565b6112db565b6102796103713660046136db565b6113d6565b6103896103843660046136c0565b611539565b6040516102539190613bce565b61026f6103a4366004613be1565b6116ba565b61026f6103b7366004613c1b565b611878565b6103c4611b47565b6040516102539190613ca1565b61026f6103df3660046136c0565b611d1b565b61026f6103f23660046136c0565b611e7e565b61026f610405366004613d05565b612047565b61026f610418366004613872565b612296565b6102d4612322565b61026f6104333660046136c0565b61232d565b6102d46104463660046136c0565b612371565b61045361241f565b6040516102539190613d6d565b61047361046e366004613d80565b61242b565b604051610253929190613da2565b61024761048f3660046136db565b61261b565b6102476104a23660046136c0565b612627565b61026f6104b5366004613e31565b612634565b610453612840565b61026f6104d0366004613be1565b61284c565b61026f6104e3366004613e81565b612a95565b6102476104f63660046136db565b612c60565b61026f610509366004613ede565b612c6d565b3361051a600d82612f8d565b61055d5760408051808201825260088152670848288be82aaa8960c31b6020820152905162461bcd60e51b81526105549190600401613f40565b60405180910390fd5b81610569600a82612fb2565b6105a45760408051808201825260098152681393d517d193d5539160ba1b6020820152905162461bcd60e51b81526105549190600401613f40565b6000838152600c602052604090205415610617576000838152600c602052604090208054806105d5576105d5613f53565b60008281526020812060036000199093019283020181815560018101805467ffffffffffffffff191690559061060e600283018261354f565b505090556105a4565b6000838152600c6020526040812061062e91613589565b610639600a84612fca565b50604080518481526001600160401b036020820152608081830181905260009082015260016060820152905160008051602061445e8339815191529181900360a00190a1505050565b6060600080610691600a612fd6565b905060005b818110156106d25760006106ab600a83612fe0565b6000818152600c60205260409020549091506106c79085613f7f565b935050600101610696565b506000826001600160401b038111156106ed576106ed61395d565b60405190808252806020026020018201604052801561073a57816020015b6040805160608082018352600080835260208301529181019190915281526020019060019003908161070b5790505b5090506000610749600a612fd6565b90506000805b828110156108e2576000610764600a83612fe0565b6000818152600c6020908152604080832080548251818502810185019093528083529495509293909291849084015b8282101561087757600084815260209081902060408051606081018252600386029092018054835260018101546001600160401b031693830193909352600283018054929392918401916107e690613f92565b80601f016020809104026020016040519081016040528092919081815260200182805461081290613f92565b801561085f5780601f106108345761010080835404028352916020019161085f565b820191906000526020600020905b81548152906001019060200180831161084257829003601f168201915b50505050508152505081526020019060010190610793565b50505050905060005b81518110156108d45781818151811061089b5761089b613fc6565b60200260200101518786806108af90613fdc565b9750815181106108c1576108c1613fc6565b6020908102919091010152600101610880565b50505080600101905061074f565b509195945050505050565b6040805160a08101825260008082526020820181905291810182905260608082018390526080820152906109219083612fb2565b61095c5760408051808201825260098152681393d517d193d5539160ba1b6020820152905162461bcd60e51b81526105549190600401613f40565b600082815260026020818152604092839020835160a0810185528154815260018201546001600160401b0380821683860152600160401b8204811683880152600160801b90910416606082015292810180548551818502810185019096528086529394919360808601938301828280156109ff57602002820191906000526020600020905b81546001600160a01b031681526001909101906020018083116109e1575b5050505050815250509050919050565b610a17612fec565b6001600160a01b0316336001600160a01b031614610a4a576040516365f4906560e01b8152336004820152602401610554565b610a538161301a565b50565b7f59b501c3653afc186af7d48dda36cf6732bd21629a6295693664240a6ef5200054640100000000900460ff16610aa057604051630ef4733760e31b815260040160405180910390fd5b60005b81811015610ae257610ada838383818110610ac057610ac0613fc6565b9050602002016020810190610ad591906136c0565b6130ec565b600101610aa3565b505050565b6000610af36005612fd6565b905090565b6040805160a081018252600080825260208201819052918101829052606080820183905260808201819052909190610b308285612fb2565b610b6b5760408051808201825260098152681393d517d193d5539160ba1b6020820152905162461bcd60e51b81526105549190600401613f40565b600084815260026020818152604080842060048352818520546003845294829020825160a0810184528254815260018301546001600160401b0380821683880152600160401b8204811683870152600160801b90910416606082015294820180548451818702810187019095528085529296959194919387936080860193919291830182828015610c2557602002820191906000526020600020905b81546001600160a01b03168152600190910190602001808311610c07575b5050505050815250509250808054610c3c90613f92565b80601f0160208091040260200160405190810160405280929190818152602001828054610c6890613f92565b8015610cb55780601f10610c8a57610100808354040283529160200191610cb5565b820191906000526020600020905b815481529060010190602001808311610c9857829003601f168201915b505050505090509250925092509193909250565b6001600160a01b03808316600090815260076020526040902060020154839116610d2957604080518082018252600e81526d1393d11157d393d517d193d5539160921b6020820152905162461bcd60e51b81526105549190600401613f40565b33610d35600882612f8d565b610d6f5760408051808201825260088152670848288be82aaa8960c31b6020820152905162461bcd60e51b81526105549190600401613f40565b6001600160a01b0380851660009081526007602052604090206003015485913391168114610dcd5760408051808201825260088152670848288be82aaa8960c31b6020820152905162461bcd60e51b81526105549190600401613f40565b6001600160a01b03861660009081526007602052604090208054610df49060ff16876131b1565b80548690829060ff19166001836005811115610e1257610e12613b42565b021790555060028101546040516001600160a01b03909116907f20891cc7622c7951cbd8c70c61a5201eb45625b8c00e8f6c986cfca78f3dbfa090610e58908990613ff5565b60405180910390a250505050505050565b336000818152600760205260409020600201546001600160a01b0316610ec557604080518082018252600e81526d1393d11157d393d517d193d5539160921b6020820152905162461bcd60e51b81526105549190600401613f40565b610ed0600086612fb2565b15610f1157604080518082018252600e81526d414c52454144595f45584953545360901b6020820152905162461bcd60e51b81526105549190600401613f40565b835160005b81811015610f9657610f4e868281518110610f3357610f33613fc6565b60200260200101516000600501612f8d90919063ffffffff16565b610f8e57604080518082018252600e81526d1393d11157d393d517d193d5539160921b6020820152905162461bcd60e51b81526105549190600401613f40565b600101610f16565b506040805160a081018252858152600060208201819052918101829052606081018290526080810187905290610fcc9088613344565b5060008781526002602081815260409283902084518155818501516001820180549587015160608801516001600160401b03908116600160801b0267ffffffffffffffff60801b19928216600160401b026fffffffffffffffffffffffffffffffff1990991691909416179690961795909516179093556080840151805185949361105c939085019201906135aa565b50505060008781526003602052604090206110778582614068565b5060008781526004602052604090819020869055517f55ef7efc60ef99743e54209752c9a8e047e013917ec91572db75875069dd65bb906110bf908990899089908990614121565b60405180910390a150505050505050565b60006110dd600883612f8d565b92915050565b336110ef600882612f8d565b6111295760408051808201825260088152670848288be82aaa8960c31b6020820152905162461bcd60e51b81526105549190600401613f40565b6001600160a01b0380841660009081526007602052604090206002015484911661118957604080518082018252600e81526d1393d11157d393d517d193d5539160921b6020820152905162461bcd60e51b81526105549190600401613f40565b6001600160a01b03808516600090815260076020526040902060030154859133911681146111e75760408051808201825260088152670848288be82aaa8960c31b6020820152905162461bcd60e51b81526105549190600401613f40565b6001600160a01b03861660009081526007602090815260409182902091516112119188910161415d565b604051602081830303815290604052805190602001208160010160405160200161123b9190614179565b604051602081830303815290604052805190602001200361128b5760408051808201825260078152664241445f41524760c81b6020820152905162461bcd60e51b81526105549190600401613f40565b600181016112998782614068565b5060028101546040516001600160a01b03909116907f4505168a8705a16fd4d0575197fd0f510db69df93a065e158ad2c0957ba12bac90610e58908990613f40565b6112e3612fec565b6001600160a01b0316336001600160a01b031614611316576040516365f4906560e01b8152336004820152602401610554565b6001600160a01b0381166113595760408051808201825260078152664241445f41524760c81b6020820152905162461bcd60e51b81526105549190600401613f40565b611364600d82613350565b61139f5760408051808201825260098152681393d517d193d5539160ba1b6020820152905162461bcd60e51b81526105549190600401613f40565b6040516001600160a01b038216907ff9889c857e5356066b564327caa757c325ecbc001b2b47d72edf8cf9aedb1be590600090a250565b6060816113e4600a82612fb2565b61141f5760408051808201825260098152681393d517d193d5539160ba1b6020820152905162461bcd60e51b81526105549190600401613f40565b6000838152600c6020908152604080832080548251818502810185019093528083529193909284015b8282101561152c57600084815260209081902060408051606081018252600386029092018054835260018101546001600160401b0316938301939093526002830180549293929184019161149b90613f92565b80601f01602080910402602001604051908101604052809291908181526020018280546114c790613f92565b80156115145780601f106114e957610100808354040283529160200191611514565b820191906000526020600020905b8154815290600101906020018083116114f757829003601f168201915b50505050508152505081526020019060010190611448565b5050505091505b50919050565b6115646040805160808101909152806000815260606020820181905260006040830181905291015290565b61156f600583612f8d565b6115af57604080518082018252600e81526d1393d11157d393d517d193d5539160921b6020820152905162461bcd60e51b81526105549190600401613f40565b6001600160a01b038216600090815260076020526040908190208151608081019092528054829060ff1660058111156115ea576115ea613b42565b60058111156115fb576115fb613b42565b815260200160018201805461160f90613f92565b80601f016020809104026020016040519081016040528092919081815260200182805461163b90613f92565b80156116885780601f1061165d57610100808354040283529160200191611688565b820191906000526020600020905b81548152906001019060200180831161166b57829003601f168201915b505050918352505060028201546001600160a01b03908116602083015260039092015490911660409091015292915050565b816116c6600082612fb2565b6117015760408051808201825260098152681393d517d193d5539160ba1b6020820152905162461bcd60e51b81526105549190600401613f40565b336000818152600760205260409020600201546001600160a01b031661175d57604080518082018252600e81526d1393d11157d393d517d193d5539160921b6020820152905162461bcd60e51b81526105549190600401613f40565b600084815260026020819052604082209081015490915b818110156117f957856001600160a01b031683600201828154811061179b5761179b613fc6565b6000918252602090912001546001600160a01b0316036117f157604080518082018252600e81526d414c52454144595f45584953545360901b6020820152905162461bcd60e51b81526105549190600401613f40565b600101611774565b5060028201805460018082018355600092835260209283902090910180546001600160a01b0319166001600160a01b038916908117909155604080518a8152938401919091528201527faaa473c28a5fe04b6a7ecd795826e462f9d0c23f00ef9f51ec02fa6ea418806f906060015b60405180910390a1505050505050565b33611884600d82612f8d565b6118be5760408051808201825260088152670848288be82aaa8960c31b6020820152905162461bcd60e51b81526105549190600401613f40565b67fffffffffffffffe196001600160401b0385160161190c5760408051808201825260078152664241445f41524760c81b6020820152905162461bcd60e51b81526105549190600401613f40565b600082900361194a5760408051808201825260078152664241445f41524760c81b6020820152905162461bcd60e51b81526105549190600401613f40565b611955600a86612fb2565b61196657611964600a86613344565b505b6000858152600c6020526040812054905b81811015611a4d576000878152600c6020526040902080546001600160401b0388169190839081106119ab576119ab613fc6565b60009182526020909120600160039092020101546001600160401b031603611a45576000878152600c60205260409020805486918691849081106119f1576119f1613fc6565b90600052602060002090600302016002019182611a0f9291906141ef565b5060008051602061445e833981519152878787876000604051611a369594939291906142a8565b60405180910390a15050611b40565b600101611977565b506000600c0160008781526020019081526020016000206040518060600160405280888152602001876001600160401b0316815260200186868080601f0160208091040260200160405190810160405280939291908181526020018383808284376000920182905250939094525050835460018082018655948252602091829020845160039092020190815590830151938101805467ffffffffffffffff19166001600160401b03909516949094179093555060408101519091906002820190611b179082614068565b50505060008051602061445e8339815191528686868660006040516118689594939291906142a8565b5050505050565b60606000611b556005612fd6565b6001600160401b03811115611b6c57611b6c61395d565b604051908082528060200260200182016040528015611bc857816020015b611bb56040805160808101909152806000815260606020820181905260006040830181905291015290565b815260200190600190039081611b8a5790505b50905060005b611bd86005612fd6565b8110156115335760076000611bee600584612fe0565b6001600160a01b03168152602081019190915260409081016000208151608081019092528054829060ff166005811115611c2a57611c2a613b42565b6005811115611c3b57611c3b613b42565b8152602001600182018054611c4f90613f92565b80601f0160208091040260200160405190810160405280929190818152602001828054611c7b90613f92565b8015611cc85780601f10611c9d57610100808354040283529160200191611cc8565b820191906000526020600020905b815481529060010190602001808311611cab57829003601f168201915b505050918352505060028201546001600160a01b0390811660208301526003909201549091166040909101528251839083908110611d0857611d08613fc6565b6020908102919091010152600101611bce565b611d23612fec565b6001600160a01b0316336001600160a01b031614611d56576040516365f4906560e01b8152336004820152602401610554565b611d61600882612f8d565b611da557604080518082018252601281527113d41154905513d497d393d517d193d5539160721b6020820152905162461bcd60e51b81526105549190600401613f40565b60005b611db26005612fd6565b811015611e3a576001600160a01b03821660076000611dd2600585612fe0565b6001600160a01b0390811682526020820192909252604001600020600301541603611e3257604080518082018252600d81526c4f55545f4f465f424f554e445360981b6020820152905162461bcd60e51b81526105549190600401613f40565b600101611da8565b50611e46600882613350565b506040516001600160a01b038216907f80c0b871b97b595b16a7741c1b06fed0c6f6f558639f18ccbce50724325dc40d90600090a250565b6001600160a01b0380821660009081526007602052604090206003015482913391168114611edc5760408051808201825260088152670848288be82aaa8960c31b6020820152905162461bcd60e51b81526105549190600401613f40565b6001600160a01b0383811660009081526007602052604090206002015416611f3a57604080518082018252600e81526d1393d11157d393d517d193d5539160921b6020820152905162461bcd60e51b81526105549190600401613f40565b60056001600160a01b03841660009081526007602052604090205460ff166005811115611f6957611f69613b42565b14611fb25760408051808201825260168152751393d11157d4d510551157d393d517d0531313d5d15160521b6020820152905162461bcd60e51b81526105549190600401613f40565b611fbd600584613350565b506001600160a01b0383166000908152600760205260408120805460ff1916815590611fec600183018261354f565b506002810180546001600160a01b03199081169091556003909101805490911690556040516001600160a01b038416907fcfc24166db4bb677e857cacabd1541fb2b30645021b27c5130419589b84db52b90600090a2505050565b33612053600d82612f8d565b61208d5760408051808201825260088152670848288be82aaa8960c31b6020820152905162461bcd60e51b81526105549190600401613f40565b6000805b6000858152600c602052604090205481101561220e576000858152600c6020526040902080546001600160401b0386169190839081106120d3576120d3613fc6565b60009182526020909120600160039092020101546001600160401b031603612206576000858152600c602052604090208054612111906001906142f8565b8154811061212157612121613fc6565b90600052602060002090600302016000600c016000878152602001908152602001600020828154811061215657612156613fc6565b600091825260209091208254600390920201908155600180830154908201805467ffffffffffffffff19166001600160401b039092169190911790556002808201906121a49084018261430b565b5050506000858152600c602052604090208054806121c4576121c4613f53565b60008281526020812060036000199093019283020181815560018101805467ffffffffffffffff19169055906121fd600283018261354f565b50509055600191505b600101612091565b508061224b5760408051808201825260098152681393d517d193d5539160ba1b6020820152905162461bcd60e51b81526105549190600401613f40565b604080518581526001600160401b0385166020820152608081830181905260009082015260016060820152905160008051602061445e8339815191529181900360a00190a150505050565b7f59b501c3653afc186af7d48dda36cf6732bd21629a6295693664240a6ef5200054640100000000900460ff166122e057604051630ef4733760e31b815260040160405180910390fd5b60005b81811015610ae25761231a83838381811061230057612300613fc6565b905060200201602081019061231591906136c0565b61301a565b6001016122e3565b6000610af381612fd6565b612335612fec565b6001600160a01b0316336001600160a01b031614612368576040516365f4906560e01b8152336004820152602401610554565b610a53816130ec565b6000808061237e81612fd6565b905060005b818110156124165760006123978183612fe0565b60008181526002602052604081209192505b600282015481101561240857876001600160a01b03168260020182815481106123d4576123d4613fc6565b6000918252602090912001546001600160a01b03160361240057856123f881613fdc565b965050612408565b6001016123a9565b505050806001019050612383565b50909392505050565b6060610af36005613365565b6060600082841061246b5760408051808201825260078152664241445f41524760c81b6020820152905162461bcd60e51b81526105549190600401613f40565b600061247681612fd6565b905060008185116124875784612489565b815b9050600086821161249b5760006124a5565b6124a587836142f8565b90506000816001600160401b038111156124c1576124c161395d565b6040519080825280602002602001820160405280156124fa57816020015b6124e761360f565b8152602001906001900390816124df5790505b50905060005b8281101561260a57600061251f612517838c613f7f565b600090612fe0565b60408051808201825282815260008381526002602081815291849020845160a0810186528154815260018201546001600160401b0380821683870152600160401b8204811683890152600160801b90910416606082015291810180548651818602810186019097528087529697509395838701959294919360808601939291908301828280156125d857602002820191906000526020600020905b81546001600160a01b031681526001909101906020018083116125ba575b5050505050815250508152508383815181106125f6576125f6613fc6565b602090810291909101015250600101612500565b509450505083101590509250929050565b60006110dd8183612fb2565b60006110dd600d83612f8d565b336000818152600760205260409020600201546001600160a01b031661269057604080518082018252600e81526d1393d11157d393d517d193d5539160921b6020820152905162461bcd60e51b81526105549190600401613f40565b61269b600087612fb2565b6126d65760408051808201825260098152681393d517d193d5539160ba1b6020820152905162461bcd60e51b81526105549190600401613f40565b6000868152600260205260409020600180820154600160801b9004161561273257604080518082018252600d81526c14d51491505357d4d150531151609a1b6020820152905162461bcd60e51b81526105549190600401613f40565b60018101546001600160401b0380861691161061277e5760408051808201825260078152664241445f41524760c81b6020820152905162461bcd60e51b81526105549190600401613f40565b60008781526003602052604081206127959161354f565b84815560018101805467ffffffffffffffff19166001600160401b03861617905582156127ef576001818101805467ffffffffffffffff60801b198116600160801b918290046001600160401b0316909317029190911790555b60408051888152602081018790526001600160401b0386169181019190915283151560608201527fccc26bbb6dd655ea0bb8a40a3c30e35c6bdf42f8faf0d71bbea897af768cda8b906080016110bf565b6060610af36008613365565b81612858600082612fb2565b6128935760408051808201825260098152681393d517d193d5539160ba1b6020820152905162461bcd60e51b81526105549190600401613f40565b336000818152600760205260409020600201546001600160a01b03166128ef57604080518082018252600e81526d1393d11157d393d517d193d5539160921b6020820152905162461bcd60e51b81526105549190600401613f40565b6000848152600260208190526040822090810154909190815b81811015612a0a57866001600160a01b031684600201828154811061292f5761292f613fc6565b6000918252602090912001546001600160a01b031603612a0257600284016129586001846142f8565b8154811061296857612968613fc6565b6000918252602090912001546002850180546001600160a01b03909216918390811061299657612996613fc6565b9060005260206000200160006101000a8154816001600160a01b0302191690836001600160a01b03160217905550836002018054806129d7576129d7613f53565b600082815260209020810160001990810180546001600160a01b031916905501905560019250612a0a565b600101612908565b5081612a4c57604080518082018252600e81526d1393d11157d393d517d193d5539160921b6020820152905162461bcd60e51b81526105549190600401613f40565b604080518881526001600160a01b03881660208201526000918101919091527faaa473c28a5fe04b6a7ecd795826e462f9d0c23f00ef9f51ec02fa6ea418806f906060016110bf565b33612aa1600882612f8d565b612adb5760408051808201825260088152670848288be82aaa8960c31b6020820152905162461bcd60e51b81526105549190600401613f40565b6001600160a01b038481166000908152600760205260409020600201541615612b3a57604080518082018252600e81526d414c52454144595f45584953545360901b6020820152905162461bcd60e51b81526105549190600401613f40565b60006040518060800160405280846005811115612b5957612b59613b42565b8152602081018690526001600160a01b0387166040820152336060909101529050612b85600586613372565b506001600160a01b03851660009081526007602052604090208151815483929190829060ff19166001836005811115612bc057612bc0613b42565b021790555060208201516001820190612bd99082614068565b506040828101516002830180546001600160a01b03199081166001600160a01b03938416179091556060909401516003909301805490941692811692909217909255905133918716907f759154d15a6aec80ceab7bc8820f46ebc53ad68bb18f47afb77483fea9dcc9ff90612c5190889088906143d7565b60405180910390a35050505050565b60006110dd600a83612fb2565b336000818152600760205260409020600201546001600160a01b0316612cc957604080518082018252600e81526d1393d11157d393d517d193d5539160921b6020820152905162461bcd60e51b81526105549190600401613f40565b816000819003612d085760408051808201825260078152664241445f41524760c81b6020820152905162461bcd60e51b81526105549190600401613f40565b60005b81811015611b405736858583818110612d2657612d26613fc6565b60a002919091019150612d3d905060008235612fb2565b612db5577f75460fe319331413a18a82d99b07735cec53fa0c4061ada38c2141e331082afa81356040830135612d7960808501606086016143f9565b60408051808201825260098152681393d517d193d5539160ba1b60208201529051612da79493929190614414565b60405180910390a150612f85565b80356000908152600260205260409020600180820154600160801b90041615612e51577f75460fe319331413a18a82d99b07735cec53fa0c4061ada38c2141e331082afa82356040840135612e1060808601606087016143f9565b604080518082018252600d81526c14d51491505357d4d150531151609a1b60208201529051612e429493929190614414565b60405180910390a15050612f85565b60018101546001600160401b0316600003612e7f5781356000908152600360205260408120612e7f9161354f565b60408201358155612e9660808301606084016143f9565b60018201805467ffffffffffffffff19166001600160401b0392909216919091179055612ec960a0830160808401614442565b15612f01576001818101805467ffffffffffffffff60801b198116600160801b918290046001600160401b0316909317029190911790555b7fccc26bbb6dd655ea0bb8a40a3c30e35c6bdf42f8faf0d71bbea897af768cda8b82356040840135612f3960808601606087016143f9565b612f4960a0870160808801614442565b604051612f7a949392919093845260208401929092526001600160401b031660408301521515606082015260800190565b60405180910390a150505b600101612d0b565b6001600160a01b038116600090815260018301602052604081205415155b9392505050565b60008181526001830160205260408120541515612fab565b6000612fab8383613387565b60006110dd825490565b6000612fab838361347a565b7f4675fa8241f86f37157864d3d49b85ad4b164352c516da28e1678a90470ae300546001600160a01b031690565b6001600160a01b03811661305d5760408051808201825260078152664241445f41524760c81b6020820152905162461bcd60e51b81526105549190600401613f40565b613068600882612f8d565b156130a957604080518082018252600e81526d414c52454144595f45584953545360901b6020820152905162461bcd60e51b81526105549190600401613f40565b6130b4600882613372565b506040516001600160a01b038216907fac6fa858e9350a46cec16539926e0fde25b7629f84b5a72bffaae4df888ae86d90600090a250565b6001600160a01b03811661312f5760408051808201825260078152664241445f41524760c81b6020820152905162461bcd60e51b81526105549190600401613f40565b61313a600d82613372565b61317a57604080518082018252600e81526d414c52454144595f45584953545360901b6020820152905162461bcd60e51b81526105549190600401613f40565b6040516001600160a01b038216907f7afd798379ae2d2e5035438544cea2b60eb1dde6a8128e6d447fd2a25f8825a290600090a250565b60008260058111156131c5576131c5613b42565b1480613219575060018260058111156131e0576131e0613b42565b148015613219575060038160058111156131fc576131fc613b42565b14806132195750600481600581111561321757613217613b42565b145b8061326c5750600282600581111561323357613233613b42565b14801561326c5750600381600581111561324f5761324f613b42565b148061326c5750600481600581111561326a5761326a613b42565b145b806132bf5750600482600581111561328657613286613b42565b1480156132bf575060038160058111156132a2576132a2613b42565b14806132bf575060058160058111156132bd576132bd613b42565b145b806132f7575060038260058111156132d9576132d9613b42565b1480156132f7575060058160058111156132f5576132f5613b42565b145b15613300575050565b60408051808201825260168152751393d11157d4d510551157d393d517d0531313d5d15160521b6020820152905162461bcd60e51b81526105549190600401613f40565b6000612fab83836134a4565b6000612fab836001600160a01b038416613387565b60606000612fab836134f3565b6000612fab836001600160a01b0384166134a4565b600081815260018301602052604081205480156134705760006133ab6001836142f8565b85549091506000906133bf906001906142f8565b90508082146134245760008660000182815481106133df576133df613fc6565b906000526020600020015490508087600001848154811061340257613402613fc6565b6000918252602080832090910192909255918252600188019052604090208390555b855486908061343557613435613f53565b6001900381819060005260206000200160009055905585600101600086815260200190815260200160002060009055600193505050506110dd565b60009150506110dd565b600082600001828154811061349157613491613fc6565b9060005260206000200154905092915050565b60008181526001830160205260408120546134eb575081546001818101845560008481526020808220909301849055845484825282860190935260409020919091556110dd565b5060006110dd565b60608160000180548060200260200160405190810160405280929190818152602001828054801561354357602002820191906000526020600020905b81548152602001906001019080831161352f575b50505050509050919050565b50805461355b90613f92565b6000825580601f1061356b575050565b601f016020900490600052602060002090810190610a539190613659565b5080546000825560030290600052602060002090810190610a53919061366e565b8280548282559060005260206000209081019282156135ff579160200282015b828111156135ff57825182546001600160a01b0319166001600160a01b039091161782556020909201916001909101906135ca565b5061360b929150613659565b5090565b6040805180820190915260008152602081016136546040805160a081018252600080825260208201819052918101829052606080820192909252608081019190915290565b905290565b5b8082111561360b576000815560010161365a565b8082111561360b57600080825560018201805467ffffffffffffffff1916905561369b600283018261354f565b5060030161366e565b80356001600160a01b03811681146136bb57600080fd5b919050565b6000602082840312156136d257600080fd5b612fab826136a4565b6000602082840312156136ed57600080fd5b5035919050565b60005b8381101561370f5781810151838201526020016136f7565b50506000910152565b600081518084526137308160208601602086016136f4565b601f01601f19169290920160200192915050565b600060208083018184528085518083526040925060408601915060408160051b87010184880160005b838110156137c057888303603f19018552815180518452878101516001600160401b03168885015286015160608785018190526137ac81860183613718565b96890196945050509086019060010161376d565b509098975050505050505050565b600060a08301825184526020808401516001600160401b0380821660208801528060408701511660408801528060608701511660608801525050608084015160a0608087015282815180855260c088019150602083019450600092505b808310156138545784516001600160a01b0316825293830193600192909201919083019061382b565b509695505050505050565b602081526000612fab60208301846137ce565b6000806020838503121561388557600080fd5b82356001600160401b038082111561389c57600080fd5b818501915085601f8301126138b057600080fd5b8135818111156138bf57600080fd5b8660208260051b85010111156138d457600080fd5b60209290920196919550909350505050565b6060815260006138f960608301866137ce565b84602084015282810360408401526139118185613718565b9695505050505050565b8035600681106136bb57600080fd5b6000806040838503121561393d57600080fd5b613946836136a4565b91506139546020840161391b565b90509250929050565b634e487b7160e01b600052604160045260246000fd5b604051601f8201601f191681016001600160401b038111828210171561399b5761399b61395d565b604052919050565b600082601f8301126139b457600080fd5b81356001600160401b038111156139cd576139cd61395d565b6139e0601f8201601f1916602001613973565b8181528460208386010111156139f557600080fd5b816020850160208301376000918101602001919091529392505050565b60008060008060808587031215613a2857600080fd5b843593506020808601356001600160401b0380821115613a4757600080fd5b818801915088601f830112613a5b57600080fd5b813581811115613a6d57613a6d61395d565b8060051b613a7c858201613973565b918252838101850191858101908c841115613a9657600080fd5b948601945b83861015613abb57613aac866136a4565b82529486019490860190613a9b565b9850505050604088013594506060880135925080831115613adb57600080fd5b5050613ae9878288016139a3565b91505092959194509250565b60008060408385031215613b0857600080fd5b613b11836136a4565b915060208301356001600160401b03811115613b2c57600080fd5b613b38858286016139a3565b9150509250929050565b634e487b7160e01b600052602160045260246000fd5b60068110613b7657634e487b7160e01b600052602160045260246000fd5b9052565b613b85828251613b58565b6000602082015160806020850152613ba06080850182613718565b6040848101516001600160a01b03908116918701919091526060948501511693909401929092525090919050565b602081526000612fab6020830184613b7a565b60008060408385031215613bf457600080fd5b82359150613954602084016136a4565b80356001600160401b03811681146136bb57600080fd5b60008060008060608587031215613c3157600080fd5b84359350613c4160208601613c04565b925060408501356001600160401b0380821115613c5d57600080fd5b818701915087601f830112613c7157600080fd5b813581811115613c8057600080fd5b886020828501011115613c9257600080fd5b95989497505060200194505050565b600060208083016020845280855180835260408601915060408160051b87010192506020870160005b82811015613cf857603f19888603018452613ce6858351613b7a565b94509285019290850190600101613cca565b5092979650505050505050565b60008060408385031215613d1857600080fd5b8235915061395460208401613c04565b60008151808452602080850194506020840160005b83811015613d625781516001600160a01b031687529582019590820190600101613d3d565b509495945050505050565b602081526000612fab6020830184613d28565b60008060408385031215613d9357600080fd5b50508035926020909101359150565b600060408083016040845280865180835260608601915060608160051b8701019250602080890160005b83811015613e0b57888603605f19018552815180518752830151838701889052613df8888801826137ce565b9650509382019390820190600101613dcc565b5050961515959096019490945295945050505050565b803580151581146136bb57600080fd5b600080600080600060a08688031215613e4957600080fd5b853594506020860135935060408601359250613e6760608701613c04565b9150613e7560808701613e21565b90509295509295909350565b600080600060608486031215613e9657600080fd5b613e9f846136a4565b925060208401356001600160401b03811115613eba57600080fd5b613ec6868287016139a3565b925050613ed56040850161391b565b90509250925092565b60008060208385031215613ef157600080fd5b82356001600160401b0380821115613f0857600080fd5b818501915085601f830112613f1c57600080fd5b813581811115613f2b57600080fd5b86602060a0830285010111156138d457600080fd5b602081526000612fab6020830184613718565b634e487b7160e01b600052603160045260246000fd5b634e487b7160e01b600052601160045260246000fd5b808201808211156110dd576110dd613f69565b600181811c90821680613fa657607f821691505b60208210810361153357634e487b7160e01b600052602260045260246000fd5b634e487b7160e01b600052603260045260246000fd5b600060018201613fee57613fee613f69565b5060010190565b602081016110dd8284613b58565b601f821115610ae2576000816000526020600020601f850160051c8101602086101561402c5750805b601f850160051c820191505b8181101561404b57828155600101614038565b505050505050565b600019600383901b1c191660019190911b1790565b81516001600160401b038111156140815761408161395d565b6140958161408f8454613f92565b84614003565b602080601f8311600181146140c457600084156140b25750858301515b6140bc8582614053565b86555061404b565b600085815260208120601f198616915b828110156140f3578886015182559484019460019091019084016140d4565b50858210156141115787850151600019600388901b60f8161c191681555b5050505050600190811b01905550565b84815260806020820152600061413a6080830186613d28565b84604084015282810360608401526141528185613718565b979650505050505050565b6000825161416f8184602087016136f4565b9190910192915050565b600080835461418781613f92565b6001828116801561419f57600181146141b4576141e3565b60ff19841687528215158302870194506141e3565b8760005260208060002060005b858110156141da5781548a8201529084019082016141c1565b50505082870194505b50929695505050505050565b6001600160401b038311156142065761420661395d565b61421a836142148354613f92565b83614003565b6000601f84116001811461424857600085156142365750838201355b6142408682614053565b845550611b40565b600083815260209020601f19861690835b828110156142795786850135825560209485019460019092019101614259565b50868210156142965760001960f88860031b161c19848701351681555b505060018560011b0183555050505050565b8581526001600160401b038516602082015260806040820152826080820152828460a0830137600081840160a0908101919091529115156060820152601f909201601f1916909101019392505050565b818103818111156110dd576110dd613f69565b818103614316575050565b6143208254613f92565b6001600160401b038111156143375761433761395d565b6143458161408f8454613f92565b6000601f82116001811461437357600083156143615750848201545b61436b8482614053565b855550611b40565b600085815260209020601f19841690600086815260209020845b838110156143ad578286015482556001958601959091019060200161438d565b50858310156141115793015460001960f8600387901b161c19169092555050600190811b01905550565b6040815260006143ea6040830185613718565b9050612fab6020830184613b58565b60006020828403121561440b57600080fd5b612fab82613c04565b8481528360208201526001600160401b03831660408201526080606082015260006139116080830184613718565b60006020828403121561445457600080fd5b612fab82613e2156fec01483261a841a868b99cb8802faed4ea44a1a816651c4f7ee061a96a205fe98","linkReferences":{}},"methodIdentifiers":{"__OperatorRegistry_init(address[])":"ba428b1a","__RiverConfig_init(address[])":"31374511","allocateStream(bytes32,address[],bytes32,bytes)":"6b883c39","approveConfigurationManager(address)":"c179b85f","approveOperator(address)":"242cae9f","configurationExists(bytes32)":"fc207c01","deleteConfiguration(bytes32)":"035759e1","deleteConfigurationOnBlock(bytes32,uint64)":"b7f227ee","getAllConfiguration()":"081814db","getAllNodeAddresses()":"c8fe3a01","getAllNodes()":"a1174e7d","getAllOperators()":"d911c632","getConfiguration(bytes32)":"9283ae3a","getNode(address)":"9d209048","getNodeCount()":"39bf397e","getPaginatedStreams(uint256,uint256)":"ca78c41a","getStream(bytes32)":"1290abe8","getStreamCount()":"c0f22084","getStreamCountOnNode(address)":"c87d1324","getStreamWithGenesis(bytes32)":"3c2544d1","isConfigurationManager(address)":"d4bd44a0","isNode(address)":"01750152","isOperator(address)":"6d70f7ae","isStream(bytes32)":"d0c27c4f","placeStreamOnNode(bytes32,address)":"9ee86d38","registerNode(address,string,uint8)":"eecc66f4","removeConfigurationManager(address)":"813049ec","removeNode(address)":"b2b99ec9","removeOperator(address)":"ac8a584a","removeStreamFromNode(bytes32,address)":"ee885b12","setConfiguration(bytes32,uint64,bytes)":"a09449a6","setStreamLastMiniblock(bytes32,bytes32,bytes32,uint64,bool)":"d7a3158a","setStreamLastMiniblockBatch((bytes32,bytes32,bytes32,uint64,bool)[])":"ff3a14ab","updateNodeStatus(address,uint8)":"581f8b9b","updateNodeUrl(address,string)":"7e4465e7"},"id":389}