{"abi":[{"type":"constructor","inputs":[],"stateMutability":"nonpayable"},{"type":"function","name":"isEntitled","inputs":[{"name":"users","type":"address[]","internalType":"address[]"}],"outputs":[{"name":"","type":"bool","internalType":"bool"}],"stateMutability":"view"},{"type":"function","name":"setEntitled","inputs":[{"name":"users","type":"address[]","internalType":"address[]"},{"name":"userIsEntitled","type":"bool","internalType":"bool"}],"outputs":[],"stateMutability":"nonpayable"},{"type":"function","name":"supportsInterface","inputs":[{"name":"interfaceId","type":"bytes4","internalType":"bytes4"}],"outputs":[{"name":"","type":"bool","internalType":"bool"}],"stateMutability":"view"}],"bytecode":{"object":"0x608060405234801561001057600080fd5b50610377806100206000396000f3fe608060405234801561001057600080fd5b50600436106100415760003560e01c806301ffc9a7146100465780633f4c4d831461007e578063ddc6e68e14610093575b600080fd5b61006a6100543660046101c5565b6001600160e01b031916636ee3734760e11b1490565b604051901515815260200160405180910390f35b61009161008c3660046102cd565b6100a6565b005b61006a6100a1366004610324565b610130565b60005b825181101561012b57816000808584815181106100c8576100c8610361565b60200260200101516040516020016100ef91906001600160a01b0391909116815260200190565b60408051808303601f19018152918152815160209283012083529082019290925201600020805460ff19169115159190911790556001016100a9565b505050565b6000805b82518110156101bc5760008084838151811061015257610152610361565b602002602001015160405160200161017991906001600160a01b0391909116815260200190565b60408051601f198184030181529181528151602092830120835290820192909252016000205460ff1615156001036101b45750600192915050565b600101610134565b50600092915050565b6000602082840312156101d757600080fd5b81356001600160e01b0319811681146101ef57600080fd5b9392505050565b634e487b7160e01b600052604160045260246000fd5b80356001600160a01b038116811461022357600080fd5b919050565b600082601f83011261023957600080fd5b8135602067ffffffffffffffff80831115610256576102566101f6565b8260051b604051601f19603f8301168101818110848211171561027b5761027b6101f6565b604052938452602081870181019490810192508785111561029b57600080fd5b6020870191505b848210156102c2576102b38261020c565b835291830191908301906102a2565b979650505050505050565b600080604083850312156102e057600080fd5b823567ffffffffffffffff8111156102f757600080fd5b61030385828601610228565b9250506020830135801515811461031957600080fd5b809150509250929050565b60006020828403121561033657600080fd5b813567ffffffffffffffff81111561034d57600080fd5b61035984828501610228565b949350505050565b634e487b7160e01b600052603260045260246000fd","linkReferences":{}},"methodIdentifiers":{"isEntitled(address[])":"ddc6e68e","setEntitled(address[],bool)":"3f4c4d83","supportsInterface(bytes4)":"01ffc9a7"},"id":388}