{"abi":[{"type":"constructor","inputs":[{"name":"checker","type":"address","internalType":"contract IEntitlementChecker"}],"stateMutability":"nonpayable"},{"type":"function","name":"__EntitlementGated_init","inputs":[{"name":"entitlementChecker","type":"address","internalType":"contract IEntitlementChecker"}],"outputs":[],"stateMutability":"nonpayable"},{"type":"function","name":"getRuleData","inputs":[{"name":"roleId","type":"uint256","internalType":"uint256"}],"outputs":[{"name":"","type":"tuple","internalType":"struct IRuleEntitlementBase.RuleData","components":[{"name":"operations","type":"tuple[]","internalType":"struct IRuleEntitlementBase.Operation[]","components":[{"name":"opType","type":"uint8","internalType":"enum IRuleEntitlementBase.CombinedOperationType"},{"name":"index","type":"uint8","internalType":"uint8"}]},{"name":"checkOperations","type":"tuple[]","internalType":"struct IRuleEntitlementBase.CheckOperation[]","components":[{"name":"opType","type":"uint8","internalType":"enum IRuleEntitlementBase.CheckOperationType"},{"name":"chainId","type":"uint256","internalType":"uint256"},{"name":"contractAddress","type":"address","internalType":"address"},{"name":"threshold","type":"uint256","internalType":"uint256"}]},{"name":"logicalOperations","type":"tuple[]","internalType":"struct IRuleEntitlementBase.LogicalOperation[]","components":[{"name":"logOpType","type":"uint8","internalType":"enum IRuleEntitlementBase.LogicalOperationType"},{"name":"leftOperationIndex","type":"uint8","internalType":"uint8"},{"name":"rightOperationIndex","type":"uint8","internalType":"uint8"}]}]}],"stateMutability":"view"},{"type":"function","name":"getRuleData","inputs":[{"name":"transactionId","type":"bytes32","internalType":"bytes32"},{"name":"roleId","type":"uint256","internalType":"uint256"}],"outputs":[{"name":"","type":"tuple","internalType":"struct IRuleEntitlementBase.RuleData","components":[{"name":"operations","type":"tuple[]","internalType":"struct IRuleEntitlementBase.Operation[]","components":[{"name":"opType","type":"uint8","internalType":"enum IRuleEntitlementBase.CombinedOperationType"},{"name":"index","type":"uint8","internalType":"uint8"}]},{"name":"checkOperations","type":"tuple[]","internalType":"struct IRuleEntitlementBase.CheckOperation[]","components":[{"name":"opType","type":"uint8","internalType":"enum IRuleEntitlementBase.CheckOperationType"},{"name":"chainId","type":"uint256","internalType":"uint256"},{"name":"contractAddress","type":"address","internalType":"address"},{"name":"threshold","type":"uint256","internalType":"uint256"}]},{"name":"logicalOperations","type":"tuple[]","internalType":"struct IRuleEntitlementBase.LogicalOperation[]","components":[{"name":"logOpType","type":"uint8","internalType":"enum IRuleEntitlementBase.LogicalOperationType"},{"name":"leftOperationIndex","type":"uint8","internalType":"uint8"},{"name":"rightOperationIndex","type":"uint8","internalType":"uint8"}]}]}],"stateMutability":"view"},{"type":"function","name":"getRuleDataV2","inputs":[{"name":"roleId","type":"uint256","internalType":"uint256"}],"outputs":[{"name":"","type":"tuple","internalType":"struct IRuleEntitlementBase.RuleDataV2","components":[{"name":"operations","type":"tuple[]","internalType":"struct IRuleEntitlementBase.Operation[]","components":[{"name":"opType","type":"uint8","internalType":"enum IRuleEntitlementBase.CombinedOperationType"},{"name":"index","type":"uint8","internalType":"uint8"}]},{"name":"checkOperations","type":"tuple[]","internalType":"struct IRuleEntitlementBase.CheckOperationV2[]","components":[{"name":"opType","type":"uint8","internalType":"enum IRuleEntitlementBase.CheckOperationType"},{"name":"chainId","type":"uint256","internalType":"uint256"},{"name":"contractAddress","type":"address","internalType":"address"},{"name":"params","type":"bytes","internalType":"bytes"}]},{"name":"logicalOperations","type":"tuple[]","internalType":"struct IRuleEntitlementBase.LogicalOperation[]","components":[{"name":"logOpType","type":"uint8","internalType":"enum IRuleEntitlementBase.LogicalOperationType"},{"name":"leftOperationIndex","type":"uint8","internalType":"uint8"},{"name":"rightOperationIndex","type":"uint8","internalType":"uint8"}]}]}],"stateMutability":"view"},{"type":"function","name":"postEntitlementCheckResult","inputs":[{"name":"transactionId","type":"bytes32","internalType":"bytes32"},{"name":"roleId","type":"uint256","internalType":"uint256"},{"name":"result","type":"uint8","internalType":"enum IEntitlementGatedBase.NodeVoteStatus"}],"outputs":[],"stateMutability":"nonpayable"},{"type":"function","name":"requestEntitlementCheck","inputs":[{"name":"roleId","type":"uint256","internalType":"uint256"},{"name":"ruleData","type":"tuple","internalType":"struct IRuleEntitlementBase.RuleDataV2","components":[{"name":"operations","type":"tuple[]","internalType":"struct IRuleEntitlementBase.Operation[]","components":[{"name":"opType","type":"uint8","internalType":"enum IRuleEntitlementBase.CombinedOperationType"},{"name":"index","type":"uint8","internalType":"uint8"}]},{"name":"checkOperations","type":"tuple[]","internalType":"struct IRuleEntitlementBase.CheckOperationV2[]","components":[{"name":"opType","type":"uint8","internalType":"enum IRuleEntitlementBase.CheckOperationType"},{"name":"chainId","type":"uint256","internalType":"uint256"},{"name":"contractAddress","type":"address","internalType":"address"},{"name":"params","type":"bytes","internalType":"bytes"}]},{"name":"logicalOperations","type":"tuple[]","internalType":"struct IRuleEntitlementBase.LogicalOperation[]","components":[{"name":"logOpType","type":"uint8","internalType":"enum IRuleEntitlementBase.LogicalOperationType"},{"name":"leftOperationIndex","type":"uint8","internalType":"uint8"},{"name":"rightOperationIndex","type":"uint8","internalType":"uint8"}]}]}],"outputs":[{"name":"","type":"bytes32","internalType":"bytes32"}],"stateMutability":"nonpayable"},{"type":"event","name":"EntitlementCheckResultPosted","inputs":[{"name":"transactionId","type":"bytes32","indexed":true,"internalType":"bytes32"},{"name":"result","type":"uint8","indexed":false,"internalType":"enum IEntitlementGatedBase.NodeVoteStatus"}],"anonymous":false},{"type":"event","name":"Initialized","inputs":[{"name":"version","type":"uint32","indexed":false,"internalType":"uint32"}],"anonymous":false},{"type":"event","name":"InterfaceAdded","inputs":[{"name":"interfaceId","type":"bytes4","indexed":true,"internalType":"bytes4"}],"anonymous":false},{"type":"event","name":"InterfaceRemoved","inputs":[{"name":"interfaceId","type":"bytes4","indexed":true,"internalType":"bytes4"}],"anonymous":false},{"type":"error","name":"EntitlementGated_InvalidAddress","inputs":[]},{"type":"error","name":"EntitlementGated_NodeAlreadyVoted","inputs":[]},{"type":"error","name":"EntitlementGated_NodeNotFound","inputs":[]},{"type":"error","name":"EntitlementGated_TransactionCheckAlreadyCompleted","inputs":[]},{"type":"error","name":"EntitlementGated_TransactionCheckAlreadyRegistered","inputs":[]},{"type":"error","name":"EntitlementGated_TransactionNotRegistered","inputs":[]},{"type":"error","name":"Initializable_InInitializingState","inputs":[]},{"type":"error","name":"Initializable_NotInInitializingState","inputs":[]},{"type":"error","name":"Introspection_AlreadySupported","inputs":[]},{"type":"error","name":"Introspection_NotSupported","inputs":[]},{"type":"error","name":"ReentrancyGuard__ReentrantCall","inputs":[]}],"bytecode":{"object":"0x60806040523480156200001157600080fd5b506040516200216738038062002167833981016040819052620000349162000127565b6200003e6200007f565b7f9075c515a635ba70c9696f31149324218d75cf00afe836c482e6473f38b19e0080546001600160a01b0319166001600160a01b0383161790555062000159565b7f59b501c3653afc186af7d48dda36cf6732bd21629a6295693664240a6ef520008054640100000000900460ff1615620000cc576040516366008a2d60e01b815260040160405180910390fd5b805463ffffffff90811610156200012457805463ffffffff191663ffffffff90811782556040519081527fe9c9b456cb2994b80aeef036cf59d26e9617df80f816a6ee5a5b4166e07e2f5c9060200160405180910390a15b50565b6000602082840312156200013a57600080fd5b81516001600160a01b03811681146200015257600080fd5b9392505050565b611ffe80620001696000396000f3fe608060405234801561001057600080fd5b50600436106100625760003560e01c8063069a3ee9146100675780634739e80514610090578063679b75cc146100a557806368ab7dd6146100c65780637adc9cbe146100e657806392c399ff146100f9575b600080fd5b61007a6100753660046110eb565b61010c565b60405161008791906111e7565b60405180910390f35b6100a361009e3660046112b1565b61033f565b005b6100b86100b33660046112ea565b6103e3565b604051908152602001610087565b6100d96100d43660046110eb565b610450565b6040516100879190611337565b6100a36100f4366004611458565b6106fd565b61007a610107366004611475565b610753565b61013060405180606001604052806060815260200160608152602001606081525090565b6000828152602081815260408083208151815460809481028201850190935260608101838152909491938593919285929185015b828210156101cd57600084815260209020604080518082019091529083018054829060ff16600281111561019a5761019a611104565b60028111156101ab576101ab611104565b81529054610100900460ff166020918201529082526001929092019101610164565b50505050815260200160018201805480602002602001604051908101604052809291908181526020016000905b82821015610285576000848152602090206040805160808101909152600484029091018054829060ff16600581111561023557610235611104565b600581111561024657610246611104565b815260018281015460208084019190915260028401546001600160a01b03166040840152600390930154606090920191909152918352920191016101fa565b50505050815260200160028201805480602002602001604051908101604052809291908181526020016000905b828210156103315760008481526020902060408051606081019091529083018054829060ff1660028111156102e9576102e9611104565b60028111156102fa576102fa611104565b8152905460ff61010082048116602080850191909152620100009092041660409092019190915290825260019290920191016102b2565b505050915250909392505050565b60027f54f22f54f370bd020e00ee80e1a5099a71652e2ccbcf6a75281e4c70a3e11a00540361038157604051635db5c7cd60e11b815260040160405180910390fd5b6103aa60027f54f22f54f370bd020e00ee80e1a5099a71652e2ccbcf6a75281e4c70a3e11a0055565b6103b5838383610781565b6103de60017f54f22f54f370bd020e00ee80e1a5099a71652e2ccbcf6a75281e4c70a3e11a0055565b505050565b600082815260016020526040812082906103fd82826119f3565b50506040516bffffffffffffffffffffffff193260601b166020820152436034820152600090605401604051602081830303815290604052805190602001209050610449813086610a03565b9392505050565b61047460405180606001604052806060815260200160608152602001606081525090565b60008281526001602090815260408083208151815460809481028201850190935260608101838152909491938593919285929185015b8282101561051357600084815260209020604080518082019091529083018054829060ff1660028111156104e0576104e0611104565b60028111156104f1576104f1611104565b81529054610100900460ff1660209182015290825260019290920191016104aa565b50505050815260200160018201805480602002602001604051908101604052809291908181526020016000905b82821015610651576000848152602090206040805160808101909152600484029091018054829060ff16600581111561057b5761057b611104565b600581111561058c5761058c611104565b81526001820154602082015260028201546001600160a01b031660408201526003820180546060909201916105c0906115a6565b80601f01602080910402602001604051908101604052809291908181526020018280546105ec906115a6565b80156106395780601f1061060e57610100808354040283529160200191610639565b820191906000526020600020905b81548152906001019060200180831161061c57829003601f168201915b50505050508152505081526020019060010190610540565b50505050815260200160028201805480602002602001604051908101604052809291908181526020016000905b828210156103315760008481526020902060408051606081019091529083018054829060ff1660028111156106b5576106b5611104565b60028111156106c6576106c6611104565b8152905460ff610100820481166020808501919091526201000090920416604090920191909152908252600192909201910161067e565b7f59b501c3653afc186af7d48dda36cf6732bd21629a6295693664240a6ef5200054640100000000900460ff1661074757604051630ef4733760e31b815260040160405180910390fd5b61075081610cc2565b50565b61077760405180606001604052806060815260200160608152602001606081525090565b6104498383610cfd565b6000838152600080516020611fde833981519152602052604090208054600080516020611fbe833981519152919061010090046001600160a01b031615806107cb5750805460ff16155b156107e957604051637ad5a43960e11b815260040160405180910390fd5b600084815260028201602052604090205460ff161561081b57604051637912b73960e01b815260040160405180910390fd5b600084815260018201602052604081205481908190815b81811015610942576000898152600187016020526040812080548390811061085c5761085c611af0565b60009182526020909120018054909150336001600160a01b03909116036108e85760008154600160a01b900460ff16600281111561089c5761089c611104565b146108ba576040516347592a4d60e01b815260040160405180910390fd5b80548990829060ff60a01b1916600160a01b8360028111156108de576108de611104565b0217905550600195505b8054600160a01b900460ff16600181600281111561090857610908611104565b0361091857856001019550610938565b600281600281111561092c5761092c611104565b03610938578460010194505b5050600101610832565b508361096157604051638223a7e960e01b815260040160405180910390fd5b61096c600282611b06565b831180610982575061097f600282611b06565b82115b156109f85760008881526002860160205260408120805460ff191660011790558284116109b05760026109b3565b60015b9050897fb9d6ce397e562841871d119aaf77469c60a3b5bf8b99a5d9851656015015c633826040516109e59190611b28565b60405180910390a26109f68a610df7565b505b505050505050505050565b6000838152600080516020611fde833981519152602052604090208054600080516020611fbe833981519152919060ff1615610a9357600481015460005b81811015610a905784836004018281548110610a5f57610a5f611af0565b906000526020600020015403610a88576040516301ab53df60e31b815260040160405180910390fd5b600101610a41565b50505b81546001600160a01b0316610aaa57610aaa610ecd565b8154604051634f84544560e01b8152600560048201526000916001600160a01b031690634f84544590602401600060405180830381865afa158015610af3573d6000803e3d6000fd5b505050506040513d6000823e601f3d908101601f19168201604052610b1b9190810190611bfa565b825490915060ff16610b5c5781546003830180546001600160a01b0319166001600160a01b0388161790556001600160a81b03191661010033021760011782555b600482018054600181018255600091825260208220018590558151905b81811015610c51578360010160008781526020019081526020016000206040518060400160405280858481518110610bb357610bb3611af0565b60200260200101516001600160a01b0316815260200160006002811115610bdc57610bdc611104565b9052815460018101835560009283526020928390208251910180546001600160a01b031981166001600160a01b03909316928317825593830151929390929183916001600160a81b03191617600160a01b836002811115610c3f57610c3f611104565b02179055505050806001019050610b79565b50835460405163541da4e560e01b81526001600160a01b039091169063541da4e590610c879033908b908a908890600401611c98565b600060405180830381600087803b158015610ca157600080fd5b505af1158015610cb5573d6000803e3d6000fd5b5050505050505050505050565b610cd2636afd38fd60e11b610f9e565b600080516020611fbe83398151915280546001600160a01b0319166001600160a01b03831617905550565b610d2160405180606001604052806060815260200160608152602001606081525090565b6000838152600080516020611fde833981519152602052604081208054600080516020611fbe8339815191529260ff90911615159003610d7457604051637ad5a43960e11b815260040160405180910390fd5b600381015460405163069a3ee960e01b8152600481018690526001600160a01b0390911690819063069a3ee990602401600060405180830381865afa158015610dc1573d6000803e3d6000fd5b505050506040513d6000823e601f3d908101601f19168201604052610de99190810190611e61565b9695505050505050565b5050565b6000818152600080516020611fde833981519152602052604081206004810154600080516020611fbe833981519152925b81811015610e7857826001016000846004018381548110610e4b57610e4b611af0565b906000526020600020015481526020019081526020016000206000610e709190611077565b600101610e28565b50610e87600483016000611095565b6000848152600184016020526040812080546001600160a81b03191681556003810180546001600160a01b031916905590610ec56004830182611095565b505050505050565b6000600080516020611fbe833981519152905060007fc21004fcc619240a31f006438274d15cd813308303284436eef6055f0fdcb60060060154604051628956cd60e71b81526c29b830b1b2a7b832b930ba37b960991b60048201526001600160a01b03909116906344ab668090602401602060405180830381865afa158015610f5b573d6000803e3d6000fd5b505050506040513d601f19601f82011682018060405250810190610f7f9190611fa0565b82546001600160a01b0319166001600160a01b03919091161790915550565b6001600160e01b0319811660009081527f81088bbc801e045ea3e7620779ab349988f58afbdfba10dff983df3f33522b00602052604090205460ff16611026576001600160e01b0319811660009081527f81088bbc801e045ea3e7620779ab349988f58afbdfba10dff983df3f33522b0060205260409020805460ff1916600117905561103f565b604051637967f77d60e11b815260040160405180910390fd5b6040516001600160e01b03198216907f78f84e5b1c5c05be2b5ad3800781dd404d6d6c6302bc755c0fe20f58a33a7f2290600090a250565b508054600082559060005260206000209081019061075091906110b3565b508054600082559060005260206000209081019061075091906110d6565b5b808211156110d25780546001600160a81b03191681556001016110b4565b5090565b5b808211156110d257600081556001016110d7565b6000602082840312156110fd57600080fd5b5035919050565b634e487b7160e01b600052602160045260246000fd5b6003811061075057610750611104565b60008151808452602080850194506020840160005b8381101561117257815180516111548161111a565b885283015160ff16838801526040909601959082019060010161113f565b509495945050505050565b6006811061118d5761118d611104565b9052565b60008151808452602080850194506020840160005b8381101561117257815180516111bb8161111a565b88528084015160ff908116858a01526040918201511690880152606090960195908201906001016111a6565b600060208083526080845160608084870152611206608087018361112a565b915083870151601f196040818986030160408a015284835180875288870191508885019650600094505b8085101561127957865161124583825161117d565b808a0151838b0152838101516001600160a01b03168484015286015186830152958801956001949094019390870190611230565b5060408b01519750828a82030160608b01526112958189611191565b9b9a5050505050505050505050565b6003811061075057600080fd5b6000806000606084860312156112c657600080fd5b833592506020840135915060408401356112df816112a4565b809150509250925092565b600080604083850312156112fd57600080fd5b8235915060208301356001600160401b0381111561131a57600080fd5b83016060818603121561132c57600080fd5b809150509250929050565b600060208083526080845160608084870152611356608087018361112a565b915083870151601f196040818986030160408a01528483518087528887019150888160051b88010189860195506000805b8381101561141557868a840301855287516113a384825161117d565b808d0151848e0152868101516001600160a01b0316878501528901518984018c905280518c8501819052835b818110156113eb578281018f015186820160a001528e016113cf565b5060a08186018101859052998e0199968e0196601f90910189169094019093019250600101611387565b505060408d01519950848c82030160608d0152611432818b611191565b9d9c50505050505050505050505050565b6001600160a01b038116811461075057600080fd5b60006020828403121561146a57600080fd5b813561044981611443565b6000806040838503121561148857600080fd5b50508035926020909101359150565b634e487b7160e01b600052604160045260246000fd5b600281901b6001600160fe1b03821682146114d857634e487b7160e01b600052601160045260246000fd5b919050565b60ff8116811461075057600080fd5b81356114f7816112a4565b6115008161111a565b60ff1982541660ff8216811783555050602082013561151e816114dd565b815461ff001916600882901b61ff0016178255505050565b6000808335601e1984360301811261154d57600080fd5b8301803591506001600160401b0382111561156757600080fd5b6020019150600581901b360382131561157f57600080fd5b9250929050565b60008235607e1983360301811261159c57600080fd5b9190910192915050565b600181811c908216806115ba57607f821691505b6020821081036115da57634e487b7160e01b600052602260045260246000fd5b50919050565b5b81811015610df357600081556001016115e1565b6006811061075057600080fd5b601f8211156103de57806000526020600020601f840160051c810160208510156116295750805b61163b601f850160051c8301826115e0565b5050505050565b6001600160401b0383111561165957611659611497565b61166d8361166783546115a6565b83611602565b6000601f8411600181146116a157600085156116895750838201355b600019600387901b1c1916600186901b17835561163b565b600083815260209020601f19861690835b828110156116d257868501358255602094850194600190920191016116b2565b50868210156116ef5760001960f88860031b161c19848701351681555b505060018560011b0183555050505050565b813561170c816115f5565b6006811061171c5761171c611104565b60ff1982541660ff82168117835550506020820135600182015560028101604083013561174881611443565b81546001600160a01b0319166001600160a01b0391909116179055606082013536839003601e1901811261177b57600080fd5b820180356001600160401b0381111561179357600080fd5b6020820191508036038213156117a857600080fd5b6117b6818360038601611642565b50505050565b600160401b8311156117d0576117d0611497565b805483825580841015611883576117e6816114ad565b6117ef856114ad565b6000848152602081209283019291909101905b8282101561187f57808255600181818401558160028401556003830161182881546115a6565b801561187157601f808211600181146118435785845561186e565b60008481526020902061185f83850160051c82018783016115e0565b50600084815260208120818655555b50505b505050600482019150611802565b5050505b5060008181526020812083915b85811015610ec5576118ab6118a58487611586565b83611701565b6020929092019160049190910190600101611890565b6000808335601e198436030181126118d857600080fd5b8301803591506001600160401b038211156118f257600080fd5b602001915060608102360382131561157f57600080fd5b8135611914816112a4565b61191d8161111a565b60ff1982541660ff8216811783555050602082013561193b816114dd565b815461ff001916600882901b61ff001617825550604082013561195d816114dd565b815462ff0000191660109190911b62ff00001617905550565b600160401b83111561198a5761198a611497565b8054838255808410156119c1576000828152602081208581019083015b808210156119bd578282556001820191506119a7565b5050505b5060008181526020812083915b85811015610ec5576119e08383611909565b60609290920191600191820191016119ce565b8135601e19833603018112611a0757600080fd5b820180356001600160401b03811115611a1f57600080fd5b6020820191508060061b3603821315611a3757600080fd5b600160401b811115611a4b57611a4b611497565b825481845580821015611a82576000848152602081208381019083015b80821015611a7e57828255600182019150611a68565b5050505b5060008381526020902060005b82811015611ab457611aa184836114ec565b6040939093019260019182019101611a8f565b50505050611ac56020830183611536565b611ad38183600186016117bc565b5050611ae260408301836118c1565b6117b6818360028601611976565b634e487b7160e01b600052603260045260246000fd5b600082611b2357634e487b7160e01b600052601260045260246000fd5b500490565b60208101611b358361111a565b91905290565b604051608081016001600160401b0381118282101715611b5d57611b5d611497565b60405290565b604051606081016001600160401b0381118282101715611b5d57611b5d611497565b604080519081016001600160401b0381118282101715611b5d57611b5d611497565b604051601f8201601f191681016001600160401b0381118282101715611bcf57611bcf611497565b604052919050565b60006001600160401b03821115611bf057611bf0611497565b5060051b60200190565b60006020808385031215611c0d57600080fd5b82516001600160401b03811115611c2357600080fd5b8301601f81018513611c3457600080fd5b8051611c47611c4282611bd7565b611ba7565b81815260059190911b82018301908381019087831115611c6657600080fd5b928401925b82841015611c8d578351611c7e81611443565b82529284019290840190611c6b565b979650505050505050565b60006080820160018060a01b03808816845260208760208601528660408601526080606086015282865180855260a08701915060208801945060005b81811015611cf2578551851683529483019491830191600101611cd4565b50909a9950505050505050505050565b600082601f830112611d1357600080fd5b81516020611d23611c4283611bd7565b82815260079290921b84018101918181019086841115611d4257600080fd5b8286015b84811015611da75760808189031215611d5f5760008081fd5b611d67611b3b565b8151611d72816115f5565b81528185015185820152604080830151611d8b81611443565b9082015260608281015190820152835291830191608001611d46565b509695505050505050565b600082601f830112611dc357600080fd5b81516020611dd3611c4283611bd7565b82815260609283028501820192828201919087851115611df257600080fd5b8387015b85811015611e545781818a031215611e0e5760008081fd5b611e16611b63565b8151611e21816112a4565b815281860151611e30816114dd565b81870152604082810151611e43816114dd565b908201528452928401928101611df6565b5090979650505050505050565b60006020808385031215611e7457600080fd5b82516001600160401b0380821115611e8b57600080fd5b9084019060608287031215611e9f57600080fd5b611ea7611b63565b825182811115611eb657600080fd5b8301601f81018813611ec757600080fd5b8051611ed5611c4282611bd7565b81815260069190911b8201860190868101908a831115611ef457600080fd5b928701925b82841015611f4a576040848c031215611f125760008081fd5b611f1a611b85565b8451611f25816112a4565b815284890151611f34816114dd565b818a015282526040939093019290870190611ef9565b84525050508284015182811115611f6057600080fd5b611f6c88828601611d02565b85830152506040830151935081841115611f8557600080fd5b611f9187858501611db2565b60408201529695505050505050565b600060208284031215611fb257600080fd5b81516104498161144356fe9075c515a635ba70c9696f31149324218d75cf00afe836c482e6473f38b19e009075c515a635ba70c9696f31149324218d75cf00afe836c482e6473f38b19e01","linkReferences":{}},"methodIdentifiers":{"__EntitlementGated_init(address)":"7adc9cbe","getRuleData(bytes32,uint256)":"92c399ff","getRuleData(uint256)":"069a3ee9","getRuleDataV2(uint256)":"68ab7dd6","postEntitlementCheckResult(bytes32,uint256,uint8)":"4739e805","requestEntitlementCheck(uint256,((uint8,uint8)[],(uint8,uint256,address,bytes)[],(uint8,uint8,uint8)[]))":"679b75cc"},"id":367}