{"abi":[{"type":"constructor","inputs":[{"name":"approvedOperators","type":"address[]","internalType":"address[]"}],"stateMutability":"nonpayable"},{"type":"function","name":"__OperatorRegistry_init","inputs":[{"name":"initialOperators","type":"address[]","internalType":"address[]"}],"outputs":[],"stateMutability":"nonpayable"},{"type":"function","name":"__RiverConfig_init","inputs":[{"name":"configManagers","type":"address[]","internalType":"address[]"}],"outputs":[],"stateMutability":"nonpayable"},{"type":"function","name":"allocateStream","inputs":[{"name":"streamId","type":"bytes32","internalType":"bytes32"},{"name":"nodes","type":"address[]","internalType":"address[]"},{"name":"genesisMiniblockHash","type":"bytes32","internalType":"bytes32"},{"name":"genesisMiniblock","type":"bytes","internalType":"bytes"}],"outputs":[],"stateMutability":"nonpayable"},{"type":"function","name":"approveConfigurationManager","inputs":[{"name":"manager","type":"address","internalType":"address"}],"outputs":[],"stateMutability":"nonpayable"},{"type":"function","name":"approveOperator","inputs":[{"name":"operator","type":"address","internalType":"address"}],"outputs":[],"stateMutability":"nonpayable"},{"type":"function","name":"configurationExists","inputs":[{"name":"key","type":"bytes32","internalType":"bytes32"}],"outputs":[{"name":"","type":"bool","internalType":"bool"}],"stateMutability":"view"},{"type":"function","name":"deleteConfiguration","inputs":[{"name":"key","type":"bytes32","internalType":"bytes32"}],"outputs":[],"stateMutability":"nonpayable"},{"type":"function","name":"deleteConfigurationOnBlock","inputs":[{"name":"key","type":"bytes32","internalType":"bytes32"},{"name":"blockNumber","type":"uint64","internalType":"uint64"}],"outputs":[],"stateMutability":"nonpayable"},{"type":"function","name":"getAllConfiguration","inputs":[],"outputs":[{"name":"","type":"tuple[]","internalType":"struct Setting[]","components":[{"name":"key","type":"bytes32","internalType":"bytes32"},{"name":"blockNumber","type":"uint64","internalType":"uint64"},{"name":"value","type":"bytes","internalType":"bytes"}]}],"stateMutability":"view"},{"type":"function","name":"getAllNodeAddresses","inputs":[],"outputs":[{"name":"","type":"address[]","internalType":"address[]"}],"stateMutability":"view"},{"type":"function","name":"getAllNodes","inputs":[],"outputs":[{"name":"","type":"tuple[]","internalType":"struct Node[]","components":[{"name":"status","type":"uint8","internalType":"enum NodeStatus"},{"name":"url","type":"string","internalType":"string"},{"name":"nodeAddress","type":"address","internalType":"address"},{"name":"operator","type":"address","internalType":"address"}]}],"stateMutability":"view"},{"type":"function","name":"getAllStreamIds","inputs":[],"outputs":[{"name":"","type":"bytes32[]","internalType":"bytes32[]"}],"stateMutability":"view"},{"type":"function","name":"getAllStreams","inputs":[],"outputs":[{"name":"","type":"tuple[]","internalType":"struct StreamWithId[]","components":[{"name":"id","type":"bytes32","internalType":"bytes32"},{"name":"stream","type":"tuple","internalType":"struct Stream","components":[{"name":"lastMiniblockHash","type":"bytes32","internalType":"bytes32"},{"name":"lastMiniblockNum","type":"uint64","internalType":"uint64"},{"name":"reserved0","type":"uint64","internalType":"uint64"},{"name":"flags","type":"uint64","internalType":"uint64"},{"name":"nodes","type":"address[]","internalType":"address[]"}]}]}],"stateMutability":"view"},{"type":"function","name":"getConfiguration","inputs":[{"name":"key","type":"bytes32","internalType":"bytes32"}],"outputs":[{"name":"","type":"tuple[]","internalType":"struct Setting[]","components":[{"name":"key","type":"bytes32","internalType":"bytes32"},{"name":"blockNumber","type":"uint64","internalType":"uint64"},{"name":"value","type":"bytes","internalType":"bytes"}]}],"stateMutability":"view"},{"type":"function","name":"getNode","inputs":[{"name":"nodeAddress","type":"address","internalType":"address"}],"outputs":[{"name":"","type":"tuple","internalType":"struct Node","components":[{"name":"status","type":"uint8","internalType":"enum NodeStatus"},{"name":"url","type":"string","internalType":"string"},{"name":"nodeAddress","type":"address","internalType":"address"},{"name":"operator","type":"address","internalType":"address"}]}],"stateMutability":"view"},{"type":"function","name":"getNodeCount","inputs":[],"outputs":[{"name":"","type":"uint256","internalType":"uint256"}],"stateMutability":"view"},{"type":"function","name":"getPaginatedStreams","inputs":[{"name":"start","type":"uint256","internalType":"uint256"},{"name":"stop","type":"uint256","internalType":"uint256"}],"outputs":[{"name":"","type":"tuple[]","internalType":"struct StreamWithId[]","components":[{"name":"id","type":"bytes32","internalType":"bytes32"},{"name":"stream","type":"tuple","internalType":"struct Stream","components":[{"name":"lastMiniblockHash","type":"bytes32","internalType":"bytes32"},{"name":"lastMiniblockNum","type":"uint64","internalType":"uint64"},{"name":"reserved0","type":"uint64","internalType":"uint64"},{"name":"flags","type":"uint64","internalType":"uint64"},{"name":"nodes","type":"address[]","internalType":"address[]"}]}]},{"name":"","type":"bool","internalType":"bool"}],"stateMutability":"view"},{"type":"function","name":"getStream","inputs":[{"name":"streamId","type":"bytes32","internalType":"bytes32"}],"outputs":[{"name":"","type":"tuple","internalType":"struct Stream","components":[{"name":"lastMiniblockHash","type":"bytes32","internalType":"bytes32"},{"name":"lastMiniblockNum","type":"uint64","internalType":"uint64"},{"name":"reserved0","type":"uint64","internalType":"uint64"},{"name":"flags","type":"uint64","internalType":"uint64"},{"name":"nodes","type":"address[]","internalType":"address[]"}]}],"stateMutability":"view"},{"type":"function","name":"getStreamByIndex","inputs":[{"name":"i","type":"uint256","internalType":"uint256"}],"outputs":[{"name":"","type":"tuple","internalType":"struct StreamWithId","components":[{"name":"id","type":"bytes32","internalType":"bytes32"},{"name":"stream","type":"tuple","internalType":"struct Stream","components":[{"name":"lastMiniblockHash","type":"bytes32","internalType":"bytes32"},{"name":"lastMiniblockNum","type":"uint64","internalType":"uint64"},{"name":"reserved0","type":"uint64","internalType":"uint64"},{"name":"flags","type":"uint64","internalType":"uint64"},{"name":"nodes","type":"address[]","internalType":"address[]"}]}]}],"stateMutability":"view"},{"type":"function","name":"getStreamCount","inputs":[],"outputs":[{"name":"","type":"uint256","internalType":"uint256"}],"stateMutability":"view"},{"type":"function","name":"getStreamWithGenesis","inputs":[{"name":"streamId","type":"bytes32","internalType":"bytes32"}],"outputs":[{"name":"","type":"tuple","internalType":"struct Stream","components":[{"name":"lastMiniblockHash","type":"bytes32","internalType":"bytes32"},{"name":"lastMiniblockNum","type":"uint64","internalType":"uint64"},{"name":"reserved0","type":"uint64","internalType":"uint64"},{"name":"flags","type":"uint64","internalType":"uint64"},{"name":"nodes","type":"address[]","internalType":"address[]"}]},{"name":"","type":"bytes32","internalType":"bytes32"},{"name":"","type":"bytes","internalType":"bytes"}],"stateMutability":"view"},{"type":"function","name":"getStreamsOnNode","inputs":[{"name":"nodeAddress","type":"address","internalType":"address"}],"outputs":[{"name":"","type":"tuple[]","internalType":"struct StreamWithId[]","components":[{"name":"id","type":"bytes32","internalType":"bytes32"},{"name":"stream","type":"tuple","internalType":"struct Stream","components":[{"name":"lastMiniblockHash","type":"bytes32","internalType":"bytes32"},{"name":"lastMiniblockNum","type":"uint64","internalType":"uint64"},{"name":"reserved0","type":"uint64","internalType":"uint64"},{"name":"flags","type":"uint64","internalType":"uint64"},{"name":"nodes","type":"address[]","internalType":"address[]"}]}]}],"stateMutability":"view"},{"type":"function","name":"isConfigurationManager","inputs":[{"name":"manager","type":"address","internalType":"address"}],"outputs":[{"name":"","type":"bool","internalType":"bool"}],"stateMutability":"view"},{"type":"function","name":"isOperator","inputs":[{"name":"operator","type":"address","internalType":"address"}],"outputs":[{"name":"","type":"bool","internalType":"bool"}],"stateMutability":"view"},{"type":"function","name":"placeStreamOnNode","inputs":[{"name":"streamId","type":"bytes32","internalType":"bytes32"},{"name":"nodeAddress","type":"address","internalType":"address"}],"outputs":[],"stateMutability":"nonpayable"},{"type":"function","name":"registerNode","inputs":[{"name":"nodeAddress","type":"address","internalType":"address"},{"name":"url","type":"string","internalType":"string"},{"name":"status","type":"uint8","internalType":"enum NodeStatus"}],"outputs":[],"stateMutability":"nonpayable"},{"type":"function","name":"removeConfigurationManager","inputs":[{"name":"manager","type":"address","internalType":"address"}],"outputs":[],"stateMutability":"nonpayable"},{"type":"function","name":"removeNode","inputs":[{"name":"nodeAddress","type":"address","internalType":"address"}],"outputs":[],"stateMutability":"nonpayable"},{"type":"function","name":"removeOperator","inputs":[{"name":"operator","type":"address","internalType":"address"}],"outputs":[],"stateMutability":"nonpayable"},{"type":"function","name":"removeStreamFromNode","inputs":[{"name":"streamId","type":"bytes32","internalType":"bytes32"},{"name":"nodeAddress","type":"address","internalType":"address"}],"outputs":[],"stateMutability":"nonpayable"},{"type":"function","name":"setConfiguration","inputs":[{"name":"key","type":"bytes32","internalType":"bytes32"},{"name":"blockNumber","type":"uint64","internalType":"uint64"},{"name":"value","type":"bytes","internalType":"bytes"}],"outputs":[],"stateMutability":"nonpayable"},{"type":"function","name":"setStreamLastMiniblock","inputs":[{"name":"streamId","type":"bytes32","internalType":"bytes32"},{"name":"","type":"bytes32","internalType":"bytes32"},{"name":"lastMiniblockHash","type":"bytes32","internalType":"bytes32"},{"name":"lastMiniblockNum","type":"uint64","internalType":"uint64"},{"name":"isSealed","type":"bool","internalType":"bool"}],"outputs":[],"stateMutability":"nonpayable"},{"type":"function","name":"setStreamLastMiniblockBatch","inputs":[{"name":"miniblocks","type":"tuple[]","internalType":"struct SetMiniblock[]","components":[{"name":"streamId","type":"bytes32","internalType":"bytes32"},{"name":"prevMiniBlockHash","type":"bytes32","internalType":"bytes32"},{"name":"lastMiniblockHash","type":"bytes32","internalType":"bytes32"},{"name":"lastMiniblockNum","type":"uint64","internalType":"uint64"},{"name":"isSealed","type":"bool","internalType":"bool"}]}],"outputs":[],"stateMutability":"nonpayable"},{"type":"function","name":"updateNodeStatus","inputs":[{"name":"nodeAddress","type":"address","internalType":"address"},{"name":"status","type":"uint8","internalType":"enum NodeStatus"}],"outputs":[],"stateMutability":"nonpayable"},{"type":"function","name":"updateNodeUrl","inputs":[{"name":"nodeAddress","type":"address","internalType":"address"},{"name":"url","type":"string","internalType":"string"}],"outputs":[],"stateMutability":"nonpayable"},{"type":"event","name":"ConfigurationChanged","inputs":[{"name":"key","type":"bytes32","indexed":false,"internalType":"bytes32"},{"name":"block","type":"uint64","indexed":false,"internalType":"uint64"},{"name":"value","type":"bytes","indexed":false,"internalType":"bytes"},{"name":"deleted","type":"bool","indexed":false,"internalType":"bool"}],"anonymous":false},{"type":"event","name":"ConfigurationManagerAdded","inputs":[{"name":"manager","type":"address","indexed":true,"internalType":"address"}],"anonymous":false},{"type":"event","name":"ConfigurationManagerRemoved","inputs":[{"name":"manager","type":"address","indexed":true,"internalType":"address"}],"anonymous":false},{"type":"event","name":"Initialized","inputs":[{"name":"version","type":"uint32","indexed":false,"internalType":"uint32"}],"anonymous":false},{"type":"event","name":"InterfaceAdded","inputs":[{"name":"interfaceId","type":"bytes4","indexed":true,"internalType":"bytes4"}],"anonymous":false},{"type":"event","name":"InterfaceRemoved","inputs":[{"name":"interfaceId","type":"bytes4","indexed":true,"internalType":"bytes4"}],"anonymous":false},{"type":"event","name":"NodeAdded","inputs":[{"name":"nodeAddress","type":"address","indexed":true,"internalType":"address"},{"name":"url","type":"string","indexed":false,"internalType":"string"},{"name":"status","type":"uint8","indexed":false,"internalType":"enum NodeStatus"}],"anonymous":false},{"type":"event","name":"NodeRemoved","inputs":[{"name":"nodeAddress","type":"address","indexed":true,"internalType":"address"}],"anonymous":false},{"type":"event","name":"NodeStatusUpdated","inputs":[{"name":"nodeAddress","type":"address","indexed":true,"internalType":"address"},{"name":"status","type":"uint8","indexed":false,"internalType":"enum NodeStatus"}],"anonymous":false},{"type":"event","name":"NodeUrlUpdated","inputs":[{"name":"nodeAddress","type":"address","indexed":true,"internalType":"address"},{"name":"url","type":"string","indexed":false,"internalType":"string"}],"anonymous":false},{"type":"event","name":"OperatorAdded","inputs":[{"name":"operatorAddress","type":"address","indexed":true,"internalType":"address"}],"anonymous":false},{"type":"event","name":"OperatorRemoved","inputs":[{"name":"operatorAddress","type":"address","indexed":true,"internalType":"address"}],"anonymous":false},{"type":"event","name":"OwnershipTransferred","inputs":[{"name":"previousOwner","type":"address","indexed":true,"internalType":"address"},{"name":"newOwner","type":"address","indexed":true,"internalType":"address"}],"anonymous":false},{"type":"event","name":"StreamAllocated","inputs":[{"name":"streamId","type":"bytes32","indexed":false,"internalType":"bytes32"},{"name":"nodes","type":"address[]","indexed":false,"internalType":"address[]"},{"name":"genesisMiniblockHash","type":"bytes32","indexed":false,"internalType":"bytes32"},{"name":"genesisMiniblock","type":"bytes","indexed":false,"internalType":"bytes"}],"anonymous":false},{"type":"event","name":"StreamLastMiniblockUpdateFailed","inputs":[{"name":"streamId","type":"bytes32","indexed":false,"internalType":"bytes32"},{"name":"lastMiniblockHash","type":"bytes32","indexed":false,"internalType":"bytes32"},{"name":"lastMiniblockNum","type":"uint64","indexed":false,"internalType":"uint64"},{"name":"reason","type":"string","indexed":false,"internalType":"string"}],"anonymous":false},{"type":"event","name":"StreamLastMiniblockUpdated","inputs":[{"name":"streamId","type":"bytes32","indexed":false,"internalType":"bytes32"},{"name":"lastMiniblockHash","type":"bytes32","indexed":false,"internalType":"bytes32"},{"name":"lastMiniblockNum","type":"uint64","indexed":false,"internalType":"uint64"},{"name":"isSealed","type":"bool","indexed":false,"internalType":"bool"}],"anonymous":false},{"type":"event","name":"StreamPlacementUpdated","inputs":[{"name":"streamId","type":"bytes32","indexed":false,"internalType":"bytes32"},{"name":"nodeAddress","type":"address","indexed":false,"internalType":"address"},{"name":"isAdded","type":"bool","indexed":false,"internalType":"bool"}],"anonymous":false},{"type":"error","name":"Initializable_InInitializingState","inputs":[]},{"type":"error","name":"Initializable_NotInInitializingState","inputs":[]},{"type":"error","name":"Introspection_AlreadySupported","inputs":[]},{"type":"error","name":"Introspection_NotSupported","inputs":[]},{"type":"error","name":"Ownable__NotOwner","inputs":[{"name":"account","type":"address","internalType":"address"}]},{"type":"error","name":"Ownable__ZeroAddress","inputs":[]}],"bytecode":{"object":"0x60806040523480156200001157600080fd5b5060405162004e2838038062004e288339810160408190526200003491620004a6565b6200003e620000c1565b620000493362000169565b60005b8151811015620000b957620000838282815181106200006f576200006f62000578565b60200260200101516200023760201b60201c565b620000b08282815181106200009c576200009c62000578565b60200260200101516200031c60201b60201c565b6001016200004c565b5050620005df565b7f59b501c3653afc186af7d48dda36cf6732bd21629a6295693664240a6ef520008054640100000000900460ff16156200010e576040516366008a2d60e01b815260040160405180910390fd5b805463ffffffff90811610156200016657805463ffffffff191663ffffffff90811782556040519081527fe9c9b456cb2994b80aeef036cf59d26e9617df80f816a6ee5a5b4166e07e2f5c9060200160405180910390a15b50565b60006200019d7f4675fa8241f86f37157864d3d49b85ad4b164352c516da28e1678a90470ae300546001600160a01b031690565b90506001600160a01b038216620001c757604051634e3ef82560e01b815260040160405180910390fd5b817f4675fa8241f86f37157864d3d49b85ad4b164352c516da28e1678a90470ae30080546001600160a01b0319166001600160a01b03928316179055604051838216918316907f8be0079c531659141344cd1fd0a4f28419497f9722a3daafe3b4186f6b6457e090600090a35050565b6001600160a01b038116620002865760408051808201825260078152664241445f41524760c81b6020820152905162461bcd60e51b81526200027d91906004016200058e565b60405180910390fd5b62000293600882620003e9565b15620002d757604080518082018252600e81526d414c52454144595f45584953545360901b6020820152905162461bcd60e51b81526200027d91906004016200058e565b620002e460088262000410565b506040516001600160a01b038216907fac6fa858e9350a46cec16539926e0fde25b7629f84b5a72bffaae4df888ae86d90600090a250565b6001600160a01b038116620003625760408051808201825260078152664241445f41524760c81b6020820152905162461bcd60e51b81526200027d91906004016200058e565b6200036f600d8262000410565b620003b257604080518082018252600e81526d414c52454144595f45584953545360901b6020820152905162461bcd60e51b81526200027d91906004016200058e565b6040516001600160a01b038216907f7afd798379ae2d2e5035438544cea2b60eb1dde6a8128e6d447fd2a25f8825a290600090a250565b6001600160a01b038116600090815260018301602052604081205415155b90505b92915050565b600062000407836001600160a01b03841660008181526001830160205260408120546200046a575081546001818101845560008481526020808220909301849055845484825282860190935260409020919091556200040a565b5060006200040a565b634e487b7160e01b600052604160045260246000fd5b80516001600160a01b0381168114620004a157600080fd5b919050565b60006020808385031215620004ba57600080fd5b82516001600160401b0380821115620004d257600080fd5b818501915085601f830112620004e757600080fd5b815181811115620004fc57620004fc62000473565b8060051b604051601f19603f8301168101818110858211171562000524576200052462000473565b6040529182528482019250838101850191888311156200054357600080fd5b938501935b828510156200056c576200055c8562000489565b8452938501939285019262000548565b98975050505050505050565b634e487b7160e01b600052603260045260246000fd5b60006020808352835180602085015260005b81811015620005be57858101830151858201604001528201620005a0565b506000604082860101526040601f19601f8301168501019250505092915050565b61483980620005ef6000396000f3fe608060405234801561001057600080fd5b50600436106102115760003560e01c80639d20904811610125578063c179b85f116100ad578063d7a3158a1161007c578063d7a3158a146104b1578063ee885b12146104c4578063eecc66f4146104d7578063fc207c01146104ea578063ff3a14ab146104fd57600080fd5b8063c179b85f14610455578063c8fe3a0114610468578063ca78c41a1461047d578063d4bd44a01461049e57600080fd5b8063ac8a584a116100f4578063ac8a584a14610401578063b2b99ec914610414578063b7f227ee14610427578063ba428b1a1461043a578063c0f220841461044d57600080fd5b80639d209048146103a65780639ee86d38146103c6578063a09449a6146103d9578063a1174e7d146103ec57600080fd5b80633c2544d1116101a85780636d70f7ae116101775780636d70f7ae146103355780637e4465e714610358578063813049ec1461036b57806386789fc61461037e5780639283ae3a1461039357600080fd5b80633c2544d1146102cd578063581f8b9b146102ef57806368b454df146103025780636b883c391461032257600080fd5b806331374511116101e4578063313745111461027c57806332705ac41461028f57806339bf397e146102af5780633bd84c0c146102c557600080fd5b8063035759e114610216578063081814db1461022b5780631290abe814610249578063242cae9f14610269575b600080fd5b6102296102243660046139ac565b610510565b005b61023361067d565b6040516102409190613a15565b60405180910390f35b61025c6102573660046139ac565b6108e8565b6040516102409190613b30565b610229610277366004613b5f565b610a0a565b61022961028a366004613b7a565b610a51565b6102a261029d366004613b5f565b610ae2565b6040516102409190613c6f565b6102b7610d92565b604051908152602001610240565b6102a2610da3565b6102e06102db3660046139ac565b610f14565b60405161024093929190613c82565b6102296102fd366004613cc6565b6110e5565b6103156103103660046139ac565b611285565b6040516102409190613cf9565b610229610330366004613dc1565b6113ac565b610348610343366004613b5f565b611611565b6040519015158152602001610240565b610229610366366004613ea4565b611624565b610229610379366004613b5f565b61181c565b610386611917565b6040516102409190613ef1565b6102336103a13660046139ac565b611923565b6103b96103b4366004613b5f565b611a85565b6040516102409190613fc1565b6102296103d4366004613fd4565b611c06565b6102296103e736600461400e565b611dc3565b6103f4612044565b6040516102409190614094565b61022961040f366004613b5f565b612218565b610229610422366004613b5f565b61237b565b6102296104353660046140f8565b612544565b610229610448366004613b7a565b612793565b6102b761281f565b610229610463366004613b5f565b61282a565b61047061286e565b6040516102409190614160565b61049061048b366004614173565b61287a565b604051610240929190614195565b6103486104ac366004613b5f565b612a73565b6102296104bf3660046141c9565b612a80565b6102296104d2366004613fd4565b612c0b565b6102296104e5366004614219565b612e57565b6103486104f83660046139ac565b613021565b61022961050b366004614276565b61302e565b3361051c600d82613295565b61055f5760408051808201825260088152670848288be82aaa8960c31b6020820152905162461bcd60e51b815261055691906004016142d8565b60405180910390fd5b8161056b600a826132ba565b6105a65760408051808201825260098152681393d517d193d5539160ba1b6020820152905162461bcd60e51b815261055691906004016142d8565b6000838152600c602052604090205415610619576000838152600c602052604090208054806105d7576105d76142eb565b60008281526020812060036000199093019283020181815560018101805467ffffffffffffffff19169055906106106002830182613857565b505090556105a6565b6000838152600c6020526040812061063091613891565b61063b600a846132d2565b506040805184815260006020820181905260808284018190528201526001606082015290516000805160206148198339815191529181900360a00190a1505050565b606060008061068c600a6132de565b905060005b818110156106cd5760006106a6600a836132e8565b6000818152600c60205260409020549091506106c29085614317565b935050600101610691565b506000826001600160401b038111156106e8576106e8613d0c565b60405190808252806020026020018201604052801561073557816020015b604080516060808201835260008083526020830152918101919091528152602001906001900390816107065790505b5090506000610744600a6132de565b90506000805b828110156108dd57600061075f600a836132e8565b6000818152600c6020908152604080832080548251818502810185019093528083529495509293909291849084015b8282101561087257600084815260209081902060408051606081018252600386029092018054835260018101546001600160401b031693830193909352600283018054929392918401916107e19061432a565b80601f016020809104026020016040519081016040528092919081815260200182805461080d9061432a565b801561085a5780601f1061082f5761010080835404028352916020019161085a565b820191906000526020600020905b81548152906001019060200180831161083d57829003601f168201915b5050505050815250508152602001906001019061078e565b50505050905060005b81518110156108cf578181815181106108965761089661435e565b60200260200101518786806108aa90614374565b9750815181106108bc576108bc61435e565b602090810291909101015260010161087b565b50505080600101905061074a565b509195945050505050565b6040805160a081018252600080825260208201819052918101829052606080820183905260808201529061091c90836132ba565b6109575760408051808201825260098152681393d517d193d5539160ba1b6020820152905162461bcd60e51b815261055691906004016142d8565b600082815260026020818152604092839020835160a0810185528154815260018201546001600160401b0380821683860152600160401b8204811683880152600160801b90910416606082015292810180548551818502810185019096528086529394919360808601938301828280156109fa57602002820191906000526020600020905b81546001600160a01b031681526001909101906020018083116109dc575b5050505050815250509050919050565b610a126132f4565b6001600160a01b0316336001600160a01b031614610a45576040516365f4906560e01b8152336004820152602401610556565b610a4e81613322565b50565b7f59b501c3653afc186af7d48dda36cf6732bd21629a6295693664240a6ef5200054640100000000900460ff16610a9b57604051630ef4733760e31b815260040160405180910390fd5b60005b81811015610add57610ad5838383818110610abb57610abb61435e565b9050602002016020810190610ad09190613b5f565b6133f4565b600101610a9e565b505050565b60606000610aef816132de565b6001600160401b03811115610b0657610b06613d0c565b604051908082528060200260200182016040528015610b2f578160200160208202803683370190505b5090506000805b610b4060006132de565b811015610bf5576000610b5381836132e8565b60008181526002602052604081209192505b6002820154811015610be757876001600160a01b0316826002018281548110610b9057610b9061435e565b6000918252602090912001546001600160a01b031603610bdf57828686610bb68161438d565b975063ffffffff1681518110610bce57610bce61435e565b602002602001018181525050610be7565b600101610b65565b505050806001019050610b36565b5060008163ffffffff166001600160401b03811115610c1657610c16613d0c565b604051908082528060200260200182016040528015610c4f57816020015b610c3c6138b2565b815260200190600190039081610c345790505b50905060005b8263ffffffff16811015610d89576040518060400160405280858381518110610c8057610c8061435e565b6020026020010151815260200160006002016000878581518110610ca657610ca661435e565b6020908102919091018101518252818101929092526040908101600020815160a0810183528154815260018201546001600160401b0380821683870152600160401b8204811683860152600160801b909104166060820152600282018054845181870281018701909552808552919492936080860193909290830182828015610d5857602002820191906000526020600020905b81546001600160a01b03168152600190910190602001808311610d3a575b505050505081525050815250828281518110610d7657610d7661435e565b6020908102919091010152600101610c55565b50949350505050565b6000610d9e60056132de565b905090565b60606000610db0816132de565b6001600160401b03811115610dc757610dc7613d0c565b604051908082528060200260200182016040528015610e0057816020015b610ded6138b2565b815260200190600190039081610de55790505b50905060005b610e1060006132de565b811015610f0e576000610e2381836132e8565b60408051808201825282815260008381526002602081815291849020845160a0810186528154815260018201546001600160401b0380821683870152600160401b8204811683890152600160801b9091041660608201529181018054865181860281018601909752808752969750939583870195929491936080860193929190830182828015610edc57602002820191906000526020600020905b81546001600160a01b03168152600190910190602001808311610ebe575b505050505081525050815250838381518110610efa57610efa61435e565b602090810291909101015250600101610e06565b50919050565b6040805160a081018252600080825260208201819052918101829052606080820183905260808201819052909190610f4c82856132ba565b610f875760408051808201825260098152681393d517d193d5539160ba1b6020820152905162461bcd60e51b815261055691906004016142d8565b600084815260026020818152604080842060048352818520546003845294829020825160a0810184528254815260018301546001600160401b0380821683880152600160401b8204811683870152600160801b9091041660608201529482018054845181870281018701909552808552929695919491938793608086019391929183018282801561104157602002820191906000526020600020905b81546001600160a01b03168152600190910190602001808311611023575b50505050508152505092508080546110589061432a565b80601f01602080910402602001604051908101604052809291908181526020018280546110849061432a565b80156110d15780601f106110a6576101008083540402835291602001916110d1565b820191906000526020600020905b8154815290600101906020018083116110b457829003601f168201915b505050505090509250925092509193909250565b6001600160a01b0380831660009081526007602052604090206002015483911661114557604080518082018252600e81526d1393d11157d393d517d193d5539160921b6020820152905162461bcd60e51b815261055691906004016142d8565b33611151600882613295565b61118b5760408051808201825260088152670848288be82aaa8960c31b6020820152905162461bcd60e51b815261055691906004016142d8565b6001600160a01b03808516600090815260076020526040902060030154859133911681146111e95760408051808201825260088152670848288be82aaa8960c31b6020820152905162461bcd60e51b815261055691906004016142d8565b6001600160a01b038616600090815260076020526040902080546112109060ff16876134b9565b80548690829060ff1916600183600581111561122e5761122e613f35565b021790555060028101546040516001600160a01b03909116907f20891cc7622c7951cbd8c70c61a5201eb45625b8c00e8f6c986cfca78f3dbfa0906112749089906143b0565b60405180910390a250505050505050565b61128d6138b2565b61129760006132de565b82106112d45760408051808201825260098152681393d517d193d5539160ba1b6020820152905162461bcd60e51b815261055691906004016142d8565b60006112e081846132e8565b60408051808201825282815260008381526002602081815291849020845160a0810186528154815260018201546001600160401b0380821683870152600160401b8204811683890152600160801b909104166060820152918101805486518186028101860190975280875296975093958387019592949193608086019392919083018282801561139957602002820191906000526020600020905b81546001600160a01b0316815260019091019060200180831161137b575b5050509190925250505090529392505050565b336000818152600760205260409020600201546001600160a01b031661140857604080518082018252600e81526d1393d11157d393d517d193d5539160921b6020820152905162461bcd60e51b815261055691906004016142d8565b6114136000866132ba565b1561145457604080518082018252600e81526d414c52454144595f45584953545360901b6020820152905162461bcd60e51b815261055691906004016142d8565b60005b84518110156114d8576114908582815181106114755761147561435e565b6020026020010151600060050161329590919063ffffffff16565b6114d057604080518082018252600e81526d1393d11157d393d517d193d5539160921b6020820152905162461bcd60e51b815261055691906004016142d8565b600101611457565b506040805160a08101825284815260006020820181905291810182905260608101829052608081018690529061150e908761364c565b5060008681526002602081815260409283902084518155818501516001820180549587015160608801516001600160401b03908116600160801b0267ffffffffffffffff60801b19928216600160401b026fffffffffffffffffffffffffffffffff1990991691909416179690961795909516179093556080840151805185949361159e939085019201906138fc565b50505060008681526003602052604090206115b98482614423565b5060008681526004602052604090819020859055517f55ef7efc60ef99743e54209752c9a8e047e013917ec91572db75875069dd65bb906116019088908890889088906144dc565b60405180910390a1505050505050565b600061161e600883613295565b92915050565b33611630600882613295565b61166a5760408051808201825260088152670848288be82aaa8960c31b6020820152905162461bcd60e51b815261055691906004016142d8565b6001600160a01b038084166000908152600760205260409020600201548491166116ca57604080518082018252600e81526d1393d11157d393d517d193d5539160921b6020820152905162461bcd60e51b815261055691906004016142d8565b6001600160a01b03808516600090815260076020526040902060030154859133911681146117285760408051808201825260088152670848288be82aaa8960c31b6020820152905162461bcd60e51b815261055691906004016142d8565b6001600160a01b038616600090815260076020908152604091829020915161175291889101614518565b604051602081830303815290604052805190602001208160010160405160200161177c9190614534565b60405160208183030381529060405280519060200120036117cc5760408051808201825260078152664241445f41524760c81b6020820152905162461bcd60e51b815261055691906004016142d8565b600181016117da8782614423565b5060028101546040516001600160a01b03909116907f4505168a8705a16fd4d0575197fd0f510db69df93a065e158ad2c0957ba12bac906112749089906142d8565b6118246132f4565b6001600160a01b0316336001600160a01b031614611857576040516365f4906560e01b8152336004820152602401610556565b6001600160a01b03811661189a5760408051808201825260078152664241445f41524760c81b6020820152905162461bcd60e51b815261055691906004016142d8565b6118a5600d82613658565b6118e05760408051808201825260098152681393d517d193d5539160ba1b6020820152905162461bcd60e51b815261055691906004016142d8565b6040516001600160a01b038216907ff9889c857e5356066b564327caa757c325ecbc001b2b47d72edf8cf9aedb1be590600090a250565b6060610d9e600061366d565b606081611931600a826132ba565b61196c5760408051808201825260098152681393d517d193d5539160ba1b6020820152905162461bcd60e51b815261055691906004016142d8565b6000838152600c6020908152604080832080548251818502810185019093528083529193909284015b82821015611a7957600084815260209081902060408051606081018252600386029092018054835260018101546001600160401b031693830193909352600283018054929392918401916119e89061432a565b80601f0160208091040260200160405190810160405280929190818152602001828054611a149061432a565b8015611a615780601f10611a3657610100808354040283529160200191611a61565b820191906000526020600020905b815481529060010190602001808311611a4457829003601f168201915b50505050508152505081526020019060010190611995565b50505050915050919050565b611ab06040805160808101909152806000815260606020820181905260006040830181905291015290565b611abb600583613295565b611afb57604080518082018252600e81526d1393d11157d393d517d193d5539160921b6020820152905162461bcd60e51b815261055691906004016142d8565b6001600160a01b038216600090815260076020526040908190208151608081019092528054829060ff166005811115611b3657611b36613f35565b6005811115611b4757611b47613f35565b8152602001600182018054611b5b9061432a565b80601f0160208091040260200160405190810160405280929190818152602001828054611b879061432a565b8015611bd45780601f10611ba957610100808354040283529160200191611bd4565b820191906000526020600020905b815481529060010190602001808311611bb757829003601f168201915b505050918352505060028201546001600160a01b03908116602083015260039092015490911660409091015292915050565b81611c126000826132ba565b611c4d5760408051808201825260098152681393d517d193d5539160ba1b6020820152905162461bcd60e51b815261055691906004016142d8565b6001600160a01b03808316600090815260076020526040902060020154839116611cad57604080518082018252600e81526d1393d11157d393d517d193d5539160921b6020820152905162461bcd60e51b815261055691906004016142d8565b6000848152600260205260408120905b6002820154811015611d4657846001600160a01b0316826002018281548110611ce857611ce861435e565b6000918252602090912001546001600160a01b031603611d3e57604080518082018252600e81526d414c52454144595f45584953545360901b6020820152905162461bcd60e51b815261055691906004016142d8565b600101611cbd565b5060028101805460018082018355600092835260209283902090910180546001600160a01b0319166001600160a01b03881690811790915560408051898152938401919091528201527faaa473c28a5fe04b6a7ecd795826e462f9d0c23f00ef9f51ec02fa6ea418806f9060600160405180910390a15050505050565b33611dcf600d82613295565b611e095760408051808201825260088152670848288be82aaa8960c31b6020820152905162461bcd60e51b815261055691906004016142d8565b6000829003611e475760408051808201825260078152664241445f41524760c81b6020820152905162461bcd60e51b815261055691906004016142d8565b611e52600a866132ba565b611e6357611e61600a8661364c565b505b6000858152600c6020526040812054905b81811015611f4a576000878152600c6020526040902080546001600160401b038816919083908110611ea857611ea861435e565b60009182526020909120600160039092020101546001600160401b031603611f42576000878152600c6020526040902080548691869184908110611eee57611eee61435e565b90600052602060002090600302016002019182611f0c9291906145aa565b50600080516020614819833981519152878787876000604051611f33959493929190614663565b60405180910390a1505061203d565b600101611e74565b506000600c0160008781526020019081526020016000206040518060600160405280888152602001876001600160401b0316815260200186868080601f0160208091040260200160405190810160405280939291908181526020018383808284376000920182905250939094525050835460018082018655948252602091829020845160039092020190815590830151938101805467ffffffffffffffff19166001600160401b039095169490941790935550604081015190919060028201906120149082614423565b505050600080516020614819833981519152868686866000604051611601959493929190614663565b5050505050565b6060600061205260056132de565b6001600160401b0381111561206957612069613d0c565b6040519080825280602002602001820160405280156120c557816020015b6120b26040805160808101909152806000815260606020820181905260006040830181905291015290565b8152602001906001900390816120875790505b50905060005b6120d560056132de565b811015610f0e57600760006120eb6005846132e8565b6001600160a01b03168152602081019190915260409081016000208151608081019092528054829060ff16600581111561212757612127613f35565b600581111561213857612138613f35565b815260200160018201805461214c9061432a565b80601f01602080910402602001604051908101604052809291908181526020018280546121789061432a565b80156121c55780601f1061219a576101008083540402835291602001916121c5565b820191906000526020600020905b8154815290600101906020018083116121a857829003601f168201915b505050918352505060028201546001600160a01b03908116602083015260039092015490911660409091015282518390839081106122055761220561435e565b60209081029190910101526001016120cb565b6122206132f4565b6001600160a01b0316336001600160a01b031614612253576040516365f4906560e01b8152336004820152602401610556565b61225e600882613295565b6122a257604080518082018252601281527113d41154905513d497d393d517d193d5539160721b6020820152905162461bcd60e51b815261055691906004016142d8565b60005b6122af60056132de565b811015612337576001600160a01b038216600760006122cf6005856132e8565b6001600160a01b039081168252602082019290925260400160002060030154160361232f57604080518082018252600d81526c4f55545f4f465f424f554e445360981b6020820152905162461bcd60e51b815261055691906004016142d8565b6001016122a5565b50612343600882613658565b506040516001600160a01b038216907f80c0b871b97b595b16a7741c1b06fed0c6f6f558639f18ccbce50724325dc40d90600090a250565b6001600160a01b03808216600090815260076020526040902060030154829133911681146123d95760408051808201825260088152670848288be82aaa8960c31b6020820152905162461bcd60e51b815261055691906004016142d8565b6001600160a01b038381166000908152600760205260409020600201541661243757604080518082018252600e81526d1393d11157d393d517d193d5539160921b6020820152905162461bcd60e51b815261055691906004016142d8565b60056001600160a01b03841660009081526007602052604090205460ff16600581111561246657612466613f35565b146124af5760408051808201825260168152751393d11157d4d510551157d393d517d0531313d5d15160521b6020820152905162461bcd60e51b815261055691906004016142d8565b6124ba600584613658565b506001600160a01b0383166000908152600760205260408120805460ff19168155906124e96001830182613857565b506002810180546001600160a01b03199081169091556003909101805490911690556040516001600160a01b038416907fcfc24166db4bb677e857cacabd1541fb2b30645021b27c5130419589b84db52b90600090a2505050565b33612550600d82613295565b61258a5760408051808201825260088152670848288be82aaa8960c31b6020820152905162461bcd60e51b815261055691906004016142d8565b6000805b6000858152600c602052604090205481101561270b576000858152600c6020526040902080546001600160401b0386169190839081106125d0576125d061435e565b60009182526020909120600160039092020101546001600160401b031603612703576000858152600c60205260409020805461260e906001906146b3565b8154811061261e5761261e61435e565b90600052602060002090600302016000600c01600087815260200190815260200160002082815481106126535761265361435e565b600091825260209091208254600390920201908155600180830154908201805467ffffffffffffffff19166001600160401b039092169190911790556002808201906126a1908401826146c6565b5050506000858152600c602052604090208054806126c1576126c16142eb565b60008281526020812060036000199093019283020181815560018101805467ffffffffffffffff19169055906126fa6002830182613857565b50509055600191505b60010161258e565b50806127485760408051808201825260098152681393d517d193d5539160ba1b6020820152905162461bcd60e51b815261055691906004016142d8565b604080518581526001600160401b038516602082015260808183018190526000908201526001606082015290516000805160206148198339815191529181900360a00190a150505050565b7f59b501c3653afc186af7d48dda36cf6732bd21629a6295693664240a6ef5200054640100000000900460ff166127dd57604051630ef4733760e31b815260040160405180910390fd5b60005b81811015610add576128178383838181106127fd576127fd61435e565b90506020020160208101906128129190613b5f565b613322565b6001016127e0565b6000610d9e816132de565b6128326132f4565b6001600160a01b0316336001600160a01b031614612865576040516365f4906560e01b8152336004820152602401610556565b610a4e816133f4565b6060610d9e600561366d565b60606000828410604051806040016040528060078152602001664241445f41524760c81b815250906128bf5760405162461bcd60e51b815260040161055691906142d8565b5060006128cc85856146b3565b6001600160401b038111156128e3576128e3613d0c565b60405190808252806020026020018201604052801561291c57816020015b6129096138b2565b8152602001906001900390816129015790505b50905060005b61292c60006132de565b6129368288614317565b10801561294b5750846129498288614317565b105b15612a5b57600061296761295f8389614317565b6000906132e8565b60408051808201825282815260008381526002602081815291849020845160a0810186528154815260018201546001600160401b0380821683870152600160401b8204811683890152600160801b9091041660608201529181018054865181860281018601909752808752969750939583870195929491936080860193929190830182828015612a2057602002820191906000526020600020905b81546001600160a01b03168152600190910190602001808311612a02575b505050505081525050815250838381518110612a3e57612a3e61435e565b60200260200101819052505080612a5490614374565b9050612922565b5080612a6760006132de565b90969410159450505050565b600061161e600d83613295565b336000818152600760205260409020600201546001600160a01b0316612adc57604080518082018252600e81526d1393d11157d393d517d193d5539160921b6020820152905162461bcd60e51b815261055691906004016142d8565b612ae76000876132ba565b612b225760408051808201825260098152681393d517d193d5539160ba1b6020820152905162461bcd60e51b815261055691906004016142d8565b600086815260026020526040902084815560018101805467ffffffffffffffff19166001600160401b0386161790558215612b8a576001818101805467ffffffffffffffff60801b198116600160801b918290046001600160401b0316909317029190911790555b836001600160401b0316600103612bb2576000878152600360205260408120612bb291613857565b60408051888152602081018790526001600160401b03861681830152841515606082015290517fccc26bbb6dd655ea0bb8a40a3c30e35c6bdf42f8faf0d71bbea897af768cda8b9181900360800190a150505050505050565b81612c176000826132ba565b612c525760408051808201825260098152681393d517d193d5539160ba1b6020820152905162461bcd60e51b815261055691906004016142d8565b6001600160a01b03808316600090815260076020526040902060020154839116612cb257604080518082018252600e81526d1393d11157d393d517d193d5539160921b6020820152905162461bcd60e51b815261055691906004016142d8565b600084815260026020526040812090805b6002830154811015612dcc57856001600160a01b0316836002018281548110612cee57612cee61435e565b6000918252602090912001546001600160a01b031603612dc457600283018054612d1a906001906146b3565b81548110612d2a57612d2a61435e565b6000918252602090912001546002840180546001600160a01b039092169183908110612d5857612d5861435e565b9060005260206000200160006101000a8154816001600160a01b0302191690836001600160a01b0316021790555082600201805480612d9957612d996142eb565b600082815260209020810160001990810180546001600160a01b031916905501905560019150612dcc565b600101612cc3565b5080612e0e57604080518082018252600e81526d1393d11157d393d517d193d5539160921b6020820152905162461bcd60e51b815261055691906004016142d8565b604080518781526001600160a01b03871660208201526000918101919091527faaa473c28a5fe04b6a7ecd795826e462f9d0c23f00ef9f51ec02fa6ea418806f90606001611601565b33612e63600882613295565b612e9d5760408051808201825260088152670848288be82aaa8960c31b6020820152905162461bcd60e51b815261055691906004016142d8565b6001600160a01b038481166000908152600760205260409020600201541615612efc57604080518082018252600e81526d414c52454144595f45584953545360901b6020820152905162461bcd60e51b815261055691906004016142d8565b60006040518060800160405280846005811115612f1b57612f1b613f35565b8152602081018690526001600160a01b0387166040820152336060909101529050612f4760058661367a565b506001600160a01b03851660009081526007602052604090208151815483929190829060ff19166001836005811115612f8257612f82613f35565b021790555060208201516001820190612f9b9082614423565b506040828101516002830180546001600160a01b03199081166001600160a01b039384161790915560609094015160039093018054909416928116929092179092559051908616907fd6f3629b08191adb8308c3a65d5f8803b7f8f3e359c433fa7ae623276635e561906130129087908790614792565b60405180910390a25050505050565b600061161e600a836132ba565b336000818152600760205260409020600201546001600160a01b031661308a57604080518082018252600e81526d1393d11157d393d517d193d5539160921b6020820152905162461bcd60e51b815261055691906004016142d8565b60005b8281101561328f57368484838181106130a8576130a861435e565b60a0029190910191506130bf9050600082356132ba565b613137577f75460fe319331413a18a82d99b07735cec53fa0c4061ada38c2141e331082afa813560408301356130fb60808501606086016147b4565b60408051808201825260098152681393d517d193d5539160ba1b6020820152905161312994939291906147cf565b60405180910390a150613287565b80356000908152600260205260409081902090820135815561315f60808301606084016147b4565b60018201805467ffffffffffffffff19166001600160401b039290921691909117905561319260a08301608084016147fd565b156131ca576001818101805467ffffffffffffffff60801b198116600160801b918290046001600160401b0316909317029190911790555b6131da60808301606084016147b4565b6001600160401b0316600103613203578135600090815260036020526040812061320391613857565b7fccc26bbb6dd655ea0bb8a40a3c30e35c6bdf42f8faf0d71bbea897af768cda8b8235604084013561323b60808601606087016147b4565b61324b60a08701608088016147fd565b60405161327c949392919093845260208401929092526001600160401b031660408301521515606082015260800190565b60405180910390a150505b60010161308d565b50505050565b6001600160a01b038116600090815260018301602052604081205415155b9392505050565b600081815260018301602052604081205415156132b3565b60006132b3838361368f565b600061161e825490565b60006132b38383613782565b7f4675fa8241f86f37157864d3d49b85ad4b164352c516da28e1678a90470ae300546001600160a01b031690565b6001600160a01b0381166133655760408051808201825260078152664241445f41524760c81b6020820152905162461bcd60e51b815261055691906004016142d8565b613370600882613295565b156133b157604080518082018252600e81526d414c52454144595f45584953545360901b6020820152905162461bcd60e51b815261055691906004016142d8565b6133bc60088261367a565b506040516001600160a01b038216907fac6fa858e9350a46cec16539926e0fde25b7629f84b5a72bffaae4df888ae86d90600090a250565b6001600160a01b0381166134375760408051808201825260078152664241445f41524760c81b6020820152905162461bcd60e51b815261055691906004016142d8565b613442600d8261367a565b61348257604080518082018252600e81526d414c52454144595f45584953545360901b6020820152905162461bcd60e51b815261055691906004016142d8565b6040516001600160a01b038216907f7afd798379ae2d2e5035438544cea2b60eb1dde6a8128e6d447fd2a25f8825a290600090a250565b60008260058111156134cd576134cd613f35565b1480613521575060018260058111156134e8576134e8613f35565b1480156135215750600381600581111561350457613504613f35565b14806135215750600481600581111561351f5761351f613f35565b145b806135745750600282600581111561353b5761353b613f35565b1480156135745750600381600581111561355757613557613f35565b14806135745750600481600581111561357257613572613f35565b145b806135c75750600482600581111561358e5761358e613f35565b1480156135c7575060038160058111156135aa576135aa613f35565b14806135c7575060058160058111156135c5576135c5613f35565b145b806135ff575060038260058111156135e1576135e1613f35565b1480156135ff575060058160058111156135fd576135fd613f35565b145b15613608575050565b60408051808201825260168152751393d11157d4d510551157d393d517d0531313d5d15160521b6020820152905162461bcd60e51b815261055691906004016142d8565b60006132b383836137ac565b60006132b3836001600160a01b03841661368f565b606060006132b3836137fb565b60006132b3836001600160a01b0384166137ac565b600081815260018301602052604081205480156137785760006136b36001836146b3565b85549091506000906136c7906001906146b3565b905080821461372c5760008660000182815481106136e7576136e761435e565b906000526020600020015490508087600001848154811061370a5761370a61435e565b6000918252602080832090910192909255918252600188019052604090208390555b855486908061373d5761373d6142eb565b60019003818190600052602060002001600090559055856001016000868152602001908152602001600020600090556001935050505061161e565b600091505061161e565b60008260000182815481106137995761379961435e565b9060005260206000200154905092915050565b60008181526001830160205260408120546137f35750815460018181018455600084815260208082209093018490558454848252828601909352604090209190915561161e565b50600061161e565b60608160000180548060200260200160405190810160405280929190818152602001828054801561384b57602002820191906000526020600020905b815481526020019060010190808311613837575b50505050509050919050565b5080546138639061432a565b6000825580601f10613873575050565b601f016020900490600052602060002090810190610a4e9190613961565b5080546000825560030290600052602060002090810190610a4e9190613976565b6040805180820190915260008152602081016138f76040805160a081018252600080825260208201819052918101829052606080820192909252608081019190915290565b905290565b828054828255906000526020600020908101928215613951579160200282015b8281111561395157825182546001600160a01b0319166001600160a01b0390911617825560209092019160019091019061391c565b5061395d929150613961565b5090565b5b8082111561395d5760008155600101613962565b8082111561395d57600080825560018201805467ffffffffffffffff191690556139a36002830182613857565b50600301613976565b6000602082840312156139be57600080fd5b5035919050565b60005b838110156139e05781810151838201526020016139c8565b50506000910152565b60008151808452613a018160208601602086016139c5565b601f01601f19169290920160200192915050565b600060208083018184528085518083526040925060408601915060408160051b87010184880160005b83811015613a9157888303603f19018552815180518452878101516001600160401b0316888501528601516060878501819052613a7d818601836139e9565b968901969450505090860190600101613a3e565b509098975050505050505050565b600060a08301825184526020808401516001600160401b0380821660208801528060408701511660408801528060608701511660608801525050608084015160a0608087015282815180855260c088019150602083019450600092505b80831015613b255784516001600160a01b03168252938301936001929092019190830190613afc565b509695505050505050565b6020815260006132b36020830184613a9f565b80356001600160a01b0381168114613b5a57600080fd5b919050565b600060208284031215613b7157600080fd5b6132b382613b43565b60008060208385031215613b8d57600080fd5b82356001600160401b0380821115613ba457600080fd5b818501915085601f830112613bb857600080fd5b813581811115613bc757600080fd5b8660208260051b8501011115613bdc57600080fd5b60209290920196919550909350505050565b805182526000602082015160406020850152613c0d6040850182613a9f565b949350505050565b60008282518085526020808601955060208260051b8401016020860160005b84811015613c6257601f19868403018952613c50838351613bee565b98840198925090830190600101613c34565b5090979650505050505050565b6020815260006132b36020830184613c15565b606081526000613c956060830186613a9f565b8460208401528281036040840152613cad81856139e9565b9695505050505050565b803560068110613b5a57600080fd5b60008060408385031215613cd957600080fd5b613ce283613b43565b9150613cf060208401613cb7565b90509250929050565b6020815260006132b36020830184613bee565b634e487b7160e01b600052604160045260246000fd5b604051601f8201601f191681016001600160401b0381118282101715613d4a57613d4a613d0c565b604052919050565b600082601f830112613d6357600080fd5b81356001600160401b03811115613d7c57613d7c613d0c565b613d8f601f8201601f1916602001613d22565b818152846020838601011115613da457600080fd5b816020850160208301376000918101602001919091529392505050565b60008060008060808587031215613dd757600080fd5b843593506020808601356001600160401b0380821115613df657600080fd5b818801915088601f830112613e0a57600080fd5b813581811115613e1c57613e1c613d0c565b8060051b613e2b858201613d22565b918252838101850191858101908c841115613e4557600080fd5b948601945b83861015613e6a57613e5b86613b43565b82529486019490860190613e4a565b9850505050604088013594506060880135925080831115613e8a57600080fd5b5050613e9887828801613d52565b91505092959194509250565b60008060408385031215613eb757600080fd5b613ec083613b43565b915060208301356001600160401b03811115613edb57600080fd5b613ee785828601613d52565b9150509250929050565b6020808252825182820181905260009190848201906040850190845b81811015613f2957835183529284019291840191600101613f0d565b50909695505050505050565b634e487b7160e01b600052602160045260246000fd5b60068110613f6957634e487b7160e01b600052602160045260246000fd5b9052565b613f78828251613f4b565b6000602082015160806020850152613f9360808501826139e9565b6040848101516001600160a01b03908116918701919091526060948501511693909401929092525090919050565b6020815260006132b36020830184613f6d565b60008060408385031215613fe757600080fd5b82359150613cf060208401613b43565b80356001600160401b0381168114613b5a57600080fd5b6000806000806060858703121561402457600080fd5b8435935061403460208601613ff7565b925060408501356001600160401b038082111561405057600080fd5b818701915087601f83011261406457600080fd5b81358181111561407357600080fd5b88602082850101111561408557600080fd5b95989497505060200194505050565b600060208083016020845280855180835260408601915060408160051b87010192506020870160005b828110156140eb57603f198886030184526140d9858351613f6d565b945092850192908501906001016140bd565b5092979650505050505050565b6000806040838503121561410b57600080fd5b82359150613cf060208401613ff7565b60008151808452602080850194506020840160005b838110156141555781516001600160a01b031687529582019590820190600101614130565b509495945050505050565b6020815260006132b3602083018461411b565b6000806040838503121561418657600080fd5b50508035926020909101359150565b6040815260006141a86040830185613c15565b905082151560208301529392505050565b80358015158114613b5a57600080fd5b600080600080600060a086880312156141e157600080fd5b8535945060208601359350604086013592506141ff60608701613ff7565b915061420d608087016141b9565b90509295509295909350565b60008060006060848603121561422e57600080fd5b61423784613b43565b925060208401356001600160401b0381111561425257600080fd5b61425e86828701613d52565b92505061426d60408501613cb7565b90509250925092565b6000806020838503121561428957600080fd5b82356001600160401b03808211156142a057600080fd5b818501915085601f8301126142b457600080fd5b8135818111156142c357600080fd5b86602060a083028501011115613bdc57600080fd5b6020815260006132b360208301846139e9565b634e487b7160e01b600052603160045260246000fd5b634e487b7160e01b600052601160045260246000fd5b8082018082111561161e5761161e614301565b600181811c9082168061433e57607f821691505b602082108103610f0e57634e487b7160e01b600052602260045260246000fd5b634e487b7160e01b600052603260045260246000fd5b60006001820161438657614386614301565b5060010190565b600063ffffffff8083168181036143a6576143a6614301565b6001019392505050565b6020810161161e8284613f4b565b601f821115610add576000816000526020600020601f850160051c810160208610156143e75750805b601f850160051c820191505b81811015614406578281556001016143f3565b505050505050565b600019600383901b1c191660019190911b1790565b81516001600160401b0381111561443c5761443c613d0c565b6144508161444a845461432a565b846143be565b602080601f83116001811461447f576000841561446d5750858301515b614477858261440e565b865550614406565b600085815260208120601f198616915b828110156144ae5788860151825594840194600190910190840161448f565b50858210156144cc5787850151600019600388901b60f8161c191681555b5050505050600190811b01905550565b8481526080602082015260006144f5608083018661411b565b846040840152828103606084015261450d81856139e9565b979650505050505050565b6000825161452a8184602087016139c5565b9190910192915050565b60008083546145428161432a565b6001828116801561455a576001811461456f5761459e565b60ff198416875282151583028701945061459e565b8760005260208060002060005b858110156145955781548a82015290840190820161457c565b50505082870194505b50929695505050505050565b6001600160401b038311156145c1576145c1613d0c565b6145d5836145cf835461432a565b836143be565b6000601f84116001811461460357600085156145f15750838201355b6145fb868261440e565b84555061203d565b600083815260209020601f19861690835b828110156146345786850135825560209485019460019092019101614614565b50868210156146515760001960f88860031b161c19848701351681555b505060018560011b0183555050505050565b8581526001600160401b038516602082015260806040820152826080820152828460a0830137600081840160a0908101919091529115156060820152601f909201601f1916909101019392505050565b8181038181111561161e5761161e614301565b8181036146d1575050565b6146db825461432a565b6001600160401b038111156146f2576146f2613d0c565b6147008161444a845461432a565b6000601f82116001811461472e576000831561471c5750848201545b614726848261440e565b85555061203d565b600085815260209020601f19841690600086815260209020845b838110156147685782860154825560019586019590910190602001614748565b50858310156144cc5793015460001960f8600387901b161c19169092555050600190811b01905550565b6040815260006147a560408301856139e9565b90506132b36020830184613f4b565b6000602082840312156147c657600080fd5b6132b382613ff7565b8481528360208201526001600160401b0383166040820152608060608201526000613cad60808301846139e9565b60006020828403121561480f57600080fd5b6132b3826141b956fec01483261a841a868b99cb8802faed4ea44a1a816651c4f7ee061a96a205fe98","linkReferences":{}},"methodIdentifiers":{"__OperatorRegistry_init(address[])":"ba428b1a","__RiverConfig_init(address[])":"31374511","allocateStream(bytes32,address[],bytes32,bytes)":"6b883c39","approveConfigurationManager(address)":"c179b85f","approveOperator(address)":"242cae9f","configurationExists(bytes32)":"fc207c01","deleteConfiguration(bytes32)":"035759e1","deleteConfigurationOnBlock(bytes32,uint64)":"b7f227ee","getAllConfiguration()":"081814db","getAllNodeAddresses()":"c8fe3a01","getAllNodes()":"a1174e7d","getAllStreamIds()":"86789fc6","getAllStreams()":"3bd84c0c","getConfiguration(bytes32)":"9283ae3a","getNode(address)":"9d209048","getNodeCount()":"39bf397e","getPaginatedStreams(uint256,uint256)":"ca78c41a","getStream(bytes32)":"1290abe8","getStreamByIndex(uint256)":"68b454df","getStreamCount()":"c0f22084","getStreamWithGenesis(bytes32)":"3c2544d1","getStreamsOnNode(address)":"32705ac4","isConfigurationManager(address)":"d4bd44a0","isOperator(address)":"6d70f7ae","placeStreamOnNode(bytes32,address)":"9ee86d38","registerNode(address,string,uint8)":"eecc66f4","removeConfigurationManager(address)":"813049ec","removeNode(address)":"b2b99ec9","removeOperator(address)":"ac8a584a","removeStreamFromNode(bytes32,address)":"ee885b12","setConfiguration(bytes32,uint64,bytes)":"a09449a6","setStreamLastMiniblock(bytes32,bytes32,bytes32,uint64,bool)":"d7a3158a","setStreamLastMiniblockBatch((bytes32,bytes32,bytes32,uint64,bool)[])":"ff3a14ab","updateNodeStatus(address,uint8)":"581f8b9b","updateNodeUrl(address,string)":"7e4465e7"},"id":346}