{"abi":[{"type":"constructor","inputs":[{"name":"checker","type":"address","internalType":"contract IEntitlementChecker"}],"stateMutability":"nonpayable"},{"type":"function","name":"__EntitlementGated_init","inputs":[{"name":"entitlementChecker","type":"address","internalType":"contract IEntitlementChecker"}],"outputs":[],"stateMutability":"nonpayable"},{"type":"function","name":"getCrossChainEntitlementData","inputs":[{"name":"","type":"bytes32","internalType":"bytes32"},{"name":"roleId","type":"uint256","internalType":"uint256"}],"outputs":[{"name":"","type":"tuple","internalType":"struct IEntitlementDataQueryableBase.EntitlementData","components":[{"name":"entitlementType","type":"string","internalType":"string"},{"name":"entitlementData","type":"bytes","internalType":"bytes"}]}],"stateMutability":"view"},{"type":"function","name":"getRuleData","inputs":[{"name":"roleId","type":"uint256","internalType":"uint256"}],"outputs":[{"name":"","type":"tuple","internalType":"struct IRuleEntitlementBase.RuleData","components":[{"name":"operations","type":"tuple[]","internalType":"struct IRuleEntitlementBase.Operation[]","components":[{"name":"opType","type":"uint8","internalType":"enum IRuleEntitlementBase.CombinedOperationType"},{"name":"index","type":"uint8","internalType":"uint8"}]},{"name":"checkOperations","type":"tuple[]","internalType":"struct IRuleEntitlementBase.CheckOperation[]","components":[{"name":"opType","type":"uint8","internalType":"enum IRuleEntitlementBase.CheckOperationType"},{"name":"chainId","type":"uint256","internalType":"uint256"},{"name":"contractAddress","type":"address","internalType":"address"},{"name":"threshold","type":"uint256","internalType":"uint256"}]},{"name":"logicalOperations","type":"tuple[]","internalType":"struct IRuleEntitlementBase.LogicalOperation[]","components":[{"name":"logOpType","type":"uint8","internalType":"enum IRuleEntitlementBase.LogicalOperationType"},{"name":"leftOperationIndex","type":"uint8","internalType":"uint8"},{"name":"rightOperationIndex","type":"uint8","internalType":"uint8"}]}]}],"stateMutability":"view"},{"type":"function","name":"getRuleData","inputs":[{"name":"transactionId","type":"bytes32","internalType":"bytes32"},{"name":"roleId","type":"uint256","internalType":"uint256"}],"outputs":[{"name":"","type":"tuple","internalType":"struct IRuleEntitlementBase.RuleData","components":[{"name":"operations","type":"tuple[]","internalType":"struct IRuleEntitlementBase.Operation[]","components":[{"name":"opType","type":"uint8","internalType":"enum IRuleEntitlementBase.CombinedOperationType"},{"name":"index","type":"uint8","internalType":"uint8"}]},{"name":"checkOperations","type":"tuple[]","internalType":"struct IRuleEntitlementBase.CheckOperation[]","components":[{"name":"opType","type":"uint8","internalType":"enum IRuleEntitlementBase.CheckOperationType"},{"name":"chainId","type":"uint256","internalType":"uint256"},{"name":"contractAddress","type":"address","internalType":"address"},{"name":"threshold","type":"uint256","internalType":"uint256"}]},{"name":"logicalOperations","type":"tuple[]","internalType":"struct IRuleEntitlementBase.LogicalOperation[]","components":[{"name":"logOpType","type":"uint8","internalType":"enum IRuleEntitlementBase.LogicalOperationType"},{"name":"leftOperationIndex","type":"uint8","internalType":"uint8"},{"name":"rightOperationIndex","type":"uint8","internalType":"uint8"}]}]}],"stateMutability":"view"},{"type":"function","name":"getRuleDataV2","inputs":[{"name":"roleId","type":"uint256","internalType":"uint256"}],"outputs":[{"name":"","type":"tuple","internalType":"struct IRuleEntitlementBase.RuleDataV2","components":[{"name":"operations","type":"tuple[]","internalType":"struct IRuleEntitlementBase.Operation[]","components":[{"name":"opType","type":"uint8","internalType":"enum IRuleEntitlementBase.CombinedOperationType"},{"name":"index","type":"uint8","internalType":"uint8"}]},{"name":"checkOperations","type":"tuple[]","internalType":"struct IRuleEntitlementBase.CheckOperationV2[]","components":[{"name":"opType","type":"uint8","internalType":"enum IRuleEntitlementBase.CheckOperationType"},{"name":"chainId","type":"uint256","internalType":"uint256"},{"name":"contractAddress","type":"address","internalType":"address"},{"name":"params","type":"bytes","internalType":"bytes"}]},{"name":"logicalOperations","type":"tuple[]","internalType":"struct IRuleEntitlementBase.LogicalOperation[]","components":[{"name":"logOpType","type":"uint8","internalType":"enum IRuleEntitlementBase.LogicalOperationType"},{"name":"leftOperationIndex","type":"uint8","internalType":"uint8"},{"name":"rightOperationIndex","type":"uint8","internalType":"uint8"}]}]}],"stateMutability":"view"},{"type":"function","name":"postEntitlementCheckResult","inputs":[{"name":"transactionId","type":"bytes32","internalType":"bytes32"},{"name":"roleId","type":"uint256","internalType":"uint256"},{"name":"result","type":"uint8","internalType":"enum IEntitlementGatedBase.NodeVoteStatus"}],"outputs":[],"stateMutability":"nonpayable"},{"type":"function","name":"postEntitlementCheckResultV2","inputs":[{"name":"transactionId","type":"bytes32","internalType":"bytes32"},{"name":"roleId","type":"uint256","internalType":"uint256"},{"name":"result","type":"uint8","internalType":"enum IEntitlementGatedBase.NodeVoteStatus"}],"outputs":[],"stateMutability":"payable"},{"type":"function","name":"requestEntitlementCheck","inputs":[{"name":"roleId","type":"uint256","internalType":"uint256"},{"name":"ruleData","type":"tuple","internalType":"struct IRuleEntitlementBase.RuleData","components":[{"name":"operations","type":"tuple[]","internalType":"struct IRuleEntitlementBase.Operation[]","components":[{"name":"opType","type":"uint8","internalType":"enum IRuleEntitlementBase.CombinedOperationType"},{"name":"index","type":"uint8","internalType":"uint8"}]},{"name":"checkOperations","type":"tuple[]","internalType":"struct IRuleEntitlementBase.CheckOperation[]","components":[{"name":"opType","type":"uint8","internalType":"enum IRuleEntitlementBase.CheckOperationType"},{"name":"chainId","type":"uint256","internalType":"uint256"},{"name":"contractAddress","type":"address","internalType":"address"},{"name":"threshold","type":"uint256","internalType":"uint256"}]},{"name":"logicalOperations","type":"tuple[]","internalType":"struct IRuleEntitlementBase.LogicalOperation[]","components":[{"name":"logOpType","type":"uint8","internalType":"enum IRuleEntitlementBase.LogicalOperationType"},{"name":"leftOperationIndex","type":"uint8","internalType":"uint8"},{"name":"rightOperationIndex","type":"uint8","internalType":"uint8"}]}]}],"outputs":[{"name":"","type":"bytes32","internalType":"bytes32"}],"stateMutability":"nonpayable"},{"type":"function","name":"requestEntitlementCheckV2","inputs":[{"name":"roleIds","type":"uint256[]","internalType":"uint256[]"},{"name":"ruleData","type":"tuple","internalType":"struct IRuleEntitlementBase.RuleDataV2","components":[{"name":"operations","type":"tuple[]","internalType":"struct IRuleEntitlementBase.Operation[]","components":[{"name":"opType","type":"uint8","internalType":"enum IRuleEntitlementBase.CombinedOperationType"},{"name":"index","type":"uint8","internalType":"uint8"}]},{"name":"checkOperations","type":"tuple[]","internalType":"struct IRuleEntitlementBase.CheckOperationV2[]","components":[{"name":"opType","type":"uint8","internalType":"enum IRuleEntitlementBase.CheckOperationType"},{"name":"chainId","type":"uint256","internalType":"uint256"},{"name":"contractAddress","type":"address","internalType":"address"},{"name":"params","type":"bytes","internalType":"bytes"}]},{"name":"logicalOperations","type":"tuple[]","internalType":"struct IRuleEntitlementBase.LogicalOperation[]","components":[{"name":"logOpType","type":"uint8","internalType":"enum IRuleEntitlementBase.LogicalOperationType"},{"name":"leftOperationIndex","type":"uint8","internalType":"uint8"},{"name":"rightOperationIndex","type":"uint8","internalType":"uint8"}]}]}],"outputs":[{"name":"","type":"bytes32","internalType":"bytes32"}],"stateMutability":"nonpayable"},{"type":"function","name":"requestEntitlementCheckV3","inputs":[{"name":"roleIds","type":"uint256[]","internalType":"uint256[]"},{"name":"ruleData","type":"tuple","internalType":"struct IRuleEntitlementBase.RuleDataV2","components":[{"name":"operations","type":"tuple[]","internalType":"struct IRuleEntitlementBase.Operation[]","components":[{"name":"opType","type":"uint8","internalType":"enum IRuleEntitlementBase.CombinedOperationType"},{"name":"index","type":"uint8","internalType":"uint8"}]},{"name":"checkOperations","type":"tuple[]","internalType":"struct IRuleEntitlementBase.CheckOperationV2[]","components":[{"name":"opType","type":"uint8","internalType":"enum IRuleEntitlementBase.CheckOperationType"},{"name":"chainId","type":"uint256","internalType":"uint256"},{"name":"contractAddress","type":"address","internalType":"address"},{"name":"params","type":"bytes","internalType":"bytes"}]},{"name":"logicalOperations","type":"tuple[]","internalType":"struct IRuleEntitlementBase.LogicalOperation[]","components":[{"name":"logOpType","type":"uint8","internalType":"enum IRuleEntitlementBase.LogicalOperationType"},{"name":"leftOperationIndex","type":"uint8","internalType":"uint8"},{"name":"rightOperationIndex","type":"uint8","internalType":"uint8"}]}]}],"outputs":[{"name":"","type":"bytes32","internalType":"bytes32"}],"stateMutability":"payable"},{"type":"event","name":"EntitlementCheckResultPosted","inputs":[{"name":"transactionId","type":"bytes32","indexed":true,"internalType":"bytes32"},{"name":"result","type":"uint8","indexed":false,"internalType":"enum IEntitlementGatedBase.NodeVoteStatus"}],"anonymous":false},{"type":"event","name":"Initialized","inputs":[{"name":"version","type":"uint32","indexed":false,"internalType":"uint32"}],"anonymous":false},{"type":"event","name":"InterfaceAdded","inputs":[{"name":"interfaceId","type":"bytes4","indexed":true,"internalType":"bytes4"}],"anonymous":false},{"type":"event","name":"InterfaceRemoved","inputs":[{"name":"interfaceId","type":"bytes4","indexed":true,"internalType":"bytes4"}],"anonymous":false},{"type":"error","name":"EntitlementGated_InvalidAddress","inputs":[]},{"type":"error","name":"EntitlementGated_NodeAlreadyVoted","inputs":[]},{"type":"error","name":"EntitlementGated_NodeNotFound","inputs":[]},{"type":"error","name":"EntitlementGated_OnlyEntitlementChecker","inputs":[]},{"type":"error","name":"EntitlementGated_TransactionCheckAlreadyCompleted","inputs":[]},{"type":"error","name":"EntitlementGated_TransactionCheckAlreadyRegistered","inputs":[]},{"type":"error","name":"EntitlementGated_TransactionNotRegistered","inputs":[]},{"type":"error","name":"Initializable_InInitializingState","inputs":[]},{"type":"error","name":"Initializable_NotInInitializingState","inputs":[]},{"type":"error","name":"Introspection_AlreadySupported","inputs":[]},{"type":"error","name":"Introspection_NotSupported","inputs":[]},{"type":"error","name":"Reentrancy","inputs":[]}],"bytecode":{"object":"0x60806040523480156200001157600080fd5b5060405162002db838038062002db8833981016040819052620000349162000127565b6200003e6200007f565b7f9075c515a635ba70c9696f31149324218d75cf00afe836c482e6473f38b19e0080546001600160a01b0319166001600160a01b0383161790555062000159565b7f59b501c3653afc186af7d48dda36cf6732bd21629a6295693664240a6ef520008054640100000000900460ff1615620000cc576040516366008a2d60e01b815260040160405180910390fd5b805463ffffffff90811610156200012457805463ffffffff191663ffffffff90811782556040519081527fe9c9b456cb2994b80aeef036cf59d26e9617df80f816a6ee5a5b4166e07e2f5c9060200160405180910390a15b50565b6000602082840312156200013a57600080fd5b81516001600160a01b03811681146200015257600080fd5b9392505050565b612c4f80620001696000396000f3fe6080604052600436106100915760003560e01c80637adc9cbe116100595780637adc9cbe1461017657806383f1cfa51461019657806392c399ff146101b6578063a0d7fb80146101d6578063e58690f2146101e957600080fd5b8063069a3ee9146100965780630fe44a21146100cc5780634739e805146100f957806357e700271461011b57806368ab7dd614610149575b600080fd5b3480156100a257600080fd5b506100b66100b1366004611779565b6101fc565b6040516100c39190611875565b60405180910390f35b3480156100d857600080fd5b506100ec6100e7366004611932565b61042f565b6040516100c3919061199a565b34801561010557600080fd5b506101196101143660046119e9565b610512565b005b34801561012757600080fd5b5061013b610136366004611a3a565b610559565b6040519081526020016100c3565b34801561015557600080fd5b50610169610164366004611779565b6105b6565b6040516100c39190611a80565b34801561018257600080fd5b50610119610191366004611b6e565b610863565b3480156101a257600080fd5b5061013b6101b1366004611b8b565b6108b9565b3480156101c257600080fd5b506100b66101d1366004611932565b610975565b61013b6101e4366004611b8b565b6109a3565b6101196101f73660046119e9565b610a56565b61022060405180606001604052806060815260200160608152602001606081525090565b6000828152602081815260408083208151815460809481028201850190935260608101838152909491938593919285929185015b828210156102bd57600084815260209020604080518082019091529083018054829060ff16600281111561028a5761028a611792565b600281111561029b5761029b611792565b81529054610100900460ff166020918201529082526001929092019101610254565b50505050815260200160018201805480602002602001604051908101604052809291908181526020016000905b82821015610375576000848152602090206040805160808101909152600484029091018054829060ff16600681111561032557610325611792565b600681111561033657610336611792565b815260018281015460208084019190915260028401546001600160a01b03166040840152600390930154606090920191909152918352920191016102ea565b50505050815260200160028201805480602002602001604051908101604052809291908181526020016000905b828210156104215760008481526020902060408051606081019091529083018054829060ff1660028111156103d9576103d9611792565b60028111156103ea576103ea611792565b8152905460ff61010082048116602080850191909152620100009092041660409092019190915290825260019290920191016103a2565b505050915250909392505050565b6040805180820190915260608082526020820152600082815260208190526040902054156104bc5760408051608081018252600f8183019081526e149d5b19515b9d1a5d1b195b595b9d608a1b60608301528152600084815260208181529083902092519192818401926104a39201611ccf565b604051602081830303815290604052815250905061050c565b60408051608081018252601181830190815270293ab632a2b73a34ba3632b6b2b73a2b1960791b606083015281526000848152600160209081529083902092519192818401926104a39201611dc5565b92915050565b3068929eee149b4bd2126854036105315763ab143c066000526004601cfd5b3068929eee149b4bd2126855610548838383610ac4565b3868929eee149b4bd2126855505050565b6000828152602081905260408120829061057382826122ba565b9050506000324360405160200161058b929190612383565b6040516020818303038152906040528051906020012090506105af33823087610d71565b9392505050565b6105da60405180606001604052806060815260200160608152602001606081525090565b60008281526001602090815260408083208151815460809481028201850190935260608101838152909491938593919285929185015b8282101561067957600084815260209020604080518082019091529083018054829060ff16600281111561064657610646611792565b600281111561065757610657611792565b81529054610100900460ff166020918201529082526001929092019101610610565b50505050815260200160018201805480602002602001604051908101604052809291908181526020016000905b828210156107b7576000848152602090206040805160808101909152600484029091018054829060ff1660068111156106e1576106e1611792565b60068111156106f2576106f2611792565b81526001820154602082015260028201546001600160a01b0316604082015260038201805460609092019161072690611d91565b80601f016020809104026020016040519081016040528092919081815260200182805461075290611d91565b801561079f5780601f106107745761010080835404028352916020019161079f565b820191906000526020600020905b81548152906001019060200180831161078257829003601f168201915b505050505081525050815260200190600101906106a6565b50505050815260200160028201805480602002602001604051908101604052809291908181526020016000905b828210156104215760008481526020902060408051606081019091529083018054829060ff16600281111561081b5761081b611792565b600281111561082c5761082c611792565b8152905460ff61010082048116602080850191909152620100009092041660409092019190915290825260019290920191016107e4565b7f59b501c3653afc186af7d48dda36cf6732bd21629a6295693664240a6ef5200054640100000000900460ff166108ad57604051630ef4733760e31b815260040160405180910390fd5b6108b68161103a565b50565b6000805b838110156109075782600160008787858181106108dc576108dc6123a5565b90506020020135815260200190815260200160002081816108fd91906126b1565b50506001016108bd565b506000324360405160200161091d929190612383565b60405160208183030381529060405280519060200120905060005b8481101561096c57610964338330898986818110610958576109586123a5565b90506020020135610d71565b600101610938565b50949350505050565b61099960405180606001604052806060815260200160608152602001606081525090565b6105af8383611075565b6000805b838110156109f15782600160008787858181106109c6576109c66123a5565b90506020020135815260200190815260200160002081816109e791906126b1565b50506001016109a7565b5060003243604051602001610a07929190612383565b60405160208183030381529060405280519060200120905060005b8481101561096c57610a4e338330898986818110610a4257610a426123a5565b90506020020135611166565b600101610a22565b600080516020612c0f833981519152546001600160a01b03163314610a8e57604051630b2395d760e41b815260040160405180910390fd5b3068929eee149b4bd212685403610aad5763ab143c066000526004601cfd5b3068929eee149b4bd21268556105488383836112d3565b6000838152600080516020612c2f833981519152602052604090208054600080516020612c0f833981519152919061010090046001600160a01b03161580610b0e5750805460ff16155b15610b2c57604051637ad5a43960e11b815260040160405180910390fd5b600084815260028201602052604090205460ff1615610b5e57604051637912b73960e01b815260040160405180910390fd5b60008481526001820160205260408120805482918291825b81811015610c78576000838281548110610b9257610b926123a5565b60009182526020909120018054909150336001600160a01b0390911603610c1e5760008154600160a01b900460ff166002811115610bd257610bd2611792565b14610bf0576040516347592a4d60e01b815260040160405180910390fd5b80548a90829060ff60a01b1916600160a01b836002811115610c1457610c14611792565b0217905550600196505b8054600160a01b900460ff166001816002811115610c3e57610c3e611792565b03610c4e57866001019650610c6e565b6002816002811115610c6257610c62611792565b03610c6e578560010195505b5050600101610b76565b5084610c9757604051638223a7e960e01b815260040160405180910390fd5b610ca2600282612757565b841180610cb85750610cb5600282612757565b83115b15610d655760008981526002870160205260408120805460ff19166001179055838511610ce6576002610ce9565b60015b90506000610cf68c6113f0565b90506001826002811115610d0c57610d0c611792565b1480610d155750805b15610d53578b7fb9d6ce397e562841871d119aaf77469c60a3b5bf8b99a5d9851656015015c63383604051610d4a9190612779565b60405180910390a25b8015610d6257610d628c61148d565b50505b50505050505050505050565b6000838152600080516020612c2f833981519152602052604090208054600080516020612c0f833981519152919060ff1615610e0157600481015460005b81811015610dfe5784836004018281548110610dcd57610dcd6123a5565b906000526020600020015403610df6576040516301ab53df60e31b815260040160405180910390fd5b600101610daf565b50505b81546001600160a01b0316610e1857610e1861155b565b8154604051634f84544560e01b8152600560048201526000916001600160a01b031690634f84544590602401600060405180830381865afa158015610e61573d6000803e3d6000fd5b505050506040513d6000823e601f3d908101601f19168201604052610e89919081019061284b565b825490915060ff16610ed45781546003830180546001600160a01b038089166001600160a01b0319909216919091179091558816610100026001600160a81b03199091161760011782555b600482018054600181810183556000928352602080842090920187905583518784529085019091526040822090915b82811015610fc757816040518060400160405280868481518110610f2957610f296123a5565b60200260200101516001600160a01b0316815260200160006002811115610f5257610f52611792565b9052815460018101835560009283526020928390208251910180546001600160a01b031981166001600160a01b03909316928317825593830151929390929183916001600160a81b03191617600160a01b836002811115610fb557610fb5611792565b02179055505050806001019050610f03565b50845460405163541da4e560e01b81526001600160a01b039091169063541da4e590610ffd908c908c908b9089906004016128e9565b600060405180830381600087803b15801561101757600080fd5b505af115801561102b573d6000803e3d6000fd5b50505050505050505050505050565b61104a636afd38fd60e11b61162c565b600080516020612c0f83398151915280546001600160a01b0319166001600160a01b03831617905550565b61109960405180606001604052806060815260200160608152602001606081525090565b6000838152600080516020612c2f833981519152602052604090208054600080516020612c0f833981519152919060ff166110e757604051637ad5a43960e11b815260040160405180910390fd5b600381015460405163069a3ee960e01b8152600481018690526001600160a01b0390911690819063069a3ee990602401600060405180830381865afa158015611134573d6000803e3d6000fd5b505050506040513d6000823e601f3d908101601f1916820160405261115c9190810190612ab2565b9695505050505050565b6000838152600080516020612c2f833981519152602052604090208054600080516020612c0f833981519152919060ff16156111f657600481015460005b818110156111f357848360040182815481106111c2576111c26123a5565b9060005260206000200154036111eb576040516301ab53df60e31b815260040160405180910390fd5b6001016111a4565b50505b81546001600160a01b031661120d5761120d61155b565b805460ff1661124157805460ff191660011781556003810180546001600160a01b0386166001600160a01b03199091161790555b6004818101805460018101825560009182526020909120018490558254604051633a5b134160e11b81526001600160a01b038981169382019390935260248101889052604481018690529116906374b626829034906064016000604051808303818588803b1580156112b257600080fd5b505af11580156112c6573d6000803e3d6000fd5b5050505050505050505050565b6000838152600080516020612c2f833981519152602052604081208054600080516020612c0f8339815191529260ff9091161515900361132657604051637ad5a43960e11b815260040160405180910390fd5b600084815260028201602052604090205460ff161561135857604051637912b73960e01b815260040160405180910390fd5b60008481526002820160205260408120805460ff1916600117905561137c866113f0565b9050801561138d5761138d8661148d565b60018460028111156113a1576113a1611792565b14806113aa5750805b156113e857857fb9d6ce397e562841871d119aaf77469c60a3b5bf8b99a5d9851656015015c633856040516113df9190612779565b60405180910390a25b505050505050565b6000818152600080516020612c2f833981519152602052604081206004810154600080516020612c0f8339815191529190835b8181101561147d57826002016000846004018381548110611446576114466123a5565b6000918252602080832090910154835282019290925260400190205460ff166114755750600095945050505050565b600101611423565b50600195945050505050565b5050565b6000818152600080516020612c2f833981519152602052604081206004810154600080516020612c0f833981519152925b8181101561150e578260010160008460040183815481106114e1576114e16123a5565b9060005260206000200154815260200190815260200160002060006115069190611705565b6001016114be565b5061151d600483016000611723565b6000848152600184016020526040812080546001600160a81b03191681556003810180546001600160a01b0319169055906113e86004830182611723565b6000600080516020612c0f833981519152905060007fc21004fcc619240a31f006438274d15cd813308303284436eef6055f0fdcb60060060154604051628956cd60e71b81526c29b830b1b2a7b832b930ba37b960991b60048201526001600160a01b03909116906344ab668090602401602060405180830381865afa1580156115e9573d6000803e3d6000fd5b505050506040513d601f19601f8201168201806040525081019061160d9190612bf1565b82546001600160a01b0319166001600160a01b03919091161790915550565b6001600160e01b0319811660009081527f81088bbc801e045ea3e7620779ab349988f58afbdfba10dff983df3f33522b00602052604090205460ff166116b4576001600160e01b0319811660009081527f81088bbc801e045ea3e7620779ab349988f58afbdfba10dff983df3f33522b0060205260409020805460ff191660011790556116cd565b604051637967f77d60e11b815260040160405180910390fd5b6040516001600160e01b03198216907f78f84e5b1c5c05be2b5ad3800781dd404d6d6c6302bc755c0fe20f58a33a7f2290600090a250565b50805460008255906000526020600020908101906108b69190611741565b50805460008255906000526020600020908101906108b69190611764565b5b808211156117605780546001600160a81b0319168155600101611742565b5090565b5b808211156117605760008155600101611765565b60006020828403121561178b57600080fd5b5035919050565b634e487b7160e01b600052602160045260246000fd5b600381106108b6576108b6611792565b60008151808452602080850194506020840160005b8381101561180057815180516117e2816117a8565b885283015160ff1683880152604090960195908201906001016117cd565b509495945050505050565b6007811061181b5761181b611792565b9052565b60008151808452602080850194506020840160005b838110156118005781518051611849816117a8565b88528084015160ff908116858a0152604091820151169088015260609096019590820190600101611834565b60006020808352608084516060808487015261189460808701836117b8565b915083870151601f196040818986030160408a015284835180875288870191508885019650600094505b808510156119075786516118d383825161180b565b808a0151838b0152838101516001600160a01b031684840152860151868301529588019560019490940193908701906118be565b5060408b01519750828a82030160608b0152611923818961181f565b9b9a5050505050505050505050565b6000806040838503121561194557600080fd5b50508035926020909101359150565b6000815180845260005b8181101561197a5760208185018101518683018201520161195e565b506000602082860101526020601f19601f83011685010191505092915050565b6020815260008251604060208401526119b66060840182611954565b90506020840151601f198483030160408501526119d38282611954565b95945050505050565b600381106108b657600080fd5b6000806000606084860312156119fe57600080fd5b83359250602084013591506040840135611a17816119dc565b809150509250925092565b600060608284031215611a3457600080fd5b50919050565b60008060408385031215611a4d57600080fd5b8235915060208301356001600160401b03811115611a6a57600080fd5b611a7685828601611a22565b9150509250929050565b600060208083526080845160608084870152611a9f60808701836117b8565b915083870151601f196040818986030160408a01528483518087528887019150888160051b880101898601955060005b82811015611b2c57858983030184528651611aeb83825161180b565b808c0151838d0152858101516001600160a01b0316868401528801518883018b9052611b198b840182611954565b978c0197948c0194925050600101611acf565b5060408d01519950848c82030160608d0152611b48818b61181f565b9d9c50505050505050505050505050565b6001600160a01b03811681146108b657600080fd5b600060208284031215611b8057600080fd5b81356105af81611b59565b600080600060408486031215611ba057600080fd5b83356001600160401b0380821115611bb757600080fd5b818601915086601f830112611bcb57600080fd5b813581811115611bda57600080fd5b8760208260051b8501011115611bef57600080fd5b602092830195509350908501359080821115611c0a57600080fd5b50611c1786828701611a22565b9150509250925092565b600081548084526020808501945083600052602060002060005b8381101561180057815460ff808216611c53816117a8565b895260089190911c168388015260409096019560019182019101611c3b565b600081548084526020808501945083600052602060002060005b8381101561180057815460ff808216611ca4816117a8565b8952600882901c8116858a015260109190911c16604088015260609096019560019182019101611c8c565b6000602080835260806060806020860152611ced6080860187611c21565b6001808801601f196040818a86030160408b01528483548087526020870191508460005260206000209650600094505b80851015611d6957611d338260ff89541661180b565b86860154828b015260028701546001600160a01b0316838301526003870154888301526004909601959385019390880190611d1d565b50828b82030160608c0152611d818160028e01611c72565b9c9b505050505050505050505050565b600181811c90821680611da557607f821691505b602082108103611a3457634e487b7160e01b600052602260045260246000fd5b60006020808352606081840152611ddf6080840185611c21565b60018501601f19808684030160408701528282548085528585019150858160051b86010160008581528781209550805b83811015611ee35785888403018552611e2c8360ff89541661180b565b6001870154838a015260028701546001600160a01b03166040840152608060608401526003870180548390611e6081611d91565b8060808801526001821660008114611e7f5760018114611e9b57611eca565b60ff19831660a089015260a082151560051b8901019350611eca565b8487528d8720875b83811015611ec15781548a820160a001526001909101908f01611ea3565b890160a0019450505b50505060049890980197958a0195935050600101611e0f565b5050838982030160608a0152611efc8160028c01611c72565b9a9950505050505050505050565b6000808335601e19843603018112611f2157600080fd5b8301803591506001600160401b03821115611f3b57600080fd5b6020019150600681901b3603821315611f5357600080fd5b9250929050565b634e487b7160e01b600052604160045260246000fd5b600281901b6001600160fe1b0382168214611f9b57634e487b7160e01b600052601160045260246000fd5b919050565b60ff811681146108b657600080fd5b8135611fba816119dc565b611fc3816117a8565b60ff1982541660ff82168117835550506020820135611fe181611fa0565b815461ff001916600882901b61ff0016178255505050565b505050565b6000808335601e1984360301811261201557600080fd5b8301803591506001600160401b0382111561202f57600080fd5b6020019150600781901b3603821315611f5357600080fd5b600781106108b657600080fd5b6007821061206457612064611792565b60ff1981541660ff831681178255505050565b80546001600160a01b0319166001600160a01b0392909216919091179055565b81356120a281612047565b6120ac8183612054565b506020820135600182015560408201356120c581611b59565b6120d28160028401612077565b50606082013560038201555050565b600160401b8311156120f5576120f5611f5a565b8054838255808410156121535761210b81611f70565b61211485611f70565b6000848152602081209283019291909101905b8282101561214f57808255806001830155806002830155806003830155600482019150612127565b5050505b5060008181526020812083915b858110156113e8576121728383612097565b6080929092019160049190910190600101612160565b6000808335601e1984360301811261219f57600080fd5b8301803591506001600160401b038211156121b957600080fd5b6020019150606081023603821315611f5357600080fd5b81356121db816119dc565b6121e4816117a8565b60ff1982541660ff8216811783555050602082013561220281611fa0565b815461ff001916600882901b61ff001617825550604082013561222481611fa0565b815462ff0000191660109190911b62ff00001617905550565b600160401b83111561225157612251611f5a565b805483825580841015612288576000828152602081208581019083015b808210156122845782825560018201915061226e565b5050505b5060008181526020812083915b858110156113e8576122a783836121d0565b6060929092019160019182019101612295565b6122c48283611f0a565b600160401b8111156122d8576122d8611f5a565b82548184558082101561230f576000848152602081208381019083015b8082101561230b578282556001820191506122f5565b5050505b5060008381526020902060005b828110156123415761232e8483611faf565b604093909301926001918201910161231c565b505050506123526020830183611ffe565b6123608183600186016120e1565b505061236f6040830183612188565b61237d81836002860161223d565b50505050565b60609290921b6bffffffffffffffffffffffff19168252601482015260340190565b634e487b7160e01b600052603260045260246000fd5b6000808335601e198436030181126123d257600080fd5b8301803591506001600160401b038211156123ec57600080fd5b6020019150600581901b3603821315611f5357600080fd5b60008235607e1983360301811261241a57600080fd5b9190910192915050565b5b818110156114895760008155600101612425565b601f821115611ff957806000526020600020601f840160051c810160208510156124605750805b612472601f850160051c830182612424565b5050505050565b813561248481612047565b61248e8183612054565b506001602080840135600184015560408401356124aa81611b59565b6124b78160028601612077565b50600383016060850135601e198636030181126124d357600080fd5b850180356001600160401b038111156124eb57600080fd5b80360384830113156124fc57600080fd5b6125108161250a8554611d91565b85612439565b6000601f821160018114612546576000831561252e57508382018601355b600019600385901b1c1916600184901b1785556125a1565b600085815260209020601f19841690835b8281101561257657868501890135825593880193908901908801612557565b50848210156125955760001960f88660031b161c198885880101351681555b505060018360011b0185555b505050505050505050565b600160401b8311156125c0576125c0611f5a565b805483825580841015612673576125d681611f70565b6125df85611f70565b6000848152602081209283019291909101905b8282101561266f5780825560018181840155816002840155600383016126188154611d91565b801561266157601f808211600181146126335785845561265e565b60008481526020902061264f83850160051c8201878301612424565b50600084815260208120818655555b50505b5050506004820191506125f2565b5050505b5060008181526020812083915b858110156113e85761269b6126958487612404565b83612479565b6020929092019160049190910190600101612680565b6126bb8283611f0a565b600160401b8111156126cf576126cf611f5a565b825481845580821015612706576000848152602081208381019083015b80821015612702578282556001820191506126ec565b5050505b5060008381526020902060005b82811015612738576127258483611faf565b6040939093019260019182019101612713565b5050505061274960208301836123bb565b6123608183600186016125ac565b60008261277457634e487b7160e01b600052601260045260246000fd5b500490565b60208101612786836117a8565b91905290565b604051608081016001600160401b03811182821017156127ae576127ae611f5a565b60405290565b604051606081016001600160401b03811182821017156127ae576127ae611f5a565b604080519081016001600160401b03811182821017156127ae576127ae611f5a565b604051601f8201601f191681016001600160401b038111828210171561282057612820611f5a565b604052919050565b60006001600160401b0382111561284157612841611f5a565b5060051b60200190565b6000602080838503121561285e57600080fd5b82516001600160401b0381111561287457600080fd5b8301601f8101851361288557600080fd5b805161289861289382612828565b6127f8565b81815260059190911b820183019083810190878311156128b757600080fd5b928401925b828410156128de5783516128cf81611b59565b825292840192908401906128bc565b979650505050505050565b60006080820160018060a01b03808816845260208760208601528660408601526080606086015282865180855260a08701915060208801945060005b81811015612943578551851683529483019491830191600101612925565b50909a9950505050505050505050565b600082601f83011261296457600080fd5b8151602061297461289383612828565b82815260079290921b8401810191818101908684111561299357600080fd5b8286015b848110156129f857608081890312156129b05760008081fd5b6129b861278c565b81516129c381612047565b815281850151858201526040808301516129dc81611b59565b9082015260608281015190820152835291830191608001612997565b509695505050505050565b600082601f830112612a1457600080fd5b81516020612a2461289383612828565b82815260609283028501820192828201919087851115612a4357600080fd5b8387015b85811015612aa55781818a031215612a5f5760008081fd5b612a676127b4565b8151612a72816119dc565b815281860151612a8181611fa0565b81870152604082810151612a9481611fa0565b908201528452928401928101612a47565b5090979650505050505050565b60006020808385031215612ac557600080fd5b82516001600160401b0380821115612adc57600080fd5b9084019060608287031215612af057600080fd5b612af86127b4565b825182811115612b0757600080fd5b8301601f81018813612b1857600080fd5b8051612b2661289382612828565b81815260069190911b8201860190868101908a831115612b4557600080fd5b928701925b82841015612b9b576040848c031215612b635760008081fd5b612b6b6127d6565b8451612b76816119dc565b815284890151612b8581611fa0565b818a015282526040939093019290870190612b4a565b84525050508284015182811115612bb157600080fd5b612bbd88828601612953565b85830152506040830151935081841115612bd657600080fd5b612be287858501612a03565b60408201529695505050505050565b600060208284031215612c0357600080fd5b81516105af81611b5956fe9075c515a635ba70c9696f31149324218d75cf00afe836c482e6473f38b19e009075c515a635ba70c9696f31149324218d75cf00afe836c482e6473f38b19e01","linkReferences":{}},"methodIdentifiers":{"__EntitlementGated_init(address)":"7adc9cbe","getCrossChainEntitlementData(bytes32,uint256)":"0fe44a21","getRuleData(bytes32,uint256)":"92c399ff","getRuleData(uint256)":"069a3ee9","getRuleDataV2(uint256)":"68ab7dd6","postEntitlementCheckResult(bytes32,uint256,uint8)":"4739e805","postEntitlementCheckResultV2(bytes32,uint256,uint8)":"e58690f2","requestEntitlementCheck(uint256,((uint8,uint8)[],(uint8,uint256,address,uint256)[],(uint8,uint8,uint8)[]))":"57e70027","requestEntitlementCheckV2(uint256[],((uint8,uint8)[],(uint8,uint256,address,bytes)[],(uint8,uint8,uint8)[]))":"83f1cfa5","requestEntitlementCheckV3(uint256[],((uint8,uint8)[],(uint8,uint256,address,bytes)[],(uint8,uint8,uint8)[]))":"a0d7fb80"},"id":382}