{"abi":[{"type":"constructor","inputs":[{"name":"approvedOperators","type":"address[]","internalType":"address[]"}],"stateMutability":"nonpayable"},{"type":"function","name":"__OperatorRegistry_init","inputs":[{"name":"initialOperators","type":"address[]","internalType":"address[]"}],"outputs":[],"stateMutability":"nonpayable"},{"type":"function","name":"__RiverConfig_init","inputs":[{"name":"configManagers","type":"address[]","internalType":"address[]"}],"outputs":[],"stateMutability":"nonpayable"},{"type":"function","name":"allocateStream","inputs":[{"name":"streamId","type":"bytes32","internalType":"bytes32"},{"name":"nodes","type":"address[]","internalType":"address[]"},{"name":"genesisMiniblockHash","type":"bytes32","internalType":"bytes32"},{"name":"genesisMiniblock","type":"bytes","internalType":"bytes"}],"outputs":[],"stateMutability":"nonpayable"},{"type":"function","name":"approveConfigurationManager","inputs":[{"name":"manager","type":"address","internalType":"address"}],"outputs":[],"stateMutability":"nonpayable"},{"type":"function","name":"approveOperator","inputs":[{"name":"operator","type":"address","internalType":"address"}],"outputs":[],"stateMutability":"nonpayable"},{"type":"function","name":"configurationExists","inputs":[{"name":"key","type":"bytes32","internalType":"bytes32"}],"outputs":[{"name":"","type":"bool","internalType":"bool"}],"stateMutability":"view"},{"type":"function","name":"deleteConfiguration","inputs":[{"name":"key","type":"bytes32","internalType":"bytes32"}],"outputs":[],"stateMutability":"nonpayable"},{"type":"function","name":"deleteConfigurationOnBlock","inputs":[{"name":"key","type":"bytes32","internalType":"bytes32"},{"name":"blockNumber","type":"uint64","internalType":"uint64"}],"outputs":[],"stateMutability":"nonpayable"},{"type":"function","name":"getAllConfiguration","inputs":[],"outputs":[{"name":"","type":"tuple[]","internalType":"struct Setting[]","components":[{"name":"key","type":"bytes32","internalType":"bytes32"},{"name":"blockNumber","type":"uint64","internalType":"uint64"},{"name":"value","type":"bytes","internalType":"bytes"}]}],"stateMutability":"view"},{"type":"function","name":"getAllNodeAddresses","inputs":[],"outputs":[{"name":"","type":"address[]","internalType":"address[]"}],"stateMutability":"view"},{"type":"function","name":"getAllNodes","inputs":[],"outputs":[{"name":"","type":"tuple[]","internalType":"struct Node[]","components":[{"name":"status","type":"uint8","internalType":"enum NodeStatus"},{"name":"url","type":"string","internalType":"string"},{"name":"nodeAddress","type":"address","internalType":"address"},{"name":"operator","type":"address","internalType":"address"}]}],"stateMutability":"view"},{"type":"function","name":"getAllOperators","inputs":[],"outputs":[{"name":"","type":"address[]","internalType":"address[]"}],"stateMutability":"view"},{"type":"function","name":"getConfiguration","inputs":[{"name":"key","type":"bytes32","internalType":"bytes32"}],"outputs":[{"name":"","type":"tuple[]","internalType":"struct Setting[]","components":[{"name":"key","type":"bytes32","internalType":"bytes32"},{"name":"blockNumber","type":"uint64","internalType":"uint64"},{"name":"value","type":"bytes","internalType":"bytes"}]}],"stateMutability":"view"},{"type":"function","name":"getNode","inputs":[{"name":"nodeAddress","type":"address","internalType":"address"}],"outputs":[{"name":"","type":"tuple","internalType":"struct Node","components":[{"name":"status","type":"uint8","internalType":"enum NodeStatus"},{"name":"url","type":"string","internalType":"string"},{"name":"nodeAddress","type":"address","internalType":"address"},{"name":"operator","type":"address","internalType":"address"}]}],"stateMutability":"view"},{"type":"function","name":"getNodeCount","inputs":[],"outputs":[{"name":"","type":"uint256","internalType":"uint256"}],"stateMutability":"view"},{"type":"function","name":"getPaginatedStreams","inputs":[{"name":"start","type":"uint256","internalType":"uint256"},{"name":"stop","type":"uint256","internalType":"uint256"}],"outputs":[{"name":"","type":"tuple[]","internalType":"struct StreamWithId[]","components":[{"name":"id","type":"bytes32","internalType":"bytes32"},{"name":"stream","type":"tuple","internalType":"struct Stream","components":[{"name":"lastMiniblockHash","type":"bytes32","internalType":"bytes32"},{"name":"lastMiniblockNum","type":"uint64","internalType":"uint64"},{"name":"reserved0","type":"uint64","internalType":"uint64"},{"name":"flags","type":"uint64","internalType":"uint64"},{"name":"nodes","type":"address[]","internalType":"address[]"}]}]},{"name":"","type":"bool","internalType":"bool"}],"stateMutability":"view"},{"type":"function","name":"getStream","inputs":[{"name":"streamId","type":"bytes32","internalType":"bytes32"}],"outputs":[{"name":"","type":"tuple","internalType":"struct Stream","components":[{"name":"lastMiniblockHash","type":"bytes32","internalType":"bytes32"},{"name":"lastMiniblockNum","type":"uint64","internalType":"uint64"},{"name":"reserved0","type":"uint64","internalType":"uint64"},{"name":"flags","type":"uint64","internalType":"uint64"},{"name":"nodes","type":"address[]","internalType":"address[]"}]}],"stateMutability":"view"},{"type":"function","name":"getStreamCount","inputs":[],"outputs":[{"name":"","type":"uint256","internalType":"uint256"}],"stateMutability":"view"},{"type":"function","name":"getStreamCountOnNode","inputs":[{"name":"nodeAddress","type":"address","internalType":"address"}],"outputs":[{"name":"","type":"uint256","internalType":"uint256"}],"stateMutability":"view"},{"type":"function","name":"getStreamWithGenesis","inputs":[{"name":"streamId","type":"bytes32","internalType":"bytes32"}],"outputs":[{"name":"","type":"tuple","internalType":"struct Stream","components":[{"name":"lastMiniblockHash","type":"bytes32","internalType":"bytes32"},{"name":"lastMiniblockNum","type":"uint64","internalType":"uint64"},{"name":"reserved0","type":"uint64","internalType":"uint64"},{"name":"flags","type":"uint64","internalType":"uint64"},{"name":"nodes","type":"address[]","internalType":"address[]"}]},{"name":"","type":"bytes32","internalType":"bytes32"},{"name":"","type":"bytes","internalType":"bytes"}],"stateMutability":"view"},{"type":"function","name":"isConfigurationManager","inputs":[{"name":"manager","type":"address","internalType":"address"}],"outputs":[{"name":"","type":"bool","internalType":"bool"}],"stateMutability":"view"},{"type":"function","name":"isOperator","inputs":[{"name":"operator","type":"address","internalType":"address"}],"outputs":[{"name":"","type":"bool","internalType":"bool"}],"stateMutability":"view"},{"type":"function","name":"isStream","inputs":[{"name":"streamId","type":"bytes32","internalType":"bytes32"}],"outputs":[{"name":"","type":"bool","internalType":"bool"}],"stateMutability":"view"},{"type":"function","name":"placeStreamOnNode","inputs":[{"name":"streamId","type":"bytes32","internalType":"bytes32"},{"name":"nodeAddress","type":"address","internalType":"address"}],"outputs":[],"stateMutability":"nonpayable"},{"type":"function","name":"registerNode","inputs":[{"name":"nodeAddress","type":"address","internalType":"address"},{"name":"url","type":"string","internalType":"string"},{"name":"status","type":"uint8","internalType":"enum NodeStatus"}],"outputs":[],"stateMutability":"nonpayable"},{"type":"function","name":"removeConfigurationManager","inputs":[{"name":"manager","type":"address","internalType":"address"}],"outputs":[],"stateMutability":"nonpayable"},{"type":"function","name":"removeNode","inputs":[{"name":"nodeAddress","type":"address","internalType":"address"}],"outputs":[],"stateMutability":"nonpayable"},{"type":"function","name":"removeOperator","inputs":[{"name":"operator","type":"address","internalType":"address"}],"outputs":[],"stateMutability":"nonpayable"},{"type":"function","name":"removeStreamFromNode","inputs":[{"name":"streamId","type":"bytes32","internalType":"bytes32"},{"name":"nodeAddress","type":"address","internalType":"address"}],"outputs":[],"stateMutability":"nonpayable"},{"type":"function","name":"setConfiguration","inputs":[{"name":"key","type":"bytes32","internalType":"bytes32"},{"name":"blockNumber","type":"uint64","internalType":"uint64"},{"name":"value","type":"bytes","internalType":"bytes"}],"outputs":[],"stateMutability":"nonpayable"},{"type":"function","name":"setStreamLastMiniblock","inputs":[{"name":"streamId","type":"bytes32","internalType":"bytes32"},{"name":"","type":"bytes32","internalType":"bytes32"},{"name":"lastMiniblockHash","type":"bytes32","internalType":"bytes32"},{"name":"lastMiniblockNum","type":"uint64","internalType":"uint64"},{"name":"isSealed","type":"bool","internalType":"bool"}],"outputs":[],"stateMutability":"nonpayable"},{"type":"function","name":"setStreamLastMiniblockBatch","inputs":[{"name":"miniblocks","type":"tuple[]","internalType":"struct SetMiniblock[]","components":[{"name":"streamId","type":"bytes32","internalType":"bytes32"},{"name":"prevMiniBlockHash","type":"bytes32","internalType":"bytes32"},{"name":"lastMiniblockHash","type":"bytes32","internalType":"bytes32"},{"name":"lastMiniblockNum","type":"uint64","internalType":"uint64"},{"name":"isSealed","type":"bool","internalType":"bool"}]}],"outputs":[],"stateMutability":"nonpayable"},{"type":"function","name":"updateNodeStatus","inputs":[{"name":"nodeAddress","type":"address","internalType":"address"},{"name":"status","type":"uint8","internalType":"enum NodeStatus"}],"outputs":[],"stateMutability":"nonpayable"},{"type":"function","name":"updateNodeUrl","inputs":[{"name":"nodeAddress","type":"address","internalType":"address"},{"name":"url","type":"string","internalType":"string"}],"outputs":[],"stateMutability":"nonpayable"},{"type":"event","name":"ConfigurationChanged","inputs":[{"name":"key","type":"bytes32","indexed":false,"internalType":"bytes32"},{"name":"block","type":"uint64","indexed":false,"internalType":"uint64"},{"name":"value","type":"bytes","indexed":false,"internalType":"bytes"},{"name":"deleted","type":"bool","indexed":false,"internalType":"bool"}],"anonymous":false},{"type":"event","name":"ConfigurationManagerAdded","inputs":[{"name":"manager","type":"address","indexed":true,"internalType":"address"}],"anonymous":false},{"type":"event","name":"ConfigurationManagerRemoved","inputs":[{"name":"manager","type":"address","indexed":true,"internalType":"address"}],"anonymous":false},{"type":"event","name":"Initialized","inputs":[{"name":"version","type":"uint32","indexed":false,"internalType":"uint32"}],"anonymous":false},{"type":"event","name":"InterfaceAdded","inputs":[{"name":"interfaceId","type":"bytes4","indexed":true,"internalType":"bytes4"}],"anonymous":false},{"type":"event","name":"InterfaceRemoved","inputs":[{"name":"interfaceId","type":"bytes4","indexed":true,"internalType":"bytes4"}],"anonymous":false},{"type":"event","name":"NodeAdded","inputs":[{"name":"nodeAddress","type":"address","indexed":true,"internalType":"address"},{"name":"operator","type":"address","indexed":true,"internalType":"address"},{"name":"url","type":"string","indexed":false,"internalType":"string"},{"name":"status","type":"uint8","indexed":false,"internalType":"enum NodeStatus"}],"anonymous":false},{"type":"event","name":"NodeRemoved","inputs":[{"name":"nodeAddress","type":"address","indexed":true,"internalType":"address"}],"anonymous":false},{"type":"event","name":"NodeStatusUpdated","inputs":[{"name":"nodeAddress","type":"address","indexed":true,"internalType":"address"},{"name":"status","type":"uint8","indexed":false,"internalType":"enum NodeStatus"}],"anonymous":false},{"type":"event","name":"NodeUrlUpdated","inputs":[{"name":"nodeAddress","type":"address","indexed":true,"internalType":"address"},{"name":"url","type":"string","indexed":false,"internalType":"string"}],"anonymous":false},{"type":"event","name":"OperatorAdded","inputs":[{"name":"operatorAddress","type":"address","indexed":true,"internalType":"address"}],"anonymous":false},{"type":"event","name":"OperatorRemoved","inputs":[{"name":"operatorAddress","type":"address","indexed":true,"internalType":"address"}],"anonymous":false},{"type":"event","name":"OwnershipTransferred","inputs":[{"name":"previousOwner","type":"address","indexed":true,"internalType":"address"},{"name":"newOwner","type":"address","indexed":true,"internalType":"address"}],"anonymous":false},{"type":"event","name":"StreamAllocated","inputs":[{"name":"streamId","type":"bytes32","indexed":false,"internalType":"bytes32"},{"name":"nodes","type":"address[]","indexed":false,"internalType":"address[]"},{"name":"genesisMiniblockHash","type":"bytes32","indexed":false,"internalType":"bytes32"},{"name":"genesisMiniblock","type":"bytes","indexed":false,"internalType":"bytes"}],"anonymous":false},{"type":"event","name":"StreamLastMiniblockUpdateFailed","inputs":[{"name":"streamId","type":"bytes32","indexed":false,"internalType":"bytes32"},{"name":"lastMiniblockHash","type":"bytes32","indexed":false,"internalType":"bytes32"},{"name":"lastMiniblockNum","type":"uint64","indexed":false,"internalType":"uint64"},{"name":"reason","type":"string","indexed":false,"internalType":"string"}],"anonymous":false},{"type":"event","name":"StreamLastMiniblockUpdated","inputs":[{"name":"streamId","type":"bytes32","indexed":false,"internalType":"bytes32"},{"name":"lastMiniblockHash","type":"bytes32","indexed":false,"internalType":"bytes32"},{"name":"lastMiniblockNum","type":"uint64","indexed":false,"internalType":"uint64"},{"name":"isSealed","type":"bool","indexed":false,"internalType":"bool"}],"anonymous":false},{"type":"event","name":"StreamPlacementUpdated","inputs":[{"name":"streamId","type":"bytes32","indexed":false,"internalType":"bytes32"},{"name":"nodeAddress","type":"address","indexed":false,"internalType":"address"},{"name":"isAdded","type":"bool","indexed":false,"internalType":"bool"}],"anonymous":false},{"type":"error","name":"Initializable_InInitializingState","inputs":[]},{"type":"error","name":"Initializable_NotInInitializingState","inputs":[]},{"type":"error","name":"Introspection_AlreadySupported","inputs":[]},{"type":"error","name":"Introspection_NotSupported","inputs":[]},{"type":"error","name":"Ownable__NotOwner","inputs":[{"name":"account","type":"address","internalType":"address"}]},{"type":"error","name":"Ownable__ZeroAddress","inputs":[]}],"bytecode":{"object":"0x60806040523480156200001157600080fd5b5060405162004a3538038062004a358339810160408190526200003491620004a6565b6200003e620000c1565b620000493362000169565b60005b8151811015620000b957620000838282815181106200006f576200006f62000578565b60200260200101516200023760201b60201c565b620000b08282815181106200009c576200009c62000578565b60200260200101516200031c60201b60201c565b6001016200004c565b5050620005df565b7f59b501c3653afc186af7d48dda36cf6732bd21629a6295693664240a6ef520008054640100000000900460ff16156200010e576040516366008a2d60e01b815260040160405180910390fd5b805463ffffffff90811610156200016657805463ffffffff191663ffffffff90811782556040519081527fe9c9b456cb2994b80aeef036cf59d26e9617df80f816a6ee5a5b4166e07e2f5c9060200160405180910390a15b50565b60006200019d7f4675fa8241f86f37157864d3d49b85ad4b164352c516da28e1678a90470ae300546001600160a01b031690565b90506001600160a01b038216620001c757604051634e3ef82560e01b815260040160405180910390fd5b817f4675fa8241f86f37157864d3d49b85ad4b164352c516da28e1678a90470ae30080546001600160a01b0319166001600160a01b03928316179055604051838216918316907f8be0079c531659141344cd1fd0a4f28419497f9722a3daafe3b4186f6b6457e090600090a35050565b6001600160a01b038116620002865760408051808201825260078152664241445f41524760c81b6020820152905162461bcd60e51b81526200027d91906004016200058e565b60405180910390fd5b62000293600882620003e9565b15620002d757604080518082018252600e81526d414c52454144595f45584953545360901b6020820152905162461bcd60e51b81526200027d91906004016200058e565b620002e460088262000410565b506040516001600160a01b038216907fac6fa858e9350a46cec16539926e0fde25b7629f84b5a72bffaae4df888ae86d90600090a250565b6001600160a01b038116620003625760408051808201825260078152664241445f41524760c81b6020820152905162461bcd60e51b81526200027d91906004016200058e565b6200036f600d8262000410565b620003b257604080518082018252600e81526d414c52454144595f45584953545360901b6020820152905162461bcd60e51b81526200027d91906004016200058e565b6040516001600160a01b038216907f7afd798379ae2d2e5035438544cea2b60eb1dde6a8128e6d447fd2a25f8825a290600090a250565b6001600160a01b038116600090815260018301602052604081205415155b90505b92915050565b600062000407836001600160a01b03841660008181526001830160205260408120546200046a575081546001818101845560008481526020808220909301849055845484825282860190935260409020919091556200040a565b5060006200040a565b634e487b7160e01b600052604160045260246000fd5b80516001600160a01b0381168114620004a157600080fd5b919050565b60006020808385031215620004ba57600080fd5b82516001600160401b0380821115620004d257600080fd5b818501915085601f830112620004e757600080fd5b815181811115620004fc57620004fc62000473565b8060051b604051601f19603f8301168101818110858211171562000524576200052462000473565b6040529182528482019250838101850191888311156200054357600080fd5b938501935b828510156200056c576200055c8562000489565b8452938501939285019262000548565b98975050505050505050565b634e487b7160e01b600052603260045260246000fd5b60006020808352835180602085015260005b81811015620005be57858101830151858201604001528201620005a0565b506000604082860101526040601f19601f8301168501019250505092915050565b61444680620005ef6000396000f3fe608060405234801561001057600080fd5b50600436106102065760003560e01c8063ac8a584a1161011a578063ca78c41a116100ad578063d911c6321161007c578063d911c63214610482578063ee885b121461048a578063eecc66f41461049d578063fc207c01146104b0578063ff3a14ab146104c357600080fd5b8063ca78c41a14610428578063d0c27c4f14610449578063d4bd44a01461045c578063d7a3158a1461046f57600080fd5b8063c0f22084116100e9578063c0f22084146103e5578063c179b85f146103ed578063c87d132414610400578063c8fe3a011461041357600080fd5b8063ac8a584a14610399578063b2b99ec9146103ac578063b7f227ee146103bf578063ba428b1a146103d257600080fd5b80636b883c391161019d5780639283ae3a1161016c5780639283ae3a1461032b5780639d2090481461033e5780639ee86d381461035e578063a09449a614610371578063a1174e7d1461038457600080fd5b80636b883c39146102cf5780636d70f7ae146102e25780637e4465e714610305578063813049ec1461031857600080fd5b806331374511116101d9578063313745111461027157806339bf397e146102845780633c2544d11461029a578063581f8b9b146102bc57600080fd5b8063035759e11461020b578063081814db146102205780631290abe81461023e578063242cae9f1461025e575b600080fd5b61021e61021936600461366c565b6104d6565b005b61022861064a565b60405161023591906136d5565b60405180910390f35b61025161024c36600461366c565b6108b5565b60405161023591906137f0565b61021e61026c36600461381f565b6109d7565b61021e61027f36600461383a565b610a1e565b61028c610aaf565b604051908152602001610235565b6102ad6102a836600461366c565b610ac0565b604051610235939291906138ae565b61021e6102ca3660046138f2565b610c91565b61021e6102dd3660046139da565b610e31565b6102f56102f036600461381f565b611098565b6040519015158152602001610235565b61021e610313366004613abd565b6110ab565b61021e61032636600461381f565b6112a3565b61022861033936600461366c565b61139e565b61035161034c36600461381f565b611501565b6040516102359190613b96565b61021e61036c366004613ba9565b611682565b61021e61037f366004613be3565b611840565b61038c611b0f565b6040516102359190613c69565b61021e6103a736600461381f565b611ce3565b61021e6103ba36600461381f565b611e46565b61021e6103cd366004613ccd565b61200f565b61021e6103e036600461383a565b61225e565b61028c6122ea565b61021e6103fb36600461381f565b6122f5565b61028c61040e36600461381f565b612339565b61041b6123e7565b6040516102359190613d35565b61043b610436366004613d48565b6123f3565b604051610235929190613d6a565b6102f561045736600461366c565b6125e3565b6102f561046a36600461381f565b6125ef565b61021e61047d366004613df9565b6125fc565b61041b612808565b61021e610498366004613ba9565b612814565b61021e6104ab366004613e49565b612a5d565b6102f56104be36600461366c565b612c28565b61021e6104d1366004613ea6565b612c35565b336104e2600d82612f55565b6105255760408051808201825260088152670848288be82aaa8960c31b6020820152905162461bcd60e51b815261051c9190600401613f08565b60405180910390fd5b81610531600a82612f7a565b61056c5760408051808201825260098152681393d517d193d5539160ba1b6020820152905162461bcd60e51b815261051c9190600401613f08565b6000838152600c6020526040902054156105df576000838152600c6020526040902080548061059d5761059d613f1b565b60008281526020812060036000199093019283020181815560018101805467ffffffffffffffff19169055906105d66002830182613517565b5050905561056c565b6000838152600c602052604081206105f691613551565b610601600a84612f92565b50604080518481526001600160401b03602082015260808183018190526000908201526001606082015290516000805160206144268339815191529181900360a00190a1505050565b6060600080610659600a612f9e565b905060005b8181101561069a576000610673600a83612fa8565b6000818152600c602052604090205490915061068f9085613f47565b93505060010161065e565b506000826001600160401b038111156106b5576106b5613925565b60405190808252806020026020018201604052801561070257816020015b604080516060808201835260008083526020830152918101919091528152602001906001900390816106d35790505b5090506000610711600a612f9e565b90506000805b828110156108aa57600061072c600a83612fa8565b6000818152600c6020908152604080832080548251818502810185019093528083529495509293909291849084015b8282101561083f57600084815260209081902060408051606081018252600386029092018054835260018101546001600160401b031693830193909352600283018054929392918401916107ae90613f5a565b80601f01602080910402602001604051908101604052809291908181526020018280546107da90613f5a565b80156108275780601f106107fc57610100808354040283529160200191610827565b820191906000526020600020905b81548152906001019060200180831161080a57829003601f168201915b5050505050815250508152602001906001019061075b565b50505050905060005b815181101561089c5781818151811061086357610863613f8e565b602002602001015187868061087790613fa4565b97508151811061088957610889613f8e565b6020908102919091010152600101610848565b505050806001019050610717565b509195945050505050565b6040805160a08101825260008082526020820181905291810182905260608082018390526080820152906108e99083612f7a565b6109245760408051808201825260098152681393d517d193d5539160ba1b6020820152905162461bcd60e51b815261051c9190600401613f08565b600082815260026020818152604092839020835160a0810185528154815260018201546001600160401b0380821683860152600160401b8204811683880152600160801b90910416606082015292810180548551818502810185019096528086529394919360808601938301828280156109c757602002820191906000526020600020905b81546001600160a01b031681526001909101906020018083116109a9575b5050505050815250509050919050565b6109df612fb4565b6001600160a01b0316336001600160a01b031614610a12576040516365f4906560e01b815233600482015260240161051c565b610a1b81612fe2565b50565b7f59b501c3653afc186af7d48dda36cf6732bd21629a6295693664240a6ef5200054640100000000900460ff16610a6857604051630ef4733760e31b815260040160405180910390fd5b60005b81811015610aaa57610aa2838383818110610a8857610a88613f8e565b9050602002016020810190610a9d919061381f565b6130b4565b600101610a6b565b505050565b6000610abb6005612f9e565b905090565b6040805160a081018252600080825260208201819052918101829052606080820183905260808201819052909190610af88285612f7a565b610b335760408051808201825260098152681393d517d193d5539160ba1b6020820152905162461bcd60e51b815261051c9190600401613f08565b600084815260026020818152604080842060048352818520546003845294829020825160a0810184528254815260018301546001600160401b0380821683880152600160401b8204811683870152600160801b90910416606082015294820180548451818702810187019095528085529296959194919387936080860193919291830182828015610bed57602002820191906000526020600020905b81546001600160a01b03168152600190910190602001808311610bcf575b5050505050815250509250808054610c0490613f5a565b80601f0160208091040260200160405190810160405280929190818152602001828054610c3090613f5a565b8015610c7d5780601f10610c5257610100808354040283529160200191610c7d565b820191906000526020600020905b815481529060010190602001808311610c6057829003601f168201915b505050505090509250925092509193909250565b6001600160a01b03808316600090815260076020526040902060020154839116610cf157604080518082018252600e81526d1393d11157d393d517d193d5539160921b6020820152905162461bcd60e51b815261051c9190600401613f08565b33610cfd600882612f55565b610d375760408051808201825260088152670848288be82aaa8960c31b6020820152905162461bcd60e51b815261051c9190600401613f08565b6001600160a01b0380851660009081526007602052604090206003015485913391168114610d955760408051808201825260088152670848288be82aaa8960c31b6020820152905162461bcd60e51b815261051c9190600401613f08565b6001600160a01b03861660009081526007602052604090208054610dbc9060ff1687613179565b80548690829060ff19166001836005811115610dda57610dda613b0a565b021790555060028101546040516001600160a01b03909116907f20891cc7622c7951cbd8c70c61a5201eb45625b8c00e8f6c986cfca78f3dbfa090610e20908990613fbd565b60405180910390a250505050505050565b336000818152600760205260409020600201546001600160a01b0316610e8d57604080518082018252600e81526d1393d11157d393d517d193d5539160921b6020820152905162461bcd60e51b815261051c9190600401613f08565b610e98600086612f7a565b15610ed957604080518082018252600e81526d414c52454144595f45584953545360901b6020820152905162461bcd60e51b815261051c9190600401613f08565b835160005b81811015610f5e57610f16868281518110610efb57610efb613f8e565b60200260200101516000600501612f5590919063ffffffff16565b610f5657604080518082018252600e81526d1393d11157d393d517d193d5539160921b6020820152905162461bcd60e51b815261051c9190600401613f08565b600101610ede565b506040805160a081018252858152600060208201819052918101829052606081018290526080810187905290610f94908861330c565b5060008781526002602081815260409283902084518155818501516001820180549587015160608801516001600160401b03908116600160801b0267ffffffffffffffff60801b19928216600160401b026fffffffffffffffffffffffffffffffff1990991691909416179690961795909516179093556080840151805185949361102493908501920190613572565b505050600087815260036020526040902061103f8582614030565b5060008781526004602052604090819020869055517f55ef7efc60ef99743e54209752c9a8e047e013917ec91572db75875069dd65bb906110879089908990899089906140e9565b60405180910390a150505050505050565b60006110a5600883612f55565b92915050565b336110b7600882612f55565b6110f15760408051808201825260088152670848288be82aaa8960c31b6020820152905162461bcd60e51b815261051c9190600401613f08565b6001600160a01b0380841660009081526007602052604090206002015484911661115157604080518082018252600e81526d1393d11157d393d517d193d5539160921b6020820152905162461bcd60e51b815261051c9190600401613f08565b6001600160a01b03808516600090815260076020526040902060030154859133911681146111af5760408051808201825260088152670848288be82aaa8960c31b6020820152905162461bcd60e51b815261051c9190600401613f08565b6001600160a01b03861660009081526007602090815260409182902091516111d991889101614125565b60405160208183030381529060405280519060200120816001016040516020016112039190614141565b60405160208183030381529060405280519060200120036112535760408051808201825260078152664241445f41524760c81b6020820152905162461bcd60e51b815261051c9190600401613f08565b600181016112618782614030565b5060028101546040516001600160a01b03909116907f4505168a8705a16fd4d0575197fd0f510db69df93a065e158ad2c0957ba12bac90610e20908990613f08565b6112ab612fb4565b6001600160a01b0316336001600160a01b0316146112de576040516365f4906560e01b815233600482015260240161051c565b6001600160a01b0381166113215760408051808201825260078152664241445f41524760c81b6020820152905162461bcd60e51b815261051c9190600401613f08565b61132c600d82613318565b6113675760408051808201825260098152681393d517d193d5539160ba1b6020820152905162461bcd60e51b815261051c9190600401613f08565b6040516001600160a01b038216907ff9889c857e5356066b564327caa757c325ecbc001b2b47d72edf8cf9aedb1be590600090a250565b6060816113ac600a82612f7a565b6113e75760408051808201825260098152681393d517d193d5539160ba1b6020820152905162461bcd60e51b815261051c9190600401613f08565b6000838152600c6020908152604080832080548251818502810185019093528083529193909284015b828210156114f457600084815260209081902060408051606081018252600386029092018054835260018101546001600160401b0316938301939093526002830180549293929184019161146390613f5a565b80601f016020809104026020016040519081016040528092919081815260200182805461148f90613f5a565b80156114dc5780601f106114b1576101008083540402835291602001916114dc565b820191906000526020600020905b8154815290600101906020018083116114bf57829003601f168201915b50505050508152505081526020019060010190611410565b5050505091505b50919050565b61152c6040805160808101909152806000815260606020820181905260006040830181905291015290565b611537600583612f55565b61157757604080518082018252600e81526d1393d11157d393d517d193d5539160921b6020820152905162461bcd60e51b815261051c9190600401613f08565b6001600160a01b038216600090815260076020526040908190208151608081019092528054829060ff1660058111156115b2576115b2613b0a565b60058111156115c3576115c3613b0a565b81526020016001820180546115d790613f5a565b80601f016020809104026020016040519081016040528092919081815260200182805461160390613f5a565b80156116505780601f1061162557610100808354040283529160200191611650565b820191906000526020600020905b81548152906001019060200180831161163357829003601f168201915b505050918352505060028201546001600160a01b03908116602083015260039092015490911660409091015292915050565b8161168e600082612f7a565b6116c95760408051808201825260098152681393d517d193d5539160ba1b6020820152905162461bcd60e51b815261051c9190600401613f08565b336000818152600760205260409020600201546001600160a01b031661172557604080518082018252600e81526d1393d11157d393d517d193d5539160921b6020820152905162461bcd60e51b815261051c9190600401613f08565b600084815260026020819052604082209081015490915b818110156117c157856001600160a01b031683600201828154811061176357611763613f8e565b6000918252602090912001546001600160a01b0316036117b957604080518082018252600e81526d414c52454144595f45584953545360901b6020820152905162461bcd60e51b815261051c9190600401613f08565b60010161173c565b5060028201805460018082018355600092835260209283902090910180546001600160a01b0319166001600160a01b038916908117909155604080518a8152938401919091528201527faaa473c28a5fe04b6a7ecd795826e462f9d0c23f00ef9f51ec02fa6ea418806f906060015b60405180910390a1505050505050565b3361184c600d82612f55565b6118865760408051808201825260088152670848288be82aaa8960c31b6020820152905162461bcd60e51b815261051c9190600401613f08565b67fffffffffffffffe196001600160401b038516016118d45760408051808201825260078152664241445f41524760c81b6020820152905162461bcd60e51b815261051c9190600401613f08565b60008290036119125760408051808201825260078152664241445f41524760c81b6020820152905162461bcd60e51b815261051c9190600401613f08565b61191d600a86612f7a565b61192e5761192c600a8661330c565b505b6000858152600c6020526040812054905b81811015611a15576000878152600c6020526040902080546001600160401b03881691908390811061197357611973613f8e565b60009182526020909120600160039092020101546001600160401b031603611a0d576000878152600c60205260409020805486918691849081106119b9576119b9613f8e565b906000526020600020906003020160020191826119d79291906141b7565b506000805160206144268339815191528787878760006040516119fe959493929190614270565b60405180910390a15050611b08565b60010161193f565b506000600c0160008781526020019081526020016000206040518060600160405280888152602001876001600160401b0316815260200186868080601f0160208091040260200160405190810160405280939291908181526020018383808284376000920182905250939094525050835460018082018655948252602091829020845160039092020190815590830151938101805467ffffffffffffffff19166001600160401b03909516949094179093555060408101519091906002820190611adf9082614030565b505050600080516020614426833981519152868686866000604051611830959493929190614270565b5050505050565b60606000611b1d6005612f9e565b6001600160401b03811115611b3457611b34613925565b604051908082528060200260200182016040528015611b9057816020015b611b7d6040805160808101909152806000815260606020820181905260006040830181905291015290565b815260200190600190039081611b525790505b50905060005b611ba06005612f9e565b8110156114fb5760076000611bb6600584612fa8565b6001600160a01b03168152602081019190915260409081016000208151608081019092528054829060ff166005811115611bf257611bf2613b0a565b6005811115611c0357611c03613b0a565b8152602001600182018054611c1790613f5a565b80601f0160208091040260200160405190810160405280929190818152602001828054611c4390613f5a565b8015611c905780601f10611c6557610100808354040283529160200191611c90565b820191906000526020600020905b815481529060010190602001808311611c7357829003601f168201915b505050918352505060028201546001600160a01b0390811660208301526003909201549091166040909101528251839083908110611cd057611cd0613f8e565b6020908102919091010152600101611b96565b611ceb612fb4565b6001600160a01b0316336001600160a01b031614611d1e576040516365f4906560e01b815233600482015260240161051c565b611d29600882612f55565b611d6d57604080518082018252601281527113d41154905513d497d393d517d193d5539160721b6020820152905162461bcd60e51b815261051c9190600401613f08565b60005b611d7a6005612f9e565b811015611e02576001600160a01b03821660076000611d9a600585612fa8565b6001600160a01b0390811682526020820192909252604001600020600301541603611dfa57604080518082018252600d81526c4f55545f4f465f424f554e445360981b6020820152905162461bcd60e51b815261051c9190600401613f08565b600101611d70565b50611e0e600882613318565b506040516001600160a01b038216907f80c0b871b97b595b16a7741c1b06fed0c6f6f558639f18ccbce50724325dc40d90600090a250565b6001600160a01b0380821660009081526007602052604090206003015482913391168114611ea45760408051808201825260088152670848288be82aaa8960c31b6020820152905162461bcd60e51b815261051c9190600401613f08565b6001600160a01b0383811660009081526007602052604090206002015416611f0257604080518082018252600e81526d1393d11157d393d517d193d5539160921b6020820152905162461bcd60e51b815261051c9190600401613f08565b60056001600160a01b03841660009081526007602052604090205460ff166005811115611f3157611f31613b0a565b14611f7a5760408051808201825260168152751393d11157d4d510551157d393d517d0531313d5d15160521b6020820152905162461bcd60e51b815261051c9190600401613f08565b611f85600584613318565b506001600160a01b0383166000908152600760205260408120805460ff1916815590611fb46001830182613517565b506002810180546001600160a01b03199081169091556003909101805490911690556040516001600160a01b038416907fcfc24166db4bb677e857cacabd1541fb2b30645021b27c5130419589b84db52b90600090a2505050565b3361201b600d82612f55565b6120555760408051808201825260088152670848288be82aaa8960c31b6020820152905162461bcd60e51b815261051c9190600401613f08565b6000805b6000858152600c60205260409020548110156121d6576000858152600c6020526040902080546001600160401b03861691908390811061209b5761209b613f8e565b60009182526020909120600160039092020101546001600160401b0316036121ce576000858152600c6020526040902080546120d9906001906142c0565b815481106120e9576120e9613f8e565b90600052602060002090600302016000600c016000878152602001908152602001600020828154811061211e5761211e613f8e565b600091825260209091208254600390920201908155600180830154908201805467ffffffffffffffff19166001600160401b0390921691909117905560028082019061216c908401826142d3565b5050506000858152600c6020526040902080548061218c5761218c613f1b565b60008281526020812060036000199093019283020181815560018101805467ffffffffffffffff19169055906121c56002830182613517565b50509055600191505b600101612059565b50806122135760408051808201825260098152681393d517d193d5539160ba1b6020820152905162461bcd60e51b815261051c9190600401613f08565b604080518581526001600160401b038516602082015260808183018190526000908201526001606082015290516000805160206144268339815191529181900360a00190a150505050565b7f59b501c3653afc186af7d48dda36cf6732bd21629a6295693664240a6ef5200054640100000000900460ff166122a857604051630ef4733760e31b815260040160405180910390fd5b60005b81811015610aaa576122e28383838181106122c8576122c8613f8e565b90506020020160208101906122dd919061381f565b612fe2565b6001016122ab565b6000610abb81612f9e565b6122fd612fb4565b6001600160a01b0316336001600160a01b031614612330576040516365f4906560e01b815233600482015260240161051c565b610a1b816130b4565b6000808061234681612f9e565b905060005b818110156123de57600061235f8183612fa8565b60008181526002602052604081209192505b60028201548110156123d057876001600160a01b031682600201828154811061239c5761239c613f8e565b6000918252602090912001546001600160a01b0316036123c857856123c081613fa4565b9650506123d0565b600101612371565b50505080600101905061234b565b50909392505050565b6060610abb600561332d565b606060008284106124335760408051808201825260078152664241445f41524760c81b6020820152905162461bcd60e51b815261051c9190600401613f08565b600061243e81612f9e565b9050600081851161244f5784612451565b815b9050600086821161246357600061246d565b61246d87836142c0565b90506000816001600160401b0381111561248957612489613925565b6040519080825280602002602001820160405280156124c257816020015b6124af6135d7565b8152602001906001900390816124a75790505b50905060005b828110156125d25760006124e76124df838c613f47565b600090612fa8565b60408051808201825282815260008381526002602081815291849020845160a0810186528154815260018201546001600160401b0380821683870152600160401b8204811683890152600160801b90910416606082015291810180548651818602810186019097528087529697509395838701959294919360808601939291908301828280156125a057602002820191906000526020600020905b81546001600160a01b03168152600190910190602001808311612582575b5050505050815250508152508383815181106125be576125be613f8e565b6020908102919091010152506001016124c8565b509450505083101590509250929050565b60006110a58183612f7a565b60006110a5600d83612f55565b336000818152600760205260409020600201546001600160a01b031661265857604080518082018252600e81526d1393d11157d393d517d193d5539160921b6020820152905162461bcd60e51b815261051c9190600401613f08565b612663600087612f7a565b61269e5760408051808201825260098152681393d517d193d5539160ba1b6020820152905162461bcd60e51b815261051c9190600401613f08565b6000868152600260205260409020600180820154600160801b900416156126fa57604080518082018252600d81526c14d51491505357d4d150531151609a1b6020820152905162461bcd60e51b815261051c9190600401613f08565b60018101546001600160401b038086169116106127465760408051808201825260078152664241445f41524760c81b6020820152905162461bcd60e51b815261051c9190600401613f08565b600087815260036020526040812061275d91613517565b84815560018101805467ffffffffffffffff19166001600160401b03861617905582156127b7576001818101805467ffffffffffffffff60801b198116600160801b918290046001600160401b0316909317029190911790555b60408051888152602081018790526001600160401b0386169181019190915283151560608201527fccc26bbb6dd655ea0bb8a40a3c30e35c6bdf42f8faf0d71bbea897af768cda8b90608001611087565b6060610abb600861332d565b81612820600082612f7a565b61285b5760408051808201825260098152681393d517d193d5539160ba1b6020820152905162461bcd60e51b815261051c9190600401613f08565b336000818152600760205260409020600201546001600160a01b03166128b757604080518082018252600e81526d1393d11157d393d517d193d5539160921b6020820152905162461bcd60e51b815261051c9190600401613f08565b6000848152600260208190526040822090810154909190815b818110156129d257866001600160a01b03168460020182815481106128f7576128f7613f8e565b6000918252602090912001546001600160a01b0316036129ca57600284016129206001846142c0565b8154811061293057612930613f8e565b6000918252602090912001546002850180546001600160a01b03909216918390811061295e5761295e613f8e565b9060005260206000200160006101000a8154816001600160a01b0302191690836001600160a01b031602179055508360020180548061299f5761299f613f1b565b600082815260209020810160001990810180546001600160a01b0319169055019055600192506129d2565b6001016128d0565b5081612a1457604080518082018252600e81526d1393d11157d393d517d193d5539160921b6020820152905162461bcd60e51b815261051c9190600401613f08565b604080518881526001600160a01b03881660208201526000918101919091527faaa473c28a5fe04b6a7ecd795826e462f9d0c23f00ef9f51ec02fa6ea418806f90606001611087565b33612a69600882612f55565b612aa35760408051808201825260088152670848288be82aaa8960c31b6020820152905162461bcd60e51b815261051c9190600401613f08565b6001600160a01b038481166000908152600760205260409020600201541615612b0257604080518082018252600e81526d414c52454144595f45584953545360901b6020820152905162461bcd60e51b815261051c9190600401613f08565b60006040518060800160405280846005811115612b2157612b21613b0a565b8152602081018690526001600160a01b0387166040820152336060909101529050612b4d60058661333a565b506001600160a01b03851660009081526007602052604090208151815483929190829060ff19166001836005811115612b8857612b88613b0a565b021790555060208201516001820190612ba19082614030565b506040828101516002830180546001600160a01b03199081166001600160a01b03938416179091556060909401516003909301805490941692811692909217909255905133918716907f759154d15a6aec80ceab7bc8820f46ebc53ad68bb18f47afb77483fea9dcc9ff90612c19908890889061439f565b60405180910390a35050505050565b60006110a5600a83612f7a565b336000818152600760205260409020600201546001600160a01b0316612c9157604080518082018252600e81526d1393d11157d393d517d193d5539160921b6020820152905162461bcd60e51b815261051c9190600401613f08565b816000819003612cd05760408051808201825260078152664241445f41524760c81b6020820152905162461bcd60e51b815261051c9190600401613f08565b60005b81811015611b085736858583818110612cee57612cee613f8e565b60a002919091019150612d05905060008235612f7a565b612d7d577f75460fe319331413a18a82d99b07735cec53fa0c4061ada38c2141e331082afa81356040830135612d4160808501606086016143c1565b60408051808201825260098152681393d517d193d5539160ba1b60208201529051612d6f94939291906143dc565b60405180910390a150612f4d565b80356000908152600260205260409020600180820154600160801b90041615612e19577f75460fe319331413a18a82d99b07735cec53fa0c4061ada38c2141e331082afa82356040840135612dd860808601606087016143c1565b604080518082018252600d81526c14d51491505357d4d150531151609a1b60208201529051612e0a94939291906143dc565b60405180910390a15050612f4d565b60018101546001600160401b0316600003612e475781356000908152600360205260408120612e4791613517565b60408201358155612e5e60808301606084016143c1565b60018201805467ffffffffffffffff19166001600160401b0392909216919091179055612e9160a083016080840161440a565b15612ec9576001818101805467ffffffffffffffff60801b198116600160801b918290046001600160401b0316909317029190911790555b7fccc26bbb6dd655ea0bb8a40a3c30e35c6bdf42f8faf0d71bbea897af768cda8b82356040840135612f0160808601606087016143c1565b612f1160a087016080880161440a565b604051612f42949392919093845260208401929092526001600160401b031660408301521515606082015260800190565b60405180910390a150505b600101612cd3565b6001600160a01b038116600090815260018301602052604081205415155b9392505050565b60008181526001830160205260408120541515612f73565b6000612f73838361334f565b60006110a5825490565b6000612f738383613442565b7f4675fa8241f86f37157864d3d49b85ad4b164352c516da28e1678a90470ae300546001600160a01b031690565b6001600160a01b0381166130255760408051808201825260078152664241445f41524760c81b6020820152905162461bcd60e51b815261051c9190600401613f08565b613030600882612f55565b1561307157604080518082018252600e81526d414c52454144595f45584953545360901b6020820152905162461bcd60e51b815261051c9190600401613f08565b61307c60088261333a565b506040516001600160a01b038216907fac6fa858e9350a46cec16539926e0fde25b7629f84b5a72bffaae4df888ae86d90600090a250565b6001600160a01b0381166130f75760408051808201825260078152664241445f41524760c81b6020820152905162461bcd60e51b815261051c9190600401613f08565b613102600d8261333a565b61314257604080518082018252600e81526d414c52454144595f45584953545360901b6020820152905162461bcd60e51b815261051c9190600401613f08565b6040516001600160a01b038216907f7afd798379ae2d2e5035438544cea2b60eb1dde6a8128e6d447fd2a25f8825a290600090a250565b600082600581111561318d5761318d613b0a565b14806131e1575060018260058111156131a8576131a8613b0a565b1480156131e1575060038160058111156131c4576131c4613b0a565b14806131e1575060048160058111156131df576131df613b0a565b145b80613234575060028260058111156131fb576131fb613b0a565b1480156132345750600381600581111561321757613217613b0a565b14806132345750600481600581111561323257613232613b0a565b145b806132875750600482600581111561324e5761324e613b0a565b1480156132875750600381600581111561326a5761326a613b0a565b14806132875750600581600581111561328557613285613b0a565b145b806132bf575060038260058111156132a1576132a1613b0a565b1480156132bf575060058160058111156132bd576132bd613b0a565b145b156132c8575050565b60408051808201825260168152751393d11157d4d510551157d393d517d0531313d5d15160521b6020820152905162461bcd60e51b815261051c9190600401613f08565b6000612f73838361346c565b6000612f73836001600160a01b03841661334f565b60606000612f73836134bb565b6000612f73836001600160a01b03841661346c565b600081815260018301602052604081205480156134385760006133736001836142c0565b8554909150600090613387906001906142c0565b90508082146133ec5760008660000182815481106133a7576133a7613f8e565b90600052602060002001549050808760000184815481106133ca576133ca613f8e565b6000918252602080832090910192909255918252600188019052604090208390555b85548690806133fd576133fd613f1b565b6001900381819060005260206000200160009055905585600101600086815260200190815260200160002060009055600193505050506110a5565b60009150506110a5565b600082600001828154811061345957613459613f8e565b9060005260206000200154905092915050565b60008181526001830160205260408120546134b3575081546001818101845560008481526020808220909301849055845484825282860190935260409020919091556110a5565b5060006110a5565b60608160000180548060200260200160405190810160405280929190818152602001828054801561350b57602002820191906000526020600020905b8154815260200190600101908083116134f7575b50505050509050919050565b50805461352390613f5a565b6000825580601f10613533575050565b601f016020900490600052602060002090810190610a1b9190613621565b5080546000825560030290600052602060002090810190610a1b9190613636565b8280548282559060005260206000209081019282156135c7579160200282015b828111156135c757825182546001600160a01b0319166001600160a01b03909116178255602090920191600190910190613592565b506135d3929150613621565b5090565b60408051808201909152600081526020810161361c6040805160a081018252600080825260208201819052918101829052606080820192909252608081019190915290565b905290565b5b808211156135d35760008155600101613622565b808211156135d357600080825560018201805467ffffffffffffffff191690556136636002830182613517565b50600301613636565b60006020828403121561367e57600080fd5b5035919050565b60005b838110156136a0578181015183820152602001613688565b50506000910152565b600081518084526136c1816020860160208601613685565b601f01601f19169290920160200192915050565b600060208083018184528085518083526040925060408601915060408160051b87010184880160005b8381101561375157888303603f19018552815180518452878101516001600160401b031688850152860151606087850181905261373d818601836136a9565b9689019694505050908601906001016136fe565b509098975050505050505050565b600060a08301825184526020808401516001600160401b0380821660208801528060408701511660408801528060608701511660608801525050608084015160a0608087015282815180855260c088019150602083019450600092505b808310156137e55784516001600160a01b031682529383019360019290920191908301906137bc565b509695505050505050565b602081526000612f73602083018461375f565b80356001600160a01b038116811461381a57600080fd5b919050565b60006020828403121561383157600080fd5b612f7382613803565b6000806020838503121561384d57600080fd5b82356001600160401b038082111561386457600080fd5b818501915085601f83011261387857600080fd5b81358181111561388757600080fd5b8660208260051b850101111561389c57600080fd5b60209290920196919550909350505050565b6060815260006138c1606083018661375f565b84602084015282810360408401526138d981856136a9565b9695505050505050565b80356006811061381a57600080fd5b6000806040838503121561390557600080fd5b61390e83613803565b915061391c602084016138e3565b90509250929050565b634e487b7160e01b600052604160045260246000fd5b604051601f8201601f191681016001600160401b038111828210171561396357613963613925565b604052919050565b600082601f83011261397c57600080fd5b81356001600160401b0381111561399557613995613925565b6139a8601f8201601f191660200161393b565b8181528460208386010111156139bd57600080fd5b816020850160208301376000918101602001919091529392505050565b600080600080608085870312156139f057600080fd5b843593506020808601356001600160401b0380821115613a0f57600080fd5b818801915088601f830112613a2357600080fd5b813581811115613a3557613a35613925565b8060051b613a4485820161393b565b918252838101850191858101908c841115613a5e57600080fd5b948601945b83861015613a8357613a7486613803565b82529486019490860190613a63565b9850505050604088013594506060880135925080831115613aa357600080fd5b5050613ab18782880161396b565b91505092959194509250565b60008060408385031215613ad057600080fd5b613ad983613803565b915060208301356001600160401b03811115613af457600080fd5b613b008582860161396b565b9150509250929050565b634e487b7160e01b600052602160045260246000fd5b60068110613b3e57634e487b7160e01b600052602160045260246000fd5b9052565b613b4d828251613b20565b6000602082015160806020850152613b6860808501826136a9565b6040848101516001600160a01b03908116918701919091526060948501511693909401929092525090919050565b602081526000612f736020830184613b42565b60008060408385031215613bbc57600080fd5b8235915061391c60208401613803565b80356001600160401b038116811461381a57600080fd5b60008060008060608587031215613bf957600080fd5b84359350613c0960208601613bcc565b925060408501356001600160401b0380821115613c2557600080fd5b818701915087601f830112613c3957600080fd5b813581811115613c4857600080fd5b886020828501011115613c5a57600080fd5b95989497505060200194505050565b600060208083016020845280855180835260408601915060408160051b87010192506020870160005b82811015613cc057603f19888603018452613cae858351613b42565b94509285019290850190600101613c92565b5092979650505050505050565b60008060408385031215613ce057600080fd5b8235915061391c60208401613bcc565b60008151808452602080850194506020840160005b83811015613d2a5781516001600160a01b031687529582019590820190600101613d05565b509495945050505050565b602081526000612f736020830184613cf0565b60008060408385031215613d5b57600080fd5b50508035926020909101359150565b600060408083016040845280865180835260608601915060608160051b8701019250602080890160005b83811015613dd357888603605f19018552815180518752830151838701889052613dc08888018261375f565b9650509382019390820190600101613d94565b5050961515959096019490945295945050505050565b8035801515811461381a57600080fd5b600080600080600060a08688031215613e1157600080fd5b853594506020860135935060408601359250613e2f60608701613bcc565b9150613e3d60808701613de9565b90509295509295909350565b600080600060608486031215613e5e57600080fd5b613e6784613803565b925060208401356001600160401b03811115613e8257600080fd5b613e8e8682870161396b565b925050613e9d604085016138e3565b90509250925092565b60008060208385031215613eb957600080fd5b82356001600160401b0380821115613ed057600080fd5b818501915085601f830112613ee457600080fd5b813581811115613ef357600080fd5b86602060a08302850101111561389c57600080fd5b602081526000612f7360208301846136a9565b634e487b7160e01b600052603160045260246000fd5b634e487b7160e01b600052601160045260246000fd5b808201808211156110a5576110a5613f31565b600181811c90821680613f6e57607f821691505b6020821081036114fb57634e487b7160e01b600052602260045260246000fd5b634e487b7160e01b600052603260045260246000fd5b600060018201613fb657613fb6613f31565b5060010190565b602081016110a58284613b20565b601f821115610aaa576000816000526020600020601f850160051c81016020861015613ff45750805b601f850160051c820191505b8181101561401357828155600101614000565b505050505050565b600019600383901b1c191660019190911b1790565b81516001600160401b0381111561404957614049613925565b61405d816140578454613f5a565b84613fcb565b602080601f83116001811461408c576000841561407a5750858301515b614084858261401b565b865550614013565b600085815260208120601f198616915b828110156140bb5788860151825594840194600190910190840161409c565b50858210156140d95787850151600019600388901b60f8161c191681555b5050505050600190811b01905550565b8481526080602082015260006141026080830186613cf0565b846040840152828103606084015261411a81856136a9565b979650505050505050565b60008251614137818460208701613685565b9190910192915050565b600080835461414f81613f5a565b60018281168015614167576001811461417c576141ab565b60ff19841687528215158302870194506141ab565b8760005260208060002060005b858110156141a25781548a820152908401908201614189565b50505082870194505b50929695505050505050565b6001600160401b038311156141ce576141ce613925565b6141e2836141dc8354613f5a565b83613fcb565b6000601f84116001811461421057600085156141fe5750838201355b614208868261401b565b845550611b08565b600083815260209020601f19861690835b828110156142415786850135825560209485019460019092019101614221565b508682101561425e5760001960f88860031b161c19848701351681555b505060018560011b0183555050505050565b8581526001600160401b038516602082015260806040820152826080820152828460a0830137600081840160a0908101919091529115156060820152601f909201601f1916909101019392505050565b818103818111156110a5576110a5613f31565b8181036142de575050565b6142e88254613f5a565b6001600160401b038111156142ff576142ff613925565b61430d816140578454613f5a565b6000601f82116001811461433b57600083156143295750848201545b614333848261401b565b855550611b08565b600085815260209020601f19841690600086815260209020845b838110156143755782860154825560019586019590910190602001614355565b50858310156140d95793015460001960f8600387901b161c19169092555050600190811b01905550565b6040815260006143b260408301856136a9565b9050612f736020830184613b20565b6000602082840312156143d357600080fd5b612f7382613bcc565b8481528360208201526001600160401b03831660408201526080606082015260006138d960808301846136a9565b60006020828403121561441c57600080fd5b612f7382613de956fec01483261a841a868b99cb8802faed4ea44a1a816651c4f7ee061a96a205fe98","linkReferences":{}},"methodIdentifiers":{"__OperatorRegistry_init(address[])":"ba428b1a","__RiverConfig_init(address[])":"31374511","allocateStream(bytes32,address[],bytes32,bytes)":"6b883c39","approveConfigurationManager(address)":"c179b85f","approveOperator(address)":"242cae9f","configurationExists(bytes32)":"fc207c01","deleteConfiguration(bytes32)":"035759e1","deleteConfigurationOnBlock(bytes32,uint64)":"b7f227ee","getAllConfiguration()":"081814db","getAllNodeAddresses()":"c8fe3a01","getAllNodes()":"a1174e7d","getAllOperators()":"d911c632","getConfiguration(bytes32)":"9283ae3a","getNode(address)":"9d209048","getNodeCount()":"39bf397e","getPaginatedStreams(uint256,uint256)":"ca78c41a","getStream(bytes32)":"1290abe8","getStreamCount()":"c0f22084","getStreamCountOnNode(address)":"c87d1324","getStreamWithGenesis(bytes32)":"3c2544d1","isConfigurationManager(address)":"d4bd44a0","isOperator(address)":"6d70f7ae","isStream(bytes32)":"d0c27c4f","placeStreamOnNode(bytes32,address)":"9ee86d38","registerNode(address,string,uint8)":"eecc66f4","removeConfigurationManager(address)":"813049ec","removeNode(address)":"b2b99ec9","removeOperator(address)":"ac8a584a","removeStreamFromNode(bytes32,address)":"ee885b12","setConfiguration(bytes32,uint64,bytes)":"a09449a6","setStreamLastMiniblock(bytes32,bytes32,bytes32,uint64,bool)":"d7a3158a","setStreamLastMiniblockBatch((bytes32,bytes32,bytes32,uint64,bool)[])":"ff3a14ab","updateNodeStatus(address,uint8)":"581f8b9b","updateNodeUrl(address,string)":"7e4465e7"},"id":385}