{"abi":[{"type":"constructor","inputs":[{"name":"approvedOperators","type":"address[]","internalType":"address[]"}],"stateMutability":"nonpayable"},{"type":"function","name":"__OperatorRegistry_init","inputs":[{"name":"initialOperators","type":"address[]","internalType":"address[]"}],"outputs":[],"stateMutability":"nonpayable"},{"type":"function","name":"__RiverConfig_init","inputs":[{"name":"configManagers","type":"address[]","internalType":"address[]"}],"outputs":[],"stateMutability":"nonpayable"},{"type":"function","name":"allocateStream","inputs":[{"name":"streamId","type":"bytes32","internalType":"bytes32"},{"name":"nodes","type":"address[]","internalType":"address[]"},{"name":"genesisMiniblockHash","type":"bytes32","internalType":"bytes32"},{"name":"genesisMiniblock","type":"bytes","internalType":"bytes"}],"outputs":[],"stateMutability":"nonpayable"},{"type":"function","name":"approveConfigurationManager","inputs":[{"name":"manager","type":"address","internalType":"address"}],"outputs":[],"stateMutability":"nonpayable"},{"type":"function","name":"approveOperator","inputs":[{"name":"operator","type":"address","internalType":"address"}],"outputs":[],"stateMutability":"nonpayable"},{"type":"function","name":"configurationExists","inputs":[{"name":"key","type":"bytes32","internalType":"bytes32"}],"outputs":[{"name":"","type":"bool","internalType":"bool"}],"stateMutability":"view"},{"type":"function","name":"deleteConfiguration","inputs":[{"name":"key","type":"bytes32","internalType":"bytes32"}],"outputs":[],"stateMutability":"nonpayable"},{"type":"function","name":"deleteConfigurationOnBlock","inputs":[{"name":"key","type":"bytes32","internalType":"bytes32"},{"name":"blockNumber","type":"uint64","internalType":"uint64"}],"outputs":[],"stateMutability":"nonpayable"},{"type":"function","name":"getAllConfiguration","inputs":[],"outputs":[{"name":"","type":"tuple[]","internalType":"struct Setting[]","components":[{"name":"key","type":"bytes32","internalType":"bytes32"},{"name":"blockNumber","type":"uint64","internalType":"uint64"},{"name":"value","type":"bytes","internalType":"bytes"}]}],"stateMutability":"view"},{"type":"function","name":"getAllNodeAddresses","inputs":[],"outputs":[{"name":"","type":"address[]","internalType":"address[]"}],"stateMutability":"view"},{"type":"function","name":"getAllNodes","inputs":[],"outputs":[{"name":"","type":"tuple[]","internalType":"struct Node[]","components":[{"name":"status","type":"uint8","internalType":"enum NodeStatus"},{"name":"url","type":"string","internalType":"string"},{"name":"nodeAddress","type":"address","internalType":"address"},{"name":"operator","type":"address","internalType":"address"}]}],"stateMutability":"view"},{"type":"function","name":"getAllOperators","inputs":[],"outputs":[{"name":"","type":"address[]","internalType":"address[]"}],"stateMutability":"view"},{"type":"function","name":"getConfiguration","inputs":[{"name":"key","type":"bytes32","internalType":"bytes32"}],"outputs":[{"name":"","type":"tuple[]","internalType":"struct Setting[]","components":[{"name":"key","type":"bytes32","internalType":"bytes32"},{"name":"blockNumber","type":"uint64","internalType":"uint64"},{"name":"value","type":"bytes","internalType":"bytes"}]}],"stateMutability":"view"},{"type":"function","name":"getNode","inputs":[{"name":"nodeAddress","type":"address","internalType":"address"}],"outputs":[{"name":"","type":"tuple","internalType":"struct Node","components":[{"name":"status","type":"uint8","internalType":"enum NodeStatus"},{"name":"url","type":"string","internalType":"string"},{"name":"nodeAddress","type":"address","internalType":"address"},{"name":"operator","type":"address","internalType":"address"}]}],"stateMutability":"view"},{"type":"function","name":"getNodeCount","inputs":[],"outputs":[{"name":"","type":"uint256","internalType":"uint256"}],"stateMutability":"view"},{"type":"function","name":"getPaginatedStreams","inputs":[{"name":"start","type":"uint256","internalType":"uint256"},{"name":"stop","type":"uint256","internalType":"uint256"}],"outputs":[{"name":"","type":"tuple[]","internalType":"struct StreamWithId[]","components":[{"name":"id","type":"bytes32","internalType":"bytes32"},{"name":"stream","type":"tuple","internalType":"struct Stream","components":[{"name":"lastMiniblockHash","type":"bytes32","internalType":"bytes32"},{"name":"lastMiniblockNum","type":"uint64","internalType":"uint64"},{"name":"reserved0","type":"uint64","internalType":"uint64"},{"name":"flags","type":"uint64","internalType":"uint64"},{"name":"nodes","type":"address[]","internalType":"address[]"}]}]},{"name":"","type":"bool","internalType":"bool"}],"stateMutability":"view"},{"type":"function","name":"getStream","inputs":[{"name":"streamId","type":"bytes32","internalType":"bytes32"}],"outputs":[{"name":"","type":"tuple","internalType":"struct Stream","components":[{"name":"lastMiniblockHash","type":"bytes32","internalType":"bytes32"},{"name":"lastMiniblockNum","type":"uint64","internalType":"uint64"},{"name":"reserved0","type":"uint64","internalType":"uint64"},{"name":"flags","type":"uint64","internalType":"uint64"},{"name":"nodes","type":"address[]","internalType":"address[]"}]}],"stateMutability":"view"},{"type":"function","name":"getStreamCount","inputs":[],"outputs":[{"name":"","type":"uint256","internalType":"uint256"}],"stateMutability":"view"},{"type":"function","name":"getStreamCountOnNode","inputs":[{"name":"nodeAddress","type":"address","internalType":"address"}],"outputs":[{"name":"","type":"uint256","internalType":"uint256"}],"stateMutability":"view"},{"type":"function","name":"getStreamWithGenesis","inputs":[{"name":"streamId","type":"bytes32","internalType":"bytes32"}],"outputs":[{"name":"","type":"tuple","internalType":"struct Stream","components":[{"name":"lastMiniblockHash","type":"bytes32","internalType":"bytes32"},{"name":"lastMiniblockNum","type":"uint64","internalType":"uint64"},{"name":"reserved0","type":"uint64","internalType":"uint64"},{"name":"flags","type":"uint64","internalType":"uint64"},{"name":"nodes","type":"address[]","internalType":"address[]"}]},{"name":"","type":"bytes32","internalType":"bytes32"},{"name":"","type":"bytes","internalType":"bytes"}],"stateMutability":"view"},{"type":"function","name":"isConfigurationManager","inputs":[{"name":"manager","type":"address","internalType":"address"}],"outputs":[{"name":"","type":"bool","internalType":"bool"}],"stateMutability":"view"},{"type":"function","name":"isOperator","inputs":[{"name":"operator","type":"address","internalType":"address"}],"outputs":[{"name":"","type":"bool","internalType":"bool"}],"stateMutability":"view"},{"type":"function","name":"isStream","inputs":[{"name":"streamId","type":"bytes32","internalType":"bytes32"}],"outputs":[{"name":"","type":"bool","internalType":"bool"}],"stateMutability":"view"},{"type":"function","name":"placeStreamOnNode","inputs":[{"name":"streamId","type":"bytes32","internalType":"bytes32"},{"name":"nodeAddress","type":"address","internalType":"address"}],"outputs":[],"stateMutability":"nonpayable"},{"type":"function","name":"registerNode","inputs":[{"name":"nodeAddress","type":"address","internalType":"address"},{"name":"url","type":"string","internalType":"string"},{"name":"status","type":"uint8","internalType":"enum NodeStatus"}],"outputs":[],"stateMutability":"nonpayable"},{"type":"function","name":"removeConfigurationManager","inputs":[{"name":"manager","type":"address","internalType":"address"}],"outputs":[],"stateMutability":"nonpayable"},{"type":"function","name":"removeNode","inputs":[{"name":"nodeAddress","type":"address","internalType":"address"}],"outputs":[],"stateMutability":"nonpayable"},{"type":"function","name":"removeOperator","inputs":[{"name":"operator","type":"address","internalType":"address"}],"outputs":[],"stateMutability":"nonpayable"},{"type":"function","name":"removeStreamFromNode","inputs":[{"name":"streamId","type":"bytes32","internalType":"bytes32"},{"name":"nodeAddress","type":"address","internalType":"address"}],"outputs":[],"stateMutability":"nonpayable"},{"type":"function","name":"setConfiguration","inputs":[{"name":"key","type":"bytes32","internalType":"bytes32"},{"name":"blockNumber","type":"uint64","internalType":"uint64"},{"name":"value","type":"bytes","internalType":"bytes"}],"outputs":[],"stateMutability":"nonpayable"},{"type":"function","name":"setStreamLastMiniblockBatch","inputs":[{"name":"miniblocks","type":"tuple[]","internalType":"struct SetMiniblock[]","components":[{"name":"streamId","type":"bytes32","internalType":"bytes32"},{"name":"prevMiniBlockHash","type":"bytes32","internalType":"bytes32"},{"name":"lastMiniblockHash","type":"bytes32","internalType":"bytes32"},{"name":"lastMiniblockNum","type":"uint64","internalType":"uint64"},{"name":"isSealed","type":"bool","internalType":"bool"}]}],"outputs":[],"stateMutability":"nonpayable"},{"type":"function","name":"updateNodeStatus","inputs":[{"name":"nodeAddress","type":"address","internalType":"address"},{"name":"status","type":"uint8","internalType":"enum NodeStatus"}],"outputs":[],"stateMutability":"nonpayable"},{"type":"function","name":"updateNodeUrl","inputs":[{"name":"nodeAddress","type":"address","internalType":"address"},{"name":"url","type":"string","internalType":"string"}],"outputs":[],"stateMutability":"nonpayable"},{"type":"event","name":"ConfigurationChanged","inputs":[{"name":"key","type":"bytes32","indexed":false,"internalType":"bytes32"},{"name":"block","type":"uint64","indexed":false,"internalType":"uint64"},{"name":"value","type":"bytes","indexed":false,"internalType":"bytes"},{"name":"deleted","type":"bool","indexed":false,"internalType":"bool"}],"anonymous":false},{"type":"event","name":"ConfigurationManagerAdded","inputs":[{"name":"manager","type":"address","indexed":true,"internalType":"address"}],"anonymous":false},{"type":"event","name":"ConfigurationManagerRemoved","inputs":[{"name":"manager","type":"address","indexed":true,"internalType":"address"}],"anonymous":false},{"type":"event","name":"Initialized","inputs":[{"name":"version","type":"uint32","indexed":false,"internalType":"uint32"}],"anonymous":false},{"type":"event","name":"InterfaceAdded","inputs":[{"name":"interfaceId","type":"bytes4","indexed":true,"internalType":"bytes4"}],"anonymous":false},{"type":"event","name":"InterfaceRemoved","inputs":[{"name":"interfaceId","type":"bytes4","indexed":true,"internalType":"bytes4"}],"anonymous":false},{"type":"event","name":"NodeAdded","inputs":[{"name":"nodeAddress","type":"address","indexed":true,"internalType":"address"},{"name":"operator","type":"address","indexed":true,"internalType":"address"},{"name":"url","type":"string","indexed":false,"internalType":"string"},{"name":"status","type":"uint8","indexed":false,"internalType":"enum NodeStatus"}],"anonymous":false},{"type":"event","name":"NodeRemoved","inputs":[{"name":"nodeAddress","type":"address","indexed":true,"internalType":"address"}],"anonymous":false},{"type":"event","name":"NodeStatusUpdated","inputs":[{"name":"nodeAddress","type":"address","indexed":true,"internalType":"address"},{"name":"status","type":"uint8","indexed":false,"internalType":"enum NodeStatus"}],"anonymous":false},{"type":"event","name":"NodeUrlUpdated","inputs":[{"name":"nodeAddress","type":"address","indexed":true,"internalType":"address"},{"name":"url","type":"string","indexed":false,"internalType":"string"}],"anonymous":false},{"type":"event","name":"OperatorAdded","inputs":[{"name":"operatorAddress","type":"address","indexed":true,"internalType":"address"}],"anonymous":false},{"type":"event","name":"OperatorRemoved","inputs":[{"name":"operatorAddress","type":"address","indexed":true,"internalType":"address"}],"anonymous":false},{"type":"event","name":"OwnershipTransferred","inputs":[{"name":"previousOwner","type":"address","indexed":true,"internalType":"address"},{"name":"newOwner","type":"address","indexed":true,"internalType":"address"}],"anonymous":false},{"type":"event","name":"StreamAllocated","inputs":[{"name":"streamId","type":"bytes32","indexed":false,"internalType":"bytes32"},{"name":"nodes","type":"address[]","indexed":false,"internalType":"address[]"},{"name":"genesisMiniblockHash","type":"bytes32","indexed":false,"internalType":"bytes32"},{"name":"genesisMiniblock","type":"bytes","indexed":false,"internalType":"bytes"}],"anonymous":false},{"type":"event","name":"StreamLastMiniblockUpdateFailed","inputs":[{"name":"streamId","type":"bytes32","indexed":false,"internalType":"bytes32"},{"name":"lastMiniblockHash","type":"bytes32","indexed":false,"internalType":"bytes32"},{"name":"lastMiniblockNum","type":"uint64","indexed":false,"internalType":"uint64"},{"name":"reason","type":"string","indexed":false,"internalType":"string"}],"anonymous":false},{"type":"event","name":"StreamLastMiniblockUpdated","inputs":[{"name":"streamId","type":"bytes32","indexed":false,"internalType":"bytes32"},{"name":"lastMiniblockHash","type":"bytes32","indexed":false,"internalType":"bytes32"},{"name":"lastMiniblockNum","type":"uint64","indexed":false,"internalType":"uint64"},{"name":"isSealed","type":"bool","indexed":false,"internalType":"bool"}],"anonymous":false},{"type":"event","name":"StreamPlacementUpdated","inputs":[{"name":"streamId","type":"bytes32","indexed":false,"internalType":"bytes32"},{"name":"nodeAddress","type":"address","indexed":false,"internalType":"address"},{"name":"isAdded","type":"bool","indexed":false,"internalType":"bool"}],"anonymous":false},{"type":"error","name":"Initializable_InInitializingState","inputs":[]},{"type":"error","name":"Initializable_NotInInitializingState","inputs":[]},{"type":"error","name":"Introspection_AlreadySupported","inputs":[]},{"type":"error","name":"Introspection_NotSupported","inputs":[]},{"type":"error","name":"Ownable__NotOwner","inputs":[{"name":"account","type":"address","internalType":"address"}]},{"type":"error","name":"Ownable__ZeroAddress","inputs":[]}],"bytecode":{"object":"0x60806040523480156200001157600080fd5b50604051620047b2380380620047b28339810160408190526200003491620004a6565b6200003e620000c1565b620000493362000169565b60005b8151811015620000b957620000838282815181106200006f576200006f62000578565b60200260200101516200023760201b60201c565b620000b08282815181106200009c576200009c62000578565b60200260200101516200031c60201b60201c565b6001016200004c565b5050620005df565b7f59b501c3653afc186af7d48dda36cf6732bd21629a6295693664240a6ef520008054640100000000900460ff16156200010e576040516366008a2d60e01b815260040160405180910390fd5b805463ffffffff90811610156200016657805463ffffffff191663ffffffff90811782556040519081527fe9c9b456cb2994b80aeef036cf59d26e9617df80f816a6ee5a5b4166e07e2f5c9060200160405180910390a15b50565b60006200019d7f4675fa8241f86f37157864d3d49b85ad4b164352c516da28e1678a90470ae300546001600160a01b031690565b90506001600160a01b038216620001c757604051634e3ef82560e01b815260040160405180910390fd5b817f4675fa8241f86f37157864d3d49b85ad4b164352c516da28e1678a90470ae30080546001600160a01b0319166001600160a01b03928316179055604051838216918316907f8be0079c531659141344cd1fd0a4f28419497f9722a3daafe3b4186f6b6457e090600090a35050565b6001600160a01b038116620002865760408051808201825260078152664241445f41524760c81b6020820152905162461bcd60e51b81526200027d91906004016200058e565b60405180910390fd5b62000293600882620003e9565b15620002d757604080518082018252600e81526d414c52454144595f45584953545360901b6020820152905162461bcd60e51b81526200027d91906004016200058e565b620002e460088262000410565b506040516001600160a01b038216907fac6fa858e9350a46cec16539926e0fde25b7629f84b5a72bffaae4df888ae86d90600090a250565b6001600160a01b038116620003625760408051808201825260078152664241445f41524760c81b6020820152905162461bcd60e51b81526200027d91906004016200058e565b6200036f600d8262000410565b620003b257604080518082018252600e81526d414c52454144595f45584953545360901b6020820152905162461bcd60e51b81526200027d91906004016200058e565b6040516001600160a01b038216907f7afd798379ae2d2e5035438544cea2b60eb1dde6a8128e6d447fd2a25f8825a290600090a250565b6001600160a01b038116600090815260018301602052604081205415155b90505b92915050565b600062000407836001600160a01b03841660008181526001830160205260408120546200046a575081546001818101845560008481526020808220909301849055845484825282860190935260409020919091556200040a565b5060006200040a565b634e487b7160e01b600052604160045260246000fd5b80516001600160a01b0381168114620004a157600080fd5b919050565b60006020808385031215620004ba57600080fd5b82516001600160401b0380821115620004d257600080fd5b818501915085601f830112620004e757600080fd5b815181811115620004fc57620004fc62000473565b8060051b604051601f19603f8301168101818110858211171562000524576200052462000473565b6040529182528482019250838101850191888311156200054357600080fd5b938501935b828510156200056c576200055c8562000489565b8452938501939285019262000548565b98975050505050505050565b634e487b7160e01b600052603260045260246000fd5b60006020808352835180602085015260005b81811015620005be57858101830151858201604001528201620005a0565b506000604082860101526040601f19601f8301168501019250505092915050565b6141c380620005ef6000396000f3fe608060405234801561001057600080fd5b50600436106101fb5760003560e01c8063a1174e7d1161011a578063c8fe3a01116100ad578063d911c6321161007c578063d911c63214610464578063ee885b121461046c578063eecc66f41461047f578063fc207c0114610492578063ff3a14ab146104a557600080fd5b8063c8fe3a0114610408578063ca78c41a1461041d578063d0c27c4f1461043e578063d4bd44a01461045157600080fd5b8063ba428b1a116100e9578063ba428b1a146103c7578063c0f22084146103da578063c179b85f146103e2578063c87d1324146103f557600080fd5b8063a1174e7d14610379578063ac8a584a1461038e578063b2b99ec9146103a1578063b7f227ee146103b457600080fd5b80636b883c39116101925780639283ae3a116101615780639283ae3a146103205780639d209048146103335780639ee86d3814610353578063a09449a61461036657600080fd5b80636b883c39146102c45780636d70f7ae146102d75780637e4465e7146102fa578063813049ec1461030d57600080fd5b806331374511116101ce578063313745111461026657806339bf397e146102795780633c2544d11461028f578063581f8b9b146102b157600080fd5b8063035759e114610200578063081814db146102155780631290abe814610233578063242cae9f14610253575b600080fd5b61021361020e366004613442565b6104b8565b005b61021d61062c565b60405161022a91906134ab565b60405180910390f35b610246610241366004613442565b610897565b60405161022a91906135c6565b6102136102613660046135f5565b6109b9565b610213610274366004613610565b610a00565b610281610a91565b60405190815260200161022a565b6102a261029d366004613442565b610aa2565b60405161022a93929190613684565b6102136102bf3660046136c8565b610c73565b6102136102d23660046137b0565b610e13565b6102ea6102e53660046135f5565b61107a565b604051901515815260200161022a565b610213610308366004613893565b61108d565b61021361031b3660046135f5565b611285565b61021d61032e366004613442565b611380565b6103466103413660046135f5565b6114e3565b60405161022a919061396c565b61021361036136600461397f565b611664565b6102136103743660046139b9565b611822565b610381611af1565b60405161022a9190613a3f565b61021361039c3660046135f5565b611cc5565b6102136103af3660046135f5565b611e28565b6102136103c2366004613aa3565b611ff1565b6102136103d5366004613610565b612240565b6102816122cc565b6102136103f03660046135f5565b6122d7565b6102816104033660046135f5565b61231b565b6104106123c9565b60405161022a9190613b0b565b61043061042b366004613b1e565b6123d5565b60405161022a929190613b40565b6102ea61044c366004613442565b6125c5565b6102ea61045f3660046135f5565b6125d1565b6104106125de565b61021361047a36600461397f565b6125ea565b61021361048d366004613bbf565b612833565b6102ea6104a0366004613442565b6129fe565b6102136104b3366004613c1c565b612a0b565b336104c4600d82612d2b565b6105075760408051808201825260088152670848288be82aaa8960c31b6020820152905162461bcd60e51b81526104fe9190600401613c7e565b60405180910390fd5b81610513600a82612d50565b61054e5760408051808201825260098152681393d517d193d5539160ba1b6020820152905162461bcd60e51b81526104fe9190600401613c7e565b6000838152600c6020526040902054156105c1576000838152600c6020526040902080548061057f5761057f613c91565b60008281526020812060036000199093019283020181815560018101805467ffffffffffffffff19169055906105b860028301826132ed565b5050905561054e565b6000838152600c602052604081206105d891613327565b6105e3600a84612d68565b50604080518481526001600160401b03602082015260808183018190526000908201526001606082015290516000805160206141a38339815191529181900360a00190a1505050565b606060008061063b600a612d74565b905060005b8181101561067c576000610655600a83612d7e565b6000818152600c60205260409020549091506106719085613cbd565b935050600101610640565b506000826001600160401b03811115610697576106976136fb565b6040519080825280602002602001820160405280156106e457816020015b604080516060808201835260008083526020830152918101919091528152602001906001900390816106b55790505b50905060006106f3600a612d74565b90506000805b8281101561088c57600061070e600a83612d7e565b6000818152600c6020908152604080832080548251818502810185019093528083529495509293909291849084015b8282101561082157600084815260209081902060408051606081018252600386029092018054835260018101546001600160401b0316938301939093526002830180549293929184019161079090613cd0565b80601f01602080910402602001604051908101604052809291908181526020018280546107bc90613cd0565b80156108095780601f106107de57610100808354040283529160200191610809565b820191906000526020600020905b8154815290600101906020018083116107ec57829003601f168201915b5050505050815250508152602001906001019061073d565b50505050905060005b815181101561087e5781818151811061084557610845613d04565b602002602001015187868061085990613d1a565b97508151811061086b5761086b613d04565b602090810291909101015260010161082a565b5050508060010190506106f9565b509195945050505050565b6040805160a08101825260008082526020820181905291810182905260608082018390526080820152906108cb9083612d50565b6109065760408051808201825260098152681393d517d193d5539160ba1b6020820152905162461bcd60e51b81526104fe9190600401613c7e565b600082815260026020818152604092839020835160a0810185528154815260018201546001600160401b0380821683860152600160401b8204811683880152600160801b90910416606082015292810180548551818502810185019096528086529394919360808601938301828280156109a957602002820191906000526020600020905b81546001600160a01b0316815260019091019060200180831161098b575b5050505050815250509050919050565b6109c1612d8a565b6001600160a01b0316336001600160a01b0316146109f4576040516365f4906560e01b81523360048201526024016104fe565b6109fd81612db8565b50565b7f59b501c3653afc186af7d48dda36cf6732bd21629a6295693664240a6ef5200054640100000000900460ff16610a4a57604051630ef4733760e31b815260040160405180910390fd5b60005b81811015610a8c57610a84838383818110610a6a57610a6a613d04565b9050602002016020810190610a7f91906135f5565b612e8a565b600101610a4d565b505050565b6000610a9d6005612d74565b905090565b6040805160a081018252600080825260208201819052918101829052606080820183905260808201819052909190610ada8285612d50565b610b155760408051808201825260098152681393d517d193d5539160ba1b6020820152905162461bcd60e51b81526104fe9190600401613c7e565b600084815260026020818152604080842060048352818520546003845294829020825160a0810184528254815260018301546001600160401b0380821683880152600160401b8204811683870152600160801b90910416606082015294820180548451818702810187019095528085529296959194919387936080860193919291830182828015610bcf57602002820191906000526020600020905b81546001600160a01b03168152600190910190602001808311610bb1575b5050505050815250509250808054610be690613cd0565b80601f0160208091040260200160405190810160405280929190818152602001828054610c1290613cd0565b8015610c5f5780601f10610c3457610100808354040283529160200191610c5f565b820191906000526020600020905b815481529060010190602001808311610c4257829003601f168201915b505050505090509250925092509193909250565b6001600160a01b03808316600090815260076020526040902060020154839116610cd357604080518082018252600e81526d1393d11157d393d517d193d5539160921b6020820152905162461bcd60e51b81526104fe9190600401613c7e565b33610cdf600882612d2b565b610d195760408051808201825260088152670848288be82aaa8960c31b6020820152905162461bcd60e51b81526104fe9190600401613c7e565b6001600160a01b0380851660009081526007602052604090206003015485913391168114610d775760408051808201825260088152670848288be82aaa8960c31b6020820152905162461bcd60e51b81526104fe9190600401613c7e565b6001600160a01b03861660009081526007602052604090208054610d9e9060ff1687612f4f565b80548690829060ff19166001836005811115610dbc57610dbc6138e0565b021790555060028101546040516001600160a01b03909116907f20891cc7622c7951cbd8c70c61a5201eb45625b8c00e8f6c986cfca78f3dbfa090610e02908990613d33565b60405180910390a250505050505050565b336000818152600760205260409020600201546001600160a01b0316610e6f57604080518082018252600e81526d1393d11157d393d517d193d5539160921b6020820152905162461bcd60e51b81526104fe9190600401613c7e565b610e7a600086612d50565b15610ebb57604080518082018252600e81526d414c52454144595f45584953545360901b6020820152905162461bcd60e51b81526104fe9190600401613c7e565b835160005b81811015610f4057610ef8868281518110610edd57610edd613d04565b60200260200101516000600501612d2b90919063ffffffff16565b610f3857604080518082018252600e81526d1393d11157d393d517d193d5539160921b6020820152905162461bcd60e51b81526104fe9190600401613c7e565b600101610ec0565b506040805160a081018252858152600060208201819052918101829052606081018290526080810187905290610f7690886130e2565b5060008781526002602081815260409283902084518155818501516001820180549587015160608801516001600160401b03908116600160801b0267ffffffffffffffff60801b19928216600160401b026fffffffffffffffffffffffffffffffff1990991691909416179690961795909516179093556080840151805185949361100693908501920190613348565b50505060008781526003602052604090206110218582613da6565b5060008781526004602052604090819020869055517f55ef7efc60ef99743e54209752c9a8e047e013917ec91572db75875069dd65bb90611069908990899089908990613e5f565b60405180910390a150505050505050565b6000611087600883612d2b565b92915050565b33611099600882612d2b565b6110d35760408051808201825260088152670848288be82aaa8960c31b6020820152905162461bcd60e51b81526104fe9190600401613c7e565b6001600160a01b0380841660009081526007602052604090206002015484911661113357604080518082018252600e81526d1393d11157d393d517d193d5539160921b6020820152905162461bcd60e51b81526104fe9190600401613c7e565b6001600160a01b03808516600090815260076020526040902060030154859133911681146111915760408051808201825260088152670848288be82aaa8960c31b6020820152905162461bcd60e51b81526104fe9190600401613c7e565b6001600160a01b03861660009081526007602090815260409182902091516111bb91889101613e9b565b60405160208183030381529060405280519060200120816001016040516020016111e59190613eb7565b60405160208183030381529060405280519060200120036112355760408051808201825260078152664241445f41524760c81b6020820152905162461bcd60e51b81526104fe9190600401613c7e565b600181016112438782613da6565b5060028101546040516001600160a01b03909116907f4505168a8705a16fd4d0575197fd0f510db69df93a065e158ad2c0957ba12bac90610e02908990613c7e565b61128d612d8a565b6001600160a01b0316336001600160a01b0316146112c0576040516365f4906560e01b81523360048201526024016104fe565b6001600160a01b0381166113035760408051808201825260078152664241445f41524760c81b6020820152905162461bcd60e51b81526104fe9190600401613c7e565b61130e600d826130ee565b6113495760408051808201825260098152681393d517d193d5539160ba1b6020820152905162461bcd60e51b81526104fe9190600401613c7e565b6040516001600160a01b038216907ff9889c857e5356066b564327caa757c325ecbc001b2b47d72edf8cf9aedb1be590600090a250565b60608161138e600a82612d50565b6113c95760408051808201825260098152681393d517d193d5539160ba1b6020820152905162461bcd60e51b81526104fe9190600401613c7e565b6000838152600c6020908152604080832080548251818502810185019093528083529193909284015b828210156114d657600084815260209081902060408051606081018252600386029092018054835260018101546001600160401b0316938301939093526002830180549293929184019161144590613cd0565b80601f016020809104026020016040519081016040528092919081815260200182805461147190613cd0565b80156114be5780601f10611493576101008083540402835291602001916114be565b820191906000526020600020905b8154815290600101906020018083116114a157829003601f168201915b505050505081525050815260200190600101906113f2565b5050505091505b50919050565b61150e6040805160808101909152806000815260606020820181905260006040830181905291015290565b611519600583612d2b565b61155957604080518082018252600e81526d1393d11157d393d517d193d5539160921b6020820152905162461bcd60e51b81526104fe9190600401613c7e565b6001600160a01b038216600090815260076020526040908190208151608081019092528054829060ff166005811115611594576115946138e0565b60058111156115a5576115a56138e0565b81526020016001820180546115b990613cd0565b80601f01602080910402602001604051908101604052809291908181526020018280546115e590613cd0565b80156116325780601f1061160757610100808354040283529160200191611632565b820191906000526020600020905b81548152906001019060200180831161161557829003601f168201915b505050918352505060028201546001600160a01b03908116602083015260039092015490911660409091015292915050565b81611670600082612d50565b6116ab5760408051808201825260098152681393d517d193d5539160ba1b6020820152905162461bcd60e51b81526104fe9190600401613c7e565b336000818152600760205260409020600201546001600160a01b031661170757604080518082018252600e81526d1393d11157d393d517d193d5539160921b6020820152905162461bcd60e51b81526104fe9190600401613c7e565b600084815260026020819052604082209081015490915b818110156117a357856001600160a01b031683600201828154811061174557611745613d04565b6000918252602090912001546001600160a01b03160361179b57604080518082018252600e81526d414c52454144595f45584953545360901b6020820152905162461bcd60e51b81526104fe9190600401613c7e565b60010161171e565b5060028201805460018082018355600092835260209283902090910180546001600160a01b0319166001600160a01b038916908117909155604080518a8152938401919091528201527faaa473c28a5fe04b6a7ecd795826e462f9d0c23f00ef9f51ec02fa6ea418806f906060015b60405180910390a1505050505050565b3361182e600d82612d2b565b6118685760408051808201825260088152670848288be82aaa8960c31b6020820152905162461bcd60e51b81526104fe9190600401613c7e565b67fffffffffffffffe196001600160401b038516016118b65760408051808201825260078152664241445f41524760c81b6020820152905162461bcd60e51b81526104fe9190600401613c7e565b60008290036118f45760408051808201825260078152664241445f41524760c81b6020820152905162461bcd60e51b81526104fe9190600401613c7e565b6118ff600a86612d50565b6119105761190e600a866130e2565b505b6000858152600c6020526040812054905b818110156119f7576000878152600c6020526040902080546001600160401b03881691908390811061195557611955613d04565b60009182526020909120600160039092020101546001600160401b0316036119ef576000878152600c602052604090208054869186918490811061199b5761199b613d04565b906000526020600020906003020160020191826119b9929190613f2d565b506000805160206141a38339815191528787878760006040516119e0959493929190613fe6565b60405180910390a15050611aea565b600101611921565b506000600c0160008781526020019081526020016000206040518060600160405280888152602001876001600160401b0316815260200186868080601f0160208091040260200160405190810160405280939291908181526020018383808284376000920182905250939094525050835460018082018655948252602091829020845160039092020190815590830151938101805467ffffffffffffffff19166001600160401b03909516949094179093555060408101519091906002820190611ac19082613da6565b5050506000805160206141a3833981519152868686866000604051611812959493929190613fe6565b5050505050565b60606000611aff6005612d74565b6001600160401b03811115611b1657611b166136fb565b604051908082528060200260200182016040528015611b7257816020015b611b5f6040805160808101909152806000815260606020820181905260006040830181905291015290565b815260200190600190039081611b345790505b50905060005b611b826005612d74565b8110156114dd5760076000611b98600584612d7e565b6001600160a01b03168152602081019190915260409081016000208151608081019092528054829060ff166005811115611bd457611bd46138e0565b6005811115611be557611be56138e0565b8152602001600182018054611bf990613cd0565b80601f0160208091040260200160405190810160405280929190818152602001828054611c2590613cd0565b8015611c725780601f10611c4757610100808354040283529160200191611c72565b820191906000526020600020905b815481529060010190602001808311611c5557829003601f168201915b505050918352505060028201546001600160a01b0390811660208301526003909201549091166040909101528251839083908110611cb257611cb2613d04565b6020908102919091010152600101611b78565b611ccd612d8a565b6001600160a01b0316336001600160a01b031614611d00576040516365f4906560e01b81523360048201526024016104fe565b611d0b600882612d2b565b611d4f57604080518082018252601281527113d41154905513d497d393d517d193d5539160721b6020820152905162461bcd60e51b81526104fe9190600401613c7e565b60005b611d5c6005612d74565b811015611de4576001600160a01b03821660076000611d7c600585612d7e565b6001600160a01b0390811682526020820192909252604001600020600301541603611ddc57604080518082018252600d81526c4f55545f4f465f424f554e445360981b6020820152905162461bcd60e51b81526104fe9190600401613c7e565b600101611d52565b50611df06008826130ee565b506040516001600160a01b038216907f80c0b871b97b595b16a7741c1b06fed0c6f6f558639f18ccbce50724325dc40d90600090a250565b6001600160a01b0380821660009081526007602052604090206003015482913391168114611e865760408051808201825260088152670848288be82aaa8960c31b6020820152905162461bcd60e51b81526104fe9190600401613c7e565b6001600160a01b0383811660009081526007602052604090206002015416611ee457604080518082018252600e81526d1393d11157d393d517d193d5539160921b6020820152905162461bcd60e51b81526104fe9190600401613c7e565b60056001600160a01b03841660009081526007602052604090205460ff166005811115611f1357611f136138e0565b14611f5c5760408051808201825260168152751393d11157d4d510551157d393d517d0531313d5d15160521b6020820152905162461bcd60e51b81526104fe9190600401613c7e565b611f676005846130ee565b506001600160a01b0383166000908152600760205260408120805460ff1916815590611f9660018301826132ed565b506002810180546001600160a01b03199081169091556003909101805490911690556040516001600160a01b038416907fcfc24166db4bb677e857cacabd1541fb2b30645021b27c5130419589b84db52b90600090a2505050565b33611ffd600d82612d2b565b6120375760408051808201825260088152670848288be82aaa8960c31b6020820152905162461bcd60e51b81526104fe9190600401613c7e565b6000805b6000858152600c60205260409020548110156121b8576000858152600c6020526040902080546001600160401b03861691908390811061207d5761207d613d04565b60009182526020909120600160039092020101546001600160401b0316036121b0576000858152600c6020526040902080546120bb90600190614036565b815481106120cb576120cb613d04565b90600052602060002090600302016000600c016000878152602001908152602001600020828154811061210057612100613d04565b600091825260209091208254600390920201908155600180830154908201805467ffffffffffffffff19166001600160401b0390921691909117905560028082019061214e90840182614049565b5050506000858152600c6020526040902080548061216e5761216e613c91565b60008281526020812060036000199093019283020181815560018101805467ffffffffffffffff19169055906121a760028301826132ed565b50509055600191505b60010161203b565b50806121f55760408051808201825260098152681393d517d193d5539160ba1b6020820152905162461bcd60e51b81526104fe9190600401613c7e565b604080518581526001600160401b038516602082015260808183018190526000908201526001606082015290516000805160206141a38339815191529181900360a00190a150505050565b7f59b501c3653afc186af7d48dda36cf6732bd21629a6295693664240a6ef5200054640100000000900460ff1661228a57604051630ef4733760e31b815260040160405180910390fd5b60005b81811015610a8c576122c48383838181106122aa576122aa613d04565b90506020020160208101906122bf91906135f5565b612db8565b60010161228d565b6000610a9d81612d74565b6122df612d8a565b6001600160a01b0316336001600160a01b031614612312576040516365f4906560e01b81523360048201526024016104fe565b6109fd81612e8a565b6000808061232881612d74565b905060005b818110156123c05760006123418183612d7e565b60008181526002602052604081209192505b60028201548110156123b257876001600160a01b031682600201828154811061237e5761237e613d04565b6000918252602090912001546001600160a01b0316036123aa57856123a281613d1a565b9650506123b2565b600101612353565b50505080600101905061232d565b50909392505050565b6060610a9d6005613103565b606060008284106124155760408051808201825260078152664241445f41524760c81b6020820152905162461bcd60e51b81526104fe9190600401613c7e565b600061242081612d74565b905060008185116124315784612433565b815b9050600086821161244557600061244f565b61244f8783614036565b90506000816001600160401b0381111561246b5761246b6136fb565b6040519080825280602002602001820160405280156124a457816020015b6124916133ad565b8152602001906001900390816124895790505b50905060005b828110156125b45760006124c96124c1838c613cbd565b600090612d7e565b60408051808201825282815260008381526002602081815291849020845160a0810186528154815260018201546001600160401b0380821683870152600160401b8204811683890152600160801b909104166060820152918101805486518186028101860190975280875296975093958387019592949193608086019392919083018282801561258257602002820191906000526020600020905b81546001600160a01b03168152600190910190602001808311612564575b5050505050815250508152508383815181106125a0576125a0613d04565b6020908102919091010152506001016124aa565b509450505083101590509250929050565b60006110878183612d50565b6000611087600d83612d2b565b6060610a9d6008613103565b816125f6600082612d50565b6126315760408051808201825260098152681393d517d193d5539160ba1b6020820152905162461bcd60e51b81526104fe9190600401613c7e565b336000818152600760205260409020600201546001600160a01b031661268d57604080518082018252600e81526d1393d11157d393d517d193d5539160921b6020820152905162461bcd60e51b81526104fe9190600401613c7e565b6000848152600260208190526040822090810154909190815b818110156127a857866001600160a01b03168460020182815481106126cd576126cd613d04565b6000918252602090912001546001600160a01b0316036127a057600284016126f6600184614036565b8154811061270657612706613d04565b6000918252602090912001546002850180546001600160a01b03909216918390811061273457612734613d04565b9060005260206000200160006101000a8154816001600160a01b0302191690836001600160a01b031602179055508360020180548061277557612775613c91565b600082815260209020810160001990810180546001600160a01b0319169055019055600192506127a8565b6001016126a6565b50816127ea57604080518082018252600e81526d1393d11157d393d517d193d5539160921b6020820152905162461bcd60e51b81526104fe9190600401613c7e565b604080518881526001600160a01b03881660208201526000918101919091527faaa473c28a5fe04b6a7ecd795826e462f9d0c23f00ef9f51ec02fa6ea418806f90606001611069565b3361283f600882612d2b565b6128795760408051808201825260088152670848288be82aaa8960c31b6020820152905162461bcd60e51b81526104fe9190600401613c7e565b6001600160a01b0384811660009081526007602052604090206002015416156128d857604080518082018252600e81526d414c52454144595f45584953545360901b6020820152905162461bcd60e51b81526104fe9190600401613c7e565b600060405180608001604052808460058111156128f7576128f76138e0565b8152602081018690526001600160a01b0387166040820152336060909101529050612923600586613110565b506001600160a01b03851660009081526007602052604090208151815483929190829060ff1916600183600581111561295e5761295e6138e0565b0217905550602082015160018201906129779082613da6565b506040828101516002830180546001600160a01b03199081166001600160a01b03938416179091556060909401516003909301805490941692811692909217909255905133918716907f759154d15a6aec80ceab7bc8820f46ebc53ad68bb18f47afb77483fea9dcc9ff906129ef9088908890614115565b60405180910390a35050505050565b6000611087600a83612d50565b336000818152600760205260409020600201546001600160a01b0316612a6757604080518082018252600e81526d1393d11157d393d517d193d5539160921b6020820152905162461bcd60e51b81526104fe9190600401613c7e565b816000819003612aa65760408051808201825260078152664241445f41524760c81b6020820152905162461bcd60e51b81526104fe9190600401613c7e565b60005b81811015611aea5736858583818110612ac457612ac4613d04565b60a002919091019150612adb905060008235612d50565b612b53577f75460fe319331413a18a82d99b07735cec53fa0c4061ada38c2141e331082afa81356040830135612b176080850160608601614137565b60408051808201825260098152681393d517d193d5539160ba1b60208201529051612b459493929190614152565b60405180910390a150612d23565b80356000908152600260205260409020600180820154600160801b90041615612bef577f75460fe319331413a18a82d99b07735cec53fa0c4061ada38c2141e331082afa82356040840135612bae6080860160608701614137565b604080518082018252600d81526c14d51491505357d4d150531151609a1b60208201529051612be09493929190614152565b60405180910390a15050612d23565b60018101546001600160401b0316600003612c1d5781356000908152600360205260408120612c1d916132ed565b60408201358155612c346080830160608401614137565b60018201805467ffffffffffffffff19166001600160401b0392909216919091179055612c6760a0830160808401614180565b15612c9f576001818101805467ffffffffffffffff60801b198116600160801b918290046001600160401b0316909317029190911790555b7fccc26bbb6dd655ea0bb8a40a3c30e35c6bdf42f8faf0d71bbea897af768cda8b82356040840135612cd76080860160608701614137565b612ce760a0870160808801614180565b604051612d18949392919093845260208401929092526001600160401b031660408301521515606082015260800190565b60405180910390a150505b600101612aa9565b6001600160a01b038116600090815260018301602052604081205415155b9392505050565b60008181526001830160205260408120541515612d49565b6000612d498383613125565b6000611087825490565b6000612d498383613218565b7f4675fa8241f86f37157864d3d49b85ad4b164352c516da28e1678a90470ae300546001600160a01b031690565b6001600160a01b038116612dfb5760408051808201825260078152664241445f41524760c81b6020820152905162461bcd60e51b81526104fe9190600401613c7e565b612e06600882612d2b565b15612e4757604080518082018252600e81526d414c52454144595f45584953545360901b6020820152905162461bcd60e51b81526104fe9190600401613c7e565b612e52600882613110565b506040516001600160a01b038216907fac6fa858e9350a46cec16539926e0fde25b7629f84b5a72bffaae4df888ae86d90600090a250565b6001600160a01b038116612ecd5760408051808201825260078152664241445f41524760c81b6020820152905162461bcd60e51b81526104fe9190600401613c7e565b612ed8600d82613110565b612f1857604080518082018252600e81526d414c52454144595f45584953545360901b6020820152905162461bcd60e51b81526104fe9190600401613c7e565b6040516001600160a01b038216907f7afd798379ae2d2e5035438544cea2b60eb1dde6a8128e6d447fd2a25f8825a290600090a250565b6000826005811115612f6357612f636138e0565b1480612fb757506001826005811115612f7e57612f7e6138e0565b148015612fb757506003816005811115612f9a57612f9a6138e0565b1480612fb757506004816005811115612fb557612fb56138e0565b145b8061300a57506002826005811115612fd157612fd16138e0565b14801561300a57506003816005811115612fed57612fed6138e0565b148061300a57506004816005811115613008576130086138e0565b145b8061305d57506004826005811115613024576130246138e0565b14801561305d57506003816005811115613040576130406138e0565b148061305d5750600581600581111561305b5761305b6138e0565b145b8061309557506003826005811115613077576130776138e0565b14801561309557506005816005811115613093576130936138e0565b145b1561309e575050565b60408051808201825260168152751393d11157d4d510551157d393d517d0531313d5d15160521b6020820152905162461bcd60e51b81526104fe9190600401613c7e565b6000612d498383613242565b6000612d49836001600160a01b038416613125565b60606000612d4983613291565b6000612d49836001600160a01b038416613242565b6000818152600183016020526040812054801561320e576000613149600183614036565b855490915060009061315d90600190614036565b90508082146131c257600086600001828154811061317d5761317d613d04565b90600052602060002001549050808760000184815481106131a0576131a0613d04565b6000918252602080832090910192909255918252600188019052604090208390555b85548690806131d3576131d3613c91565b600190038181906000526020600020016000905590558560010160008681526020019081526020016000206000905560019350505050611087565b6000915050611087565b600082600001828154811061322f5761322f613d04565b9060005260206000200154905092915050565b600081815260018301602052604081205461328957508154600181810184556000848152602080822090930184905584548482528286019093526040902091909155611087565b506000611087565b6060816000018054806020026020016040519081016040528092919081815260200182805480156132e157602002820191906000526020600020905b8154815260200190600101908083116132cd575b50505050509050919050565b5080546132f990613cd0565b6000825580601f10613309575050565b601f0160209004906000526020600020908101906109fd91906133f7565b50805460008255600302906000526020600020908101906109fd919061340c565b82805482825590600052602060002090810192821561339d579160200282015b8281111561339d57825182546001600160a01b0319166001600160a01b03909116178255602090920191600190910190613368565b506133a99291506133f7565b5090565b6040805180820190915260008152602081016133f26040805160a081018252600080825260208201819052918101829052606080820192909252608081019190915290565b905290565b5b808211156133a957600081556001016133f8565b808211156133a957600080825560018201805467ffffffffffffffff1916905561343960028301826132ed565b5060030161340c565b60006020828403121561345457600080fd5b5035919050565b60005b8381101561347657818101518382015260200161345e565b50506000910152565b6000815180845261349781602086016020860161345b565b601f01601f19169290920160200192915050565b600060208083018184528085518083526040925060408601915060408160051b87010184880160005b8381101561352757888303603f19018552815180518452878101516001600160401b03168885015286015160608785018190526135138186018361347f565b9689019694505050908601906001016134d4565b509098975050505050505050565b600060a08301825184526020808401516001600160401b0380821660208801528060408701511660408801528060608701511660608801525050608084015160a0608087015282815180855260c088019150602083019450600092505b808310156135bb5784516001600160a01b03168252938301936001929092019190830190613592565b509695505050505050565b602081526000612d496020830184613535565b80356001600160a01b03811681146135f057600080fd5b919050565b60006020828403121561360757600080fd5b612d49826135d9565b6000806020838503121561362357600080fd5b82356001600160401b038082111561363a57600080fd5b818501915085601f83011261364e57600080fd5b81358181111561365d57600080fd5b8660208260051b850101111561367257600080fd5b60209290920196919550909350505050565b6060815260006136976060830186613535565b84602084015282810360408401526136af818561347f565b9695505050505050565b8035600681106135f057600080fd5b600080604083850312156136db57600080fd5b6136e4836135d9565b91506136f2602084016136b9565b90509250929050565b634e487b7160e01b600052604160045260246000fd5b604051601f8201601f191681016001600160401b0381118282101715613739576137396136fb565b604052919050565b600082601f83011261375257600080fd5b81356001600160401b0381111561376b5761376b6136fb565b61377e601f8201601f1916602001613711565b81815284602083860101111561379357600080fd5b816020850160208301376000918101602001919091529392505050565b600080600080608085870312156137c657600080fd5b843593506020808601356001600160401b03808211156137e557600080fd5b818801915088601f8301126137f957600080fd5b81358181111561380b5761380b6136fb565b8060051b61381a858201613711565b918252838101850191858101908c84111561383457600080fd5b948601945b838610156138595761384a866135d9565b82529486019490860190613839565b985050505060408801359450606088013592508083111561387957600080fd5b505061388787828801613741565b91505092959194509250565b600080604083850312156138a657600080fd5b6138af836135d9565b915060208301356001600160401b038111156138ca57600080fd5b6138d685828601613741565b9150509250929050565b634e487b7160e01b600052602160045260246000fd5b6006811061391457634e487b7160e01b600052602160045260246000fd5b9052565b6139238282516138f6565b600060208201516080602085015261393e608085018261347f565b6040848101516001600160a01b03908116918701919091526060948501511693909401929092525090919050565b602081526000612d496020830184613918565b6000806040838503121561399257600080fd5b823591506136f2602084016135d9565b80356001600160401b03811681146135f057600080fd5b600080600080606085870312156139cf57600080fd5b843593506139df602086016139a2565b925060408501356001600160401b03808211156139fb57600080fd5b818701915087601f830112613a0f57600080fd5b813581811115613a1e57600080fd5b886020828501011115613a3057600080fd5b95989497505060200194505050565b600060208083016020845280855180835260408601915060408160051b87010192506020870160005b82811015613a9657603f19888603018452613a84858351613918565b94509285019290850190600101613a68565b5092979650505050505050565b60008060408385031215613ab657600080fd5b823591506136f2602084016139a2565b60008151808452602080850194506020840160005b83811015613b005781516001600160a01b031687529582019590820190600101613adb565b509495945050505050565b602081526000612d496020830184613ac6565b60008060408385031215613b3157600080fd5b50508035926020909101359150565b600060408083016040845280865180835260608601915060608160051b8701019250602080890160005b83811015613ba957888603605f19018552815180518752830151838701889052613b9688880182613535565b9650509382019390820190600101613b6a565b5050961515959096019490945295945050505050565b600080600060608486031215613bd457600080fd5b613bdd846135d9565b925060208401356001600160401b03811115613bf857600080fd5b613c0486828701613741565b925050613c13604085016136b9565b90509250925092565b60008060208385031215613c2f57600080fd5b82356001600160401b0380821115613c4657600080fd5b818501915085601f830112613c5a57600080fd5b813581811115613c6957600080fd5b86602060a08302850101111561367257600080fd5b602081526000612d49602083018461347f565b634e487b7160e01b600052603160045260246000fd5b634e487b7160e01b600052601160045260246000fd5b8082018082111561108757611087613ca7565b600181811c90821680613ce457607f821691505b6020821081036114dd57634e487b7160e01b600052602260045260246000fd5b634e487b7160e01b600052603260045260246000fd5b600060018201613d2c57613d2c613ca7565b5060010190565b6020810161108782846138f6565b601f821115610a8c576000816000526020600020601f850160051c81016020861015613d6a5750805b601f850160051c820191505b81811015613d8957828155600101613d76565b505050505050565b600019600383901b1c191660019190911b1790565b81516001600160401b03811115613dbf57613dbf6136fb565b613dd381613dcd8454613cd0565b84613d41565b602080601f831160018114613e025760008415613df05750858301515b613dfa8582613d91565b865550613d89565b600085815260208120601f198616915b82811015613e3157888601518255948401946001909101908401613e12565b5085821015613e4f5787850151600019600388901b60f8161c191681555b5050505050600190811b01905550565b848152608060208201526000613e786080830186613ac6565b8460408401528281036060840152613e90818561347f565b979650505050505050565b60008251613ead81846020870161345b565b9190910192915050565b6000808354613ec581613cd0565b60018281168015613edd5760018114613ef257613f21565b60ff1984168752821515830287019450613f21565b8760005260208060002060005b85811015613f185781548a820152908401908201613eff565b50505082870194505b50929695505050505050565b6001600160401b03831115613f4457613f446136fb565b613f5883613f528354613cd0565b83613d41565b6000601f841160018114613f865760008515613f745750838201355b613f7e8682613d91565b845550611aea565b600083815260209020601f19861690835b82811015613fb75786850135825560209485019460019092019101613f97565b5086821015613fd45760001960f88860031b161c19848701351681555b505060018560011b0183555050505050565b8581526001600160401b038516602082015260806040820152826080820152828460a0830137600081840160a0908101919091529115156060820152601f909201601f1916909101019392505050565b8181038181111561108757611087613ca7565b818103614054575050565b61405e8254613cd0565b6001600160401b03811115614075576140756136fb565b61408381613dcd8454613cd0565b6000601f8211600181146140b1576000831561409f5750848201545b6140a98482613d91565b855550611aea565b600085815260209020601f19841690600086815260209020845b838110156140eb57828601548255600195860195909101906020016140cb565b5085831015613e4f5793015460001960f8600387901b161c19169092555050600190811b01905550565b604081526000614128604083018561347f565b9050612d4960208301846138f6565b60006020828403121561414957600080fd5b612d49826139a2565b8481528360208201526001600160401b03831660408201526080606082015260006136af608083018461347f565b60006020828403121561419257600080fd5b81358015158114612d4957600080fdfec01483261a841a868b99cb8802faed4ea44a1a816651c4f7ee061a96a205fe98","linkReferences":{}},"methodIdentifiers":{"__OperatorRegistry_init(address[])":"ba428b1a","__RiverConfig_init(address[])":"31374511","allocateStream(bytes32,address[],bytes32,bytes)":"6b883c39","approveConfigurationManager(address)":"c179b85f","approveOperator(address)":"242cae9f","configurationExists(bytes32)":"fc207c01","deleteConfiguration(bytes32)":"035759e1","deleteConfigurationOnBlock(bytes32,uint64)":"b7f227ee","getAllConfiguration()":"081814db","getAllNodeAddresses()":"c8fe3a01","getAllNodes()":"a1174e7d","getAllOperators()":"d911c632","getConfiguration(bytes32)":"9283ae3a","getNode(address)":"9d209048","getNodeCount()":"39bf397e","getPaginatedStreams(uint256,uint256)":"ca78c41a","getStream(bytes32)":"1290abe8","getStreamCount()":"c0f22084","getStreamCountOnNode(address)":"c87d1324","getStreamWithGenesis(bytes32)":"3c2544d1","isConfigurationManager(address)":"d4bd44a0","isOperator(address)":"6d70f7ae","isStream(bytes32)":"d0c27c4f","placeStreamOnNode(bytes32,address)":"9ee86d38","registerNode(address,string,uint8)":"eecc66f4","removeConfigurationManager(address)":"813049ec","removeNode(address)":"b2b99ec9","removeOperator(address)":"ac8a584a","removeStreamFromNode(bytes32,address)":"ee885b12","setConfiguration(bytes32,uint64,bytes)":"a09449a6","setStreamLastMiniblockBatch((bytes32,bytes32,bytes32,uint64,bool)[])":"ff3a14ab","updateNodeStatus(address,uint8)":"581f8b9b","updateNodeUrl(address,string)":"7e4465e7"},"id":385}