{"abi":[{"type":"constructor","inputs":[{"name":"approvedOperators","type":"address[]","internalType":"address[]"}],"stateMutability":"nonpayable"},{"type":"function","name":"__OperatorRegistry_init","inputs":[{"name":"initialOperators","type":"address[]","internalType":"address[]"}],"outputs":[],"stateMutability":"nonpayable"},{"type":"function","name":"__RiverConfig_init","inputs":[{"name":"configManagers","type":"address[]","internalType":"address[]"}],"outputs":[],"stateMutability":"nonpayable"},{"type":"function","name":"allocateStream","inputs":[{"name":"streamId","type":"bytes32","internalType":"bytes32"},{"name":"nodes","type":"address[]","internalType":"address[]"},{"name":"genesisMiniblockHash","type":"bytes32","internalType":"bytes32"},{"name":"genesisMiniblock","type":"bytes","internalType":"bytes"}],"outputs":[],"stateMutability":"nonpayable"},{"type":"function","name":"approveConfigurationManager","inputs":[{"name":"manager","type":"address","internalType":"address"}],"outputs":[],"stateMutability":"nonpayable"},{"type":"function","name":"approveOperator","inputs":[{"name":"operator","type":"address","internalType":"address"}],"outputs":[],"stateMutability":"nonpayable"},{"type":"function","name":"configurationExists","inputs":[{"name":"key","type":"bytes32","internalType":"bytes32"}],"outputs":[{"name":"","type":"bool","internalType":"bool"}],"stateMutability":"view"},{"type":"function","name":"deleteConfiguration","inputs":[{"name":"key","type":"bytes32","internalType":"bytes32"}],"outputs":[],"stateMutability":"nonpayable"},{"type":"function","name":"deleteConfigurationOnBlock","inputs":[{"name":"key","type":"bytes32","internalType":"bytes32"},{"name":"blockNumber","type":"uint64","internalType":"uint64"}],"outputs":[],"stateMutability":"nonpayable"},{"type":"function","name":"getAllConfiguration","inputs":[],"outputs":[{"name":"","type":"tuple[]","internalType":"struct Setting[]","components":[{"name":"key","type":"bytes32","internalType":"bytes32"},{"name":"blockNumber","type":"uint64","internalType":"uint64"},{"name":"value","type":"bytes","internalType":"bytes"}]}],"stateMutability":"view"},{"type":"function","name":"getAllNodeAddresses","inputs":[],"outputs":[{"name":"","type":"address[]","internalType":"address[]"}],"stateMutability":"view"},{"type":"function","name":"getAllNodes","inputs":[],"outputs":[{"name":"","type":"tuple[]","internalType":"struct Node[]","components":[{"name":"status","type":"uint8","internalType":"enum NodeStatus"},{"name":"url","type":"string","internalType":"string"},{"name":"nodeAddress","type":"address","internalType":"address"},{"name":"operator","type":"address","internalType":"address"}]}],"stateMutability":"view"},{"type":"function","name":"getAllOperators","inputs":[],"outputs":[{"name":"","type":"address[]","internalType":"address[]"}],"stateMutability":"view"},{"type":"function","name":"getAllStreamIds","inputs":[],"outputs":[{"name":"","type":"bytes32[]","internalType":"bytes32[]"}],"stateMutability":"view"},{"type":"function","name":"getAllStreams","inputs":[],"outputs":[{"name":"","type":"tuple[]","internalType":"struct StreamWithId[]","components":[{"name":"id","type":"bytes32","internalType":"bytes32"},{"name":"stream","type":"tuple","internalType":"struct Stream","components":[{"name":"lastMiniblockHash","type":"bytes32","internalType":"bytes32"},{"name":"lastMiniblockNum","type":"uint64","internalType":"uint64"},{"name":"reserved0","type":"uint64","internalType":"uint64"},{"name":"flags","type":"uint64","internalType":"uint64"},{"name":"nodes","type":"address[]","internalType":"address[]"}]}]}],"stateMutability":"view"},{"type":"function","name":"getConfiguration","inputs":[{"name":"key","type":"bytes32","internalType":"bytes32"}],"outputs":[{"name":"","type":"tuple[]","internalType":"struct Setting[]","components":[{"name":"key","type":"bytes32","internalType":"bytes32"},{"name":"blockNumber","type":"uint64","internalType":"uint64"},{"name":"value","type":"bytes","internalType":"bytes"}]}],"stateMutability":"view"},{"type":"function","name":"getNode","inputs":[{"name":"nodeAddress","type":"address","internalType":"address"}],"outputs":[{"name":"","type":"tuple","internalType":"struct Node","components":[{"name":"status","type":"uint8","internalType":"enum NodeStatus"},{"name":"url","type":"string","internalType":"string"},{"name":"nodeAddress","type":"address","internalType":"address"},{"name":"operator","type":"address","internalType":"address"}]}],"stateMutability":"view"},{"type":"function","name":"getNodeCount","inputs":[],"outputs":[{"name":"","type":"uint256","internalType":"uint256"}],"stateMutability":"view"},{"type":"function","name":"getPaginatedStreams","inputs":[{"name":"start","type":"uint256","internalType":"uint256"},{"name":"stop","type":"uint256","internalType":"uint256"}],"outputs":[{"name":"","type":"tuple[]","internalType":"struct StreamWithId[]","components":[{"name":"id","type":"bytes32","internalType":"bytes32"},{"name":"stream","type":"tuple","internalType":"struct Stream","components":[{"name":"lastMiniblockHash","type":"bytes32","internalType":"bytes32"},{"name":"lastMiniblockNum","type":"uint64","internalType":"uint64"},{"name":"reserved0","type":"uint64","internalType":"uint64"},{"name":"flags","type":"uint64","internalType":"uint64"},{"name":"nodes","type":"address[]","internalType":"address[]"}]}]},{"name":"","type":"bool","internalType":"bool"}],"stateMutability":"view"},{"type":"function","name":"getStream","inputs":[{"name":"streamId","type":"bytes32","internalType":"bytes32"}],"outputs":[{"name":"","type":"tuple","internalType":"struct Stream","components":[{"name":"lastMiniblockHash","type":"bytes32","internalType":"bytes32"},{"name":"lastMiniblockNum","type":"uint64","internalType":"uint64"},{"name":"reserved0","type":"uint64","internalType":"uint64"},{"name":"flags","type":"uint64","internalType":"uint64"},{"name":"nodes","type":"address[]","internalType":"address[]"}]}],"stateMutability":"view"},{"type":"function","name":"getStreamByIndex","inputs":[{"name":"i","type":"uint256","internalType":"uint256"}],"outputs":[{"name":"","type":"tuple","internalType":"struct StreamWithId","components":[{"name":"id","type":"bytes32","internalType":"bytes32"},{"name":"stream","type":"tuple","internalType":"struct Stream","components":[{"name":"lastMiniblockHash","type":"bytes32","internalType":"bytes32"},{"name":"lastMiniblockNum","type":"uint64","internalType":"uint64"},{"name":"reserved0","type":"uint64","internalType":"uint64"},{"name":"flags","type":"uint64","internalType":"uint64"},{"name":"nodes","type":"address[]","internalType":"address[]"}]}]}],"stateMutability":"view"},{"type":"function","name":"getStreamCount","inputs":[],"outputs":[{"name":"","type":"uint256","internalType":"uint256"}],"stateMutability":"view"},{"type":"function","name":"getStreamCountOnNode","inputs":[{"name":"nodeAddress","type":"address","internalType":"address"}],"outputs":[{"name":"","type":"uint256","internalType":"uint256"}],"stateMutability":"view"},{"type":"function","name":"getStreamWithGenesis","inputs":[{"name":"streamId","type":"bytes32","internalType":"bytes32"}],"outputs":[{"name":"","type":"tuple","internalType":"struct Stream","components":[{"name":"lastMiniblockHash","type":"bytes32","internalType":"bytes32"},{"name":"lastMiniblockNum","type":"uint64","internalType":"uint64"},{"name":"reserved0","type":"uint64","internalType":"uint64"},{"name":"flags","type":"uint64","internalType":"uint64"},{"name":"nodes","type":"address[]","internalType":"address[]"}]},{"name":"","type":"bytes32","internalType":"bytes32"},{"name":"","type":"bytes","internalType":"bytes"}],"stateMutability":"view"},{"type":"function","name":"getStreams","inputs":[{"name":"streamIds","type":"bytes32[]","internalType":"bytes32[]"}],"outputs":[{"name":"foundCount","type":"uint256","internalType":"uint256"},{"name":"","type":"tuple[]","internalType":"struct StreamWithId[]","components":[{"name":"id","type":"bytes32","internalType":"bytes32"},{"name":"stream","type":"tuple","internalType":"struct Stream","components":[{"name":"lastMiniblockHash","type":"bytes32","internalType":"bytes32"},{"name":"lastMiniblockNum","type":"uint64","internalType":"uint64"},{"name":"reserved0","type":"uint64","internalType":"uint64"},{"name":"flags","type":"uint64","internalType":"uint64"},{"name":"nodes","type":"address[]","internalType":"address[]"}]}]}],"stateMutability":"view"},{"type":"function","name":"getStreamsOnNode","inputs":[{"name":"nodeAddress","type":"address","internalType":"address"}],"outputs":[{"name":"","type":"tuple[]","internalType":"struct StreamWithId[]","components":[{"name":"id","type":"bytes32","internalType":"bytes32"},{"name":"stream","type":"tuple","internalType":"struct Stream","components":[{"name":"lastMiniblockHash","type":"bytes32","internalType":"bytes32"},{"name":"lastMiniblockNum","type":"uint64","internalType":"uint64"},{"name":"reserved0","type":"uint64","internalType":"uint64"},{"name":"flags","type":"uint64","internalType":"uint64"},{"name":"nodes","type":"address[]","internalType":"address[]"}]}]}],"stateMutability":"view"},{"type":"function","name":"isConfigurationManager","inputs":[{"name":"manager","type":"address","internalType":"address"}],"outputs":[{"name":"","type":"bool","internalType":"bool"}],"stateMutability":"view"},{"type":"function","name":"isOperator","inputs":[{"name":"operator","type":"address","internalType":"address"}],"outputs":[{"name":"","type":"bool","internalType":"bool"}],"stateMutability":"view"},{"type":"function","name":"placeStreamOnNode","inputs":[{"name":"streamId","type":"bytes32","internalType":"bytes32"},{"name":"nodeAddress","type":"address","internalType":"address"}],"outputs":[],"stateMutability":"nonpayable"},{"type":"function","name":"registerNode","inputs":[{"name":"nodeAddress","type":"address","internalType":"address"},{"name":"url","type":"string","internalType":"string"},{"name":"status","type":"uint8","internalType":"enum NodeStatus"}],"outputs":[],"stateMutability":"nonpayable"},{"type":"function","name":"removeConfigurationManager","inputs":[{"name":"manager","type":"address","internalType":"address"}],"outputs":[],"stateMutability":"nonpayable"},{"type":"function","name":"removeNode","inputs":[{"name":"nodeAddress","type":"address","internalType":"address"}],"outputs":[],"stateMutability":"nonpayable"},{"type":"function","name":"removeOperator","inputs":[{"name":"operator","type":"address","internalType":"address"}],"outputs":[],"stateMutability":"nonpayable"},{"type":"function","name":"removeStreamFromNode","inputs":[{"name":"streamId","type":"bytes32","internalType":"bytes32"},{"name":"nodeAddress","type":"address","internalType":"address"}],"outputs":[],"stateMutability":"nonpayable"},{"type":"function","name":"setConfiguration","inputs":[{"name":"key","type":"bytes32","internalType":"bytes32"},{"name":"blockNumber","type":"uint64","internalType":"uint64"},{"name":"value","type":"bytes","internalType":"bytes"}],"outputs":[],"stateMutability":"nonpayable"},{"type":"function","name":"setStreamLastMiniblock","inputs":[{"name":"streamId","type":"bytes32","internalType":"bytes32"},{"name":"","type":"bytes32","internalType":"bytes32"},{"name":"lastMiniblockHash","type":"bytes32","internalType":"bytes32"},{"name":"lastMiniblockNum","type":"uint64","internalType":"uint64"},{"name":"isSealed","type":"bool","internalType":"bool"}],"outputs":[],"stateMutability":"nonpayable"},{"type":"function","name":"setStreamLastMiniblockBatch","inputs":[{"name":"miniblocks","type":"tuple[]","internalType":"struct SetMiniblock[]","components":[{"name":"streamId","type":"bytes32","internalType":"bytes32"},{"name":"prevMiniBlockHash","type":"bytes32","internalType":"bytes32"},{"name":"lastMiniblockHash","type":"bytes32","internalType":"bytes32"},{"name":"lastMiniblockNum","type":"uint64","internalType":"uint64"},{"name":"isSealed","type":"bool","internalType":"bool"}]}],"outputs":[],"stateMutability":"nonpayable"},{"type":"function","name":"updateNodeStatus","inputs":[{"name":"nodeAddress","type":"address","internalType":"address"},{"name":"status","type":"uint8","internalType":"enum NodeStatus"}],"outputs":[],"stateMutability":"nonpayable"},{"type":"function","name":"updateNodeUrl","inputs":[{"name":"nodeAddress","type":"address","internalType":"address"},{"name":"url","type":"string","internalType":"string"}],"outputs":[],"stateMutability":"nonpayable"},{"type":"event","name":"ConfigurationChanged","inputs":[{"name":"key","type":"bytes32","indexed":false,"internalType":"bytes32"},{"name":"block","type":"uint64","indexed":false,"internalType":"uint64"},{"name":"value","type":"bytes","indexed":false,"internalType":"bytes"},{"name":"deleted","type":"bool","indexed":false,"internalType":"bool"}],"anonymous":false},{"type":"event","name":"ConfigurationManagerAdded","inputs":[{"name":"manager","type":"address","indexed":true,"internalType":"address"}],"anonymous":false},{"type":"event","name":"ConfigurationManagerRemoved","inputs":[{"name":"manager","type":"address","indexed":true,"internalType":"address"}],"anonymous":false},{"type":"event","name":"Initialized","inputs":[{"name":"version","type":"uint32","indexed":false,"internalType":"uint32"}],"anonymous":false},{"type":"event","name":"InterfaceAdded","inputs":[{"name":"interfaceId","type":"bytes4","indexed":true,"internalType":"bytes4"}],"anonymous":false},{"type":"event","name":"InterfaceRemoved","inputs":[{"name":"interfaceId","type":"bytes4","indexed":true,"internalType":"bytes4"}],"anonymous":false},{"type":"event","name":"NodeAdded","inputs":[{"name":"nodeAddress","type":"address","indexed":true,"internalType":"address"},{"name":"operator","type":"address","indexed":true,"internalType":"address"},{"name":"url","type":"string","indexed":false,"internalType":"string"},{"name":"status","type":"uint8","indexed":false,"internalType":"enum NodeStatus"}],"anonymous":false},{"type":"event","name":"NodeRemoved","inputs":[{"name":"nodeAddress","type":"address","indexed":true,"internalType":"address"}],"anonymous":false},{"type":"event","name":"NodeStatusUpdated","inputs":[{"name":"nodeAddress","type":"address","indexed":true,"internalType":"address"},{"name":"status","type":"uint8","indexed":false,"internalType":"enum NodeStatus"}],"anonymous":false},{"type":"event","name":"NodeUrlUpdated","inputs":[{"name":"nodeAddress","type":"address","indexed":true,"internalType":"address"},{"name":"url","type":"string","indexed":false,"internalType":"string"}],"anonymous":false},{"type":"event","name":"OperatorAdded","inputs":[{"name":"operatorAddress","type":"address","indexed":true,"internalType":"address"}],"anonymous":false},{"type":"event","name":"OperatorRemoved","inputs":[{"name":"operatorAddress","type":"address","indexed":true,"internalType":"address"}],"anonymous":false},{"type":"event","name":"OwnershipTransferred","inputs":[{"name":"previousOwner","type":"address","indexed":true,"internalType":"address"},{"name":"newOwner","type":"address","indexed":true,"internalType":"address"}],"anonymous":false},{"type":"event","name":"StreamAllocated","inputs":[{"name":"streamId","type":"bytes32","indexed":false,"internalType":"bytes32"},{"name":"nodes","type":"address[]","indexed":false,"internalType":"address[]"},{"name":"genesisMiniblockHash","type":"bytes32","indexed":false,"internalType":"bytes32"},{"name":"genesisMiniblock","type":"bytes","indexed":false,"internalType":"bytes"}],"anonymous":false},{"type":"event","name":"StreamLastMiniblockUpdateFailed","inputs":[{"name":"streamId","type":"bytes32","indexed":false,"internalType":"bytes32"},{"name":"lastMiniblockHash","type":"bytes32","indexed":false,"internalType":"bytes32"},{"name":"lastMiniblockNum","type":"uint64","indexed":false,"internalType":"uint64"},{"name":"reason","type":"string","indexed":false,"internalType":"string"}],"anonymous":false},{"type":"event","name":"StreamLastMiniblockUpdated","inputs":[{"name":"streamId","type":"bytes32","indexed":false,"internalType":"bytes32"},{"name":"lastMiniblockHash","type":"bytes32","indexed":false,"internalType":"bytes32"},{"name":"lastMiniblockNum","type":"uint64","indexed":false,"internalType":"uint64"},{"name":"isSealed","type":"bool","indexed":false,"internalType":"bool"}],"anonymous":false},{"type":"event","name":"StreamPlacementUpdated","inputs":[{"name":"streamId","type":"bytes32","indexed":false,"internalType":"bytes32"},{"name":"nodeAddress","type":"address","indexed":false,"internalType":"address"},{"name":"isAdded","type":"bool","indexed":false,"internalType":"bool"}],"anonymous":false},{"type":"error","name":"Initializable_InInitializingState","inputs":[]},{"type":"error","name":"Initializable_NotInInitializingState","inputs":[]},{"type":"error","name":"Introspection_AlreadySupported","inputs":[]},{"type":"error","name":"Introspection_NotSupported","inputs":[]},{"type":"error","name":"Ownable__NotOwner","inputs":[{"name":"account","type":"address","internalType":"address"}]},{"type":"error","name":"Ownable__ZeroAddress","inputs":[]}],"bytecode":{"object":"0x60806040523480156200001157600080fd5b5060405162005341380380620053418339810160408190526200003491620004a6565b6200003e620000c1565b620000493362000169565b60005b8151811015620000b957620000838282815181106200006f576200006f62000578565b60200260200101516200023760201b60201c565b620000b08282815181106200009c576200009c62000578565b60200260200101516200031c60201b60201c565b6001016200004c565b5050620005df565b7f59b501c3653afc186af7d48dda36cf6732bd21629a6295693664240a6ef520008054640100000000900460ff16156200010e576040516366008a2d60e01b815260040160405180910390fd5b805463ffffffff90811610156200016657805463ffffffff191663ffffffff90811782556040519081527fe9c9b456cb2994b80aeef036cf59d26e9617df80f816a6ee5a5b4166e07e2f5c9060200160405180910390a15b50565b60006200019d7f4675fa8241f86f37157864d3d49b85ad4b164352c516da28e1678a90470ae300546001600160a01b031690565b90506001600160a01b038216620001c757604051634e3ef82560e01b815260040160405180910390fd5b817f4675fa8241f86f37157864d3d49b85ad4b164352c516da28e1678a90470ae30080546001600160a01b0319166001600160a01b03928316179055604051838216918316907f8be0079c531659141344cd1fd0a4f28419497f9722a3daafe3b4186f6b6457e090600090a35050565b6001600160a01b038116620002865760408051808201825260078152664241445f41524760c81b6020820152905162461bcd60e51b81526200027d91906004016200058e565b60405180910390fd5b62000293600882620003e9565b15620002d757604080518082018252600e81526d414c52454144595f45584953545360901b6020820152905162461bcd60e51b81526200027d91906004016200058e565b620002e460088262000410565b506040516001600160a01b038216907fac6fa858e9350a46cec16539926e0fde25b7629f84b5a72bffaae4df888ae86d90600090a250565b6001600160a01b038116620003625760408051808201825260078152664241445f41524760c81b6020820152905162461bcd60e51b81526200027d91906004016200058e565b6200036f600d8262000410565b620003b257604080518082018252600e81526d414c52454144595f45584953545360901b6020820152905162461bcd60e51b81526200027d91906004016200058e565b6040516001600160a01b038216907f7afd798379ae2d2e5035438544cea2b60eb1dde6a8128e6d447fd2a25f8825a290600090a250565b6001600160a01b038116600090815260018301602052604081205415155b90505b92915050565b600062000407836001600160a01b03841660008181526001830160205260408120546200046a575081546001818101845560008481526020808220909301849055845484825282860190935260409020919091556200040a565b5060006200040a565b634e487b7160e01b600052604160045260246000fd5b80516001600160a01b0381168114620004a157600080fd5b919050565b60006020808385031215620004ba57600080fd5b82516001600160401b0380821115620004d257600080fd5b818501915085601f830112620004e757600080fd5b815181811115620004fc57620004fc62000473565b8060051b604051601f19603f8301168101818110858211171562000524576200052462000473565b6040529182528482019250838101850191888311156200054357600080fd5b938501935b828510156200056c576200055c8562000489565b8452938501939285019262000548565b98975050505050505050565b634e487b7160e01b600052603260045260246000fd5b60006020808352835180602085015260005b81811015620005be57858101830151858201604001528201620005a0565b506000604082860101526040601f19601f8301168501019250505092915050565b614d5280620005ef6000396000f3fe608060405234801561001057600080fd5b50600436106102325760003560e01c80639ee86d3811610130578063c87d1324116100b8578063d911c6321161007c578063d911c63214610519578063ee885b1214610521578063eecc66f414610534578063fc207c0114610547578063ff3a14ab1461055a57600080fd5b8063c87d1324146104aa578063c8fe3a01146104bd578063ca78c41a146104d2578063d4bd44a0146104f3578063d7a3158a1461050657600080fd5b8063b2b99ec9116100ff578063b2b99ec914610456578063b7f227ee14610469578063ba428b1a1461047c578063c0f220841461048f578063c179b85f1461049757600080fd5b80639ee86d3814610408578063a09449a61461041b578063a1174e7d1461042e578063ac8a584a1461044357600080fd5b8063581f8b9b116101be5780637e4465e7116101825780637e4465e71461039a578063813049ec146103ad57806386789fc6146103c05780639283ae3a146103d55780639d209048146103e857600080fd5b8063581f8b9b1461031057806368b454df146103235780636b883c39146103435780636d70f7ae1461035657806372e1a68b1461037957600080fd5b80633137451111610205578063313745111461029d57806332705ac4146102b057806339bf397e146102d05780633bd84c0c146102e65780633c2544d1146102ee57600080fd5b8063035759e114610237578063081814db1461024c5780631290abe81461026a578063242cae9f1461028a575b600080fd5b61024a610245366004613e69565b61056d565b005b6102546106e1565b6040516102619190613ed2565b60405180910390f35b61027d610278366004613e69565b61094c565b6040516102619190613fed565b61024a61029836600461401c565b610a6e565b61024a6102ab36600461407b565b610ab5565b6102c36102be36600461401c565b610b46565b604051610261919061413d565b6102d8610df8565b604051908152602001610261565b6102c3610e09565b6103016102fc366004613e69565b610f77565b60405161026193929190614150565b61024a61031e366004614194565b611148565b610336610331366004613e69565b6112e8565b60405161026191906141c7565b61024a61035136600461428f565b611414565b61036961036436600461401c565b61167b565b6040519015158152602001610261565b61038c61038736600461407b565b61168e565b604051610261929190614372565b61024a6103a836600461438b565b611829565b61024a6103bb36600461401c565b611a21565b6103c8611b1c565b60405161026191906143d8565b6102546103e3366004613e69565b611b28565b6103fb6103f636600461401c565b611c8b565b60405161026191906144a8565b61024a6104163660046144bb565b611e0c565b61024a6104293660046144f5565b611fca565b610436612299565b604051610261919061457b565b61024a61045136600461401c565b61246d565b61024a61046436600461401c565b6125d0565b61024a6104773660046145df565b612799565b61024a61048a36600461407b565b6129e8565b6102d8612a74565b61024a6104a536600461401c565b612a7f565b6102d86104b836600461401c565b612ac3565b6104c5612b71565b6040516102619190614647565b6104e56104e036600461465a565b612b7d565b60405161026192919061467c565b61036961050136600461401c565b612d6d565b61024a6105143660046146b0565b612d7a565b6104c5612f86565b61024a61052f3660046144bb565b612f92565b61024a610542366004614700565b6131db565b610369610555366004613e69565b6133a6565b61024a61056836600461475d565b6133b3565b33610579600d82613752565b6105bc5760408051808201825260088152670848288be82aaa8960c31b6020820152905162461bcd60e51b81526105b391906004016147d1565b60405180910390fd5b816105c8600a82613777565b6106035760408051808201825260098152681393d517d193d5539160ba1b6020820152905162461bcd60e51b81526105b391906004016147d1565b6000838152600c602052604090205415610676576000838152600c60205260409020805480610634576106346147e4565b60008281526020812060036000199093019283020181815560018101805467ffffffffffffffff191690559061066d6002830182613d14565b50509055610603565b6000838152600c6020526040812061068d91613d4e565b610698600a8461378f565b50604080518481526001600160401b0360208201526080818301819052600090820152600160608201529051600080516020614d328339815191529181900360a00190a1505050565b60606000806106f0600a61379b565b905060005b8181101561073157600061070a600a836137a5565b6000818152600c60205260409020549091506107269085614810565b9350506001016106f5565b506000826001600160401b0381111561074c5761074c6141da565b60405190808252806020026020018201604052801561079957816020015b6040805160608082018352600080835260208301529181019190915281526020019060019003908161076a5790505b50905060006107a8600a61379b565b90506000805b828110156109415760006107c3600a836137a5565b6000818152600c6020908152604080832080548251818502810185019093528083529495509293909291849084015b828210156108d657600084815260209081902060408051606081018252600386029092018054835260018101546001600160401b0316938301939093526002830180549293929184019161084590614823565b80601f016020809104026020016040519081016040528092919081815260200182805461087190614823565b80156108be5780601f10610893576101008083540402835291602001916108be565b820191906000526020600020905b8154815290600101906020018083116108a157829003601f168201915b505050505081525050815260200190600101906107f2565b50505050905060005b8151811015610933578181815181106108fa576108fa614857565b602002602001015187868061090e9061486d565b97508151811061092057610920614857565b60209081029190910101526001016108df565b5050508060010190506107ae565b509195945050505050565b6040805160a08101825260008082526020820181905291810182905260608082018390526080820152906109809083613777565b6109bb5760408051808201825260098152681393d517d193d5539160ba1b6020820152905162461bcd60e51b81526105b391906004016147d1565b600082815260026020818152604092839020835160a0810185528154815260018201546001600160401b0380821683860152600160401b8204811683880152600160801b9091041660608201529281018054855181850281018501909652808652939491936080860193830182828015610a5e57602002820191906000526020600020905b81546001600160a01b03168152600190910190602001808311610a40575b5050505050815250509050919050565b610a766137b1565b6001600160a01b0316336001600160a01b031614610aa9576040516365f4906560e01b81523360048201526024016105b3565b610ab2816137df565b50565b7f59b501c3653afc186af7d48dda36cf6732bd21629a6295693664240a6ef5200054640100000000900460ff16610aff57604051630ef4733760e31b815260040160405180910390fd5b60005b81811015610b4157610b39838383818110610b1f57610b1f614857565b9050602002016020810190610b34919061401c565b6138b1565b600101610b02565b505050565b60606000610b538161379b565b90506000816001600160401b03811115610b6f57610b6f6141da565b604051908082528060200260200182016040528015610b98578160200160208202803683370190505b5090506000805b83811015610c5a576000610bb381836137a5565b600081815260026020819052604082209081015492935091905b81811015610c4b57896001600160a01b0316836002018281548110610bf457610bf4614857565b6000918252602090912001546001600160a01b031603610c4357838787610c1a81614886565b985063ffffffff1681518110610c3257610c32614857565b602002602001018181525050610c4b565b600101610bcd565b50505050806001019050610b9f565b5060008163ffffffff166001600160401b03811115610c7b57610c7b6141da565b604051908082528060200260200182016040528015610cb457816020015b610ca1613d6f565b815260200190600190039081610c995790505b50905060005b8263ffffffff16811015610dee576040518060400160405280858381518110610ce557610ce5614857565b6020026020010151815260200160006002016000878581518110610d0b57610d0b614857565b6020908102919091018101518252818101929092526040908101600020815160a0810183528154815260018201546001600160401b0380821683870152600160401b8204811683860152600160801b909104166060820152600282018054845181870281018701909552808552919492936080860193909290830182828015610dbd57602002820191906000526020600020905b81546001600160a01b03168152600190910190602001808311610d9f575b505050505081525050815250828281518110610ddb57610ddb614857565b6020908102919091010152600101610cba565b5095945050505050565b6000610e04600561379b565b905090565b60606000610e168161379b565b90506000816001600160401b03811115610e3257610e326141da565b604051908082528060200260200182016040528015610e6b57816020015b610e58613d6f565b815260200190600190039081610e505790505b50905060005b82811015610f70576000610e8581836137a5565b60408051808201825282815260008381526002602081815291849020845160a0810186528154815260018201546001600160401b0380821683870152600160401b8204811683890152600160801b9091041660608201529181018054865181860281018601909752808752969750939583870195929491936080860193929190830182828015610f3e57602002820191906000526020600020905b81546001600160a01b03168152600190910190602001808311610f20575b505050505081525050815250838381518110610f5c57610f5c614857565b602090810291909101015250600101610e71565b5092915050565b6040805160a081018252600080825260208201819052918101829052606080820183905260808201819052909190610faf8285613777565b610fea5760408051808201825260098152681393d517d193d5539160ba1b6020820152905162461bcd60e51b81526105b391906004016147d1565b600084815260026020818152604080842060048352818520546003845294829020825160a0810184528254815260018301546001600160401b0380821683880152600160401b8204811683870152600160801b909104166060820152948201805484518187028101870190955280855292969591949193879360808601939192918301828280156110a457602002820191906000526020600020905b81546001600160a01b03168152600190910190602001808311611086575b50505050508152505092508080546110bb90614823565b80601f01602080910402602001604051908101604052809291908181526020018280546110e790614823565b80156111345780601f1061110957610100808354040283529160200191611134565b820191906000526020600020905b81548152906001019060200180831161111757829003601f168201915b505050505090509250925092509193909250565b6001600160a01b038083166000908152600760205260409020600201548391166111a857604080518082018252600e81526d1393d11157d393d517d193d5539160921b6020820152905162461bcd60e51b81526105b391906004016147d1565b336111b4600882613752565b6111ee5760408051808201825260088152670848288be82aaa8960c31b6020820152905162461bcd60e51b81526105b391906004016147d1565b6001600160a01b038085166000908152600760205260409020600301548591339116811461124c5760408051808201825260088152670848288be82aaa8960c31b6020820152905162461bcd60e51b81526105b391906004016147d1565b6001600160a01b038616600090815260076020526040902080546112739060ff1687613976565b80548690829060ff191660018360058111156112915761129161441c565b021790555060028101546040516001600160a01b03909116907f20891cc7622c7951cbd8c70c61a5201eb45625b8c00e8f6c986cfca78f3dbfa0906112d79089906148a9565b60405180910390a250505050505050565b6112f0613d6f565b60006112fb8161379b565b905080831061133b5760408051808201825260098152681393d517d193d5539160ba1b6020820152905162461bcd60e51b81526105b391906004016147d1565b600061134781856137a5565b60408051808201825282815260008381526002602081815291849020845160a0810186528154815260018201546001600160401b0380821683870152600160401b8204811683890152600160801b909104166060820152918101805486518186028101860190975280875296975093958387019592949193608086019392919083018282801561140057602002820191906000526020600020905b81546001600160a01b031681526001909101906020018083116113e2575b505050919092525050509052949350505050565b336000818152600760205260409020600201546001600160a01b031661147057604080518082018252600e81526d1393d11157d393d517d193d5539160921b6020820152905162461bcd60e51b81526105b391906004016147d1565b61147b600086613777565b156114bc57604080518082018252600e81526d414c52454144595f45584953545360901b6020820152905162461bcd60e51b81526105b391906004016147d1565b835160005b81811015611541576114f98682815181106114de576114de614857565b6020026020010151600060050161375290919063ffffffff16565b61153957604080518082018252600e81526d1393d11157d393d517d193d5539160921b6020820152905162461bcd60e51b81526105b391906004016147d1565b6001016114c1565b506040805160a0810182528581526000602082018190529181018290526060810182905260808101879052906115779088613b09565b5060008781526002602081815260409283902084518155818501516001820180549587015160608801516001600160401b03908116600160801b0267ffffffffffffffff60801b19928216600160401b026fffffffffffffffffffffffffffffffff1990991691909416179690961795909516179093556080840151805185949361160793908501920190613db9565b5050506000878152600360205260409020611622858261491c565b5060008781526004602052604090819020869055517f55ef7efc60ef99743e54209752c9a8e047e013917ec91572db75875069dd65bb9061166a9089908990899089906149d5565b60405180910390a150505050505050565b6000611688600883613752565b92915050565b600060608282816001600160401b038111156116ac576116ac6141da565b6040519080825280602002602001820160405280156116e557816020015b6116d2613d6f565b8152602001906001900390816116ca5790505b50905060005b8281101561181d57600087878381811061170757611707614857565b6020908102929092013560008181526002938490526040812093840154919450039050611735575050611815565b604080518082018252838152815160a0810183528354815260018401546001600160401b03808216602084810191909152600160401b8304821684870152600160801b9092041660608301526002850180548551818402810184019096528086529394828601948793608086019391908301828280156117de57602002820191906000526020600020905b81546001600160a01b031681526001909101906020018083116117c0575b50505091909252505050905284886117f58161486d565b99508151811061180757611807614857565b602002602001018190525050505b6001016116eb565b509150505b9250929050565b33611835600882613752565b61186f5760408051808201825260088152670848288be82aaa8960c31b6020820152905162461bcd60e51b81526105b391906004016147d1565b6001600160a01b038084166000908152600760205260409020600201548491166118cf57604080518082018252600e81526d1393d11157d393d517d193d5539160921b6020820152905162461bcd60e51b81526105b391906004016147d1565b6001600160a01b038085166000908152600760205260409020600301548591339116811461192d5760408051808201825260088152670848288be82aaa8960c31b6020820152905162461bcd60e51b81526105b391906004016147d1565b6001600160a01b038616600090815260076020908152604091829020915161195791889101614a11565b60405160208183030381529060405280519060200120816001016040516020016119819190614a2d565b60405160208183030381529060405280519060200120036119d15760408051808201825260078152664241445f41524760c81b6020820152905162461bcd60e51b81526105b391906004016147d1565b600181016119df878261491c565b5060028101546040516001600160a01b03909116907f4505168a8705a16fd4d0575197fd0f510db69df93a065e158ad2c0957ba12bac906112d79089906147d1565b611a296137b1565b6001600160a01b0316336001600160a01b031614611a5c576040516365f4906560e01b81523360048201526024016105b3565b6001600160a01b038116611a9f5760408051808201825260078152664241445f41524760c81b6020820152905162461bcd60e51b81526105b391906004016147d1565b611aaa600d82613b15565b611ae55760408051808201825260098152681393d517d193d5539160ba1b6020820152905162461bcd60e51b81526105b391906004016147d1565b6040516001600160a01b038216907ff9889c857e5356066b564327caa757c325ecbc001b2b47d72edf8cf9aedb1be590600090a250565b6060610e046000613b2a565b606081611b36600a82613777565b611b715760408051808201825260098152681393d517d193d5539160ba1b6020820152905162461bcd60e51b81526105b391906004016147d1565b6000838152600c6020908152604080832080548251818502810185019093528083529193909284015b82821015611c7e57600084815260209081902060408051606081018252600386029092018054835260018101546001600160401b03169383019390935260028301805492939291840191611bed90614823565b80601f0160208091040260200160405190810160405280929190818152602001828054611c1990614823565b8015611c665780601f10611c3b57610100808354040283529160200191611c66565b820191906000526020600020905b815481529060010190602001808311611c4957829003601f168201915b50505050508152505081526020019060010190611b9a565b5050505091505b50919050565b611cb66040805160808101909152806000815260606020820181905260006040830181905291015290565b611cc1600583613752565b611d0157604080518082018252600e81526d1393d11157d393d517d193d5539160921b6020820152905162461bcd60e51b81526105b391906004016147d1565b6001600160a01b038216600090815260076020526040908190208151608081019092528054829060ff166005811115611d3c57611d3c61441c565b6005811115611d4d57611d4d61441c565b8152602001600182018054611d6190614823565b80601f0160208091040260200160405190810160405280929190818152602001828054611d8d90614823565b8015611dda5780601f10611daf57610100808354040283529160200191611dda565b820191906000526020600020905b815481529060010190602001808311611dbd57829003601f168201915b505050918352505060028201546001600160a01b03908116602083015260039092015490911660409091015292915050565b81611e18600082613777565b611e535760408051808201825260098152681393d517d193d5539160ba1b6020820152905162461bcd60e51b81526105b391906004016147d1565b336000818152600760205260409020600201546001600160a01b0316611eaf57604080518082018252600e81526d1393d11157d393d517d193d5539160921b6020820152905162461bcd60e51b81526105b391906004016147d1565b600084815260026020819052604082209081015490915b81811015611f4b57856001600160a01b0316836002018281548110611eed57611eed614857565b6000918252602090912001546001600160a01b031603611f4357604080518082018252600e81526d414c52454144595f45584953545360901b6020820152905162461bcd60e51b81526105b391906004016147d1565b600101611ec6565b5060028201805460018082018355600092835260209283902090910180546001600160a01b0319166001600160a01b038916908117909155604080518a8152938401919091528201527faaa473c28a5fe04b6a7ecd795826e462f9d0c23f00ef9f51ec02fa6ea418806f906060015b60405180910390a1505050505050565b33611fd6600d82613752565b6120105760408051808201825260088152670848288be82aaa8960c31b6020820152905162461bcd60e51b81526105b391906004016147d1565b67fffffffffffffffe196001600160401b0385160161205e5760408051808201825260078152664241445f41524760c81b6020820152905162461bcd60e51b81526105b391906004016147d1565b600082900361209c5760408051808201825260078152664241445f41524760c81b6020820152905162461bcd60e51b81526105b391906004016147d1565b6120a7600a86613777565b6120b8576120b6600a86613b09565b505b6000858152600c6020526040812054905b8181101561219f576000878152600c6020526040902080546001600160401b0388169190839081106120fd576120fd614857565b60009182526020909120600160039092020101546001600160401b031603612197576000878152600c602052604090208054869186918490811061214357612143614857565b90600052602060002090600302016002019182612161929190614aa3565b50600080516020614d32833981519152878787876000604051612188959493929190614b5c565b60405180910390a15050612292565b6001016120c9565b506000600c0160008781526020019081526020016000206040518060600160405280888152602001876001600160401b0316815260200186868080601f0160208091040260200160405190810160405280939291908181526020018383808284376000920182905250939094525050835460018082018655948252602091829020845160039092020190815590830151938101805467ffffffffffffffff19166001600160401b03909516949094179093555060408101519091906002820190612269908261491c565b505050600080516020614d32833981519152868686866000604051611fba959493929190614b5c565b5050505050565b606060006122a7600561379b565b6001600160401b038111156122be576122be6141da565b60405190808252806020026020018201604052801561231a57816020015b6123076040805160808101909152806000815260606020820181905260006040830181905291015290565b8152602001906001900390816122dc5790505b50905060005b61232a600561379b565b811015611c8557600760006123406005846137a5565b6001600160a01b03168152602081019190915260409081016000208151608081019092528054829060ff16600581111561237c5761237c61441c565b600581111561238d5761238d61441c565b81526020016001820180546123a190614823565b80601f01602080910402602001604051908101604052809291908181526020018280546123cd90614823565b801561241a5780601f106123ef5761010080835404028352916020019161241a565b820191906000526020600020905b8154815290600101906020018083116123fd57829003601f168201915b505050918352505060028201546001600160a01b039081166020830152600390920154909116604090910152825183908390811061245a5761245a614857565b6020908102919091010152600101612320565b6124756137b1565b6001600160a01b0316336001600160a01b0316146124a8576040516365f4906560e01b81523360048201526024016105b3565b6124b3600882613752565b6124f757604080518082018252601281527113d41154905513d497d393d517d193d5539160721b6020820152905162461bcd60e51b81526105b391906004016147d1565b60005b612504600561379b565b81101561258c576001600160a01b038216600760006125246005856137a5565b6001600160a01b039081168252602082019290925260400160002060030154160361258457604080518082018252600d81526c4f55545f4f465f424f554e445360981b6020820152905162461bcd60e51b81526105b391906004016147d1565b6001016124fa565b50612598600882613b15565b506040516001600160a01b038216907f80c0b871b97b595b16a7741c1b06fed0c6f6f558639f18ccbce50724325dc40d90600090a250565b6001600160a01b038082166000908152600760205260409020600301548291339116811461262e5760408051808201825260088152670848288be82aaa8960c31b6020820152905162461bcd60e51b81526105b391906004016147d1565b6001600160a01b038381166000908152600760205260409020600201541661268c57604080518082018252600e81526d1393d11157d393d517d193d5539160921b6020820152905162461bcd60e51b81526105b391906004016147d1565b60056001600160a01b03841660009081526007602052604090205460ff1660058111156126bb576126bb61441c565b146127045760408051808201825260168152751393d11157d4d510551157d393d517d0531313d5d15160521b6020820152905162461bcd60e51b81526105b391906004016147d1565b61270f600584613b15565b506001600160a01b0383166000908152600760205260408120805460ff191681559061273e6001830182613d14565b506002810180546001600160a01b03199081169091556003909101805490911690556040516001600160a01b038416907fcfc24166db4bb677e857cacabd1541fb2b30645021b27c5130419589b84db52b90600090a2505050565b336127a5600d82613752565b6127df5760408051808201825260088152670848288be82aaa8960c31b6020820152905162461bcd60e51b81526105b391906004016147d1565b6000805b6000858152600c6020526040902054811015612960576000858152600c6020526040902080546001600160401b03861691908390811061282557612825614857565b60009182526020909120600160039092020101546001600160401b031603612958576000858152600c60205260409020805461286390600190614bac565b8154811061287357612873614857565b90600052602060002090600302016000600c01600087815260200190815260200160002082815481106128a8576128a8614857565b600091825260209091208254600390920201908155600180830154908201805467ffffffffffffffff19166001600160401b039092169190911790556002808201906128f690840182614bbf565b5050506000858152600c60205260409020805480612916576129166147e4565b60008281526020812060036000199093019283020181815560018101805467ffffffffffffffff191690559061294f6002830182613d14565b50509055600191505b6001016127e3565b508061299d5760408051808201825260098152681393d517d193d5539160ba1b6020820152905162461bcd60e51b81526105b391906004016147d1565b604080518581526001600160401b03851660208201526080818301819052600090820152600160608201529051600080516020614d328339815191529181900360a00190a150505050565b7f59b501c3653afc186af7d48dda36cf6732bd21629a6295693664240a6ef5200054640100000000900460ff16612a3257604051630ef4733760e31b815260040160405180910390fd5b60005b81811015610b4157612a6c838383818110612a5257612a52614857565b9050602002016020810190612a67919061401c565b6137df565b600101612a35565b6000610e048161379b565b612a876137b1565b6001600160a01b0316336001600160a01b031614612aba576040516365f4906560e01b81523360048201526024016105b3565b610ab2816138b1565b60008080612ad08161379b565b905060005b81811015612b68576000612ae981836137a5565b60008181526002602052604081209192505b6002820154811015612b5a57876001600160a01b0316826002018281548110612b2657612b26614857565b6000918252602090912001546001600160a01b031603612b525785612b4a8161486d565b965050612b5a565b600101612afb565b505050806001019050612ad5565b50909392505050565b6060610e046005613b2a565b60606000828410612bbd5760408051808201825260078152664241445f41524760c81b6020820152905162461bcd60e51b81526105b391906004016147d1565b6000612bc88161379b565b90506000818511612bd95784612bdb565b815b90506000868211612bed576000612bf7565b612bf78783614bac565b90506000816001600160401b03811115612c1357612c136141da565b604051908082528060200260200182016040528015612c4c57816020015b612c39613d6f565b815260200190600190039081612c315790505b50905060005b82811015612d5c576000612c71612c69838c614810565b6000906137a5565b60408051808201825282815260008381526002602081815291849020845160a0810186528154815260018201546001600160401b0380821683870152600160401b8204811683890152600160801b9091041660608201529181018054865181860281018601909752808752969750939583870195929491936080860193929190830182828015612d2a57602002820191906000526020600020905b81546001600160a01b03168152600190910190602001808311612d0c575b505050505081525050815250838381518110612d4857612d48614857565b602090810291909101015250600101612c52565b509450505083101590509250929050565b6000611688600d83613752565b336000818152600760205260409020600201546001600160a01b0316612dd657604080518082018252600e81526d1393d11157d393d517d193d5539160921b6020820152905162461bcd60e51b81526105b391906004016147d1565b612de1600087613777565b612e1c5760408051808201825260098152681393d517d193d5539160ba1b6020820152905162461bcd60e51b81526105b391906004016147d1565b6000868152600260205260409020600180820154600160801b90041615612e7857604080518082018252600d81526c14d51491505357d4d150531151609a1b6020820152905162461bcd60e51b81526105b391906004016147d1565b60018101546001600160401b03808616911610612ec45760408051808201825260078152664241445f41524760c81b6020820152905162461bcd60e51b81526105b391906004016147d1565b6000878152600360205260408120612edb91613d14565b84815560018101805467ffffffffffffffff19166001600160401b0386161790558215612f35576001818101805467ffffffffffffffff60801b198116600160801b918290046001600160401b0316909317029190911790555b60408051888152602081018790526001600160401b0386169181019190915283151560608201527fccc26bbb6dd655ea0bb8a40a3c30e35c6bdf42f8faf0d71bbea897af768cda8b9060800161166a565b6060610e046008613b2a565b81612f9e600082613777565b612fd95760408051808201825260098152681393d517d193d5539160ba1b6020820152905162461bcd60e51b81526105b391906004016147d1565b336000818152600760205260409020600201546001600160a01b031661303557604080518082018252600e81526d1393d11157d393d517d193d5539160921b6020820152905162461bcd60e51b81526105b391906004016147d1565b6000848152600260208190526040822090810154909190815b8181101561315057866001600160a01b031684600201828154811061307557613075614857565b6000918252602090912001546001600160a01b031603613148576002840161309e600184614bac565b815481106130ae576130ae614857565b6000918252602090912001546002850180546001600160a01b0390921691839081106130dc576130dc614857565b9060005260206000200160006101000a8154816001600160a01b0302191690836001600160a01b031602179055508360020180548061311d5761311d6147e4565b600082815260209020810160001990810180546001600160a01b031916905501905560019250613150565b60010161304e565b508161319257604080518082018252600e81526d1393d11157d393d517d193d5539160921b6020820152905162461bcd60e51b81526105b391906004016147d1565b604080518881526001600160a01b03881660208201526000918101919091527faaa473c28a5fe04b6a7ecd795826e462f9d0c23f00ef9f51ec02fa6ea418806f9060600161166a565b336131e7600882613752565b6132215760408051808201825260088152670848288be82aaa8960c31b6020820152905162461bcd60e51b81526105b391906004016147d1565b6001600160a01b03848116600090815260076020526040902060020154161561328057604080518082018252600e81526d414c52454144595f45584953545360901b6020820152905162461bcd60e51b81526105b391906004016147d1565b6000604051806080016040528084600581111561329f5761329f61441c565b8152602081018690526001600160a01b03871660408201523360609091015290506132cb600586613b37565b506001600160a01b03851660009081526007602052604090208151815483929190829060ff191660018360058111156133065761330661441c565b02179055506020820151600182019061331f908261491c565b506040828101516002830180546001600160a01b03199081166001600160a01b03938416179091556060909401516003909301805490941692811692909217909255905133918716907f759154d15a6aec80ceab7bc8820f46ebc53ad68bb18f47afb77483fea9dcc9ff906133979088908890614c8b565b60405180910390a35050505050565b6000611688600a83613777565b336000818152600760205260409020600201546001600160a01b031661340f57604080518082018252600e81526d1393d11157d393d517d193d5539160921b6020820152905162461bcd60e51b81526105b391906004016147d1565b8160005b81811015612292573685858381811061342e5761342e614857565b60a002919091019150613445905060008235613777565b6134bd577f75460fe319331413a18a82d99b07735cec53fa0c4061ada38c2141e331082afa813560408301356134816080850160608601614cad565b60408051808201825260098152681393d517d193d5539160ba1b602082015290516134af9493929190614cc8565b60405180910390a15061374a565b80356000908152600260205260409020600180820154600160801b90041615613559577f75460fe319331413a18a82d99b07735cec53fa0c4061ada38c2141e331082afa823560408401356135186080860160608701614cad565b604080518082018252600d81526c14d51491505357d4d150531151609a1b6020820152905161354a9493929190614cc8565b60405180910390a1505061374a565b6135696080830160608401614cad565b6001808301546001600160401b039283169261358792911690614cf6565b6001600160401b03161415806135a257508054602083013514155b1561360b577f75460fe319331413a18a82d99b07735cec53fa0c4061ada38c2141e331082afa823560408401356135df6080860160608701614cad565b60408051808201825260078152664241445f41524760c81b6020820152905161354a9493929190614cc8565b604082013581556136226080830160608401614cad565b60018201805467ffffffffffffffff19166001600160401b039290921691909117905561365560a0830160808401614d16565b1561368d576001818101805467ffffffffffffffff60801b198116600160801b918290046001600160401b0316909317029190911790555b61369d6080830160608401614cad565b6001600160401b03166001036136c657813560009081526003602052604081206136c691613d14565b7fccc26bbb6dd655ea0bb8a40a3c30e35c6bdf42f8faf0d71bbea897af768cda8b823560408401356136fe6080860160608701614cad565b61370e60a0870160808801614d16565b60405161373f949392919093845260208401929092526001600160401b031660408301521515606082015260800190565b60405180910390a150505b600101613413565b6001600160a01b038116600090815260018301602052604081205415155b9392505050565b60008181526001830160205260408120541515613770565b60006137708383613b4c565b6000611688825490565b60006137708383613c3f565b7f4675fa8241f86f37157864d3d49b85ad4b164352c516da28e1678a90470ae300546001600160a01b031690565b6001600160a01b0381166138225760408051808201825260078152664241445f41524760c81b6020820152905162461bcd60e51b81526105b391906004016147d1565b61382d600882613752565b1561386e57604080518082018252600e81526d414c52454144595f45584953545360901b6020820152905162461bcd60e51b81526105b391906004016147d1565b613879600882613b37565b506040516001600160a01b038216907fac6fa858e9350a46cec16539926e0fde25b7629f84b5a72bffaae4df888ae86d90600090a250565b6001600160a01b0381166138f45760408051808201825260078152664241445f41524760c81b6020820152905162461bcd60e51b81526105b391906004016147d1565b6138ff600d82613b37565b61393f57604080518082018252600e81526d414c52454144595f45584953545360901b6020820152905162461bcd60e51b81526105b391906004016147d1565b6040516001600160a01b038216907f7afd798379ae2d2e5035438544cea2b60eb1dde6a8128e6d447fd2a25f8825a290600090a250565b600082600581111561398a5761398a61441c565b14806139de575060018260058111156139a5576139a561441c565b1480156139de575060038160058111156139c1576139c161441c565b14806139de575060048160058111156139dc576139dc61441c565b145b80613a31575060028260058111156139f8576139f861441c565b148015613a3157506003816005811115613a1457613a1461441c565b1480613a3157506004816005811115613a2f57613a2f61441c565b145b80613a8457506004826005811115613a4b57613a4b61441c565b148015613a8457506003816005811115613a6757613a6761441c565b1480613a8457506005816005811115613a8257613a8261441c565b145b80613abc57506003826005811115613a9e57613a9e61441c565b148015613abc57506005816005811115613aba57613aba61441c565b145b15613ac5575050565b60408051808201825260168152751393d11157d4d510551157d393d517d0531313d5d15160521b6020820152905162461bcd60e51b81526105b391906004016147d1565b60006137708383613c69565b6000613770836001600160a01b038416613b4c565b6060600061377083613cb8565b6000613770836001600160a01b038416613c69565b60008181526001830160205260408120548015613c35576000613b70600183614bac565b8554909150600090613b8490600190614bac565b9050808214613be9576000866000018281548110613ba457613ba4614857565b9060005260206000200154905080876000018481548110613bc757613bc7614857565b6000918252602080832090910192909255918252600188019052604090208390555b8554869080613bfa57613bfa6147e4565b600190038181906000526020600020016000905590558560010160008681526020019081526020016000206000905560019350505050611688565b6000915050611688565b6000826000018281548110613c5657613c56614857565b9060005260206000200154905092915050565b6000818152600183016020526040812054613cb057508154600181810184556000848152602080822090930184905584548482528286019093526040902091909155611688565b506000611688565b606081600001805480602002602001604051908101604052809291908181526020018280548015613d0857602002820191906000526020600020905b815481526020019060010190808311613cf4575b50505050509050919050565b508054613d2090614823565b6000825580601f10613d30575050565b601f016020900490600052602060002090810190610ab29190613e1e565b5080546000825560030290600052602060002090810190610ab29190613e33565b604080518082019091526000815260208101613db46040805160a081018252600080825260208201819052918101829052606080820192909252608081019190915290565b905290565b828054828255906000526020600020908101928215613e0e579160200282015b82811115613e0e57825182546001600160a01b0319166001600160a01b03909116178255602090920191600190910190613dd9565b50613e1a929150613e1e565b5090565b5b80821115613e1a5760008155600101613e1f565b80821115613e1a57600080825560018201805467ffffffffffffffff19169055613e606002830182613d14565b50600301613e33565b600060208284031215613e7b57600080fd5b5035919050565b60005b83811015613e9d578181015183820152602001613e85565b50506000910152565b60008151808452613ebe816020860160208601613e82565b601f01601f19169290920160200192915050565b600060208083018184528085518083526040925060408601915060408160051b87010184880160005b83811015613f4e57888303603f19018552815180518452878101516001600160401b0316888501528601516060878501819052613f3a81860183613ea6565b968901969450505090860190600101613efb565b509098975050505050505050565b600060a08301825184526020808401516001600160401b0380821660208801528060408701511660408801528060608701511660608801525050608084015160a0608087015282815180855260c088019150602083019450600092505b80831015613fe25784516001600160a01b03168252938301936001929092019190830190613fb9565b509695505050505050565b6020815260006137706020830184613f5c565b80356001600160a01b038116811461401757600080fd5b919050565b60006020828403121561402e57600080fd5b61377082614000565b60008083601f84011261404957600080fd5b5081356001600160401b0381111561406057600080fd5b6020830191508360208260051b850101111561182257600080fd5b6000806020838503121561408e57600080fd5b82356001600160401b038111156140a457600080fd5b6140b085828601614037565b90969095509350505050565b8051825260006020820151604060208501526140db6040850182613f5c565b949350505050565b60008282518085526020808601955060208260051b8401016020860160005b8481101561413057601f1986840301895261411e8383516140bc565b98840198925090830190600101614102565b5090979650505050505050565b60208152600061377060208301846140e3565b6060815260006141636060830186613f5c565b846020840152828103604084015261417b8185613ea6565b9695505050505050565b80356006811061401757600080fd5b600080604083850312156141a757600080fd5b6141b083614000565b91506141be60208401614185565b90509250929050565b60208152600061377060208301846140bc565b634e487b7160e01b600052604160045260246000fd5b604051601f8201601f191681016001600160401b0381118282101715614218576142186141da565b604052919050565b600082601f83011261423157600080fd5b81356001600160401b0381111561424a5761424a6141da565b61425d601f8201601f19166020016141f0565b81815284602083860101111561427257600080fd5b816020850160208301376000918101602001919091529392505050565b600080600080608085870312156142a557600080fd5b843593506020808601356001600160401b03808211156142c457600080fd5b818801915088601f8301126142d857600080fd5b8135818111156142ea576142ea6141da565b8060051b6142f98582016141f0565b918252838101850191858101908c84111561431357600080fd5b948601945b838610156143385761432986614000565b82529486019490860190614318565b985050505060408801359450606088013592508083111561435857600080fd5b505061436687828801614220565b91505092959194509250565b8281526040602082015260006140db60408301846140e3565b6000806040838503121561439e57600080fd5b6143a783614000565b915060208301356001600160401b038111156143c257600080fd5b6143ce85828601614220565b9150509250929050565b6020808252825182820181905260009190848201906040850190845b81811015614410578351835292840192918401916001016143f4565b50909695505050505050565b634e487b7160e01b600052602160045260246000fd5b6006811061445057634e487b7160e01b600052602160045260246000fd5b9052565b61445f828251614432565b600060208201516080602085015261447a6080850182613ea6565b6040848101516001600160a01b03908116918701919091526060948501511693909401929092525090919050565b6020815260006137706020830184614454565b600080604083850312156144ce57600080fd5b823591506141be60208401614000565b80356001600160401b038116811461401757600080fd5b6000806000806060858703121561450b57600080fd5b8435935061451b602086016144de565b925060408501356001600160401b038082111561453757600080fd5b818701915087601f83011261454b57600080fd5b81358181111561455a57600080fd5b88602082850101111561456c57600080fd5b95989497505060200194505050565b600060208083016020845280855180835260408601915060408160051b87010192506020870160005b828110156145d257603f198886030184526145c0858351614454565b945092850192908501906001016145a4565b5092979650505050505050565b600080604083850312156145f257600080fd5b823591506141be602084016144de565b60008151808452602080850194506020840160005b8381101561463c5781516001600160a01b031687529582019590820190600101614617565b509495945050505050565b6020815260006137706020830184614602565b6000806040838503121561466d57600080fd5b50508035926020909101359150565b60408152600061468f60408301856140e3565b905082151560208301529392505050565b8035801515811461401757600080fd5b600080600080600060a086880312156146c857600080fd5b8535945060208601359350604086013592506146e6606087016144de565b91506146f4608087016146a0565b90509295509295909350565b60008060006060848603121561471557600080fd5b61471e84614000565b925060208401356001600160401b0381111561473957600080fd5b61474586828701614220565b92505061475460408501614185565b90509250925092565b6000806020838503121561477057600080fd5b82356001600160401b038082111561478757600080fd5b818501915085601f83011261479b57600080fd5b8135818111156147aa57600080fd5b86602060a0830285010111156147bf57600080fd5b60209290920196919550909350505050565b6020815260006137706020830184613ea6565b634e487b7160e01b600052603160045260246000fd5b634e487b7160e01b600052601160045260246000fd5b80820180821115611688576116886147fa565b600181811c9082168061483757607f821691505b602082108103611c8557634e487b7160e01b600052602260045260246000fd5b634e487b7160e01b600052603260045260246000fd5b60006001820161487f5761487f6147fa565b5060010190565b600063ffffffff80831681810361489f5761489f6147fa565b6001019392505050565b602081016116888284614432565b601f821115610b41576000816000526020600020601f850160051c810160208610156148e05750805b601f850160051c820191505b818110156148ff578281556001016148ec565b505050505050565b600019600383901b1c191660019190911b1790565b81516001600160401b03811115614935576149356141da565b614949816149438454614823565b846148b7565b602080601f83116001811461497857600084156149665750858301515b6149708582614907565b8655506148ff565b600085815260208120601f198616915b828110156149a757888601518255948401946001909101908401614988565b50858210156149c55787850151600019600388901b60f8161c191681555b5050505050600190811b01905550565b8481526080602082015260006149ee6080830186614602565b8460408401528281036060840152614a068185613ea6565b979650505050505050565b60008251614a23818460208701613e82565b9190910192915050565b6000808354614a3b81614823565b60018281168015614a535760018114614a6857614a97565b60ff1984168752821515830287019450614a97565b8760005260208060002060005b85811015614a8e5781548a820152908401908201614a75565b50505082870194505b50929695505050505050565b6001600160401b03831115614aba57614aba6141da565b614ace83614ac88354614823565b836148b7565b6000601f841160018114614afc5760008515614aea5750838201355b614af48682614907565b845550612292565b600083815260209020601f19861690835b82811015614b2d5786850135825560209485019460019092019101614b0d565b5086821015614b4a5760001960f88860031b161c19848701351681555b505060018560011b0183555050505050565b8581526001600160401b038516602082015260806040820152826080820152828460a0830137600081840160a0908101919091529115156060820152601f909201601f1916909101019392505050565b81810381811115611688576116886147fa565b818103614bca575050565b614bd48254614823565b6001600160401b03811115614beb57614beb6141da565b614bf9816149438454614823565b6000601f821160018114614c275760008315614c155750848201545b614c1f8482614907565b855550612292565b600085815260209020601f19841690600086815260209020845b83811015614c615782860154825560019586019590910190602001614c41565b50858310156149c55793015460001960f8600387901b161c19169092555050600190811b01905550565b604081526000614c9e6040830185613ea6565b90506137706020830184614432565b600060208284031215614cbf57600080fd5b613770826144de565b8481528360208201526001600160401b038316604082015260806060820152600061417b6080830184613ea6565b6001600160401b03818116838216019080821115610f7057610f706147fa565b600060208284031215614d2857600080fd5b613770826146a056fec01483261a841a868b99cb8802faed4ea44a1a816651c4f7ee061a96a205fe98","linkReferences":{}},"methodIdentifiers":{"__OperatorRegistry_init(address[])":"ba428b1a","__RiverConfig_init(address[])":"31374511","allocateStream(bytes32,address[],bytes32,bytes)":"6b883c39","approveConfigurationManager(address)":"c179b85f","approveOperator(address)":"242cae9f","configurationExists(bytes32)":"fc207c01","deleteConfiguration(bytes32)":"035759e1","deleteConfigurationOnBlock(bytes32,uint64)":"b7f227ee","getAllConfiguration()":"081814db","getAllNodeAddresses()":"c8fe3a01","getAllNodes()":"a1174e7d","getAllOperators()":"d911c632","getAllStreamIds()":"86789fc6","getAllStreams()":"3bd84c0c","getConfiguration(bytes32)":"9283ae3a","getNode(address)":"9d209048","getNodeCount()":"39bf397e","getPaginatedStreams(uint256,uint256)":"ca78c41a","getStream(bytes32)":"1290abe8","getStreamByIndex(uint256)":"68b454df","getStreamCount()":"c0f22084","getStreamCountOnNode(address)":"c87d1324","getStreamWithGenesis(bytes32)":"3c2544d1","getStreams(bytes32[])":"72e1a68b","getStreamsOnNode(address)":"32705ac4","isConfigurationManager(address)":"d4bd44a0","isOperator(address)":"6d70f7ae","placeStreamOnNode(bytes32,address)":"9ee86d38","registerNode(address,string,uint8)":"eecc66f4","removeConfigurationManager(address)":"813049ec","removeNode(address)":"b2b99ec9","removeOperator(address)":"ac8a584a","removeStreamFromNode(bytes32,address)":"ee885b12","setConfiguration(bytes32,uint64,bytes)":"a09449a6","setStreamLastMiniblock(bytes32,bytes32,bytes32,uint64,bool)":"d7a3158a","setStreamLastMiniblockBatch((bytes32,bytes32,bytes32,uint64,bool)[])":"ff3a14ab","updateNodeStatus(address,uint8)":"581f8b9b","updateNodeUrl(address,string)":"7e4465e7"},"id":390}