{"abi":[{"type":"function","name":"getAllNodeAddresses","inputs":[],"outputs":[{"name":"","type":"address[]","internalType":"address[]"}],"stateMutability":"view"},{"type":"function","name":"getAllNodes","inputs":[],"outputs":[{"name":"","type":"tuple[]","internalType":"struct Node[]","components":[{"name":"status","type":"uint8","internalType":"enum NodeStatus"},{"name":"url","type":"string","internalType":"string"},{"name":"nodeAddress","type":"address","internalType":"address"},{"name":"operator","type":"address","internalType":"address"}]}],"stateMutability":"view"},{"type":"function","name":"getNode","inputs":[{"name":"nodeAddress","type":"address","internalType":"address"}],"outputs":[{"name":"","type":"tuple","internalType":"struct Node","components":[{"name":"status","type":"uint8","internalType":"enum NodeStatus"},{"name":"url","type":"string","internalType":"string"},{"name":"nodeAddress","type":"address","internalType":"address"},{"name":"operator","type":"address","internalType":"address"}]}],"stateMutability":"view"},{"type":"function","name":"getNodeCount","inputs":[],"outputs":[{"name":"","type":"uint256","internalType":"uint256"}],"stateMutability":"view"},{"type":"function","name":"registerNode","inputs":[{"name":"nodeAddress","type":"address","internalType":"address"},{"name":"url","type":"string","internalType":"string"},{"name":"status","type":"uint8","internalType":"enum NodeStatus"}],"outputs":[],"stateMutability":"nonpayable"},{"type":"function","name":"removeNode","inputs":[{"name":"nodeAddress","type":"address","internalType":"address"}],"outputs":[],"stateMutability":"nonpayable"},{"type":"function","name":"updateNodeStatus","inputs":[{"name":"nodeAddress","type":"address","internalType":"address"},{"name":"status","type":"uint8","internalType":"enum NodeStatus"}],"outputs":[],"stateMutability":"nonpayable"},{"type":"function","name":"updateNodeUrl","inputs":[{"name":"nodeAddress","type":"address","internalType":"address"},{"name":"url","type":"string","internalType":"string"}],"outputs":[],"stateMutability":"nonpayable"},{"type":"event","name":"NodeAdded","inputs":[{"name":"nodeAddress","type":"address","indexed":true,"internalType":"address"},{"name":"operator","type":"address","indexed":true,"internalType":"address"},{"name":"url","type":"string","indexed":false,"internalType":"string"},{"name":"status","type":"uint8","indexed":false,"internalType":"enum NodeStatus"}],"anonymous":false},{"type":"event","name":"NodeRemoved","inputs":[{"name":"nodeAddress","type":"address","indexed":true,"internalType":"address"}],"anonymous":false},{"type":"event","name":"NodeStatusUpdated","inputs":[{"name":"nodeAddress","type":"address","indexed":true,"internalType":"address"},{"name":"status","type":"uint8","indexed":false,"internalType":"enum NodeStatus"}],"anonymous":false},{"type":"event","name":"NodeUrlUpdated","inputs":[{"name":"nodeAddress","type":"address","indexed":true,"internalType":"address"},{"name":"url","type":"string","indexed":false,"internalType":"string"}],"anonymous":false}],"bytecode":{"object":"0x608060405234801561001057600080fd5b506115e6806100206000396000f3fe608060405234801561001057600080fd5b50600436106100885760003560e01c8063a1174e7d1161005b578063a1174e7d146100f0578063b2b99ec914610105578063c8fe3a0114610118578063eecc66f41461012d57600080fd5b806339bf397e1461008d578063581f8b9b146100a85780637e4465e7146100bd5780639d209048146100d0575b600080fd5b610095610140565b6040519081526020015b60405180910390f35b6100bb6100b6366004611042565b610151565b005b6100bb6100cb366004611118565b6102fa565b6100e36100de366004611166565b6104f2565b60405161009f919061125d565b6100f8610673565b60405161009f9190611270565b6100bb610113366004611166565b61084e565b610120610a17565b60405161009f91906112d4565b6100bb61013b366004611321565b610a23565b600061014c6005610bee565b905090565b6001600160a01b038083166000908152600760205260409020600201548391166101ba57604080518082018252600e81526d1393d11157d393d517d193d5539160921b6020820152905162461bcd60e51b81526101b1919060040161137f565b60405180910390fd5b336101c6600882610bfe565b6102005760408051808201825260088152670848288be82aaa8960c31b6020820152905162461bcd60e51b81526101b1919060040161137f565b6001600160a01b038085166000908152600760205260409020600301548591339116811461025e5760408051808201825260088152670848288be82aaa8960c31b6020820152905162461bcd60e51b81526101b1919060040161137f565b6001600160a01b038616600090815260076020526040902080546102859060ff1687610c23565b80548690829060ff191660018360058111156102a3576102a3611181565b021790555060028101546040516001600160a01b03909116907f20891cc7622c7951cbd8c70c61a5201eb45625b8c00e8f6c986cfca78f3dbfa0906102e9908990611392565b60405180910390a250505050505050565b33610306600882610bfe565b6103405760408051808201825260088152670848288be82aaa8960c31b6020820152905162461bcd60e51b81526101b1919060040161137f565b6001600160a01b038084166000908152600760205260409020600201548491166103a057604080518082018252600e81526d1393d11157d393d517d193d5539160921b6020820152905162461bcd60e51b81526101b1919060040161137f565b6001600160a01b03808516600090815260076020526040902060030154859133911681146103fe5760408051808201825260088152670848288be82aaa8960c31b6020820152905162461bcd60e51b81526101b1919060040161137f565b6001600160a01b0386166000908152600760209081526040918290209151610428918891016113a0565b604051602081830303815290604052805190602001208160010160405160200161045291906113f0565b60405160208183030381529060405280519060200120036104a25760408051808201825260078152664241445f41524760c81b6020820152905162461bcd60e51b81526101b1919060040161137f565b600181016104b087826114b7565b5060028101546040516001600160a01b03909116907f4505168a8705a16fd4d0575197fd0f510db69df93a065e158ad2c0957ba12bac906102e990899061137f565b61051d6040805160808101909152806000815260606020820181905260006040830181905291015290565b610528600583610bfe565b61056857604080518082018252600e81526d1393d11157d393d517d193d5539160921b6020820152905162461bcd60e51b81526101b1919060040161137f565b6001600160a01b038216600090815260076020526040908190208151608081019092528054829060ff1660058111156105a3576105a3611181565b60058111156105b4576105b4611181565b81526020016001820180546105c8906113bc565b80601f01602080910402602001604051908101604052809291908181526020018280546105f4906113bc565b80156106415780601f1061061657610100808354040283529160200191610641565b820191906000526020600020905b81548152906001019060200180831161062457829003601f168201915b505050918352505060028201546001600160a01b03908116602083015260039092015490911660409091015292915050565b606060006106816005610bee565b67ffffffffffffffff81111561069957610699611075565b6040519080825280602002602001820160405280156106f557816020015b6106e26040805160808101909152806000815260606020820181905260006040830181905291015290565b8152602001906001900390816106b75790505b50905060005b6107056005610bee565b811015610848576007600061071b600584610db6565b6001600160a01b03168152602081019190915260409081016000208151608081019092528054829060ff16600581111561075757610757611181565b600581111561076857610768611181565b815260200160018201805461077c906113bc565b80601f01602080910402602001604051908101604052809291908181526020018280546107a8906113bc565b80156107f55780601f106107ca576101008083540402835291602001916107f5565b820191906000526020600020905b8154815290600101906020018083116107d857829003601f168201915b505050918352505060028201546001600160a01b039081166020830152600390920154909116604090910152825183908390811061083557610835611577565b60209081029190910101526001016106fb565b50919050565b6001600160a01b03808216600090815260076020526040902060030154829133911681146108ac5760408051808201825260088152670848288be82aaa8960c31b6020820152905162461bcd60e51b81526101b1919060040161137f565b6001600160a01b038381166000908152600760205260409020600201541661090a57604080518082018252600e81526d1393d11157d393d517d193d5539160921b6020820152905162461bcd60e51b81526101b1919060040161137f565b60056001600160a01b03841660009081526007602052604090205460ff16600581111561093957610939611181565b146109825760408051808201825260168152751393d11157d4d510551157d393d517d0531313d5d15160521b6020820152905162461bcd60e51b81526101b1919060040161137f565b61098d600584610dc2565b506001600160a01b0383166000908152600760205260408120805460ff19168155906109bc6001830182610fc1565b506002810180546001600160a01b03199081169091556003909101805490911690556040516001600160a01b038416907fcfc24166db4bb677e857cacabd1541fb2b30645021b27c5130419589b84db52b90600090a2505050565b606061014c6005610dd7565b33610a2f600882610bfe565b610a695760408051808201825260088152670848288be82aaa8960c31b6020820152905162461bcd60e51b81526101b1919060040161137f565b6001600160a01b038481166000908152600760205260409020600201541615610ac857604080518082018252600e81526d414c52454144595f45584953545360901b6020820152905162461bcd60e51b81526101b1919060040161137f565b60006040518060800160405280846005811115610ae757610ae7611181565b8152602081018690526001600160a01b0387166040820152336060909101529050610b13600586610de4565b506001600160a01b03851660009081526007602052604090208151815483929190829060ff19166001836005811115610b4e57610b4e611181565b021790555060208201516001820190610b6790826114b7565b506040828101516002830180546001600160a01b03199081166001600160a01b03938416179091556060909401516003909301805490941692811692909217909255905133918716907f759154d15a6aec80ceab7bc8820f46ebc53ad68bb18f47afb77483fea9dcc9ff90610bdf908890889061158d565b60405180910390a35050505050565b6000610bf8825490565b92915050565b6001600160a01b038116600090815260018301602052604081205415155b9392505050565b6000826005811115610c3757610c37611181565b1480610c8b57506001826005811115610c5257610c52611181565b148015610c8b57506003816005811115610c6e57610c6e611181565b1480610c8b57506004816005811115610c8957610c89611181565b145b80610cde57506002826005811115610ca557610ca5611181565b148015610cde57506003816005811115610cc157610cc1611181565b1480610cde57506004816005811115610cdc57610cdc611181565b145b80610d3157506004826005811115610cf857610cf8611181565b148015610d3157506003816005811115610d1457610d14611181565b1480610d3157506005816005811115610d2f57610d2f611181565b145b80610d6957506003826005811115610d4b57610d4b611181565b148015610d6957506005816005811115610d6757610d67611181565b145b15610d72575050565b60408051808201825260168152751393d11157d4d510551157d393d517d0531313d5d15160521b6020820152905162461bcd60e51b81526101b1919060040161137f565b6000610c1c8383610df9565b6000610c1c836001600160a01b038416610e23565b60606000610c1c83610f16565b6000610c1c836001600160a01b038416610f72565b6000826000018281548110610e1057610e10611577565b9060005260206000200154905092915050565b60008181526001830160205260408120548015610f0c576000610e476001836115af565b8554909150600090610e5b906001906115af565b9050808214610ec0576000866000018281548110610e7b57610e7b611577565b9060005260206000200154905080876000018481548110610e9e57610e9e611577565b6000918252602080832090910192909255918252600188019052604090208390555b8554869080610ed157610ed16115d0565b600190038181906000526020600020016000905590558560010160008681526020019081526020016000206000905560019350505050610bf8565b6000915050610bf8565b606081600001805480602002602001604051908101604052809291908181526020018280548015610f6657602002820191906000526020600020905b815481526020019060010190808311610f52575b50505050509050919050565b6000818152600183016020526040812054610fb957508154600181810184556000848152602080822090930184905584548482528286019093526040902091909155610bf8565b506000610bf8565b508054610fcd906113bc565b6000825580601f10610fdd575050565b601f016020900490600052602060002090810190610ffb9190610ffe565b50565b5b808211156110135760008155600101610fff565b5090565b80356001600160a01b038116811461102e57600080fd5b919050565b80356006811061102e57600080fd5b6000806040838503121561105557600080fd5b61105e83611017565b915061106c60208401611033565b90509250929050565b634e487b7160e01b600052604160045260246000fd5b600082601f83011261109c57600080fd5b813567ffffffffffffffff808211156110b7576110b7611075565b604051601f8301601f19908116603f011681019082821181831017156110df576110df611075565b816040528381528660208588010111156110f857600080fd5b836020870160208301376000602085830101528094505050505092915050565b6000806040838503121561112b57600080fd5b61113483611017565b9150602083013567ffffffffffffffff81111561115057600080fd5b61115c8582860161108b565b9150509250929050565b60006020828403121561117857600080fd5b610c1c82611017565b634e487b7160e01b600052602160045260246000fd5b600681106111b557634e487b7160e01b600052602160045260246000fd5b9052565b60005b838110156111d45781810151838201526020016111bc565b50506000910152565b600081518084526111f58160208601602086016111b9565b601f01601f19169290920160200192915050565b611214828251611197565b600060208201516080602085015261122f60808501826111dd565b6040848101516001600160a01b03908116918701919091526060948501511693909401929092525090919050565b602081526000610c1c6020830184611209565b600060208083016020845280855180835260408601915060408160051b87010192506020870160005b828110156112c757603f198886030184526112b5858351611209565b94509285019290850190600101611299565b5092979650505050505050565b6020808252825182820181905260009190848201906040850190845b818110156113155783516001600160a01b0316835292840192918401916001016112f0565b50909695505050505050565b60008060006060848603121561133657600080fd5b61133f84611017565b9250602084013567ffffffffffffffff81111561135b57600080fd5b6113678682870161108b565b92505061137660408501611033565b90509250925092565b602081526000610c1c60208301846111dd565b60208101610bf88284611197565b600082516113b28184602087016111b9565b9190910192915050565b600181811c908216806113d057607f821691505b60208210810361084857634e487b7160e01b600052602260045260246000fd5b60008083546113fe816113bc565b60018281168015611416576001811461142b5761145a565b60ff198416875282151583028701945061145a565b8760005260208060002060005b858110156114515781548a820152908401908201611438565b50505082870194505b50929695505050505050565b601f8211156114b2576000816000526020600020601f850160051c8101602086101561148f5750805b601f850160051c820191505b818110156114ae5782815560010161149b565b5050505b505050565b815167ffffffffffffffff8111156114d1576114d1611075565b6114e5816114df84546113bc565b84611466565b602080601f83116001811461151a57600084156115025750858301515b600019600386901b1c1916600185901b1785556114ae565b600085815260208120601f198616915b828110156115495788860151825594840194600190910190840161152a565b50858210156115675787850151600019600388901b60f8161c191681555b5050505050600190811b01905550565b634e487b7160e01b600052603260045260246000fd5b6040815260006115a060408301856111dd565b9050610c1c6020830184611197565b81810381811115610bf857634e487b7160e01b600052601160045260246000fd5b634e487b7160e01b600052603160045260246000fd","linkReferences":{}},"methodIdentifiers":{"getAllNodeAddresses()":"c8fe3a01","getAllNodes()":"a1174e7d","getNode(address)":"9d209048","getNodeCount()":"39bf397e","registerNode(address,string,uint8)":"eecc66f4","removeNode(address)":"b2b99ec9","updateNodeStatus(address,uint8)":"581f8b9b","updateNodeUrl(address,string)":"7e4465e7"},"id":43}