{"abi":[{"type":"function","name":"getAllNodeAddresses","inputs":[],"outputs":[{"name":"","type":"address[]","internalType":"address[]"}],"stateMutability":"view"},{"type":"function","name":"getAllNodes","inputs":[],"outputs":[{"name":"","type":"tuple[]","internalType":"struct Node[]","components":[{"name":"status","type":"uint8","internalType":"enum NodeStatus"},{"name":"url","type":"string","internalType":"string"},{"name":"nodeAddress","type":"address","internalType":"address"},{"name":"operator","type":"address","internalType":"address"}]}],"stateMutability":"view"},{"type":"function","name":"getNode","inputs":[{"name":"nodeAddress","type":"address","internalType":"address"}],"outputs":[{"name":"","type":"tuple","internalType":"struct Node","components":[{"name":"status","type":"uint8","internalType":"enum NodeStatus"},{"name":"url","type":"string","internalType":"string"},{"name":"nodeAddress","type":"address","internalType":"address"},{"name":"operator","type":"address","internalType":"address"}]}],"stateMutability":"view"},{"type":"function","name":"getNodeCount","inputs":[],"outputs":[{"name":"","type":"uint256","internalType":"uint256"}],"stateMutability":"view"},{"type":"function","name":"isNode","inputs":[{"name":"nodeAddress","type":"address","internalType":"address"}],"outputs":[{"name":"","type":"bool","internalType":"bool"}],"stateMutability":"view"},{"type":"function","name":"registerNode","inputs":[{"name":"nodeAddress","type":"address","internalType":"address"},{"name":"url","type":"string","internalType":"string"},{"name":"status","type":"uint8","internalType":"enum NodeStatus"}],"outputs":[],"stateMutability":"nonpayable"},{"type":"function","name":"removeNode","inputs":[{"name":"nodeAddress","type":"address","internalType":"address"}],"outputs":[],"stateMutability":"nonpayable"},{"type":"function","name":"updateNodeStatus","inputs":[{"name":"nodeAddress","type":"address","internalType":"address"},{"name":"status","type":"uint8","internalType":"enum NodeStatus"}],"outputs":[],"stateMutability":"nonpayable"},{"type":"function","name":"updateNodeUrl","inputs":[{"name":"nodeAddress","type":"address","internalType":"address"},{"name":"url","type":"string","internalType":"string"}],"outputs":[],"stateMutability":"nonpayable"},{"type":"event","name":"NodeAdded","inputs":[{"name":"nodeAddress","type":"address","indexed":true,"internalType":"address"},{"name":"operator","type":"address","indexed":true,"internalType":"address"},{"name":"url","type":"string","indexed":false,"internalType":"string"},{"name":"status","type":"uint8","indexed":false,"internalType":"enum NodeStatus"}],"anonymous":false},{"type":"event","name":"NodeRemoved","inputs":[{"name":"nodeAddress","type":"address","indexed":true,"internalType":"address"}],"anonymous":false},{"type":"event","name":"NodeStatusUpdated","inputs":[{"name":"nodeAddress","type":"address","indexed":true,"internalType":"address"},{"name":"status","type":"uint8","indexed":false,"internalType":"enum NodeStatus"}],"anonymous":false},{"type":"event","name":"NodeUrlUpdated","inputs":[{"name":"nodeAddress","type":"address","indexed":true,"internalType":"address"},{"name":"url","type":"string","indexed":false,"internalType":"string"}],"anonymous":false}],"bytecode":{"object":"0x608060405234801561001057600080fd5b50611632806100206000396000f3fe608060405234801561001057600080fd5b50600436106100935760003560e01c80639d209048116100665780639d2090481461011c578063a1174e7d1461013c578063b2b99ec914610151578063c8fe3a0114610164578063eecc66f41461017957600080fd5b8063017501521461009857806339bf397e146100de578063581f8b9b146100f45780637e4465e714610109575b600080fd5b6100c96100a636600461107f565b6001600160a01b0390811660009081526007602052604090206002015416151590565b60405190151581526020015b60405180910390f35b6100e661018c565b6040519081526020016100d5565b6101076101023660046110a9565b61019d565b005b61010761011736600461117f565b610346565b61012f61012a36600461107f565b61053e565b6040516100d591906112a9565b6101446106bf565b6040516100d591906112bc565b61010761015f36600461107f565b61089a565b61016c610a63565b6040516100d59190611320565b61010761018736600461136d565b610a6f565b60006101986005610c3a565b905090565b6001600160a01b0380831660009081526007602052604090206002015483911661020657604080518082018252600e81526d1393d11157d393d517d193d5539160921b6020820152905162461bcd60e51b81526101fd91906004016113cb565b60405180910390fd5b33610212600882610c4a565b61024c5760408051808201825260088152670848288be82aaa8960c31b6020820152905162461bcd60e51b81526101fd91906004016113cb565b6001600160a01b03808516600090815260076020526040902060030154859133911681146102aa5760408051808201825260088152670848288be82aaa8960c31b6020820152905162461bcd60e51b81526101fd91906004016113cb565b6001600160a01b038616600090815260076020526040902080546102d19060ff1687610c6f565b80548690829060ff191660018360058111156102ef576102ef6111cd565b021790555060028101546040516001600160a01b03909116907f20891cc7622c7951cbd8c70c61a5201eb45625b8c00e8f6c986cfca78f3dbfa0906103359089906113de565b60405180910390a250505050505050565b33610352600882610c4a565b61038c5760408051808201825260088152670848288be82aaa8960c31b6020820152905162461bcd60e51b81526101fd91906004016113cb565b6001600160a01b038084166000908152600760205260409020600201548491166103ec57604080518082018252600e81526d1393d11157d393d517d193d5539160921b6020820152905162461bcd60e51b81526101fd91906004016113cb565b6001600160a01b038085166000908152600760205260409020600301548591339116811461044a5760408051808201825260088152670848288be82aaa8960c31b6020820152905162461bcd60e51b81526101fd91906004016113cb565b6001600160a01b0386166000908152600760209081526040918290209151610474918891016113ec565b604051602081830303815290604052805190602001208160010160405160200161049e919061143c565b60405160208183030381529060405280519060200120036104ee5760408051808201825260078152664241445f41524760c81b6020820152905162461bcd60e51b81526101fd91906004016113cb565b600181016104fc8782611503565b5060028101546040516001600160a01b03909116907f4505168a8705a16fd4d0575197fd0f510db69df93a065e158ad2c0957ba12bac906103359089906113cb565b6105696040805160808101909152806000815260606020820181905260006040830181905291015290565b610574600583610c4a565b6105b457604080518082018252600e81526d1393d11157d393d517d193d5539160921b6020820152905162461bcd60e51b81526101fd91906004016113cb565b6001600160a01b038216600090815260076020526040908190208151608081019092528054829060ff1660058111156105ef576105ef6111cd565b6005811115610600576106006111cd565b815260200160018201805461061490611408565b80601f016020809104026020016040519081016040528092919081815260200182805461064090611408565b801561068d5780601f106106625761010080835404028352916020019161068d565b820191906000526020600020905b81548152906001019060200180831161067057829003601f168201915b505050918352505060028201546001600160a01b03908116602083015260039092015490911660409091015292915050565b606060006106cd6005610c3a565b67ffffffffffffffff8111156106e5576106e56110dc565b60405190808252806020026020018201604052801561074157816020015b61072e6040805160808101909152806000815260606020820181905260006040830181905291015290565b8152602001906001900390816107035790505b50905060005b6107516005610c3a565b8110156108945760076000610767600584610e02565b6001600160a01b03168152602081019190915260409081016000208151608081019092528054829060ff1660058111156107a3576107a36111cd565b60058111156107b4576107b46111cd565b81526020016001820180546107c890611408565b80601f01602080910402602001604051908101604052809291908181526020018280546107f490611408565b80156108415780601f1061081657610100808354040283529160200191610841565b820191906000526020600020905b81548152906001019060200180831161082457829003601f168201915b505050918352505060028201546001600160a01b0390811660208301526003909201549091166040909101528251839083908110610881576108816115c3565b6020908102919091010152600101610747565b50919050565b6001600160a01b03808216600090815260076020526040902060030154829133911681146108f85760408051808201825260088152670848288be82aaa8960c31b6020820152905162461bcd60e51b81526101fd91906004016113cb565b6001600160a01b038381166000908152600760205260409020600201541661095657604080518082018252600e81526d1393d11157d393d517d193d5539160921b6020820152905162461bcd60e51b81526101fd91906004016113cb565b60056001600160a01b03841660009081526007602052604090205460ff166005811115610985576109856111cd565b146109ce5760408051808201825260168152751393d11157d4d510551157d393d517d0531313d5d15160521b6020820152905162461bcd60e51b81526101fd91906004016113cb565b6109d9600584610e0e565b506001600160a01b0383166000908152600760205260408120805460ff1916815590610a08600183018261100d565b506002810180546001600160a01b03199081169091556003909101805490911690556040516001600160a01b038416907fcfc24166db4bb677e857cacabd1541fb2b30645021b27c5130419589b84db52b90600090a2505050565b60606101986005610e23565b33610a7b600882610c4a565b610ab55760408051808201825260088152670848288be82aaa8960c31b6020820152905162461bcd60e51b81526101fd91906004016113cb565b6001600160a01b038481166000908152600760205260409020600201541615610b1457604080518082018252600e81526d414c52454144595f45584953545360901b6020820152905162461bcd60e51b81526101fd91906004016113cb565b60006040518060800160405280846005811115610b3357610b336111cd565b8152602081018690526001600160a01b0387166040820152336060909101529050610b5f600586610e30565b506001600160a01b03851660009081526007602052604090208151815483929190829060ff19166001836005811115610b9a57610b9a6111cd565b021790555060208201516001820190610bb39082611503565b506040828101516002830180546001600160a01b03199081166001600160a01b03938416179091556060909401516003909301805490941692811692909217909255905133918716907f759154d15a6aec80ceab7bc8820f46ebc53ad68bb18f47afb77483fea9dcc9ff90610c2b90889088906115d9565b60405180910390a35050505050565b6000610c44825490565b92915050565b6001600160a01b038116600090815260018301602052604081205415155b9392505050565b6000826005811115610c8357610c836111cd565b1480610cd757506001826005811115610c9e57610c9e6111cd565b148015610cd757506003816005811115610cba57610cba6111cd565b1480610cd757506004816005811115610cd557610cd56111cd565b145b80610d2a57506002826005811115610cf157610cf16111cd565b148015610d2a57506003816005811115610d0d57610d0d6111cd565b1480610d2a57506004816005811115610d2857610d286111cd565b145b80610d7d57506004826005811115610d4457610d446111cd565b148015610d7d57506003816005811115610d6057610d606111cd565b1480610d7d57506005816005811115610d7b57610d7b6111cd565b145b80610db557506003826005811115610d9757610d976111cd565b148015610db557506005816005811115610db357610db36111cd565b145b15610dbe575050565b60408051808201825260168152751393d11157d4d510551157d393d517d0531313d5d15160521b6020820152905162461bcd60e51b81526101fd91906004016113cb565b6000610c688383610e45565b6000610c68836001600160a01b038416610e6f565b60606000610c6883610f62565b6000610c68836001600160a01b038416610fbe565b6000826000018281548110610e5c57610e5c6115c3565b9060005260206000200154905092915050565b60008181526001830160205260408120548015610f58576000610e936001836115fb565b8554909150600090610ea7906001906115fb565b9050808214610f0c576000866000018281548110610ec757610ec76115c3565b9060005260206000200154905080876000018481548110610eea57610eea6115c3565b6000918252602080832090910192909255918252600188019052604090208390555b8554869080610f1d57610f1d61161c565b600190038181906000526020600020016000905590558560010160008681526020019081526020016000206000905560019350505050610c44565b6000915050610c44565b606081600001805480602002602001604051908101604052809291908181526020018280548015610fb257602002820191906000526020600020905b815481526020019060010190808311610f9e575b50505050509050919050565b600081815260018301602052604081205461100557508154600181810184556000848152602080822090930184905584548482528286019093526040902091909155610c44565b506000610c44565b50805461101990611408565b6000825580601f10611029575050565b601f016020900490600052602060002090810190611047919061104a565b50565b5b8082111561105f576000815560010161104b565b5090565b80356001600160a01b038116811461107a57600080fd5b919050565b60006020828403121561109157600080fd5b610c6882611063565b80356006811061107a57600080fd5b600080604083850312156110bc57600080fd5b6110c583611063565b91506110d36020840161109a565b90509250929050565b634e487b7160e01b600052604160045260246000fd5b600082601f83011261110357600080fd5b813567ffffffffffffffff8082111561111e5761111e6110dc565b604051601f8301601f19908116603f01168101908282118183101715611146576111466110dc565b8160405283815286602085880101111561115f57600080fd5b836020870160208301376000602085830101528094505050505092915050565b6000806040838503121561119257600080fd5b61119b83611063565b9150602083013567ffffffffffffffff8111156111b757600080fd5b6111c3858286016110f2565b9150509250929050565b634e487b7160e01b600052602160045260246000fd5b6006811061120157634e487b7160e01b600052602160045260246000fd5b9052565b60005b83811015611220578181015183820152602001611208565b50506000910152565b60008151808452611241816020860160208601611205565b601f01601f19169290920160200192915050565b6112608282516111e3565b600060208201516080602085015261127b6080850182611229565b6040848101516001600160a01b03908116918701919091526060948501511693909401929092525090919050565b602081526000610c686020830184611255565b600060208083016020845280855180835260408601915060408160051b87010192506020870160005b8281101561131357603f19888603018452611301858351611255565b945092850192908501906001016112e5565b5092979650505050505050565b6020808252825182820181905260009190848201906040850190845b818110156113615783516001600160a01b03168352928401929184019160010161133c565b50909695505050505050565b60008060006060848603121561138257600080fd5b61138b84611063565b9250602084013567ffffffffffffffff8111156113a757600080fd5b6113b3868287016110f2565b9250506113c26040850161109a565b90509250925092565b602081526000610c686020830184611229565b60208101610c4482846111e3565b600082516113fe818460208701611205565b9190910192915050565b600181811c9082168061141c57607f821691505b60208210810361089457634e487b7160e01b600052602260045260246000fd5b600080835461144a81611408565b600182811680156114625760018114611477576114a6565b60ff19841687528215158302870194506114a6565b8760005260208060002060005b8581101561149d5781548a820152908401908201611484565b50505082870194505b50929695505050505050565b601f8211156114fe576000816000526020600020601f850160051c810160208610156114db5750805b601f850160051c820191505b818110156114fa578281556001016114e7565b5050505b505050565b815167ffffffffffffffff81111561151d5761151d6110dc565b6115318161152b8454611408565b846114b2565b602080601f831160018114611566576000841561154e5750858301515b600019600386901b1c1916600185901b1785556114fa565b600085815260208120601f198616915b8281101561159557888601518255948401946001909101908401611576565b50858210156115b35787850151600019600388901b60f8161c191681555b5050505050600190811b01905550565b634e487b7160e01b600052603260045260246000fd5b6040815260006115ec6040830185611229565b9050610c6860208301846111e3565b81810381811115610c4457634e487b7160e01b600052601160045260246000fd5b634e487b7160e01b600052603160045260246000fd","linkReferences":{}},"methodIdentifiers":{"getAllNodeAddresses()":"c8fe3a01","getAllNodes()":"a1174e7d","getNode(address)":"9d209048","getNodeCount()":"39bf397e","isNode(address)":"01750152","registerNode(address,string,uint8)":"eecc66f4","removeNode(address)":"b2b99ec9","updateNodeStatus(address,uint8)":"581f8b9b","updateNodeUrl(address,string)":"7e4465e7"},"id":205}