{"abi":[{"type":"function","name":"__OperatorRegistry_init","inputs":[{"name":"initialOperators","type":"address[]","internalType":"address[]"}],"outputs":[],"stateMutability":"nonpayable"},{"type":"function","name":"approveOperator","inputs":[{"name":"operator","type":"address","internalType":"address"}],"outputs":[],"stateMutability":"nonpayable"},{"type":"function","name":"getAllOperators","inputs":[],"outputs":[{"name":"","type":"address[]","internalType":"address[]"}],"stateMutability":"view"},{"type":"function","name":"isOperator","inputs":[{"name":"operator","type":"address","internalType":"address"}],"outputs":[{"name":"","type":"bool","internalType":"bool"}],"stateMutability":"view"},{"type":"function","name":"removeOperator","inputs":[{"name":"operator","type":"address","internalType":"address"}],"outputs":[],"stateMutability":"nonpayable"},{"type":"event","name":"Initialized","inputs":[{"name":"version","type":"uint32","indexed":false,"internalType":"uint32"}],"anonymous":false},{"type":"event","name":"InterfaceAdded","inputs":[{"name":"interfaceId","type":"bytes4","indexed":true,"internalType":"bytes4"}],"anonymous":false},{"type":"event","name":"InterfaceRemoved","inputs":[{"name":"interfaceId","type":"bytes4","indexed":true,"internalType":"bytes4"}],"anonymous":false},{"type":"event","name":"OperatorAdded","inputs":[{"name":"operatorAddress","type":"address","indexed":true,"internalType":"address"}],"anonymous":false},{"type":"event","name":"OperatorRemoved","inputs":[{"name":"operatorAddress","type":"address","indexed":true,"internalType":"address"}],"anonymous":false},{"type":"event","name":"OwnershipTransferred","inputs":[{"name":"previousOwner","type":"address","indexed":true,"internalType":"address"},{"name":"newOwner","type":"address","indexed":true,"internalType":"address"}],"anonymous":false},{"type":"error","name":"Initializable_InInitializingState","inputs":[]},{"type":"error","name":"Initializable_NotInInitializingState","inputs":[]},{"type":"error","name":"Introspection_AlreadySupported","inputs":[]},{"type":"error","name":"Introspection_NotSupported","inputs":[]},{"type":"error","name":"Ownable__NotOwner","inputs":[{"name":"account","type":"address","internalType":"address"}]},{"type":"error","name":"Ownable__ZeroAddress","inputs":[]}],"bytecode":{"object":"0x608060405234801561001057600080fd5b5061001961001e565b6100c4565b7f59b501c3653afc186af7d48dda36cf6732bd21629a6295693664240a6ef520008054640100000000900460ff161561006a576040516366008a2d60e01b815260040160405180910390fd5b805463ffffffff90811610156100c157805463ffffffff191663ffffffff90811782556040519081527fe9c9b456cb2994b80aeef036cf59d26e9617df80f816a6ee5a5b4166e07e2f5c9060200160405180910390a15b50565b6107ed806100d36000396000f3fe608060405234801561001057600080fd5b50600436106100575760003560e01c8063242cae9f1461005c5780636d70f7ae14610071578063ac8a584a14610099578063ba428b1a146100ac578063d911c632146100bf575b600080fd5b61006f61006a366004610666565b6100d4565b005b61008461007f366004610666565b610131565b60405190151581526020015b60405180910390f35b61006f6100a7366004610666565b610144565b61006f6100ba36600461068f565b6102b8565b6100c7610349565b6040516100909190610704565b7f4675fa8241f86f37157864d3d49b85ad4b164352c516da28e1678a90470ae300546001600160a01b03163314610125576040516365f4906560e01b81523360048201526024015b60405180910390fd5b61012e8161035a565b50565b600061013e60088361042c565b92915050565b7f4675fa8241f86f37157864d3d49b85ad4b164352c516da28e1678a90470ae300546001600160a01b03163314610190576040516365f4906560e01b815233600482015260240161011c565b61019b60088261042c565b6101df57604080518082018252601281527113d41154905513d497d393d517d193d5539160721b6020820152905162461bcd60e51b815261011c9190600401610751565b60005b6101ec6005610451565b811015610274576001600160a01b0382166007600061020c60058561045b565b6001600160a01b039081168252602082019290925260400160002060030154160361026c57604080518082018252600d81526c4f55545f4f465f424f554e445360981b6020820152905162461bcd60e51b815261011c9190600401610751565b6001016101e2565b50610280600882610467565b506040516001600160a01b038216907f80c0b871b97b595b16a7741c1b06fed0c6f6f558639f18ccbce50724325dc40d90600090a250565b7f59b501c3653afc186af7d48dda36cf6732bd21629a6295693664240a6ef5200054640100000000900460ff1661030257604051630ef4733760e31b815260040160405180910390fd5b60005b818110156103445761033c838383818110610322576103226107a0565b90506020020160208101906103379190610666565b61035a565b600101610305565b505050565b6060610355600861047c565b905090565b6001600160a01b03811661039d5760408051808201825260078152664241445f41524760c81b6020820152905162461bcd60e51b815261011c9190600401610751565b6103a860088261042c565b156103e957604080518082018252600e81526d414c52454144595f45584953545360901b6020820152905162461bcd60e51b815261011c9190600401610751565b6103f4600882610489565b506040516001600160a01b038216907fac6fa858e9350a46cec16539926e0fde25b7629f84b5a72bffaae4df888ae86d90600090a250565b6001600160a01b038116600090815260018301602052604081205415155b9392505050565b600061013e825490565b600061044a838361049e565b600061044a836001600160a01b0384166104c8565b6060600061044a836105bb565b600061044a836001600160a01b038416610617565b60008260000182815481106104b5576104b56107a0565b9060005260206000200154905092915050565b600081815260018301602052604081205480156105b15760006104ec6001836107b6565b8554909150600090610500906001906107b6565b9050808214610565576000866000018281548110610520576105206107a0565b9060005260206000200154905080876000018481548110610543576105436107a0565b6000918252602080832090910192909255918252600188019052604090208390555b8554869080610576576105766107d7565b60019003818190600052602060002001600090559055856001016000868152602001908152602001600020600090556001935050505061013e565b600091505061013e565b60608160000180548060200260200160405190810160405280929190818152602001828054801561060b57602002820191906000526020600020905b8154815260200190600101908083116105f7575b50505050509050919050565b600081815260018301602052604081205461065e5750815460018181018455600084815260208082209093018490558454848252828601909352604090209190915561013e565b50600061013e565b60006020828403121561067857600080fd5b81356001600160a01b038116811461044a57600080fd5b600080602083850312156106a257600080fd5b823567ffffffffffffffff808211156106ba57600080fd5b818501915085601f8301126106ce57600080fd5b8135818111156106dd57600080fd5b8660208260051b85010111156106f257600080fd5b60209290920196919550909350505050565b6020808252825182820181905260009190848201906040850190845b818110156107455783516001600160a01b031683529284019291840191600101610720565b50909695505050505050565b60006020808352835180602085015260005b8181101561077f57858101830151858201604001528201610763565b506000604082860101526040601f19601f8301168501019250505092915050565b634e487b7160e01b600052603260045260246000fd5b8181038181111561013e57634e487b7160e01b600052601160045260246000fd5b634e487b7160e01b600052603160045260246000fd","linkReferences":{}},"methodIdentifiers":{"__OperatorRegistry_init(address[])":"ba428b1a","approveOperator(address)":"242cae9f","getAllOperators()":"d911c632","isOperator(address)":"6d70f7ae","removeOperator(address)":"ac8a584a"},"id":183}