{"abi":[{"type":"function","name":"__PrepayFacet_init","inputs":[],"outputs":[],"stateMutability":"nonpayable"},{"type":"function","name":"calculateMembershipPrepayFee","inputs":[{"name":"supply","type":"uint256","internalType":"uint256"}],"outputs":[{"name":"","type":"uint256","internalType":"uint256"}],"stateMutability":"view"},{"type":"function","name":"prepaidMembershipSupply","inputs":[],"outputs":[{"name":"","type":"uint256","internalType":"uint256"}],"stateMutability":"view"},{"type":"function","name":"prepayMembership","inputs":[{"name":"supply","type":"uint256","internalType":"uint256"}],"outputs":[],"stateMutability":"payable"},{"type":"event","name":"Approval","inputs":[{"name":"owner","type":"address","indexed":true,"internalType":"address"},{"name":"approved","type":"address","indexed":true,"internalType":"address"},{"name":"tokenId","type":"uint256","indexed":true,"internalType":"uint256"}],"anonymous":false},{"type":"event","name":"ApprovalForAll","inputs":[{"name":"owner","type":"address","indexed":true,"internalType":"address"},{"name":"operator","type":"address","indexed":true,"internalType":"address"},{"name":"approved","type":"bool","indexed":false,"internalType":"bool"}],"anonymous":false},{"type":"event","name":"Banned","inputs":[{"name":"moderator","type":"address","indexed":true,"internalType":"address"},{"name":"tokenId","type":"uint256","indexed":true,"internalType":"uint256"}],"anonymous":false},{"type":"event","name":"ConsecutiveTransfer","inputs":[{"name":"fromTokenId","type":"uint256","indexed":true,"internalType":"uint256"},{"name":"toTokenId","type":"uint256","indexed":false,"internalType":"uint256"},{"name":"from","type":"address","indexed":true,"internalType":"address"},{"name":"to","type":"address","indexed":true,"internalType":"address"}],"anonymous":false},{"type":"event","name":"Initialized","inputs":[{"name":"version","type":"uint32","indexed":false,"internalType":"uint32"}],"anonymous":false},{"type":"event","name":"InterfaceAdded","inputs":[{"name":"interfaceId","type":"bytes4","indexed":true,"internalType":"bytes4"}],"anonymous":false},{"type":"event","name":"InterfaceRemoved","inputs":[{"name":"interfaceId","type":"bytes4","indexed":true,"internalType":"bytes4"}],"anonymous":false},{"type":"event","name":"OwnershipTransferred","inputs":[{"name":"previousOwner","type":"address","indexed":true,"internalType":"address"},{"name":"newOwner","type":"address","indexed":true,"internalType":"address"}],"anonymous":false},{"type":"event","name":"Paused","inputs":[{"name":"account","type":"address","indexed":false,"internalType":"address"}],"anonymous":false},{"type":"event","name":"Prepay__Prepaid","inputs":[{"name":"supply","type":"uint256","indexed":false,"internalType":"uint256"}],"anonymous":false},{"type":"event","name":"SubscriptionUpdate","inputs":[{"name":"tokenId","type":"uint256","indexed":true,"internalType":"uint256"},{"name":"expiration","type":"uint64","indexed":false,"internalType":"uint64"}],"anonymous":false},{"type":"event","name":"Transfer","inputs":[{"name":"from","type":"address","indexed":true,"internalType":"address"},{"name":"to","type":"address","indexed":true,"internalType":"address"},{"name":"tokenId","type":"uint256","indexed":true,"internalType":"uint256"}],"anonymous":false},{"type":"event","name":"Unbanned","inputs":[{"name":"moderator","type":"address","indexed":true,"internalType":"address"},{"name":"tokenId","type":"uint256","indexed":true,"internalType":"uint256"}],"anonymous":false},{"type":"event","name":"Unpaused","inputs":[{"name":"account","type":"address","indexed":false,"internalType":"address"}],"anonymous":false},{"type":"error","name":"ApprovalCallerNotOwnerNorApproved","inputs":[]},{"type":"error","name":"ApprovalQueryForNonexistentToken","inputs":[]},{"type":"error","name":"BalanceQueryForZeroAddress","inputs":[]},{"type":"error","name":"Banning__AlreadyBanned","inputs":[{"name":"tokenId","type":"uint256","internalType":"uint256"}]},{"type":"error","name":"Banning__CannotBanOwner","inputs":[]},{"type":"error","name":"Banning__CannotBanSelf","inputs":[]},{"type":"error","name":"Banning__InvalidTokenId","inputs":[{"name":"tokenId","type":"uint256","internalType":"uint256"}]},{"type":"error","name":"Banning__NotBanned","inputs":[{"name":"tokenId","type":"uint256","internalType":"uint256"}]},{"type":"error","name":"ERC5643__DurationZero","inputs":[]},{"type":"error","name":"ERC5643__InvalidTokenId","inputs":[{"name":"tokenId","type":"uint256","internalType":"uint256"}]},{"type":"error","name":"ERC5643__NotApprovedOrOwner","inputs":[]},{"type":"error","name":"ERC5643__SubscriptionNotRenewable","inputs":[{"name":"tokenId","type":"uint256","internalType":"uint256"}]},{"type":"error","name":"Entitlement__InvalidValue","inputs":[]},{"type":"error","name":"Entitlement__NotAllowed","inputs":[]},{"type":"error","name":"Entitlement__NotMember","inputs":[]},{"type":"error","name":"Entitlement__ValueAlreadyExists","inputs":[]},{"type":"error","name":"Initializable_InInitializingState","inputs":[]},{"type":"error","name":"Initializable_NotInInitializingState","inputs":[]},{"type":"error","name":"Introspection_AlreadySupported","inputs":[]},{"type":"error","name":"Introspection_NotSupported","inputs":[]},{"type":"error","name":"MintERC2309QuantityExceedsLimit","inputs":[]},{"type":"error","name":"MintToZeroAddress","inputs":[]},{"type":"error","name":"MintZeroQuantity","inputs":[]},{"type":"error","name":"Ownable__NotOwner","inputs":[{"name":"account","type":"address","internalType":"address"}]},{"type":"error","name":"Ownable__ZeroAddress","inputs":[]},{"type":"error","name":"OwnerQueryForNonexistentToken","inputs":[]},{"type":"error","name":"OwnershipNotInitializedForExtraData","inputs":[]},{"type":"error","name":"Pausable__NotPaused","inputs":[]},{"type":"error","name":"Pausable__Paused","inputs":[]},{"type":"error","name":"Prepay__InvalidAddress","inputs":[]},{"type":"error","name":"Prepay__InvalidAmount","inputs":[]},{"type":"error","name":"Prepay__InvalidMembership","inputs":[]},{"type":"error","name":"Prepay__InvalidSupplyAmount","inputs":[]},{"type":"error","name":"ReentrancyGuard__ReentrantCall","inputs":[]},{"type":"error","name":"TransferCallerNotOwnerNorApproved","inputs":[]},{"type":"error","name":"TransferFromIncorrectOwner","inputs":[]},{"type":"error","name":"TransferToNonERC721ReceiverImplementer","inputs":[]},{"type":"error","name":"TransferToZeroAddress","inputs":[]},{"type":"error","name":"URIQueryForNonexistentToken","inputs":[]}],"bytecode":{"object":"0x608060405234801561001057600080fd5b5061001961001e565b6100c4565b7f59b501c3653afc186af7d48dda36cf6732bd21629a6295693664240a6ef520008054640100000000900460ff161561006a576040516366008a2d60e01b815260040160405180910390fd5b805463ffffffff90811610156100c157805463ffffffff191663ffffffff90811782556040519081527fe9c9b456cb2994b80aeef036cf59d26e9617df80f816a6ee5a5b4166e07e2f5c9060200160405180910390a15b50565b610786806100d36000396000f3fe60806040526004361061003f5760003560e01c806306499d7f1461004457806327bc79f114610059578063aabe967d1461008b578063b6a45cd6146100a0575b600080fd5b6100576100523660046106de565b6100b5565b005b34801561006557600080fd5b506100796100743660046106de565b6102d8565b60405190815260200160405180910390f35b34801561009757600080fd5b5061005761039d565b3480156100ac57600080fd5b506100796103f9565b60027f54f22f54f370bd020e00ee80e1a5099a71652e2ccbcf6a75281e4c70a3e11a0054036100f757604051635db5c7cd60e11b815260040160405180910390fd5b61012060027f54f22f54f370bd020e00ee80e1a5099a71652e2ccbcf6a75281e4c70a3e11a0055565b806000036101415760405163305b66fd60e01b815260040160405180910390fd5b7fc21004fcc619240a31f006438274d15cd813308303284436eef6055f0fdcb6065460408051630eac306d60e01b815290517fc21004fcc619240a31f006438274d15cd813308303284436eef6055f0fdcb600926001600160a01b0316916000918391630eac306d9160048083019260209291908290030181865afa1580156101ce573d6000803e3d6000fd5b505050506040513d601f19601f820116820180604052508101906101f291906106f7565b6101fc9085610726565b905080341461021e5760405163cd27698760e01b815260040160405180910390fd5b61022784610428565b600480840154604080516301332c8360e61b815290516001600160a01b0392831693600093871692634ccb20c092818301926020928290030181865afa158015610275573d6000803e3d6000fd5b505050506040513d601f19601f820116820180604052508101906102999190610743565b90506102a782338386610499565b50505050506102d560017f54f22f54f370bd020e00ee80e1a5099a71652e2ccbcf6a75281e4c70a3e11a0055565b50565b7fc21004fcc619240a31f006438274d15cd813308303284436eef6055f0fdcb6065460408051630eac306d60e01b815290516000927fc21004fcc619240a31f006438274d15cd813308303284436eef6055f0fdcb600926001600160a01b03909116918291630eac306d9160048083019260209291908290030181865afa158015610367573d6000803e3d6000fd5b505050506040513d601f19601f8201168201806040525081019061038b91906106f7565b6103959085610726565b949350505050565b7f59b501c3653afc186af7d48dda36cf6732bd21629a6295693664240a6ef5200054640100000000900460ff166103e757604051630ef4733760e31b815260040160405180910390fd5b6103f76312ea370b60e31b6104e5565b565b60006104237f097b4f25b64e012d0cf55f67e9b34fe5d57f15b11b95baa4ddd136b424967c005490565b905090565b7f097b4f25b64e012d0cf55f67e9b34fe5d57f15b11b95baa4ddd136b424967c0080548290829060009061045d908490610773565b90915550506040518281527fad9b877dcdf275e10be629bbe390dc68f7b5de14e3cc5f11f1745d300bb3852e9060200160405180910390a15050565b80156104df5773eeeeeeeeeeeeeeeeeeeeeeeeeeeeeeeeeeeeeeed196001600160a01b038516016104d3576104ce82826105be565b6104df565b6104df848484846105d5565b50505050565b6001600160e01b0319811660009081527f81088bbc801e045ea3e7620779ab349988f58afbdfba10dff983df3f33522b00602052604090205460ff1661056d576001600160e01b0319811660009081527f81088bbc801e045ea3e7620779ab349988f58afbdfba10dff983df3f33522b0060205260409020805460ff19166001179055610586565b604051637967f77d60e11b815260040160405180910390fd5b6040516001600160e01b03198216907f78f84e5b1c5c05be2b5ad3800781dd404d6d6c6302bc755c0fe20f58a33a7f2290600090a250565b6105d16001600160a01b03831682610628565b5050565b816001600160a01b0316836001600160a01b031603156104df57306001600160a01b03841603610613576104ce6001600160a01b0385168383610644565b6104df6001600160a01b03851684848461068a565b60003860003884865af16105d15763b12d13eb6000526004601cfd5b816014528060345263a9059cbb60601b60005260206000604460106000875af13d156001600051141716610680576390b8ec186000526004601cfd5b6000603452505050565b60405181606052826040528360601b602c526323b872dd60601b600c52602060006064601c6000895af13d1560016000511417166106d057637939f4246000526004601cfd5b600060605260405250505050565b6000602082840312156106f057600080fd5b5035919050565b60006020828403121561070957600080fd5b5051919050565b634e487b7160e01b600052601160045260246000fd5b808202811582820484141761073d5761073d610710565b92915050565b60006020828403121561075557600080fd5b81516001600160a01b038116811461076c57600080fd5b9392505050565b8082018082111561073d5761073d61071056","linkReferences":{}},"methodIdentifiers":{"__PrepayFacet_init()":"aabe967d","calculateMembershipPrepayFee(uint256)":"27bc79f1","prepaidMembershipSupply()":"b6a45cd6","prepayMembership(uint256)":"06499d7f"},"id":236}