{"abi":[{"type":"function","name":"addPermissionsToRole","inputs":[{"name":"roleId","type":"uint256","internalType":"uint256"},{"name":"permissions","type":"string[]","internalType":"string[]"}],"outputs":[],"stateMutability":"nonpayable"},{"type":"function","name":"addRoleToEntitlement","inputs":[{"name":"roleId","type":"uint256","internalType":"uint256"},{"name":"entitlement","type":"tuple","internalType":"struct IRolesBase.CreateEntitlement","components":[{"name":"module","type":"address","internalType":"contract IEntitlement"},{"name":"data","type":"bytes","internalType":"bytes"}]}],"outputs":[],"stateMutability":"nonpayable"},{"type":"function","name":"clearChannelPermissionOverrides","inputs":[{"name":"roleId","type":"uint256","internalType":"uint256"},{"name":"channelId","type":"bytes32","internalType":"bytes32"}],"outputs":[],"stateMutability":"nonpayable"},{"type":"function","name":"createRole","inputs":[{"name":"roleName","type":"string","internalType":"string"},{"name":"permissions","type":"string[]","internalType":"string[]"},{"name":"entitlements","type":"tuple[]","internalType":"struct IRolesBase.CreateEntitlement[]","components":[{"name":"module","type":"address","internalType":"contract IEntitlement"},{"name":"data","type":"bytes","internalType":"bytes"}]}],"outputs":[{"name":"","type":"uint256","internalType":"uint256"}],"stateMutability":"nonpayable"},{"type":"function","name":"getChannelPermissionOverrides","inputs":[{"name":"roleId","type":"uint256","internalType":"uint256"},{"name":"channelId","type":"bytes32","internalType":"bytes32"}],"outputs":[{"name":"permissions","type":"string[]","internalType":"string[]"}],"stateMutability":"view"},{"type":"function","name":"getPermissionsByRoleId","inputs":[{"name":"roleId","type":"uint256","internalType":"uint256"}],"outputs":[{"name":"permissions","type":"string[]","internalType":"string[]"}],"stateMutability":"view"},{"type":"function","name":"getRoleById","inputs":[{"name":"roleId","type":"uint256","internalType":"uint256"}],"outputs":[{"name":"","type":"tuple","internalType":"struct IRolesBase.Role","components":[{"name":"id","type":"uint256","internalType":"uint256"},{"name":"name","type":"string","internalType":"string"},{"name":"disabled","type":"bool","internalType":"bool"},{"name":"permissions","type":"string[]","internalType":"string[]"},{"name":"entitlements","type":"address[]","internalType":"contract IEntitlement[]"}]}],"stateMutability":"view"},{"type":"function","name":"getRoles","inputs":[],"outputs":[{"name":"","type":"tuple[]","internalType":"struct IRolesBase.Role[]","components":[{"name":"id","type":"uint256","internalType":"uint256"},{"name":"name","type":"string","internalType":"string"},{"name":"disabled","type":"bool","internalType":"bool"},{"name":"permissions","type":"string[]","internalType":"string[]"},{"name":"entitlements","type":"address[]","internalType":"contract IEntitlement[]"}]}],"stateMutability":"view"},{"type":"function","name":"removePermissionsFromRole","inputs":[{"name":"roleId","type":"uint256","internalType":"uint256"},{"name":"permissions","type":"string[]","internalType":"string[]"}],"outputs":[],"stateMutability":"nonpayable"},{"type":"function","name":"removeRole","inputs":[{"name":"roleId","type":"uint256","internalType":"uint256"}],"outputs":[],"stateMutability":"nonpayable"},{"type":"function","name":"removeRoleFromEntitlement","inputs":[{"name":"roleId","type":"uint256","internalType":"uint256"},{"name":"entitlement","type":"tuple","internalType":"struct IRolesBase.CreateEntitlement","components":[{"name":"module","type":"address","internalType":"contract IEntitlement"},{"name":"data","type":"bytes","internalType":"bytes"}]}],"outputs":[],"stateMutability":"nonpayable"},{"type":"function","name":"setChannelPermissionOverrides","inputs":[{"name":"roleId","type":"uint256","internalType":"uint256"},{"name":"channelId","type":"bytes32","internalType":"bytes32"},{"name":"permissions","type":"string[]","internalType":"string[]"}],"outputs":[],"stateMutability":"nonpayable"},{"type":"function","name":"updateRole","inputs":[{"name":"roleId","type":"uint256","internalType":"uint256"},{"name":"roleName","type":"string","internalType":"string"},{"name":"permissions","type":"string[]","internalType":"string[]"},{"name":"entitlements","type":"tuple[]","internalType":"struct IRolesBase.CreateEntitlement[]","components":[{"name":"module","type":"address","internalType":"contract IEntitlement"},{"name":"data","type":"bytes","internalType":"bytes"}]}],"outputs":[],"stateMutability":"nonpayable"},{"type":"event","name":"Approval","inputs":[{"name":"owner","type":"address","indexed":true,"internalType":"address"},{"name":"approved","type":"address","indexed":true,"internalType":"address"},{"name":"tokenId","type":"uint256","indexed":true,"internalType":"uint256"}],"anonymous":false},{"type":"event","name":"ApprovalForAll","inputs":[{"name":"owner","type":"address","indexed":true,"internalType":"address"},{"name":"operator","type":"address","indexed":true,"internalType":"address"},{"name":"approved","type":"bool","indexed":false,"internalType":"bool"}],"anonymous":false},{"type":"event","name":"Banned","inputs":[{"name":"moderator","type":"address","indexed":true,"internalType":"address"},{"name":"tokenId","type":"uint256","indexed":true,"internalType":"uint256"}],"anonymous":false},{"type":"event","name":"ConsecutiveTransfer","inputs":[{"name":"fromTokenId","type":"uint256","indexed":true,"internalType":"uint256"},{"name":"toTokenId","type":"uint256","indexed":false,"internalType":"uint256"},{"name":"from","type":"address","indexed":true,"internalType":"address"},{"name":"to","type":"address","indexed":true,"internalType":"address"}],"anonymous":false},{"type":"event","name":"OwnershipTransferred","inputs":[{"name":"previousOwner","type":"address","indexed":true,"internalType":"address"},{"name":"newOwner","type":"address","indexed":true,"internalType":"address"}],"anonymous":false},{"type":"event","name":"Paused","inputs":[{"name":"account","type":"address","indexed":false,"internalType":"address"}],"anonymous":false},{"type":"event","name":"PermissionsAddedToChannelRole","inputs":[{"name":"updater","type":"address","indexed":true,"internalType":"address"},{"name":"roleId","type":"uint256","indexed":true,"internalType":"uint256"},{"name":"channelId","type":"bytes32","indexed":true,"internalType":"bytes32"}],"anonymous":false},{"type":"event","name":"PermissionsRemovedFromChannelRole","inputs":[{"name":"updater","type":"address","indexed":true,"internalType":"address"},{"name":"roleId","type":"uint256","indexed":true,"internalType":"uint256"},{"name":"channelId","type":"bytes32","indexed":true,"internalType":"bytes32"}],"anonymous":false},{"type":"event","name":"PermissionsUpdatedForChannelRole","inputs":[{"name":"updater","type":"address","indexed":true,"internalType":"address"},{"name":"roleId","type":"uint256","indexed":true,"internalType":"uint256"},{"name":"channelId","type":"bytes32","indexed":true,"internalType":"bytes32"}],"anonymous":false},{"type":"event","name":"RoleCreated","inputs":[{"name":"creator","type":"address","indexed":true,"internalType":"address"},{"name":"roleId","type":"uint256","indexed":true,"internalType":"uint256"}],"anonymous":false},{"type":"event","name":"RoleRemoved","inputs":[{"name":"remover","type":"address","indexed":true,"internalType":"address"},{"name":"roleId","type":"uint256","indexed":true,"internalType":"uint256"}],"anonymous":false},{"type":"event","name":"RoleUpdated","inputs":[{"name":"updater","type":"address","indexed":true,"internalType":"address"},{"name":"roleId","type":"uint256","indexed":true,"internalType":"uint256"}],"anonymous":false},{"type":"event","name":"SubscriptionUpdate","inputs":[{"name":"tokenId","type":"uint256","indexed":true,"internalType":"uint256"},{"name":"expiration","type":"uint64","indexed":false,"internalType":"uint64"}],"anonymous":false},{"type":"event","name":"Transfer","inputs":[{"name":"from","type":"address","indexed":true,"internalType":"address"},{"name":"to","type":"address","indexed":true,"internalType":"address"},{"name":"tokenId","type":"uint256","indexed":true,"internalType":"uint256"}],"anonymous":false},{"type":"event","name":"Unbanned","inputs":[{"name":"moderator","type":"address","indexed":true,"internalType":"address"},{"name":"tokenId","type":"uint256","indexed":true,"internalType":"uint256"}],"anonymous":false},{"type":"event","name":"Unpaused","inputs":[{"name":"account","type":"address","indexed":false,"internalType":"address"}],"anonymous":false},{"type":"error","name":"ApprovalCallerNotOwnerNorApproved","inputs":[]},{"type":"error","name":"ApprovalQueryForNonexistentToken","inputs":[]},{"type":"error","name":"BalanceQueryForZeroAddress","inputs":[]},{"type":"error","name":"Banning__AlreadyBanned","inputs":[{"name":"tokenId","type":"uint256","internalType":"uint256"}]},{"type":"error","name":"Banning__CannotBanOwner","inputs":[]},{"type":"error","name":"Banning__CannotBanSelf","inputs":[]},{"type":"error","name":"Banning__InvalidTokenId","inputs":[{"name":"tokenId","type":"uint256","internalType":"uint256"}]},{"type":"error","name":"Banning__NotBanned","inputs":[{"name":"tokenId","type":"uint256","internalType":"uint256"}]},{"type":"error","name":"ChannelService__ChannelDisabled","inputs":[]},{"type":"error","name":"ChannelService__ChannelDoesNotExist","inputs":[]},{"type":"error","name":"ChannelService__RoleDoesNotExist","inputs":[]},{"type":"error","name":"ERC5643__DurationZero","inputs":[]},{"type":"error","name":"ERC5643__InvalidTokenId","inputs":[{"name":"tokenId","type":"uint256","internalType":"uint256"}]},{"type":"error","name":"ERC5643__NotApprovedOrOwner","inputs":[]},{"type":"error","name":"ERC5643__SubscriptionNotRenewable","inputs":[{"name":"tokenId","type":"uint256","internalType":"uint256"}]},{"type":"error","name":"Entitlement__InvalidValue","inputs":[]},{"type":"error","name":"Entitlement__NotAllowed","inputs":[]},{"type":"error","name":"Entitlement__NotMember","inputs":[]},{"type":"error","name":"Entitlement__ValueAlreadyExists","inputs":[]},{"type":"error","name":"EntitlementsService__EntitlementDoesNotExist","inputs":[]},{"type":"error","name":"EntitlementsService__InvalidEntitlementAddress","inputs":[]},{"type":"error","name":"EntitlementsService__InvalidEntitlementInterface","inputs":[]},{"type":"error","name":"MintERC2309QuantityExceedsLimit","inputs":[]},{"type":"error","name":"MintToZeroAddress","inputs":[]},{"type":"error","name":"MintZeroQuantity","inputs":[]},{"type":"error","name":"Ownable__NotOwner","inputs":[{"name":"account","type":"address","internalType":"address"}]},{"type":"error","name":"Ownable__ZeroAddress","inputs":[]},{"type":"error","name":"OwnerQueryForNonexistentToken","inputs":[]},{"type":"error","name":"OwnershipNotInitializedForExtraData","inputs":[]},{"type":"error","name":"Pausable__NotPaused","inputs":[]},{"type":"error","name":"Pausable__Paused","inputs":[]},{"type":"error","name":"Roles__EntitlementAlreadyExists","inputs":[]},{"type":"error","name":"Roles__EntitlementDoesNotExist","inputs":[]},{"type":"error","name":"Roles__InvalidEntitlementAddress","inputs":[]},{"type":"error","name":"Roles__InvalidPermission","inputs":[]},{"type":"error","name":"Roles__PermissionAlreadyExists","inputs":[]},{"type":"error","name":"Roles__PermissionDoesNotExist","inputs":[]},{"type":"error","name":"Roles__RoleDoesNotExist","inputs":[]},{"type":"error","name":"TransferCallerNotOwnerNorApproved","inputs":[]},{"type":"error","name":"TransferFromIncorrectOwner","inputs":[]},{"type":"error","name":"TransferToNonERC721ReceiverImplementer","inputs":[]},{"type":"error","name":"TransferToZeroAddress","inputs":[]},{"type":"error","name":"URIQueryForNonexistentToken","inputs":[]},{"type":"error","name":"Validator__InvalidByteLength","inputs":[]},{"type":"error","name":"Validator__InvalidStringLength","inputs":[]}],"bytecode":{"object":"0x608060405234801561001057600080fd5b5061365a806100206000396000f3fe608060405234801561001057600080fd5b50600436106100cf5760003560e01c80639a8e4c3e1161008c578063ba201ba811610066578063ba201ba8146101b4578063bd9af74a146101c7578063d2dea2b9146101da578063dba81864146101ed57600080fd5b80639a8e4c3e1461017b578063b42642331461018e578063b7515761146101a157600080fd5b80634d8b50a2146100d457806365634a48146100e95780637106139814610112578063784c872b146101275780638fcd793d146101475780639269182114610168575b600080fd5b6100e76100e2366004612d21565b610200565b005b6100fc6100f7366004612db8565b610240565b6040516101099190612e2a565b60405180910390f35b61011a610255565b6040516101099190612f7d565b61013a610135366004612fd4565b610264565b6040516101099190612fed565b61015a610155366004613000565b6102aa565b604051908152602001610109565b6100e7610176366004612fd4565b6102ed565b6100e761018936600461308d565b610325565b6100fc61019c366004612fd4565b61035f565b6100e76101af36600461308d565b61036a565b6100e76101c23660046130d3565b6103a0565b6100e76101d536600461310f565b6103d6565b6100e76101e8366004612db8565b610412565b6100e76101fb3660046130d3565b610448565b61022c60405180604001604052806013815260200160008051602061361a83398151915281525061047e565b61023985858585856104a6565b5050505050565b606061024c8383610845565b90505b92915050565b606061025f61089a565b905090565b6102986040518060a00160405280600081526020016060815260200160001515815260200160608152602001606081525090565b6102a1826109dc565b61024f82610a23565b60006102d860405180604001604052806013815260200160008051602061361a83398151915281525061047e565b6102e485858585610a9c565b95945050505050565b61031960405180604001604052806013815260200160008051602061361a83398151915281525061047e565b61032281610c7f565b50565b61035160405180604001604052806013815260200160008051602061361a83398151915281525061047e565b61035b8282610eec565b5050565b606061024f82610fcc565b61039660405180604001604052806013815260200160008051602061361a83398151915281525061047e565b61035b8282610fe0565b6103cc60405180604001604052806013815260200160008051602061361a83398151915281525061047e565b61035b82826110c8565b61040260405180604001604052806013815260200160008051602061361a83398151915281525061047e565b61040d8383836110fd565b505050565b61043e60405180604001604052806013815260200160008051602061361a83398151915281525061047e565b61035b828261127a565b61047460405180604001604052806013815260200160008051602061361a83398151915281525061047e565b61035b828261135e565b61048960008261138c565b61032257604051630ce39a4b60e21b815260040160405180910390fd5b6104af856109dc565b60006104ba86611410565b80518351919250906000816001600160401b038111156104dc576104dc612a93565b604051908082528060200260200182016040528015610505578160200160208202803683370190505b50905060005b828110156105985760008682815181106105275761052761315e565b602002602001015160000151905061053e816114d2565b6105478161159b565b8682815181106105595761055961315e565b6020026020010151600001518383815181106105775761057761315e565b6001600160a01b03909216602092830291909101909101525060010161050b565b5086156105c757600089815260008051602061363a833981519152602052604090206105c5888a836131f0565b505b85511561060d57600089815260008051602061363a833981519152602052604081206105f590600201611603565b90506106018a82610eec565b61060b8a88610fe0565b505b8160000361061e5750505050610239565b80511561069757805160005b8481101561065d576106558b8783815181106106485761064861315e565b602002602001015161160e565b60010161062a565b5060005b818110156106945761068c8b84838151811061067f5761067f61315e565b6020026020010151611666565b600101610661565b50505b60005b838110156107665760008582815181106106b6576106b661315e565b60200260200101516001600160a01b0316631eee07b28c6040518263ffffffff1660e01b81526004016106eb91815260200190565b600060405180830381865afa158015610708573d6000803e3d6000fd5b505050506040513d6000823e601f3d908101601f1916820160405261073091908101906132af565b80519091501561075d5761075d86838151811061074f5761074f61315e565b60200260200101518c6116b9565b5060010161069a565b5060005b8281101561080c5760008682815181106107865761078661315e565b602002602001015160200151511115610804576107bf8682815181106107ae576107ae61315e565b602002602001015160200151611720565b6108048682815181106107d4576107d461315e565b6020026020010151600001518b8884815181106107f3576107f361315e565b602002602001015160200151611742565b60010161076a565b50604051899033907f1aff41ff8e9139aae6bb355cc69107cda7e1d1dcd25511da436f3171bdbf77e690600090a3505050505050505050565b6060610850836109dc565b610859826117b0565b60008381527f672ef851d5f92307da037116e23aa9e31af7e1f7e3ca62c4e6d540631df3fd0560209081526040808320858452909152902061024c90611603565b606060006108a66117e5565b8051909150806001600160401b038111156108c3576108c3612a93565b60405190808252806020026020018201604052801561092857816020015b6109156040518060a00160405280600081526020016060815260200160001515815260200160608152602001606081525090565b8152602001906001900390816108e15790505b50925060005b818110156109d65760008060008061095e8786815181106109515761095161315e565b6020026020010151611810565b93509350935093506040518060a001604052808887815181106109835761098361315e565b602002602001015181526020018581526020018415158152602001838152602001828152508886815181106109ba576109ba61315e565b602002602001018190525084806001019550505050505061092e565b50505090565b610a067f672ef851d5f92307da037116e23aa9e31af7e1f7e3ca62c4e6d540631df3fd018261190e565b6103225760405163a3f70f7b60e01b815260040160405180910390fd5b610a576040518060a00160405280600081526020016060815260200160001515815260200160608152602001606081525090565b600080600080610a6686611810565b6040805160a0810182529a8b5260208b019490945291151592890192909252606088019190915260808701525093949350505050565b6000610ae085858080601f01602080910402602001604051908101604052809392919081815260200183838082843760009201919091525060029250611926915050565b81516000816001600160401b03811115610afc57610afc612a93565b604051908082528060200260200182016040528015610b25578160200160208202803683370190505b509050610b3061194a565b925060005b82811015610c0457610b63858281518110610b5257610b5261315e565b6020026020010151600001516114d2565b848181518110610b7557610b7561315e565b602002602001015160000151828281518110610b9357610b9361315e565b60200260200101906001600160a01b031690816001600160a01b031681525050610bc88582815181106107ae576107ae61315e565b610bfc858281518110610bdd57610bdd61315e565b602002602001015160000151858784815181106107f3576107f361315e565b600101610b35565b50610c4787878080601f01602080910402602001604051908101604052809392919081815260200183838082843760009201829052509250899150859050611970565b50604051839033907f20a7a288530dd94b1eccaa691a582ecfd7550c9dfcee78ddf50a97f774a2b14790600090a35050949350505050565b610c88816109dc565b6000610c9382611410565b80519091506000805160206135fa833981519152610cd17f672ef851d5f92307da037116e23aa9e31af7e1f7e3ca62c4e6d540631df3fd0185611a99565b506000848152600382016020526040812090610ced82826129a3565b60018201805460ff19169055600282016000610d0982826129dd565b50506004820160008181610d1d82826129fb565b5050604080516020808201835260008083528b815260038901909152919091209450610d4e9350915083905061331c565b506000848152600382016020526040812060018101805460ff19169055610d7790600201611aa5565b6000868152600384016020526040812091925090610d9790600401611aa5565b905060005b82811015610de75760008781526003850160205260409020610dde90610dc59060020183611aaf565b6000898152600387016020526040902060020190611abb565b50600101610d9c565b5060005b81811015610e365760008781526003850160205260409020610e2d90610e149060040183611ac7565b6000898152600387016020526040902060040190611ad3565b50600101610deb565b506000610e4287611ae8565b805190915060005b81811015610e7d57610e75838281518110610e6757610e6761315e565b60200260200101518a611bd4565b600101610e4a565b5060005b86811015610eb457610eac888281518110610e9e57610e9e61315e565b60200260200101518a6116b9565b600101610e81565b50604051889033907f268a6f1b90f6f5ddf50cc736d36513e80cdc5fd56326bff71f335e8b4b61d05590600090a35050505050505050565b610ef5826109dc565b80516000805160206135fa8339815191529060005b8181101561023957610f34848281518110610f2757610f2761315e565b6020026020010151611c64565b600085815260038401602052604090208451610f7690869084908110610f5c57610f5c61315e565b602002602001015182600201611c8590919063ffffffff16565b610f9357604051633e2b026160e01b815260040160405180910390fd5b610fc2858381518110610fa857610fa861315e565b602002602001015182600201611abb90919063ffffffff16565b5050600101610f0a565b6060610fd782611810565b50949350505050565b610fe9826109dc565b80516000805160206135fa8339815191529060005b818110156102395761101b848281518110610f2757610f2761315e565b61105e8482815181106110305761103061315e565b6020026020010151846003016000888152602001908152602001600020600201611c8590919063ffffffff16565b1561107c5760405163b0ab682160e01b815260040160405180910390fd5b6110bf8482815181106110915761109161315e565b6020026020010151846003016000888152602001908152602001600020600201611c9190919063ffffffff16565b50600101610ffe565b6110d1826109dc565b80516110dc9061159b565b6110ea828260000151611666565b61035b8160000151838360200151611742565b611106826117b0565b61110f836109dc565b60008381527f672ef851d5f92307da037116e23aa9e31af7e1f7e3ca62c4e6d540631df3fd04602052604090206000805160206135fa833981519152906111569084611c9d565b506000848152600582016020908152604080832086845290915281209061117c82611aa5565b11156111d657600061118d82611603565b805190915060005b818110156111d2576111c98382815181106111b2576111b261315e565b602002602001015185611abb90919063ffffffff16565b50600101611195565b5050505b825180156112395760005b81811015611233576111fe858281518110610f2757610f2761315e565b61122a8582815181106112135761121361315e565b602002602001015184611c9190919063ffffffff16565b506001016111e1565b50611243565b611243868661127a565b6040518590879033907f38ef31503bf60258feeceab5e2c3778cf74be2a8fbcc150d209ca96cd3c9855390600090a4505050505050565b611283826109dc565b61128c816117b0565b60008281527f672ef851d5f92307da037116e23aa9e31af7e1f7e3ca62c4e6d540631df3fd056020908152604080832084845290915281206000805160206135fa833981519152916112dd82611603565b805190915060005b8181101561130b576113028382815181106111b2576111b261315e565b506001016112e5565b50600086815260048501602052604090206113269086611a99565b506040518590879033907f07439707c74b686d8e4d3f3226348eac82205e6dffd780ac4c555a4c2dc9d86c90600090a4505050505050565b611367826109dc565b80516113729061159b565b61138082826000015161160e565b805161035b90836116b9565b60003380611398611ca9565b6001600160a01b0316148061140857507fe17a067c7963a59b6dfd65d33b053fdbea1c56500e2aae4f976d9eda4da9eb005460ff1615801561140857506114088482856040516020016113eb91906133db565b604051602081830303815290604052611403906133f7565b611d6d565b949350505050565b600081815260008051602061363a8339815191526020526040812060609160049091019061143d82611aa5565b90506000816001600160401b0381111561145957611459612a93565b604051908082528060200260200182016040528015611482578160200160208202803683370190505b50905060005b82811015610fd757600061149c8583611ac7565b9050808383815181106114b1576114b161315e565b6001600160a01b039092166020928302919091019091015250600101611488565b6001600160a01b0381166114f957604051630706e15760e51b815260040160405180910390fd5b6040516301ffc9a760e01b8152637bc2cb4560e11b60048201526001600160a01b038216906301ffc9a790602401602060405180830381865afa925050508015611560575060408051601f3d908101601f1916820190925261155d9181019061341b565b60015b61157d5760405163f58a5f2760e01b815260040160405180910390fd5b8061035b5760405163f58a5f2760e01b815260040160405180910390fd5b7fa558e822bd359dacbe30f0da89cbfde5f95895b441e13a4864caec1423c931006115e67fa558e822bd359dacbe30f0da89cbfde5f95895b441e13a4864caec1423c9310183611fe8565b61035b5760405163017ab33760e71b815260040160405180910390fd5b606061024f8261200a565b600082815260008051602061363a833981519152602052604090206116366004820183611fe8565b61165357604051632405297d60e11b815260040160405180910390fd5b6116606004820183611ad3565b50505050565b600082815260008051602061363a8339815191526020526040902061168e6004820183611fe8565b156116ac5760405163fb5584f160e01b815260040160405180910390fd5b61166060048201836120e7565b6116c28261159b565b60405163f0c111f960e01b8152600481018290526001600160a01b0383169063f0c111f990602401600060405180830381600087803b15801561170457600080fd5b505af1158015611718573d6000803e3d6000fd5b505050505050565b8051600003610322576040516319c6193b60e31b815260040160405180910390fd5b61174b8361159b565b604051633be2f95d60e21b81526001600160a01b0384169063ef8be57490611779908590859060040161343d565b600060405180830381600087803b15801561179357600080fd5b505af11580156117a7573d6000803e3d6000fd5b50505050505050565b6117c86000805160206135da8339815191528261190e565b6103225760405163560b4b4160e11b815260040160405180910390fd5b606061025f7f672ef851d5f92307da037116e23aa9e31af7e1f7e3ca62c4e6d540631df3fd016120fc565b600081815260008051602061363a83398151915260205260408120805460609291839182916000805160206135fa8339815191529161184e90613174565b80601f016020809104026020016040519081016040528092919081815260200182805461187a90613174565b80156118c75780601f1061189c576101008083540402835291602001916118c7565b820191906000526020600020905b8154815290600101906020018083116118aa57829003601f168201915b50505060008981526003850160205260409020600181015493985060ff90931696506118f99260020191506116039050565b925061190486611410565b9150509193509193565b6000818152600183016020526040812054151561024c565b8151829082111561040d576040516374eb20a760e01b815260040160405180910390fd5b6000805160206135fa83398151915280546000919061196a90600161346c565b91505090565b6000805160206135fa833981519152805460009190819083906119929061347f565b918290555091506119a66001820183611c9d565b50600082815260038201602052604090206119c1878261331c565b5060008281526003820160205260409020600101805460ff19168615151790556119eb8285610fe0565b60005b8351811015611a8f5760006001600160a01b0316848281518110611a1457611a1461315e565b60200260200101516001600160a01b031603611a4357604051637442429b60e01b815260040160405180910390fd5b611a86848281518110611a5857611a5861315e565b60200260200101518360030160008681526020019081526020016000206004016120e790919063ffffffff16565b506001016119ee565b5050949350505050565b600061024c8383612109565b600061024f825490565b606061024c83836121fc565b600061024c83836122ae565b600061024c8383612463565b600061024c836001600160a01b038416612109565b60606000805160206135da8339815191526000611b0482611aa5565b90506000816001600160401b03811115611b2057611b20612a93565b604051908082528060200260200182016040528015611b49578160200160208202803683370190505b50935060005b82811015611bb9576000611b638583611ac7565b60008181526003870160205260409020909150611b80908861190e565b15611bb057808684611b918161347f565b955081518110611ba357611ba361315e565b6020026020010181815250505b50600101611b4f565b5080821115611bcc578351818303900384525b505050919050565b611bdd826117b0565b611be68261248d565b60008281527f804ad633258ac9b908ae115a2763b3f6e04be3b1165402c872b25af518504303602052604090206000805160206135da83398151915290611c2d908361190e565b611c4a576040516333cb039f60e11b815260040160405180910390fd5b600083815260038201602052604090206116609083611a99565b80516000036103225760405162ce76c160e41b815260040160405180910390fd5b600061024c83836124ef565b600061024c838361251c565b600061024c838361257e565b6040805180820182527fd2f24d4f172e4e84e48e7c4125b6e904c29e5eba33ad4938fee51dd5dbd4b600546001600160a01b03168082527fd2f24d4f172e4e84e48e7c4125b6e904c29e5eba33ad4938fee51dd5dbd4b60154602080840182905284516331a9108f60e11b815260048101929092529351600094636352211e92602480820193918290030181865afa158015611d49573d6000803e3d6000fd5b505050506040513d601f19601f8201168201806040525081019061196a9190613498565b600080611d78611ca9565b90506000611d85856125c5565b80519091506000611d94612846565b805190915060005b83811015611e53576000858281518110611db857611db861315e565b60200260200101519050866001600160a01b0316816001600160a01b031603611deb576001975050505050505050611fe1565b60005b83811015611e4957816001600160a01b0316611e22868381518110611e1557611e1561315e565b6020026020010151612871565b6001600160a01b031603611e4157600098505050505050505050611fe1565b600101611dee565b5050600101611d9c565b507fa558e822bd359dacbe30f0da89cbfde5f95895b441e13a4864caec1423c931006000611ea07fa558e822bd359dacbe30f0da89cbfde5f95895b441e13a4864caec1423c93101611aa5565b905060005b81811015611fd45760008381611ebe6001830185611ac7565b6001600160a01b0390811682526020808301939093526040918201600020548251630b86d87960e21b81529251911693508392632e1b61e492600480820193918290030181865afa158015611f17573d6000803e3d6000fd5b505050506040513d601f19601f82011682018060405250810190611f3b919061341b565b158015611fb45750806001600160a01b0316630cf0b5338e8a8e6040518463ffffffff1660e01b8152600401611f73939291906134b5565b602060405180830381865afa158015611f90573d6000803e3d6000fd5b505050506040513d601f19601f82011682018060405250810190611fb4919061341b565b15611fcb5760019950505050505050505050611fe1565b50600101611ea5565b5060009750505050505050505b9392505050565b6001600160a01b0381166000908152600183016020526040812054151561024c565b606081600001805480602002602001604051908101604052809291908181526020016000905b828210156120dc57838290600052602060002001805461204f90613174565b80601f016020809104026020016040519081016040528092919081815260200182805461207b90613174565b80156120c85780601f1061209d576101008083540402835291602001916120c8565b820191906000526020600020905b8154815290600101906020018083116120ab57829003601f168201915b505050505081526020019060010190612030565b505050509050919050565b600061024c836001600160a01b03841661257e565b60606000611fe18361287c565b600081815260018301602052604081205480156121f257600061212d600183613517565b855490915060009061214190600190613517565b90508082146121a65760008660000182815481106121615761216161315e565b90600052602060002001549050808760000184815481106121845761218461315e565b6000918252602080832090910192909255918252600188019052604090208390555b85548690806121b7576121b761352a565b60019003818190600052602060002001600090559055856001016000868152602001908152602001600020600090556001935050505061024f565b600091505061024f565b60608260000182815481106122135761221361315e565b90600052602060002001805461222890613174565b80601f016020809104026020016040519081016040528092919081815260200182805461225490613174565b80156122a15780601f10612276576101008083540402835291602001916122a1565b820191906000526020600020905b81548152906001019060200180831161228457829003601f168201915b5050505050905092915050565b60008083600101836040516122c391906133db565b9081526020016040518091039020549050806000146121f25760006122e9600183613517565b85549091506000906122fd90600190613517565b905081811461240457600086600001828154811061231d5761231d61315e565b90600052602060002001805461233290613174565b80601f016020809104026020016040519081016040528092919081815260200182805461235e90613174565b80156123ab5780601f10612380576101008083540402835291602001916123ab565b820191906000526020600020905b81548152906001019060200180831161238e57829003601f168201915b50505050509050808760000184815481106123c8576123c861315e565b9060005260206000200190816123de919061331c565b508387600101826040516123f291906133db565b90815260405190819003602001902055505b85548690806124155761241561352a565b60019003818190600052602060002001600061243191906129a3565b9055856001018560405161244591906133db565b9081526020016040518091039020600090556001935050505061024f565b600082600001828154811061247a5761247a61315e565b9060005260206000200154905092915050565b60008181527f804ad633258ac9b908ae115a2763b3f6e04be3b1165402c872b25af51850430260205260409020600101546000805160206135da8339815191529060ff161561035b57604051636ce0028960e11b815260040160405180910390fd5b6000826001018260405161250391906133db565b9081526040519081900360200190205415159392505050565b600061252883836124ef565b61257657825460018101845560008481526020902001612548838261331c565b508254604051600185019061255e9085906133db565b9081526040519081900360200190205550600161024f565b50600061024f565b60008181526001830160205260408120546125765750815460018181018455600084815260208082209093018490558454848252828601909352604090209190915561024f565b606060007fc21004fcc619240a31f006438274d15cd813308303284436eef6055f0fdcb6006006015460405162468b7360e31b81526001600160a01b038581166004830152909116915060009082906302345b9890602401600060405180830381865afa15801561263a573d6000803e3d6000fd5b505050506040513d6000823e601f3d908101601f191682016040526126629190810190613540565b604051631f04207360e31b81526001600160a01b03868116600483015291925060009184169063f821039890602401602060405180830381865afa1580156126ae573d6000803e3d6000fd5b505050506040513d601f19601f820116820180604052508101906126d29190613498565b9050815160001480156126ed57506001600160a01b03811615155b156127675760405162468b7360e31b81526001600160a01b03808316600483015291955085918416906302345b9890602401600060405180830381865afa15801561273c573d6000803e3d6000fd5b505050506040513d6000823e601f3d908101601f191682016040526127649190810190613540565b91505b8151600061277682600161346c565b6001600160401b0381111561278d5761278d612a93565b6040519080825280602002602001820160405280156127b6578160200160208202803683370190505b50905060005b82811015612810578481815181106127d6576127d661315e565b60200260200101518282815181106127f0576127f061315e565b6001600160a01b03909216602092830291909101909101526001016127bc565b50868183815181106128245761282461315e565b6001600160a01b03909216602092830291909101909101529695505050505050565b606061025f7f49daf035076c43671ca9f9fb568d931e51ab7f9098a5a694781b45341112cf006120fc565b600061024f826128d8565b6060816000018054806020026020016040519081016040528092919081815260200182805480156128cc57602002820191906000526020600020905b8154815260200190600101908083116128b8575b50505050509050919050565b60008181527f6569bde4a160c636ea8b8d11acb83a60d7fec0b8f2e09389306cba0e1340df046020526040812054907f6569bde4a160c636ea8b8d11acb83a60d7fec0b8f2e09389306cba0e1340df0090600160e01b831690036129895781600003612983578054831061295f57604051636f96cda160e11b815260040160405180910390fd5b5b600019909201600081815260048401602052604090205490929091508115612960575b50919050565b50604051636f96cda160e11b815260040160405180910390fd5b5080546129af90613174565b6000825580601f106129bf575050565b601f0160209004906000526020600020908101906103229190612a15565b50805460008255906000526020600020908101906103229190612a2e565b508054600082559060005260206000209081019061032291905b5b80821115612a2a5760008155600101612a16565b5090565b80821115612a2a576000612a4282826129a3565b50600101612a2e565b60008083601f840112612a5d57600080fd5b5081356001600160401b03811115612a7457600080fd5b602083019150836020828501011115612a8c57600080fd5b9250929050565b634e487b7160e01b600052604160045260246000fd5b604051601f8201601f191681016001600160401b0381118282101715612ad157612ad1612a93565b604052919050565b60006001600160401b03821115612af257612af2612a93565b5060051b60200190565b60006001600160401b03821115612b1557612b15612a93565b50601f01601f191660200190565b6000612b36612b3184612afc565b612aa9565b9050828152838383011115612b4a57600080fd5b828260208301376000602084830101529392505050565b600082601f830112612b7257600080fd5b81356020612b82612b3183612ad9565b82815260059290921b84018101918181019086841115612ba157600080fd5b8286015b84811015612bf55780356001600160401b03811115612bc45760008081fd5b8701603f81018913612bd65760008081fd5b612be7898683013560408401612b23565b845250918301918301612ba5565b509695505050505050565b6001600160a01b038116811461032257600080fd5b600060408284031215612c2757600080fd5b604051604081016001600160401b038282108183111715612c4a57612c4a612a93565b8160405282935084359150612c5e82612c00565b90825260208401359080821115612c7457600080fd5b508301601f81018513612c8657600080fd5b612c9585823560208401612b23565b6020830152505092915050565b600082601f830112612cb357600080fd5b81356020612cc3612b3183612ad9565b82815260059290921b84018101918181019086841115612ce257600080fd5b8286015b84811015612bf55780356001600160401b03811115612d055760008081fd5b612d138986838b0101612c15565b845250918301918301612ce6565b600080600080600060808688031215612d3957600080fd5b8535945060208601356001600160401b0380821115612d5757600080fd5b612d6389838a01612a4b565b90965094506040880135915080821115612d7c57600080fd5b612d8889838a01612b61565b93506060880135915080821115612d9e57600080fd5b50612dab88828901612ca2565b9150509295509295909350565b60008060408385031215612dcb57600080fd5b50508035926020909101359150565b60005b83811015612df5578181015183820152602001612ddd565b50506000910152565b60008151808452612e16816020860160208601612dda565b601f01601f19169290920160200192915050565b600060208083016020845280855180835260408601915060408160051b87010192506020870160005b82811015612e8157603f19888603018452612e6f858351612dfe565b94509285019290850190600101612e53565b5092979650505050505050565b60008151808452602080850194506020840160005b83811015612ec85781516001600160a01b031687529582019590820190600101612ea3565b509495945050505050565b80518252600060208083015160a082860152612ef260a0860182612dfe565b9050604084015115156040860152606084015185820360608701528181518084528484019150848160051b850101858401935060005b82811015612f5657601f19868303018452612f44828651612dfe565b94870194938701939150600101612f28565b506080880151955088810360808a0152612f708187612e8e565b9998505050505050505050565b600060208083016020845280855180835260408601915060408160051b87010192506020870160005b82811015612e8157603f19888603018452612fc2858351612ed3565b94509285019290850190600101612fa6565b600060208284031215612fe657600080fd5b5035919050565b60208152600061024c6020830184612ed3565b6000806000806060858703121561301657600080fd5b84356001600160401b038082111561302d57600080fd5b61303988838901612a4b565b9096509450602087013591508082111561305257600080fd5b61305e88838901612b61565b9350604087013591508082111561307457600080fd5b5061308187828801612ca2565b91505092959194509250565b600080604083850312156130a057600080fd5b8235915060208301356001600160401b038111156130bd57600080fd5b6130c985828601612b61565b9150509250929050565b600080604083850312156130e657600080fd5b8235915060208301356001600160401b0381111561310357600080fd5b6130c985828601612c15565b60008060006060848603121561312457600080fd5b833592506020840135915060408401356001600160401b0381111561314857600080fd5b61315486828701612b61565b9150509250925092565b634e487b7160e01b600052603260045260246000fd5b600181811c9082168061318857607f821691505b60208210810361298357634e487b7160e01b600052602260045260246000fd5b601f82111561040d576000816000526020600020601f850160051c810160208610156131d15750805b601f850160051c820191505b81811015611718578281556001016131dd565b6001600160401b0383111561320757613207612a93565b61321b836132158354613174565b836131a8565b6000601f84116001811461324f57600085156132375750838201355b600019600387901b1c1916600186901b178355610239565b600083815260209020601f19861690835b828110156132805786850135825560209485019460019092019101613260565b508682101561329d5760001960f88860031b161c19848701351681555b505060018560011b0183555050505050565b6000602082840312156132c157600080fd5b81516001600160401b038111156132d757600080fd5b8201601f810184136132e857600080fd5b80516132f6612b3182612afc565b81815285602083850101111561330b57600080fd5b6102e4826020830160208601612dda565b81516001600160401b0381111561333557613335612a93565b613349816133438454613174565b846131a8565b602080601f83116001811461337e57600084156133665750858301515b600019600386901b1c1916600185901b178555611718565b600085815260208120601f198616915b828110156133ad5788860151825594840194600190910190840161338e565b50858210156133cb5787850151600019600388901b60f8161c191681555b5050505050600190811b01905550565b600082516133ed818460208701612dda565b9190910192915050565b805160208083015191908110156129835760001960209190910360031b1b16919050565b60006020828403121561342d57600080fd5b81518015158114611fe157600080fd5b8281526040602082015260006114086040830184612dfe565b634e487b7160e01b600052601160045260246000fd5b8082018082111561024f5761024f613456565b60006001820161349157613491613456565b5060010190565b6000602082840312156134aa57600080fd5b8151611fe181612c00565b60006060820185835260206060602085015281865180845260808601915060208801935060005b818110156135015784516001600160a01b0316835293830193918301916001016134dc565b5050809350505050826040830152949350505050565b8181038181111561024f5761024f613456565b634e487b7160e01b600052603160045260246000fd5b6000602080838503121561355357600080fd5b82516001600160401b0381111561356957600080fd5b8301601f8101851361357a57600080fd5b8051613588612b3182612ad9565b81815260059190911b820183019083810190878311156135a757600080fd5b928401925b828410156135ce5783516135bf81612c00565b825292840192908401906135ac565b97965050505050505056fe804ad633258ac9b908ae115a2763b3f6e04be3b1165402c872b25af518504300672ef851d5f92307da037116e23aa9e31af7e1f7e3ca62c4e6d540631df3fd004d6f64696679537061636553657474696e677300000000000000000000000000672ef851d5f92307da037116e23aa9e31af7e1f7e3ca62c4e6d540631df3fd03","linkReferences":{}},"methodIdentifiers":{"addPermissionsToRole(uint256,string[])":"b7515761","addRoleToEntitlement(uint256,(address,bytes))":"ba201ba8","clearChannelPermissionOverrides(uint256,bytes32)":"d2dea2b9","createRole(string,string[],(address,bytes)[])":"8fcd793d","getChannelPermissionOverrides(uint256,bytes32)":"65634a48","getPermissionsByRoleId(uint256)":"b4264233","getRoleById(uint256)":"784c872b","getRoles()":"71061398","removePermissionsFromRole(uint256,string[])":"9a8e4c3e","removeRole(uint256)":"92691821","removeRoleFromEntitlement(uint256,(address,bytes))":"dba81864","setChannelPermissionOverrides(uint256,bytes32,string[])":"bd9af74a","updateRole(uint256,string,string[],(address,bytes)[])":"4d8b50a2"},"id":308}