{"abi":[{"type":"function","name":"addPermissionsToRole","inputs":[{"name":"roleId","type":"uint256","internalType":"uint256"},{"name":"permissions","type":"string[]","internalType":"string[]"}],"outputs":[],"stateMutability":"nonpayable"},{"type":"function","name":"addRoleToEntitlement","inputs":[{"name":"roleId","type":"uint256","internalType":"uint256"},{"name":"entitlement","type":"tuple","internalType":"struct IRolesBase.CreateEntitlement","components":[{"name":"module","type":"address","internalType":"contract IEntitlement"},{"name":"data","type":"bytes","internalType":"bytes"}]}],"outputs":[],"stateMutability":"nonpayable"},{"type":"function","name":"clearChannelPermissionOverrides","inputs":[{"name":"roleId","type":"uint256","internalType":"uint256"},{"name":"channelId","type":"bytes32","internalType":"bytes32"}],"outputs":[],"stateMutability":"nonpayable"},{"type":"function","name":"createRole","inputs":[{"name":"roleName","type":"string","internalType":"string"},{"name":"permissions","type":"string[]","internalType":"string[]"},{"name":"entitlements","type":"tuple[]","internalType":"struct IRolesBase.CreateEntitlement[]","components":[{"name":"module","type":"address","internalType":"contract IEntitlement"},{"name":"data","type":"bytes","internalType":"bytes"}]}],"outputs":[{"name":"","type":"uint256","internalType":"uint256"}],"stateMutability":"nonpayable"},{"type":"function","name":"getChannelPermissionOverrides","inputs":[{"name":"roleId","type":"uint256","internalType":"uint256"},{"name":"channelId","type":"bytes32","internalType":"bytes32"}],"outputs":[{"name":"permissions","type":"string[]","internalType":"string[]"}],"stateMutability":"view"},{"type":"function","name":"getPermissionsByRoleId","inputs":[{"name":"roleId","type":"uint256","internalType":"uint256"}],"outputs":[{"name":"permissions","type":"string[]","internalType":"string[]"}],"stateMutability":"view"},{"type":"function","name":"getRoleById","inputs":[{"name":"roleId","type":"uint256","internalType":"uint256"}],"outputs":[{"name":"","type":"tuple","internalType":"struct IRolesBase.Role","components":[{"name":"id","type":"uint256","internalType":"uint256"},{"name":"name","type":"string","internalType":"string"},{"name":"disabled","type":"bool","internalType":"bool"},{"name":"permissions","type":"string[]","internalType":"string[]"},{"name":"entitlements","type":"address[]","internalType":"contract IEntitlement[]"}]}],"stateMutability":"view"},{"type":"function","name":"getRoles","inputs":[],"outputs":[{"name":"","type":"tuple[]","internalType":"struct IRolesBase.Role[]","components":[{"name":"id","type":"uint256","internalType":"uint256"},{"name":"name","type":"string","internalType":"string"},{"name":"disabled","type":"bool","internalType":"bool"},{"name":"permissions","type":"string[]","internalType":"string[]"},{"name":"entitlements","type":"address[]","internalType":"contract IEntitlement[]"}]}],"stateMutability":"view"},{"type":"function","name":"removePermissionsFromRole","inputs":[{"name":"roleId","type":"uint256","internalType":"uint256"},{"name":"permissions","type":"string[]","internalType":"string[]"}],"outputs":[],"stateMutability":"nonpayable"},{"type":"function","name":"removeRole","inputs":[{"name":"roleId","type":"uint256","internalType":"uint256"}],"outputs":[],"stateMutability":"nonpayable"},{"type":"function","name":"removeRoleFromEntitlement","inputs":[{"name":"roleId","type":"uint256","internalType":"uint256"},{"name":"entitlement","type":"tuple","internalType":"struct IRolesBase.CreateEntitlement","components":[{"name":"module","type":"address","internalType":"contract IEntitlement"},{"name":"data","type":"bytes","internalType":"bytes"}]}],"outputs":[],"stateMutability":"nonpayable"},{"type":"function","name":"setChannelPermissionOverrides","inputs":[{"name":"roleId","type":"uint256","internalType":"uint256"},{"name":"channelId","type":"bytes32","internalType":"bytes32"},{"name":"permissions","type":"string[]","internalType":"string[]"}],"outputs":[],"stateMutability":"nonpayable"},{"type":"function","name":"updateRole","inputs":[{"name":"roleId","type":"uint256","internalType":"uint256"},{"name":"roleName","type":"string","internalType":"string"},{"name":"permissions","type":"string[]","internalType":"string[]"},{"name":"entitlements","type":"tuple[]","internalType":"struct IRolesBase.CreateEntitlement[]","components":[{"name":"module","type":"address","internalType":"contract IEntitlement"},{"name":"data","type":"bytes","internalType":"bytes"}]}],"outputs":[],"stateMutability":"nonpayable"},{"type":"event","name":"Approval","inputs":[{"name":"owner","type":"address","indexed":true,"internalType":"address"},{"name":"approved","type":"address","indexed":true,"internalType":"address"},{"name":"tokenId","type":"uint256","indexed":true,"internalType":"uint256"}],"anonymous":false},{"type":"event","name":"ApprovalForAll","inputs":[{"name":"owner","type":"address","indexed":true,"internalType":"address"},{"name":"operator","type":"address","indexed":true,"internalType":"address"},{"name":"approved","type":"bool","indexed":false,"internalType":"bool"}],"anonymous":false},{"type":"event","name":"Banned","inputs":[{"name":"moderator","type":"address","indexed":true,"internalType":"address"},{"name":"tokenId","type":"uint256","indexed":true,"internalType":"uint256"}],"anonymous":false},{"type":"event","name":"ConsecutiveTransfer","inputs":[{"name":"fromTokenId","type":"uint256","indexed":true,"internalType":"uint256"},{"name":"toTokenId","type":"uint256","indexed":false,"internalType":"uint256"},{"name":"from","type":"address","indexed":true,"internalType":"address"},{"name":"to","type":"address","indexed":true,"internalType":"address"}],"anonymous":false},{"type":"event","name":"OwnershipTransferred","inputs":[{"name":"previousOwner","type":"address","indexed":true,"internalType":"address"},{"name":"newOwner","type":"address","indexed":true,"internalType":"address"}],"anonymous":false},{"type":"event","name":"Paused","inputs":[{"name":"account","type":"address","indexed":false,"internalType":"address"}],"anonymous":false},{"type":"event","name":"PermissionsAddedToChannelRole","inputs":[{"name":"updater","type":"address","indexed":true,"internalType":"address"},{"name":"roleId","type":"uint256","indexed":true,"internalType":"uint256"},{"name":"channelId","type":"bytes32","indexed":true,"internalType":"bytes32"}],"anonymous":false},{"type":"event","name":"PermissionsRemovedFromChannelRole","inputs":[{"name":"updater","type":"address","indexed":true,"internalType":"address"},{"name":"roleId","type":"uint256","indexed":true,"internalType":"uint256"},{"name":"channelId","type":"bytes32","indexed":true,"internalType":"bytes32"}],"anonymous":false},{"type":"event","name":"PermissionsUpdatedForChannelRole","inputs":[{"name":"updater","type":"address","indexed":true,"internalType":"address"},{"name":"roleId","type":"uint256","indexed":true,"internalType":"uint256"},{"name":"channelId","type":"bytes32","indexed":true,"internalType":"bytes32"}],"anonymous":false},{"type":"event","name":"RoleCreated","inputs":[{"name":"creator","type":"address","indexed":true,"internalType":"address"},{"name":"roleId","type":"uint256","indexed":true,"internalType":"uint256"}],"anonymous":false},{"type":"event","name":"RoleRemoved","inputs":[{"name":"remover","type":"address","indexed":true,"internalType":"address"},{"name":"roleId","type":"uint256","indexed":true,"internalType":"uint256"}],"anonymous":false},{"type":"event","name":"RoleUpdated","inputs":[{"name":"updater","type":"address","indexed":true,"internalType":"address"},{"name":"roleId","type":"uint256","indexed":true,"internalType":"uint256"}],"anonymous":false},{"type":"event","name":"SubscriptionUpdate","inputs":[{"name":"tokenId","type":"uint256","indexed":true,"internalType":"uint256"},{"name":"expiration","type":"uint64","indexed":false,"internalType":"uint64"}],"anonymous":false},{"type":"event","name":"Transfer","inputs":[{"name":"from","type":"address","indexed":true,"internalType":"address"},{"name":"to","type":"address","indexed":true,"internalType":"address"},{"name":"tokenId","type":"uint256","indexed":true,"internalType":"uint256"}],"anonymous":false},{"type":"event","name":"Unbanned","inputs":[{"name":"moderator","type":"address","indexed":true,"internalType":"address"},{"name":"tokenId","type":"uint256","indexed":true,"internalType":"uint256"}],"anonymous":false},{"type":"event","name":"Unpaused","inputs":[{"name":"account","type":"address","indexed":false,"internalType":"address"}],"anonymous":false},{"type":"error","name":"ApprovalCallerNotOwnerNorApproved","inputs":[]},{"type":"error","name":"ApprovalQueryForNonexistentToken","inputs":[]},{"type":"error","name":"BalanceQueryForZeroAddress","inputs":[]},{"type":"error","name":"Banning__AlreadyBanned","inputs":[{"name":"tokenId","type":"uint256","internalType":"uint256"}]},{"type":"error","name":"Banning__CannotBanOwner","inputs":[]},{"type":"error","name":"Banning__CannotBanSelf","inputs":[]},{"type":"error","name":"Banning__InvalidTokenId","inputs":[{"name":"tokenId","type":"uint256","internalType":"uint256"}]},{"type":"error","name":"Banning__NotBanned","inputs":[{"name":"tokenId","type":"uint256","internalType":"uint256"}]},{"type":"error","name":"ChannelService__ChannelDisabled","inputs":[]},{"type":"error","name":"ChannelService__ChannelDoesNotExist","inputs":[]},{"type":"error","name":"ChannelService__RoleDoesNotExist","inputs":[]},{"type":"error","name":"ERC5643__DurationZero","inputs":[]},{"type":"error","name":"ERC5643__InvalidTokenId","inputs":[{"name":"tokenId","type":"uint256","internalType":"uint256"}]},{"type":"error","name":"ERC5643__NotApprovedOrOwner","inputs":[]},{"type":"error","name":"ERC5643__SubscriptionNotRenewable","inputs":[{"name":"tokenId","type":"uint256","internalType":"uint256"}]},{"type":"error","name":"Entitlement__InvalidValue","inputs":[]},{"type":"error","name":"Entitlement__NotAllowed","inputs":[]},{"type":"error","name":"Entitlement__NotMember","inputs":[]},{"type":"error","name":"Entitlement__ValueAlreadyExists","inputs":[]},{"type":"error","name":"EntitlementsService__EntitlementDoesNotExist","inputs":[]},{"type":"error","name":"EntitlementsService__InvalidEntitlementAddress","inputs":[]},{"type":"error","name":"EntitlementsService__InvalidEntitlementInterface","inputs":[]},{"type":"error","name":"MintERC2309QuantityExceedsLimit","inputs":[]},{"type":"error","name":"MintToZeroAddress","inputs":[]},{"type":"error","name":"MintZeroQuantity","inputs":[]},{"type":"error","name":"Ownable__NotOwner","inputs":[{"name":"account","type":"address","internalType":"address"}]},{"type":"error","name":"Ownable__ZeroAddress","inputs":[]},{"type":"error","name":"OwnerQueryForNonexistentToken","inputs":[]},{"type":"error","name":"OwnershipNotInitializedForExtraData","inputs":[]},{"type":"error","name":"Pausable__NotPaused","inputs":[]},{"type":"error","name":"Pausable__Paused","inputs":[]},{"type":"error","name":"Roles__EntitlementAlreadyExists","inputs":[]},{"type":"error","name":"Roles__EntitlementDoesNotExist","inputs":[]},{"type":"error","name":"Roles__InvalidEntitlementAddress","inputs":[]},{"type":"error","name":"Roles__InvalidPermission","inputs":[]},{"type":"error","name":"Roles__PermissionAlreadyExists","inputs":[]},{"type":"error","name":"Roles__PermissionDoesNotExist","inputs":[]},{"type":"error","name":"Roles__RoleDoesNotExist","inputs":[]},{"type":"error","name":"TransferCallerNotOwnerNorApproved","inputs":[]},{"type":"error","name":"TransferFromIncorrectOwner","inputs":[]},{"type":"error","name":"TransferToNonERC721ReceiverImplementer","inputs":[]},{"type":"error","name":"TransferToZeroAddress","inputs":[]},{"type":"error","name":"URIQueryForNonexistentToken","inputs":[]},{"type":"error","name":"Validator__InvalidByteLength","inputs":[]},{"type":"error","name":"Validator__InvalidStringLength","inputs":[]}],"bytecode":{"object":"0x608060405234801561001057600080fd5b5061354b806100206000396000f3fe608060405234801561001057600080fd5b50600436106100cf5760003560e01c80639a8e4c3e1161008c578063ba201ba811610066578063ba201ba8146101b4578063bd9af74a146101c7578063d2dea2b9146101da578063dba81864146101ed57600080fd5b80639a8e4c3e1461017b578063b42642331461018e578063b7515761146101a157600080fd5b80634d8b50a2146100d457806365634a48146100e95780637106139814610112578063784c872b146101275780638fcd793d146101475780639269182114610168575b600080fd5b6100e76100e2366004612c7f565b610200565b005b6100fc6100f7366004612d16565b610240565b6040516101099190612d88565b60405180910390f35b61011a610255565b6040516101099190612edb565b61013a610135366004612f32565b610264565b6040516101099190612f4b565b61015a610155366004612f5e565b6102aa565b604051908152602001610109565b6100e7610176366004612f32565b6102ed565b6100e7610189366004612feb565b610325565b6100fc61019c366004612f32565b61035f565b6100e76101af366004612feb565b61036a565b6100e76101c2366004613031565b6103a0565b6100e76101d536600461306d565b6103d6565b6100e76101e8366004612d16565b610412565b6100e76101fb366004613031565b610448565b61022c60405180604001604052806013815260200160008051602061350b83398151915281525061047e565b61023985858585856104a6565b5050505050565b606061024c83836107ac565b90505b92915050565b606061025f610801565b905090565b6102986040518060a00160405280600081526020016060815260200160001515815260200160608152602001606081525090565b6102a182610943565b61024f8261098a565b60006102d860405180604001604052806013815260200160008051602061350b83398151915281525061047e565b6102e485858585610a03565b95945050505050565b61031960405180604001604052806013815260200160008051602061350b83398151915281525061047e565b61032281610be6565b50565b61035160405180604001604052806013815260200160008051602061350b83398151915281525061047e565b61035b8282610e53565b5050565b606061024f82610f33565b61039660405180604001604052806013815260200160008051602061350b83398151915281525061047e565b61035b8282610f47565b6103cc60405180604001604052806013815260200160008051602061350b83398151915281525061047e565b61035b828261102f565b61040260405180604001604052806013815260200160008051602061350b83398151915281525061047e565b61040d838383611064565b505050565b61043e60405180604001604052806013815260200160008051602061350b83398151915281525061047e565b61035b82826111e1565b61047460405180604001604052806013815260200160008051602061350b83398151915281525061047e565b61035b82826112c5565b6104896000826112f3565b61032257604051630ce39a4b60e21b815260040160405180910390fd5b6104af85610943565b60006104ba86611377565b80518351919250906000816001600160401b038111156104dc576104dc6129fa565b604051908082528060200260200182016040528015610505578160200160208202803683370190505b50905060005b82811015610598576000868281518110610527576105276130bc565b602002602001015160000151905061053e81611439565b61054781611502565b868281518110610559576105596130bc565b602002602001015160000151838381518110610577576105776130bc565b6001600160a01b03909216602092830291909101909101525060010161050b565b5086156105c757600089815260008051602061352b833981519152602052604090206105c5888a8361314e565b505b85511561060d57600089815260008051602061352b833981519152602052604081206105f59060020161156a565b90506106018a82610e53565b61060b8a88610f47565b505b8160000361061e5750505050610239565b80511561069757805160005b8481101561065d576106558b878381518110610648576106486130bc565b6020026020010151611575565b60010161062a565b5060005b818110156106945761068c8b84838151811061067f5761067f6130bc565b60200260200101516115cd565b600101610661565b50505b60005b838110156106cd576106c58582815181106106b7576106b76130bc565b60200260200101518b611620565b60010161069a565b5060005b828110156107735760008682815181106106ed576106ed6130bc565b60200260200101516020015151111561076b57610726868281518110610715576107156130bc565b602002602001015160200151611687565b61076b86828151811061073b5761073b6130bc565b6020026020010151600001518b88848151811061075a5761075a6130bc565b6020026020010151602001516116a9565b6001016106d1565b50604051899033907f1aff41ff8e9139aae6bb355cc69107cda7e1d1dcd25511da436f3171bdbf77e690600090a3505050505050505050565b60606107b783610943565b6107c082611717565b60008381527f672ef851d5f92307da037116e23aa9e31af7e1f7e3ca62c4e6d540631df3fd0560209081526040808320858452909152902061024c9061156a565b6060600061080d61174c565b8051909150806001600160401b0381111561082a5761082a6129fa565b60405190808252806020026020018201604052801561088f57816020015b61087c6040518060a00160405280600081526020016060815260200160001515815260200160608152602001606081525090565b8152602001906001900390816108485790505b50925060005b8181101561093d576000806000806108c58786815181106108b8576108b86130bc565b6020026020010151611777565b93509350935093506040518060a001604052808887815181106108ea576108ea6130bc565b60200260200101518152602001858152602001841515815260200183815260200182815250888681518110610921576109216130bc565b6020026020010181905250848060010195505050505050610895565b50505090565b61096d7f672ef851d5f92307da037116e23aa9e31af7e1f7e3ca62c4e6d540631df3fd0182611875565b6103225760405163a3f70f7b60e01b815260040160405180910390fd5b6109be6040518060a00160405280600081526020016060815260200160001515815260200160608152602001606081525090565b6000806000806109cd86611777565b6040805160a0810182529a8b5260208b019490945291151592890192909252606088019190915260808701525093949350505050565b6000610a4785858080601f0160208091040260200160405190810160405280939291908181526020018383808284376000920191909152506002925061188d915050565b81516000816001600160401b03811115610a6357610a636129fa565b604051908082528060200260200182016040528015610a8c578160200160208202803683370190505b509050610a976118b1565b925060005b82811015610b6b57610aca858281518110610ab957610ab96130bc565b602002602001015160000151611439565b848181518110610adc57610adc6130bc565b602002602001015160000151828281518110610afa57610afa6130bc565b60200260200101906001600160a01b031690816001600160a01b031681525050610b2f858281518110610715576107156130bc565b610b63858281518110610b4457610b446130bc565b6020026020010151600001518587848151811061075a5761075a6130bc565b600101610a9c565b50610bae87878080601f016020809104026020016040519081016040528093929190818152602001838380828437600092018290525092508991508590506118d7565b50604051839033907f20a7a288530dd94b1eccaa691a582ecfd7550c9dfcee78ddf50a97f774a2b14790600090a35050949350505050565b610bef81610943565b6000610bfa82611377565b80519091506000805160206134eb833981519152610c387f672ef851d5f92307da037116e23aa9e31af7e1f7e3ca62c4e6d540631df3fd0185611a00565b506000848152600382016020526040812090610c54828261290a565b60018201805460ff19169055600282016000610c708282612944565b50506004820160008181610c848282612962565b5050604080516020808201835260008083528b815260038901909152919091209450610cb59350915083905061320d565b506000848152600382016020526040812060018101805460ff19169055610cde90600201611a0c565b6000868152600384016020526040812091925090610cfe90600401611a0c565b905060005b82811015610d4e5760008781526003850160205260409020610d4590610d2c9060020183611a16565b6000898152600387016020526040902060020190611a22565b50600101610d03565b5060005b81811015610d9d5760008781526003850160205260409020610d9490610d7b9060040183611a2e565b6000898152600387016020526040902060040190611a3a565b50600101610d52565b506000610da987611a4f565b805190915060005b81811015610de457610ddc838281518110610dce57610dce6130bc565b60200260200101518a611b3b565b600101610db1565b5060005b86811015610e1b57610e13888281518110610e0557610e056130bc565b60200260200101518a611620565b600101610de8565b50604051889033907f268a6f1b90f6f5ddf50cc736d36513e80cdc5fd56326bff71f335e8b4b61d05590600090a35050505050505050565b610e5c82610943565b80516000805160206134eb8339815191529060005b8181101561023957610e9b848281518110610e8e57610e8e6130bc565b6020026020010151611bcb565b600085815260038401602052604090208451610edd90869084908110610ec357610ec36130bc565b602002602001015182600201611bec90919063ffffffff16565b610efa57604051633e2b026160e01b815260040160405180910390fd5b610f29858381518110610f0f57610f0f6130bc565b602002602001015182600201611a2290919063ffffffff16565b5050600101610e71565b6060610f3e82611777565b50949350505050565b610f5082610943565b80516000805160206134eb8339815191529060005b8181101561023957610f82848281518110610e8e57610e8e6130bc565b610fc5848281518110610f9757610f976130bc565b6020026020010151846003016000888152602001908152602001600020600201611bec90919063ffffffff16565b15610fe35760405163b0ab682160e01b815260040160405180910390fd5b611026848281518110610ff857610ff86130bc565b6020026020010151846003016000888152602001908152602001600020600201611bf890919063ffffffff16565b50600101610f65565b61103882610943565b805161104390611502565b6110518282600001516115cd565b61035b81600001518383602001516116a9565b61106d82611717565b61107683610943565b60008381527f672ef851d5f92307da037116e23aa9e31af7e1f7e3ca62c4e6d540631df3fd04602052604090206000805160206134eb833981519152906110bd9084611c04565b50600084815260058201602090815260408083208684529091528120906110e382611a0c565b111561113d5760006110f48261156a565b805190915060005b8181101561113957611130838281518110611119576111196130bc565b602002602001015185611a2290919063ffffffff16565b506001016110fc565b5050505b825180156111a05760005b8181101561119a57611165858281518110610e8e57610e8e6130bc565b61119185828151811061117a5761117a6130bc565b602002602001015184611bf890919063ffffffff16565b50600101611148565b506111aa565b6111aa86866111e1565b6040518590879033907f38ef31503bf60258feeceab5e2c3778cf74be2a8fbcc150d209ca96cd3c9855390600090a4505050505050565b6111ea82610943565b6111f381611717565b60008281527f672ef851d5f92307da037116e23aa9e31af7e1f7e3ca62c4e6d540631df3fd056020908152604080832084845290915281206000805160206134eb833981519152916112448261156a565b805190915060005b8181101561127257611269838281518110611119576111196130bc565b5060010161124c565b506000868152600485016020526040902061128d9086611a00565b506040518590879033907f07439707c74b686d8e4d3f3226348eac82205e6dffd780ac4c555a4c2dc9d86c90600090a4505050505050565b6112ce82610943565b80516112d990611502565b6112e7828260000151611575565b805161035b9083611620565b600033806112ff611c10565b6001600160a01b0316148061136f57507fe17a067c7963a59b6dfd65d33b053fdbea1c56500e2aae4f976d9eda4da9eb005460ff1615801561136f575061136f84828560405160200161135291906132cc565b60405160208183030381529060405261136a906132e8565b611cd4565b949350505050565b600081815260008051602061352b833981519152602052604081206060916004909101906113a482611a0c565b90506000816001600160401b038111156113c0576113c06129fa565b6040519080825280602002602001820160405280156113e9578160200160208202803683370190505b50905060005b82811015610f3e5760006114038583611a2e565b905080838381518110611418576114186130bc565b6001600160a01b0390921660209283029190910190910152506001016113ef565b6001600160a01b03811661146057604051630706e15760e51b815260040160405180910390fd5b6040516301ffc9a760e01b8152637bc2cb4560e11b60048201526001600160a01b038216906301ffc9a790602401602060405180830381865afa9250505080156114c7575060408051601f3d908101601f191682019092526114c49181019061330c565b60015b6114e45760405163f58a5f2760e01b815260040160405180910390fd5b8061035b5760405163f58a5f2760e01b815260040160405180910390fd5b7fa558e822bd359dacbe30f0da89cbfde5f95895b441e13a4864caec1423c9310061154d7fa558e822bd359dacbe30f0da89cbfde5f95895b441e13a4864caec1423c9310183611f4f565b61035b5760405163017ab33760e71b815260040160405180910390fd5b606061024f82611f71565b600082815260008051602061352b8339815191526020526040902061159d6004820183611f4f565b6115ba57604051632405297d60e11b815260040160405180910390fd5b6115c76004820183611a3a565b50505050565b600082815260008051602061352b833981519152602052604090206115f56004820183611f4f565b156116135760405163fb5584f160e01b815260040160405180910390fd5b6115c7600482018361204e565b61162982611502565b60405163f0c111f960e01b8152600481018290526001600160a01b0383169063f0c111f990602401600060405180830381600087803b15801561166b57600080fd5b505af115801561167f573d6000803e3d6000fd5b505050505050565b8051600003610322576040516319c6193b60e31b815260040160405180910390fd5b6116b283611502565b604051633be2f95d60e21b81526001600160a01b0384169063ef8be574906116e0908590859060040161332e565b600060405180830381600087803b1580156116fa57600080fd5b505af115801561170e573d6000803e3d6000fd5b50505050505050565b61172f6000805160206134cb83398151915282611875565b6103225760405163560b4b4160e11b815260040160405180910390fd5b606061025f7f672ef851d5f92307da037116e23aa9e31af7e1f7e3ca62c4e6d540631df3fd01612063565b600081815260008051602061352b83398151915260205260408120805460609291839182916000805160206134eb833981519152916117b5906130d2565b80601f01602080910402602001604051908101604052809291908181526020018280546117e1906130d2565b801561182e5780601f106118035761010080835404028352916020019161182e565b820191906000526020600020905b81548152906001019060200180831161181157829003601f168201915b50505060008981526003850160205260409020600181015493985060ff909316965061186092600201915061156a9050565b925061186b86611377565b9150509193509193565b6000818152600183016020526040812054151561024c565b8151829082111561040d576040516374eb20a760e01b815260040160405180910390fd5b6000805160206134eb8339815191528054600091906118d190600161335d565b91505090565b6000805160206134eb833981519152805460009190819083906118f990613370565b9182905550915061190d6001820183611c04565b5060008281526003820160205260409020611928878261320d565b5060008281526003820160205260409020600101805460ff19168615151790556119528285610f47565b60005b83518110156119f65760006001600160a01b031684828151811061197b5761197b6130bc565b60200260200101516001600160a01b0316036119aa57604051637442429b60e01b815260040160405180910390fd5b6119ed8482815181106119bf576119bf6130bc565b602002602001015183600301600086815260200190815260200160002060040161204e90919063ffffffff16565b50600101611955565b5050949350505050565b600061024c8383612070565b600061024f825490565b606061024c8383612163565b600061024c8383612215565b600061024c83836123ca565b600061024c836001600160a01b038416612070565b60606000805160206134cb8339815191526000611a6b82611a0c565b90506000816001600160401b03811115611a8757611a876129fa565b604051908082528060200260200182016040528015611ab0578160200160208202803683370190505b50935060005b82811015611b20576000611aca8583611a2e565b60008181526003870160205260409020909150611ae79088611875565b15611b1757808684611af881613370565b955081518110611b0a57611b0a6130bc565b6020026020010181815250505b50600101611ab6565b5080821115611b33578351818303900384525b505050919050565b611b4482611717565b611b4d826123f4565b60008281527f804ad633258ac9b908ae115a2763b3f6e04be3b1165402c872b25af518504303602052604090206000805160206134cb83398151915290611b949083611875565b611bb1576040516333cb039f60e11b815260040160405180910390fd5b600083815260038201602052604090206115c79083611a00565b80516000036103225760405162ce76c160e41b815260040160405180910390fd5b600061024c8383612456565b600061024c8383612483565b600061024c83836124e5565b6040805180820182527fd2f24d4f172e4e84e48e7c4125b6e904c29e5eba33ad4938fee51dd5dbd4b600546001600160a01b03168082527fd2f24d4f172e4e84e48e7c4125b6e904c29e5eba33ad4938fee51dd5dbd4b60154602080840182905284516331a9108f60e11b815260048101929092529351600094636352211e92602480820193918290030181865afa158015611cb0573d6000803e3d6000fd5b505050506040513d601f19601f820116820180604052508101906118d19190613389565b600080611cdf611c10565b90506000611cec8561252c565b80519091506000611cfb6127ad565b805190915060005b83811015611dba576000858281518110611d1f57611d1f6130bc565b60200260200101519050866001600160a01b0316816001600160a01b031603611d52576001975050505050505050611f48565b60005b83811015611db057816001600160a01b0316611d89868381518110611d7c57611d7c6130bc565b60200260200101516127d8565b6001600160a01b031603611da857600098505050505050505050611f48565b600101611d55565b5050600101611d03565b507fa558e822bd359dacbe30f0da89cbfde5f95895b441e13a4864caec1423c931006000611e077fa558e822bd359dacbe30f0da89cbfde5f95895b441e13a4864caec1423c93101611a0c565b905060005b81811015611f3b5760008381611e256001830185611a2e565b6001600160a01b0390811682526020808301939093526040918201600020548251630b86d87960e21b81529251911693508392632e1b61e492600480820193918290030181865afa158015611e7e573d6000803e3d6000fd5b505050506040513d601f19601f82011682018060405250810190611ea2919061330c565b158015611f1b5750806001600160a01b0316630cf0b5338e8a8e6040518463ffffffff1660e01b8152600401611eda939291906133a6565b602060405180830381865afa158015611ef7573d6000803e3d6000fd5b505050506040513d601f19601f82011682018060405250810190611f1b919061330c565b15611f325760019950505050505050505050611f48565b50600101611e0c565b5060009750505050505050505b9392505050565b6001600160a01b0381166000908152600183016020526040812054151561024c565b606081600001805480602002602001604051908101604052809291908181526020016000905b82821015612043578382906000526020600020018054611fb6906130d2565b80601f0160208091040260200160405190810160405280929190818152602001828054611fe2906130d2565b801561202f5780601f106120045761010080835404028352916020019161202f565b820191906000526020600020905b81548152906001019060200180831161201257829003601f168201915b505050505081526020019060010190611f97565b505050509050919050565b600061024c836001600160a01b0384166124e5565b60606000611f48836127e3565b60008181526001830160205260408120548015612159576000612094600183613408565b85549091506000906120a890600190613408565b905080821461210d5760008660000182815481106120c8576120c86130bc565b90600052602060002001549050808760000184815481106120eb576120eb6130bc565b6000918252602080832090910192909255918252600188019052604090208390555b855486908061211e5761211e61341b565b60019003818190600052602060002001600090559055856001016000868152602001908152602001600020600090556001935050505061024f565b600091505061024f565b606082600001828154811061217a5761217a6130bc565b90600052602060002001805461218f906130d2565b80601f01602080910402602001604051908101604052809291908181526020018280546121bb906130d2565b80156122085780601f106121dd57610100808354040283529160200191612208565b820191906000526020600020905b8154815290600101906020018083116121eb57829003601f168201915b5050505050905092915050565b600080836001018360405161222a91906132cc565b908152602001604051809103902054905080600014612159576000612250600183613408565b855490915060009061226490600190613408565b905081811461236b576000866000018281548110612284576122846130bc565b906000526020600020018054612299906130d2565b80601f01602080910402602001604051908101604052809291908181526020018280546122c5906130d2565b80156123125780601f106122e757610100808354040283529160200191612312565b820191906000526020600020905b8154815290600101906020018083116122f557829003601f168201915b505050505090508087600001848154811061232f5761232f6130bc565b906000526020600020019081612345919061320d565b5083876001018260405161235991906132cc565b90815260405190819003602001902055505b855486908061237c5761237c61341b565b600190038181906000526020600020016000612398919061290a565b905585600101856040516123ac91906132cc565b9081526020016040518091039020600090556001935050505061024f565b60008260000182815481106123e1576123e16130bc565b9060005260206000200154905092915050565b60008181527f804ad633258ac9b908ae115a2763b3f6e04be3b1165402c872b25af51850430260205260409020600101546000805160206134cb8339815191529060ff161561035b57604051636ce0028960e11b815260040160405180910390fd5b6000826001018260405161246a91906132cc565b9081526040519081900360200190205415159392505050565b600061248f8383612456565b6124dd578254600181018455600084815260209020016124af838261320d565b50825460405160018501906124c59085906132cc565b9081526040519081900360200190205550600161024f565b50600061024f565b60008181526001830160205260408120546124dd5750815460018181018455600084815260208082209093018490558454848252828601909352604090209190915561024f565b606060007fc21004fcc619240a31f006438274d15cd813308303284436eef6055f0fdcb6006006015460405162468b7360e31b81526001600160a01b038581166004830152909116915060009082906302345b9890602401600060405180830381865afa1580156125a1573d6000803e3d6000fd5b505050506040513d6000823e601f3d908101601f191682016040526125c99190810190613431565b604051631f04207360e31b81526001600160a01b03868116600483015291925060009184169063f821039890602401602060405180830381865afa158015612615573d6000803e3d6000fd5b505050506040513d601f19601f820116820180604052508101906126399190613389565b90508151600014801561265457506001600160a01b03811615155b156126ce5760405162468b7360e31b81526001600160a01b03808316600483015291955085918416906302345b9890602401600060405180830381865afa1580156126a3573d6000803e3d6000fd5b505050506040513d6000823e601f3d908101601f191682016040526126cb9190810190613431565b91505b815160006126dd82600161335d565b6001600160401b038111156126f4576126f46129fa565b60405190808252806020026020018201604052801561271d578160200160208202803683370190505b50905060005b828110156127775784818151811061273d5761273d6130bc565b6020026020010151828281518110612757576127576130bc565b6001600160a01b0390921660209283029190910190910152600101612723565b508681838151811061278b5761278b6130bc565b6001600160a01b03909216602092830291909101909101529695505050505050565b606061025f7f49daf035076c43671ca9f9fb568d931e51ab7f9098a5a694781b45341112cf00612063565b600061024f8261283f565b60608160000180548060200260200160405190810160405280929190818152602001828054801561283357602002820191906000526020600020905b81548152602001906001019080831161281f575b50505050509050919050565b60008181527f6569bde4a160c636ea8b8d11acb83a60d7fec0b8f2e09389306cba0e1340df046020526040812054907f6569bde4a160c636ea8b8d11acb83a60d7fec0b8f2e09389306cba0e1340df0090600160e01b831690036128f057816000036128ea57805483106128c657604051636f96cda160e11b815260040160405180910390fd5b5b6000199092016000818152600484016020526040902054909290915081156128c7575b50919050565b50604051636f96cda160e11b815260040160405180910390fd5b508054612916906130d2565b6000825580601f10612926575050565b601f016020900490600052602060002090810190610322919061297c565b50805460008255906000526020600020908101906103229190612995565b508054600082559060005260206000209081019061032291905b5b80821115612991576000815560010161297d565b5090565b808211156129915760006129a9828261290a565b50600101612995565b60008083601f8401126129c457600080fd5b5081356001600160401b038111156129db57600080fd5b6020830191508360208285010111156129f357600080fd5b9250929050565b634e487b7160e01b600052604160045260246000fd5b604051601f8201601f191681016001600160401b0381118282101715612a3857612a386129fa565b604052919050565b60006001600160401b03821115612a5957612a596129fa565b5060051b60200190565b60006001600160401b03831115612a7c57612a7c6129fa565b612a8f601f8401601f1916602001612a10565b9050828152838383011115612aa357600080fd5b828260208301376000602084830101529392505050565b600082601f830112612acb57600080fd5b81356020612ae0612adb83612a40565b612a10565b82815260059290921b84018101918181019086841115612aff57600080fd5b8286015b84811015612b535780356001600160401b03811115612b225760008081fd5b8701603f81018913612b345760008081fd5b612b45898683013560408401612a63565b845250918301918301612b03565b509695505050505050565b6001600160a01b038116811461032257600080fd5b600060408284031215612b8557600080fd5b604051604081016001600160401b038282108183111715612ba857612ba86129fa565b8160405282935084359150612bbc82612b5e565b90825260208401359080821115612bd257600080fd5b508301601f81018513612be457600080fd5b612bf385823560208401612a63565b6020830152505092915050565b600082601f830112612c1157600080fd5b81356020612c21612adb83612a40565b82815260059290921b84018101918181019086841115612c4057600080fd5b8286015b84811015612b535780356001600160401b03811115612c635760008081fd5b612c718986838b0101612b73565b845250918301918301612c44565b600080600080600060808688031215612c9757600080fd5b8535945060208601356001600160401b0380821115612cb557600080fd5b612cc189838a016129b2565b90965094506040880135915080821115612cda57600080fd5b612ce689838a01612aba565b93506060880135915080821115612cfc57600080fd5b50612d0988828901612c00565b9150509295509295909350565b60008060408385031215612d2957600080fd5b50508035926020909101359150565b60005b83811015612d53578181015183820152602001612d3b565b50506000910152565b60008151808452612d74816020860160208601612d38565b601f01601f19169290920160200192915050565b600060208083016020845280855180835260408601915060408160051b87010192506020870160005b82811015612ddf57603f19888603018452612dcd858351612d5c565b94509285019290850190600101612db1565b5092979650505050505050565b60008151808452602080850194506020840160005b83811015612e265781516001600160a01b031687529582019590820190600101612e01565b509495945050505050565b80518252600060208083015160a082860152612e5060a0860182612d5c565b9050604084015115156040860152606084015185820360608701528181518084528484019150848160051b850101858401935060005b82811015612eb457601f19868303018452612ea2828651612d5c565b94870194938701939150600101612e86565b506080880151955088810360808a0152612ece8187612dec565b9998505050505050505050565b600060208083016020845280855180835260408601915060408160051b87010192506020870160005b82811015612ddf57603f19888603018452612f20858351612e31565b94509285019290850190600101612f04565b600060208284031215612f4457600080fd5b5035919050565b60208152600061024c6020830184612e31565b60008060008060608587031215612f7457600080fd5b84356001600160401b0380821115612f8b57600080fd5b612f97888389016129b2565b90965094506020870135915080821115612fb057600080fd5b612fbc88838901612aba565b93506040870135915080821115612fd257600080fd5b50612fdf87828801612c00565b91505092959194509250565b60008060408385031215612ffe57600080fd5b8235915060208301356001600160401b0381111561301b57600080fd5b61302785828601612aba565b9150509250929050565b6000806040838503121561304457600080fd5b8235915060208301356001600160401b0381111561306157600080fd5b61302785828601612b73565b60008060006060848603121561308257600080fd5b833592506020840135915060408401356001600160401b038111156130a657600080fd5b6130b286828701612aba565b9150509250925092565b634e487b7160e01b600052603260045260246000fd5b600181811c908216806130e657607f821691505b6020821081036128ea57634e487b7160e01b600052602260045260246000fd5b601f82111561040d576000816000526020600020601f850160051c8101602086101561312f5750805b601f850160051c820191505b8181101561167f5782815560010161313b565b6001600160401b03831115613165576131656129fa565b6131798361317383546130d2565b83613106565b6000601f8411600181146131ad57600085156131955750838201355b600019600387901b1c1916600186901b178355610239565b600083815260209020601f19861690835b828110156131de57868501358255602094850194600190920191016131be565b50868210156131fb5760001960f88860031b161c19848701351681555b505060018560011b0183555050505050565b81516001600160401b03811115613226576132266129fa565b61323a8161323484546130d2565b84613106565b602080601f83116001811461326f57600084156132575750858301515b600019600386901b1c1916600185901b17855561167f565b600085815260208120601f198616915b8281101561329e5788860151825594840194600190910190840161327f565b50858210156132bc5787850151600019600388901b60f8161c191681555b5050505050600190811b01905550565b600082516132de818460208701612d38565b9190910192915050565b805160208083015191908110156128ea5760001960209190910360031b1b16919050565b60006020828403121561331e57600080fd5b81518015158114611f4857600080fd5b82815260406020820152600061136f6040830184612d5c565b634e487b7160e01b600052601160045260246000fd5b8082018082111561024f5761024f613347565b60006001820161338257613382613347565b5060010190565b60006020828403121561339b57600080fd5b8151611f4881612b5e565b60006060820185835260206060602085015281865180845260808601915060208801935060005b818110156133f25784516001600160a01b0316835293830193918301916001016133cd565b5050809350505050826040830152949350505050565b8181038181111561024f5761024f613347565b634e487b7160e01b600052603160045260246000fd5b6000602080838503121561344457600080fd5b82516001600160401b0381111561345a57600080fd5b8301601f8101851361346b57600080fd5b8051613479612adb82612a40565b81815260059190911b8201830190838101908783111561349857600080fd5b928401925b828410156134bf5783516134b081612b5e565b8252928401929084019061349d565b97965050505050505056fe804ad633258ac9b908ae115a2763b3f6e04be3b1165402c872b25af518504300672ef851d5f92307da037116e23aa9e31af7e1f7e3ca62c4e6d540631df3fd004d6f64696679537061636553657474696e677300000000000000000000000000672ef851d5f92307da037116e23aa9e31af7e1f7e3ca62c4e6d540631df3fd03","linkReferences":{}},"methodIdentifiers":{"addPermissionsToRole(uint256,string[])":"b7515761","addRoleToEntitlement(uint256,(address,bytes))":"ba201ba8","clearChannelPermissionOverrides(uint256,bytes32)":"d2dea2b9","createRole(string,string[],(address,bytes)[])":"8fcd793d","getChannelPermissionOverrides(uint256,bytes32)":"65634a48","getPermissionsByRoleId(uint256)":"b4264233","getRoleById(uint256)":"784c872b","getRoles()":"71061398","removePermissionsFromRole(uint256,string[])":"9a8e4c3e","removeRole(uint256)":"92691821","removeRoleFromEntitlement(uint256,(address,bytes))":"dba81864","setChannelPermissionOverrides(uint256,bytes32,string[])":"bd9af74a","updateRole(uint256,string,string[],(address,bytes)[])":"4d8b50a2"},"id":287}