{"abi":[{"type":"function","name":"CLOCK_MODE","inputs":[],"outputs":[{"name":"","type":"string","internalType":"string"}],"stateMutability":"view"},{"type":"function","name":"DOMAIN_SEPARATOR","inputs":[],"outputs":[{"name":"result","type":"bytes32","internalType":"bytes32"}],"stateMutability":"view"},{"type":"function","name":"__ERC721A_init","inputs":[{"name":"name_","type":"string","internalType":"string"},{"name":"symbol_","type":"string","internalType":"string"}],"outputs":[],"stateMutability":"nonpayable"},{"type":"function","name":"__SpaceOwner_init","inputs":[{"name":"name","type":"string","internalType":"string"},{"name":"symbol","type":"string","internalType":"string"},{"name":"version","type":"string","internalType":"string"}],"outputs":[],"stateMutability":"nonpayable"},{"type":"function","name":"approve","inputs":[{"name":"to","type":"address","internalType":"address"},{"name":"tokenId","type":"uint256","internalType":"uint256"}],"outputs":[],"stateMutability":"payable"},{"type":"function","name":"balanceOf","inputs":[{"name":"owner","type":"address","internalType":"address"}],"outputs":[{"name":"","type":"uint256","internalType":"uint256"}],"stateMutability":"view"},{"type":"function","name":"clock","inputs":[],"outputs":[{"name":"","type":"uint48","internalType":"uint48"}],"stateMutability":"view"},{"type":"function","name":"delegate","inputs":[{"name":"delegatee","type":"address","internalType":"address"}],"outputs":[],"stateMutability":"nonpayable"},{"type":"function","name":"delegateBySig","inputs":[{"name":"delegatee","type":"address","internalType":"address"},{"name":"nonce","type":"uint256","internalType":"uint256"},{"name":"expiry","type":"uint256","internalType":"uint256"},{"name":"v","type":"uint8","internalType":"uint8"},{"name":"r","type":"bytes32","internalType":"bytes32"},{"name":"s","type":"bytes32","internalType":"bytes32"}],"outputs":[],"stateMutability":"nonpayable"},{"type":"function","name":"delegates","inputs":[{"name":"account","type":"address","internalType":"address"}],"outputs":[{"name":"","type":"address","internalType":"address"}],"stateMutability":"view"},{"type":"function","name":"eip712Domain","inputs":[],"outputs":[{"name":"fields","type":"bytes1","internalType":"bytes1"},{"name":"name","type":"string","internalType":"string"},{"name":"version","type":"string","internalType":"string"},{"name":"chainId","type":"uint256","internalType":"uint256"},{"name":"verifyingContract","type":"address","internalType":"address"},{"name":"salt","type":"bytes32","internalType":"bytes32"},{"name":"extensions","type":"uint256[]","internalType":"uint256[]"}],"stateMutability":"view"},{"type":"function","name":"getApproved","inputs":[{"name":"tokenId","type":"uint256","internalType":"uint256"}],"outputs":[{"name":"","type":"address","internalType":"address"}],"stateMutability":"view"},{"type":"function","name":"getDefaultUri","inputs":[],"outputs":[{"name":"","type":"string","internalType":"string"}],"stateMutability":"view"},{"type":"function","name":"getFactory","inputs":[],"outputs":[{"name":"","type":"address","internalType":"address"}],"stateMutability":"view"},{"type":"function","name":"getPastTotalSupply","inputs":[{"name":"timepoint","type":"uint256","internalType":"uint256"}],"outputs":[{"name":"","type":"uint256","internalType":"uint256"}],"stateMutability":"view"},{"type":"function","name":"getPastVotes","inputs":[{"name":"account","type":"address","internalType":"address"},{"name":"timepoint","type":"uint256","internalType":"uint256"}],"outputs":[{"name":"","type":"uint256","internalType":"uint256"}],"stateMutability":"view"},{"type":"function","name":"getSpaceByTokenId","inputs":[{"name":"tokenId","type":"uint256","internalType":"uint256"}],"outputs":[{"name":"","type":"address","internalType":"address"}],"stateMutability":"view"},{"type":"function","name":"getSpaceInfo","inputs":[{"name":"space","type":"address","internalType":"address"}],"outputs":[{"name":"","type":"tuple","internalType":"struct ISpaceOwnerBase.Space","components":[{"name":"name","type":"string","internalType":"string"},{"name":"uri","type":"string","internalType":"string"},{"name":"tokenId","type":"uint256","internalType":"uint256"},{"name":"createdAt","type":"uint256","internalType":"uint256"},{"name":"shortDescription","type":"string","internalType":"string"},{"name":"longDescription","type":"string","internalType":"string"}]}],"stateMutability":"view"},{"type":"function","name":"getVotes","inputs":[{"name":"account","type":"address","internalType":"address"}],"outputs":[{"name":"","type":"uint256","internalType":"uint256"}],"stateMutability":"view"},{"type":"function","name":"isApprovedForAll","inputs":[{"name":"owner","type":"address","internalType":"address"},{"name":"operator","type":"address","internalType":"address"}],"outputs":[{"name":"","type":"bool","internalType":"bool"}],"stateMutability":"view"},{"type":"function","name":"mintSpace","inputs":[{"name":"name","type":"string","internalType":"string"},{"name":"uri","type":"string","internalType":"string"},{"name":"space","type":"address","internalType":"address"},{"name":"shortDescription","type":"string","internalType":"string"},{"name":"longDescription","type":"string","internalType":"string"}],"outputs":[{"name":"tokenId","type":"uint256","internalType":"uint256"}],"stateMutability":"nonpayable"},{"type":"function","name":"name","inputs":[],"outputs":[{"name":"","type":"string","internalType":"string"}],"stateMutability":"view"},{"type":"function","name":"nextTokenId","inputs":[],"outputs":[{"name":"","type":"uint256","internalType":"uint256"}],"stateMutability":"view"},{"type":"function","name":"nonces","inputs":[{"name":"owner","type":"address","internalType":"address"}],"outputs":[{"name":"result","type":"uint256","internalType":"uint256"}],"stateMutability":"view"},{"type":"function","name":"ownerOf","inputs":[{"name":"tokenId","type":"uint256","internalType":"uint256"}],"outputs":[{"name":"","type":"address","internalType":"address"}],"stateMutability":"view"},{"type":"function","name":"safeTransferFrom","inputs":[{"name":"from","type":"address","internalType":"address"},{"name":"to","type":"address","internalType":"address"},{"name":"tokenId","type":"uint256","internalType":"uint256"}],"outputs":[],"stateMutability":"payable"},{"type":"function","name":"safeTransferFrom","inputs":[{"name":"from","type":"address","internalType":"address"},{"name":"to","type":"address","internalType":"address"},{"name":"tokenId","type":"uint256","internalType":"uint256"},{"name":"_data","type":"bytes","internalType":"bytes"}],"outputs":[],"stateMutability":"payable"},{"type":"function","name":"setApprovalForAll","inputs":[{"name":"operator","type":"address","internalType":"address"},{"name":"approved","type":"bool","internalType":"bool"}],"outputs":[],"stateMutability":"nonpayable"},{"type":"function","name":"setDefaultUri","inputs":[{"name":"uri","type":"string","internalType":"string"}],"outputs":[],"stateMutability":"nonpayable"},{"type":"function","name":"setFactory","inputs":[{"name":"factory","type":"address","internalType":"address"}],"outputs":[],"stateMutability":"nonpayable"},{"type":"function","name":"symbol","inputs":[],"outputs":[{"name":"","type":"string","internalType":"string"}],"stateMutability":"view"},{"type":"function","name":"tokenURI","inputs":[{"name":"tokenId","type":"uint256","internalType":"uint256"}],"outputs":[{"name":"","type":"string","internalType":"string"}],"stateMutability":"view"},{"type":"function","name":"totalSupply","inputs":[],"outputs":[{"name":"","type":"uint256","internalType":"uint256"}],"stateMutability":"view"},{"type":"function","name":"transferFrom","inputs":[{"name":"from","type":"address","internalType":"address"},{"name":"to","type":"address","internalType":"address"},{"name":"tokenId","type":"uint256","internalType":"uint256"}],"outputs":[],"stateMutability":"payable"},{"type":"function","name":"updateSpaceInfo","inputs":[{"name":"space","type":"address","internalType":"address"},{"name":"name","type":"string","internalType":"string"},{"name":"uri","type":"string","internalType":"string"},{"name":"shortDescription","type":"string","internalType":"string"},{"name":"longDescription","type":"string","internalType":"string"}],"outputs":[],"stateMutability":"nonpayable"},{"type":"event","name":"Approval","inputs":[{"name":"owner","type":"address","indexed":true,"internalType":"address"},{"name":"approved","type":"address","indexed":true,"internalType":"address"},{"name":"tokenId","type":"uint256","indexed":true,"internalType":"uint256"}],"anonymous":false},{"type":"event","name":"ApprovalForAll","inputs":[{"name":"owner","type":"address","indexed":true,"internalType":"address"},{"name":"operator","type":"address","indexed":true,"internalType":"address"},{"name":"approved","type":"bool","indexed":false,"internalType":"bool"}],"anonymous":false},{"type":"event","name":"ConsecutiveTransfer","inputs":[{"name":"fromTokenId","type":"uint256","indexed":true,"internalType":"uint256"},{"name":"toTokenId","type":"uint256","indexed":false,"internalType":"uint256"},{"name":"from","type":"address","indexed":true,"internalType":"address"},{"name":"to","type":"address","indexed":true,"internalType":"address"}],"anonymous":false},{"type":"event","name":"DelegateChanged","inputs":[{"name":"delegator","type":"address","indexed":true,"internalType":"address"},{"name":"fromDelegate","type":"address","indexed":true,"internalType":"address"},{"name":"toDelegate","type":"address","indexed":true,"internalType":"address"}],"anonymous":false},{"type":"event","name":"DelegateVotesChanged","inputs":[{"name":"delegate","type":"address","indexed":true,"internalType":"address"},{"name":"previousBalance","type":"uint256","indexed":false,"internalType":"uint256"},{"name":"newBalance","type":"uint256","indexed":false,"internalType":"uint256"}],"anonymous":false},{"type":"event","name":"EIP712DomainChanged","inputs":[],"anonymous":false},{"type":"event","name":"GuardianDefaultCooldownUpdated","inputs":[{"name":"cooldown","type":"uint256","indexed":true,"internalType":"uint256"}],"anonymous":false},{"type":"event","name":"GuardianUpdated","inputs":[{"name":"caller","type":"address","indexed":true,"internalType":"address"},{"name":"enabled","type":"bool","indexed":true,"internalType":"bool"},{"name":"cooldown","type":"uint256","indexed":false,"internalType":"uint256"},{"name":"timestamp","type":"uint256","indexed":false,"internalType":"uint256"}],"anonymous":false},{"type":"event","name":"Initialized","inputs":[{"name":"version","type":"uint32","indexed":false,"internalType":"uint32"}],"anonymous":false},{"type":"event","name":"InterfaceAdded","inputs":[{"name":"interfaceId","type":"bytes4","indexed":true,"internalType":"bytes4"}],"anonymous":false},{"type":"event","name":"InterfaceRemoved","inputs":[{"name":"interfaceId","type":"bytes4","indexed":true,"internalType":"bytes4"}],"anonymous":false},{"type":"event","name":"OwnershipTransferred","inputs":[{"name":"previousOwner","type":"address","indexed":true,"internalType":"address"},{"name":"newOwner","type":"address","indexed":true,"internalType":"address"}],"anonymous":false},{"type":"event","name":"SpaceOwner__SetDefaultUri","inputs":[{"name":"uri","type":"string","indexed":false,"internalType":"string"}],"anonymous":false},{"type":"event","name":"SpaceOwner__SetFactory","inputs":[{"name":"factory","type":"address","indexed":false,"internalType":"address"}],"anonymous":false},{"type":"event","name":"SpaceOwner__UpdateSpace","inputs":[{"name":"space","type":"address","indexed":true,"internalType":"address"}],"anonymous":false},{"type":"event","name":"Transfer","inputs":[{"name":"from","type":"address","indexed":true,"internalType":"address"},{"name":"to","type":"address","indexed":true,"internalType":"address"},{"name":"tokenId","type":"uint256","indexed":true,"internalType":"uint256"}],"anonymous":false},{"type":"error","name":"ApprovalCallerNotOwnerNorApproved","inputs":[]},{"type":"error","name":"ApprovalQueryForNonexistentToken","inputs":[]},{"type":"error","name":"BalanceQueryForZeroAddress","inputs":[]},{"type":"error","name":"ECDSAInvalidSignature","inputs":[]},{"type":"error","name":"ECDSAInvalidSignatureLength","inputs":[{"name":"length","type":"uint256","internalType":"uint256"}]},{"type":"error","name":"ECDSAInvalidSignatureS","inputs":[{"name":"s","type":"bytes32","internalType":"bytes32"}]},{"type":"error","name":"Guardian_AlreadyDisabled","inputs":[]},{"type":"error","name":"Guardian_AlreadyEnabled","inputs":[]},{"type":"error","name":"Guardian_Enabled","inputs":[]},{"type":"error","name":"Initializable_AlreadyInitialized","inputs":[{"name":"version","type":"uint32","internalType":"uint32"}]},{"type":"error","name":"Initializable_InInitializingState","inputs":[]},{"type":"error","name":"Initializable_NotInInitializingState","inputs":[]},{"type":"error","name":"Introspection_AlreadySupported","inputs":[]},{"type":"error","name":"Introspection_NotSupported","inputs":[]},{"type":"error","name":"InvalidAccountNonce","inputs":[{"name":"account","type":"address","internalType":"address"},{"name":"currentNonce","type":"uint256","internalType":"uint256"}]},{"type":"error","name":"MintERC2309QuantityExceedsLimit","inputs":[]},{"type":"error","name":"MintToZeroAddress","inputs":[]},{"type":"error","name":"MintZeroQuantity","inputs":[]},{"type":"error","name":"Ownable__NotOwner","inputs":[{"name":"account","type":"address","internalType":"address"}]},{"type":"error","name":"Ownable__ZeroAddress","inputs":[]},{"type":"error","name":"OwnerQueryForNonexistentToken","inputs":[]},{"type":"error","name":"OwnershipNotInitializedForExtraData","inputs":[]},{"type":"error","name":"SafeCastOverflowedUintDowncast","inputs":[{"name":"bits","type":"uint8","internalType":"uint8"},{"name":"value","type":"uint256","internalType":"uint256"}]},{"type":"error","name":"SpaceOwner__DefaultUriNotSet","inputs":[]},{"type":"error","name":"SpaceOwner__OnlyFactoryAllowed","inputs":[]},{"type":"error","name":"SpaceOwner__OnlySpaceOwnerAllowed","inputs":[]},{"type":"error","name":"SpaceOwner__SpaceNotFound","inputs":[]},{"type":"error","name":"TransferCallerNotOwnerNorApproved","inputs":[]},{"type":"error","name":"TransferFromIncorrectOwner","inputs":[]},{"type":"error","name":"TransferToNonERC721ReceiverImplementer","inputs":[]},{"type":"error","name":"TransferToZeroAddress","inputs":[]},{"type":"error","name":"URIQueryForNonexistentToken","inputs":[]},{"type":"error","name":"Validator__InvalidAddress","inputs":[]},{"type":"error","name":"Validator__InvalidStringLength","inputs":[]}],"bytecode":{"object":"0x60806040523480156200001157600080fd5b506200001c62000022565b620000ca565b7f59b501c3653afc186af7d48dda36cf6732bd21629a6295693664240a6ef520008054640100000000900460ff16156200006f576040516366008a2d60e01b815260040160405180910390fd5b805463ffffffff9081161015620000c757805463ffffffff191663ffffffff90811782556040519081527fe9c9b456cb2994b80aeef036cf59d26e9617df80f816a6ee5a5b4166e07e2f5c9060200160405180910390a15b50565b613b7c80620000da6000396000f3fe6080604052600436106102045760003560e01c806370a08231116101185780639ab24eb0116100a0578063c87b56dd1161006f578063c87b56dd146105a7578063d2f01f19146105c7578063d6536540146105e7578063d7a901d3146105fc578063e985e9c51461061c57600080fd5b80639ab24eb014610534578063a22cb46514610554578063b88d4fde14610574578063c3cda5201461058757600080fd5b806384b0196e116100e757806384b0196e1461049657806388cc58e4146104be5780638e539e8c146104d357806391ddadf4146104f357806395d89b411461051f57600080fd5b806370a082311461042157806375794a3c146104415780637ecebe0014610456578063848806141461047657600080fd5b806342842e0e1161019b5780635bb478081161016a5780635bb47808146103745780635c19a95c146103945780636352211e146103b4578063673f0dd5146103d45780636a9a38e6146103f457600080fd5b806342842e0e1461030c578063466a18de1461031f5780634bf5d7e91461033f578063587cde1e1461035457600080fd5b806323b872dd116101d757806323b872dd146102a45780633644e515146102b75780633a46b1a8146102cc5780633bf5b8f4146102ec57600080fd5b806306fdde0314610209578063081812fc14610234578063095ea7b31461026c57806318160ddd14610281575b600080fd5b34801561021557600080fd5b5061021e61064c565b60405161022b91906131f0565b60405180910390f35b34801561024057600080fd5b5061025461024f366004613203565b6106e7565b6040516001600160a01b03909116815260200161022b565b61027f61027a366004613238565b6106f8565b005b34801561028d57600080fd5b50610296610740565b60405190815260200161022b565b61027f6102b2366004613262565b61074f565b3480156102c357600080fd5b5061029661095f565b3480156102d857600080fd5b506102966102e7366004613238565b610969565b3480156102f857600080fd5b5061029661030736600461334a565b61097c565b61027f61031a366004613262565b6109e8565b34801561032b57600080fd5b5061027f61033a366004613408565b610a08565b34801561034b57600080fd5b5061021e610a65565b34801561036057600080fd5b5061025461036f36600461343d565b610a6f565b34801561038057600080fd5b5061027f61038f36600461343d565b610a7a565b3480156103a057600080fd5b5061027f6103af36600461343d565b610acf565b3480156103c057600080fd5b506102546103cf366004613203565b610ad9565b3480156103e057600080fd5b506102546103ef366004613203565b610ae4565b34801561040057600080fd5b5061041461040f36600461343d565b610b20565b60405161022b9190613458565b34801561042d57600080fd5b5061029661043c36600461343d565b610b62565b34801561044d57600080fd5b50610296610b6d565b34801561046257600080fd5b5061029661047136600461343d565b610b77565b34801561048257600080fd5b5061027f6104913660046134ea565b610bb4565b3480156104a257600080fd5b506104ab610bd1565b60405161022b9796959493929190613556565b3480156104ca57600080fd5b50610254610c94565b3480156104df57600080fd5b506102966104ee366004613203565b610cb5565b3480156104ff57600080fd5b50610508610cc0565b60405165ffffffffffff909116815260200161022b565b34801561052b57600080fd5b5061021e610cca565b34801561054057600080fd5b5061029661054f36600461343d565b610ce2565b34801561056057600080fd5b5061027f61056f3660046135ef565b610ced565b61027f61058236600461362b565b610d26565b34801561059357600080fd5b5061027f6105a23660046136a7565b610d70565b3480156105b357600080fd5b5061021e6105c2366004613203565b610d7e565b3480156105d357600080fd5b5061027f6105e2366004613707565b610daf565b3480156105f357600080fd5b5061021e610e02565b34801561060857600080fd5b5061027f61061736600461376b565b610e0c565b34801561062857600080fd5b5061063c6106373660046137f3565b610f08565b604051901515815260200161022b565b6060610656610f14565b600201805461066490613826565b80601f016020809104026020016040519081016040528092919081815260200182805461069090613826565b80156106dd5780601f106106b2576101008083540402835291602001916106dd565b820191906000526020600020905b8154815290600101906020018083116106c057829003601f168201915b5050505050905090565b60006106f282610f38565b92915050565b6001600160a01b03821615801590610714575061071433610f85565b1561073257604051630ed551c360e41b815260040160405180910390fd5b61073c828261101d565b5050565b600061074a611029565b905090565b600061075a82611048565b9050836001600160a01b0316816001600160a01b03161461078d5760405162a1148160e81b815260040160405180910390fd5b600080610799846110e3565b915091506107be81876107a93390565b6001600160a01b039081169116811491141790565b6107e9576107cc8633610f08565b6107e957604051632ce44b5f60e11b815260040160405180910390fd5b6001600160a01b03851661081057604051633a954ecd60e21b815260040160405180910390fd5b61081d868686600161110b565b801561082857600082555b610830610f14565b6001600160a01b038716600090815260059190910160205260409020805460001901905561085c610f14565b6001600160a01b03861660008181526005929092016020526040909120805460010190554260a01b17600160e11b17610893610f14565b60008681526004919091016020526040812091909155600160e11b8416900361090957600184016108c2610f14565b600082815260049190910160205260408120549003610907576108e3610f14565b54811461090757836108f3610f14565b600083815260049190910160205260409020555b505b83856001600160a01b0316876001600160a01b03167fddf252ad1be2c89b69c2b068fc378daa952ba7f163c4a11628f55a4df523b3ef60405160405180910390a4610957868686600161114a565b505050505050565b600061074a611155565b6000610975838361115f565b9392505050565b600080600080516020613b1c83398151915280549091506001600160a01b031633146109bb5760405163443e750b60e11b815260040160405180910390fd5b6109c36111fd565b91506109d387878488888861120d565b6109de336001611364565b5095945050505050565b610a0383838360405180602001604052806000815250610d26565b505050565b7f4675fa8241f86f37157864d3d49b85ad4b164352c516da28e1678a90470ae300546001600160a01b03163314610a59576040516365f4906560e01b81523360048201526024015b60405180910390fd5b610a62816114b4565b50565b606061074a611525565b60006106f2826115bd565b7f4675fa8241f86f37157864d3d49b85ad4b164352c516da28e1678a90470ae300546001600160a01b03163314610ac6576040516365f4906560e01b8152336004820152602401610a50565b610a62816115fa565b610a623382611664565b60006106f282611048565b60008181527f7fc24c9500f4388b797f8975c0991ad4ffd0338c2cbf5335b2bf5b7fe574770160205260408120546001600160a01b03166106f2565b610b596040518060c001604052806060815260200160608152602001600081526020016000815260200160608152602001606081525090565b6106f2826116fe565b60006106f282611a09565b600061074a6111fd565b6001600160a01b03811660009081527fda5d6d87446d81938877f0ee239dac391146dd7466ea30567f72becf06773c0060205260408120546106f2565b610bbd85611a72565b610bca8585858585611aaf565b5050505050565b600060608082808083600080516020613b3c83398151915254158015610c1657507f3a497e775dc7c283402f0d3c39c5f0ea53870eb15ab2dddfde5a1162a84c336d54155b610c5a5760405162461bcd60e51b81526020600482015260156024820152741152540dcc4c8e88155b9a5b9a5d1a585b1a5e9959605a1b6044820152606401610a50565b610c62611b9a565b610c6a611bb0565b60408051600080825260208201909252600f60f81b9b939a50919850469750309650945092509050565b600061074a600080516020613b1c833981519152546001600160a01b031690565b60006106f282611bc6565b600061074a611c5f565b6060610cd4610f14565b600301805461066490613826565b60006106f282611c6a565b808015610cfe5750610cfe33610f85565b15610d1c57604051630ed551c360e41b815260040160405180910390fd5b61073c8282611c98565b610d3184848461074f565b6001600160a01b0383163b15610d6a57610d4d84848484611d15565b610d6a576040516368d2bf6b60e11b815260040160405180910390fd5b50505050565b610957868686868686611e01565b6060610d8982611eea565b610da657604051630a14c4b560e41b815260040160405180910390fd5b6106f282611f26565b7f59b501c3653afc186af7d48dda36cf6732bd21629a6295693664240a6ef5200054600160201b900460ff16610df857604051630ef4733760e31b815260040160405180910390fd5b61073c828261219f565b606061074a6121c9565b7f59b501c3653afc186af7d48dda36cf6732bd21629a6295693664240a6ef520008054600160201b900460ff161580610e4857303b1515610e57565b8154600163ffffffff90911610155b15610e80578154604051630a8ef77f60e31b815263ffffffff9091166004820152602401610a50565b815463ffffffff191660011782558015610ea757815464ff000000001916600160201b1782555b610eb1858561219f565b610ebb85846121e8565b8015610bca57815464ff0000000019168255604051600181527fe9c9b456cb2994b80aeef036cf59d26e9617df80f816a6ee5a5b4166e07e2f5c9060200160405180910390a15050505050565b6000610975838361223b565b7f6569bde4a160c636ea8b8d11acb83a60d7fec0b8f2e09389306cba0e1340df0090565b6000610f4382611eea565b610f60576040516333d1c03960e21b815260040160405180910390fd5b610f68610f14565b60009283526006016020525060409020546001600160a01b031690565b6000807f0c89d3aad1b583c77a2e9f9fffa651b386c9c29e300bf2a8e2f3de1bb0100a0090506001600160a01b038316600080516020613b1c833981519152546001600160a01b03161480159061097557506001600160a01b0383166000908152600182016020526040902054158061097557506001600160a01b038316600090815260018201602052604090205442109392505050565b61073c82826001612278565b600080611034610f14565b60010154611040610f14565b540303919050565b600080611053610f14565b60008481526004820160205260408120549350909150600160e01b831690036110c957816000036110c3578054831061109f57604051636f96cda160e11b815260040160405180910390fd5b5b6000199092016000818152600484016020526040902054909290915081156110a0575b50919050565b50604051636f96cda160e11b815260040160405180910390fd5b60008060006110f0610f14565b60009485526006016020525050604090912080549092909150565b6001600160a01b03841615801590611127575061112784610f85565b1561114557604051630ed551c360e41b815260040160405180910390fd5b610d6a565b61114584848361232d565b600061074a6123cf565b6000611169611c5f565b65ffffffffffff1682106111b65760405162461bcd60e51b81526020600482015260146024820152730566f7465733a20667574757265206c6f6f6b75760641b6044820152606401610a50565b6111ed6111c283612443565b6001600160a01b0385166000908152600080516020613b5c8339815191526020526040902090612478565b6001600160e01b03169392505050565b6000611207610f14565b54919050565b61121886600261252c565b61122385600061252c565b61122c83612550565b60008481527f7fc24c9500f4388b797f8975c0991ad4ffd0338c2cbf5335b2bf5b7fe57477016020908152604080832080546001600160a01b0319166001600160a01b03881690811790915581516080810183528a81528084018a90528083018990524260608201529084527f7fc24c9500f4388b797f8975c0991ad4ffd0338c2cbf5335b2bf5b7fe57477029092529091208151600080516020613b1c83398151915292919081906112df90826138a2565b50602082015160018201906112f490826138a2565b5060408281015160028301556060909201516003918201558151808301835285815260208082018690526001600160a01b038816600090815292850190529190208151819061134390826138a2565b506020820151600182019061135890826138a2565b50505050505050505050565b600061136e610f14565b54905060008290036113935760405163b562e8dd60e01b815260040160405180910390fd5b6113a0600084838561110b565b6801000000000000000182026113b4610f14565b6001600160a01b038516600081815260059290920160205260409091208054929092019091554260a01b6001841460e11b17176113ef610f14565b600083815260049190910160205260408120919091556001600160a01b0384169083830190839083907fddf252ad1be2c89b69c2b068fc378daa952ba7f163c4a11628f55a4df523b3ef8180a4600183015b81811461147957808360007fddf252ad1be2c89b69c2b068fc378daa952ba7f163c4a11628f55a4df523b3ef600080a4600101611441565b508160000361149a57604051622e076360e81b815260040160405180910390fd5b806114a3610f14565b5550610a039050600084838561114a565b6114bf81600161252c565b7f7fc24c9500f4388b797f8975c0991ad4ffd0338c2cbf5335b2bf5b7fe57477046114ea82826138a2565b507f8fe3adc25723aa6a0b7eb4b4bacf52e92165c180bde5353f7cf606fbf5591f2b8160405161151a91906131f0565b60405180910390a150565b606043611530611c5f565b65ffffffffffff16146115855760405162461bcd60e51b815260206004820152601860248201527f566f7465733a2062726f6b656e20636c6f636b206d6f646500000000000000006044820152606401610a50565b5060408051808201909152601d81527f6d6f64653d626c6f636b6e756d6265722666726f6d3d64656661756c74000000602082015290565b6001600160a01b0390811660009081527f423fcc3514229d79a30fb79b40a232f70b3fabdf664a75db0859c67848497f6560205260409020541690565b61160381612550565b600080516020613b1c83398151915280546001600160a01b0383166001600160a01b03199091168117825560408051918252517f64c14256e532eac2ec90ddc4973ed2d3f5623faf7951d90eec38f9b7812f99a79181900360200190a15050565b600061166f836115bd565b6001600160a01b0384811660008181527f423fcc3514229d79a30fb79b40a232f70b3fabdf664a75db0859c67848497f65602052604080822080546001600160a01b031916888616908117909155905194955093928516927f3134e8a2e6d97e929a7e54011ea5485d7d196dd5f0ba4d4ef95803e8e3fc257f9190a4610a0381836116f986612577565b612582565b6117376040518060c001604052806060815260200160608152602001600081526020016000815260200160608152602001606081525090565b6001600160a01b03821660009081527f7fc24c9500f4388b797f8975c0991ad4ffd0338c2cbf5335b2bf5b7fe5747702602090815260408083207f7fc24c9500f4388b797f8975c0991ad4ffd0338c2cbf5335b2bf5b7fe574770390925291829020825160c08101909352815491929091819084906117b590613826565b80601f01602080910402602001604051908101604052809291908181526020018280546117e190613826565b801561182e5780601f106118035761010080835404028352916020019161182e565b820191906000526020600020905b81548152906001019060200180831161181157829003601f168201915b5050505050815260200183600101805461184790613826565b80601f016020809104026020016040519081016040528092919081815260200182805461187390613826565b80156118c05780601f10611895576101008083540402835291602001916118c0565b820191906000526020600020905b8154815290600101906020018083116118a357829003601f168201915b5050505050815260200183600201548152602001836003015481526020018260000180546118ed90613826565b80601f016020809104026020016040519081016040528092919081815260200182805461191990613826565b80156119665780601f1061193b57610100808354040283529160200191611966565b820191906000526020600020905b81548152906001019060200180831161194957829003601f168201915b5050505050815260200182600101805461197f90613826565b80601f01602080910402602001604051908101604052809291908181526020018280546119ab90613826565b80156119f85780601f106119cd576101008083540402835291602001916119f8565b820191906000526020600020905b8154815290600101906020018083116119db57829003601f168201915b505050505081525092505050919050565b60006001600160a01b038216611a32576040516323d3ad8160e21b815260040160405180910390fd5b67ffffffffffffffff611a43610f14565b6005016000846001600160a01b03166001600160a01b0316815260200190815260200160002054169050919050565b33611a88611a7f836116fe565b60400151610ad9565b6001600160a01b031614610a625760405163dbfcf17d60e01b815260040160405180910390fd5b611aba84600261252c565b611ac583600061252c565b6001600160a01b03851660009081527f7fc24c9500f4388b797f8975c0991ad4ffd0338c2cbf5335b2bf5b7fe574770260205260409020600080516020613b1c8339815191529080611b1787826138a2565b5060018101611b2686826138a2565b506001600160a01b0387166000908152600383016020526040902080611b4c86826138a2565b5060018101611b5b85826138a2565b506040516001600160a01b038916907f66da702131703ee5e745ecf2f5b98311caa00729edd55541baad49289fc42ed890600090a25050505050505050565b6060600080516020613b3c833981519152610656565b6060600080516020613b3c833981519152610cd4565b6000611bd0611c5f565b65ffffffffffff168210611c1d5760405162461bcd60e51b81526020600482015260146024820152730566f7465733a20667574757265206c6f6f6b75760641b6044820152606401610a50565b611c50611c2983612443565b7f423fcc3514229d79a30fb79b40a232f70b3fabdf664a75db0859c67848497f6790612478565b6001600160e01b031692915050565b600061074a43612703565b6001600160a01b0381166000908152600080516020613b5c83398151915260205260408120611c5090612736565b80611ca1610f14565b336000818152600792909201602090815260408084206001600160a01b03881680865290835293819020805460ff19169515159590951790945592518415158152919290917f17307eab39ab6107e8899845ad3d59bd9653f200f220920489ca2b5937696c31910160405180910390a35050565b604051630a85bd0160e11b81526000906001600160a01b0385169063150b7a0290611d4a903390899088908890600401613962565b6020604051808303816000875af1925050508015611d85575060408051601f3d908101601f19168201909252611d829181019061399f565b60015b611de3573d808015611db3576040519150601f19603f3d011682016040523d82523d6000602084013e611db8565b606091505b508051600003611ddb576040516368d2bf6b60e11b815260040160405180910390fd5b805181602001fd5b6001600160e01b031916630a85bd0160e11b1490505b949350505050565b83421115611e515760405162461bcd60e51b815260206004820152601860248201527f566f7465733a207369676e6174757265206578706972656400000000000000006044820152606401610a50565b604080517fe48329057bfd03d55e49b547132e39cffd9c1820ad7b9d4c5307691425d15adf60208201526001600160a01b038816918101919091526060810186905260808101859052600090611ecb90611ec39060a0016040516020818303038152906040528051906020012061276f565b85858561279c565b9050611ed781876127ca565b611ee18188611664565b50505050505050565b6000611ef4610f14565b54821080156106f25750600160e01b611f0b610f14565b60008481526004919091016020526040902054161592915050565b60008181527f7fc24c9500f4388b797f8975c0991ad4ffd0338c2cbf5335b2bf5b7fe57477016020526040902054606090600080516020613b1c833981519152906001600160a01b031680611f8e5760405163af5f208f60e01b815260040160405180910390fd5b6001600160a01b03811660009081526002830160205260409020600181018054611fb790613826565b15905061205557806001018054611fcd90613826565b80601f0160208091040260200160405190810160405280929190818152602001828054611ff990613826565b80156120465780601f1061201b57610100808354040283529160200191612046565b820191906000526020600020905b81548152906001019060200180831161202957829003601f168201915b50505050509350505050919050565b600083600401805461206690613826565b80601f016020809104026020016040519081016040528092919081815260200182805461209290613826565b80156120df5780601f106120b4576101008083540402835291602001916120df565b820191906000526020600020905b8154815290600101906020018083116120c257829003601f168201915b505050505090506000815190508060000361210d5760405163cd251ac560e01b815260040160405180910390fd5b816001820381518110612122576121226139c9565b6020910101516001600160f81b031916602f60f81b1461217b578161214f856001600160a01b031661283c565b6040516020016121609291906139df565b60405160208183030381529060405295505050505050919050565b8161218e856001600160a01b031661283c565b604051602001612160929190613a1b565b6121af6380ac58cd60e01b6128e5565b6121bf635b5e139f60e01b6128e5565b61073c82826129be565b6060600080516020613b1c833981519152600401805461066490613826565b7f59b501c3653afc186af7d48dda36cf6732bd21629a6295693664240a6ef5200054600160201b900460ff1661223157604051630ef4733760e31b815260040160405180910390fd5b61073c82826129f0565b6000612245610f14565b6001600160a01b039384166000908152600791909101602090815260408083209490951682529290925250205460ff1690565b600061228383610ad9565b905081156122c257336001600160a01b038216146122c2576122a5813361223b565b6122c2576040516367d9dca160e11b815260040160405180910390fd5b836122cb610f14565b6000858152600691909101602052604080822080546001600160a01b0319166001600160a01b0394851617905551859287811692908516917f8c5be1e5ebec7d5bd14f71427d1e84f3dd0314c0f7b2291e5b200ac8c7c3b9259190a450505050565b6001600160a01b038316612373576123707f423fcc3514229d79a30fb79b40a232f70b3fabdf664a75db0859c67848497f67612a8261236b84612a8e565b612ac2565b50505b6001600160a01b0382166123b4576123b17f423fcc3514229d79a30fb79b40a232f70b3fabdf664a75db0859c67848497f67612b0b61236b84612a8e565b50505b610a036123c0846115bd565b6123c9846115bd565b83612582565b60007f8b73c3c69bb8fe3d512ecc4cf759cc79239f7b179b0ffacaa9a75d522b39400f6123fa612b17565b612402612b7d565b60408051602081019490945283019190915260608201524660808201523060a082015260c00160405160208183030381529060405280519060200120905090565b600063ffffffff821115612474576040516306dfcc6560e41b81526020600482015260248101839052604401610a50565b5090565b8154600090818160058111156124d557600061249384612bcd565b61249d9085613a60565b60008881526020902090915081015463ffffffff90811690871610156124c5578091506124d3565b6124d0816001613a73565b92505b505b60006124e387878585612cb5565b9050801561251e57612508876124fa600184613a60565b600091825260209091200190565b54600160201b90046001600160e01b0316612521565b60005b979650505050505050565b81518290821115610a03576040516374eb20a760e01b815260040160405180910390fd5b6001600160a01b038116610a62576040516302e47d1560e41b815260040160405180910390fd5b60006106f282610b62565b816001600160a01b0316836001600160a01b0316141580156125a45750600081115b15610a03576001600160a01b03831615612654576001600160a01b0383166000908152600080516020613b5c8339815191526020526040812081906125ef90612b0b61236b86612a8e565b6001600160e01b031691506001600160e01b03169150846001600160a01b03167fdec2bacdd2f05b59de34da9b523dff8be42e5e38e818c82fdb0bae774387a7248383604051612649929190918252602082015260400190565b60405180910390a250505b6001600160a01b03821615610a03576001600160a01b0382166000908152600080516020613b5c83398151915260205260408120819061269a90612a8261236b86612a8e565b6001600160e01b031691506001600160e01b03169150836001600160a01b03167fdec2bacdd2f05b59de34da9b523dff8be42e5e38e818c82fdb0bae774387a72483836040516126f4929190918252602082015260400190565b60405180910390a25050505050565b600065ffffffffffff821115612474576040516306dfcc6560e41b81526030600482015260248101839052604401610a50565b8054600090801561276657612750836124fa600184613a60565b54600160201b90046001600160e01b0316610975565b60009392505050565b60006106f261277c611155565b8360405161190160f01b8152600281019290925260228201526042902090565b6000806000806127ae88888888612d13565b9250925092506127be8282612de2565b50909695505050505050565b6001600160a01b03821660009081527fda5d6d87446d81938877f0ee239dac391146dd7466ea30567f72becf06773c0060205260409020805460018101909155818114610a03576040516301d4b62360e61b81526001600160a01b038416600482015260248101829052604401610a50565b606061284782612e9b565b6028602282019081209192507f4040404040404040404040404040404040404040404040404040404040404040917f888888888888888888888888888888888888888888888888888888888888888016601160f31b60005b82811a82028180015260018101906012190161289f57505050818151166000511660011c8151188152602081019050818151166020511660011c81511881525050919050565b6001600160e01b0319811660009081527f81088bbc801e045ea3e7620779ab349988f58afbdfba10dff983df3f33522b00602052604090205460ff1661296d576001600160e01b0319811660009081527f81088bbc801e045ea3e7620779ab349988f58afbdfba10dff983df3f33522b0060205260409020805460ff19166001179055612986565b604051637967f77d60e11b815260040160405180910390fd5b6040516001600160e01b03198216907f78f84e5b1c5c05be2b5ad3800781dd404d6d6c6302bc755c0fe20f58a33a7f2290600090a250565b60006129c8610f14565b9050600281016129d884826138a2565b50600381016129e783826138a2565b50600090555050565b7f3a497e775dc7c283402f0d3c39c5f0ea53870eb15ab2dddfde5a1162a84c336e612a1b83826138a2565b507f3a497e775dc7c283402f0d3c39c5f0ea53870eb15ab2dddfde5a1162a84c336f612a4782826138a2565b50506000600080516020613b3c8339815191528190557f3a497e775dc7c283402f0d3c39c5f0ea53870eb15ab2dddfde5a1162a84c336d5550565b60006109758284613a86565b60006001600160e01b03821115612474576040516306dfcc6560e41b815260e0600482015260248101839052604401610a50565b600080612afe612ae0612ad3611c5f565b65ffffffffffff16612443565b612af6612aec88612736565b868863ffffffff16565b879190612ebf565b915091505b935093915050565b60006109758284613aad565b600080612b22611b9a565b805190915015612b39578051602090910120919050565b600080516020613b3c833981519152548015612b555792915050565b7fc5d2460186f7233c927e7db2dcc703c0e500b653ca82273b7bfad8045d85a4709250505090565b600080612b88611bb0565b805190915015612b9f578051602090910120919050565b7f3a497e775dc7c283402f0d3c39c5f0ea53870eb15ab2dddfde5a1162a84c336d548015612b555792915050565b600081600003612bdf57506000919050565b60006001612bec84612ecd565b901c6001901b90506001818481612c0557612c05613acd565b048201901c90506001818481612c1d57612c1d613acd565b048201901c90506001818481612c3557612c35613acd565b048201901c90506001818481612c4d57612c4d613acd565b048201901c90506001818481612c6557612c65613acd565b048201901c90506001818481612c7d57612c7d613acd565b048201901c90506001818481612c9557612c95613acd565b048201901c905061097581828581612caf57612caf613acd565b04612f61565b60005b81831015612d0b576000612ccc8484612f77565b60008781526020902090915063ffffffff86169082015463ffffffff161115612cf757809250612d05565b612d02816001613a73565b93505b50612cb8565b509392505050565b600080807f7fffffffffffffffffffffffffffffff5d576e7357a4501ddfe92f46681b20a0841115612d4e5750600091506003905082612dd8565b604080516000808252602082018084528a905260ff891692820192909252606081018790526080810186905260019060a0016020604051602081039080840390855afa158015612da2573d6000803e3d6000fd5b5050604051601f1901519150506001600160a01b038116612dce57506000925060019150829050612dd8565b9250600091508190505b9450945094915050565b6000826003811115612df657612df6613ae3565b03612dff575050565b6001826003811115612e1357612e13613ae3565b03612e315760405163f645eedf60e01b815260040160405180910390fd5b6002826003811115612e4557612e45613ae3565b03612e665760405163fce698f760e01b815260048101829052602401610a50565b6003826003811115612e7a57612e7a613ae3565b0361073c576040516335e2f38360e21b815260048101829052602401610a50565b6060612ea682612f92565b8051613078825260020160011990910190815292915050565b600080612afe858585613001565b600080608083901c15612ee257608092831c92015b604083901c15612ef457604092831c92015b602083901c15612f0657602092831c92015b601083901c15612f1857601092831c92015b600883901c15612f2a57600892831c92015b600483901c15612f3c57600492831c92015b600283901c15612f4e57600292831c92015b600183901c156106f25760010192915050565b6000818310612f705781610975565b5090919050565b6000612f866002848418613af9565b61097590848416613a73565b60606040519050608081016040526f30313233343536373839616263646566600f526002810190506028815260208101600060288201528260601b925060005b808101820184821a600f81165160018301538060041c5182535050600181019060121901612fd2575050919050565b82546000908190801561314757600061301f876124fa600185613a60565b60408051808201909152905463ffffffff808216808452600160201b9092046001600160e01b0316602084015291925090871610156130a05760405162461bcd60e51b815260206004820152601b60248201527f436865636b706f696e743a2064656372656173696e67206b65797300000000006044820152606401610a50565b805163ffffffff8088169116036130e857846130c1886124fa600186613a60565b80546001600160e01b0392909216600160201b0263ffffffff909216919091179055613137565b6040805180820190915263ffffffff80881682526001600160e01b0380881660208085019182528b54600181018d5560008d81529190912094519151909216600160201b029216919091179101555b602001519250839150612b039050565b50506040805180820190915263ffffffff80851682526001600160e01b0380851660208085019182528854600181018a5560008a815291822095519251909316600160201b029190931617920191909155905081612b03565b60005b838110156131bb5781810151838201526020016131a3565b50506000910152565b600081518084526131dc8160208601602086016131a0565b601f01601f19169290920160200192915050565b60208152600061097560208301846131c4565b60006020828403121561321557600080fd5b5035919050565b80356001600160a01b038116811461323357600080fd5b919050565b6000806040838503121561324b57600080fd5b6132548361321c565b946020939093013593505050565b60008060006060848603121561327757600080fd5b6132808461321c565b925061328e6020850161321c565b9150604084013590509250925092565b634e487b7160e01b600052604160045260246000fd5b600067ffffffffffffffff808411156132cf576132cf61329e565b604051601f8501601f19908116603f011681019082821181831017156132f7576132f761329e565b8160405280935085815286868601111561331057600080fd5b858560208301376000602087830101525050509392505050565b600082601f83011261333b57600080fd5b610975838335602085016132b4565b600080600080600060a0868803121561336257600080fd5b853567ffffffffffffffff8082111561337a57600080fd5b61338689838a0161332a565b9650602088013591508082111561339c57600080fd5b6133a889838a0161332a565b95506133b66040890161321c565b945060608801359150808211156133cc57600080fd5b6133d889838a0161332a565b935060808801359150808211156133ee57600080fd5b506133fb8882890161332a565b9150509295509295909350565b60006020828403121561341a57600080fd5b813567ffffffffffffffff81111561343157600080fd5b611df98482850161332a565b60006020828403121561344f57600080fd5b6109758261321c565b602081526000825160c0602084015261347460e08401826131c4565b90506020840151601f198085840301604086015261349283836131c4565b9250604086015160608601526060860151608086015260808601519150808584030160a08601526134c383836131c4565b925060a08601519150808584030160c0860152506134e182826131c4565b95945050505050565b600080600080600060a0868803121561350257600080fd5b61350b8661321c565b9450602086013567ffffffffffffffff8082111561352857600080fd5b61353489838a0161332a565b9550604088013591508082111561354a57600080fd5b6133b689838a0161332a565b60ff60f81b881681526000602060e0602084015261357760e084018a6131c4565b8381036040850152613589818a6131c4565b606085018990526001600160a01b038816608086015260a0850187905284810360c08601528551808252602080880193509091019060005b818110156135dd578351835292840192918401916001016135c1565b50909c9b505050505050505050505050565b6000806040838503121561360257600080fd5b61360b8361321c565b91506020830135801515811461362057600080fd5b809150509250929050565b6000806000806080858703121561364157600080fd5b61364a8561321c565b93506136586020860161321c565b925060408501359150606085013567ffffffffffffffff81111561367b57600080fd5b8501601f8101871361368c57600080fd5b61369b878235602084016132b4565b91505092959194509250565b60008060008060008060c087890312156136c057600080fd5b6136c98761321c565b95506020870135945060408701359350606087013560ff811681146136ed57600080fd5b9598949750929560808101359460a0909101359350915050565b6000806040838503121561371a57600080fd5b823567ffffffffffffffff8082111561373257600080fd5b61373e8683870161332a565b9350602085013591508082111561375457600080fd5b506137618582860161332a565b9150509250929050565b60008060006060848603121561378057600080fd5b833567ffffffffffffffff8082111561379857600080fd5b6137a48783880161332a565b945060208601359150808211156137ba57600080fd5b6137c68783880161332a565b935060408601359150808211156137dc57600080fd5b506137e98682870161332a565b9150509250925092565b6000806040838503121561380657600080fd5b61380f8361321c565b915061381d6020840161321c565b90509250929050565b600181811c9082168061383a57607f821691505b6020821081036110c357634e487b7160e01b600052602260045260246000fd5b601f821115610a03576000816000526020600020601f850160051c810160208610156138835750805b601f850160051c820191505b818110156109575782815560010161388f565b815167ffffffffffffffff8111156138bc576138bc61329e565b6138d0816138ca8454613826565b8461385a565b602080601f83116001811461390557600084156138ed5750858301515b600019600386901b1c1916600185901b178555610957565b600085815260208120601f198616915b8281101561393457888601518255948401946001909101908401613915565b50858210156139525787850151600019600388901b60f8161c191681555b5050505050600190811b01905550565b6001600160a01b0385811682528416602082015260408101839052608060608201819052600090613995908301846131c4565b9695505050505050565b6000602082840312156139b157600080fd5b81516001600160e01b03198116811461097557600080fd5b634e487b7160e01b600052603260045260246000fd5b600083516139f18184602088016131a0565b602f60f81b9083019081528351613a0f8160018401602088016131a0565b01600101949350505050565b60008351613a2d8184602088016131a0565b835190830190613a418183602088016131a0565b01949350505050565b634e487b7160e01b600052601160045260246000fd5b818103818111156106f2576106f2613a4a565b808201808211156106f2576106f2613a4a565b6001600160e01b03818116838216019080821115613aa657613aa6613a4a565b5092915050565b6001600160e01b03828116828216039080821115613aa657613aa6613a4a565b634e487b7160e01b600052601260045260246000fd5b634e487b7160e01b600052602160045260246000fd5b600082613b1657634e487b7160e01b600052601260045260246000fd5b50049056fe7fc24c9500f4388b797f8975c0991ad4ffd0338c2cbf5335b2bf5b7fe57477003a497e775dc7c283402f0d3c39c5f0ea53870eb15ab2dddfde5a1162a84c336c423fcc3514229d79a30fb79b40a232f70b3fabdf664a75db0859c67848497f66","linkReferences":{}},"methodIdentifiers":{"CLOCK_MODE()":"4bf5d7e9","DOMAIN_SEPARATOR()":"3644e515","__ERC721A_init(string,string)":"d2f01f19","__SpaceOwner_init(string,string,string)":"d7a901d3","approve(address,uint256)":"095ea7b3","balanceOf(address)":"70a08231","clock()":"91ddadf4","delegate(address)":"5c19a95c","delegateBySig(address,uint256,uint256,uint8,bytes32,bytes32)":"c3cda520","delegates(address)":"587cde1e","eip712Domain()":"84b0196e","getApproved(uint256)":"081812fc","getDefaultUri()":"d6536540","getFactory()":"88cc58e4","getPastTotalSupply(uint256)":"8e539e8c","getPastVotes(address,uint256)":"3a46b1a8","getSpaceByTokenId(uint256)":"673f0dd5","getSpaceInfo(address)":"6a9a38e6","getVotes(address)":"9ab24eb0","isApprovedForAll(address,address)":"e985e9c5","mintSpace(string,string,address,string,string)":"3bf5b8f4","name()":"06fdde03","nextTokenId()":"75794a3c","nonces(address)":"7ecebe00","ownerOf(uint256)":"6352211e","safeTransferFrom(address,address,uint256)":"42842e0e","safeTransferFrom(address,address,uint256,bytes)":"b88d4fde","setApprovalForAll(address,bool)":"a22cb465","setDefaultUri(string)":"466a18de","setFactory(address)":"5bb47808","symbol()":"95d89b41","tokenURI(uint256)":"c87b56dd","totalSupply()":"18160ddd","transferFrom(address,address,uint256)":"23b872dd","updateSpaceInfo(address,string,string,string,string)":"84880614"},"id":231}