{"abi":[{"type":"function","name":"CLOCK_MODE","inputs":[],"outputs":[{"name":"","type":"string","internalType":"string"}],"stateMutability":"view"},{"type":"function","name":"DOMAIN_SEPARATOR","inputs":[],"outputs":[{"name":"result","type":"bytes32","internalType":"bytes32"}],"stateMutability":"view"},{"type":"function","name":"__ERC721A_init","inputs":[{"name":"name_","type":"string","internalType":"string"},{"name":"symbol_","type":"string","internalType":"string"}],"outputs":[],"stateMutability":"nonpayable"},{"type":"function","name":"__SpaceOwner_init","inputs":[{"name":"name","type":"string","internalType":"string"},{"name":"symbol","type":"string","internalType":"string"},{"name":"version","type":"string","internalType":"string"}],"outputs":[],"stateMutability":"nonpayable"},{"type":"function","name":"approve","inputs":[{"name":"to","type":"address","internalType":"address"},{"name":"tokenId","type":"uint256","internalType":"uint256"}],"outputs":[],"stateMutability":"payable"},{"type":"function","name":"balanceOf","inputs":[{"name":"owner","type":"address","internalType":"address"}],"outputs":[{"name":"","type":"uint256","internalType":"uint256"}],"stateMutability":"view"},{"type":"function","name":"clock","inputs":[],"outputs":[{"name":"","type":"uint48","internalType":"uint48"}],"stateMutability":"view"},{"type":"function","name":"delegate","inputs":[{"name":"delegatee","type":"address","internalType":"address"}],"outputs":[],"stateMutability":"nonpayable"},{"type":"function","name":"delegateBySig","inputs":[{"name":"delegatee","type":"address","internalType":"address"},{"name":"nonce","type":"uint256","internalType":"uint256"},{"name":"expiry","type":"uint256","internalType":"uint256"},{"name":"v","type":"uint8","internalType":"uint8"},{"name":"r","type":"bytes32","internalType":"bytes32"},{"name":"s","type":"bytes32","internalType":"bytes32"}],"outputs":[],"stateMutability":"nonpayable"},{"type":"function","name":"delegates","inputs":[{"name":"account","type":"address","internalType":"address"}],"outputs":[{"name":"","type":"address","internalType":"address"}],"stateMutability":"view"},{"type":"function","name":"eip712Domain","inputs":[],"outputs":[{"name":"fields","type":"bytes1","internalType":"bytes1"},{"name":"name","type":"string","internalType":"string"},{"name":"version","type":"string","internalType":"string"},{"name":"chainId","type":"uint256","internalType":"uint256"},{"name":"verifyingContract","type":"address","internalType":"address"},{"name":"salt","type":"bytes32","internalType":"bytes32"},{"name":"extensions","type":"uint256[]","internalType":"uint256[]"}],"stateMutability":"view"},{"type":"function","name":"getApproved","inputs":[{"name":"tokenId","type":"uint256","internalType":"uint256"}],"outputs":[{"name":"","type":"address","internalType":"address"}],"stateMutability":"view"},{"type":"function","name":"getFactory","inputs":[],"outputs":[{"name":"","type":"address","internalType":"address"}],"stateMutability":"view"},{"type":"function","name":"getPastTotalSupply","inputs":[{"name":"timepoint","type":"uint256","internalType":"uint256"}],"outputs":[{"name":"","type":"uint256","internalType":"uint256"}],"stateMutability":"view"},{"type":"function","name":"getPastVotes","inputs":[{"name":"account","type":"address","internalType":"address"},{"name":"timepoint","type":"uint256","internalType":"uint256"}],"outputs":[{"name":"","type":"uint256","internalType":"uint256"}],"stateMutability":"view"},{"type":"function","name":"getSpaceInfo","inputs":[{"name":"space","type":"address","internalType":"address"}],"outputs":[{"name":"","type":"tuple","internalType":"struct ISpaceOwnerBase.Space","components":[{"name":"name","type":"string","internalType":"string"},{"name":"uri","type":"string","internalType":"string"},{"name":"tokenId","type":"uint256","internalType":"uint256"},{"name":"createdAt","type":"uint256","internalType":"uint256"},{"name":"shortDescription","type":"string","internalType":"string"},{"name":"longDescription","type":"string","internalType":"string"}]}],"stateMutability":"view"},{"type":"function","name":"getVotes","inputs":[{"name":"account","type":"address","internalType":"address"}],"outputs":[{"name":"","type":"uint256","internalType":"uint256"}],"stateMutability":"view"},{"type":"function","name":"isApprovedForAll","inputs":[{"name":"owner","type":"address","internalType":"address"},{"name":"operator","type":"address","internalType":"address"}],"outputs":[{"name":"","type":"bool","internalType":"bool"}],"stateMutability":"view"},{"type":"function","name":"mintSpace","inputs":[{"name":"name","type":"string","internalType":"string"},{"name":"uri","type":"string","internalType":"string"},{"name":"space","type":"address","internalType":"address"},{"name":"shortDescription","type":"string","internalType":"string"},{"name":"longDescription","type":"string","internalType":"string"}],"outputs":[{"name":"tokenId","type":"uint256","internalType":"uint256"}],"stateMutability":"nonpayable"},{"type":"function","name":"name","inputs":[],"outputs":[{"name":"","type":"string","internalType":"string"}],"stateMutability":"view"},{"type":"function","name":"nextTokenId","inputs":[],"outputs":[{"name":"","type":"uint256","internalType":"uint256"}],"stateMutability":"view"},{"type":"function","name":"nonces","inputs":[{"name":"owner","type":"address","internalType":"address"}],"outputs":[{"name":"result","type":"uint256","internalType":"uint256"}],"stateMutability":"view"},{"type":"function","name":"ownerOf","inputs":[{"name":"tokenId","type":"uint256","internalType":"uint256"}],"outputs":[{"name":"","type":"address","internalType":"address"}],"stateMutability":"view"},{"type":"function","name":"safeTransferFrom","inputs":[{"name":"from","type":"address","internalType":"address"},{"name":"to","type":"address","internalType":"address"},{"name":"tokenId","type":"uint256","internalType":"uint256"}],"outputs":[],"stateMutability":"payable"},{"type":"function","name":"safeTransferFrom","inputs":[{"name":"from","type":"address","internalType":"address"},{"name":"to","type":"address","internalType":"address"},{"name":"tokenId","type":"uint256","internalType":"uint256"},{"name":"_data","type":"bytes","internalType":"bytes"}],"outputs":[],"stateMutability":"payable"},{"type":"function","name":"setApprovalForAll","inputs":[{"name":"operator","type":"address","internalType":"address"},{"name":"approved","type":"bool","internalType":"bool"}],"outputs":[],"stateMutability":"nonpayable"},{"type":"function","name":"setFactory","inputs":[{"name":"factory","type":"address","internalType":"address"}],"outputs":[],"stateMutability":"nonpayable"},{"type":"function","name":"symbol","inputs":[],"outputs":[{"name":"","type":"string","internalType":"string"}],"stateMutability":"view"},{"type":"function","name":"tokenURI","inputs":[{"name":"tokenId","type":"uint256","internalType":"uint256"}],"outputs":[{"name":"","type":"string","internalType":"string"}],"stateMutability":"view"},{"type":"function","name":"totalSupply","inputs":[],"outputs":[{"name":"","type":"uint256","internalType":"uint256"}],"stateMutability":"view"},{"type":"function","name":"transferFrom","inputs":[{"name":"from","type":"address","internalType":"address"},{"name":"to","type":"address","internalType":"address"},{"name":"tokenId","type":"uint256","internalType":"uint256"}],"outputs":[],"stateMutability":"payable"},{"type":"function","name":"updateSpaceInfo","inputs":[{"name":"space","type":"address","internalType":"address"},{"name":"name","type":"string","internalType":"string"},{"name":"uri","type":"string","internalType":"string"},{"name":"shortDescription","type":"string","internalType":"string"},{"name":"longDescription","type":"string","internalType":"string"}],"outputs":[],"stateMutability":"nonpayable"},{"type":"event","name":"Approval","inputs":[{"name":"owner","type":"address","indexed":true,"internalType":"address"},{"name":"approved","type":"address","indexed":true,"internalType":"address"},{"name":"tokenId","type":"uint256","indexed":true,"internalType":"uint256"}],"anonymous":false},{"type":"event","name":"ApprovalForAll","inputs":[{"name":"owner","type":"address","indexed":true,"internalType":"address"},{"name":"operator","type":"address","indexed":true,"internalType":"address"},{"name":"approved","type":"bool","indexed":false,"internalType":"bool"}],"anonymous":false},{"type":"event","name":"ConsecutiveTransfer","inputs":[{"name":"fromTokenId","type":"uint256","indexed":true,"internalType":"uint256"},{"name":"toTokenId","type":"uint256","indexed":false,"internalType":"uint256"},{"name":"from","type":"address","indexed":true,"internalType":"address"},{"name":"to","type":"address","indexed":true,"internalType":"address"}],"anonymous":false},{"type":"event","name":"DelegateChanged","inputs":[{"name":"delegator","type":"address","indexed":true,"internalType":"address"},{"name":"fromDelegate","type":"address","indexed":true,"internalType":"address"},{"name":"toDelegate","type":"address","indexed":true,"internalType":"address"}],"anonymous":false},{"type":"event","name":"DelegateVotesChanged","inputs":[{"name":"delegate","type":"address","indexed":true,"internalType":"address"},{"name":"previousBalance","type":"uint256","indexed":false,"internalType":"uint256"},{"name":"newBalance","type":"uint256","indexed":false,"internalType":"uint256"}],"anonymous":false},{"type":"event","name":"EIP712DomainChanged","inputs":[],"anonymous":false},{"type":"event","name":"GuardianUpdated","inputs":[{"name":"caller","type":"address","indexed":true,"internalType":"address"},{"name":"enabled","type":"bool","indexed":true,"internalType":"bool"},{"name":"cooldown","type":"uint256","indexed":false,"internalType":"uint256"},{"name":"timestamp","type":"uint256","indexed":false,"internalType":"uint256"}],"anonymous":false},{"type":"event","name":"Initialized","inputs":[{"name":"version","type":"uint32","indexed":false,"internalType":"uint32"}],"anonymous":false},{"type":"event","name":"InterfaceAdded","inputs":[{"name":"interfaceId","type":"bytes4","indexed":true,"internalType":"bytes4"}],"anonymous":false},{"type":"event","name":"InterfaceRemoved","inputs":[{"name":"interfaceId","type":"bytes4","indexed":true,"internalType":"bytes4"}],"anonymous":false},{"type":"event","name":"OwnershipTransferred","inputs":[{"name":"previousOwner","type":"address","indexed":true,"internalType":"address"},{"name":"newOwner","type":"address","indexed":true,"internalType":"address"}],"anonymous":false},{"type":"event","name":"SpaceOwner__SetFactory","inputs":[{"name":"factory","type":"address","indexed":false,"internalType":"address"}],"anonymous":false},{"type":"event","name":"SpaceOwner__UpdateSpace","inputs":[{"name":"space","type":"address","indexed":true,"internalType":"address"}],"anonymous":false},{"type":"event","name":"Transfer","inputs":[{"name":"from","type":"address","indexed":true,"internalType":"address"},{"name":"to","type":"address","indexed":true,"internalType":"address"},{"name":"tokenId","type":"uint256","indexed":true,"internalType":"uint256"}],"anonymous":false},{"type":"error","name":"AlreadyDisabled","inputs":[]},{"type":"error","name":"AlreadyEnabled","inputs":[]},{"type":"error","name":"ApprovalCallerNotOwnerNorApproved","inputs":[]},{"type":"error","name":"ApprovalQueryForNonexistentToken","inputs":[]},{"type":"error","name":"BalanceQueryForZeroAddress","inputs":[]},{"type":"error","name":"ECDSAInvalidSignature","inputs":[]},{"type":"error","name":"ECDSAInvalidSignatureLength","inputs":[{"name":"length","type":"uint256","internalType":"uint256"}]},{"type":"error","name":"ECDSAInvalidSignatureS","inputs":[{"name":"s","type":"bytes32","internalType":"bytes32"}]},{"type":"error","name":"GuardianEnabled","inputs":[]},{"type":"error","name":"Initializable_AlreadyInitialized","inputs":[{"name":"version","type":"uint32","internalType":"uint32"}]},{"type":"error","name":"Initializable_InInitializingState","inputs":[]},{"type":"error","name":"Initializable_NotInInitializingState","inputs":[]},{"type":"error","name":"Introspection_AlreadySupported","inputs":[]},{"type":"error","name":"Introspection_NotSupported","inputs":[]},{"type":"error","name":"InvalidAccountNonce","inputs":[{"name":"account","type":"address","internalType":"address"},{"name":"currentNonce","type":"uint256","internalType":"uint256"}]},{"type":"error","name":"MintERC2309QuantityExceedsLimit","inputs":[]},{"type":"error","name":"MintToZeroAddress","inputs":[]},{"type":"error","name":"MintZeroQuantity","inputs":[]},{"type":"error","name":"NotExternalAccount","inputs":[]},{"type":"error","name":"Ownable__NotOwner","inputs":[{"name":"account","type":"address","internalType":"address"}]},{"type":"error","name":"Ownable__ZeroAddress","inputs":[]},{"type":"error","name":"OwnerQueryForNonexistentToken","inputs":[]},{"type":"error","name":"OwnershipNotInitializedForExtraData","inputs":[]},{"type":"error","name":"SafeCastOverflowedUintDowncast","inputs":[{"name":"bits","type":"uint8","internalType":"uint8"},{"name":"value","type":"uint256","internalType":"uint256"}]},{"type":"error","name":"SpaceOwner__OnlyFactoryAllowed","inputs":[]},{"type":"error","name":"SpaceOwner__OnlySpaceOwnerAllowed","inputs":[]},{"type":"error","name":"TransferCallerNotOwnerNorApproved","inputs":[]},{"type":"error","name":"TransferFromIncorrectOwner","inputs":[]},{"type":"error","name":"TransferToNonERC721ReceiverImplementer","inputs":[]},{"type":"error","name":"TransferToZeroAddress","inputs":[]},{"type":"error","name":"URIQueryForNonexistentToken","inputs":[]},{"type":"error","name":"Validator__InvalidAddress","inputs":[]},{"type":"error","name":"Validator__InvalidStringLength","inputs":[]}],"bytecode":{"object":"0x60806040523480156200001157600080fd5b506200001c62000022565b620000ca565b7f59b501c3653afc186af7d48dda36cf6732bd21629a6295693664240a6ef520008054640100000000900460ff16156200006f576040516366008a2d60e01b815260040160405180910390fd5b805463ffffffff9081161015620000c757805463ffffffff191663ffffffff90811782556040519081527fe9c9b456cb2994b80aeef036cf59d26e9617df80f816a6ee5a5b4166e07e2f5c9060200160405180910390a15b50565b613cab80620000da6000396000f3fe6080604052600436106101e35760003560e01c806375794a3c116101025780639ab24eb011610095578063c87b56dd11610064578063c87b56dd14610546578063d2f01f1914610566578063d7a901d314610586578063e985e9c5146105a657600080fd5b80639ab24eb0146104d3578063a22cb465146104f3578063b88d4fde14610513578063c3cda5201461052657600080fd5b806388cc58e4116100d157806388cc58e41461045d5780638e539e8c1461047257806391ddadf41461049257806395d89b41146104be57600080fd5b806375794a3c146103e05780637ecebe00146103f5578063848806141461041557806384b0196e1461043557600080fd5b806342842e0e1161017a5780635c19a95c116101495780635c19a95c146103535780636352211e146103735780636a9a38e61461039357806370a08231146103c057600080fd5b806342842e0e146102eb5780634bf5d7e9146102fe578063587cde1e146103135780635bb478081461033357600080fd5b806323b872dd116101b657806323b872dd146102835780633644e515146102965780633a46b1a8146102ab5780633bf5b8f4146102cb57600080fd5b806306fdde03146101e8578063081812fc14610213578063095ea7b31461024b57806318160ddd14610260575b600080fd5b3480156101f457600080fd5b506101fd6105d6565b60405161020a9190613257565b60405180910390f35b34801561021f57600080fd5b5061023361022e36600461326a565b610671565b6040516001600160a01b03909116815260200161020a565b61025e61025936600461329f565b610682565b005b34801561026c57600080fd5b506102756106ca565b60405190815260200161020a565b61025e6102913660046132c9565b6106d9565b3480156102a257600080fd5b506102756108e9565b3480156102b757600080fd5b506102756102c636600461329f565b6108f3565b3480156102d757600080fd5b506102756102e63660046133b1565b610906565b61025e6102f93660046132c9565b610972565b34801561030a57600080fd5b506101fd610992565b34801561031f57600080fd5b5061023361032e36600461346f565b61099c565b34801561033f57600080fd5b5061025e61034e36600461346f565b6109a7565b34801561035f57600080fd5b5061025e61036e36600461346f565b610a04565b34801561037f57600080fd5b5061023361038e36600461326a565b610a0e565b34801561039f57600080fd5b506103b36103ae36600461346f565b610a19565b60405161020a919061348a565b3480156103cc57600080fd5b506102756103db36600461346f565b610a5b565b3480156103ec57600080fd5b50610275610a66565b34801561040157600080fd5b5061027561041036600461346f565b610a70565b34801561042157600080fd5b5061025e61043036600461351c565b610aad565b34801561044157600080fd5b5061044a610aca565b60405161020a9796959493929190613588565b34801561046957600080fd5b50610233610b8d565b34801561047e57600080fd5b5061027561048d36600461326a565b610bae565b34801561049e57600080fd5b506104a7610bb9565b60405165ffffffffffff909116815260200161020a565b3480156104ca57600080fd5b506101fd610bc3565b3480156104df57600080fd5b506102756104ee36600461346f565b610bdb565b3480156104ff57600080fd5b5061025e61050e366004613621565b610be6565b61025e61052136600461365d565b610c1f565b34801561053257600080fd5b5061025e6105413660046136d9565b610c69565b34801561055257600080fd5b506101fd61056136600461326a565b610c77565b34801561057257600080fd5b5061025e610581366004613739565b610ca8565b34801561059257600080fd5b5061025e6105a136600461379d565b610cfb565b3480156105b257600080fd5b506105c66105c1366004613825565b610df7565b604051901515815260200161020a565b60606105e0610e03565b60020180546105ee90613858565b80601f016020809104026020016040519081016040528092919081815260200182805461061a90613858565b80156106675780601f1061063c57610100808354040283529160200191610667565b820191906000526020600020905b81548152906001019060200180831161064a57829003601f168201915b5050505050905090565b600061067c82610e27565b92915050565b6001600160a01b0382161580159061069e575061069e33610e74565b156106bc57604051638043dfaf60e01b815260040160405180910390fd5b6106c68282610ef0565b5050565b60006106d4610efc565b905090565b60006106e482610f1b565b9050836001600160a01b0316816001600160a01b0316146107175760405162a1148160e81b815260040160405180910390fd5b60008061072384610fb6565b9150915061074881876107333390565b6001600160a01b039081169116811491141790565b610773576107568633610df7565b61077357604051632ce44b5f60e11b815260040160405180910390fd5b6001600160a01b03851661079a57604051633a954ecd60e21b815260040160405180910390fd5b6107a78686866001610fde565b80156107b257600082555b6107ba610e03565b6001600160a01b03871660009081526005919091016020526040902080546000190190556107e6610e03565b6001600160a01b03861660008181526005929092016020526040909120805460010190554260a01b17600160e11b1761081d610e03565b60008681526004919091016020526040812091909155600160e11b84169003610893576001840161084c610e03565b6000828152600491909101602052604081205490036108915761086d610e03565b548114610891578361087d610e03565b600083815260049190910160205260409020555b505b83856001600160a01b0316876001600160a01b03167fddf252ad1be2c89b69c2b068fc378daa952ba7f163c4a11628f55a4df523b3ef60405160405180910390a46108e1868686600161101d565b505050505050565b60006106d4611028565b60006108ff8383611032565b9392505050565b600080600080516020613c0b83398151915280549091506001600160a01b031633146109455760405163443e750b60e11b815260040160405180910390fd5b61094d6110d0565b915061095d8787848888886110e0565b61096833600161121f565b5095945050505050565b61098d83838360405180602001604052806000815250610c1f565b505050565b60606106d461136f565b600061067c82611407565b7f4675fa8241f86f37157864d3d49b85ad4b164352c516da28e1678a90470ae300546001600160a01b031633146109f8576040516365f4906560e01b81523360048201526024015b60405180910390fd5b610a0181611444565b50565b610a0133826114ae565b600061067c82610f1b565b610a526040518060c001604052806060815260200160608152602001600081526020016000815260200160608152602001606081525090565b61067c82611548565b600061067c82611838565b60006106d46110d0565b6001600160a01b03811660009081527fda5d6d87446d81938877f0ee239dac391146dd7466ea30567f72becf06773c00602052604081205461067c565b610ab6856118a1565b610ac385858585856118de565b5050505050565b600060608082808083600080516020613c2b83398151915254158015610b0f57507f3a497e775dc7c283402f0d3c39c5f0ea53870eb15ab2dddfde5a1162a84c336d54155b610b535760405162461bcd60e51b81526020600482015260156024820152741152540dcc4c8e88155b9a5b9a5d1a585b1a5e9959605a1b60448201526064016109ef565b610b5b6119b1565b610b636119c7565b60408051600080825260208201909252600f60f81b9b939a50919850469750309650945092509050565b60006106d4600080516020613c0b833981519152546001600160a01b031690565b600061067c826119dd565b60006106d4611a76565b6060610bcd610e03565b60030180546105ee90613858565b600061067c82611a81565b808015610bf75750610bf733610e74565b15610c1557604051638043dfaf60e01b815260040160405180910390fd5b6106c68282611aaf565b610c2a8484846106d9565b6001600160a01b0383163b15610c6357610c4684848484611b2c565b610c63576040516368d2bf6b60e11b815260040160405180910390fd5b50505050565b6108e1868686868686611c17565b6060610c8282611d00565b610c9f57604051630a14c4b560e41b815260040160405180910390fd5b61067c82611d3c565b7f59b501c3653afc186af7d48dda36cf6732bd21629a6295693664240a6ef5200054600160201b900460ff16610cf157604051630ef4733760e31b815260040160405180910390fd5b6106c6828261208c565b7f59b501c3653afc186af7d48dda36cf6732bd21629a6295693664240a6ef520008054600160201b900460ff161580610d3757303b1515610d46565b8154600163ffffffff90911610155b15610d6f578154604051630a8ef77f60e31b815263ffffffff90911660048201526024016109ef565b815463ffffffff191660011782558015610d9657815464ff000000001916600160201b1782555b610da0858561208c565b610daa85846120b6565b8015610ac357815464ff0000000019168255604051600181527fe9c9b456cb2994b80aeef036cf59d26e9617df80f816a6ee5a5b4166e07e2f5c9060200160405180910390a15050505050565b60006108ff8383612109565b7f6569bde4a160c636ea8b8d11acb83a60d7fec0b8f2e09389306cba0e1340df0090565b6000610e3282611d00565b610e4f576040516333d1c03960e21b815260040160405180910390fd5b610e57610e03565b60009283526006016020525060409020546001600160a01b031690565b60007f0c89d3aad1b583c77a2e9f9fffa651b386c9c29e300bf2a8e2f3de1bb0100a006001600160a01b0383163b1580156108ff57506001600160a01b038316600090815260018201602052604090205415806108ff57506001600160a01b038316600090815260018201602052604090205442109392505050565b6106c682826001612146565b600080610f07610e03565b60010154610f13610e03565b540303919050565b600080610f26610e03565b60008481526004820160205260408120549350909150600160e01b83169003610f9c5781600003610f965780548310610f7257604051636f96cda160e11b815260040160405180910390fd5b5b600019909201600081815260048401602052604090205490929091508115610f73575b50919050565b50604051636f96cda160e11b815260040160405180910390fd5b6000806000610fc3610e03565b60009485526006016020525050604090912080549092909150565b6001600160a01b03841615801590610ffa5750610ffa84610e74565b1561101857604051638043dfaf60e01b815260040160405180910390fd5b610c63565b6110188484836121fb565b60006106d461229d565b600061103c611a76565b65ffffffffffff1682106110895760405162461bcd60e51b81526020600482015260146024820152730566f7465733a20667574757265206c6f6f6b75760641b60448201526064016109ef565b6110c061109583612311565b6001600160a01b0385166000908152600080516020613c8b8339815191526020526040902090612346565b6001600160e01b03169392505050565b60006110da610e03565b54919050565b6110eb8660026123fa565b6110f68560006123fa565b6110ff8361241e565b60008481527f7fc24c9500f4388b797f8975c0991ad4ffd0338c2cbf5335b2bf5b7fe57477016020908152604080832080546001600160a01b0319166001600160a01b038816908117909155815160c0810183528a81528084018a90528083018990524260608201526080810187905260a081018690529084527f7fc24c9500f4388b797f8975c0991ad4ffd0338c2cbf5335b2bf5b7fe57477029092529091208151600080516020613c0b83398151915292919081906111c090826138d4565b50602082015160018201906111d590826138d4565b506040820151600282015560608201516003820155608082015160048201906111fe90826138d4565b5060a0820151600582019061121390826138d4565b50505050505050505050565b6000611229610e03565b549050600082900361124e5760405163b562e8dd60e01b815260040160405180910390fd5b61125b6000848385610fde565b68010000000000000001820261126f610e03565b6001600160a01b038516600081815260059290920160205260409091208054929092019091554260a01b6001841460e11b17176112aa610e03565b600083815260049190910160205260408120919091556001600160a01b0384169083830190839083907fddf252ad1be2c89b69c2b068fc378daa952ba7f163c4a11628f55a4df523b3ef8180a4600183015b81811461133457808360007fddf252ad1be2c89b69c2b068fc378daa952ba7f163c4a11628f55a4df523b3ef600080a46001016112fc565b508160000361135557604051622e076360e81b815260040160405180910390fd5b8061135e610e03565b555061098d9050600084838561101d565b60604361137a611a76565b65ffffffffffff16146113cf5760405162461bcd60e51b815260206004820152601860248201527f566f7465733a2062726f6b656e20636c6f636b206d6f6465000000000000000060448201526064016109ef565b5060408051808201909152601d81527f6d6f64653d626c6f636b6e756d6265722666726f6d3d64656661756c74000000602082015290565b6001600160a01b0390811660009081527f423fcc3514229d79a30fb79b40a232f70b3fabdf664a75db0859c67848497f6560205260409020541690565b61144d8161241e565b600080516020613c0b83398151915280546001600160a01b0383166001600160a01b03199091168117825560408051918252517f64c14256e532eac2ec90ddc4973ed2d3f5623faf7951d90eec38f9b7812f99a79181900360200190a15050565b60006114b983611407565b6001600160a01b0384811660008181527f423fcc3514229d79a30fb79b40a232f70b3fabdf664a75db0859c67848497f65602052604080822080546001600160a01b031916888616908117909155905194955093928516927f3134e8a2e6d97e929a7e54011ea5485d7d196dd5f0ba4d4ef95803e8e3fc257f9190a461098d818361154386612445565b612450565b6115816040518060c001604052806060815260200160608152602001600081526020016000815260200160608152602001606081525090565b6001600160a01b03821660009081527f7fc24c9500f4388b797f8975c0991ad4ffd0338c2cbf5335b2bf5b7fe5747702602052604090819020815160c081019092528054600080516020613c0b833981519152929190829082906115e490613858565b80601f016020809104026020016040519081016040528092919081815260200182805461161090613858565b801561165d5780601f106116325761010080835404028352916020019161165d565b820191906000526020600020905b81548152906001019060200180831161164057829003601f168201915b5050505050815260200160018201805461167690613858565b80601f01602080910402602001604051908101604052809291908181526020018280546116a290613858565b80156116ef5780601f106116c4576101008083540402835291602001916116ef565b820191906000526020600020905b8154815290600101906020018083116116d257829003601f168201915b50505050508152602001600282015481526020016003820154815260200160048201805461171c90613858565b80601f016020809104026020016040519081016040528092919081815260200182805461174890613858565b80156117955780601f1061176a57610100808354040283529160200191611795565b820191906000526020600020905b81548152906001019060200180831161177857829003601f168201915b505050505081526020016005820180546117ae90613858565b80601f01602080910402602001604051908101604052809291908181526020018280546117da90613858565b80156118275780601f106117fc57610100808354040283529160200191611827565b820191906000526020600020905b81548152906001019060200180831161180a57829003601f168201915b505050505081525050915050919050565b60006001600160a01b038216611861576040516323d3ad8160e21b815260040160405180910390fd5b67ffffffffffffffff611872610e03565b6005016000846001600160a01b03166001600160a01b0316815260200190815260200160002054169050919050565b336118b76118ae83611548565b60400151610a0e565b6001600160a01b031614610a015760405163dbfcf17d60e01b815260040160405180910390fd5b6118e98460026123fa565b6118f48360016123fa565b6001600160a01b03851660009081527f7fc24c9500f4388b797f8975c0991ad4ffd0338c2cbf5335b2bf5b7fe574770260205260409020600080516020613c0b833981519152908061194687826138d4565b506001810161195586826138d4565b506004810161196485826138d4565b506005810161197384826138d4565b506040516001600160a01b038816907f66da702131703ee5e745ecf2f5b98311caa00729edd55541baad49289fc42ed890600090a250505050505050565b6060600080516020613c2b8339815191526105e0565b6060600080516020613c2b833981519152610bcd565b60006119e7611a76565b65ffffffffffff168210611a345760405162461bcd60e51b81526020600482015260146024820152730566f7465733a20667574757265206c6f6f6b75760641b60448201526064016109ef565b611a67611a4083612311565b7f423fcc3514229d79a30fb79b40a232f70b3fabdf664a75db0859c67848497f6790612346565b6001600160e01b031692915050565b60006106d4436125d1565b6001600160a01b0381166000908152600080516020613c8b83398151915260205260408120611a6790612604565b80611ab8610e03565b336000818152600792909201602090815260408084206001600160a01b03881680865290835293819020805460ff19169515159590951790945592518415158152919290917f17307eab39ab6107e8899845ad3d59bd9653f200f220920489ca2b5937696c31910160405180910390a35050565b604051630a85bd0160e11b81526000906001600160a01b0385169063150b7a0290611b61903390899088908890600401613994565b6020604051808303816000875af1925050508015611b9c575060408051601f3d908101601f19168201909252611b99918101906139d1565b60015b611bfa573d808015611bca576040519150601f19603f3d011682016040523d82523d6000602084013e611bcf565b606091505b508051600003611bf2576040516368d2bf6b60e11b815260040160405180910390fd5b805181602001fd5b6001600160e01b031916630a85bd0160e11b149050949350505050565b83421115611c675760405162461bcd60e51b815260206004820152601860248201527f566f7465733a207369676e61747572652065787069726564000000000000000060448201526064016109ef565b604080517fe48329057bfd03d55e49b547132e39cffd9c1820ad7b9d4c5307691425d15adf60208201526001600160a01b038816918101919091526060810186905260808101859052600090611ce190611cd99060a0016040516020818303038152906040528051906020012061263d565b85858561266a565b9050611ced8187612698565b611cf781886114ae565b50505050505050565b6000611d0a610e03565b548210801561067c5750600160e01b611d21610e03565b60008481526004919091016020526040902054161592915050565b60008181527f7fc24c9500f4388b797f8975c0991ad4ffd0338c2cbf5335b2bf5b7fe57477016020526040902054606090600080516020613c0b833981519152906001600160a01b031680611da257505060408051602081019091526000815292915050565b6001600160a01b0381166000908152600283016020526040808220815160c08101909252805482908290611dd590613858565b80601f0160208091040260200160405190810160405280929190818152602001828054611e0190613858565b8015611e4e5780601f10611e2357610100808354040283529160200191611e4e565b820191906000526020600020905b815481529060010190602001808311611e3157829003601f168201915b50505050508152602001600182018054611e6790613858565b80601f0160208091040260200160405190810160405280929190818152602001828054611e9390613858565b8015611ee05780601f10611eb557610100808354040283529160200191611ee0565b820191906000526020600020905b815481529060010190602001808311611ec357829003601f168201915b505050505081526020016002820154815260200160038201548152602001600482018054611f0d90613858565b80601f0160208091040260200160405190810160405280929190818152602001828054611f3990613858565b8015611f865780601f10611f5b57610100808354040283529160200191611f86565b820191906000526020600020905b815481529060010190602001808311611f6957829003601f168201915b50505050508152602001600582018054611f9f90613858565b80601f0160208091040260200160405190810160405280929190818152602001828054611fcb90613858565b80156120185780601f10611fed57610100808354040283529160200191612018565b820191906000526020600020905b815481529060010190602001808311611ffb57829003601f168201915b50505050508152505090506120638160000151826020015161203d846060015161270a565b60405160200161204f939291906139fb565b60405160208183030381529060405261279d565b6040516020016120739190613add565b6040516020818303038152906040529350505050919050565b61209c6380ac58cd60e01b612902565b6120ac635b5e139f60e01b612902565b6106c682826129e0565b7f59b501c3653afc186af7d48dda36cf6732bd21629a6295693664240a6ef5200054600160201b900460ff166120ff57604051630ef4733760e31b815260040160405180910390fd5b6106c68282612a12565b6000612113610e03565b6001600160a01b039384166000908152600791909101602090815260408083209490951682529290925250205460ff1690565b600061215183610a0e565b9050811561219057336001600160a01b03821614612190576121738133612109565b612190576040516367d9dca160e11b815260040160405180910390fd5b83612199610e03565b6000858152600691909101602052604080822080546001600160a01b0319166001600160a01b0394851617905551859287811692908516917f8c5be1e5ebec7d5bd14f71427d1e84f3dd0314c0f7b2291e5b200ac8c7c3b9259190a450505050565b6001600160a01b0383166122415761223e7f423fcc3514229d79a30fb79b40a232f70b3fabdf664a75db0859c67848497f67612aa461223984612ab0565b612ae4565b50505b6001600160a01b0382166122825761227f7f423fcc3514229d79a30fb79b40a232f70b3fabdf664a75db0859c67848497f67612b2d61223984612ab0565b50505b61098d61228e84611407565b61229784611407565b83612450565b60007f8b73c3c69bb8fe3d512ecc4cf759cc79239f7b179b0ffacaa9a75d522b39400f6122c8612b39565b6122d0612b9f565b60408051602081019490945283019190915260608201524660808201523060a082015260c00160405160208183030381529060405280519060200120905090565b600063ffffffff821115612342576040516306dfcc6560e41b815260206004820152602481018390526044016109ef565b5090565b8154600090818160058111156123a357600061236184612bef565b61236b9085613b38565b60008881526020902090915081015463ffffffff9081169087161015612393578091506123a1565b61239e816001613b4b565b92505b505b60006123b187878585612cd7565b905080156123ec576123d6876123c8600184613b38565b600091825260209091200190565b54600160201b90046001600160e01b03166123ef565b60005b979650505050505050565b8151829082111561098d576040516374eb20a760e01b815260040160405180910390fd5b6001600160a01b038116610a01576040516302e47d1560e41b815260040160405180910390fd5b600061067c82610a5b565b816001600160a01b0316836001600160a01b0316141580156124725750600081115b1561098d576001600160a01b03831615612522576001600160a01b0383166000908152600080516020613c8b8339815191526020526040812081906124bd90612b2d61223986612ab0565b6001600160e01b031691506001600160e01b03169150846001600160a01b03167fdec2bacdd2f05b59de34da9b523dff8be42e5e38e818c82fdb0bae774387a7248383604051612517929190918252602082015260400190565b60405180910390a250505b6001600160a01b0382161561098d576001600160a01b0382166000908152600080516020613c8b83398151915260205260408120819061256890612aa461223986612ab0565b6001600160e01b031691506001600160e01b03169150836001600160a01b03167fdec2bacdd2f05b59de34da9b523dff8be42e5e38e818c82fdb0bae774387a72483836040516125c2929190918252602082015260400190565b60405180910390a25050505050565b600065ffffffffffff821115612342576040516306dfcc6560e41b815260306004820152602481018390526044016109ef565b805460009080156126345761261e836123c8600184613b38565b54600160201b90046001600160e01b03166108ff565b60009392505050565b600061067c61264a611028565b8360405161190160f01b8152600281019290925260228201526042902090565b60008060008061267c88888888612d35565b92509250925061268c8282612e04565b50909695505050505050565b6001600160a01b03821660009081527fda5d6d87446d81938877f0ee239dac391146dd7466ea30567f72becf06773c006020526040902080546001810190915581811461098d576040516301d4b62360e61b81526001600160a01b0384166004820152602481018290526044016109ef565b6060600061271783612ebd565b600101905060008167ffffffffffffffff81111561273757612737613305565b6040519080825280601f01601f191660200182016040528015612761576020820181803683370190505b5090508181016020015b600019016f181899199a1a9b1b9c1cb0b131b232b360811b600a86061a8153600a850494508461276b57509392505050565b606081516000036127bc57505060408051602081019091526000815290565b6000604051806060016040528060408152602001613c4b60409139905060006003845160026127eb9190613b4b565b6127f59190613b74565b612800906004613b96565b9050600061280f826020613b4b565b67ffffffffffffffff81111561282757612827613305565b6040519080825280601f01601f191660200182016040528015612851576020820181803683370190505b509050818152600183018586518101602084015b818310156128bd576003830192508251603f8160121c168501518253600182019150603f81600c1c168501518253600182019150603f8160061c168501518253600182019150603f8116850151825350600101612865565b6003895106600181146128d757600281146128e8576128f4565b613d3d60f01b6001198301526128f4565b603d60f81b6000198301525b509398975050505050505050565b6001600160e01b0319811660009081527f81088bbc801e045ea3e7620779ab349988f58afbdfba10dff983df3f33522b00602052604090205460ff16151560011461298f576001600160e01b0319811660009081527f81088bbc801e045ea3e7620779ab349988f58afbdfba10dff983df3f33522b0060205260409020805460ff191660011790556129a8565b604051637967f77d60e11b815260040160405180910390fd5b6040516001600160e01b03198216907f78f84e5b1c5c05be2b5ad3800781dd404d6d6c6302bc755c0fe20f58a33a7f2290600090a250565b60006129ea610e03565b9050600281016129fa84826138d4565b5060038101612a0983826138d4565b50600090555050565b7f3a497e775dc7c283402f0d3c39c5f0ea53870eb15ab2dddfde5a1162a84c336e612a3d83826138d4565b507f3a497e775dc7c283402f0d3c39c5f0ea53870eb15ab2dddfde5a1162a84c336f612a6982826138d4565b50506000600080516020613c2b8339815191528190557f3a497e775dc7c283402f0d3c39c5f0ea53870eb15ab2dddfde5a1162a84c336d5550565b60006108ff8284613bad565b60006001600160e01b03821115612342576040516306dfcc6560e41b815260e06004820152602481018390526044016109ef565b600080612b20612b02612af5611a76565b65ffffffffffff16612311565b612b18612b0e88612604565b868863ffffffff16565b879190612f95565b915091505b935093915050565b60006108ff8284613bd4565b600080612b446119b1565b805190915015612b5b578051602090910120919050565b600080516020613c2b833981519152548015612b775792915050565b7fc5d2460186f7233c927e7db2dcc703c0e500b653ca82273b7bfad8045d85a4709250505090565b600080612baa6119c7565b805190915015612bc1578051602090910120919050565b7f3a497e775dc7c283402f0d3c39c5f0ea53870eb15ab2dddfde5a1162a84c336d548015612b775792915050565b600081600003612c0157506000919050565b60006001612c0e84612fa3565b901c6001901b90506001818481612c2757612c27613b5e565b048201901c90506001818481612c3f57612c3f613b5e565b048201901c90506001818481612c5757612c57613b5e565b048201901c90506001818481612c6f57612c6f613b5e565b048201901c90506001818481612c8757612c87613b5e565b048201901c90506001818481612c9f57612c9f613b5e565b048201901c90506001818481612cb757612cb7613b5e565b048201901c90506108ff81828581612cd157612cd1613b5e565b04613037565b60005b81831015612d2d576000612cee848461304d565b60008781526020902090915063ffffffff86169082015463ffffffff161115612d1957809250612d27565b612d24816001613b4b565b93505b50612cda565b509392505050565b600080807f7fffffffffffffffffffffffffffffff5d576e7357a4501ddfe92f46681b20a0841115612d705750600091506003905082612dfa565b604080516000808252602082018084528a905260ff891692820192909252606081018790526080810186905260019060a0016020604051602081039080840390855afa158015612dc4573d6000803e3d6000fd5b5050604051601f1901519150506001600160a01b038116612df057506000925060019150829050612dfa565b9250600091508190505b9450945094915050565b6000826003811115612e1857612e18613bf4565b03612e21575050565b6001826003811115612e3557612e35613bf4565b03612e535760405163f645eedf60e01b815260040160405180910390fd5b6002826003811115612e6757612e67613bf4565b03612e885760405163fce698f760e01b8152600481018290526024016109ef565b6003826003811115612e9c57612e9c613bf4565b036106c6576040516335e2f38360e21b8152600481018290526024016109ef565b60008072184f03e93ff9f4daa797ed6e38ed64bf6a1f0160401b8310612efc5772184f03e93ff9f4daa797ed6e38ed64bf6a1f0160401b830492506040015b6d04ee2d6d415b85acef81000000008310612f28576d04ee2d6d415b85acef8100000000830492506020015b662386f26fc100008310612f4657662386f26fc10000830492506010015b6305f5e1008310612f5e576305f5e100830492506008015b6127108310612f7257612710830492506004015b60648310612f84576064830492506002015b600a831061067c5760010192915050565b600080612b20858585613068565b600080608083901c15612fb857608092831c92015b604083901c15612fca57604092831c92015b602083901c15612fdc57602092831c92015b601083901c15612fee57601092831c92015b600883901c1561300057600892831c92015b600483901c1561301257600492831c92015b600283901c1561302457600292831c92015b600183901c1561067c5760010192915050565b600081831061304657816108ff565b5090919050565b600061305c6002848418613b74565b6108ff90848416613b4b565b8254600090819080156131ae576000613086876123c8600185613b38565b60408051808201909152905463ffffffff808216808452600160201b9092046001600160e01b0316602084015291925090871610156131075760405162461bcd60e51b815260206004820152601b60248201527f436865636b706f696e743a2064656372656173696e67206b657973000000000060448201526064016109ef565b805163ffffffff80881691160361314f5784613128886123c8600186613b38565b80546001600160e01b0392909216600160201b0263ffffffff90921691909117905561319e565b6040805180820190915263ffffffff80881682526001600160e01b0380881660208085019182528b54600181018d5560008d81529190912094519151909216600160201b029216919091179101555b602001519250839150612b259050565b50506040805180820190915263ffffffff80851682526001600160e01b0380851660208085019182528854600181018a5560008a815291822095519251909316600160201b029190931617920191909155905081612b25565b60005b8381101561322257818101518382015260200161320a565b50506000910152565b60008151808452613243816020860160208601613207565b601f01601f19169290920160200192915050565b6020815260006108ff602083018461322b565b60006020828403121561327c57600080fd5b5035919050565b80356001600160a01b038116811461329a57600080fd5b919050565b600080604083850312156132b257600080fd5b6132bb83613283565b946020939093013593505050565b6000806000606084860312156132de57600080fd5b6132e784613283565b92506132f560208501613283565b9150604084013590509250925092565b634e487b7160e01b600052604160045260246000fd5b600067ffffffffffffffff8084111561333657613336613305565b604051601f8501601f19908116603f0116810190828211818310171561335e5761335e613305565b8160405280935085815286868601111561337757600080fd5b858560208301376000602087830101525050509392505050565b600082601f8301126133a257600080fd5b6108ff8383356020850161331b565b600080600080600060a086880312156133c957600080fd5b853567ffffffffffffffff808211156133e157600080fd5b6133ed89838a01613391565b9650602088013591508082111561340357600080fd5b61340f89838a01613391565b955061341d60408901613283565b9450606088013591508082111561343357600080fd5b61343f89838a01613391565b9350608088013591508082111561345557600080fd5b5061346288828901613391565b9150509295509295909350565b60006020828403121561348157600080fd5b6108ff82613283565b602081526000825160c060208401526134a660e084018261322b565b90506020840151601f19808584030160408601526134c4838361322b565b9250604086015160608601526060860151608086015260808601519150808584030160a08601526134f5838361322b565b925060a08601519150808584030160c086015250613513828261322b565b95945050505050565b600080600080600060a0868803121561353457600080fd5b61353d86613283565b9450602086013567ffffffffffffffff8082111561355a57600080fd5b61356689838a01613391565b9550604088013591508082111561357c57600080fd5b61341d89838a01613391565b60ff60f81b881681526000602060e060208401526135a960e084018a61322b565b83810360408501526135bb818a61322b565b606085018990526001600160a01b038816608086015260a0850187905284810360c08601528551808252602080880193509091019060005b8181101561360f578351835292840192918401916001016135f3565b50909c9b505050505050505050505050565b6000806040838503121561363457600080fd5b61363d83613283565b91506020830135801515811461365257600080fd5b809150509250929050565b6000806000806080858703121561367357600080fd5b61367c85613283565b935061368a60208601613283565b925060408501359150606085013567ffffffffffffffff8111156136ad57600080fd5b8501601f810187136136be57600080fd5b6136cd8782356020840161331b565b91505092959194509250565b60008060008060008060c087890312156136f257600080fd5b6136fb87613283565b95506020870135945060408701359350606087013560ff8116811461371f57600080fd5b9598949750929560808101359460a0909101359350915050565b6000806040838503121561374c57600080fd5b823567ffffffffffffffff8082111561376457600080fd5b61377086838701613391565b9350602085013591508082111561378657600080fd5b5061379385828601613391565b9150509250929050565b6000806000606084860312156137b257600080fd5b833567ffffffffffffffff808211156137ca57600080fd5b6137d687838801613391565b945060208601359150808211156137ec57600080fd5b6137f887838801613391565b9350604086013591508082111561380e57600080fd5b5061381b86828701613391565b9150509250925092565b6000806040838503121561383857600080fd5b61384183613283565b915061384f60208401613283565b90509250929050565b600181811c9082168061386c57607f821691505b602082108103610f9657634e487b7160e01b600052602260045260246000fd5b601f82111561098d576000816000526020600020601f850160051c810160208610156138b55750805b601f850160051c820191505b818110156108e1578281556001016138c1565b815167ffffffffffffffff8111156138ee576138ee613305565b613902816138fc8454613858565b8461388c565b602080601f831160018114613937576000841561391f5750858301515b600019600386901b1c1916600185901b1785556108e1565b600085815260208120601f198616915b8281101561396657888601518255948401946001909101908401613947565b50858210156139845787850151600019600388901b60f8161c191681555b5050505050600190811b01905550565b6001600160a01b03858116825284166020820152604081018390526080606082018190526000906139c79083018461322b565b9695505050505050565b6000602082840312156139e357600080fd5b81516001600160e01b0319811681146108ff57600080fd5b683d913730b6b2911d1160b91b81528351600090613a20816009850160208901613207565b6a11161134b6b0b3b2911d1160a91b6009918401918201528451613a4b816014840160208901613207565b7f222c2261747472696275746573223a5b7b2274726169745f74797065223a2243601492909101918201527f726561746564222c22646973706c61795f74797065223a202264617465222c20603482015267113b30b63ab2911d60c11b60548201528351613ac081605c840160208801613207565b627d5d7d60e81b605c9290910191820152605f0195945050505050565b7f646174613a6170706c69636174696f6e2f6a736f6e3b6261736536342c000000815260008251613b1581601d850160208701613207565b91909101601d0192915050565b634e487b7160e01b600052601160045260246000fd5b8181038181111561067c5761067c613b22565b8082018082111561067c5761067c613b22565b634e487b7160e01b600052601260045260246000fd5b600082613b9157634e487b7160e01b600052601260045260246000fd5b500490565b808202811582820484141761067c5761067c613b22565b6001600160e01b03818116838216019080821115613bcd57613bcd613b22565b5092915050565b6001600160e01b03828116828216039080821115613bcd57613bcd613b22565b634e487b7160e01b600052602160045260246000fdfe7fc24c9500f4388b797f8975c0991ad4ffd0338c2cbf5335b2bf5b7fe57477003a497e775dc7c283402f0d3c39c5f0ea53870eb15ab2dddfde5a1162a84c336c4142434445464748494a4b4c4d4e4f505152535455565758595a6162636465666768696a6b6c6d6e6f707172737475767778797a303132333435363738392b2f423fcc3514229d79a30fb79b40a232f70b3fabdf664a75db0859c67848497f66","linkReferences":{}},"methodIdentifiers":{"CLOCK_MODE()":"4bf5d7e9","DOMAIN_SEPARATOR()":"3644e515","__ERC721A_init(string,string)":"d2f01f19","__SpaceOwner_init(string,string,string)":"d7a901d3","approve(address,uint256)":"095ea7b3","balanceOf(address)":"70a08231","clock()":"91ddadf4","delegate(address)":"5c19a95c","delegateBySig(address,uint256,uint256,uint8,bytes32,bytes32)":"c3cda520","delegates(address)":"587cde1e","eip712Domain()":"84b0196e","getApproved(uint256)":"081812fc","getFactory()":"88cc58e4","getPastTotalSupply(uint256)":"8e539e8c","getPastVotes(address,uint256)":"3a46b1a8","getSpaceInfo(address)":"6a9a38e6","getVotes(address)":"9ab24eb0","isApprovedForAll(address,address)":"e985e9c5","mintSpace(string,string,address,string,string)":"3bf5b8f4","name()":"06fdde03","nextTokenId()":"75794a3c","nonces(address)":"7ecebe00","ownerOf(uint256)":"6352211e","safeTransferFrom(address,address,uint256)":"42842e0e","safeTransferFrom(address,address,uint256,bytes)":"b88d4fde","setApprovalForAll(address,bool)":"a22cb465","setFactory(address)":"5bb47808","symbol()":"95d89b41","tokenURI(uint256)":"c87b56dd","totalSupply()":"18160ddd","transferFrom(address,address,uint256)":"23b872dd","updateSpaceInfo(address,string,string,string,string)":"84880614"},"id":236}