{"abi":[{"type":"function","name":"CLOCK_MODE","inputs":[],"outputs":[{"name":"","type":"string","internalType":"string"}],"stateMutability":"view"},{"type":"function","name":"DOMAIN_SEPARATOR","inputs":[],"outputs":[{"name":"result","type":"bytes32","internalType":"bytes32"}],"stateMutability":"view"},{"type":"function","name":"__ERC721A_init","inputs":[{"name":"name_","type":"string","internalType":"string"},{"name":"symbol_","type":"string","internalType":"string"}],"outputs":[],"stateMutability":"nonpayable"},{"type":"function","name":"__SpaceOwner_init","inputs":[{"name":"name","type":"string","internalType":"string"},{"name":"symbol","type":"string","internalType":"string"},{"name":"version","type":"string","internalType":"string"}],"outputs":[],"stateMutability":"nonpayable"},{"type":"function","name":"approve","inputs":[{"name":"to","type":"address","internalType":"address"},{"name":"tokenId","type":"uint256","internalType":"uint256"}],"outputs":[],"stateMutability":"payable"},{"type":"function","name":"balanceOf","inputs":[{"name":"owner","type":"address","internalType":"address"}],"outputs":[{"name":"","type":"uint256","internalType":"uint256"}],"stateMutability":"view"},{"type":"function","name":"clock","inputs":[],"outputs":[{"name":"","type":"uint48","internalType":"uint48"}],"stateMutability":"view"},{"type":"function","name":"delegate","inputs":[{"name":"delegatee","type":"address","internalType":"address"}],"outputs":[],"stateMutability":"nonpayable"},{"type":"function","name":"delegateBySig","inputs":[{"name":"delegatee","type":"address","internalType":"address"},{"name":"nonce","type":"uint256","internalType":"uint256"},{"name":"expiry","type":"uint256","internalType":"uint256"},{"name":"v","type":"uint8","internalType":"uint8"},{"name":"r","type":"bytes32","internalType":"bytes32"},{"name":"s","type":"bytes32","internalType":"bytes32"}],"outputs":[],"stateMutability":"nonpayable"},{"type":"function","name":"delegates","inputs":[{"name":"account","type":"address","internalType":"address"}],"outputs":[{"name":"","type":"address","internalType":"address"}],"stateMutability":"view"},{"type":"function","name":"eip712Domain","inputs":[],"outputs":[{"name":"fields","type":"bytes1","internalType":"bytes1"},{"name":"name","type":"string","internalType":"string"},{"name":"version","type":"string","internalType":"string"},{"name":"chainId","type":"uint256","internalType":"uint256"},{"name":"verifyingContract","type":"address","internalType":"address"},{"name":"salt","type":"bytes32","internalType":"bytes32"},{"name":"extensions","type":"uint256[]","internalType":"uint256[]"}],"stateMutability":"view"},{"type":"function","name":"getApproved","inputs":[{"name":"tokenId","type":"uint256","internalType":"uint256"}],"outputs":[{"name":"","type":"address","internalType":"address"}],"stateMutability":"view"},{"type":"function","name":"getDefaultUri","inputs":[],"outputs":[{"name":"","type":"string","internalType":"string"}],"stateMutability":"view"},{"type":"function","name":"getFactory","inputs":[],"outputs":[{"name":"","type":"address","internalType":"address"}],"stateMutability":"view"},{"type":"function","name":"getPastTotalSupply","inputs":[{"name":"timepoint","type":"uint256","internalType":"uint256"}],"outputs":[{"name":"","type":"uint256","internalType":"uint256"}],"stateMutability":"view"},{"type":"function","name":"getPastVotes","inputs":[{"name":"account","type":"address","internalType":"address"},{"name":"timepoint","type":"uint256","internalType":"uint256"}],"outputs":[{"name":"","type":"uint256","internalType":"uint256"}],"stateMutability":"view"},{"type":"function","name":"getSpaceByTokenId","inputs":[{"name":"tokenId","type":"uint256","internalType":"uint256"}],"outputs":[{"name":"","type":"address","internalType":"address"}],"stateMutability":"view"},{"type":"function","name":"getSpaceInfo","inputs":[{"name":"space","type":"address","internalType":"address"}],"outputs":[{"name":"","type":"tuple","internalType":"struct ISpaceOwnerBase.Space","components":[{"name":"name","type":"string","internalType":"string"},{"name":"uri","type":"string","internalType":"string"},{"name":"tokenId","type":"uint256","internalType":"uint256"},{"name":"createdAt","type":"uint256","internalType":"uint256"},{"name":"shortDescription","type":"string","internalType":"string"},{"name":"longDescription","type":"string","internalType":"string"}]}],"stateMutability":"view"},{"type":"function","name":"getVotes","inputs":[{"name":"account","type":"address","internalType":"address"}],"outputs":[{"name":"","type":"uint256","internalType":"uint256"}],"stateMutability":"view"},{"type":"function","name":"isApprovedForAll","inputs":[{"name":"owner","type":"address","internalType":"address"},{"name":"operator","type":"address","internalType":"address"}],"outputs":[{"name":"","type":"bool","internalType":"bool"}],"stateMutability":"view"},{"type":"function","name":"mintSpace","inputs":[{"name":"name","type":"string","internalType":"string"},{"name":"uri","type":"string","internalType":"string"},{"name":"space","type":"address","internalType":"address"},{"name":"shortDescription","type":"string","internalType":"string"},{"name":"longDescription","type":"string","internalType":"string"}],"outputs":[{"name":"tokenId","type":"uint256","internalType":"uint256"}],"stateMutability":"nonpayable"},{"type":"function","name":"name","inputs":[],"outputs":[{"name":"","type":"string","internalType":"string"}],"stateMutability":"view"},{"type":"function","name":"nextTokenId","inputs":[],"outputs":[{"name":"","type":"uint256","internalType":"uint256"}],"stateMutability":"view"},{"type":"function","name":"nonces","inputs":[{"name":"owner","type":"address","internalType":"address"}],"outputs":[{"name":"result","type":"uint256","internalType":"uint256"}],"stateMutability":"view"},{"type":"function","name":"ownerOf","inputs":[{"name":"tokenId","type":"uint256","internalType":"uint256"}],"outputs":[{"name":"","type":"address","internalType":"address"}],"stateMutability":"view"},{"type":"function","name":"safeTransferFrom","inputs":[{"name":"from","type":"address","internalType":"address"},{"name":"to","type":"address","internalType":"address"},{"name":"tokenId","type":"uint256","internalType":"uint256"}],"outputs":[],"stateMutability":"payable"},{"type":"function","name":"safeTransferFrom","inputs":[{"name":"from","type":"address","internalType":"address"},{"name":"to","type":"address","internalType":"address"},{"name":"tokenId","type":"uint256","internalType":"uint256"},{"name":"_data","type":"bytes","internalType":"bytes"}],"outputs":[],"stateMutability":"payable"},{"type":"function","name":"setApprovalForAll","inputs":[{"name":"operator","type":"address","internalType":"address"},{"name":"approved","type":"bool","internalType":"bool"}],"outputs":[],"stateMutability":"nonpayable"},{"type":"function","name":"setDefaultUri","inputs":[{"name":"uri","type":"string","internalType":"string"}],"outputs":[],"stateMutability":"nonpayable"},{"type":"function","name":"setFactory","inputs":[{"name":"factory","type":"address","internalType":"address"}],"outputs":[],"stateMutability":"nonpayable"},{"type":"function","name":"symbol","inputs":[],"outputs":[{"name":"","type":"string","internalType":"string"}],"stateMutability":"view"},{"type":"function","name":"tokenURI","inputs":[{"name":"tokenId","type":"uint256","internalType":"uint256"}],"outputs":[{"name":"","type":"string","internalType":"string"}],"stateMutability":"view"},{"type":"function","name":"totalSupply","inputs":[],"outputs":[{"name":"","type":"uint256","internalType":"uint256"}],"stateMutability":"view"},{"type":"function","name":"transferFrom","inputs":[{"name":"from","type":"address","internalType":"address"},{"name":"to","type":"address","internalType":"address"},{"name":"tokenId","type":"uint256","internalType":"uint256"}],"outputs":[],"stateMutability":"payable"},{"type":"function","name":"updateSpaceInfo","inputs":[{"name":"space","type":"address","internalType":"address"},{"name":"name","type":"string","internalType":"string"},{"name":"uri","type":"string","internalType":"string"},{"name":"shortDescription","type":"string","internalType":"string"},{"name":"longDescription","type":"string","internalType":"string"}],"outputs":[],"stateMutability":"nonpayable"},{"type":"event","name":"Approval","inputs":[{"name":"owner","type":"address","indexed":true,"internalType":"address"},{"name":"approved","type":"address","indexed":true,"internalType":"address"},{"name":"tokenId","type":"uint256","indexed":true,"internalType":"uint256"}],"anonymous":false},{"type":"event","name":"ApprovalForAll","inputs":[{"name":"owner","type":"address","indexed":true,"internalType":"address"},{"name":"operator","type":"address","indexed":true,"internalType":"address"},{"name":"approved","type":"bool","indexed":false,"internalType":"bool"}],"anonymous":false},{"type":"event","name":"ConsecutiveTransfer","inputs":[{"name":"fromTokenId","type":"uint256","indexed":true,"internalType":"uint256"},{"name":"toTokenId","type":"uint256","indexed":false,"internalType":"uint256"},{"name":"from","type":"address","indexed":true,"internalType":"address"},{"name":"to","type":"address","indexed":true,"internalType":"address"}],"anonymous":false},{"type":"event","name":"DelegateChanged","inputs":[{"name":"delegator","type":"address","indexed":true,"internalType":"address"},{"name":"fromDelegate","type":"address","indexed":true,"internalType":"address"},{"name":"toDelegate","type":"address","indexed":true,"internalType":"address"}],"anonymous":false},{"type":"event","name":"DelegateVotesChanged","inputs":[{"name":"delegate","type":"address","indexed":true,"internalType":"address"},{"name":"previousVotes","type":"uint256","indexed":false,"internalType":"uint256"},{"name":"newVotes","type":"uint256","indexed":false,"internalType":"uint256"}],"anonymous":false},{"type":"event","name":"EIP712DomainChanged","inputs":[],"anonymous":false},{"type":"event","name":"GuardianDefaultCooldownUpdated","inputs":[{"name":"cooldown","type":"uint256","indexed":true,"internalType":"uint256"}],"anonymous":false},{"type":"event","name":"GuardianUpdated","inputs":[{"name":"caller","type":"address","indexed":true,"internalType":"address"},{"name":"enabled","type":"bool","indexed":true,"internalType":"bool"},{"name":"cooldown","type":"uint256","indexed":false,"internalType":"uint256"},{"name":"timestamp","type":"uint256","indexed":false,"internalType":"uint256"}],"anonymous":false},{"type":"event","name":"Initialized","inputs":[{"name":"version","type":"uint32","indexed":false,"internalType":"uint32"}],"anonymous":false},{"type":"event","name":"InterfaceAdded","inputs":[{"name":"interfaceId","type":"bytes4","indexed":true,"internalType":"bytes4"}],"anonymous":false},{"type":"event","name":"InterfaceRemoved","inputs":[{"name":"interfaceId","type":"bytes4","indexed":true,"internalType":"bytes4"}],"anonymous":false},{"type":"event","name":"MetadataUpdate","inputs":[{"name":"_tokenId","type":"uint256","indexed":false,"internalType":"uint256"}],"anonymous":false},{"type":"event","name":"OwnershipTransferred","inputs":[{"name":"previousOwner","type":"address","indexed":true,"internalType":"address"},{"name":"newOwner","type":"address","indexed":true,"internalType":"address"}],"anonymous":false},{"type":"event","name":"SpaceOwner__SetDefaultUri","inputs":[{"name":"uri","type":"string","indexed":false,"internalType":"string"}],"anonymous":false},{"type":"event","name":"SpaceOwner__SetFactory","inputs":[{"name":"factory","type":"address","indexed":false,"internalType":"address"}],"anonymous":false},{"type":"event","name":"SpaceOwner__UpdateSpace","inputs":[{"name":"space","type":"address","indexed":true,"internalType":"address"}],"anonymous":false},{"type":"event","name":"Transfer","inputs":[{"name":"from","type":"address","indexed":true,"internalType":"address"},{"name":"to","type":"address","indexed":true,"internalType":"address"},{"name":"tokenId","type":"uint256","indexed":true,"internalType":"uint256"}],"anonymous":false},{"type":"error","name":"ApprovalCallerNotOwnerNorApproved","inputs":[]},{"type":"error","name":"ApprovalQueryForNonexistentToken","inputs":[]},{"type":"error","name":"BalanceQueryForZeroAddress","inputs":[]},{"type":"error","name":"ECDSAInvalidSignature","inputs":[]},{"type":"error","name":"ECDSAInvalidSignatureLength","inputs":[{"name":"length","type":"uint256","internalType":"uint256"}]},{"type":"error","name":"ECDSAInvalidSignatureS","inputs":[{"name":"s","type":"bytes32","internalType":"bytes32"}]},{"type":"error","name":"Guardian_AlreadyDisabled","inputs":[]},{"type":"error","name":"Guardian_AlreadyEnabled","inputs":[]},{"type":"error","name":"Guardian_Enabled","inputs":[]},{"type":"error","name":"Initializable_AlreadyInitialized","inputs":[{"name":"version","type":"uint32","internalType":"uint32"}]},{"type":"error","name":"Initializable_InInitializingState","inputs":[]},{"type":"error","name":"Initializable_NotInInitializingState","inputs":[]},{"type":"error","name":"Introspection_AlreadySupported","inputs":[]},{"type":"error","name":"Introspection_NotSupported","inputs":[]},{"type":"error","name":"InvalidAccountNonce","inputs":[{"name":"account","type":"address","internalType":"address"},{"name":"currentNonce","type":"uint256","internalType":"uint256"}]},{"type":"error","name":"MintERC2309QuantityExceedsLimit","inputs":[]},{"type":"error","name":"MintToZeroAddress","inputs":[]},{"type":"error","name":"MintZeroQuantity","inputs":[]},{"type":"error","name":"Ownable__NotOwner","inputs":[{"name":"account","type":"address","internalType":"address"}]},{"type":"error","name":"Ownable__ZeroAddress","inputs":[]},{"type":"error","name":"OwnerQueryForNonexistentToken","inputs":[]},{"type":"error","name":"OwnershipNotInitializedForExtraData","inputs":[]},{"type":"error","name":"SafeCastOverflowedUintDowncast","inputs":[{"name":"bits","type":"uint8","internalType":"uint8"},{"name":"value","type":"uint256","internalType":"uint256"}]},{"type":"error","name":"SpaceOwner__DefaultUriNotSet","inputs":[]},{"type":"error","name":"SpaceOwner__OnlyFactoryAllowed","inputs":[]},{"type":"error","name":"SpaceOwner__OnlySpaceOwnerAllowed","inputs":[]},{"type":"error","name":"SpaceOwner__SpaceNotFound","inputs":[]},{"type":"error","name":"TransferCallerNotOwnerNorApproved","inputs":[]},{"type":"error","name":"TransferFromIncorrectOwner","inputs":[]},{"type":"error","name":"TransferToNonERC721ReceiverImplementer","inputs":[]},{"type":"error","name":"TransferToZeroAddress","inputs":[]},{"type":"error","name":"URIQueryForNonexistentToken","inputs":[]},{"type":"error","name":"Validator__InvalidAddress","inputs":[]},{"type":"error","name":"Validator__InvalidStringLength","inputs":[]},{"type":"error","name":"VotesExpiredSignature","inputs":[{"name":"expiry","type":"uint256","internalType":"uint256"}]}],"bytecode":{"object":"0x60806040523480156200001157600080fd5b506200001c62000022565b620000ca565b7f59b501c3653afc186af7d48dda36cf6732bd21629a6295693664240a6ef520008054640100000000900460ff16156200006f576040516366008a2d60e01b815260040160405180910390fd5b805463ffffffff9081161015620000c757805463ffffffff191663ffffffff90811782556040519081527fe9c9b456cb2994b80aeef036cf59d26e9617df80f816a6ee5a5b4166e07e2f5c9060200160405180910390a15b50565b613bda80620000da6000396000f3fe6080604052600436106102045760003560e01c806370a08231116101185780639ab24eb0116100a0578063c87b56dd1161006f578063c87b56dd146105a7578063d2f01f19146105c7578063d6536540146105e7578063d7a901d3146105fc578063e985e9c51461061c57600080fd5b80639ab24eb014610534578063a22cb46514610554578063b88d4fde14610574578063c3cda5201461058757600080fd5b806384b0196e116100e757806384b0196e1461049657806388cc58e4146104be5780638e539e8c146104d357806391ddadf4146104f357806395d89b411461051f57600080fd5b806370a082311461042157806375794a3c146104415780637ecebe0014610456578063848806141461047657600080fd5b806342842e0e1161019b5780635bb478081161016a5780635bb47808146103745780635c19a95c146103945780636352211e146103b4578063673f0dd5146103d45780636a9a38e6146103f457600080fd5b806342842e0e1461030c578063466a18de1461031f5780634bf5d7e91461033f578063587cde1e1461035457600080fd5b806323b872dd116101d757806323b872dd146102a45780633644e515146102b75780633a46b1a8146102cc5780633bf5b8f4146102ec57600080fd5b806306fdde0314610209578063081812fc14610234578063095ea7b31461026c57806318160ddd14610281575b600080fd5b34801561021557600080fd5b5061021e61064c565b60405161022b919061322e565b60405180910390f35b34801561024057600080fd5b5061025461024f366004613241565b6106e7565b6040516001600160a01b03909116815260200161022b565b61027f61027a366004613276565b6106f8565b005b34801561028d57600080fd5b50610296610740565b60405190815260200161022b565b61027f6102b23660046132a0565b61074f565b3480156102c357600080fd5b5061029661095f565b3480156102d857600080fd5b506102966102e7366004613276565b610969565b3480156102f857600080fd5b50610296610307366004613388565b61097c565b61027f61031a3660046132a0565b6109e8565b34801561032b57600080fd5b5061027f61033a366004613446565b610a08565b34801561034b57600080fd5b5061021e610a65565b34801561036057600080fd5b5061025461036f36600461347b565b610a6f565b34801561038057600080fd5b5061027f61038f36600461347b565b610a7a565b3480156103a057600080fd5b5061027f6103af36600461347b565b610acf565b3480156103c057600080fd5b506102546103cf366004613241565b610ad9565b3480156103e057600080fd5b506102546103ef366004613241565b610ae4565b34801561040057600080fd5b5061041461040f36600461347b565b610b20565b60405161022b9190613496565b34801561042d57600080fd5b5061029661043c36600461347b565b610b62565b34801561044d57600080fd5b50610296610b6d565b34801561046257600080fd5b5061029661047136600461347b565b610b77565b34801561048257600080fd5b5061027f610491366004613528565b610bb4565b3480156104a257600080fd5b506104ab610c60565b60405161022b9796959493929190613594565b3480156104ca57600080fd5b50610254610d23565b3480156104df57600080fd5b506102966104ee366004613241565b610d44565b3480156104ff57600080fd5b50610508610d4f565b60405165ffffffffffff909116815260200161022b565b34801561052b57600080fd5b5061021e610d59565b34801561054057600080fd5b5061029661054f36600461347b565b610d71565b34801561056057600080fd5b5061027f61056f36600461362d565b610d7c565b61027f610582366004613669565b610db5565b34801561059357600080fd5b5061027f6105a23660046136e5565b610dff565b3480156105b357600080fd5b5061021e6105c2366004613241565b610e0d565b3480156105d357600080fd5b5061027f6105e2366004613745565b610e3e565b3480156105f357600080fd5b5061021e610e91565b34801561060857600080fd5b5061027f6106173660046137a9565b610e9b565b34801561062857600080fd5b5061063c610637366004613831565b610f94565b604051901515815260200161022b565b6060610656610fa0565b600201805461066490613864565b80601f016020809104026020016040519081016040528092919081815260200182805461069090613864565b80156106dd5780601f106106b2576101008083540402835291602001916106dd565b820191906000526020600020905b8154815290600101906020018083116106c057829003601f168201915b5050505050905090565b60006106f282610fc4565b92915050565b6001600160a01b03821615801590610714575061071433611011565b1561073257604051630ed551c360e41b815260040160405180910390fd5b61073c82826110a9565b5050565b600061074a6110b5565b905090565b600061075a826110d4565b9050836001600160a01b0316816001600160a01b03161461078d5760405162a1148160e81b815260040160405180910390fd5b6000806107998461116f565b915091506107be81876107a93390565b6001600160a01b039081169116811491141790565b6107e9576107cc8633610f94565b6107e957604051632ce44b5f60e11b815260040160405180910390fd5b6001600160a01b03851661081057604051633a954ecd60e21b815260040160405180910390fd5b61081d8686866001611197565b801561082857600082555b610830610fa0565b6001600160a01b038716600090815260059190910160205260409020805460001901905561085c610fa0565b6001600160a01b03861660008181526005929092016020526040909120805460010190554260a01b17600160e11b17610893610fa0565b60008681526004919091016020526040812091909155600160e11b8416900361090957600184016108c2610fa0565b600082815260049190910160205260408120549003610907576108e3610fa0565b54811461090757836108f3610fa0565b600083815260049190910160205260409020555b505b83856001600160a01b0316876001600160a01b03167fddf252ad1be2c89b69c2b068fc378daa952ba7f163c4a11628f55a4df523b3ef60405160405180910390a461095786868660016111d6565b505050505050565b600061074a6111e1565b600061097583836111eb565b9392505050565b600080600080516020613b5a83398151915280549091506001600160a01b031633146109bb5760405163443e750b60e11b815260040160405180910390fd5b6109c3611289565b91506109d3878784888888611299565b6109de3360016113de565b5095945050505050565b610a0383838360405180602001604052806000815250610db5565b505050565b7f4675fa8241f86f37157864d3d49b85ad4b164352c516da28e1678a90470ae300546001600160a01b03163314610a59576040516365f4906560e01b81523360048201526024015b60405180910390fd5b610a628161152e565b50565b606061074a61159f565b60006106f282611637565b7f4675fa8241f86f37157864d3d49b85ad4b164352c516da28e1678a90470ae300546001600160a01b03163314610ac6576040516365f4906560e01b8152336004820152602401610a50565b610a6281611674565b610a6233826116de565b60006106f2826110d4565b60008181527f7fc24c9500f4388b797f8975c0991ad4ffd0338c2cbf5335b2bf5b7fe574770160205260408120546001600160a01b03166106f2565b610b596040518060c001604052806060815260200160608152602001600081526020016000815260200160608152602001606081525090565b6106f282611778565b60006106f282611a71565b600061074a611289565b6001600160a01b03811660009081527fda5d6d87446d81938877f0ee239dac391146dd7466ea30567f72becf06773c0060205260408120546106f2565b610bbd85611ada565b610bca8585858585611b0e565b846001600160a01b031663410066056040518163ffffffff1660e01b8152600401600060405180830381600087803b158015610c0557600080fd5b505af1158015610c19573d6000803e3d6000fd5b505050507ff8e1a15aba9398e019f0b49df1a4fde98ee17ae345cb5f6b5e2c27f5033e8ce7610c4786611be7565b6040519081526020015b60405180910390a15050505050565b600060608082808083600080516020613b7a83398151915254158015610ca557507f3a497e775dc7c283402f0d3c39c5f0ea53870eb15ab2dddfde5a1162a84c336d54155b610ce95760405162461bcd60e51b81526020600482015260156024820152741152540dcc4c8e88155b9a5b9a5d1a585b1a5e9959605a1b6044820152606401610a50565b610cf1611c12565b610cf9611c28565b60408051600080825260208201909252600f60f81b9b939a50919850469750309650945092509050565b600061074a600080516020613b5a833981519152546001600160a01b031690565b60006106f282611c3e565b600061074a611cd7565b6060610d63610fa0565b600301805461066490613864565b60006106f282611ce2565b808015610d8d5750610d8d33611011565b15610dab57604051630ed551c360e41b815260040160405180910390fd5b61073c8282611d10565b610dc084848461074f565b6001600160a01b0383163b15610df957610ddc84848484611d8d565b610df9576040516368d2bf6b60e11b815260040160405180910390fd5b50505050565b610957868686868686611e79565b6060610e1882611f62565b610e3557604051630a14c4b560e41b815260040160405180910390fd5b6106f282611f9e565b7f59b501c3653afc186af7d48dda36cf6732bd21629a6295693664240a6ef5200054600160201b900460ff16610e8757604051630ef4733760e31b815260040160405180910390fd5b61073c8282612217565b606061074a612241565b7f59b501c3653afc186af7d48dda36cf6732bd21629a6295693664240a6ef520008054600160201b900460ff161580610ed757303b1515610ee6565b8154600163ffffffff90911610155b15610f0f578154604051630a8ef77f60e31b815263ffffffff9091166004820152602401610a50565b815463ffffffff191660011782558015610f3657815464ff000000001916600160201b1782555b610f408585612217565b610f4a8584612260565b8015610f8d57815464ff0000000019168255604051600181527fe9c9b456cb2994b80aeef036cf59d26e9617df80f816a6ee5a5b4166e07e2f5c90602001610c51565b5050505050565b600061097583836122b3565b7f6569bde4a160c636ea8b8d11acb83a60d7fec0b8f2e09389306cba0e1340df0090565b6000610fcf82611f62565b610fec576040516333d1c03960e21b815260040160405180910390fd5b610ff4610fa0565b60009283526006016020525060409020546001600160a01b031690565b6000807f0c89d3aad1b583c77a2e9f9fffa651b386c9c29e300bf2a8e2f3de1bb0100a0090506001600160a01b038316600080516020613b5a833981519152546001600160a01b03161480159061097557506001600160a01b0383166000908152600182016020526040902054158061097557506001600160a01b038316600090815260018201602052604090205442109392505050565b61073c828260016122f0565b6000806110c0610fa0565b600101546110cc610fa0565b540303919050565b6000806110df610fa0565b60008481526004820160205260408120549350909150600160e01b83169003611155578160000361114f578054831061112b57604051636f96cda160e11b815260040160405180910390fd5b5b60001990920160008181526004840160205260409020549092909150811561112c575b50919050565b50604051636f96cda160e11b815260040160405180910390fd5b600080600061117c610fa0565b60009485526006016020525050604090912080549092909150565b6001600160a01b038416158015906111b357506111b384611011565b156111d157604051630ed551c360e41b815260040160405180910390fd5b610df9565b6111d18484836123a5565b600061074a612447565b60006111f5611cd7565b65ffffffffffff1682106112425760405162461bcd60e51b81526020600482015260146024820152730566f7465733a20667574757265206c6f6f6b75760641b6044820152606401610a50565b61127961124e836124bb565b6001600160a01b0385166000908152600080516020613b9a83398151915260205260409020906124f0565b6001600160e01b03169392505050565b6000611293610fa0565b54919050565b6112a48660026125a4565b6112af8560006125a4565b6112b8836125c8565b60008481527f7fc24c9500f4388b797f8975c0991ad4ffd0338c2cbf5335b2bf5b7fe57477016020908152604080832080546001600160a01b0319166001600160a01b03881690811790915581516080810183528a81528084018a9052808301899052426060820152908452600080516020613bba8339815191529092529091208151600080516020613b5a833981519152929190819061135990826138e0565b506020820151600182019061136e90826138e0565b5060408281015160028301556060909201516003918201558151808301835285815260208082018690526001600160a01b03881660009081529285019052919020815181906113bd90826138e0565b50602082015160018201906113d290826138e0565b50505050505050505050565b60006113e8610fa0565b549050600082900361140d5760405163b562e8dd60e01b815260040160405180910390fd5b61141a6000848385611197565b68010000000000000001820261142e610fa0565b6001600160a01b038516600081815260059290920160205260409091208054929092019091554260a01b6001841460e11b1717611469610fa0565b600083815260049190910160205260408120919091556001600160a01b0384169083830190839083907fddf252ad1be2c89b69c2b068fc378daa952ba7f163c4a11628f55a4df523b3ef8180a4600183015b8181146114f357808360007fddf252ad1be2c89b69c2b068fc378daa952ba7f163c4a11628f55a4df523b3ef600080a46001016114bb565b508160000361151457604051622e076360e81b815260040160405180910390fd5b8061151d610fa0565b5550610a03905060008483856111d6565b6115398160016125a4565b7f7fc24c9500f4388b797f8975c0991ad4ffd0338c2cbf5335b2bf5b7fe574770461156482826138e0565b507f8fe3adc25723aa6a0b7eb4b4bacf52e92165c180bde5353f7cf606fbf5591f2b81604051611594919061322e565b60405180910390a150565b6060436115aa611cd7565b65ffffffffffff16146115ff5760405162461bcd60e51b815260206004820152601860248201527f566f7465733a2062726f6b656e20636c6f636b206d6f646500000000000000006044820152606401610a50565b5060408051808201909152601d81527f6d6f64653d626c6f636b6e756d6265722666726f6d3d64656661756c74000000602082015290565b6001600160a01b0390811660009081527f423fcc3514229d79a30fb79b40a232f70b3fabdf664a75db0859c67848497f6560205260409020541690565b61167d816125c8565b600080516020613b5a83398151915280546001600160a01b0383166001600160a01b03199091168117825560408051918252517f64c14256e532eac2ec90ddc4973ed2d3f5623faf7951d90eec38f9b7812f99a79181900360200190a15050565b60006116e983611637565b6001600160a01b0384811660008181527f423fcc3514229d79a30fb79b40a232f70b3fabdf664a75db0859c67848497f65602052604080822080546001600160a01b031916888616908117909155905194955093928516927f3134e8a2e6d97e929a7e54011ea5485d7d196dd5f0ba4d4ef95803e8e3fc257f9190a4610a038183611773866125ef565b6125fa565b6117b16040518060c001604052806060815260200160608152602001600081526020016000815260200160608152602001606081525090565b6001600160a01b0382166000908152600080516020613bba833981519152602090815260408083207f7fc24c9500f4388b797f8975c0991ad4ffd0338c2cbf5335b2bf5b7fe574770390925291829020825160c081019093528154919290918190849061181d90613864565b80601f016020809104026020016040519081016040528092919081815260200182805461184990613864565b80156118965780601f1061186b57610100808354040283529160200191611896565b820191906000526020600020905b81548152906001019060200180831161187957829003601f168201915b505050505081526020018360010180546118af90613864565b80601f01602080910402602001604051908101604052809291908181526020018280546118db90613864565b80156119285780601f106118fd57610100808354040283529160200191611928565b820191906000526020600020905b81548152906001019060200180831161190b57829003601f168201915b50505050508152602001836002015481526020018360030154815260200182600001805461195590613864565b80601f016020809104026020016040519081016040528092919081815260200182805461198190613864565b80156119ce5780601f106119a3576101008083540402835291602001916119ce565b820191906000526020600020905b8154815290600101906020018083116119b157829003601f168201915b505050505081526020018260010180546119e790613864565b80601f0160208091040260200160405190810160405280929190818152602001828054611a1390613864565b8015611a605780601f10611a3557610100808354040283529160200191611a60565b820191906000526020600020905b815481529060010190602001808311611a4357829003601f168201915b505050505081525092505050919050565b60006001600160a01b038216611a9a576040516323d3ad8160e21b815260040160405180910390fd5b67ffffffffffffffff611aab610fa0565b6005016000846001600160a01b03166001600160a01b0316815260200190815260200160002054169050919050565b33611ae76103cf83611be7565b6001600160a01b031614610a625760405163dbfcf17d60e01b815260040160405180910390fd5b611b198460026125a4565b611b248360006125a4565b6001600160a01b0385166000908152600080516020613bba83398151915260205260409020600080516020613b5a8339815191529080611b6487826138e0565b5060018101611b7386826138e0565b506001600160a01b0387166000908152600383016020526040902080611b9986826138e0565b5060018101611ba885826138e0565b506040516001600160a01b038916907f66da702131703ee5e745ecf2f5b98311caa00729edd55541baad49289fc42ed890600090a25050505050505050565b6001600160a01b03166000908152600080516020613bba833981519152602052604090206002015490565b6060600080516020613b7a833981519152610656565b6060600080516020613b7a833981519152610d63565b6000611c48611cd7565b65ffffffffffff168210611c955760405162461bcd60e51b81526020600482015260146024820152730566f7465733a20667574757265206c6f6f6b75760641b6044820152606401610a50565b611cc8611ca1836124bb565b7f423fcc3514229d79a30fb79b40a232f70b3fabdf664a75db0859c67848497f67906124f0565b6001600160e01b031692915050565b600061074a4361277b565b6001600160a01b0381166000908152600080516020613b9a83398151915260205260408120611cc8906127ae565b80611d19610fa0565b336000818152600792909201602090815260408084206001600160a01b03881680865290835293819020805460ff19169515159590951790945592518415158152919290917f17307eab39ab6107e8899845ad3d59bd9653f200f220920489ca2b5937696c31910160405180910390a35050565b604051630a85bd0160e11b81526000906001600160a01b0385169063150b7a0290611dc29033908990889088906004016139a0565b6020604051808303816000875af1925050508015611dfd575060408051601f3d908101601f19168201909252611dfa918101906139dd565b60015b611e5b573d808015611e2b576040519150601f19603f3d011682016040523d82523d6000602084013e611e30565b606091505b508051600003611e53576040516368d2bf6b60e11b815260040160405180910390fd5b805181602001fd5b6001600160e01b031916630a85bd0160e11b1490505b949350505050565b83421115611ec95760405162461bcd60e51b815260206004820152601860248201527f566f7465733a207369676e6174757265206578706972656400000000000000006044820152606401610a50565b604080517fe48329057bfd03d55e49b547132e39cffd9c1820ad7b9d4c5307691425d15adf60208201526001600160a01b038816918101919091526060810186905260808101859052600090611f4390611f3b9060a001604051602081830303815290604052805190602001206127e7565b858585612814565b9050611f4f8187612842565b611f5981886116de565b50505050505050565b6000611f6c610fa0565b54821080156106f25750600160e01b611f83610fa0565b60008481526004919091016020526040902054161592915050565b60008181527f7fc24c9500f4388b797f8975c0991ad4ffd0338c2cbf5335b2bf5b7fe57477016020526040902054606090600080516020613b5a833981519152906001600160a01b0316806120065760405163af5f208f60e01b815260040160405180910390fd5b6001600160a01b0381166000908152600283016020526040902060018101805461202f90613864565b1590506120cd5780600101805461204590613864565b80601f016020809104026020016040519081016040528092919081815260200182805461207190613864565b80156120be5780601f10612093576101008083540402835291602001916120be565b820191906000526020600020905b8154815290600101906020018083116120a157829003601f168201915b50505050509350505050919050565b60008360040180546120de90613864565b80601f016020809104026020016040519081016040528092919081815260200182805461210a90613864565b80156121575780601f1061212c57610100808354040283529160200191612157565b820191906000526020600020905b81548152906001019060200180831161213a57829003601f168201915b50505050509050600081519050806000036121855760405163cd251ac560e01b815260040160405180910390fd5b81600182038151811061219a5761219a613a07565b6020910101516001600160f81b031916602f60f81b146121f357816121c7856001600160a01b03166128b4565b6040516020016121d8929190613a1d565b60405160208183030381529060405295505050505050919050565b81612206856001600160a01b03166128b4565b6040516020016121d8929190613a59565b6122276380ac58cd60e01b61295d565b612237635b5e139f60e01b61295d565b61073c8282612a36565b6060600080516020613b5a833981519152600401805461066490613864565b7f59b501c3653afc186af7d48dda36cf6732bd21629a6295693664240a6ef5200054600160201b900460ff166122a957604051630ef4733760e31b815260040160405180910390fd5b61073c8282612a68565b60006122bd610fa0565b6001600160a01b039384166000908152600791909101602090815260408083209490951682529290925250205460ff1690565b60006122fb83610ad9565b9050811561233a57336001600160a01b0382161461233a5761231d81336122b3565b61233a576040516367d9dca160e11b815260040160405180910390fd5b83612343610fa0565b6000858152600691909101602052604080822080546001600160a01b0319166001600160a01b0394851617905551859287811692908516917f8c5be1e5ebec7d5bd14f71427d1e84f3dd0314c0f7b2291e5b200ac8c7c3b9259190a450505050565b6001600160a01b0383166123eb576123e87f423fcc3514229d79a30fb79b40a232f70b3fabdf664a75db0859c67848497f67612afa6123e384612b06565b612b3a565b50505b6001600160a01b03821661242c576124297f423fcc3514229d79a30fb79b40a232f70b3fabdf664a75db0859c67848497f67612b836123e384612b06565b50505b610a0361243884611637565b61244184611637565b836125fa565b60007f8b73c3c69bb8fe3d512ecc4cf759cc79239f7b179b0ffacaa9a75d522b39400f612472612b8f565b61247a612bf5565b60408051602081019490945283019190915260608201524660808201523060a082015260c00160405160208183030381529060405280519060200120905090565b600063ffffffff8211156124ec576040516306dfcc6560e41b81526020600482015260248101839052604401610a50565b5090565b81546000908181600581111561254d57600061250b84612c45565b6125159085613a9e565b60008881526020902090915081015463ffffffff908116908716101561253d5780915061254b565b612548816001613ab1565b92505b505b600061255b87878585612d9d565b905080156125965761258087612572600184613a9e565b600091825260209091200190565b54600160201b90046001600160e01b0316612599565b60005b979650505050505050565b81518290821115610a03576040516374eb20a760e01b815260040160405180910390fd5b6001600160a01b038116610a62576040516302e47d1560e41b815260040160405180910390fd5b60006106f282610b62565b816001600160a01b0316836001600160a01b03161415801561261c5750600081115b15610a03576001600160a01b038316156126cc576001600160a01b0383166000908152600080516020613b9a83398151915260205260408120819061266790612b836123e386612b06565b6001600160e01b031691506001600160e01b03169150846001600160a01b03167fdec2bacdd2f05b59de34da9b523dff8be42e5e38e818c82fdb0bae774387a72483836040516126c1929190918252602082015260400190565b60405180910390a250505b6001600160a01b03821615610a03576001600160a01b0382166000908152600080516020613b9a83398151915260205260408120819061271290612afa6123e386612b06565b6001600160e01b031691506001600160e01b03169150836001600160a01b03167fdec2bacdd2f05b59de34da9b523dff8be42e5e38e818c82fdb0bae774387a724838360405161276c929190918252602082015260400190565b60405180910390a25050505050565b600065ffffffffffff8211156124ec576040516306dfcc6560e41b81526030600482015260248101839052604401610a50565b805460009080156127de576127c883612572600184613a9e565b54600160201b90046001600160e01b0316610975565b60009392505050565b60006106f26127f46111e1565b8360405161190160f01b8152600281019290925260228201526042902090565b60008060008061282688888888612dfb565b9250925092506128368282612eca565b50909695505050505050565b6001600160a01b03821660009081527fda5d6d87446d81938877f0ee239dac391146dd7466ea30567f72becf06773c0060205260409020805460018101909155818114610a03576040516301d4b62360e61b81526001600160a01b038416600482015260248101829052604401610a50565b60606128bf82612f83565b6028602282019081209192507f4040404040404040404040404040404040404040404040404040404040404040917f888888888888888888888888888888888888888888888888888888888888888016601160f31b60005b82811a82028180015260018101906012190161291757505050818151166000511660011c8151188152602081019050818151166020511660011c81511881525050919050565b6001600160e01b0319811660009081527f81088bbc801e045ea3e7620779ab349988f58afbdfba10dff983df3f33522b00602052604090205460ff166129e5576001600160e01b0319811660009081527f81088bbc801e045ea3e7620779ab349988f58afbdfba10dff983df3f33522b0060205260409020805460ff191660011790556129fe565b604051637967f77d60e11b815260040160405180910390fd5b6040516001600160e01b03198216907f78f84e5b1c5c05be2b5ad3800781dd404d6d6c6302bc755c0fe20f58a33a7f2290600090a250565b6000612a40610fa0565b905060028101612a5084826138e0565b5060038101612a5f83826138e0565b50600090555050565b7f3a497e775dc7c283402f0d3c39c5f0ea53870eb15ab2dddfde5a1162a84c336e612a9383826138e0565b507f3a497e775dc7c283402f0d3c39c5f0ea53870eb15ab2dddfde5a1162a84c336f612abf82826138e0565b50506000600080516020613b7a8339815191528190557f3a497e775dc7c283402f0d3c39c5f0ea53870eb15ab2dddfde5a1162a84c336d5550565b60006109758284613ac4565b60006001600160e01b038211156124ec576040516306dfcc6560e41b815260e0600482015260248101839052604401610a50565b600080612b76612b58612b4b611cd7565b65ffffffffffff166124bb565b612b6e612b64886127ae565b868863ffffffff16565b879190612fa7565b915091505b935093915050565b60006109758284613aeb565b600080612b9a611c12565b805190915015612bb1578051602090910120919050565b600080516020613b7a833981519152548015612bcd5792915050565b7fc5d2460186f7233c927e7db2dcc703c0e500b653ca82273b7bfad8045d85a4709250505090565b600080612c00611c28565b805190915015612c17578051602090910120919050565b7f3a497e775dc7c283402f0d3c39c5f0ea53870eb15ab2dddfde5a1162a84c336d548015612bcd5792915050565b600060018211612c53575090565b816001600160801b8210612c6c5760809190911c9060401b5b680100000000000000008210612c875760409190911c9060201b5b600160201b8210612c9d5760209190911c9060101b5b620100008210612cb25760109190911c9060081b5b6101008210612cc65760089190911c9060041b5b60108210612cd95760049190911c9060021b5b60048210612ce55760011b5b600302600190811c90818581612cfd57612cfd613b0b565b048201901c90506001818581612d1557612d15613b0b565b048201901c90506001818581612d2d57612d2d613b0b565b048201901c90506001818581612d4557612d45613b0b565b048201901c90506001818581612d5d57612d5d613b0b565b048201901c90506001818581612d7557612d75613b0b565b048201901c9050612d94818581612d8e57612d8e613b0b565b04821190565b90039392505050565b60005b81831015612df3576000612db48484612fb5565b60008781526020902090915063ffffffff86169082015463ffffffff161115612ddf57809250612ded565b612dea816001613ab1565b93505b50612da0565b509392505050565b600080807f7fffffffffffffffffffffffffffffff5d576e7357a4501ddfe92f46681b20a0841115612e365750600091506003905082612ec0565b604080516000808252602082018084528a905260ff891692820192909252606081018790526080810186905260019060a0016020604051602081039080840390855afa158015612e8a573d6000803e3d6000fd5b5050604051601f1901519150506001600160a01b038116612eb657506000925060019150829050612ec0565b9250600091508190505b9450945094915050565b6000826003811115612ede57612ede613b21565b03612ee7575050565b6001826003811115612efb57612efb613b21565b03612f195760405163f645eedf60e01b815260040160405180910390fd5b6002826003811115612f2d57612f2d613b21565b03612f4e5760405163fce698f760e01b815260048101829052602401610a50565b6003826003811115612f6257612f62613b21565b0361073c576040516335e2f38360e21b815260048101829052602401610a50565b6060612f8e82612fd0565b8051613078825260020160011990910190815292915050565b600080612b7685858561303f565b6000612fc46002848418613b37565b61097590848416613ab1565b60606040519050608081016040526f30313233343536373839616263646566600f526002810190506028815260208101600060288201528260601b925060005b808101820184821a600f81165160018301538060041c5182535050600181019060121901613010575050919050565b82546000908190801561318557600061305d87612572600185613a9e565b60408051808201909152905463ffffffff808216808452600160201b9092046001600160e01b0316602084015291925090871610156130de5760405162461bcd60e51b815260206004820152601b60248201527f436865636b706f696e743a2064656372656173696e67206b65797300000000006044820152606401610a50565b805163ffffffff80881691160361312657846130ff88612572600186613a9e565b80546001600160e01b0392909216600160201b0263ffffffff909216919091179055613175565b6040805180820190915263ffffffff80881682526001600160e01b0380881660208085019182528b54600181018d5560008d81529190912094519151909216600160201b029216919091179101555b602001519250839150612b7b9050565b50506040805180820190915263ffffffff80851682526001600160e01b0380851660208085019182528854600181018a5560008a815291822095519251909316600160201b029190931617920191909155905081612b7b565b60005b838110156131f95781810151838201526020016131e1565b50506000910152565b6000815180845261321a8160208601602086016131de565b601f01601f19169290920160200192915050565b6020815260006109756020830184613202565b60006020828403121561325357600080fd5b5035919050565b80356001600160a01b038116811461327157600080fd5b919050565b6000806040838503121561328957600080fd5b6132928361325a565b946020939093013593505050565b6000806000606084860312156132b557600080fd5b6132be8461325a565b92506132cc6020850161325a565b9150604084013590509250925092565b634e487b7160e01b600052604160045260246000fd5b600067ffffffffffffffff8084111561330d5761330d6132dc565b604051601f8501601f19908116603f01168101908282118183101715613335576133356132dc565b8160405280935085815286868601111561334e57600080fd5b858560208301376000602087830101525050509392505050565b600082601f83011261337957600080fd5b610975838335602085016132f2565b600080600080600060a086880312156133a057600080fd5b853567ffffffffffffffff808211156133b857600080fd5b6133c489838a01613368565b965060208801359150808211156133da57600080fd5b6133e689838a01613368565b95506133f46040890161325a565b9450606088013591508082111561340a57600080fd5b61341689838a01613368565b9350608088013591508082111561342c57600080fd5b5061343988828901613368565b9150509295509295909350565b60006020828403121561345857600080fd5b813567ffffffffffffffff81111561346f57600080fd5b611e7184828501613368565b60006020828403121561348d57600080fd5b6109758261325a565b602081526000825160c060208401526134b260e0840182613202565b90506020840151601f19808584030160408601526134d08383613202565b9250604086015160608601526060860151608086015260808601519150808584030160a08601526135018383613202565b925060a08601519150808584030160c08601525061351f8282613202565b95945050505050565b600080600080600060a0868803121561354057600080fd5b6135498661325a565b9450602086013567ffffffffffffffff8082111561356657600080fd5b61357289838a01613368565b9550604088013591508082111561358857600080fd5b6133f489838a01613368565b60ff60f81b881681526000602060e060208401526135b560e084018a613202565b83810360408501526135c7818a613202565b606085018990526001600160a01b038816608086015260a0850187905284810360c08601528551808252602080880193509091019060005b8181101561361b578351835292840192918401916001016135ff565b50909c9b505050505050505050505050565b6000806040838503121561364057600080fd5b6136498361325a565b91506020830135801515811461365e57600080fd5b809150509250929050565b6000806000806080858703121561367f57600080fd5b6136888561325a565b93506136966020860161325a565b925060408501359150606085013567ffffffffffffffff8111156136b957600080fd5b8501601f810187136136ca57600080fd5b6136d9878235602084016132f2565b91505092959194509250565b60008060008060008060c087890312156136fe57600080fd5b6137078761325a565b95506020870135945060408701359350606087013560ff8116811461372b57600080fd5b9598949750929560808101359460a0909101359350915050565b6000806040838503121561375857600080fd5b823567ffffffffffffffff8082111561377057600080fd5b61377c86838701613368565b9350602085013591508082111561379257600080fd5b5061379f85828601613368565b9150509250929050565b6000806000606084860312156137be57600080fd5b833567ffffffffffffffff808211156137d657600080fd5b6137e287838801613368565b945060208601359150808211156137f857600080fd5b61380487838801613368565b9350604086013591508082111561381a57600080fd5b5061382786828701613368565b9150509250925092565b6000806040838503121561384457600080fd5b61384d8361325a565b915061385b6020840161325a565b90509250929050565b600181811c9082168061387857607f821691505b60208210810361114f57634e487b7160e01b600052602260045260246000fd5b601f821115610a03576000816000526020600020601f850160051c810160208610156138c15750805b601f850160051c820191505b81811015610957578281556001016138cd565b815167ffffffffffffffff8111156138fa576138fa6132dc565b61390e816139088454613864565b84613898565b602080601f831160018114613943576000841561392b5750858301515b600019600386901b1c1916600185901b178555610957565b600085815260208120601f198616915b8281101561397257888601518255948401946001909101908401613953565b50858210156139905787850151600019600388901b60f8161c191681555b5050505050600190811b01905550565b6001600160a01b03858116825284166020820152604081018390526080606082018190526000906139d390830184613202565b9695505050505050565b6000602082840312156139ef57600080fd5b81516001600160e01b03198116811461097557600080fd5b634e487b7160e01b600052603260045260246000fd5b60008351613a2f8184602088016131de565b602f60f81b9083019081528351613a4d8160018401602088016131de565b01600101949350505050565b60008351613a6b8184602088016131de565b835190830190613a7f8183602088016131de565b01949350505050565b634e487b7160e01b600052601160045260246000fd5b818103818111156106f2576106f2613a88565b808201808211156106f2576106f2613a88565b6001600160e01b03818116838216019080821115613ae457613ae4613a88565b5092915050565b6001600160e01b03828116828216039080821115613ae457613ae4613a88565b634e487b7160e01b600052601260045260246000fd5b634e487b7160e01b600052602160045260246000fd5b600082613b5457634e487b7160e01b600052601260045260246000fd5b50049056fe7fc24c9500f4388b797f8975c0991ad4ffd0338c2cbf5335b2bf5b7fe57477003a497e775dc7c283402f0d3c39c5f0ea53870eb15ab2dddfde5a1162a84c336c423fcc3514229d79a30fb79b40a232f70b3fabdf664a75db0859c67848497f667fc24c9500f4388b797f8975c0991ad4ffd0338c2cbf5335b2bf5b7fe5747702","linkReferences":{}},"methodIdentifiers":{"CLOCK_MODE()":"4bf5d7e9","DOMAIN_SEPARATOR()":"3644e515","__ERC721A_init(string,string)":"d2f01f19","__SpaceOwner_init(string,string,string)":"d7a901d3","approve(address,uint256)":"095ea7b3","balanceOf(address)":"70a08231","clock()":"91ddadf4","delegate(address)":"5c19a95c","delegateBySig(address,uint256,uint256,uint8,bytes32,bytes32)":"c3cda520","delegates(address)":"587cde1e","eip712Domain()":"84b0196e","getApproved(uint256)":"081812fc","getDefaultUri()":"d6536540","getFactory()":"88cc58e4","getPastTotalSupply(uint256)":"8e539e8c","getPastVotes(address,uint256)":"3a46b1a8","getSpaceByTokenId(uint256)":"673f0dd5","getSpaceInfo(address)":"6a9a38e6","getVotes(address)":"9ab24eb0","isApprovedForAll(address,address)":"e985e9c5","mintSpace(string,string,address,string,string)":"3bf5b8f4","name()":"06fdde03","nextTokenId()":"75794a3c","nonces(address)":"7ecebe00","ownerOf(uint256)":"6352211e","safeTransferFrom(address,address,uint256)":"42842e0e","safeTransferFrom(address,address,uint256,bytes)":"b88d4fde","setApprovalForAll(address,bool)":"a22cb465","setDefaultUri(string)":"466a18de","setFactory(address)":"5bb47808","symbol()":"95d89b41","tokenURI(uint256)":"c87b56dd","totalSupply()":"18160ddd","transferFrom(address,address,uint256)":"23b872dd","updateSpaceInfo(address,string,string,string,string)":"84880614"},"id":262}