{"abi":[{"type":"function","name":"CLOCK_MODE","inputs":[],"outputs":[{"name":"","type":"string","internalType":"string"}],"stateMutability":"view"},{"type":"function","name":"DOMAIN_SEPARATOR","inputs":[],"outputs":[{"name":"result","type":"bytes32","internalType":"bytes32"}],"stateMutability":"view"},{"type":"function","name":"__ERC721A_init","inputs":[{"name":"name_","type":"string","internalType":"string"},{"name":"symbol_","type":"string","internalType":"string"}],"outputs":[],"stateMutability":"nonpayable"},{"type":"function","name":"__SpaceOwner_init","inputs":[{"name":"name","type":"string","internalType":"string"},{"name":"symbol","type":"string","internalType":"string"},{"name":"version","type":"string","internalType":"string"}],"outputs":[],"stateMutability":"nonpayable"},{"type":"function","name":"approve","inputs":[{"name":"to","type":"address","internalType":"address"},{"name":"tokenId","type":"uint256","internalType":"uint256"}],"outputs":[],"stateMutability":"payable"},{"type":"function","name":"balanceOf","inputs":[{"name":"owner","type":"address","internalType":"address"}],"outputs":[{"name":"","type":"uint256","internalType":"uint256"}],"stateMutability":"view"},{"type":"function","name":"clock","inputs":[],"outputs":[{"name":"","type":"uint48","internalType":"uint48"}],"stateMutability":"view"},{"type":"function","name":"delegate","inputs":[{"name":"delegatee","type":"address","internalType":"address"}],"outputs":[],"stateMutability":"nonpayable"},{"type":"function","name":"delegateBySig","inputs":[{"name":"delegatee","type":"address","internalType":"address"},{"name":"nonce","type":"uint256","internalType":"uint256"},{"name":"expiry","type":"uint256","internalType":"uint256"},{"name":"v","type":"uint8","internalType":"uint8"},{"name":"r","type":"bytes32","internalType":"bytes32"},{"name":"s","type":"bytes32","internalType":"bytes32"}],"outputs":[],"stateMutability":"nonpayable"},{"type":"function","name":"delegates","inputs":[{"name":"account","type":"address","internalType":"address"}],"outputs":[{"name":"","type":"address","internalType":"address"}],"stateMutability":"view"},{"type":"function","name":"eip712Domain","inputs":[],"outputs":[{"name":"fields","type":"bytes1","internalType":"bytes1"},{"name":"name","type":"string","internalType":"string"},{"name":"version","type":"string","internalType":"string"},{"name":"chainId","type":"uint256","internalType":"uint256"},{"name":"verifyingContract","type":"address","internalType":"address"},{"name":"salt","type":"bytes32","internalType":"bytes32"},{"name":"extensions","type":"uint256[]","internalType":"uint256[]"}],"stateMutability":"view"},{"type":"function","name":"getApproved","inputs":[{"name":"tokenId","type":"uint256","internalType":"uint256"}],"outputs":[{"name":"","type":"address","internalType":"address"}],"stateMutability":"view"},{"type":"function","name":"getDefaultUri","inputs":[],"outputs":[{"name":"","type":"string","internalType":"string"}],"stateMutability":"view"},{"type":"function","name":"getFactory","inputs":[],"outputs":[{"name":"","type":"address","internalType":"address"}],"stateMutability":"view"},{"type":"function","name":"getPastTotalSupply","inputs":[{"name":"timepoint","type":"uint256","internalType":"uint256"}],"outputs":[{"name":"","type":"uint256","internalType":"uint256"}],"stateMutability":"view"},{"type":"function","name":"getPastVotes","inputs":[{"name":"account","type":"address","internalType":"address"},{"name":"timepoint","type":"uint256","internalType":"uint256"}],"outputs":[{"name":"","type":"uint256","internalType":"uint256"}],"stateMutability":"view"},{"type":"function","name":"getSpaceInfo","inputs":[{"name":"space","type":"address","internalType":"address"}],"outputs":[{"name":"","type":"tuple","internalType":"struct ISpaceOwnerBase.Space","components":[{"name":"name","type":"string","internalType":"string"},{"name":"uri","type":"string","internalType":"string"},{"name":"tokenId","type":"uint256","internalType":"uint256"},{"name":"createdAt","type":"uint256","internalType":"uint256"},{"name":"shortDescription","type":"string","internalType":"string"},{"name":"longDescription","type":"string","internalType":"string"}]}],"stateMutability":"view"},{"type":"function","name":"getVotes","inputs":[{"name":"account","type":"address","internalType":"address"}],"outputs":[{"name":"","type":"uint256","internalType":"uint256"}],"stateMutability":"view"},{"type":"function","name":"isApprovedForAll","inputs":[{"name":"owner","type":"address","internalType":"address"},{"name":"operator","type":"address","internalType":"address"}],"outputs":[{"name":"","type":"bool","internalType":"bool"}],"stateMutability":"view"},{"type":"function","name":"mintSpace","inputs":[{"name":"name","type":"string","internalType":"string"},{"name":"uri","type":"string","internalType":"string"},{"name":"space","type":"address","internalType":"address"},{"name":"shortDescription","type":"string","internalType":"string"},{"name":"longDescription","type":"string","internalType":"string"}],"outputs":[{"name":"tokenId","type":"uint256","internalType":"uint256"}],"stateMutability":"nonpayable"},{"type":"function","name":"name","inputs":[],"outputs":[{"name":"","type":"string","internalType":"string"}],"stateMutability":"view"},{"type":"function","name":"nextTokenId","inputs":[],"outputs":[{"name":"","type":"uint256","internalType":"uint256"}],"stateMutability":"view"},{"type":"function","name":"nonces","inputs":[{"name":"owner","type":"address","internalType":"address"}],"outputs":[{"name":"result","type":"uint256","internalType":"uint256"}],"stateMutability":"view"},{"type":"function","name":"ownerOf","inputs":[{"name":"tokenId","type":"uint256","internalType":"uint256"}],"outputs":[{"name":"","type":"address","internalType":"address"}],"stateMutability":"view"},{"type":"function","name":"safeTransferFrom","inputs":[{"name":"from","type":"address","internalType":"address"},{"name":"to","type":"address","internalType":"address"},{"name":"tokenId","type":"uint256","internalType":"uint256"}],"outputs":[],"stateMutability":"payable"},{"type":"function","name":"safeTransferFrom","inputs":[{"name":"from","type":"address","internalType":"address"},{"name":"to","type":"address","internalType":"address"},{"name":"tokenId","type":"uint256","internalType":"uint256"},{"name":"_data","type":"bytes","internalType":"bytes"}],"outputs":[],"stateMutability":"payable"},{"type":"function","name":"setApprovalForAll","inputs":[{"name":"operator","type":"address","internalType":"address"},{"name":"approved","type":"bool","internalType":"bool"}],"outputs":[],"stateMutability":"nonpayable"},{"type":"function","name":"setDefaultUri","inputs":[{"name":"uri","type":"string","internalType":"string"}],"outputs":[],"stateMutability":"nonpayable"},{"type":"function","name":"setFactory","inputs":[{"name":"factory","type":"address","internalType":"address"}],"outputs":[],"stateMutability":"nonpayable"},{"type":"function","name":"symbol","inputs":[],"outputs":[{"name":"","type":"string","internalType":"string"}],"stateMutability":"view"},{"type":"function","name":"tokenURI","inputs":[{"name":"tokenId","type":"uint256","internalType":"uint256"}],"outputs":[{"name":"","type":"string","internalType":"string"}],"stateMutability":"view"},{"type":"function","name":"totalSupply","inputs":[],"outputs":[{"name":"","type":"uint256","internalType":"uint256"}],"stateMutability":"view"},{"type":"function","name":"transferFrom","inputs":[{"name":"from","type":"address","internalType":"address"},{"name":"to","type":"address","internalType":"address"},{"name":"tokenId","type":"uint256","internalType":"uint256"}],"outputs":[],"stateMutability":"payable"},{"type":"function","name":"updateSpaceInfo","inputs":[{"name":"space","type":"address","internalType":"address"},{"name":"name","type":"string","internalType":"string"},{"name":"uri","type":"string","internalType":"string"},{"name":"shortDescription","type":"string","internalType":"string"},{"name":"longDescription","type":"string","internalType":"string"}],"outputs":[],"stateMutability":"nonpayable"},{"type":"event","name":"Approval","inputs":[{"name":"owner","type":"address","indexed":true,"internalType":"address"},{"name":"approved","type":"address","indexed":true,"internalType":"address"},{"name":"tokenId","type":"uint256","indexed":true,"internalType":"uint256"}],"anonymous":false},{"type":"event","name":"ApprovalForAll","inputs":[{"name":"owner","type":"address","indexed":true,"internalType":"address"},{"name":"operator","type":"address","indexed":true,"internalType":"address"},{"name":"approved","type":"bool","indexed":false,"internalType":"bool"}],"anonymous":false},{"type":"event","name":"ConsecutiveTransfer","inputs":[{"name":"fromTokenId","type":"uint256","indexed":true,"internalType":"uint256"},{"name":"toTokenId","type":"uint256","indexed":false,"internalType":"uint256"},{"name":"from","type":"address","indexed":true,"internalType":"address"},{"name":"to","type":"address","indexed":true,"internalType":"address"}],"anonymous":false},{"type":"event","name":"DelegateChanged","inputs":[{"name":"delegator","type":"address","indexed":true,"internalType":"address"},{"name":"fromDelegate","type":"address","indexed":true,"internalType":"address"},{"name":"toDelegate","type":"address","indexed":true,"internalType":"address"}],"anonymous":false},{"type":"event","name":"DelegateVotesChanged","inputs":[{"name":"delegate","type":"address","indexed":true,"internalType":"address"},{"name":"previousVotes","type":"uint256","indexed":false,"internalType":"uint256"},{"name":"newVotes","type":"uint256","indexed":false,"internalType":"uint256"}],"anonymous":false},{"type":"event","name":"EIP712DomainChanged","inputs":[],"anonymous":false},{"type":"event","name":"GuardianDefaultCooldownUpdated","inputs":[{"name":"cooldown","type":"uint256","indexed":true,"internalType":"uint256"}],"anonymous":false},{"type":"event","name":"GuardianUpdated","inputs":[{"name":"caller","type":"address","indexed":true,"internalType":"address"},{"name":"enabled","type":"bool","indexed":true,"internalType":"bool"},{"name":"cooldown","type":"uint256","indexed":false,"internalType":"uint256"},{"name":"timestamp","type":"uint256","indexed":false,"internalType":"uint256"}],"anonymous":false},{"type":"event","name":"Initialized","inputs":[{"name":"version","type":"uint32","indexed":false,"internalType":"uint32"}],"anonymous":false},{"type":"event","name":"InterfaceAdded","inputs":[{"name":"interfaceId","type":"bytes4","indexed":true,"internalType":"bytes4"}],"anonymous":false},{"type":"event","name":"InterfaceRemoved","inputs":[{"name":"interfaceId","type":"bytes4","indexed":true,"internalType":"bytes4"}],"anonymous":false},{"type":"event","name":"MetadataUpdate","inputs":[{"name":"_tokenId","type":"uint256","indexed":false,"internalType":"uint256"}],"anonymous":false},{"type":"event","name":"OwnershipTransferred","inputs":[{"name":"previousOwner","type":"address","indexed":true,"internalType":"address"},{"name":"newOwner","type":"address","indexed":true,"internalType":"address"}],"anonymous":false},{"type":"event","name":"SpaceOwner__SetDefaultUri","inputs":[{"name":"uri","type":"string","indexed":false,"internalType":"string"}],"anonymous":false},{"type":"event","name":"SpaceOwner__SetFactory","inputs":[{"name":"factory","type":"address","indexed":false,"internalType":"address"}],"anonymous":false},{"type":"event","name":"SpaceOwner__UpdateSpace","inputs":[{"name":"space","type":"address","indexed":true,"internalType":"address"}],"anonymous":false},{"type":"event","name":"Transfer","inputs":[{"name":"from","type":"address","indexed":true,"internalType":"address"},{"name":"to","type":"address","indexed":true,"internalType":"address"},{"name":"tokenId","type":"uint256","indexed":true,"internalType":"uint256"}],"anonymous":false},{"type":"error","name":"ApprovalCallerNotOwnerNorApproved","inputs":[]},{"type":"error","name":"ApprovalQueryForNonexistentToken","inputs":[]},{"type":"error","name":"BalanceQueryForZeroAddress","inputs":[]},{"type":"error","name":"ECDSAInvalidSignature","inputs":[]},{"type":"error","name":"ECDSAInvalidSignatureLength","inputs":[{"name":"length","type":"uint256","internalType":"uint256"}]},{"type":"error","name":"ECDSAInvalidSignatureS","inputs":[{"name":"s","type":"bytes32","internalType":"bytes32"}]},{"type":"error","name":"Guardian_AlreadyDisabled","inputs":[]},{"type":"error","name":"Guardian_AlreadyEnabled","inputs":[]},{"type":"error","name":"Guardian_Enabled","inputs":[]},{"type":"error","name":"Initializable_AlreadyInitialized","inputs":[{"name":"version","type":"uint32","internalType":"uint32"}]},{"type":"error","name":"Initializable_InInitializingState","inputs":[]},{"type":"error","name":"Initializable_NotInInitializingState","inputs":[]},{"type":"error","name":"Introspection_AlreadySupported","inputs":[]},{"type":"error","name":"Introspection_NotSupported","inputs":[]},{"type":"error","name":"InvalidAccountNonce","inputs":[{"name":"account","type":"address","internalType":"address"},{"name":"currentNonce","type":"uint256","internalType":"uint256"}]},{"type":"error","name":"MintERC2309QuantityExceedsLimit","inputs":[]},{"type":"error","name":"MintToZeroAddress","inputs":[]},{"type":"error","name":"MintZeroQuantity","inputs":[]},{"type":"error","name":"Ownable__NotOwner","inputs":[{"name":"account","type":"address","internalType":"address"}]},{"type":"error","name":"Ownable__ZeroAddress","inputs":[]},{"type":"error","name":"OwnerQueryForNonexistentToken","inputs":[]},{"type":"error","name":"OwnershipNotInitializedForExtraData","inputs":[]},{"type":"error","name":"SafeCastOverflowedUintDowncast","inputs":[{"name":"bits","type":"uint8","internalType":"uint8"},{"name":"value","type":"uint256","internalType":"uint256"}]},{"type":"error","name":"SpaceOwner__DefaultUriNotSet","inputs":[]},{"type":"error","name":"SpaceOwner__OnlyFactoryAllowed","inputs":[]},{"type":"error","name":"SpaceOwner__OnlySpaceOwnerAllowed","inputs":[]},{"type":"error","name":"SpaceOwner__SpaceNotFound","inputs":[]},{"type":"error","name":"TransferCallerNotOwnerNorApproved","inputs":[]},{"type":"error","name":"TransferFromIncorrectOwner","inputs":[]},{"type":"error","name":"TransferToNonERC721ReceiverImplementer","inputs":[]},{"type":"error","name":"TransferToZeroAddress","inputs":[]},{"type":"error","name":"URIQueryForNonexistentToken","inputs":[]},{"type":"error","name":"Validator__InvalidAddress","inputs":[]},{"type":"error","name":"Validator__InvalidStringLength","inputs":[]},{"type":"error","name":"VotesExpiredSignature","inputs":[{"name":"expiry","type":"uint256","internalType":"uint256"}]}],"bytecode":{"object":"0x60806040523480156200001157600080fd5b506200001c62000022565b620000ca565b7f59b501c3653afc186af7d48dda36cf6732bd21629a6295693664240a6ef520008054640100000000900460ff16156200006f576040516366008a2d60e01b815260040160405180910390fd5b805463ffffffff9081161015620000c757805463ffffffff191663ffffffff90811782556040519081527fe9c9b456cb2994b80aeef036cf59d26e9617df80f816a6ee5a5b4166e07e2f5c9060200160405180910390a15b50565b613b7380620000da6000396000f3fe6080604052600436106101f95760003560e01c806375794a3c1161010d5780639ab24eb0116100a0578063c87b56dd1161006f578063c87b56dd1461057c578063d2f01f191461059c578063d6536540146105bc578063d7a901d3146105d1578063e985e9c5146105f157600080fd5b80639ab24eb014610509578063a22cb46514610529578063b88d4fde14610549578063c3cda5201461055c57600080fd5b806388cc58e4116100dc57806388cc58e4146104935780638e539e8c146104a857806391ddadf4146104c857806395d89b41146104f457600080fd5b806375794a3c146104165780637ecebe001461042b578063848806141461044b57806384b0196e1461046b57600080fd5b806342842e0e116101905780635bb478081161015f5780635bb47808146103695780635c19a95c146103895780636352211e146103a95780636a9a38e6146103c957806370a08231146103f657600080fd5b806342842e0e14610301578063466a18de146103145780634bf5d7e914610334578063587cde1e1461034957600080fd5b806323b872dd116101cc57806323b872dd146102995780633644e515146102ac5780633a46b1a8146102c15780633bf5b8f4146102e157600080fd5b806306fdde03146101fe578063081812fc14610229578063095ea7b31461026157806318160ddd14610276575b600080fd5b34801561020a57600080fd5b50610213610621565b60405161022091906131c7565b60405180910390f35b34801561023557600080fd5b506102496102443660046131da565b6106bc565b6040516001600160a01b039091168152602001610220565b61027461026f36600461320f565b6106cd565b005b34801561028257600080fd5b5061028b610715565b604051908152602001610220565b6102746102a7366004613239565b610724565b3480156102b857600080fd5b5061028b610934565b3480156102cd57600080fd5b5061028b6102dc36600461320f565b61093e565b3480156102ed57600080fd5b5061028b6102fc366004613321565b610951565b61027461030f366004613239565b6109bd565b34801561032057600080fd5b5061027461032f3660046133df565b6109dd565b34801561034057600080fd5b50610213610a3a565b34801561035557600080fd5b50610249610364366004613414565b610a44565b34801561037557600080fd5b50610274610384366004613414565b610a4f565b34801561039557600080fd5b506102746103a4366004613414565b610aa4565b3480156103b557600080fd5b506102496103c43660046131da565b610aae565b3480156103d557600080fd5b506103e96103e4366004613414565b610ab9565b604051610220919061342f565b34801561040257600080fd5b5061028b610411366004613414565b610afb565b34801561042257600080fd5b5061028b610b06565b34801561043757600080fd5b5061028b610446366004613414565b610b10565b34801561045757600080fd5b506102746104663660046134c1565b610b4d565b34801561047757600080fd5b50610480610bf9565b604051610220979695949392919061352d565b34801561049f57600080fd5b50610249610cbc565b3480156104b457600080fd5b5061028b6104c33660046131da565b610cdd565b3480156104d457600080fd5b506104dd610ce8565b60405165ffffffffffff9091168152602001610220565b34801561050057600080fd5b50610213610cf2565b34801561051557600080fd5b5061028b610524366004613414565b610d0a565b34801561053557600080fd5b506102746105443660046135c6565b610d15565b610274610557366004613602565b610d4e565b34801561056857600080fd5b5061027461057736600461367e565b610d98565b34801561058857600080fd5b506102136105973660046131da565b610da6565b3480156105a857600080fd5b506102746105b73660046136de565b610dd7565b3480156105c857600080fd5b50610213610e2a565b3480156105dd57600080fd5b506102746105ec366004613742565b610e34565b3480156105fd57600080fd5b5061061161060c3660046137ca565b610f2d565b6040519015158152602001610220565b606061062b610f39565b6002018054610639906137fd565b80601f0160208091040260200160405190810160405280929190818152602001828054610665906137fd565b80156106b25780601f10610687576101008083540402835291602001916106b2565b820191906000526020600020905b81548152906001019060200180831161069557829003601f168201915b5050505050905090565b60006106c782610f5d565b92915050565b6001600160a01b038216158015906106e957506106e933610faa565b1561070757604051630ed551c360e41b815260040160405180910390fd5b6107118282611042565b5050565b600061071f61104e565b905090565b600061072f8261106d565b9050836001600160a01b0316816001600160a01b0316146107625760405162a1148160e81b815260040160405180910390fd5b60008061076e84611108565b91509150610793818761077e3390565b6001600160a01b039081169116811491141790565b6107be576107a18633610f2d565b6107be57604051632ce44b5f60e11b815260040160405180910390fd5b6001600160a01b0385166107e557604051633a954ecd60e21b815260040160405180910390fd5b6107f28686866001611130565b80156107fd57600082555b610805610f39565b6001600160a01b0387166000908152600591909101602052604090208054600019019055610831610f39565b6001600160a01b03861660008181526005929092016020526040909120805460010190554260a01b17600160e11b17610868610f39565b60008681526004919091016020526040812091909155600160e11b841690036108de5760018401610897610f39565b6000828152600491909101602052604081205490036108dc576108b8610f39565b5481146108dc57836108c8610f39565b600083815260049190910160205260409020555b505b83856001600160a01b0316876001600160a01b03167fddf252ad1be2c89b69c2b068fc378daa952ba7f163c4a11628f55a4df523b3ef60405160405180910390a461092c868686600161116f565b505050505050565b600061071f61117a565b600061094a8383611184565b9392505050565b600080600080516020613af383398151915280549091506001600160a01b031633146109905760405163443e750b60e11b815260040160405180910390fd5b610998611222565b91506109a8878784888888611232565b6109b3336001611377565b5095945050505050565b6109d883838360405180602001604052806000815250610d4e565b505050565b7f4675fa8241f86f37157864d3d49b85ad4b164352c516da28e1678a90470ae300546001600160a01b03163314610a2e576040516365f4906560e01b81523360048201526024015b60405180910390fd5b610a37816114c7565b50565b606061071f611538565b60006106c7826115d0565b7f4675fa8241f86f37157864d3d49b85ad4b164352c516da28e1678a90470ae300546001600160a01b03163314610a9b576040516365f4906560e01b8152336004820152602401610a25565b610a378161160d565b610a373382611677565b60006106c78261106d565b610af26040518060c001604052806060815260200160608152602001600081526020016000815260200160608152602001606081525090565b6106c782611711565b60006106c782611a0a565b600061071f611222565b6001600160a01b03811660009081527fda5d6d87446d81938877f0ee239dac391146dd7466ea30567f72becf06773c0060205260408120546106c7565b610b5685611a73565b610b638585858585611aa7565b846001600160a01b031663410066056040518163ffffffff1660e01b8152600401600060405180830381600087803b158015610b9e57600080fd5b505af1158015610bb2573d6000803e3d6000fd5b505050507ff8e1a15aba9398e019f0b49df1a4fde98ee17ae345cb5f6b5e2c27f5033e8ce7610be086611b80565b6040519081526020015b60405180910390a15050505050565b600060608082808083600080516020613b1383398151915254158015610c3e57507f3a497e775dc7c283402f0d3c39c5f0ea53870eb15ab2dddfde5a1162a84c336d54155b610c825760405162461bcd60e51b81526020600482015260156024820152741152540dcc4c8e88155b9a5b9a5d1a585b1a5e9959605a1b6044820152606401610a25565b610c8a611bab565b610c92611bc1565b60408051600080825260208201909252600f60f81b9b939a50919850469750309650945092509050565b600061071f600080516020613af3833981519152546001600160a01b031690565b60006106c782611bd7565b600061071f611c70565b6060610cfc610f39565b6003018054610639906137fd565b60006106c782611c7b565b808015610d265750610d2633610faa565b15610d4457604051630ed551c360e41b815260040160405180910390fd5b6107118282611ca9565b610d59848484610724565b6001600160a01b0383163b15610d9257610d7584848484611d26565b610d92576040516368d2bf6b60e11b815260040160405180910390fd5b50505050565b61092c868686868686611e12565b6060610db182611efb565b610dce57604051630a14c4b560e41b815260040160405180910390fd5b6106c782611f37565b7f59b501c3653afc186af7d48dda36cf6732bd21629a6295693664240a6ef5200054600160201b900460ff16610e2057604051630ef4733760e31b815260040160405180910390fd5b61071182826121b0565b606061071f6121da565b7f59b501c3653afc186af7d48dda36cf6732bd21629a6295693664240a6ef520008054600160201b900460ff161580610e7057303b1515610e7f565b8154600163ffffffff90911610155b15610ea8578154604051630a8ef77f60e31b815263ffffffff9091166004820152602401610a25565b815463ffffffff191660011782558015610ecf57815464ff000000001916600160201b1782555b610ed985856121b0565b610ee385846121f9565b8015610f2657815464ff0000000019168255604051600181527fe9c9b456cb2994b80aeef036cf59d26e9617df80f816a6ee5a5b4166e07e2f5c90602001610bea565b5050505050565b600061094a838361224c565b7f6569bde4a160c636ea8b8d11acb83a60d7fec0b8f2e09389306cba0e1340df0090565b6000610f6882611efb565b610f85576040516333d1c03960e21b815260040160405180910390fd5b610f8d610f39565b60009283526006016020525060409020546001600160a01b031690565b6000807f0c89d3aad1b583c77a2e9f9fffa651b386c9c29e300bf2a8e2f3de1bb0100a0090506001600160a01b038316600080516020613af3833981519152546001600160a01b03161480159061094a57506001600160a01b0383166000908152600182016020526040902054158061094a57506001600160a01b038316600090815260018201602052604090205442109392505050565b61071182826001612289565b600080611059610f39565b60010154611065610f39565b540303919050565b600080611078610f39565b60008481526004820160205260408120549350909150600160e01b831690036110ee57816000036110e857805483106110c457604051636f96cda160e11b815260040160405180910390fd5b5b6000199092016000818152600484016020526040902054909290915081156110c5575b50919050565b50604051636f96cda160e11b815260040160405180910390fd5b6000806000611115610f39565b60009485526006016020525050604090912080549092909150565b6001600160a01b0384161580159061114c575061114c84610faa565b1561116a57604051630ed551c360e41b815260040160405180910390fd5b610d92565b61116a84848361233e565b600061071f6123e0565b600061118e611c70565b65ffffffffffff1682106111db5760405162461bcd60e51b81526020600482015260146024820152730566f7465733a20667574757265206c6f6f6b75760641b6044820152606401610a25565b6112126111e783612454565b6001600160a01b0385166000908152600080516020613b338339815191526020526040902090612489565b6001600160e01b03169392505050565b600061122c610f39565b54919050565b61123d86600261253d565b61124885600061253d565b61125183612561565b60008481527f7fc24c9500f4388b797f8975c0991ad4ffd0338c2cbf5335b2bf5b7fe57477016020908152604080832080546001600160a01b0319166001600160a01b03881690811790915581516080810183528a81528084018a9052808301899052426060820152908452600080516020613b538339815191529092529091208151600080516020613af383398151915292919081906112f29082613879565b50602082015160018201906113079082613879565b5060408281015160028301556060909201516003918201558151808301835285815260208082018690526001600160a01b03881660009081529285019052919020815181906113569082613879565b506020820151600182019061136b9082613879565b50505050505050505050565b6000611381610f39565b54905060008290036113a65760405163b562e8dd60e01b815260040160405180910390fd5b6113b36000848385611130565b6801000000000000000182026113c7610f39565b6001600160a01b038516600081815260059290920160205260409091208054929092019091554260a01b6001841460e11b1717611402610f39565b600083815260049190910160205260408120919091556001600160a01b0384169083830190839083907fddf252ad1be2c89b69c2b068fc378daa952ba7f163c4a11628f55a4df523b3ef8180a4600183015b81811461148c57808360007fddf252ad1be2c89b69c2b068fc378daa952ba7f163c4a11628f55a4df523b3ef600080a4600101611454565b50816000036114ad57604051622e076360e81b815260040160405180910390fd5b806114b6610f39565b55506109d89050600084838561116f565b6114d281600161253d565b7f7fc24c9500f4388b797f8975c0991ad4ffd0338c2cbf5335b2bf5b7fe57477046114fd8282613879565b507f8fe3adc25723aa6a0b7eb4b4bacf52e92165c180bde5353f7cf606fbf5591f2b8160405161152d91906131c7565b60405180910390a150565b606043611543611c70565b65ffffffffffff16146115985760405162461bcd60e51b815260206004820152601860248201527f566f7465733a2062726f6b656e20636c6f636b206d6f646500000000000000006044820152606401610a25565b5060408051808201909152601d81527f6d6f64653d626c6f636b6e756d6265722666726f6d3d64656661756c74000000602082015290565b6001600160a01b0390811660009081527f423fcc3514229d79a30fb79b40a232f70b3fabdf664a75db0859c67848497f6560205260409020541690565b61161681612561565b600080516020613af383398151915280546001600160a01b0383166001600160a01b03199091168117825560408051918252517f64c14256e532eac2ec90ddc4973ed2d3f5623faf7951d90eec38f9b7812f99a79181900360200190a15050565b6000611682836115d0565b6001600160a01b0384811660008181527f423fcc3514229d79a30fb79b40a232f70b3fabdf664a75db0859c67848497f65602052604080822080546001600160a01b031916888616908117909155905194955093928516927f3134e8a2e6d97e929a7e54011ea5485d7d196dd5f0ba4d4ef95803e8e3fc257f9190a46109d8818361170c86612588565b612593565b61174a6040518060c001604052806060815260200160608152602001600081526020016000815260200160608152602001606081525090565b6001600160a01b0382166000908152600080516020613b53833981519152602090815260408083207f7fc24c9500f4388b797f8975c0991ad4ffd0338c2cbf5335b2bf5b7fe574770390925291829020825160c08101909352815491929091819084906117b6906137fd565b80601f01602080910402602001604051908101604052809291908181526020018280546117e2906137fd565b801561182f5780601f106118045761010080835404028352916020019161182f565b820191906000526020600020905b81548152906001019060200180831161181257829003601f168201915b50505050508152602001836001018054611848906137fd565b80601f0160208091040260200160405190810160405280929190818152602001828054611874906137fd565b80156118c15780601f10611896576101008083540402835291602001916118c1565b820191906000526020600020905b8154815290600101906020018083116118a457829003601f168201915b5050505050815260200183600201548152602001836003015481526020018260000180546118ee906137fd565b80601f016020809104026020016040519081016040528092919081815260200182805461191a906137fd565b80156119675780601f1061193c57610100808354040283529160200191611967565b820191906000526020600020905b81548152906001019060200180831161194a57829003601f168201915b50505050508152602001826001018054611980906137fd565b80601f01602080910402602001604051908101604052809291908181526020018280546119ac906137fd565b80156119f95780601f106119ce576101008083540402835291602001916119f9565b820191906000526020600020905b8154815290600101906020018083116119dc57829003601f168201915b505050505081525092505050919050565b60006001600160a01b038216611a33576040516323d3ad8160e21b815260040160405180910390fd5b67ffffffffffffffff611a44610f39565b6005016000846001600160a01b03166001600160a01b0316815260200190815260200160002054169050919050565b33611a806103c483611b80565b6001600160a01b031614610a375760405163dbfcf17d60e01b815260040160405180910390fd5b611ab284600261253d565b611abd83600061253d565b6001600160a01b0385166000908152600080516020613b5383398151915260205260409020600080516020613af38339815191529080611afd8782613879565b5060018101611b0c8682613879565b506001600160a01b0387166000908152600383016020526040902080611b328682613879565b5060018101611b418582613879565b506040516001600160a01b038916907f66da702131703ee5e745ecf2f5b98311caa00729edd55541baad49289fc42ed890600090a25050505050505050565b6001600160a01b03166000908152600080516020613b53833981519152602052604090206002015490565b6060600080516020613b1383398151915261062b565b6060600080516020613b13833981519152610cfc565b6000611be1611c70565b65ffffffffffff168210611c2e5760405162461bcd60e51b81526020600482015260146024820152730566f7465733a20667574757265206c6f6f6b75760641b6044820152606401610a25565b611c61611c3a83612454565b7f423fcc3514229d79a30fb79b40a232f70b3fabdf664a75db0859c67848497f6790612489565b6001600160e01b031692915050565b600061071f43612714565b6001600160a01b0381166000908152600080516020613b3383398151915260205260408120611c6190612747565b80611cb2610f39565b336000818152600792909201602090815260408084206001600160a01b03881680865290835293819020805460ff19169515159590951790945592518415158152919290917f17307eab39ab6107e8899845ad3d59bd9653f200f220920489ca2b5937696c31910160405180910390a35050565b604051630a85bd0160e11b81526000906001600160a01b0385169063150b7a0290611d5b903390899088908890600401613939565b6020604051808303816000875af1925050508015611d96575060408051601f3d908101601f19168201909252611d9391810190613976565b60015b611df4573d808015611dc4576040519150601f19603f3d011682016040523d82523d6000602084013e611dc9565b606091505b508051600003611dec576040516368d2bf6b60e11b815260040160405180910390fd5b805181602001fd5b6001600160e01b031916630a85bd0160e11b1490505b949350505050565b83421115611e625760405162461bcd60e51b815260206004820152601860248201527f566f7465733a207369676e6174757265206578706972656400000000000000006044820152606401610a25565b604080517fe48329057bfd03d55e49b547132e39cffd9c1820ad7b9d4c5307691425d15adf60208201526001600160a01b038816918101919091526060810186905260808101859052600090611edc90611ed49060a00160405160208183030381529060405280519060200120612780565b8585856127ad565b9050611ee881876127db565b611ef28188611677565b50505050505050565b6000611f05610f39565b54821080156106c75750600160e01b611f1c610f39565b60008481526004919091016020526040902054161592915050565b60008181527f7fc24c9500f4388b797f8975c0991ad4ffd0338c2cbf5335b2bf5b7fe57477016020526040902054606090600080516020613af3833981519152906001600160a01b031680611f9f5760405163af5f208f60e01b815260040160405180910390fd5b6001600160a01b03811660009081526002830160205260409020600181018054611fc8906137fd565b15905061206657806001018054611fde906137fd565b80601f016020809104026020016040519081016040528092919081815260200182805461200a906137fd565b80156120575780601f1061202c57610100808354040283529160200191612057565b820191906000526020600020905b81548152906001019060200180831161203a57829003601f168201915b50505050509350505050919050565b6000836004018054612077906137fd565b80601f01602080910402602001604051908101604052809291908181526020018280546120a3906137fd565b80156120f05780601f106120c5576101008083540402835291602001916120f0565b820191906000526020600020905b8154815290600101906020018083116120d357829003601f168201915b505050505090506000815190508060000361211e5760405163cd251ac560e01b815260040160405180910390fd5b816001820381518110612133576121336139a0565b6020910101516001600160f81b031916602f60f81b1461218c5781612160856001600160a01b031661284d565b6040516020016121719291906139b6565b60405160208183030381529060405295505050505050919050565b8161219f856001600160a01b031661284d565b6040516020016121719291906139f2565b6121c06380ac58cd60e01b6128f6565b6121d0635b5e139f60e01b6128f6565b61071182826129cf565b6060600080516020613af38339815191526004018054610639906137fd565b7f59b501c3653afc186af7d48dda36cf6732bd21629a6295693664240a6ef5200054600160201b900460ff1661224257604051630ef4733760e31b815260040160405180910390fd5b6107118282612a01565b6000612256610f39565b6001600160a01b039384166000908152600791909101602090815260408083209490951682529290925250205460ff1690565b600061229483610aae565b905081156122d357336001600160a01b038216146122d3576122b6813361224c565b6122d3576040516367d9dca160e11b815260040160405180910390fd5b836122dc610f39565b6000858152600691909101602052604080822080546001600160a01b0319166001600160a01b0394851617905551859287811692908516917f8c5be1e5ebec7d5bd14f71427d1e84f3dd0314c0f7b2291e5b200ac8c7c3b9259190a450505050565b6001600160a01b038316612384576123817f423fcc3514229d79a30fb79b40a232f70b3fabdf664a75db0859c67848497f67612a9361237c84612a9f565b612ad3565b50505b6001600160a01b0382166123c5576123c27f423fcc3514229d79a30fb79b40a232f70b3fabdf664a75db0859c67848497f67612b1c61237c84612a9f565b50505b6109d86123d1846115d0565b6123da846115d0565b83612593565b60007f8b73c3c69bb8fe3d512ecc4cf759cc79239f7b179b0ffacaa9a75d522b39400f61240b612b28565b612413612b8e565b60408051602081019490945283019190915260608201524660808201523060a082015260c00160405160208183030381529060405280519060200120905090565b600063ffffffff821115612485576040516306dfcc6560e41b81526020600482015260248101839052604401610a25565b5090565b8154600090818160058111156124e65760006124a484612bde565b6124ae9085613a37565b60008881526020902090915081015463ffffffff90811690871610156124d6578091506124e4565b6124e1816001613a4a565b92505b505b60006124f487878585612d36565b9050801561252f576125198761250b600184613a37565b600091825260209091200190565b54600160201b90046001600160e01b0316612532565b60005b979650505050505050565b815182908211156109d8576040516374eb20a760e01b815260040160405180910390fd5b6001600160a01b038116610a37576040516302e47d1560e41b815260040160405180910390fd5b60006106c782610afb565b816001600160a01b0316836001600160a01b0316141580156125b55750600081115b156109d8576001600160a01b03831615612665576001600160a01b0383166000908152600080516020613b3383398151915260205260408120819061260090612b1c61237c86612a9f565b6001600160e01b031691506001600160e01b03169150846001600160a01b03167fdec2bacdd2f05b59de34da9b523dff8be42e5e38e818c82fdb0bae774387a724838360405161265a929190918252602082015260400190565b60405180910390a250505b6001600160a01b038216156109d8576001600160a01b0382166000908152600080516020613b338339815191526020526040812081906126ab90612a9361237c86612a9f565b6001600160e01b031691506001600160e01b03169150836001600160a01b03167fdec2bacdd2f05b59de34da9b523dff8be42e5e38e818c82fdb0bae774387a7248383604051612705929190918252602082015260400190565b60405180910390a25050505050565b600065ffffffffffff821115612485576040516306dfcc6560e41b81526030600482015260248101839052604401610a25565b80546000908015612777576127618361250b600184613a37565b54600160201b90046001600160e01b031661094a565b60009392505050565b60006106c761278d61117a565b8360405161190160f01b8152600281019290925260228201526042902090565b6000806000806127bf88888888612d94565b9250925092506127cf8282612e63565b50909695505050505050565b6001600160a01b03821660009081527fda5d6d87446d81938877f0ee239dac391146dd7466ea30567f72becf06773c00602052604090208054600181019091558181146109d8576040516301d4b62360e61b81526001600160a01b038416600482015260248101829052604401610a25565b606061285882612f1c565b6028602282019081209192507f4040404040404040404040404040404040404040404040404040404040404040917f888888888888888888888888888888888888888888888888888888888888888016601160f31b60005b82811a8202818001526001810190601219016128b057505050818151166000511660011c8151188152602081019050818151166020511660011c81511881525050919050565b6001600160e01b0319811660009081527f81088bbc801e045ea3e7620779ab349988f58afbdfba10dff983df3f33522b00602052604090205460ff1661297e576001600160e01b0319811660009081527f81088bbc801e045ea3e7620779ab349988f58afbdfba10dff983df3f33522b0060205260409020805460ff19166001179055612997565b604051637967f77d60e11b815260040160405180910390fd5b6040516001600160e01b03198216907f78f84e5b1c5c05be2b5ad3800781dd404d6d6c6302bc755c0fe20f58a33a7f2290600090a250565b60006129d9610f39565b9050600281016129e98482613879565b50600381016129f88382613879565b50600090555050565b7f3a497e775dc7c283402f0d3c39c5f0ea53870eb15ab2dddfde5a1162a84c336e612a2c8382613879565b507f3a497e775dc7c283402f0d3c39c5f0ea53870eb15ab2dddfde5a1162a84c336f612a588282613879565b50506000600080516020613b138339815191528190557f3a497e775dc7c283402f0d3c39c5f0ea53870eb15ab2dddfde5a1162a84c336d5550565b600061094a8284613a5d565b60006001600160e01b03821115612485576040516306dfcc6560e41b815260e0600482015260248101839052604401610a25565b600080612b0f612af1612ae4611c70565b65ffffffffffff16612454565b612b07612afd88612747565b868863ffffffff16565b879190612f40565b915091505b935093915050565b600061094a8284613a84565b600080612b33611bab565b805190915015612b4a578051602090910120919050565b600080516020613b13833981519152548015612b665792915050565b7fc5d2460186f7233c927e7db2dcc703c0e500b653ca82273b7bfad8045d85a4709250505090565b600080612b99611bc1565b805190915015612bb0578051602090910120919050565b7f3a497e775dc7c283402f0d3c39c5f0ea53870eb15ab2dddfde5a1162a84c336d548015612b665792915050565b600060018211612bec575090565b816001600160801b8210612c055760809190911c9060401b5b680100000000000000008210612c205760409190911c9060201b5b600160201b8210612c365760209190911c9060101b5b620100008210612c4b5760109190911c9060081b5b6101008210612c5f5760089190911c9060041b5b60108210612c725760049190911c9060021b5b60048210612c7e5760011b5b600302600190811c90818581612c9657612c96613aa4565b048201901c90506001818581612cae57612cae613aa4565b048201901c90506001818581612cc657612cc6613aa4565b048201901c90506001818581612cde57612cde613aa4565b048201901c90506001818581612cf657612cf6613aa4565b048201901c90506001818581612d0e57612d0e613aa4565b048201901c9050612d2d818581612d2757612d27613aa4565b04821190565b90039392505050565b60005b81831015612d8c576000612d4d8484612f4e565b60008781526020902090915063ffffffff86169082015463ffffffff161115612d7857809250612d86565b612d83816001613a4a565b93505b50612d39565b509392505050565b600080807f7fffffffffffffffffffffffffffffff5d576e7357a4501ddfe92f46681b20a0841115612dcf5750600091506003905082612e59565b604080516000808252602082018084528a905260ff891692820192909252606081018790526080810186905260019060a0016020604051602081039080840390855afa158015612e23573d6000803e3d6000fd5b5050604051601f1901519150506001600160a01b038116612e4f57506000925060019150829050612e59565b9250600091508190505b9450945094915050565b6000826003811115612e7757612e77613aba565b03612e80575050565b6001826003811115612e9457612e94613aba565b03612eb25760405163f645eedf60e01b815260040160405180910390fd5b6002826003811115612ec657612ec6613aba565b03612ee75760405163fce698f760e01b815260048101829052602401610a25565b6003826003811115612efb57612efb613aba565b03610711576040516335e2f38360e21b815260048101829052602401610a25565b6060612f2782612f69565b8051613078825260020160011990910190815292915050565b600080612b0f858585612fd8565b6000612f5d6002848418613ad0565b61094a90848416613a4a565b60606040519050608081016040526f30313233343536373839616263646566600f526002810190506028815260208101600060288201528260601b925060005b808101820184821a600f81165160018301538060041c5182535050600181019060121901612fa9575050919050565b82546000908190801561311e576000612ff68761250b600185613a37565b60408051808201909152905463ffffffff808216808452600160201b9092046001600160e01b0316602084015291925090871610156130775760405162461bcd60e51b815260206004820152601b60248201527f436865636b706f696e743a2064656372656173696e67206b65797300000000006044820152606401610a25565b805163ffffffff8088169116036130bf57846130988861250b600186613a37565b80546001600160e01b0392909216600160201b0263ffffffff90921691909117905561310e565b6040805180820190915263ffffffff80881682526001600160e01b0380881660208085019182528b54600181018d5560008d81529190912094519151909216600160201b029216919091179101555b602001519250839150612b149050565b50506040805180820190915263ffffffff80851682526001600160e01b0380851660208085019182528854600181018a5560008a815291822095519251909316600160201b029190931617920191909155905081612b14565b60005b8381101561319257818101518382015260200161317a565b50506000910152565b600081518084526131b3816020860160208601613177565b601f01601f19169290920160200192915050565b60208152600061094a602083018461319b565b6000602082840312156131ec57600080fd5b5035919050565b80356001600160a01b038116811461320a57600080fd5b919050565b6000806040838503121561322257600080fd5b61322b836131f3565b946020939093013593505050565b60008060006060848603121561324e57600080fd5b613257846131f3565b9250613265602085016131f3565b9150604084013590509250925092565b634e487b7160e01b600052604160045260246000fd5b600067ffffffffffffffff808411156132a6576132a6613275565b604051601f8501601f19908116603f011681019082821181831017156132ce576132ce613275565b816040528093508581528686860111156132e757600080fd5b858560208301376000602087830101525050509392505050565b600082601f83011261331257600080fd5b61094a8383356020850161328b565b600080600080600060a0868803121561333957600080fd5b853567ffffffffffffffff8082111561335157600080fd5b61335d89838a01613301565b9650602088013591508082111561337357600080fd5b61337f89838a01613301565b955061338d604089016131f3565b945060608801359150808211156133a357600080fd5b6133af89838a01613301565b935060808801359150808211156133c557600080fd5b506133d288828901613301565b9150509295509295909350565b6000602082840312156133f157600080fd5b813567ffffffffffffffff81111561340857600080fd5b611e0a84828501613301565b60006020828403121561342657600080fd5b61094a826131f3565b602081526000825160c0602084015261344b60e084018261319b565b90506020840151601f1980858403016040860152613469838361319b565b9250604086015160608601526060860151608086015260808601519150808584030160a086015261349a838361319b565b925060a08601519150808584030160c0860152506134b8828261319b565b95945050505050565b600080600080600060a086880312156134d957600080fd5b6134e2866131f3565b9450602086013567ffffffffffffffff808211156134ff57600080fd5b61350b89838a01613301565b9550604088013591508082111561352157600080fd5b61338d89838a01613301565b60ff60f81b881681526000602060e0602084015261354e60e084018a61319b565b8381036040850152613560818a61319b565b606085018990526001600160a01b038816608086015260a0850187905284810360c08601528551808252602080880193509091019060005b818110156135b457835183529284019291840191600101613598565b50909c9b505050505050505050505050565b600080604083850312156135d957600080fd5b6135e2836131f3565b9150602083013580151581146135f757600080fd5b809150509250929050565b6000806000806080858703121561361857600080fd5b613621856131f3565b935061362f602086016131f3565b925060408501359150606085013567ffffffffffffffff81111561365257600080fd5b8501601f8101871361366357600080fd5b6136728782356020840161328b565b91505092959194509250565b60008060008060008060c0878903121561369757600080fd5b6136a0876131f3565b95506020870135945060408701359350606087013560ff811681146136c457600080fd5b9598949750929560808101359460a0909101359350915050565b600080604083850312156136f157600080fd5b823567ffffffffffffffff8082111561370957600080fd5b61371586838701613301565b9350602085013591508082111561372b57600080fd5b5061373885828601613301565b9150509250929050565b60008060006060848603121561375757600080fd5b833567ffffffffffffffff8082111561376f57600080fd5b61377b87838801613301565b9450602086013591508082111561379157600080fd5b61379d87838801613301565b935060408601359150808211156137b357600080fd5b506137c086828701613301565b9150509250925092565b600080604083850312156137dd57600080fd5b6137e6836131f3565b91506137f4602084016131f3565b90509250929050565b600181811c9082168061381157607f821691505b6020821081036110e857634e487b7160e01b600052602260045260246000fd5b601f8211156109d8576000816000526020600020601f850160051c8101602086101561385a5750805b601f850160051c820191505b8181101561092c57828155600101613866565b815167ffffffffffffffff81111561389357613893613275565b6138a7816138a184546137fd565b84613831565b602080601f8311600181146138dc57600084156138c45750858301515b600019600386901b1c1916600185901b17855561092c565b600085815260208120601f198616915b8281101561390b578886015182559484019460019091019084016138ec565b50858210156139295787850151600019600388901b60f8161c191681555b5050505050600190811b01905550565b6001600160a01b038581168252841660208201526040810183905260806060820181905260009061396c9083018461319b565b9695505050505050565b60006020828403121561398857600080fd5b81516001600160e01b03198116811461094a57600080fd5b634e487b7160e01b600052603260045260246000fd5b600083516139c8818460208801613177565b602f60f81b90830190815283516139e6816001840160208801613177565b01600101949350505050565b60008351613a04818460208801613177565b835190830190613a18818360208801613177565b01949350505050565b634e487b7160e01b600052601160045260246000fd5b818103818111156106c7576106c7613a21565b808201808211156106c7576106c7613a21565b6001600160e01b03818116838216019080821115613a7d57613a7d613a21565b5092915050565b6001600160e01b03828116828216039080821115613a7d57613a7d613a21565b634e487b7160e01b600052601260045260246000fd5b634e487b7160e01b600052602160045260246000fd5b600082613aed57634e487b7160e01b600052601260045260246000fd5b50049056fe7fc24c9500f4388b797f8975c0991ad4ffd0338c2cbf5335b2bf5b7fe57477003a497e775dc7c283402f0d3c39c5f0ea53870eb15ab2dddfde5a1162a84c336c423fcc3514229d79a30fb79b40a232f70b3fabdf664a75db0859c67848497f667fc24c9500f4388b797f8975c0991ad4ffd0338c2cbf5335b2bf5b7fe5747702","linkReferences":{}},"methodIdentifiers":{"CLOCK_MODE()":"4bf5d7e9","DOMAIN_SEPARATOR()":"3644e515","__ERC721A_init(string,string)":"d2f01f19","__SpaceOwner_init(string,string,string)":"d7a901d3","approve(address,uint256)":"095ea7b3","balanceOf(address)":"70a08231","clock()":"91ddadf4","delegate(address)":"5c19a95c","delegateBySig(address,uint256,uint256,uint8,bytes32,bytes32)":"c3cda520","delegates(address)":"587cde1e","eip712Domain()":"84b0196e","getApproved(uint256)":"081812fc","getDefaultUri()":"d6536540","getFactory()":"88cc58e4","getPastTotalSupply(uint256)":"8e539e8c","getPastVotes(address,uint256)":"3a46b1a8","getSpaceInfo(address)":"6a9a38e6","getVotes(address)":"9ab24eb0","isApprovedForAll(address,address)":"e985e9c5","mintSpace(string,string,address,string,string)":"3bf5b8f4","name()":"06fdde03","nextTokenId()":"75794a3c","nonces(address)":"7ecebe00","ownerOf(uint256)":"6352211e","safeTransferFrom(address,address,uint256)":"42842e0e","safeTransferFrom(address,address,uint256,bytes)":"b88d4fde","setApprovalForAll(address,bool)":"a22cb465","setDefaultUri(string)":"466a18de","setFactory(address)":"5bb47808","symbol()":"95d89b41","tokenURI(uint256)":"c87b56dd","totalSupply()":"18160ddd","transferFrom(address,address,uint256)":"23b872dd","updateSpaceInfo(address,string,string,string,string)":"84880614"},"id":257}