{"abi":[{"type":"function","name":"CLOCK_MODE","inputs":[],"outputs":[{"name":"","type":"string","internalType":"string"}],"stateMutability":"view"},{"type":"function","name":"DOMAIN_SEPARATOR","inputs":[],"outputs":[{"name":"result","type":"bytes32","internalType":"bytes32"}],"stateMutability":"view"},{"type":"function","name":"__ERC721A_init","inputs":[{"name":"name_","type":"string","internalType":"string"},{"name":"symbol_","type":"string","internalType":"string"}],"outputs":[],"stateMutability":"nonpayable"},{"type":"function","name":"__SpaceOwner_init","inputs":[{"name":"name","type":"string","internalType":"string"},{"name":"symbol","type":"string","internalType":"string"},{"name":"version","type":"string","internalType":"string"}],"outputs":[],"stateMutability":"nonpayable"},{"type":"function","name":"approve","inputs":[{"name":"to","type":"address","internalType":"address"},{"name":"tokenId","type":"uint256","internalType":"uint256"}],"outputs":[],"stateMutability":"payable"},{"type":"function","name":"balanceOf","inputs":[{"name":"owner","type":"address","internalType":"address"}],"outputs":[{"name":"","type":"uint256","internalType":"uint256"}],"stateMutability":"view"},{"type":"function","name":"clock","inputs":[],"outputs":[{"name":"","type":"uint48","internalType":"uint48"}],"stateMutability":"view"},{"type":"function","name":"delegate","inputs":[{"name":"delegatee","type":"address","internalType":"address"}],"outputs":[],"stateMutability":"nonpayable"},{"type":"function","name":"delegateBySig","inputs":[{"name":"delegatee","type":"address","internalType":"address"},{"name":"nonce","type":"uint256","internalType":"uint256"},{"name":"expiry","type":"uint256","internalType":"uint256"},{"name":"v","type":"uint8","internalType":"uint8"},{"name":"r","type":"bytes32","internalType":"bytes32"},{"name":"s","type":"bytes32","internalType":"bytes32"}],"outputs":[],"stateMutability":"nonpayable"},{"type":"function","name":"delegates","inputs":[{"name":"account","type":"address","internalType":"address"}],"outputs":[{"name":"","type":"address","internalType":"address"}],"stateMutability":"view"},{"type":"function","name":"eip712Domain","inputs":[],"outputs":[{"name":"fields","type":"bytes1","internalType":"bytes1"},{"name":"name","type":"string","internalType":"string"},{"name":"version","type":"string","internalType":"string"},{"name":"chainId","type":"uint256","internalType":"uint256"},{"name":"verifyingContract","type":"address","internalType":"address"},{"name":"salt","type":"bytes32","internalType":"bytes32"},{"name":"extensions","type":"uint256[]","internalType":"uint256[]"}],"stateMutability":"view"},{"type":"function","name":"getApproved","inputs":[{"name":"tokenId","type":"uint256","internalType":"uint256"}],"outputs":[{"name":"","type":"address","internalType":"address"}],"stateMutability":"view"},{"type":"function","name":"getFactory","inputs":[],"outputs":[{"name":"","type":"address","internalType":"address"}],"stateMutability":"view"},{"type":"function","name":"getPastTotalSupply","inputs":[{"name":"timepoint","type":"uint256","internalType":"uint256"}],"outputs":[{"name":"","type":"uint256","internalType":"uint256"}],"stateMutability":"view"},{"type":"function","name":"getPastVotes","inputs":[{"name":"account","type":"address","internalType":"address"},{"name":"timepoint","type":"uint256","internalType":"uint256"}],"outputs":[{"name":"","type":"uint256","internalType":"uint256"}],"stateMutability":"view"},{"type":"function","name":"getSpaceInfo","inputs":[{"name":"space","type":"address","internalType":"address"}],"outputs":[{"name":"","type":"tuple","internalType":"struct ISpaceOwnerBase.Space","components":[{"name":"name","type":"string","internalType":"string"},{"name":"uri","type":"string","internalType":"string"},{"name":"tokenId","type":"uint256","internalType":"uint256"},{"name":"createdAt","type":"uint256","internalType":"uint256"},{"name":"shortDescription","type":"string","internalType":"string"},{"name":"longDescription","type":"string","internalType":"string"}]}],"stateMutability":"view"},{"type":"function","name":"getVotes","inputs":[{"name":"account","type":"address","internalType":"address"}],"outputs":[{"name":"","type":"uint256","internalType":"uint256"}],"stateMutability":"view"},{"type":"function","name":"isApprovedForAll","inputs":[{"name":"owner","type":"address","internalType":"address"},{"name":"operator","type":"address","internalType":"address"}],"outputs":[{"name":"","type":"bool","internalType":"bool"}],"stateMutability":"view"},{"type":"function","name":"mintSpace","inputs":[{"name":"name","type":"string","internalType":"string"},{"name":"uri","type":"string","internalType":"string"},{"name":"space","type":"address","internalType":"address"},{"name":"shortDescription","type":"string","internalType":"string"},{"name":"longDescription","type":"string","internalType":"string"}],"outputs":[{"name":"tokenId","type":"uint256","internalType":"uint256"}],"stateMutability":"nonpayable"},{"type":"function","name":"name","inputs":[],"outputs":[{"name":"","type":"string","internalType":"string"}],"stateMutability":"view"},{"type":"function","name":"nextTokenId","inputs":[],"outputs":[{"name":"","type":"uint256","internalType":"uint256"}],"stateMutability":"view"},{"type":"function","name":"nonces","inputs":[{"name":"owner","type":"address","internalType":"address"}],"outputs":[{"name":"result","type":"uint256","internalType":"uint256"}],"stateMutability":"view"},{"type":"function","name":"ownerOf","inputs":[{"name":"tokenId","type":"uint256","internalType":"uint256"}],"outputs":[{"name":"","type":"address","internalType":"address"}],"stateMutability":"view"},{"type":"function","name":"safeTransferFrom","inputs":[{"name":"from","type":"address","internalType":"address"},{"name":"to","type":"address","internalType":"address"},{"name":"tokenId","type":"uint256","internalType":"uint256"}],"outputs":[],"stateMutability":"payable"},{"type":"function","name":"safeTransferFrom","inputs":[{"name":"from","type":"address","internalType":"address"},{"name":"to","type":"address","internalType":"address"},{"name":"tokenId","type":"uint256","internalType":"uint256"},{"name":"_data","type":"bytes","internalType":"bytes"}],"outputs":[],"stateMutability":"payable"},{"type":"function","name":"setApprovalForAll","inputs":[{"name":"operator","type":"address","internalType":"address"},{"name":"approved","type":"bool","internalType":"bool"}],"outputs":[],"stateMutability":"nonpayable"},{"type":"function","name":"setFactory","inputs":[{"name":"factory","type":"address","internalType":"address"}],"outputs":[],"stateMutability":"nonpayable"},{"type":"function","name":"symbol","inputs":[],"outputs":[{"name":"","type":"string","internalType":"string"}],"stateMutability":"view"},{"type":"function","name":"tokenURI","inputs":[{"name":"tokenId","type":"uint256","internalType":"uint256"}],"outputs":[{"name":"","type":"string","internalType":"string"}],"stateMutability":"view"},{"type":"function","name":"totalSupply","inputs":[],"outputs":[{"name":"","type":"uint256","internalType":"uint256"}],"stateMutability":"view"},{"type":"function","name":"transferFrom","inputs":[{"name":"from","type":"address","internalType":"address"},{"name":"to","type":"address","internalType":"address"},{"name":"tokenId","type":"uint256","internalType":"uint256"}],"outputs":[],"stateMutability":"payable"},{"type":"function","name":"updateSpaceInfo","inputs":[{"name":"space","type":"address","internalType":"address"},{"name":"name","type":"string","internalType":"string"},{"name":"uri","type":"string","internalType":"string"},{"name":"shortDescription","type":"string","internalType":"string"},{"name":"longDescription","type":"string","internalType":"string"}],"outputs":[],"stateMutability":"nonpayable"},{"type":"event","name":"Approval","inputs":[{"name":"owner","type":"address","indexed":true,"internalType":"address"},{"name":"approved","type":"address","indexed":true,"internalType":"address"},{"name":"tokenId","type":"uint256","indexed":true,"internalType":"uint256"}],"anonymous":false},{"type":"event","name":"ApprovalForAll","inputs":[{"name":"owner","type":"address","indexed":true,"internalType":"address"},{"name":"operator","type":"address","indexed":true,"internalType":"address"},{"name":"approved","type":"bool","indexed":false,"internalType":"bool"}],"anonymous":false},{"type":"event","name":"ConsecutiveTransfer","inputs":[{"name":"fromTokenId","type":"uint256","indexed":true,"internalType":"uint256"},{"name":"toTokenId","type":"uint256","indexed":false,"internalType":"uint256"},{"name":"from","type":"address","indexed":true,"internalType":"address"},{"name":"to","type":"address","indexed":true,"internalType":"address"}],"anonymous":false},{"type":"event","name":"DelegateChanged","inputs":[{"name":"delegator","type":"address","indexed":true,"internalType":"address"},{"name":"fromDelegate","type":"address","indexed":true,"internalType":"address"},{"name":"toDelegate","type":"address","indexed":true,"internalType":"address"}],"anonymous":false},{"type":"event","name":"DelegateVotesChanged","inputs":[{"name":"delegate","type":"address","indexed":true,"internalType":"address"},{"name":"previousBalance","type":"uint256","indexed":false,"internalType":"uint256"},{"name":"newBalance","type":"uint256","indexed":false,"internalType":"uint256"}],"anonymous":false},{"type":"event","name":"EIP712DomainChanged","inputs":[],"anonymous":false},{"type":"event","name":"GuardianUpdated","inputs":[{"name":"caller","type":"address","indexed":true,"internalType":"address"},{"name":"enabled","type":"bool","indexed":true,"internalType":"bool"},{"name":"cooldown","type":"uint256","indexed":false,"internalType":"uint256"},{"name":"timestamp","type":"uint256","indexed":false,"internalType":"uint256"}],"anonymous":false},{"type":"event","name":"Initialized","inputs":[{"name":"version","type":"uint32","indexed":false,"internalType":"uint32"}],"anonymous":false},{"type":"event","name":"InterfaceAdded","inputs":[{"name":"interfaceId","type":"bytes4","indexed":true,"internalType":"bytes4"}],"anonymous":false},{"type":"event","name":"InterfaceRemoved","inputs":[{"name":"interfaceId","type":"bytes4","indexed":true,"internalType":"bytes4"}],"anonymous":false},{"type":"event","name":"OwnershipTransferred","inputs":[{"name":"previousOwner","type":"address","indexed":true,"internalType":"address"},{"name":"newOwner","type":"address","indexed":true,"internalType":"address"}],"anonymous":false},{"type":"event","name":"SpaceOwner__SetFactory","inputs":[{"name":"factory","type":"address","indexed":false,"internalType":"address"}],"anonymous":false},{"type":"event","name":"SpaceOwner__UpdateSpace","inputs":[{"name":"space","type":"address","indexed":true,"internalType":"address"}],"anonymous":false},{"type":"event","name":"Transfer","inputs":[{"name":"from","type":"address","indexed":true,"internalType":"address"},{"name":"to","type":"address","indexed":true,"internalType":"address"},{"name":"tokenId","type":"uint256","indexed":true,"internalType":"uint256"}],"anonymous":false},{"type":"error","name":"AlreadyDisabled","inputs":[]},{"type":"error","name":"AlreadyEnabled","inputs":[]},{"type":"error","name":"ApprovalCallerNotOwnerNorApproved","inputs":[]},{"type":"error","name":"ApprovalQueryForNonexistentToken","inputs":[]},{"type":"error","name":"BalanceQueryForZeroAddress","inputs":[]},{"type":"error","name":"ECDSAInvalidSignature","inputs":[]},{"type":"error","name":"ECDSAInvalidSignatureLength","inputs":[{"name":"length","type":"uint256","internalType":"uint256"}]},{"type":"error","name":"ECDSAInvalidSignatureS","inputs":[{"name":"s","type":"bytes32","internalType":"bytes32"}]},{"type":"error","name":"GuardianEnabled","inputs":[]},{"type":"error","name":"Initializable_AlreadyInitialized","inputs":[{"name":"version","type":"uint32","internalType":"uint32"}]},{"type":"error","name":"Initializable_InInitializingState","inputs":[]},{"type":"error","name":"Initializable_NotInInitializingState","inputs":[]},{"type":"error","name":"Introspection_AlreadySupported","inputs":[]},{"type":"error","name":"Introspection_NotSupported","inputs":[]},{"type":"error","name":"InvalidAccountNonce","inputs":[{"name":"account","type":"address","internalType":"address"},{"name":"currentNonce","type":"uint256","internalType":"uint256"}]},{"type":"error","name":"MintERC2309QuantityExceedsLimit","inputs":[]},{"type":"error","name":"MintToZeroAddress","inputs":[]},{"type":"error","name":"MintZeroQuantity","inputs":[]},{"type":"error","name":"NotExternalAccount","inputs":[]},{"type":"error","name":"Ownable__NotOwner","inputs":[{"name":"account","type":"address","internalType":"address"}]},{"type":"error","name":"Ownable__ZeroAddress","inputs":[]},{"type":"error","name":"OwnerQueryForNonexistentToken","inputs":[]},{"type":"error","name":"OwnershipNotInitializedForExtraData","inputs":[]},{"type":"error","name":"SafeCastOverflowedUintDowncast","inputs":[{"name":"bits","type":"uint8","internalType":"uint8"},{"name":"value","type":"uint256","internalType":"uint256"}]},{"type":"error","name":"SpaceOwner__OnlyFactoryAllowed","inputs":[]},{"type":"error","name":"SpaceOwner__OnlySpaceOwnerAllowed","inputs":[]},{"type":"error","name":"TransferCallerNotOwnerNorApproved","inputs":[]},{"type":"error","name":"TransferFromIncorrectOwner","inputs":[]},{"type":"error","name":"TransferToNonERC721ReceiverImplementer","inputs":[]},{"type":"error","name":"TransferToZeroAddress","inputs":[]},{"type":"error","name":"URIQueryForNonexistentToken","inputs":[]},{"type":"error","name":"Validator__InvalidAddress","inputs":[]},{"type":"error","name":"Validator__InvalidStringLength","inputs":[]}],"bytecode":{"object":"0x60806040523480156200001157600080fd5b506200001c62000022565b620000ca565b7f59b501c3653afc186af7d48dda36cf6732bd21629a6295693664240a6ef520008054640100000000900460ff16156200006f576040516366008a2d60e01b815260040160405180910390fd5b805463ffffffff9081161015620000c757805463ffffffff191663ffffffff90811782556040519081527fe9c9b456cb2994b80aeef036cf59d26e9617df80f816a6ee5a5b4166e07e2f5c9060200160405180910390a15b50565b613ccc80620000da6000396000f3fe6080604052600436106101e35760003560e01c806375794a3c116101025780639ab24eb011610095578063c87b56dd11610064578063c87b56dd14610546578063d2f01f1914610566578063d7a901d314610586578063e985e9c5146105a657600080fd5b80639ab24eb0146104d3578063a22cb465146104f3578063b88d4fde14610513578063c3cda5201461052657600080fd5b806388cc58e4116100d157806388cc58e41461045d5780638e539e8c1461047257806391ddadf41461049257806395d89b41146104be57600080fd5b806375794a3c146103e05780637ecebe00146103f5578063848806141461041557806384b0196e1461043557600080fd5b806342842e0e1161017a5780635c19a95c116101495780635c19a95c146103535780636352211e146103735780636a9a38e61461039357806370a08231146103c057600080fd5b806342842e0e146102eb5780634bf5d7e9146102fe578063587cde1e146103135780635bb478081461033357600080fd5b806323b872dd116101b657806323b872dd146102835780633644e515146102965780633a46b1a8146102ab5780633bf5b8f4146102cb57600080fd5b806306fdde03146101e8578063081812fc14610213578063095ea7b31461024b57806318160ddd14610260575b600080fd5b3480156101f457600080fd5b506101fd6105d6565b60405161020a9190613258565b60405180910390f35b34801561021f57600080fd5b5061023361022e36600461326b565b610671565b6040516001600160a01b03909116815260200161020a565b61025e6102593660046132a0565b610682565b005b34801561026c57600080fd5b506102756106ca565b60405190815260200161020a565b61025e6102913660046132ca565b6106d9565b3480156102a257600080fd5b506102756108e9565b3480156102b757600080fd5b506102756102c63660046132a0565b6108f3565b3480156102d757600080fd5b506102756102e63660046133b2565b610906565b61025e6102f93660046132ca565b610972565b34801561030a57600080fd5b506101fd610992565b34801561031f57600080fd5b5061023361032e366004613470565b61099c565b34801561033f57600080fd5b5061025e61034e366004613470565b6109a7565b34801561035f57600080fd5b5061025e61036e366004613470565b610a04565b34801561037f57600080fd5b5061023361038e36600461326b565b610a0e565b34801561039f57600080fd5b506103b36103ae366004613470565b610a19565b60405161020a919061348b565b3480156103cc57600080fd5b506102756103db366004613470565b610a5b565b3480156103ec57600080fd5b50610275610a66565b34801561040157600080fd5b50610275610410366004613470565b610a70565b34801561042157600080fd5b5061025e61043036600461351d565b610aad565b34801561044157600080fd5b5061044a610aca565b60405161020a9796959493929190613589565b34801561046957600080fd5b50610233610b8d565b34801561047e57600080fd5b5061027561048d36600461326b565b610bae565b34801561049e57600080fd5b506104a7610bb9565b60405165ffffffffffff909116815260200161020a565b3480156104ca57600080fd5b506101fd610bc3565b3480156104df57600080fd5b506102756104ee366004613470565b610bdb565b3480156104ff57600080fd5b5061025e61050e366004613622565b610be6565b61025e61052136600461365e565b610c1f565b34801561053257600080fd5b5061025e6105413660046136da565b610c69565b34801561055257600080fd5b506101fd61056136600461326b565b610c77565b34801561057257600080fd5b5061025e61058136600461373a565b610ca8565b34801561059257600080fd5b5061025e6105a136600461379e565b610ce9565b3480156105b257600080fd5b506105c66105c1366004613826565b610dd3565b604051901515815260200161020a565b60606105e0610ddf565b60020180546105ee90613859565b80601f016020809104026020016040519081016040528092919081815260200182805461061a90613859565b80156106675780601f1061063c57610100808354040283529160200191610667565b820191906000526020600020905b81548152906001019060200180831161064a57829003601f168201915b5050505050905090565b600061067c82610e03565b92915050565b6001600160a01b0382161580159061069e575061069e33610e50565b156106bc57604051638043dfaf60e01b815260040160405180910390fd5b6106c68282610ecc565b5050565b60006106d4610ed8565b905090565b60006106e482610ef7565b9050836001600160a01b0316816001600160a01b0316146107175760405162a1148160e81b815260040160405180910390fd5b60008061072384610f92565b9150915061074881876107333390565b6001600160a01b039081169116811491141790565b610773576107568633610dd3565b61077357604051632ce44b5f60e11b815260040160405180910390fd5b6001600160a01b03851661079a57604051633a954ecd60e21b815260040160405180910390fd5b6107a78686866001610fba565b80156107b257600082555b6107ba610ddf565b6001600160a01b03871660009081526005919091016020526040902080546000190190556107e6610ddf565b6001600160a01b03861660008181526005929092016020526040909120805460010190554260a01b17600160e11b1761081d610ddf565b60008681526004919091016020526040812091909155600160e11b84169003610893576001840161084c610ddf565b6000828152600491909101602052604081205490036108915761086d610ddf565b548114610891578361087d610ddf565b600083815260049190910160205260409020555b505b83856001600160a01b0316876001600160a01b03167fddf252ad1be2c89b69c2b068fc378daa952ba7f163c4a11628f55a4df523b3ef60405160405180910390a46108e18686866001610ff9565b505050505050565b60006106d4611004565b60006108ff838361100e565b9392505050565b600080600080516020613c0c83398151915280549091506001600160a01b031633146109455760405163443e750b60e11b815260040160405180910390fd5b61094d6110ac565b915061095d8787848888886110bc565b6109683360016111fb565b5095945050505050565b61098d83838360405180602001604052806000815250610c1f565b505050565b60606106d461134b565b600061067c826113e3565b7f4675fa8241f86f37157864d3d49b85ad4b164352c516da28e1678a90470ae300546001600160a01b031633146109f8576040516365f4906560e01b81523360048201526024015b60405180910390fd5b610a0181611420565b50565b610a01338261148a565b600061067c82610ef7565b610a526040518060c001604052806060815260200160608152602001600081526020016000815260200160608152602001606081525090565b61067c82611524565b600061067c82611814565b60006106d46110ac565b6001600160a01b03811660009081527fda5d6d87446d81938877f0ee239dac391146dd7466ea30567f72becf06773c00602052604081205461067c565b610ab68561187d565b610ac385858585856118ba565b5050505050565b600060608082808083600080516020613c2c83398151915254158015610b0f57507f3a497e775dc7c283402f0d3c39c5f0ea53870eb15ab2dddfde5a1162a84c336d54155b610b535760405162461bcd60e51b81526020600482015260156024820152741152540dcc4c8e88155b9a5b9a5d1a585b1a5e9959605a1b60448201526064016109ef565b610b5b61198d565b610b636119a3565b60408051600080825260208201909252600f60f81b9b939a50919850469750309650945092509050565b60006106d4600080516020613c0c833981519152546001600160a01b031690565b600061067c826119b9565b60006106d4611a52565b6060610bcd610ddf565b60030180546105ee90613859565b600061067c82611a5d565b808015610bf75750610bf733610e50565b15610c1557604051638043dfaf60e01b815260040160405180910390fd5b6106c68282611a8b565b610c2a8484846106d9565b6001600160a01b0383163b15610c6357610c4684848484611b08565b610c63576040516368d2bf6b60e11b815260040160405180910390fd5b50505050565b6108e1868686868686611bf3565b6060610c8282611cdc565b610c9f57604051630a14c4b560e41b815260040160405180910390fd5b61067c82611d18565b600080516020613c8c83398151915254600160201b900460ff16610cdf57604051630ef4733760e31b815260040160405180910390fd5b6106c68282612068565b600080516020613c8c8339815191528054600160201b900460ff161580610d1357303b1515610d22565b8154600163ffffffff90911610155b15610d4b578154604051630a8ef77f60e31b815263ffffffff90911660048201526024016109ef565b815463ffffffff191660011782558015610d7257815464ff000000001916600160201b1782555b610d7c8585612068565b610d8685846120c9565b8015610ac357815464ff0000000019168255604051600181527fe9c9b456cb2994b80aeef036cf59d26e9617df80f816a6ee5a5b4166e07e2f5c9060200160405180910390a15050505050565b60006108ff838361210a565b7f6569bde4a160c636ea8b8d11acb83a60d7fec0b8f2e09389306cba0e1340df0090565b6000610e0e82611cdc565b610e2b576040516333d1c03960e21b815260040160405180910390fd5b610e33610ddf565b60009283526006016020525060409020546001600160a01b031690565b60007f0c89d3aad1b583c77a2e9f9fffa651b386c9c29e300bf2a8e2f3de1bb0100a006001600160a01b0383163b1580156108ff57506001600160a01b038316600090815260018201602052604090205415806108ff57506001600160a01b038316600090815260018201602052604090205442109392505050565b6106c682826001612147565b600080610ee3610ddf565b60010154610eef610ddf565b540303919050565b600080610f02610ddf565b60008481526004820160205260408120549350909150600160e01b83169003610f785781600003610f725780548310610f4e57604051636f96cda160e11b815260040160405180910390fd5b5b600019909201600081815260048401602052604090205490929091508115610f4f575b50919050565b50604051636f96cda160e11b815260040160405180910390fd5b6000806000610f9f610ddf565b60009485526006016020525050604090912080549092909150565b6001600160a01b03841615801590610fd65750610fd684610e50565b15610ff457604051638043dfaf60e01b815260040160405180910390fd5b610c63565b610ff48484836121fc565b60006106d461229e565b6000611018611a52565b65ffffffffffff1682106110655760405162461bcd60e51b81526020600482015260146024820152730566f7465733a20667574757265206c6f6f6b75760641b60448201526064016109ef565b61109c61107183612312565b6001600160a01b0385166000908152600080516020613cac8339815191526020526040902090612347565b6001600160e01b03169392505050565b60006110b6610ddf565b54919050565b6110c78660026123fb565b6110d28560006123fb565b6110db8361241f565b60008481527f7fc24c9500f4388b797f8975c0991ad4ffd0338c2cbf5335b2bf5b7fe57477016020908152604080832080546001600160a01b0319166001600160a01b038816908117909155815160c0810183528a81528084018a90528083018990524260608201526080810187905260a081018690529084527f7fc24c9500f4388b797f8975c0991ad4ffd0338c2cbf5335b2bf5b7fe57477029092529091208151600080516020613c0c833981519152929190819061119c90826138d5565b50602082015160018201906111b190826138d5565b506040820151600282015560608201516003820155608082015160048201906111da90826138d5565b5060a082015160058201906111ef90826138d5565b50505050505050505050565b6000611205610ddf565b549050600082900361122a5760405163b562e8dd60e01b815260040160405180910390fd5b6112376000848385610fba565b68010000000000000001820261124b610ddf565b6001600160a01b038516600081815260059290920160205260409091208054929092019091554260a01b6001841460e11b1717611286610ddf565b600083815260049190910160205260408120919091556001600160a01b0384169083830190839083907fddf252ad1be2c89b69c2b068fc378daa952ba7f163c4a11628f55a4df523b3ef8180a4600183015b81811461131057808360007fddf252ad1be2c89b69c2b068fc378daa952ba7f163c4a11628f55a4df523b3ef600080a46001016112d8565b508160000361133157604051622e076360e81b815260040160405180910390fd5b8061133a610ddf565b555061098d90506000848385610ff9565b606043611356611a52565b65ffffffffffff16146113ab5760405162461bcd60e51b815260206004820152601860248201527f566f7465733a2062726f6b656e20636c6f636b206d6f6465000000000000000060448201526064016109ef565b5060408051808201909152601d81527f6d6f64653d626c6f636b6e756d6265722666726f6d3d64656661756c74000000602082015290565b6001600160a01b0390811660009081527f423fcc3514229d79a30fb79b40a232f70b3fabdf664a75db0859c67848497f6560205260409020541690565b6114298161241f565b600080516020613c0c83398151915280546001600160a01b0383166001600160a01b03199091168117825560408051918252517f64c14256e532eac2ec90ddc4973ed2d3f5623faf7951d90eec38f9b7812f99a79181900360200190a15050565b6000611495836113e3565b6001600160a01b0384811660008181527f423fcc3514229d79a30fb79b40a232f70b3fabdf664a75db0859c67848497f65602052604080822080546001600160a01b031916888616908117909155905194955093928516927f3134e8a2e6d97e929a7e54011ea5485d7d196dd5f0ba4d4ef95803e8e3fc257f9190a461098d818361151f86612446565b612451565b61155d6040518060c001604052806060815260200160608152602001600081526020016000815260200160608152602001606081525090565b6001600160a01b03821660009081527f7fc24c9500f4388b797f8975c0991ad4ffd0338c2cbf5335b2bf5b7fe5747702602052604090819020815160c081019092528054600080516020613c0c833981519152929190829082906115c090613859565b80601f01602080910402602001604051908101604052809291908181526020018280546115ec90613859565b80156116395780601f1061160e57610100808354040283529160200191611639565b820191906000526020600020905b81548152906001019060200180831161161c57829003601f168201915b5050505050815260200160018201805461165290613859565b80601f016020809104026020016040519081016040528092919081815260200182805461167e90613859565b80156116cb5780601f106116a0576101008083540402835291602001916116cb565b820191906000526020600020905b8154815290600101906020018083116116ae57829003601f168201915b5050505050815260200160028201548152602001600382015481526020016004820180546116f890613859565b80601f016020809104026020016040519081016040528092919081815260200182805461172490613859565b80156117715780601f1061174657610100808354040283529160200191611771565b820191906000526020600020905b81548152906001019060200180831161175457829003601f168201915b5050505050815260200160058201805461178a90613859565b80601f01602080910402602001604051908101604052809291908181526020018280546117b690613859565b80156118035780601f106117d857610100808354040283529160200191611803565b820191906000526020600020905b8154815290600101906020018083116117e657829003601f168201915b505050505081525050915050919050565b60006001600160a01b03821661183d576040516323d3ad8160e21b815260040160405180910390fd5b67ffffffffffffffff61184e610ddf565b6005016000846001600160a01b03166001600160a01b0316815260200190815260200160002054169050919050565b3361189361188a83611524565b60400151610a0e565b6001600160a01b031614610a015760405163dbfcf17d60e01b815260040160405180910390fd5b6118c58460026123fb565b6118d08360016123fb565b6001600160a01b03851660009081527f7fc24c9500f4388b797f8975c0991ad4ffd0338c2cbf5335b2bf5b7fe574770260205260409020600080516020613c0c833981519152908061192287826138d5565b506001810161193186826138d5565b506004810161194085826138d5565b506005810161194f84826138d5565b506040516001600160a01b038816907f66da702131703ee5e745ecf2f5b98311caa00729edd55541baad49289fc42ed890600090a250505050505050565b6060600080516020613c2c8339815191526105e0565b6060600080516020613c2c833981519152610bcd565b60006119c3611a52565b65ffffffffffff168210611a105760405162461bcd60e51b81526020600482015260146024820152730566f7465733a20667574757265206c6f6f6b75760641b60448201526064016109ef565b611a43611a1c83612312565b7f423fcc3514229d79a30fb79b40a232f70b3fabdf664a75db0859c67848497f6790612347565b6001600160e01b031692915050565b60006106d4436125d2565b6001600160a01b0381166000908152600080516020613cac83398151915260205260408120611a4390612605565b80611a94610ddf565b336000818152600792909201602090815260408084206001600160a01b03881680865290835293819020805460ff19169515159590951790945592518415158152919290917f17307eab39ab6107e8899845ad3d59bd9653f200f220920489ca2b5937696c31910160405180910390a35050565b604051630a85bd0160e11b81526000906001600160a01b0385169063150b7a0290611b3d903390899088908890600401613995565b6020604051808303816000875af1925050508015611b78575060408051601f3d908101601f19168201909252611b75918101906139d2565b60015b611bd6573d808015611ba6576040519150601f19603f3d011682016040523d82523d6000602084013e611bab565b606091505b508051600003611bce576040516368d2bf6b60e11b815260040160405180910390fd5b805181602001fd5b6001600160e01b031916630a85bd0160e11b149050949350505050565b83421115611c435760405162461bcd60e51b815260206004820152601860248201527f566f7465733a207369676e61747572652065787069726564000000000000000060448201526064016109ef565b604080517fe48329057bfd03d55e49b547132e39cffd9c1820ad7b9d4c5307691425d15adf60208201526001600160a01b038816918101919091526060810186905260808101859052600090611cbd90611cb59060a0016040516020818303038152906040528051906020012061263e565b85858561266b565b9050611cc98187612699565b611cd3818861148a565b50505050505050565b6000611ce6610ddf565b548210801561067c5750600160e01b611cfd610ddf565b60008481526004919091016020526040902054161592915050565b60008181527f7fc24c9500f4388b797f8975c0991ad4ffd0338c2cbf5335b2bf5b7fe57477016020526040902054606090600080516020613c0c833981519152906001600160a01b031680611d7e57505060408051602081019091526000815292915050565b6001600160a01b0381166000908152600283016020526040808220815160c08101909252805482908290611db190613859565b80601f0160208091040260200160405190810160405280929190818152602001828054611ddd90613859565b8015611e2a5780601f10611dff57610100808354040283529160200191611e2a565b820191906000526020600020905b815481529060010190602001808311611e0d57829003601f168201915b50505050508152602001600182018054611e4390613859565b80601f0160208091040260200160405190810160405280929190818152602001828054611e6f90613859565b8015611ebc5780601f10611e9157610100808354040283529160200191611ebc565b820191906000526020600020905b815481529060010190602001808311611e9f57829003601f168201915b505050505081526020016002820154815260200160038201548152602001600482018054611ee990613859565b80601f0160208091040260200160405190810160405280929190818152602001828054611f1590613859565b8015611f625780601f10611f3757610100808354040283529160200191611f62565b820191906000526020600020905b815481529060010190602001808311611f4557829003601f168201915b50505050508152602001600582018054611f7b90613859565b80601f0160208091040260200160405190810160405280929190818152602001828054611fa790613859565b8015611ff45780601f10611fc957610100808354040283529160200191611ff4565b820191906000526020600020905b815481529060010190602001808311611fd757829003601f168201915b505050505081525050905061203f81600001518260200151612019846060015161270b565b60405160200161202b939291906139fc565b60405160208183030381529060405261279e565b60405160200161204f9190613ade565b6040516020818303038152906040529350505050919050565b600080516020613c8c83398151915254600160201b900460ff1661209f57604051630ef4733760e31b815260040160405180910390fd5b6120af6380ac58cd60e01b612903565b6120bf635b5e139f60e01b612903565b6106c682826129e1565b600080516020613c8c83398151915254600160201b900460ff1661210057604051630ef4733760e31b815260040160405180910390fd5b6106c68282612a13565b6000612114610ddf565b6001600160a01b039384166000908152600791909101602090815260408083209490951682529290925250205460ff1690565b600061215283610a0e565b9050811561219157336001600160a01b0382161461219157612174813361210a565b612191576040516367d9dca160e11b815260040160405180910390fd5b8361219a610ddf565b6000858152600691909101602052604080822080546001600160a01b0319166001600160a01b0394851617905551859287811692908516917f8c5be1e5ebec7d5bd14f71427d1e84f3dd0314c0f7b2291e5b200ac8c7c3b9259190a450505050565b6001600160a01b0383166122425761223f7f423fcc3514229d79a30fb79b40a232f70b3fabdf664a75db0859c67848497f67612aa561223a84612ab1565b612ae5565b50505b6001600160a01b038216612283576122807f423fcc3514229d79a30fb79b40a232f70b3fabdf664a75db0859c67848497f67612b2e61223a84612ab1565b50505b61098d61228f846113e3565b612298846113e3565b83612451565b60007f8b73c3c69bb8fe3d512ecc4cf759cc79239f7b179b0ffacaa9a75d522b39400f6122c9612b3a565b6122d1612ba0565b60408051602081019490945283019190915260608201524660808201523060a082015260c00160405160208183030381529060405280519060200120905090565b600063ffffffff821115612343576040516306dfcc6560e41b815260206004820152602481018390526044016109ef565b5090565b8154600090818160058111156123a457600061236284612bf0565b61236c9085613b39565b60008881526020902090915081015463ffffffff9081169087161015612394578091506123a2565b61239f816001613b4c565b92505b505b60006123b287878585612cd8565b905080156123ed576123d7876123c9600184613b39565b600091825260209091200190565b54600160201b90046001600160e01b03166123f0565b60005b979650505050505050565b8151829082111561098d576040516374eb20a760e01b815260040160405180910390fd5b6001600160a01b038116610a01576040516302e47d1560e41b815260040160405180910390fd5b600061067c82610a5b565b816001600160a01b0316836001600160a01b0316141580156124735750600081115b1561098d576001600160a01b03831615612523576001600160a01b0383166000908152600080516020613cac8339815191526020526040812081906124be90612b2e61223a86612ab1565b6001600160e01b031691506001600160e01b03169150846001600160a01b03167fdec2bacdd2f05b59de34da9b523dff8be42e5e38e818c82fdb0bae774387a7248383604051612518929190918252602082015260400190565b60405180910390a250505b6001600160a01b0382161561098d576001600160a01b0382166000908152600080516020613cac83398151915260205260408120819061256990612aa561223a86612ab1565b6001600160e01b031691506001600160e01b03169150836001600160a01b03167fdec2bacdd2f05b59de34da9b523dff8be42e5e38e818c82fdb0bae774387a72483836040516125c3929190918252602082015260400190565b60405180910390a25050505050565b600065ffffffffffff821115612343576040516306dfcc6560e41b815260306004820152602481018390526044016109ef565b805460009080156126355761261f836123c9600184613b39565b54600160201b90046001600160e01b03166108ff565b60009392505050565b600061067c61264b611004565b8360405161190160f01b8152600281019290925260228201526042902090565b60008060008061267d88888888612d36565b92509250925061268d8282612e05565b50909695505050505050565b6001600160a01b03821660009081527fda5d6d87446d81938877f0ee239dac391146dd7466ea30567f72becf06773c006020526040902080546001810190915581811461098d576040516301d4b62360e61b81526001600160a01b0384166004820152602481018290526044016109ef565b6060600061271883612ebe565b600101905060008167ffffffffffffffff81111561273857612738613306565b6040519080825280601f01601f191660200182016040528015612762576020820181803683370190505b5090508181016020015b600019016f181899199a1a9b1b9c1cb0b131b232b360811b600a86061a8153600a850494508461276c57509392505050565b606081516000036127bd57505060408051602081019091526000815290565b6000604051806060016040528060408152602001613c4c60409139905060006003845160026127ec9190613b4c565b6127f69190613b75565b612801906004613b97565b90506000612810826020613b4c565b67ffffffffffffffff81111561282857612828613306565b6040519080825280601f01601f191660200182016040528015612852576020820181803683370190505b509050818152600183018586518101602084015b818310156128be576003830192508251603f8160121c168501518253600182019150603f81600c1c168501518253600182019150603f8160061c168501518253600182019150603f8116850151825350600101612866565b6003895106600181146128d857600281146128e9576128f5565b613d3d60f01b6001198301526128f5565b603d60f81b6000198301525b509398975050505050505050565b6001600160e01b0319811660009081527f81088bbc801e045ea3e7620779ab349988f58afbdfba10dff983df3f33522b00602052604090205460ff161515600114612990576001600160e01b0319811660009081527f81088bbc801e045ea3e7620779ab349988f58afbdfba10dff983df3f33522b0060205260409020805460ff191660011790556129a9565b604051637967f77d60e11b815260040160405180910390fd5b6040516001600160e01b03198216907f78f84e5b1c5c05be2b5ad3800781dd404d6d6c6302bc755c0fe20f58a33a7f2290600090a250565b60006129eb610ddf565b9050600281016129fb84826138d5565b5060038101612a0a83826138d5565b50600090555050565b7f3a497e775dc7c283402f0d3c39c5f0ea53870eb15ab2dddfde5a1162a84c336e612a3e83826138d5565b507f3a497e775dc7c283402f0d3c39c5f0ea53870eb15ab2dddfde5a1162a84c336f612a6a82826138d5565b50506000600080516020613c2c8339815191528190557f3a497e775dc7c283402f0d3c39c5f0ea53870eb15ab2dddfde5a1162a84c336d5550565b60006108ff8284613bae565b60006001600160e01b03821115612343576040516306dfcc6560e41b815260e06004820152602481018390526044016109ef565b600080612b21612b03612af6611a52565b65ffffffffffff16612312565b612b19612b0f88612605565b868863ffffffff16565b879190612f96565b915091505b935093915050565b60006108ff8284613bd5565b600080612b4561198d565b805190915015612b5c578051602090910120919050565b600080516020613c2c833981519152548015612b785792915050565b7fc5d2460186f7233c927e7db2dcc703c0e500b653ca82273b7bfad8045d85a4709250505090565b600080612bab6119a3565b805190915015612bc2578051602090910120919050565b7f3a497e775dc7c283402f0d3c39c5f0ea53870eb15ab2dddfde5a1162a84c336d548015612b785792915050565b600081600003612c0257506000919050565b60006001612c0f84612fa4565b901c6001901b90506001818481612c2857612c28613b5f565b048201901c90506001818481612c4057612c40613b5f565b048201901c90506001818481612c5857612c58613b5f565b048201901c90506001818481612c7057612c70613b5f565b048201901c90506001818481612c8857612c88613b5f565b048201901c90506001818481612ca057612ca0613b5f565b048201901c90506001818481612cb857612cb8613b5f565b048201901c90506108ff81828581612cd257612cd2613b5f565b04613038565b60005b81831015612d2e576000612cef848461304e565b60008781526020902090915063ffffffff86169082015463ffffffff161115612d1a57809250612d28565b612d25816001613b4c565b93505b50612cdb565b509392505050565b600080807f7fffffffffffffffffffffffffffffff5d576e7357a4501ddfe92f46681b20a0841115612d715750600091506003905082612dfb565b604080516000808252602082018084528a905260ff891692820192909252606081018790526080810186905260019060a0016020604051602081039080840390855afa158015612dc5573d6000803e3d6000fd5b5050604051601f1901519150506001600160a01b038116612df157506000925060019150829050612dfb565b9250600091508190505b9450945094915050565b6000826003811115612e1957612e19613bf5565b03612e22575050565b6001826003811115612e3657612e36613bf5565b03612e545760405163f645eedf60e01b815260040160405180910390fd5b6002826003811115612e6857612e68613bf5565b03612e895760405163fce698f760e01b8152600481018290526024016109ef565b6003826003811115612e9d57612e9d613bf5565b036106c6576040516335e2f38360e21b8152600481018290526024016109ef565b60008072184f03e93ff9f4daa797ed6e38ed64bf6a1f0160401b8310612efd5772184f03e93ff9f4daa797ed6e38ed64bf6a1f0160401b830492506040015b6d04ee2d6d415b85acef81000000008310612f29576d04ee2d6d415b85acef8100000000830492506020015b662386f26fc100008310612f4757662386f26fc10000830492506010015b6305f5e1008310612f5f576305f5e100830492506008015b6127108310612f7357612710830492506004015b60648310612f85576064830492506002015b600a831061067c5760010192915050565b600080612b21858585613069565b600080608083901c15612fb957608092831c92015b604083901c15612fcb57604092831c92015b602083901c15612fdd57602092831c92015b601083901c15612fef57601092831c92015b600883901c1561300157600892831c92015b600483901c1561301357600492831c92015b600283901c1561302557600292831c92015b600183901c1561067c5760010192915050565b600081831061304757816108ff565b5090919050565b600061305d6002848418613b75565b6108ff90848416613b4c565b8254600090819080156131af576000613087876123c9600185613b39565b60408051808201909152905463ffffffff808216808452600160201b9092046001600160e01b0316602084015291925090871610156131085760405162461bcd60e51b815260206004820152601b60248201527f436865636b706f696e743a2064656372656173696e67206b657973000000000060448201526064016109ef565b805163ffffffff8088169116036131505784613129886123c9600186613b39565b80546001600160e01b0392909216600160201b0263ffffffff90921691909117905561319f565b6040805180820190915263ffffffff80881682526001600160e01b0380881660208085019182528b54600181018d5560008d81529190912094519151909216600160201b029216919091179101555b602001519250839150612b269050565b50506040805180820190915263ffffffff80851682526001600160e01b0380851660208085019182528854600181018a5560008a815291822095519251909316600160201b029190931617920191909155905081612b26565b60005b8381101561322357818101518382015260200161320b565b50506000910152565b60008151808452613244816020860160208601613208565b601f01601f19169290920160200192915050565b6020815260006108ff602083018461322c565b60006020828403121561327d57600080fd5b5035919050565b80356001600160a01b038116811461329b57600080fd5b919050565b600080604083850312156132b357600080fd5b6132bc83613284565b946020939093013593505050565b6000806000606084860312156132df57600080fd5b6132e884613284565b92506132f660208501613284565b9150604084013590509250925092565b634e487b7160e01b600052604160045260246000fd5b600067ffffffffffffffff8084111561333757613337613306565b604051601f8501601f19908116603f0116810190828211818310171561335f5761335f613306565b8160405280935085815286868601111561337857600080fd5b858560208301376000602087830101525050509392505050565b600082601f8301126133a357600080fd5b6108ff8383356020850161331c565b600080600080600060a086880312156133ca57600080fd5b853567ffffffffffffffff808211156133e257600080fd5b6133ee89838a01613392565b9650602088013591508082111561340457600080fd5b61341089838a01613392565b955061341e60408901613284565b9450606088013591508082111561343457600080fd5b61344089838a01613392565b9350608088013591508082111561345657600080fd5b5061346388828901613392565b9150509295509295909350565b60006020828403121561348257600080fd5b6108ff82613284565b602081526000825160c060208401526134a760e084018261322c565b90506020840151601f19808584030160408601526134c5838361322c565b9250604086015160608601526060860151608086015260808601519150808584030160a08601526134f6838361322c565b925060a08601519150808584030160c086015250613514828261322c565b95945050505050565b600080600080600060a0868803121561353557600080fd5b61353e86613284565b9450602086013567ffffffffffffffff8082111561355b57600080fd5b61356789838a01613392565b9550604088013591508082111561357d57600080fd5b61341e89838a01613392565b60ff60f81b881681526000602060e060208401526135aa60e084018a61322c565b83810360408501526135bc818a61322c565b606085018990526001600160a01b038816608086015260a0850187905284810360c08601528551808252602080880193509091019060005b81811015613610578351835292840192918401916001016135f4565b50909c9b505050505050505050505050565b6000806040838503121561363557600080fd5b61363e83613284565b91506020830135801515811461365357600080fd5b809150509250929050565b6000806000806080858703121561367457600080fd5b61367d85613284565b935061368b60208601613284565b925060408501359150606085013567ffffffffffffffff8111156136ae57600080fd5b8501601f810187136136bf57600080fd5b6136ce8782356020840161331c565b91505092959194509250565b60008060008060008060c087890312156136f357600080fd5b6136fc87613284565b95506020870135945060408701359350606087013560ff8116811461372057600080fd5b9598949750929560808101359460a0909101359350915050565b6000806040838503121561374d57600080fd5b823567ffffffffffffffff8082111561376557600080fd5b61377186838701613392565b9350602085013591508082111561378757600080fd5b5061379485828601613392565b9150509250929050565b6000806000606084860312156137b357600080fd5b833567ffffffffffffffff808211156137cb57600080fd5b6137d787838801613392565b945060208601359150808211156137ed57600080fd5b6137f987838801613392565b9350604086013591508082111561380f57600080fd5b5061381c86828701613392565b9150509250925092565b6000806040838503121561383957600080fd5b61384283613284565b915061385060208401613284565b90509250929050565b600181811c9082168061386d57607f821691505b602082108103610f7257634e487b7160e01b600052602260045260246000fd5b601f82111561098d576000816000526020600020601f850160051c810160208610156138b65750805b601f850160051c820191505b818110156108e1578281556001016138c2565b815167ffffffffffffffff8111156138ef576138ef613306565b613903816138fd8454613859565b8461388d565b602080601f83116001811461393857600084156139205750858301515b600019600386901b1c1916600185901b1785556108e1565b600085815260208120601f198616915b8281101561396757888601518255948401946001909101908401613948565b50858210156139855787850151600019600388901b60f8161c191681555b5050505050600190811b01905550565b6001600160a01b03858116825284166020820152604081018390526080606082018190526000906139c89083018461322c565b9695505050505050565b6000602082840312156139e457600080fd5b81516001600160e01b0319811681146108ff57600080fd5b683d913730b6b2911d1160b91b81528351600090613a21816009850160208901613208565b6a11161134b6b0b3b2911d1160a91b6009918401918201528451613a4c816014840160208901613208565b7f222c2261747472696275746573223a5b7b2274726169745f74797065223a2243601492909101918201527f726561746564222c22646973706c61795f74797065223a202264617465222c20603482015267113b30b63ab2911d60c11b60548201528351613ac181605c840160208801613208565b627d5d7d60e81b605c9290910191820152605f0195945050505050565b7f646174613a6170706c69636174696f6e2f6a736f6e3b6261736536342c000000815260008251613b1681601d850160208701613208565b91909101601d0192915050565b634e487b7160e01b600052601160045260246000fd5b8181038181111561067c5761067c613b23565b8082018082111561067c5761067c613b23565b634e487b7160e01b600052601260045260246000fd5b600082613b9257634e487b7160e01b600052601260045260246000fd5b500490565b808202811582820484141761067c5761067c613b23565b6001600160e01b03818116838216019080821115613bce57613bce613b23565b5092915050565b6001600160e01b03828116828216039080821115613bce57613bce613b23565b634e487b7160e01b600052602160045260246000fdfe7fc24c9500f4388b797f8975c0991ad4ffd0338c2cbf5335b2bf5b7fe57477003a497e775dc7c283402f0d3c39c5f0ea53870eb15ab2dddfde5a1162a84c336c4142434445464748494a4b4c4d4e4f505152535455565758595a6162636465666768696a6b6c6d6e6f707172737475767778797a303132333435363738392b2f59b501c3653afc186af7d48dda36cf6732bd21629a6295693664240a6ef52000423fcc3514229d79a30fb79b40a232f70b3fabdf664a75db0859c67848497f66","linkReferences":{}},"methodIdentifiers":{"CLOCK_MODE()":"4bf5d7e9","DOMAIN_SEPARATOR()":"3644e515","__ERC721A_init(string,string)":"d2f01f19","__SpaceOwner_init(string,string,string)":"d7a901d3","approve(address,uint256)":"095ea7b3","balanceOf(address)":"70a08231","clock()":"91ddadf4","delegate(address)":"5c19a95c","delegateBySig(address,uint256,uint256,uint8,bytes32,bytes32)":"c3cda520","delegates(address)":"587cde1e","eip712Domain()":"84b0196e","getApproved(uint256)":"081812fc","getFactory()":"88cc58e4","getPastTotalSupply(uint256)":"8e539e8c","getPastVotes(address,uint256)":"3a46b1a8","getSpaceInfo(address)":"6a9a38e6","getVotes(address)":"9ab24eb0","isApprovedForAll(address,address)":"e985e9c5","mintSpace(string,string,address,string,string)":"3bf5b8f4","name()":"06fdde03","nextTokenId()":"75794a3c","nonces(address)":"7ecebe00","ownerOf(uint256)":"6352211e","safeTransferFrom(address,address,uint256)":"42842e0e","safeTransferFrom(address,address,uint256,bytes)":"b88d4fde","setApprovalForAll(address,bool)":"a22cb465","setFactory(address)":"5bb47808","symbol()":"95d89b41","tokenURI(uint256)":"c87b56dd","totalSupply()":"18160ddd","transferFrom(address,address,uint256)":"23b872dd","updateSpaceInfo(address,string,string,string,string)":"84880614"},"id":249}