{"abi":[{"type":"function","name":"allocateStream","inputs":[{"name":"streamId","type":"bytes32","internalType":"bytes32"},{"name":"nodes","type":"address[]","internalType":"address[]"},{"name":"genesisMiniblockHash","type":"bytes32","internalType":"bytes32"},{"name":"genesisMiniblock","type":"bytes","internalType":"bytes"}],"outputs":[],"stateMutability":"nonpayable"},{"type":"function","name":"getPaginatedStreams","inputs":[{"name":"start","type":"uint256","internalType":"uint256"},{"name":"stop","type":"uint256","internalType":"uint256"}],"outputs":[{"name":"","type":"tuple[]","internalType":"struct StreamWithId[]","components":[{"name":"id","type":"bytes32","internalType":"bytes32"},{"name":"stream","type":"tuple","internalType":"struct Stream","components":[{"name":"lastMiniblockHash","type":"bytes32","internalType":"bytes32"},{"name":"lastMiniblockNum","type":"uint64","internalType":"uint64"},{"name":"reserved0","type":"uint64","internalType":"uint64"},{"name":"flags","type":"uint64","internalType":"uint64"},{"name":"nodes","type":"address[]","internalType":"address[]"}]}]},{"name":"","type":"bool","internalType":"bool"}],"stateMutability":"view"},{"type":"function","name":"getStream","inputs":[{"name":"streamId","type":"bytes32","internalType":"bytes32"}],"outputs":[{"name":"","type":"tuple","internalType":"struct Stream","components":[{"name":"lastMiniblockHash","type":"bytes32","internalType":"bytes32"},{"name":"lastMiniblockNum","type":"uint64","internalType":"uint64"},{"name":"reserved0","type":"uint64","internalType":"uint64"},{"name":"flags","type":"uint64","internalType":"uint64"},{"name":"nodes","type":"address[]","internalType":"address[]"}]}],"stateMutability":"view"},{"type":"function","name":"getStreamCount","inputs":[],"outputs":[{"name":"","type":"uint256","internalType":"uint256"}],"stateMutability":"view"},{"type":"function","name":"getStreamCountOnNode","inputs":[{"name":"nodeAddress","type":"address","internalType":"address"}],"outputs":[{"name":"","type":"uint256","internalType":"uint256"}],"stateMutability":"view"},{"type":"function","name":"isStream","inputs":[{"name":"streamId","type":"bytes32","internalType":"bytes32"}],"outputs":[{"name":"","type":"bool","internalType":"bool"}],"stateMutability":"view"},{"type":"function","name":"placeStreamOnNode","inputs":[{"name":"streamId","type":"bytes32","internalType":"bytes32"},{"name":"nodeAddress","type":"address","internalType":"address"}],"outputs":[],"stateMutability":"nonpayable"},{"type":"function","name":"removeStreamFromNode","inputs":[{"name":"streamId","type":"bytes32","internalType":"bytes32"},{"name":"nodeAddress","type":"address","internalType":"address"}],"outputs":[],"stateMutability":"nonpayable"},{"type":"function","name":"setStreamLastMiniblockBatch","inputs":[{"name":"miniblocks","type":"tuple[]","internalType":"struct SetMiniblock[]","components":[{"name":"streamId","type":"bytes32","internalType":"bytes32"},{"name":"prevMiniBlockHash","type":"bytes32","internalType":"bytes32"},{"name":"lastMiniblockHash","type":"bytes32","internalType":"bytes32"},{"name":"lastMiniblockNum","type":"uint64","internalType":"uint64"},{"name":"isSealed","type":"bool","internalType":"bool"}]}],"outputs":[],"stateMutability":"nonpayable"},{"type":"event","name":"StreamAllocated","inputs":[{"name":"streamId","type":"bytes32","indexed":false,"internalType":"bytes32"},{"name":"nodes","type":"address[]","indexed":false,"internalType":"address[]"},{"name":"genesisMiniblockHash","type":"bytes32","indexed":false,"internalType":"bytes32"},{"name":"genesisMiniblock","type":"bytes","indexed":false,"internalType":"bytes"}],"anonymous":false},{"type":"event","name":"StreamLastMiniblockUpdateFailed","inputs":[{"name":"streamId","type":"bytes32","indexed":false,"internalType":"bytes32"},{"name":"lastMiniblockHash","type":"bytes32","indexed":false,"internalType":"bytes32"},{"name":"lastMiniblockNum","type":"uint64","indexed":false,"internalType":"uint64"},{"name":"reason","type":"string","indexed":false,"internalType":"string"}],"anonymous":false},{"type":"event","name":"StreamLastMiniblockUpdated","inputs":[{"name":"streamId","type":"bytes32","indexed":false,"internalType":"bytes32"},{"name":"lastMiniblockHash","type":"bytes32","indexed":false,"internalType":"bytes32"},{"name":"lastMiniblockNum","type":"uint64","indexed":false,"internalType":"uint64"},{"name":"isSealed","type":"bool","indexed":false,"internalType":"bool"}],"anonymous":false},{"type":"event","name":"StreamPlacementUpdated","inputs":[{"name":"streamId","type":"bytes32","indexed":false,"internalType":"bytes32"},{"name":"nodeAddress","type":"address","indexed":false,"internalType":"address"},{"name":"isAdded","type":"bool","indexed":false,"internalType":"bool"}],"anonymous":false}],"bytecode":{"object":"0x608060405234801561001057600080fd5b506117bb806100206000396000f3fe608060405234801561001057600080fd5b50600436106100935760003560e01c8063c87d132411610066578063c87d1324146100ff578063ca78c41a14610112578063d0c27c4f14610133578063ee885b1214610156578063ff3a14ab1461016957600080fd5b80631290abe8146100985780636b883c39146100c15780639ee86d38146100d6578063c0f22084146100e9575b600080fd5b6100ab6100a63660046110d4565b61017c565b6040516100b8919061117e565b60405180910390f35b6100d46100cf366004611262565b6102a7565b005b6100d46100e4366004611345565b61050e565b6100f16106cb565b6040519081526020016100b8565b6100f161010d366004611371565b6106db565b61012561012036600461138c565b610789565b6040516100b89291906113ae565b6101466101413660046110d4565b610979565b60405190151581526020016100b8565b6100d4610164366004611345565b61098b565b6100d461017736600461142d565b610bd4565b6040805160a08101825260008082526020820181905291810182905260608082018390526080820152906101b09083610efb565b6101f45760408051808201825260098152681393d517d193d5539160ba1b6020820152905162461bcd60e51b81526101eb91906004016114e7565b60405180910390fd5b600082815260026020818152604092839020835160a0810185528154815260018201546001600160401b0380821683860152600160401b8204811683880152600160801b909104166060820152928101805485518185028101850190965280865293949193608086019383018282801561029757602002820191906000526020600020905b81546001600160a01b03168152600190910190602001808311610279575b5050505050815250509050919050565b336000818152600760205260409020600201546001600160a01b031661030357604080518082018252600e81526d1393d11157d393d517d193d5539160921b6020820152905162461bcd60e51b81526101eb91906004016114e7565b61030e600086610efb565b1561034f57604080518082018252600e81526d414c52454144595f45584953545360901b6020820152905162461bcd60e51b81526101eb91906004016114e7565b835160005b818110156103d45761038c868281518110610371576103716114fa565b60200260200101516000600501610f1690919063ffffffff16565b6103cc57604080518082018252600e81526d1393d11157d393d517d193d5539160921b6020820152905162461bcd60e51b81526101eb91906004016114e7565b600101610354565b506040805160a08101825285815260006020820181905291810182905260608101829052608081018790529061040a9088610f38565b5060008781526002602081815260409283902084518155818501516001820180549587015160608801516001600160401b03908116600160801b0267ffffffffffffffff60801b19928216600160401b026fffffffffffffffffffffffffffffffff1990991691909416179690961795909516179093556080840151805185949361049a93908501920190610fd3565b50505060008781526003602052604090206104b5858261159b565b5060008781526004602052604090819020869055517f55ef7efc60ef99743e54209752c9a8e047e013917ec91572db75875069dd65bb906104fd90899089908990899061165a565b60405180910390a150505050505050565b8161051a600082610efb565b6105555760408051808201825260098152681393d517d193d5539160ba1b6020820152905162461bcd60e51b81526101eb91906004016114e7565b336000818152600760205260409020600201546001600160a01b03166105b157604080518082018252600e81526d1393d11157d393d517d193d5539160921b6020820152905162461bcd60e51b81526101eb91906004016114e7565b600084815260026020819052604082209081015490915b8181101561064d57856001600160a01b03168360020182815481106105ef576105ef6114fa565b6000918252602090912001546001600160a01b03160361064557604080518082018252600e81526d414c52454144595f45584953545360901b6020820152905162461bcd60e51b81526101eb91906004016114e7565b6001016105c8565b5060028201805460018082018355600092835260209283902090910180546001600160a01b0319166001600160a01b038916908117909155604080518a8152938401919091528201527faaa473c28a5fe04b6a7ecd795826e462f9d0c23f00ef9f51ec02fa6ea418806f9060600160405180910390a1505050505050565b60006106d681610f44565b905090565b600080806106e881610f44565b905060005b818110156107805760006107018183610f4e565b60008181526002602052604081209192505b600282015481101561077257876001600160a01b031682600201828154811061073e5761073e6114fa565b6000918252602090912001546001600160a01b03160361076a5785610762816116e3565b965050610772565b600101610713565b5050508060010190506106ed565b50909392505050565b606060008284106107c95760408051808201825260078152664241445f41524760c81b6020820152905162461bcd60e51b81526101eb91906004016114e7565b60006107d481610f44565b905060008185116107e557846107e7565b815b905060008682116107f9576000610803565b61080387836116fc565b90506000816001600160401b0381111561081f5761081f611191565b60405190808252806020026020018201604052801561085857816020015b610845611038565b81526020019060019003908161083d5790505b50905060005b8281101561096857600061087d610875838c61170f565b600090610f4e565b60408051808201825282815260008381526002602081815291849020845160a0810186528154815260018201546001600160401b0380821683870152600160401b8204811683890152600160801b909104166060820152918101805486518186028101860190975280875296975093958387019592949193608086019392919083018282801561093657602002820191906000526020600020905b81546001600160a01b03168152600190910190602001808311610918575b505050505081525050815250838381518110610954576109546114fa565b60209081029190910101525060010161085e565b509450505083101590509250929050565b60006109858183610efb565b92915050565b81610997600082610efb565b6109d25760408051808201825260098152681393d517d193d5539160ba1b6020820152905162461bcd60e51b81526101eb91906004016114e7565b336000818152600760205260409020600201546001600160a01b0316610a2e57604080518082018252600e81526d1393d11157d393d517d193d5539160921b6020820152905162461bcd60e51b81526101eb91906004016114e7565b6000848152600260208190526040822090810154909190815b81811015610b4957866001600160a01b0316846002018281548110610a6e57610a6e6114fa565b6000918252602090912001546001600160a01b031603610b415760028401610a976001846116fc565b81548110610aa757610aa76114fa565b6000918252602090912001546002850180546001600160a01b039092169183908110610ad557610ad56114fa565b9060005260206000200160006101000a8154816001600160a01b0302191690836001600160a01b0316021790555083600201805480610b1657610b16611722565b600082815260209020810160001990810180546001600160a01b031916905501905560019250610b49565b600101610a47565b5081610b8b57604080518082018252600e81526d1393d11157d393d517d193d5539160921b6020820152905162461bcd60e51b81526101eb91906004016114e7565b604080518881526001600160a01b03881660208201526000918101919091527faaa473c28a5fe04b6a7ecd795826e462f9d0c23f00ef9f51ec02fa6ea418806f906060016104fd565b336000818152600760205260409020600201546001600160a01b0316610c3057604080518082018252600e81526d1393d11157d393d517d193d5539160921b6020820152905162461bcd60e51b81526101eb91906004016114e7565b816000819003610c6f5760408051808201825260078152664241445f41524760c81b6020820152905162461bcd60e51b81526101eb91906004016114e7565b60005b81811015610ef45736858583818110610c8d57610c8d6114fa565b60a002919091019150610ca4905060008235610efb565b610d1c577f75460fe319331413a18a82d99b07735cec53fa0c4061ada38c2141e331082afa81356040830135610ce06080850160608601611738565b60408051808201825260098152681393d517d193d5539160ba1b60208201529051610d0e9493929190611761565b60405180910390a150610eec565b80356000908152600260205260409020600180820154600160801b90041615610db8577f75460fe319331413a18a82d99b07735cec53fa0c4061ada38c2141e331082afa82356040840135610d776080860160608701611738565b604080518082018252600d81526c14d51491505357d4d150531151609a1b60208201529051610da99493929190611761565b60405180910390a15050610eec565b60018101546001600160401b0316600003610de65781356000908152600360205260408120610de691611082565b60408201358155610dfd6080830160608401611738565b60018201805467ffffffffffffffff19166001600160401b0392909216919091179055610e3060a0830160808401611799565b15610e68576001818101805467ffffffffffffffff60801b198116600160801b918290046001600160401b0316909317029190911790555b7fccc26bbb6dd655ea0bb8a40a3c30e35c6bdf42f8faf0d71bbea897af768cda8b82356040840135610ea06080860160608701611738565b610eb060a0870160808801611799565b604051610ee1949392919093845260208401929092526001600160401b031660408301521515606082015260800190565b60405180910390a150505b600101610c72565b5050505050565b600081815260018301602052604081205415155b9392505050565b6001600160a01b03811660009081526001830160205260408120541515610f0f565b6000610f0f8383610f5a565b6000610985825490565b6000610f0f8383610fa9565b6000818152600183016020526040812054610fa157508154600181810184556000848152602080822090930184905584548482528286019093526040902091909155610985565b506000610985565b6000826000018281548110610fc057610fc06114fa565b9060005260206000200154905092915050565b828054828255906000526020600020908101928215611028579160200282015b8281111561102857825182546001600160a01b0319166001600160a01b03909116178255602090920191600190910190610ff3565b506110349291506110bf565b5090565b60408051808201909152600081526020810161107d6040805160a081018252600080825260208201819052918101829052606080820192909252608081019190915290565b905290565b50805461108e90611510565b6000825580601f1061109e575050565b601f0160209004906000526020600020908101906110bc91906110bf565b50565b5b8082111561103457600081556001016110c0565b6000602082840312156110e657600080fd5b5035919050565b600060a08301825184526020808401516001600160401b0380821660208801528060408701511660408801528060608701511660608801525050608084015160a0608087015282815180855260c088019150602083019450600092505b808310156111735784516001600160a01b0316825293830193600192909201919083019061114a565b509695505050505050565b602081526000610f0f60208301846110ed565b634e487b7160e01b600052604160045260246000fd5b604051601f8201601f191681016001600160401b03811182821017156111cf576111cf611191565b604052919050565b80356001600160a01b03811681146111ee57600080fd5b919050565b600082601f83011261120457600080fd5b81356001600160401b0381111561121d5761121d611191565b611230601f8201601f19166020016111a7565b81815284602083860101111561124557600080fd5b816020850160208301376000918101602001919091529392505050565b6000806000806080858703121561127857600080fd5b843593506020808601356001600160401b038082111561129757600080fd5b818801915088601f8301126112ab57600080fd5b8135818111156112bd576112bd611191565b8060051b6112cc8582016111a7565b918252838101850191858101908c8411156112e657600080fd5b948601945b8386101561130b576112fc866111d7565b825294860194908601906112eb565b985050505060408801359450606088013592508083111561132b57600080fd5b5050611339878288016111f3565b91505092959194509250565b6000806040838503121561135857600080fd5b82359150611368602084016111d7565b90509250929050565b60006020828403121561138357600080fd5b610f0f826111d7565b6000806040838503121561139f57600080fd5b50508035926020909101359150565b600060408083016040845280865180835260608601915060608160051b8701019250602080890160005b8381101561141757888603605f19018552815180518752830151838701889052611404888801826110ed565b96505093820193908201906001016113d8565b5050961515959096019490945295945050505050565b6000806020838503121561144057600080fd5b82356001600160401b038082111561145757600080fd5b818501915085601f83011261146b57600080fd5b81358181111561147a57600080fd5b86602060a08302850101111561148f57600080fd5b60209290920196919550909350505050565b6000815180845260005b818110156114c7576020818501810151868301820152016114ab565b506000602082860101526020601f19601f83011685010191505092915050565b602081526000610f0f60208301846114a1565b634e487b7160e01b600052603260045260246000fd5b600181811c9082168061152457607f821691505b60208210810361154457634e487b7160e01b600052602260045260246000fd5b50919050565b601f821115611596576000816000526020600020601f850160051c810160208610156115735750805b601f850160051c820191505b818110156115925782815560010161157f565b5050505b505050565b81516001600160401b038111156115b4576115b4611191565b6115c8816115c28454611510565b8461154a565b602080601f8311600181146115fd57600084156115e55750858301515b600019600386901b1c1916600185901b178555611592565b600085815260208120601f198616915b8281101561162c5788860151825594840194600190910190840161160d565b508582101561164a5787850151600019600388901b60f8161c191681555b5050505050600190811b01905550565b60006080820186835260206080602085015281875180845260a08601915060208901935060005b818110156116a65784516001600160a01b031683529383019391830191600101611681565b505086604086015284810360608601526116c081876114a1565b9998505050505050505050565b634e487b7160e01b600052601160045260246000fd5b6000600182016116f5576116f56116cd565b5060010190565b81810381811115610985576109856116cd565b80820180821115610985576109856116cd565b634e487b7160e01b600052603160045260246000fd5b60006020828403121561174a57600080fd5b81356001600160401b0381168114610f0f57600080fd5b8481528360208201526001600160401b038316604082015260806060820152600061178f60808301846114a1565b9695505050505050565b6000602082840312156117ab57600080fd5b81358015158114610f0f57600080fd","linkReferences":{}},"methodIdentifiers":{"allocateStream(bytes32,address[],bytes32,bytes)":"6b883c39","getPaginatedStreams(uint256,uint256)":"ca78c41a","getStream(bytes32)":"1290abe8","getStreamCount()":"c0f22084","getStreamCountOnNode(address)":"c87d1324","isStream(bytes32)":"d0c27c4f","placeStreamOnNode(bytes32,address)":"9ee86d38","removeStreamFromNode(bytes32,address)":"ee885b12","setStreamLastMiniblockBatch((bytes32,bytes32,bytes32,uint64,bool)[])":"ff3a14ab"},"id":199}