{"abi":[{"type":"function","name":"allocateStream","inputs":[{"name":"streamId","type":"bytes32","internalType":"bytes32"},{"name":"nodes","type":"address[]","internalType":"address[]"},{"name":"genesisMiniblockHash","type":"bytes32","internalType":"bytes32"},{"name":"genesisMiniblock","type":"bytes","internalType":"bytes"}],"outputs":[],"stateMutability":"nonpayable"},{"type":"function","name":"getAllStreamIds","inputs":[],"outputs":[{"name":"","type":"bytes32[]","internalType":"bytes32[]"}],"stateMutability":"view"},{"type":"function","name":"getAllStreams","inputs":[],"outputs":[{"name":"","type":"tuple[]","internalType":"struct StreamWithId[]","components":[{"name":"id","type":"bytes32","internalType":"bytes32"},{"name":"stream","type":"tuple","internalType":"struct Stream","components":[{"name":"lastMiniblockHash","type":"bytes32","internalType":"bytes32"},{"name":"lastMiniblockNum","type":"uint64","internalType":"uint64"},{"name":"reserved0","type":"uint64","internalType":"uint64"},{"name":"flags","type":"uint64","internalType":"uint64"},{"name":"nodes","type":"address[]","internalType":"address[]"}]}]}],"stateMutability":"view"},{"type":"function","name":"getPaginatedStreams","inputs":[{"name":"start","type":"uint256","internalType":"uint256"},{"name":"stop","type":"uint256","internalType":"uint256"}],"outputs":[{"name":"","type":"tuple[]","internalType":"struct StreamWithId[]","components":[{"name":"id","type":"bytes32","internalType":"bytes32"},{"name":"stream","type":"tuple","internalType":"struct Stream","components":[{"name":"lastMiniblockHash","type":"bytes32","internalType":"bytes32"},{"name":"lastMiniblockNum","type":"uint64","internalType":"uint64"},{"name":"reserved0","type":"uint64","internalType":"uint64"},{"name":"flags","type":"uint64","internalType":"uint64"},{"name":"nodes","type":"address[]","internalType":"address[]"}]}]},{"name":"","type":"bool","internalType":"bool"}],"stateMutability":"view"},{"type":"function","name":"getStream","inputs":[{"name":"streamId","type":"bytes32","internalType":"bytes32"}],"outputs":[{"name":"","type":"tuple","internalType":"struct Stream","components":[{"name":"lastMiniblockHash","type":"bytes32","internalType":"bytes32"},{"name":"lastMiniblockNum","type":"uint64","internalType":"uint64"},{"name":"reserved0","type":"uint64","internalType":"uint64"},{"name":"flags","type":"uint64","internalType":"uint64"},{"name":"nodes","type":"address[]","internalType":"address[]"}]}],"stateMutability":"view"},{"type":"function","name":"getStreamByIndex","inputs":[{"name":"i","type":"uint256","internalType":"uint256"}],"outputs":[{"name":"","type":"tuple","internalType":"struct StreamWithId","components":[{"name":"id","type":"bytes32","internalType":"bytes32"},{"name":"stream","type":"tuple","internalType":"struct Stream","components":[{"name":"lastMiniblockHash","type":"bytes32","internalType":"bytes32"},{"name":"lastMiniblockNum","type":"uint64","internalType":"uint64"},{"name":"reserved0","type":"uint64","internalType":"uint64"},{"name":"flags","type":"uint64","internalType":"uint64"},{"name":"nodes","type":"address[]","internalType":"address[]"}]}]}],"stateMutability":"view"},{"type":"function","name":"getStreamCount","inputs":[],"outputs":[{"name":"","type":"uint256","internalType":"uint256"}],"stateMutability":"view"},{"type":"function","name":"getStreamCountOnNode","inputs":[{"name":"nodeAddress","type":"address","internalType":"address"}],"outputs":[{"name":"","type":"uint256","internalType":"uint256"}],"stateMutability":"view"},{"type":"function","name":"getStreamWithGenesis","inputs":[{"name":"streamId","type":"bytes32","internalType":"bytes32"}],"outputs":[{"name":"","type":"tuple","internalType":"struct Stream","components":[{"name":"lastMiniblockHash","type":"bytes32","internalType":"bytes32"},{"name":"lastMiniblockNum","type":"uint64","internalType":"uint64"},{"name":"reserved0","type":"uint64","internalType":"uint64"},{"name":"flags","type":"uint64","internalType":"uint64"},{"name":"nodes","type":"address[]","internalType":"address[]"}]},{"name":"","type":"bytes32","internalType":"bytes32"},{"name":"","type":"bytes","internalType":"bytes"}],"stateMutability":"view"},{"type":"function","name":"getStreams","inputs":[{"name":"streamIds","type":"bytes32[]","internalType":"bytes32[]"}],"outputs":[{"name":"foundCount","type":"uint256","internalType":"uint256"},{"name":"","type":"tuple[]","internalType":"struct StreamWithId[]","components":[{"name":"id","type":"bytes32","internalType":"bytes32"},{"name":"stream","type":"tuple","internalType":"struct Stream","components":[{"name":"lastMiniblockHash","type":"bytes32","internalType":"bytes32"},{"name":"lastMiniblockNum","type":"uint64","internalType":"uint64"},{"name":"reserved0","type":"uint64","internalType":"uint64"},{"name":"flags","type":"uint64","internalType":"uint64"},{"name":"nodes","type":"address[]","internalType":"address[]"}]}]}],"stateMutability":"view"},{"type":"function","name":"getStreamsOnNode","inputs":[{"name":"nodeAddress","type":"address","internalType":"address"}],"outputs":[{"name":"","type":"tuple[]","internalType":"struct StreamWithId[]","components":[{"name":"id","type":"bytes32","internalType":"bytes32"},{"name":"stream","type":"tuple","internalType":"struct Stream","components":[{"name":"lastMiniblockHash","type":"bytes32","internalType":"bytes32"},{"name":"lastMiniblockNum","type":"uint64","internalType":"uint64"},{"name":"reserved0","type":"uint64","internalType":"uint64"},{"name":"flags","type":"uint64","internalType":"uint64"},{"name":"nodes","type":"address[]","internalType":"address[]"}]}]}],"stateMutability":"view"},{"type":"function","name":"placeStreamOnNode","inputs":[{"name":"streamId","type":"bytes32","internalType":"bytes32"},{"name":"nodeAddress","type":"address","internalType":"address"}],"outputs":[],"stateMutability":"nonpayable"},{"type":"function","name":"removeStreamFromNode","inputs":[{"name":"streamId","type":"bytes32","internalType":"bytes32"},{"name":"nodeAddress","type":"address","internalType":"address"}],"outputs":[],"stateMutability":"nonpayable"},{"type":"function","name":"setStreamLastMiniblock","inputs":[{"name":"streamId","type":"bytes32","internalType":"bytes32"},{"name":"","type":"bytes32","internalType":"bytes32"},{"name":"lastMiniblockHash","type":"bytes32","internalType":"bytes32"},{"name":"lastMiniblockNum","type":"uint64","internalType":"uint64"},{"name":"isSealed","type":"bool","internalType":"bool"}],"outputs":[],"stateMutability":"nonpayable"},{"type":"function","name":"setStreamLastMiniblockBatch","inputs":[{"name":"miniblocks","type":"tuple[]","internalType":"struct SetMiniblock[]","components":[{"name":"streamId","type":"bytes32","internalType":"bytes32"},{"name":"prevMiniBlockHash","type":"bytes32","internalType":"bytes32"},{"name":"lastMiniblockHash","type":"bytes32","internalType":"bytes32"},{"name":"lastMiniblockNum","type":"uint64","internalType":"uint64"},{"name":"isSealed","type":"bool","internalType":"bool"}]}],"outputs":[],"stateMutability":"nonpayable"},{"type":"event","name":"StreamAllocated","inputs":[{"name":"streamId","type":"bytes32","indexed":false,"internalType":"bytes32"},{"name":"nodes","type":"address[]","indexed":false,"internalType":"address[]"},{"name":"genesisMiniblockHash","type":"bytes32","indexed":false,"internalType":"bytes32"},{"name":"genesisMiniblock","type":"bytes","indexed":false,"internalType":"bytes"}],"anonymous":false},{"type":"event","name":"StreamLastMiniblockUpdateFailed","inputs":[{"name":"streamId","type":"bytes32","indexed":false,"internalType":"bytes32"},{"name":"lastMiniblockHash","type":"bytes32","indexed":false,"internalType":"bytes32"},{"name":"lastMiniblockNum","type":"uint64","indexed":false,"internalType":"uint64"},{"name":"reason","type":"string","indexed":false,"internalType":"string"}],"anonymous":false},{"type":"event","name":"StreamLastMiniblockUpdated","inputs":[{"name":"streamId","type":"bytes32","indexed":false,"internalType":"bytes32"},{"name":"lastMiniblockHash","type":"bytes32","indexed":false,"internalType":"bytes32"},{"name":"lastMiniblockNum","type":"uint64","indexed":false,"internalType":"uint64"},{"name":"isSealed","type":"bool","indexed":false,"internalType":"bool"}],"anonymous":false},{"type":"event","name":"StreamPlacementUpdated","inputs":[{"name":"streamId","type":"bytes32","indexed":false,"internalType":"bytes32"},{"name":"nodeAddress","type":"address","indexed":false,"internalType":"address"},{"name":"isAdded","type":"bool","indexed":false,"internalType":"bool"}],"anonymous":false}],"bytecode":{"object":"0x608060405234801561001057600080fd5b50612459806100206000396000f3fe608060405234801561001057600080fd5b50600436106100f55760003560e01c806386789fc611610097578063ca78c41a11610066578063ca78c41a14610214578063d7a3158a14610235578063ee885b1214610248578063ff3a14ab1461025b57600080fd5b806386789fc6146101c35780639ee86d38146101d8578063c0f22084146101eb578063c87d13241461020157600080fd5b80633c2544d1116100d35780633c2544d11461014b57806368b454df1461016d5780636b883c391461018d57806372e1a68b146101a257600080fd5b80631290abe8146100fa57806332705ac4146101235780633bd84c0c14610143575b600080fd5b61010d610108366004611bb7565b61026e565b60405161011a9190611c61565b60405180910390f35b610136610131366004611c90565b610399565b60405161011a9190611d2c565b61013661064b565b61015e610159366004611bb7565b6107b9565b60405161011a93929190611d85565b61018061017b366004611bb7565b61098a565b60405161011a9190611dba565b6101a061019b366004611e82565b610ab6565b005b6101b56101b0366004611f65565b610d1d565b60405161011a929190611fd9565b6101cb610eb7565b60405161011a9190611ff2565b6101a06101e6366004612036565b610ec8565b6101f3611089565b60405190815260200161011a565b6101f361020f366004611c90565b611094565b610227610222366004612062565b611142565b60405161011a929190612084565b6101a06102433660046120cf565b611333565b6101a0610256366004612036565b6114b6565b6101a061026936600461211f565b611703565b6040805160a08101825260008082526020820181905291810182905260608082018390526080820152906102a2908361196c565b6102e65760408051808201825260098152681393d517d193d5539160ba1b6020820152905162461bcd60e51b81526102dd9190600401612181565b60405180910390fd5b600082815260026020818152604092839020835160a0810185528154815260018201546001600160401b0380821683860152600160401b8204811683880152600160801b909104166060820152928101805485518185028101850190965280865293949193608086019383018282801561038957602002820191906000526020600020905b81546001600160a01b0316815260019091019060200180831161036b575b5050505050815250509050919050565b606060006103a681611989565b90506000816001600160401b038111156103c2576103c2611dcd565b6040519080825280602002602001820160405280156103eb578160200160208202803683370190505b5090506000805b838110156104ad5760006104068183611993565b600081815260026020819052604082209081015492935091905b8181101561049e57896001600160a01b031683600201828154811061044757610447612194565b6000918252602090912001546001600160a01b0316036104965783878761046d816121c0565b985063ffffffff168151811061048557610485612194565b60200260200101818152505061049e565b600101610420565b505050508060010190506103f2565b5060008163ffffffff166001600160401b038111156104ce576104ce611dcd565b60405190808252806020026020018201604052801561050757816020015b6104f4611ab6565b8152602001906001900390816104ec5790505b50905060005b8263ffffffff1681101561064157604051806040016040528085838151811061053857610538612194565b602002602001015181526020016000600201600087858151811061055e5761055e612194565b6020908102919091018101518252818101929092526040908101600020815160a0810183528154815260018201546001600160401b0380821683870152600160401b8204811683860152600160801b90910416606082015260028201805484518187028101870190955280855291949293608086019390929083018282801561061057602002820191906000526020600020905b81546001600160a01b031681526001909101906020018083116105f2575b50505050508152505081525082828151811061062e5761062e612194565b602090810291909101015260010161050d565b5095945050505050565b6060600061065881611989565b90506000816001600160401b0381111561067457610674611dcd565b6040519080825280602002602001820160405280156106ad57816020015b61069a611ab6565b8152602001906001900390816106925790505b50905060005b828110156107b25760006106c78183611993565b60408051808201825282815260008381526002602081815291849020845160a0810186528154815260018201546001600160401b0380821683870152600160401b8204811683890152600160801b909104166060820152918101805486518186028101860190975280875296975093958387019592949193608086019392919083018282801561078057602002820191906000526020600020905b81546001600160a01b03168152600190910190602001808311610762575b50505050508152505081525083838151811061079e5761079e612194565b6020908102919091010152506001016106b3565b5092915050565b6040805160a0810182526000808252602082018190529181018290526060808201839052608082018190529091906107f1828561196c565b61082c5760408051808201825260098152681393d517d193d5539160ba1b6020820152905162461bcd60e51b81526102dd9190600401612181565b600084815260026020818152604080842060048352818520546003845294829020825160a0810184528254815260018301546001600160401b0380821683880152600160401b8204811683870152600160801b909104166060820152948201805484518187028101870190955280855292969591949193879360808601939192918301828280156108e657602002820191906000526020600020905b81546001600160a01b031681526001909101906020018083116108c8575b50505050508152505092508080546108fd906121e3565b80601f0160208091040260200160405190810160405280929190818152602001828054610929906121e3565b80156109765780601f1061094b57610100808354040283529160200191610976565b820191906000526020600020905b81548152906001019060200180831161095957829003601f168201915b505050505090509250925092509193909250565b610992611ab6565b600061099d81611989565b90508083106109dd5760408051808201825260098152681393d517d193d5539160ba1b6020820152905162461bcd60e51b81526102dd9190600401612181565b60006109e98185611993565b60408051808201825282815260008381526002602081815291849020845160a0810186528154815260018201546001600160401b0380821683870152600160401b8204811683890152600160801b9091041660608201529181018054865181860281018601909752808752969750939583870195929491936080860193929190830182828015610aa257602002820191906000526020600020905b81546001600160a01b03168152600190910190602001808311610a84575b505050919092525050509052949350505050565b336000818152600760205260409020600201546001600160a01b0316610b1257604080518082018252600e81526d1393d11157d393d517d193d5539160921b6020820152905162461bcd60e51b81526102dd9190600401612181565b610b1d60008661196c565b15610b5e57604080518082018252600e81526d414c52454144595f45584953545360901b6020820152905162461bcd60e51b81526102dd9190600401612181565b835160005b81811015610be357610b9b868281518110610b8057610b80612194565b6020026020010151600060050161199f90919063ffffffff16565b610bdb57604080518082018252600e81526d1393d11157d393d517d193d5539160921b6020820152905162461bcd60e51b81526102dd9190600401612181565b600101610b63565b506040805160a081018252858152600060208201819052918101829052606081018290526080810187905290610c1990886119c1565b5060008781526002602081815260409283902084518155818501516001820180549587015160608801516001600160401b03908116600160801b0267ffffffffffffffff60801b19928216600160401b026fffffffffffffffffffffffffffffffff19909916919094161796909617959095161790935560808401518051859493610ca993908501920190611b00565b5050506000878152600360205260409020610cc4858261226e565b5060008781526004602052604090819020869055517f55ef7efc60ef99743e54209752c9a8e047e013917ec91572db75875069dd65bb90610d0c90899089908990899061232d565b60405180910390a150505050505050565b600060608282816001600160401b03811115610d3b57610d3b611dcd565b604051908082528060200260200182016040528015610d7457816020015b610d61611ab6565b815260200190600190039081610d595790505b50905060005b82811015610eac576000878783818110610d9657610d96612194565b6020908102929092013560008181526002938490526040812093840154919450039050610dc4575050610ea4565b604080518082018252838152815160a0810183528354815260018401546001600160401b03808216602084810191909152600160401b8304821684870152600160801b909204166060830152600285018054855181840281018401909652808652939482860194879360808601939190830182828015610e6d57602002820191906000526020600020905b81546001600160a01b03168152600190910190602001808311610e4f575b5050509190925250505090528488610e84816123a0565b995081518110610e9657610e96612194565b602002602001018190525050505b600101610d7a565b509150509250929050565b6060610ec360006119cd565b905090565b81610ed460008261196c565b610f0f5760408051808201825260098152681393d517d193d5539160ba1b6020820152905162461bcd60e51b81526102dd9190600401612181565b6001600160a01b03808316600090815260076020526040902060020154839116610f6f57604080518082018252600e81526d1393d11157d393d517d193d5539160921b6020820152905162461bcd60e51b81526102dd9190600401612181565b600084815260026020819052604082209081015490915b8181101561100b57856001600160a01b0316836002018281548110610fad57610fad612194565b6000918252602090912001546001600160a01b03160361100357604080518082018252600e81526d414c52454144595f45584953545360901b6020820152905162461bcd60e51b81526102dd9190600401612181565b600101610f86565b5060028201805460018082018355600092835260209283902090910180546001600160a01b0319166001600160a01b038916908117909155604080518a8152938401919091528201527faaa473c28a5fe04b6a7ecd795826e462f9d0c23f00ef9f51ec02fa6ea418806f9060600160405180910390a1505050505050565b6000610ec381611989565b600080806110a181611989565b905060005b818110156111395760006110ba8183611993565b60008181526002602052604081209192505b600282015481101561112b57876001600160a01b03168260020182815481106110f7576110f7612194565b6000918252602090912001546001600160a01b031603611123578561111b816123a0565b96505061112b565b6001016110cc565b5050508060010190506110a6565b50909392505050565b60606000828410604051806040016040528060078152602001664241445f41524760c81b815250906111875760405162461bcd60e51b81526004016102dd9190612181565b50600061119485856123b9565b6001600160401b038111156111ab576111ab611dcd565b6040519080825280602002602001820160405280156111e457816020015b6111d1611ab6565b8152602001906001900390816111c95790505b50905060006111f281611989565b905060005b8161120282896123cc565b10801561121757508561121582896123cc565b105b1561132757600061123361122b838a6123cc565b600090611993565b60408051808201825282815260008381526002602081815291849020845160a0810186528154815260018201546001600160401b0380821683870152600160401b8204811683890152600160801b90910416606082015291810180548651818602810186019097528087529697509395838701959294919360808601939291908301828280156112ec57602002820191906000526020600020905b81546001600160a01b031681526001909101906020018083116112ce575b50505050508152505081525084838151811061130a5761130a612194565b60200260200101819052505080611320906123a0565b90506111f7565b50909593101593505050565b336000818152600760205260409020600201546001600160a01b031661138f57604080518082018252600e81526d1393d11157d393d517d193d5539160921b6020820152905162461bcd60e51b81526102dd9190600401612181565b61139a60008761196c565b6113d55760408051808201825260098152681393d517d193d5539160ba1b6020820152905162461bcd60e51b81526102dd9190600401612181565b600086815260026020526040902084815560018101805467ffffffffffffffff19166001600160401b038616179055821561143d576001818101805467ffffffffffffffff60801b198116600160801b918290046001600160401b0316909317029190911790555b836001600160401b031660010361146557600087815260036020526040812061146591611b65565b60408051888152602081018790526001600160401b0386169181019190915283151560608201527fccc26bbb6dd655ea0bb8a40a3c30e35c6bdf42f8faf0d71bbea897af768cda8b90608001610d0c565b816114c260008261196c565b6114fd5760408051808201825260098152681393d517d193d5539160ba1b6020820152905162461bcd60e51b81526102dd9190600401612181565b6001600160a01b0380831660009081526007602052604090206002015483911661155d57604080518082018252600e81526d1393d11157d393d517d193d5539160921b6020820152905162461bcd60e51b81526102dd9190600401612181565b6000848152600260208190526040822090810154909190815b8181101561167857866001600160a01b031684600201828154811061159d5761159d612194565b6000918252602090912001546001600160a01b03160361167057600284016115c66001846123b9565b815481106115d6576115d6612194565b6000918252602090912001546002850180546001600160a01b03909216918390811061160457611604612194565b9060005260206000200160006101000a8154816001600160a01b0302191690836001600160a01b0316021790555083600201805480611645576116456123df565b600082815260209020810160001990810180546001600160a01b031916905501905560019250611678565b600101611576565b50816116ba57604080518082018252600e81526d1393d11157d393d517d193d5539160921b6020820152905162461bcd60e51b81526102dd9190600401612181565b604080518881526001600160a01b03881660208201526000918101919091527faaa473c28a5fe04b6a7ecd795826e462f9d0c23f00ef9f51ec02fa6ea418806f90606001610d0c565b336000818152600760205260409020600201546001600160a01b031661175f57604080518082018252600e81526d1393d11157d393d517d193d5539160921b6020820152905162461bcd60e51b81526102dd9190600401612181565b8160005b81811015611965573685858381811061177e5761177e612194565b60a00291909101915061179590506000823561196c565b61180d577f75460fe319331413a18a82d99b07735cec53fa0c4061ada38c2141e331082afa813560408301356117d160808501606086016123f5565b60408051808201825260098152681393d517d193d5539160ba1b602082015290516117ff9493929190612410565b60405180910390a15061195d565b80356000908152600260205260409081902090820135815561183560808301606084016123f5565b60018201805467ffffffffffffffff19166001600160401b039290921691909117905561186860a083016080840161243e565b156118a0576001818101805467ffffffffffffffff60801b198116600160801b918290046001600160401b0316909317029190911790555b6118b060808301606084016123f5565b6001600160401b03166001036118d957813560009081526003602052604081206118d991611b65565b7fccc26bbb6dd655ea0bb8a40a3c30e35c6bdf42f8faf0d71bbea897af768cda8b8235604084013561191160808601606087016123f5565b61192160a087016080880161243e565b604051611952949392919093845260208401929092526001600160401b031660408301521515606082015260800190565b60405180910390a150505b600101611763565b5050505050565b600081815260018301602052604081205415155b90505b92915050565b6000611983825490565b600061198083836119e1565b6001600160a01b03811660009081526001830160205260408120541515611980565b60006119808383611a0b565b606060006119da83611a5a565b9392505050565b60008260000182815481106119f8576119f8612194565b9060005260206000200154905092915050565b6000818152600183016020526040812054611a5257508154600181810184556000848152602080822090930184905584548482528286019093526040902091909155611983565b506000611983565b606081600001805480602002602001604051908101604052809291908181526020018280548015611aaa57602002820191906000526020600020905b815481526020019060010190808311611a96575b50505050509050919050565b604080518082019091526000815260208101611afb6040805160a081018252600080825260208201819052918101829052606080820192909252608081019190915290565b905290565b828054828255906000526020600020908101928215611b55579160200282015b82811115611b5557825182546001600160a01b0319166001600160a01b03909116178255602090920191600190910190611b20565b50611b61929150611ba2565b5090565b508054611b71906121e3565b6000825580601f10611b81575050565b601f016020900490600052602060002090810190611b9f9190611ba2565b50565b5b80821115611b615760008155600101611ba3565b600060208284031215611bc957600080fd5b5035919050565b600060a08301825184526020808401516001600160401b0380821660208801528060408701511660408801528060608701511660608801525050608084015160a0608087015282815180855260c088019150602083019450600092505b80831015611c565784516001600160a01b03168252938301936001929092019190830190611c2d565b509695505050505050565b6020815260006119806020830184611bd0565b80356001600160a01b0381168114611c8b57600080fd5b919050565b600060208284031215611ca257600080fd5b61198082611c74565b805182526000602082015160406020850152611cca6040850182611bd0565b949350505050565b60008282518085526020808601955060208260051b8401016020860160005b84811015611d1f57601f19868403018952611d0d838351611cab565b98840198925090830190600101611cf1565b5090979650505050505050565b6020815260006119806020830184611cd2565b6000815180845260005b81811015611d6557602081850181015186830182015201611d49565b506000602082860101526020601f19601f83011685010191505092915050565b606081526000611d986060830186611bd0565b8460208401528281036040840152611db08185611d3f565b9695505050505050565b6020815260006119806020830184611cab565b634e487b7160e01b600052604160045260246000fd5b604051601f8201601f191681016001600160401b0381118282101715611e0b57611e0b611dcd565b604052919050565b600082601f830112611e2457600080fd5b81356001600160401b03811115611e3d57611e3d611dcd565b611e50601f8201601f1916602001611de3565b818152846020838601011115611e6557600080fd5b816020850160208301376000918101602001919091529392505050565b60008060008060808587031215611e9857600080fd5b843593506020808601356001600160401b0380821115611eb757600080fd5b818801915088601f830112611ecb57600080fd5b813581811115611edd57611edd611dcd565b8060051b611eec858201611de3565b918252838101850191858101908c841115611f0657600080fd5b948601945b83861015611f2b57611f1c86611c74565b82529486019490860190611f0b565b9850505050604088013594506060880135925080831115611f4b57600080fd5b5050611f5987828801611e13565b91505092959194509250565b60008060208385031215611f7857600080fd5b82356001600160401b0380821115611f8f57600080fd5b818501915085601f830112611fa357600080fd5b813581811115611fb257600080fd5b8660208260051b8501011115611fc757600080fd5b60209290920196919550909350505050565b828152604060208201526000611cca6040830184611cd2565b6020808252825182820181905260009190848201906040850190845b8181101561202a5783518352928401929184019160010161200e565b50909695505050505050565b6000806040838503121561204957600080fd5b8235915061205960208401611c74565b90509250929050565b6000806040838503121561207557600080fd5b50508035926020909101359150565b6040815260006120976040830185611cd2565b905082151560208301529392505050565b80356001600160401b0381168114611c8b57600080fd5b80358015158114611c8b57600080fd5b600080600080600060a086880312156120e757600080fd5b853594506020860135935060408601359250612105606087016120a8565b9150612113608087016120bf565b90509295509295909350565b6000806020838503121561213257600080fd5b82356001600160401b038082111561214957600080fd5b818501915085601f83011261215d57600080fd5b81358181111561216c57600080fd5b86602060a083028501011115611fc757600080fd5b6020815260006119806020830184611d3f565b634e487b7160e01b600052603260045260246000fd5b634e487b7160e01b600052601160045260246000fd5b600063ffffffff8083168181036121d9576121d96121aa565b6001019392505050565b600181811c908216806121f757607f821691505b60208210810361221757634e487b7160e01b600052602260045260246000fd5b50919050565b601f821115612269576000816000526020600020601f850160051c810160208610156122465750805b601f850160051c820191505b8181101561226557828155600101612252565b5050505b505050565b81516001600160401b0381111561228757612287611dcd565b61229b8161229584546121e3565b8461221d565b602080601f8311600181146122d057600084156122b85750858301515b600019600386901b1c1916600185901b178555612265565b600085815260208120601f198616915b828110156122ff578886015182559484019460019091019084016122e0565b508582101561231d5787850151600019600388901b60f8161c191681555b5050505050600190811b01905550565b60006080820186835260206080602085015281875180845260a08601915060208901935060005b818110156123795784516001600160a01b031683529383019391830191600101612354565b505086604086015284810360608601526123938187611d3f565b9998505050505050505050565b6000600182016123b2576123b26121aa565b5060010190565b81810381811115611983576119836121aa565b80820180821115611983576119836121aa565b634e487b7160e01b600052603160045260246000fd5b60006020828403121561240757600080fd5b611980826120a8565b8481528360208201526001600160401b0383166040820152608060608201526000611db06080830184611d3f565b60006020828403121561245057600080fd5b611980826120bf56","linkReferences":{}},"methodIdentifiers":{"allocateStream(bytes32,address[],bytes32,bytes)":"6b883c39","getAllStreamIds()":"86789fc6","getAllStreams()":"3bd84c0c","getPaginatedStreams(uint256,uint256)":"ca78c41a","getStream(bytes32)":"1290abe8","getStreamByIndex(uint256)":"68b454df","getStreamCount()":"c0f22084","getStreamCountOnNode(address)":"c87d1324","getStreamWithGenesis(bytes32)":"3c2544d1","getStreams(bytes32[])":"72e1a68b","getStreamsOnNode(address)":"32705ac4","placeStreamOnNode(bytes32,address)":"9ee86d38","removeStreamFromNode(bytes32,address)":"ee885b12","setStreamLastMiniblock(bytes32,bytes32,bytes32,uint64,bool)":"d7a3158a","setStreamLastMiniblockBatch((bytes32,bytes32,bytes32,uint64,bool)[])":"ff3a14ab"},"id":44}