{"abi":[{"type":"function","name":"addStream","inputs":[{"name":"streamId","type":"bytes32","internalType":"bytes32"},{"name":"genesisMiniblockHash","type":"bytes32","internalType":"bytes32"},{"name":"stream","type":"tuple","internalType":"struct Stream","components":[{"name":"lastMiniblockHash","type":"bytes32","internalType":"bytes32"},{"name":"lastMiniblockNum","type":"uint64","internalType":"uint64"},{"name":"reserved0","type":"uint64","internalType":"uint64"},{"name":"flags","type":"uint64","internalType":"uint64"},{"name":"nodes","type":"address[]","internalType":"address[]"}]}],"outputs":[],"stateMutability":"nonpayable"},{"type":"function","name":"allocateStream","inputs":[{"name":"streamId","type":"bytes32","internalType":"bytes32"},{"name":"nodes","type":"address[]","internalType":"address[]"},{"name":"genesisMiniblockHash","type":"bytes32","internalType":"bytes32"},{"name":"genesisMiniblock","type":"bytes","internalType":"bytes"}],"outputs":[],"stateMutability":"nonpayable"},{"type":"function","name":"getPaginatedStreams","inputs":[{"name":"start","type":"uint256","internalType":"uint256"},{"name":"stop","type":"uint256","internalType":"uint256"}],"outputs":[{"name":"","type":"tuple[]","internalType":"struct StreamWithId[]","components":[{"name":"id","type":"bytes32","internalType":"bytes32"},{"name":"stream","type":"tuple","internalType":"struct Stream","components":[{"name":"lastMiniblockHash","type":"bytes32","internalType":"bytes32"},{"name":"lastMiniblockNum","type":"uint64","internalType":"uint64"},{"name":"reserved0","type":"uint64","internalType":"uint64"},{"name":"flags","type":"uint64","internalType":"uint64"},{"name":"nodes","type":"address[]","internalType":"address[]"}]}]},{"name":"","type":"bool","internalType":"bool"}],"stateMutability":"view"},{"type":"function","name":"getStream","inputs":[{"name":"streamId","type":"bytes32","internalType":"bytes32"}],"outputs":[{"name":"","type":"tuple","internalType":"struct Stream","components":[{"name":"lastMiniblockHash","type":"bytes32","internalType":"bytes32"},{"name":"lastMiniblockNum","type":"uint64","internalType":"uint64"},{"name":"reserved0","type":"uint64","internalType":"uint64"},{"name":"flags","type":"uint64","internalType":"uint64"},{"name":"nodes","type":"address[]","internalType":"address[]"}]}],"stateMutability":"view"},{"type":"function","name":"getStreamCount","inputs":[],"outputs":[{"name":"","type":"uint256","internalType":"uint256"}],"stateMutability":"view"},{"type":"function","name":"getStreamCountOnNode","inputs":[{"name":"nodeAddress","type":"address","internalType":"address"}],"outputs":[{"name":"","type":"uint256","internalType":"uint256"}],"stateMutability":"view"},{"type":"function","name":"getStreamWithGenesis","inputs":[{"name":"streamId","type":"bytes32","internalType":"bytes32"}],"outputs":[{"name":"","type":"tuple","internalType":"struct Stream","components":[{"name":"lastMiniblockHash","type":"bytes32","internalType":"bytes32"},{"name":"lastMiniblockNum","type":"uint64","internalType":"uint64"},{"name":"reserved0","type":"uint64","internalType":"uint64"},{"name":"flags","type":"uint64","internalType":"uint64"},{"name":"nodes","type":"address[]","internalType":"address[]"}]},{"name":"","type":"bytes32","internalType":"bytes32"},{"name":"","type":"bytes","internalType":"bytes"}],"stateMutability":"view"},{"type":"function","name":"isStream","inputs":[{"name":"streamId","type":"bytes32","internalType":"bytes32"}],"outputs":[{"name":"","type":"bool","internalType":"bool"}],"stateMutability":"view"},{"type":"function","name":"placeStreamOnNode","inputs":[{"name":"streamId","type":"bytes32","internalType":"bytes32"},{"name":"nodeAddress","type":"address","internalType":"address"}],"outputs":[],"stateMutability":"nonpayable"},{"type":"function","name":"removeStreamFromNode","inputs":[{"name":"streamId","type":"bytes32","internalType":"bytes32"},{"name":"nodeAddress","type":"address","internalType":"address"}],"outputs":[],"stateMutability":"nonpayable"},{"type":"function","name":"setStreamLastMiniblock","inputs":[{"name":"streamId","type":"bytes32","internalType":"bytes32"},{"name":"","type":"bytes32","internalType":"bytes32"},{"name":"lastMiniblockHash","type":"bytes32","internalType":"bytes32"},{"name":"lastMiniblockNum","type":"uint64","internalType":"uint64"},{"name":"isSealed","type":"bool","internalType":"bool"}],"outputs":[],"stateMutability":"nonpayable"},{"type":"function","name":"setStreamLastMiniblockBatch","inputs":[{"name":"miniblocks","type":"tuple[]","internalType":"struct SetMiniblock[]","components":[{"name":"streamId","type":"bytes32","internalType":"bytes32"},{"name":"prevMiniBlockHash","type":"bytes32","internalType":"bytes32"},{"name":"lastMiniblockHash","type":"bytes32","internalType":"bytes32"},{"name":"lastMiniblockNum","type":"uint64","internalType":"uint64"},{"name":"isSealed","type":"bool","internalType":"bool"}]}],"outputs":[],"stateMutability":"nonpayable"},{"type":"event","name":"StreamAllocated","inputs":[{"name":"streamId","type":"bytes32","indexed":false,"internalType":"bytes32"},{"name":"nodes","type":"address[]","indexed":false,"internalType":"address[]"},{"name":"genesisMiniblockHash","type":"bytes32","indexed":false,"internalType":"bytes32"},{"name":"genesisMiniblock","type":"bytes","indexed":false,"internalType":"bytes"}],"anonymous":false},{"type":"event","name":"StreamCreated","inputs":[{"name":"streamId","type":"bytes32","indexed":false,"internalType":"bytes32"},{"name":"genesisMiniblockHash","type":"bytes32","indexed":false,"internalType":"bytes32"},{"name":"stream","type":"tuple","indexed":false,"internalType":"struct Stream","components":[{"name":"lastMiniblockHash","type":"bytes32","internalType":"bytes32"},{"name":"lastMiniblockNum","type":"uint64","internalType":"uint64"},{"name":"reserved0","type":"uint64","internalType":"uint64"},{"name":"flags","type":"uint64","internalType":"uint64"},{"name":"nodes","type":"address[]","internalType":"address[]"}]}],"anonymous":false},{"type":"event","name":"StreamLastMiniblockUpdateFailed","inputs":[{"name":"streamId","type":"bytes32","indexed":false,"internalType":"bytes32"},{"name":"lastMiniblockHash","type":"bytes32","indexed":false,"internalType":"bytes32"},{"name":"lastMiniblockNum","type":"uint64","indexed":false,"internalType":"uint64"},{"name":"reason","type":"string","indexed":false,"internalType":"string"}],"anonymous":false},{"type":"event","name":"StreamLastMiniblockUpdated","inputs":[{"name":"streamId","type":"bytes32","indexed":false,"internalType":"bytes32"},{"name":"lastMiniblockHash","type":"bytes32","indexed":false,"internalType":"bytes32"},{"name":"lastMiniblockNum","type":"uint64","indexed":false,"internalType":"uint64"},{"name":"isSealed","type":"bool","indexed":false,"internalType":"bool"}],"anonymous":false},{"type":"event","name":"StreamPlacementUpdated","inputs":[{"name":"streamId","type":"bytes32","indexed":false,"internalType":"bytes32"},{"name":"nodeAddress","type":"address","indexed":false,"internalType":"address"},{"name":"isAdded","type":"bool","indexed":false,"internalType":"bool"}],"anonymous":false}],"bytecode":{"object":"0x608060405234801561001057600080fd5b50612022806100206000396000f3fe608060405234801561001057600080fd5b50600436106100b45760003560e01c8063c87d132411610071578063c87d132414610155578063ca78c41a14610168578063d0c27c4f14610189578063d7a3158a146101ac578063ee885b12146101bf578063ff3a14ab146101d257600080fd5b80631290abe8146100b95780633c2544d1146100e25780636b883c39146101045780639ee86d3814610119578063b2e76b8e1461012c578063c0f220841461013f575b600080fd5b6100cc6100c73660046117a0565b6101e5565b6040516100d9919061184a565b60405180910390f35b6100f56100f03660046117a0565b610310565b6040516100d9939291906118a3565b6101176101123660046119e8565b6104e1565b005b610117610127366004611ab4565b61073f565b61011761013a366004611af7565b6108fc565b610147610b00565b6040519081526020016100d9565b610147610163366004611bb5565b610b10565b61017b610176366004611bd0565b610bbe565b6040516100d9929190611bf2565b61019c6101973660046117a0565b610dae565b60405190151581526020016100d9565b6101176101ba366004611c81565b610dc0565b6101176101cd366004611ab4565b610fcc565b6101176101e0366004611cd1565b611215565b6040805160a081018252600080825260208201819052918101829052606080820183905260808201529061021990836115c7565b61025d5760408051808201825260098152681393d517d193d5539160ba1b6020820152905162461bcd60e51b81526102549190600401611d45565b60405180910390fd5b600082815260026020818152604092839020835160a0810185528154815260018201546001600160401b0380821683860152600160401b8204811683880152600160801b909104166060820152928101805485518185028101850190965280865293949193608086019383018282801561030057602002820191906000526020600020905b81546001600160a01b031681526001909101906020018083116102e2575b5050505050815250509050919050565b6040805160a08101825260008082526020820181905291810182905260608082018390526080820181905290919061034882856115c7565b6103835760408051808201825260098152681393d517d193d5539160ba1b6020820152905162461bcd60e51b81526102549190600401611d45565b600084815260026020818152604080842060048352818520546003845294829020825160a0810184528254815260018301546001600160401b0380821683880152600160401b8204811683870152600160801b9091041660608201529482018054845181870281018701909552808552929695919491938793608086019391929183018282801561043d57602002820191906000526020600020905b81546001600160a01b0316815260019091019060200180831161041f575b505050505081525050925080805461045490611d58565b80601f016020809104026020016040519081016040528092919081815260200182805461048090611d58565b80156104cd5780601f106104a2576101008083540402835291602001916104cd565b820191906000526020600020905b8154815290600101906020018083116104b057829003601f168201915b505050505090509250925092509193909250565b336000818152600760205260409020600201546001600160a01b031661053d57604080518082018252600e81526d1393d11157d393d517d193d5539160921b6020820152905162461bcd60e51b81526102549190600401611d45565b6105486000866115c7565b1561058957604080518082018252600e81526d414c52454144595f45584953545360901b6020820152905162461bcd60e51b81526102549190600401611d45565b835160005b8181101561060e576105c68682815181106105ab576105ab611d92565b602002602001015160006005016115e290919063ffffffff16565b61060657604080518082018252600e81526d1393d11157d393d517d193d5539160921b6020820152905162461bcd60e51b81526102549190600401611d45565b60010161058e565b506040805160a0810182528581526000602082018190529181018290526060810182905260808101879052906106449088611604565b5060008781526002602081815260409283902084518155818501516001820180549587015160608801516001600160401b03908116600160801b0267ffffffffffffffff60801b19928216600160401b026001600160801b03199099169190941617969096179590951617909355608084015180518594936106cb9390850192019061169f565b50505060008781526003602052604090206106e68582611df9565b5060008781526004602052604090819020869055517f55ef7efc60ef99743e54209752c9a8e047e013917ec91572db75875069dd65bb9061072e908990899089908990611eb8565b60405180910390a150505050505050565b8161074b6000826115c7565b6107865760408051808201825260098152681393d517d193d5539160ba1b6020820152905162461bcd60e51b81526102549190600401611d45565b336000818152600760205260409020600201546001600160a01b03166107e257604080518082018252600e81526d1393d11157d393d517d193d5539160921b6020820152905162461bcd60e51b81526102549190600401611d45565b600084815260026020819052604082209081015490915b8181101561087e57856001600160a01b031683600201828154811061082057610820611d92565b6000918252602090912001546001600160a01b03160361087657604080518082018252600e81526d414c52454144595f45584953545360901b6020820152905162461bcd60e51b81526102549190600401611d45565b6001016107f9565b5060028201805460018082018355600092835260209283902090910180546001600160a01b0319166001600160a01b038916908117909155604080518a8152938401919091528201527faaa473c28a5fe04b6a7ecd795826e462f9d0c23f00ef9f51ec02fa6ea418806f9060600160405180910390a1505050505050565b336000818152600760205260409020600201546001600160a01b031661095857604080518082018252600e81526d1393d11157d393d517d193d5539160921b6020820152905162461bcd60e51b81526102549190600401611d45565b6109636000856115c7565b156109a457604080518082018252600e81526d414c52454144595f45584953545360901b6020820152905162461bcd60e51b81526102549190600401611d45565b60808201515160005b81811015610a16576109ce846080015182815181106105ab576105ab611d92565b610a0e57604080518082018252600e81526d1393d11157d393d517d193d5539160921b6020820152905162461bcd60e51b81526102549190600401611d45565b6001016109ad565b50610a22600086611604565b5060008581526002602081815260409283902086518155818701516001820180549589015160608a01516001600160401b03908116600160801b0267ffffffffffffffff60801b19928216600160401b026001600160801b0319909916919094161796909617959095161790935560808601518051879493610aa99390850192019061169f565b50505060008581526004602052604090819020859055517fac1b69e6e0382c43def3cccabf63091ba47b5d8b10a705d16a1076668643fe4d90610af190879087908790611f2b565b60405180910390a15050505050565b6000610b0b81611610565b905090565b60008080610b1d81611610565b905060005b81811015610bb5576000610b36818361161a565b60008181526002602052604081209192505b6002820154811015610ba757876001600160a01b0316826002018281548110610b7357610b73611d92565b6000918252602090912001546001600160a01b031603610b9f5785610b9781611f69565b965050610ba7565b600101610b48565b505050806001019050610b22565b50909392505050565b60606000828410610bfe5760408051808201825260078152664241445f41524760c81b6020820152905162461bcd60e51b81526102549190600401611d45565b6000610c0981611610565b90506000818511610c1a5784610c1c565b815b90506000868211610c2e576000610c38565b610c388783611f82565b90506000816001600160401b03811115610c5457610c546118d8565b604051908082528060200260200182016040528015610c8d57816020015b610c7a611704565b815260200190600190039081610c725790505b50905060005b82811015610d9d576000610cb2610caa838c611f95565b60009061161a565b60408051808201825282815260008381526002602081815291849020845160a0810186528154815260018201546001600160401b0380821683870152600160401b8204811683890152600160801b9091041660608201529181018054865181860281018601909752808752969750939583870195929491936080860193929190830182828015610d6b57602002820191906000526020600020905b81546001600160a01b03168152600190910190602001808311610d4d575b505050505081525050815250838381518110610d8957610d89611d92565b602090810291909101015250600101610c93565b509450505083101590509250929050565b6000610dba81836115c7565b92915050565b336000818152600760205260409020600201546001600160a01b0316610e1c57604080518082018252600e81526d1393d11157d393d517d193d5539160921b6020820152905162461bcd60e51b81526102549190600401611d45565b610e276000876115c7565b610e625760408051808201825260098152681393d517d193d5539160ba1b6020820152905162461bcd60e51b81526102549190600401611d45565b6000868152600260205260409020600180820154600160801b90041615610ebe57604080518082018252600d81526c14d51491505357d4d150531151609a1b6020820152905162461bcd60e51b81526102549190600401611d45565b60018101546001600160401b03808616911610610f0a5760408051808201825260078152664241445f41524760c81b6020820152905162461bcd60e51b81526102549190600401611d45565b6000878152600360205260408120610f219161174e565b84815560018101805467ffffffffffffffff19166001600160401b0386161790558215610f7b576001818101805467ffffffffffffffff60801b198116600160801b918290046001600160401b0316909317029190911790555b60408051888152602081018790526001600160401b0386169181019190915283151560608201527fccc26bbb6dd655ea0bb8a40a3c30e35c6bdf42f8faf0d71bbea897af768cda8b9060800161072e565b81610fd86000826115c7565b6110135760408051808201825260098152681393d517d193d5539160ba1b6020820152905162461bcd60e51b81526102549190600401611d45565b336000818152600760205260409020600201546001600160a01b031661106f57604080518082018252600e81526d1393d11157d393d517d193d5539160921b6020820152905162461bcd60e51b81526102549190600401611d45565b6000848152600260208190526040822090810154909190815b8181101561118a57866001600160a01b03168460020182815481106110af576110af611d92565b6000918252602090912001546001600160a01b03160361118257600284016110d8600184611f82565b815481106110e8576110e8611d92565b6000918252602090912001546002850180546001600160a01b03909216918390811061111657611116611d92565b9060005260206000200160006101000a8154816001600160a01b0302191690836001600160a01b031602179055508360020180548061115757611157611fa8565b600082815260209020810160001990810180546001600160a01b03191690550190556001925061118a565b600101611088565b50816111cc57604080518082018252600e81526d1393d11157d393d517d193d5539160921b6020820152905162461bcd60e51b81526102549190600401611d45565b604080518881526001600160a01b03881660208201526000918101919091527faaa473c28a5fe04b6a7ecd795826e462f9d0c23f00ef9f51ec02fa6ea418806f9060600161072e565b336000818152600760205260409020600201546001600160a01b031661127157604080518082018252600e81526d1393d11157d393d517d193d5539160921b6020820152905162461bcd60e51b81526102549190600401611d45565b8160008190036112b05760408051808201825260078152664241445f41524760c81b6020820152905162461bcd60e51b81526102549190600401611d45565b60005b818110156115c057368585838181106112ce576112ce611d92565b60a0029190910191506112e59050600082356115c7565b61135d577f75460fe319331413a18a82d99b07735cec53fa0c4061ada38c2141e331082afa813560408301356113216080850160608601611fbe565b60408051808201825260098152681393d517d193d5539160ba1b6020820152905161134f9493929190611fd9565b60405180910390a1506115b8565b80356000908152600260205260409020600180820154600160801b900416156113f9577f75460fe319331413a18a82d99b07735cec53fa0c4061ada38c2141e331082afa823560408401356113b86080860160608701611fbe565b604080518082018252600d81526c14d51491505357d4d150531151609a1b602082015290516113ea9493929190611fd9565b60405180910390a150506115b8565b6114096080830160608401611fbe565b60018201546001600160401b03918216911610611484577f75460fe319331413a18a82d99b07735cec53fa0c4061ada38c2141e331082afa823560408401356114586080860160608701611fbe565b60408051808201825260078152664241445f41524760c81b602082015290516113ea9493929190611fd9565b60018101546001600160401b03166000036114b257813560009081526003602052604081206114b29161174e565b604082013581556114c96080830160608401611fbe565b60018201805467ffffffffffffffff19166001600160401b03929092169190911790556114fc60a0830160808401612007565b15611534576001818101805467ffffffffffffffff60801b198116600160801b918290046001600160401b0316909317029190911790555b7fccc26bbb6dd655ea0bb8a40a3c30e35c6bdf42f8faf0d71bbea897af768cda8b8235604084013561156c6080860160608701611fbe565b61157c60a0870160808801612007565b6040516115ad949392919093845260208401929092526001600160401b031660408301521515606082015260800190565b60405180910390a150505b6001016112b3565b5050505050565b600081815260018301602052604081205415155b9392505050565b6001600160a01b038116600090815260018301602052604081205415156115db565b60006115db8383611626565b6000610dba825490565b60006115db8383611675565b600081815260018301602052604081205461166d57508154600181810184556000848152602080822090930184905584548482528286019093526040902091909155610dba565b506000610dba565b600082600001828154811061168c5761168c611d92565b9060005260206000200154905092915050565b8280548282559060005260206000209081019282156116f4579160200282015b828111156116f457825182546001600160a01b0319166001600160a01b039091161782556020909201916001909101906116bf565b5061170092915061178b565b5090565b6040805180820190915260008152602081016117496040805160a081018252600080825260208201819052918101829052606080820192909252608081019190915290565b905290565b50805461175a90611d58565b6000825580601f1061176a575050565b601f016020900490600052602060002090810190611788919061178b565b50565b5b80821115611700576000815560010161178c565b6000602082840312156117b257600080fd5b5035919050565b600060a08301825184526020808401516001600160401b0380821660208801528060408701511660408801528060608701511660608801525050608084015160a0608087015282815180855260c088019150602083019450600092505b8083101561183f5784516001600160a01b03168252938301936001929092019190830190611816565b509695505050505050565b6020815260006115db60208301846117b9565b6000815180845260005b8181101561188357602081850181015186830182015201611867565b506000602082860101526020601f19601f83011685010191505092915050565b6060815260006118b660608301866117b9565b84602084015282810360408401526118ce818561185d565b9695505050505050565b634e487b7160e01b600052604160045260246000fd5b60405160a081016001600160401b0381118282101715611910576119106118d8565b60405290565b604051601f8201601f191681016001600160401b038111828210171561193e5761193e6118d8565b604052919050565b80356001600160a01b038116811461195d57600080fd5b919050565b600082601f83011261197357600080fd5b813560206001600160401b0382111561198e5761198e6118d8565b8160051b61199d828201611916565b92835284810182019282810190878511156119b757600080fd5b83870192505b848310156119dd576119ce83611946565b825291830191908301906119bd565b979650505050505050565b600080600080608085870312156119fe57600080fd5b843593506020808601356001600160401b0380821115611a1d57600080fd5b611a2989838a01611962565b9550604088013594506060880135915080821115611a4657600080fd5b818801915088601f830112611a5a57600080fd5b813581811115611a6c57611a6c6118d8565b611a7e601f8201601f19168501611916565b91508082528984828501011115611a9457600080fd5b808484018584013760008482840101525080935050505092959194509250565b60008060408385031215611ac757600080fd5b82359150611ad760208401611946565b90509250929050565b80356001600160401b038116811461195d57600080fd5b600080600060608486031215611b0c57600080fd5b833592506020840135915060408401356001600160401b0380821115611b3157600080fd5b9085019060a08288031215611b4557600080fd5b611b4d6118ee565b82358152611b5d60208401611ae0565b6020820152611b6e60408401611ae0565b6040820152611b7f60608401611ae0565b6060820152608083013582811115611b9657600080fd5b611ba289828601611962565b6080830152508093505050509250925092565b600060208284031215611bc757600080fd5b6115db82611946565b60008060408385031215611be357600080fd5b50508035926020909101359150565b600060408083016040845280865180835260608601915060608160051b8701019250602080890160005b83811015611c5b57888603605f19018552815180518752830151838701889052611c48888801826117b9565b9650509382019390820190600101611c1c565b5050961515959096019490945295945050505050565b8035801515811461195d57600080fd5b600080600080600060a08688031215611c9957600080fd5b853594506020860135935060408601359250611cb760608701611ae0565b9150611cc560808701611c71565b90509295509295909350565b60008060208385031215611ce457600080fd5b82356001600160401b0380821115611cfb57600080fd5b818501915085601f830112611d0f57600080fd5b813581811115611d1e57600080fd5b86602060a083028501011115611d3357600080fd5b60209290920196919550909350505050565b6020815260006115db602083018461185d565b600181811c90821680611d6c57607f821691505b602082108103611d8c57634e487b7160e01b600052602260045260246000fd5b50919050565b634e487b7160e01b600052603260045260246000fd5b601f821115611df4576000816000526020600020601f850160051c81016020861015611dd15750805b601f850160051c820191505b81811015611df057828155600101611ddd565b5050505b505050565b81516001600160401b03811115611e1257611e126118d8565b611e2681611e208454611d58565b84611da8565b602080601f831160018114611e5b5760008415611e435750858301515b600019600386901b1c1916600185901b178555611df0565b600085815260208120601f198616915b82811015611e8a57888601518255948401946001909101908401611e6b565b5085821015611ea85787850151600019600388901b60f8161c191681555b5050505050600190811b01905550565b60006080820186835260206080602085015281875180845260a08601915060208901935060005b81811015611f045784516001600160a01b031683529383019391830191600101611edf565b50508660408601528481036060860152611f1e818761185d565b9998505050505050505050565b838152826020820152606060408201526000611f4a60608301846117b9565b95945050505050565b634e487b7160e01b600052601160045260246000fd5b600060018201611f7b57611f7b611f53565b5060010190565b81810381811115610dba57610dba611f53565b80820180821115610dba57610dba611f53565b634e487b7160e01b600052603160045260246000fd5b600060208284031215611fd057600080fd5b6115db82611ae0565b8481528360208201526001600160401b03831660408201526080606082015260006118ce608083018461185d565b60006020828403121561201957600080fd5b6115db82611c7156","linkReferences":{}},"methodIdentifiers":{"addStream(bytes32,bytes32,(bytes32,uint64,uint64,uint64,address[]))":"b2e76b8e","allocateStream(bytes32,address[],bytes32,bytes)":"6b883c39","getPaginatedStreams(uint256,uint256)":"ca78c41a","getStream(bytes32)":"1290abe8","getStreamCount()":"c0f22084","getStreamCountOnNode(address)":"c87d1324","getStreamWithGenesis(bytes32)":"3c2544d1","isStream(bytes32)":"d0c27c4f","placeStreamOnNode(bytes32,address)":"9ee86d38","removeStreamFromNode(bytes32,address)":"ee885b12","setStreamLastMiniblock(bytes32,bytes32,bytes32,uint64,bool)":"d7a3158a","setStreamLastMiniblockBatch((bytes32,bytes32,bytes32,uint64,bool)[])":"ff3a14ab"},"id":207}