{"abi":[{"type":"function","name":"allocateStream","inputs":[{"name":"streamId","type":"bytes32","internalType":"bytes32"},{"name":"nodes","type":"address[]","internalType":"address[]"},{"name":"genesisMiniblockHash","type":"bytes32","internalType":"bytes32"},{"name":"genesisMiniblock","type":"bytes","internalType":"bytes"}],"outputs":[],"stateMutability":"nonpayable"},{"type":"function","name":"allocateStream","inputs":[{"name":"streamId","type":"bytes32","internalType":"bytes32"},{"name":"nodes","type":"address[]","internalType":"address[]"},{"name":"genesisMiniblockHash","type":"bytes32","internalType":"bytes32"}],"outputs":[],"stateMutability":"nonpayable"},{"type":"function","name":"getPaginatedStreams","inputs":[{"name":"start","type":"uint256","internalType":"uint256"},{"name":"stop","type":"uint256","internalType":"uint256"}],"outputs":[{"name":"","type":"tuple[]","internalType":"struct StreamWithId[]","components":[{"name":"id","type":"bytes32","internalType":"bytes32"},{"name":"stream","type":"tuple","internalType":"struct Stream","components":[{"name":"lastMiniblockHash","type":"bytes32","internalType":"bytes32"},{"name":"lastMiniblockNum","type":"uint64","internalType":"uint64"},{"name":"reserved0","type":"uint64","internalType":"uint64"},{"name":"flags","type":"uint64","internalType":"uint64"},{"name":"nodes","type":"address[]","internalType":"address[]"}]}]},{"name":"","type":"bool","internalType":"bool"}],"stateMutability":"view"},{"type":"function","name":"getStream","inputs":[{"name":"streamId","type":"bytes32","internalType":"bytes32"}],"outputs":[{"name":"","type":"tuple","internalType":"struct Stream","components":[{"name":"lastMiniblockHash","type":"bytes32","internalType":"bytes32"},{"name":"lastMiniblockNum","type":"uint64","internalType":"uint64"},{"name":"reserved0","type":"uint64","internalType":"uint64"},{"name":"flags","type":"uint64","internalType":"uint64"},{"name":"nodes","type":"address[]","internalType":"address[]"}]}],"stateMutability":"view"},{"type":"function","name":"getStreamCount","inputs":[],"outputs":[{"name":"","type":"uint256","internalType":"uint256"}],"stateMutability":"view"},{"type":"function","name":"getStreamCountOnNode","inputs":[{"name":"nodeAddress","type":"address","internalType":"address"}],"outputs":[{"name":"","type":"uint256","internalType":"uint256"}],"stateMutability":"view"},{"type":"function","name":"getStreamWithGenesis","inputs":[{"name":"streamId","type":"bytes32","internalType":"bytes32"}],"outputs":[{"name":"","type":"tuple","internalType":"struct Stream","components":[{"name":"lastMiniblockHash","type":"bytes32","internalType":"bytes32"},{"name":"lastMiniblockNum","type":"uint64","internalType":"uint64"},{"name":"reserved0","type":"uint64","internalType":"uint64"},{"name":"flags","type":"uint64","internalType":"uint64"},{"name":"nodes","type":"address[]","internalType":"address[]"}]},{"name":"","type":"bytes32","internalType":"bytes32"},{"name":"","type":"bytes","internalType":"bytes"}],"stateMutability":"view"},{"type":"function","name":"getStreamWithGenesisHash","inputs":[{"name":"streamId","type":"bytes32","internalType":"bytes32"}],"outputs":[{"name":"","type":"tuple","internalType":"struct Stream","components":[{"name":"lastMiniblockHash","type":"bytes32","internalType":"bytes32"},{"name":"lastMiniblockNum","type":"uint64","internalType":"uint64"},{"name":"reserved0","type":"uint64","internalType":"uint64"},{"name":"flags","type":"uint64","internalType":"uint64"},{"name":"nodes","type":"address[]","internalType":"address[]"}]},{"name":"","type":"bytes32","internalType":"bytes32"}],"stateMutability":"view"},{"type":"function","name":"isStream","inputs":[{"name":"streamId","type":"bytes32","internalType":"bytes32"}],"outputs":[{"name":"","type":"bool","internalType":"bool"}],"stateMutability":"view"},{"type":"function","name":"placeStreamOnNode","inputs":[{"name":"streamId","type":"bytes32","internalType":"bytes32"},{"name":"nodeAddress","type":"address","internalType":"address"}],"outputs":[],"stateMutability":"nonpayable"},{"type":"function","name":"removeStreamFromNode","inputs":[{"name":"streamId","type":"bytes32","internalType":"bytes32"},{"name":"nodeAddress","type":"address","internalType":"address"}],"outputs":[],"stateMutability":"nonpayable"},{"type":"function","name":"setStreamLastMiniblock","inputs":[{"name":"streamId","type":"bytes32","internalType":"bytes32"},{"name":"","type":"bytes32","internalType":"bytes32"},{"name":"lastMiniblockHash","type":"bytes32","internalType":"bytes32"},{"name":"lastMiniblockNum","type":"uint64","internalType":"uint64"},{"name":"isSealed","type":"bool","internalType":"bool"}],"outputs":[],"stateMutability":"nonpayable"},{"type":"function","name":"setStreamLastMiniblockBatch","inputs":[{"name":"miniblocks","type":"tuple[]","internalType":"struct SetMiniblock[]","components":[{"name":"streamId","type":"bytes32","internalType":"bytes32"},{"name":"prevMiniBlockHash","type":"bytes32","internalType":"bytes32"},{"name":"lastMiniblockHash","type":"bytes32","internalType":"bytes32"},{"name":"lastMiniblockNum","type":"uint64","internalType":"uint64"},{"name":"isSealed","type":"bool","internalType":"bool"}]}],"outputs":[],"stateMutability":"nonpayable"},{"type":"event","name":"StreamAllocated","inputs":[{"name":"streamId","type":"bytes32","indexed":false,"internalType":"bytes32"},{"name":"nodes","type":"address[]","indexed":false,"internalType":"address[]"},{"name":"genesisMiniblockHash","type":"bytes32","indexed":false,"internalType":"bytes32"},{"name":"genesisMiniblock","type":"bytes","indexed":false,"internalType":"bytes"}],"anonymous":false},{"type":"event","name":"StreamAllocated","inputs":[{"name":"streamId","type":"bytes32","indexed":false,"internalType":"bytes32"},{"name":"nodes","type":"address[]","indexed":false,"internalType":"address[]"},{"name":"genesisMiniblockHash","type":"bytes32","indexed":false,"internalType":"bytes32"}],"anonymous":false},{"type":"event","name":"StreamLastMiniblockUpdateFailed","inputs":[{"name":"streamId","type":"bytes32","indexed":false,"internalType":"bytes32"},{"name":"lastMiniblockHash","type":"bytes32","indexed":false,"internalType":"bytes32"},{"name":"lastMiniblockNum","type":"uint64","indexed":false,"internalType":"uint64"},{"name":"reason","type":"string","indexed":false,"internalType":"string"}],"anonymous":false},{"type":"event","name":"StreamLastMiniblockUpdated","inputs":[{"name":"streamId","type":"bytes32","indexed":false,"internalType":"bytes32"},{"name":"lastMiniblockHash","type":"bytes32","indexed":false,"internalType":"bytes32"},{"name":"lastMiniblockNum","type":"uint64","indexed":false,"internalType":"uint64"},{"name":"isSealed","type":"bool","indexed":false,"internalType":"bool"}],"anonymous":false},{"type":"event","name":"StreamPlacementUpdated","inputs":[{"name":"streamId","type":"bytes32","indexed":false,"internalType":"bytes32"},{"name":"nodeAddress","type":"address","indexed":false,"internalType":"address"},{"name":"isAdded","type":"bool","indexed":false,"internalType":"bool"}],"anonymous":false}],"bytecode":{"object":"0x608060405234801561001057600080fd5b506120d9806100206000396000f3fe608060405234801561001057600080fd5b50600436106100cf5760003560e01c8063c0f220841161008c578063d0c27c4f11610066578063d0c27c4f146101c5578063d7a3158a146101e8578063ee885b12146101fb578063ff3a14ab1461020e57600080fd5b8063c0f220841461017b578063c87d132414610191578063ca78c41a146101a457600080fd5b80631290abe8146100d45780633c2544d1146100fd5780636b883c391461011f5780638988ac97146101345780638f94936c146101475780639ee86d3814610168575b600080fd5b6100e76100e23660046118c8565b610221565b6040516100f49190611972565b60405180910390f35b61011061010b3660046118c8565b61032b565b6040516100f4939291906119cb565b61013261012d366004611ae8565b6104da565b005b610132610142366004611bb4565b610738565b61015a6101553660046118c8565b61095f565b6040516100f4929190611c03565b610132610176366004611c25565b610a71565b610183610c23565b6040519081526020016100f4565b61018361019f366004611c51565b610c33565b6101b76101b2366004611c6c565b610ce1565b6040516100f4929190611c8e565b6101d86101d33660046118c8565b610ed1565b60405190151581526020016100f4565b6101326101f6366004611d34565b610ee3565b610132610209366004611c25565b6110ef565b61013261021c366004611d84565b611338565b6102296117c2565b6102346000836116ea565b6102785760408051808201825260098152681393d517d193d5539160ba1b6020820152905162461bcd60e51b815261026f9190600401611df8565b60405180910390fd5b600082815260026020818152604092839020835160a0810185528154815260018201546001600160401b0380821683860152600160401b8204811683880152600160801b909104166060820152928101805485518185028101850190965280865293949193608086019383018282801561031b57602002820191906000526020600020905b81546001600160a01b031681526001909101906020018083116102fd575b5050505050815250509050919050565b6103336117c2565b6000606061034182856116ea565b61037c5760408051808201825260098152681393d517d193d5539160ba1b6020820152905162461bcd60e51b815261026f9190600401611df8565b600084815260026020818152604080842060048352818520546003845294829020825160a0810184528254815260018301546001600160401b0380821683880152600160401b8204811683870152600160801b9091041660608201529482018054845181870281018701909552808552929695919491938793608086019391929183018282801561043657602002820191906000526020600020905b81546001600160a01b03168152600190910190602001808311610418575b505050505081525050925080805461044d90611e0b565b80601f016020809104026020016040519081016040528092919081815260200182805461047990611e0b565b80156104c65780601f1061049b576101008083540402835291602001916104c6565b820191906000526020600020905b8154815290600101906020018083116104a957829003601f168201915b505050505090509250925092509193909250565b336000818152600760205260409020600201546001600160a01b031661053657604080518082018252600e81526d1393d11157d393d517d193d5539160921b6020820152905162461bcd60e51b815261026f9190600401611df8565b6105416000866116ea565b1561058257604080518082018252600e81526d414c52454144595f45584953545360901b6020820152905162461bcd60e51b815261026f9190600401611df8565b835160005b81811015610607576105bf8682815181106105a4576105a4611e45565b6020026020010151600060050161170590919063ffffffff16565b6105ff57604080518082018252600e81526d1393d11157d393d517d193d5539160921b6020820152905162461bcd60e51b815261026f9190600401611df8565b600101610587565b506040805160a08101825285815260006020820181905291810182905260608101829052608081018790529061063d9088611727565b5060008781526002602081815260409283902084518155818501516001820180549587015160608801516001600160401b03908116600160801b0267ffffffffffffffff60801b19928216600160401b026001600160801b03199099169190941617969096179590951617909355608084015180518594936106c4939085019201906117f2565b50505060008781526003602052604090206106df8582611eac565b5060008781526004602052604090819020869055517f55ef7efc60ef99743e54209752c9a8e047e013917ec91572db75875069dd65bb90610727908990899089908990611fb0565b60405180910390a150505050505050565b336000818152600760205260409020600201546001600160a01b031661079457604080518082018252600e81526d1393d11157d393d517d193d5539160921b6020820152905162461bcd60e51b815261026f9190600401611df8565b61079f6000856116ea565b156107e057604080518082018252600e81526d414c52454144595f45584953545360901b6020820152905162461bcd60e51b815261026f9190600401611df8565b825160005b8181101561084a576108028582815181106105a4576105a4611e45565b61084257604080518082018252600e81526d1393d11157d393d517d193d5539160921b6020820152905162461bcd60e51b815261026f9190600401611df8565b6001016107e5565b506040805160a0810182528481526000602082018190529181018290526060810182905260808101869052906108809087611727565b5060008681526002602081815260409283902084518155818501516001820180549587015160608801516001600160401b03908116600160801b0267ffffffffffffffff60801b19928216600160401b026001600160801b0319909916919094161796909617959095161790935560808401518051859493610907939085019201906117f2565b50505060008681526004602052604090819020859055517fd79158fa478ef0af48ae6b32b29d29b2a37ee7b0dfcce6005880fd071623b5fb9061094f90889088908890611fe1565b60405180910390a1505050505050565b6109676117c2565b600061097381846116ea565b6109ae5760408051808201825260098152681393d517d193d5539160ba1b6020820152905162461bcd60e51b815261026f9190600401611df8565b6000838152600260208181526040808420600483529381902054815160a0810183528554815260018601546001600160401b0380821683870152600160401b8204811683860152600160801b909104166060820152938501805483518186028101860190945280845291949386936080860193909291830182828015610a5d57602002820191906000526020600020905b81546001600160a01b03168152600190910190602001808311610a3f575b505050505081525050915091509150915091565b81610a7d6000826116ea565b610ab85760408051808201825260098152681393d517d193d5539160ba1b6020820152905162461bcd60e51b815261026f9190600401611df8565b336000818152600760205260409020600201546001600160a01b0316610b1457604080518082018252600e81526d1393d11157d393d517d193d5539160921b6020820152905162461bcd60e51b815261026f9190600401611df8565b600084815260026020819052604082209081015490915b81811015610bb057856001600160a01b0316836002018281548110610b5257610b52611e45565b6000918252602090912001546001600160a01b031603610ba857604080518082018252600e81526d414c52454144595f45584953545360901b6020820152905162461bcd60e51b815261026f9190600401611df8565b600101610b2b565b5060028201805460018082018355600092835260209283902090910180546001600160a01b0319166001600160a01b038916908117909155604080518a8152938401919091528201527faaa473c28a5fe04b6a7ecd795826e462f9d0c23f00ef9f51ec02fa6ea418806f9060600161094f565b6000610c2e81611733565b905090565b60008080610c4081611733565b905060005b81811015610cd8576000610c59818361173d565b60008181526002602052604081209192505b6002820154811015610cca57876001600160a01b0316826002018281548110610c9657610c96611e45565b6000918252602090912001546001600160a01b031603610cc25785610cba81612020565b965050610cca565b600101610c6b565b505050806001019050610c45565b50909392505050565b60606000828410610d215760408051808201825260078152664241445f41524760c81b6020820152905162461bcd60e51b815261026f9190600401611df8565b6000610d2c81611733565b90506000818511610d3d5784610d3f565b815b90506000868211610d51576000610d5b565b610d5b8783612039565b90506000816001600160401b03811115610d7757610d77611a00565b604051908082528060200260200182016040528015610db057816020015b610d9d611857565b815260200190600190039081610d955790505b50905060005b82811015610ec0576000610dd5610dcd838c61204c565b60009061173d565b60408051808201825282815260008381526002602081815291849020845160a0810186528154815260018201546001600160401b0380821683870152600160401b8204811683890152600160801b9091041660608201529181018054865181860281018601909752808752969750939583870195929491936080860193929190830182828015610e8e57602002820191906000526020600020905b81546001600160a01b03168152600190910190602001808311610e70575b505050505081525050815250838381518110610eac57610eac611e45565b602090810291909101015250600101610db6565b509450505083101590509250929050565b6000610edd81836116ea565b92915050565b336000818152600760205260409020600201546001600160a01b0316610f3f57604080518082018252600e81526d1393d11157d393d517d193d5539160921b6020820152905162461bcd60e51b815261026f9190600401611df8565b610f4a6000876116ea565b610f855760408051808201825260098152681393d517d193d5539160ba1b6020820152905162461bcd60e51b815261026f9190600401611df8565b6000868152600260205260409020600180820154600160801b90041615610fe157604080518082018252600d81526c14d51491505357d4d150531151609a1b6020820152905162461bcd60e51b815261026f9190600401611df8565b60018101546001600160401b0380861691161061102d5760408051808201825260078152664241445f41524760c81b6020820152905162461bcd60e51b815261026f9190600401611df8565b600087815260036020526040812061104491611876565b84815560018101805467ffffffffffffffff19166001600160401b038616179055821561109e576001818101805467ffffffffffffffff60801b198116600160801b918290046001600160401b0316909317029190911790555b60408051888152602081018790526001600160401b0386169181019190915283151560608201527fccc26bbb6dd655ea0bb8a40a3c30e35c6bdf42f8faf0d71bbea897af768cda8b90608001610727565b816110fb6000826116ea565b6111365760408051808201825260098152681393d517d193d5539160ba1b6020820152905162461bcd60e51b815261026f9190600401611df8565b336000818152600760205260409020600201546001600160a01b031661119257604080518082018252600e81526d1393d11157d393d517d193d5539160921b6020820152905162461bcd60e51b815261026f9190600401611df8565b6000848152600260208190526040822090810154909190815b818110156112ad57866001600160a01b03168460020182815481106111d2576111d2611e45565b6000918252602090912001546001600160a01b0316036112a557600284016111fb600184612039565b8154811061120b5761120b611e45565b6000918252602090912001546002850180546001600160a01b03909216918390811061123957611239611e45565b9060005260206000200160006101000a8154816001600160a01b0302191690836001600160a01b031602179055508360020180548061127a5761127a61205f565b600082815260209020810160001990810180546001600160a01b0319169055019055600192506112ad565b6001016111ab565b50816112ef57604080518082018252600e81526d1393d11157d393d517d193d5539160921b6020820152905162461bcd60e51b815261026f9190600401611df8565b604080518881526001600160a01b03881660208201526000918101919091527faaa473c28a5fe04b6a7ecd795826e462f9d0c23f00ef9f51ec02fa6ea418806f90606001610727565b336000818152600760205260409020600201546001600160a01b031661139457604080518082018252600e81526d1393d11157d393d517d193d5539160921b6020820152905162461bcd60e51b815261026f9190600401611df8565b8160008190036113d35760408051808201825260078152664241445f41524760c81b6020820152905162461bcd60e51b815261026f9190600401611df8565b60005b818110156116e357368585838181106113f1576113f1611e45565b60a0029190910191506114089050600082356116ea565b611480577f75460fe319331413a18a82d99b07735cec53fa0c4061ada38c2141e331082afa813560408301356114446080850160608601612075565b60408051808201825260098152681393d517d193d5539160ba1b602082015290516114729493929190612090565b60405180910390a1506116db565b80356000908152600260205260409020600180820154600160801b9004161561151c577f75460fe319331413a18a82d99b07735cec53fa0c4061ada38c2141e331082afa823560408401356114db6080860160608701612075565b604080518082018252600d81526c14d51491505357d4d150531151609a1b6020820152905161150d9493929190612090565b60405180910390a150506116db565b61152c6080830160608401612075565b60018201546001600160401b039182169116106115a7577f75460fe319331413a18a82d99b07735cec53fa0c4061ada38c2141e331082afa8235604084013561157b6080860160608701612075565b60408051808201825260078152664241445f41524760c81b6020820152905161150d9493929190612090565b60018101546001600160401b03166000036115d557813560009081526003602052604081206115d591611876565b604082013581556115ec6080830160608401612075565b60018201805467ffffffffffffffff19166001600160401b039290921691909117905561161f60a08301608084016120be565b15611657576001818101805467ffffffffffffffff60801b198116600160801b918290046001600160401b0316909317029190911790555b7fccc26bbb6dd655ea0bb8a40a3c30e35c6bdf42f8faf0d71bbea897af768cda8b8235604084013561168f6080860160608701612075565b61169f60a08701608088016120be565b6040516116d0949392919093845260208401929092526001600160401b031660408301521515606082015260800190565b60405180910390a150505b6001016113d6565b5050505050565b600081815260018301602052604081205415155b9392505050565b6001600160a01b038116600090815260018301602052604081205415156116fe565b60006116fe8383611749565b6000610edd825490565b60006116fe8383611798565b600081815260018301602052604081205461179057508154600181810184556000848152602080822090930184905584548482528286019093526040902091909155610edd565b506000610edd565b60008260000182815481106117af576117af611e45565b9060005260206000200154905092915050565b6040805160a081018252600080825260208201819052918101829052606080820192909252608081019190915290565b828054828255906000526020600020908101928215611847579160200282015b8281111561184757825182546001600160a01b0319166001600160a01b03909116178255602090920191600190910190611812565b506118539291506118b3565b5090565b6040805180820190915260008152602081016118716117c2565b905290565b50805461188290611e0b565b6000825580601f10611892575050565b601f0160209004906000526020600020908101906118b091906118b3565b50565b5b8082111561185357600081556001016118b4565b6000602082840312156118da57600080fd5b5035919050565b600060a08301825184526020808401516001600160401b0380821660208801528060408701511660408801528060608701511660608801525050608084015160a0608087015282815180855260c088019150602083019450600092505b808310156119675784516001600160a01b0316825293830193600192909201919083019061193e565b509695505050505050565b6020815260006116fe60208301846118e1565b6000815180845260005b818110156119ab5760208185018101518683018201520161198f565b506000602082860101526020601f19601f83011685010191505092915050565b6060815260006119de60608301866118e1565b84602084015282810360408401526119f68185611985565b9695505050505050565b634e487b7160e01b600052604160045260246000fd5b604051601f8201601f191681016001600160401b0381118282101715611a3e57611a3e611a00565b604052919050565b80356001600160a01b0381168114611a5d57600080fd5b919050565b600082601f830112611a7357600080fd5b813560206001600160401b03821115611a8e57611a8e611a00565b8160051b611a9d828201611a16565b9283528481018201928281019087851115611ab757600080fd5b83870192505b84831015611add57611ace83611a46565b82529183019190830190611abd565b979650505050505050565b60008060008060808587031215611afe57600080fd5b843593506020808601356001600160401b0380821115611b1d57600080fd5b611b2989838a01611a62565b9550604088013594506060880135915080821115611b4657600080fd5b818801915088601f830112611b5a57600080fd5b813581811115611b6c57611b6c611a00565b611b7e601f8201601f19168501611a16565b91508082528984828501011115611b9457600080fd5b808484018584013760008482840101525080935050505092959194509250565b600080600060608486031215611bc957600080fd5b8335925060208401356001600160401b03811115611be657600080fd5b611bf286828701611a62565b925050604084013590509250925092565b604081526000611c1660408301856118e1565b90508260208301529392505050565b60008060408385031215611c3857600080fd5b82359150611c4860208401611a46565b90509250929050565b600060208284031215611c6357600080fd5b6116fe82611a46565b60008060408385031215611c7f57600080fd5b50508035926020909101359150565b600060408083016040845280865180835260608601915060608160051b8701019250602080890160005b83811015611cf757888603605f19018552815180518752830151838701889052611ce4888801826118e1565b9650509382019390820190600101611cb8565b5050961515959096019490945295945050505050565b80356001600160401b0381168114611a5d57600080fd5b80358015158114611a5d57600080fd5b600080600080600060a08688031215611d4c57600080fd5b853594506020860135935060408601359250611d6a60608701611d0d565b9150611d7860808701611d24565b90509295509295909350565b60008060208385031215611d9757600080fd5b82356001600160401b0380821115611dae57600080fd5b818501915085601f830112611dc257600080fd5b813581811115611dd157600080fd5b86602060a083028501011115611de657600080fd5b60209290920196919550909350505050565b6020815260006116fe6020830184611985565b600181811c90821680611e1f57607f821691505b602082108103611e3f57634e487b7160e01b600052602260045260246000fd5b50919050565b634e487b7160e01b600052603260045260246000fd5b601f821115611ea7576000816000526020600020601f850160051c81016020861015611e845750805b601f850160051c820191505b81811015611ea357828155600101611e90565b5050505b505050565b81516001600160401b03811115611ec557611ec5611a00565b611ed981611ed38454611e0b565b84611e5b565b602080601f831160018114611f0e5760008415611ef65750858301515b600019600386901b1c1916600185901b178555611ea3565b600085815260208120601f198616915b82811015611f3d57888601518255948401946001909101908401611f1e565b5085821015611f5b5787850151600019600388901b60f8161c191681555b5050505050600190811b01905550565b60008151808452602080850194506020840160005b83811015611fa55781516001600160a01b031687529582019590820190600101611f80565b509495945050505050565b848152608060208201526000611fc96080830186611f6b565b8460408401528281036060840152611add8185611985565b838152606060208201526000611ffa6060830185611f6b565b9050826040830152949350505050565b634e487b7160e01b600052601160045260246000fd5b6000600182016120325761203261200a565b5060010190565b81810381811115610edd57610edd61200a565b80820180821115610edd57610edd61200a565b634e487b7160e01b600052603160045260246000fd5b60006020828403121561208757600080fd5b6116fe82611d0d565b8481528360208201526001600160401b03831660408201526080606082015260006119f66080830184611985565b6000602082840312156120d057600080fd5b6116fe82611d2456","linkReferences":{}},"methodIdentifiers":{"allocateStream(bytes32,address[],bytes32)":"8988ac97","allocateStream(bytes32,address[],bytes32,bytes)":"6b883c39","getPaginatedStreams(uint256,uint256)":"ca78c41a","getStream(bytes32)":"1290abe8","getStreamCount()":"c0f22084","getStreamCountOnNode(address)":"c87d1324","getStreamWithGenesis(bytes32)":"3c2544d1","getStreamWithGenesisHash(bytes32)":"8f94936c","isStream(bytes32)":"d0c27c4f","placeStreamOnNode(bytes32,address)":"9ee86d38","removeStreamFromNode(bytes32,address)":"ee885b12","setStreamLastMiniblock(bytes32,bytes32,bytes32,uint64,bool)":"d7a3158a","setStreamLastMiniblockBatch((bytes32,bytes32,bytes32,uint64,bool)[])":"ff3a14ab"},"id":209}