{"abi":[{"type":"function","name":"allocateStream","inputs":[{"name":"streamId","type":"bytes32","internalType":"bytes32"},{"name":"nodes","type":"address[]","internalType":"address[]"},{"name":"genesisMiniblockHash","type":"bytes32","internalType":"bytes32"},{"name":"genesisMiniblock","type":"bytes","internalType":"bytes"}],"outputs":[],"stateMutability":"nonpayable"},{"type":"function","name":"createStream","inputs":[{"name":"streamId","type":"bytes32","internalType":"bytes32"},{"name":"genesisMiniblockHash","type":"bytes32","internalType":"bytes32"},{"name":"stream","type":"tuple","internalType":"struct Stream","components":[{"name":"lastMiniblockHash","type":"bytes32","internalType":"bytes32"},{"name":"lastMiniblockNum","type":"uint64","internalType":"uint64"},{"name":"reserved0","type":"uint64","internalType":"uint64"},{"name":"flags","type":"uint64","internalType":"uint64"},{"name":"nodes","type":"address[]","internalType":"address[]"}]}],"outputs":[],"stateMutability":"nonpayable"},{"type":"function","name":"getPaginatedStreams","inputs":[{"name":"start","type":"uint256","internalType":"uint256"},{"name":"stop","type":"uint256","internalType":"uint256"}],"outputs":[{"name":"","type":"tuple[]","internalType":"struct StreamWithId[]","components":[{"name":"id","type":"bytes32","internalType":"bytes32"},{"name":"stream","type":"tuple","internalType":"struct Stream","components":[{"name":"lastMiniblockHash","type":"bytes32","internalType":"bytes32"},{"name":"lastMiniblockNum","type":"uint64","internalType":"uint64"},{"name":"reserved0","type":"uint64","internalType":"uint64"},{"name":"flags","type":"uint64","internalType":"uint64"},{"name":"nodes","type":"address[]","internalType":"address[]"}]}]},{"name":"","type":"bool","internalType":"bool"}],"stateMutability":"view"},{"type":"function","name":"getStream","inputs":[{"name":"streamId","type":"bytes32","internalType":"bytes32"}],"outputs":[{"name":"","type":"tuple","internalType":"struct Stream","components":[{"name":"lastMiniblockHash","type":"bytes32","internalType":"bytes32"},{"name":"lastMiniblockNum","type":"uint64","internalType":"uint64"},{"name":"reserved0","type":"uint64","internalType":"uint64"},{"name":"flags","type":"uint64","internalType":"uint64"},{"name":"nodes","type":"address[]","internalType":"address[]"}]}],"stateMutability":"view"},{"type":"function","name":"getStreamCount","inputs":[],"outputs":[{"name":"","type":"uint256","internalType":"uint256"}],"stateMutability":"view"},{"type":"function","name":"getStreamCountOnNode","inputs":[{"name":"nodeAddress","type":"address","internalType":"address"}],"outputs":[{"name":"","type":"uint256","internalType":"uint256"}],"stateMutability":"view"},{"type":"function","name":"getStreamWithGenesis","inputs":[{"name":"streamId","type":"bytes32","internalType":"bytes32"}],"outputs":[{"name":"","type":"tuple","internalType":"struct Stream","components":[{"name":"lastMiniblockHash","type":"bytes32","internalType":"bytes32"},{"name":"lastMiniblockNum","type":"uint64","internalType":"uint64"},{"name":"reserved0","type":"uint64","internalType":"uint64"},{"name":"flags","type":"uint64","internalType":"uint64"},{"name":"nodes","type":"address[]","internalType":"address[]"}]},{"name":"","type":"bytes32","internalType":"bytes32"},{"name":"","type":"bytes","internalType":"bytes"}],"stateMutability":"view"},{"type":"function","name":"isStream","inputs":[{"name":"streamId","type":"bytes32","internalType":"bytes32"}],"outputs":[{"name":"","type":"bool","internalType":"bool"}],"stateMutability":"view"},{"type":"function","name":"placeStreamOnNode","inputs":[{"name":"streamId","type":"bytes32","internalType":"bytes32"},{"name":"nodeAddress","type":"address","internalType":"address"}],"outputs":[],"stateMutability":"nonpayable"},{"type":"function","name":"removeStreamFromNode","inputs":[{"name":"streamId","type":"bytes32","internalType":"bytes32"},{"name":"nodeAddress","type":"address","internalType":"address"}],"outputs":[],"stateMutability":"nonpayable"},{"type":"function","name":"setStreamLastMiniblock","inputs":[{"name":"streamId","type":"bytes32","internalType":"bytes32"},{"name":"","type":"bytes32","internalType":"bytes32"},{"name":"lastMiniblockHash","type":"bytes32","internalType":"bytes32"},{"name":"lastMiniblockNum","type":"uint64","internalType":"uint64"},{"name":"isSealed","type":"bool","internalType":"bool"}],"outputs":[],"stateMutability":"nonpayable"},{"type":"function","name":"setStreamLastMiniblockBatch","inputs":[{"name":"miniblocks","type":"tuple[]","internalType":"struct SetMiniblock[]","components":[{"name":"streamId","type":"bytes32","internalType":"bytes32"},{"name":"prevMiniBlockHash","type":"bytes32","internalType":"bytes32"},{"name":"lastMiniblockHash","type":"bytes32","internalType":"bytes32"},{"name":"lastMiniblockNum","type":"uint64","internalType":"uint64"},{"name":"isSealed","type":"bool","internalType":"bool"}]}],"outputs":[],"stateMutability":"nonpayable"},{"type":"event","name":"StreamAllocated","inputs":[{"name":"streamId","type":"bytes32","indexed":false,"internalType":"bytes32"},{"name":"nodes","type":"address[]","indexed":false,"internalType":"address[]"},{"name":"genesisMiniblockHash","type":"bytes32","indexed":false,"internalType":"bytes32"},{"name":"genesisMiniblock","type":"bytes","indexed":false,"internalType":"bytes"}],"anonymous":false},{"type":"event","name":"StreamCreated","inputs":[{"name":"streamId","type":"bytes32","indexed":false,"internalType":"bytes32"},{"name":"genesisMiniblockHash","type":"bytes32","indexed":false,"internalType":"bytes32"},{"name":"stream","type":"tuple","indexed":false,"internalType":"struct Stream","components":[{"name":"lastMiniblockHash","type":"bytes32","internalType":"bytes32"},{"name":"lastMiniblockNum","type":"uint64","internalType":"uint64"},{"name":"reserved0","type":"uint64","internalType":"uint64"},{"name":"flags","type":"uint64","internalType":"uint64"},{"name":"nodes","type":"address[]","internalType":"address[]"}]}],"anonymous":false},{"type":"event","name":"StreamLastMiniblockUpdateFailed","inputs":[{"name":"streamId","type":"bytes32","indexed":false,"internalType":"bytes32"},{"name":"lastMiniblockHash","type":"bytes32","indexed":false,"internalType":"bytes32"},{"name":"lastMiniblockNum","type":"uint64","indexed":false,"internalType":"uint64"},{"name":"reason","type":"string","indexed":false,"internalType":"string"}],"anonymous":false},{"type":"event","name":"StreamLastMiniblockUpdated","inputs":[{"name":"streamId","type":"bytes32","indexed":false,"internalType":"bytes32"},{"name":"lastMiniblockHash","type":"bytes32","indexed":false,"internalType":"bytes32"},{"name":"lastMiniblockNum","type":"uint64","indexed":false,"internalType":"uint64"},{"name":"isSealed","type":"bool","indexed":false,"internalType":"bool"}],"anonymous":false},{"type":"event","name":"StreamPlacementUpdated","inputs":[{"name":"streamId","type":"bytes32","indexed":false,"internalType":"bytes32"},{"name":"nodeAddress","type":"address","indexed":false,"internalType":"address"},{"name":"isAdded","type":"bool","indexed":false,"internalType":"bool"}],"anonymous":false}],"bytecode":{"object":"0x608060405234801561001057600080fd5b50611f97806100206000396000f3fe608060405234801561001057600080fd5b50600436106100b45760003560e01c8063ca78c41a11610071578063ca78c41a14610155578063d0c27c4f14610176578063d7a3158a14610199578063ee885b12146101ac578063f42c1eab146101bf578063ff3a14ab146101d257600080fd5b80631290abe8146100b95780633c2544d1146100e25780636b883c39146101045780639ee86d3814610119578063c0f220841461012c578063c87d132414610142575b600080fd5b6100cc6100c7366004611715565b6101e5565b6040516100d991906117bf565b60405180910390f35b6100f56100f0366004611715565b610310565b6040516100d993929190611818565b61011761011236600461195d565b6104e1565b005b610117610127366004611a29565b61073f565b6101346108fc565b6040519081526020016100d9565b610134610150366004611a55565b61090c565b610168610163366004611a70565b6109ba565b6040516100d9929190611a92565b610189610184366004611715565b610baa565b60405190151581526020016100d9565b6101176101a7366004611b38565b610bbc565b6101176101ba366004611a29565b610dc8565b6101176101cd366004611b88565b611011565b6101176101e0366004611c46565b611215565b6040805160a0810182526000808252602082018190529181018290526060808201839052608082015290610219908361153c565b61025d5760408051808201825260098152681393d517d193d5539160ba1b6020820152905162461bcd60e51b81526102549190600401611cba565b60405180910390fd5b600082815260026020818152604092839020835160a0810185528154815260018201546001600160401b0380821683860152600160401b8204811683880152600160801b909104166060820152928101805485518185028101850190965280865293949193608086019383018282801561030057602002820191906000526020600020905b81546001600160a01b031681526001909101906020018083116102e2575b5050505050815250509050919050565b6040805160a081018252600080825260208201819052918101829052606080820183905260808201819052909190610348828561153c565b6103835760408051808201825260098152681393d517d193d5539160ba1b6020820152905162461bcd60e51b81526102549190600401611cba565b600084815260026020818152604080842060048352818520546003845294829020825160a0810184528254815260018301546001600160401b0380821683880152600160401b8204811683870152600160801b9091041660608201529482018054845181870281018701909552808552929695919491938793608086019391929183018282801561043d57602002820191906000526020600020905b81546001600160a01b0316815260019091019060200180831161041f575b505050505081525050925080805461045490611ccd565b80601f016020809104026020016040519081016040528092919081815260200182805461048090611ccd565b80156104cd5780601f106104a2576101008083540402835291602001916104cd565b820191906000526020600020905b8154815290600101906020018083116104b057829003601f168201915b505050505090509250925092509193909250565b336000818152600760205260409020600201546001600160a01b031661053d57604080518082018252600e81526d1393d11157d393d517d193d5539160921b6020820152905162461bcd60e51b81526102549190600401611cba565b61054860008661153c565b1561058957604080518082018252600e81526d414c52454144595f45584953545360901b6020820152905162461bcd60e51b81526102549190600401611cba565b835160005b8181101561060e576105c68682815181106105ab576105ab611d07565b6020026020010151600060050161155790919063ffffffff16565b61060657604080518082018252600e81526d1393d11157d393d517d193d5539160921b6020820152905162461bcd60e51b81526102549190600401611cba565b60010161058e565b506040805160a0810182528581526000602082018190529181018290526060810182905260808101879052906106449088611579565b5060008781526002602081815260409283902084518155818501516001820180549587015160608801516001600160401b03908116600160801b0267ffffffffffffffff60801b19928216600160401b026001600160801b03199099169190941617969096179590951617909355608084015180518594936106cb93908501920190611614565b50505060008781526003602052604090206106e68582611d6e565b5060008781526004602052604090819020869055517f55ef7efc60ef99743e54209752c9a8e047e013917ec91572db75875069dd65bb9061072e908990899089908990611e2d565b60405180910390a150505050505050565b8161074b60008261153c565b6107865760408051808201825260098152681393d517d193d5539160ba1b6020820152905162461bcd60e51b81526102549190600401611cba565b336000818152600760205260409020600201546001600160a01b03166107e257604080518082018252600e81526d1393d11157d393d517d193d5539160921b6020820152905162461bcd60e51b81526102549190600401611cba565b600084815260026020819052604082209081015490915b8181101561087e57856001600160a01b031683600201828154811061082057610820611d07565b6000918252602090912001546001600160a01b03160361087657604080518082018252600e81526d414c52454144595f45584953545360901b6020820152905162461bcd60e51b81526102549190600401611cba565b6001016107f9565b5060028201805460018082018355600092835260209283902090910180546001600160a01b0319166001600160a01b038916908117909155604080518a8152938401919091528201527faaa473c28a5fe04b6a7ecd795826e462f9d0c23f00ef9f51ec02fa6ea418806f9060600160405180910390a1505050505050565b600061090781611585565b905090565b6000808061091981611585565b905060005b818110156109b1576000610932818361158f565b60008181526002602052604081209192505b60028201548110156109a357876001600160a01b031682600201828154811061096f5761096f611d07565b6000918252602090912001546001600160a01b03160361099b578561099381611eb6565b9650506109a3565b600101610944565b50505080600101905061091e565b50909392505050565b606060008284106109fa5760408051808201825260078152664241445f41524760c81b6020820152905162461bcd60e51b81526102549190600401611cba565b6000610a0581611585565b90506000818511610a165784610a18565b815b90506000868211610a2a576000610a34565b610a348783611ecf565b90506000816001600160401b03811115610a5057610a5061184d565b604051908082528060200260200182016040528015610a8957816020015b610a76611679565b815260200190600190039081610a6e5790505b50905060005b82811015610b99576000610aae610aa6838c611ee2565b60009061158f565b60408051808201825282815260008381526002602081815291849020845160a0810186528154815260018201546001600160401b0380821683870152600160401b8204811683890152600160801b9091041660608201529181018054865181860281018601909752808752969750939583870195929491936080860193929190830182828015610b6757602002820191906000526020600020905b81546001600160a01b03168152600190910190602001808311610b49575b505050505081525050815250838381518110610b8557610b85611d07565b602090810291909101015250600101610a8f565b509450505083101590509250929050565b6000610bb6818361153c565b92915050565b336000818152600760205260409020600201546001600160a01b0316610c1857604080518082018252600e81526d1393d11157d393d517d193d5539160921b6020820152905162461bcd60e51b81526102549190600401611cba565b610c2360008761153c565b610c5e5760408051808201825260098152681393d517d193d5539160ba1b6020820152905162461bcd60e51b81526102549190600401611cba565b6000868152600260205260409020600180820154600160801b90041615610cba57604080518082018252600d81526c14d51491505357d4d150531151609a1b6020820152905162461bcd60e51b81526102549190600401611cba565b60018101546001600160401b03808616911610610d065760408051808201825260078152664241445f41524760c81b6020820152905162461bcd60e51b81526102549190600401611cba565b6000878152600360205260408120610d1d916116c3565b84815560018101805467ffffffffffffffff19166001600160401b0386161790558215610d77576001818101805467ffffffffffffffff60801b198116600160801b918290046001600160401b0316909317029190911790555b60408051888152602081018790526001600160401b0386169181019190915283151560608201527fccc26bbb6dd655ea0bb8a40a3c30e35c6bdf42f8faf0d71bbea897af768cda8b9060800161072e565b81610dd460008261153c565b610e0f5760408051808201825260098152681393d517d193d5539160ba1b6020820152905162461bcd60e51b81526102549190600401611cba565b336000818152600760205260409020600201546001600160a01b0316610e6b57604080518082018252600e81526d1393d11157d393d517d193d5539160921b6020820152905162461bcd60e51b81526102549190600401611cba565b6000848152600260208190526040822090810154909190815b81811015610f8657866001600160a01b0316846002018281548110610eab57610eab611d07565b6000918252602090912001546001600160a01b031603610f7e5760028401610ed4600184611ecf565b81548110610ee457610ee4611d07565b6000918252602090912001546002850180546001600160a01b039092169183908110610f1257610f12611d07565b9060005260206000200160006101000a8154816001600160a01b0302191690836001600160a01b0316021790555083600201805480610f5357610f53611ef5565b600082815260209020810160001990810180546001600160a01b031916905501905560019250610f86565b600101610e84565b5081610fc857604080518082018252600e81526d1393d11157d393d517d193d5539160921b6020820152905162461bcd60e51b81526102549190600401611cba565b604080518881526001600160a01b03881660208201526000918101919091527faaa473c28a5fe04b6a7ecd795826e462f9d0c23f00ef9f51ec02fa6ea418806f9060600161072e565b336000818152600760205260409020600201546001600160a01b031661106d57604080518082018252600e81526d1393d11157d393d517d193d5539160921b6020820152905162461bcd60e51b81526102549190600401611cba565b61107860008561153c565b156110b957604080518082018252600e81526d414c52454144595f45584953545360901b6020820152905162461bcd60e51b81526102549190600401611cba565b60808201515160005b8181101561112b576110e3846080015182815181106105ab576105ab611d07565b61112357604080518082018252600e81526d1393d11157d393d517d193d5539160921b6020820152905162461bcd60e51b81526102549190600401611cba565b6001016110c2565b50611137600086611579565b5060008581526002602081815260409283902086518155818701516001820180549589015160608a01516001600160401b03908116600160801b0267ffffffffffffffff60801b19928216600160401b026001600160801b03199099169190941617969096179590951617909355608086015180518794936111be93908501920190611614565b50505060008581526004602052604090819020859055517fac1b69e6e0382c43def3cccabf63091ba47b5d8b10a705d16a1076668643fe4d9061120690879087908790611f0b565b60405180910390a15050505050565b336000818152600760205260409020600201546001600160a01b031661127157604080518082018252600e81526d1393d11157d393d517d193d5539160921b6020820152905162461bcd60e51b81526102549190600401611cba565b8160008190036112b05760408051808201825260078152664241445f41524760c81b6020820152905162461bcd60e51b81526102549190600401611cba565b60005b8181101561153557368585838181106112ce576112ce611d07565b60a0029190910191506112e590506000823561153c565b61135d577f75460fe319331413a18a82d99b07735cec53fa0c4061ada38c2141e331082afa813560408301356113216080850160608601611f33565b60408051808201825260098152681393d517d193d5539160ba1b6020820152905161134f9493929190611f4e565b60405180910390a15061152d565b80356000908152600260205260409020600180820154600160801b900416156113f9577f75460fe319331413a18a82d99b07735cec53fa0c4061ada38c2141e331082afa823560408401356113b86080860160608701611f33565b604080518082018252600d81526c14d51491505357d4d150531151609a1b602082015290516113ea9493929190611f4e565b60405180910390a1505061152d565b60018101546001600160401b03166000036114275781356000908152600360205260408120611427916116c3565b6040820135815561143e6080830160608401611f33565b60018201805467ffffffffffffffff19166001600160401b039290921691909117905561147160a0830160808401611f7c565b156114a9576001818101805467ffffffffffffffff60801b198116600160801b918290046001600160401b0316909317029190911790555b7fccc26bbb6dd655ea0bb8a40a3c30e35c6bdf42f8faf0d71bbea897af768cda8b823560408401356114e16080860160608701611f33565b6114f160a0870160808801611f7c565b604051611522949392919093845260208401929092526001600160401b031660408301521515606082015260800190565b60405180910390a150505b6001016112b3565b5050505050565b600081815260018301602052604081205415155b9392505050565b6001600160a01b03811660009081526001830160205260408120541515611550565b6000611550838361159b565b6000610bb6825490565b600061155083836115ea565b60008181526001830160205260408120546115e257508154600181810184556000848152602080822090930184905584548482528286019093526040902091909155610bb6565b506000610bb6565b600082600001828154811061160157611601611d07565b9060005260206000200154905092915050565b828054828255906000526020600020908101928215611669579160200282015b8281111561166957825182546001600160a01b0319166001600160a01b03909116178255602090920191600190910190611634565b50611675929150611700565b5090565b6040805180820190915260008152602081016116be6040805160a081018252600080825260208201819052918101829052606080820192909252608081019190915290565b905290565b5080546116cf90611ccd565b6000825580601f106116df575050565b601f0160209004906000526020600020908101906116fd9190611700565b50565b5b808211156116755760008155600101611701565b60006020828403121561172757600080fd5b5035919050565b600060a08301825184526020808401516001600160401b0380821660208801528060408701511660408801528060608701511660608801525050608084015160a0608087015282815180855260c088019150602083019450600092505b808310156117b45784516001600160a01b0316825293830193600192909201919083019061178b565b509695505050505050565b602081526000611550602083018461172e565b6000815180845260005b818110156117f8576020818501810151868301820152016117dc565b506000602082860101526020601f19601f83011685010191505092915050565b60608152600061182b606083018661172e565b846020840152828103604084015261184381856117d2565b9695505050505050565b634e487b7160e01b600052604160045260246000fd5b60405160a081016001600160401b03811182821017156118855761188561184d565b60405290565b604051601f8201601f191681016001600160401b03811182821017156118b3576118b361184d565b604052919050565b80356001600160a01b03811681146118d257600080fd5b919050565b600082601f8301126118e857600080fd5b813560206001600160401b038211156119035761190361184d565b8160051b61191282820161188b565b928352848101820192828101908785111561192c57600080fd5b83870192505b8483101561195257611943836118bb565b82529183019190830190611932565b979650505050505050565b6000806000806080858703121561197357600080fd5b843593506020808601356001600160401b038082111561199257600080fd5b61199e89838a016118d7565b95506040880135945060608801359150808211156119bb57600080fd5b818801915088601f8301126119cf57600080fd5b8135818111156119e1576119e161184d565b6119f3601f8201601f1916850161188b565b91508082528984828501011115611a0957600080fd5b808484018584013760008482840101525080935050505092959194509250565b60008060408385031215611a3c57600080fd5b82359150611a4c602084016118bb565b90509250929050565b600060208284031215611a6757600080fd5b611550826118bb565b60008060408385031215611a8357600080fd5b50508035926020909101359150565b600060408083016040845280865180835260608601915060608160051b8701019250602080890160005b83811015611afb57888603605f19018552815180518752830151838701889052611ae88888018261172e565b9650509382019390820190600101611abc565b5050961515959096019490945295945050505050565b80356001600160401b03811681146118d257600080fd5b803580151581146118d257600080fd5b600080600080600060a08688031215611b5057600080fd5b853594506020860135935060408601359250611b6e60608701611b11565b9150611b7c60808701611b28565b90509295509295909350565b600080600060608486031215611b9d57600080fd5b833592506020840135915060408401356001600160401b0380821115611bc257600080fd5b9085019060a08288031215611bd657600080fd5b611bde611863565b82358152611bee60208401611b11565b6020820152611bff60408401611b11565b6040820152611c1060608401611b11565b6060820152608083013582811115611c2757600080fd5b611c33898286016118d7565b6080830152508093505050509250925092565b60008060208385031215611c5957600080fd5b82356001600160401b0380821115611c7057600080fd5b818501915085601f830112611c8457600080fd5b813581811115611c9357600080fd5b86602060a083028501011115611ca857600080fd5b60209290920196919550909350505050565b60208152600061155060208301846117d2565b600181811c90821680611ce157607f821691505b602082108103611d0157634e487b7160e01b600052602260045260246000fd5b50919050565b634e487b7160e01b600052603260045260246000fd5b601f821115611d69576000816000526020600020601f850160051c81016020861015611d465750805b601f850160051c820191505b81811015611d6557828155600101611d52565b5050505b505050565b81516001600160401b03811115611d8757611d8761184d565b611d9b81611d958454611ccd565b84611d1d565b602080601f831160018114611dd05760008415611db85750858301515b600019600386901b1c1916600185901b178555611d65565b600085815260208120601f198616915b82811015611dff57888601518255948401946001909101908401611de0565b5085821015611e1d5787850151600019600388901b60f8161c191681555b5050505050600190811b01905550565b60006080820186835260206080602085015281875180845260a08601915060208901935060005b81811015611e795784516001600160a01b031683529383019391830191600101611e54565b50508660408601528481036060860152611e9381876117d2565b9998505050505050505050565b634e487b7160e01b600052601160045260246000fd5b600060018201611ec857611ec8611ea0565b5060010190565b81810381811115610bb657610bb6611ea0565b80820180821115610bb657610bb6611ea0565b634e487b7160e01b600052603160045260246000fd5b838152826020820152606060408201526000611f2a606083018461172e565b95945050505050565b600060208284031215611f4557600080fd5b61155082611b11565b8481528360208201526001600160401b038316604082015260806060820152600061184360808301846117d2565b600060208284031215611f8e57600080fd5b61155082611b2856","linkReferences":{}},"methodIdentifiers":{"allocateStream(bytes32,address[],bytes32,bytes)":"6b883c39","createStream(bytes32,bytes32,(bytes32,uint64,uint64,uint64,address[]))":"f42c1eab","getPaginatedStreams(uint256,uint256)":"ca78c41a","getStream(bytes32)":"1290abe8","getStreamCount()":"c0f22084","getStreamCountOnNode(address)":"c87d1324","getStreamWithGenesis(bytes32)":"3c2544d1","isStream(bytes32)":"d0c27c4f","placeStreamOnNode(bytes32,address)":"9ee86d38","removeStreamFromNode(bytes32,address)":"ee885b12","setStreamLastMiniblock(bytes32,bytes32,bytes32,uint64,bool)":"d7a3158a","setStreamLastMiniblockBatch((bytes32,bytes32,bytes32,uint64,bool)[])":"ff3a14ab"},"id":199}