{"abi":[{"type":"function","name":"addStream","inputs":[{"name":"streamId","type":"bytes32","internalType":"bytes32"},{"name":"genesisMiniblockHash","type":"bytes32","internalType":"bytes32"},{"name":"stream","type":"tuple","internalType":"struct Stream","components":[{"name":"lastMiniblockHash","type":"bytes32","internalType":"bytes32"},{"name":"lastMiniblockNum","type":"uint64","internalType":"uint64"},{"name":"reserved0","type":"uint64","internalType":"uint64"},{"name":"flags","type":"uint64","internalType":"uint64"},{"name":"nodes","type":"address[]","internalType":"address[]"}]}],"outputs":[],"stateMutability":"nonpayable"},{"type":"function","name":"allocateStream","inputs":[{"name":"streamId","type":"bytes32","internalType":"bytes32"},{"name":"nodes","type":"address[]","internalType":"address[]"},{"name":"genesisMiniblockHash","type":"bytes32","internalType":"bytes32"},{"name":"genesisMiniblock","type":"bytes","internalType":"bytes"}],"outputs":[],"stateMutability":"nonpayable"},{"type":"function","name":"getPaginatedStreams","inputs":[{"name":"start","type":"uint256","internalType":"uint256"},{"name":"stop","type":"uint256","internalType":"uint256"}],"outputs":[{"name":"","type":"tuple[]","internalType":"struct StreamWithId[]","components":[{"name":"id","type":"bytes32","internalType":"bytes32"},{"name":"stream","type":"tuple","internalType":"struct Stream","components":[{"name":"lastMiniblockHash","type":"bytes32","internalType":"bytes32"},{"name":"lastMiniblockNum","type":"uint64","internalType":"uint64"},{"name":"reserved0","type":"uint64","internalType":"uint64"},{"name":"flags","type":"uint64","internalType":"uint64"},{"name":"nodes","type":"address[]","internalType":"address[]"}]}]},{"name":"","type":"bool","internalType":"bool"}],"stateMutability":"view"},{"type":"function","name":"getStream","inputs":[{"name":"streamId","type":"bytes32","internalType":"bytes32"}],"outputs":[{"name":"stream","type":"tuple","internalType":"struct Stream","components":[{"name":"lastMiniblockHash","type":"bytes32","internalType":"bytes32"},{"name":"lastMiniblockNum","type":"uint64","internalType":"uint64"},{"name":"reserved0","type":"uint64","internalType":"uint64"},{"name":"flags","type":"uint64","internalType":"uint64"},{"name":"nodes","type":"address[]","internalType":"address[]"}]}],"stateMutability":"view"},{"type":"function","name":"getStreamCount","inputs":[],"outputs":[{"name":"","type":"uint256","internalType":"uint256"}],"stateMutability":"view"},{"type":"function","name":"getStreamCountOnNode","inputs":[{"name":"nodeAddress","type":"address","internalType":"address"}],"outputs":[{"name":"count","type":"uint256","internalType":"uint256"}],"stateMutability":"view"},{"type":"function","name":"getStreamWithGenesis","inputs":[{"name":"streamId","type":"bytes32","internalType":"bytes32"}],"outputs":[{"name":"stream","type":"tuple","internalType":"struct Stream","components":[{"name":"lastMiniblockHash","type":"bytes32","internalType":"bytes32"},{"name":"lastMiniblockNum","type":"uint64","internalType":"uint64"},{"name":"reserved0","type":"uint64","internalType":"uint64"},{"name":"flags","type":"uint64","internalType":"uint64"},{"name":"nodes","type":"address[]","internalType":"address[]"}]},{"name":"","type":"bytes32","internalType":"bytes32"},{"name":"","type":"bytes","internalType":"bytes"}],"stateMutability":"view"},{"type":"function","name":"isStream","inputs":[{"name":"streamId","type":"bytes32","internalType":"bytes32"}],"outputs":[{"name":"","type":"bool","internalType":"bool"}],"stateMutability":"view"},{"type":"function","name":"placeStreamOnNode","inputs":[{"name":"streamId","type":"bytes32","internalType":"bytes32"},{"name":"nodeAddress","type":"address","internalType":"address"}],"outputs":[],"stateMutability":"nonpayable"},{"type":"function","name":"removeStreamFromNode","inputs":[{"name":"streamId","type":"bytes32","internalType":"bytes32"},{"name":"nodeAddress","type":"address","internalType":"address"}],"outputs":[],"stateMutability":"nonpayable"},{"type":"function","name":"setStreamLastMiniblock","inputs":[{"name":"streamId","type":"bytes32","internalType":"bytes32"},{"name":"","type":"bytes32","internalType":"bytes32"},{"name":"lastMiniblockHash","type":"bytes32","internalType":"bytes32"},{"name":"lastMiniblockNum","type":"uint64","internalType":"uint64"},{"name":"isSealed","type":"bool","internalType":"bool"}],"outputs":[],"stateMutability":"nonpayable"},{"type":"function","name":"setStreamLastMiniblockBatch","inputs":[{"name":"miniblocks","type":"tuple[]","internalType":"struct SetMiniblock[]","components":[{"name":"streamId","type":"bytes32","internalType":"bytes32"},{"name":"prevMiniBlockHash","type":"bytes32","internalType":"bytes32"},{"name":"lastMiniblockHash","type":"bytes32","internalType":"bytes32"},{"name":"lastMiniblockNum","type":"uint64","internalType":"uint64"},{"name":"isSealed","type":"bool","internalType":"bool"}]}],"outputs":[],"stateMutability":"nonpayable"},{"type":"event","name":"StreamAllocated","inputs":[{"name":"streamId","type":"bytes32","indexed":false,"internalType":"bytes32"},{"name":"nodes","type":"address[]","indexed":false,"internalType":"address[]"},{"name":"genesisMiniblockHash","type":"bytes32","indexed":false,"internalType":"bytes32"},{"name":"genesisMiniblock","type":"bytes","indexed":false,"internalType":"bytes"}],"anonymous":false},{"type":"event","name":"StreamCreated","inputs":[{"name":"streamId","type":"bytes32","indexed":false,"internalType":"bytes32"},{"name":"genesisMiniblockHash","type":"bytes32","indexed":false,"internalType":"bytes32"},{"name":"stream","type":"tuple","indexed":false,"internalType":"struct Stream","components":[{"name":"lastMiniblockHash","type":"bytes32","internalType":"bytes32"},{"name":"lastMiniblockNum","type":"uint64","internalType":"uint64"},{"name":"reserved0","type":"uint64","internalType":"uint64"},{"name":"flags","type":"uint64","internalType":"uint64"},{"name":"nodes","type":"address[]","internalType":"address[]"}]}],"anonymous":false},{"type":"event","name":"StreamLastMiniblockUpdateFailed","inputs":[{"name":"streamId","type":"bytes32","indexed":false,"internalType":"bytes32"},{"name":"lastMiniblockHash","type":"bytes32","indexed":false,"internalType":"bytes32"},{"name":"lastMiniblockNum","type":"uint64","indexed":false,"internalType":"uint64"},{"name":"reason","type":"string","indexed":false,"internalType":"string"}],"anonymous":false},{"type":"event","name":"StreamLastMiniblockUpdated","inputs":[{"name":"streamId","type":"bytes32","indexed":false,"internalType":"bytes32"},{"name":"lastMiniblockHash","type":"bytes32","indexed":false,"internalType":"bytes32"},{"name":"lastMiniblockNum","type":"uint64","indexed":false,"internalType":"uint64"},{"name":"isSealed","type":"bool","indexed":false,"internalType":"bool"}],"anonymous":false},{"type":"event","name":"StreamPlacementUpdated","inputs":[{"name":"streamId","type":"bytes32","indexed":false,"internalType":"bytes32"},{"name":"nodeAddress","type":"address","indexed":false,"internalType":"address"},{"name":"isAdded","type":"bool","indexed":false,"internalType":"bool"}],"anonymous":false}],"bytecode":{"object":"0x608060405234801561001057600080fd5b50612195806100206000396000f3fe608060405234801561001057600080fd5b50600436106100b45760003560e01c8063c87d132411610071578063c87d132414610155578063ca78c41a14610168578063d0c27c4f14610189578063d7a3158a146101ac578063ee885b12146101bf578063ff3a14ab146101d257600080fd5b80631290abe8146100b95780633c2544d1146100e25780636b883c39146101045780639ee86d3814610119578063b2e76b8e1461012c578063c0f220841461013f575b600080fd5b6100cc6100c73660046117ae565b6101e5565b6040516100d99190611858565b60405180910390f35b6100f56100f03660046117ae565b61030e565b6040516100d9939291906118b1565b610117610112366004611927565b6104dc565b005b6101176101273660046119ef565b61079d565b61011761013a366004611a1f565b61095a565b610147610b05565b6040519081526020016100d9565b610147610163366004611a75565b610b15565b61017b610176366004611a92565b610bbe565b6040516100d9929190611ab4565b61019c6101973660046117ae565b610daf565b60405190151581526020016100d9565b6101176101ba366004611b5d565b610dc1565b6101176101cd3660046119ef565b610fda565b6101176101e0366004611baf565b611223565b6040805160008082526020820181905281830181905260608083018290526080830152918190529061021790836115d5565b61025b5760408051808201825260098152681393d517d193d5539160ba1b6020820152905162461bcd60e51b81526102529190600401611c23565b60405180910390fd5b600082815260026020818152604092839020835160a0810185528154815260018201546001600160401b0380821683860152600160401b8204811683880152600160801b90910416606082015292810180548551818502810185019096528086529394919360808601938301828280156102fe57602002820191906000526020600020905b81546001600160a01b031681526001909101906020018083116102e0575b5050505050815250509050919050565b6040805160008082526020820181905281830181905260608083018290526080830181905292829052909161034382856115d5565b61037e5760408051808201825260098152681393d517d193d5539160ba1b6020820152905162461bcd60e51b81526102529190600401611c23565b600084815260026020818152604080842060048352818520546003845294829020825160a0810184528254815260018301546001600160401b0380821683880152600160401b8204811683870152600160801b9091041660608201529482018054845181870281018701909552808552929695919491938793608086019391929183018282801561043857602002820191906000526020600020905b81546001600160a01b0316815260019091019060200180831161041a575b505050505081525050925080805461044f90611c36565b80601f016020809104026020016040519081016040528092919081815260200182805461047b90611c36565b80156104c85780601f1061049d576101008083540402835291602001916104c8565b820191906000526020600020905b8154815290600101906020018083116104ab57829003601f168201915b505050505090509250925092509193909250565b336000818152600760205260409020600201546001600160a01b031661053857604080518082018252600e81526d1393d11157d393d517d193d5539160921b6020820152905162461bcd60e51b81526102529190600401611c23565b6105436000886115d5565b1561058457604080518082018252600e81526d414c52454144595f45584953545360901b6020820152905162461bcd60e51b81526102529190600401611c23565b8460005b8181101561060a576105c28888838181106105a5576105a5611c70565b90506020020160208101906105ba9190611a75565b6005906115f0565b61060257604080518082018252600e81526d1393d11157d393d517d193d5539160921b6020820152905162461bcd60e51b81526102529190600401611c23565b600101610588565b5060006040518060a0016040528087815260200160006001600160401b0316815260200160006001600160401b0316815260200160006001600160401b0316815260200189898080602002602001604051908101604052809392919081815260200183836020028082843760009201829052509390945250929350610692925090508a611612565b5060008981526002602081815260409283902084518155818501516001820180549587015160608801516001600160401b03908116600160801b0267ffffffffffffffff60801b19928216600160401b026fffffffffffffffffffffffffffffffff19909916919094161796909617959095161790935560808401518051859493610722939085019201906116ad565b505050600089815260036020526040902061073e858783611cf3565b5060008981526004602052604090819020879055517f55ef7efc60ef99743e54209752c9a8e047e013917ec91572db75875069dd65bb9061078a908b908b908b908b908b908b90611dfb565b60405180910390a1505050505050505050565b816107a96000826115d5565b6107e45760408051808201825260098152681393d517d193d5539160ba1b6020820152905162461bcd60e51b81526102529190600401611c23565b336000818152600760205260409020600201546001600160a01b031661084057604080518082018252600e81526d1393d11157d393d517d193d5539160921b6020820152905162461bcd60e51b81526102529190600401611c23565b600084815260026020819052604082209081015490915b818110156108dc57856001600160a01b031683600201828154811061087e5761087e611c70565b6000918252602090912001546001600160a01b0316036108d457604080518082018252600e81526d414c52454144595f45584953545360901b6020820152905162461bcd60e51b81526102529190600401611c23565b600101610857565b5060028201805460018082018355600092835260209283902090910180546001600160a01b0319166001600160a01b038916908117909155604080518a8152938401919091528201527faaa473c28a5fe04b6a7ecd795826e462f9d0c23f00ef9f51ec02fa6ea418806f9060600160405180910390a1505050505050565b336000818152600760205260409020600201546001600160a01b03166109b657604080518082018252600e81526d1393d11157d393d517d193d5539160921b6020820152905162461bcd60e51b81526102529190600401611c23565b6109c16000856115d5565b15610a0257604080518082018252600e81526d414c52454144595f45584953545360901b6020820152905162461bcd60e51b81526102529190600401611c23565b6000610a116080840184611e51565b9050905060005b81811015610a8857610a40610a306080860186611e51565b838181106105a5576105a5611c70565b610a8057604080518082018252600e81526d1393d11157d393d517d193d5539160921b6020820152905162461bcd60e51b81526102529190600401611c23565b600101610a18565b50610a94600086611612565b5060008581526002602052604090208390610aaf8282611f3c565b505060008581526004602052604090819020859055517fac1b69e6e0382c43def3cccabf63091ba47b5d8b10a705d16a1076668643fe4d90610af690879087908790612011565b60405180910390a15050505050565b6000610b108161161e565b905090565b600080610b218161161e565b905060005b81811015610bb7576000610b3a8183611628565b60008181526002602052604081209192505b6002820154811015610ba957866001600160a01b0316826002018281548110610b7757610b77611c70565b6000918252602090912001546001600160a01b031603610ba157610b9a866120da565b9550610ba9565b600101610b4c565b505050806001019050610b26565b5050919050565b60606000828410610bfe5760408051808201825260078152664241445f41524760c81b6020820152905162461bcd60e51b81526102529190600401611c23565b6000610c098161161e565b90506000818511610c1a5784610c1c565b815b90506000868211610c2e576000610c38565b610c3887836120f3565b90506000816001600160401b03811115610c5457610c54611c86565b604051908082528060200260200182016040528015610c8d57816020015b610c7a611712565b815260200190600190039081610c725790505b50905060005b82811015610d9d576000610cb2610caa838c612106565b600090611628565b60408051808201825282815260008381526002602081815291849020845160a0810186528154815260018201546001600160401b0380821683870152600160401b8204811683890152600160801b9091041660608201529181018054865181860281018601909752808752969750939583870195929491936080860193929190830182828015610d6b57602002820191906000526020600020905b81546001600160a01b03168152600190910190602001808311610d4d575b505050505081525050815250838381518110610d8957610d89611c70565b602090810291909101015250600101610c93565b509450505083101590505b9250929050565b6000610dbb81836115d5565b92915050565b336000818152600760205260409020600201546001600160a01b0316610e1d57604080518082018252600e81526d1393d11157d393d517d193d5539160921b6020820152905162461bcd60e51b81526102529190600401611c23565b610e286000876115d5565b610e635760408051808201825260098152681393d517d193d5539160ba1b6020820152905162461bcd60e51b81526102529190600401611c23565b6000868152600260205260409020600180820154600160801b90041615610ebf57604080518082018252600d81526c14d51491505357d4d150531151609a1b6020820152905162461bcd60e51b81526102529190600401611c23565b60018101546001600160401b03808616911610610f0b5760408051808201825260078152664241445f41524760c81b6020820152905162461bcd60e51b81526102529190600401611c23565b6000878152600360205260408120610f229161175c565b84815560018101805467ffffffffffffffff19166001600160401b0386161790558215610f7c576001818101805467ffffffffffffffff60801b198116600160801b918290046001600160401b0316909317029190911790555b60408051888152602081018790526001600160401b0386169181019190915283151560608201527fccc26bbb6dd655ea0bb8a40a3c30e35c6bdf42f8faf0d71bbea897af768cda8b906080015b60405180910390a150505050505050565b81610fe66000826115d5565b6110215760408051808201825260098152681393d517d193d5539160ba1b6020820152905162461bcd60e51b81526102529190600401611c23565b336000818152600760205260409020600201546001600160a01b031661107d57604080518082018252600e81526d1393d11157d393d517d193d5539160921b6020820152905162461bcd60e51b81526102529190600401611c23565b6000848152600260208190526040822090810154909190815b8181101561119857866001600160a01b03168460020182815481106110bd576110bd611c70565b6000918252602090912001546001600160a01b03160361119057600284016110e66001846120f3565b815481106110f6576110f6611c70565b6000918252602090912001546002850180546001600160a01b03909216918390811061112457611124611c70565b9060005260206000200160006101000a8154816001600160a01b0302191690836001600160a01b031602179055508360020180548061116557611165612119565b600082815260209020810160001990810180546001600160a01b031916905501905560019250611198565b600101611096565b50816111da57604080518082018252600e81526d1393d11157d393d517d193d5539160921b6020820152905162461bcd60e51b81526102529190600401611c23565b604080518881526001600160a01b03881660208201526000918101919091527faaa473c28a5fe04b6a7ecd795826e462f9d0c23f00ef9f51ec02fa6ea418806f90606001610fc9565b336000818152600760205260409020600201546001600160a01b031661127f57604080518082018252600e81526d1393d11157d393d517d193d5539160921b6020820152905162461bcd60e51b81526102529190600401611c23565b8160008190036112be5760408051808201825260078152664241445f41524760c81b6020820152905162461bcd60e51b81526102529190600401611c23565b60005b818110156115ce57368585838181106112dc576112dc611c70565b60a0029190910191506112f39050600082356115d5565b61136b577f75460fe319331413a18a82d99b07735cec53fa0c4061ada38c2141e331082afa8135604083013561132f608085016060860161212f565b60408051808201825260098152681393d517d193d5539160ba1b6020820152905161135d949392919061214c565b60405180910390a1506115c6565b80356000908152600260205260409020600180820154600160801b90041615611407577f75460fe319331413a18a82d99b07735cec53fa0c4061ada38c2141e331082afa823560408401356113c6608086016060870161212f565b604080518082018252600d81526c14d51491505357d4d150531151609a1b602082015290516113f8949392919061214c565b60405180910390a150506115c6565b611417608083016060840161212f565b60018201546001600160401b03918216911610611492577f75460fe319331413a18a82d99b07735cec53fa0c4061ada38c2141e331082afa82356040840135611466608086016060870161212f565b60408051808201825260078152664241445f41524760c81b602082015290516113f8949392919061214c565b60018101546001600160401b03166000036114c057813560009081526003602052604081206114c09161175c565b604082013581556114d7608083016060840161212f565b60018201805467ffffffffffffffff19166001600160401b039290921691909117905561150a60a083016080840161217a565b15611542576001818101805467ffffffffffffffff60801b198116600160801b918290046001600160401b0316909317029190911790555b7fccc26bbb6dd655ea0bb8a40a3c30e35c6bdf42f8faf0d71bbea897af768cda8b8235604084013561157a608086016060870161212f565b61158a60a087016080880161217a565b6040516115bb949392919093845260208401929092526001600160401b031660408301521515606082015260800190565b60405180910390a150505b6001016112c1565b5050505050565b600081815260018301602052604081205415155b9392505050565b6001600160a01b038116600090815260018301602052604081205415156115e9565b60006115e98383611634565b6000610dbb825490565b60006115e98383611683565b600081815260018301602052604081205461167b57508154600181810184556000848152602080822090930184905584548482528286019093526040902091909155610dbb565b506000610dbb565b600082600001828154811061169a5761169a611c70565b9060005260206000200154905092915050565b828054828255906000526020600020908101928215611702579160200282015b8281111561170257825182546001600160a01b0319166001600160a01b039091161782556020909201916001909101906116cd565b5061170e929150611799565b5090565b6040805180820190915260008152602081016117576040805160a081018252600080825260208201819052918101829052606080820192909252608081019190915290565b905290565b50805461176890611c36565b6000825580601f10611778575050565b601f0160209004906000526020600020908101906117969190611799565b50565b5b8082111561170e576000815560010161179a565b6000602082840312156117c057600080fd5b5035919050565b600060a08301825184526020808401516001600160401b0380821660208801528060408701511660408801528060608701511660608801525050608084015160a0608087015282815180855260c088019150602083019450600092505b8083101561184d5784516001600160a01b03168252938301936001929092019190830190611824565b509695505050505050565b6020815260006115e960208301846117c7565b6000815180845260005b8181101561189157602081850181015186830182015201611875565b506000602082860101526020601f19601f83011685010191505092915050565b6060815260006118c460608301866117c7565b84602084015282810360408401526118dc818561186b565b9695505050505050565b60008083601f8401126118f857600080fd5b5081356001600160401b0381111561190f57600080fd5b602083019150836020828501011115610da857600080fd5b6000806000806000806080878903121561194057600080fd5b8635955060208701356001600160401b038082111561195e57600080fd5b818901915089601f83011261197257600080fd5b81358181111561198157600080fd5b8a60208260051b850101111561199657600080fd5b602083019750809650506040890135945060608901359150808211156119bb57600080fd5b506119c889828a016118e6565b979a9699509497509295939492505050565b6001600160a01b038116811461179657600080fd5b60008060408385031215611a0257600080fd5b823591506020830135611a14816119da565b809150509250929050565b600080600060608486031215611a3457600080fd5b833592506020840135915060408401356001600160401b03811115611a5857600080fd5b840160a08187031215611a6a57600080fd5b809150509250925092565b600060208284031215611a8757600080fd5b81356115e9816119da565b60008060408385031215611aa557600080fd5b50508035926020909101359150565b600060408083016040845280865180835260608601915060608160051b8701019250602080890160005b83811015611b1d57888603605f19018552815180518752830151838701889052611b0a888801826117c7565b9650509382019390820190600101611ade565b5050961515959096019490945295945050505050565b6001600160401b038116811461179657600080fd5b80358015158114611b5857600080fd5b919050565b600080600080600060a08688031215611b7557600080fd5b8535945060208601359350604086013592506060860135611b9581611b33565b9150611ba360808701611b48565b90509295509295909350565b60008060208385031215611bc257600080fd5b82356001600160401b0380821115611bd957600080fd5b818501915085601f830112611bed57600080fd5b813581811115611bfc57600080fd5b86602060a083028501011115611c1157600080fd5b60209290920196919550909350505050565b6020815260006115e9602083018461186b565b600181811c90821680611c4a57607f821691505b602082108103611c6a57634e487b7160e01b600052602260045260246000fd5b50919050565b634e487b7160e01b600052603260045260246000fd5b634e487b7160e01b600052604160045260246000fd5b5b81811015611cb15760008155600101611c9d565b5050565b601f821115611cee57806000526020600020601f840160051c81016020851015611cdc5750805b6115ce601f850160051c830182611c9c565b505050565b6001600160401b03831115611d0a57611d0a611c86565b611d1e83611d188354611c36565b83611cb5565b6000601f841160018114611d525760008515611d3a5750838201355b600019600387901b1c1916600186901b1783556115ce565b600083815260209020601f19861690835b82811015611d835786850135825560209485019460019092019101611d63565b5086821015611da05760001960f88860031b161c19848701351681555b505060018560011b0183555050505050565b8183526000602080850194508260005b85811015611df0578135611dd5816119da565b6001600160a01b031687529582019590820190600101611dc2565b509495945050505050565b868152608060208201526000611e15608083018789611db2565b8560408401528281036060840152838152838560208301376000602085830101526020601f19601f860116820101915050979650505050505050565b6000808335601e19843603018112611e6857600080fd5b8301803591506001600160401b03821115611e8257600080fd5b6020019150600581901b3603821315610da857600080fd5b634e487b7160e01b600052601160045260246000fd5b6001600160401b03831115611ec757611ec7611c86565b600160401b831115611edb57611edb611c86565b805483825580841015611f0157816000526020600020611eff828201868301611c9c565b505b50818160005260208060002060005b86811015611f33578335611f23816119da565b8282015592820192600101611f10565b50505050505050565b81358155600181016020830135611f5281611b33565b6001600160401b0382546040860135611f6a81611b33565b6060870135611f7881611b33565b6001600160401b0360801b8160801b168486166001600160401b0360c01b8516176fffffffffffffffff00000000000000008460401b161717865550505060808501359250601e19853603018312611fcf57600080fd5b918401918235915080821115611fe457600080fd5b506020820191508060051b3603821315611ffd57600080fd5b61200b818360028601611eb0565b50505050565b83815282602082015260606040820152813560608201526000602083013561203881611b33565b6001600160401b03908116608084015260408401359061205782611b33565b90811660a084015260608401359061206e82611b33565b90811660c084015260808401359036859003601e1901821261208f57600080fd5b60209185019182019135818111156120a657600080fd5b8060051b36038313156120b857600080fd5b60a060e08601526120ce61010086018285611db2565b98975050505050505050565b6000600182016120ec576120ec611e9a565b5060010190565b81810381811115610dbb57610dbb611e9a565b80820180821115610dbb57610dbb611e9a565b634e487b7160e01b600052603160045260246000fd5b60006020828403121561214157600080fd5b81356115e981611b33565b8481528360208201526001600160401b03831660408201526080606082015260006118dc608083018461186b565b60006020828403121561218c57600080fd5b6115e982611b4856","linkReferences":{}},"methodIdentifiers":{"addStream(bytes32,bytes32,(bytes32,uint64,uint64,uint64,address[]))":"b2e76b8e","allocateStream(bytes32,address[],bytes32,bytes)":"6b883c39","getPaginatedStreams(uint256,uint256)":"ca78c41a","getStream(bytes32)":"1290abe8","getStreamCount()":"c0f22084","getStreamCountOnNode(address)":"c87d1324","getStreamWithGenesis(bytes32)":"3c2544d1","isStream(bytes32)":"d0c27c4f","placeStreamOnNode(bytes32,address)":"9ee86d38","removeStreamFromNode(bytes32,address)":"ee885b12","setStreamLastMiniblock(bytes32,bytes32,bytes32,uint64,bool)":"d7a3158a","setStreamLastMiniblockBatch((bytes32,bytes32,bytes32,uint64,bool)[])":"ff3a14ab"},"id":207}