{"abi":[{"type":"function","name":"allocateStream","inputs":[{"name":"streamId","type":"bytes32","internalType":"bytes32"},{"name":"nodes","type":"address[]","internalType":"address[]"},{"name":"genesisMiniblockHash","type":"bytes32","internalType":"bytes32"},{"name":"genesisMiniblock","type":"bytes","internalType":"bytes"}],"outputs":[],"stateMutability":"nonpayable"},{"type":"function","name":"getPaginatedStreams","inputs":[{"name":"start","type":"uint256","internalType":"uint256"},{"name":"stop","type":"uint256","internalType":"uint256"}],"outputs":[{"name":"","type":"tuple[]","internalType":"struct StreamWithId[]","components":[{"name":"id","type":"bytes32","internalType":"bytes32"},{"name":"stream","type":"tuple","internalType":"struct Stream","components":[{"name":"lastMiniblockHash","type":"bytes32","internalType":"bytes32"},{"name":"lastMiniblockNum","type":"uint64","internalType":"uint64"},{"name":"reserved0","type":"uint64","internalType":"uint64"},{"name":"flags","type":"uint64","internalType":"uint64"},{"name":"nodes","type":"address[]","internalType":"address[]"}]}]},{"name":"","type":"bool","internalType":"bool"}],"stateMutability":"view"},{"type":"function","name":"getStream","inputs":[{"name":"streamId","type":"bytes32","internalType":"bytes32"}],"outputs":[{"name":"","type":"tuple","internalType":"struct Stream","components":[{"name":"lastMiniblockHash","type":"bytes32","internalType":"bytes32"},{"name":"lastMiniblockNum","type":"uint64","internalType":"uint64"},{"name":"reserved0","type":"uint64","internalType":"uint64"},{"name":"flags","type":"uint64","internalType":"uint64"},{"name":"nodes","type":"address[]","internalType":"address[]"}]}],"stateMutability":"view"},{"type":"function","name":"getStreamCount","inputs":[],"outputs":[{"name":"","type":"uint256","internalType":"uint256"}],"stateMutability":"view"},{"type":"function","name":"getStreamCountOnNode","inputs":[{"name":"nodeAddress","type":"address","internalType":"address"}],"outputs":[{"name":"","type":"uint256","internalType":"uint256"}],"stateMutability":"view"},{"type":"function","name":"getStreamWithGenesis","inputs":[{"name":"streamId","type":"bytes32","internalType":"bytes32"}],"outputs":[{"name":"","type":"tuple","internalType":"struct Stream","components":[{"name":"lastMiniblockHash","type":"bytes32","internalType":"bytes32"},{"name":"lastMiniblockNum","type":"uint64","internalType":"uint64"},{"name":"reserved0","type":"uint64","internalType":"uint64"},{"name":"flags","type":"uint64","internalType":"uint64"},{"name":"nodes","type":"address[]","internalType":"address[]"}]},{"name":"","type":"bytes32","internalType":"bytes32"},{"name":"","type":"bytes","internalType":"bytes"}],"stateMutability":"view"},{"type":"function","name":"isStream","inputs":[{"name":"streamId","type":"bytes32","internalType":"bytes32"}],"outputs":[{"name":"","type":"bool","internalType":"bool"}],"stateMutability":"view"},{"type":"function","name":"placeStreamOnNode","inputs":[{"name":"streamId","type":"bytes32","internalType":"bytes32"},{"name":"nodeAddress","type":"address","internalType":"address"}],"outputs":[],"stateMutability":"nonpayable"},{"type":"function","name":"removeStreamFromNode","inputs":[{"name":"streamId","type":"bytes32","internalType":"bytes32"},{"name":"nodeAddress","type":"address","internalType":"address"}],"outputs":[],"stateMutability":"nonpayable"},{"type":"function","name":"setStreamLastMiniblock","inputs":[{"name":"streamId","type":"bytes32","internalType":"bytes32"},{"name":"","type":"bytes32","internalType":"bytes32"},{"name":"lastMiniblockHash","type":"bytes32","internalType":"bytes32"},{"name":"lastMiniblockNum","type":"uint64","internalType":"uint64"},{"name":"isSealed","type":"bool","internalType":"bool"}],"outputs":[],"stateMutability":"nonpayable"},{"type":"function","name":"setStreamLastMiniblockBatch","inputs":[{"name":"miniblocks","type":"tuple[]","internalType":"struct SetMiniblock[]","components":[{"name":"streamId","type":"bytes32","internalType":"bytes32"},{"name":"prevMiniBlockHash","type":"bytes32","internalType":"bytes32"},{"name":"lastMiniblockHash","type":"bytes32","internalType":"bytes32"},{"name":"lastMiniblockNum","type":"uint64","internalType":"uint64"},{"name":"isSealed","type":"bool","internalType":"bool"}]}],"outputs":[],"stateMutability":"nonpayable"},{"type":"event","name":"StreamAllocated","inputs":[{"name":"streamId","type":"bytes32","indexed":false,"internalType":"bytes32"},{"name":"nodes","type":"address[]","indexed":false,"internalType":"address[]"},{"name":"genesisMiniblockHash","type":"bytes32","indexed":false,"internalType":"bytes32"},{"name":"genesisMiniblock","type":"bytes","indexed":false,"internalType":"bytes"}],"anonymous":false},{"type":"event","name":"StreamLastMiniblockUpdateFailed","inputs":[{"name":"streamId","type":"bytes32","indexed":false,"internalType":"bytes32"},{"name":"lastMiniblockHash","type":"bytes32","indexed":false,"internalType":"bytes32"},{"name":"lastMiniblockNum","type":"uint64","indexed":false,"internalType":"uint64"},{"name":"reason","type":"string","indexed":false,"internalType":"string"}],"anonymous":false},{"type":"event","name":"StreamLastMiniblockUpdated","inputs":[{"name":"streamId","type":"bytes32","indexed":false,"internalType":"bytes32"},{"name":"lastMiniblockHash","type":"bytes32","indexed":false,"internalType":"bytes32"},{"name":"lastMiniblockNum","type":"uint64","indexed":false,"internalType":"uint64"},{"name":"isSealed","type":"bool","indexed":false,"internalType":"bool"}],"anonymous":false},{"type":"event","name":"StreamPlacementUpdated","inputs":[{"name":"streamId","type":"bytes32","indexed":false,"internalType":"bytes32"},{"name":"nodeAddress","type":"address","indexed":false,"internalType":"address"},{"name":"isAdded","type":"bool","indexed":false,"internalType":"bool"}],"anonymous":false}],"bytecode":{"object":"0x608060405234801561001057600080fd5b50611c70806100206000396000f3fe608060405234801561001057600080fd5b50600436106100a95760003560e01c8063c87d132411610071578063c87d132414610137578063ca78c41a1461014a578063d0c27c4f1461016b578063d7a3158a1461018e578063ee885b12146101a1578063ff3a14ab146101b457600080fd5b80631290abe8146100ae5780633c2544d1146100d75780636b883c39146100f95780639ee86d381461010e578063c0f2208414610121575b600080fd5b6100c16100bc3660046114fc565b6101c7565b6040516100ce91906115a6565b60405180910390f35b6100ea6100e53660046114fc565b6102f2565b6040516100ce939291906115ff565b61010c610107366004611705565b6104c3565b005b61010c61011c3660046117e8565b61072a565b6101296108e7565b6040519081526020016100ce565b610129610145366004611814565b6108f7565b61015d61015836600461182f565b6109a5565b6040516100ce929190611851565b61017e6101793660046114fc565b610b95565b60405190151581526020016100ce565b61010c61019c3660046118f7565b610ba7565b61010c6101af3660046117e8565b610db3565b61010c6101c2366004611947565b610ffc565b6040805160a08101825260008082526020820181905291810182905260608082018390526080820152906101fb9083611323565b61023f5760408051808201825260098152681393d517d193d5539160ba1b6020820152905162461bcd60e51b815261023691906004016119bb565b60405180910390fd5b600082815260026020818152604092839020835160a0810185528154815260018201546001600160401b0380821683860152600160401b8204811683880152600160801b90910416606082015292810180548551818502810185019096528086529394919360808601938301828280156102e257602002820191906000526020600020905b81546001600160a01b031681526001909101906020018083116102c4575b5050505050815250509050919050565b6040805160a08101825260008082526020820181905291810182905260608082018390526080820181905290919061032a8285611323565b6103655760408051808201825260098152681393d517d193d5539160ba1b6020820152905162461bcd60e51b815261023691906004016119bb565b600084815260026020818152604080842060048352818520546003845294829020825160a0810184528254815260018301546001600160401b0380821683880152600160401b8204811683870152600160801b9091041660608201529482018054845181870281018701909552808552929695919491938793608086019391929183018282801561041f57602002820191906000526020600020905b81546001600160a01b03168152600190910190602001808311610401575b5050505050815250509250808054610436906119ce565b80601f0160208091040260200160405190810160405280929190818152602001828054610462906119ce565b80156104af5780601f10610484576101008083540402835291602001916104af565b820191906000526020600020905b81548152906001019060200180831161049257829003601f168201915b505050505090509250925092509193909250565b336000818152600760205260409020600201546001600160a01b031661051f57604080518082018252600e81526d1393d11157d393d517d193d5539160921b6020820152905162461bcd60e51b815261023691906004016119bb565b61052a600086611323565b1561056b57604080518082018252600e81526d414c52454144595f45584953545360901b6020820152905162461bcd60e51b815261023691906004016119bb565b835160005b818110156105f0576105a886828151811061058d5761058d611a08565b6020026020010151600060050161133e90919063ffffffff16565b6105e857604080518082018252600e81526d1393d11157d393d517d193d5539160921b6020820152905162461bcd60e51b815261023691906004016119bb565b600101610570565b506040805160a0810182528581526000602082018190529181018290526060810182905260808101879052906106269088611360565b5060008781526002602081815260409283902084518155818501516001820180549587015160608801516001600160401b03908116600160801b0267ffffffffffffffff60801b19928216600160401b026fffffffffffffffffffffffffffffffff199099169190941617969096179590951617909355608084015180518594936106b6939085019201906113fb565b50505060008781526003602052604090206106d18582611a6f565b5060008781526004602052604090819020869055517f55ef7efc60ef99743e54209752c9a8e047e013917ec91572db75875069dd65bb90610719908990899089908990611b2e565b60405180910390a150505050505050565b81610736600082611323565b6107715760408051808201825260098152681393d517d193d5539160ba1b6020820152905162461bcd60e51b815261023691906004016119bb565b336000818152600760205260409020600201546001600160a01b03166107cd57604080518082018252600e81526d1393d11157d393d517d193d5539160921b6020820152905162461bcd60e51b815261023691906004016119bb565b600084815260026020819052604082209081015490915b8181101561086957856001600160a01b031683600201828154811061080b5761080b611a08565b6000918252602090912001546001600160a01b03160361086157604080518082018252600e81526d414c52454144595f45584953545360901b6020820152905162461bcd60e51b815261023691906004016119bb565b6001016107e4565b5060028201805460018082018355600092835260209283902090910180546001600160a01b0319166001600160a01b038916908117909155604080518a8152938401919091528201527faaa473c28a5fe04b6a7ecd795826e462f9d0c23f00ef9f51ec02fa6ea418806f9060600160405180910390a1505050505050565b60006108f28161136c565b905090565b600080806109048161136c565b905060005b8181101561099c57600061091d8183611376565b60008181526002602052604081209192505b600282015481101561098e57876001600160a01b031682600201828154811061095a5761095a611a08565b6000918252602090912001546001600160a01b031603610986578561097e81611bb7565b96505061098e565b60010161092f565b505050806001019050610909565b50909392505050565b606060008284106109e55760408051808201825260078152664241445f41524760c81b6020820152905162461bcd60e51b815261023691906004016119bb565b60006109f08161136c565b90506000818511610a015784610a03565b815b90506000868211610a15576000610a1f565b610a1f8783611bd0565b90506000816001600160401b03811115610a3b57610a3b611634565b604051908082528060200260200182016040528015610a7457816020015b610a61611460565b815260200190600190039081610a595790505b50905060005b82811015610b84576000610a99610a91838c611be3565b600090611376565b60408051808201825282815260008381526002602081815291849020845160a0810186528154815260018201546001600160401b0380821683870152600160401b8204811683890152600160801b9091041660608201529181018054865181860281018601909752808752969750939583870195929491936080860193929190830182828015610b5257602002820191906000526020600020905b81546001600160a01b03168152600190910190602001808311610b34575b505050505081525050815250838381518110610b7057610b70611a08565b602090810291909101015250600101610a7a565b509450505083101590509250929050565b6000610ba18183611323565b92915050565b336000818152600760205260409020600201546001600160a01b0316610c0357604080518082018252600e81526d1393d11157d393d517d193d5539160921b6020820152905162461bcd60e51b815261023691906004016119bb565b610c0e600087611323565b610c495760408051808201825260098152681393d517d193d5539160ba1b6020820152905162461bcd60e51b815261023691906004016119bb565b6000868152600260205260409020600180820154600160801b90041615610ca557604080518082018252600d81526c14d51491505357d4d150531151609a1b6020820152905162461bcd60e51b815261023691906004016119bb565b60018101546001600160401b03808616911610610cf15760408051808201825260078152664241445f41524760c81b6020820152905162461bcd60e51b815261023691906004016119bb565b6000878152600360205260408120610d08916114aa565b84815560018101805467ffffffffffffffff19166001600160401b0386161790558215610d62576001818101805467ffffffffffffffff60801b198116600160801b918290046001600160401b0316909317029190911790555b60408051888152602081018790526001600160401b0386169181019190915283151560608201527fccc26bbb6dd655ea0bb8a40a3c30e35c6bdf42f8faf0d71bbea897af768cda8b90608001610719565b81610dbf600082611323565b610dfa5760408051808201825260098152681393d517d193d5539160ba1b6020820152905162461bcd60e51b815261023691906004016119bb565b336000818152600760205260409020600201546001600160a01b0316610e5657604080518082018252600e81526d1393d11157d393d517d193d5539160921b6020820152905162461bcd60e51b815261023691906004016119bb565b6000848152600260208190526040822090810154909190815b81811015610f7157866001600160a01b0316846002018281548110610e9657610e96611a08565b6000918252602090912001546001600160a01b031603610f695760028401610ebf600184611bd0565b81548110610ecf57610ecf611a08565b6000918252602090912001546002850180546001600160a01b039092169183908110610efd57610efd611a08565b9060005260206000200160006101000a8154816001600160a01b0302191690836001600160a01b0316021790555083600201805480610f3e57610f3e611bf6565b600082815260209020810160001990810180546001600160a01b031916905501905560019250610f71565b600101610e6f565b5081610fb357604080518082018252600e81526d1393d11157d393d517d193d5539160921b6020820152905162461bcd60e51b815261023691906004016119bb565b604080518881526001600160a01b03881660208201526000918101919091527faaa473c28a5fe04b6a7ecd795826e462f9d0c23f00ef9f51ec02fa6ea418806f90606001610719565b336000818152600760205260409020600201546001600160a01b031661105857604080518082018252600e81526d1393d11157d393d517d193d5539160921b6020820152905162461bcd60e51b815261023691906004016119bb565b8160008190036110975760408051808201825260078152664241445f41524760c81b6020820152905162461bcd60e51b815261023691906004016119bb565b60005b8181101561131c57368585838181106110b5576110b5611a08565b60a0029190910191506110cc905060008235611323565b611144577f75460fe319331413a18a82d99b07735cec53fa0c4061ada38c2141e331082afa813560408301356111086080850160608601611c0c565b60408051808201825260098152681393d517d193d5539160ba1b602082015290516111369493929190611c27565b60405180910390a150611314565b80356000908152600260205260409020600180820154600160801b900416156111e0577f75460fe319331413a18a82d99b07735cec53fa0c4061ada38c2141e331082afa8235604084013561119f6080860160608701611c0c565b604080518082018252600d81526c14d51491505357d4d150531151609a1b602082015290516111d19493929190611c27565b60405180910390a15050611314565b60018101546001600160401b031660000361120e578135600090815260036020526040812061120e916114aa565b604082013581556112256080830160608401611c0c565b60018201805467ffffffffffffffff19166001600160401b039290921691909117905561125860a0830160808401611c55565b15611290576001818101805467ffffffffffffffff60801b198116600160801b918290046001600160401b0316909317029190911790555b7fccc26bbb6dd655ea0bb8a40a3c30e35c6bdf42f8faf0d71bbea897af768cda8b823560408401356112c86080860160608701611c0c565b6112d860a0870160808801611c55565b604051611309949392919093845260208401929092526001600160401b031660408301521515606082015260800190565b60405180910390a150505b60010161109a565b5050505050565b600081815260018301602052604081205415155b9392505050565b6001600160a01b03811660009081526001830160205260408120541515611337565b60006113378383611382565b6000610ba1825490565b600061133783836113d1565b60008181526001830160205260408120546113c957508154600181810184556000848152602080822090930184905584548482528286019093526040902091909155610ba1565b506000610ba1565b60008260000182815481106113e8576113e8611a08565b9060005260206000200154905092915050565b828054828255906000526020600020908101928215611450579160200282015b8281111561145057825182546001600160a01b0319166001600160a01b0390911617825560209092019160019091019061141b565b5061145c9291506114e7565b5090565b6040805180820190915260008152602081016114a56040805160a081018252600080825260208201819052918101829052606080820192909252608081019190915290565b905290565b5080546114b6906119ce565b6000825580601f106114c6575050565b601f0160209004906000526020600020908101906114e491906114e7565b50565b5b8082111561145c57600081556001016114e8565b60006020828403121561150e57600080fd5b5035919050565b600060a08301825184526020808401516001600160401b0380821660208801528060408701511660408801528060608701511660608801525050608084015160a0608087015282815180855260c088019150602083019450600092505b8083101561159b5784516001600160a01b03168252938301936001929092019190830190611572565b509695505050505050565b6020815260006113376020830184611515565b6000815180845260005b818110156115df576020818501810151868301820152016115c3565b506000602082860101526020601f19601f83011685010191505092915050565b6060815260006116126060830186611515565b846020840152828103604084015261162a81856115b9565b9695505050505050565b634e487b7160e01b600052604160045260246000fd5b604051601f8201601f191681016001600160401b038111828210171561167257611672611634565b604052919050565b80356001600160a01b038116811461169157600080fd5b919050565b600082601f8301126116a757600080fd5b81356001600160401b038111156116c0576116c0611634565b6116d3601f8201601f191660200161164a565b8181528460208386010111156116e857600080fd5b816020850160208301376000918101602001919091529392505050565b6000806000806080858703121561171b57600080fd5b843593506020808601356001600160401b038082111561173a57600080fd5b818801915088601f83011261174e57600080fd5b81358181111561176057611760611634565b8060051b61176f85820161164a565b918252838101850191858101908c84111561178957600080fd5b948601945b838610156117ae5761179f8661167a565b8252948601949086019061178e565b98505050506040880135945060608801359250808311156117ce57600080fd5b50506117dc87828801611696565b91505092959194509250565b600080604083850312156117fb57600080fd5b8235915061180b6020840161167a565b90509250929050565b60006020828403121561182657600080fd5b6113378261167a565b6000806040838503121561184257600080fd5b50508035926020909101359150565b600060408083016040845280865180835260608601915060608160051b8701019250602080890160005b838110156118ba57888603605f190185528151805187528301518387018890526118a788880182611515565b965050938201939082019060010161187b565b5050961515959096019490945295945050505050565b80356001600160401b038116811461169157600080fd5b8035801515811461169157600080fd5b600080600080600060a0868803121561190f57600080fd5b85359450602086013593506040860135925061192d606087016118d0565b915061193b608087016118e7565b90509295509295909350565b6000806020838503121561195a57600080fd5b82356001600160401b038082111561197157600080fd5b818501915085601f83011261198557600080fd5b81358181111561199457600080fd5b86602060a0830285010111156119a957600080fd5b60209290920196919550909350505050565b60208152600061133760208301846115b9565b600181811c908216806119e257607f821691505b602082108103611a0257634e487b7160e01b600052602260045260246000fd5b50919050565b634e487b7160e01b600052603260045260246000fd5b601f821115611a6a576000816000526020600020601f850160051c81016020861015611a475750805b601f850160051c820191505b81811015611a6657828155600101611a53565b5050505b505050565b81516001600160401b03811115611a8857611a88611634565b611a9c81611a9684546119ce565b84611a1e565b602080601f831160018114611ad15760008415611ab95750858301515b600019600386901b1c1916600185901b178555611a66565b600085815260208120601f198616915b82811015611b0057888601518255948401946001909101908401611ae1565b5085821015611b1e5787850151600019600388901b60f8161c191681555b5050505050600190811b01905550565b60006080820186835260206080602085015281875180845260a08601915060208901935060005b81811015611b7a5784516001600160a01b031683529383019391830191600101611b55565b50508660408601528481036060860152611b9481876115b9565b9998505050505050505050565b634e487b7160e01b600052601160045260246000fd5b600060018201611bc957611bc9611ba1565b5060010190565b81810381811115610ba157610ba1611ba1565b80820180821115610ba157610ba1611ba1565b634e487b7160e01b600052603160045260246000fd5b600060208284031215611c1e57600080fd5b611337826118d0565b8481528360208201526001600160401b038316604082015260806060820152600061162a60808301846115b9565b600060208284031215611c6757600080fd5b611337826118e756","linkReferences":{}},"methodIdentifiers":{"allocateStream(bytes32,address[],bytes32,bytes)":"6b883c39","getPaginatedStreams(uint256,uint256)":"ca78c41a","getStream(bytes32)":"1290abe8","getStreamCount()":"c0f22084","getStreamCountOnNode(address)":"c87d1324","getStreamWithGenesis(bytes32)":"3c2544d1","isStream(bytes32)":"d0c27c4f","placeStreamOnNode(bytes32,address)":"9ee86d38","removeStreamFromNode(bytes32,address)":"ee885b12","setStreamLastMiniblock(bytes32,bytes32,bytes32,uint64,bool)":"d7a3158a","setStreamLastMiniblockBatch((bytes32,bytes32,bytes32,uint64,bool)[])":"ff3a14ab"},"id":206}