{"abi":[{"type":"function","name":"allocateStream","inputs":[{"name":"streamId","type":"bytes32","internalType":"bytes32"},{"name":"nodes","type":"address[]","internalType":"address[]"},{"name":"genesisMiniblockHash","type":"bytes32","internalType":"bytes32"},{"name":"genesisMiniblock","type":"bytes","internalType":"bytes"}],"outputs":[],"stateMutability":"nonpayable"},{"type":"function","name":"getPaginatedStreams","inputs":[{"name":"start","type":"uint256","internalType":"uint256"},{"name":"stop","type":"uint256","internalType":"uint256"}],"outputs":[{"name":"","type":"tuple[]","internalType":"struct StreamWithId[]","components":[{"name":"id","type":"bytes32","internalType":"bytes32"},{"name":"stream","type":"tuple","internalType":"struct Stream","components":[{"name":"lastMiniblockHash","type":"bytes32","internalType":"bytes32"},{"name":"lastMiniblockNum","type":"uint64","internalType":"uint64"},{"name":"reserved0","type":"uint64","internalType":"uint64"},{"name":"flags","type":"uint64","internalType":"uint64"},{"name":"nodes","type":"address[]","internalType":"address[]"}]}]},{"name":"","type":"bool","internalType":"bool"}],"stateMutability":"view"},{"type":"function","name":"getStream","inputs":[{"name":"streamId","type":"bytes32","internalType":"bytes32"}],"outputs":[{"name":"","type":"tuple","internalType":"struct Stream","components":[{"name":"lastMiniblockHash","type":"bytes32","internalType":"bytes32"},{"name":"lastMiniblockNum","type":"uint64","internalType":"uint64"},{"name":"reserved0","type":"uint64","internalType":"uint64"},{"name":"flags","type":"uint64","internalType":"uint64"},{"name":"nodes","type":"address[]","internalType":"address[]"}]}],"stateMutability":"view"},{"type":"function","name":"getStreamCount","inputs":[],"outputs":[{"name":"","type":"uint256","internalType":"uint256"}],"stateMutability":"view"},{"type":"function","name":"getStreamCountOnNode","inputs":[{"name":"nodeAddress","type":"address","internalType":"address"}],"outputs":[{"name":"","type":"uint256","internalType":"uint256"}],"stateMutability":"view"},{"type":"function","name":"getStreamWithGenesis","inputs":[{"name":"streamId","type":"bytes32","internalType":"bytes32"}],"outputs":[{"name":"","type":"tuple","internalType":"struct Stream","components":[{"name":"lastMiniblockHash","type":"bytes32","internalType":"bytes32"},{"name":"lastMiniblockNum","type":"uint64","internalType":"uint64"},{"name":"reserved0","type":"uint64","internalType":"uint64"},{"name":"flags","type":"uint64","internalType":"uint64"},{"name":"nodes","type":"address[]","internalType":"address[]"}]},{"name":"","type":"bytes32","internalType":"bytes32"},{"name":"","type":"bytes","internalType":"bytes"}],"stateMutability":"view"},{"type":"function","name":"isStream","inputs":[{"name":"streamId","type":"bytes32","internalType":"bytes32"}],"outputs":[{"name":"","type":"bool","internalType":"bool"}],"stateMutability":"view"},{"type":"function","name":"placeStreamOnNode","inputs":[{"name":"streamId","type":"bytes32","internalType":"bytes32"},{"name":"nodeAddress","type":"address","internalType":"address"}],"outputs":[],"stateMutability":"nonpayable"},{"type":"function","name":"removeStreamFromNode","inputs":[{"name":"streamId","type":"bytes32","internalType":"bytes32"},{"name":"nodeAddress","type":"address","internalType":"address"}],"outputs":[],"stateMutability":"nonpayable"},{"type":"function","name":"setStreamLastMiniblockBatch","inputs":[{"name":"miniblocks","type":"tuple[]","internalType":"struct SetMiniblock[]","components":[{"name":"streamId","type":"bytes32","internalType":"bytes32"},{"name":"prevMiniBlockHash","type":"bytes32","internalType":"bytes32"},{"name":"lastMiniblockHash","type":"bytes32","internalType":"bytes32"},{"name":"lastMiniblockNum","type":"uint64","internalType":"uint64"},{"name":"isSealed","type":"bool","internalType":"bool"}]}],"outputs":[],"stateMutability":"nonpayable"},{"type":"event","name":"StreamAllocated","inputs":[{"name":"streamId","type":"bytes32","indexed":false,"internalType":"bytes32"},{"name":"nodes","type":"address[]","indexed":false,"internalType":"address[]"},{"name":"genesisMiniblockHash","type":"bytes32","indexed":false,"internalType":"bytes32"},{"name":"genesisMiniblock","type":"bytes","indexed":false,"internalType":"bytes"}],"anonymous":false},{"type":"event","name":"StreamLastMiniblockUpdateFailed","inputs":[{"name":"streamId","type":"bytes32","indexed":false,"internalType":"bytes32"},{"name":"lastMiniblockHash","type":"bytes32","indexed":false,"internalType":"bytes32"},{"name":"lastMiniblockNum","type":"uint64","indexed":false,"internalType":"uint64"},{"name":"reason","type":"string","indexed":false,"internalType":"string"}],"anonymous":false},{"type":"event","name":"StreamLastMiniblockUpdated","inputs":[{"name":"streamId","type":"bytes32","indexed":false,"internalType":"bytes32"},{"name":"lastMiniblockHash","type":"bytes32","indexed":false,"internalType":"bytes32"},{"name":"lastMiniblockNum","type":"uint64","indexed":false,"internalType":"uint64"},{"name":"isSealed","type":"bool","indexed":false,"internalType":"bool"}],"anonymous":false},{"type":"event","name":"StreamPlacementUpdated","inputs":[{"name":"streamId","type":"bytes32","indexed":false,"internalType":"bytes32"},{"name":"nodeAddress","type":"address","indexed":false,"internalType":"address"},{"name":"isAdded","type":"bool","indexed":false,"internalType":"bool"}],"anonymous":false}],"bytecode":{"object":"0x608060405234801561001057600080fd5b506119e4806100206000396000f3fe608060405234801561001057600080fd5b506004361061009e5760003560e01c8063c87d132411610066578063c87d13241461012c578063ca78c41a1461013f578063d0c27c4f14610160578063ee885b1214610183578063ff3a14ab1461019657600080fd5b80631290abe8146100a35780633c2544d1146100cc5780636b883c39146100ee5780639ee86d3814610103578063c0f2208414610116575b600080fd5b6100b66100b13660046112d2565b6101a9565b6040516100c3919061137c565b60405180910390f35b6100df6100da3660046112d2565b6102d4565b6040516100c3939291906113d5565b6101016100fc3660046114db565b6104a5565b005b6101016101113660046115be565b61070c565b61011e6108c9565b6040519081526020016100c3565b61011e61013a3660046115ea565b6108d9565b61015261014d366004611605565b610987565b6040516100c3929190611627565b61017361016e3660046112d2565b610b77565b60405190151581526020016100c3565b6101016101913660046115be565b610b89565b6101016101a43660046116a6565b610dd2565b6040805160a08101825260008082526020820181905291810182905260608082018390526080820152906101dd90836110f9565b6102215760408051808201825260098152681393d517d193d5539160ba1b6020820152905162461bcd60e51b8152610218919060040161171a565b60405180910390fd5b600082815260026020818152604092839020835160a0810185528154815260018201546001600160401b0380821683860152600160401b8204811683880152600160801b90910416606082015292810180548551818502810185019096528086529394919360808601938301828280156102c457602002820191906000526020600020905b81546001600160a01b031681526001909101906020018083116102a6575b5050505050815250509050919050565b6040805160a08101825260008082526020820181905291810182905260608082018390526080820181905290919061030c82856110f9565b6103475760408051808201825260098152681393d517d193d5539160ba1b6020820152905162461bcd60e51b8152610218919060040161171a565b600084815260026020818152604080842060048352818520546003845294829020825160a0810184528254815260018301546001600160401b0380821683880152600160401b8204811683870152600160801b9091041660608201529482018054845181870281018701909552808552929695919491938793608086019391929183018282801561040157602002820191906000526020600020905b81546001600160a01b031681526001909101906020018083116103e3575b50505050508152505092508080546104189061172d565b80601f01602080910402602001604051908101604052809291908181526020018280546104449061172d565b80156104915780601f1061046657610100808354040283529160200191610491565b820191906000526020600020905b81548152906001019060200180831161047457829003601f168201915b505050505090509250925092509193909250565b336000818152600760205260409020600201546001600160a01b031661050157604080518082018252600e81526d1393d11157d393d517d193d5539160921b6020820152905162461bcd60e51b8152610218919060040161171a565b61050c6000866110f9565b1561054d57604080518082018252600e81526d414c52454144595f45584953545360901b6020820152905162461bcd60e51b8152610218919060040161171a565b835160005b818110156105d25761058a86828151811061056f5761056f611767565b6020026020010151600060050161111490919063ffffffff16565b6105ca57604080518082018252600e81526d1393d11157d393d517d193d5539160921b6020820152905162461bcd60e51b8152610218919060040161171a565b600101610552565b506040805160a0810182528581526000602082018190529181018290526060810182905260808101879052906106089088611136565b5060008781526002602081815260409283902084518155818501516001820180549587015160608801516001600160401b03908116600160801b0267ffffffffffffffff60801b19928216600160401b026fffffffffffffffffffffffffffffffff19909916919094161796909617959095161790935560808401518051859493610698939085019201906111d1565b50505060008781526003602052604090206106b385826117ce565b5060008781526004602052604090819020869055517f55ef7efc60ef99743e54209752c9a8e047e013917ec91572db75875069dd65bb906106fb90899089908990899061188d565b60405180910390a150505050505050565b816107186000826110f9565b6107535760408051808201825260098152681393d517d193d5539160ba1b6020820152905162461bcd60e51b8152610218919060040161171a565b336000818152600760205260409020600201546001600160a01b03166107af57604080518082018252600e81526d1393d11157d393d517d193d5539160921b6020820152905162461bcd60e51b8152610218919060040161171a565b600084815260026020819052604082209081015490915b8181101561084b57856001600160a01b03168360020182815481106107ed576107ed611767565b6000918252602090912001546001600160a01b03160361084357604080518082018252600e81526d414c52454144595f45584953545360901b6020820152905162461bcd60e51b8152610218919060040161171a565b6001016107c6565b5060028201805460018082018355600092835260209283902090910180546001600160a01b0319166001600160a01b038916908117909155604080518a8152938401919091528201527faaa473c28a5fe04b6a7ecd795826e462f9d0c23f00ef9f51ec02fa6ea418806f9060600160405180910390a1505050505050565b60006108d481611142565b905090565b600080806108e681611142565b905060005b8181101561097e5760006108ff818361114c565b60008181526002602052604081209192505b600282015481101561097057876001600160a01b031682600201828154811061093c5761093c611767565b6000918252602090912001546001600160a01b031603610968578561096081611916565b965050610970565b600101610911565b5050508060010190506108eb565b50909392505050565b606060008284106109c75760408051808201825260078152664241445f41524760c81b6020820152905162461bcd60e51b8152610218919060040161171a565b60006109d281611142565b905060008185116109e357846109e5565b815b905060008682116109f7576000610a01565b610a01878361192f565b90506000816001600160401b03811115610a1d57610a1d61140a565b604051908082528060200260200182016040528015610a5657816020015b610a43611236565b815260200190600190039081610a3b5790505b50905060005b82811015610b66576000610a7b610a73838c611942565b60009061114c565b60408051808201825282815260008381526002602081815291849020845160a0810186528154815260018201546001600160401b0380821683870152600160401b8204811683890152600160801b9091041660608201529181018054865181860281018601909752808752969750939583870195929491936080860193929190830182828015610b3457602002820191906000526020600020905b81546001600160a01b03168152600190910190602001808311610b16575b505050505081525050815250838381518110610b5257610b52611767565b602090810291909101015250600101610a5c565b509450505083101590509250929050565b6000610b8381836110f9565b92915050565b81610b956000826110f9565b610bd05760408051808201825260098152681393d517d193d5539160ba1b6020820152905162461bcd60e51b8152610218919060040161171a565b336000818152600760205260409020600201546001600160a01b0316610c2c57604080518082018252600e81526d1393d11157d393d517d193d5539160921b6020820152905162461bcd60e51b8152610218919060040161171a565b6000848152600260208190526040822090810154909190815b81811015610d4757866001600160a01b0316846002018281548110610c6c57610c6c611767565b6000918252602090912001546001600160a01b031603610d3f5760028401610c9560018461192f565b81548110610ca557610ca5611767565b6000918252602090912001546002850180546001600160a01b039092169183908110610cd357610cd3611767565b9060005260206000200160006101000a8154816001600160a01b0302191690836001600160a01b0316021790555083600201805480610d1457610d14611955565b600082815260209020810160001990810180546001600160a01b031916905501905560019250610d47565b600101610c45565b5081610d8957604080518082018252600e81526d1393d11157d393d517d193d5539160921b6020820152905162461bcd60e51b8152610218919060040161171a565b604080518881526001600160a01b03881660208201526000918101919091527faaa473c28a5fe04b6a7ecd795826e462f9d0c23f00ef9f51ec02fa6ea418806f906060016106fb565b336000818152600760205260409020600201546001600160a01b0316610e2e57604080518082018252600e81526d1393d11157d393d517d193d5539160921b6020820152905162461bcd60e51b8152610218919060040161171a565b816000819003610e6d5760408051808201825260078152664241445f41524760c81b6020820152905162461bcd60e51b8152610218919060040161171a565b60005b818110156110f25736858583818110610e8b57610e8b611767565b60a002919091019150610ea29050600082356110f9565b610f1a577f75460fe319331413a18a82d99b07735cec53fa0c4061ada38c2141e331082afa81356040830135610ede608085016060860161196b565b60408051808201825260098152681393d517d193d5539160ba1b60208201529051610f0c9493929190611994565b60405180910390a1506110ea565b80356000908152600260205260409020600180820154600160801b90041615610fb6577f75460fe319331413a18a82d99b07735cec53fa0c4061ada38c2141e331082afa82356040840135610f75608086016060870161196b565b604080518082018252600d81526c14d51491505357d4d150531151609a1b60208201529051610fa79493929190611994565b60405180910390a150506110ea565b60018101546001600160401b0316600003610fe45781356000908152600360205260408120610fe491611280565b60408201358155610ffb608083016060840161196b565b60018201805467ffffffffffffffff19166001600160401b039290921691909117905561102e60a08301608084016119c2565b15611066576001818101805467ffffffffffffffff60801b198116600160801b918290046001600160401b0316909317029190911790555b7fccc26bbb6dd655ea0bb8a40a3c30e35c6bdf42f8faf0d71bbea897af768cda8b8235604084013561109e608086016060870161196b565b6110ae60a08701608088016119c2565b6040516110df949392919093845260208401929092526001600160401b031660408301521515606082015260800190565b60405180910390a150505b600101610e70565b5050505050565b600081815260018301602052604081205415155b9392505050565b6001600160a01b0381166000908152600183016020526040812054151561110d565b600061110d8383611158565b6000610b83825490565b600061110d83836111a7565b600081815260018301602052604081205461119f57508154600181810184556000848152602080822090930184905584548482528286019093526040902091909155610b83565b506000610b83565b60008260000182815481106111be576111be611767565b9060005260206000200154905092915050565b828054828255906000526020600020908101928215611226579160200282015b8281111561122657825182546001600160a01b0319166001600160a01b039091161782556020909201916001909101906111f1565b506112329291506112bd565b5090565b60408051808201909152600081526020810161127b6040805160a081018252600080825260208201819052918101829052606080820192909252608081019190915290565b905290565b50805461128c9061172d565b6000825580601f1061129c575050565b601f0160209004906000526020600020908101906112ba91906112bd565b50565b5b8082111561123257600081556001016112be565b6000602082840312156112e457600080fd5b5035919050565b600060a08301825184526020808401516001600160401b0380821660208801528060408701511660408801528060608701511660608801525050608084015160a0608087015282815180855260c088019150602083019450600092505b808310156113715784516001600160a01b03168252938301936001929092019190830190611348565b509695505050505050565b60208152600061110d60208301846112eb565b6000815180845260005b818110156113b557602081850181015186830182015201611399565b506000602082860101526020601f19601f83011685010191505092915050565b6060815260006113e860608301866112eb565b8460208401528281036040840152611400818561138f565b9695505050505050565b634e487b7160e01b600052604160045260246000fd5b604051601f8201601f191681016001600160401b03811182821017156114485761144861140a565b604052919050565b80356001600160a01b038116811461146757600080fd5b919050565b600082601f83011261147d57600080fd5b81356001600160401b038111156114965761149661140a565b6114a9601f8201601f1916602001611420565b8181528460208386010111156114be57600080fd5b816020850160208301376000918101602001919091529392505050565b600080600080608085870312156114f157600080fd5b843593506020808601356001600160401b038082111561151057600080fd5b818801915088601f83011261152457600080fd5b8135818111156115365761153661140a565b8060051b611545858201611420565b918252838101850191858101908c84111561155f57600080fd5b948601945b838610156115845761157586611450565b82529486019490860190611564565b98505050506040880135945060608801359250808311156115a457600080fd5b50506115b28782880161146c565b91505092959194509250565b600080604083850312156115d157600080fd5b823591506115e160208401611450565b90509250929050565b6000602082840312156115fc57600080fd5b61110d82611450565b6000806040838503121561161857600080fd5b50508035926020909101359150565b600060408083016040845280865180835260608601915060608160051b8701019250602080890160005b8381101561169057888603605f1901855281518051875283015183870188905261167d888801826112eb565b9650509382019390820190600101611651565b5050961515959096019490945295945050505050565b600080602083850312156116b957600080fd5b82356001600160401b03808211156116d057600080fd5b818501915085601f8301126116e457600080fd5b8135818111156116f357600080fd5b86602060a08302850101111561170857600080fd5b60209290920196919550909350505050565b60208152600061110d602083018461138f565b600181811c9082168061174157607f821691505b60208210810361176157634e487b7160e01b600052602260045260246000fd5b50919050565b634e487b7160e01b600052603260045260246000fd5b601f8211156117c9576000816000526020600020601f850160051c810160208610156117a65750805b601f850160051c820191505b818110156117c5578281556001016117b2565b5050505b505050565b81516001600160401b038111156117e7576117e761140a565b6117fb816117f5845461172d565b8461177d565b602080601f83116001811461183057600084156118185750858301515b600019600386901b1c1916600185901b1785556117c5565b600085815260208120601f198616915b8281101561185f57888601518255948401946001909101908401611840565b508582101561187d5787850151600019600388901b60f8161c191681555b5050505050600190811b01905550565b60006080820186835260206080602085015281875180845260a08601915060208901935060005b818110156118d95784516001600160a01b0316835293830193918301916001016118b4565b505086604086015284810360608601526118f3818761138f565b9998505050505050505050565b634e487b7160e01b600052601160045260246000fd5b60006001820161192857611928611900565b5060010190565b81810381811115610b8357610b83611900565b80820180821115610b8357610b83611900565b634e487b7160e01b600052603160045260246000fd5b60006020828403121561197d57600080fd5b81356001600160401b038116811461110d57600080fd5b8481528360208201526001600160401b0383166040820152608060608201526000611400608083018461138f565b6000602082840312156119d457600080fd5b8135801515811461110d57600080fd","linkReferences":{}},"methodIdentifiers":{"allocateStream(bytes32,address[],bytes32,bytes)":"6b883c39","getPaginatedStreams(uint256,uint256)":"ca78c41a","getStream(bytes32)":"1290abe8","getStreamCount()":"c0f22084","getStreamCountOnNode(address)":"c87d1324","getStreamWithGenesis(bytes32)":"3c2544d1","isStream(bytes32)":"d0c27c4f","placeStreamOnNode(bytes32,address)":"9ee86d38","removeStreamFromNode(bytes32,address)":"ee885b12","setStreamLastMiniblockBatch((bytes32,bytes32,bytes32,uint64,bool)[])":"ff3a14ab"},"id":199}