{"abi":[{"type":"function","name":"__Pausable_init","inputs":[],"outputs":[],"stateMutability":"nonpayable"},{"type":"function","name":"pause","inputs":[],"outputs":[],"stateMutability":"nonpayable"},{"type":"function","name":"paused","inputs":[],"outputs":[{"name":"","type":"bool","internalType":"bool"}],"stateMutability":"view"},{"type":"function","name":"unpause","inputs":[],"outputs":[],"stateMutability":"nonpayable"},{"type":"event","name":"Initialized","inputs":[{"name":"version","type":"uint32","indexed":false,"internalType":"uint32"}],"anonymous":false},{"type":"event","name":"InterfaceAdded","inputs":[{"name":"interfaceId","type":"bytes4","indexed":true,"internalType":"bytes4"}],"anonymous":false},{"type":"event","name":"InterfaceRemoved","inputs":[{"name":"interfaceId","type":"bytes4","indexed":true,"internalType":"bytes4"}],"anonymous":false},{"type":"event","name":"OwnershipTransferred","inputs":[{"name":"previousOwner","type":"address","indexed":true,"internalType":"address"},{"name":"newOwner","type":"address","indexed":true,"internalType":"address"}],"anonymous":false},{"type":"event","name":"Paused","inputs":[{"name":"account","type":"address","indexed":false,"internalType":"address"}],"anonymous":false},{"type":"event","name":"Unpaused","inputs":[{"name":"account","type":"address","indexed":false,"internalType":"address"}],"anonymous":false},{"type":"error","name":"Initializable_InInitializingState","inputs":[]},{"type":"error","name":"Initializable_NotInInitializingState","inputs":[]},{"type":"error","name":"Introspection_AlreadySupported","inputs":[]},{"type":"error","name":"Introspection_NotSupported","inputs":[]},{"type":"error","name":"Ownable__NotOwner","inputs":[{"name":"account","type":"address","internalType":"address"}]},{"type":"error","name":"Ownable__ZeroAddress","inputs":[]},{"type":"error","name":"Pausable__NotPaused","inputs":[]},{"type":"error","name":"Pausable__Paused","inputs":[]}],"bytecode":{"object":"0x608060405234801561001057600080fd5b5061001961001e565b6100c4565b7f59b501c3653afc186af7d48dda36cf6732bd21629a6295693664240a6ef520008054640100000000900460ff161561006a576040516366008a2d60e01b815260040160405180910390fd5b805463ffffffff90811610156100c157805463ffffffff191663ffffffff90811782556040519081527fe9c9b456cb2994b80aeef036cf59d26e9617df80f816a6ee5a5b4166e07e2f5c9060200160405180910390a15b50565b610364806100d36000396000f3fe608060405234801561001057600080fd5b506004361061004c5760003560e01c80633f4ba83a146100515780635c975abb1461005b5780638456cb591461007757806384d2023a1461007f575b600080fd5b610059610087565b005b610063610101565b604051901515815260200160405180910390f35b610059610121565b610059610195565b61008f6101df565b6001600160a01b0316336001600160a01b0316146100c7576040516365f4906560e01b81523360048201526024015b60405180910390fd5b6000805160206103448339815191525460ff166100f757604051632ca4452d60e11b815260040160405180910390fd5b6100ff61027c565b565b600061011c6000805160206103448339815191525460ff1690565b905090565b6101296101df565b6001600160a01b0316336001600160a01b03161461015c576040516365f4906560e01b81523360048201526024016100be565b6000805160206103448339815191525460ff161561018d576040516302ca8ced60e11b815260040160405180910390fd5b6100ff6102c9565b7f59b501c3653afc186af7d48dda36cf6732bd21629a6295693664240a6ef5200054640100000000900460ff166100f757604051630ef4733760e31b815260040160405180910390fd5b6000807fd2f24d4f172e4e84e48e7c4125b6e904c29e5eba33ad4938fee51dd5dbd4b600805460018201546040516331a9108f60e11b815260048101919091529192506001600160a01b031690636352211e90602401602060405180830381865afa158015610252573d6000803e3d6000fd5b505050506040513d601f19601f820116820180604052508101906102769190610313565b91505090565b600080516020610344833981519152805460ff191690556040513381527f5db9ee0a495bf2e6ff9c91a7834c1ba4fdd244a5e8aa4e537bd38aeae4b073aa906020015b60405180910390a1565b600080516020610344833981519152805460ff191660011790556040513381527f62e78cea01bee320cd4e420270b5ea74000d11b0c9f74754ebdbfc544b05a258906020016102bf565b60006020828403121561032557600080fd5b81516001600160a01b038116811461033c57600080fd5b939250505056fee17a067c7963a59b6dfd65d33b053fdbea1c56500e2aae4f976d9eda4da9eb00","linkReferences":{}},"methodIdentifiers":{"__Pausable_init()":"84d2023a","pause()":"8456cb59","paused()":"5c975abb","unpause()":"3f4ba83a"},"id":582}