{"abi":[{"type":"function","name":"__WalletLink_init","inputs":[],"outputs":[],"stateMutability":"nonpayable"},{"type":"function","name":"checkIfLinked","inputs":[{"name":"rootKey","type":"address","internalType":"address"},{"name":"wallet","type":"address","internalType":"address"}],"outputs":[{"name":"","type":"bool","internalType":"bool"}],"stateMutability":"view"},{"type":"function","name":"getLatestNonceForRootKey","inputs":[{"name":"rootKey","type":"address","internalType":"address"}],"outputs":[{"name":"","type":"uint256","internalType":"uint256"}],"stateMutability":"view"},{"type":"function","name":"getRootKeyForWallet","inputs":[{"name":"wallet","type":"address","internalType":"address"}],"outputs":[{"name":"rootKey","type":"address","internalType":"address"}],"stateMutability":"view"},{"type":"function","name":"getWalletsByRootKey","inputs":[{"name":"rootKey","type":"address","internalType":"address"}],"outputs":[{"name":"wallets","type":"address[]","internalType":"address[]"}],"stateMutability":"view"},{"type":"function","name":"linkCallerToRootKey","inputs":[{"name":"rootWallet","type":"tuple","internalType":"struct IWalletLinkBase.LinkedWallet","components":[{"name":"addr","type":"address","internalType":"address"},{"name":"signature","type":"bytes","internalType":"bytes"},{"name":"message","type":"string","internalType":"string"}]},{"name":"nonce","type":"uint256","internalType":"uint256"}],"outputs":[],"stateMutability":"nonpayable"},{"type":"function","name":"linkWalletToRootKey","inputs":[{"name":"wallet","type":"tuple","internalType":"struct IWalletLinkBase.LinkedWallet","components":[{"name":"addr","type":"address","internalType":"address"},{"name":"signature","type":"bytes","internalType":"bytes"},{"name":"message","type":"string","internalType":"string"}]},{"name":"rootWallet","type":"tuple","internalType":"struct IWalletLinkBase.LinkedWallet","components":[{"name":"addr","type":"address","internalType":"address"},{"name":"signature","type":"bytes","internalType":"bytes"},{"name":"message","type":"string","internalType":"string"}]},{"name":"nonce","type":"uint256","internalType":"uint256"}],"outputs":[],"stateMutability":"nonpayable"},{"type":"function","name":"removeLink","inputs":[{"name":"wallet","type":"address","internalType":"address"},{"name":"rootWallet","type":"tuple","internalType":"struct IWalletLinkBase.LinkedWallet","components":[{"name":"addr","type":"address","internalType":"address"},{"name":"signature","type":"bytes","internalType":"bytes"},{"name":"message","type":"string","internalType":"string"}]},{"name":"nonce","type":"uint256","internalType":"uint256"}],"outputs":[],"stateMutability":"nonpayable"},{"type":"event","name":"Initialized","inputs":[{"name":"version","type":"uint32","indexed":false,"internalType":"uint32"}],"anonymous":false},{"type":"event","name":"InterfaceAdded","inputs":[{"name":"interfaceId","type":"bytes4","indexed":true,"internalType":"bytes4"}],"anonymous":false},{"type":"event","name":"InterfaceRemoved","inputs":[{"name":"interfaceId","type":"bytes4","indexed":true,"internalType":"bytes4"}],"anonymous":false},{"type":"event","name":"LinkWalletToRootKey","inputs":[{"name":"wallet","type":"address","indexed":true,"internalType":"address"},{"name":"rootKey","type":"address","indexed":true,"internalType":"address"}],"anonymous":false},{"type":"event","name":"RemoveLink","inputs":[{"name":"wallet","type":"address","indexed":true,"internalType":"address"},{"name":"secondWallet","type":"address","indexed":true,"internalType":"address"}],"anonymous":false},{"type":"error","name":"ECDSAInvalidSignature","inputs":[]},{"type":"error","name":"ECDSAInvalidSignatureLength","inputs":[{"name":"length","type":"uint256","internalType":"uint256"}]},{"type":"error","name":"ECDSAInvalidSignatureS","inputs":[{"name":"s","type":"bytes32","internalType":"bytes32"}]},{"type":"error","name":"Initializable_InInitializingState","inputs":[]},{"type":"error","name":"Initializable_NotInInitializingState","inputs":[]},{"type":"error","name":"Introspection_AlreadySupported","inputs":[]},{"type":"error","name":"Introspection_NotSupported","inputs":[]},{"type":"error","name":"InvalidAccountNonce","inputs":[{"name":"account","type":"address","internalType":"address"},{"name":"currentNonce","type":"uint256","internalType":"uint256"}]},{"type":"error","name":"WalletLink__CannotLinkToRootWallet","inputs":[{"name":"wallet","type":"address","internalType":"address"},{"name":"rootKey","type":"address","internalType":"address"}]},{"type":"error","name":"WalletLink__CannotLinkToSelf","inputs":[]},{"type":"error","name":"WalletLink__CannotRemoveRootWallet","inputs":[]},{"type":"error","name":"WalletLink__InvalidAddress","inputs":[]},{"type":"error","name":"WalletLink__InvalidSignature","inputs":[]},{"type":"error","name":"WalletLink__LinkAlreadyExists","inputs":[{"name":"wallet","type":"address","internalType":"address"},{"name":"rootKey","type":"address","internalType":"address"}]},{"type":"error","name":"WalletLink__LinkedToAnotherRootKey","inputs":[{"name":"wallet","type":"address","internalType":"address"},{"name":"rootKey","type":"address","internalType":"address"}]},{"type":"error","name":"WalletLink__NotLinked","inputs":[{"name":"wallet","type":"address","internalType":"address"},{"name":"rootKey","type":"address","internalType":"address"}]}],"bytecode":{"object":"0x608060405234801561001057600080fd5b5061001961001e565b6100c4565b7f59b501c3653afc186af7d48dda36cf6732bd21629a6295693664240a6ef520008054640100000000900460ff161561006a576040516366008a2d60e01b815260040160405180910390fd5b805463ffffffff90811610156100c157805463ffffffff191663ffffffff90811782556040519081527fe9c9b456cb2994b80aeef036cf59d26e9617df80f816a6ee5a5b4166e07e2f5c9060200160405180910390a15b50565b611586806100d36000396000f3fe608060405234801561001057600080fd5b50600436106100885760003560e01c80632f4614531161005b5780632f461453146100f457806335d2fb6414610107578063912b97581461011a578063f82103981461013d57600080fd5b806302345b981461008d57806320a00ac8146100b6578063243a7134146100d7578063260a409d146100ec575b600080fd5b6100a061009b366004611146565b610168565b6040516100ad9190611161565b60405180910390f35b6100c96100c4366004611146565b610179565b6040519081526020016100ad565b6100ea6100e536600461130e565b6101b6565b005b6100ea6101c6565b6100ea61010236600461137b565b610222565b6100ea6101153660046113c0565b610230565b61012d610128366004611406565b61023b565b60405190151581526020016100ad565b61015061014b366004611146565b610284565b6040516001600160a01b0390911681526020016100ad565b6060610173826102c5565b92915050565b6001600160a01b03811660009081527fda5d6d87446d81938877f0ee239dac391146dd7466ea30567f72becf06773c006020526040812054610173565b6101c18383836102f6565b505050565b7f59b501c3653afc186af7d48dda36cf6732bd21629a6295693664240a6ef5200054640100000000900460ff1661021057604051630ef4733760e31b815260040160405180910390fd5b6102206375305b9360e01b6104df565b565b61022c82826105bd565b5050565b6101c183838361070e565b6001600160a01b0381811660009081527f19511ce7944c192b1007be99b82019218d1decfc513f05239612743360a0dc01602052604081205490918481169116145b9392505050565b6001600160a01b0380821660009081527f19511ce7944c192b1007be99b82019218d1decfc513f05239612743360a0dc016020526040812054909116610173565b6001600160a01b0381166000908152600080516020611546833981519152602052604090206060906101739061090c565b825182516000805160206115468339815191529161031691839190610919565b6040808501518551915160009261034492600080516020611566833981519152929091908790602001611439565b604051602081830303815290604052805190602001209050600061036782610a8a565b905084600001516001600160a01b0316610385828760200151610ab7565b6001600160a01b0316146103ac57604051632af0041d60e11b815260040160405180910390fd5b604080860151865191516103d59260008051602061156683398151915292918890602001611439565b60405160208183030381529060405280519060200120915060006103f883610a8a565b905086600001516001600160a01b0316610416828960200151610ab7565b6001600160a01b03161461043d57604051632af0041d60e11b815260040160405180910390fd5b85516104499086610ae1565b865186516001600160a01b0316600090815260208690526040902061046d91610b53565b50855187516001600160a01b03908116600090815260018701602052604080822080546001600160a01b0319169484169490941790935588518a51935190831693909216917f64126824352170c4025060d1f6e215159635e4b08e649830695f26ef6d2b57219190a350505050505050565b6001600160e01b0319811660009081527f81088bbc801e045ea3e7620779ab349988f58afbdfba10dff983df3f33522b00602052604090205460ff16151560011461056c576001600160e01b0319811660009081527f81088bbc801e045ea3e7620779ab349988f58afbdfba10dff983df3f33522b0060205260409020805460ff19166001179055610585565b604051637967f77d60e11b815260040160405180910390fd5b6040516001600160e01b03198216907f78f84e5b1c5c05be2b5ad3800781dd404d6d6c6302bc755c0fe20f58a33a7f2290600090a250565b81516000805160206115468339815191529033906105de9083908390610919565b600060008051602061156683398151915260001b8560400151838660405160200161060c9493929190611439565b604051602081830303815290604052805190602001209050600061062f82610a8a565b905085600001516001600160a01b031661064d828860200151610ab7565b6001600160a01b03161461067457604051632af0041d60e11b815260040160405180910390fd5b85516106809086610ae1565b85516001600160a01b031660009081526020859052604090206106a39084610b53565b5085516001600160a01b03848116600081815260018801602052604080822080546001600160a01b0319169585169590951790945589519351939092169290917f64126824352170c4025060d1f6e215159635e4b08e649830695f26ef6d2b572191a3505050505050565b6000805160206115468339815191526001600160a01b038416158061073b575082516001600160a01b0316155b1561075957604051636df3f5c360e01b815260040160405180910390fd5b82600001516001600160a01b0316846001600160a01b03160361078f576040516333976e3b60e11b815260040160405180910390fd5b82516001600160a01b03858116600090815260018401602052604090205481169116146107ea578251604051635e300c8360e01b81526001600160a01b03808716600483015290911660248201526044015b60405180910390fd5b600060008051602061156683398151915260001b846040015186856040516020016108189493929190611439565b604051602081830303815290604052805190602001209050600061083b82610a8a565b905084600001516001600160a01b0316610859828760200151610ab7565b6001600160a01b03161461088057604051632af0041d60e11b815260040160405180910390fd5b845161088c9085610ae1565b6001600160a01b038087166000908152600185016020908152604080832080546001600160a01b031916905588519093168252859052206108cd9087610b68565b5060405133906001600160a01b038816907f9a9d98629b39adf596077fc95a0712ba55c38f40a354e99d366a10f9c3e27da290600090a3505050505050565b6060600061027d83610b7d565b6001600160a01b038216158061093657506001600160a01b038116155b1561095457604051636df3f5c360e01b815260040160405180910390fd5b806001600160a01b0316826001600160a01b0316036109865760405163848ba26d60e01b815260040160405180910390fd5b6001600160a01b03828116600090815260018501602052604090205416156109d4576040516314790b7f60e01b81526001600160a01b038084166004830152821660248201526044016107e1565b6001600160a01b0381811660009081526001850160205260409020541615610a37576001600160a01b038181166000908152600185016020526040908190205490516347227b5d60e01b81528483166004820152911660248201526044016107e1565b6001600160a01b0382166000908152602084905260408120610a5890610bd9565b11156101c157604051637b815eed60e11b81526001600160a01b038084166004830152821660248201526044016107e1565b6000610173610a97610be3565b8360405161190160f01b8152600281019290925260228201526042902090565b600080600080610ac78686610bf2565b925092509250610ad78282610c3f565b5090949350505050565b6001600160a01b03821660009081527fda5d6d87446d81938877f0ee239dac391146dd7466ea30567f72becf06773c00602052604090208054600181019091558181146101c1576040516301d4b62360e61b81526001600160a01b0384166004820152602481018290526044016107e1565b600061027d836001600160a01b038416610cf8565b600061027d836001600160a01b038416610d47565b606081600001805480602002602001604051908101604052809291908181526020018280548015610bcd57602002820191906000526020600020905b815481526020019060010190808311610bb9575b50505050509050919050565b6000610173825490565b6000610bed610e3a565b905090565b60008060008351604103610c2c5760208401516040850151606086015160001a610c1e88828585610eae565b955095509550505050610c38565b50508151600091506002905b9250925092565b6000826003811115610c5357610c536114a8565b03610c5c575050565b6001826003811115610c7057610c706114a8565b03610c8e5760405163f645eedf60e01b815260040160405180910390fd5b6002826003811115610ca257610ca26114a8565b03610cc35760405163fce698f760e01b8152600481018290526024016107e1565b6003826003811115610cd757610cd76114a8565b0361022c576040516335e2f38360e21b8152600481018290526024016107e1565b6000818152600183016020526040812054610d3f57508154600181810184556000848152602080822090930184905584548482528286019093526040902091909155610173565b506000610173565b60008181526001830160205260408120548015610e30576000610d6b6001836114be565b8554909150600090610d7f906001906114be565b9050808214610de4576000866000018281548110610d9f57610d9f6114df565b9060005260206000200154905080876000018481548110610dc257610dc26114df565b6000918252602080832090910192909255918252600188019052604090208390555b8554869080610df557610df56114f5565b600190038181906000526020600020016000905590558560010160008681526020019081526020016000206000905560019350505050610173565b6000915050610173565b60007f8b73c3c69bb8fe3d512ecc4cf759cc79239f7b179b0ffacaa9a75d522b39400f610e65610f7d565b610e6d610ff5565b60408051602081019490945283019190915260608201524660808201523060a082015260c00160405160208183030381529060405280519060200120905090565b600080807f7fffffffffffffffffffffffffffffff5d576e7357a4501ddfe92f46681b20a0841115610ee95750600091506003905082610f73565b604080516000808252602082018084528a905260ff891692820192909252606081018790526080810186905260019060a0016020604051602081039080840390855afa158015610f3d573d6000803e3d6000fd5b5050604051601f1901519150506001600160a01b038116610f6957506000925060019150829050610f73565b9250600091508190505b9450945094915050565b600080610f88611045565b805190915015610f9f578051602090910120919050565b7f219639d1c7dec7d049ffb8dc11e39f070f052764b142bd61682a7811a502a600548015610fcd5792915050565b7fc5d2460186f7233c927e7db2dcc703c0e500b653ca82273b7bfad8045d85a4709250505090565b6000806110006110f9565b805190915015611017578051602090910120919050565b7f219639d1c7dec7d049ffb8dc11e39f070f052764b142bd61682a7811a502a601548015610fcd5792915050565b60607f219639d1c7dec7d049ffb8dc11e39f070f052764b142bd61682a7811a502a60060020180546110769061150b565b80601f01602080910402602001604051908101604052809291908181526020018280546110a29061150b565b80156110ef5780601f106110c4576101008083540402835291602001916110ef565b820191906000526020600020905b8154815290600101906020018083116110d257829003601f168201915b5050505050905090565b60607f219639d1c7dec7d049ffb8dc11e39f070f052764b142bd61682a7811a502a60060030180546110769061150b565b80356001600160a01b038116811461114157600080fd5b919050565b60006020828403121561115857600080fd5b61027d8261112a565b6020808252825182820181905260009190848201906040850190845b818110156111a25783516001600160a01b03168352928401929184019160010161117d565b50909695505050505050565b634e487b7160e01b600052604160045260246000fd5b6040516060810167ffffffffffffffff811182821017156111e7576111e76111ae565b60405290565b600067ffffffffffffffff80841115611208576112086111ae565b604051601f8501601f19908116603f01168101908282118183101715611230576112306111ae565b8160405280935085815286868601111561124957600080fd5b858560208301376000602087830101525050509392505050565b60006060828403121561127557600080fd5b61127d6111c4565b90506112888261112a565b8152602082013567ffffffffffffffff808211156112a557600080fd5b818401915084601f8301126112b957600080fd5b6112c8858335602085016111ed565b602084015260408401359150808211156112e157600080fd5b508201601f810184136112f357600080fd5b611302848235602084016111ed565b60408301525092915050565b60008060006060848603121561132357600080fd5b833567ffffffffffffffff8082111561133b57600080fd5b61134787838801611263565b9450602086013591508082111561135d57600080fd5b5061136a86828701611263565b925050604084013590509250925092565b6000806040838503121561138e57600080fd5b823567ffffffffffffffff8111156113a557600080fd5b6113b185828601611263565b95602094909401359450505050565b6000806000606084860312156113d557600080fd5b6113de8461112a565b9250602084013567ffffffffffffffff8111156113fa57600080fd5b61136a86828701611263565b6000806040838503121561141957600080fd5b6114228361112a565b91506114306020840161112a565b90509250929050565b8481526000602060806020840152855180608085015260005b8181101561146e5787810183015185820160a001528201611452565b50600060a08286018101919091526001600160a01b0396909616604085015260608401949094525050601f909101601f1916010192915050565b634e487b7160e01b600052602160045260246000fd5b8181038181111561017357634e487b7160e01b600052601160045260246000fd5b634e487b7160e01b600052603260045260246000fd5b634e487b7160e01b600052603160045260246000fd5b600181811c9082168061151f57607f821691505b60208210810361153f57634e487b7160e01b600052602260045260246000fd5b5091905056fe19511ce7944c192b1007be99b82019218d1decfc513f05239612743360a0dc006bb89d031fcd292ecd4c0e6855878b7165cebc3a2f35bc6bbac48c088dd8325c","linkReferences":{}},"methodIdentifiers":{"__WalletLink_init()":"260a409d","checkIfLinked(address,address)":"912b9758","getLatestNonceForRootKey(address)":"20a00ac8","getRootKeyForWallet(address)":"f8210398","getWalletsByRootKey(address)":"02345b98","linkCallerToRootKey((address,bytes,string),uint256)":"2f461453","linkWalletToRootKey((address,bytes,string),(address,bytes,string),uint256)":"243a7134","removeLink(address,(address,bytes,string),uint256)":"35d2fb64"},"id":169}