{"abi":[{"type":"function","name":"__Architect_init","inputs":[{"name":"ownerImplementation","type":"address","internalType":"contract ISpaceOwner"},{"name":"userEntitlementImplementation","type":"address","internalType":"contract IUserEntitlement"},{"name":"ruleEntitlementImplementation","type":"address","internalType":"contract IRuleEntitlement"}],"outputs":[],"stateMutability":"nonpayable"},{"type":"function","name":"createSpace","inputs":[{"name":"spaceInfo","type":"tuple","internalType":"struct IArchitectBase.SpaceInfo","components":[{"name":"name","type":"string","internalType":"string"},{"name":"uri","type":"string","internalType":"string"},{"name":"membership","type":"tuple","internalType":"struct IArchitectBase.Membership","components":[{"name":"settings","type":"tuple","internalType":"struct IMembershipBase.Membership","components":[{"name":"name","type":"string","internalType":"string"},{"name":"symbol","type":"string","internalType":"string"},{"name":"price","type":"uint256","internalType":"uint256"},{"name":"maxSupply","type":"uint256","internalType":"uint256"},{"name":"duration","type":"uint64","internalType":"uint64"},{"name":"currency","type":"address","internalType":"address"},{"name":"feeRecipient","type":"address","internalType":"address"},{"name":"freeAllocation","type":"uint256","internalType":"uint256"},{"name":"pricingModule","type":"address","internalType":"address"}]},{"name":"requirements","type":"tuple","internalType":"struct IArchitectBase.MembershipRequirements","components":[{"name":"everyone","type":"bool","internalType":"bool"},{"name":"users","type":"address[]","internalType":"address[]"},{"name":"ruleData","type":"tuple","internalType":"struct IRuleEntitlement.RuleData","components":[{"name":"operations","type":"tuple[]","internalType":"struct IRuleEntitlement.Operation[]","components":[{"name":"opType","type":"uint8","internalType":"enum IRuleEntitlement.CombinedOperationType"},{"name":"index","type":"uint8","internalType":"uint8"}]},{"name":"checkOperations","type":"tuple[]","internalType":"struct IRuleEntitlement.CheckOperation[]","components":[{"name":"opType","type":"uint8","internalType":"enum IRuleEntitlement.CheckOperationType"},{"name":"chainId","type":"uint256","internalType":"uint256"},{"name":"contractAddress","type":"address","internalType":"address"},{"name":"threshold","type":"uint256","internalType":"uint256"}]},{"name":"logicalOperations","type":"tuple[]","internalType":"struct IRuleEntitlement.LogicalOperation[]","components":[{"name":"logOpType","type":"uint8","internalType":"enum IRuleEntitlement.LogicalOperationType"},{"name":"leftOperationIndex","type":"uint8","internalType":"uint8"},{"name":"rightOperationIndex","type":"uint8","internalType":"uint8"}]}]}]},{"name":"permissions","type":"string[]","internalType":"string[]"}]},{"name":"channel","type":"tuple","internalType":"struct IArchitectBase.ChannelInfo","components":[{"name":"metadata","type":"string","internalType":"string"}]}]}],"outputs":[{"name":"","type":"address","internalType":"address"}],"stateMutability":"nonpayable"},{"type":"function","name":"getSpaceArchitectImplementations","inputs":[],"outputs":[{"name":"spaceToken","type":"address","internalType":"contract ISpaceOwner"},{"name":"userEntitlementImplementation","type":"address","internalType":"contract IUserEntitlement"},{"name":"ruleEntitlementImplementation","type":"address","internalType":"contract IRuleEntitlement"}],"stateMutability":"view"},{"type":"function","name":"getSpaceByTokenId","inputs":[{"name":"tokenId","type":"uint256","internalType":"uint256"}],"outputs":[{"name":"","type":"address","internalType":"address"}],"stateMutability":"view"},{"type":"function","name":"getTokenIdBySpace","inputs":[{"name":"space","type":"address","internalType":"address"}],"outputs":[{"name":"","type":"uint256","internalType":"uint256"}],"stateMutability":"view"},{"type":"function","name":"setSpaceArchitectImplementations","inputs":[{"name":"spaceToken","type":"address","internalType":"contract ISpaceOwner"},{"name":"userEntitlementImplementation","type":"address","internalType":"contract IUserEntitlement"},{"name":"ruleEntitlementImplementation","type":"address","internalType":"contract IRuleEntitlement"}],"outputs":[],"stateMutability":"nonpayable"},{"type":"event","name":"Initialized","inputs":[{"name":"version","type":"uint32","indexed":false,"internalType":"uint32"}],"anonymous":false},{"type":"event","name":"InterfaceAdded","inputs":[{"name":"interfaceId","type":"bytes4","indexed":true,"internalType":"bytes4"}],"anonymous":false},{"type":"event","name":"InterfaceRemoved","inputs":[{"name":"interfaceId","type":"bytes4","indexed":true,"internalType":"bytes4"}],"anonymous":false},{"type":"event","name":"OwnershipTransferred","inputs":[{"name":"previousOwner","type":"address","indexed":true,"internalType":"address"},{"name":"newOwner","type":"address","indexed":true,"internalType":"address"}],"anonymous":false},{"type":"event","name":"Paused","inputs":[{"name":"account","type":"address","indexed":false,"internalType":"address"}],"anonymous":false},{"type":"event","name":"SpaceCreated","inputs":[{"name":"owner","type":"address","indexed":true,"internalType":"address"},{"name":"tokenId","type":"uint256","indexed":true,"internalType":"uint256"},{"name":"space","type":"address","indexed":true,"internalType":"address"}],"anonymous":false},{"type":"event","name":"Unpaused","inputs":[{"name":"account","type":"address","indexed":false,"internalType":"address"}],"anonymous":false},{"type":"error","name":"Architect__InvalidAddress","inputs":[]},{"type":"error","name":"Architect__InvalidNetworkId","inputs":[]},{"type":"error","name":"Architect__InvalidStringLength","inputs":[]},{"type":"error","name":"Architect__NotContract","inputs":[]},{"type":"error","name":"Factory__FailedDeployment","inputs":[]},{"type":"error","name":"Initializable_InInitializingState","inputs":[]},{"type":"error","name":"Initializable_NotInInitializingState","inputs":[]},{"type":"error","name":"Introspection_AlreadySupported","inputs":[]},{"type":"error","name":"Introspection_NotSupported","inputs":[]},{"type":"error","name":"Ownable__NotOwner","inputs":[{"name":"account","type":"address","internalType":"address"}]},{"type":"error","name":"Ownable__ZeroAddress","inputs":[]},{"type":"error","name":"Pausable__NotPaused","inputs":[]},{"type":"error","name":"Pausable__Paused","inputs":[]},{"type":"error","name":"ReentrancyGuard__ReentrantCall","inputs":[]},{"type":"error","name":"Validator__InvalidAddress","inputs":[]}],"bytecode":{"object":"0x608060405234801561001057600080fd5b5061001961001e565b6100c4565b7f59b501c3653afc186af7d48dda36cf6732bd21629a6295693664240a6ef520008054640100000000900460ff161561006a576040516366008a2d60e01b815260040160405180910390fd5b805463ffffffff90811610156100c157805463ffffffff191663ffffffff90811782556040519081527fe9c9b456cb2994b80aeef036cf59d26e9617df80f816a6ee5a5b4166e07e2f5c9060200160405180910390a15b50565b61431b80620000d46000396000f3fe60806040523480156200001157600080fd5b50600436106200006a5760003560e01c8063545efb2d146200006f578063673f0dd514620000a85780637d8c452214620000d85780638bfc94b914620000ef578063c0bc67961462000108578063dc1b9f23146200012e575b600080fd5b6200007962000145565b604080516001600160a01b03948516815292841660208401529216918101919091526060015b60405180910390f35b620000bf620000b93660046200128f565b620001c2565b6040516001600160a01b0390911681526020016200009f565b620000bf620000e936600462001a75565b62000200565b620001066200010036600462001b5e565b620002ef565b005b6200011f6200011936600462001bb0565b62000352565b6040519081526020016200009f565b620001066200013f36600462001b5e565b62000390565b6000806000620001b7600080516020620042fb833981519152547f9e34afa7b4d27d347d25d9d9dab4f1a106fa081382e6c4243e834d093e787d01547f9e34afa7b4d27d347d25d9d9dab4f1a106fa081382e6c4243e834d093e787d02546001600160a01b0392831693918316921690565b925092509250909192565b60008181527f06bd04a817647c31ee485c8a0baab96facd62dbfd4b475796bb17ca2c12f000260205260408120546001600160a01b03165b92915050565b600060027f54f22f54f370bd020e00ee80e1a5099a71652e2ccbcf6a75281e4c70a3e11a0054036200024557604051635db5c7cd60e11b815260040160405180910390fd5b6200026f60027f54f22f54f370bd020e00ee80e1a5099a71652e2ccbcf6a75281e4c70a3e11a0055565b7fe17a067c7963a59b6dfd65d33b053fdbea1c56500e2aae4f976d9eda4da9eb005460ff1615620002b3576040516302ca8ced60e11b815260040160405180910390fd5b620002be82620003db565b9050620002ea60017f54f22f54f370bd020e00ee80e1a5099a71652e2ccbcf6a75281e4c70a3e11a0055565b919050565b7f4675fa8241f86f37157864d3d49b85ad4b164352c516da28e1678a90470ae300546001600160a01b0316331462000340576040516365f4906560e01b815233600482015260240160405180910390fd5b6200034d8383836200077c565b505050565b6001600160a01b03811660009081527f06bd04a817647c31ee485c8a0baab96facd62dbfd4b475796bb17ca2c12f00016020526040812054620001fa565b7f59b501c3653afc186af7d48dda36cf6732bd21629a6295693664240a6ef5200054640100000000900460ff166200034057604051630ef4733760e31b815260040160405180910390fd5b600080516020620042fb833981519152805460408051631d5e528f60e21b815290516000937f06bd04a817647c31ee485c8a0baab96facd62dbfd4b475796bb17ca2c12f000093909285926001600160a01b03909216916375794a3c916004808201926020929091908290030181865afa1580156200045e573d6000803e3d6000fd5b505050506040513d601f19601f8201168201806040525081019062000484919062001bd7565b9050620004968186604001516200088b565b8354909450836000620004a98362001bf1565b90915550506000818152600284016020908152604080832080546001600160a01b0319166001600160a01b03898116918217909255845260018701835292819020849055845488519289015191516391de4a8360e01b81529316926391de4a83926200051c929091899060040162001c6d565b6020604051808303816000875af11580156200053c573d6000803e3d6000fd5b505050506040513d601f19601f8201168201806040525081019062000562919062001bd7565b50600182015460009062000580906001600160a01b031686620008b5565b6002840154909150600090620005a0906001600160a01b031687620008b5565b60408051600280825260608201835292935060009290916020830190803683370190505090508281600081518110620005dd57620005dd62001caf565b60200260200101906001600160a01b031690816001600160a01b031681525050818160018151811062000614576200061462001caf565b6001600160a01b039283166020918202929092010152604051638bfc820f60e01b815290881690638bfc820f906200065190849060040162001cc5565b600060405180830381600087803b1580156200066c57600080fd5b505af115801562000681573d6000803e3d6000fd5b505050506200069b8784848b604001516020015162000972565b50604080890151805151910151600091620006ba918a91908762000da5565b9050620006cd88828b6060015162000f35565b8554604051632142170760e11b8152306004820152336024820152604481018790526001600160a01b03909116906342842e0e90606401600060405180830381600087803b1580156200071f57600080fd5b505af115801562000734573d6000803e3d6000fd5b50506040516001600160a01b038b16925087915033907fe50fc3942f8a2d7e5a7c8fb9488499eba5255b41e18bc3f1b4791402976d1d0b90600090a450505050505050919050565b826001600160a01b03163b600003620007a8576040516302f3d00b60e01b815260040160405180910390fd5b816001600160a01b03163b600003620007d4576040516302f3d00b60e01b815260040160405180910390fd5b806001600160a01b03163b60000362000800576040516302f3d00b60e01b815260040160405180910390fd5b600080516020620042fb83398151915280546001600160a01b039485166001600160a01b0319918216179091557f9e34afa7b4d27d347d25d9d9dab4f1a106fa081382e6c4243e834d093e787d018054938516938216939093179092557f9e34afa7b4d27d347d25d9d9dab4f1a106fa081382e6c4243e834d093e787d028054919093169116179055565b60008060006200089c858562001036565b91509150620008ac8282620011d3565b95945050505050565b60008060405180602001620008ca9062001273565b601f1982820381018352601f9091011660408190526001600160a01b0385166024820152859060440160408051601f19818403018152918152602080830180516001600160e01b031663189acdbd60e31b17905290516200092e9392910162001d14565b60408051601f19818403018152908290526200094e929160200162001d3a565b60405160208183030381529060405290506200096a816200120e565b949350505050565b604080516001808252818301909252600091829190816020015b60608152602001906001900390816200098c579050509050604051806040016040528060098152602001684a6f696e537061636560b81b81525081600081518110620009dc57620009dc62001caf565b6020026020010181905250856001600160a01b0316638fcd793d6040518060400160405280600681526020016526b4b73a32b960d11b8152508360006001600160401b0381111562000a325762000a32620012a9565b60405190808252806020026020018201604052801562000a7a57816020015b60408051808201909152600081526060602082015281526020019060019003908162000a515790505b506040518463ffffffff1660e01b815260040162000a9b9392919062001d96565b6020604051808303816000875af115801562000abb573d6000803e3d6000fd5b505050506040513d601f19601f8201168201806040525081019062000ae1919062001bd7565b83519092501562000bef576040805160018082528183019092526000916020808301908036833701905050905060018160008151811062000b265762000b2662001caf565b60200260200101906001600160a01b031690816001600160a01b031681525050866001600160a01b031663ba201ba88460405180604001604052808a6001600160a01b031681526020018560405160200162000b83919062001cc5565b6040516020818303038152906040528152506040518363ffffffff1660e01b815260040162000bb492919062001e68565b600060405180830381600087803b15801562000bcf57600080fd5b505af115801562000be4573d6000803e3d6000fd5b505050505062000d9c565b6020830151511562000ce85760005b83602001515181101562000c405762000c378460200151828151811062000c295762000c2962001caf565b602002602001015162001248565b60010162000bfe565b50856001600160a01b031663ba201ba8836040518060400160405280896001600160a01b03168152602001876020015160405160200162000c82919062001cc5565b6040516020818303038152906040528152506040518363ffffffff1660e01b815260040162000cb392919062001e68565b600060405180830381600087803b15801562000cce57600080fd5b505af115801562000ce3573d6000803e3d6000fd5b505050505b604083015151511562000d9c57856001600160a01b031663ba201ba8836040518060400160405280886001600160a01b03168152602001876040015160405160200162000d36919062001f80565b6040516020818303038152906040528152506040518363ffffffff1660e01b815260040162000d6792919062001e68565b600060405180830381600087803b15801562000d8257600080fd5b505af115801562000d97573d6000803e3d6000fd5b505050505b50949350505050565b6040805160018082528183019092526000918291906020808301908036833701905050905060018160008151811062000de25762000de262001caf565b6001600160a01b039290921660209283029190910190910152604080516001808252818301909252600091816020015b60408051808201909152600081526060602082015281526020019060019003908162000e12579050509050838160008151811062000e545762000e5462001caf565b6020908102919091018101516001600160a01b0390921690915260405162000e7f9184910162001cc5565b6040516020818303038152906040528160008151811062000ea45762000ea462001caf565b6020908102919091018101510152604051638fcd793d60e01b81526001600160a01b03881690638fcd793d9062000ee49089908990869060040162001d96565b6020604051808303816000875af115801562000f04573d6000803e3d6000fd5b505050506040513d601f19601f8201168201806040525081019062000f2a919062001bd7565b979650505050505050565b60408051600180825281830190925260009160208083019080368337019050509050828160008151811062000f6e5762000f6e62001caf565b602090810291909101810191909152604051600160fd1b918101919091526bffffffffffffffffffffffff19606086901b16602182015260009060350160405160208183030381529060405262000fc5906200202b565b835160405163921f717560e01b81529192506001600160a01b0387169163921f71759162000ffb91859190879060040162002053565b600060405180830381600087803b1580156200101657600080fd5b505af11580156200102b573d6000803e3d6000fd5b505050505050505050565b6060600080600080516020620042fb8339815191526040805133602082015290810187905242606082015290915060800160405160208183030381529060405280519060200120915060405180602001620010919062001281565b601f19828203810183526040601f90920116818101825263dc9cc64560e01b8152306020828101919091528251808401845285546001600160a01b0390811682528183018b90528451610120810186528a515181528a518401519381019390935289518501519483019490945288516060908101519083015288516080908101516001600160401b031690830152885160a090810151851690830152885160c09081015133959293929183019116156200115157895160c0015162001153565b335b6001600160a01b03168152602001896000015160e001518152602001896000015161010001516001600160a01b03168152506040516020016200119a9493929190620020b4565b60408051601f1981840301815290829052620011ba929160200162001d3a565b6040516020818303038152906040529250509250929050565b60008260200183518381836000f59250506001600160a01b0382169050620001fa5760405163ef35ca1960e01b815260040160405180910390fd5b600081602001825180826000f09250506001600160a01b0382169050620002ea5760405163ef35ca1960e01b815260040160405180910390fd5b6001600160a01b03811662001270576040516302e47d1560e41b815260040160405180910390fd5b50565b6103d480620021b083390190565b611d77806200258483390190565b600060208284031215620012a257600080fd5b5035919050565b634e487b7160e01b600052604160045260246000fd5b604051608081016001600160401b0381118282101715620012e457620012e4620012a9565b60405290565b604051606081016001600160401b0381118282101715620012e457620012e4620012a9565b604080519081016001600160401b0381118282101715620012e457620012e4620012a9565b60405161012081016001600160401b0381118282101715620012e457620012e4620012a9565b604051601f8201601f191681016001600160401b0381118282101715620013855762001385620012a9565b604052919050565b600082601f8301126200139f57600080fd5b81356001600160401b03811115620013bb57620013bb620012a9565b620013d0601f8201601f19166020016200135a565b818152846020838601011115620013e657600080fd5b816020850160208301376000918101602001919091529392505050565b80356001600160401b0381168114620002ea57600080fd5b6001600160a01b03811681146200127057600080fd5b8035620002ea816200141b565b60006001600160401b038211156200145a576200145a620012a9565b5060051b60200190565b600381106200127057600080fd5b803560ff81168114620002ea57600080fd5b600082601f8301126200149657600080fd5b81356020620014af620014a9836200143e565b6200135a565b82815260079290921b84018101918181019086841115620014cf57600080fd5b8286015b84811015620015415760808189031215620014ee5760008081fd5b620014f8620012bf565b813560068110620015095760008081fd5b8152818501358582015260408083013562001524816200141b565b9082015260608281013590820152835291830191608001620014d3565b509695505050505050565b600082601f8301126200155e57600080fd5b8135602062001571620014a9836200143e565b828152606092830285018201928282019190878511156200159157600080fd5b8387015b85811015620015fa5781818a031215620015af5760008081fd5b620015b9620012ea565b8135620015c68162001464565b8152620015d582870162001472565b868201526040620015e881840162001472565b90820152845292840192810162001595565b5090979650505050505050565b6000606082840312156200161a57600080fd5b62001624620012ea565b905081356001600160401b03808211156200163e57600080fd5b818401915084601f8301126200165357600080fd5b8135602062001666620014a9836200143e565b82815260069290921b840181019181810190888411156200168657600080fd5b948201945b83861015620016e3576040868a031215620016a65760008081fd5b620016b06200130f565b8635620016bd8162001464565b8152620016cc87850162001472565b81850152825260409590950194908201906200168b565b86525085810135935082841115620016fa57600080fd5b620017088785880162001484565b908501525060408401359150808211156200172257600080fd5b5062001731848285016200154c565b60408301525092915050565b6000606082840312156200175057600080fd5b6200175a620012ea565b9050813580151581146200176d57600080fd5b81526020828101356001600160401b03808211156200178b57600080fd5b818501915085601f830112620017a057600080fd5b8135620017b1620014a9826200143e565b81815260059190911b83018401908481019088831115620017d157600080fd5b938501935b82851015620017fc578435620017ec816200141b565b82529385019390850190620017d6565b808688015250505060408501359250808311156200181957600080fd5b5050620017318482850162001607565b600082601f8301126200183b57600080fd5b813560206200184e620014a9836200143e565b82815260059290921b840181019181810190868411156200186e57600080fd5b8286015b84811015620015415780356001600160401b03811115620018935760008081fd5b620018a38986838b01016200138d565b84525091830191830162001872565b600060608284031215620018c557600080fd5b620018cf620012ea565b905081356001600160401b0380821115620018e957600080fd5b908301906101208286031215620018ff57600080fd5b6200190962001334565b8235828111156200191957600080fd5b62001927878286016200138d565b8252506020830135828111156200193d57600080fd5b6200194b878286016200138d565b6020830152506040830135604082015260608301356060820152620019736080840162001403565b60808201526200198660a0840162001431565b60a08201526200199960c0840162001431565b60c082015260e083013560e0820152610100620019b881850162001431565b9082015283526020840135915080821115620019d357600080fd5b620019e1858386016200173d565b60208401526040840135915080821115620019fb57600080fd5b50620017318482850162001829565b60006020828403121562001a1d57600080fd5b604051602081016001600160401b03828210818311171562001a435762001a43620012a9565b81604052829350843591508082111562001a5c57600080fd5b5062001a6b858286016200138d565b8252505092915050565b60006020828403121562001a8857600080fd5b81356001600160401b038082111562001aa057600080fd5b908301906080828603121562001ab557600080fd5b62001abf620012bf565b82358281111562001acf57600080fd5b62001add878286016200138d565b82525060208301358281111562001af357600080fd5b62001b01878286016200138d565b60208301525060408301358281111562001b1a57600080fd5b62001b2887828601620018b2565b60408301525060608301358281111562001b4157600080fd5b62001b4f8782860162001a0a565b60608301525095945050505050565b60008060006060848603121562001b7457600080fd5b833562001b81816200141b565b9250602084013562001b93816200141b565b9150604084013562001ba5816200141b565b809150509250925092565b60006020828403121562001bc357600080fd5b813562001bd0816200141b565b9392505050565b60006020828403121562001bea57600080fd5b5051919050565b60006001820162001c1257634e487b7160e01b600052601160045260246000fd5b5060010190565b60005b8381101562001c3657818101518382015260200162001c1c565b50506000910152565b6000815180845262001c5981602086016020860162001c19565b601f01601f19169290920160200192915050565b60608152600062001c82606083018662001c3f565b828103602084015262001c96818662001c3f565b91505060018060a01b0383166040830152949350505050565b634e487b7160e01b600052603260045260246000fd5b6020808252825182820181905260009190848201906040850190845b8181101562001d085783516001600160a01b03168352928401929184019160010162001ce1565b50909695505050505050565b6001600160a01b03831681526040602082018190526000906200096a9083018462001c3f565b6000835162001d4e81846020880162001c19565b83519083019062001d6481836020880162001c19565b01949350505050565b60018060a01b03815116825260006020820151604060208501526200096a604085018262001c3f565b60608152600062001dab606083018662001c3f565b6020838203818501528186518084528284019150828160051b85010183890160005b8381101562001dff57601f1987840301855262001dec83835162001c3f565b9486019492509085019060010162001dcd565b50508681036040880152875180825284820195509250600583901b81018401915083880160005b8481101562001e5857601f1983850301875262001e4584835162001d6d565b9686019693509085019060010162001e26565b50919a9950505050505050505050565b8281526040602082015260006200096a604083018462001d6d565b634e487b7160e01b600052602160045260246000fd5b6003811062001270576200127062001e83565b60008151808452602080850194506020840160005b8381101562001f1b57815180516006811062001ee15762001ee162001e83565b885280840151848901526040808201516001600160a01b031690890152606090810151908801526080909601959082019060010162001ec1565b509495945050505050565b60008151808452602080850194506020840160005b8381101562001f1b578151805162001f538162001e99565b88528084015160ff908116858a015260409182015116908801526060909601959082019060010162001f3b565b6020808252825160608383015280516080840181905260009291820190839060a08601905b8083101562001fe0578351805162001fbd8162001e99565b835285015160ff1685830152928401926001929092019160409091019062001fa5565b50838701519350601f1992508286820301604087015262002002818562001eac565b9350505060408501518185840301606086015262002021838262001f26565b9695505050505050565b805160208083015191908110156200204d576000198160200360031b1b821691505b50919050565b838152600060206060602084015262002070606084018662001c3f565b83810360408501528451808252602080870192019060005b81811015620020a65783518352928401929184019160010162002088565b509098975050505050505050565b600060018060a01b03808716835263ffffffff60e01b8651166020840152806020870151166040840152808551166060840152506020840151608083015260c060a083015282516101208060c0850152620021146101e085018362001c3f565b9150602085015160bf198584030160e086015262002133838262001c3f565b92505060408501516101008181870152606087015183870152608087015192506200216a6101408701846001600160401b03169052565b60a08701516001600160a01b0390811661016088015260c0880151811661018088015260e08801516101a0880152908701519081166101c0870152915062001541905056fe60806040526040516103d43803806103d483398101604081905261002291610268565b61002c8282610033565b5050610352565b61003c82610092565b6040516001600160a01b038316907fbc7cd75a20ee27fd9adebab32041f755214dbc6bffa90cc0225b39da2e5c2d3b90600090a280511561008657610081828261010e565b505050565b61008e610185565b5050565b806001600160a01b03163b6000036100cd57604051634c9c8ce360e01b81526001600160a01b03821660048201526024015b60405180910390fd5b7f360894a13ba1a3210667c828492db98dca3e2076cc3735a920a3ca505d382bbc80546001600160a01b0319166001600160a01b0392909216919091179055565b6060600080846001600160a01b03168460405161012b9190610336565b600060405180830381855af49150503d8060008114610166576040519150601f19603f3d011682016040523d82523d6000602084013e61016b565b606091505b50909250905061017c8583836101a6565b95945050505050565b34156101a45760405163b398979f60e01b815260040160405180910390fd5b565b6060826101bb576101b682610205565b6101fe565b81511580156101d257506001600160a01b0384163b155b156101fb57604051639996b31560e01b81526001600160a01b03851660048201526024016100c4565b50805b9392505050565b8051156102155780518082602001fd5b604051630a12f52160e11b815260040160405180910390fd5b634e487b7160e01b600052604160045260246000fd5b60005b8381101561025f578181015183820152602001610247565b50506000910152565b6000806040838503121561027b57600080fd5b82516001600160a01b038116811461029257600080fd5b60208401519092506001600160401b03808211156102af57600080fd5b818501915085601f8301126102c357600080fd5b8151818111156102d5576102d561022e565b604051601f8201601f19908116603f011681019083821181831017156102fd576102fd61022e565b8160405282815288602084870101111561031657600080fd5b610327836020830160208801610244565b80955050505050509250929050565b60008251610348818460208701610244565b9190910192915050565b6074806103606000396000f3fe6080604052600a600c565b005b60186014601a565b6051565b565b6000604c7f360894a13ba1a3210667c828492db98dca3e2076cc3735a920a3ca505d382bbc546001600160a01b031690565b905090565b3660008037600080366000845af43d6000803e808015606f573d6000f35b3d6000fd60806040523480156200001157600080fd5b5060405162001d7738038062001d77833981016040819052620000349162000dfe565b6200003e6200016a565b620000a58380517f9c16cba5b9f2fcbd952b38bec34079e93cbe107475c15fc20705f4e704198a0080546020909301516001600160a01b03166001600160a01b031960e09390931c600160a01b02929092166001600160c01b031990931692909217179055565b81517fd2f24d4f172e4e84e48e7c4125b6e904c29e5eba33ad4938fee51dd5dbd4b60080546001600160a01b0319166001600160a01b0390921691909117905560208201517fd2f24d4f172e4e84e48e7c4125b6e904c29e5eba33ad4938fee51dd5dbd4b60155805160208201516200011f91906200017e565b62000135818460200151620001d560201b60201c565b6200013f6200038b565b6200014c8460016200039a565b62000156620003c0565b6200016062000495565b5050505062001107565b6200017c6301ffc9a760e01b620004ea565b565b60008051602062001cf78339815191527f6569bde4a160c636ea8b8d11acb83a60d7fec0b8f2e09389306cba0e1340df02620001bb848262000f64565b5060038101620001cc838262000f64565b50600090555050565b60008051602062001d1783398151915280546001600160a01b038381166001600160a01b0319928316179092556101008401517fc21004fcc619240a31f006438274d15cd813308303284436eef6055f0fdcb608805491909316908216179091557fc21004fcc619240a31f006438274d15cd813308303284436eef6055f0fdcb604805490911673eeeeeeeeeeeeeeeeeeeeeeeeeeeeeeeeeeeeeeee17905560608201517fc21004fcc619240a31f006438274d15cd813308303284436eef6055f0fdcb6035560e08201517fc21004fcc619240a31f006438274d15cd813308303284436eef6055f0fdcb60781905560008051602062001d578339815191529015620002eb5760e0830151620002eb90620005ca565b610100830151620002fc9062000678565b6040830151156200038657604083015162000317906200074a565b600881015460408085015190516391b7f5ed60e01b81526001600160a01b03909216916391b7f5ed91620003519160040190815260200190565b600060405180830381600087803b1580156200036c57600080fd5b505af115801562000381573d6000803e3d6000fd5b505050505b505050565b6200017c607b6103e8620007f5565b620003bc828260405180602001604052806000815250620008ee60201b60201c565b5050565b60007f9075c515a635ba70c9696f31149324218d75cf00afe836c482e6473f38b19e009050600060008051602062001d5783398151915260060154604051628956cd60e71b81526c29b830b1b2a7b832b930ba37b960991b60048201526001600160a01b03909116906344ab668090602401602060405180830381865afa15801562000450573d6000803e3d6000fd5b505050506040513d601f19601f8201168201806040525081019062000476919062001030565b82546001600160a01b0319166001600160a01b03919091161790915550565b620004a76380ac58cd60e01b620004ea565b620004b9635b5e139f60e01b620004ea565b620004cb638c65f84d60e01b620004ea565b620004dd6307f5828d60e41b620004ea565b6200017c63421fb7a760e01b5b6001600160e01b0319811660009081527f81088bbc801e045ea3e7620779ab349988f58afbdfba10dff983df3f33522b00602052604090205460ff16151560011462000579576001600160e01b0319811660009081527f81088bbc801e045ea3e7620779ab349988f58afbdfba10dff983df3f33522b0060205260409020805460ff1916600117905562000592565b604051637967f77d60e11b815260040160405180910390fd5b6040516001600160e01b03198216907f78f84e5b1c5c05be2b5ad3800781dd404d6d6c6302bc755c0fe20f58a33a7f2290600090a250565b60008051602062001d178339815191525460408051632cbb9d1360e01b8152905160008051602062001d57833981519152926001600160a01b031691632cbb9d139160048083019260209291908290030181865afa15801562000631573d6000803e3d6000fd5b505050506040513d601f19601f8201168201806040525081019062000657919062001055565b821115620003bc5760405163c3983b9160e01b815260040160405180910390fd5b6001600160a01b038116620006a057604051630e88bf4b60e01b815260040160405180910390fd5b60008051602062001d17833981519152546001600160a01b03166040516346fc05eb60e11b81526001600160a01b0383811660048301529190911690638df80bd690602401602060405180830381865afa15801562000703573d6000803e3d6000fd5b505050506040513d601f19601f820116820180604052508101906200072991906200106f565b6200074757604051630e88bf4b60e01b815260040160405180910390fd5b50565b60006200076d60008051602062001d17833981519152546001600160a01b031690565b6001600160a01b0316630eac306d6040518163ffffffff1660e01b8152600401602060405180830381865afa158015620007ab573d6000803e3d6000fd5b505050506040513d601f19601f82011682018060405250810190620007d1919062001055565b905080821015620003bc57604051631a23d64760e11b815260040160405180910390fd5b8160000362000817576040516306c1cb6d60e51b815260040160405180910390fd5b6127108161ffff1611156200083f57604051634e7ee09d60e11b815260040160405180910390fd5b60008281527f3c2290b88407133303e904ceb4ee7d0d14164eda8a629372d8406216ceb57e00602081905260409091205461ffff16801562000894576040516306c1cb6d60e51b815260040160405180910390fd5b60008481526020838152604091829020805461ffff191661ffff8716908117909155915191825285917f674ed3e313f9254fbafb8a51fa62be8b5f0a767d64c64cfe6f099c80c779a528910160405180910390a250505050565b620008fa838362000980565b6001600160a01b0383163b15620003865760008051602062001cf7833981519152548281035b6001810190620009369060009087908662000aba565b62000954576040516368d2bf6b60e11b815260040160405180910390fd5b81811062000920578160008051602062001cf783398151915254146200097957600080fd5b5050505050565b60008051602062001cf7833981519152546000829003620009b45760405163b562e8dd60e01b815260040160405180910390fd5b6001600160a01b03831660008181527f6569bde4a160c636ea8b8d11acb83a60d7fec0b8f2e09389306cba0e1340df056020908152604080832080546801000000000000000188020190558483527f6569bde4a160c636ea8b8d11acb83a60d7fec0b8f2e09389306cba0e1340df0490915281206001851460e11b4260a01b1783179055828401908390839060008051602062001d378339815191528180a4600183015b81811462000a81578083600060008051602062001d37833981519152600080a460010162000a58565b508160000362000aa357604051622e076360e81b815260040160405180910390fd5b60008051602062001cf78339815191525550505050565b604051630a85bd0160e11b81526000906001600160a01b0385169063150b7a029062000af190339089908890889060040162001093565b6020604051808303816000875af192505050801562000b2f575060408051601f3d908101601f1916820190925262000b2c91810190620010e9565b60015b62000b91573d80801562000b60576040519150601f19603f3d011682016040523d82523d6000602084013e62000b65565b606091505b50805160000362000b89576040516368d2bf6b60e11b815260040160405180910390fd5b805181602001fd5b6001600160e01b031916630a85bd0160e11b149050949350505050565b80516001600160a01b038116811462000bc657600080fd5b919050565b634e487b7160e01b600052604160045260246000fd5b60405161012081016001600160401b038111828210171562000c075762000c0762000bcb565b60405290565b604080519081016001600160401b038111828210171562000c075762000c0762000bcb565b80516001600160e01b03198116811462000bc657600080fd5b60005b8381101562000c6857818101518382015260200162000c4e565b50506000910152565b600082601f83011262000c8357600080fd5b81516001600160401b038082111562000ca05762000ca062000bcb565b604051601f8301601f19908116603f0116810190828211818310171562000ccb5762000ccb62000bcb565b8160405283815286602085880101111562000ce557600080fd5b62000cf884602083016020890162000c4b565b9695505050505050565b80516001600160401b038116811462000bc657600080fd5b6000610120828403121562000d2e57600080fd5b62000d3862000be1565b82519091506001600160401b038082111562000d5357600080fd5b62000d618583860162000c71565b8352602084015191508082111562000d7857600080fd5b5062000d878482850162000c71565b602083015250604082015160408201526060820151606082015262000daf6080830162000d02565b608082015262000dc260a0830162000bae565b60a082015262000dd560c0830162000bae565b60c082015260e082015160e082015261010062000df481840162000bae565b9082015292915050565b60008060008084860360c081121562000e1657600080fd5b62000e218662000bae565b94506040601f198201121562000e3657600080fd5b62000e4062000c0d565b62000e4e6020880162000c32565b815262000e5e6040880162000bae565b602082015293506040605f198201121562000e7857600080fd5b5062000e8362000c0d565b62000e916060870162000bae565b81526080860151602082015260a08601519092506001600160401b0381111562000eba57600080fd5b62000ec88782880162000d1a565b91505092959194509250565b600181811c9082168062000ee957607f821691505b60208210810362000f0a57634e487b7160e01b600052602260045260246000fd5b50919050565b601f82111562000386576000816000526020600020601f850160051c8101602086101562000f3b5750805b601f850160051c820191505b8181101562000f5c5782815560010162000f47565b505050505050565b81516001600160401b0381111562000f805762000f8062000bcb565b62000f988162000f91845462000ed4565b8462000f10565b602080601f83116001811462000fd0576000841562000fb75750858301515b600019600386901b1c1916600185901b17855562000f5c565b600085815260208120601f198616915b82811015620010015788860151825594840194600190910190840162000fe0565b5085821015620010205787850151600019600388901b60f8161c191681555b5050505050600190811b01905550565b6000602082840312156200104357600080fd5b6200104e8262000bae565b9392505050565b6000602082840312156200106857600080fd5b5051919050565b6000602082840312156200108257600080fd5b815180151581146200104e57600080fd5b600060018060a01b038087168352808616602084015250836040830152608060608301528251806080840152620010d28160a085016020870162000c4b565b601f01601f19169190910160a00195945050505050565b600060208284031215620010fc57600080fd5b6200104e8262000c32565b610be080620011176000396000f3fe6080604052600436106100a05760003560e01c80638934207f116100645780638934207f1461020d578063ac7ee62614610241578063ac9650d81461027e578063b3a5be6d146102ab578063d33d9345146102c0578063f9d5d22c146102e2576100a7565b80633ded10de146100b157806369d9346b146100e4578063702515631461014057806373fc5a051461019157806377460cd3146101d0576100a7565b366100a757005b6100af610302565b005b3480156100bd57600080fd5b506100d16100cc366004610918565b61035d565b6040519081526020015b60405180910390f35b3480156100f057600080fd5b506100af6100ff366004610949565b7fc21004fcc619240a31f006438274d15cd813308303284436eef6055f0fdcb60880546001600160a01b0319166001600160a01b0392909216919091179055565b34801561014c57600080fd5b507fc21004fcc619240a31f006438274d15cd813308303284436eef6055f0fdcb604546001600160a01b03165b6040516001600160a01b0390911681526020016100db565b34801561019d57600080fd5b506100af6101ac366004610918565b7fc21004fcc619240a31f006438274d15cd813308303284436eef6055f0fdcb60355565b3480156101dc57600080fd5b507fc21004fcc619240a31f006438274d15cd813308303284436eef6055f0fdcb606546001600160a01b0316610179565b34801561021957600080fd5b507fc21004fcc619240a31f006438274d15cd813308303284436eef6055f0fdcb603546100d1565b34801561024d57600080fd5b507fc21004fcc619240a31f006438274d15cd813308303284436eef6055f0fdcb608546001600160a01b0316610179565b34801561028a57600080fd5b5061029e61029936600461096d565b6104ef565b6040516100db9190610a32565b3480156102b757600080fd5b506100d161060c565b3480156102cc57600080fd5b506102d56106cd565b6040516100db9190610a96565b3480156102ee57600080fd5b506100af6102fd366004610918565b61076f565b600061030c6107d2565b9050806001600160a01b03163b600003610339576040516321f27f0d60e21b815260040160405180910390fd5b3660008037600080366000845af43d6000803e808015610358573d6000f35b3d6000fd5b6000600080516020610bc08339815191528161037761060c565b90508381111561038b575060009392505050565b6006820154604051639262b1b360e01b815230600482015285916001600160a01b031690639262b1b390602401602060405180830381865afa1580156103d5573d6000803e3d6000fd5b505050506040513d601f19601f820116820180604052508101906103f99190610aa9565b1115610409575060009392505050565b60088201546001600160a01b03161561049a576008820154604051635cf4ee9160e01b815260048101839052602481018690526001600160a01b0390911690635cf4ee9190604401602060405180830381865afa15801561046e573d6000803e3d6000fd5b505050506040513d601f19601f820116820180604052508101906104929190610aa9565b949350505050565b8160060160009054906101000a90046001600160a01b03166001600160a01b0316630eac306d6040518163ffffffff1660e01b8152600401602060405180830381865afa15801561046e573d6000803e3d6000fd5b6060818067ffffffffffffffff81111561050b5761050b610ac2565b60405190808252806020026020018201604052801561053e57816020015b60608152602001906001900390816105295790505b50915060005b81811015610604576000803087878581811061056257610562610ad8565b90506020028101906105749190610aee565b604051610582929190610b3c565b600060405180830381855af49150503d80600081146105bd576040519150601f19603f3d011682016040523d82523d6000602084013e6105c2565b606091505b509150915081156105f057808584815181106105e0576105e0610ad8565b60200260200101819052506105fa565b3d6000803e3d6000fd5b5050600101610544565b505092915050565b7fc21004fcc619240a31f006438274d15cd813308303284436eef6055f0fdcb60754600090600080516020610bc083398151915290801561064d5792915050565b8160060160009054906101000a90046001600160a01b03166001600160a01b0316632cbb9d136040518163ffffffff1660e01b8152600401602060405180830381865afa1580156106a2573d6000803e3d6000fd5b505050506040513d601f19601f820116820180604052508101906106c69190610aa9565b9250505090565b6060600080516020610bc0833981519152600c0180546106ec90610b4c565b80601f016020809104026020016040519081016040528092919081815260200182805461071890610b4c565b80156107655780601f1061073a57610100808354040283529160200191610765565b820191906000526020600020905b81548152906001019060200180831161074857829003601f168201915b5050505050905090565b7fc21004fcc619240a31f006438274d15cd813308303284436eef6055f0fdcb607819055604051600080516020610bc08339815191529082907fab14a23e88fb272313490d4f20d63098e64fd38304c0e07a377db98c2b39b92f90600090a25050565b7f9c16cba5b9f2fcbd952b38bec34079e93cbe107475c15fc20705f4e704198a0054600090600160a01b900460e01b81806108347f9c16cba5b9f2fcbd952b38bec34079e93cbe107475c15fc20705f4e704198a00546001600160a01b031690565b6040516001600160e01b03196000351660248201526001600160a01b039190911690849060440160408051601f198184030181529181526020820180516001600160e01b03166001600160e01b03199094169390931790925290516108999190610b86565b600060405180830381855afa9150503d80600081146108d4576040519150601f19603f3d011682016040523d82523d6000602084013e6108d9565b606091505b5091509150816108fc5760405163391aa44560e01b815260040160405180910390fd5b808060200190518101906109109190610ba2565b935050505090565b60006020828403121561092a57600080fd5b5035919050565b6001600160a01b038116811461094657600080fd5b50565b60006020828403121561095b57600080fd5b813561096681610931565b9392505050565b6000806020838503121561098057600080fd5b823567ffffffffffffffff8082111561099857600080fd5b818501915085601f8301126109ac57600080fd5b8135818111156109bb57600080fd5b8660208260051b85010111156109d057600080fd5b60209290920196919550909350505050565b60005b838110156109fd5781810151838201526020016109e5565b50506000910152565b60008151808452610a1e8160208601602086016109e2565b601f01601f19169290920160200192915050565b600060208083016020845280855180835260408601915060408160051b87010192506020870160005b82811015610a8957603f19888603018452610a77858351610a06565b94509285019290850190600101610a5b565b5092979650505050505050565b6020815260006109666020830184610a06565b600060208284031215610abb57600080fd5b5051919050565b634e487b7160e01b600052604160045260246000fd5b634e487b7160e01b600052603260045260246000fd5b6000808335601e19843603018112610b0557600080fd5b83018035915067ffffffffffffffff821115610b2057600080fd5b602001915036819003821315610b3557600080fd5b9250929050565b8183823760009101908152919050565b600181811c90821680610b6057607f821691505b602082108103610b8057634e487b7160e01b600052602260045260246000fd5b50919050565b60008251610b988184602087016109e2565b9190910192915050565b600060208284031215610bb457600080fd5b81516109668161093156fec21004fcc619240a31f006438274d15cd813308303284436eef6055f0fdcb6006569bde4a160c636ea8b8d11acb83a60d7fec0b8f2e09389306cba0e1340df00c21004fcc619240a31f006438274d15cd813308303284436eef6055f0fdcb606ddf252ad1be2c89b69c2b068fc378daa952ba7f163c4a11628f55a4df523b3efc21004fcc619240a31f006438274d15cd813308303284436eef6055f0fdcb6009e34afa7b4d27d347d25d9d9dab4f1a106fa081382e6c4243e834d093e787d00","linkReferences":{}},"methodIdentifiers":{"__Architect_init(address,address,address)":"dc1b9f23","createSpace((string,string,((string,string,uint256,uint256,uint64,address,address,uint256,address),(bool,address[],((uint8,uint8)[],(uint8,uint256,address,uint256)[],(uint8,uint8,uint8)[])),string[]),(string)))":"7d8c4522","getSpaceArchitectImplementations()":"545efb2d","getSpaceByTokenId(uint256)":"673f0dd5","getTokenIdBySpace(address)":"c0bc6796","setSpaceArchitectImplementations(address,address,address)":"8bfc94b9"},"id":137}