{"abi":[{"type":"function","name":"addEntitlementModule","inputs":[{"name":"entitlement","type":"address","internalType":"address"}],"outputs":[],"stateMutability":"nonpayable"},{"type":"function","name":"addImmutableEntitlements","inputs":[{"name":"entitlements","type":"address[]","internalType":"address[]"}],"outputs":[],"stateMutability":"nonpayable"},{"type":"function","name":"getEntitlement","inputs":[{"name":"entitlement","type":"address","internalType":"address"}],"outputs":[{"name":"","type":"tuple","internalType":"struct IEntitlementsManagerBase.Entitlement","components":[{"name":"name","type":"string","internalType":"string"},{"name":"moduleAddress","type":"address","internalType":"address"},{"name":"moduleType","type":"string","internalType":"string"},{"name":"isImmutable","type":"bool","internalType":"bool"}]}],"stateMutability":"view"},{"type":"function","name":"getEntitlements","inputs":[],"outputs":[{"name":"","type":"tuple[]","internalType":"struct IEntitlementsManagerBase.Entitlement[]","components":[{"name":"name","type":"string","internalType":"string"},{"name":"moduleAddress","type":"address","internalType":"address"},{"name":"moduleType","type":"string","internalType":"string"},{"name":"isImmutable","type":"bool","internalType":"bool"}]}],"stateMutability":"view"},{"type":"function","name":"isEntitledToChannel","inputs":[{"name":"channelId","type":"bytes32","internalType":"bytes32"},{"name":"user","type":"address","internalType":"address"},{"name":"permission","type":"string","internalType":"string"}],"outputs":[{"name":"","type":"bool","internalType":"bool"}],"stateMutability":"view"},{"type":"function","name":"isEntitledToSpace","inputs":[{"name":"user","type":"address","internalType":"address"},{"name":"permission","type":"string","internalType":"string"}],"outputs":[{"name":"","type":"bool","internalType":"bool"}],"stateMutability":"view"},{"type":"function","name":"removeEntitlementModule","inputs":[{"name":"entitlement","type":"address","internalType":"address"}],"outputs":[],"stateMutability":"nonpayable"},{"type":"event","name":"Approval","inputs":[{"name":"owner","type":"address","indexed":true,"internalType":"address"},{"name":"approved","type":"address","indexed":true,"internalType":"address"},{"name":"tokenId","type":"uint256","indexed":true,"internalType":"uint256"}],"anonymous":false},{"type":"event","name":"ApprovalForAll","inputs":[{"name":"owner","type":"address","indexed":true,"internalType":"address"},{"name":"operator","type":"address","indexed":true,"internalType":"address"},{"name":"approved","type":"bool","indexed":false,"internalType":"bool"}],"anonymous":false},{"type":"event","name":"Banned","inputs":[{"name":"moderator","type":"address","indexed":true,"internalType":"address"},{"name":"tokenId","type":"uint256","indexed":true,"internalType":"uint256"}],"anonymous":false},{"type":"event","name":"ConsecutiveTransfer","inputs":[{"name":"fromTokenId","type":"uint256","indexed":true,"internalType":"uint256"},{"name":"toTokenId","type":"uint256","indexed":false,"internalType":"uint256"},{"name":"from","type":"address","indexed":true,"internalType":"address"},{"name":"to","type":"address","indexed":true,"internalType":"address"}],"anonymous":false},{"type":"event","name":"EntitlementModuleAdded","inputs":[{"name":"caller","type":"address","indexed":true,"internalType":"address"},{"name":"entitlement","type":"address","indexed":false,"internalType":"address"}],"anonymous":false},{"type":"event","name":"EntitlementModuleRemoved","inputs":[{"name":"caller","type":"address","indexed":true,"internalType":"address"},{"name":"entitlement","type":"address","indexed":false,"internalType":"address"}],"anonymous":false},{"type":"event","name":"OwnershipTransferred","inputs":[{"name":"previousOwner","type":"address","indexed":true,"internalType":"address"},{"name":"newOwner","type":"address","indexed":true,"internalType":"address"}],"anonymous":false},{"type":"event","name":"Paused","inputs":[{"name":"account","type":"address","indexed":false,"internalType":"address"}],"anonymous":false},{"type":"event","name":"SubscriptionUpdate","inputs":[{"name":"tokenId","type":"uint256","indexed":true,"internalType":"uint256"},{"name":"expiration","type":"uint64","indexed":false,"internalType":"uint64"}],"anonymous":false},{"type":"event","name":"Transfer","inputs":[{"name":"from","type":"address","indexed":true,"internalType":"address"},{"name":"to","type":"address","indexed":true,"internalType":"address"},{"name":"tokenId","type":"uint256","indexed":true,"internalType":"uint256"}],"anonymous":false},{"type":"event","name":"Unbanned","inputs":[{"name":"moderator","type":"address","indexed":true,"internalType":"address"},{"name":"tokenId","type":"uint256","indexed":true,"internalType":"uint256"}],"anonymous":false},{"type":"event","name":"Unpaused","inputs":[{"name":"account","type":"address","indexed":false,"internalType":"address"}],"anonymous":false},{"type":"error","name":"ApprovalCallerNotOwnerNorApproved","inputs":[]},{"type":"error","name":"ApprovalQueryForNonexistentToken","inputs":[]},{"type":"error","name":"BalanceQueryForZeroAddress","inputs":[]},{"type":"error","name":"Banning__AlreadyBanned","inputs":[{"name":"tokenId","type":"uint256","internalType":"uint256"}]},{"type":"error","name":"Banning__CannotBanOwner","inputs":[]},{"type":"error","name":"Banning__CannotBanSelf","inputs":[]},{"type":"error","name":"Banning__InvalidTokenId","inputs":[{"name":"tokenId","type":"uint256","internalType":"uint256"}]},{"type":"error","name":"Banning__NotBanned","inputs":[{"name":"tokenId","type":"uint256","internalType":"uint256"}]},{"type":"error","name":"ERC5643__DurationZero","inputs":[]},{"type":"error","name":"ERC5643__InvalidTokenId","inputs":[{"name":"tokenId","type":"uint256","internalType":"uint256"}]},{"type":"error","name":"ERC5643__NotApprovedOrOwner","inputs":[]},{"type":"error","name":"ERC5643__SubscriptionNotRenewable","inputs":[{"name":"tokenId","type":"uint256","internalType":"uint256"}]},{"type":"error","name":"Entitlement__InvalidValue","inputs":[]},{"type":"error","name":"Entitlement__NotAllowed","inputs":[]},{"type":"error","name":"Entitlement__NotMember","inputs":[]},{"type":"error","name":"Entitlement__ValueAlreadyExists","inputs":[]},{"type":"error","name":"EntitlementsService__EntitlementAlreadyExists","inputs":[]},{"type":"error","name":"EntitlementsService__EntitlementDoesNotExist","inputs":[]},{"type":"error","name":"EntitlementsService__ImmutableEntitlement","inputs":[]},{"type":"error","name":"EntitlementsService__InvalidEntitlementAddress","inputs":[]},{"type":"error","name":"EntitlementsService__InvalidEntitlementInterface","inputs":[]},{"type":"error","name":"MintERC2309QuantityExceedsLimit","inputs":[]},{"type":"error","name":"MintToZeroAddress","inputs":[]},{"type":"error","name":"MintZeroQuantity","inputs":[]},{"type":"error","name":"Ownable__NotOwner","inputs":[{"name":"account","type":"address","internalType":"address"}]},{"type":"error","name":"Ownable__ZeroAddress","inputs":[]},{"type":"error","name":"OwnerQueryForNonexistentToken","inputs":[]},{"type":"error","name":"OwnershipNotInitializedForExtraData","inputs":[]},{"type":"error","name":"Pausable__NotPaused","inputs":[]},{"type":"error","name":"Pausable__Paused","inputs":[]},{"type":"error","name":"TransferCallerNotOwnerNorApproved","inputs":[]},{"type":"error","name":"TransferFromIncorrectOwner","inputs":[]},{"type":"error","name":"TransferToNonERC721ReceiverImplementer","inputs":[]},{"type":"error","name":"TransferToZeroAddress","inputs":[]},{"type":"error","name":"URIQueryForNonexistentToken","inputs":[]}],"bytecode":{"object":"0x608060405234801561001057600080fd5b506118cc806100206000396000f3fe608060405234801561001057600080fd5b506004361061007d5760003560e01c8063487dc38c1161005b578063487dc38c146100d25780638bfc820f146100e7578063be24138d146100fa578063fba4ff9d1461010d57600080fd5b8063070b9c3f1461008257806320759f9e14610097578063367287e3146100bf575b600080fd5b61009561009036600461130a565b61012d565b005b6100aa6100a5366004611370565b610179565b60405190151581526020015b60405180910390f35b6100aa6100cd3660046113c5565b610190565b6100da6101a7565b6040516100b691906114ca565b6100956100f5366004611599565b6101b6565b61009561010836600461130a565b6101fa565b61012061011b36600461130a565b61023e565b6040516100b69190611638565b610135610255565b6001600160a01b0316336001600160a01b03161461016d576040516365f4906560e01b81523360048201526024015b60405180910390fd5b6101768161031f565b50565b6000610186848484610375565b90505b9392505050565b600061019e858585856103af565b95945050505050565b60606101b16103c9565b905090565b6101be610255565b6001600160a01b0316336001600160a01b0316146101f1576040516365f4906560e01b8152336004820152602401610164565b610176816104c8565b610202610255565b6001600160a01b0316336001600160a01b031614610235576040516365f4906560e01b8152336004820152602401610164565b61017681610526565b6102466112c2565b61024f82610573565b92915050565b6040805180820182527fd2f24d4f172e4e84e48e7c4125b6e904c29e5eba33ad4938fee51dd5dbd4b600546001600160a01b03168082527fd2f24d4f172e4e84e48e7c4125b6e904c29e5eba33ad4938fee51dd5dbd4b60154602080840182905284516331a9108f60e11b815260048101929092529351600094636352211e92602480820193918290030181865afa1580156102f5573d6000803e3d6000fd5b505050506040513d601f19601f82011682018060405250810190610319919061164b565b91505090565b610328816105c5565b61033381600061068e565b6040516001600160a01b038216815233907f055c4c0e6f85afe96beaac6c9d650859c001e6ef93103856624cce6ceba811b4906020015b60405180910390a250565b60006101866000801b858585604051602001610392929190611668565b6040516020818303038152906040526103aa90611678565b6107ef565b600061019e85858585604051602001610392929190611668565b606060006103d5610a8a565b9050805167ffffffffffffffff8111156103f1576103f161152e565b60405190808252806020026020018201604052801561042a57816020015b6104176112c2565b81526020019060019003908161040f5790505b50915060005b81518110156104c3576000806000806104618686815181106104545761045461169c565b6020026020010151610ab5565b93509350935093506040518060800160405280858152602001846001600160a01b031681526020018381526020018215158152508786815181106104a7576104a761169c565b6020026020010181905250505050508080600101915050610430565b505090565b60005b8151811015610522576104f68282815181106104e9576104e961169c565b60200260200101516105c5565b61051a82828151811061050b5761050b61169c565b6020026020010151600161068e565b6001016104cb565b5050565b61052f816105c5565b61053881610c4c565b6040516001600160a01b038216815233907fa8e3e13a35b592afaa9d213d12c7ea06384518ada9733585d20883cfafcf249b9060200161036a565b61057b6112c2565b610584826105c5565b60008060008061059386610ab5565b604080516080810182529485526001600160a01b03909316602085015291830152151560608201529695505050505050565b6001600160a01b0381166105ec57604051630706e15760e51b815260040160405180910390fd5b6040516301ffc9a760e01b8152637bc2cb4560e11b60048201526001600160a01b038216906301ffc9a790602401602060405180830381865afa925050508015610653575060408051601f3d908101601f19168201909252610650918101906116b2565b60015b6106705760405163f58a5f2760e01b815260040160405180910390fd5b806105225760405163f58a5f2760e01b815260040160405180910390fd5b6001600160a01b03821660009081527fa558e822bd359dacbe30f0da89cbfde5f95895b441e13a4864caec1423c93102602052604090205482906000805160206118ac83398151915290156106f657604051632406020960e01b815260040160405180910390fd5b6107036001820185610d2a565b506040518060600160405280856001600160a01b031681526020018415158152602001836001600160a01b0316632e1b61e46040518163ffffffff1660e01b8152600401602060405180830381865afa158015610764573d6000803e3d6000fd5b505050506040513d601f19601f8201168201806040525081019061078891906116b2565b151590526001600160a01b0394851660009081526020928352604090819020825181549484015193909201511515600160a81b0260ff60a81b19931515600160a01b026001600160a81b031990951692909716919091179290921716939093179092555050565b6000806107fa610255565b9050600061080785610d3f565b80519091506000610816610fc1565b805190915060005b838110156108d557600085828151811061083a5761083a61169c565b60200260200101519050866001600160a01b0316816001600160a01b03160361086d576001975050505050505050610189565b60005b838110156108cb57816001600160a01b03166108a48683815181106108975761089761169c565b6020026020010151610fec565b6001600160a01b0316036108c357600098505050505050505050610189565b600101610870565b505060010161081e565b506000805160206118ac83398151915260006109107fa558e822bd359dacbe30f0da89cbfde5f95895b441e13a4864caec1423c93101610ff7565b905060005b81811015610a78576000838161092e6001830185611001565b6001600160a01b03908116825260208083019390935260409182016000208251606081018452905491821680825260ff600160a01b84048116151583870152600160a81b9093049092161515818401528251630b86d87960e21b815292519094509092632e1b61e492600480820193918290030181865afa1580156109b7573d6000803e3d6000fd5b505050506040513d601f19601f820116820180604052508101906109db91906116b2565b158015610a58575080600001516001600160a01b0316630cf0b5338e8a8e6040518463ffffffff1660e01b8152600401610a17939291906116d4565b602060405180830381865afa158015610a34573d6000803e3d6000fd5b505050506040513d601f19601f82011682018060405250810190610a5891906116b2565b15610a6f5760019950505050505050505050610189565b50600101610915565b5060009b9a5050505050505050505050565b60606101b17fa558e822bd359dacbe30f0da89cbfde5f95895b441e13a4864caec1423c9310161100d565b6001600160a01b03811660009081527fa558e822bd359dacbe30f0da89cbfde5f95895b441e13a4864caec1423c93102602052604081205460609190829082906000805160206118ac83398151915290610b225760405163017ab33760e71b815260040160405180910390fd5b60008690506000816001600160a01b03166306fdde036040518163ffffffff1660e01b8152600401600060405180830381865afa158015610b67573d6000803e3d6000fd5b505050506040513d6000823e601f3d908101601f19168201604052610b8f9190810190611736565b6001600160a01b03808a16600090815260208690526040808220548151636465e69f60e01b815291519495508316939192861691636465e69f9160048082019286929091908290030181865afa158015610bed573d6000803e3d6000fd5b505050506040513d6000823e601f3d908101601f19168201604052610c159190810190611736565b6001600160a01b039a909a16600090815260209590955250604090932054909892979650600160a01b900460ff1694509092505050565b6001600160a01b03811660009081527fa558e822bd359dacbe30f0da89cbfde5f95895b441e13a4864caec1423c9310260205260409020546000805160206118ac83398151915290610cb15760405163017ab33760e71b815260040160405180910390fd5b6001600160a01b038216600090815260208290526040902054600160a01b900460ff1615610cf257604051636045809760e11b815260040160405180910390fd5b610cff600182018361101a565b506001600160a01b0390911660009081526020919091526040902080546001600160b01b0319169055565b6000610189836001600160a01b03841661102f565b606060007fc21004fcc619240a31f006438274d15cd813308303284436eef6055f0fdcb6006006015460405162468b7360e31b81526001600160a01b038581166004830152909116915060009082906302345b9890602401600060405180830381865afa158015610db4573d6000803e3d6000fd5b505050506040513d6000823e601f3d908101601f19168201604052610ddc91908101906117ca565b604051631f04207360e31b81526001600160a01b03868116600483015291925060009184169063f821039890602401602060405180830381865afa158015610e28573d6000803e3d6000fd5b505050506040513d601f19601f82011682018060405250810190610e4c919061164b565b905081516000148015610e6757506001600160a01b03811615155b15610ee15760405162468b7360e31b81526001600160a01b03808316600483015291955085918416906302345b9890602401600060405180830381865afa158015610eb6573d6000803e3d6000fd5b505050506040513d6000823e601f3d908101601f19168201604052610ede91908101906117ca565b91505b81516000610ef082600161186f565b67ffffffffffffffff811115610f0857610f0861152e565b604051908082528060200260200182016040528015610f31578160200160208202803683370190505b50905060005b82811015610f8b57848181518110610f5157610f5161169c565b6020026020010151828281518110610f6b57610f6b61169c565b6001600160a01b0390921660209283029190910190910152600101610f37565b5086818381518110610f9f57610f9f61169c565b6001600160a01b03909216602092830291909101909101529695505050505050565b60606101b17f49daf035076c43671ca9f9fb568d931e51ab7f9098a5a694781b45341112cf0061100d565b600061024f8261107e565b600061024f825490565b60006101898383611149565b6060600061018983611173565b6000610189836001600160a01b0384166111cf565b60008181526001830160205260408120546110765750815460018181018455600084815260208082209093018490558454848252828601909352604090209190915561024f565b50600061024f565b60008181527f6569bde4a160c636ea8b8d11acb83a60d7fec0b8f2e09389306cba0e1340df046020526040812054907f6569bde4a160c636ea8b8d11acb83a60d7fec0b8f2e09389306cba0e1340df0090600160e01b8316900361112f5781600003611129578054831061110557604051636f96cda160e11b815260040160405180910390fd5b5b600019909201600081815260048401602052604090205490929091508115611106575b50919050565b50604051636f96cda160e11b815260040160405180910390fd5b60008260000182815481106111605761116061169c565b9060005260206000200154905092915050565b6060816000018054806020026020016040519081016040528092919081815260200182805480156111c357602002820191906000526020600020905b8154815260200190600101908083116111af575b50505050509050919050565b600081815260018301602052604081205480156112b85760006111f3600183611882565b855490915060009061120790600190611882565b905080821461126c5760008660000182815481106112275761122761169c565b906000526020600020015490508087600001848154811061124a5761124a61169c565b6000918252602080832090910192909255918252600188019052604090208390555b855486908061127d5761127d611895565b60019003818190600052602060002001600090559055856001016000868152602001908152602001600020600090556001935050505061024f565b600091505061024f565b60405180608001604052806060815260200160006001600160a01b03168152602001606081526020016000151581525090565b6001600160a01b038116811461017657600080fd5b60006020828403121561131c57600080fd5b8135610189816112f5565b60008083601f84011261133957600080fd5b50813567ffffffffffffffff81111561135157600080fd5b60208301915083602082850101111561136957600080fd5b9250929050565b60008060006040848603121561138557600080fd5b8335611390816112f5565b9250602084013567ffffffffffffffff8111156113ac57600080fd5b6113b886828701611327565b9497909650939450505050565b600080600080606085870312156113db57600080fd5b8435935060208501356113ed816112f5565b9250604085013567ffffffffffffffff81111561140957600080fd5b61141587828801611327565b95989497509550505050565b60005b8381101561143c578181015183820152602001611424565b50506000910152565b6000815180845261145d816020860160208601611421565b601f01601f19169290920160200192915050565b60008151608084526114866080850182611445565b905060018060a01b036020840151166020850152604083015184820360408601526114b18282611445565b9150506060830151151560608501528091505092915050565b600060208083016020845280855180835260408601915060408160051b87010192506020870160005b8281101561152157603f1988860301845261150f858351611471565b945092850192908501906001016114f3565b5092979650505050505050565b634e487b7160e01b600052604160045260246000fd5b604051601f8201601f1916810167ffffffffffffffff8111828210171561156d5761156d61152e565b604052919050565b600067ffffffffffffffff82111561158f5761158f61152e565b5060051b60200190565b600060208083850312156115ac57600080fd5b823567ffffffffffffffff8111156115c357600080fd5b8301601f810185136115d457600080fd5b80356115e76115e282611575565b611544565b81815260059190911b8201830190838101908783111561160657600080fd5b928401925b8284101561162d57833561161e816112f5565b8252928401929084019061160b565b979650505050505050565b6020815260006101896020830184611471565b60006020828403121561165d57600080fd5b8151610189816112f5565b8183823760009101908152919050565b805160208083015191908110156111295760001960209190910360031b1b16919050565b634e487b7160e01b600052603260045260246000fd5b6000602082840312156116c457600080fd5b8151801515811461018957600080fd5b60006060820185835260206060602085015281865180845260808601915060208801935060005b818110156117205784516001600160a01b0316835293830193918301916001016116fb565b5050809350505050826040830152949350505050565b60006020828403121561174857600080fd5b815167ffffffffffffffff8082111561176057600080fd5b818401915084601f83011261177457600080fd5b8151818111156117865761178661152e565b611799601f8201601f1916602001611544565b91508082528560208285010111156117b057600080fd5b6117c1816020840160208601611421565b50949350505050565b600060208083850312156117dd57600080fd5b825167ffffffffffffffff8111156117f457600080fd5b8301601f8101851361180557600080fd5b80516118136115e282611575565b81815260059190911b8201830190838101908783111561183257600080fd5b928401925b8284101561162d57835161184a816112f5565b82529284019290840190611837565b634e487b7160e01b600052601160045260246000fd5b8082018082111561024f5761024f611859565b8181038181111561024f5761024f611859565b634e487b7160e01b600052603160045260246000fdfea558e822bd359dacbe30f0da89cbfde5f95895b441e13a4864caec1423c93100","linkReferences":{}},"methodIdentifiers":{"addEntitlementModule(address)":"070b9c3f","addImmutableEntitlements(address[])":"8bfc820f","getEntitlement(address)":"fba4ff9d","getEntitlements()":"487dc38c","isEntitledToChannel(bytes32,address,string)":"367287e3","isEntitledToSpace(address,string)":"20759f9e","removeEntitlementModule(address)":"be24138d"},"id":193}