{"abi":[{"type":"function","name":"__ERC721A_init","inputs":[{"name":"name_","type":"string","internalType":"string"},{"name":"symbol_","type":"string","internalType":"string"}],"outputs":[],"stateMutability":"nonpayable"},{"type":"function","name":"__EntitlementGated_init","inputs":[{"name":"entitlementChecker","type":"address","internalType":"contract IEntitlementChecker"}],"outputs":[],"stateMutability":"nonpayable"},{"type":"function","name":"__Membership_init","inputs":[{"name":"info","type":"tuple","internalType":"struct IMembershipBase.Membership","components":[{"name":"name","type":"string","internalType":"string"},{"name":"symbol","type":"string","internalType":"string"},{"name":"price","type":"uint256","internalType":"uint256"},{"name":"maxSupply","type":"uint256","internalType":"uint256"},{"name":"duration","type":"uint64","internalType":"uint64"},{"name":"currency","type":"address","internalType":"address"},{"name":"feeRecipient","type":"address","internalType":"address"},{"name":"freeAllocation","type":"uint256","internalType":"uint256"},{"name":"pricingModule","type":"address","internalType":"address"}]},{"name":"spaceFactory","type":"address","internalType":"address"}],"outputs":[],"stateMutability":"nonpayable"},{"type":"function","name":"approve","inputs":[{"name":"to","type":"address","internalType":"address"},{"name":"tokenId","type":"uint256","internalType":"uint256"}],"outputs":[],"stateMutability":"payable"},{"type":"function","name":"balanceOf","inputs":[{"name":"owner","type":"address","internalType":"address"}],"outputs":[{"name":"","type":"uint256","internalType":"uint256"}],"stateMutability":"view"},{"type":"function","name":"expiresAt","inputs":[{"name":"tokenId","type":"uint256","internalType":"uint256"}],"outputs":[{"name":"","type":"uint256","internalType":"uint256"}],"stateMutability":"view"},{"type":"function","name":"getApproved","inputs":[{"name":"tokenId","type":"uint256","internalType":"uint256"}],"outputs":[{"name":"","type":"address","internalType":"address"}],"stateMutability":"view"},{"type":"function","name":"getMembershipCurrency","inputs":[],"outputs":[{"name":"","type":"address","internalType":"address"}],"stateMutability":"view"},{"type":"function","name":"getMembershipDuration","inputs":[],"outputs":[{"name":"","type":"uint64","internalType":"uint64"}],"stateMutability":"view"},{"type":"function","name":"getMembershipFreeAllocation","inputs":[],"outputs":[{"name":"","type":"uint256","internalType":"uint256"}],"stateMutability":"view"},{"type":"function","name":"getMembershipImage","inputs":[],"outputs":[{"name":"","type":"string","internalType":"string"}],"stateMutability":"view"},{"type":"function","name":"getMembershipLimit","inputs":[],"outputs":[{"name":"","type":"uint256","internalType":"uint256"}],"stateMutability":"view"},{"type":"function","name":"getMembershipPrice","inputs":[],"outputs":[{"name":"","type":"uint256","internalType":"uint256"}],"stateMutability":"view"},{"type":"function","name":"getMembershipPricingModule","inputs":[],"outputs":[{"name":"","type":"address","internalType":"address"}],"stateMutability":"view"},{"type":"function","name":"getMembershipRenewalPrice","inputs":[{"name":"tokenId","type":"uint256","internalType":"uint256"}],"outputs":[{"name":"","type":"uint256","internalType":"uint256"}],"stateMutability":"view"},{"type":"function","name":"getRuleData","inputs":[{"name":"transactionId","type":"bytes32","internalType":"bytes32"},{"name":"roleId","type":"uint256","internalType":"uint256"}],"outputs":[{"name":"","type":"tuple","internalType":"struct IRuleEntitlement.RuleData","components":[{"name":"operations","type":"tuple[]","internalType":"struct IRuleEntitlement.Operation[]","components":[{"name":"opType","type":"uint8","internalType":"enum IRuleEntitlement.CombinedOperationType"},{"name":"index","type":"uint8","internalType":"uint8"}]},{"name":"checkOperations","type":"tuple[]","internalType":"struct IRuleEntitlement.CheckOperation[]","components":[{"name":"opType","type":"uint8","internalType":"enum IRuleEntitlement.CheckOperationType"},{"name":"chainId","type":"uint256","internalType":"uint256"},{"name":"contractAddress","type":"address","internalType":"address"},{"name":"threshold","type":"uint256","internalType":"uint256"}]},{"name":"logicalOperations","type":"tuple[]","internalType":"struct IRuleEntitlement.LogicalOperation[]","components":[{"name":"logOpType","type":"uint8","internalType":"enum IRuleEntitlement.LogicalOperationType"},{"name":"leftOperationIndex","type":"uint8","internalType":"uint8"},{"name":"rightOperationIndex","type":"uint8","internalType":"uint8"}]}]}],"stateMutability":"view"},{"type":"function","name":"getSpaceFactory","inputs":[],"outputs":[{"name":"","type":"address","internalType":"address"}],"stateMutability":"view"},{"type":"function","name":"isApprovedForAll","inputs":[{"name":"owner","type":"address","internalType":"address"},{"name":"operator","type":"address","internalType":"address"}],"outputs":[{"name":"","type":"bool","internalType":"bool"}],"stateMutability":"view"},{"type":"function","name":"joinSpace","inputs":[{"name":"receiver","type":"address","internalType":"address"}],"outputs":[],"stateMutability":"payable"},{"type":"function","name":"joinSpaceWithReferral","inputs":[{"name":"receiver","type":"address","internalType":"address"},{"name":"referrer","type":"address","internalType":"address"},{"name":"referralCode","type":"uint256","internalType":"uint256"}],"outputs":[],"stateMutability":"payable"},{"type":"function","name":"name","inputs":[],"outputs":[{"name":"","type":"string","internalType":"string"}],"stateMutability":"view"},{"type":"function","name":"ownerOf","inputs":[{"name":"tokenId","type":"uint256","internalType":"uint256"}],"outputs":[{"name":"","type":"address","internalType":"address"}],"stateMutability":"view"},{"type":"function","name":"postEntitlementCheckResult","inputs":[{"name":"transactionId","type":"bytes32","internalType":"bytes32"},{"name":"roleId","type":"uint256","internalType":"uint256"},{"name":"result","type":"uint8","internalType":"enum IEntitlementGatedBase.NodeVoteStatus"}],"outputs":[],"stateMutability":"nonpayable"},{"type":"function","name":"renewMembership","inputs":[{"name":"tokenId","type":"uint256","internalType":"uint256"}],"outputs":[],"stateMutability":"payable"},{"type":"function","name":"safeTransferFrom","inputs":[{"name":"from","type":"address","internalType":"address"},{"name":"to","type":"address","internalType":"address"},{"name":"tokenId","type":"uint256","internalType":"uint256"}],"outputs":[],"stateMutability":"payable"},{"type":"function","name":"safeTransferFrom","inputs":[{"name":"from","type":"address","internalType":"address"},{"name":"to","type":"address","internalType":"address"},{"name":"tokenId","type":"uint256","internalType":"uint256"},{"name":"_data","type":"bytes","internalType":"bytes"}],"outputs":[],"stateMutability":"payable"},{"type":"function","name":"setApprovalForAll","inputs":[{"name":"operator","type":"address","internalType":"address"},{"name":"approved","type":"bool","internalType":"bool"}],"outputs":[],"stateMutability":"nonpayable"},{"type":"function","name":"setMembershipFreeAllocation","inputs":[{"name":"newAllocation","type":"uint256","internalType":"uint256"}],"outputs":[],"stateMutability":"nonpayable"},{"type":"function","name":"setMembershipImage","inputs":[{"name":"newImage","type":"string","internalType":"string"}],"outputs":[],"stateMutability":"nonpayable"},{"type":"function","name":"setMembershipLimit","inputs":[{"name":"newLimit","type":"uint256","internalType":"uint256"}],"outputs":[],"stateMutability":"nonpayable"},{"type":"function","name":"setMembershipPrice","inputs":[{"name":"newPrice","type":"uint256","internalType":"uint256"}],"outputs":[],"stateMutability":"nonpayable"},{"type":"function","name":"setMembershipPricingModule","inputs":[{"name":"pricingModule","type":"address","internalType":"address"}],"outputs":[],"stateMutability":"nonpayable"},{"type":"function","name":"symbol","inputs":[],"outputs":[{"name":"","type":"string","internalType":"string"}],"stateMutability":"view"},{"type":"function","name":"tokenURI","inputs":[{"name":"tokenId","type":"uint256","internalType":"uint256"}],"outputs":[{"name":"","type":"string","internalType":"string"}],"stateMutability":"view"},{"type":"function","name":"totalSupply","inputs":[],"outputs":[{"name":"","type":"uint256","internalType":"uint256"}],"stateMutability":"view"},{"type":"function","name":"transferFrom","inputs":[{"name":"from","type":"address","internalType":"address"},{"name":"to","type":"address","internalType":"address"},{"name":"tokenId","type":"uint256","internalType":"uint256"}],"outputs":[],"stateMutability":"payable"},{"type":"function","name":"withdraw","inputs":[{"name":"account","type":"address","internalType":"address"}],"outputs":[],"stateMutability":"nonpayable"},{"type":"event","name":"Approval","inputs":[{"name":"owner","type":"address","indexed":true,"internalType":"address"},{"name":"approved","type":"address","indexed":true,"internalType":"address"},{"name":"tokenId","type":"uint256","indexed":true,"internalType":"uint256"}],"anonymous":false},{"type":"event","name":"ApprovalForAll","inputs":[{"name":"owner","type":"address","indexed":true,"internalType":"address"},{"name":"operator","type":"address","indexed":true,"internalType":"address"},{"name":"approved","type":"bool","indexed":false,"internalType":"bool"}],"anonymous":false},{"type":"event","name":"Banned","inputs":[{"name":"moderator","type":"address","indexed":true,"internalType":"address"},{"name":"tokenId","type":"uint256","indexed":true,"internalType":"uint256"}],"anonymous":false},{"type":"event","name":"ConsecutiveTransfer","inputs":[{"name":"fromTokenId","type":"uint256","indexed":true,"internalType":"uint256"},{"name":"toTokenId","type":"uint256","indexed":false,"internalType":"uint256"},{"name":"from","type":"address","indexed":true,"internalType":"address"},{"name":"to","type":"address","indexed":true,"internalType":"address"}],"anonymous":false},{"type":"event","name":"EntitlementCheckResultPosted","inputs":[{"name":"transactionId","type":"bytes32","indexed":true,"internalType":"bytes32"},{"name":"result","type":"uint8","indexed":false,"internalType":"enum IEntitlementGatedBase.NodeVoteStatus"}],"anonymous":false},{"type":"event","name":"Initialized","inputs":[{"name":"version","type":"uint32","indexed":false,"internalType":"uint32"}],"anonymous":false},{"type":"event","name":"InterfaceAdded","inputs":[{"name":"interfaceId","type":"bytes4","indexed":true,"internalType":"bytes4"}],"anonymous":false},{"type":"event","name":"InterfaceRemoved","inputs":[{"name":"interfaceId","type":"bytes4","indexed":true,"internalType":"bytes4"}],"anonymous":false},{"type":"event","name":"MembershipCurrencyUpdated","inputs":[{"name":"currency","type":"address","indexed":true,"internalType":"address"}],"anonymous":false},{"type":"event","name":"MembershipFeeRecipientUpdated","inputs":[{"name":"recipient","type":"address","indexed":true,"internalType":"address"}],"anonymous":false},{"type":"event","name":"MembershipFreeAllocationUpdated","inputs":[{"name":"allocation","type":"uint256","indexed":true,"internalType":"uint256"}],"anonymous":false},{"type":"event","name":"MembershipLimitUpdated","inputs":[{"name":"limit","type":"uint256","indexed":true,"internalType":"uint256"}],"anonymous":false},{"type":"event","name":"MembershipPriceUpdated","inputs":[{"name":"price","type":"uint256","indexed":true,"internalType":"uint256"}],"anonymous":false},{"type":"event","name":"MembershipTokenIssued","inputs":[{"name":"recipient","type":"address","indexed":true,"internalType":"address"},{"name":"tokenId","type":"uint256","indexed":true,"internalType":"uint256"}],"anonymous":false},{"type":"event","name":"MembershipTokenRejected","inputs":[{"name":"recipient","type":"address","indexed":true,"internalType":"address"}],"anonymous":false},{"type":"event","name":"MembershipWithdrawal","inputs":[{"name":"recipient","type":"address","indexed":true,"internalType":"address"},{"name":"amount","type":"uint256","indexed":false,"internalType":"uint256"}],"anonymous":false},{"type":"event","name":"Membership__ReferralCreated","inputs":[{"name":"code","type":"uint256","indexed":true,"internalType":"uint256"},{"name":"bps","type":"uint16","indexed":false,"internalType":"uint16"}],"anonymous":false},{"type":"event","name":"Membership__ReferralRemoved","inputs":[{"name":"code","type":"uint256","indexed":true,"internalType":"uint256"}],"anonymous":false},{"type":"event","name":"Membership__ReferralTimeCreated","inputs":[{"name":"code","type":"uint256","indexed":true,"internalType":"uint256"},{"name":"bps","type":"uint16","indexed":false,"internalType":"uint16"},{"name":"startTime","type":"uint256","indexed":false,"internalType":"uint256"},{"name":"endTime","type":"uint256","indexed":false,"internalType":"uint256"}],"anonymous":false},{"type":"event","name":"OwnershipTransferred","inputs":[{"name":"previousOwner","type":"address","indexed":true,"internalType":"address"},{"name":"newOwner","type":"address","indexed":true,"internalType":"address"}],"anonymous":false},{"type":"event","name":"Paused","inputs":[{"name":"account","type":"address","indexed":false,"internalType":"address"}],"anonymous":false},{"type":"event","name":"Prepay__Prepaid","inputs":[{"name":"supply","type":"uint256","indexed":false,"internalType":"uint256"}],"anonymous":false},{"type":"event","name":"RoleCreated","inputs":[{"name":"creator","type":"address","indexed":true,"internalType":"address"},{"name":"roleId","type":"uint256","indexed":true,"internalType":"uint256"}],"anonymous":false},{"type":"event","name":"RoleRemoved","inputs":[{"name":"remover","type":"address","indexed":true,"internalType":"address"},{"name":"roleId","type":"uint256","indexed":true,"internalType":"uint256"}],"anonymous":false},{"type":"event","name":"RoleUpdated","inputs":[{"name":"updater","type":"address","indexed":true,"internalType":"address"},{"name":"roleId","type":"uint256","indexed":true,"internalType":"uint256"}],"anonymous":false},{"type":"event","name":"SubscriptionUpdate","inputs":[{"name":"tokenId","type":"uint256","indexed":true,"internalType":"uint256"},{"name":"expiration","type":"uint64","indexed":false,"internalType":"uint64"}],"anonymous":false},{"type":"event","name":"Transfer","inputs":[{"name":"from","type":"address","indexed":true,"internalType":"address"},{"name":"to","type":"address","indexed":true,"internalType":"address"},{"name":"tokenId","type":"uint256","indexed":true,"internalType":"uint256"}],"anonymous":false},{"type":"event","name":"Unbanned","inputs":[{"name":"moderator","type":"address","indexed":true,"internalType":"address"},{"name":"tokenId","type":"uint256","indexed":true,"internalType":"uint256"}],"anonymous":false},{"type":"event","name":"Unpaused","inputs":[{"name":"account","type":"address","indexed":false,"internalType":"address"}],"anonymous":false},{"type":"error","name":"AddressEmptyCode","inputs":[{"name":"target","type":"address","internalType":"address"}]},{"type":"error","name":"AddressInsufficientBalance","inputs":[{"name":"account","type":"address","internalType":"address"}]},{"type":"error","name":"ApprovalCallerNotOwnerNorApproved","inputs":[]},{"type":"error","name":"ApprovalQueryForNonexistentToken","inputs":[]},{"type":"error","name":"BalanceQueryForZeroAddress","inputs":[]},{"type":"error","name":"Banning__AlreadyBanned","inputs":[{"name":"tokenId","type":"uint256","internalType":"uint256"}]},{"type":"error","name":"Banning__CannotBanOwner","inputs":[]},{"type":"error","name":"Banning__CannotBanSelf","inputs":[]},{"type":"error","name":"Banning__InvalidTokenId","inputs":[{"name":"tokenId","type":"uint256","internalType":"uint256"}]},{"type":"error","name":"Banning__NotBanned","inputs":[{"name":"tokenId","type":"uint256","internalType":"uint256"}]},{"type":"error","name":"Dispatcher__InvalidCaller","inputs":[]},{"type":"error","name":"Dispatcher__InvalidValue","inputs":[]},{"type":"error","name":"ERC5643__DurationZero","inputs":[]},{"type":"error","name":"ERC5643__InvalidTokenId","inputs":[{"name":"tokenId","type":"uint256","internalType":"uint256"}]},{"type":"error","name":"ERC5643__NotApprovedOrOwner","inputs":[]},{"type":"error","name":"ERC5643__SubscriptionNotRenewable","inputs":[{"name":"tokenId","type":"uint256","internalType":"uint256"}]},{"type":"error","name":"EntitlementGated_InvalidAddress","inputs":[]},{"type":"error","name":"EntitlementGated_NodeAlreadyVoted","inputs":[]},{"type":"error","name":"EntitlementGated_NodeNotFound","inputs":[]},{"type":"error","name":"EntitlementGated_TransactionCheckAlreadyCompleted","inputs":[]},{"type":"error","name":"EntitlementGated_TransactionCheckAlreadyRegistered","inputs":[]},{"type":"error","name":"EntitlementGated_TransactionNotRegistered","inputs":[]},{"type":"error","name":"Entitlement__InvalidValue","inputs":[]},{"type":"error","name":"Entitlement__NotAllowed","inputs":[]},{"type":"error","name":"Entitlement__NotMember","inputs":[]},{"type":"error","name":"Entitlement__ValueAlreadyExists","inputs":[]},{"type":"error","name":"FailedInnerCall","inputs":[]},{"type":"error","name":"Initializable_InInitializingState","inputs":[]},{"type":"error","name":"Initializable_NotInInitializingState","inputs":[]},{"type":"error","name":"Introspection_AlreadySupported","inputs":[]},{"type":"error","name":"Introspection_NotSupported","inputs":[]},{"type":"error","name":"Membership__AlreadyMember","inputs":[]},{"type":"error","name":"Membership__InsufficientAllowance","inputs":[]},{"type":"error","name":"Membership__InsufficientPayment","inputs":[]},{"type":"error","name":"Membership__InvalidAddress","inputs":[]},{"type":"error","name":"Membership__InvalidCurrency","inputs":[]},{"type":"error","name":"Membership__InvalidDuration","inputs":[]},{"type":"error","name":"Membership__InvalidFeeRecipient","inputs":[]},{"type":"error","name":"Membership__InvalidFreeAllocation","inputs":[]},{"type":"error","name":"Membership__InvalidLimit","inputs":[]},{"type":"error","name":"Membership__InvalidMaxSupply","inputs":[]},{"type":"error","name":"Membership__InvalidPrice","inputs":[]},{"type":"error","name":"Membership__InvalidPricingModule","inputs":[]},{"type":"error","name":"Membership__InvalidReferralBps","inputs":[]},{"type":"error","name":"Membership__InvalidReferralCode","inputs":[]},{"type":"error","name":"Membership__InvalidReferralTime","inputs":[]},{"type":"error","name":"Membership__InvalidTokenId","inputs":[]},{"type":"error","name":"Membership__MaxSupplyReached","inputs":[]},{"type":"error","name":"Membership__NotExpired","inputs":[]},{"type":"error","name":"Membership__PriceTooLow","inputs":[]},{"type":"error","name":"MintERC2309QuantityExceedsLimit","inputs":[]},{"type":"error","name":"MintToZeroAddress","inputs":[]},{"type":"error","name":"MintZeroQuantity","inputs":[]},{"type":"error","name":"Ownable__NotOwner","inputs":[{"name":"account","type":"address","internalType":"address"}]},{"type":"error","name":"Ownable__ZeroAddress","inputs":[]},{"type":"error","name":"OwnerQueryForNonexistentToken","inputs":[]},{"type":"error","name":"OwnershipNotInitializedForExtraData","inputs":[]},{"type":"error","name":"Pausable__NotPaused","inputs":[]},{"type":"error","name":"Pausable__Paused","inputs":[]},{"type":"error","name":"Prepay__InvalidAddress","inputs":[]},{"type":"error","name":"Prepay__InvalidAmount","inputs":[]},{"type":"error","name":"Prepay__InvalidMembership","inputs":[]},{"type":"error","name":"Prepay__InvalidSupplyAmount","inputs":[]},{"type":"error","name":"ReentrancyGuard__ReentrantCall","inputs":[]},{"type":"error","name":"Roles__EntitlementAlreadyExists","inputs":[]},{"type":"error","name":"Roles__EntitlementDoesNotExist","inputs":[]},{"type":"error","name":"Roles__InvalidEntitlementAddress","inputs":[]},{"type":"error","name":"Roles__InvalidPermission","inputs":[]},{"type":"error","name":"Roles__PermissionAlreadyExists","inputs":[]},{"type":"error","name":"Roles__PermissionDoesNotExist","inputs":[]},{"type":"error","name":"Roles__RoleDoesNotExist","inputs":[]},{"type":"error","name":"SafeERC20FailedOperation","inputs":[{"name":"token","type":"address","internalType":"address"}]},{"type":"error","name":"TransferCallerNotOwnerNorApproved","inputs":[]},{"type":"error","name":"TransferFromIncorrectOwner","inputs":[]},{"type":"error","name":"TransferToNonERC721ReceiverImplementer","inputs":[]},{"type":"error","name":"TransferToZeroAddress","inputs":[]},{"type":"error","name":"URIQueryForNonexistentToken","inputs":[]}],"bytecode":{"object":"0x60806040523480156200001157600080fd5b506200001c62000022565b620000ca565b7f59b501c3653afc186af7d48dda36cf6732bd21629a6295693664240a6ef520008054640100000000900460ff16156200006f576040516366008a2d60e01b815260040160405180910390fd5b805463ffffffff9081161015620000c757805463ffffffff191663ffffffff90811782556040519081527fe9c9b456cb2994b80aeef036cf59d26e9617df80f816a6ee5a5b4166e07e2f5c9060200160405180910390a15b50565b6153d280620000da6000396000f3fe60806040526004361061021a5760003560e01c806370a082311161012357806395d89b41116100ab578063c9f7c8331161006f578063c9f7c833146105fb578063d2f01f191461060e578063df9a9fe61461062e578063e847abdd1461064e578063e985e9c51461066357600080fd5b806395d89b411461057357806397fb7c1e14610588578063a22cb465146105a8578063b88d4fde146105c8578063c87b56dd146105db57600080fd5b80638120f0ba116100f25780638120f0ba146104dc5780638c625b061461050957806392c399ff1461051c57806393b13cb71461054957806395d600c81461055e57600080fd5b806370a082311461047457806379dda585146104945780637adc9cbe146104a95780637c9669ac146104c957600080fd5b80634739e805116101a65780635becd24a116101755780635becd24a146103ea5780636352211e1461040a578063657e45e81461042a57806369d5f38a1461043f578063706b8e091461045f57600080fd5b80634739e8051461036a5780634c2abfbe1461038a57806351cff8d9146103aa5780635803909f146103ca57600080fd5b80631278076a116101ed5780631278076a146102b757806317c95709146102da57806318160ddd1461032f57806323b872dd1461034457806342842e0e1461035757600080fd5b806306fdde031461021f578063081812fc1461024a578063095ea7b3146102825780630ef1be5f14610297575b600080fd5b34801561022b57600080fd5b50610234610693565b6040516102419190614452565b60405180910390f35b34801561025657600080fd5b5061026a610265366004614465565b61072e565b6040516001600160a01b039091168152602001610241565b6102956102903660046144a3565b61073f565b005b3480156102a357600080fd5b506102956102b23660046144cf565b61074f565b3480156102c357600080fd5b506102cc6107ce565b604051908152602001610241565b3480156102e657600080fd5b506102cc6102f5366004614465565b60009081527f4775a23600034fdd9f073b224f794d51a58b35ba663a9602623ba7a5c09cce0060205260409020546001600160401b031690565b34801561033b57600080fd5b506102cc6107e5565b610295610352366004614540565b6107ef565b610295610365366004614540565b6109e6565b34801561037657600080fd5b5061029561038536600461458e565b610a06565b34801561039657600080fd5b506102956103a5366004614733565b610a6f565b3480156103b657600080fd5b506102956103c536600461483c565b610ad3565b3480156103d657600080fd5b506102cc6103e5366004614465565b610b75565b3480156103f657600080fd5b50610295610405366004614465565b610b88565b34801561041657600080fd5b5061026a610425366004614465565b610c0d565b34801561043657600080fd5b5061026a610c18565b34801561044b57600080fd5b5061029561045a366004614465565b610c22565b34801561046b57600080fd5b506102cc610cd0565b34801561048057600080fd5b506102cc61048f36600461483c565b610cda565b3480156104a057600080fd5b5061026a610ce5565b3480156104b557600080fd5b506102956104c436600461483c565b610cef565b6102956104d7366004614465565b610d33565b3480156104e857600080fd5b506104f1610e90565b6040516001600160401b039091168152602001610241565b61029561051736600461483c565b610e9a565b34801561052857600080fd5b5061053c610537366004614859565b6112a9565b604051610241919061496c565b34801561055557600080fd5b506102346112de565b34801561056a57600080fd5b506102cc6112e8565b34801561057f57600080fd5b506102346112f2565b34801561059457600080fd5b506102956105a3366004614465565b61130a565b3480156105b457600080fd5b506102956105c3366004614a13565b61135f565b6102956105d6366004614a4c565b6113dc565b3480156105e757600080fd5b506102346105f6366004614465565b611426565b610295610609366004614540565b6114b6565b34801561061a57600080fd5b50610295610629366004614acb565b6115d0565b34801561063a57600080fd5b5061029561064936600461483c565b611612565b34801561065a57600080fd5b5061026a61165f565b34801561066f57600080fd5b5061068361067e366004614b2e565b611669565b6040519015158152602001610241565b606061069d611675565b60020180546106ab90614b5c565b80601f01602080910402602001604051908101604052809291908181526020018280546106d790614b5c565b80156107245780601f106106f957610100808354040283529160200191610724565b820191906000526020600020905b81548152906001019060200180831161070757829003601f168201915b5050505050905090565b600061073982611699565b92915050565b61074b828260016116e6565b5050565b61075761179b565b6001600160a01b0316336001600160a01b03161461078f576040516365f4906560e01b81523360048201526024015b60405180910390fd5b61074b82828080601f01602080910402602001604051908101604052809392919081815260200183838082843760009201919091525061186592505050565b60006107e06107db61187c565b61189b565b905090565b60006107e061187c565b60006107fa8261199b565b9050836001600160a01b0316816001600160a01b03161461082d5760405162a1148160e81b815260040160405180910390fd5b60008061083984611a36565b9150915061085e81876108493390565b6001600160a01b039081169116811491141790565b6108895761086c8633611669565b61088957604051632ce44b5f60e11b815260040160405180910390fd5b6001600160a01b0385166108b057604051633a954ecd60e21b815260040160405180910390fd5b80156108bb57600082555b6108c3611675565b6001600160a01b03871660009081526005919091016020526040902080546000190190556108ef611675565b6001600160a01b03861660008181526005929092016020526040909120805460010190554260a01b17600160e11b17610926611675565b60008681526004919091016020526040812091909155600160e11b8416900361099c5760018401610955611675565b60008281526004919091016020526040812054900361099a57610976611675565b54811461099a5783610986611675565b600083815260049190910160205260409020555b505b83856001600160a01b0316876001600160a01b03167fddf252ad1be2c89b69c2b068fc378daa952ba7f163c4a11628f55a4df523b3ef60405160405180910390a45b505050505050565b610a01838383604051806020016040528060008152506113dc565b505050565b60026000805160206153328339815191525403610a3657604051635db5c7cd60e11b815260040160405180910390fd5b610a4d600260008051602061533283398151915255565b610a58838383611a5e565b610a01600160008051602061533283398151915255565b60008051602061539283398151915254640100000000900460ff16610aa757604051630ef4733760e31b815260040160405180910390fd5b610ab763421fb7a760e01b611d01565b610ac18282611ddf565b61074b82600001518360200151611f02565b610adb61179b565b6001600160a01b0316336001600160a01b031614610b0e576040516365f4906560e01b8152336004820152602401610786565b6001600160a01b038116610b3557604051635fbd571760e01b815260040160405180910390fd5b6000610b3f611f64565b905080600003610b6257604051635894b54560e11b815260040160405180910390fd5b61074b610b6d611f77565b308484611f93565b600061073982610b8361187c565b611fd9565b610b9061179b565b6001600160a01b0316336001600160a01b031614610bc3576040516365f4906560e01b8152336004820152602401610786565b6000610bcd61201f565b90508015801590610bdd57508082115b15610bfb5760405163c3983b9160e01b815260040160405180910390fd5b610c0482612032565b61074b826120d7565b60006107398261199b565b60006107e0611f77565b610c2a61179b565b6001600160a01b0316336001600160a01b031614610c5d576040516365f4906560e01b8152336004820152602401610786565b610c668161211a565b610c6e6121a8565b6001600160a01b03166391b7f5ed826040518263ffffffff1660e01b8152600401610c9b91815260200190565b600060405180830381600087803b158015610cb557600080fd5b505af1158015610cc9573d6000803e3d6000fd5b5050505050565b60006107e06121c4565b600061073982612263565b60006107e06122cb565b60008051602061539283398151915254640100000000900460ff16610d2757604051630ef4733760e31b815260040160405180910390fd5b610d30816122e7565b50565b60026000805160206153328339815191525403610d6357604051635db5c7cd60e11b815260040160405180910390fd5b610d7a600260008051602061533283398151915255565b6000610d8582610c0d565b90506001600160a01b038116610dae57604051635fbd571760e01b815260040160405180910390fd5b60008281527f4775a23600034fdd9f073b224f794d51a58b35ba663a9602623ba7a5c09cce0060205260409020546001600160401b0316610ded612322565b6001600160401b0316610e004283614ba6565b10610e1e5760405163dce9a1d360e01b815260040160405180910390fd5b6000610e2c84610b8361187c565b90508015610e65576000610e4084836123a8565b90506000610e4e8284614ba6565b90508015610e6257610e6085826124c0565b505b50505b610e7684610e71612322565b61265e565b505050610d30600160008051602061533283398151915255565b60006107e0612322565b60026000805160206153328339815191525403610eca57604051635db5c7cd60e11b815260040160405180910390fd5b610ee1600260008051602061533283398151915255565b610eea81612727565b60405133606081901b6bffffffffffffffffffffffff19166020830152436034830152906000906054016040516020818303038152906040528051906020012090506000610fac82610f808486610f4087612790565b604080516020808201959095526001600160a01b039390931683820152606080840192909252805180840390920182526080909201909152805191012090565b604080516020808201949094528082019290925280518083038201815260609092019052805191012090565b9050610fee818486604051602001610fda9291906001600160a01b0392831681529116602082015260400190565b6040516020818303038152906040526127c5565b3415610ffe57610ffe813461280c565b600061102a604051806040016040528060098152602001684a6f696e537061636560b81b815250612892565b9050600080600061103a33612adc565b845190915060005b8181101561121a57600086828151811061105e5761105e614bb9565b6020026020010151905080604001516112115760005b81608001515181101561120f5760008260800151828151811061109957611099614bb9565b60200260200101519050806001600160a01b0316632e1b61e46040518163ffffffff1660e01b8152600401602060405180830381865afa1580156110e1573d6000803e3d6000fd5b505050506040513d601f19601f820116820180604052508101906111059190614bcf565b6111ee57806001600160a01b0316630cf0b5336000801b88604051806040016040528060098152602001684a6f696e537061636560b81b81525060405160200161114f9190614bec565b60405160208183030381529060405261116790614c08565b6040518463ffffffff1660e01b815260040161118593929190614c66565b602060405180830381865afa1580156111a2573d6000803e3d6000fd5b505050506040513d601f19601f820116820180604052508101906111c69190614bcf565b156111e5576111d48a612d44565b505050505050505050505050611292565b60019650611206565b6111fd8a828560000151612ee8565b60009650600197505b50600101611074565b505b50600101611042565b50831580156112265750825b156112895761124486604051806020016040528060008152506127c5565b3415611254576112548634613197565b6040516001600160a01b038a16907f86fd446d5c04e892d58b448a924dcd9c3ece3a5e0d2960b8c35cd475a5595a1f90600090a25b50505050505050505b610d30600160008051602061533283398151915255565b6112cd60405180606001604052806060815260200160608152602001606081525090565b6112d783836131d2565b9392505050565b60606107e06132cc565b60006107e061201f565b60606112fc611675565b60030180546106ab90614b5c565b61131261179b565b6001600160a01b0316336001600160a01b031614611345576040516365f4906560e01b8152336004820152602401610786565b6113568161135161187c565b6132e4565b610d3081613305565b80611368611675565b336000818152600792909201602090815260408084206001600160a01b03881680865290835293819020805460ff19169515159590951790945592518415158152919290917f17307eab39ab6107e8899845ad3d59bd9653f200f220920489ca2b5937696c31910160405180910390a35050565b6113e78484846107ef565b6001600160a01b0383163b156114205761140384848484613315565b611420576040516368d2bf6b60e11b815260040160405180910390fd5b50505050565b606061143182613400565b61144e57604051630a14c4b560e41b815260040160405180910390fd5b600061146560408051602081019091526000815290565b9050805160000361148557604051806020016040528060008152506112d7565b8061148f8461343c565b6040516020016114a0929190614c8f565b6040516020818303038152906040529392505050565b600260008051602061533283398151915254036114e657604051635db5c7cd60e11b815260040160405180910390fd5b6114fd600260008051602061533283398151915255565b61150683612727565b6000611510613480565b9050600061151f6107db61187c565b905080156115a0576115318282613490565b600061153d86836123a8565b9050600061154b8284614ba6565b90506000611557611f77565b9050811561159c57600061156b83886134b0565b9050611579828a8a84611f93565b60006115858285614ba6565b90508015611599576115978a826124c0565b505b50505b5050505b6115ab856001613563565b6115b782610e71612322565b5050610a01600160008051602061533283398151915255565b60008051602061539283398151915254640100000000900460ff1661160857604051630ef4733760e31b815260040160405180910390fd5b61074b8282611f02565b61161a61179b565b6001600160a01b0316336001600160a01b03161461164d576040516365f4906560e01b8152336004820152602401610786565b6116568161357d565b610d3081613635565b60006107e06121a8565b60006112d78383613662565b7f6569bde4a160c636ea8b8d11acb83a60d7fec0b8f2e09389306cba0e1340df0090565b60006116a482613400565b6116c1576040516333d1c03960e21b815260040160405180910390fd5b6116c9611675565b60009283526006016020525060409020546001600160a01b031690565b60006116f183610c0d565b9050811561173057336001600160a01b03821614611730576117138133613662565b611730576040516367d9dca160e11b815260040160405180910390fd5b83611739611675565b6000858152600691909101602052604080822080546001600160a01b0319166001600160a01b0394851617905551859287811692908516917f8c5be1e5ebec7d5bd14f71427d1e84f3dd0314c0f7b2291e5b200ac8c7c3b9259190a450505050565b6040805180820182527fd2f24d4f172e4e84e48e7c4125b6e904c29e5eba33ad4938fee51dd5dbd4b600546001600160a01b03168082527fd2f24d4f172e4e84e48e7c4125b6e904c29e5eba33ad4938fee51dd5dbd4b60154602080840182905284516331a9108f60e11b815260048101929092529351600094636352211e92602480820193918290030181865afa15801561183b573d6000803e3d6000fd5b505050506040513d601f19601f8201168201806040525081019061185f9190614cbe565b91505090565b8061186e61369f565b600c019061074b9082614d23565b600080611887611675565b60010154611893611675565b540303919050565b6000806118a661369f565b905060006118b26121c4565b60088301549091506001600160a01b031615611946576008820154604051635cf4ee9160e01b815260048101839052602481018690526001600160a01b0390911690635cf4ee9190604401602060405180830381865afa15801561191a573d6000803e3d6000fd5b505050506040513d601f19601f8201168201806040525081019061193e9190614de2565b949350505050565b8160060160009054906101000a90046001600160a01b03166001600160a01b0316631b159e2e6040518163ffffffff1660e01b8152600401602060405180830381865afa15801561191a573d6000803e3d6000fd5b6000806119a6611675565b60008481526004820160205260408120549350909150600160e01b83169003611a1c5781600003611a1657805483106119f257604051636f96cda160e11b815260040160405180910390fd5b5b6000199092016000818152600484016020526040902054909290915081156119f3575b50919050565b50604051636f96cda160e11b815260040160405180910390fd5b6000806000611a43611675565b60009485526006016020525050604090912080549092909150565b60008381526000805160206153128339815191526020526040902080546000805160206152f2833981519152919061010090046001600160a01b03161580611aa85750805460ff16155b15611ac657604051637ad5a43960e11b815260040160405180910390fd5b600084815260028201602052604090205460ff1615611af857604051637912b73960e01b815260040160405180910390fd5b600084815260018201602052604081205481908190815b81811015611c365760008981526001870160205260408120805483908110611b3957611b39614bb9565b60009182526020909120018054909150336001600160a01b0390911603611bc55760008154600160a01b900460ff166002811115611b7957611b7961487b565b14611b97576040516347592a4d60e01b815260040160405180910390fd5b80548990829060ff60a01b1916600160a01b836002811115611bbb57611bbb61487b565b0217905550600195505b60018154600160a01b900460ff166002811115611be457611be461487b565b03611bfb5784611bf381614dfb565b955050611c2d565b60028154600160a01b900460ff166002811115611c1a57611c1a61487b565b03611c2d5783611c2981614dfb565b9450505b50600101611b0f565b5083611c5557604051638223a7e960e01b815260040160405180910390fd5b611c60600282614e14565b831180611c765750611c73600282614e14565b82115b15611cf65760008881526002860160205260408120805460ff19166001179055828411611ca4576002611ca7565b60015b9050611cb38a826136c3565b897fb9d6ce397e562841871d119aaf77469c60a3b5bf8b99a5d9851656015015c63382604051611ce39190614e36565b60405180910390a2611cf48a613765565b505b505050505050505050565b6001600160e01b0319811660009081527f81088bbc801e045ea3e7620779ab349988f58afbdfba10dff983df3f33522b00602052604090205460ff161515600114611d8e576001600160e01b0319811660009081527f81088bbc801e045ea3e7620779ab349988f58afbdfba10dff983df3f33522b0060205260409020805460ff19166001179055611da7565b604051637967f77d60e11b815260040160405180910390fd5b6040516001600160e01b03198216907f78f84e5b1c5c05be2b5ad3800781dd404d6d6c6302bc755c0fe20f58a33a7f2290600090a250565b6000611de961369f565b6006810180546001600160a01b038086166001600160a01b031992831617909255610100860151600884018054919093169082161790915560048201805490911673eeeeeeeeeeeeeeeeeeeeeeeeeeeeeeeeeeeeeeee1790556060840151600382015560e08401516007820181905590915015611e6d57611e6d8360e00151612032565b611e7b83610100015161357d565b604083015115610a0157611e92836040015161211a565b600881015460408085015190516391b7f5ed60e01b81526001600160a01b03909216916391b7f5ed91611ecb9160040190815260200190565b600060405180830381600087803b158015611ee557600080fd5b505af1158015611ef9573d6000803e3d6000fd5b50505050505050565b60008051602061539283398151915254640100000000900460ff16611f3a57604051630ef4733760e31b815260040160405180910390fd5b611f4a6380ac58cd60e01b611d01565b611f5a635b5e139f60e01b611d01565b61074b8282613832565b6000611f6e61369f565b600a0154905090565b6000611f8161369f565b600401546001600160a01b0316919050565b80156114205773eeeeeeeeeeeeeeeeeeeeeeeeeeeeeeeeeeeeeeed196001600160a01b03851601611fcd57611fc88282613864565b611420565b61142084848484613907565b600080611fe461369f565b600085815260098201602052604090205490915015612016576000848152600990910160205260409020549050610739565b61193e8361189b565b600061202961369f565b60030154905090565b600061203c61369f565b90508060060160009054906101000a90046001600160a01b03166001600160a01b0316632cbb9d136040518163ffffffff1660e01b8152600401602060405180830381865afa158015612093573d6000803e3d6000fd5b505050506040513d601f19601f820116820180604052508101906120b79190614de2565b82111561074b5760405163c3983b9160e01b815260040160405180910390fd5b60006120e161369f565b6007810183905560405190915082907fab14a23e88fb272313490d4f20d63098e64fd38304c0e07a377db98c2b39b92f90600090a25050565b60006121246122cb565b6001600160a01b0316631b159e2e6040518163ffffffff1660e01b8152600401602060405180830381865afa158015612161573d6000803e3d6000fd5b505050506040513d601f19601f820116820180604052508101906121859190614de2565b90508082101561074b57604051631a23d64760e11b815260040160405180910390fd5b60006121b261369f565b600801546001600160a01b0316919050565b6000806121cf61369f565b600781015490915080156121e35792915050565b8160060160009054906101000a90046001600160a01b03166001600160a01b0316632cbb9d136040518163ffffffff1660e01b8152600401602060405180830381865afa158015612238573d6000803e3d6000fd5b505050506040513d601f19601f8201168201806040525081019061225c9190614de2565b9250505090565b60006001600160a01b03821661228c576040516323d3ad8160e21b815260040160405180910390fd5b6001600160401b0361229c611675565b6005016000846001600160a01b03166001600160a01b0316815260200190815260200160002054169050919050565b60006122d561369f565b600601546001600160a01b0316919050565b6122f7636afd38fd60e11b611d01565b6000805160206152f283398151915280546001600160a01b0319166001600160a01b03831617905550565b60008061232d61369f565b90508060060160009054906101000a90046001600160a01b03166001600160a01b0316638120f0ba6040518163ffffffff1660e01b8152600401602060405180830381865afa158015612384573d6000803e3d6000fd5b505050506040513d601f19601f8201168201806040525081019061185f9190614e49565b6000806123b361369f565b6006810154600480830154604080516301332c8360e61b815290519495506001600160a01b039384169493909116926000928592634ccb20c092818301926020928290030181865afa15801561240d573d6000803e3d6000fd5b505050506040513d601f19601f820116820180604052508101906124319190614cbe565b90506000836001600160a01b0316639f6542aa6040518163ffffffff1660e01b8152600401602060405180830381865afa158015612473573d6000803e3d6000fd5b505050506040513d601f19601f820116820180604052508101906124979190614e66565b90506124a7878261ffff1661395a565b95506124b583898489611f93565b505050505092915050565b6000806124cb61369f565b905060006124d7611f77565b905073eeeeeeeeeeeeeeeeeeeeeeeeeeeeeeeeeeeeeeed196001600160a01b03821601612522578382600a0160008282546125129190614e8a565b9091555084935061073992505050565b6040516370a0823160e01b815230600482015281906000906001600160a01b038316906370a0823190602401602060405180830381865afa15801561256b573d6000803e3d6000fd5b505050506040513d601f19601f8201168201806040525081019061258f9190614de2565b905061259d83883089611f93565b6040516370a0823160e01b81523060048201526000906001600160a01b038416906370a0823190602401602060405180830381865afa1580156125e4573d6000803e3d6000fd5b505050506040513d601f19601f820116820180604052508101906126089190614de2565b905060006126168383614ba6565b905087811461263857604051635894b54560e11b815260040160405180910390fd5b8086600a01600082825461264c9190614e8a565b90915550909998505050505050505050565b60008281527f4775a23600034fdd9f073b224f794d51a58b35ba663a9602623ba7a5c09cce006020819052604082205490916001600160401b03909116908181036126b4576126ad8442614e9d565b90506126c1565b6126be8483614e9d565b90505b60008581526020848152604091829020805467ffffffffffffffff19166001600160401b038516908117909155915191825286917f2ec2be2c4b90c2cf13ecb6751a24daed6bb741ae5ed3f7371aabf9402f6d62e8910160405180910390a25050505050565b6001600160a01b03811661274e57604051635fbd571760e01b815260040160405180910390fd5b61275661201f565b15801590612772575061276761201f565b61276f61187c565b10155b15610d3057604051637efcdb4960e01b815260040160405180910390fd5b6000818152600080516020615352833981519152602081905260408220805490836127ba83614dfb565b909155509392505050565b60008281527f34516f6fe09a043d57f1ff579a303a7ae85314751c77b4eb1a55837604a86e0260205260409020600080516020615352833981519152906114208382614d23565b8060000361282d5760405163acdc0d4960e01b815260040160405180910390fd5b80341461284d5760405163acdc0d4960e01b815260040160405180910390fd5b60008281526000805160206153b283398151915260205260408120805460008051602061535283398151915292849291612888908490614e8a565b9091555050505050565b6060600061289e6139cf565b80519091506000816001600160401b038111156128bd576128bd6145c7565b6040519080825280602002602001820160405280156128e6578160200160208202803683370190505b5085516020870120909150600090815b848110156129b557600061292287838151811061291557612915614bb9565b60200260200101516139fa565b509250505060005b81518110156129ab578382828151811061294657612946614bb9565b602002602001015180519060200120036129a35787838151811061296c5761296c614bb9565b602002602001015186868151811061298657612986614bb9565b60209081029190910101528461299b81614dfb565b9550506129ab565b60010161292a565b50506001016128f6565b506000826001600160401b038111156129d0576129d06145c7565b604051908082528060200260200182016040528015612a3557816020015b612a226040518060a00160405280600081526020016060815260200160001515815260200160608152602001606081525090565b8152602001906001900390816129ee5790505b50905060005b83811015612ad0576000858281518110612a5757612a57614bb9565b60200260200101519050600080600080612a70856139fa565b93509350935093506040518060a00160405280868152602001858152602001841515815260200183815260200182815250878781518110612ab357612ab3614bb9565b602002602001018190525050505050508080600101915050612a3b565b50979650505050505050565b60606000612ae861369f565b6006015460405162468b7360e31b81526001600160a01b038581166004830152909116915060009082906302345b9890602401600060405180830381865afa158015612b38573d6000803e3d6000fd5b505050506040513d6000823e601f3d908101601f19168201604052612b609190810190614ee0565b604051631f04207360e31b81526001600160a01b03868116600483015291925060009184169063f821039890602401602060405180830381865afa158015612bac573d6000803e3d6000fd5b505050506040513d601f19601f82011682018060405250810190612bd09190614cbe565b905081516000148015612beb57506001600160a01b03811615155b15612c655760405162468b7360e31b81526001600160a01b03808316600483015291955085918416906302345b9890602401600060405180830381865afa158015612c3a573d6000803e3d6000fd5b505050506040513d6000823e601f3d908101601f19168201604052612c629190810190614ee0565b91505b81516000612c74826001614e8a565b6001600160401b03811115612c8b57612c8b6145c7565b604051908082528060200260200182016040528015612cb4578160200160208202803683370190505b50905060005b82811015612d0e57848181518110612cd457612cd4614bb9565b6020026020010151828281518110612cee57612cee614bb9565b6001600160a01b0390921660209283029190910190910152600101612cba565b5086818381518110612d2257612d22614bb9565b6001600160a01b03909216602092830291909101909101529695505050505050565b600080612d5083613b0a565b806020019051810190612d639190614f73565b915091506000612d7161187c565b9050600080612d7e6121c4565b90506000612d8a613bdb565b905083821115612d9d5760009250612dc2565b8015612db65760009250612db16001613c03565b612dc2565b612dbf8461189b565b92505b6000612dcc613480565b90508315612e915760008881526000805160206153b2833981519152602052604081205490819003612e1157604051635894b54560e11b815260040160405180910390fd5b80851115612e3257604051635894b54560e11b815260040160405180910390fd5b612e3c8286613490565b6000612e4889876123a8565b90506000612e568288614ba6565b90508015612e6a57612e688a826124c0565b505b612e748b88613197565b612e8d8b604051806020016040528060008152506127c5565b5050505b612e9c866001613563565b612ea881610e71612322565b60405181906001600160a01b038816907f2f40b0474996b72a4251e00fb9170cdd960deea1dc749772cbbab61395b9b57690600090a35050505050505050565b60008381526000805160206153128339815191526020526040902080546000805160206152f2833981519152919060ff161515600103612f7a5760005b6004820154811015612f785783826004018281548110612f4757612f47614bb9565b906000526020600020015403612f70576040516301ab53df60e31b815260040160405180910390fd5b600101612f25565b505b81546001600160a01b0316612f9157612f91613c41565b8154604051634f84544560e01b8152600560048201526000916001600160a01b031690634f84544590602401600060405180830381865afa158015612fda573d6000803e3d6000fd5b505050506040513d6000823e601f3d908101601f191682016040526130029190810190614ee0565b825490915060ff166130435781546003830180546001600160a01b0319166001600160a01b0388161790556001600160a81b03191661010033021760011782555b600482018054600181018255600091825260208220018590555b815181101561313357826001016000868152602001908152602001600020604051806040016040528084848151811061309857613098614bb9565b60200260200101516001600160a01b03168152602001600060028111156130c1576130c161487b565b9052815460018101835560009283526020928390208251910180546001600160a01b031981166001600160a01b03909316928317825593830151929390929183916001600160a81b03191617600160a01b8360028111156131245761312461487b565b0217905550505060010161305d565b50825460405163541da4e560e01b81526001600160a01b039091169063541da4e5906131699033908a9089908790600401614fa2565b600060405180830381600087803b15801561318357600080fd5b505af1158015611cf4573d6000803e3d6000fd5b60008281526000805160206153b283398151915260205260408120805460008051602061535283398151915292849291612888908490614ba6565b6131f660405180606001604052806060815260200160608152602001606081525090565b60008381526000805160206153128339815191526020526040812080546000805160206152f28339815191529260ff9091161515900361324957604051637ad5a43960e11b815260040160405180910390fd5b600381015460405163069a3ee960e01b8152600481018690526001600160a01b0390911690600090829063069a3ee990602401600060405180830381865afa158015613299573d6000803e3d6000fd5b505050506040513d6000823e601f3d908101601f191682016040526132c19190810190615140565b979650505050505050565b60606132d661369f565b600c0180546106ab90614b5c565b8082101561074b57604051636664d51760e11b815260040160405180910390fd5b8061330e61369f565b6003015550565b604051630a85bd0160e11b81526000906001600160a01b0385169063150b7a029061334a90339089908890889060040161527d565b6020604051808303816000875af1925050508015613385575060408051601f3d908101601f19168201909252613382918101906152b0565b60015b6133e3573d8080156133b3576040519150601f19603f3d011682016040523d82523d6000602084013e6133b8565b606091505b5080516000036133db576040516368d2bf6b60e11b815260040160405180910390fd5b805181602001fd5b6001600160e01b031916630a85bd0160e11b149050949350505050565b600061340a611675565b54821080156107395750600160e01b613421611675565b60008481526004919091016020526040902054161592915050565b606060a06040510180604052602081039150506000815280825b600183039250600a81066030018353600a9004806134565750819003601f19909101908152919050565b600061348a611675565b54919050565b8061349961369f565b600093845260090160205260409092209190915550565b60008181527f3c2290b88407133303e904ceb4ee7d0d14164eda8a629372d8406216ceb57e006020819052604082205461ffff168083036134f657600092505050610739565b60008481526001808401602090815260409283902083518085019094528054808552920154908301521580159061353a5750805142108061353a5750806020015142115b1561354b5760009350505050610739565b613559868361ffff1661395a565b9695505050505050565b61074b828260405180602001604052806000815250613cf5565b6001600160a01b0381166135a457604051630e88bf4b60e01b815260040160405180910390fd5b6135ac6122cb565b6040516346fc05eb60e11b81526001600160a01b0383811660048301529190911690638df80bd690602401602060405180830381865afa1580156135f4573d6000803e3d6000fd5b505050506040513d601f19601f820116820180604052508101906136189190614bcf565b610d3057604051630e88bf4b60e01b815260040160405180910390fd5b8061363e61369f565b60080180546001600160a01b0319166001600160a01b039290921691909117905550565b600061366c611675565b6001600160a01b039384166000908152600791909101602090815260408083209490951682529290925250205460ff1690565b7fc21004fcc619240a31f006438274d15cd813308303284436eef6055f0fdcb60090565b60018160028111156136d7576136d761487b565b036136e55761074b82612d44565b6000806136f184613b0a565b8060200190518101906137049190614f73565b9150915061372184604051806020016040528060008152506127c5565b61372b8483613d6b565b6040516001600160a01b038216907f86fd446d5c04e892d58b448a924dcd9c3ece3a5e0d2960b8c35cd475a5595a1f90600090a250505050565b6000818152600080516020615312833981519152602052604081206000805160206152f2833981519152915b60048201548110156137e5578160010160008360040183815481106137b8576137b8614bb9565b9060005260206000200154815260200190815260200160002060006137dd919061438e565b600101613791565b506137f46004820160006143ac565b6000838152600183016020526040812080546001600160a81b03191681556003810180546001600160a01b031916905590610cc960048301826143ac565b600061383c611675565b90506002810161384c8482614d23565b506003810161385b8382614d23565b50600090555050565b6000826001600160a01b03168260405160006040518083038185875af1925050503d80600081146138b1576040519150601f19603f3d011682016040523d82523d6000602084013e6138b6565b606091505b5050905080610a015760405162461bcd60e51b815260206004820152601c60248201527f6e617469766520746f6b656e207472616e73666572206661696c6564000000006044820152606401610786565b816001600160a01b0316836001600160a01b0316031561142057306001600160a01b0384160361394557611fc86001600160a01b0385168383613da2565b6114206001600160a01b038516848484613e01565b60006127108211156139b85760405162461bcd60e51b815260206004820152602160248201527f426173697320706f696e74732063616e6e6f74206578636565642031305f30306044820152600360fc1b6064820152608401610786565b6127106139c583856152da565b6112d79190614e14565b60606107e07f672ef851d5f92307da037116e23aa9e31af7e1f7e3ca62c4e6d540631df3fd01613e3a565b600081815260008051602061537283398151915260205260408120805460609291839182917f672ef851d5f92307da037116e23aa9e31af7e1f7e3ca62c4e6d540631df3fd0091613a4a90614b5c565b80601f0160208091040260200160405190810160405280929190818152602001828054613a7690614b5c565b8015613ac35780601f10613a9857610100808354040283529160200191613ac3565b820191906000526020600020905b815481529060010190602001808311613aa657829003601f168201915b50505060008981526003850160205260409020600181015493985060ff9093169650613af5926002019150613e479050565b9250613b0086613e52565b9150509193509193565b60008181527f34516f6fe09a043d57f1ff579a303a7ae85314751c77b4eb1a55837604a86e0260205260409020805460609160008051602061535283398151915291613b5590614b5c565b80601f0160208091040260200160405190810160405280929190818152602001828054613b8190614b5c565b8015613bce5780601f10613ba357610100808354040283529160200191613bce565b820191906000526020600020905b815481529060010190602001808311613bb157829003601f168201915b5050505050915050919050565b60007f097b4f25b64e012d0cf55f67e9b34fe5d57f15b11b95baa4ddd136b424967c0061348a565b7f097b4f25b64e012d0cf55f67e9b34fe5d57f15b11b95baa4ddd136b424967c00805482908290600090613c38908490614ba6565b90915550505050565b6000805160206152f28339815191526000613c5a61369f565b60060154604051628956cd60e71b81526c29b830b1b2a7b832b930ba37b960991b60048201526001600160a01b03909116906344ab668090602401602060405180830381865afa158015613cb2573d6000803e3d6000fd5b505050506040513d601f19601f82011682018060405250810190613cd69190614cbe565b82546001600160a01b0319166001600160a01b03919091161790915550565b613cff8383613f56565b6001600160a01b0383163b15610a01576000613d19611675565b5490508281035b613d336000868380600101945086613315565b613d50576040516368d2bf6b60e11b815260040160405180910390fd5b818110613d205781613d60611675565b5414610cc957600080fd5b60008281526000805160206153b283398151915260205260409020548015610a0157613d978382613197565b610a01610b6d611f77565b6040516001600160a01b03838116602483015260448201839052610a0191859182169063a9059cbb906064015b604051602081830303815290604052915060e01b6020820180516001600160e01b038381831617835250505050614091565b6040516001600160a01b0384811660248301528381166044830152606482018390526114209186918216906323b872dd90608401613dcf565b606060006112d7836140f4565b606061073982614150565b60008181526000805160206153728339815191526020526040812060609190613e7d9060040161422d565b6001600160401b03811115613e9457613e946145c7565b604051908082528060200260200182016040528015613ebd578160200160208202803683370190505b50905060005b600084815260008051602061537283398151915260205260409020613eea9060040161422d565b811015613f4f57600084815260008051602061537283398151915260205260408120613f199060040183614237565b905080838381518110613f2e57613f2e614bb9565b6001600160a01b039092166020928302919091019091015250600101613ec3565b5092915050565b6000613f60611675565b5490506000829003613f855760405163b562e8dd60e01b815260040160405180910390fd5b680100000000000000018202613f99611675565b6001600160a01b038516600081815260059290920160205260409091208054929092019091554260a01b6001841460e11b1717613fd4611675565b600083815260049190910160205260408120919091556001600160a01b0384169083830190839083907fddf252ad1be2c89b69c2b068fc378daa952ba7f163c4a11628f55a4df523b3ef8180a4600183015b81811461405e57808360007fddf252ad1be2c89b69c2b068fc378daa952ba7f163c4a11628f55a4df523b3ef600080a4600101614026565b508160000361407f57604051622e076360e81b815260040160405180910390fd5b80614088611675565b5550610a019050565b60006140a66001600160a01b03841683614243565b905080516000141580156140cb5750808060200190518101906140c99190614bcf565b155b15610a0157604051635274afe760e01b81526001600160a01b0384166004820152602401610786565b60608160000180548060200260200160405190810160405280929190818152602001828054801561414457602002820191906000526020600020905b815481526020019060010190808311614130575b50505050509050919050565b606081600001805480602002602001604051908101604052809291908181526020016000905b8282101561422257838290600052602060002001805461419590614b5c565b80601f01602080910402602001604051908101604052809291908181526020018280546141c190614b5c565b801561420e5780601f106141e35761010080835404028352916020019161420e565b820191906000526020600020905b8154815290600101906020018083116141f157829003601f168201915b505050505081526020019060010190614176565b505050509050919050565b6000610739825490565b60006112d78383614251565b60606112d78383600061427b565b600082600001828154811061426857614268614bb9565b9060005260206000200154905092915050565b6060814710156142a05760405163cd78605960e01b8152306004820152602401610786565b600080856001600160a01b031684866040516142bc9190614bec565b60006040518083038185875af1925050503d80600081146142f9576040519150601f19603f3d011682016040523d82523d6000602084013e6142fe565b606091505b509150915061355986838360608261431e5761431982614365565b6112d7565b815115801561433557506001600160a01b0384163b155b1561435e57604051639996b31560e01b81526001600160a01b0385166004820152602401610786565b50806112d7565b8051156143755780518082602001fd5b604051630a12f52160e11b815260040160405180910390fd5b5080546000825590600052602060002090810190610d3091906143ca565b5080546000825590600052602060002090810190610d3091906143ed565b5b808211156143e95780546001600160a81b03191681556001016143cb565b5090565b5b808211156143e957600081556001016143ee565b60005b8381101561441d578181015183820152602001614405565b50506000910152565b6000815180845261443e816020860160208601614402565b601f01601f19169290920160200192915050565b6020815260006112d76020830184614426565b60006020828403121561447757600080fd5b5035919050565b6001600160a01b0381168114610d3057600080fd5b803561449e8161447e565b919050565b600080604083850312156144b657600080fd5b82356144c18161447e565b946020939093013593505050565b600080602083850312156144e257600080fd5b82356001600160401b03808211156144f957600080fd5b818501915085601f83011261450d57600080fd5b81358181111561451c57600080fd5b86602082850101111561452e57600080fd5b60209290920196919550909350505050565b60008060006060848603121561455557600080fd5b83356145608161447e565b925060208401356145708161447e565b929592945050506040919091013590565b60038110610d3057600080fd5b6000806000606084860312156145a357600080fd5b833592506020840135915060408401356145bc81614581565b809150509250925092565b634e487b7160e01b600052604160045260246000fd5b60405161012081016001600160401b0381118282101715614600576146006145c7565b60405290565b604051608081016001600160401b0381118282101715614600576146006145c7565b604051606081016001600160401b0381118282101715614600576146006145c7565b604080519081016001600160401b0381118282101715614600576146006145c7565b604051601f8201601f191681016001600160401b0381118282101715614694576146946145c7565b604052919050565b60006001600160401b038311156146b5576146b56145c7565b6146c8601f8401601f191660200161466c565b90508281528383830111156146dc57600080fd5b828260208301376000602084830101529392505050565b600082601f83011261470457600080fd5b6112d78383356020850161469c565b6001600160401b0381168114610d3057600080fd5b803561449e81614713565b6000806040838503121561474657600080fd5b82356001600160401b038082111561475d57600080fd5b90840190610120828703121561477257600080fd5b61477a6145dd565b82358281111561478957600080fd5b614795888286016146f3565b8252506020830135828111156147aa57600080fd5b6147b6888286016146f3565b60208301525060408301356040820152606083013560608201526147dc60808401614728565b60808201526147ed60a08401614493565b60a08201526147fe60c08401614493565b60c082015260e083013560e0820152610100915061481d828401614493565b8282015280945050505061483360208401614493565b90509250929050565b60006020828403121561484e57600080fd5b81356112d78161447e565b6000806040838503121561486c57600080fd5b50508035926020909101359150565b634e487b7160e01b600052602160045260246000fd5b60038110610d3057610d3061487b565b60008151808452602080850194506020840160005b8381101561490b5781518051600681106148d2576148d261487b565b885280840151848901526040808201516001600160a01b03169089015260609081015190880152608090960195908201906001016148b6565b509495945050505050565b60008151808452602080850194506020840160005b8381101561490b578151805161494081614891565b88528084015160ff908116858a015260409182015116908801526060909601959082019060010161492b565b6020808252825160608383015280516080840181905260009291820190839060a08601905b808310156149c857835180516149a681614891565b835285015160ff16858301529284019260019290920191604090910190614991565b50838701519350601f199250828682030160408701526149e881856148a1565b935050506040850151818584030160608601526135598382614916565b8015158114610d3057600080fd5b60008060408385031215614a2657600080fd5b8235614a318161447e565b91506020830135614a4181614a05565b809150509250929050565b60008060008060808587031215614a6257600080fd5b8435614a6d8161447e565b93506020850135614a7d8161447e565b92506040850135915060608501356001600160401b03811115614a9f57600080fd5b8501601f81018713614ab057600080fd5b614abf8782356020840161469c565b91505092959194509250565b60008060408385031215614ade57600080fd5b82356001600160401b0380821115614af557600080fd5b614b01868387016146f3565b93506020850135915080821115614b1757600080fd5b50614b24858286016146f3565b9150509250929050565b60008060408385031215614b4157600080fd5b8235614b4c8161447e565b91506020830135614a418161447e565b600181811c90821680614b7057607f821691505b602082108103611a1657634e487b7160e01b600052602260045260246000fd5b634e487b7160e01b600052601160045260246000fd5b8181038181111561073957610739614b90565b634e487b7160e01b600052603260045260246000fd5b600060208284031215614be157600080fd5b81516112d781614a05565b60008251614bfe818460208701614402565b9190910192915050565b80516020808301519190811015611a165760001960209190910360031b1b16919050565b60008151808452602080850194506020840160005b8381101561490b5781516001600160a01b031687529582019590820190600101614c41565b838152606060208201526000614c7f6060830185614c2c565b9050826040830152949350505050565b60008351614ca1818460208801614402565b835190830190614cb5818360208801614402565b01949350505050565b600060208284031215614cd057600080fd5b81516112d78161447e565b601f821115610a01576000816000526020600020601f850160051c81016020861015614d045750805b601f850160051c820191505b818110156109de57828155600101614d10565b81516001600160401b03811115614d3c57614d3c6145c7565b614d5081614d4a8454614b5c565b84614cdb565b602080601f831160018114614d855760008415614d6d5750858301515b600019600386901b1c1916600185901b1785556109de565b600085815260208120601f198616915b82811015614db457888601518255948401946001909101908401614d95565b5085821015614dd25787850151600019600388901b60f8161c191681555b5050505050600190811b01905550565b600060208284031215614df457600080fd5b5051919050565b600060018201614e0d57614e0d614b90565b5060010190565b600082614e3157634e487b7160e01b600052601260045260246000fd5b500490565b60208101614e4383614891565b91905290565b600060208284031215614e5b57600080fd5b81516112d781614713565b600060208284031215614e7857600080fd5b815161ffff811681146112d757600080fd5b8082018082111561073957610739614b90565b6001600160401b03818116838216019080821115613f4f57613f4f614b90565b60006001600160401b03821115614ed657614ed66145c7565b5060051b60200190565b60006020808385031215614ef357600080fd5b82516001600160401b03811115614f0957600080fd5b8301601f81018513614f1a57600080fd5b8051614f2d614f2882614ebd565b61466c565b81815260059190911b82018301908381019087831115614f4c57600080fd5b928401925b828410156132c1578351614f648161447e565b82529284019290840190614f51565b60008060408385031215614f8657600080fd5b8251614f918161447e565b6020840151909250614a418161447e565b60018060a01b03851681528360208201528260408201526080606082015260006135596080830184614c2c565b805160ff8116811461449e57600080fd5b600082601f830112614ff157600080fd5b81516020615001614f2883614ebd565b82815260079290921b8401810191818101908684111561502057600080fd5b8286015b8481101561508a576080818903121561503d5760008081fd5b615045614606565b8151600681106150555760008081fd5b8152818501518582015260408083015161506e8161447e565b9082015260608281015190820152835291830191608001615024565b509695505050505050565b600082601f8301126150a657600080fd5b815160206150b6614f2883614ebd565b828152606092830285018201928282019190878511156150d557600080fd5b8387015b858110156151335781818a0312156150f15760008081fd5b6150f9614628565b815161510481614581565b8152615111828701614fcf565b868201526040615122818401614fcf565b9082015284529284019281016150d9565b5090979650505050505050565b6000602080838503121561515357600080fd5b82516001600160401b038082111561516a57600080fd5b908401906060828703121561517e57600080fd5b615186614628565b82518281111561519557600080fd5b8301601f810188136151a657600080fd5b80516151b4614f2882614ebd565b81815260069190911b8201860190868101908a8311156151d357600080fd5b928701925b82841015615227576040848c0312156151f15760008081fd5b6151f961464a565b845161520481614581565b8152615211858a01614fcf565b818a0152825260409390930192908701906151d8565b8452505050828401518281111561523d57600080fd5b61524988828601614fe0565b8583015250604083015193508184111561526257600080fd5b61526e87858501615095565b60408201529695505050505050565b6001600160a01b038581168252841660208201526040810183905260806060820181905260009061355990830184614426565b6000602082840312156152c257600080fd5b81516001600160e01b0319811681146112d757600080fd5b808202811582820484141761073957610739614b9056fe9075c515a635ba70c9696f31149324218d75cf00afe836c482e6473f38b19e009075c515a635ba70c9696f31149324218d75cf00afe836c482e6473f38b19e0154f22f54f370bd020e00ee80e1a5099a71652e2ccbcf6a75281e4c70a3e11a0034516f6fe09a043d57f1ff579a303a7ae85314751c77b4eb1a55837604a86e00672ef851d5f92307da037116e23aa9e31af7e1f7e3ca62c4e6d540631df3fd0359b501c3653afc186af7d48dda36cf6732bd21629a6295693664240a6ef5200034516f6fe09a043d57f1ff579a303a7ae85314751c77b4eb1a55837604a86e01","linkReferences":{}},"methodIdentifiers":{"__ERC721A_init(string,string)":"d2f01f19","__EntitlementGated_init(address)":"7adc9cbe","__Membership_init((string,string,uint256,uint256,uint64,address,address,uint256,address),address)":"4c2abfbe","approve(address,uint256)":"095ea7b3","balanceOf(address)":"70a08231","expiresAt(uint256)":"17c95709","getApproved(uint256)":"081812fc","getMembershipCurrency()":"657e45e8","getMembershipDuration()":"8120f0ba","getMembershipFreeAllocation()":"706b8e09","getMembershipImage()":"93b13cb7","getMembershipLimit()":"95d600c8","getMembershipPrice()":"1278076a","getMembershipPricingModule()":"e847abdd","getMembershipRenewalPrice(uint256)":"5803909f","getRuleData(bytes32,uint256)":"92c399ff","getSpaceFactory()":"79dda585","isApprovedForAll(address,address)":"e985e9c5","joinSpace(address)":"8c625b06","joinSpaceWithReferral(address,address,uint256)":"c9f7c833","name()":"06fdde03","ownerOf(uint256)":"6352211e","postEntitlementCheckResult(bytes32,uint256,uint8)":"4739e805","renewMembership(uint256)":"7c9669ac","safeTransferFrom(address,address,uint256)":"42842e0e","safeTransferFrom(address,address,uint256,bytes)":"b88d4fde","setApprovalForAll(address,bool)":"a22cb465","setMembershipFreeAllocation(uint256)":"5becd24a","setMembershipImage(string)":"0ef1be5f","setMembershipLimit(uint256)":"97fb7c1e","setMembershipPrice(uint256)":"69d5f38a","setMembershipPricingModule(address)":"df9a9fe6","symbol()":"95d89b41","tokenURI(uint256)":"c87b56dd","totalSupply()":"18160ddd","transferFrom(address,address,uint256)":"23b872dd","withdraw(address)":"51cff8d9"},"id":241}