{"abi":[{"type":"function","name":"__ERC721A_init","inputs":[{"name":"name_","type":"string","internalType":"string"},{"name":"symbol_","type":"string","internalType":"string"}],"outputs":[],"stateMutability":"nonpayable"},{"type":"function","name":"__EntitlementGated_init","inputs":[{"name":"entitlementChecker","type":"address","internalType":"contract IEntitlementChecker"}],"outputs":[],"stateMutability":"nonpayable"},{"type":"function","name":"__Membership_init","inputs":[{"name":"info","type":"tuple","internalType":"struct IMembershipBase.Membership","components":[{"name":"name","type":"string","internalType":"string"},{"name":"symbol","type":"string","internalType":"string"},{"name":"price","type":"uint256","internalType":"uint256"},{"name":"maxSupply","type":"uint256","internalType":"uint256"},{"name":"duration","type":"uint64","internalType":"uint64"},{"name":"currency","type":"address","internalType":"address"},{"name":"feeRecipient","type":"address","internalType":"address"},{"name":"freeAllocation","type":"uint256","internalType":"uint256"},{"name":"pricingModule","type":"address","internalType":"address"}]},{"name":"spaceFactory","type":"address","internalType":"address"}],"outputs":[],"stateMutability":"nonpayable"},{"type":"function","name":"approve","inputs":[{"name":"to","type":"address","internalType":"address"},{"name":"tokenId","type":"uint256","internalType":"uint256"}],"outputs":[],"stateMutability":"payable"},{"type":"function","name":"balanceOf","inputs":[{"name":"owner","type":"address","internalType":"address"}],"outputs":[{"name":"","type":"uint256","internalType":"uint256"}],"stateMutability":"view"},{"type":"function","name":"expiresAt","inputs":[{"name":"tokenId","type":"uint256","internalType":"uint256"}],"outputs":[{"name":"","type":"uint256","internalType":"uint256"}],"stateMutability":"view"},{"type":"function","name":"getApproved","inputs":[{"name":"tokenId","type":"uint256","internalType":"uint256"}],"outputs":[{"name":"","type":"address","internalType":"address"}],"stateMutability":"view"},{"type":"function","name":"getMembershipCurrency","inputs":[],"outputs":[{"name":"","type":"address","internalType":"address"}],"stateMutability":"view"},{"type":"function","name":"getMembershipDuration","inputs":[],"outputs":[{"name":"","type":"uint64","internalType":"uint64"}],"stateMutability":"view"},{"type":"function","name":"getMembershipFreeAllocation","inputs":[],"outputs":[{"name":"","type":"uint256","internalType":"uint256"}],"stateMutability":"view"},{"type":"function","name":"getMembershipImage","inputs":[],"outputs":[{"name":"","type":"string","internalType":"string"}],"stateMutability":"view"},{"type":"function","name":"getMembershipLimit","inputs":[],"outputs":[{"name":"","type":"uint256","internalType":"uint256"}],"stateMutability":"view"},{"type":"function","name":"getMembershipPrice","inputs":[],"outputs":[{"name":"","type":"uint256","internalType":"uint256"}],"stateMutability":"view"},{"type":"function","name":"getMembershipPricingModule","inputs":[],"outputs":[{"name":"","type":"address","internalType":"address"}],"stateMutability":"view"},{"type":"function","name":"getMembershipRenewalPrice","inputs":[{"name":"tokenId","type":"uint256","internalType":"uint256"}],"outputs":[{"name":"","type":"uint256","internalType":"uint256"}],"stateMutability":"view"},{"type":"function","name":"getRuleData","inputs":[{"name":"transactionId","type":"bytes32","internalType":"bytes32"},{"name":"roleId","type":"uint256","internalType":"uint256"}],"outputs":[{"name":"","type":"tuple","internalType":"struct IRuleEntitlement.RuleData","components":[{"name":"operations","type":"tuple[]","internalType":"struct IRuleEntitlement.Operation[]","components":[{"name":"opType","type":"uint8","internalType":"enum IRuleEntitlement.CombinedOperationType"},{"name":"index","type":"uint8","internalType":"uint8"}]},{"name":"checkOperations","type":"tuple[]","internalType":"struct IRuleEntitlement.CheckOperation[]","components":[{"name":"opType","type":"uint8","internalType":"enum IRuleEntitlement.CheckOperationType"},{"name":"chainId","type":"uint256","internalType":"uint256"},{"name":"contractAddress","type":"address","internalType":"address"},{"name":"threshold","type":"uint256","internalType":"uint256"}]},{"name":"logicalOperations","type":"tuple[]","internalType":"struct IRuleEntitlement.LogicalOperation[]","components":[{"name":"logOpType","type":"uint8","internalType":"enum IRuleEntitlement.LogicalOperationType"},{"name":"leftOperationIndex","type":"uint8","internalType":"uint8"},{"name":"rightOperationIndex","type":"uint8","internalType":"uint8"}]}]}],"stateMutability":"view"},{"type":"function","name":"getSpaceFactory","inputs":[],"outputs":[{"name":"","type":"address","internalType":"address"}],"stateMutability":"view"},{"type":"function","name":"isApprovedForAll","inputs":[{"name":"owner","type":"address","internalType":"address"},{"name":"operator","type":"address","internalType":"address"}],"outputs":[{"name":"","type":"bool","internalType":"bool"}],"stateMutability":"view"},{"type":"function","name":"joinSpace","inputs":[{"name":"receiver","type":"address","internalType":"address"}],"outputs":[],"stateMutability":"payable"},{"type":"function","name":"joinSpaceWithReferral","inputs":[{"name":"receiver","type":"address","internalType":"address"},{"name":"referrer","type":"address","internalType":"address"},{"name":"referralCode","type":"uint256","internalType":"uint256"}],"outputs":[],"stateMutability":"payable"},{"type":"function","name":"name","inputs":[],"outputs":[{"name":"","type":"string","internalType":"string"}],"stateMutability":"view"},{"type":"function","name":"ownerOf","inputs":[{"name":"tokenId","type":"uint256","internalType":"uint256"}],"outputs":[{"name":"","type":"address","internalType":"address"}],"stateMutability":"view"},{"type":"function","name":"postEntitlementCheckResult","inputs":[{"name":"transactionId","type":"bytes32","internalType":"bytes32"},{"name":"roleId","type":"uint256","internalType":"uint256"},{"name":"result","type":"uint8","internalType":"enum IEntitlementGatedBase.NodeVoteStatus"}],"outputs":[],"stateMutability":"nonpayable"},{"type":"function","name":"renewMembership","inputs":[{"name":"tokenId","type":"uint256","internalType":"uint256"}],"outputs":[],"stateMutability":"payable"},{"type":"function","name":"safeTransferFrom","inputs":[{"name":"from","type":"address","internalType":"address"},{"name":"to","type":"address","internalType":"address"},{"name":"tokenId","type":"uint256","internalType":"uint256"}],"outputs":[],"stateMutability":"payable"},{"type":"function","name":"safeTransferFrom","inputs":[{"name":"from","type":"address","internalType":"address"},{"name":"to","type":"address","internalType":"address"},{"name":"tokenId","type":"uint256","internalType":"uint256"},{"name":"_data","type":"bytes","internalType":"bytes"}],"outputs":[],"stateMutability":"payable"},{"type":"function","name":"setApprovalForAll","inputs":[{"name":"operator","type":"address","internalType":"address"},{"name":"approved","type":"bool","internalType":"bool"}],"outputs":[],"stateMutability":"nonpayable"},{"type":"function","name":"setMembershipFreeAllocation","inputs":[{"name":"newAllocation","type":"uint256","internalType":"uint256"}],"outputs":[],"stateMutability":"nonpayable"},{"type":"function","name":"setMembershipImage","inputs":[{"name":"newImage","type":"string","internalType":"string"}],"outputs":[],"stateMutability":"nonpayable"},{"type":"function","name":"setMembershipLimit","inputs":[{"name":"newLimit","type":"uint256","internalType":"uint256"}],"outputs":[],"stateMutability":"nonpayable"},{"type":"function","name":"setMembershipPrice","inputs":[{"name":"newPrice","type":"uint256","internalType":"uint256"}],"outputs":[],"stateMutability":"nonpayable"},{"type":"function","name":"setMembershipPricingModule","inputs":[{"name":"pricingModule","type":"address","internalType":"address"}],"outputs":[],"stateMutability":"nonpayable"},{"type":"function","name":"symbol","inputs":[],"outputs":[{"name":"","type":"string","internalType":"string"}],"stateMutability":"view"},{"type":"function","name":"tokenURI","inputs":[{"name":"tokenId","type":"uint256","internalType":"uint256"}],"outputs":[{"name":"","type":"string","internalType":"string"}],"stateMutability":"view"},{"type":"function","name":"totalSupply","inputs":[],"outputs":[{"name":"","type":"uint256","internalType":"uint256"}],"stateMutability":"view"},{"type":"function","name":"transferFrom","inputs":[{"name":"from","type":"address","internalType":"address"},{"name":"to","type":"address","internalType":"address"},{"name":"tokenId","type":"uint256","internalType":"uint256"}],"outputs":[],"stateMutability":"payable"},{"type":"function","name":"withdraw","inputs":[{"name":"account","type":"address","internalType":"address"}],"outputs":[],"stateMutability":"nonpayable"},{"type":"event","name":"Approval","inputs":[{"name":"owner","type":"address","indexed":true,"internalType":"address"},{"name":"approved","type":"address","indexed":true,"internalType":"address"},{"name":"tokenId","type":"uint256","indexed":true,"internalType":"uint256"}],"anonymous":false},{"type":"event","name":"ApprovalForAll","inputs":[{"name":"owner","type":"address","indexed":true,"internalType":"address"},{"name":"operator","type":"address","indexed":true,"internalType":"address"},{"name":"approved","type":"bool","indexed":false,"internalType":"bool"}],"anonymous":false},{"type":"event","name":"Banned","inputs":[{"name":"moderator","type":"address","indexed":true,"internalType":"address"},{"name":"tokenId","type":"uint256","indexed":true,"internalType":"uint256"}],"anonymous":false},{"type":"event","name":"ConsecutiveTransfer","inputs":[{"name":"fromTokenId","type":"uint256","indexed":true,"internalType":"uint256"},{"name":"toTokenId","type":"uint256","indexed":false,"internalType":"uint256"},{"name":"from","type":"address","indexed":true,"internalType":"address"},{"name":"to","type":"address","indexed":true,"internalType":"address"}],"anonymous":false},{"type":"event","name":"EntitlementCheckResultPosted","inputs":[{"name":"transactionId","type":"bytes32","indexed":true,"internalType":"bytes32"},{"name":"result","type":"uint8","indexed":false,"internalType":"enum IEntitlementGatedBase.NodeVoteStatus"}],"anonymous":false},{"type":"event","name":"Initialized","inputs":[{"name":"version","type":"uint32","indexed":false,"internalType":"uint32"}],"anonymous":false},{"type":"event","name":"InterfaceAdded","inputs":[{"name":"interfaceId","type":"bytes4","indexed":true,"internalType":"bytes4"}],"anonymous":false},{"type":"event","name":"InterfaceRemoved","inputs":[{"name":"interfaceId","type":"bytes4","indexed":true,"internalType":"bytes4"}],"anonymous":false},{"type":"event","name":"MembershipCurrencyUpdated","inputs":[{"name":"currency","type":"address","indexed":true,"internalType":"address"}],"anonymous":false},{"type":"event","name":"MembershipFeeRecipientUpdated","inputs":[{"name":"recipient","type":"address","indexed":true,"internalType":"address"}],"anonymous":false},{"type":"event","name":"MembershipFreeAllocationUpdated","inputs":[{"name":"allocation","type":"uint256","indexed":true,"internalType":"uint256"}],"anonymous":false},{"type":"event","name":"MembershipLimitUpdated","inputs":[{"name":"limit","type":"uint256","indexed":true,"internalType":"uint256"}],"anonymous":false},{"type":"event","name":"MembershipPriceUpdated","inputs":[{"name":"price","type":"uint256","indexed":true,"internalType":"uint256"}],"anonymous":false},{"type":"event","name":"MembershipTokenIssued","inputs":[{"name":"recipient","type":"address","indexed":true,"internalType":"address"},{"name":"tokenId","type":"uint256","indexed":true,"internalType":"uint256"}],"anonymous":false},{"type":"event","name":"MembershipTokenRejected","inputs":[{"name":"recipient","type":"address","indexed":true,"internalType":"address"}],"anonymous":false},{"type":"event","name":"MembershipWithdrawal","inputs":[{"name":"recipient","type":"address","indexed":true,"internalType":"address"},{"name":"amount","type":"uint256","indexed":false,"internalType":"uint256"}],"anonymous":false},{"type":"event","name":"Membership__ReferralCreated","inputs":[{"name":"code","type":"uint256","indexed":true,"internalType":"uint256"},{"name":"bps","type":"uint16","indexed":false,"internalType":"uint16"}],"anonymous":false},{"type":"event","name":"Membership__ReferralRemoved","inputs":[{"name":"code","type":"uint256","indexed":true,"internalType":"uint256"}],"anonymous":false},{"type":"event","name":"Membership__ReferralTimeCreated","inputs":[{"name":"code","type":"uint256","indexed":true,"internalType":"uint256"},{"name":"bps","type":"uint16","indexed":false,"internalType":"uint16"},{"name":"startTime","type":"uint256","indexed":false,"internalType":"uint256"},{"name":"endTime","type":"uint256","indexed":false,"internalType":"uint256"}],"anonymous":false},{"type":"event","name":"OwnershipTransferred","inputs":[{"name":"previousOwner","type":"address","indexed":true,"internalType":"address"},{"name":"newOwner","type":"address","indexed":true,"internalType":"address"}],"anonymous":false},{"type":"event","name":"Paused","inputs":[{"name":"account","type":"address","indexed":false,"internalType":"address"}],"anonymous":false},{"type":"event","name":"RoleCreated","inputs":[{"name":"creator","type":"address","indexed":true,"internalType":"address"},{"name":"roleId","type":"uint256","indexed":true,"internalType":"uint256"}],"anonymous":false},{"type":"event","name":"RoleRemoved","inputs":[{"name":"remover","type":"address","indexed":true,"internalType":"address"},{"name":"roleId","type":"uint256","indexed":true,"internalType":"uint256"}],"anonymous":false},{"type":"event","name":"RoleUpdated","inputs":[{"name":"updater","type":"address","indexed":true,"internalType":"address"},{"name":"roleId","type":"uint256","indexed":true,"internalType":"uint256"}],"anonymous":false},{"type":"event","name":"SubscriptionUpdate","inputs":[{"name":"tokenId","type":"uint256","indexed":true,"internalType":"uint256"},{"name":"expiration","type":"uint64","indexed":false,"internalType":"uint64"}],"anonymous":false},{"type":"event","name":"Transfer","inputs":[{"name":"from","type":"address","indexed":true,"internalType":"address"},{"name":"to","type":"address","indexed":true,"internalType":"address"},{"name":"tokenId","type":"uint256","indexed":true,"internalType":"uint256"}],"anonymous":false},{"type":"event","name":"Unbanned","inputs":[{"name":"moderator","type":"address","indexed":true,"internalType":"address"},{"name":"tokenId","type":"uint256","indexed":true,"internalType":"uint256"}],"anonymous":false},{"type":"event","name":"Unpaused","inputs":[{"name":"account","type":"address","indexed":false,"internalType":"address"}],"anonymous":false},{"type":"error","name":"AddressEmptyCode","inputs":[{"name":"target","type":"address","internalType":"address"}]},{"type":"error","name":"AddressInsufficientBalance","inputs":[{"name":"account","type":"address","internalType":"address"}]},{"type":"error","name":"ApprovalCallerNotOwnerNorApproved","inputs":[]},{"type":"error","name":"ApprovalQueryForNonexistentToken","inputs":[]},{"type":"error","name":"BalanceQueryForZeroAddress","inputs":[]},{"type":"error","name":"Banning__AlreadyBanned","inputs":[{"name":"tokenId","type":"uint256","internalType":"uint256"}]},{"type":"error","name":"Banning__CannotBanOwner","inputs":[]},{"type":"error","name":"Banning__CannotBanSelf","inputs":[]},{"type":"error","name":"Banning__InvalidTokenId","inputs":[{"name":"tokenId","type":"uint256","internalType":"uint256"}]},{"type":"error","name":"Banning__NotBanned","inputs":[{"name":"tokenId","type":"uint256","internalType":"uint256"}]},{"type":"error","name":"Dispatcher__InvalidCaller","inputs":[]},{"type":"error","name":"Dispatcher__InvalidValue","inputs":[]},{"type":"error","name":"ERC5643__DurationZero","inputs":[]},{"type":"error","name":"ERC5643__InvalidTokenId","inputs":[{"name":"tokenId","type":"uint256","internalType":"uint256"}]},{"type":"error","name":"ERC5643__NotApprovedOrOwner","inputs":[]},{"type":"error","name":"ERC5643__SubscriptionNotRenewable","inputs":[{"name":"tokenId","type":"uint256","internalType":"uint256"}]},{"type":"error","name":"EntitlementGated_InvalidAddress","inputs":[]},{"type":"error","name":"EntitlementGated_NodeAlreadyVoted","inputs":[]},{"type":"error","name":"EntitlementGated_NodeNotFound","inputs":[]},{"type":"error","name":"EntitlementGated_TransactionCheckAlreadyCompleted","inputs":[]},{"type":"error","name":"EntitlementGated_TransactionCheckAlreadyRegistered","inputs":[]},{"type":"error","name":"EntitlementGated_TransactionNotRegistered","inputs":[]},{"type":"error","name":"Entitlement__InvalidValue","inputs":[]},{"type":"error","name":"Entitlement__NotAllowed","inputs":[]},{"type":"error","name":"Entitlement__NotMember","inputs":[]},{"type":"error","name":"Entitlement__ValueAlreadyExists","inputs":[]},{"type":"error","name":"FailedInnerCall","inputs":[]},{"type":"error","name":"Initializable_InInitializingState","inputs":[]},{"type":"error","name":"Initializable_NotInInitializingState","inputs":[]},{"type":"error","name":"Introspection_AlreadySupported","inputs":[]},{"type":"error","name":"Introspection_NotSupported","inputs":[]},{"type":"error","name":"Membership__AlreadyMember","inputs":[]},{"type":"error","name":"Membership__InsufficientAllowance","inputs":[]},{"type":"error","name":"Membership__InsufficientPayment","inputs":[]},{"type":"error","name":"Membership__InvalidAddress","inputs":[]},{"type":"error","name":"Membership__InvalidCurrency","inputs":[]},{"type":"error","name":"Membership__InvalidDuration","inputs":[]},{"type":"error","name":"Membership__InvalidFeeRecipient","inputs":[]},{"type":"error","name":"Membership__InvalidFreeAllocation","inputs":[]},{"type":"error","name":"Membership__InvalidLimit","inputs":[]},{"type":"error","name":"Membership__InvalidMaxSupply","inputs":[]},{"type":"error","name":"Membership__InvalidPrice","inputs":[]},{"type":"error","name":"Membership__InvalidPricingModule","inputs":[]},{"type":"error","name":"Membership__InvalidReferralBps","inputs":[]},{"type":"error","name":"Membership__InvalidReferralCode","inputs":[]},{"type":"error","name":"Membership__InvalidReferralTime","inputs":[]},{"type":"error","name":"Membership__InvalidTokenId","inputs":[]},{"type":"error","name":"Membership__MaxSupplyReached","inputs":[]},{"type":"error","name":"Membership__NotExpired","inputs":[]},{"type":"error","name":"Membership__PriceTooLow","inputs":[]},{"type":"error","name":"MintERC2309QuantityExceedsLimit","inputs":[]},{"type":"error","name":"MintToZeroAddress","inputs":[]},{"type":"error","name":"MintZeroQuantity","inputs":[]},{"type":"error","name":"Ownable__NotOwner","inputs":[{"name":"account","type":"address","internalType":"address"}]},{"type":"error","name":"Ownable__ZeroAddress","inputs":[]},{"type":"error","name":"OwnerQueryForNonexistentToken","inputs":[]},{"type":"error","name":"OwnershipNotInitializedForExtraData","inputs":[]},{"type":"error","name":"Pausable__NotPaused","inputs":[]},{"type":"error","name":"Pausable__Paused","inputs":[]},{"type":"error","name":"ReentrancyGuard__ReentrantCall","inputs":[]},{"type":"error","name":"Roles__EntitlementAlreadyExists","inputs":[]},{"type":"error","name":"Roles__EntitlementDoesNotExist","inputs":[]},{"type":"error","name":"Roles__InvalidEntitlementAddress","inputs":[]},{"type":"error","name":"Roles__InvalidPermission","inputs":[]},{"type":"error","name":"Roles__PermissionAlreadyExists","inputs":[]},{"type":"error","name":"Roles__PermissionDoesNotExist","inputs":[]},{"type":"error","name":"Roles__RoleDoesNotExist","inputs":[]},{"type":"error","name":"SafeERC20FailedOperation","inputs":[{"name":"token","type":"address","internalType":"address"}]},{"type":"error","name":"TransferCallerNotOwnerNorApproved","inputs":[]},{"type":"error","name":"TransferFromIncorrectOwner","inputs":[]},{"type":"error","name":"TransferToNonERC721ReceiverImplementer","inputs":[]},{"type":"error","name":"TransferToZeroAddress","inputs":[]},{"type":"error","name":"URIQueryForNonexistentToken","inputs":[]}],"bytecode":{"object":"0x60806040523480156200001157600080fd5b506200001c62000022565b620000ca565b7f59b501c3653afc186af7d48dda36cf6732bd21629a6295693664240a6ef520008054640100000000900460ff16156200006f576040516366008a2d60e01b815260040160405180910390fd5b805463ffffffff9081161015620000c757805463ffffffff191663ffffffff90811782556040519081527fe9c9b456cb2994b80aeef036cf59d26e9617df80f816a6ee5a5b4166e07e2f5c9060200160405180910390a15b50565b6153ac80620000da6000396000f3fe60806040526004361061021a5760003560e01c806370a082311161012357806395d89b41116100ab578063c9f7c8331161006f578063c9f7c833146105fb578063d2f01f191461060e578063df9a9fe61461062e578063e847abdd1461064e578063e985e9c51461066357600080fd5b806395d89b411461057357806397fb7c1e14610588578063a22cb465146105a8578063b88d4fde146105c8578063c87b56dd146105db57600080fd5b80638120f0ba116100f25780638120f0ba146104dc5780638c625b061461050957806392c399ff1461051c57806393b13cb71461054957806395d600c81461055e57600080fd5b806370a082311461047457806379dda585146104945780637adc9cbe146104a95780637c9669ac146104c957600080fd5b80634739e805116101a65780635becd24a116101755780635becd24a146103ea5780636352211e1461040a578063657e45e81461042a57806369d5f38a1461043f578063706b8e091461045f57600080fd5b80634739e8051461036a5780634c2abfbe1461038a57806351cff8d9146103aa5780635803909f146103ca57600080fd5b80631278076a116101ed5780631278076a146102b757806317c95709146102da57806318160ddd1461032f57806323b872dd1461034457806342842e0e1461035757600080fd5b806306fdde031461021f578063081812fc1461024a578063095ea7b3146102825780630ef1be5f14610297575b600080fd5b34801561022b57600080fd5b50610234610693565b604051610241919061442c565b60405180910390f35b34801561025657600080fd5b5061026a61026536600461443f565b61072e565b6040516001600160a01b039091168152602001610241565b61029561029036600461447d565b61073f565b005b3480156102a357600080fd5b506102956102b23660046144a9565b61074f565b3480156102c357600080fd5b506102cc6107ce565b604051908152602001610241565b3480156102e657600080fd5b506102cc6102f536600461443f565b60009081527f4775a23600034fdd9f073b224f794d51a58b35ba663a9602623ba7a5c09cce0060205260409020546001600160401b031690565b34801561033b57600080fd5b506102cc6107e5565b61029561035236600461451a565b6107ef565b61029561036536600461451a565b6109e6565b34801561037657600080fd5b50610295610385366004614568565b610a06565b34801561039657600080fd5b506102956103a536600461470d565b610a6f565b3480156103b657600080fd5b506102956103c5366004614816565b610ad3565b3480156103d657600080fd5b506102cc6103e536600461443f565b610b75565b3480156103f657600080fd5b5061029561040536600461443f565b610b88565b34801561041657600080fd5b5061026a61042536600461443f565b610c0d565b34801561043657600080fd5b5061026a610c18565b34801561044b57600080fd5b5061029561045a36600461443f565b610c22565b34801561046b57600080fd5b506102cc610cd0565b34801561048057600080fd5b506102cc61048f366004614816565b610cda565b3480156104a057600080fd5b5061026a610ce5565b3480156104b557600080fd5b506102956104c4366004614816565b610cef565b6102956104d736600461443f565b610d33565b3480156104e857600080fd5b506104f1610e90565b6040516001600160401b039091168152602001610241565b610295610517366004614816565b610e9a565b34801561052857600080fd5b5061053c610537366004614833565b6112a9565b6040516102419190614946565b34801561055557600080fd5b506102346112de565b34801561056a57600080fd5b506102cc6112e8565b34801561057f57600080fd5b506102346112f2565b34801561059457600080fd5b506102956105a336600461443f565b61130a565b3480156105b457600080fd5b506102956105c33660046149ed565b61135f565b6102956105d6366004614a26565b6113dc565b3480156105e757600080fd5b506102346105f636600461443f565b611426565b61029561060936600461451a565b6114b6565b34801561061a57600080fd5b50610295610629366004614aa5565b6115d0565b34801561063a57600080fd5b50610295610649366004614816565b611612565b34801561065a57600080fd5b5061026a61165f565b34801561066f57600080fd5b5061068361067e366004614b08565b611669565b6040519015158152602001610241565b606061069d611675565b60020180546106ab90614b36565b80601f01602080910402602001604051908101604052809291908181526020018280546106d790614b36565b80156107245780601f106106f957610100808354040283529160200191610724565b820191906000526020600020905b81548152906001019060200180831161070757829003601f168201915b5050505050905090565b600061073982611699565b92915050565b61074b828260016116e6565b5050565b61075761179b565b6001600160a01b0316336001600160a01b03161461078f576040516365f4906560e01b81523360048201526024015b60405180910390fd5b61074b82828080601f01602080910402602001604051908101604052809392919081815260200183838082843760009201919091525061186592505050565b60006107e06107db61187c565b61189b565b905090565b60006107e061187c565b60006107fa82611a2a565b9050836001600160a01b0316816001600160a01b03161461082d5760405162a1148160e81b815260040160405180910390fd5b60008061083984611ac5565b9150915061085e81876108493390565b6001600160a01b039081169116811491141790565b6108895761086c8633611669565b61088957604051632ce44b5f60e11b815260040160405180910390fd5b6001600160a01b0385166108b057604051633a954ecd60e21b815260040160405180910390fd5b80156108bb57600082555b6108c3611675565b6001600160a01b03871660009081526005919091016020526040902080546000190190556108ef611675565b6001600160a01b03861660008181526005929092016020526040909120805460010190554260a01b17600160e11b17610926611675565b60008681526004919091016020526040812091909155600160e11b8416900361099c5760018401610955611675565b60008281526004919091016020526040812054900361099a57610976611675565b54811461099a5783610986611675565b600083815260049190910160205260409020555b505b83856001600160a01b0316876001600160a01b03167fddf252ad1be2c89b69c2b068fc378daa952ba7f163c4a11628f55a4df523b3ef60405160405180910390a45b505050505050565b610a01838383604051806020016040528060008152506113dc565b505050565b600260008051602061530c8339815191525403610a3657604051635db5c7cd60e11b815260040160405180910390fd5b610a4d600260008051602061530c83398151915255565b610a58838383611aed565b610a01600160008051602061530c83398151915255565b60008051602061536c83398151915254640100000000900460ff16610aa757604051630ef4733760e31b815260040160405180910390fd5b610ab763421fb7a760e01b611d90565b610ac18282611e6e565b61074b82600001518360200151611f91565b610adb61179b565b6001600160a01b0316336001600160a01b031614610b0e576040516365f4906560e01b8152336004820152602401610786565b6001600160a01b038116610b3557604051635fbd571760e01b815260040160405180910390fd5b6000610b3f611ff3565b905080600003610b6257604051635894b54560e11b815260040160405180910390fd5b61074b610b6d612006565b308484612022565b600061073982610b8361187c565b612068565b610b9061179b565b6001600160a01b0316336001600160a01b031614610bc3576040516365f4906560e01b8152336004820152602401610786565b6000610bcd6120ae565b90508015801590610bdd57508082115b15610bfb5760405163c3983b9160e01b815260040160405180910390fd5b610c04826120c1565b61074b82612166565b600061073982611a2a565b60006107e0612006565b610c2a61179b565b6001600160a01b0316336001600160a01b031614610c5d576040516365f4906560e01b8152336004820152602401610786565b610c66816121a9565b610c6e612237565b6001600160a01b03166391b7f5ed826040518263ffffffff1660e01b8152600401610c9b91815260200190565b600060405180830381600087803b158015610cb557600080fd5b505af1158015610cc9573d6000803e3d6000fd5b5050505050565b60006107e0612253565b6000610739826122f2565b60006107e061235a565b60008051602061536c83398151915254640100000000900460ff16610d2757604051630ef4733760e31b815260040160405180910390fd5b610d3081612376565b50565b600260008051602061530c8339815191525403610d6357604051635db5c7cd60e11b815260040160405180910390fd5b610d7a600260008051602061530c83398151915255565b6000610d8582610c0d565b90506001600160a01b038116610dae57604051635fbd571760e01b815260040160405180910390fd5b60008281527f4775a23600034fdd9f073b224f794d51a58b35ba663a9602623ba7a5c09cce0060205260409020546001600160401b0316610ded6123b1565b6001600160401b0316610e004283614b80565b10610e1e5760405163dce9a1d360e01b815260040160405180910390fd5b6000610e2c84610b8361187c565b90508015610e65576000610e408483612437565b90506000610e4e8284614b80565b90508015610e6257610e60858261254f565b505b50505b610e7684610e716123b1565b6126ed565b505050610d30600160008051602061530c83398151915255565b60006107e06123b1565b600260008051602061530c8339815191525403610eca57604051635db5c7cd60e11b815260040160405180910390fd5b610ee1600260008051602061530c83398151915255565b610eea816127b6565b60405133606081901b6bffffffffffffffffffffffff19166020830152436034830152906000906054016040516020818303038152906040528051906020012090506000610fac82610f808486610f408761281f565b604080516020808201959095526001600160a01b039390931683820152606080840192909252805180840390920182526080909201909152805191012090565b604080516020808201949094528082019290925280518083038201815260609092019052805191012090565b9050610fee818486604051602001610fda9291906001600160a01b0392831681529116602082015260400190565b604051602081830303815290604052612854565b3415610ffe57610ffe813461289b565b600061102a604051806040016040528060098152602001684a6f696e537061636560b81b815250612921565b9050600080600061103a33612b6b565b845190915060005b8181101561121a57600086828151811061105e5761105e614b93565b6020026020010151905080604001516112115760005b81608001515181101561120f5760008260800151828151811061109957611099614b93565b60200260200101519050806001600160a01b0316632e1b61e46040518163ffffffff1660e01b8152600401602060405180830381865afa1580156110e1573d6000803e3d6000fd5b505050506040513d601f19601f820116820180604052508101906111059190614ba9565b6111ee57806001600160a01b0316630cf0b5336000801b88604051806040016040528060098152602001684a6f696e537061636560b81b81525060405160200161114f9190614bc6565b60405160208183030381529060405261116790614be2565b6040518463ffffffff1660e01b815260040161118593929190614c40565b602060405180830381865afa1580156111a2573d6000803e3d6000fd5b505050506040513d601f19601f820116820180604052508101906111c69190614ba9565b156111e5576111d48a612dd3565b505050505050505050505050611292565b60019650611206565b6111fd8a828560000151612f28565b60009650600197505b50600101611074565b505b50600101611042565b50831580156112265750825b15611289576112448660405180602001604052806000815250612854565b34156112545761125486346131d7565b6040516001600160a01b038a16907f86fd446d5c04e892d58b448a924dcd9c3ece3a5e0d2960b8c35cd475a5595a1f90600090a25b50505050505050505b610d30600160008051602061530c83398151915255565b6112cd60405180606001604052806060815260200160608152602001606081525090565b6112d78383613212565b9392505050565b60606107e061330c565b60006107e06120ae565b60606112fc611675565b60030180546106ab90614b36565b61131261179b565b6001600160a01b0316336001600160a01b031614611345576040516365f4906560e01b8152336004820152602401610786565b6113568161135161187c565b613324565b610d3081613345565b80611368611675565b336000818152600792909201602090815260408084206001600160a01b03881680865290835293819020805460ff19169515159590951790945592518415158152919290917f17307eab39ab6107e8899845ad3d59bd9653f200f220920489ca2b5937696c31910160405180910390a35050565b6113e78484846107ef565b6001600160a01b0383163b156114205761140384848484613355565b611420576040516368d2bf6b60e11b815260040160405180910390fd5b50505050565b606061143182613440565b61144e57604051630a14c4b560e41b815260040160405180910390fd5b600061146560408051602081019091526000815290565b9050805160000361148557604051806020016040528060008152506112d7565b8061148f8461347c565b6040516020016114a0929190614c69565b6040516020818303038152906040529392505050565b600260008051602061530c83398151915254036114e657604051635db5c7cd60e11b815260040160405180910390fd5b6114fd600260008051602061530c83398151915255565b611506836127b6565b60006115106134c0565b9050600061151f6107db61187c565b905080156115a05761153182826134d0565b600061153d8683612437565b9050600061154b8284614b80565b90506000611557612006565b9050811561159c57600061156b83886134f0565b9050611579828a8a84612022565b60006115858285614b80565b90508015611599576115978a8261254f565b505b50505b5050505b6115ab8560016135a3565b6115b782610e716123b1565b5050610a01600160008051602061530c83398151915255565b60008051602061536c83398151915254640100000000900460ff1661160857604051630ef4733760e31b815260040160405180910390fd5b61074b8282611f91565b61161a61179b565b6001600160a01b0316336001600160a01b03161461164d576040516365f4906560e01b8152336004820152602401610786565b611656816135bd565b610d3081613675565b60006107e0612237565b60006112d783836136a2565b7f6569bde4a160c636ea8b8d11acb83a60d7fec0b8f2e09389306cba0e1340df0090565b60006116a482613440565b6116c1576040516333d1c03960e21b815260040160405180910390fd5b6116c9611675565b60009283526006016020525060409020546001600160a01b031690565b60006116f183610c0d565b9050811561173057336001600160a01b038216146117305761171381336136a2565b611730576040516367d9dca160e11b815260040160405180910390fd5b83611739611675565b6000858152600691909101602052604080822080546001600160a01b0319166001600160a01b0394851617905551859287811692908516917f8c5be1e5ebec7d5bd14f71427d1e84f3dd0314c0f7b2291e5b200ac8c7c3b9259190a450505050565b6040805180820182527fd2f24d4f172e4e84e48e7c4125b6e904c29e5eba33ad4938fee51dd5dbd4b600546001600160a01b03168082527fd2f24d4f172e4e84e48e7c4125b6e904c29e5eba33ad4938fee51dd5dbd4b60154602080840182905284516331a9108f60e11b815260048101929092529351600094636352211e92602480820193918290030181865afa15801561183b573d6000803e3d6000fd5b505050506040513d601f19601f8201168201806040525081019061185f9190614c98565b91505090565b8061186e6136df565b600c019061074b9082614cfd565b600080611887611675565b60010154611893611675565b540303919050565b6000806118a66136df565b905060006118b2612253565b9050838111156118c6575060009392505050565b6006820154604051639262b1b360e01b815230600482015285916001600160a01b031690639262b1b390602401602060405180830381865afa158015611910573d6000803e3d6000fd5b505050506040513d601f19601f820116820180604052508101906119349190614dbc565b1115611944575060009392505050565b60088201546001600160a01b0316156119d5576008820154604051635cf4ee9160e01b815260048101839052602481018690526001600160a01b0390911690635cf4ee9190604401602060405180830381865afa1580156119a9573d6000803e3d6000fd5b505050506040513d601f19601f820116820180604052508101906119cd9190614dbc565b949350505050565b8160060160009054906101000a90046001600160a01b03166001600160a01b0316630eac306d6040518163ffffffff1660e01b8152600401602060405180830381865afa1580156119a9573d6000803e3d6000fd5b600080611a35611675565b60008481526004820160205260408120549350909150600160e01b83169003611aab5781600003611aa55780548310611a8157604051636f96cda160e11b815260040160405180910390fd5b5b600019909201600081815260048401602052604090205490929091508115611a82575b50919050565b50604051636f96cda160e11b815260040160405180910390fd5b6000806000611ad2611675565b60009485526006016020525050604090912080549092909150565b60008381526000805160206152ec8339815191526020526040902080546000805160206152cc833981519152919061010090046001600160a01b03161580611b375750805460ff16155b15611b5557604051637ad5a43960e11b815260040160405180910390fd5b600084815260028201602052604090205460ff1615611b8757604051637912b73960e01b815260040160405180910390fd5b600084815260018201602052604081205481908190815b81811015611cc55760008981526001870160205260408120805483908110611bc857611bc8614b93565b60009182526020909120018054909150336001600160a01b0390911603611c545760008154600160a01b900460ff166002811115611c0857611c08614855565b14611c26576040516347592a4d60e01b815260040160405180910390fd5b80548990829060ff60a01b1916600160a01b836002811115611c4a57611c4a614855565b0217905550600195505b60018154600160a01b900460ff166002811115611c7357611c73614855565b03611c8a5784611c8281614dd5565b955050611cbc565b60028154600160a01b900460ff166002811115611ca957611ca9614855565b03611cbc5783611cb881614dd5565b9450505b50600101611b9e565b5083611ce457604051638223a7e960e01b815260040160405180910390fd5b611cef600282614dee565b831180611d055750611d02600282614dee565b82115b15611d855760008881526002860160205260408120805460ff19166001179055828411611d33576002611d36565b60015b9050611d428a82613703565b897fb9d6ce397e562841871d119aaf77469c60a3b5bf8b99a5d9851656015015c63382604051611d729190614e10565b60405180910390a2611d838a6137a5565b505b505050505050505050565b6001600160e01b0319811660009081527f81088bbc801e045ea3e7620779ab349988f58afbdfba10dff983df3f33522b00602052604090205460ff161515600114611e1d576001600160e01b0319811660009081527f81088bbc801e045ea3e7620779ab349988f58afbdfba10dff983df3f33522b0060205260409020805460ff19166001179055611e36565b604051637967f77d60e11b815260040160405180910390fd5b6040516001600160e01b03198216907f78f84e5b1c5c05be2b5ad3800781dd404d6d6c6302bc755c0fe20f58a33a7f2290600090a250565b6000611e786136df565b6006810180546001600160a01b038086166001600160a01b031992831617909255610100860151600884018054919093169082161790915560048201805490911673eeeeeeeeeeeeeeeeeeeeeeeeeeeeeeeeeeeeeeee1790556060840151600382015560e08401516007820181905590915015611efc57611efc8360e001516120c1565b611f0a8361010001516135bd565b604083015115610a0157611f2183604001516121a9565b600881015460408085015190516391b7f5ed60e01b81526001600160a01b03909216916391b7f5ed91611f5a9160040190815260200190565b600060405180830381600087803b158015611f7457600080fd5b505af1158015611f88573d6000803e3d6000fd5b50505050505050565b60008051602061536c83398151915254640100000000900460ff16611fc957604051630ef4733760e31b815260040160405180910390fd5b611fd96380ac58cd60e01b611d90565b611fe9635b5e139f60e01b611d90565b61074b8282613872565b6000611ffd6136df565b600a0154905090565b60006120106136df565b600401546001600160a01b0316919050565b80156114205773eeeeeeeeeeeeeeeeeeeeeeeeeeeeeeeeeeeeeeed196001600160a01b0385160161205c5761205782826138a4565b611420565b61142084848484613947565b6000806120736136df565b6000858152600982016020526040902054909150156120a5576000848152600990910160205260409020549050610739565b6119cd8361189b565b60006120b86136df565b60030154905090565b60006120cb6136df565b90508060060160009054906101000a90046001600160a01b03166001600160a01b0316632cbb9d136040518163ffffffff1660e01b8152600401602060405180830381865afa158015612122573d6000803e3d6000fd5b505050506040513d601f19601f820116820180604052508101906121469190614dbc565b82111561074b5760405163c3983b9160e01b815260040160405180910390fd5b60006121706136df565b6007810183905560405190915082907fab14a23e88fb272313490d4f20d63098e64fd38304c0e07a377db98c2b39b92f90600090a25050565b60006121b361235a565b6001600160a01b0316630eac306d6040518163ffffffff1660e01b8152600401602060405180830381865afa1580156121f0573d6000803e3d6000fd5b505050506040513d601f19601f820116820180604052508101906122149190614dbc565b90508082101561074b57604051631a23d64760e11b815260040160405180910390fd5b60006122416136df565b600801546001600160a01b0316919050565b60008061225e6136df565b600781015490915080156122725792915050565b8160060160009054906101000a90046001600160a01b03166001600160a01b0316632cbb9d136040518163ffffffff1660e01b8152600401602060405180830381865afa1580156122c7573d6000803e3d6000fd5b505050506040513d601f19601f820116820180604052508101906122eb9190614dbc565b9250505090565b60006001600160a01b03821661231b576040516323d3ad8160e21b815260040160405180910390fd5b6001600160401b0361232b611675565b6005016000846001600160a01b03166001600160a01b0316815260200190815260200160002054169050919050565b60006123646136df565b600601546001600160a01b0316919050565b612386636afd38fd60e11b611d90565b6000805160206152cc83398151915280546001600160a01b0319166001600160a01b03831617905550565b6000806123bc6136df565b90508060060160009054906101000a90046001600160a01b03166001600160a01b0316638120f0ba6040518163ffffffff1660e01b8152600401602060405180830381865afa158015612413573d6000803e3d6000fd5b505050506040513d601f19601f8201168201806040525081019061185f9190614e23565b6000806124426136df565b6006810154600480830154604080516301332c8360e61b815290519495506001600160a01b039384169493909116926000928592634ccb20c092818301926020928290030181865afa15801561249c573d6000803e3d6000fd5b505050506040513d601f19601f820116820180604052508101906124c09190614c98565b90506000836001600160a01b0316639f6542aa6040518163ffffffff1660e01b8152600401602060405180830381865afa158015612502573d6000803e3d6000fd5b505050506040513d601f19601f820116820180604052508101906125269190614e40565b9050612536878261ffff1661399a565b955061254483898489612022565b505050505092915050565b60008061255a6136df565b90506000612566612006565b905073eeeeeeeeeeeeeeeeeeeeeeeeeeeeeeeeeeeeeeed196001600160a01b038216016125b1578382600a0160008282546125a19190614e64565b9091555084935061073992505050565b6040516370a0823160e01b815230600482015281906000906001600160a01b038316906370a0823190602401602060405180830381865afa1580156125fa573d6000803e3d6000fd5b505050506040513d601f19601f8201168201806040525081019061261e9190614dbc565b905061262c83883089612022565b6040516370a0823160e01b81523060048201526000906001600160a01b038416906370a0823190602401602060405180830381865afa158015612673573d6000803e3d6000fd5b505050506040513d601f19601f820116820180604052508101906126979190614dbc565b905060006126a58383614b80565b90508781146126c757604051635894b54560e11b815260040160405180910390fd5b8086600a0160008282546126db9190614e64565b90915550909998505050505050505050565b60008281527f4775a23600034fdd9f073b224f794d51a58b35ba663a9602623ba7a5c09cce006020819052604082205490916001600160401b03909116908181036127435761273c8442614e77565b9050612750565b61274d8483614e77565b90505b60008581526020848152604091829020805467ffffffffffffffff19166001600160401b038516908117909155915191825286917f2ec2be2c4b90c2cf13ecb6751a24daed6bb741ae5ed3f7371aabf9402f6d62e8910160405180910390a25050505050565b6001600160a01b0381166127dd57604051635fbd571760e01b815260040160405180910390fd5b6127e56120ae565b1580159061280157506127f66120ae565b6127fe61187c565b10155b15610d3057604051637efcdb4960e01b815260040160405180910390fd5b600081815260008051602061532c8339815191526020819052604082208054908361284983614dd5565b909155509392505050565b60008281527f34516f6fe09a043d57f1ff579a303a7ae85314751c77b4eb1a55837604a86e026020526040902060008051602061532c833981519152906114208382614cfd565b806000036128bc5760405163acdc0d4960e01b815260040160405180910390fd5b8034146128dc5760405163acdc0d4960e01b815260040160405180910390fd5b600082815260008051602061538c83398151915260205260408120805460008051602061532c83398151915292849291612917908490614e64565b9091555050505050565b6060600061292d613a0f565b80519091506000816001600160401b0381111561294c5761294c6145a1565b604051908082528060200260200182016040528015612975578160200160208202803683370190505b5085516020870120909150600090815b84811015612a445760006129b18783815181106129a4576129a4614b93565b6020026020010151613a3a565b509250505060005b8151811015612a3a57838282815181106129d5576129d5614b93565b60200260200101518051906020012003612a32578783815181106129fb576129fb614b93565b6020026020010151868681518110612a1557612a15614b93565b602090810291909101015284612a2a81614dd5565b955050612a3a565b6001016129b9565b5050600101612985565b506000826001600160401b03811115612a5f57612a5f6145a1565b604051908082528060200260200182016040528015612ac457816020015b612ab16040518060a00160405280600081526020016060815260200160001515815260200160608152602001606081525090565b815260200190600190039081612a7d5790505b50905060005b83811015612b5f576000858281518110612ae657612ae6614b93565b60200260200101519050600080600080612aff85613a3a565b93509350935093506040518060a00160405280868152602001858152602001841515815260200183815260200182815250878781518110612b4257612b42614b93565b602002602001018190525050505050508080600101915050612aca565b50979650505050505050565b60606000612b776136df565b6006015460405162468b7360e31b81526001600160a01b038581166004830152909116915060009082906302345b9890602401600060405180830381865afa158015612bc7573d6000803e3d6000fd5b505050506040513d6000823e601f3d908101601f19168201604052612bef9190810190614eba565b604051631f04207360e31b81526001600160a01b03868116600483015291925060009184169063f821039890602401602060405180830381865afa158015612c3b573d6000803e3d6000fd5b505050506040513d601f19601f82011682018060405250810190612c5f9190614c98565b905081516000148015612c7a57506001600160a01b03811615155b15612cf45760405162468b7360e31b81526001600160a01b03808316600483015291955085918416906302345b9890602401600060405180830381865afa158015612cc9573d6000803e3d6000fd5b505050506040513d6000823e601f3d908101601f19168201604052612cf19190810190614eba565b91505b81516000612d03826001614e64565b6001600160401b03811115612d1a57612d1a6145a1565b604051908082528060200260200182016040528015612d43578160200160208202803683370190505b50905060005b82811015612d9d57848181518110612d6357612d63614b93565b6020026020010151828281518110612d7d57612d7d614b93565b6001600160a01b0390921660209283029190910190910152600101612d49565b5086818381518110612db157612db1614b93565b6001600160a01b03909216602092830291909101909101529695505050505050565b600080612ddf83613b4a565b806020019051810190612df29190614f4d565b915091506000612e036107db61187c565b90506000612e0f6134c0565b90508115612ed457600085815260008051602061538c833981519152602052604081205490819003612e5457604051635894b54560e11b815260040160405180910390fd5b80831115612e7557604051635894b54560e11b815260040160405180910390fd5b612e7f82846134d0565b6000612e8b8685612437565b90506000612e998286614b80565b90508015612ead57612eab878261254f565b505b612eb788866131d7565b612ed08860405180602001604052806000815250612854565b5050505b612edf8360016135a3565b612eeb81610e716123b1565b60405181906001600160a01b038516907f2f40b0474996b72a4251e00fb9170cdd960deea1dc749772cbbab61395b9b57690600090a35050505050565b60008381526000805160206152ec8339815191526020526040902080546000805160206152cc833981519152919060ff161515600103612fba5760005b6004820154811015612fb85783826004018281548110612f8757612f87614b93565b906000526020600020015403612fb0576040516301ab53df60e31b815260040160405180910390fd5b600101612f65565b505b81546001600160a01b0316612fd157612fd1613c1b565b8154604051634f84544560e01b8152600560048201526000916001600160a01b031690634f84544590602401600060405180830381865afa15801561301a573d6000803e3d6000fd5b505050506040513d6000823e601f3d908101601f191682016040526130429190810190614eba565b825490915060ff166130835781546003830180546001600160a01b0319166001600160a01b0388161790556001600160a81b03191661010033021760011782555b600482018054600181018255600091825260208220018590555b81518110156131735782600101600086815260200190815260200160002060405180604001604052808484815181106130d8576130d8614b93565b60200260200101516001600160a01b031681526020016000600281111561310157613101614855565b9052815460018101835560009283526020928390208251910180546001600160a01b031981166001600160a01b03909316928317825593830151929390929183916001600160a81b03191617600160a01b83600281111561316457613164614855565b0217905550505060010161309d565b50825460405163541da4e560e01b81526001600160a01b039091169063541da4e5906131a99033908a9089908790600401614f7c565b600060405180830381600087803b1580156131c357600080fd5b505af1158015611d83573d6000803e3d6000fd5b600082815260008051602061538c83398151915260205260408120805460008051602061532c83398151915292849291612917908490614b80565b61323660405180606001604052806060815260200160608152602001606081525090565b60008381526000805160206152ec8339815191526020526040812080546000805160206152cc8339815191529260ff9091161515900361328957604051637ad5a43960e11b815260040160405180910390fd5b600381015460405163069a3ee960e01b8152600481018690526001600160a01b0390911690600090829063069a3ee990602401600060405180830381865afa1580156132d9573d6000803e3d6000fd5b505050506040513d6000823e601f3d908101601f19168201604052613301919081019061511a565b979650505050505050565b60606133166136df565b600c0180546106ab90614b36565b8082101561074b57604051636664d51760e11b815260040160405180910390fd5b8061334e6136df565b6003015550565b604051630a85bd0160e11b81526000906001600160a01b0385169063150b7a029061338a903390899088908890600401615257565b6020604051808303816000875af19250505080156133c5575060408051601f3d908101601f191682019092526133c29181019061528a565b60015b613423573d8080156133f3576040519150601f19603f3d011682016040523d82523d6000602084013e6133f8565b606091505b50805160000361341b576040516368d2bf6b60e11b815260040160405180910390fd5b805181602001fd5b6001600160e01b031916630a85bd0160e11b149050949350505050565b600061344a611675565b54821080156107395750600160e01b613461611675565b60008481526004919091016020526040902054161592915050565b606060a06040510180604052602081039150506000815280825b600183039250600a81066030018353600a9004806134965750819003601f19909101908152919050565b60006134ca611675565b54919050565b806134d96136df565b600093845260090160205260409092209190915550565b60008181527f3c2290b88407133303e904ceb4ee7d0d14164eda8a629372d8406216ceb57e006020819052604082205461ffff1680830361353657600092505050610739565b60008481526001808401602090815260409283902083518085019094528054808552920154908301521580159061357a5750805142108061357a5750806020015142115b1561358b5760009350505050610739565b613599868361ffff1661399a565b9695505050505050565b61074b828260405180602001604052806000815250613ccf565b6001600160a01b0381166135e457604051630e88bf4b60e01b815260040160405180910390fd5b6135ec61235a565b6040516346fc05eb60e11b81526001600160a01b0383811660048301529190911690638df80bd690602401602060405180830381865afa158015613634573d6000803e3d6000fd5b505050506040513d601f19601f820116820180604052508101906136589190614ba9565b610d3057604051630e88bf4b60e01b815260040160405180910390fd5b8061367e6136df565b60080180546001600160a01b0319166001600160a01b039290921691909117905550565b60006136ac611675565b6001600160a01b039384166000908152600791909101602090815260408083209490951682529290925250205460ff1690565b7fc21004fcc619240a31f006438274d15cd813308303284436eef6055f0fdcb60090565b600181600281111561371757613717614855565b036137255761074b82612dd3565b60008061373184613b4a565b8060200190518101906137449190614f4d565b915091506137618460405180602001604052806000815250612854565b61376b8483613d45565b6040516001600160a01b038216907f86fd446d5c04e892d58b448a924dcd9c3ece3a5e0d2960b8c35cd475a5595a1f90600090a250505050565b60008181526000805160206152ec833981519152602052604081206000805160206152cc833981519152915b6004820154811015613825578160010160008360040183815481106137f8576137f8614b93565b90600052602060002001548152602001908152602001600020600061381d9190614368565b6001016137d1565b50613834600482016000614386565b6000838152600183016020526040812080546001600160a81b03191681556003810180546001600160a01b031916905590610cc96004830182614386565b600061387c611675565b90506002810161388c8482614cfd565b506003810161389b8382614cfd565b50600090555050565b6000826001600160a01b03168260405160006040518083038185875af1925050503d80600081146138f1576040519150601f19603f3d011682016040523d82523d6000602084013e6138f6565b606091505b5050905080610a015760405162461bcd60e51b815260206004820152601c60248201527f6e617469766520746f6b656e207472616e73666572206661696c6564000000006044820152606401610786565b816001600160a01b0316836001600160a01b0316031561142057306001600160a01b03841603613985576120576001600160a01b0385168383613d7c565b6114206001600160a01b038516848484613ddb565b60006127108211156139f85760405162461bcd60e51b815260206004820152602160248201527f426173697320706f696e74732063616e6e6f74206578636565642031305f30306044820152600360fc1b6064820152608401610786565b612710613a0583856152b4565b6112d79190614dee565b60606107e07f672ef851d5f92307da037116e23aa9e31af7e1f7e3ca62c4e6d540631df3fd01613e14565b600081815260008051602061534c83398151915260205260408120805460609291839182917f672ef851d5f92307da037116e23aa9e31af7e1f7e3ca62c4e6d540631df3fd0091613a8a90614b36565b80601f0160208091040260200160405190810160405280929190818152602001828054613ab690614b36565b8015613b035780601f10613ad857610100808354040283529160200191613b03565b820191906000526020600020905b815481529060010190602001808311613ae657829003601f168201915b50505060008981526003850160205260409020600181015493985060ff9093169650613b35926002019150613e219050565b9250613b4086613e2c565b9150509193509193565b60008181527f34516f6fe09a043d57f1ff579a303a7ae85314751c77b4eb1a55837604a86e0260205260409020805460609160008051602061532c83398151915291613b9590614b36565b80601f0160208091040260200160405190810160405280929190818152602001828054613bc190614b36565b8015613c0e5780601f10613be357610100808354040283529160200191613c0e565b820191906000526020600020905b815481529060010190602001808311613bf157829003601f168201915b5050505050915050919050565b6000805160206152cc8339815191526000613c346136df565b60060154604051628956cd60e71b81526c29b830b1b2a7b832b930ba37b960991b60048201526001600160a01b03909116906344ab668090602401602060405180830381865afa158015613c8c573d6000803e3d6000fd5b505050506040513d601f19601f82011682018060405250810190613cb09190614c98565b82546001600160a01b0319166001600160a01b03919091161790915550565b613cd98383613f30565b6001600160a01b0383163b15610a01576000613cf3611675565b5490508281035b613d0d6000868380600101945086613355565b613d2a576040516368d2bf6b60e11b815260040160405180910390fd5b818110613cfa5781613d3a611675565b5414610cc957600080fd5b600082815260008051602061538c83398151915260205260409020548015610a0157613d7183826131d7565b610a01610b6d612006565b6040516001600160a01b03838116602483015260448201839052610a0191859182169063a9059cbb906064015b604051602081830303815290604052915060e01b6020820180516001600160e01b03838183161783525050505061406b565b6040516001600160a01b0384811660248301528381166044830152606482018390526114209186918216906323b872dd90608401613da9565b606060006112d7836140ce565b60606107398261412a565b600081815260008051602061534c8339815191526020526040812060609190613e5790600401614207565b6001600160401b03811115613e6e57613e6e6145a1565b604051908082528060200260200182016040528015613e97578160200160208202803683370190505b50905060005b600084815260008051602061534c83398151915260205260409020613ec490600401614207565b811015613f2957600084815260008051602061534c83398151915260205260408120613ef39060040183614211565b905080838381518110613f0857613f08614b93565b6001600160a01b039092166020928302919091019091015250600101613e9d565b5092915050565b6000613f3a611675565b5490506000829003613f5f5760405163b562e8dd60e01b815260040160405180910390fd5b680100000000000000018202613f73611675565b6001600160a01b038516600081815260059290920160205260409091208054929092019091554260a01b6001841460e11b1717613fae611675565b600083815260049190910160205260408120919091556001600160a01b0384169083830190839083907fddf252ad1be2c89b69c2b068fc378daa952ba7f163c4a11628f55a4df523b3ef8180a4600183015b81811461403857808360007fddf252ad1be2c89b69c2b068fc378daa952ba7f163c4a11628f55a4df523b3ef600080a4600101614000565b508160000361405957604051622e076360e81b815260040160405180910390fd5b80614062611675565b5550610a019050565b60006140806001600160a01b0384168361421d565b905080516000141580156140a55750808060200190518101906140a39190614ba9565b155b15610a0157604051635274afe760e01b81526001600160a01b0384166004820152602401610786565b60608160000180548060200260200160405190810160405280929190818152602001828054801561411e57602002820191906000526020600020905b81548152602001906001019080831161410a575b50505050509050919050565b606081600001805480602002602001604051908101604052809291908181526020016000905b828210156141fc57838290600052602060002001805461416f90614b36565b80601f016020809104026020016040519081016040528092919081815260200182805461419b90614b36565b80156141e85780601f106141bd576101008083540402835291602001916141e8565b820191906000526020600020905b8154815290600101906020018083116141cb57829003601f168201915b505050505081526020019060010190614150565b505050509050919050565b6000610739825490565b60006112d7838361422b565b60606112d783836000614255565b600082600001828154811061424257614242614b93565b9060005260206000200154905092915050565b60608147101561427a5760405163cd78605960e01b8152306004820152602401610786565b600080856001600160a01b031684866040516142969190614bc6565b60006040518083038185875af1925050503d80600081146142d3576040519150601f19603f3d011682016040523d82523d6000602084013e6142d8565b606091505b50915091506135998683836060826142f8576142f38261433f565b6112d7565b815115801561430f57506001600160a01b0384163b155b1561433857604051639996b31560e01b81526001600160a01b0385166004820152602401610786565b50806112d7565b80511561434f5780518082602001fd5b604051630a12f52160e11b815260040160405180910390fd5b5080546000825590600052602060002090810190610d3091906143a4565b5080546000825590600052602060002090810190610d3091906143c7565b5b808211156143c35780546001600160a81b03191681556001016143a5565b5090565b5b808211156143c357600081556001016143c8565b60005b838110156143f75781810151838201526020016143df565b50506000910152565b600081518084526144188160208601602086016143dc565b601f01601f19169290920160200192915050565b6020815260006112d76020830184614400565b60006020828403121561445157600080fd5b5035919050565b6001600160a01b0381168114610d3057600080fd5b803561447881614458565b919050565b6000806040838503121561449057600080fd5b823561449b81614458565b946020939093013593505050565b600080602083850312156144bc57600080fd5b82356001600160401b03808211156144d357600080fd5b818501915085601f8301126144e757600080fd5b8135818111156144f657600080fd5b86602082850101111561450857600080fd5b60209290920196919550909350505050565b60008060006060848603121561452f57600080fd5b833561453a81614458565b9250602084013561454a81614458565b929592945050506040919091013590565b60038110610d3057600080fd5b60008060006060848603121561457d57600080fd5b833592506020840135915060408401356145968161455b565b809150509250925092565b634e487b7160e01b600052604160045260246000fd5b60405161012081016001600160401b03811182821017156145da576145da6145a1565b60405290565b604051608081016001600160401b03811182821017156145da576145da6145a1565b604051606081016001600160401b03811182821017156145da576145da6145a1565b604080519081016001600160401b03811182821017156145da576145da6145a1565b604051601f8201601f191681016001600160401b038111828210171561466e5761466e6145a1565b604052919050565b60006001600160401b0383111561468f5761468f6145a1565b6146a2601f8401601f1916602001614646565b90508281528383830111156146b657600080fd5b828260208301376000602084830101529392505050565b600082601f8301126146de57600080fd5b6112d783833560208501614676565b6001600160401b0381168114610d3057600080fd5b8035614478816146ed565b6000806040838503121561472057600080fd5b82356001600160401b038082111561473757600080fd5b90840190610120828703121561474c57600080fd5b6147546145b7565b82358281111561476357600080fd5b61476f888286016146cd565b82525060208301358281111561478457600080fd5b614790888286016146cd565b60208301525060408301356040820152606083013560608201526147b660808401614702565b60808201526147c760a0840161446d565b60a08201526147d860c0840161446d565b60c082015260e083013560e082015261010091506147f782840161446d565b8282015280945050505061480d6020840161446d565b90509250929050565b60006020828403121561482857600080fd5b81356112d781614458565b6000806040838503121561484657600080fd5b50508035926020909101359150565b634e487b7160e01b600052602160045260246000fd5b60038110610d3057610d30614855565b60008151808452602080850194506020840160005b838110156148e55781518051600681106148ac576148ac614855565b885280840151848901526040808201516001600160a01b0316908901526060908101519088015260809096019590820190600101614890565b509495945050505050565b60008151808452602080850194506020840160005b838110156148e5578151805161491a8161486b565b88528084015160ff908116858a0152604091820151169088015260609096019590820190600101614905565b6020808252825160608383015280516080840181905260009291820190839060a08601905b808310156149a257835180516149808161486b565b835285015160ff1685830152928401926001929092019160409091019061496b565b50838701519350601f199250828682030160408701526149c2818561487b565b9350505060408501518185840301606086015261359983826148f0565b8015158114610d3057600080fd5b60008060408385031215614a0057600080fd5b8235614a0b81614458565b91506020830135614a1b816149df565b809150509250929050565b60008060008060808587031215614a3c57600080fd5b8435614a4781614458565b93506020850135614a5781614458565b92506040850135915060608501356001600160401b03811115614a7957600080fd5b8501601f81018713614a8a57600080fd5b614a9987823560208401614676565b91505092959194509250565b60008060408385031215614ab857600080fd5b82356001600160401b0380821115614acf57600080fd5b614adb868387016146cd565b93506020850135915080821115614af157600080fd5b50614afe858286016146cd565b9150509250929050565b60008060408385031215614b1b57600080fd5b8235614b2681614458565b91506020830135614a1b81614458565b600181811c90821680614b4a57607f821691505b602082108103611aa557634e487b7160e01b600052602260045260246000fd5b634e487b7160e01b600052601160045260246000fd5b8181038181111561073957610739614b6a565b634e487b7160e01b600052603260045260246000fd5b600060208284031215614bbb57600080fd5b81516112d7816149df565b60008251614bd88184602087016143dc565b9190910192915050565b80516020808301519190811015611aa55760001960209190910360031b1b16919050565b60008151808452602080850194506020840160005b838110156148e55781516001600160a01b031687529582019590820190600101614c1b565b838152606060208201526000614c596060830185614c06565b9050826040830152949350505050565b60008351614c7b8184602088016143dc565b835190830190614c8f8183602088016143dc565b01949350505050565b600060208284031215614caa57600080fd5b81516112d781614458565b601f821115610a01576000816000526020600020601f850160051c81016020861015614cde5750805b601f850160051c820191505b818110156109de57828155600101614cea565b81516001600160401b03811115614d1657614d166145a1565b614d2a81614d248454614b36565b84614cb5565b602080601f831160018114614d5f5760008415614d475750858301515b600019600386901b1c1916600185901b1785556109de565b600085815260208120601f198616915b82811015614d8e57888601518255948401946001909101908401614d6f565b5085821015614dac5787850151600019600388901b60f8161c191681555b5050505050600190811b01905550565b600060208284031215614dce57600080fd5b5051919050565b600060018201614de757614de7614b6a565b5060010190565b600082614e0b57634e487b7160e01b600052601260045260246000fd5b500490565b60208101614e1d8361486b565b91905290565b600060208284031215614e3557600080fd5b81516112d7816146ed565b600060208284031215614e5257600080fd5b815161ffff811681146112d757600080fd5b8082018082111561073957610739614b6a565b6001600160401b03818116838216019080821115613f2957613f29614b6a565b60006001600160401b03821115614eb057614eb06145a1565b5060051b60200190565b60006020808385031215614ecd57600080fd5b82516001600160401b03811115614ee357600080fd5b8301601f81018513614ef457600080fd5b8051614f07614f0282614e97565b614646565b81815260059190911b82018301908381019087831115614f2657600080fd5b928401925b82841015613301578351614f3e81614458565b82529284019290840190614f2b565b60008060408385031215614f6057600080fd5b8251614f6b81614458565b6020840151909250614a1b81614458565b60018060a01b03851681528360208201528260408201526080606082015260006135996080830184614c06565b805160ff8116811461447857600080fd5b600082601f830112614fcb57600080fd5b81516020614fdb614f0283614e97565b82815260079290921b84018101918181019086841115614ffa57600080fd5b8286015b8481101561506457608081890312156150175760008081fd5b61501f6145e0565b81516006811061502f5760008081fd5b8152818501518582015260408083015161504881614458565b9082015260608281015190820152835291830191608001614ffe565b509695505050505050565b600082601f83011261508057600080fd5b81516020615090614f0283614e97565b828152606092830285018201928282019190878511156150af57600080fd5b8387015b8581101561510d5781818a0312156150cb5760008081fd5b6150d3614602565b81516150de8161455b565b81526150eb828701614fa9565b8682015260406150fc818401614fa9565b9082015284529284019281016150b3565b5090979650505050505050565b6000602080838503121561512d57600080fd5b82516001600160401b038082111561514457600080fd5b908401906060828703121561515857600080fd5b615160614602565b82518281111561516f57600080fd5b8301601f8101881361518057600080fd5b805161518e614f0282614e97565b81815260069190911b8201860190868101908a8311156151ad57600080fd5b928701925b82841015615201576040848c0312156151cb5760008081fd5b6151d3614624565b84516151de8161455b565b81526151eb858a01614fa9565b818a0152825260409390930192908701906151b2565b8452505050828401518281111561521757600080fd5b61522388828601614fba565b8583015250604083015193508184111561523c57600080fd5b6152488785850161506f565b60408201529695505050505050565b6001600160a01b038581168252841660208201526040810183905260806060820181905260009061359990830184614400565b60006020828403121561529c57600080fd5b81516001600160e01b0319811681146112d757600080fd5b808202811582820484141761073957610739614b6a56fe9075c515a635ba70c9696f31149324218d75cf00afe836c482e6473f38b19e009075c515a635ba70c9696f31149324218d75cf00afe836c482e6473f38b19e0154f22f54f370bd020e00ee80e1a5099a71652e2ccbcf6a75281e4c70a3e11a0034516f6fe09a043d57f1ff579a303a7ae85314751c77b4eb1a55837604a86e00672ef851d5f92307da037116e23aa9e31af7e1f7e3ca62c4e6d540631df3fd0359b501c3653afc186af7d48dda36cf6732bd21629a6295693664240a6ef5200034516f6fe09a043d57f1ff579a303a7ae85314751c77b4eb1a55837604a86e01","linkReferences":{}},"methodIdentifiers":{"__ERC721A_init(string,string)":"d2f01f19","__EntitlementGated_init(address)":"7adc9cbe","__Membership_init((string,string,uint256,uint256,uint64,address,address,uint256,address),address)":"4c2abfbe","approve(address,uint256)":"095ea7b3","balanceOf(address)":"70a08231","expiresAt(uint256)":"17c95709","getApproved(uint256)":"081812fc","getMembershipCurrency()":"657e45e8","getMembershipDuration()":"8120f0ba","getMembershipFreeAllocation()":"706b8e09","getMembershipImage()":"93b13cb7","getMembershipLimit()":"95d600c8","getMembershipPrice()":"1278076a","getMembershipPricingModule()":"e847abdd","getMembershipRenewalPrice(uint256)":"5803909f","getRuleData(bytes32,uint256)":"92c399ff","getSpaceFactory()":"79dda585","isApprovedForAll(address,address)":"e985e9c5","joinSpace(address)":"8c625b06","joinSpaceWithReferral(address,address,uint256)":"c9f7c833","name()":"06fdde03","ownerOf(uint256)":"6352211e","postEntitlementCheckResult(bytes32,uint256,uint8)":"4739e805","renewMembership(uint256)":"7c9669ac","safeTransferFrom(address,address,uint256)":"42842e0e","safeTransferFrom(address,address,uint256,bytes)":"b88d4fde","setApprovalForAll(address,bool)":"a22cb465","setMembershipFreeAllocation(uint256)":"5becd24a","setMembershipImage(string)":"0ef1be5f","setMembershipLimit(uint256)":"97fb7c1e","setMembershipPrice(uint256)":"69d5f38a","setMembershipPricingModule(address)":"df9a9fe6","symbol()":"95d89b41","tokenURI(uint256)":"c87b56dd","totalSupply()":"18160ddd","transferFrom(address,address,uint256)":"23b872dd","withdraw(address)":"51cff8d9"},"id":209}