{"abi":[{"type":"constructor","inputs":[{"name":"approvedOperators","type":"address[]","internalType":"address[]"}],"stateMutability":"nonpayable"},{"type":"function","name":"__OperatorRegistry_init","inputs":[{"name":"initialOperators","type":"address[]","internalType":"address[]"}],"outputs":[],"stateMutability":"nonpayable"},{"type":"function","name":"__RiverConfig_init","inputs":[{"name":"configManagers","type":"address[]","internalType":"address[]"}],"outputs":[],"stateMutability":"nonpayable"},{"type":"function","name":"allocateStream","inputs":[{"name":"streamId","type":"bytes32","internalType":"bytes32"},{"name":"nodes","type":"address[]","internalType":"address[]"},{"name":"genesisMiniblockHash","type":"bytes32","internalType":"bytes32"},{"name":"genesisMiniblock","type":"bytes","internalType":"bytes"}],"outputs":[],"stateMutability":"nonpayable"},{"type":"function","name":"approveConfigurationManager","inputs":[{"name":"manager","type":"address","internalType":"address"}],"outputs":[],"stateMutability":"nonpayable"},{"type":"function","name":"approveOperator","inputs":[{"name":"operator","type":"address","internalType":"address"}],"outputs":[],"stateMutability":"nonpayable"},{"type":"function","name":"configurationExists","inputs":[{"name":"key","type":"bytes32","internalType":"bytes32"}],"outputs":[{"name":"","type":"bool","internalType":"bool"}],"stateMutability":"view"},{"type":"function","name":"deleteConfiguration","inputs":[{"name":"key","type":"bytes32","internalType":"bytes32"}],"outputs":[],"stateMutability":"nonpayable"},{"type":"function","name":"deleteConfigurationOnBlock","inputs":[{"name":"key","type":"bytes32","internalType":"bytes32"},{"name":"blockNumber","type":"uint64","internalType":"uint64"}],"outputs":[],"stateMutability":"nonpayable"},{"type":"function","name":"getAllConfiguration","inputs":[],"outputs":[{"name":"","type":"tuple[]","internalType":"struct Setting[]","components":[{"name":"key","type":"bytes32","internalType":"bytes32"},{"name":"blockNumber","type":"uint64","internalType":"uint64"},{"name":"value","type":"bytes","internalType":"bytes"}]}],"stateMutability":"view"},{"type":"function","name":"getAllNodeAddresses","inputs":[],"outputs":[{"name":"","type":"address[]","internalType":"address[]"}],"stateMutability":"view"},{"type":"function","name":"getAllNodes","inputs":[],"outputs":[{"name":"","type":"tuple[]","internalType":"struct Node[]","components":[{"name":"status","type":"uint8","internalType":"enum NodeStatus"},{"name":"url","type":"string","internalType":"string"},{"name":"nodeAddress","type":"address","internalType":"address"},{"name":"operator","type":"address","internalType":"address"}]}],"stateMutability":"view"},{"type":"function","name":"getAllStreamIds","inputs":[],"outputs":[{"name":"","type":"bytes32[]","internalType":"bytes32[]"}],"stateMutability":"view"},{"type":"function","name":"getAllStreams","inputs":[],"outputs":[{"name":"","type":"tuple[]","internalType":"struct StreamWithId[]","components":[{"name":"id","type":"bytes32","internalType":"bytes32"},{"name":"stream","type":"tuple","internalType":"struct Stream","components":[{"name":"lastMiniblockHash","type":"bytes32","internalType":"bytes32"},{"name":"lastMiniblockNum","type":"uint64","internalType":"uint64"},{"name":"reserved0","type":"uint64","internalType":"uint64"},{"name":"flags","type":"uint64","internalType":"uint64"},{"name":"nodes","type":"address[]","internalType":"address[]"}]}]}],"stateMutability":"view"},{"type":"function","name":"getConfiguration","inputs":[{"name":"key","type":"bytes32","internalType":"bytes32"}],"outputs":[{"name":"","type":"tuple[]","internalType":"struct Setting[]","components":[{"name":"key","type":"bytes32","internalType":"bytes32"},{"name":"blockNumber","type":"uint64","internalType":"uint64"},{"name":"value","type":"bytes","internalType":"bytes"}]}],"stateMutability":"view"},{"type":"function","name":"getNode","inputs":[{"name":"nodeAddress","type":"address","internalType":"address"}],"outputs":[{"name":"","type":"tuple","internalType":"struct Node","components":[{"name":"status","type":"uint8","internalType":"enum NodeStatus"},{"name":"url","type":"string","internalType":"string"},{"name":"nodeAddress","type":"address","internalType":"address"},{"name":"operator","type":"address","internalType":"address"}]}],"stateMutability":"view"},{"type":"function","name":"getNodeCount","inputs":[],"outputs":[{"name":"","type":"uint256","internalType":"uint256"}],"stateMutability":"view"},{"type":"function","name":"getPaginatedStreams","inputs":[{"name":"start","type":"uint256","internalType":"uint256"},{"name":"stop","type":"uint256","internalType":"uint256"}],"outputs":[{"name":"","type":"tuple[]","internalType":"struct StreamWithId[]","components":[{"name":"id","type":"bytes32","internalType":"bytes32"},{"name":"stream","type":"tuple","internalType":"struct Stream","components":[{"name":"lastMiniblockHash","type":"bytes32","internalType":"bytes32"},{"name":"lastMiniblockNum","type":"uint64","internalType":"uint64"},{"name":"reserved0","type":"uint64","internalType":"uint64"},{"name":"flags","type":"uint64","internalType":"uint64"},{"name":"nodes","type":"address[]","internalType":"address[]"}]}]},{"name":"","type":"bool","internalType":"bool"}],"stateMutability":"view"},{"type":"function","name":"getStream","inputs":[{"name":"streamId","type":"bytes32","internalType":"bytes32"}],"outputs":[{"name":"","type":"tuple","internalType":"struct Stream","components":[{"name":"lastMiniblockHash","type":"bytes32","internalType":"bytes32"},{"name":"lastMiniblockNum","type":"uint64","internalType":"uint64"},{"name":"reserved0","type":"uint64","internalType":"uint64"},{"name":"flags","type":"uint64","internalType":"uint64"},{"name":"nodes","type":"address[]","internalType":"address[]"}]}],"stateMutability":"view"},{"type":"function","name":"getStreamByIndex","inputs":[{"name":"i","type":"uint256","internalType":"uint256"}],"outputs":[{"name":"","type":"tuple","internalType":"struct StreamWithId","components":[{"name":"id","type":"bytes32","internalType":"bytes32"},{"name":"stream","type":"tuple","internalType":"struct Stream","components":[{"name":"lastMiniblockHash","type":"bytes32","internalType":"bytes32"},{"name":"lastMiniblockNum","type":"uint64","internalType":"uint64"},{"name":"reserved0","type":"uint64","internalType":"uint64"},{"name":"flags","type":"uint64","internalType":"uint64"},{"name":"nodes","type":"address[]","internalType":"address[]"}]}]}],"stateMutability":"view"},{"type":"function","name":"getStreamCount","inputs":[],"outputs":[{"name":"","type":"uint256","internalType":"uint256"}],"stateMutability":"view"},{"type":"function","name":"getStreamWithGenesis","inputs":[{"name":"streamId","type":"bytes32","internalType":"bytes32"}],"outputs":[{"name":"","type":"tuple","internalType":"struct Stream","components":[{"name":"lastMiniblockHash","type":"bytes32","internalType":"bytes32"},{"name":"lastMiniblockNum","type":"uint64","internalType":"uint64"},{"name":"reserved0","type":"uint64","internalType":"uint64"},{"name":"flags","type":"uint64","internalType":"uint64"},{"name":"nodes","type":"address[]","internalType":"address[]"}]},{"name":"","type":"bytes32","internalType":"bytes32"},{"name":"","type":"bytes","internalType":"bytes"}],"stateMutability":"view"},{"type":"function","name":"getStreamsOnNode","inputs":[{"name":"nodeAddress","type":"address","internalType":"address"}],"outputs":[{"name":"","type":"tuple[]","internalType":"struct StreamWithId[]","components":[{"name":"id","type":"bytes32","internalType":"bytes32"},{"name":"stream","type":"tuple","internalType":"struct Stream","components":[{"name":"lastMiniblockHash","type":"bytes32","internalType":"bytes32"},{"name":"lastMiniblockNum","type":"uint64","internalType":"uint64"},{"name":"reserved0","type":"uint64","internalType":"uint64"},{"name":"flags","type":"uint64","internalType":"uint64"},{"name":"nodes","type":"address[]","internalType":"address[]"}]}]}],"stateMutability":"view"},{"type":"function","name":"isConfigurationManager","inputs":[{"name":"manager","type":"address","internalType":"address"}],"outputs":[{"name":"","type":"bool","internalType":"bool"}],"stateMutability":"view"},{"type":"function","name":"isOperator","inputs":[{"name":"operator","type":"address","internalType":"address"}],"outputs":[{"name":"","type":"bool","internalType":"bool"}],"stateMutability":"view"},{"type":"function","name":"placeStreamOnNode","inputs":[{"name":"streamId","type":"bytes32","internalType":"bytes32"},{"name":"nodeAddress","type":"address","internalType":"address"}],"outputs":[],"stateMutability":"nonpayable"},{"type":"function","name":"registerNode","inputs":[{"name":"nodeAddress","type":"address","internalType":"address"},{"name":"url","type":"string","internalType":"string"},{"name":"status","type":"uint8","internalType":"enum NodeStatus"}],"outputs":[],"stateMutability":"nonpayable"},{"type":"function","name":"removeConfigurationManager","inputs":[{"name":"manager","type":"address","internalType":"address"}],"outputs":[],"stateMutability":"nonpayable"},{"type":"function","name":"removeNode","inputs":[{"name":"nodeAddress","type":"address","internalType":"address"}],"outputs":[],"stateMutability":"nonpayable"},{"type":"function","name":"removeOperator","inputs":[{"name":"operator","type":"address","internalType":"address"}],"outputs":[],"stateMutability":"nonpayable"},{"type":"function","name":"removeStreamFromNode","inputs":[{"name":"streamId","type":"bytes32","internalType":"bytes32"},{"name":"nodeAddress","type":"address","internalType":"address"}],"outputs":[],"stateMutability":"nonpayable"},{"type":"function","name":"setConfiguration","inputs":[{"name":"key","type":"bytes32","internalType":"bytes32"},{"name":"blockNumber","type":"uint64","internalType":"uint64"},{"name":"value","type":"bytes","internalType":"bytes"}],"outputs":[],"stateMutability":"nonpayable"},{"type":"function","name":"setStreamLastMiniblock","inputs":[{"name":"streamId","type":"bytes32","internalType":"bytes32"},{"name":"","type":"bytes32","internalType":"bytes32"},{"name":"lastMiniblockHash","type":"bytes32","internalType":"bytes32"},{"name":"lastMiniblockNum","type":"uint64","internalType":"uint64"},{"name":"isSealed","type":"bool","internalType":"bool"}],"outputs":[],"stateMutability":"nonpayable"},{"type":"function","name":"updateNodeStatus","inputs":[{"name":"nodeAddress","type":"address","internalType":"address"},{"name":"status","type":"uint8","internalType":"enum NodeStatus"}],"outputs":[],"stateMutability":"nonpayable"},{"type":"function","name":"updateNodeUrl","inputs":[{"name":"nodeAddress","type":"address","internalType":"address"},{"name":"url","type":"string","internalType":"string"}],"outputs":[],"stateMutability":"nonpayable"},{"type":"event","name":"ConfigurationChanged","inputs":[{"name":"key","type":"bytes32","indexed":false,"internalType":"bytes32"},{"name":"block","type":"uint64","indexed":false,"internalType":"uint64"},{"name":"value","type":"bytes","indexed":false,"internalType":"bytes"},{"name":"deleted","type":"bool","indexed":false,"internalType":"bool"}],"anonymous":false},{"type":"event","name":"ConfigurationManagerAdded","inputs":[{"name":"manager","type":"address","indexed":true,"internalType":"address"}],"anonymous":false},{"type":"event","name":"ConfigurationManagerRemoved","inputs":[{"name":"manager","type":"address","indexed":true,"internalType":"address"}],"anonymous":false},{"type":"event","name":"Initialized","inputs":[{"name":"version","type":"uint32","indexed":false,"internalType":"uint32"}],"anonymous":false},{"type":"event","name":"InterfaceAdded","inputs":[{"name":"interfaceId","type":"bytes4","indexed":true,"internalType":"bytes4"}],"anonymous":false},{"type":"event","name":"InterfaceRemoved","inputs":[{"name":"interfaceId","type":"bytes4","indexed":true,"internalType":"bytes4"}],"anonymous":false},{"type":"event","name":"NodeAdded","inputs":[{"name":"nodeAddress","type":"address","indexed":true,"internalType":"address"},{"name":"url","type":"string","indexed":false,"internalType":"string"},{"name":"status","type":"uint8","indexed":false,"internalType":"enum NodeStatus"}],"anonymous":false},{"type":"event","name":"NodeRemoved","inputs":[{"name":"nodeAddress","type":"address","indexed":true,"internalType":"address"}],"anonymous":false},{"type":"event","name":"NodeStatusUpdated","inputs":[{"name":"nodeAddress","type":"address","indexed":true,"internalType":"address"},{"name":"status","type":"uint8","indexed":false,"internalType":"enum NodeStatus"}],"anonymous":false},{"type":"event","name":"NodeUrlUpdated","inputs":[{"name":"nodeAddress","type":"address","indexed":true,"internalType":"address"},{"name":"url","type":"string","indexed":false,"internalType":"string"}],"anonymous":false},{"type":"event","name":"OperatorAdded","inputs":[{"name":"operatorAddress","type":"address","indexed":true,"internalType":"address"}],"anonymous":false},{"type":"event","name":"OperatorRemoved","inputs":[{"name":"operatorAddress","type":"address","indexed":true,"internalType":"address"}],"anonymous":false},{"type":"event","name":"OwnershipTransferred","inputs":[{"name":"previousOwner","type":"address","indexed":true,"internalType":"address"},{"name":"newOwner","type":"address","indexed":true,"internalType":"address"}],"anonymous":false},{"type":"event","name":"StreamAllocated","inputs":[{"name":"streamId","type":"bytes32","indexed":false,"internalType":"bytes32"},{"name":"nodes","type":"address[]","indexed":false,"internalType":"address[]"},{"name":"genesisMiniblockHash","type":"bytes32","indexed":false,"internalType":"bytes32"},{"name":"genesisMiniblock","type":"bytes","indexed":false,"internalType":"bytes"}],"anonymous":false},{"type":"event","name":"StreamLastMiniblockUpdated","inputs":[{"name":"streamId","type":"bytes32","indexed":false,"internalType":"bytes32"},{"name":"lastMiniblockHash","type":"bytes32","indexed":false,"internalType":"bytes32"},{"name":"lastMiniblockNum","type":"uint64","indexed":false,"internalType":"uint64"},{"name":"isSealed","type":"bool","indexed":false,"internalType":"bool"}],"anonymous":false},{"type":"event","name":"StreamPlacementUpdated","inputs":[{"name":"streamId","type":"bytes32","indexed":false,"internalType":"bytes32"},{"name":"nodeAddress","type":"address","indexed":false,"internalType":"address"},{"name":"isAdded","type":"bool","indexed":false,"internalType":"bool"}],"anonymous":false},{"type":"error","name":"Initializable_InInitializingState","inputs":[]},{"type":"error","name":"Initializable_NotInInitializingState","inputs":[]},{"type":"error","name":"Introspection_AlreadySupported","inputs":[]},{"type":"error","name":"Introspection_NotSupported","inputs":[]},{"type":"error","name":"Ownable__NotOwner","inputs":[{"name":"account","type":"address","internalType":"address"}]},{"type":"error","name":"Ownable__ZeroAddress","inputs":[]}],"bytecode":{"object":"0x60806040523480156200001157600080fd5b5060405162004ad638038062004ad68339810160408190526200003491620004a6565b6200003e620000c1565b620000493362000169565b60005b8151811015620000b957620000838282815181106200006f576200006f62000578565b60200260200101516200023760201b60201c565b620000b08282815181106200009c576200009c62000578565b60200260200101516200031c60201b60201c565b6001016200004c565b5050620005df565b7f59b501c3653afc186af7d48dda36cf6732bd21629a6295693664240a6ef520008054640100000000900460ff16156200010e576040516366008a2d60e01b815260040160405180910390fd5b805463ffffffff90811610156200016657805463ffffffff191663ffffffff90811782556040519081527fe9c9b456cb2994b80aeef036cf59d26e9617df80f816a6ee5a5b4166e07e2f5c9060200160405180910390a15b50565b60006200019d7f4675fa8241f86f37157864d3d49b85ad4b164352c516da28e1678a90470ae300546001600160a01b031690565b90506001600160a01b038216620001c757604051634e3ef82560e01b815260040160405180910390fd5b817f4675fa8241f86f37157864d3d49b85ad4b164352c516da28e1678a90470ae30080546001600160a01b0319166001600160a01b03928316179055604051838216918316907f8be0079c531659141344cd1fd0a4f28419497f9722a3daafe3b4186f6b6457e090600090a35050565b6001600160a01b038116620002865760408051808201825260078152664241445f41524760c81b6020820152905162461bcd60e51b81526200027d91906004016200058e565b60405180910390fd5b62000293600882620003e9565b15620002d757604080518082018252600e81526d414c52454144595f45584953545360901b6020820152905162461bcd60e51b81526200027d91906004016200058e565b620002e460088262000410565b506040516001600160a01b038216907fac6fa858e9350a46cec16539926e0fde25b7629f84b5a72bffaae4df888ae86d90600090a250565b6001600160a01b038116620003625760408051808201825260078152664241445f41524760c81b6020820152905162461bcd60e51b81526200027d91906004016200058e565b6200036f600d8262000410565b620003b257604080518082018252600e81526d414c52454144595f45584953545360901b6020820152905162461bcd60e51b81526200027d91906004016200058e565b6040516001600160a01b038216907f7afd798379ae2d2e5035438544cea2b60eb1dde6a8128e6d447fd2a25f8825a290600090a250565b6001600160a01b038116600090815260018301602052604081205415155b90505b92915050565b600062000407836001600160a01b03841660008181526001830160205260408120546200046a575081546001818101845560008481526020808220909301849055845484825282860190935260409020919091556200040a565b5060006200040a565b634e487b7160e01b600052604160045260246000fd5b80516001600160a01b0381168114620004a157600080fd5b919050565b60006020808385031215620004ba57600080fd5b82516001600160401b0380821115620004d257600080fd5b818501915085601f830112620004e757600080fd5b815181811115620004fc57620004fc62000473565b8060051b604051601f19603f8301168101818110858211171562000524576200052462000473565b6040529182528482019250838101850191888311156200054357600080fd5b938501935b828510156200056c576200055c8562000489565b8452938501939285019262000548565b98975050505050505050565b634e487b7160e01b600052603260045260246000fd5b60006020808352835180602085015260005b81811015620005be57858101830151858201604001528201620005a0565b506000604082860101526040601f19601f8301168501019250505092915050565b6144e780620005ef6000396000f3fe608060405234801561001057600080fd5b50600436106102065760003560e01c80639d2090481161011a578063c0f22084116100ad578063d4bd44a01161007c578063d4bd44a014610493578063d7a3158a146104a6578063ee885b12146104b9578063eecc66f4146104cc578063fc207c01146104df57600080fd5b8063c0f2208414610442578063c179b85f1461044a578063c8fe3a011461045d578063ca78c41a1461047257600080fd5b8063ac8a584a116100e9578063ac8a584a146103f6578063b2b99ec914610409578063b7f227ee1461041c578063ba428b1a1461042f57600080fd5b80639d2090481461039b5780639ee86d38146103bb578063a09449a6146103ce578063a1174e7d146103e157600080fd5b80633c2544d11161019d5780636d70f7ae1161016c5780636d70f7ae1461032a5780637e4465e71461034d578063813049ec1461036057806386789fc6146103735780639283ae3a1461038857600080fd5b80633c2544d1146102c2578063581f8b9b146102e457806368b454df146102f75780636b883c391461031757600080fd5b806331374511116101d9578063313745111461027157806332705ac41461028457806339bf397e146102a45780633bd84c0c146102ba57600080fd5b8063035759e11461020b578063081814db146102205780631290abe81461023e578063242cae9f1461025e575b600080fd5b61021e610219366004613727565b6104f2565b005b61022861065f565b6040516102359190613790565b60405180910390f35b61025161024c366004613727565b6108ca565b60405161023591906138ab565b61021e61026c3660046138da565b6109ec565b61021e61027f3660046138f5565b610a33565b6102976102923660046138da565b610ac4565b60405161023591906139ea565b6102ac610d74565b604051908152602001610235565b610297610d85565b6102d56102d0366004613727565b610ef6565b604051610235939291906139fd565b61021e6102f2366004613a41565b6110c7565b61030a610305366004613727565b611267565b6040516102359190613a74565b61021e610325366004613b3c565b61138e565b61033d6103383660046138da565b6115f3565b6040519015158152602001610235565b61021e61035b366004613c1f565b611606565b61021e61036e3660046138da565b6117fe565b61037b6118f9565b6040516102359190613c6c565b610228610396366004613727565b611905565b6103ae6103a93660046138da565b611a67565b6040516102359190613d3c565b61021e6103c9366004613d4f565b611be8565b61021e6103dc366004613d89565b611da5565b6103e9612026565b6040516102359190613e0f565b61021e6104043660046138da565b6121fa565b61021e6104173660046138da565b61235d565b61021e61042a366004613e73565b612526565b61021e61043d3660046138f5565b612775565b6102ac612801565b61021e6104583660046138da565b61280c565b610465612850565b6040516102359190613edb565b610485610480366004613eee565b61285c565b604051610235929190613f10565b61033d6104a13660046138da565b612a55565b61021e6104b4366004613f34565b612a62565b61021e6104c7366004613d4f565b612bed565b61021e6104da366004613f8d565b612e39565b61033d6104ed366004613727565b613003565b336104fe600d82613010565b6105415760408051808201825260088152670848288be82aaa8960c31b6020820152905162461bcd60e51b81526105389190600401613fea565b60405180910390fd5b8161054d600a82613035565b6105885760408051808201825260098152681393d517d193d5539160ba1b6020820152905162461bcd60e51b81526105389190600401613fea565b6000838152600c6020526040902054156105fb576000838152600c602052604090208054806105b9576105b9613ffd565b60008281526020812060036000199093019283020181815560018101805467ffffffffffffffff19169055906105f260028301826135d2565b50509055610588565b6000838152600c602052604081206106129161360c565b61061d600a8461304d565b506040805184815260006020820181905260808284018190528201526001606082015290516000805160206144c78339815191529181900360a00190a1505050565b606060008061066e600a613059565b905060005b818110156106af576000610688600a83613063565b6000818152600c60205260409020549091506106a49085614029565b935050600101610673565b506000826001600160401b038111156106ca576106ca613a87565b60405190808252806020026020018201604052801561071757816020015b604080516060808201835260008083526020830152918101919091528152602001906001900390816106e85790505b5090506000610726600a613059565b90506000805b828110156108bf576000610741600a83613063565b6000818152600c6020908152604080832080548251818502810185019093528083529495509293909291849084015b8282101561085457600084815260209081902060408051606081018252600386029092018054835260018101546001600160401b031693830193909352600283018054929392918401916107c39061403c565b80601f01602080910402602001604051908101604052809291908181526020018280546107ef9061403c565b801561083c5780601f106108115761010080835404028352916020019161083c565b820191906000526020600020905b81548152906001019060200180831161081f57829003601f168201915b50505050508152505081526020019060010190610770565b50505050905060005b81518110156108b15781818151811061087857610878614070565b602002602001015187868061088c90614086565b97508151811061089e5761089e614070565b602090810291909101015260010161085d565b50505080600101905061072c565b509195945050505050565b6040805160a08101825260008082526020820181905291810182905260608082018390526080820152906108fe9083613035565b6109395760408051808201825260098152681393d517d193d5539160ba1b6020820152905162461bcd60e51b81526105389190600401613fea565b600082815260026020818152604092839020835160a0810185528154815260018201546001600160401b0380821683860152600160401b8204811683880152600160801b90910416606082015292810180548551818502810185019096528086529394919360808601938301828280156109dc57602002820191906000526020600020905b81546001600160a01b031681526001909101906020018083116109be575b5050505050815250509050919050565b6109f461306f565b6001600160a01b0316336001600160a01b031614610a27576040516365f4906560e01b8152336004820152602401610538565b610a308161309d565b50565b7f59b501c3653afc186af7d48dda36cf6732bd21629a6295693664240a6ef5200054640100000000900460ff16610a7d57604051630ef4733760e31b815260040160405180910390fd5b60005b81811015610abf57610ab7838383818110610a9d57610a9d614070565b9050602002016020810190610ab291906138da565b61316f565b600101610a80565b505050565b60606000610ad181613059565b6001600160401b03811115610ae857610ae8613a87565b604051908082528060200260200182016040528015610b11578160200160208202803683370190505b5090506000805b610b226000613059565b811015610bd7576000610b358183613063565b60008181526002602052604081209192505b6002820154811015610bc957876001600160a01b0316826002018281548110610b7257610b72614070565b6000918252602090912001546001600160a01b031603610bc157828686610b988161409f565b975063ffffffff1681518110610bb057610bb0614070565b602002602001018181525050610bc9565b600101610b47565b505050806001019050610b18565b5060008163ffffffff166001600160401b03811115610bf857610bf8613a87565b604051908082528060200260200182016040528015610c3157816020015b610c1e61362d565b815260200190600190039081610c165790505b50905060005b8263ffffffff16811015610d6b576040518060400160405280858381518110610c6257610c62614070565b6020026020010151815260200160006002016000878581518110610c8857610c88614070565b6020908102919091018101518252818101929092526040908101600020815160a0810183528154815260018201546001600160401b0380821683870152600160401b8204811683860152600160801b909104166060820152600282018054845181870281018701909552808552919492936080860193909290830182828015610d3a57602002820191906000526020600020905b81546001600160a01b03168152600190910190602001808311610d1c575b505050505081525050815250828281518110610d5857610d58614070565b6020908102919091010152600101610c37565b50949350505050565b6000610d806005613059565b905090565b60606000610d9281613059565b6001600160401b03811115610da957610da9613a87565b604051908082528060200260200182016040528015610de257816020015b610dcf61362d565b815260200190600190039081610dc75790505b50905060005b610df26000613059565b811015610ef0576000610e058183613063565b60408051808201825282815260008381526002602081815291849020845160a0810186528154815260018201546001600160401b0380821683870152600160401b8204811683890152600160801b9091041660608201529181018054865181860281018601909752808752969750939583870195929491936080860193929190830182828015610ebe57602002820191906000526020600020905b81546001600160a01b03168152600190910190602001808311610ea0575b505050505081525050815250838381518110610edc57610edc614070565b602090810291909101015250600101610de8565b50919050565b6040805160a081018252600080825260208201819052918101829052606080820183905260808201819052909190610f2e8285613035565b610f695760408051808201825260098152681393d517d193d5539160ba1b6020820152905162461bcd60e51b81526105389190600401613fea565b600084815260026020818152604080842060048352818520546003845294829020825160a0810184528254815260018301546001600160401b0380821683880152600160401b8204811683870152600160801b9091041660608201529482018054845181870281018701909552808552929695919491938793608086019391929183018282801561102357602002820191906000526020600020905b81546001600160a01b03168152600190910190602001808311611005575b505050505081525050925080805461103a9061403c565b80601f01602080910402602001604051908101604052809291908181526020018280546110669061403c565b80156110b35780601f10611088576101008083540402835291602001916110b3565b820191906000526020600020905b81548152906001019060200180831161109657829003601f168201915b505050505090509250925092509193909250565b6001600160a01b0380831660009081526007602052604090206002015483911661112757604080518082018252600e81526d1393d11157d393d517d193d5539160921b6020820152905162461bcd60e51b81526105389190600401613fea565b33611133600882613010565b61116d5760408051808201825260088152670848288be82aaa8960c31b6020820152905162461bcd60e51b81526105389190600401613fea565b6001600160a01b03808516600090815260076020526040902060030154859133911681146111cb5760408051808201825260088152670848288be82aaa8960c31b6020820152905162461bcd60e51b81526105389190600401613fea565b6001600160a01b038616600090815260076020526040902080546111f29060ff1687613234565b80548690829060ff1916600183600581111561121057611210613cb0565b021790555060028101546040516001600160a01b03909116907f20891cc7622c7951cbd8c70c61a5201eb45625b8c00e8f6c986cfca78f3dbfa0906112569089906140c2565b60405180910390a250505050505050565b61126f61362d565b6112796000613059565b82106112b65760408051808201825260098152681393d517d193d5539160ba1b6020820152905162461bcd60e51b81526105389190600401613fea565b60006112c28184613063565b60408051808201825282815260008381526002602081815291849020845160a0810186528154815260018201546001600160401b0380821683870152600160401b8204811683890152600160801b909104166060820152918101805486518186028101860190975280875296975093958387019592949193608086019392919083018282801561137b57602002820191906000526020600020905b81546001600160a01b0316815260019091019060200180831161135d575b5050509190925250505090529392505050565b336000818152600760205260409020600201546001600160a01b03166113ea57604080518082018252600e81526d1393d11157d393d517d193d5539160921b6020820152905162461bcd60e51b81526105389190600401613fea565b6113f5600086613035565b1561143657604080518082018252600e81526d414c52454144595f45584953545360901b6020820152905162461bcd60e51b81526105389190600401613fea565b60005b84518110156114ba5761147285828151811061145757611457614070565b6020026020010151600060050161301090919063ffffffff16565b6114b257604080518082018252600e81526d1393d11157d393d517d193d5539160921b6020820152905162461bcd60e51b81526105389190600401613fea565b600101611439565b506040805160a0810182528481526000602082018190529181018290526060810182905260808101869052906114f090876133c7565b5060008681526002602081815260409283902084518155818501516001820180549587015160608801516001600160401b03908116600160801b0267ffffffffffffffff60801b19928216600160401b026fffffffffffffffffffffffffffffffff1990991691909416179690961795909516179093556080840151805185949361158093908501920190613677565b505050600086815260036020526040902061159b8482614135565b5060008681526004602052604090819020859055517f55ef7efc60ef99743e54209752c9a8e047e013917ec91572db75875069dd65bb906115e39088908890889088906141ee565b60405180910390a1505050505050565b6000611600600883613010565b92915050565b33611612600882613010565b61164c5760408051808201825260088152670848288be82aaa8960c31b6020820152905162461bcd60e51b81526105389190600401613fea565b6001600160a01b038084166000908152600760205260409020600201548491166116ac57604080518082018252600e81526d1393d11157d393d517d193d5539160921b6020820152905162461bcd60e51b81526105389190600401613fea565b6001600160a01b038085166000908152600760205260409020600301548591339116811461170a5760408051808201825260088152670848288be82aaa8960c31b6020820152905162461bcd60e51b81526105389190600401613fea565b6001600160a01b03861660009081526007602090815260409182902091516117349188910161422a565b604051602081830303815290604052805190602001208160010160405160200161175e9190614246565b60405160208183030381529060405280519060200120036117ae5760408051808201825260078152664241445f41524760c81b6020820152905162461bcd60e51b81526105389190600401613fea565b600181016117bc8782614135565b5060028101546040516001600160a01b03909116907f4505168a8705a16fd4d0575197fd0f510db69df93a065e158ad2c0957ba12bac90611256908990613fea565b61180661306f565b6001600160a01b0316336001600160a01b031614611839576040516365f4906560e01b8152336004820152602401610538565b6001600160a01b03811661187c5760408051808201825260078152664241445f41524760c81b6020820152905162461bcd60e51b81526105389190600401613fea565b611887600d826133d3565b6118c25760408051808201825260098152681393d517d193d5539160ba1b6020820152905162461bcd60e51b81526105389190600401613fea565b6040516001600160a01b038216907ff9889c857e5356066b564327caa757c325ecbc001b2b47d72edf8cf9aedb1be590600090a250565b6060610d8060006133e8565b606081611913600a82613035565b61194e5760408051808201825260098152681393d517d193d5539160ba1b6020820152905162461bcd60e51b81526105389190600401613fea565b6000838152600c6020908152604080832080548251818502810185019093528083529193909284015b82821015611a5b57600084815260209081902060408051606081018252600386029092018054835260018101546001600160401b031693830193909352600283018054929392918401916119ca9061403c565b80601f01602080910402602001604051908101604052809291908181526020018280546119f69061403c565b8015611a435780601f10611a1857610100808354040283529160200191611a43565b820191906000526020600020905b815481529060010190602001808311611a2657829003601f168201915b50505050508152505081526020019060010190611977565b50505050915050919050565b611a926040805160808101909152806000815260606020820181905260006040830181905291015290565b611a9d600583613010565b611add57604080518082018252600e81526d1393d11157d393d517d193d5539160921b6020820152905162461bcd60e51b81526105389190600401613fea565b6001600160a01b038216600090815260076020526040908190208151608081019092528054829060ff166005811115611b1857611b18613cb0565b6005811115611b2957611b29613cb0565b8152602001600182018054611b3d9061403c565b80601f0160208091040260200160405190810160405280929190818152602001828054611b699061403c565b8015611bb65780601f10611b8b57610100808354040283529160200191611bb6565b820191906000526020600020905b815481529060010190602001808311611b9957829003601f168201915b505050918352505060028201546001600160a01b03908116602083015260039092015490911660409091015292915050565b81611bf4600082613035565b611c2f5760408051808201825260098152681393d517d193d5539160ba1b6020820152905162461bcd60e51b81526105389190600401613fea565b6001600160a01b03808316600090815260076020526040902060020154839116611c8f57604080518082018252600e81526d1393d11157d393d517d193d5539160921b6020820152905162461bcd60e51b81526105389190600401613fea565b6000848152600260205260408120905b6002820154811015611d2857846001600160a01b0316826002018281548110611cca57611cca614070565b6000918252602090912001546001600160a01b031603611d2057604080518082018252600e81526d414c52454144595f45584953545360901b6020820152905162461bcd60e51b81526105389190600401613fea565b600101611c9f565b5060028101805460018082018355600092835260209283902090910180546001600160a01b0319166001600160a01b03881690811790915560408051898152938401919091528201527faaa473c28a5fe04b6a7ecd795826e462f9d0c23f00ef9f51ec02fa6ea418806f9060600160405180910390a15050505050565b33611db1600d82613010565b611deb5760408051808201825260088152670848288be82aaa8960c31b6020820152905162461bcd60e51b81526105389190600401613fea565b6000829003611e295760408051808201825260078152664241445f41524760c81b6020820152905162461bcd60e51b81526105389190600401613fea565b611e34600a86613035565b611e4557611e43600a866133c7565b505b6000858152600c6020526040812054905b81811015611f2c576000878152600c6020526040902080546001600160401b038816919083908110611e8a57611e8a614070565b60009182526020909120600160039092020101546001600160401b031603611f24576000878152600c6020526040902080548691869184908110611ed057611ed0614070565b90600052602060002090600302016002019182611eee9291906142bc565b506000805160206144c7833981519152878787876000604051611f15959493929190614375565b60405180910390a1505061201f565b600101611e56565b506000600c0160008781526020019081526020016000206040518060600160405280888152602001876001600160401b0316815260200186868080601f0160208091040260200160405190810160405280939291908181526020018383808284376000920182905250939094525050835460018082018655948252602091829020845160039092020190815590830151938101805467ffffffffffffffff19166001600160401b03909516949094179093555060408101519091906002820190611ff69082614135565b5050506000805160206144c78339815191528686868660006040516115e3959493929190614375565b5050505050565b606060006120346005613059565b6001600160401b0381111561204b5761204b613a87565b6040519080825280602002602001820160405280156120a757816020015b6120946040805160808101909152806000815260606020820181905260006040830181905291015290565b8152602001906001900390816120695790505b50905060005b6120b76005613059565b811015610ef057600760006120cd600584613063565b6001600160a01b03168152602081019190915260409081016000208151608081019092528054829060ff16600581111561210957612109613cb0565b600581111561211a5761211a613cb0565b815260200160018201805461212e9061403c565b80601f016020809104026020016040519081016040528092919081815260200182805461215a9061403c565b80156121a75780601f1061217c576101008083540402835291602001916121a7565b820191906000526020600020905b81548152906001019060200180831161218a57829003601f168201915b505050918352505060028201546001600160a01b03908116602083015260039092015490911660409091015282518390839081106121e7576121e7614070565b60209081029190910101526001016120ad565b61220261306f565b6001600160a01b0316336001600160a01b031614612235576040516365f4906560e01b8152336004820152602401610538565b612240600882613010565b61228457604080518082018252601281527113d41154905513d497d393d517d193d5539160721b6020820152905162461bcd60e51b81526105389190600401613fea565b60005b6122916005613059565b811015612319576001600160a01b038216600760006122b1600585613063565b6001600160a01b039081168252602082019290925260400160002060030154160361231157604080518082018252600d81526c4f55545f4f465f424f554e445360981b6020820152905162461bcd60e51b81526105389190600401613fea565b600101612287565b506123256008826133d3565b506040516001600160a01b038216907f80c0b871b97b595b16a7741c1b06fed0c6f6f558639f18ccbce50724325dc40d90600090a250565b6001600160a01b03808216600090815260076020526040902060030154829133911681146123bb5760408051808201825260088152670848288be82aaa8960c31b6020820152905162461bcd60e51b81526105389190600401613fea565b6001600160a01b038381166000908152600760205260409020600201541661241957604080518082018252600e81526d1393d11157d393d517d193d5539160921b6020820152905162461bcd60e51b81526105389190600401613fea565b60056001600160a01b03841660009081526007602052604090205460ff16600581111561244857612448613cb0565b146124915760408051808201825260168152751393d11157d4d510551157d393d517d0531313d5d15160521b6020820152905162461bcd60e51b81526105389190600401613fea565b61249c6005846133d3565b506001600160a01b0383166000908152600760205260408120805460ff19168155906124cb60018301826135d2565b506002810180546001600160a01b03199081169091556003909101805490911690556040516001600160a01b038416907fcfc24166db4bb677e857cacabd1541fb2b30645021b27c5130419589b84db52b90600090a2505050565b33612532600d82613010565b61256c5760408051808201825260088152670848288be82aaa8960c31b6020820152905162461bcd60e51b81526105389190600401613fea565b6000805b6000858152600c60205260409020548110156126ed576000858152600c6020526040902080546001600160401b0386169190839081106125b2576125b2614070565b60009182526020909120600160039092020101546001600160401b0316036126e5576000858152600c6020526040902080546125f0906001906143c5565b8154811061260057612600614070565b90600052602060002090600302016000600c016000878152602001908152602001600020828154811061263557612635614070565b600091825260209091208254600390920201908155600180830154908201805467ffffffffffffffff19166001600160401b03909216919091179055600280820190612683908401826143d8565b5050506000858152600c602052604090208054806126a3576126a3613ffd565b60008281526020812060036000199093019283020181815560018101805467ffffffffffffffff19169055906126dc60028301826135d2565b50509055600191505b600101612570565b508061272a5760408051808201825260098152681393d517d193d5539160ba1b6020820152905162461bcd60e51b81526105389190600401613fea565b604080518581526001600160401b038516602082015260808183018190526000908201526001606082015290516000805160206144c78339815191529181900360a00190a150505050565b7f59b501c3653afc186af7d48dda36cf6732bd21629a6295693664240a6ef5200054640100000000900460ff166127bf57604051630ef4733760e31b815260040160405180910390fd5b60005b81811015610abf576127f98383838181106127df576127df614070565b90506020020160208101906127f491906138da565b61309d565b6001016127c2565b6000610d8081613059565b61281461306f565b6001600160a01b0316336001600160a01b031614612847576040516365f4906560e01b8152336004820152602401610538565b610a308161316f565b6060610d8060056133e8565b60606000828410604051806040016040528060078152602001664241445f41524760c81b815250906128a15760405162461bcd60e51b81526004016105389190613fea565b5060006128ae85856143c5565b6001600160401b038111156128c5576128c5613a87565b6040519080825280602002602001820160405280156128fe57816020015b6128eb61362d565b8152602001906001900390816128e35790505b50905060005b61290e6000613059565b6129188288614029565b10801561292d57508461292b8288614029565b105b15612a3d5760006129496129418389614029565b600090613063565b60408051808201825282815260008381526002602081815291849020845160a0810186528154815260018201546001600160401b0380821683870152600160401b8204811683890152600160801b9091041660608201529181018054865181860281018601909752808752969750939583870195929491936080860193929190830182828015612a0257602002820191906000526020600020905b81546001600160a01b031681526001909101906020018083116129e4575b505050505081525050815250838381518110612a2057612a20614070565b60200260200101819052505080612a3690614086565b9050612904565b5080612a496000613059565b90969410159450505050565b6000611600600d83613010565b336000818152600760205260409020600201546001600160a01b0316612abe57604080518082018252600e81526d1393d11157d393d517d193d5539160921b6020820152905162461bcd60e51b81526105389190600401613fea565b612ac9600087613035565b612b045760408051808201825260098152681393d517d193d5539160ba1b6020820152905162461bcd60e51b81526105389190600401613fea565b600086815260026020526040902084815560018101805467ffffffffffffffff19166001600160401b0386161790558215612b6c576001818101805467ffffffffffffffff60801b198116600160801b918290046001600160401b0316909317029190911790555b836001600160401b0316600103612b94576000878152600360205260408120612b94916135d2565b60408051888152602081018790526001600160401b03861681830152841515606082015290517fccc26bbb6dd655ea0bb8a40a3c30e35c6bdf42f8faf0d71bbea897af768cda8b9181900360800190a150505050505050565b81612bf9600082613035565b612c345760408051808201825260098152681393d517d193d5539160ba1b6020820152905162461bcd60e51b81526105389190600401613fea565b6001600160a01b03808316600090815260076020526040902060020154839116612c9457604080518082018252600e81526d1393d11157d393d517d193d5539160921b6020820152905162461bcd60e51b81526105389190600401613fea565b600084815260026020526040812090805b6002830154811015612dae57856001600160a01b0316836002018281548110612cd057612cd0614070565b6000918252602090912001546001600160a01b031603612da657600283018054612cfc906001906143c5565b81548110612d0c57612d0c614070565b6000918252602090912001546002840180546001600160a01b039092169183908110612d3a57612d3a614070565b9060005260206000200160006101000a8154816001600160a01b0302191690836001600160a01b0316021790555082600201805480612d7b57612d7b613ffd565b600082815260209020810160001990810180546001600160a01b031916905501905560019150612dae565b600101612ca5565b5080612df057604080518082018252600e81526d1393d11157d393d517d193d5539160921b6020820152905162461bcd60e51b81526105389190600401613fea565b604080518781526001600160a01b03871660208201526000918101919091527faaa473c28a5fe04b6a7ecd795826e462f9d0c23f00ef9f51ec02fa6ea418806f906060016115e3565b33612e45600882613010565b612e7f5760408051808201825260088152670848288be82aaa8960c31b6020820152905162461bcd60e51b81526105389190600401613fea565b6001600160a01b038481166000908152600760205260409020600201541615612ede57604080518082018252600e81526d414c52454144595f45584953545360901b6020820152905162461bcd60e51b81526105389190600401613fea565b60006040518060800160405280846005811115612efd57612efd613cb0565b8152602081018690526001600160a01b0387166040820152336060909101529050612f296005866133f5565b506001600160a01b03851660009081526007602052604090208151815483929190829060ff19166001836005811115612f6457612f64613cb0565b021790555060208201516001820190612f7d9082614135565b506040828101516002830180546001600160a01b03199081166001600160a01b039384161790915560609094015160039093018054909416928116929092179092559051908616907fd6f3629b08191adb8308c3a65d5f8803b7f8f3e359c433fa7ae623276635e56190612ff490879087906144a4565b60405180910390a25050505050565b6000611600600a83613035565b6001600160a01b038116600090815260018301602052604081205415155b9392505050565b6000818152600183016020526040812054151561302e565b600061302e838361340a565b6000611600825490565b600061302e83836134fd565b7f4675fa8241f86f37157864d3d49b85ad4b164352c516da28e1678a90470ae300546001600160a01b031690565b6001600160a01b0381166130e05760408051808201825260078152664241445f41524760c81b6020820152905162461bcd60e51b81526105389190600401613fea565b6130eb600882613010565b1561312c57604080518082018252600e81526d414c52454144595f45584953545360901b6020820152905162461bcd60e51b81526105389190600401613fea565b6131376008826133f5565b506040516001600160a01b038216907fac6fa858e9350a46cec16539926e0fde25b7629f84b5a72bffaae4df888ae86d90600090a250565b6001600160a01b0381166131b25760408051808201825260078152664241445f41524760c81b6020820152905162461bcd60e51b81526105389190600401613fea565b6131bd600d826133f5565b6131fd57604080518082018252600e81526d414c52454144595f45584953545360901b6020820152905162461bcd60e51b81526105389190600401613fea565b6040516001600160a01b038216907f7afd798379ae2d2e5035438544cea2b60eb1dde6a8128e6d447fd2a25f8825a290600090a250565b600082600581111561324857613248613cb0565b148061329c5750600182600581111561326357613263613cb0565b14801561329c5750600381600581111561327f5761327f613cb0565b148061329c5750600481600581111561329a5761329a613cb0565b145b806132ef575060028260058111156132b6576132b6613cb0565b1480156132ef575060038160058111156132d2576132d2613cb0565b14806132ef575060048160058111156132ed576132ed613cb0565b145b806133425750600482600581111561330957613309613cb0565b1480156133425750600381600581111561332557613325613cb0565b14806133425750600581600581111561334057613340613cb0565b145b8061337a5750600382600581111561335c5761335c613cb0565b14801561337a5750600581600581111561337857613378613cb0565b145b15613383575050565b60408051808201825260168152751393d11157d4d510551157d393d517d0531313d5d15160521b6020820152905162461bcd60e51b81526105389190600401613fea565b600061302e8383613527565b600061302e836001600160a01b03841661340a565b6060600061302e83613576565b600061302e836001600160a01b038416613527565b600081815260018301602052604081205480156134f357600061342e6001836143c5565b8554909150600090613442906001906143c5565b90508082146134a757600086600001828154811061346257613462614070565b906000526020600020015490508087600001848154811061348557613485614070565b6000918252602080832090910192909255918252600188019052604090208390555b85548690806134b8576134b8613ffd565b600190038181906000526020600020016000905590558560010160008681526020019081526020016000206000905560019350505050611600565b6000915050611600565b600082600001828154811061351457613514614070565b9060005260206000200154905092915050565b600081815260018301602052604081205461356e57508154600181810184556000848152602080822090930184905584548482528286019093526040902091909155611600565b506000611600565b6060816000018054806020026020016040519081016040528092919081815260200182805480156135c657602002820191906000526020600020905b8154815260200190600101908083116135b2575b50505050509050919050565b5080546135de9061403c565b6000825580601f106135ee575050565b601f016020900490600052602060002090810190610a3091906136dc565b5080546000825560030290600052602060002090810190610a3091906136f1565b6040805180820190915260008152602081016136726040805160a081018252600080825260208201819052918101829052606080820192909252608081019190915290565b905290565b8280548282559060005260206000209081019282156136cc579160200282015b828111156136cc57825182546001600160a01b0319166001600160a01b03909116178255602090920191600190910190613697565b506136d89291506136dc565b5090565b5b808211156136d857600081556001016136dd565b808211156136d857600080825560018201805467ffffffffffffffff1916905561371e60028301826135d2565b506003016136f1565b60006020828403121561373957600080fd5b5035919050565b60005b8381101561375b578181015183820152602001613743565b50506000910152565b6000815180845261377c816020860160208601613740565b601f01601f19169290920160200192915050565b600060208083018184528085518083526040925060408601915060408160051b87010184880160005b8381101561380c57888303603f19018552815180518452878101516001600160401b03168885015286015160608785018190526137f881860183613764565b9689019694505050908601906001016137b9565b509098975050505050505050565b600060a08301825184526020808401516001600160401b0380821660208801528060408701511660408801528060608701511660608801525050608084015160a0608087015282815180855260c088019150602083019450600092505b808310156138a05784516001600160a01b03168252938301936001929092019190830190613877565b509695505050505050565b60208152600061302e602083018461381a565b80356001600160a01b03811681146138d557600080fd5b919050565b6000602082840312156138ec57600080fd5b61302e826138be565b6000806020838503121561390857600080fd5b82356001600160401b038082111561391f57600080fd5b818501915085601f83011261393357600080fd5b81358181111561394257600080fd5b8660208260051b850101111561395757600080fd5b60209290920196919550909350505050565b805182526000602082015160406020850152613988604085018261381a565b949350505050565b60008282518085526020808601955060208260051b8401016020860160005b848110156139dd57601f198684030189526139cb838351613969565b988401989250908301906001016139af565b5090979650505050505050565b60208152600061302e6020830184613990565b606081526000613a10606083018661381a565b8460208401528281036040840152613a288185613764565b9695505050505050565b8035600681106138d557600080fd5b60008060408385031215613a5457600080fd5b613a5d836138be565b9150613a6b60208401613a32565b90509250929050565b60208152600061302e6020830184613969565b634e487b7160e01b600052604160045260246000fd5b604051601f8201601f191681016001600160401b0381118282101715613ac557613ac5613a87565b604052919050565b600082601f830112613ade57600080fd5b81356001600160401b03811115613af757613af7613a87565b613b0a601f8201601f1916602001613a9d565b818152846020838601011115613b1f57600080fd5b816020850160208301376000918101602001919091529392505050565b60008060008060808587031215613b5257600080fd5b843593506020808601356001600160401b0380821115613b7157600080fd5b818801915088601f830112613b8557600080fd5b813581811115613b9757613b97613a87565b8060051b613ba6858201613a9d565b918252838101850191858101908c841115613bc057600080fd5b948601945b83861015613be557613bd6866138be565b82529486019490860190613bc5565b9850505050604088013594506060880135925080831115613c0557600080fd5b5050613c1387828801613acd565b91505092959194509250565b60008060408385031215613c3257600080fd5b613c3b836138be565b915060208301356001600160401b03811115613c5657600080fd5b613c6285828601613acd565b9150509250929050565b6020808252825182820181905260009190848201906040850190845b81811015613ca457835183529284019291840191600101613c88565b50909695505050505050565b634e487b7160e01b600052602160045260246000fd5b60068110613ce457634e487b7160e01b600052602160045260246000fd5b9052565b613cf3828251613cc6565b6000602082015160806020850152613d0e6080850182613764565b6040848101516001600160a01b03908116918701919091526060948501511693909401929092525090919050565b60208152600061302e6020830184613ce8565b60008060408385031215613d6257600080fd5b82359150613a6b602084016138be565b80356001600160401b03811681146138d557600080fd5b60008060008060608587031215613d9f57600080fd5b84359350613daf60208601613d72565b925060408501356001600160401b0380821115613dcb57600080fd5b818701915087601f830112613ddf57600080fd5b813581811115613dee57600080fd5b886020828501011115613e0057600080fd5b95989497505060200194505050565b600060208083016020845280855180835260408601915060408160051b87010192506020870160005b82811015613e6657603f19888603018452613e54858351613ce8565b94509285019290850190600101613e38565b5092979650505050505050565b60008060408385031215613e8657600080fd5b82359150613a6b60208401613d72565b60008151808452602080850194506020840160005b83811015613ed05781516001600160a01b031687529582019590820190600101613eab565b509495945050505050565b60208152600061302e6020830184613e96565b60008060408385031215613f0157600080fd5b50508035926020909101359150565b604081526000613f236040830185613990565b905082151560208301529392505050565b600080600080600060a08688031215613f4c57600080fd5b853594506020860135935060408601359250613f6a60608701613d72565b915060808601358015158114613f7f57600080fd5b809150509295509295909350565b600080600060608486031215613fa257600080fd5b613fab846138be565b925060208401356001600160401b03811115613fc657600080fd5b613fd286828701613acd565b925050613fe160408501613a32565b90509250925092565b60208152600061302e6020830184613764565b634e487b7160e01b600052603160045260246000fd5b634e487b7160e01b600052601160045260246000fd5b8082018082111561160057611600614013565b600181811c9082168061405057607f821691505b602082108103610ef057634e487b7160e01b600052602260045260246000fd5b634e487b7160e01b600052603260045260246000fd5b60006001820161409857614098614013565b5060010190565b600063ffffffff8083168181036140b8576140b8614013565b6001019392505050565b602081016116008284613cc6565b601f821115610abf576000816000526020600020601f850160051c810160208610156140f95750805b601f850160051c820191505b8181101561411857828155600101614105565b505050505050565b600019600383901b1c191660019190911b1790565b81516001600160401b0381111561414e5761414e613a87565b6141628161415c845461403c565b846140d0565b602080601f831160018114614191576000841561417f5750858301515b6141898582614120565b865550614118565b600085815260208120601f198616915b828110156141c0578886015182559484019460019091019084016141a1565b50858210156141de5787850151600019600388901b60f8161c191681555b5050505050600190811b01905550565b8481526080602082015260006142076080830186613e96565b846040840152828103606084015261421f8185613764565b979650505050505050565b6000825161423c818460208701613740565b9190910192915050565b60008083546142548161403c565b6001828116801561426c5760018114614281576142b0565b60ff19841687528215158302870194506142b0565b8760005260208060002060005b858110156142a75781548a82015290840190820161428e565b50505082870194505b50929695505050505050565b6001600160401b038311156142d3576142d3613a87565b6142e7836142e1835461403c565b836140d0565b6000601f84116001811461431557600085156143035750838201355b61430d8682614120565b84555061201f565b600083815260209020601f19861690835b828110156143465786850135825560209485019460019092019101614326565b50868210156143635760001960f88860031b161c19848701351681555b505060018560011b0183555050505050565b8581526001600160401b038516602082015260806040820152826080820152828460a0830137600081840160a0908101919091529115156060820152601f909201601f1916909101019392505050565b8181038181111561160057611600614013565b8181036143e3575050565b6143ed825461403c565b6001600160401b0381111561440457614404613a87565b6144128161415c845461403c565b6000601f821160018114614440576000831561442e5750848201545b6144388482614120565b85555061201f565b600085815260209020601f19841690600086815260209020845b8381101561447a578286015482556001958601959091019060200161445a565b50858310156141de5793015460001960f8600387901b161c19169092555050600190811b01905550565b6040815260006144b76040830185613764565b905061302e6020830184613cc656fec01483261a841a868b99cb8802faed4ea44a1a816651c4f7ee061a96a205fe98","linkReferences":{}},"methodIdentifiers":{"__OperatorRegistry_init(address[])":"ba428b1a","__RiverConfig_init(address[])":"31374511","allocateStream(bytes32,address[],bytes32,bytes)":"6b883c39","approveConfigurationManager(address)":"c179b85f","approveOperator(address)":"242cae9f","configurationExists(bytes32)":"fc207c01","deleteConfiguration(bytes32)":"035759e1","deleteConfigurationOnBlock(bytes32,uint64)":"b7f227ee","getAllConfiguration()":"081814db","getAllNodeAddresses()":"c8fe3a01","getAllNodes()":"a1174e7d","getAllStreamIds()":"86789fc6","getAllStreams()":"3bd84c0c","getConfiguration(bytes32)":"9283ae3a","getNode(address)":"9d209048","getNodeCount()":"39bf397e","getPaginatedStreams(uint256,uint256)":"ca78c41a","getStream(bytes32)":"1290abe8","getStreamByIndex(uint256)":"68b454df","getStreamCount()":"c0f22084","getStreamWithGenesis(bytes32)":"3c2544d1","getStreamsOnNode(address)":"32705ac4","isConfigurationManager(address)":"d4bd44a0","isOperator(address)":"6d70f7ae","placeStreamOnNode(bytes32,address)":"9ee86d38","registerNode(address,string,uint8)":"eecc66f4","removeConfigurationManager(address)":"813049ec","removeNode(address)":"b2b99ec9","removeOperator(address)":"ac8a584a","removeStreamFromNode(bytes32,address)":"ee885b12","setConfiguration(bytes32,uint64,bytes)":"a09449a6","setStreamLastMiniblock(bytes32,bytes32,bytes32,uint64,bool)":"d7a3158a","updateNodeStatus(address,uint8)":"581f8b9b","updateNodeUrl(address,string)":"7e4465e7"},"id":335}