{"abi":[{"type":"function","name":"__PlatformRequirements_init","inputs":[{"name":"feeRecipient","type":"address","internalType":"address"},{"name":"membershipBps","type":"uint16","internalType":"uint16"},{"name":"membershipFee","type":"uint256","internalType":"uint256"},{"name":"membershipMintLimit","type":"uint256","internalType":"uint256"},{"name":"membershipDuration","type":"uint64","internalType":"uint64"}],"outputs":[],"stateMutability":"nonpayable"},{"type":"function","name":"getDenominator","inputs":[],"outputs":[{"name":"","type":"uint256","internalType":"uint256"}],"stateMutability":"pure"},{"type":"function","name":"getFeeRecipient","inputs":[],"outputs":[{"name":"","type":"address","internalType":"address"}],"stateMutability":"view"},{"type":"function","name":"getMembershipBps","inputs":[],"outputs":[{"name":"","type":"uint16","internalType":"uint16"}],"stateMutability":"view"},{"type":"function","name":"getMembershipDuration","inputs":[],"outputs":[{"name":"","type":"uint64","internalType":"uint64"}],"stateMutability":"view"},{"type":"function","name":"getMembershipFee","inputs":[],"outputs":[{"name":"","type":"uint256","internalType":"uint256"}],"stateMutability":"view"},{"type":"function","name":"getMembershipMintLimit","inputs":[],"outputs":[{"name":"","type":"uint256","internalType":"uint256"}],"stateMutability":"view"},{"type":"function","name":"setFeeRecipient","inputs":[{"name":"recipient","type":"address","internalType":"address"}],"outputs":[],"stateMutability":"nonpayable"},{"type":"function","name":"setMembershipBps","inputs":[{"name":"bps","type":"uint16","internalType":"uint16"}],"outputs":[],"stateMutability":"nonpayable"},{"type":"function","name":"setMembershipDuration","inputs":[{"name":"duration","type":"uint64","internalType":"uint64"}],"outputs":[],"stateMutability":"nonpayable"},{"type":"function","name":"setMembershipFee","inputs":[{"name":"fee","type":"uint256","internalType":"uint256"}],"outputs":[],"stateMutability":"nonpayable"},{"type":"function","name":"setMembershipMintLimit","inputs":[{"name":"limit","type":"uint256","internalType":"uint256"}],"outputs":[],"stateMutability":"nonpayable"},{"type":"event","name":"Initialized","inputs":[{"name":"version","type":"uint32","indexed":false,"internalType":"uint32"}],"anonymous":false},{"type":"event","name":"InterfaceAdded","inputs":[{"name":"interfaceId","type":"bytes4","indexed":true,"internalType":"bytes4"}],"anonymous":false},{"type":"event","name":"InterfaceRemoved","inputs":[{"name":"interfaceId","type":"bytes4","indexed":true,"internalType":"bytes4"}],"anonymous":false},{"type":"event","name":"OwnershipTransferred","inputs":[{"name":"previousOwner","type":"address","indexed":true,"internalType":"address"},{"name":"newOwner","type":"address","indexed":true,"internalType":"address"}],"anonymous":false},{"type":"event","name":"PlatformFeeRecipientSet","inputs":[{"name":"recipient","type":"address","indexed":true,"internalType":"address"}],"anonymous":false},{"type":"event","name":"PlatformMembershipBpsSet","inputs":[{"name":"bps","type":"uint16","indexed":false,"internalType":"uint16"}],"anonymous":false},{"type":"event","name":"PlatformMembershipDurationSet","inputs":[{"name":"duration","type":"uint256","indexed":false,"internalType":"uint256"}],"anonymous":false},{"type":"event","name":"PlatformMembershipFeeSet","inputs":[{"name":"fee","type":"uint256","indexed":false,"internalType":"uint256"}],"anonymous":false},{"type":"event","name":"PlatformMembershipMintLimitSet","inputs":[{"name":"limit","type":"uint256","indexed":false,"internalType":"uint256"}],"anonymous":false},{"type":"error","name":"Initializable_InInitializingState","inputs":[]},{"type":"error","name":"Initializable_NotInInitializingState","inputs":[]},{"type":"error","name":"Introspection_AlreadySupported","inputs":[]},{"type":"error","name":"Introspection_NotSupported","inputs":[]},{"type":"error","name":"Ownable__NotOwner","inputs":[{"name":"account","type":"address","internalType":"address"}]},{"type":"error","name":"Ownable__ZeroAddress","inputs":[]},{"type":"error","name":"Platform__InvalidFeeRecipient","inputs":[]},{"type":"error","name":"Platform__InvalidMembershipBps","inputs":[]},{"type":"error","name":"Platform__InvalidMembershipDuration","inputs":[]},{"type":"error","name":"Platform__InvalidMembershipMintLimit","inputs":[]}],"bytecode":{"object":"0x608060405234801561001057600080fd5b5061001961001e565b6100c4565b7f59b501c3653afc186af7d48dda36cf6732bd21629a6295693664240a6ef520008054640100000000900460ff161561006a576040516366008a2d60e01b815260040160405180910390fd5b805463ffffffff90811610156100c157805463ffffffff191663ffffffff90811782556040519081527fe9c9b456cb2994b80aeef036cf59d26e9617df80f816a6ee5a5b4166e07e2f5c9060200160405180910390a15b50565b6108e1806100d36000396000f3fe608060405234801561001057600080fd5b50600436106100b45760003560e01c80639f6542aa116100715780639f6542aa14610153578063ae5a4f9414610181578063c60b2f8214610194578063ce8221b6146101a7578063e74b981b146101ba578063f0257964146101cd57600080fd5b80630eac306d146100b9578063190eaaba146100d45780632cbb9d13146100dc5780634ccb20c0146100e45780638120f0ba1461010457806383f3f0dc1461013e575b600080fd5b6100c16101e0565b6040519081526020015b60405180910390f35b6127106100c1565b6100c16101fd565b6100ec610227565b6040516001600160a01b0390911681526020016100cb565b6000805160206108a183398151915254600160a01b900467ffffffffffffffff1660405167ffffffffffffffff90911681526020016100cb565b61015161014c3660046107af565b610248565b005b6000805160206108a183398151915254600160e01b900461ffff1660405161ffff90911681526020016100cb565b61015161018f3660046107fa565b610294565b6101516101a2366004610851565b610322565b6101516101b536600461086a565b610366565b6101516101c8366004610885565b6103aa565b6101516101db366004610851565b6103ee565b60006101f86000805160206108c18339815191525490565b905090565b60006101f87fb29a817dd0719f30ad87abc8dff26e6354077e5b46bf38f34d5ac48732860d015490565b60006101f86000805160206108a1833981519152546001600160a01b031690565b610250610432565b6001600160a01b0316336001600160a01b031614610288576040516365f4906560e01b81523360048201526024015b60405180910390fd5b61029181610460565b50565b7f59b501c3653afc186af7d48dda36cf6732bd21629a6295693664240a6ef5200054640100000000900460ff166102de57604051630ef4733760e31b815260040160405180910390fd5b6102ee63f5838a8360e01b6104fc565b6102f7856105da565b61030084610658565b610309836106dd565b6103128261071e565b61031b81610460565b5050505050565b61032a610432565b6001600160a01b0316336001600160a01b03161461035d576040516365f4906560e01b815233600482015260240161027f565b610291816106dd565b61036e610432565b6001600160a01b0316336001600160a01b0316146103a1576040516365f4906560e01b815233600482015260240161027f565b61029181610658565b6103b2610432565b6001600160a01b0316336001600160a01b0316146103e5576040516365f4906560e01b815233600482015260240161027f565b610291816105da565b6103f6610432565b6001600160a01b0316336001600160a01b031614610429576040516365f4906560e01b815233600482015260240161027f565b6102918161071e565b7f4675fa8241f86f37157864d3d49b85ad4b164352c516da28e1678a90470ae300546001600160a01b031690565b8067ffffffffffffffff1660000361048b5760405163e8decb2760e01b815260040160405180910390fd5b806000805160206108c1833981519152600201805467ffffffffffffffff60a01b1916600160a01b67ffffffffffffffff9384160217905560405190821681527f93f329d9b419a1dbbb08ec1d29d6fcc68e2926b743dc2a665f1b70b30eb542de906020015b60405180910390a150565b6001600160e01b0319811660009081527f81088bbc801e045ea3e7620779ab349988f58afbdfba10dff983df3f33522b00602052604090205460ff161515600114610589576001600160e01b0319811660009081527f81088bbc801e045ea3e7620779ab349988f58afbdfba10dff983df3f33522b0060205260409020805460ff191660011790556105a2565b604051637967f77d60e11b815260040160405180910390fd5b6040516001600160e01b03198216907f78f84e5b1c5c05be2b5ad3800781dd404d6d6c6302bc755c0fe20f58a33a7f2290600090a250565b6001600160a01b038116610601576040516383e3352160e01b815260040160405180910390fd5b6000805160206108a183398151915280546001600160a01b0319166001600160a01b0383169081179091556040517f3cc0ae1aeb9c9f264efea06a56cdd51909ff08984601a60572e90b520105f66b90600090a250565b6127108161ffff16111561067f57604051630d97252560e21b815260040160405180910390fd5b806000805160206108c1833981519152600201805461ffff60e01b1916600160e01b61ffff9384160217905560405190821681527f3b56f95d00baee21935a9ae0b495b827b894967975bed5ad55f4cde35386492d906020016104f1565b806000805160206108c1833981519152556040518181527fd586b88b974ccf090a61851ce0b8c6ba390e3e97db43513cc42b0b6f155a440d906020016104f1565b8060000361073e5760405162951ce360e01b815260040160405180910390fd5b7fb29a817dd0719f30ad87abc8dff26e6354077e5b46bf38f34d5ac48732860d018190556040518181527f333d71c9d6dfea817be074bc8d0cd09737726b9d29a6cfe42f2ff95f82a222b1906020016104f1565b803567ffffffffffffffff811681146107aa57600080fd5b919050565b6000602082840312156107c157600080fd5b6107ca82610792565b9392505050565b80356001600160a01b03811681146107aa57600080fd5b803561ffff811681146107aa57600080fd5b600080600080600060a0868803121561081257600080fd5b61081b866107d1565b9450610829602087016107e8565b9350604086013592506060860135915061084560808701610792565b90509295509295909350565b60006020828403121561086357600080fd5b5035919050565b60006020828403121561087c57600080fd5b6107ca826107e8565b60006020828403121561089757600080fd5b6107ca826107d156feb29a817dd0719f30ad87abc8dff26e6354077e5b46bf38f34d5ac48732860d02b29a817dd0719f30ad87abc8dff26e6354077e5b46bf38f34d5ac48732860d00","linkReferences":{}},"methodIdentifiers":{"__PlatformRequirements_init(address,uint16,uint256,uint256,uint64)":"ae5a4f94","getDenominator()":"190eaaba","getFeeRecipient()":"4ccb20c0","getMembershipBps()":"9f6542aa","getMembershipDuration()":"8120f0ba","getMembershipFee()":"0eac306d","getMembershipMintLimit()":"2cbb9d13","setFeeRecipient(address)":"e74b981b","setMembershipBps(uint16)":"ce8221b6","setMembershipDuration(uint64)":"83f3f0dc","setMembershipFee(uint256)":"c60b2f82","setMembershipMintLimit(uint256)":"f0257964"},"id":170}