{"abi":[{"type":"function","name":"addPermissionsToRole","inputs":[{"name":"roleId","type":"uint256","internalType":"uint256"},{"name":"permissions","type":"string[]","internalType":"string[]"}],"outputs":[],"stateMutability":"nonpayable"},{"type":"function","name":"addRoleToEntitlement","inputs":[{"name":"roleId","type":"uint256","internalType":"uint256"},{"name":"entitlement","type":"tuple","internalType":"struct IRolesBase.CreateEntitlement","components":[{"name":"module","type":"address","internalType":"contract IEntitlement"},{"name":"data","type":"bytes","internalType":"bytes"}]}],"outputs":[],"stateMutability":"nonpayable"},{"type":"function","name":"createRole","inputs":[{"name":"roleName","type":"string","internalType":"string"},{"name":"permissions","type":"string[]","internalType":"string[]"},{"name":"entitlements","type":"tuple[]","internalType":"struct IRolesBase.CreateEntitlement[]","components":[{"name":"module","type":"address","internalType":"contract IEntitlement"},{"name":"data","type":"bytes","internalType":"bytes"}]}],"outputs":[{"name":"","type":"uint256","internalType":"uint256"}],"stateMutability":"nonpayable"},{"type":"function","name":"getPermissionsByRoleId","inputs":[{"name":"roleId","type":"uint256","internalType":"uint256"}],"outputs":[{"name":"permissions","type":"string[]","internalType":"string[]"}],"stateMutability":"view"},{"type":"function","name":"getRoleById","inputs":[{"name":"roleId","type":"uint256","internalType":"uint256"}],"outputs":[{"name":"","type":"tuple","internalType":"struct IRolesBase.Role","components":[{"name":"id","type":"uint256","internalType":"uint256"},{"name":"name","type":"string","internalType":"string"},{"name":"disabled","type":"bool","internalType":"bool"},{"name":"permissions","type":"string[]","internalType":"string[]"},{"name":"entitlements","type":"address[]","internalType":"contract IEntitlement[]"}]}],"stateMutability":"view"},{"type":"function","name":"getRoles","inputs":[],"outputs":[{"name":"","type":"tuple[]","internalType":"struct IRolesBase.Role[]","components":[{"name":"id","type":"uint256","internalType":"uint256"},{"name":"name","type":"string","internalType":"string"},{"name":"disabled","type":"bool","internalType":"bool"},{"name":"permissions","type":"string[]","internalType":"string[]"},{"name":"entitlements","type":"address[]","internalType":"contract IEntitlement[]"}]}],"stateMutability":"view"},{"type":"function","name":"removePermissionsFromRole","inputs":[{"name":"roleId","type":"uint256","internalType":"uint256"},{"name":"permissions","type":"string[]","internalType":"string[]"}],"outputs":[],"stateMutability":"nonpayable"},{"type":"function","name":"removeRole","inputs":[{"name":"roleId","type":"uint256","internalType":"uint256"}],"outputs":[],"stateMutability":"nonpayable"},{"type":"function","name":"removeRoleFromEntitlement","inputs":[{"name":"roleId","type":"uint256","internalType":"uint256"},{"name":"entitlement","type":"tuple","internalType":"struct IRolesBase.CreateEntitlement","components":[{"name":"module","type":"address","internalType":"contract IEntitlement"},{"name":"data","type":"bytes","internalType":"bytes"}]}],"outputs":[],"stateMutability":"nonpayable"},{"type":"function","name":"updateRole","inputs":[{"name":"roleId","type":"uint256","internalType":"uint256"},{"name":"roleName","type":"string","internalType":"string"},{"name":"permissions","type":"string[]","internalType":"string[]"},{"name":"entitlements","type":"tuple[]","internalType":"struct IRolesBase.CreateEntitlement[]","components":[{"name":"module","type":"address","internalType":"contract IEntitlement"},{"name":"data","type":"bytes","internalType":"bytes"}]}],"outputs":[],"stateMutability":"nonpayable"},{"type":"event","name":"Approval","inputs":[{"name":"owner","type":"address","indexed":true,"internalType":"address"},{"name":"approved","type":"address","indexed":true,"internalType":"address"},{"name":"tokenId","type":"uint256","indexed":true,"internalType":"uint256"}],"anonymous":false},{"type":"event","name":"ApprovalForAll","inputs":[{"name":"owner","type":"address","indexed":true,"internalType":"address"},{"name":"operator","type":"address","indexed":true,"internalType":"address"},{"name":"approved","type":"bool","indexed":false,"internalType":"bool"}],"anonymous":false},{"type":"event","name":"Banned","inputs":[{"name":"moderator","type":"address","indexed":true,"internalType":"address"},{"name":"tokenId","type":"uint256","indexed":true,"internalType":"uint256"}],"anonymous":false},{"type":"event","name":"ConsecutiveTransfer","inputs":[{"name":"fromTokenId","type":"uint256","indexed":true,"internalType":"uint256"},{"name":"toTokenId","type":"uint256","indexed":false,"internalType":"uint256"},{"name":"from","type":"address","indexed":true,"internalType":"address"},{"name":"to","type":"address","indexed":true,"internalType":"address"}],"anonymous":false},{"type":"event","name":"OwnershipTransferred","inputs":[{"name":"previousOwner","type":"address","indexed":true,"internalType":"address"},{"name":"newOwner","type":"address","indexed":true,"internalType":"address"}],"anonymous":false},{"type":"event","name":"Paused","inputs":[{"name":"account","type":"address","indexed":false,"internalType":"address"}],"anonymous":false},{"type":"event","name":"RoleCreated","inputs":[{"name":"creator","type":"address","indexed":true,"internalType":"address"},{"name":"roleId","type":"uint256","indexed":true,"internalType":"uint256"}],"anonymous":false},{"type":"event","name":"RoleRemoved","inputs":[{"name":"remover","type":"address","indexed":true,"internalType":"address"},{"name":"roleId","type":"uint256","indexed":true,"internalType":"uint256"}],"anonymous":false},{"type":"event","name":"RoleUpdated","inputs":[{"name":"updater","type":"address","indexed":true,"internalType":"address"},{"name":"roleId","type":"uint256","indexed":true,"internalType":"uint256"}],"anonymous":false},{"type":"event","name":"SubscriptionUpdate","inputs":[{"name":"tokenId","type":"uint256","indexed":true,"internalType":"uint256"},{"name":"expiration","type":"uint64","indexed":false,"internalType":"uint64"}],"anonymous":false},{"type":"event","name":"Transfer","inputs":[{"name":"from","type":"address","indexed":true,"internalType":"address"},{"name":"to","type":"address","indexed":true,"internalType":"address"},{"name":"tokenId","type":"uint256","indexed":true,"internalType":"uint256"}],"anonymous":false},{"type":"event","name":"Unbanned","inputs":[{"name":"moderator","type":"address","indexed":true,"internalType":"address"},{"name":"tokenId","type":"uint256","indexed":true,"internalType":"uint256"}],"anonymous":false},{"type":"event","name":"Unpaused","inputs":[{"name":"account","type":"address","indexed":false,"internalType":"address"}],"anonymous":false},{"type":"error","name":"ApprovalCallerNotOwnerNorApproved","inputs":[]},{"type":"error","name":"ApprovalQueryForNonexistentToken","inputs":[]},{"type":"error","name":"BalanceQueryForZeroAddress","inputs":[]},{"type":"error","name":"Banning__AlreadyBanned","inputs":[{"name":"tokenId","type":"uint256","internalType":"uint256"}]},{"type":"error","name":"Banning__CannotBanSelf","inputs":[]},{"type":"error","name":"Banning__InvalidTokenId","inputs":[{"name":"tokenId","type":"uint256","internalType":"uint256"}]},{"type":"error","name":"Banning__NotBanned","inputs":[{"name":"tokenId","type":"uint256","internalType":"uint256"}]},{"type":"error","name":"ChannelService__ChannelDisabled","inputs":[]},{"type":"error","name":"ChannelService__ChannelDoesNotExist","inputs":[]},{"type":"error","name":"ChannelService__RoleDoesNotExist","inputs":[]},{"type":"error","name":"ERC5643__DurationZero","inputs":[]},{"type":"error","name":"ERC5643__InvalidTokenId","inputs":[{"name":"tokenId","type":"uint256","internalType":"uint256"}]},{"type":"error","name":"ERC5643__NotApprovedOrOwner","inputs":[]},{"type":"error","name":"ERC5643__SubscriptionNotRenewable","inputs":[{"name":"tokenId","type":"uint256","internalType":"uint256"}]},{"type":"error","name":"Entitlement__InvalidValue","inputs":[]},{"type":"error","name":"Entitlement__NotAllowed","inputs":[]},{"type":"error","name":"Entitlement__NotMember","inputs":[]},{"type":"error","name":"Entitlement__ValueAlreadyExists","inputs":[]},{"type":"error","name":"EntitlementsService__EntitlementDoesNotExist","inputs":[]},{"type":"error","name":"EntitlementsService__InvalidEntitlementAddress","inputs":[]},{"type":"error","name":"EntitlementsService__InvalidEntitlementInterface","inputs":[]},{"type":"error","name":"MintERC2309QuantityExceedsLimit","inputs":[]},{"type":"error","name":"MintToZeroAddress","inputs":[]},{"type":"error","name":"MintZeroQuantity","inputs":[]},{"type":"error","name":"Ownable__NotOwner","inputs":[{"name":"account","type":"address","internalType":"address"}]},{"type":"error","name":"Ownable__ZeroAddress","inputs":[]},{"type":"error","name":"OwnerQueryForNonexistentToken","inputs":[]},{"type":"error","name":"OwnershipNotInitializedForExtraData","inputs":[]},{"type":"error","name":"Pausable__NotPaused","inputs":[]},{"type":"error","name":"Pausable__Paused","inputs":[]},{"type":"error","name":"Roles__EntitlementAlreadyExists","inputs":[]},{"type":"error","name":"Roles__EntitlementDoesNotExist","inputs":[]},{"type":"error","name":"Roles__InvalidEntitlementAddress","inputs":[]},{"type":"error","name":"Roles__InvalidPermission","inputs":[]},{"type":"error","name":"Roles__PermissionAlreadyExists","inputs":[]},{"type":"error","name":"Roles__PermissionDoesNotExist","inputs":[]},{"type":"error","name":"Roles__RoleDoesNotExist","inputs":[]},{"type":"error","name":"TransferCallerNotOwnerNorApproved","inputs":[]},{"type":"error","name":"TransferFromIncorrectOwner","inputs":[]},{"type":"error","name":"TransferToNonERC721ReceiverImplementer","inputs":[]},{"type":"error","name":"TransferToZeroAddress","inputs":[]},{"type":"error","name":"URIQueryForNonexistentToken","inputs":[]},{"type":"error","name":"Validator__InvalidByteLength","inputs":[]},{"type":"error","name":"Validator__InvalidStringLength","inputs":[]}],"bytecode":{"object":"0x608060405234801561001057600080fd5b506130f9806100206000396000f3fe608060405234801561001057600080fd5b506004361061009e5760003560e01c80639a8e4c3e116100665780639a8e4c3e1461012a578063b42642331461013d578063b75157611461015d578063ba201ba814610170578063dba818641461018357600080fd5b80634d8b50a2146100a357806371061398146100b8578063784c872b146100d65780638fcd793d146100f65780639269182114610117575b600080fd5b6100b66100b13660046128be565b610196565b005b6100c06101e7565b6040516100cd9190612a94565b60405180910390f35b6100e96100e4366004612af8565b6101f6565b6040516100cd9190612b11565b610109610104366004612b24565b610242565b6040519081526020016100cd565b6100b6610125366004612af8565b61028d565b6100b6610138366004612bb1565b6102d6565b61015061014b366004612af8565b610321565b6040516100cd9190612bf7565b6100b661016b366004612bb1565b61032c565b6100b661017e366004612c4e565b610373565b6100b6610191366004612c4e565b6103ba565b6101ca604051806040016040528060138152602001724d6f64696679537061636553657474696e677360681b815250610401565b6101d385610429565b6101e08585858585610470565b5050505050565b60606101f161076d565b905090565b61022a6040518060a00160405280600081526020016060815260200160001515815260200160608152602001606081525090565b61023382610429565b61023c826108af565b92915050565b6000610278604051806040016040528060138152602001724d6f64696679537061636553657474696e677360681b815250610401565b61028485858585610928565b95945050505050565b6102c1604051806040016040528060138152602001724d6f64696679537061636553657474696e677360681b815250610401565b6102ca81610429565b6102d381610b0b565b50565b61030a604051806040016040528060138152602001724d6f64696679537061636553657474696e677360681b815250610401565b61031382610429565b61031d8282610d6f565b5050565b606061023c82610e5a565b610360604051806040016040528060138152602001724d6f64696679537061636553657474696e677360681b815250610401565b61036982610429565b61031d8282610e6e565b6103a7604051806040016040528060138152602001724d6f64696679537061636553657474696e677360681b815250610401565b6103b082610429565b61031d8282610f1f565b6103ee604051806040016040528060138152602001724d6f64696679537061636553657474696e677360681b815250610401565b6103f782610429565b61031d8282610f54565b61040c600082610f79565b6102d357604051630ce39a4b60e21b815260040160405180910390fd5b6104537f672ef851d5f92307da037116e23aa9e31af7e1f7e3ca62c4e6d540631df3fd0182610ffd565b6102d35760405163a3f70f7b60e01b815260040160405180910390fd5b600061047b86611018565b80518351919250906000816001600160401b0381111561049d5761049d612639565b6040519080825280602002602001820160405280156104c6578160200160208202803683370190505b50905060005b828110156105595760008682815181106104e8576104e8612c8a565b60200260200101516000015190506104ff8161111c565b610508816111e5565b86828151811061051a5761051a612c8a565b60200260200101516000015183838151811061053857610538612c8a565b6001600160a01b0390921660209283029190910190910152506001016104cc565b5086156105885760008981526000805160206130d983398151915260205260409020610586888a83612d1c565b505b8551156105ce5760008981526000805160206130d9833981519152602052604081206105b69060020161124d565b90506105c28a82610d6f565b6105cc8a88610e6e565b505b816000036105df57505050506101e0565b80511561065857805160005b8481101561061e576106168b87838151811061060957610609612c8a565b6020026020010151611258565b6001016105eb565b5060005b818110156106555761064d8b84838151811061064057610640612c8a565b60200260200101516112d0565b600101610622565b50505b60005b8381101561068e5761068685828151811061067857610678612c8a565b60200260200101518b611343565b60010161065b565b5060005b828110156107345760008682815181106106ae576106ae612c8a565b60200260200101516020015151111561072c576106e78682815181106106d6576106d6612c8a565b6020026020010151602001516113aa565b61072c8682815181106106fc576106fc612c8a565b6020026020010151600001518b88848151811061071b5761071b612c8a565b6020026020010151602001516113cc565b600101610692565b50604051899033907f1aff41ff8e9139aae6bb355cc69107cda7e1d1dcd25511da436f3171bdbf77e690600090a3505050505050505050565b6060600061077961143a565b8051909150806001600160401b0381111561079657610796612639565b6040519080825280602002602001820160405280156107fb57816020015b6107e86040518060a00160405280600081526020016060815260200160001515815260200160608152602001606081525090565b8152602001906001900390816107b45790505b50925060005b818110156108a95760008060008061083187868151811061082457610824612c8a565b6020026020010151611465565b93509350935093506040518060a0016040528088878151811061085657610856612c8a565b6020026020010151815260200185815260200184151581526020018381526020018281525088868151811061088d5761088d612c8a565b6020026020010181905250848060010195505050505050610801565b50505090565b6108e36040518060a00160405280600081526020016060815260200160001515815260200160608152602001606081525090565b6000806000806108f286611465565b6040805160a0810182529a8b5260208b019490945291151592890192909252606088019190915260808701525093949350505050565b600061096c85858080601f01602080910402602001604051908101604052809392919081815260200183838082843760009201919091525060029250611563915050565b81516000816001600160401b0381111561098857610988612639565b6040519080825280602002602001820160405280156109b1578160200160208202803683370190505b5090506109bc61158c565b925060005b82811015610a90576109ef8582815181106109de576109de612c8a565b60200260200101516000015161111c565b848181518110610a0157610a01612c8a565b602002602001015160000151828281518110610a1f57610a1f612c8a565b60200260200101906001600160a01b031690816001600160a01b031681525050610a548582815181106106d6576106d6612c8a565b610a88858281518110610a6957610a69612c8a565b6020026020010151600001518587848151811061071b5761071b612c8a565b6001016109c1565b50610ad387878080601f016020809104026020016040519081016040528093929190818152602001838380828437600092018290525092508991508590506115b2565b50604051839033907f20a7a288530dd94b1eccaa691a582ecfd7550c9dfcee78ddf50a97f774a2b14790600090a35050949350505050565b6000610b1682611018565b80519091506000805160206130b9833981519152610b547f672ef851d5f92307da037116e23aa9e31af7e1f7e3ca62c4e6d540631df3fd01856116db565b506000848152600382016020526040812090610b708282612549565b60018201805460ff19169055600282016000610b8c8282612583565b50506004820160008181610ba082826125a1565b5050604080516020808201835260008083528b815260038901909152919091209450610bd193509150839050612ddb565b506000848152600382016020526040812060018101805460ff19169055610bfa906002016116e7565b6000868152600384016020526040812091925090610c1a906004016116e7565b905060005b82811015610c6a5760008781526003850160205260409020610c6190610c4890600201836116f1565b60008981526003870160205260409020600201906116fd565b50600101610c1f565b5060005b81811015610cb95760008781526003850160205260409020610cb090610c979060040183611709565b6000898152600387016020526040902060040190611715565b50600101610c6e565b506000610cc58761172a565b805190915060005b81811015610d0057610cf8838281518110610cea57610cea612c8a565b60200260200101518a611816565b600101610ccd565b5060005b86811015610d3757610d2f888281518110610d2157610d21612c8a565b60200260200101518a611343565b600101610d04565b50604051889033907f268a6f1b90f6f5ddf50cc736d36513e80cdc5fd56326bff71f335e8b4b61d05590600090a35050505050505050565b80516000805160206130b98339815191529060005b818110156101e057610dae848281518110610da157610da1612c8a565b60200260200101516118a6565b610df1848281518110610dc357610dc3612c8a565b60200260200101518460030160008881526020019081526020016000206002016118c790919063ffffffff16565b610e0e57604051633e2b026160e01b815260040160405180910390fd5b610e51848281518110610e2357610e23612c8a565b60200260200101518460030160008881526020019081526020016000206002016116fd90919063ffffffff16565b50600101610d84565b6060610e6582611465565b50949350505050565b80516000805160206130b98339815191529060005b818110156101e057610ea0848281518110610da157610da1612c8a565b610eb5848281518110610dc357610dc3612c8a565b15610ed35760405163b0ab682160e01b815260040160405180910390fd5b610f16848281518110610ee857610ee8612c8a565b60200260200101518460030160008881526020019081526020016000206002016118d390919063ffffffff16565b50600101610e83565b610f2882610429565b8051610f33906111e5565b610f418282600001516112d0565b61031d81600001518383602001516113cc565b8051610f5f906111e5565b610f6d828260000151611258565b805161031d9083611343565b60003380610f856118df565b6001600160a01b03161480610ff557507fe17a067c7963a59b6dfd65d33b053fdbea1c56500e2aae4f976d9eda4da9eb005460ff16158015610ff55750610ff5848285604051602001610fd89190612e9a565b604051602081830303815290604052610ff090612eb6565b6119a3565b949350505050565b600081815260018301602052604081205415155b9392505050565b60008181526000805160206130d98339815191526020526040812060609190611043906004016116e7565b6001600160401b0381111561105a5761105a612639565b604051908082528060200260200182016040528015611083578160200160208202803683370190505b50905060005b60008481526000805160206130d9833981519152602052604090206110b0906004016116e7565b8110156111155760008481526000805160206130d9833981519152602052604081206110df9060040183611709565b9050808383815181106110f4576110f4612c8a565b6001600160a01b039092166020928302919091019091015250600101611089565b5092915050565b6001600160a01b03811661114357604051630706e15760e51b815260040160405180910390fd5b6040516301ffc9a760e01b8152637bc2cb4560e11b60048201526001600160a01b038216906301ffc9a790602401602060405180830381865afa9250505080156111aa575060408051601f3d908101601f191682019092526111a791810190612eda565b60015b6111c75760405163f58a5f2760e01b815260040160405180910390fd5b8061031d5760405163f58a5f2760e01b815260040160405180910390fd5b7fa558e822bd359dacbe30f0da89cbfde5f95895b441e13a4864caec1423c931006112307fa558e822bd359dacbe30f0da89cbfde5f95895b441e13a4864caec1423c9310183611c50565b61031d5760405163017ab33760e71b815260040160405180910390fd5b606061023c82611c72565b60008281526000805160206130d9833981519152602052604090206000805160206130b9833981519152906112909060040183611c50565b6112ad57604051632405297d60e11b815260040160405180910390fd5b600083815260038201602052604090206112ca9060040183611715565b50505050565b60008281526000805160206130d9833981519152602052604090206000805160206130b9833981519152906113089060040183611c50565b156113265760405163fb5584f160e01b815260040160405180910390fd5b600083815260038201602052604090206112ca9060040183611d4f565b61134c826111e5565b60405163f0c111f960e01b8152600481018290526001600160a01b0383169063f0c111f990602401600060405180830381600087803b15801561138e57600080fd5b505af11580156113a2573d6000803e3d6000fd5b505050505050565b80516000036102d3576040516319c6193b60e31b815260040160405180910390fd5b6113d5836111e5565b604051633be2f95d60e21b81526001600160a01b0384169063ef8be574906114039085908590600401612efc565b600060405180830381600087803b15801561141d57600080fd5b505af1158015611431573d6000803e3d6000fd5b50505050505050565b60606101f17f672ef851d5f92307da037116e23aa9e31af7e1f7e3ca62c4e6d540631df3fd01611d64565b60008181526000805160206130d983398151915260205260408120805460609291839182916000805160206130b9833981519152916114a390612ca0565b80601f01602080910402602001604051908101604052809291908181526020018280546114cf90612ca0565b801561151c5780601f106114f15761010080835404028352916020019161151c565b820191906000526020600020905b8154815290600101906020018083116114ff57829003601f168201915b50505060008981526003850160205260409020600181015493985060ff909316965061154e92600201915061124d9050565b925061155986611018565b9150509193509193565b81518290821115611587576040516374eb20a760e01b815260040160405180910390fd5b505050565b6000805160206130b98339815191528054600091906115ac906001612f2b565b91505090565b6000805160206130b9833981519152805460009190819083906115d490612f3e565b918290555091506115e86001820183611d71565b50600082815260038201602052604090206116038782612ddb565b5060008281526003820160205260409020600101805460ff191686151517905561162d8285610e6e565b60005b83518110156116d15760006001600160a01b031684828151811061165657611656612c8a565b60200260200101516001600160a01b03160361168557604051637442429b60e01b815260040160405180910390fd5b6116c884828151811061169a5761169a612c8a565b6020026020010151836003016000868152602001908152602001600020600401611d4f90919063ffffffff16565b50600101611630565b5050949350505050565b60006110118383611d7d565b600061023c825490565b60606110118383611e70565b60006110118383611f22565b600061101183836120d7565b6000611011836001600160a01b038416611d7d565b60606000805160206130998339815191526000611746826116e7565b90506000816001600160401b0381111561176257611762612639565b60405190808252806020026020018201604052801561178b578160200160208202803683370190505b50935060005b828110156117fb5760006117a58583611709565b600081815260038701602052604090209091506117c29088610ffd565b156117f2578086846117d381612f3e565b9550815181106117e5576117e5612c8a565b6020026020010181815250505b50600101611791565b508082111561180e578351818303900384525b505050919050565b61181f82612101565b61182882612136565b60008281527f804ad633258ac9b908ae115a2763b3f6e04be3b1165402c872b25af518504303602052604090206000805160206130998339815191529061186f9083610ffd565b61188c576040516333cb039f60e11b815260040160405180910390fd5b600083815260038201602052604090206112ca90836116db565b80516000036102d35760405162ce76c160e41b815260040160405180910390fd5b60006110118383612198565b600061101183836121c5565b6040805180820182527fd2f24d4f172e4e84e48e7c4125b6e904c29e5eba33ad4938fee51dd5dbd4b600546001600160a01b03168082527fd2f24d4f172e4e84e48e7c4125b6e904c29e5eba33ad4938fee51dd5dbd4b60154602080840182905284516331a9108f60e11b815260048101929092529351600094636352211e92602480820193918290030181865afa15801561197f573d6000803e3d6000fd5b505050506040513d601f19601f820116820180604052508101906115ac9190612f57565b6000806119ae6118df565b905060006119bb85612227565b805190915060006119ca6123a5565b805190915060005b83811015611a895760008582815181106119ee576119ee612c8a565b60200260200101519050866001600160a01b0316816001600160a01b031603611a21576001975050505050505050611011565b60005b83811015611a7f57816001600160a01b0316611a58868381518110611a4b57611a4b612c8a565b60200260200101516123d0565b6001600160a01b031603611a7757600098505050505050505050611011565b600101611a24565b50506001016119d2565b507fa558e822bd359dacbe30f0da89cbfde5f95895b441e13a4864caec1423c931006000611ad67fa558e822bd359dacbe30f0da89cbfde5f95895b441e13a4864caec1423c931016116e7565b905060005b81811015611c3e5760008381611af46001830185611709565b6001600160a01b03908116825260208083019390935260409182016000208251606081018452905491821680825260ff600160a01b84048116151583870152600160a81b9093049092161515818401528251630b86d87960e21b815292519094509092632e1b61e492600480820193918290030181865afa158015611b7d573d6000803e3d6000fd5b505050506040513d601f19601f82011682018060405250810190611ba19190612eda565b158015611c1e575080600001516001600160a01b0316630cf0b5338e8a8e6040518463ffffffff1660e01b8152600401611bdd93929190612f74565b602060405180830381865afa158015611bfa573d6000803e3d6000fd5b505050506040513d601f19601f82011682018060405250810190611c1e9190612eda565b15611c355760019950505050505050505050611011565b50600101611adb565b5060009b9a5050505050505050505050565b6001600160a01b03811660009081526001830160205260408120541515611011565b606081600001805480602002602001604051908101604052809291908181526020016000905b82821015611d44578382906000526020600020018054611cb790612ca0565b80601f0160208091040260200160405190810160405280929190818152602001828054611ce390612ca0565b8015611d305780601f10611d0557610100808354040283529160200191611d30565b820191906000526020600020905b815481529060010190602001808311611d1357829003601f168201915b505050505081526020019060010190611c98565b505050509050919050565b6000611011836001600160a01b0384166123db565b6060600061101183612422565b600061101183836123db565b60008181526001830160205260408120548015611e66576000611da1600183612fd6565b8554909150600090611db590600190612fd6565b9050808214611e1a576000866000018281548110611dd557611dd5612c8a565b9060005260206000200154905080876000018481548110611df857611df8612c8a565b6000918252602080832090910192909255918252600188019052604090208390555b8554869080611e2b57611e2b612fe9565b60019003818190600052602060002001600090559055856001016000868152602001908152602001600020600090556001935050505061023c565b600091505061023c565b6060826000018281548110611e8757611e87612c8a565b906000526020600020018054611e9c90612ca0565b80601f0160208091040260200160405190810160405280929190818152602001828054611ec890612ca0565b8015611f155780601f10611eea57610100808354040283529160200191611f15565b820191906000526020600020905b815481529060010190602001808311611ef857829003601f168201915b5050505050905092915050565b6000808360010183604051611f379190612e9a565b908152602001604051809103902054905080600014611e66576000611f5d600183612fd6565b8554909150600090611f7190600190612fd6565b9050818114612078576000866000018281548110611f9157611f91612c8a565b906000526020600020018054611fa690612ca0565b80601f0160208091040260200160405190810160405280929190818152602001828054611fd290612ca0565b801561201f5780601f10611ff45761010080835404028352916020019161201f565b820191906000526020600020905b81548152906001019060200180831161200257829003601f168201915b505050505090508087600001848154811061203c5761203c612c8a565b9060005260206000200190816120529190612ddb565b508387600101826040516120669190612e9a565b90815260405190819003602001902055505b855486908061208957612089612fe9565b6001900381819060005260206000200160006120a59190612549565b905585600101856040516120b99190612e9a565b9081526020016040518091039020600090556001935050505061023c565b60008260000182815481106120ee576120ee612c8a565b9060005260206000200154905092915050565b61211960008051602061309983398151915282610ffd565b6102d35760405163560b4b4160e11b815260040160405180910390fd5b60008181527f804ad633258ac9b908ae115a2763b3f6e04be3b1165402c872b25af51850430260205260409020600101546000805160206130998339815191529060ff161561031d57604051636ce0028960e11b815260040160405180910390fd5b600082600101826040516121ac9190612e9a565b9081526040519081900360200190205415159392505050565b60006121d18383612198565b61221f578254600181018455600084815260209020016121f18382612ddb565b5082546040516001850190612207908590612e9a565b9081526040519081900360200190205550600161023c565b50600061023c565b606060007fc21004fcc619240a31f006438274d15cd813308303284436eef6055f0fdcb6006006015460405162468b7360e31b81526001600160a01b038581166004830152909116915060009082906302345b9890602401600060405180830381865afa15801561229c573d6000803e3d6000fd5b505050506040513d6000823e601f3d908101601f191682016040526122c49190810190612fff565b805190915060006122d6826001612f2b565b6001600160401b038111156122ed576122ed612639565b604051908082528060200260200182016040528015612316578160200160208202803683370190505b50905060005b828110156123705783818151811061233657612336612c8a565b602002602001015182828151811061235057612350612c8a565b6001600160a01b039092166020928302919091019091015260010161231c565b508581838151811061238457612384612c8a565b6001600160a01b039092166020928302919091019091015295945050505050565b60606101f17f49daf035076c43671ca9f9fb568d931e51ab7f9098a5a694781b45341112cf00611d64565b600061023c8261247e565b600081815260018301602052604081205461221f5750815460018181018455600084815260208082209093018490558454848252828601909352604090209190915561023c565b60608160000180548060200260200160405190810160405280929190818152602001828054801561247257602002820191906000526020600020905b81548152602001906001019080831161245e575b50505050509050919050565b60008181527f6569bde4a160c636ea8b8d11acb83a60d7fec0b8f2e09389306cba0e1340df046020526040812054907f6569bde4a160c636ea8b8d11acb83a60d7fec0b8f2e09389306cba0e1340df0090600160e01b8316900361252f5781600003612529578054831061250557604051636f96cda160e11b815260040160405180910390fd5b5b600019909201600081815260048401602052604090205490929091508115612506575b50919050565b50604051636f96cda160e11b815260040160405180910390fd5b50805461255590612ca0565b6000825580601f10612565575050565b601f0160209004906000526020600020908101906102d391906125bb565b50805460008255906000526020600020908101906102d391906125d4565b50805460008255906000526020600020908101906102d391905b5b808211156125d057600081556001016125bc565b5090565b808211156125d05760006125e88282612549565b506001016125d4565b60008083601f84011261260357600080fd5b5081356001600160401b0381111561261a57600080fd5b60208301915083602082850101111561263257600080fd5b9250929050565b634e487b7160e01b600052604160045260246000fd5b604051601f8201601f191681016001600160401b038111828210171561267757612677612639565b604052919050565b60006001600160401b0382111561269857612698612639565b5060051b60200190565b60006001600160401b038311156126bb576126bb612639565b6126ce601f8401601f191660200161264f565b90508281528383830111156126e257600080fd5b828260208301376000602084830101529392505050565b600082601f83011261270a57600080fd5b8135602061271f61271a8361267f565b61264f565b82815260059290921b8401810191818101908684111561273e57600080fd5b8286015b848110156127925780356001600160401b038111156127615760008081fd5b8701603f810189136127735760008081fd5b6127848986830135604084016126a2565b845250918301918301612742565b509695505050505050565b6001600160a01b03811681146102d357600080fd5b6000604082840312156127c457600080fd5b604051604081016001600160401b0382821081831117156127e7576127e7612639565b81604052829350843591506127fb8261279d565b9082526020840135908082111561281157600080fd5b508301601f8101851361282357600080fd5b612832858235602084016126a2565b6020830152505092915050565b600082601f83011261285057600080fd5b8135602061286061271a8361267f565b82815260059290921b8401810191818101908684111561287f57600080fd5b8286015b848110156127925780356001600160401b038111156128a25760008081fd5b6128b08986838b01016127b2565b845250918301918301612883565b6000806000806000608086880312156128d657600080fd5b8535945060208601356001600160401b03808211156128f457600080fd5b61290089838a016125f1565b9096509450604088013591508082111561291957600080fd5b61292589838a016126f9565b9350606088013591508082111561293b57600080fd5b506129488882890161283f565b9150509295509295909350565b60005b83811015612970578181015183820152602001612958565b50506000910152565b60008151808452612991816020860160208601612955565b601f01601f19169290920160200192915050565b60008151808452602080850194506020840160005b838110156129df5781516001600160a01b0316875295820195908201906001016129ba565b509495945050505050565b80518252600060208083015160a082860152612a0960a0860182612979565b9050604084015115156040860152606084015185820360608701528181518084528484019150848160051b850101858401935060005b82811015612a6d57601f19868303018452612a5b828651612979565b94870194938701939150600101612a3f565b506080880151955088810360808a0152612a8781876129a5565b9998505050505050505050565b600060208083016020845280855180835260408601915060408160051b87010192506020870160005b82811015612aeb57603f19888603018452612ad98583516129ea565b94509285019290850190600101612abd565b5092979650505050505050565b600060208284031215612b0a57600080fd5b5035919050565b60208152600061101160208301846129ea565b60008060008060608587031215612b3a57600080fd5b84356001600160401b0380821115612b5157600080fd5b612b5d888389016125f1565b90965094506020870135915080821115612b7657600080fd5b612b82888389016126f9565b93506040870135915080821115612b9857600080fd5b50612ba58782880161283f565b91505092959194509250565b60008060408385031215612bc457600080fd5b8235915060208301356001600160401b03811115612be157600080fd5b612bed858286016126f9565b9150509250929050565b600060208083016020845280855180835260408601915060408160051b87010192506020870160005b82811015612aeb57603f19888603018452612c3c858351612979565b94509285019290850190600101612c20565b60008060408385031215612c6157600080fd5b8235915060208301356001600160401b03811115612c7e57600080fd5b612bed858286016127b2565b634e487b7160e01b600052603260045260246000fd5b600181811c90821680612cb457607f821691505b60208210810361252957634e487b7160e01b600052602260045260246000fd5b601f821115611587576000816000526020600020601f850160051c81016020861015612cfd5750805b601f850160051c820191505b818110156113a257828155600101612d09565b6001600160401b03831115612d3357612d33612639565b612d4783612d418354612ca0565b83612cd4565b6000601f841160018114612d7b5760008515612d635750838201355b600019600387901b1c1916600186901b1783556101e0565b600083815260209020601f19861690835b82811015612dac5786850135825560209485019460019092019101612d8c565b5086821015612dc95760001960f88860031b161c19848701351681555b505060018560011b0183555050505050565b81516001600160401b03811115612df457612df4612639565b612e0881612e028454612ca0565b84612cd4565b602080601f831160018114612e3d5760008415612e255750858301515b600019600386901b1c1916600185901b1785556113a2565b600085815260208120601f198616915b82811015612e6c57888601518255948401946001909101908401612e4d565b5085821015612e8a5787850151600019600388901b60f8161c191681555b5050505050600190811b01905550565b60008251612eac818460208701612955565b9190910192915050565b805160208083015191908110156125295760001960209190910360031b1b16919050565b600060208284031215612eec57600080fd5b8151801515811461101157600080fd5b828152604060208201526000610ff56040830184612979565b634e487b7160e01b600052601160045260246000fd5b8082018082111561023c5761023c612f15565b600060018201612f5057612f50612f15565b5060010190565b600060208284031215612f6957600080fd5b81516110118161279d565b60006060820185835260206060602085015281865180845260808601915060208801935060005b81811015612fc05784516001600160a01b031683529383019391830191600101612f9b565b5050809350505050826040830152949350505050565b8181038181111561023c5761023c612f15565b634e487b7160e01b600052603160045260246000fd5b6000602080838503121561301257600080fd5b82516001600160401b0381111561302857600080fd5b8301601f8101851361303957600080fd5b805161304761271a8261267f565b81815260059190911b8201830190838101908783111561306657600080fd5b928401925b8284101561308d57835161307e8161279d565b8252928401929084019061306b565b97965050505050505056fe804ad633258ac9b908ae115a2763b3f6e04be3b1165402c872b25af518504300672ef851d5f92307da037116e23aa9e31af7e1f7e3ca62c4e6d540631df3fd00672ef851d5f92307da037116e23aa9e31af7e1f7e3ca62c4e6d540631df3fd03","linkReferences":{}},"methodIdentifiers":{"addPermissionsToRole(uint256,string[])":"b7515761","addRoleToEntitlement(uint256,(address,bytes))":"ba201ba8","createRole(string,string[],(address,bytes)[])":"8fcd793d","getPermissionsByRoleId(uint256)":"b4264233","getRoleById(uint256)":"784c872b","getRoles()":"71061398","removePermissionsFromRole(uint256,string[])":"9a8e4c3e","removeRole(uint256)":"92691821","removeRoleFromEntitlement(uint256,(address,bytes))":"dba81864","updateRole(uint256,string,string[],(address,bytes)[])":"4d8b50a2"},"id":217}