{"abi":[{"type":"function","name":"__WalletLink_init","inputs":[],"outputs":[],"stateMutability":"nonpayable"},{"type":"function","name":"checkIfLinked","inputs":[{"name":"rootKey","type":"address","internalType":"address"},{"name":"wallet","type":"address","internalType":"address"}],"outputs":[{"name":"","type":"bool","internalType":"bool"}],"stateMutability":"view"},{"type":"function","name":"getLatestNonceForRootKey","inputs":[{"name":"rootKey","type":"address","internalType":"address"}],"outputs":[{"name":"","type":"uint256","internalType":"uint256"}],"stateMutability":"view"},{"type":"function","name":"getRootKeyForWallet","inputs":[{"name":"wallet","type":"address","internalType":"address"}],"outputs":[{"name":"rootKey","type":"address","internalType":"address"}],"stateMutability":"view"},{"type":"function","name":"getWalletsByRootKey","inputs":[{"name":"rootKey","type":"address","internalType":"address"}],"outputs":[{"name":"wallets","type":"address[]","internalType":"address[]"}],"stateMutability":"view"},{"type":"function","name":"linkCallerToRootKey","inputs":[{"name":"rootWallet","type":"tuple","internalType":"struct IWalletLinkBase.LinkedWallet","components":[{"name":"addr","type":"address","internalType":"address"},{"name":"signature","type":"bytes","internalType":"bytes"}]},{"name":"nonce","type":"uint256","internalType":"uint256"}],"outputs":[],"stateMutability":"nonpayable"},{"type":"function","name":"linkWalletToRootKey","inputs":[{"name":"wallet","type":"tuple","internalType":"struct IWalletLinkBase.LinkedWallet","components":[{"name":"addr","type":"address","internalType":"address"},{"name":"signature","type":"bytes","internalType":"bytes"}]},{"name":"rootWallet","type":"tuple","internalType":"struct IWalletLinkBase.LinkedWallet","components":[{"name":"addr","type":"address","internalType":"address"},{"name":"signature","type":"bytes","internalType":"bytes"}]},{"name":"nonce","type":"uint256","internalType":"uint256"}],"outputs":[],"stateMutability":"nonpayable"},{"type":"function","name":"removeLink","inputs":[{"name":"wallet","type":"address","internalType":"address"},{"name":"rootWallet","type":"tuple","internalType":"struct IWalletLinkBase.LinkedWallet","components":[{"name":"addr","type":"address","internalType":"address"},{"name":"signature","type":"bytes","internalType":"bytes"}]},{"name":"nonce","type":"uint256","internalType":"uint256"}],"outputs":[],"stateMutability":"nonpayable"},{"type":"event","name":"Initialized","inputs":[{"name":"version","type":"uint32","indexed":false,"internalType":"uint32"}],"anonymous":false},{"type":"event","name":"InterfaceAdded","inputs":[{"name":"interfaceId","type":"bytes4","indexed":true,"internalType":"bytes4"}],"anonymous":false},{"type":"event","name":"InterfaceRemoved","inputs":[{"name":"interfaceId","type":"bytes4","indexed":true,"internalType":"bytes4"}],"anonymous":false},{"type":"event","name":"LinkWalletToRootKey","inputs":[{"name":"wallet","type":"address","indexed":true,"internalType":"address"},{"name":"rootKey","type":"address","indexed":true,"internalType":"address"}],"anonymous":false},{"type":"event","name":"RemoveLink","inputs":[{"name":"wallet","type":"address","indexed":true,"internalType":"address"},{"name":"secondWallet","type":"address","indexed":true,"internalType":"address"}],"anonymous":false},{"type":"error","name":"ECDSAInvalidSignature","inputs":[]},{"type":"error","name":"ECDSAInvalidSignatureLength","inputs":[{"name":"length","type":"uint256","internalType":"uint256"}]},{"type":"error","name":"ECDSAInvalidSignatureS","inputs":[{"name":"s","type":"bytes32","internalType":"bytes32"}]},{"type":"error","name":"Initializable_InInitializingState","inputs":[]},{"type":"error","name":"Initializable_NotInInitializingState","inputs":[]},{"type":"error","name":"Introspection_AlreadySupported","inputs":[]},{"type":"error","name":"Introspection_NotSupported","inputs":[]},{"type":"error","name":"InvalidAccountNonce","inputs":[{"name":"account","type":"address","internalType":"address"},{"name":"currentNonce","type":"uint256","internalType":"uint256"}]},{"type":"error","name":"WalletLink__CannotLinkToRootWallet","inputs":[{"name":"wallet","type":"address","internalType":"address"},{"name":"rootKey","type":"address","internalType":"address"}]},{"type":"error","name":"WalletLink__CannotLinkToSelf","inputs":[]},{"type":"error","name":"WalletLink__CannotRemoveRootWallet","inputs":[]},{"type":"error","name":"WalletLink__InvalidAddress","inputs":[]},{"type":"error","name":"WalletLink__InvalidSignature","inputs":[]},{"type":"error","name":"WalletLink__LinkAlreadyExists","inputs":[{"name":"wallet","type":"address","internalType":"address"},{"name":"rootKey","type":"address","internalType":"address"}]},{"type":"error","name":"WalletLink__LinkedToAnotherRootKey","inputs":[{"name":"wallet","type":"address","internalType":"address"},{"name":"rootKey","type":"address","internalType":"address"}]},{"type":"error","name":"WalletLink__NotLinked","inputs":[{"name":"wallet","type":"address","internalType":"address"},{"name":"rootKey","type":"address","internalType":"address"}]}],"bytecode":{"object":"0x608060405234801561001057600080fd5b5061001961001e565b6100c4565b7f59b501c3653afc186af7d48dda36cf6732bd21629a6295693664240a6ef520008054640100000000900460ff161561006a576040516366008a2d60e01b815260040160405180910390fd5b805463ffffffff90811610156100c157805463ffffffff191663ffffffff90811782556040519081527fe9c9b456cb2994b80aeef036cf59d26e9617df80f816a6ee5a5b4166e07e2f5c9060200160405180910390a15b50565b6111ba806100d36000396000f3fe608060405234801561001057600080fd5b50600436106100885760003560e01c8063912b97581161005b578063912b9758146100f4578063d80bd3b914610117578063e65dfe9d1461012a578063f82103981461013d57600080fd5b806302345b981461008d5780631a31fc8d146100b657806320a00ac8146100cb578063260a409d146100ec575b600080fd5b6100a061009b366004610e84565b610168565b6040516100ad9190610e9f565b60405180910390f35b6100c96100c436600461100b565b610179565b005b6100de6100d9366004610e84565b610189565b6040519081526020016100ad565b6100c96101c6565b610107610102366004611078565b610222565b60405190151581526020016100ad565b6100c96101253660046110ab565b61026b565b6100c96101383660046110f1565b610276565b61015061014b366004610e84565b610284565b6040516001600160a01b0390911681526020016100ad565b6060610173826102c5565b92915050565b6101848383836102f6565b505050565b6001600160a01b03811660009081527fda5d6d87446d81938877f0ee239dac391146dd7466ea30567f72becf06773c006020526040812054610173565b7f59b501c3653afc186af7d48dda36cf6732bd21629a6295693664240a6ef5200054640100000000900460ff1661021057604051630ef4733760e31b815260040160405180910390fd5b610220636ff9143960e01b6104da565b565b6001600160a01b0381811660009081527f19511ce7944c192b1007be99b82019218d1decfc513f05239612743360a0dc01602052604081205490918481169116145b9392505050565b6101848383836105b8565b6102808282610780565b5050565b6001600160a01b0380821660009081527f19511ce7944c192b1007be99b82019218d1decfc513f05239612743360a0dc016020526040812054909116610173565b6001600160a01b038116600090815260008051602061119a83398151915260205260409020606090610173906108a7565b8251825160008051602061119a83398151915291610316918391906108b4565b8351604080516001600160a01b0390921660208301528101839052600090610385906060015b604051602081830303815290604052805190602001207f19457468657265756d205369676e6564204d6573736167653a0a3332000000006000908152601c91909152603c902090565b905083600001516001600160a01b03166103a3828660200151610a25565b6001600160a01b0316146103ca57604051632af0041d60e11b815260040160405180910390fd5b8351604080516001600160a01b03909216602083015281018490526000906103f49060600161033c565b905085600001516001600160a01b0316610412828860200151610a25565b6001600160a01b03161461043957604051632af0041d60e11b815260040160405180910390fd5b84516104459085610a4f565b855185516001600160a01b0316600090815260208590526040902061046991610ac1565b50845186516001600160a01b03908116600090815260018601602052604080822080546001600160a01b0319169484169490941790935587518951935190831693909216917f64126824352170c4025060d1f6e215159635e4b08e649830695f26ef6d2b57219190a3505050505050565b6001600160e01b0319811660009081527f81088bbc801e045ea3e7620779ab349988f58afbdfba10dff983df3f33522b00602052604090205460ff161515600114610567576001600160e01b0319811660009081527f81088bbc801e045ea3e7620779ab349988f58afbdfba10dff983df3f33522b0060205260409020805460ff19166001179055610580565b604051637967f77d60e11b815260040160405180910390fd5b6040516001600160e01b03198216907f78f84e5b1c5c05be2b5ad3800781dd404d6d6c6302bc755c0fe20f58a33a7f2290600090a250565b60008051602061119a8339815191526001600160a01b03841615806105e5575082516001600160a01b0316155b1561060357604051636df3f5c360e01b815260040160405180910390fd5b82600001516001600160a01b0316846001600160a01b031603610639576040516333976e3b60e11b815260040160405180910390fd5b82516001600160a01b0385811660009081526001840160205260409020548116911614610694578251604051635e300c8360e01b81526001600160a01b03808716600483015290911660248201526044015b60405180910390fd5b604080516001600160a01b03861660208201529081018390526000906106bc9060600161033c565b905083600001516001600160a01b03166106da828660200151610a25565b6001600160a01b03161461070157604051632af0041d60e11b815260040160405180910390fd5b6001600160a01b038086166000908152600184016020908152604080832080546001600160a01b031916905587519093168252849052206107429086610ad6565b5060405133906001600160a01b038716907f9a9d98629b39adf596077fc95a0712ba55c38f40a354e99d366a10f9c3e27da290600090a35050505050565b815160008051602061119a8339815191529033906107a190839083906108b4565b604080516001600160a01b03831660208201529081018490526000906107c99060600161033c565b905084600001516001600160a01b03166107e7828760200151610a25565b6001600160a01b03161461080e57604051632af0041d60e11b815260040160405180910390fd5b845161081a9085610a4f565b84516001600160a01b0316600090815260208490526040902061083d9083610ac1565b5084516001600160a01b03838116600081815260018701602052604080822080546001600160a01b0319169585169590951790945588519351939092169290917f64126824352170c4025060d1f6e215159635e4b08e649830695f26ef6d2b572191a35050505050565b6060600061026483610aeb565b6001600160a01b03821615806108d157506001600160a01b038116155b156108ef57604051636df3f5c360e01b815260040160405180910390fd5b806001600160a01b0316826001600160a01b0316036109215760405163848ba26d60e01b815260040160405180910390fd5b6001600160a01b038281166000908152600185016020526040902054161561096f576040516314790b7f60e01b81526001600160a01b0380841660048301528216602482015260440161068b565b6001600160a01b03818116600090815260018501602052604090205416156109d2576001600160a01b038181166000908152600185016020526040908190205490516347227b5d60e01b815284831660048201529116602482015260440161068b565b6001600160a01b03821660009081526020849052604081206109f390610b47565b111561018457604051637b815eed60e11b81526001600160a01b0380841660048301528216602482015260440161068b565b600080600080610a358686610b51565b925092509250610a458282610b9e565b5090949350505050565b6001600160a01b03821660009081527fda5d6d87446d81938877f0ee239dac391146dd7466ea30567f72becf06773c0060205260409020805460018101909155818114610184576040516301d4b62360e61b81526001600160a01b03841660048201526024810182905260440161068b565b6000610264836001600160a01b038416610c57565b6000610264836001600160a01b038416610ca6565b606081600001805480602002602001604051908101604052809291908181526020018280548015610b3b57602002820191906000526020600020905b815481526020019060010190808311610b27575b50505050509050919050565b6000610173825490565b60008060008351604103610b8b5760208401516040850151606086015160001a610b7d88828585610d99565b955095509550505050610b97565b50508151600091506002905b9250925092565b6000826003811115610bb257610bb2611136565b03610bbb575050565b6001826003811115610bcf57610bcf611136565b03610bed5760405163f645eedf60e01b815260040160405180910390fd5b6002826003811115610c0157610c01611136565b03610c225760405163fce698f760e01b81526004810182905260240161068b565b6003826003811115610c3657610c36611136565b03610280576040516335e2f38360e21b81526004810182905260240161068b565b6000818152600183016020526040812054610c9e57508154600181810184556000848152602080822090930184905584548482528286019093526040902091909155610173565b506000610173565b60008181526001830160205260408120548015610d8f576000610cca60018361114c565b8554909150600090610cde9060019061114c565b9050808214610d43576000866000018281548110610cfe57610cfe61116d565b9060005260206000200154905080876000018481548110610d2157610d2161116d565b6000918252602080832090910192909255918252600188019052604090208390555b8554869080610d5457610d54611183565b600190038181906000526020600020016000905590558560010160008681526020019081526020016000206000905560019350505050610173565b6000915050610173565b600080807f7fffffffffffffffffffffffffffffff5d576e7357a4501ddfe92f46681b20a0841115610dd45750600091506003905082610e5e565b604080516000808252602082018084528a905260ff891692820192909252606081018790526080810186905260019060a0016020604051602081039080840390855afa158015610e28573d6000803e3d6000fd5b5050604051601f1901519150506001600160a01b038116610e5457506000925060019150829050610e5e565b9250600091508190505b9450945094915050565b80356001600160a01b0381168114610e7f57600080fd5b919050565b600060208284031215610e9657600080fd5b61026482610e68565b6020808252825182820181905260009190848201906040850190845b81811015610ee05783516001600160a01b031683529284019291840191600101610ebb565b50909695505050505050565b634e487b7160e01b600052604160045260246000fd5b6040805190810167ffffffffffffffff81118282101715610f2557610f25610eec565b60405290565b604051601f8201601f1916810167ffffffffffffffff81118282101715610f5457610f54610eec565b604052919050565b600060408284031215610f6e57600080fd5b610f76610f02565b9050610f8182610e68565b815260208083013567ffffffffffffffff80821115610f9f57600080fd5b818501915085601f830112610fb357600080fd5b813581811115610fc557610fc5610eec565b610fd7601f8201601f19168501610f2b565b91508082528684828501011115610fed57600080fd5b80848401858401376000908201840152918301919091525092915050565b60008060006060848603121561102057600080fd5b833567ffffffffffffffff8082111561103857600080fd5b61104487838801610f5c565b9450602086013591508082111561105a57600080fd5b5061106786828701610f5c565b925050604084013590509250925092565b6000806040838503121561108b57600080fd5b61109483610e68565b91506110a260208401610e68565b90509250929050565b6000806000606084860312156110c057600080fd5b6110c984610e68565b9250602084013567ffffffffffffffff8111156110e557600080fd5b61106786828701610f5c565b6000806040838503121561110457600080fd5b823567ffffffffffffffff81111561111b57600080fd5b61112785828601610f5c565b95602094909401359450505050565b634e487b7160e01b600052602160045260246000fd5b8181038181111561017357634e487b7160e01b600052601160045260246000fd5b634e487b7160e01b600052603260045260246000fd5b634e487b7160e01b600052603160045260246000fdfe19511ce7944c192b1007be99b82019218d1decfc513f05239612743360a0dc00","linkReferences":{}},"methodIdentifiers":{"__WalletLink_init()":"260a409d","checkIfLinked(address,address)":"912b9758","getLatestNonceForRootKey(address)":"20a00ac8","getRootKeyForWallet(address)":"f8210398","getWalletsByRootKey(address)":"02345b98","linkCallerToRootKey((address,bytes),uint256)":"e65dfe9d","linkWalletToRootKey((address,bytes),(address,bytes),uint256)":"1a31fc8d","removeLink(address,(address,bytes),uint256)":"d80bd3b9"},"id":172}