{
  "_format": "hh-sol-artifact-1",
  "contractName": "AccessManagerUpgradeable",
  "sourceName": "contracts/access/manager/AccessManagerUpgradeable.sol",
  "abi": [
    {
      "inputs": [
        {
          "internalType": "bytes32",
          "name": "operationId",
          "type": "bytes32"
        }
      ],
      "name": "AccessManagerAlreadyScheduled",
      "type": "error"
    },
    {
      "inputs": [],
      "name": "AccessManagerBadConfirmation",
      "type": "error"
    },
    {
      "inputs": [
        {
          "internalType": "bytes32",
          "name": "operationId",
          "type": "bytes32"
        }
      ],
      "name": "AccessManagerExpired",
      "type": "error"
    },
    {
      "inputs": [
        {
          "internalType": "address",
          "name": "initialAdmin",
          "type": "address"
        }
      ],
      "name": "AccessManagerInvalidInitialAdmin",
      "type": "error"
    },
    {
      "inputs": [
        {
          "internalType": "address",
          "name": "account",
          "type": "address"
        }
      ],
      "name": "AccessManagerLockedAccount",
      "type": "error"
    },
    {
      "inputs": [
        {
          "internalType": "uint64",
          "name": "roleId",
          "type": "uint64"
        }
      ],
      "name": "AccessManagerLockedRole",
      "type": "error"
    },
    {
      "inputs": [
        {
          "internalType": "bytes32",
          "name": "operationId",
          "type": "bytes32"
        }
      ],
      "name": "AccessManagerNotReady",
      "type": "error"
    },
    {
      "inputs": [
        {
          "internalType": "bytes32",
          "name": "operationId",
          "type": "bytes32"
        }
      ],
      "name": "AccessManagerNotScheduled",
      "type": "error"
    },
    {
      "inputs": [
        {
          "internalType": "address",
          "name": "msgsender",
          "type": "address"
        },
        {
          "internalType": "uint64",
          "name": "roleId",
          "type": "uint64"
        }
      ],
      "name": "AccessManagerUnauthorizedAccount",
      "type": "error"
    },
    {
      "inputs": [
        {
          "internalType": "address",
          "name": "caller",
          "type": "address"
        },
        {
          "internalType": "address",
          "name": "target",
          "type": "address"
        },
        {
          "internalType": "bytes4",
          "name": "selector",
          "type": "bytes4"
        }
      ],
      "name": "AccessManagerUnauthorizedCall",
      "type": "error"
    },
    {
      "inputs": [
        {
          "internalType": "address",
          "name": "msgsender",
          "type": "address"
        },
        {
          "internalType": "address",
          "name": "caller",
          "type": "address"
        },
        {
          "internalType": "address",
          "name": "target",
          "type": "address"
        },
        {
          "internalType": "bytes4",
          "name": "selector",
          "type": "bytes4"
        }
      ],
      "name": "AccessManagerUnauthorizedCancel",
      "type": "error"
    },
    {
      "inputs": [
        {
          "internalType": "address",
          "name": "target",
          "type": "address"
        }
      ],
      "name": "AccessManagerUnauthorizedConsume",
      "type": "error"
    },
    {
      "inputs": [
        {
          "internalType": "address",
          "name": "target",
          "type": "address"
        }
      ],
      "name": "AddressEmptyCode",
      "type": "error"
    },
    {
      "inputs": [
        {
          "internalType": "address",
          "name": "account",
          "type": "address"
        }
      ],
      "name": "AddressInsufficientBalance",
      "type": "error"
    },
    {
      "inputs": [],
      "name": "FailedInnerCall",
      "type": "error"
    },
    {
      "inputs": [],
      "name": "InvalidInitialization",
      "type": "error"
    },
    {
      "inputs": [],
      "name": "NotInitializing",
      "type": "error"
    },
    {
      "inputs": [
        {
          "internalType": "uint8",
          "name": "bits",
          "type": "uint8"
        },
        {
          "internalType": "uint256",
          "name": "value",
          "type": "uint256"
        }
      ],
      "name": "SafeCastOverflowedUintDowncast",
      "type": "error"
    },
    {
      "anonymous": false,
      "inputs": [
        {
          "indexed": false,
          "internalType": "uint64",
          "name": "version",
          "type": "uint64"
        }
      ],
      "name": "Initialized",
      "type": "event"
    },
    {
      "anonymous": false,
      "inputs": [
        {
          "indexed": true,
          "internalType": "bytes32",
          "name": "operationId",
          "type": "bytes32"
        },
        {
          "indexed": true,
          "internalType": "uint32",
          "name": "nonce",
          "type": "uint32"
        }
      ],
      "name": "OperationCanceled",
      "type": "event"
    },
    {
      "anonymous": false,
      "inputs": [
        {
          "indexed": true,
          "internalType": "bytes32",
          "name": "operationId",
          "type": "bytes32"
        },
        {
          "indexed": true,
          "internalType": "uint32",
          "name": "nonce",
          "type": "uint32"
        }
      ],
      "name": "OperationExecuted",
      "type": "event"
    },
    {
      "anonymous": false,
      "inputs": [
        {
          "indexed": true,
          "internalType": "bytes32",
          "name": "operationId",
          "type": "bytes32"
        },
        {
          "indexed": true,
          "internalType": "uint32",
          "name": "nonce",
          "type": "uint32"
        },
        {
          "indexed": false,
          "internalType": "uint48",
          "name": "schedule",
          "type": "uint48"
        },
        {
          "indexed": false,
          "internalType": "address",
          "name": "caller",
          "type": "address"
        },
        {
          "indexed": false,
          "internalType": "address",
          "name": "target",
          "type": "address"
        },
        {
          "indexed": false,
          "internalType": "bytes",
          "name": "data",
          "type": "bytes"
        }
      ],
      "name": "OperationScheduled",
      "type": "event"
    },
    {
      "anonymous": false,
      "inputs": [
        {
          "indexed": true,
          "internalType": "uint64",
          "name": "roleId",
          "type": "uint64"
        },
        {
          "indexed": true,
          "internalType": "uint64",
          "name": "admin",
          "type": "uint64"
        }
      ],
      "name": "RoleAdminChanged",
      "type": "event"
    },
    {
      "anonymous": false,
      "inputs": [
        {
          "indexed": true,
          "internalType": "uint64",
          "name": "roleId",
          "type": "uint64"
        },
        {
          "indexed": false,
          "internalType": "uint32",
          "name": "delay",
          "type": "uint32"
        },
        {
          "indexed": false,
          "internalType": "uint48",
          "name": "since",
          "type": "uint48"
        }
      ],
      "name": "RoleGrantDelayChanged",
      "type": "event"
    },
    {
      "anonymous": false,
      "inputs": [
        {
          "indexed": true,
          "internalType": "uint64",
          "name": "roleId",
          "type": "uint64"
        },
        {
          "indexed": true,
          "internalType": "address",
          "name": "account",
          "type": "address"
        },
        {
          "indexed": false,
          "internalType": "uint32",
          "name": "delay",
          "type": "uint32"
        },
        {
          "indexed": false,
          "internalType": "uint48",
          "name": "since",
          "type": "uint48"
        },
        {
          "indexed": false,
          "internalType": "bool",
          "name": "newMember",
          "type": "bool"
        }
      ],
      "name": "RoleGranted",
      "type": "event"
    },
    {
      "anonymous": false,
      "inputs": [
        {
          "indexed": true,
          "internalType": "uint64",
          "name": "roleId",
          "type": "uint64"
        },
        {
          "indexed": true,
          "internalType": "uint64",
          "name": "guardian",
          "type": "uint64"
        }
      ],
      "name": "RoleGuardianChanged",
      "type": "event"
    },
    {
      "anonymous": false,
      "inputs": [
        {
          "indexed": true,
          "internalType": "uint64",
          "name": "roleId",
          "type": "uint64"
        },
        {
          "indexed": false,
          "internalType": "string",
          "name": "label",
          "type": "string"
        }
      ],
      "name": "RoleLabel",
      "type": "event"
    },
    {
      "anonymous": false,
      "inputs": [
        {
          "indexed": true,
          "internalType": "uint64",
          "name": "roleId",
          "type": "uint64"
        },
        {
          "indexed": true,
          "internalType": "address",
          "name": "account",
          "type": "address"
        }
      ],
      "name": "RoleRevoked",
      "type": "event"
    },
    {
      "anonymous": false,
      "inputs": [
        {
          "indexed": true,
          "internalType": "address",
          "name": "target",
          "type": "address"
        },
        {
          "indexed": false,
          "internalType": "uint32",
          "name": "delay",
          "type": "uint32"
        },
        {
          "indexed": false,
          "internalType": "uint48",
          "name": "since",
          "type": "uint48"
        }
      ],
      "name": "TargetAdminDelayUpdated",
      "type": "event"
    },
    {
      "anonymous": false,
      "inputs": [
        {
          "indexed": true,
          "internalType": "address",
          "name": "target",
          "type": "address"
        },
        {
          "indexed": false,
          "internalType": "bool",
          "name": "closed",
          "type": "bool"
        }
      ],
      "name": "TargetClosed",
      "type": "event"
    },
    {
      "anonymous": false,
      "inputs": [
        {
          "indexed": true,
          "internalType": "address",
          "name": "target",
          "type": "address"
        },
        {
          "indexed": false,
          "internalType": "bytes4",
          "name": "selector",
          "type": "bytes4"
        },
        {
          "indexed": true,
          "internalType": "uint64",
          "name": "roleId",
          "type": "uint64"
        }
      ],
      "name": "TargetFunctionRoleUpdated",
      "type": "event"
    },
    {
      "inputs": [],
      "name": "ADMIN_ROLE",
      "outputs": [
        {
          "internalType": "uint64",
          "name": "",
          "type": "uint64"
        }
      ],
      "stateMutability": "view",
      "type": "function"
    },
    {
      "inputs": [],
      "name": "PUBLIC_ROLE",
      "outputs": [
        {
          "internalType": "uint64",
          "name": "",
          "type": "uint64"
        }
      ],
      "stateMutability": "view",
      "type": "function"
    },
    {
      "inputs": [
        {
          "internalType": "address",
          "name": "caller",
          "type": "address"
        },
        {
          "internalType": "address",
          "name": "target",
          "type": "address"
        },
        {
          "internalType": "bytes4",
          "name": "selector",
          "type": "bytes4"
        }
      ],
      "name": "canCall",
      "outputs": [
        {
          "internalType": "bool",
          "name": "immediate",
          "type": "bool"
        },
        {
          "internalType": "uint32",
          "name": "delay",
          "type": "uint32"
        }
      ],
      "stateMutability": "view",
      "type": "function"
    },
    {
      "inputs": [
        {
          "internalType": "address",
          "name": "caller",
          "type": "address"
        },
        {
          "internalType": "address",
          "name": "target",
          "type": "address"
        },
        {
          "internalType": "bytes",
          "name": "data",
          "type": "bytes"
        }
      ],
      "name": "cancel",
      "outputs": [
        {
          "internalType": "uint32",
          "name": "",
          "type": "uint32"
        }
      ],
      "stateMutability": "nonpayable",
      "type": "function"
    },
    {
      "inputs": [
        {
          "internalType": "address",
          "name": "caller",
          "type": "address"
        },
        {
          "internalType": "bytes",
          "name": "data",
          "type": "bytes"
        }
      ],
      "name": "consumeScheduledOp",
      "outputs": [],
      "stateMutability": "nonpayable",
      "type": "function"
    },
    {
      "inputs": [
        {
          "internalType": "address",
          "name": "target",
          "type": "address"
        },
        {
          "internalType": "bytes",
          "name": "data",
          "type": "bytes"
        }
      ],
      "name": "execute",
      "outputs": [
        {
          "internalType": "uint32",
          "name": "",
          "type": "uint32"
        }
      ],
      "stateMutability": "payable",
      "type": "function"
    },
    {
      "inputs": [],
      "name": "expiration",
      "outputs": [
        {
          "internalType": "uint32",
          "name": "",
          "type": "uint32"
        }
      ],
      "stateMutability": "view",
      "type": "function"
    },
    {
      "inputs": [
        {
          "internalType": "uint64",
          "name": "roleId",
          "type": "uint64"
        },
        {
          "internalType": "address",
          "name": "account",
          "type": "address"
        }
      ],
      "name": "getAccess",
      "outputs": [
        {
          "internalType": "uint48",
          "name": "since",
          "type": "uint48"
        },
        {
          "internalType": "uint32",
          "name": "currentDelay",
          "type": "uint32"
        },
        {
          "internalType": "uint32",
          "name": "pendingDelay",
          "type": "uint32"
        },
        {
          "internalType": "uint48",
          "name": "effect",
          "type": "uint48"
        }
      ],
      "stateMutability": "view",
      "type": "function"
    },
    {
      "inputs": [
        {
          "internalType": "bytes32",
          "name": "id",
          "type": "bytes32"
        }
      ],
      "name": "getNonce",
      "outputs": [
        {
          "internalType": "uint32",
          "name": "",
          "type": "uint32"
        }
      ],
      "stateMutability": "view",
      "type": "function"
    },
    {
      "inputs": [
        {
          "internalType": "uint64",
          "name": "roleId",
          "type": "uint64"
        }
      ],
      "name": "getRoleAdmin",
      "outputs": [
        {
          "internalType": "uint64",
          "name": "",
          "type": "uint64"
        }
      ],
      "stateMutability": "view",
      "type": "function"
    },
    {
      "inputs": [
        {
          "internalType": "uint64",
          "name": "roleId",
          "type": "uint64"
        }
      ],
      "name": "getRoleGrantDelay",
      "outputs": [
        {
          "internalType": "uint32",
          "name": "",
          "type": "uint32"
        }
      ],
      "stateMutability": "view",
      "type": "function"
    },
    {
      "inputs": [
        {
          "internalType": "uint64",
          "name": "roleId",
          "type": "uint64"
        }
      ],
      "name": "getRoleGuardian",
      "outputs": [
        {
          "internalType": "uint64",
          "name": "",
          "type": "uint64"
        }
      ],
      "stateMutability": "view",
      "type": "function"
    },
    {
      "inputs": [
        {
          "internalType": "bytes32",
          "name": "id",
          "type": "bytes32"
        }
      ],
      "name": "getSchedule",
      "outputs": [
        {
          "internalType": "uint48",
          "name": "",
          "type": "uint48"
        }
      ],
      "stateMutability": "view",
      "type": "function"
    },
    {
      "inputs": [
        {
          "internalType": "address",
          "name": "target",
          "type": "address"
        }
      ],
      "name": "getTargetAdminDelay",
      "outputs": [
        {
          "internalType": "uint32",
          "name": "",
          "type": "uint32"
        }
      ],
      "stateMutability": "view",
      "type": "function"
    },
    {
      "inputs": [
        {
          "internalType": "address",
          "name": "target",
          "type": "address"
        },
        {
          "internalType": "bytes4",
          "name": "selector",
          "type": "bytes4"
        }
      ],
      "name": "getTargetFunctionRole",
      "outputs": [
        {
          "internalType": "uint64",
          "name": "",
          "type": "uint64"
        }
      ],
      "stateMutability": "view",
      "type": "function"
    },
    {
      "inputs": [
        {
          "internalType": "uint64",
          "name": "roleId",
          "type": "uint64"
        },
        {
          "internalType": "address",
          "name": "account",
          "type": "address"
        },
        {
          "internalType": "uint32",
          "name": "executionDelay",
          "type": "uint32"
        }
      ],
      "name": "grantRole",
      "outputs": [],
      "stateMutability": "nonpayable",
      "type": "function"
    },
    {
      "inputs": [
        {
          "internalType": "uint64",
          "name": "roleId",
          "type": "uint64"
        },
        {
          "internalType": "address",
          "name": "account",
          "type": "address"
        }
      ],
      "name": "hasRole",
      "outputs": [
        {
          "internalType": "bool",
          "name": "isMember",
          "type": "bool"
        },
        {
          "internalType": "uint32",
          "name": "executionDelay",
          "type": "uint32"
        }
      ],
      "stateMutability": "view",
      "type": "function"
    },
    {
      "inputs": [
        {
          "internalType": "address",
          "name": "caller",
          "type": "address"
        },
        {
          "internalType": "address",
          "name": "target",
          "type": "address"
        },
        {
          "internalType": "bytes",
          "name": "data",
          "type": "bytes"
        }
      ],
      "name": "hashOperation",
      "outputs": [
        {
          "internalType": "bytes32",
          "name": "",
          "type": "bytes32"
        }
      ],
      "stateMutability": "view",
      "type": "function"
    },
    {
      "inputs": [
        {
          "internalType": "address",
          "name": "target",
          "type": "address"
        }
      ],
      "name": "isTargetClosed",
      "outputs": [
        {
          "internalType": "bool",
          "name": "",
          "type": "bool"
        }
      ],
      "stateMutability": "view",
      "type": "function"
    },
    {
      "inputs": [
        {
          "internalType": "uint64",
          "name": "roleId",
          "type": "uint64"
        },
        {
          "internalType": "string",
          "name": "label",
          "type": "string"
        }
      ],
      "name": "labelRole",
      "outputs": [],
      "stateMutability": "nonpayable",
      "type": "function"
    },
    {
      "inputs": [],
      "name": "minSetback",
      "outputs": [
        {
          "internalType": "uint32",
          "name": "",
          "type": "uint32"
        }
      ],
      "stateMutability": "view",
      "type": "function"
    },
    {
      "inputs": [
        {
          "internalType": "bytes[]",
          "name": "data",
          "type": "bytes[]"
        }
      ],
      "name": "multicall",
      "outputs": [
        {
          "internalType": "bytes[]",
          "name": "results",
          "type": "bytes[]"
        }
      ],
      "stateMutability": "nonpayable",
      "type": "function"
    },
    {
      "inputs": [
        {
          "internalType": "uint64",
          "name": "roleId",
          "type": "uint64"
        },
        {
          "internalType": "address",
          "name": "callerConfirmation",
          "type": "address"
        }
      ],
      "name": "renounceRole",
      "outputs": [],
      "stateMutability": "nonpayable",
      "type": "function"
    },
    {
      "inputs": [
        {
          "internalType": "uint64",
          "name": "roleId",
          "type": "uint64"
        },
        {
          "internalType": "address",
          "name": "account",
          "type": "address"
        }
      ],
      "name": "revokeRole",
      "outputs": [],
      "stateMutability": "nonpayable",
      "type": "function"
    },
    {
      "inputs": [
        {
          "internalType": "address",
          "name": "target",
          "type": "address"
        },
        {
          "internalType": "bytes",
          "name": "data",
          "type": "bytes"
        },
        {
          "internalType": "uint48",
          "name": "when",
          "type": "uint48"
        }
      ],
      "name": "schedule",
      "outputs": [
        {
          "internalType": "bytes32",
          "name": "operationId",
          "type": "bytes32"
        },
        {
          "internalType": "uint32",
          "name": "nonce",
          "type": "uint32"
        }
      ],
      "stateMutability": "nonpayable",
      "type": "function"
    },
    {
      "inputs": [
        {
          "internalType": "uint64",
          "name": "roleId",
          "type": "uint64"
        },
        {
          "internalType": "uint32",
          "name": "newDelay",
          "type": "uint32"
        }
      ],
      "name": "setGrantDelay",
      "outputs": [],
      "stateMutability": "nonpayable",
      "type": "function"
    },
    {
      "inputs": [
        {
          "internalType": "uint64",
          "name": "roleId",
          "type": "uint64"
        },
        {
          "internalType": "uint64",
          "name": "admin",
          "type": "uint64"
        }
      ],
      "name": "setRoleAdmin",
      "outputs": [],
      "stateMutability": "nonpayable",
      "type": "function"
    },
    {
      "inputs": [
        {
          "internalType": "uint64",
          "name": "roleId",
          "type": "uint64"
        },
        {
          "internalType": "uint64",
          "name": "guardian",
          "type": "uint64"
        }
      ],
      "name": "setRoleGuardian",
      "outputs": [],
      "stateMutability": "nonpayable",
      "type": "function"
    },
    {
      "inputs": [
        {
          "internalType": "address",
          "name": "target",
          "type": "address"
        },
        {
          "internalType": "uint32",
          "name": "newDelay",
          "type": "uint32"
        }
      ],
      "name": "setTargetAdminDelay",
      "outputs": [],
      "stateMutability": "nonpayable",
      "type": "function"
    },
    {
      "inputs": [
        {
          "internalType": "address",
          "name": "target",
          "type": "address"
        },
        {
          "internalType": "bool",
          "name": "closed",
          "type": "bool"
        }
      ],
      "name": "setTargetClosed",
      "outputs": [],
      "stateMutability": "nonpayable",
      "type": "function"
    },
    {
      "inputs": [
        {
          "internalType": "address",
          "name": "target",
          "type": "address"
        },
        {
          "internalType": "bytes4[]",
          "name": "selectors",
          "type": "bytes4[]"
        },
        {
          "internalType": "uint64",
          "name": "roleId",
          "type": "uint64"
        }
      ],
      "name": "setTargetFunctionRole",
      "outputs": [],
      "stateMutability": "nonpayable",
      "type": "function"
    },
    {
      "inputs": [
        {
          "internalType": "address",
          "name": "target",
          "type": "address"
        },
        {
          "internalType": "address",
          "name": "newAuthority",
          "type": "address"
        }
      ],
      "name": "updateAuthority",
      "outputs": [],
      "stateMutability": "nonpayable",
      "type": "function"
    }
  ],
  "bytecode": "0x608060405234801561001057600080fd5b50612b32806100206000396000f3fe6080604052600436106101e35760003560e01c80636d5115bd11610102578063b700961311610095578063d22b598911610064578063d22b598914610603578063d6bb62c614610623578063f801a69814610643578063fe0776f51461067d57600080fd5b8063b700961314610571578063b7d2b162146105ad578063cc1b6c81146105cd578063d1f856ee146105e357600080fd5b8063a166aa89116100d1578063a166aa89146104c6578063a64d95ce146104f6578063abd9bd2a14610516578063ac9650d81461054457600080fd5b80636d5115bd1461045157806375b238fc14610471578063853551b81461048657806394c7d7ee146104a657600080fd5b806330cae1871161017a5780634665096d116101495780634665096d146103db5780634c1da1e2146103f15780635296295214610411578063530dd4561461043157600080fd5b806330cae187146103495780633adc277a146103695780633ca7c02a146103a05780634136a33c146103bb57600080fd5b806318ff183c116101b657806318ff183c1461029c5780631cff79cd146102bc57806325c471a0146102cf5780633078f114146102ef57600080fd5b806308d6122d146101e85780630b0a93ba1461020a57806312be872714610247578063167bd3951461027c575b600080fd5b3480156101f457600080fd5b50610208610203366004612389565b61069d565b005b34801561021657600080fd5b5061022a6102253660046123ef565b6106f8565b6040516001600160401b0390911681526020015b60405180910390f35b34801561025357600080fd5b506102676102623660046123ef565b610731565b60405163ffffffff909116815260200161023e565b34801561028857600080fd5b5061020861029736600461240a565b61077d565b3480156102a857600080fd5b506102086102b7366004612448565b610793565b6102676102ca3660046124b7565b6107fa565b3480156102db57600080fd5b506102086102ea36600461251f565b610940565b3480156102fb57600080fd5b5061030f61030a366004612564565b610962565b60405161023e949392919065ffffffffffff948516815263ffffffff93841660208201529190921660408201529116606082015260800190565b34801561035557600080fd5b50610208610364366004612580565b6109d9565b34801561037557600080fd5b506103896103843660046125b3565b6109eb565b60405165ffffffffffff909116815260200161023e565b3480156103ac57600080fd5b5061022a6001600160401b0381565b3480156103c757600080fd5b506102676103d63660046125b3565b610a30565b3480156103e757600080fd5b5062093a80610267565b3480156103fd57600080fd5b5061026761040c3660046125cc565b610a5d565b34801561041d57600080fd5b5061020861042c366004612580565b610a99565b34801561043d57600080fd5b5061022a61044c3660046123ef565b610aab565b34801561045d57600080fd5b5061022a61046c3660046125ff565b610add565b34801561047d57600080fd5b5061022a600081565b34801561049257600080fd5b506102086104a136600461262d565b610b26565b3480156104b257600080fd5b506102086104c13660046124b7565b610bbd565b3480156104d257600080fd5b506104e66104e13660046125cc565b610c69565b604051901515815260200161023e565b34801561050257600080fd5b5061020861051136600461264b565b610ca2565b34801561052257600080fd5b50610536610531366004612675565b610cb4565b60405190815260200161023e565b34801561055057600080fd5b5061056461055f3660046126d9565b610ced565b60405161023e919061273e565b34801561057d57600080fd5b5061059161058c3660046127b8565b610ddf565b60408051921515835263ffffffff90911660208301520161023e565b3480156105b957600080fd5b506102086105c8366004612564565b610e66565b3480156105d957600080fd5b5062069780610267565b3480156105ef57600080fd5b506105916105fe366004612564565b610e7d565b34801561060f57600080fd5b5061020861061e366004612803565b610efa565b34801561062f57600080fd5b5061026761063e366004612675565b610f0c565b34801561064f57600080fd5b5061066361065e366004612821565b611077565b6040805192835263ffffffff90911660208301520161023e565b34801561068957600080fd5b50610208610698366004612564565b611222565b6106a561124b565b60005b828110156106f1576106e1858585848181106106c6576106c6612893565b90506020020160208101906106db91906128a9565b846112c6565b6106ea816128dc565b90506106a8565b5050505050565b600080610703611354565b6001600160401b0393841660009081526001918201602052604090200154600160401b900490921692915050565b60008061073c611354565b6001600160401b038416600090815260018281016020526040909120015490915061077690600160801b90046001600160701b0316611378565b9392505050565b61078561124b565b61078f8282611397565b5050565b61079b61124b565b604051637a9e5e4b60e01b81526001600160a01b038281166004830152831690637a9e5e4b90602401600060405180830381600087803b1580156107de57600080fd5b505af11580156107f2573d6000803e3d6000fd5b505050505050565b600080610805611354565b9050336000806108178389898961143d565b915091508115801561082d575063ffffffff8116155b1561088057828861083e8989611490565b6040516381c6f24b60e01b81526001600160a01b0393841660048201529290911660248301526001600160e01b03191660448201526064015b60405180910390fd5b600061088e848a8a8a610cb4565b9050600063ffffffff83161515806108b557506108aa826109eb565b65ffffffffffff1615155b156108c6576108c3826114a8565b90505b60038601546108de8b6108d98c8c611490565b6115bc565b87600301819055506109288b8b8b8080601f0160208091040260200160405190810160405280939291908181526020018383808284376000920191909152503492506115fe915050565b50600390960195909555509293505050509392505050565b61094861124b565b61095c838361095686610731565b8461169b565b50505050565b6000806000806000610972611354565b6001600160401b038816600090815260018201602090815260408083206001600160a01b038b1684529091529020805465ffffffffffff81169750919250906109ca90600160301b90046001600160701b03166118fa565b979a9199509750945050505050565b6109e161124b565b61078f828261191d565b6000806109f6611354565b600084815260028201602052604090205490915065ffffffffffff16610a1b816119cf565b610a255780610a28565b60005b949350505050565b600080610a3b611354565b600093845260020160205250506040902054600160301b900463ffffffff1690565b600080610a68611354565b6001600160a01b038416600090815260208290526040902060010154909150610776906001600160701b0316611378565b610aa161124b565b61078f82826119fe565b600080610ab6611354565b6001600160401b039384166000908152600191820160205260409020015490921692915050565b600080610ae8611354565b6001600160a01b0385166000908152602091825260408082206001600160e01b03198716835290925220546001600160401b03169150505b92915050565b610b2e61124b565b6001600160401b0383161580610b4c57506001600160401b03838116145b15610b755760405163061c6a4360e21b81526001600160401b0384166004820152602401610877565b826001600160401b03167f1256f5b5ecb89caec12db449738f2fbcd1ba5806cf38f35413f4e5c15bf6a4508383604051610bb092919061291e565b60405180910390a2505050565b60408051638fb3603760e01b80825291513392918391638fb36037916004808201926020929091908290030181865afa158015610bfe573d6000803e3d6000fd5b505050506040513d601f19601f82011682018060405250810190610c229190612932565b6001600160e01b03191614610c5557604051630641fee960e31b81526001600160a01b0382166004820152602401610877565b6106f1610c6485838686610cb4565b6114a8565b600080610c74611354565b6001600160a01b0390931660009081526020939093525050604090206001015460ff600160701b9091041690565b610caa61124b565b61078f8282611abe565b600084848484604051602001610ccd949392919061294f565b604051602081830303815290604052805190602001209050949350505050565b604080516000815260208101909152606090826001600160401b03811115610d1757610d176129a6565b604051908082528060200260200182016040528015610d4a57816020015b6060815260200190600190039081610d355790505b50915060005b83811015610dd757610da730868684818110610d6e57610d6e612893565b9050602002810190610d8091906129bc565b85604051602001610d9393929190612a02565b604051602081830303815290604052611beb565b838281518110610db957610db9612893565b60200260200101819052508080610dcf906128dc565b915050610d50565b505092915050565b600080610deb84610c69565b15610dfb57506000905080610e5e565b306001600160a01b03861603610e2057610e158484611c61565b600091509150610e5e565b6000610e2c8585610add565b9050600080610e3b8389610e7d565b9150915081610e4c57600080610e56565b63ffffffff811615815b945094505050505b935093915050565b610e6e61124b565b610e788282611c86565b505050565b60008067fffffffffffffffe196001600160401b03851601610ea55750600190506000610ef3565b600080610eb28686610962565b5050915091508165ffffffffffff16600014158015610ee85750610ed4611d85565b65ffffffffffff168265ffffffffffff1611155b93509150610ef39050565b9250929050565b610f0261124b565b61078f8282611d95565b600080610f17611354565b9050336000610f268686611490565b90506000610f3689898989610cb4565b600081815260028601602052604081205491925065ffffffffffff9091169003610f765760405163060a299b60e41b815260048101829052602401610877565b826001600160a01b0316896001600160a01b031614611012576000610f9c600085610e7d565b5090506000610fb7610fb16102258c87610add565b86610e7d565b50905081158015610fc6575080155b1561100f57604051630ff89d4760e21b81526001600160a01b038087166004830152808d1660248301528b1660448201526001600160e01b031985166064820152608401610877565b50505b6000818152600285016020526040808220805465ffffffffffff1916908190559051600160301b90910463ffffffff1691829184917fbd9ac67a6e2f6463b80927326310338bcbb4bdb7936ce1365ea3e01067e7b9f791a39998505050505050505050565b6000806000611084611354565b9050336000611095828a8a8a61143d565b91505060008163ffffffff166110a9611d85565b6110b39190612a29565b905063ffffffff821615806110ea575060008765ffffffffffff161180156110ea57508065ffffffffffff168765ffffffffffff16105b156110fb57828a61083e8b8b611490565b6111158765ffffffffffff168265ffffffffffff16611e61565b9650611123838b8b8b610cb4565b955061112e86611e77565b83600201600087815260200190815260200160002060000160069054906101000a900463ffffffff1660010194508684600201600088815260200190815260200160002060000160006101000a81548165ffffffffffff021916908365ffffffffffff1602179055508484600201600088815260200190815260200160002060000160066101000a81548163ffffffff021916908363ffffffff1602179055508463ffffffff16867f82a2da5dee54ea8021c6545b4444620291e07ee83be6dd57edb175062715f3b489868e8e8e60405161120d959493929190612a4f565b60405180910390a35050505094509492505050565b6001600160a01b0381163314610e6e57604051635f159e6360e01b815260040160405180910390fd5b3360008061125a838236611ed3565b9150915081610e78578063ffffffff166000036112b657600061127d8136611f8b565b5060405163f07e038f60e01b81526001600160a01b03871660048201526001600160401b03821660248201529092506044019050610877565b61095c610c648430600036610cb4565b60006112d0611354565b6001600160a01b0385166000818152602083815260408083206001600160e01b0319891680855290835292819020805467ffffffffffffffff19166001600160401b03891690811790915590519283529394507f9ea6790c7dadfd01c9f8b9762b3682607af2c7e79e05a9f9fdf5580dde949151910160405180910390a350505050565b7f40c6c8c28789853c7efd823ab20824bbd71718a8a5915e855f6f288c9a26ad0090565b60008061138d836001600160701b03166118fa565b5090949350505050565b60006113a1611354565b9050306001600160a01b038416036113d757604051630b40d17960e31b81526001600160a01b0384166004820152602401610877565b6001600160a01b038316600081815260208390526040908190206001018054851515600160701b0260ff60701b19909116179055517f90d4e7bb7e5d933792b3562e1741306f8be94837e1348dacef9b6f1df56eb13890610bb090851515815260200190565b600080306001600160a01b038616036114645761145b868585611ed3565b91509150611487565b600483106114805761147b868661058c8787611490565b61145b565b5060009050805b94509492505050565b600061149f600482848661297c565b61077691612a95565b6000806114b3611354565b600084815260028201602052604081205491925065ffffffffffff821691600160301b900463ffffffff16908290036115025760405163060a299b60e41b815260048101869052602401610877565b61150a611d85565b65ffffffffffff168265ffffffffffff16111561153d57604051630c65b5bd60e11b815260048101869052602401610877565b611546826119cf565b1561156757604051631e2975b960e21b815260048101869052602401610877565b6000858152600284016020526040808220805465ffffffffffff191690555163ffffffff83169187917f76a2a46953689d4861a5d3f6ed883ad7e6af674a21f8e162707159fc9dde614d9190a3949350505050565b604080516001600160a01b03939093166020808501919091526001600160e01b0319929092168382015280518084038201815260609093019052815191012090565b6060814710156116235760405163cd78605960e01b8152306004820152602401610877565b600080856001600160a01b0316848660405161163f9190612ac3565b60006040518083038185875af1925050503d806000811461167c576040519150601f19603f3d011682016040523d82523d6000602084013e611681565b606091505b5091509150611691868383612157565b9695505050505050565b6000806116a6611354565b905067fffffffffffffffe196001600160401b038716016116e55760405163061c6a4360e21b81526001600160401b0387166004820152602401610877565b6001600160401b038616600090815260018201602090815260408083206001600160a01b038916845290915281205465ffffffffffff16159081156117db578563ffffffff16611733611d85565b61173d9190612a29565b905060405180604001604052808265ffffffffffff16815260200161176b8763ffffffff1663ffffffff1690565b6001600160701b039081169091526001600160401b038a16600090815260018601602090815260408083206001600160a01b038d1684528252909120835181549490920151909216600160301b026001600160a01b031990931665ffffffffffff9091161791909117905561188b565b6001600160401b038816600090815260018401602090815260408083206001600160a01b038b16845290915281205461182791600160301b9091046001600160701b03169087906121b3565b6001600160401b038a16600090815260018601602090815260408083206001600160a01b038d168452909152902080546001600160701b03909316600160301b0273ffffffffffffffffffffffffffff000000000000199093169290921790915590505b6040805163ffffffff8716815265ffffffffffff831660208201528315158183015290516001600160a01b038916916001600160401b038b16917ff98448b987f1428e0e230e1f3c6e2ce15b5693eaf31827fbd0b1ec4b424ae7cf9181900360600190a3509695505050505050565b60008060006119108461190b611d85565b61225d565b9250925092509193909250565b6000611927611354565b90506001600160401b038316158061194757506001600160401b03838116145b156119705760405163061c6a4360e21b81526001600160401b0384166004820152602401610877565b6001600160401b03838116600081815260018481016020526040808320909101805467ffffffffffffffff19169487169485179055517f1fd6dd7631312dfac2205b52913f99de03b4d7e381d5d27d3dbfe0713e6e63409190a3505050565b60006119d9611d85565b65ffffffffffff166119ee62093a8084612a29565b65ffffffffffff16111592915050565b6000611a08611354565b90506001600160401b0383161580611a2857506001600160401b03838116145b15611a515760405163061c6a4360e21b81526001600160401b0384166004820152602401610877565b6001600160401b0383811660008181526001848101602052604080832090910180546fffffffffffffffff00000000000000001916600160401b958816958602179055517f7a8059630b897b5de4c08ade69f8b90c3ead1f8596d62d10b6c4d14a0afb4ae29190a3505050565b6000611ac8611354565b905067fffffffffffffffe196001600160401b03841601611b075760405163061c6a4360e21b81526001600160401b0384166004820152602401610877565b6001600160401b03831660009081526001828101602052604082200154611b4290600160801b90046001600160701b031684620697806121b3565b6001600160401b038616600081815260018087016020526040918290200180546001600160701b03909516600160801b026dffffffffffffffffffffffffffff60801b199095169490941790935591519092507ffeb69018ee8b8fd50ea86348f1267d07673379f72cffdeccec63853ee8ce8b4890611bdd908690859063ffffffff92909216825265ffffffffffff16602082015260400190565b60405180910390a250505050565b6060600080846001600160a01b031684604051611c089190612ac3565b600060405180830381855af49150503d8060008114611c43576040519150601f19603f3d011682016040523d82523d6000602084013e611c48565b606091505b5091509150611c58858383612157565b95945050505050565b600080611c6c611354565b9050611c7884846115bc565b600390910154149392505050565b600080611c91611354565b905067fffffffffffffffe196001600160401b03851601611cd05760405163061c6a4360e21b81526001600160401b0385166004820152602401610877565b6001600160401b038416600090815260018201602090815260408083206001600160a01b038716845290915281205465ffffffffffff169003611d17576000915050610b20565b6001600160401b038416600081815260018301602090815260408083206001600160a01b038816808552925280832080546001600160a01b0319169055519092917ff229baa593af28c41b1d16b748cd7688f0c83aaf92d4be41c44005defe84c16691a35060019392505050565b6000611d90426122b1565b905090565b6000611d9f611354565b90506000611dd783620697806001600160a01b0387166000908152602086905260409020600101546001600160701b031691906121b3565b6001600160a01b0386166000818152602086815260409182902060010180546dffffffffffffffffffffffffffff19166001600160701b039690961695909517909455805163ffffffff8816815265ffffffffffff841694810194909452919350917fa56b76017453f399ec2327ba00375dbfb1fd070ff854341ad6191e6a2e2de19c9101611bdd565b6000818311611e705781610776565b5090919050565b6000611e81611354565b600083815260028201602052604090205490915065ffffffffffff168015801590611eb25750611eb0816119cf565b155b15610e785760405163813e945960e01b815260048101849052602401610877565b6000806004831015611eea57506000905080610e5e565b306001600160a01b03861603611f0d57610e1530611f088686611490565b611c61565b6000806000611f1c8787611f8b565b92509250925082611f365760008094509450505050610e5e565b600080611f43848b610e7d565b9150915081611f5d57600080965096505050505050610e5e565b611f738363ffffffff168263ffffffff16611e61565b63ffffffff8116159b909a5098505050505050505050565b600080806004841015611fa657506000915081905080612150565b6000611fb28686611490565b90506001600160e01b031981166310a6aa3760e31b1480611fe357506001600160e01b031981166330cae18760e01b145b80611ffe57506001600160e01b0319811663294b14a960e11b145b8061201957506001600160e01b03198116635326cae760e11b145b8061203457506001600160e01b0319811663d22b598960e01b145b1561204a57600160008093509350935050612150565b6001600160e01b0319811663063fc60f60e21b148061207957506001600160e01b0319811663167bd39560e01b145b8061209457506001600160e01b031981166308d6122d60e01b145b156120d65760006120a960246004888a61297c565b8101906120b691906125cc565b905060006120c382610a5d565b6001965060009550935061215092505050565b6001600160e01b0319811663012e238d60e51b148061210557506001600160e01b03198116635be958b160e11b145b1561214357600061211a60246004888a61297c565b81019061212791906123ef565b9050600161213482610aab565b60009450945094505050612150565b6000806000935093509350505b9250925092565b60608261216c57612167826122e8565b610776565b815115801561218357506001600160a01b0384163b155b156121ac57604051639996b31560e01b81526001600160a01b0385166004820152602401610877565b5080610776565b60008060006121ca866001600160701b0316611378565b905060006122078563ffffffff168763ffffffff168463ffffffff16116121f25760006121fc565b6121fc8885612adf565b63ffffffff16611e61565b90508063ffffffff16612218611d85565b6122229190612a29565b925063ffffffff8616602083901b67ffffffff0000000016604085901b6dffffffffffff000000000000000016171793505050935093915050565b6000808069ffffffffffffffffffff602086901c166001600160701b03861665ffffffffffff604088901c811690871681111561229c578282826122a1565b816000805b9550955095505050509250925092565b600065ffffffffffff8211156122e4576040516306dfcc6560e41b81526030600482015260248101839052604401610877565b5090565b8051156122f85780518082602001fd5b604051630a12f52160e11b815260040160405180910390fd5b50565b6001600160a01b038116811461231157600080fd5b60008083601f84011261233b57600080fd5b5081356001600160401b0381111561235257600080fd5b6020830191508360208260051b8501011115610ef357600080fd5b80356001600160401b038116811461238457600080fd5b919050565b6000806000806060858703121561239f57600080fd5b84356123aa81612314565b935060208501356001600160401b038111156123c557600080fd5b6123d187828801612329565b90945092506123e490506040860161236d565b905092959194509250565b60006020828403121561240157600080fd5b6107768261236d565b6000806040838503121561241d57600080fd5b823561242881612314565b91506020830135801515811461243d57600080fd5b809150509250929050565b6000806040838503121561245b57600080fd5b823561246681612314565b9150602083013561243d81612314565b60008083601f84011261248857600080fd5b5081356001600160401b0381111561249f57600080fd5b602083019150836020828501011115610ef357600080fd5b6000806000604084860312156124cc57600080fd5b83356124d781612314565b925060208401356001600160401b038111156124f257600080fd5b6124fe86828701612476565b9497909650939450505050565b803563ffffffff8116811461238457600080fd5b60008060006060848603121561253457600080fd5b61253d8461236d565b9250602084013561254d81612314565b915061255b6040850161250b565b90509250925092565b6000806040838503121561257757600080fd5b6124668361236d565b6000806040838503121561259357600080fd5b61259c8361236d565b91506125aa6020840161236d565b90509250929050565b6000602082840312156125c557600080fd5b5035919050565b6000602082840312156125de57600080fd5b813561077681612314565b6001600160e01b03198116811461231157600080fd5b6000806040838503121561261257600080fd5b823561261d81612314565b9150602083013561243d816125e9565b60008060006040848603121561264257600080fd5b6124d78461236d565b6000806040838503121561265e57600080fd5b6126678361236d565b91506125aa6020840161250b565b6000806000806060858703121561268b57600080fd5b843561269681612314565b935060208501356126a681612314565b925060408501356001600160401b038111156126c157600080fd5b6126cd87828801612476565b95989497509550505050565b600080602083850312156126ec57600080fd5b82356001600160401b0381111561270257600080fd5b61270e85828601612329565b90969095509350505050565b60005b8381101561273557818101518382015260200161271d565b50506000910152565b6000602080830181845280855180835260408601915060408160051b870101925083870160005b828110156127ab57878503603f190184528151805180875261278c818989018a850161271a565b601f01601f191695909501860194509285019290850190600101612765565b5092979650505050505050565b6000806000606084860312156127cd57600080fd5b83356127d881612314565b925060208401356127e881612314565b915060408401356127f8816125e9565b809150509250925092565b6000806040838503121561281657600080fd5b823561266781612314565b6000806000806060858703121561283757600080fd5b843561284281612314565b935060208501356001600160401b0381111561285d57600080fd5b61286987828801612476565b909450925050604085013565ffffffffffff8116811461288857600080fd5b939692955090935050565b634e487b7160e01b600052603260045260246000fd5b6000602082840312156128bb57600080fd5b8135610776816125e9565b634e487b7160e01b600052601160045260246000fd5b6000600182016128ee576128ee6128c6565b5060010190565b81835281816020850137506000828201602090810191909152601f909101601f19169091010190565b602081526000610a286020830184866128f5565b60006020828403121561294457600080fd5b8151610776816125e9565b6001600160a01b0385811682528416602082015260606040820181905260009061169190830184866128f5565b6000808585111561298c57600080fd5b8386111561299957600080fd5b5050820193919092039150565b634e487b7160e01b600052604160045260246000fd5b6000808335601e198436030181126129d357600080fd5b8301803591506001600160401b038211156129ed57600080fd5b602001915036819003821315610ef357600080fd5b828482376000838201600081528351612a1f81836020880161271a565b0195945050505050565b65ffffffffffff818116838216019080821115612a4857612a486128c6565b5092915050565b65ffffffffffff861681526001600160a01b03858116602083015284166040820152608060608201819052600090612a8a90830184866128f5565b979650505050505050565b6001600160e01b03198135818116916004851015610dd75760049490940360031b84901b1690921692915050565b60008251612ad581846020870161271a565b9190910192915050565b63ffffffff828116828216039080821115612a4857612a486128c656fea2646970667358221220f8385e92f0b8c190e4fcb8e83c311e42a0ef02eed831f05c1d3539a5c532383d64736f6c63430008140033",
  "linkReferences": {},
  "deployedLinkReferences": {}
}