{
  "_format": "hh-sol-artifact-1",
  "contractName": "VestingWalletUpgradeable",
  "sourceName": "contracts/finance/VestingWalletUpgradeable.sol",
  "abi": [
    {
      "inputs": [
        {
          "internalType": "address",
          "name": "target",
          "type": "address"
        }
      ],
      "name": "AddressEmptyCode",
      "type": "error"
    },
    {
      "inputs": [
        {
          "internalType": "address",
          "name": "account",
          "type": "address"
        }
      ],
      "name": "AddressInsufficientBalance",
      "type": "error"
    },
    {
      "inputs": [],
      "name": "FailedInnerCall",
      "type": "error"
    },
    {
      "inputs": [],
      "name": "InvalidInitialization",
      "type": "error"
    },
    {
      "inputs": [],
      "name": "NotInitializing",
      "type": "error"
    },
    {
      "inputs": [
        {
          "internalType": "address",
          "name": "owner",
          "type": "address"
        }
      ],
      "name": "OwnableInvalidOwner",
      "type": "error"
    },
    {
      "inputs": [
        {
          "internalType": "address",
          "name": "account",
          "type": "address"
        }
      ],
      "name": "OwnableUnauthorizedAccount",
      "type": "error"
    },
    {
      "inputs": [
        {
          "internalType": "address",
          "name": "token",
          "type": "address"
        }
      ],
      "name": "SafeERC20FailedOperation",
      "type": "error"
    },
    {
      "anonymous": false,
      "inputs": [
        {
          "indexed": true,
          "internalType": "address",
          "name": "token",
          "type": "address"
        },
        {
          "indexed": false,
          "internalType": "uint256",
          "name": "amount",
          "type": "uint256"
        }
      ],
      "name": "ERC20Released",
      "type": "event"
    },
    {
      "anonymous": false,
      "inputs": [
        {
          "indexed": false,
          "internalType": "uint256",
          "name": "amount",
          "type": "uint256"
        }
      ],
      "name": "EtherReleased",
      "type": "event"
    },
    {
      "anonymous": false,
      "inputs": [
        {
          "indexed": false,
          "internalType": "uint64",
          "name": "version",
          "type": "uint64"
        }
      ],
      "name": "Initialized",
      "type": "event"
    },
    {
      "anonymous": false,
      "inputs": [
        {
          "indexed": true,
          "internalType": "address",
          "name": "previousOwner",
          "type": "address"
        },
        {
          "indexed": true,
          "internalType": "address",
          "name": "newOwner",
          "type": "address"
        }
      ],
      "name": "OwnershipTransferred",
      "type": "event"
    },
    {
      "inputs": [],
      "name": "duration",
      "outputs": [
        {
          "internalType": "uint256",
          "name": "",
          "type": "uint256"
        }
      ],
      "stateMutability": "view",
      "type": "function"
    },
    {
      "inputs": [],
      "name": "end",
      "outputs": [
        {
          "internalType": "uint256",
          "name": "",
          "type": "uint256"
        }
      ],
      "stateMutability": "view",
      "type": "function"
    },
    {
      "inputs": [],
      "name": "owner",
      "outputs": [
        {
          "internalType": "address",
          "name": "",
          "type": "address"
        }
      ],
      "stateMutability": "view",
      "type": "function"
    },
    {
      "inputs": [
        {
          "internalType": "address",
          "name": "token",
          "type": "address"
        }
      ],
      "name": "releasable",
      "outputs": [
        {
          "internalType": "uint256",
          "name": "",
          "type": "uint256"
        }
      ],
      "stateMutability": "view",
      "type": "function"
    },
    {
      "inputs": [],
      "name": "releasable",
      "outputs": [
        {
          "internalType": "uint256",
          "name": "",
          "type": "uint256"
        }
      ],
      "stateMutability": "view",
      "type": "function"
    },
    {
      "inputs": [
        {
          "internalType": "address",
          "name": "token",
          "type": "address"
        }
      ],
      "name": "release",
      "outputs": [],
      "stateMutability": "nonpayable",
      "type": "function"
    },
    {
      "inputs": [],
      "name": "release",
      "outputs": [],
      "stateMutability": "nonpayable",
      "type": "function"
    },
    {
      "inputs": [],
      "name": "released",
      "outputs": [
        {
          "internalType": "uint256",
          "name": "",
          "type": "uint256"
        }
      ],
      "stateMutability": "view",
      "type": "function"
    },
    {
      "inputs": [
        {
          "internalType": "address",
          "name": "token",
          "type": "address"
        }
      ],
      "name": "released",
      "outputs": [
        {
          "internalType": "uint256",
          "name": "",
          "type": "uint256"
        }
      ],
      "stateMutability": "view",
      "type": "function"
    },
    {
      "inputs": [],
      "name": "renounceOwnership",
      "outputs": [],
      "stateMutability": "nonpayable",
      "type": "function"
    },
    {
      "inputs": [],
      "name": "start",
      "outputs": [
        {
          "internalType": "uint256",
          "name": "",
          "type": "uint256"
        }
      ],
      "stateMutability": "view",
      "type": "function"
    },
    {
      "inputs": [
        {
          "internalType": "address",
          "name": "newOwner",
          "type": "address"
        }
      ],
      "name": "transferOwnership",
      "outputs": [],
      "stateMutability": "nonpayable",
      "type": "function"
    },
    {
      "inputs": [
        {
          "internalType": "uint64",
          "name": "timestamp",
          "type": "uint64"
        }
      ],
      "name": "vestedAmount",
      "outputs": [
        {
          "internalType": "uint256",
          "name": "",
          "type": "uint256"
        }
      ],
      "stateMutability": "view",
      "type": "function"
    },
    {
      "inputs": [
        {
          "internalType": "address",
          "name": "token",
          "type": "address"
        },
        {
          "internalType": "uint64",
          "name": "timestamp",
          "type": "uint64"
        }
      ],
      "name": "vestedAmount",
      "outputs": [
        {
          "internalType": "uint256",
          "name": "",
          "type": "uint256"
        }
      ],
      "stateMutability": "view",
      "type": "function"
    },
    {
      "stateMutability": "payable",
      "type": "receive"
    }
  ],
  "bytecode": "0x608060405234801561001057600080fd5b50610b43806100206000396000f3fe6080604052600436106100e15760003560e01c8063961325211161007f578063be9a655511610059578063be9a655514610230578063efbe1c1c14610245578063f2fde38b1461025a578063fbccedae1461027a57600080fd5b806396132521146101ce5780639852595c146101f0578063a3f8eace1461021057600080fd5b8063715018a6116100bb578063715018a614610157578063810ec23b1461016c57806386d1a69f1461018c5780638da5cb5b146101a157600080fd5b80630a17b06b146100ed5780630fb5a6b414610120578063191655871461013557600080fd5b366100e857005b600080fd5b3480156100f957600080fd5b5061010d61010836600461098e565b61028f565b6040519081526020015b60405180910390f35b34801561012c57600080fd5b5061010d6102c0565b34801561014157600080fd5b506101556101503660046109c0565b6102fb565b005b34801561016357600080fd5b5061015561039e565b34801561017857600080fd5b5061010d6101873660046109db565b6103b2565b34801561019857600080fd5b50610155610439565b3480156101ad57600080fd5b506101b66104b5565b6040516001600160a01b039091168152602001610117565b3480156101da57600080fd5b50600080516020610aee8339815191525461010d565b3480156101fc57600080fd5b5061010d61020b3660046109c0565b6104e3565b34801561021c57600080fd5b5061010d61022b3660046109c0565b61051d565b34801561023c57600080fd5b5061010d61053c565b34801561025157600080fd5b5061010d61056b565b34801561026657600080fd5b506101556102753660046109c0565b61058c565b34801561028657600080fd5b5061010d6105cf565b60006102ba6102aa600080516020610aee8339815191525490565b6102b49047610a24565b836105fa565b92915050565b7fa1eac494560f7591e4da38ed031587f09556afdfc4399dd2e205b935fdfa39025468010000000000000000900467ffffffffffffffff1690565b600080516020610aee83398151915260006103158361051d565b6001600160a01b0384166000908152600184016020526040812080549293508392909190610344908490610a24565b90915550506040518181526001600160a01b038416907fc0e523490dd523c33b1878c9eb14ff46991e3f5b2cd33710918618f2a39cba1b9060200160405180910390a2610399836103936104b5565b8361067b565b505050565b6103a66106cd565b6103b060006106ff565b565b60006104326103c0846104e3565b6040516370a0823160e01b81523060048201526001600160a01b038616906370a0823190602401602060405180830381865afa158015610404573d6000803e3d6000fd5b505050506040513d601f19601f820116820180604052508101906104289190610a37565b6102b49190610a24565b9392505050565b600080516020610aee83398151915260006104526105cf565b9050808260000160008282546104689190610a24565b90915550506040518181527fda9d4e5f101b8b9b1c5b76d0c5a9f7923571acfc02376aa076b75a8c080c956b9060200160405180910390a16104b16104ab6104b5565b82610770565b5050565b7f9016d09d72d40fdae2fd8ceac6b6234c7706214fd39c1cd1e609a0528c199300546001600160a01b031690565b6001600160a01b031660009081527fa1eac494560f7591e4da38ed031587f09556afdfc4399dd2e205b935fdfa3901602052604090205490565b6000610528826104e3565b61053283426103b2565b6102ba9190610a50565b7fa1eac494560f7591e4da38ed031587f09556afdfc4399dd2e205b935fdfa39025467ffffffffffffffff1690565b60006105756102c0565b61057d61053c565b6105879190610a24565b905090565b6105946106cd565b6001600160a01b0381166105c357604051631e4fbdf760e01b8152600060048201526024015b60405180910390fd5b6105cc816106ff565b50565b60006105e7600080516020610aee8339815191525490565b6105f04261028f565b6105879190610a50565b600061060461053c565b8267ffffffffffffffff16101561061d575060006102ba565b61062561056b565b8267ffffffffffffffff161061063c5750816102ba565b6106446102c0565b61064c61053c565b6106609067ffffffffffffffff8516610a50565b61066a9085610a63565b6106749190610a7a565b90506102ba565b604080516001600160a01b038416602482015260448082018490528251808303909101815260649091019091526020810180516001600160e01b031663a9059cbb60e01b179052610399908490610807565b336106d66104b5565b6001600160a01b0316146103b05760405163118cdaa760e01b81523360048201526024016105ba565b7f9016d09d72d40fdae2fd8ceac6b6234c7706214fd39c1cd1e609a0528c19930080546001600160a01b031981166001600160a01b03848116918217845560405192169182907f8be0079c531659141344cd1fd0a4f28419497f9722a3daafe3b4186f6b6457e090600090a3505050565b804710156107935760405163cd78605960e01b81523060048201526024016105ba565b6000826001600160a01b03168260405160006040518083038185875af1925050503d80600081146107e0576040519150601f19603f3d011682016040523d82523d6000602084013e6107e5565b606091505b505090508061039957604051630a12f52160e11b815260040160405180910390fd5b600061081c6001600160a01b0384168361086a565b9050805160001415801561084157508080602001905181019061083f9190610a9c565b155b1561039957604051635274afe760e01b81526001600160a01b03841660048201526024016105ba565b60606104328383600084600080856001600160a01b031684866040516108909190610abe565b60006040518083038185875af1925050503d80600081146108cd576040519150601f19603f3d011682016040523d82523d6000602084013e6108d2565b606091505b50915091506108e28683836108ec565b9695505050505050565b606082610901576108fc82610948565b610432565b815115801561091857506001600160a01b0384163b155b1561094157604051639996b31560e01b81526001600160a01b03851660048201526024016105ba565b5080610432565b8051156109585780518082602001fd5b604051630a12f52160e11b815260040160405180910390fd5b803567ffffffffffffffff8116811461098957600080fd5b919050565b6000602082840312156109a057600080fd5b61043282610971565b80356001600160a01b038116811461098957600080fd5b6000602082840312156109d257600080fd5b610432826109a9565b600080604083850312156109ee57600080fd5b6109f7836109a9565b9150610a0560208401610971565b90509250929050565b634e487b7160e01b600052601160045260246000fd5b808201808211156102ba576102ba610a0e565b600060208284031215610a4957600080fd5b5051919050565b818103818111156102ba576102ba610a0e565b80820281158282048414176102ba576102ba610a0e565b600082610a9757634e487b7160e01b600052601260045260246000fd5b500490565b600060208284031215610aae57600080fd5b8151801515811461043257600080fd5b6000825160005b81811015610adf5760208186018101518583015201610ac5565b50600092019182525091905056fea1eac494560f7591e4da38ed031587f09556afdfc4399dd2e205b935fdfa3900a26469706673582212206ffbf66d76b47cf378c77f086b7f66790fe26ae097f54c7d03c5d3dedaa37f4e64736f6c63430008140033",
  "linkReferences": {},
  "deployedLinkReferences": {}
}